{
	"Access_Matrix.sol": {
		"Access_matrix": {
			"abi": [
				{
					"constant": false,
					"inputs": [
						{
							"internalType": "string",
							"name": "_hash",
							"type": "string"
						},
						{
							"internalType": "uint256",
							"name": "index",
							"type": "uint256"
						},
						{
							"internalType": "string",
							"name": "_activity",
							"type": "string"
						}
					],
					"name": "deleteVariable",
					"outputs": [],
					"payable": false,
					"stateMutability": "nonpayable",
					"type": "function"
				},
				{
					"constant": true,
					"inputs": [
						{
							"internalType": "string",
							"name": "_hash",
							"type": "string"
						},
						{
							"internalType": "uint256",
							"name": "index",
							"type": "uint256"
						},
						{
							"internalType": "string",
							"name": "_activity",
							"type": "string"
						},
						{
							"internalType": "address",
							"name": "_role",
							"type": "address"
						}
					],
					"name": "getAccess",
					"outputs": [
						{
							"internalType": "uint8",
							"name": "_access",
							"type": "uint8"
						}
					],
					"payable": false,
					"stateMutability": "view",
					"type": "function"
				},
				{
					"constant": true,
					"inputs": [
						{
							"internalType": "string",
							"name": "_hash",
							"type": "string"
						},
						{
							"internalType": "uint256",
							"name": "index",
							"type": "uint256"
						}
					],
					"name": "getVariableName",
					"outputs": [
						{
							"internalType": "string",
							"name": "_varName",
							"type": "string"
						}
					],
					"payable": false,
					"stateMutability": "view",
					"type": "function"
				},
				{
					"constant": true,
					"inputs": [
						{
							"internalType": "string",
							"name": "_hash",
							"type": "string"
						},
						{
							"internalType": "uint256",
							"name": "index",
							"type": "uint256"
						}
					],
					"name": "getVariableValue",
					"outputs": [
						{
							"internalType": "uint32",
							"name": "_var",
							"type": "uint32"
						}
					],
					"payable": false,
					"stateMutability": "view",
					"type": "function"
				},
				{
					"constant": false,
					"inputs": [
						{
							"internalType": "string",
							"name": "_hash",
							"type": "string"
						},
						{
							"internalType": "uint256",
							"name": "index",
							"type": "uint256"
						},
						{
							"internalType": "string",
							"name": "_newName",
							"type": "string"
						}
					],
					"name": "setVariableName",
					"outputs": [],
					"payable": false,
					"stateMutability": "nonpayable",
					"type": "function"
				},
				{
					"constant": false,
					"inputs": [
						{
							"internalType": "string",
							"name": "_hash",
							"type": "string"
						},
						{
							"internalType": "uint256",
							"name": "index",
							"type": "uint256"
						},
						{
							"internalType": "string",
							"name": "_activity",
							"type": "string"
						},
						{
							"internalType": "address",
							"name": "_role",
							"type": "address"
						},
						{
							"internalType": "uint8",
							"name": "_val",
							"type": "uint8"
						}
					],
					"name": "updateMatrix",
					"outputs": [],
					"payable": false,
					"stateMutability": "nonpayable",
					"type": "function"
				},
				{
					"constant": false,
					"inputs": [
						{
							"internalType": "string",
							"name": "_hash",
							"type": "string"
						},
						{
							"internalType": "uint256",
							"name": "index",
							"type": "uint256"
						},
						{
							"internalType": "uint32",
							"name": "_variable_value",
							"type": "uint32"
						},
						{
							"internalType": "string",
							"name": "_activity",
							"type": "string"
						}
					],
					"name": "updateValue",
					"outputs": [],
					"payable": false,
					"stateMutability": "nonpayable",
					"type": "function"
				},
				{
					"constant": false,
					"inputs": [
						{
							"internalType": "string",
							"name": "_hash",
							"type": "string"
						},
						{
							"internalType": "string",
							"name": "_newName",
							"type": "string"
						},
						{
							"internalType": "string[]",
							"name": "_activities",
							"type": "string[]"
						},
						{
							"internalType": "address[]",
							"name": "_roles",
							"type": "address[]"
						},
						{
							"internalType": "uint8[]",
							"name": "_vals",
							"type": "uint8[]"
						},
						{
							"internalType": "uint256",
							"name": "nbOfElements",
							"type": "uint256"
						}
					],
					"name": "uploadMatrix",
					"outputs": [],
					"payable": false,
					"stateMutability": "nonpayable",
					"type": "function"
				}
			],
			"devdoc": {
				"methods": {
					"deleteVariable(string,uint256,string)": {
						"details": "deletes the contract if the caller has the authorization (first bit starting from right).",
						"params": {
							"_activity": "that want to have access"
						}
					},
					"getVariableValue(string,uint256)": {
						"details": "Get the variable value",
						"return": "_var the variable value "
					},
					"updateMatrix(string,uint256,string,address,uint8)": {
						"details": "Update an entry of the access matrix",
						"params": {
							"_activity": "is the name of the activity ",
							"_role": "is the role",
							"_val": "is a 4 bit int that allows to find if a certain matrix entry has access or not to a vraiable (read,write,create,delete) are the four bits."
						}
					},
					"updateValue(string,uint256,uint32,string)": {
						"details": "Update the variable value if the caller has access",
						"params": {
							"_activity": "name of the activity that want to update the variable value",
							"_variable_value": "new variable value "
						}
					}
				}
			},
			"evm": {
				"assembly": "    /* \"Access_Matrix.sol\":94:2980  contract Access_matrix {... */\n  mstore(0x40, 0x80)\n  callvalue\n    /* \"--CODEGEN--\":8:17   */\n  dup1\n    /* \"--CODEGEN--\":5:7   */\n  iszero\n  tag_1\n  jumpi\n    /* \"--CODEGEN--\":30:31   */\n  0x00\n    /* \"--CODEGEN--\":27:28   */\n  dup1\n    /* \"--CODEGEN--\":20:32   */\n  revert\n    /* \"--CODEGEN--\":5:7   */\ntag_1:\n    /* \"Access_Matrix.sol\":94:2980  contract Access_matrix {... */\n  pop\n  dataSize(sub_0)\n  dup1\n  dataOffset(sub_0)\n  0x00\n  codecopy\n  0x00\n  return\nstop\n\nsub_0: assembly {\n        /* \"Access_Matrix.sol\":94:2980  contract Access_matrix {... */\n      mstore(0x40, 0x80)\n      callvalue\n        /* \"--CODEGEN--\":8:17   */\n      dup1\n        /* \"--CODEGEN--\":5:7   */\n      iszero\n      tag_1\n      jumpi\n        /* \"--CODEGEN--\":30:31   */\n      0x00\n        /* \"--CODEGEN--\":27:28   */\n      dup1\n        /* \"--CODEGEN--\":20:32   */\n      revert\n        /* \"--CODEGEN--\":5:7   */\n    tag_1:\n        /* \"Access_Matrix.sol\":94:2980  contract Access_matrix {... */\n      pop\n      jumpi(tag_2, lt(calldatasize, 0x04))\n      shr(0xe0, calldataload(0x00))\n      dup1\n      0x93614356\n      gt\n      tag_11\n      jumpi\n      dup1\n      0x93614356\n      eq\n      tag_7\n      jumpi\n      dup1\n      0xaa86c8fc\n      eq\n      tag_8\n      jumpi\n      dup1\n      0xbd289582\n      eq\n      tag_9\n      jumpi\n      dup1\n      0xfe7f2692\n      eq\n      tag_10\n      jumpi\n      jump(tag_2)\n    tag_11:\n      dup1\n      0x0b3e9bfc\n      eq\n      tag_3\n      jumpi\n      dup1\n      0x252e7bed\n      eq\n      tag_4\n      jumpi\n      dup1\n      0x612fa967\n      eq\n      tag_5\n      jumpi\n      dup1\n      0x61650af7\n      eq\n      tag_6\n      jumpi\n    tag_2:\n      0x00\n      dup1\n      revert\n        /* \"Access_Matrix.sol\":1801:2101  function updateValue(string memory _hash, uint index, uint32 _variable_value, string memory _activity) public {... */\n    tag_3:\n      tag_12\n      0x04\n      dup1\n      calldatasize\n      sub\n      tag_13\n      swap2\n      swap1\n      dup2\n      add\n      swap1\n      jump(tag_14)\n    tag_13:\n      tag_15\n      jump\t// in\n    tag_12:\n      stop\n        /* \"Access_Matrix.sol\":2728:2978  function deleteVariable(string memory _hash, uint index, string memory _activity) public {... */\n    tag_4:\n      tag_16\n      0x04\n      dup1\n      calldatasize\n      sub\n      tag_17\n      swap2\n      swap1\n      dup2\n      add\n      swap1\n      jump(tag_18)\n    tag_17:\n      tag_19\n      jump\t// in\n    tag_16:\n      stop\n        /* \"Access_Matrix.sol\":797:940  function setVariableName(string memory _hash, uint index, string memory _newName) public {... */\n    tag_5:\n      tag_20\n      0x04\n      dup1\n      calldatasize\n      sub\n      tag_21\n      swap2\n      swap1\n      dup2\n      add\n      swap1\n      jump(tag_18)\n    tag_21:\n      tag_22\n      jump\t// in\n    tag_20:\n      stop\n        /* \"Access_Matrix.sol\":607:791  function updateMatrix(string memory _hash, uint index, string memory _activity, address _role, uint8 _val) public {... */\n    tag_6:\n      tag_23\n      0x04\n      dup1\n      calldatasize\n      sub\n      tag_24\n      swap2\n      swap1\n      dup2\n      add\n      swap1\n      jump(tag_25)\n    tag_24:\n      tag_26\n      jump\t// in\n    tag_23:\n      stop\n        /* \"Access_Matrix.sol\":2193:2338  function getVariableValue(string memory _hash, uint index) public view returns (uint32 _var){... */\n    tag_7:\n      tag_27\n      0x04\n      dup1\n      calldatasize\n      sub\n      tag_28\n      swap2\n      swap1\n      dup2\n      add\n      swap1\n      jump(tag_29)\n    tag_28:\n      tag_30\n      jump\t// in\n    tag_27:\n      mload(0x40)\n      tag_31\n      swap2\n      swap1\n      jump(tag_32)\n    tag_31:\n      mload(0x40)\n      dup1\n      swap2\n      sub\n      swap1\n      return\n        /* \"Access_Matrix.sol\":2344:2543  function getAccess(string memory _hash, uint index, string memory _activity, address _role) public view returns (uint8 _access) {... */\n    tag_8:\n      tag_33\n      0x04\n      dup1\n      calldatasize\n      sub\n      tag_34\n      swap2\n      swap1\n      dup2\n      add\n      swap1\n      jump(tag_35)\n    tag_34:\n      tag_36\n      jump\t// in\n    tag_33:\n      mload(0x40)\n      tag_37\n      swap2\n      swap1\n      jump(tag_38)\n    tag_37:\n      mload(0x40)\n      dup1\n      swap2\n      sub\n      swap1\n      return\n        /* \"Access_Matrix.sol\":1105:1569  function uploadMatrix(string memory _hash, string memory _newName, string[] memory _activities, address[] memory _roles, uint8[] memory _vals, uint nbOfElements) public {... */\n    tag_9:\n      tag_39\n      0x04\n      dup1\n      calldatasize\n      sub\n      tag_40\n      swap2\n      swap1\n      dup2\n      add\n      swap1\n      jump(tag_41)\n    tag_40:\n      tag_42\n      jump\t// in\n    tag_39:\n      stop\n        /* \"Access_Matrix.sol\":946:1099  function getVariableName(string memory _hash, uint index) public view returns (string memory _varName) {... */\n    tag_10:\n      tag_43\n      0x04\n      dup1\n      calldatasize\n      sub\n      tag_44\n      swap2\n      swap1\n      dup2\n      add\n      swap1\n      jump(tag_29)\n    tag_44:\n      tag_45\n      jump\t// in\n    tag_43:\n      mload(0x40)\n      tag_46\n      swap2\n      swap1\n      jump(tag_47)\n    tag_46:\n      mload(0x40)\n      dup1\n      swap2\n      sub\n      swap1\n      return\n        /* \"Access_Matrix.sol\":1801:2101  function updateValue(string memory _hash, uint index, uint32 _variable_value, string memory _activity) public {... */\n    tag_15:\n        /* \"Access_Matrix.sol\":1921:1936  bool has_access */\n      0x00\n        /* \"Access_Matrix.sol\":2008:2009  1 */\n      0x01\n        /* \"Access_Matrix.sol\":2003:2004  1 */\n      dup1\n        /* \"Access_Matrix.sol\":1997:1998  3 */\n      0x03\n        /* \"Access_Matrix.sol\":1940:1949  variables */\n      0x00\n        /* \"Access_Matrix.sol\":1950:1955  _hash */\n      dup9\n        /* \"Access_Matrix.sol\":1940:1956  variables[_hash] */\n      mload(0x40)\n      tag_49\n      swap2\n      swap1\n      jump(tag_50)\n    tag_49:\n      swap1\n      dup2\n      mstore\n      0x20\n      add\n      mload(0x40)\n      dup1\n      swap2\n      sub\n      swap1\n      keccak256\n        /* \"Access_Matrix.sol\":1957:1962  index */\n      dup8\n        /* \"Access_Matrix.sol\":1940:1963  variables[_hash][index] */\n      dup2\n      sload\n      dup2\n      lt\n      tag_51\n      jumpi\n      invalid\n    tag_51:\n      swap1\n      0x00\n      mstore\n      keccak256(0x00, 0x20)\n      swap1\n      0x03\n      mul\n      add\n        /* \"Access_Matrix.sol\":1940:1970  variables[_hash][index].matrix */\n      0x00\n      add\n        /* \"Access_Matrix.sol\":1971:1980  _activity */\n      dup6\n        /* \"Access_Matrix.sol\":1940:1981  variables[_hash][index].matrix[_activity] */\n      mload(0x40)\n      tag_53\n      swap2\n      swap1\n      jump(tag_50)\n    tag_53:\n      swap1\n      dup2\n      mstore\n      0x20\n      add\n      mload(0x40)\n      dup1\n      swap2\n      sub\n      swap1\n      keccak256\n        /* \"Access_Matrix.sol\":1940:1993  variables[_hash][index].matrix[_activity][msg.sender] */\n      0x00\n        /* \"Access_Matrix.sol\":1982:1992  msg.sender */\n      caller\n        /* \"Access_Matrix.sol\":1940:1993  variables[_hash][index].matrix[_activity][msg.sender] */\n      0xffffffffffffffffffffffffffffffffffffffff\n      and\n      0xffffffffffffffffffffffffffffffffffffffff\n      and\n      dup2\n      mstore\n      0x20\n      add\n      swap1\n      dup2\n      mstore\n      0x20\n      add\n      0x00\n      keccak256\n      0x00\n      swap1\n      sload\n      swap1\n      0x0100\n      exp\n      swap1\n      div\n      0xff\n      and\n        /* \"Access_Matrix.sol\":1940:1998  variables[_hash][index].matrix[_activity][msg.sender] >> 3 */\n      0xff\n      and\n      swap1\n      shr\n        /* \"Access_Matrix.sol\":1939:2004  (variables[_hash][index].matrix[_activity][msg.sender] >> 3 ) & 1 */\n      and\n        /* \"Access_Matrix.sol\":1939:2009  (variables[_hash][index].matrix[_activity][msg.sender] >> 3 ) & 1 == 1 */\n      0xff\n      and\n      eq\n        /* \"Access_Matrix.sol\":1921:2009  bool has_access = (variables[_hash][index].matrix[_activity][msg.sender] >> 3 ) & 1 == 1 */\n      swap1\n      pop\n        /* \"Access_Matrix.sol\":2026:2036  has_access */\n      dup1\n        /* \"Access_Matrix.sol\":2019:2037  assert(has_access) */\n      tag_54\n      jumpi\n      invalid\n    tag_54:\n        /* \"Access_Matrix.sol\":2079:2094  _variable_value */\n      dup3\n        /* \"Access_Matrix.sol\":2047:2056  variables */\n      0x00\n        /* \"Access_Matrix.sol\":2057:2062  _hash */\n      dup7\n        /* \"Access_Matrix.sol\":2047:2063  variables[_hash] */\n      mload(0x40)\n      tag_55\n      swap2\n      swap1\n      jump(tag_50)\n    tag_55:\n      swap1\n      dup2\n      mstore\n      0x20\n      add\n      mload(0x40)\n      dup1\n      swap2\n      sub\n      swap1\n      keccak256\n        /* \"Access_Matrix.sol\":2064:2069  index */\n      dup6\n        /* \"Access_Matrix.sol\":2047:2070  variables[_hash][index] */\n      dup2\n      sload\n      dup2\n      lt\n      tag_56\n      jumpi\n      invalid\n    tag_56:\n      swap1\n      0x00\n      mstore\n      keccak256(0x00, 0x20)\n      swap1\n      0x03\n      mul\n      add\n        /* \"Access_Matrix.sol\":2047:2076  variables[_hash][index].value */\n      0x01\n      add\n      0x00\n        /* \"Access_Matrix.sol\":2047:2094  variables[_hash][index].value = _variable_value */\n      0x0100\n      exp\n      dup2\n      sload\n      dup2\n      0xffffffff\n      mul\n      not\n      and\n      swap1\n      dup4\n      0xffffffff\n      and\n      mul\n      or\n      swap1\n      sstore\n      pop\n        /* \"Access_Matrix.sol\":1801:2101  function updateValue(string memory _hash, uint index, uint32 _variable_value, string memory _activity) public {... */\n      pop\n      pop\n      pop\n      pop\n      pop\n      jump\t// out\n        /* \"Access_Matrix.sol\":2728:2978  function deleteVariable(string memory _hash, uint index, string memory _activity) public {... */\n    tag_19:\n        /* \"Access_Matrix.sol\":2827:2842  bool has_access */\n      0x00\n        /* \"Access_Matrix.sol\":2908:2909  1 */\n      0x01\n        /* \"Access_Matrix.sol\":2903:2904  1 */\n      dup1\n        /* \"Access_Matrix.sol\":2846:2855  variables */\n      0x00\n        /* \"Access_Matrix.sol\":2856:2861  _hash */\n      dup7\n        /* \"Access_Matrix.sol\":2846:2862  variables[_hash] */\n      mload(0x40)\n      tag_59\n      swap2\n      swap1\n      jump(tag_50)\n    tag_59:\n      swap1\n      dup2\n      mstore\n      0x20\n      add\n      mload(0x40)\n      dup1\n      swap2\n      sub\n      swap1\n      keccak256\n        /* \"Access_Matrix.sol\":2863:2868  index */\n      dup6\n        /* \"Access_Matrix.sol\":2846:2869  variables[_hash][index] */\n      dup2\n      sload\n      dup2\n      lt\n      tag_60\n      jumpi\n      invalid\n    tag_60:\n      swap1\n      0x00\n      mstore\n      keccak256(0x00, 0x20)\n      swap1\n      0x03\n      mul\n      add\n        /* \"Access_Matrix.sol\":2846:2876  variables[_hash][index].matrix */\n      0x00\n      add\n        /* \"Access_Matrix.sol\":2877:2886  _activity */\n      dup5\n        /* \"Access_Matrix.sol\":2846:2887  variables[_hash][index].matrix[_activity] */\n      mload(0x40)\n      tag_62\n      swap2\n      swap1\n      jump(tag_50)\n    tag_62:\n      swap1\n      dup2\n      mstore\n      0x20\n      add\n      mload(0x40)\n      dup1\n      swap2\n      sub\n      swap1\n      keccak256\n        /* \"Access_Matrix.sol\":2846:2899  variables[_hash][index].matrix[_activity][msg.sender] */\n      0x00\n        /* \"Access_Matrix.sol\":2888:2898  msg.sender */\n      caller\n        /* \"Access_Matrix.sol\":2846:2899  variables[_hash][index].matrix[_activity][msg.sender] */\n      0xffffffffffffffffffffffffffffffffffffffff\n      and\n      0xffffffffffffffffffffffffffffffffffffffff\n      and\n      dup2\n      mstore\n      0x20\n      add\n      swap1\n      dup2\n      mstore\n      0x20\n      add\n      0x00\n      keccak256\n      0x00\n      swap1\n      sload\n      swap1\n      0x0100\n      exp\n      swap1\n      div\n      0xff\n      and\n        /* \"Access_Matrix.sol\":2845:2904  (variables[_hash][index].matrix[_activity][msg.sender]) & 1 */\n      and\n        /* \"Access_Matrix.sol\":2845:2909  (variables[_hash][index].matrix[_activity][msg.sender]) & 1 == 1 */\n      0xff\n      and\n      eq\n        /* \"Access_Matrix.sol\":2827:2909  bool has_access = (variables[_hash][index].matrix[_activity][msg.sender]) & 1 == 1 */\n      swap1\n      pop\n        /* \"Access_Matrix.sol\":2926:2936  has_access */\n      dup1\n        /* \"Access_Matrix.sol\":2919:2937  assert(has_access) */\n      tag_63\n      jumpi\n      invalid\n    tag_63:\n        /* \"Access_Matrix.sol\":2960:2970  msg.sender */\n      caller\n        /* \"Access_Matrix.sol\":2947:2971  selfdestruct(msg.sender) */\n      0xffffffffffffffffffffffffffffffffffffffff\n      and\n      selfdestruct\n        /* \"Access_Matrix.sol\":797:940  function setVariableName(string memory _hash, uint index, string memory _newName) public {... */\n    tag_22:\n        /* \"Access_Matrix.sol\":925:933  _newName */\n      dup1\n        /* \"Access_Matrix.sol\":894:903  variables */\n      0x00\n        /* \"Access_Matrix.sol\":904:909  _hash */\n      dup5\n        /* \"Access_Matrix.sol\":894:910  variables[_hash] */\n      mload(0x40)\n      tag_65\n      swap2\n      swap1\n      jump(tag_50)\n    tag_65:\n      swap1\n      dup2\n      mstore\n      0x20\n      add\n      mload(0x40)\n      dup1\n      swap2\n      sub\n      swap1\n      keccak256\n        /* \"Access_Matrix.sol\":911:916  index */\n      dup4\n        /* \"Access_Matrix.sol\":894:917  variables[_hash][index] */\n      dup2\n      sload\n      dup2\n      lt\n      tag_66\n      jumpi\n      invalid\n    tag_66:\n      swap1\n      0x00\n      mstore\n      keccak256(0x00, 0x20)\n      swap1\n      0x03\n      mul\n      add\n        /* \"Access_Matrix.sol\":894:922  variables[_hash][index].name */\n      0x02\n      add\n        /* \"Access_Matrix.sol\":894:933  variables[_hash][index].name = _newName */\n      swap1\n      dup1\n      mload\n      swap1\n      0x20\n      add\n      swap1\n      tag_68\n      swap3\n      swap2\n      swap1\n      tag_69\n      jump\t// in\n    tag_68:\n      pop\n        /* \"Access_Matrix.sol\":797:940  function setVariableName(string memory _hash, uint index, string memory _newName) public {... */\n      pop\n      pop\n      pop\n      jump\t// out\n        /* \"Access_Matrix.sol\":607:791  function updateMatrix(string memory _hash, uint index, string memory _activity, address _role, uint8 _val) public {... */\n    tag_26:\n        /* \"Access_Matrix.sol\":780:784  _val */\n      dup1\n        /* \"Access_Matrix.sol\":729:738  variables */\n      0x00\n        /* \"Access_Matrix.sol\":739:744  _hash */\n      dup7\n        /* \"Access_Matrix.sol\":729:745  variables[_hash] */\n      mload(0x40)\n      tag_71\n      swap2\n      swap1\n      jump(tag_50)\n    tag_71:\n      swap1\n      dup2\n      mstore\n      0x20\n      add\n      mload(0x40)\n      dup1\n      swap2\n      sub\n      swap1\n      keccak256\n        /* \"Access_Matrix.sol\":746:751  index */\n      dup6\n        /* \"Access_Matrix.sol\":729:752  variables[_hash][index] */\n      dup2\n      sload\n      dup2\n      lt\n      tag_72\n      jumpi\n      invalid\n    tag_72:\n      swap1\n      0x00\n      mstore\n      keccak256(0x00, 0x20)\n      swap1\n      0x03\n      mul\n      add\n        /* \"Access_Matrix.sol\":729:759  variables[_hash][index].matrix */\n      0x00\n      add\n        /* \"Access_Matrix.sol\":760:769  _activity */\n      dup5\n        /* \"Access_Matrix.sol\":729:770  variables[_hash][index].matrix[_activity] */\n      mload(0x40)\n      tag_74\n      swap2\n      swap1\n      jump(tag_50)\n    tag_74:\n      swap1\n      dup2\n      mstore\n      0x20\n      add\n      mload(0x40)\n      dup1\n      swap2\n      sub\n      swap1\n      keccak256\n        /* \"Access_Matrix.sol\":729:777  variables[_hash][index].matrix[_activity][_role] */\n      0x00\n        /* \"Access_Matrix.sol\":771:776  _role */\n      dup5\n        /* \"Access_Matrix.sol\":729:777  variables[_hash][index].matrix[_activity][_role] */\n      0xffffffffffffffffffffffffffffffffffffffff\n      and\n      0xffffffffffffffffffffffffffffffffffffffff\n      and\n      dup2\n      mstore\n      0x20\n      add\n      swap1\n      dup2\n      mstore\n      0x20\n      add\n      0x00\n      keccak256\n      0x00\n        /* \"Access_Matrix.sol\":729:784  variables[_hash][index].matrix[_activity][_role] = _val */\n      0x0100\n      exp\n      dup2\n      sload\n      dup2\n      0xff\n      mul\n      not\n      and\n      swap1\n      dup4\n      0xff\n      and\n      mul\n      or\n      swap1\n      sstore\n      pop\n        /* \"Access_Matrix.sol\":607:791  function updateMatrix(string memory _hash, uint index, string memory _activity, address _role, uint8 _val) public {... */\n      pop\n      pop\n      pop\n      pop\n      pop\n      jump\t// out\n        /* \"Access_Matrix.sol\":2193:2338  function getVariableValue(string memory _hash, uint index) public view returns (uint32 _var){... */\n    tag_30:\n        /* \"Access_Matrix.sol\":2273:2284  uint32 _var */\n      0x00\n        /* \"Access_Matrix.sol\":2302:2311  variables */\n      dup1\n        /* \"Access_Matrix.sol\":2312:2317  _hash */\n      dup4\n        /* \"Access_Matrix.sol\":2302:2318  variables[_hash] */\n      mload(0x40)\n      tag_76\n      swap2\n      swap1\n      jump(tag_50)\n    tag_76:\n      swap1\n      dup2\n      mstore\n      0x20\n      add\n      mload(0x40)\n      dup1\n      swap2\n      sub\n      swap1\n      keccak256\n        /* \"Access_Matrix.sol\":2319:2324  index */\n      dup3\n        /* \"Access_Matrix.sol\":2302:2325  variables[_hash][index] */\n      dup2\n      sload\n      dup2\n      lt\n      tag_77\n      jumpi\n      invalid\n    tag_77:\n      swap1\n      0x00\n      mstore\n      keccak256(0x00, 0x20)\n      swap1\n      0x03\n      mul\n      add\n        /* \"Access_Matrix.sol\":2302:2331  variables[_hash][index].value */\n      0x01\n      add\n      0x00\n      swap1\n      sload\n      swap1\n      0x0100\n      exp\n      swap1\n      div\n      0xffffffff\n      and\n        /* \"Access_Matrix.sol\":2295:2331  return variables[_hash][index].value */\n      swap1\n      pop\n        /* \"Access_Matrix.sol\":2193:2338  function getVariableValue(string memory _hash, uint index) public view returns (uint32 _var){... */\n      swap3\n      swap2\n      pop\n      pop\n      jump\t// out\n        /* \"Access_Matrix.sol\":2344:2543  function getAccess(string memory _hash, uint index, string memory _activity, address _role) public view returns (uint8 _access) {... */\n    tag_36:\n        /* \"Access_Matrix.sol\":2457:2470  uint8 _access */\n      0x00\n        /* \"Access_Matrix.sol\":2488:2497  variables */\n      dup1\n        /* \"Access_Matrix.sol\":2498:2503  _hash */\n      dup6\n        /* \"Access_Matrix.sol\":2488:2504  variables[_hash] */\n      mload(0x40)\n      tag_80\n      swap2\n      swap1\n      jump(tag_50)\n    tag_80:\n      swap1\n      dup2\n      mstore\n      0x20\n      add\n      mload(0x40)\n      dup1\n      swap2\n      sub\n      swap1\n      keccak256\n        /* \"Access_Matrix.sol\":2505:2510  index */\n      dup5\n        /* \"Access_Matrix.sol\":2488:2511  variables[_hash][index] */\n      dup2\n      sload\n      dup2\n      lt\n      tag_81\n      jumpi\n      invalid\n    tag_81:\n      swap1\n      0x00\n      mstore\n      keccak256(0x00, 0x20)\n      swap1\n      0x03\n      mul\n      add\n        /* \"Access_Matrix.sol\":2488:2518  variables[_hash][index].matrix */\n      0x00\n      add\n        /* \"Access_Matrix.sol\":2519:2528  _activity */\n      dup4\n        /* \"Access_Matrix.sol\":2488:2529  variables[_hash][index].matrix[_activity] */\n      mload(0x40)\n      tag_83\n      swap2\n      swap1\n      jump(tag_50)\n    tag_83:\n      swap1\n      dup2\n      mstore\n      0x20\n      add\n      mload(0x40)\n      dup1\n      swap2\n      sub\n      swap1\n      keccak256\n        /* \"Access_Matrix.sol\":2488:2536  variables[_hash][index].matrix[_activity][_role] */\n      0x00\n        /* \"Access_Matrix.sol\":2530:2535  _role */\n      dup4\n        /* \"Access_Matrix.sol\":2488:2536  variables[_hash][index].matrix[_activity][_role] */\n      0xffffffffffffffffffffffffffffffffffffffff\n      and\n      0xffffffffffffffffffffffffffffffffffffffff\n      and\n      dup2\n      mstore\n      0x20\n      add\n      swap1\n      dup2\n      mstore\n      0x20\n      add\n      0x00\n      keccak256\n      0x00\n      swap1\n      sload\n      swap1\n      0x0100\n      exp\n      swap1\n      div\n      0xff\n      and\n        /* \"Access_Matrix.sol\":2480:2536  return  variables[_hash][index].matrix[_activity][_role] */\n      swap1\n      pop\n        /* \"Access_Matrix.sol\":2344:2543  function getAccess(string memory _hash, uint index, string memory _activity, address _role) public view returns (uint8 _access) {... */\n      swap5\n      swap4\n      pop\n      pop\n      pop\n      pop\n      jump\t// out\n        /* \"Access_Matrix.sol\":1105:1569  function uploadMatrix(string memory _hash, string memory _newName, string[] memory _activities, address[] memory _roles, uint8[] memory _vals, uint nbOfElements) public {... */\n    tag_42:\n        /* \"Access_Matrix.sol\":1282:1304  Variable memory topush */\n      tag_85\n      tag_86\n      jump\t// in\n    tag_85:\n        /* \"Access_Matrix.sol\":1307:1369  Variable( {... */\n      mload(0x40)\n      dup1\n      0x40\n      add\n      0x40\n      mstore\n      dup1\n        /* \"Access_Matrix.sol\":1359:1360  0 */\n      0x00\n        /* \"Access_Matrix.sol\":1307:1369  Variable( {... */\n      0xffffffff\n      and\n      dup2\n      mstore\n      0x20\n      add\n        /* \"Access_Matrix.sol\":1334:1342  _newName */\n      dup8\n        /* \"Access_Matrix.sol\":1307:1369  Variable( {... */\n      dup2\n      mstore\n      pop\n        /* \"Access_Matrix.sol\":1282:1369  Variable memory topush = Variable( {... */\n      swap1\n      pop\n        /* \"Access_Matrix.sol\":1377:1386  variables */\n      0x00\n        /* \"Access_Matrix.sol\":1387:1392  _hash */\n      dup8\n        /* \"Access_Matrix.sol\":1377:1393  variables[_hash] */\n      mload(0x40)\n      tag_87\n      swap2\n      swap1\n      jump(tag_50)\n    tag_87:\n      swap1\n      dup2\n      mstore\n      0x20\n      add\n      mload(0x40)\n      dup1\n      swap2\n      sub\n      swap1\n      keccak256\n        /* \"Access_Matrix.sol\":1399:1405  topush */\n      dup2\n        /* \"Access_Matrix.sol\":1377:1406  variables[_hash].push(topush) */\n      swap1\n      dup1\n        /* \"--CODEGEN--\":39:40   */\n      0x01\n        /* \"--CODEGEN--\":33:36   */\n      dup2\n        /* \"--CODEGEN--\":27:37   */\n      sload\n        /* \"--CODEGEN--\":23:41   */\n      add\n        /* \"--CODEGEN--\":57:67   */\n      dup1\n        /* \"--CODEGEN--\":52:55   */\n      dup3\n        /* \"--CODEGEN--\":45:68   */\n      sstore\n        /* \"--CODEGEN--\":79:89   */\n      dup1\n        /* \"--CODEGEN--\":72:89   */\n      swap2\n      pop\n        /* \"--CODEGEN--\":0:93   */\n      pop\n        /* \"Access_Matrix.sol\":1377:1406  variables[_hash].push(topush) */\n      swap1\n      0x01\n      dup3\n      sub\n      swap1\n      0x00\n      mstore\n      keccak256(0x00, 0x20)\n      swap1\n      0x03\n      mul\n      add\n      0x00\n      swap1\n      swap2\n      swap3\n      swap1\n      swap2\n      swap1\n      swap2\n      pop\n      0x00\n      dup3\n      add\n      mload\n      dup2\n      0x01\n      add\n      exp(0x0100, 0x00)\n      dup2\n      sload\n      dup2\n      0xffffffff\n      mul\n      not\n      and\n      swap1\n      dup4\n      0xffffffff\n      and\n      mul\n      or\n      swap1\n      sstore\n      pop\n      0x20\n      dup3\n      add\n      mload\n      dup2\n      0x02\n      add\n      swap1\n      dup1\n      mload\n      swap1\n      0x20\n      add\n      swap1\n      tag_89\n      swap3\n      swap2\n      swap1\n      tag_90\n      jump\t// in\n    tag_89:\n      pop\n      pop\n      pop\n      pop\n        /* \"Access_Matrix.sol\":1418:1424  uint k */\n      0x00\n        /* \"Access_Matrix.sol\":1427:1428  0 */\n      dup1\n        /* \"Access_Matrix.sol\":1418:1428  uint k = 0 */\n      swap1\n      pop\n        /* \"Access_Matrix.sol\":1414:1563  for(uint k = 0; k < nbOfElements; k++) {... */\n    tag_91:\n        /* \"Access_Matrix.sol\":1434:1446  nbOfElements */\n      dup3\n        /* \"Access_Matrix.sol\":1430:1431  k */\n      dup2\n        /* \"Access_Matrix.sol\":1430:1446  k < nbOfElements */\n      lt\n        /* \"Access_Matrix.sol\":1414:1563  for(uint k = 0; k < nbOfElements; k++) {... */\n      iszero\n      tag_92\n      jumpi\n        /* \"Access_Matrix.sol\":1545:1550  _vals */\n      dup4\n        /* \"Access_Matrix.sol\":1551:1552  k */\n      dup2\n        /* \"Access_Matrix.sol\":1545:1553  _vals[k] */\n      dup2\n      mload\n      dup2\n      lt\n      tag_94\n      jumpi\n      invalid\n    tag_94:\n      0x20\n      mul\n      0x20\n      add\n      add\n      mload\n        /* \"Access_Matrix.sol\":1463:1472  variables */\n      0x00\n        /* \"Access_Matrix.sol\":1473:1478  _hash */\n      dup10\n        /* \"Access_Matrix.sol\":1463:1479  variables[_hash] */\n      mload(0x40)\n      tag_95\n      swap2\n      swap1\n      jump(tag_50)\n    tag_95:\n      swap1\n      dup2\n      mstore\n      0x20\n      add\n      mload(0x40)\n      dup1\n      swap2\n      sub\n      swap1\n      keccak256\n        /* \"Access_Matrix.sol\":1506:1507  1 */\n      0x01\n        /* \"Access_Matrix.sol\":1480:1489  variables */\n      0x00\n        /* \"Access_Matrix.sol\":1490:1495  _hash */\n      dup12\n        /* \"Access_Matrix.sol\":1480:1496  variables[_hash] */\n      mload(0x40)\n      tag_96\n      swap2\n      swap1\n      jump(tag_50)\n    tag_96:\n      swap1\n      dup2\n      mstore\n      0x20\n      add\n      mload(0x40)\n      dup1\n      swap2\n      sub\n      swap1\n      keccak256\n        /* \"Access_Matrix.sol\":1480:1503  variables[_hash].length */\n      dup1\n      sload\n      swap1\n      pop\n        /* \"Access_Matrix.sol\":1480:1507  variables[_hash].length - 1 */\n      sub\n        /* \"Access_Matrix.sol\":1463:1508  variables[_hash][variables[_hash].length - 1] */\n      dup2\n      sload\n      dup2\n      lt\n      tag_97\n      jumpi\n      invalid\n    tag_97:\n      swap1\n      0x00\n      mstore\n      keccak256(0x00, 0x20)\n      swap1\n      0x03\n      mul\n      add\n        /* \"Access_Matrix.sol\":1463:1515  variables[_hash][variables[_hash].length - 1].matrix */\n      0x00\n      add\n        /* \"Access_Matrix.sol\":1516:1527  _activities */\n      dup8\n        /* \"Access_Matrix.sol\":1528:1529  k */\n      dup4\n        /* \"Access_Matrix.sol\":1516:1530  _activities[k] */\n      dup2\n      mload\n      dup2\n      lt\n      tag_99\n      jumpi\n      invalid\n    tag_99:\n      0x20\n      mul\n      0x20\n      add\n      add\n      mload\n        /* \"Access_Matrix.sol\":1463:1531  variables[_hash][variables[_hash].length - 1].matrix[_activities[k]] */\n      mload(0x40)\n      tag_100\n      swap2\n      swap1\n      jump(tag_101)\n    tag_100:\n      swap1\n      dup2\n      mstore\n      0x20\n      add\n      mload(0x40)\n      dup1\n      swap2\n      sub\n      swap1\n      keccak256\n        /* \"Access_Matrix.sol\":1463:1542  variables[_hash][variables[_hash].length - 1].matrix[_activities[k]][_roles[k]] */\n      0x00\n        /* \"Access_Matrix.sol\":1532:1538  _roles */\n      dup8\n        /* \"Access_Matrix.sol\":1539:1540  k */\n      dup5\n        /* \"Access_Matrix.sol\":1532:1541  _roles[k] */\n      dup2\n      mload\n      dup2\n      lt\n      tag_102\n      jumpi\n      invalid\n    tag_102:\n      0x20\n      mul\n      0x20\n      add\n      add\n      mload\n        /* \"Access_Matrix.sol\":1463:1542  variables[_hash][variables[_hash].length - 1].matrix[_activities[k]][_roles[k]] */\n      0xffffffffffffffffffffffffffffffffffffffff\n      and\n      0xffffffffffffffffffffffffffffffffffffffff\n      and\n      dup2\n      mstore\n      0x20\n      add\n      swap1\n      dup2\n      mstore\n      0x20\n      add\n      0x00\n      keccak256\n      0x00\n        /* \"Access_Matrix.sol\":1463:1553  variables[_hash][variables[_hash].length - 1].matrix[_activities[k]][_roles[k]] = _vals[k] */\n      0x0100\n      exp\n      dup2\n      sload\n      dup2\n      0xff\n      mul\n      not\n      and\n      swap1\n      dup4\n      0xff\n      and\n      mul\n      or\n      swap1\n      sstore\n      pop\n        /* \"Access_Matrix.sol\":1448:1451  k++ */\n      dup1\n      dup1\n      0x01\n      add\n      swap2\n      pop\n      pop\n        /* \"Access_Matrix.sol\":1414:1563  for(uint k = 0; k < nbOfElements; k++) {... */\n      jump(tag_91)\n    tag_92:\n      pop\n        /* \"Access_Matrix.sol\":1105:1569  function uploadMatrix(string memory _hash, string memory _newName, string[] memory _activities, address[] memory _roles, uint8[] memory _vals, uint nbOfElements) public {... */\n      pop\n      pop\n      pop\n      pop\n      pop\n      pop\n      pop\n      jump\t// out\n        /* \"Access_Matrix.sol\":946:1099  function getVariableName(string memory _hash, uint index) public view returns (string memory _varName) {... */\n    tag_45:\n        /* \"Access_Matrix.sol\":1025:1047  string memory _varName */\n      0x60\n        /* \"Access_Matrix.sol\":1064:1073  variables */\n      0x00\n        /* \"Access_Matrix.sol\":1074:1079  _hash */\n      dup4\n        /* \"Access_Matrix.sol\":1064:1080  variables[_hash] */\n      mload(0x40)\n      tag_104\n      swap2\n      swap1\n      jump(tag_50)\n    tag_104:\n      swap1\n      dup2\n      mstore\n      0x20\n      add\n      mload(0x40)\n      dup1\n      swap2\n      sub\n      swap1\n      keccak256\n        /* \"Access_Matrix.sol\":1081:1086  index */\n      dup3\n        /* \"Access_Matrix.sol\":1064:1087  variables[_hash][index] */\n      dup2\n      sload\n      dup2\n      lt\n      tag_105\n      jumpi\n      invalid\n    tag_105:\n      swap1\n      0x00\n      mstore\n      keccak256(0x00, 0x20)\n      swap1\n      0x03\n      mul\n      add\n        /* \"Access_Matrix.sol\":1064:1092  variables[_hash][index].name */\n      0x02\n      add\n        /* \"Access_Matrix.sol\":1057:1092  return variables[_hash][index].name */\n      dup1\n      sload\n      0x01\n      dup2\n      0x01\n      and\n      iszero\n      0x0100\n      mul\n      sub\n      and\n      0x02\n      swap1\n      div\n      dup1\n      0x1f\n      add\n      0x20\n      dup1\n      swap2\n      div\n      mul\n      0x20\n      add\n      mload(0x40)\n      swap1\n      dup2\n      add\n      0x40\n      mstore\n      dup1\n      swap3\n      swap2\n      swap1\n      dup2\n      dup2\n      mstore\n      0x20\n      add\n      dup3\n      dup1\n      sload\n      0x01\n      dup2\n      0x01\n      and\n      iszero\n      0x0100\n      mul\n      sub\n      and\n      0x02\n      swap1\n      div\n      dup1\n      iszero\n      tag_107\n      jumpi\n      dup1\n      0x1f\n      lt\n      tag_108\n      jumpi\n      0x0100\n      dup1\n      dup4\n      sload\n      div\n      mul\n      dup4\n      mstore\n      swap2\n      0x20\n      add\n      swap2\n      jump(tag_107)\n    tag_108:\n      dup3\n      add\n      swap2\n      swap1\n      0x00\n      mstore\n      keccak256(0x00, 0x20)\n      swap1\n    tag_109:\n      dup2\n      sload\n      dup2\n      mstore\n      swap1\n      0x01\n      add\n      swap1\n      0x20\n      add\n      dup1\n      dup4\n      gt\n      tag_109\n      jumpi\n      dup3\n      swap1\n      sub\n      0x1f\n      and\n      dup3\n      add\n      swap2\n    tag_107:\n      pop\n      pop\n      pop\n      pop\n      pop\n      swap1\n      pop\n        /* \"Access_Matrix.sol\":946:1099  function getVariableName(string memory _hash, uint index) public view returns (string memory _varName) {... */\n      swap3\n      swap2\n      pop\n      pop\n      jump\t// out\n        /* \"Access_Matrix.sol\":94:2980  contract Access_matrix {... */\n    tag_69:\n      dup3\n      dup1\n      sload\n      0x01\n      dup2\n      0x01\n      and\n      iszero\n      0x0100\n      mul\n      sub\n      and\n      0x02\n      swap1\n      div\n      swap1\n      0x00\n      mstore\n      keccak256(0x00, 0x20)\n      swap1\n      0x1f\n      add\n      0x20\n      swap1\n      div\n      dup2\n      add\n      swap3\n      dup3\n      0x1f\n      lt\n      tag_111\n      jumpi\n      dup1\n      mload\n      not(0xff)\n      and\n      dup4\n      dup1\n      add\n      or\n      dup6\n      sstore\n      jump(tag_110)\n    tag_111:\n      dup3\n      dup1\n      add\n      0x01\n      add\n      dup6\n      sstore\n      dup3\n      iszero\n      tag_110\n      jumpi\n      swap2\n      dup3\n      add\n    tag_112:\n      dup3\n      dup2\n      gt\n      iszero\n      tag_113\n      jumpi\n      dup3\n      mload\n      dup3\n      sstore\n      swap2\n      0x20\n      add\n      swap2\n      swap1\n      0x01\n      add\n      swap1\n      jump(tag_112)\n    tag_113:\n    tag_110:\n      pop\n      swap1\n      pop\n      tag_114\n      swap2\n      swap1\n      tag_115\n      jump\t// in\n    tag_114:\n      pop\n      swap1\n      jump\t// out\n    tag_86:\n      mload(0x40)\n      dup1\n      0x40\n      add\n      0x40\n      mstore\n      dup1\n      and(0xffffffff, 0x00)\n      dup2\n      mstore\n      0x20\n      add\n      0x60\n      dup2\n      mstore\n      pop\n      swap1\n      jump\t// out\n    tag_90:\n      dup3\n      dup1\n      sload\n      0x01\n      dup2\n      0x01\n      and\n      iszero\n      0x0100\n      mul\n      sub\n      and\n      0x02\n      swap1\n      div\n      swap1\n      0x00\n      mstore\n      keccak256(0x00, 0x20)\n      swap1\n      0x1f\n      add\n      0x20\n      swap1\n      div\n      dup2\n      add\n      swap3\n      dup3\n      0x1f\n      lt\n      tag_117\n      jumpi\n      dup1\n      mload\n      not(0xff)\n      and\n      dup4\n      dup1\n      add\n      or\n      dup6\n      sstore\n      jump(tag_116)\n    tag_117:\n      dup3\n      dup1\n      add\n      0x01\n      add\n      dup6\n      sstore\n      dup3\n      iszero\n      tag_116\n      jumpi\n      swap2\n      dup3\n      add\n    tag_118:\n      dup3\n      dup2\n      gt\n      iszero\n      tag_119\n      jumpi\n      dup3\n      mload\n      dup3\n      sstore\n      swap2\n      0x20\n      add\n      swap2\n      swap1\n      0x01\n      add\n      swap1\n      jump(tag_118)\n    tag_119:\n    tag_116:\n      pop\n      swap1\n      pop\n      tag_120\n      swap2\n      swap1\n      tag_115\n      jump\t// in\n    tag_120:\n      pop\n      swap1\n      jump\t// out\n    tag_115:\n      tag_121\n      swap2\n      swap1\n    tag_122:\n      dup1\n      dup3\n      gt\n      iszero\n      tag_123\n      jumpi\n      0x00\n      dup2\n      0x00\n      swap1\n      sstore\n      pop\n      0x01\n      add\n      jump(tag_122)\n    tag_123:\n      pop\n      swap1\n      jump\n    tag_121:\n      swap1\n      jump\t// out\n        /* \"--CODEGEN--\":5:135   */\n    tag_125:\n      0x00\n        /* \"--CODEGEN--\":85:91   */\n      dup2\n        /* \"--CODEGEN--\":72:92   */\n      calldataload\n        /* \"--CODEGEN--\":63:92   */\n      swap1\n      pop\n        /* \"--CODEGEN--\":97:130   */\n      tag_126\n        /* \"--CODEGEN--\":124:129   */\n      dup2\n        /* \"--CODEGEN--\":97:130   */\n      jump(tag_127)\n    tag_126:\n        /* \"--CODEGEN--\":57:135   */\n      swap3\n      swap2\n      pop\n      pop\n      jump\n        /* \"--CODEGEN--\":160:867   */\n    tag_128:\n      0x00\n        /* \"--CODEGEN--\":277:280   */\n      dup3\n        /* \"--CODEGEN--\":270:274   */\n      0x1f\n        /* \"--CODEGEN--\":262:268   */\n      dup4\n        /* \"--CODEGEN--\":258:275   */\n      add\n        /* \"--CODEGEN--\":254:281   */\n      slt\n        /* \"--CODEGEN--\":244:246   */\n      tag_129\n      jumpi\n        /* \"--CODEGEN--\":295:296   */\n      0x00\n        /* \"--CODEGEN--\":292:293   */\n      dup1\n        /* \"--CODEGEN--\":285:297   */\n      revert\n        /* \"--CODEGEN--\":244:246   */\n    tag_129:\n        /* \"--CODEGEN--\":332:338   */\n      dup2\n        /* \"--CODEGEN--\":319:339   */\n      calldataload\n        /* \"--CODEGEN--\":354:434   */\n      tag_130\n        /* \"--CODEGEN--\":369:433   */\n      tag_131\n        /* \"--CODEGEN--\":426:432   */\n      dup3\n        /* \"--CODEGEN--\":369:433   */\n      jump(tag_132)\n    tag_131:\n        /* \"--CODEGEN--\":354:434   */\n      jump(tag_133)\n    tag_130:\n        /* \"--CODEGEN--\":345:434   */\n      swap2\n      pop\n        /* \"--CODEGEN--\":451:456   */\n      dup2\n        /* \"--CODEGEN--\":476:482   */\n      dup2\n        /* \"--CODEGEN--\":469:474   */\n      dup4\n        /* \"--CODEGEN--\":462:483   */\n      mstore\n        /* \"--CODEGEN--\":506:510   */\n      0x20\n        /* \"--CODEGEN--\":498:504   */\n      dup5\n        /* \"--CODEGEN--\":494:511   */\n      add\n        /* \"--CODEGEN--\":484:511   */\n      swap4\n      pop\n        /* \"--CODEGEN--\":528:532   */\n      0x20\n        /* \"--CODEGEN--\":523:526   */\n      dup2\n        /* \"--CODEGEN--\":519:533   */\n      add\n        /* \"--CODEGEN--\":512:533   */\n      swap1\n      pop\n        /* \"--CODEGEN--\":581:587   */\n      dup4\n        /* \"--CODEGEN--\":628:631   */\n      dup6\n        /* \"--CODEGEN--\":620:624   */\n      0x20\n        /* \"--CODEGEN--\":612:618   */\n      dup5\n        /* \"--CODEGEN--\":608:625   */\n      mul\n        /* \"--CODEGEN--\":603:606   */\n      dup3\n        /* \"--CODEGEN--\":599:626   */\n      add\n        /* \"--CODEGEN--\":596:632   */\n      gt\n        /* \"--CODEGEN--\":593:595   */\n      iszero\n      tag_134\n      jumpi\n        /* \"--CODEGEN--\":645:646   */\n      0x00\n        /* \"--CODEGEN--\":642:643   */\n      dup1\n        /* \"--CODEGEN--\":635:647   */\n      revert\n        /* \"--CODEGEN--\":593:595   */\n    tag_134:\n        /* \"--CODEGEN--\":670:671   */\n      0x00\n        /* \"--CODEGEN--\":655:861   */\n    tag_135:\n        /* \"--CODEGEN--\":680:686   */\n      dup4\n        /* \"--CODEGEN--\":677:678   */\n      dup2\n        /* \"--CODEGEN--\":674:687   */\n      lt\n        /* \"--CODEGEN--\":655:861   */\n      iszero\n      tag_137\n      jumpi\n        /* \"--CODEGEN--\":738:741   */\n      dup2\n        /* \"--CODEGEN--\":760:797   */\n      tag_138\n        /* \"--CODEGEN--\":793:796   */\n      dup9\n        /* \"--CODEGEN--\":781:791   */\n      dup3\n        /* \"--CODEGEN--\":760:797   */\n      jump(tag_125)\n    tag_138:\n        /* \"--CODEGEN--\":755:758   */\n      dup5\n        /* \"--CODEGEN--\":748:798   */\n      mstore\n        /* \"--CODEGEN--\":821:825   */\n      0x20\n        /* \"--CODEGEN--\":816:819   */\n      dup5\n        /* \"--CODEGEN--\":812:826   */\n      add\n        /* \"--CODEGEN--\":805:826   */\n      swap4\n      pop\n        /* \"--CODEGEN--\":849:853   */\n      0x20\n        /* \"--CODEGEN--\":844:847   */\n      dup4\n        /* \"--CODEGEN--\":840:854   */\n      add\n        /* \"--CODEGEN--\":833:854   */\n      swap3\n      pop\n        /* \"--CODEGEN--\":712:861   */\n      pop\n        /* \"--CODEGEN--\":702:703   */\n      0x01\n        /* \"--CODEGEN--\":699:700   */\n      dup2\n        /* \"--CODEGEN--\":695:704   */\n      add\n        /* \"--CODEGEN--\":690:704   */\n      swap1\n      pop\n        /* \"--CODEGEN--\":655:861   */\n      jump(tag_135)\n    tag_137:\n        /* \"--CODEGEN--\":659:673   */\n      pop\n        /* \"--CODEGEN--\":237:867   */\n      pop\n      pop\n      pop\n      swap3\n      swap2\n      pop\n      pop\n      jump\n        /* \"--CODEGEN--\":892:1588   */\n    tag_139:\n      0x00\n        /* \"--CODEGEN--\":1015:1018   */\n      dup3\n        /* \"--CODEGEN--\":1008:1012   */\n      0x1f\n        /* \"--CODEGEN--\":1000:1006   */\n      dup4\n        /* \"--CODEGEN--\":996:1013   */\n      add\n        /* \"--CODEGEN--\":992:1019   */\n      slt\n        /* \"--CODEGEN--\":982:984   */\n      tag_140\n      jumpi\n        /* \"--CODEGEN--\":1033:1034   */\n      0x00\n        /* \"--CODEGEN--\":1030:1031   */\n      dup1\n        /* \"--CODEGEN--\":1023:1035   */\n      revert\n        /* \"--CODEGEN--\":982:984   */\n    tag_140:\n        /* \"--CODEGEN--\":1070:1076   */\n      dup2\n        /* \"--CODEGEN--\":1057:1077   */\n      calldataload\n        /* \"--CODEGEN--\":1092:1178   */\n      tag_141\n        /* \"--CODEGEN--\":1107:1177   */\n      tag_142\n        /* \"--CODEGEN--\":1170:1176   */\n      dup3\n        /* \"--CODEGEN--\":1107:1177   */\n      jump(tag_143)\n    tag_142:\n        /* \"--CODEGEN--\":1092:1178   */\n      jump(tag_133)\n    tag_141:\n        /* \"--CODEGEN--\":1083:1178   */\n      swap2\n      pop\n        /* \"--CODEGEN--\":1195:1200   */\n      dup2\n        /* \"--CODEGEN--\":1220:1226   */\n      dup2\n        /* \"--CODEGEN--\":1213:1218   */\n      dup4\n        /* \"--CODEGEN--\":1206:1227   */\n      mstore\n        /* \"--CODEGEN--\":1250:1254   */\n      0x20\n        /* \"--CODEGEN--\":1242:1248   */\n      dup5\n        /* \"--CODEGEN--\":1238:1255   */\n      add\n        /* \"--CODEGEN--\":1228:1255   */\n      swap4\n      pop\n        /* \"--CODEGEN--\":1272:1276   */\n      0x20\n        /* \"--CODEGEN--\":1267:1270   */\n      dup2\n        /* \"--CODEGEN--\":1263:1277   */\n      add\n        /* \"--CODEGEN--\":1256:1277   */\n      swap1\n      pop\n        /* \"--CODEGEN--\":1325:1331   */\n      dup4\n        /* \"--CODEGEN--\":1358:1359   */\n      0x00\n        /* \"--CODEGEN--\":1343:1582   */\n    tag_144:\n        /* \"--CODEGEN--\":1368:1374   */\n      dup4\n        /* \"--CODEGEN--\":1365:1366   */\n      dup2\n        /* \"--CODEGEN--\":1362:1375   */\n      lt\n        /* \"--CODEGEN--\":1343:1582   */\n      iszero\n      tag_146\n      jumpi\n        /* \"--CODEGEN--\":1451:1454   */\n      dup2\n        /* \"--CODEGEN--\":1438:1455   */\n      calldataload\n        /* \"--CODEGEN--\":1430:1436   */\n      dup7\n        /* \"--CODEGEN--\":1426:1456   */\n      add\n        /* \"--CODEGEN--\":1475:1518   */\n      tag_147\n        /* \"--CODEGEN--\":1514:1517   */\n      dup9\n        /* \"--CODEGEN--\":1502:1512   */\n      dup3\n        /* \"--CODEGEN--\":1475:1518   */\n      jump(tag_148)\n    tag_147:\n        /* \"--CODEGEN--\":1470:1473   */\n      dup5\n        /* \"--CODEGEN--\":1463:1519   */\n      mstore\n        /* \"--CODEGEN--\":1542:1546   */\n      0x20\n        /* \"--CODEGEN--\":1537:1540   */\n      dup5\n        /* \"--CODEGEN--\":1533:1547   */\n      add\n        /* \"--CODEGEN--\":1526:1547   */\n      swap4\n      pop\n        /* \"--CODEGEN--\":1570:1574   */\n      0x20\n        /* \"--CODEGEN--\":1565:1568   */\n      dup4\n        /* \"--CODEGEN--\":1561:1575   */\n      add\n        /* \"--CODEGEN--\":1554:1575   */\n      swap3\n      pop\n        /* \"--CODEGEN--\":1400:1582   */\n      pop\n        /* \"--CODEGEN--\":1390:1391   */\n      0x01\n        /* \"--CODEGEN--\":1387:1388   */\n      dup2\n        /* \"--CODEGEN--\":1383:1392   */\n      add\n        /* \"--CODEGEN--\":1378:1392   */\n      swap1\n      pop\n        /* \"--CODEGEN--\":1343:1582   */\n      jump(tag_144)\n    tag_146:\n        /* \"--CODEGEN--\":1347:1361   */\n      pop\n        /* \"--CODEGEN--\":975:1588   */\n      pop\n      pop\n      pop\n      swap3\n      swap2\n      pop\n      pop\n      jump\n        /* \"--CODEGEN--\":1612:2313   */\n    tag_149:\n      0x00\n        /* \"--CODEGEN--\":1727:1730   */\n      dup3\n        /* \"--CODEGEN--\":1720:1724   */\n      0x1f\n        /* \"--CODEGEN--\":1712:1718   */\n      dup4\n        /* \"--CODEGEN--\":1708:1725   */\n      add\n        /* \"--CODEGEN--\":1704:1731   */\n      slt\n        /* \"--CODEGEN--\":1694:1696   */\n      tag_150\n      jumpi\n        /* \"--CODEGEN--\":1745:1746   */\n      0x00\n        /* \"--CODEGEN--\":1742:1743   */\n      dup1\n        /* \"--CODEGEN--\":1735:1747   */\n      revert\n        /* \"--CODEGEN--\":1694:1696   */\n    tag_150:\n        /* \"--CODEGEN--\":1782:1788   */\n      dup2\n        /* \"--CODEGEN--\":1769:1789   */\n      calldataload\n        /* \"--CODEGEN--\":1804:1882   */\n      tag_151\n        /* \"--CODEGEN--\":1819:1881   */\n      tag_152\n        /* \"--CODEGEN--\":1874:1880   */\n      dup3\n        /* \"--CODEGEN--\":1819:1881   */\n      jump(tag_153)\n    tag_152:\n        /* \"--CODEGEN--\":1804:1882   */\n      jump(tag_133)\n    tag_151:\n        /* \"--CODEGEN--\":1795:1882   */\n      swap2\n      pop\n        /* \"--CODEGEN--\":1899:1904   */\n      dup2\n        /* \"--CODEGEN--\":1924:1930   */\n      dup2\n        /* \"--CODEGEN--\":1917:1922   */\n      dup4\n        /* \"--CODEGEN--\":1910:1931   */\n      mstore\n        /* \"--CODEGEN--\":1954:1958   */\n      0x20\n        /* \"--CODEGEN--\":1946:1952   */\n      dup5\n        /* \"--CODEGEN--\":1942:1959   */\n      add\n        /* \"--CODEGEN--\":1932:1959   */\n      swap4\n      pop\n        /* \"--CODEGEN--\":1976:1980   */\n      0x20\n        /* \"--CODEGEN--\":1971:1974   */\n      dup2\n        /* \"--CODEGEN--\":1967:1981   */\n      add\n        /* \"--CODEGEN--\":1960:1981   */\n      swap1\n      pop\n        /* \"--CODEGEN--\":2029:2035   */\n      dup4\n        /* \"--CODEGEN--\":2076:2079   */\n      dup6\n        /* \"--CODEGEN--\":2068:2072   */\n      0x20\n        /* \"--CODEGEN--\":2060:2066   */\n      dup5\n        /* \"--CODEGEN--\":2056:2073   */\n      mul\n        /* \"--CODEGEN--\":2051:2054   */\n      dup3\n        /* \"--CODEGEN--\":2047:2074   */\n      add\n        /* \"--CODEGEN--\":2044:2080   */\n      gt\n        /* \"--CODEGEN--\":2041:2043   */\n      iszero\n      tag_154\n      jumpi\n        /* \"--CODEGEN--\":2093:2094   */\n      0x00\n        /* \"--CODEGEN--\":2090:2091   */\n      dup1\n        /* \"--CODEGEN--\":2083:2095   */\n      revert\n        /* \"--CODEGEN--\":2041:2043   */\n    tag_154:\n        /* \"--CODEGEN--\":2118:2119   */\n      0x00\n        /* \"--CODEGEN--\":2103:2307   */\n    tag_155:\n        /* \"--CODEGEN--\":2128:2134   */\n      dup4\n        /* \"--CODEGEN--\":2125:2126   */\n      dup2\n        /* \"--CODEGEN--\":2122:2135   */\n      lt\n        /* \"--CODEGEN--\":2103:2307   */\n      iszero\n      tag_157\n      jumpi\n        /* \"--CODEGEN--\":2186:2189   */\n      dup2\n        /* \"--CODEGEN--\":2208:2243   */\n      tag_158\n        /* \"--CODEGEN--\":2239:2242   */\n      dup9\n        /* \"--CODEGEN--\":2227:2237   */\n      dup3\n        /* \"--CODEGEN--\":2208:2243   */\n      jump(tag_159)\n    tag_158:\n        /* \"--CODEGEN--\":2203:2206   */\n      dup5\n        /* \"--CODEGEN--\":2196:2244   */\n      mstore\n        /* \"--CODEGEN--\":2267:2271   */\n      0x20\n        /* \"--CODEGEN--\":2262:2265   */\n      dup5\n        /* \"--CODEGEN--\":2258:2272   */\n      add\n        /* \"--CODEGEN--\":2251:2272   */\n      swap4\n      pop\n        /* \"--CODEGEN--\":2295:2299   */\n      0x20\n        /* \"--CODEGEN--\":2290:2293   */\n      dup4\n        /* \"--CODEGEN--\":2286:2300   */\n      add\n        /* \"--CODEGEN--\":2279:2300   */\n      swap3\n      pop\n        /* \"--CODEGEN--\":2160:2307   */\n      pop\n        /* \"--CODEGEN--\":2150:2151   */\n      0x01\n        /* \"--CODEGEN--\":2147:2148   */\n      dup2\n        /* \"--CODEGEN--\":2143:2152   */\n      add\n        /* \"--CODEGEN--\":2138:2152   */\n      swap1\n      pop\n        /* \"--CODEGEN--\":2103:2307   */\n      jump(tag_155)\n    tag_157:\n        /* \"--CODEGEN--\":2107:2121   */\n      pop\n        /* \"--CODEGEN--\":1687:2313   */\n      pop\n      pop\n      pop\n      swap3\n      swap2\n      pop\n      pop\n      jump\n        /* \"--CODEGEN--\":2322:2756   */\n    tag_148:\n      0x00\n        /* \"--CODEGEN--\":2420:2423   */\n      dup3\n        /* \"--CODEGEN--\":2413:2417   */\n      0x1f\n        /* \"--CODEGEN--\":2405:2411   */\n      dup4\n        /* \"--CODEGEN--\":2401:2418   */\n      add\n        /* \"--CODEGEN--\":2397:2424   */\n      slt\n        /* \"--CODEGEN--\":2387:2389   */\n      tag_160\n      jumpi\n        /* \"--CODEGEN--\":2438:2439   */\n      0x00\n        /* \"--CODEGEN--\":2435:2436   */\n      dup1\n        /* \"--CODEGEN--\":2428:2440   */\n      revert\n        /* \"--CODEGEN--\":2387:2389   */\n    tag_160:\n        /* \"--CODEGEN--\":2475:2481   */\n      dup2\n        /* \"--CODEGEN--\":2462:2482   */\n      calldataload\n        /* \"--CODEGEN--\":2497:2558   */\n      tag_161\n        /* \"--CODEGEN--\":2512:2557   */\n      tag_162\n        /* \"--CODEGEN--\":2550:2556   */\n      dup3\n        /* \"--CODEGEN--\":2512:2557   */\n      jump(tag_163)\n    tag_162:\n        /* \"--CODEGEN--\":2497:2558   */\n      jump(tag_133)\n    tag_161:\n        /* \"--CODEGEN--\":2488:2558   */\n      swap2\n      pop\n        /* \"--CODEGEN--\":2578:2584   */\n      dup1\n        /* \"--CODEGEN--\":2571:2576   */\n      dup3\n        /* \"--CODEGEN--\":2564:2585   */\n      mstore\n        /* \"--CODEGEN--\":2614:2618   */\n      0x20\n        /* \"--CODEGEN--\":2606:2612   */\n      dup4\n        /* \"--CODEGEN--\":2602:2619   */\n      add\n        /* \"--CODEGEN--\":2647:2651   */\n      0x20\n        /* \"--CODEGEN--\":2640:2645   */\n      dup4\n        /* \"--CODEGEN--\":2636:2652   */\n      add\n        /* \"--CODEGEN--\":2682:2685   */\n      dup6\n        /* \"--CODEGEN--\":2673:2679   */\n      dup4\n        /* \"--CODEGEN--\":2668:2671   */\n      dup4\n        /* \"--CODEGEN--\":2664:2680   */\n      add\n        /* \"--CODEGEN--\":2661:2686   */\n      gt\n        /* \"--CODEGEN--\":2658:2660   */\n      iszero\n      tag_164\n      jumpi\n        /* \"--CODEGEN--\":2699:2700   */\n      0x00\n        /* \"--CODEGEN--\":2696:2697   */\n      dup1\n        /* \"--CODEGEN--\":2689:2701   */\n      revert\n        /* \"--CODEGEN--\":2658:2660   */\n    tag_164:\n        /* \"--CODEGEN--\":2709:2750   */\n      tag_165\n        /* \"--CODEGEN--\":2743:2749   */\n      dup4\n        /* \"--CODEGEN--\":2738:2741   */\n      dup3\n        /* \"--CODEGEN--\":2733:2736   */\n      dup5\n        /* \"--CODEGEN--\":2709:2750   */\n      jump(tag_166)\n    tag_165:\n        /* \"--CODEGEN--\":2380:2756   */\n      pop\n      pop\n      pop\n      swap3\n      swap2\n      pop\n      pop\n      jump\n        /* \"--CODEGEN--\":2765:3207   */\n    tag_167:\n      0x00\n        /* \"--CODEGEN--\":2867:2870   */\n      dup3\n        /* \"--CODEGEN--\":2860:2864   */\n      0x1f\n        /* \"--CODEGEN--\":2852:2858   */\n      dup4\n        /* \"--CODEGEN--\":2848:2865   */\n      add\n        /* \"--CODEGEN--\":2844:2871   */\n      slt\n        /* \"--CODEGEN--\":2834:2836   */\n      tag_168\n      jumpi\n        /* \"--CODEGEN--\":2885:2886   */\n      0x00\n        /* \"--CODEGEN--\":2882:2883   */\n      dup1\n        /* \"--CODEGEN--\":2875:2887   */\n      revert\n        /* \"--CODEGEN--\":2834:2836   */\n    tag_168:\n        /* \"--CODEGEN--\":2922:2928   */\n      dup2\n        /* \"--CODEGEN--\":2909:2929   */\n      calldataload\n        /* \"--CODEGEN--\":2944:3009   */\n      tag_169\n        /* \"--CODEGEN--\":2959:3008   */\n      tag_170\n        /* \"--CODEGEN--\":3001:3007   */\n      dup3\n        /* \"--CODEGEN--\":2959:3008   */\n      jump(tag_171)\n    tag_170:\n        /* \"--CODEGEN--\":2944:3009   */\n      jump(tag_133)\n    tag_169:\n        /* \"--CODEGEN--\":2935:3009   */\n      swap2\n      pop\n        /* \"--CODEGEN--\":3029:3035   */\n      dup1\n        /* \"--CODEGEN--\":3022:3027   */\n      dup3\n        /* \"--CODEGEN--\":3015:3036   */\n      mstore\n        /* \"--CODEGEN--\":3065:3069   */\n      0x20\n        /* \"--CODEGEN--\":3057:3063   */\n      dup4\n        /* \"--CODEGEN--\":3053:3070   */\n      add\n        /* \"--CODEGEN--\":3098:3102   */\n      0x20\n        /* \"--CODEGEN--\":3091:3096   */\n      dup4\n        /* \"--CODEGEN--\":3087:3103   */\n      add\n        /* \"--CODEGEN--\":3133:3136   */\n      dup6\n        /* \"--CODEGEN--\":3124:3130   */\n      dup4\n        /* \"--CODEGEN--\":3119:3122   */\n      dup4\n        /* \"--CODEGEN--\":3115:3131   */\n      add\n        /* \"--CODEGEN--\":3112:3137   */\n      gt\n        /* \"--CODEGEN--\":3109:3111   */\n      iszero\n      tag_172\n      jumpi\n        /* \"--CODEGEN--\":3150:3151   */\n      0x00\n        /* \"--CODEGEN--\":3147:3148   */\n      dup1\n        /* \"--CODEGEN--\":3140:3152   */\n      revert\n        /* \"--CODEGEN--\":3109:3111   */\n    tag_172:\n        /* \"--CODEGEN--\":3160:3201   */\n      tag_173\n        /* \"--CODEGEN--\":3194:3200   */\n      dup4\n        /* \"--CODEGEN--\":3189:3192   */\n      dup3\n        /* \"--CODEGEN--\":3184:3187   */\n      dup5\n        /* \"--CODEGEN--\":3160:3201   */\n      jump(tag_166)\n    tag_173:\n        /* \"--CODEGEN--\":2827:3207   */\n      pop\n      pop\n      pop\n      swap3\n      swap2\n      pop\n      pop\n      jump\n        /* \"--CODEGEN--\":3215:3345   */\n    tag_174:\n      0x00\n        /* \"--CODEGEN--\":3295:3301   */\n      dup2\n        /* \"--CODEGEN--\":3282:3302   */\n      calldataload\n        /* \"--CODEGEN--\":3273:3302   */\n      swap1\n      pop\n        /* \"--CODEGEN--\":3307:3340   */\n      tag_175\n        /* \"--CODEGEN--\":3334:3339   */\n      dup2\n        /* \"--CODEGEN--\":3307:3340   */\n      jump(tag_176)\n    tag_175:\n        /* \"--CODEGEN--\":3267:3345   */\n      swap3\n      swap2\n      pop\n      pop\n      jump\n        /* \"--CODEGEN--\":3352:3480   */\n    tag_177:\n      0x00\n        /* \"--CODEGEN--\":3431:3437   */\n      dup2\n        /* \"--CODEGEN--\":3418:3438   */\n      calldataload\n        /* \"--CODEGEN--\":3409:3438   */\n      swap1\n      pop\n        /* \"--CODEGEN--\":3443:3475   */\n      tag_178\n        /* \"--CODEGEN--\":3469:3474   */\n      dup2\n        /* \"--CODEGEN--\":3443:3475   */\n      jump(tag_179)\n    tag_178:\n        /* \"--CODEGEN--\":3403:3480   */\n      swap3\n      swap2\n      pop\n      pop\n      jump\n        /* \"--CODEGEN--\":3487:3613   */\n    tag_159:\n      0x00\n        /* \"--CODEGEN--\":3565:3571   */\n      dup2\n        /* \"--CODEGEN--\":3552:3572   */\n      calldataload\n        /* \"--CODEGEN--\":3543:3572   */\n      swap1\n      pop\n        /* \"--CODEGEN--\":3577:3608   */\n      tag_180\n        /* \"--CODEGEN--\":3602:3607   */\n      dup2\n        /* \"--CODEGEN--\":3577:3608   */\n      jump(tag_181)\n    tag_180:\n        /* \"--CODEGEN--\":3537:3613   */\n      swap3\n      swap2\n      pop\n      pop\n      jump\n        /* \"--CODEGEN--\":3620:5117   */\n    tag_41:\n      0x00\n      dup1\n      0x00\n      dup1\n      0x00\n      dup1\n        /* \"--CODEGEN--\":3908:3911   */\n      0xc0\n        /* \"--CODEGEN--\":3896:3905   */\n      dup8\n        /* \"--CODEGEN--\":3887:3894   */\n      dup10\n        /* \"--CODEGEN--\":3883:3906   */\n      sub\n        /* \"--CODEGEN--\":3879:3912   */\n      slt\n        /* \"--CODEGEN--\":3876:3878   */\n      iszero\n      tag_182\n      jumpi\n        /* \"--CODEGEN--\":3925:3926   */\n      0x00\n        /* \"--CODEGEN--\":3922:3923   */\n      dup1\n        /* \"--CODEGEN--\":3915:3927   */\n      revert\n        /* \"--CODEGEN--\":3876:3878   */\n    tag_182:\n        /* \"--CODEGEN--\":3988:3989   */\n      0x00\n        /* \"--CODEGEN--\":3977:3986   */\n      dup8\n        /* \"--CODEGEN--\":3973:3990   */\n      add\n        /* \"--CODEGEN--\":3960:3991   */\n      calldataload\n        /* \"--CODEGEN--\":4011:4029   */\n      0xffffffffffffffff\n        /* \"--CODEGEN--\":4003:4009   */\n      dup2\n        /* \"--CODEGEN--\":4000:4030   */\n      gt\n        /* \"--CODEGEN--\":3997:3999   */\n      iszero\n      tag_183\n      jumpi\n        /* \"--CODEGEN--\":4043:4044   */\n      0x00\n        /* \"--CODEGEN--\":4040:4041   */\n      dup1\n        /* \"--CODEGEN--\":4033:4045   */\n      revert\n        /* \"--CODEGEN--\":3997:3999   */\n    tag_183:\n        /* \"--CODEGEN--\":4063:4126   */\n      tag_184\n        /* \"--CODEGEN--\":4118:4125   */\n      dup10\n        /* \"--CODEGEN--\":4109:4115   */\n      dup3\n        /* \"--CODEGEN--\":4098:4107   */\n      dup11\n        /* \"--CODEGEN--\":4094:4116   */\n      add\n        /* \"--CODEGEN--\":4063:4126   */\n      jump(tag_167)\n    tag_184:\n        /* \"--CODEGEN--\":4053:4126   */\n      swap7\n      pop\n        /* \"--CODEGEN--\":3939:4132   */\n      pop\n        /* \"--CODEGEN--\":4191:4193   */\n      0x20\n        /* \"--CODEGEN--\":4180:4189   */\n      dup8\n        /* \"--CODEGEN--\":4176:4194   */\n      add\n        /* \"--CODEGEN--\":4163:4195   */\n      calldataload\n        /* \"--CODEGEN--\":4215:4233   */\n      0xffffffffffffffff\n        /* \"--CODEGEN--\":4207:4213   */\n      dup2\n        /* \"--CODEGEN--\":4204:4234   */\n      gt\n        /* \"--CODEGEN--\":4201:4203   */\n      iszero\n      tag_185\n      jumpi\n        /* \"--CODEGEN--\":4247:4248   */\n      0x00\n        /* \"--CODEGEN--\":4244:4245   */\n      dup1\n        /* \"--CODEGEN--\":4237:4249   */\n      revert\n        /* \"--CODEGEN--\":4201:4203   */\n    tag_185:\n        /* \"--CODEGEN--\":4267:4330   */\n      tag_186\n        /* \"--CODEGEN--\":4322:4329   */\n      dup10\n        /* \"--CODEGEN--\":4313:4319   */\n      dup3\n        /* \"--CODEGEN--\":4302:4311   */\n      dup11\n        /* \"--CODEGEN--\":4298:4320   */\n      add\n        /* \"--CODEGEN--\":4267:4330   */\n      jump(tag_167)\n    tag_186:\n        /* \"--CODEGEN--\":4257:4330   */\n      swap6\n      pop\n        /* \"--CODEGEN--\":4142:4336   */\n      pop\n        /* \"--CODEGEN--\":4395:4397   */\n      0x40\n        /* \"--CODEGEN--\":4384:4393   */\n      dup8\n        /* \"--CODEGEN--\":4380:4398   */\n      add\n        /* \"--CODEGEN--\":4367:4399   */\n      calldataload\n        /* \"--CODEGEN--\":4419:4437   */\n      0xffffffffffffffff\n        /* \"--CODEGEN--\":4411:4417   */\n      dup2\n        /* \"--CODEGEN--\":4408:4438   */\n      gt\n        /* \"--CODEGEN--\":4405:4407   */\n      iszero\n      tag_187\n      jumpi\n        /* \"--CODEGEN--\":4451:4452   */\n      0x00\n        /* \"--CODEGEN--\":4448:4449   */\n      dup1\n        /* \"--CODEGEN--\":4441:4453   */\n      revert\n        /* \"--CODEGEN--\":4405:4407   */\n    tag_187:\n        /* \"--CODEGEN--\":4471:4555   */\n      tag_188\n        /* \"--CODEGEN--\":4547:4554   */\n      dup10\n        /* \"--CODEGEN--\":4538:4544   */\n      dup3\n        /* \"--CODEGEN--\":4527:4536   */\n      dup11\n        /* \"--CODEGEN--\":4523:4545   */\n      add\n        /* \"--CODEGEN--\":4471:4555   */\n      jump(tag_139)\n    tag_188:\n        /* \"--CODEGEN--\":4461:4555   */\n      swap5\n      pop\n        /* \"--CODEGEN--\":4346:4561   */\n      pop\n        /* \"--CODEGEN--\":4620:4622   */\n      0x60\n        /* \"--CODEGEN--\":4609:4618   */\n      dup8\n        /* \"--CODEGEN--\":4605:4623   */\n      add\n        /* \"--CODEGEN--\":4592:4624   */\n      calldataload\n        /* \"--CODEGEN--\":4644:4662   */\n      0xffffffffffffffff\n        /* \"--CODEGEN--\":4636:4642   */\n      dup2\n        /* \"--CODEGEN--\":4633:4663   */\n      gt\n        /* \"--CODEGEN--\":4630:4632   */\n      iszero\n      tag_189\n      jumpi\n        /* \"--CODEGEN--\":4676:4677   */\n      0x00\n        /* \"--CODEGEN--\":4673:4674   */\n      dup1\n        /* \"--CODEGEN--\":4666:4678   */\n      revert\n        /* \"--CODEGEN--\":4630:4632   */\n    tag_189:\n        /* \"--CODEGEN--\":4696:4774   */\n      tag_190\n        /* \"--CODEGEN--\":4766:4773   */\n      dup10\n        /* \"--CODEGEN--\":4757:4763   */\n      dup3\n        /* \"--CODEGEN--\":4746:4755   */\n      dup11\n        /* \"--CODEGEN--\":4742:4764   */\n      add\n        /* \"--CODEGEN--\":4696:4774   */\n      jump(tag_128)\n    tag_190:\n        /* \"--CODEGEN--\":4686:4774   */\n      swap4\n      pop\n        /* \"--CODEGEN--\":4571:4780   */\n      pop\n        /* \"--CODEGEN--\":4839:4842   */\n      0x80\n        /* \"--CODEGEN--\":4828:4837   */\n      dup8\n        /* \"--CODEGEN--\":4824:4843   */\n      add\n        /* \"--CODEGEN--\":4811:4844   */\n      calldataload\n        /* \"--CODEGEN--\":4864:4882   */\n      0xffffffffffffffff\n        /* \"--CODEGEN--\":4856:4862   */\n      dup2\n        /* \"--CODEGEN--\":4853:4883   */\n      gt\n        /* \"--CODEGEN--\":4850:4852   */\n      iszero\n      tag_191\n      jumpi\n        /* \"--CODEGEN--\":4896:4897   */\n      0x00\n        /* \"--CODEGEN--\":4893:4894   */\n      dup1\n        /* \"--CODEGEN--\":4886:4898   */\n      revert\n        /* \"--CODEGEN--\":4850:4852   */\n    tag_191:\n        /* \"--CODEGEN--\":4916:4992   */\n      tag_192\n        /* \"--CODEGEN--\":4984:4991   */\n      dup10\n        /* \"--CODEGEN--\":4975:4981   */\n      dup3\n        /* \"--CODEGEN--\":4964:4973   */\n      dup11\n        /* \"--CODEGEN--\":4960:4982   */\n      add\n        /* \"--CODEGEN--\":4916:4992   */\n      jump(tag_149)\n    tag_192:\n        /* \"--CODEGEN--\":4906:4992   */\n      swap3\n      pop\n        /* \"--CODEGEN--\":4790:4998   */\n      pop\n        /* \"--CODEGEN--\":5029:5032   */\n      0xa0\n        /* \"--CODEGEN--\":5048:5101   */\n      tag_193\n        /* \"--CODEGEN--\":5093:5100   */\n      dup10\n        /* \"--CODEGEN--\":5084:5090   */\n      dup3\n        /* \"--CODEGEN--\":5073:5082   */\n      dup11\n        /* \"--CODEGEN--\":5069:5091   */\n      add\n        /* \"--CODEGEN--\":5048:5101   */\n      jump(tag_174)\n    tag_193:\n        /* \"--CODEGEN--\":5038:5101   */\n      swap2\n      pop\n        /* \"--CODEGEN--\":5008:5107   */\n      pop\n        /* \"--CODEGEN--\":3870:5117   */\n      swap3\n      swap6\n      pop\n      swap3\n      swap6\n      pop\n      swap3\n      swap6\n      jump\n        /* \"--CODEGEN--\":5124:5596   */\n    tag_29:\n      0x00\n      dup1\n        /* \"--CODEGEN--\":5255:5257   */\n      0x40\n        /* \"--CODEGEN--\":5243:5252   */\n      dup4\n        /* \"--CODEGEN--\":5234:5241   */\n      dup6\n        /* \"--CODEGEN--\":5230:5253   */\n      sub\n        /* \"--CODEGEN--\":5226:5258   */\n      slt\n        /* \"--CODEGEN--\":5223:5225   */\n      iszero\n      tag_194\n      jumpi\n        /* \"--CODEGEN--\":5271:5272   */\n      0x00\n        /* \"--CODEGEN--\":5268:5269   */\n      dup1\n        /* \"--CODEGEN--\":5261:5273   */\n      revert\n        /* \"--CODEGEN--\":5223:5225   */\n    tag_194:\n        /* \"--CODEGEN--\":5334:5335   */\n      0x00\n        /* \"--CODEGEN--\":5323:5332   */\n      dup4\n        /* \"--CODEGEN--\":5319:5336   */\n      add\n        /* \"--CODEGEN--\":5306:5337   */\n      calldataload\n        /* \"--CODEGEN--\":5357:5375   */\n      0xffffffffffffffff\n        /* \"--CODEGEN--\":5349:5355   */\n      dup2\n        /* \"--CODEGEN--\":5346:5376   */\n      gt\n        /* \"--CODEGEN--\":5343:5345   */\n      iszero\n      tag_195\n      jumpi\n        /* \"--CODEGEN--\":5389:5390   */\n      0x00\n        /* \"--CODEGEN--\":5386:5387   */\n      dup1\n        /* \"--CODEGEN--\":5379:5391   */\n      revert\n        /* \"--CODEGEN--\":5343:5345   */\n    tag_195:\n        /* \"--CODEGEN--\":5409:5472   */\n      tag_196\n        /* \"--CODEGEN--\":5464:5471   */\n      dup6\n        /* \"--CODEGEN--\":5455:5461   */\n      dup3\n        /* \"--CODEGEN--\":5444:5453   */\n      dup7\n        /* \"--CODEGEN--\":5440:5462   */\n      add\n        /* \"--CODEGEN--\":5409:5472   */\n      jump(tag_167)\n    tag_196:\n        /* \"--CODEGEN--\":5399:5472   */\n      swap3\n      pop\n        /* \"--CODEGEN--\":5285:5478   */\n      pop\n        /* \"--CODEGEN--\":5509:5511   */\n      0x20\n        /* \"--CODEGEN--\":5527:5580   */\n      tag_197\n        /* \"--CODEGEN--\":5572:5579   */\n      dup6\n        /* \"--CODEGEN--\":5563:5569   */\n      dup3\n        /* \"--CODEGEN--\":5552:5561   */\n      dup7\n        /* \"--CODEGEN--\":5548:5570   */\n      add\n        /* \"--CODEGEN--\":5527:5580   */\n      jump(tag_174)\n    tag_197:\n        /* \"--CODEGEN--\":5517:5580   */\n      swap2\n      pop\n        /* \"--CODEGEN--\":5488:5586   */\n      pop\n        /* \"--CODEGEN--\":5217:5596   */\n      swap3\n      pop\n      swap3\n      swap1\n      pop\n      jump\n        /* \"--CODEGEN--\":5603:6306   */\n    tag_18:\n      0x00\n      dup1\n      0x00\n        /* \"--CODEGEN--\":5761:5763   */\n      0x60\n        /* \"--CODEGEN--\":5749:5758   */\n      dup5\n        /* \"--CODEGEN--\":5740:5747   */\n      dup7\n        /* \"--CODEGEN--\":5736:5759   */\n      sub\n        /* \"--CODEGEN--\":5732:5764   */\n      slt\n        /* \"--CODEGEN--\":5729:5731   */\n      iszero\n      tag_198\n      jumpi\n        /* \"--CODEGEN--\":5777:5778   */\n      0x00\n        /* \"--CODEGEN--\":5774:5775   */\n      dup1\n        /* \"--CODEGEN--\":5767:5779   */\n      revert\n        /* \"--CODEGEN--\":5729:5731   */\n    tag_198:\n        /* \"--CODEGEN--\":5840:5841   */\n      0x00\n        /* \"--CODEGEN--\":5829:5838   */\n      dup5\n        /* \"--CODEGEN--\":5825:5842   */\n      add\n        /* \"--CODEGEN--\":5812:5843   */\n      calldataload\n        /* \"--CODEGEN--\":5863:5881   */\n      0xffffffffffffffff\n        /* \"--CODEGEN--\":5855:5861   */\n      dup2\n        /* \"--CODEGEN--\":5852:5882   */\n      gt\n        /* \"--CODEGEN--\":5849:5851   */\n      iszero\n      tag_199\n      jumpi\n        /* \"--CODEGEN--\":5895:5896   */\n      0x00\n        /* \"--CODEGEN--\":5892:5893   */\n      dup1\n        /* \"--CODEGEN--\":5885:5897   */\n      revert\n        /* \"--CODEGEN--\":5849:5851   */\n    tag_199:\n        /* \"--CODEGEN--\":5915:5978   */\n      tag_200\n        /* \"--CODEGEN--\":5970:5977   */\n      dup7\n        /* \"--CODEGEN--\":5961:5967   */\n      dup3\n        /* \"--CODEGEN--\":5950:5959   */\n      dup8\n        /* \"--CODEGEN--\":5946:5968   */\n      add\n        /* \"--CODEGEN--\":5915:5978   */\n      jump(tag_167)\n    tag_200:\n        /* \"--CODEGEN--\":5905:5978   */\n      swap4\n      pop\n        /* \"--CODEGEN--\":5791:5984   */\n      pop\n        /* \"--CODEGEN--\":6015:6017   */\n      0x20\n        /* \"--CODEGEN--\":6033:6086   */\n      tag_201\n        /* \"--CODEGEN--\":6078:6085   */\n      dup7\n        /* \"--CODEGEN--\":6069:6075   */\n      dup3\n        /* \"--CODEGEN--\":6058:6067   */\n      dup8\n        /* \"--CODEGEN--\":6054:6076   */\n      add\n        /* \"--CODEGEN--\":6033:6086   */\n      jump(tag_174)\n    tag_201:\n        /* \"--CODEGEN--\":6023:6086   */\n      swap3\n      pop\n        /* \"--CODEGEN--\":5994:6092   */\n      pop\n        /* \"--CODEGEN--\":6151:6153   */\n      0x40\n        /* \"--CODEGEN--\":6140:6149   */\n      dup5\n        /* \"--CODEGEN--\":6136:6154   */\n      add\n        /* \"--CODEGEN--\":6123:6155   */\n      calldataload\n        /* \"--CODEGEN--\":6175:6193   */\n      0xffffffffffffffff\n        /* \"--CODEGEN--\":6167:6173   */\n      dup2\n        /* \"--CODEGEN--\":6164:6194   */\n      gt\n        /* \"--CODEGEN--\":6161:6163   */\n      iszero\n      tag_202\n      jumpi\n        /* \"--CODEGEN--\":6207:6208   */\n      0x00\n        /* \"--CODEGEN--\":6204:6205   */\n      dup1\n        /* \"--CODEGEN--\":6197:6209   */\n      revert\n        /* \"--CODEGEN--\":6161:6163   */\n    tag_202:\n        /* \"--CODEGEN--\":6227:6290   */\n      tag_203\n        /* \"--CODEGEN--\":6282:6289   */\n      dup7\n        /* \"--CODEGEN--\":6273:6279   */\n      dup3\n        /* \"--CODEGEN--\":6262:6271   */\n      dup8\n        /* \"--CODEGEN--\":6258:6280   */\n      add\n        /* \"--CODEGEN--\":6227:6290   */\n      jump(tag_167)\n    tag_203:\n        /* \"--CODEGEN--\":6217:6290   */\n      swap2\n      pop\n        /* \"--CODEGEN--\":6102:6296   */\n      pop\n        /* \"--CODEGEN--\":5723:6306   */\n      swap3\n      pop\n      swap3\n      pop\n      swap3\n      jump\n        /* \"--CODEGEN--\":6313:7142   */\n    tag_35:\n      0x00\n      dup1\n      0x00\n      dup1\n        /* \"--CODEGEN--\":6488:6491   */\n      0x80\n        /* \"--CODEGEN--\":6476:6485   */\n      dup6\n        /* \"--CODEGEN--\":6467:6474   */\n      dup8\n        /* \"--CODEGEN--\":6463:6486   */\n      sub\n        /* \"--CODEGEN--\":6459:6492   */\n      slt\n        /* \"--CODEGEN--\":6456:6458   */\n      iszero\n      tag_204\n      jumpi\n        /* \"--CODEGEN--\":6505:6506   */\n      0x00\n        /* \"--CODEGEN--\":6502:6503   */\n      dup1\n        /* \"--CODEGEN--\":6495:6507   */\n      revert\n        /* \"--CODEGEN--\":6456:6458   */\n    tag_204:\n        /* \"--CODEGEN--\":6568:6569   */\n      0x00\n        /* \"--CODEGEN--\":6557:6566   */\n      dup6\n        /* \"--CODEGEN--\":6553:6570   */\n      add\n        /* \"--CODEGEN--\":6540:6571   */\n      calldataload\n        /* \"--CODEGEN--\":6591:6609   */\n      0xffffffffffffffff\n        /* \"--CODEGEN--\":6583:6589   */\n      dup2\n        /* \"--CODEGEN--\":6580:6610   */\n      gt\n        /* \"--CODEGEN--\":6577:6579   */\n      iszero\n      tag_205\n      jumpi\n        /* \"--CODEGEN--\":6623:6624   */\n      0x00\n        /* \"--CODEGEN--\":6620:6621   */\n      dup1\n        /* \"--CODEGEN--\":6613:6625   */\n      revert\n        /* \"--CODEGEN--\":6577:6579   */\n    tag_205:\n        /* \"--CODEGEN--\":6643:6706   */\n      tag_206\n        /* \"--CODEGEN--\":6698:6705   */\n      dup8\n        /* \"--CODEGEN--\":6689:6695   */\n      dup3\n        /* \"--CODEGEN--\":6678:6687   */\n      dup9\n        /* \"--CODEGEN--\":6674:6696   */\n      add\n        /* \"--CODEGEN--\":6643:6706   */\n      jump(tag_167)\n    tag_206:\n        /* \"--CODEGEN--\":6633:6706   */\n      swap5\n      pop\n        /* \"--CODEGEN--\":6519:6712   */\n      pop\n        /* \"--CODEGEN--\":6743:6745   */\n      0x20\n        /* \"--CODEGEN--\":6761:6814   */\n      tag_207\n        /* \"--CODEGEN--\":6806:6813   */\n      dup8\n        /* \"--CODEGEN--\":6797:6803   */\n      dup3\n        /* \"--CODEGEN--\":6786:6795   */\n      dup9\n        /* \"--CODEGEN--\":6782:6804   */\n      add\n        /* \"--CODEGEN--\":6761:6814   */\n      jump(tag_174)\n    tag_207:\n        /* \"--CODEGEN--\":6751:6814   */\n      swap4\n      pop\n        /* \"--CODEGEN--\":6722:6820   */\n      pop\n        /* \"--CODEGEN--\":6879:6881   */\n      0x40\n        /* \"--CODEGEN--\":6868:6877   */\n      dup6\n        /* \"--CODEGEN--\":6864:6882   */\n      add\n        /* \"--CODEGEN--\":6851:6883   */\n      calldataload\n        /* \"--CODEGEN--\":6903:6921   */\n      0xffffffffffffffff\n        /* \"--CODEGEN--\":6895:6901   */\n      dup2\n        /* \"--CODEGEN--\":6892:6922   */\n      gt\n        /* \"--CODEGEN--\":6889:6891   */\n      iszero\n      tag_208\n      jumpi\n        /* \"--CODEGEN--\":6935:6936   */\n      0x00\n        /* \"--CODEGEN--\":6932:6933   */\n      dup1\n        /* \"--CODEGEN--\":6925:6937   */\n      revert\n        /* \"--CODEGEN--\":6889:6891   */\n    tag_208:\n        /* \"--CODEGEN--\":6955:7018   */\n      tag_209\n        /* \"--CODEGEN--\":7010:7017   */\n      dup8\n        /* \"--CODEGEN--\":7001:7007   */\n      dup3\n        /* \"--CODEGEN--\":6990:6999   */\n      dup9\n        /* \"--CODEGEN--\":6986:7008   */\n      add\n        /* \"--CODEGEN--\":6955:7018   */\n      jump(tag_167)\n    tag_209:\n        /* \"--CODEGEN--\":6945:7018   */\n      swap3\n      pop\n        /* \"--CODEGEN--\":6830:7024   */\n      pop\n        /* \"--CODEGEN--\":7055:7057   */\n      0x60\n        /* \"--CODEGEN--\":7073:7126   */\n      tag_210\n        /* \"--CODEGEN--\":7118:7125   */\n      dup8\n        /* \"--CODEGEN--\":7109:7115   */\n      dup3\n        /* \"--CODEGEN--\":7098:7107   */\n      dup9\n        /* \"--CODEGEN--\":7094:7116   */\n      add\n        /* \"--CODEGEN--\":7073:7126   */\n      jump(tag_125)\n    tag_210:\n        /* \"--CODEGEN--\":7063:7126   */\n      swap2\n      pop\n        /* \"--CODEGEN--\":7034:7132   */\n      pop\n        /* \"--CODEGEN--\":6450:7142   */\n      swap3\n      swap6\n      swap2\n      swap5\n      pop\n      swap3\n      pop\n      jump\n        /* \"--CODEGEN--\":7149:8100   */\n    tag_25:\n      0x00\n      dup1\n      0x00\n      dup1\n      0x00\n        /* \"--CODEGEN--\":7339:7342   */\n      0xa0\n        /* \"--CODEGEN--\":7327:7336   */\n      dup7\n        /* \"--CODEGEN--\":7318:7325   */\n      dup9\n        /* \"--CODEGEN--\":7314:7337   */\n      sub\n        /* \"--CODEGEN--\":7310:7343   */\n      slt\n        /* \"--CODEGEN--\":7307:7309   */\n      iszero\n      tag_211\n      jumpi\n        /* \"--CODEGEN--\":7356:7357   */\n      0x00\n        /* \"--CODEGEN--\":7353:7354   */\n      dup1\n        /* \"--CODEGEN--\":7346:7358   */\n      revert\n        /* \"--CODEGEN--\":7307:7309   */\n    tag_211:\n        /* \"--CODEGEN--\":7419:7420   */\n      0x00\n        /* \"--CODEGEN--\":7408:7417   */\n      dup7\n        /* \"--CODEGEN--\":7404:7421   */\n      add\n        /* \"--CODEGEN--\":7391:7422   */\n      calldataload\n        /* \"--CODEGEN--\":7442:7460   */\n      0xffffffffffffffff\n        /* \"--CODEGEN--\":7434:7440   */\n      dup2\n        /* \"--CODEGEN--\":7431:7461   */\n      gt\n        /* \"--CODEGEN--\":7428:7430   */\n      iszero\n      tag_212\n      jumpi\n        /* \"--CODEGEN--\":7474:7475   */\n      0x00\n        /* \"--CODEGEN--\":7471:7472   */\n      dup1\n        /* \"--CODEGEN--\":7464:7476   */\n      revert\n        /* \"--CODEGEN--\":7428:7430   */\n    tag_212:\n        /* \"--CODEGEN--\":7494:7557   */\n      tag_213\n        /* \"--CODEGEN--\":7549:7556   */\n      dup9\n        /* \"--CODEGEN--\":7540:7546   */\n      dup3\n        /* \"--CODEGEN--\":7529:7538   */\n      dup10\n        /* \"--CODEGEN--\":7525:7547   */\n      add\n        /* \"--CODEGEN--\":7494:7557   */\n      jump(tag_167)\n    tag_213:\n        /* \"--CODEGEN--\":7484:7557   */\n      swap6\n      pop\n        /* \"--CODEGEN--\":7370:7563   */\n      pop\n        /* \"--CODEGEN--\":7594:7596   */\n      0x20\n        /* \"--CODEGEN--\":7612:7665   */\n      tag_214\n        /* \"--CODEGEN--\":7657:7664   */\n      dup9\n        /* \"--CODEGEN--\":7648:7654   */\n      dup3\n        /* \"--CODEGEN--\":7637:7646   */\n      dup10\n        /* \"--CODEGEN--\":7633:7655   */\n      add\n        /* \"--CODEGEN--\":7612:7665   */\n      jump(tag_174)\n    tag_214:\n        /* \"--CODEGEN--\":7602:7665   */\n      swap5\n      pop\n        /* \"--CODEGEN--\":7573:7671   */\n      pop\n        /* \"--CODEGEN--\":7730:7732   */\n      0x40\n        /* \"--CODEGEN--\":7719:7728   */\n      dup7\n        /* \"--CODEGEN--\":7715:7733   */\n      add\n        /* \"--CODEGEN--\":7702:7734   */\n      calldataload\n        /* \"--CODEGEN--\":7754:7772   */\n      0xffffffffffffffff\n        /* \"--CODEGEN--\":7746:7752   */\n      dup2\n        /* \"--CODEGEN--\":7743:7773   */\n      gt\n        /* \"--CODEGEN--\":7740:7742   */\n      iszero\n      tag_215\n      jumpi\n        /* \"--CODEGEN--\":7786:7787   */\n      0x00\n        /* \"--CODEGEN--\":7783:7784   */\n      dup1\n        /* \"--CODEGEN--\":7776:7788   */\n      revert\n        /* \"--CODEGEN--\":7740:7742   */\n    tag_215:\n        /* \"--CODEGEN--\":7806:7869   */\n      tag_216\n        /* \"--CODEGEN--\":7861:7868   */\n      dup9\n        /* \"--CODEGEN--\":7852:7858   */\n      dup3\n        /* \"--CODEGEN--\":7841:7850   */\n      dup10\n        /* \"--CODEGEN--\":7837:7859   */\n      add\n        /* \"--CODEGEN--\":7806:7869   */\n      jump(tag_167)\n    tag_216:\n        /* \"--CODEGEN--\":7796:7869   */\n      swap4\n      pop\n        /* \"--CODEGEN--\":7681:7875   */\n      pop\n        /* \"--CODEGEN--\":7906:7908   */\n      0x60\n        /* \"--CODEGEN--\":7924:7977   */\n      tag_217\n        /* \"--CODEGEN--\":7969:7976   */\n      dup9\n        /* \"--CODEGEN--\":7960:7966   */\n      dup3\n        /* \"--CODEGEN--\":7949:7958   */\n      dup10\n        /* \"--CODEGEN--\":7945:7967   */\n      add\n        /* \"--CODEGEN--\":7924:7977   */\n      jump(tag_125)\n    tag_217:\n        /* \"--CODEGEN--\":7914:7977   */\n      swap3\n      pop\n        /* \"--CODEGEN--\":7885:7983   */\n      pop\n        /* \"--CODEGEN--\":8014:8017   */\n      0x80\n        /* \"--CODEGEN--\":8033:8084   */\n      tag_218\n        /* \"--CODEGEN--\":8076:8083   */\n      dup9\n        /* \"--CODEGEN--\":8067:8073   */\n      dup3\n        /* \"--CODEGEN--\":8056:8065   */\n      dup10\n        /* \"--CODEGEN--\":8052:8074   */\n      add\n        /* \"--CODEGEN--\":8033:8084   */\n      jump(tag_159)\n    tag_218:\n        /* \"--CODEGEN--\":8023:8084   */\n      swap2\n      pop\n        /* \"--CODEGEN--\":7993:8090   */\n      pop\n        /* \"--CODEGEN--\":7301:8100   */\n      swap3\n      swap6\n      pop\n      swap3\n      swap6\n      swap1\n      swap4\n      pop\n      jump\n        /* \"--CODEGEN--\":8107:8934   */\n    tag_14:\n      0x00\n      dup1\n      0x00\n      dup1\n        /* \"--CODEGEN--\":8281:8284   */\n      0x80\n        /* \"--CODEGEN--\":8269:8278   */\n      dup6\n        /* \"--CODEGEN--\":8260:8267   */\n      dup8\n        /* \"--CODEGEN--\":8256:8279   */\n      sub\n        /* \"--CODEGEN--\":8252:8285   */\n      slt\n        /* \"--CODEGEN--\":8249:8251   */\n      iszero\n      tag_219\n      jumpi\n        /* \"--CODEGEN--\":8298:8299   */\n      0x00\n        /* \"--CODEGEN--\":8295:8296   */\n      dup1\n        /* \"--CODEGEN--\":8288:8300   */\n      revert\n        /* \"--CODEGEN--\":8249:8251   */\n    tag_219:\n        /* \"--CODEGEN--\":8361:8362   */\n      0x00\n        /* \"--CODEGEN--\":8350:8359   */\n      dup6\n        /* \"--CODEGEN--\":8346:8363   */\n      add\n        /* \"--CODEGEN--\":8333:8364   */\n      calldataload\n        /* \"--CODEGEN--\":8384:8402   */\n      0xffffffffffffffff\n        /* \"--CODEGEN--\":8376:8382   */\n      dup2\n        /* \"--CODEGEN--\":8373:8403   */\n      gt\n        /* \"--CODEGEN--\":8370:8372   */\n      iszero\n      tag_220\n      jumpi\n        /* \"--CODEGEN--\":8416:8417   */\n      0x00\n        /* \"--CODEGEN--\":8413:8414   */\n      dup1\n        /* \"--CODEGEN--\":8406:8418   */\n      revert\n        /* \"--CODEGEN--\":8370:8372   */\n    tag_220:\n        /* \"--CODEGEN--\":8436:8499   */\n      tag_221\n        /* \"--CODEGEN--\":8491:8498   */\n      dup8\n        /* \"--CODEGEN--\":8482:8488   */\n      dup3\n        /* \"--CODEGEN--\":8471:8480   */\n      dup9\n        /* \"--CODEGEN--\":8467:8489   */\n      add\n        /* \"--CODEGEN--\":8436:8499   */\n      jump(tag_167)\n    tag_221:\n        /* \"--CODEGEN--\":8426:8499   */\n      swap5\n      pop\n        /* \"--CODEGEN--\":8312:8505   */\n      pop\n        /* \"--CODEGEN--\":8536:8538   */\n      0x20\n        /* \"--CODEGEN--\":8554:8607   */\n      tag_222\n        /* \"--CODEGEN--\":8599:8606   */\n      dup8\n        /* \"--CODEGEN--\":8590:8596   */\n      dup3\n        /* \"--CODEGEN--\":8579:8588   */\n      dup9\n        /* \"--CODEGEN--\":8575:8597   */\n      add\n        /* \"--CODEGEN--\":8554:8607   */\n      jump(tag_174)\n    tag_222:\n        /* \"--CODEGEN--\":8544:8607   */\n      swap4\n      pop\n        /* \"--CODEGEN--\":8515:8613   */\n      pop\n        /* \"--CODEGEN--\":8644:8646   */\n      0x40\n        /* \"--CODEGEN--\":8662:8714   */\n      tag_223\n        /* \"--CODEGEN--\":8706:8713   */\n      dup8\n        /* \"--CODEGEN--\":8697:8703   */\n      dup3\n        /* \"--CODEGEN--\":8686:8695   */\n      dup9\n        /* \"--CODEGEN--\":8682:8704   */\n      add\n        /* \"--CODEGEN--\":8662:8714   */\n      jump(tag_177)\n    tag_223:\n        /* \"--CODEGEN--\":8652:8714   */\n      swap3\n      pop\n        /* \"--CODEGEN--\":8623:8720   */\n      pop\n        /* \"--CODEGEN--\":8779:8781   */\n      0x60\n        /* \"--CODEGEN--\":8768:8777   */\n      dup6\n        /* \"--CODEGEN--\":8764:8782   */\n      add\n        /* \"--CODEGEN--\":8751:8783   */\n      calldataload\n        /* \"--CODEGEN--\":8803:8821   */\n      0xffffffffffffffff\n        /* \"--CODEGEN--\":8795:8801   */\n      dup2\n        /* \"--CODEGEN--\":8792:8822   */\n      gt\n        /* \"--CODEGEN--\":8789:8791   */\n      iszero\n      tag_224\n      jumpi\n        /* \"--CODEGEN--\":8835:8836   */\n      0x00\n        /* \"--CODEGEN--\":8832:8833   */\n      dup1\n        /* \"--CODEGEN--\":8825:8837   */\n      revert\n        /* \"--CODEGEN--\":8789:8791   */\n    tag_224:\n        /* \"--CODEGEN--\":8855:8918   */\n      tag_225\n        /* \"--CODEGEN--\":8910:8917   */\n      dup8\n        /* \"--CODEGEN--\":8901:8907   */\n      dup3\n        /* \"--CODEGEN--\":8890:8899   */\n      dup9\n        /* \"--CODEGEN--\":8886:8908   */\n      add\n        /* \"--CODEGEN--\":8855:8918   */\n      jump(tag_167)\n    tag_225:\n        /* \"--CODEGEN--\":8845:8918   */\n      swap2\n      pop\n        /* \"--CODEGEN--\":8730:8924   */\n      pop\n        /* \"--CODEGEN--\":8243:8934   */\n      swap3\n      swap6\n      swap2\n      swap5\n      pop\n      swap3\n      pop\n      jump\n        /* \"--CODEGEN--\":8941:9288   */\n    tag_226:\n      0x00\n        /* \"--CODEGEN--\":9053:9092   */\n      tag_227\n        /* \"--CODEGEN--\":9086:9091   */\n      dup3\n        /* \"--CODEGEN--\":9053:9092   */\n      jump(tag_228)\n    tag_227:\n        /* \"--CODEGEN--\":9104:9175   */\n      tag_229\n        /* \"--CODEGEN--\":9168:9174   */\n      dup2\n        /* \"--CODEGEN--\":9163:9166   */\n      dup6\n        /* \"--CODEGEN--\":9104:9175   */\n      jump(tag_230)\n    tag_229:\n        /* \"--CODEGEN--\":9097:9175   */\n      swap4\n      pop\n        /* \"--CODEGEN--\":9180:9232   */\n      tag_231\n        /* \"--CODEGEN--\":9225:9231   */\n      dup2\n        /* \"--CODEGEN--\":9220:9223   */\n      dup6\n        /* \"--CODEGEN--\":9213:9217   */\n      0x20\n        /* \"--CODEGEN--\":9206:9211   */\n      dup7\n        /* \"--CODEGEN--\":9202:9218   */\n      add\n        /* \"--CODEGEN--\":9180:9232   */\n      jump(tag_232)\n    tag_231:\n        /* \"--CODEGEN--\":9253:9282   */\n      tag_233\n        /* \"--CODEGEN--\":9275:9281   */\n      dup2\n        /* \"--CODEGEN--\":9253:9282   */\n      jump(tag_234)\n    tag_233:\n        /* \"--CODEGEN--\":9248:9251   */\n      dup5\n        /* \"--CODEGEN--\":9244:9283   */\n      add\n        /* \"--CODEGEN--\":9237:9283   */\n      swap2\n      pop\n        /* \"--CODEGEN--\":9033:9288   */\n      pop\n      swap3\n      swap2\n      pop\n      pop\n      jump\n        /* \"--CODEGEN--\":9295:9655   */\n    tag_235:\n      0x00\n        /* \"--CODEGEN--\":9425:9464   */\n      tag_236\n        /* \"--CODEGEN--\":9458:9463   */\n      dup3\n        /* \"--CODEGEN--\":9425:9464   */\n      jump(tag_228)\n    tag_236:\n        /* \"--CODEGEN--\":9476:9565   */\n      tag_237\n        /* \"--CODEGEN--\":9558:9564   */\n      dup2\n        /* \"--CODEGEN--\":9553:9556   */\n      dup6\n        /* \"--CODEGEN--\":9476:9565   */\n      jump(tag_238)\n    tag_237:\n        /* \"--CODEGEN--\":9469:9565   */\n      swap4\n      pop\n        /* \"--CODEGEN--\":9570:9622   */\n      tag_239\n        /* \"--CODEGEN--\":9615:9621   */\n      dup2\n        /* \"--CODEGEN--\":9610:9613   */\n      dup6\n        /* \"--CODEGEN--\":9603:9607   */\n      0x20\n        /* \"--CODEGEN--\":9596:9601   */\n      dup7\n        /* \"--CODEGEN--\":9592:9608   */\n      add\n        /* \"--CODEGEN--\":9570:9622   */\n      jump(tag_232)\n    tag_239:\n        /* \"--CODEGEN--\":9643:9649   */\n      dup1\n        /* \"--CODEGEN--\":9638:9641   */\n      dup5\n        /* \"--CODEGEN--\":9634:9650   */\n      add\n        /* \"--CODEGEN--\":9627:9650   */\n      swap2\n      pop\n        /* \"--CODEGEN--\":9405:9655   */\n      pop\n      swap3\n      swap2\n      pop\n      pop\n      jump\n        /* \"--CODEGEN--\":9662:10014   */\n    tag_240:\n      0x00\n        /* \"--CODEGEN--\":9788:9823   */\n      tag_241\n        /* \"--CODEGEN--\":9817:9822   */\n      dup3\n        /* \"--CODEGEN--\":9788:9823   */\n      jump(tag_242)\n    tag_241:\n        /* \"--CODEGEN--\":9835:9924   */\n      tag_243\n        /* \"--CODEGEN--\":9917:9923   */\n      dup2\n        /* \"--CODEGEN--\":9912:9915   */\n      dup6\n        /* \"--CODEGEN--\":9835:9924   */\n      jump(tag_238)\n    tag_243:\n        /* \"--CODEGEN--\":9828:9924   */\n      swap4\n      pop\n        /* \"--CODEGEN--\":9929:9981   */\n      tag_244\n        /* \"--CODEGEN--\":9974:9980   */\n      dup2\n        /* \"--CODEGEN--\":9969:9972   */\n      dup6\n        /* \"--CODEGEN--\":9962:9966   */\n      0x20\n        /* \"--CODEGEN--\":9955:9960   */\n      dup7\n        /* \"--CODEGEN--\":9951:9967   */\n      add\n        /* \"--CODEGEN--\":9929:9981   */\n      jump(tag_232)\n    tag_244:\n        /* \"--CODEGEN--\":10002:10008   */\n      dup1\n        /* \"--CODEGEN--\":9997:10000   */\n      dup5\n        /* \"--CODEGEN--\":9993:10009   */\n      add\n        /* \"--CODEGEN--\":9986:10009   */\n      swap2\n      pop\n        /* \"--CODEGEN--\":9768:10014   */\n      pop\n      swap3\n      swap2\n      pop\n      pop\n      jump\n        /* \"--CODEGEN--\":10021:10131   */\n    tag_245:\n        /* \"--CODEGEN--\":10102:10125   */\n      tag_246\n        /* \"--CODEGEN--\":10119:10124   */\n      dup2\n        /* \"--CODEGEN--\":10102:10125   */\n      jump(tag_247)\n    tag_246:\n        /* \"--CODEGEN--\":10097:10100   */\n      dup3\n        /* \"--CODEGEN--\":10090:10126   */\n      mstore\n        /* \"--CODEGEN--\":10084:10131   */\n      pop\n      pop\n      jump\n        /* \"--CODEGEN--\":10138:10245   */\n    tag_248:\n        /* \"--CODEGEN--\":10217:10239   */\n      tag_249\n        /* \"--CODEGEN--\":10233:10238   */\n      dup2\n        /* \"--CODEGEN--\":10217:10239   */\n      jump(tag_250)\n    tag_249:\n        /* \"--CODEGEN--\":10212:10215   */\n      dup3\n        /* \"--CODEGEN--\":10205:10240   */\n      mstore\n        /* \"--CODEGEN--\":10199:10245   */\n      pop\n      pop\n      jump\n        /* \"--CODEGEN--\":10252:10510   */\n    tag_101:\n      0x00\n        /* \"--CODEGEN--\":10394:10485   */\n      tag_251\n        /* \"--CODEGEN--\":10481:10484   */\n      dup3\n        /* \"--CODEGEN--\":10472:10478   */\n      dup5\n        /* \"--CODEGEN--\":10394:10485   */\n      jump(tag_240)\n    tag_251:\n        /* \"--CODEGEN--\":10387:10485   */\n      swap2\n      pop\n        /* \"--CODEGEN--\":10502:10505   */\n      dup2\n        /* \"--CODEGEN--\":10495:10505   */\n      swap1\n      pop\n        /* \"--CODEGEN--\":10375:10510   */\n      swap3\n      swap2\n      pop\n      pop\n      jump\n        /* \"--CODEGEN--\":10517:10783   */\n    tag_50:\n      0x00\n        /* \"--CODEGEN--\":10663:10758   */\n      tag_252\n        /* \"--CODEGEN--\":10754:10757   */\n      dup3\n        /* \"--CODEGEN--\":10745:10751   */\n      dup5\n        /* \"--CODEGEN--\":10663:10758   */\n      jump(tag_235)\n    tag_252:\n        /* \"--CODEGEN--\":10656:10758   */\n      swap2\n      pop\n        /* \"--CODEGEN--\":10775:10778   */\n      dup2\n        /* \"--CODEGEN--\":10768:10778   */\n      swap1\n      pop\n        /* \"--CODEGEN--\":10644:10783   */\n      swap3\n      swap2\n      pop\n      pop\n      jump\n        /* \"--CODEGEN--\":10790:11091   */\n    tag_47:\n      0x00\n        /* \"--CODEGEN--\":10928:10930   */\n      0x20\n        /* \"--CODEGEN--\":10917:10926   */\n      dup3\n        /* \"--CODEGEN--\":10913:10931   */\n      add\n        /* \"--CODEGEN--\":10905:10931   */\n      swap1\n      pop\n        /* \"--CODEGEN--\":10978:10987   */\n      dup2\n        /* \"--CODEGEN--\":10972:10976   */\n      dup2\n        /* \"--CODEGEN--\":10968:10988   */\n      sub\n        /* \"--CODEGEN--\":10964:10965   */\n      0x00\n        /* \"--CODEGEN--\":10953:10962   */\n      dup4\n        /* \"--CODEGEN--\":10949:10966   */\n      add\n        /* \"--CODEGEN--\":10942:10989   */\n      mstore\n        /* \"--CODEGEN--\":11003:11081   */\n      tag_253\n        /* \"--CODEGEN--\":11076:11080   */\n      dup2\n        /* \"--CODEGEN--\":11067:11073   */\n      dup5\n        /* \"--CODEGEN--\":11003:11081   */\n      jump(tag_226)\n    tag_253:\n        /* \"--CODEGEN--\":10995:11081   */\n      swap1\n      pop\n        /* \"--CODEGEN--\":10899:11091   */\n      swap3\n      swap2\n      pop\n      pop\n      jump\n        /* \"--CODEGEN--\":11098:11307   */\n    tag_32:\n      0x00\n        /* \"--CODEGEN--\":11214:11216   */\n      0x20\n        /* \"--CODEGEN--\":11203:11212   */\n      dup3\n        /* \"--CODEGEN--\":11199:11217   */\n      add\n        /* \"--CODEGEN--\":11191:11217   */\n      swap1\n      pop\n        /* \"--CODEGEN--\":11228:11297   */\n      tag_254\n        /* \"--CODEGEN--\":11294:11295   */\n      0x00\n        /* \"--CODEGEN--\":11283:11292   */\n      dup4\n        /* \"--CODEGEN--\":11279:11296   */\n      add\n        /* \"--CODEGEN--\":11270:11276   */\n      dup5\n        /* \"--CODEGEN--\":11228:11297   */\n      jump(tag_245)\n    tag_254:\n        /* \"--CODEGEN--\":11185:11307   */\n      swap3\n      swap2\n      pop\n      pop\n      jump\n        /* \"--CODEGEN--\":11314:11519   */\n    tag_38:\n      0x00\n        /* \"--CODEGEN--\":11428:11430   */\n      0x20\n        /* \"--CODEGEN--\":11417:11426   */\n      dup3\n        /* \"--CODEGEN--\":11413:11431   */\n      add\n        /* \"--CODEGEN--\":11405:11431   */\n      swap1\n      pop\n        /* \"--CODEGEN--\":11442:11509   */\n      tag_255\n        /* \"--CODEGEN--\":11506:11507   */\n      0x00\n        /* \"--CODEGEN--\":11495:11504   */\n      dup4\n        /* \"--CODEGEN--\":11491:11508   */\n      add\n        /* \"--CODEGEN--\":11482:11488   */\n      dup5\n        /* \"--CODEGEN--\":11442:11509   */\n      jump(tag_248)\n    tag_255:\n        /* \"--CODEGEN--\":11399:11519   */\n      swap3\n      swap2\n      pop\n      pop\n      jump\n        /* \"--CODEGEN--\":11526:11782   */\n    tag_133:\n      0x00\n        /* \"--CODEGEN--\":11588:11590   */\n      0x40\n        /* \"--CODEGEN--\":11582:11591   */\n      mload\n        /* \"--CODEGEN--\":11572:11591   */\n      swap1\n      pop\n        /* \"--CODEGEN--\":11626:11630   */\n      dup2\n        /* \"--CODEGEN--\":11618:11624   */\n      dup2\n        /* \"--CODEGEN--\":11614:11631   */\n      add\n        /* \"--CODEGEN--\":11725:11731   */\n      dup2\n        /* \"--CODEGEN--\":11713:11723   */\n      dup2\n        /* \"--CODEGEN--\":11710:11732   */\n      lt\n        /* \"--CODEGEN--\":11689:11707   */\n      0xffffffffffffffff\n        /* \"--CODEGEN--\":11677:11687   */\n      dup3\n        /* \"--CODEGEN--\":11674:11708   */\n      gt\n        /* \"--CODEGEN--\":11671:11733   */\n      or\n        /* \"--CODEGEN--\":11668:11670   */\n      iszero\n      tag_256\n      jumpi\n        /* \"--CODEGEN--\":11746:11747   */\n      0x00\n        /* \"--CODEGEN--\":11743:11744   */\n      dup1\n        /* \"--CODEGEN--\":11736:11748   */\n      revert\n        /* \"--CODEGEN--\":11668:11670   */\n    tag_256:\n        /* \"--CODEGEN--\":11766:11776   */\n      dup1\n        /* \"--CODEGEN--\":11762:11764   */\n      0x40\n        /* \"--CODEGEN--\":11755:11777   */\n      mstore\n        /* \"--CODEGEN--\":11566:11782   */\n      pop\n      swap2\n      swap1\n      pop\n      jump\n        /* \"--CODEGEN--\":11789:12093   */\n    tag_132:\n      0x00\n        /* \"--CODEGEN--\":11948:11966   */\n      0xffffffffffffffff\n        /* \"--CODEGEN--\":11940:11946   */\n      dup3\n        /* \"--CODEGEN--\":11937:11967   */\n      gt\n        /* \"--CODEGEN--\":11934:11936   */\n      iszero\n      tag_257\n      jumpi\n        /* \"--CODEGEN--\":11980:11981   */\n      0x00\n        /* \"--CODEGEN--\":11977:11978   */\n      dup1\n        /* \"--CODEGEN--\":11970:11982   */\n      revert\n        /* \"--CODEGEN--\":11934:11936   */\n    tag_257:\n        /* \"--CODEGEN--\":12015:12019   */\n      0x20\n        /* \"--CODEGEN--\":12007:12013   */\n      dup3\n        /* \"--CODEGEN--\":12003:12020   */\n      mul\n        /* \"--CODEGEN--\":11995:12020   */\n      swap1\n      pop\n        /* \"--CODEGEN--\":12078:12082   */\n      0x20\n        /* \"--CODEGEN--\":12072:12076   */\n      dup2\n        /* \"--CODEGEN--\":12068:12083   */\n      add\n        /* \"--CODEGEN--\":12060:12083   */\n      swap1\n      pop\n        /* \"--CODEGEN--\":11871:12093   */\n      swap2\n      swap1\n      pop\n      jump\n        /* \"--CODEGEN--\":12100:12410   */\n    tag_143:\n      0x00\n        /* \"--CODEGEN--\":12265:12283   */\n      0xffffffffffffffff\n        /* \"--CODEGEN--\":12257:12263   */\n      dup3\n        /* \"--CODEGEN--\":12254:12284   */\n      gt\n        /* \"--CODEGEN--\":12251:12253   */\n      iszero\n      tag_258\n      jumpi\n        /* \"--CODEGEN--\":12297:12298   */\n      0x00\n        /* \"--CODEGEN--\":12294:12295   */\n      dup1\n        /* \"--CODEGEN--\":12287:12299   */\n      revert\n        /* \"--CODEGEN--\":12251:12253   */\n    tag_258:\n        /* \"--CODEGEN--\":12332:12336   */\n      0x20\n        /* \"--CODEGEN--\":12324:12330   */\n      dup3\n        /* \"--CODEGEN--\":12320:12337   */\n      mul\n        /* \"--CODEGEN--\":12312:12337   */\n      swap1\n      pop\n        /* \"--CODEGEN--\":12395:12399   */\n      0x20\n        /* \"--CODEGEN--\":12389:12393   */\n      dup2\n        /* \"--CODEGEN--\":12385:12400   */\n      add\n        /* \"--CODEGEN--\":12377:12400   */\n      swap1\n      pop\n        /* \"--CODEGEN--\":12188:12410   */\n      swap2\n      swap1\n      pop\n      jump\n        /* \"--CODEGEN--\":12417:12719   */\n    tag_153:\n      0x00\n        /* \"--CODEGEN--\":12574:12592   */\n      0xffffffffffffffff\n        /* \"--CODEGEN--\":12566:12572   */\n      dup3\n        /* \"--CODEGEN--\":12563:12593   */\n      gt\n        /* \"--CODEGEN--\":12560:12562   */\n      iszero\n      tag_259\n      jumpi\n        /* \"--CODEGEN--\":12606:12607   */\n      0x00\n        /* \"--CODEGEN--\":12603:12604   */\n      dup1\n        /* \"--CODEGEN--\":12596:12608   */\n      revert\n        /* \"--CODEGEN--\":12560:12562   */\n    tag_259:\n        /* \"--CODEGEN--\":12641:12645   */\n      0x20\n        /* \"--CODEGEN--\":12633:12639   */\n      dup3\n        /* \"--CODEGEN--\":12629:12646   */\n      mul\n        /* \"--CODEGEN--\":12621:12646   */\n      swap1\n      pop\n        /* \"--CODEGEN--\":12704:12708   */\n      0x20\n        /* \"--CODEGEN--\":12698:12702   */\n      dup2\n        /* \"--CODEGEN--\":12694:12709   */\n      add\n        /* \"--CODEGEN--\":12686:12709   */\n      swap1\n      pop\n        /* \"--CODEGEN--\":12497:12719   */\n      swap2\n      swap1\n      pop\n      jump\n        /* \"--CODEGEN--\":12726:13044   */\n    tag_163:\n      0x00\n        /* \"--CODEGEN--\":12866:12884   */\n      0xffffffffffffffff\n        /* \"--CODEGEN--\":12858:12864   */\n      dup3\n        /* \"--CODEGEN--\":12855:12885   */\n      gt\n        /* \"--CODEGEN--\":12852:12854   */\n      iszero\n      tag_260\n      jumpi\n        /* \"--CODEGEN--\":12898:12899   */\n      0x00\n        /* \"--CODEGEN--\":12895:12896   */\n      dup1\n        /* \"--CODEGEN--\":12888:12900   */\n      revert\n        /* \"--CODEGEN--\":12852:12854   */\n    tag_260:\n        /* \"--CODEGEN--\":12965:12969   */\n      0x1f\n        /* \"--CODEGEN--\":12961:12970   */\n      not\n        /* \"--CODEGEN--\":12954:12958   */\n      0x1f\n        /* \"--CODEGEN--\":12946:12952   */\n      dup4\n        /* \"--CODEGEN--\":12942:12959   */\n      add\n        /* \"--CODEGEN--\":12938:12971   */\n      and\n        /* \"--CODEGEN--\":12930:12971   */\n      swap1\n      pop\n        /* \"--CODEGEN--\":13029:13033   */\n      0x20\n        /* \"--CODEGEN--\":13023:13027   */\n      dup2\n        /* \"--CODEGEN--\":13019:13034   */\n      add\n        /* \"--CODEGEN--\":13011:13034   */\n      swap1\n      pop\n        /* \"--CODEGEN--\":12789:13044   */\n      swap2\n      swap1\n      pop\n      jump\n        /* \"--CODEGEN--\":13051:13373   */\n    tag_171:\n      0x00\n        /* \"--CODEGEN--\":13195:13213   */\n      0xffffffffffffffff\n        /* \"--CODEGEN--\":13187:13193   */\n      dup3\n        /* \"--CODEGEN--\":13184:13214   */\n      gt\n        /* \"--CODEGEN--\":13181:13183   */\n      iszero\n      tag_261\n      jumpi\n        /* \"--CODEGEN--\":13227:13228   */\n      0x00\n        /* \"--CODEGEN--\":13224:13225   */\n      dup1\n        /* \"--CODEGEN--\":13217:13229   */\n      revert\n        /* \"--CODEGEN--\":13181:13183   */\n    tag_261:\n        /* \"--CODEGEN--\":13294:13298   */\n      0x1f\n        /* \"--CODEGEN--\":13290:13299   */\n      not\n        /* \"--CODEGEN--\":13283:13287   */\n      0x1f\n        /* \"--CODEGEN--\":13275:13281   */\n      dup4\n        /* \"--CODEGEN--\":13271:13288   */\n      add\n        /* \"--CODEGEN--\":13267:13300   */\n      and\n        /* \"--CODEGEN--\":13259:13300   */\n      swap1\n      pop\n        /* \"--CODEGEN--\":13358:13362   */\n      0x20\n        /* \"--CODEGEN--\":13352:13356   */\n      dup2\n        /* \"--CODEGEN--\":13348:13363   */\n      add\n        /* \"--CODEGEN--\":13340:13363   */\n      swap1\n      pop\n        /* \"--CODEGEN--\":13118:13373   */\n      swap2\n      swap1\n      pop\n      jump\n        /* \"--CODEGEN--\":13380:13498   */\n    tag_242:\n      0x00\n        /* \"--CODEGEN--\":13470:13475   */\n      dup2\n        /* \"--CODEGEN--\":13464:13476   */\n      mload\n        /* \"--CODEGEN--\":13454:13476   */\n      swap1\n      pop\n        /* \"--CODEGEN--\":13435:13498   */\n      swap2\n      swap1\n      pop\n      jump\n        /* \"--CODEGEN--\":13505:13627   */\n    tag_228:\n      0x00\n        /* \"--CODEGEN--\":13599:13604   */\n      dup2\n        /* \"--CODEGEN--\":13593:13605   */\n      mload\n        /* \"--CODEGEN--\":13583:13605   */\n      swap1\n      pop\n        /* \"--CODEGEN--\":13564:13627   */\n      swap2\n      swap1\n      pop\n      jump\n        /* \"--CODEGEN--\":13635:13798   */\n    tag_230:\n      0x00\n        /* \"--CODEGEN--\":13750:13756   */\n      dup3\n        /* \"--CODEGEN--\":13745:13748   */\n      dup3\n        /* \"--CODEGEN--\":13738:13757   */\n      mstore\n        /* \"--CODEGEN--\":13787:13791   */\n      0x20\n        /* \"--CODEGEN--\":13782:13785   */\n      dup3\n        /* \"--CODEGEN--\":13778:13792   */\n      add\n        /* \"--CODEGEN--\":13763:13792   */\n      swap1\n      pop\n        /* \"--CODEGEN--\":13731:13798   */\n      swap3\n      swap2\n      pop\n      pop\n      jump\n        /* \"--CODEGEN--\":13807:13952   */\n    tag_238:\n      0x00\n        /* \"--CODEGEN--\":13943:13946   */\n      dup2\n        /* \"--CODEGEN--\":13928:13946   */\n      swap1\n      pop\n        /* \"--CODEGEN--\":13921:13952   */\n      swap3\n      swap2\n      pop\n      pop\n      jump\n        /* \"--CODEGEN--\":13960:14051   */\n    tag_262:\n      0x00\n        /* \"--CODEGEN--\":14022:14046   */\n      tag_263\n        /* \"--CODEGEN--\":14040:14045   */\n      dup3\n        /* \"--CODEGEN--\":14022:14046   */\n      jump(tag_264)\n    tag_263:\n        /* \"--CODEGEN--\":14011:14046   */\n      swap1\n      pop\n        /* \"--CODEGEN--\":14005:14051   */\n      swap2\n      swap1\n      pop\n      jump\n        /* \"--CODEGEN--\":14058:14179   */\n    tag_264:\n      0x00\n        /* \"--CODEGEN--\":14131:14173   */\n      0xffffffffffffffffffffffffffffffffffffffff\n        /* \"--CODEGEN--\":14124:14129   */\n      dup3\n        /* \"--CODEGEN--\":14120:14174   */\n      and\n        /* \"--CODEGEN--\":14109:14174   */\n      swap1\n      pop\n        /* \"--CODEGEN--\":14103:14179   */\n      swap2\n      swap1\n      pop\n      jump\n        /* \"--CODEGEN--\":14186:14258   */\n    tag_265:\n      0x00\n        /* \"--CODEGEN--\":14248:14253   */\n      dup2\n        /* \"--CODEGEN--\":14237:14253   */\n      swap1\n      pop\n        /* \"--CODEGEN--\":14231:14258   */\n      swap2\n      swap1\n      pop\n      jump\n        /* \"--CODEGEN--\":14265:14353   */\n    tag_247:\n      0x00\n        /* \"--CODEGEN--\":14337:14347   */\n      0xffffffff\n        /* \"--CODEGEN--\":14330:14335   */\n      dup3\n        /* \"--CODEGEN--\":14326:14348   */\n      and\n        /* \"--CODEGEN--\":14315:14348   */\n      swap1\n      pop\n        /* \"--CODEGEN--\":14309:14353   */\n      swap2\n      swap1\n      pop\n      jump\n        /* \"--CODEGEN--\":14360:14441   */\n    tag_250:\n      0x00\n        /* \"--CODEGEN--\":14431:14435   */\n      0xff\n        /* \"--CODEGEN--\":14424:14429   */\n      dup3\n        /* \"--CODEGEN--\":14420:14436   */\n      and\n        /* \"--CODEGEN--\":14409:14436   */\n      swap1\n      pop\n        /* \"--CODEGEN--\":14403:14441   */\n      swap2\n      swap1\n      pop\n      jump\n        /* \"--CODEGEN--\":14449:14594   */\n    tag_166:\n        /* \"--CODEGEN--\":14530:14536   */\n      dup3\n        /* \"--CODEGEN--\":14525:14528   */\n      dup2\n        /* \"--CODEGEN--\":14520:14523   */\n      dup4\n        /* \"--CODEGEN--\":14507:14537   */\n      calldatacopy\n        /* \"--CODEGEN--\":14586:14587   */\n      0x00\n        /* \"--CODEGEN--\":14577:14583   */\n      dup4\n        /* \"--CODEGEN--\":14572:14575   */\n      dup4\n        /* \"--CODEGEN--\":14568:14584   */\n      add\n        /* \"--CODEGEN--\":14561:14588   */\n      mstore\n        /* \"--CODEGEN--\":14500:14594   */\n      pop\n      pop\n      pop\n      jump\n        /* \"--CODEGEN--\":14603:14871   */\n    tag_232:\n        /* \"--CODEGEN--\":14668:14669   */\n      0x00\n        /* \"--CODEGEN--\":14675:14776   */\n    tag_266:\n        /* \"--CODEGEN--\":14689:14695   */\n      dup4\n        /* \"--CODEGEN--\":14686:14687   */\n      dup2\n        /* \"--CODEGEN--\":14683:14696   */\n      lt\n        /* \"--CODEGEN--\":14675:14776   */\n      iszero\n      tag_268\n      jumpi\n        /* \"--CODEGEN--\":14765:14766   */\n      dup1\n        /* \"--CODEGEN--\":14760:14763   */\n      dup3\n        /* \"--CODEGEN--\":14756:14767   */\n      add\n        /* \"--CODEGEN--\":14750:14768   */\n      mload\n        /* \"--CODEGEN--\":14746:14747   */\n      dup2\n        /* \"--CODEGEN--\":14741:14744   */\n      dup5\n        /* \"--CODEGEN--\":14737:14748   */\n      add\n        /* \"--CODEGEN--\":14730:14769   */\n      mstore\n        /* \"--CODEGEN--\":14711:14713   */\n      0x20\n        /* \"--CODEGEN--\":14708:14709   */\n      dup2\n        /* \"--CODEGEN--\":14704:14714   */\n      add\n        /* \"--CODEGEN--\":14699:14714   */\n      swap1\n      pop\n        /* \"--CODEGEN--\":14675:14776   */\n      jump(tag_266)\n    tag_268:\n        /* \"--CODEGEN--\":14791:14797   */\n      dup4\n        /* \"--CODEGEN--\":14788:14789   */\n      dup2\n        /* \"--CODEGEN--\":14785:14798   */\n      gt\n        /* \"--CODEGEN--\":14782:14784   */\n      iszero\n      tag_269\n      jumpi\n        /* \"--CODEGEN--\":14856:14857   */\n      0x00\n        /* \"--CODEGEN--\":14847:14853   */\n      dup5\n        /* \"--CODEGEN--\":14842:14845   */\n      dup5\n        /* \"--CODEGEN--\":14838:14854   */\n      add\n        /* \"--CODEGEN--\":14831:14858   */\n      mstore\n        /* \"--CODEGEN--\":14782:14784   */\n    tag_269:\n        /* \"--CODEGEN--\":14652:14871   */\n      pop\n      pop\n      pop\n      pop\n      jump\n        /* \"--CODEGEN--\":14879:14976   */\n    tag_234:\n      0x00\n        /* \"--CODEGEN--\":14967:14969   */\n      0x1f\n        /* \"--CODEGEN--\":14963:14970   */\n      not\n        /* \"--CODEGEN--\":14958:14960   */\n      0x1f\n        /* \"--CODEGEN--\":14951:14956   */\n      dup4\n        /* \"--CODEGEN--\":14947:14961   */\n      add\n        /* \"--CODEGEN--\":14943:14971   */\n      and\n        /* \"--CODEGEN--\":14933:14971   */\n      swap1\n      pop\n        /* \"--CODEGEN--\":14927:14976   */\n      swap2\n      swap1\n      pop\n      jump\n        /* \"--CODEGEN--\":14984:15101   */\n    tag_127:\n        /* \"--CODEGEN--\":15053:15077   */\n      tag_270\n        /* \"--CODEGEN--\":15071:15076   */\n      dup2\n        /* \"--CODEGEN--\":15053:15077   */\n      jump(tag_262)\n    tag_270:\n        /* \"--CODEGEN--\":15046:15051   */\n      dup2\n        /* \"--CODEGEN--\":15043:15078   */\n      eq\n        /* \"--CODEGEN--\":15033:15035   */\n      tag_271\n      jumpi\n        /* \"--CODEGEN--\":15092:15093   */\n      0x00\n        /* \"--CODEGEN--\":15089:15090   */\n      dup1\n        /* \"--CODEGEN--\":15082:15094   */\n      revert\n        /* \"--CODEGEN--\":15033:15035   */\n    tag_271:\n        /* \"--CODEGEN--\":15027:15101   */\n      pop\n      jump\n        /* \"--CODEGEN--\":15108:15225   */\n    tag_176:\n        /* \"--CODEGEN--\":15177:15201   */\n      tag_272\n        /* \"--CODEGEN--\":15195:15200   */\n      dup2\n        /* \"--CODEGEN--\":15177:15201   */\n      jump(tag_265)\n    tag_272:\n        /* \"--CODEGEN--\":15170:15175   */\n      dup2\n        /* \"--CODEGEN--\":15167:15202   */\n      eq\n        /* \"--CODEGEN--\":15157:15159   */\n      tag_273\n      jumpi\n        /* \"--CODEGEN--\":15216:15217   */\n      0x00\n        /* \"--CODEGEN--\":15213:15214   */\n      dup1\n        /* \"--CODEGEN--\":15206:15218   */\n      revert\n        /* \"--CODEGEN--\":15157:15159   */\n    tag_273:\n        /* \"--CODEGEN--\":15151:15225   */\n      pop\n      jump\n        /* \"--CODEGEN--\":15232:15347   */\n    tag_179:\n        /* \"--CODEGEN--\":15300:15323   */\n      tag_274\n        /* \"--CODEGEN--\":15317:15322   */\n      dup2\n        /* \"--CODEGEN--\":15300:15323   */\n      jump(tag_247)\n    tag_274:\n        /* \"--CODEGEN--\":15293:15298   */\n      dup2\n        /* \"--CODEGEN--\":15290:15324   */\n      eq\n        /* \"--CODEGEN--\":15280:15282   */\n      tag_275\n      jumpi\n        /* \"--CODEGEN--\":15338:15339   */\n      0x00\n        /* \"--CODEGEN--\":15335:15336   */\n      dup1\n        /* \"--CODEGEN--\":15328:15340   */\n      revert\n        /* \"--CODEGEN--\":15280:15282   */\n    tag_275:\n        /* \"--CODEGEN--\":15274:15347   */\n      pop\n      jump\n        /* \"--CODEGEN--\":15354:15467   */\n    tag_181:\n        /* \"--CODEGEN--\":15421:15443   */\n      tag_276\n        /* \"--CODEGEN--\":15437:15442   */\n      dup2\n        /* \"--CODEGEN--\":15421:15443   */\n      jump(tag_250)\n    tag_276:\n        /* \"--CODEGEN--\":15414:15419   */\n      dup2\n        /* \"--CODEGEN--\":15411:15444   */\n      eq\n        /* \"--CODEGEN--\":15401:15403   */\n      tag_277\n      jumpi\n        /* \"--CODEGEN--\":15458:15459   */\n      0x00\n        /* \"--CODEGEN--\":15455:15456   */\n      dup1\n        /* \"--CODEGEN--\":15448:15460   */\n      revert\n        /* \"--CODEGEN--\":15401:15403   */\n    tag_277:\n        /* \"--CODEGEN--\":15395:15467   */\n      pop\n      jump\n\n    auxdata: 0xa365627a7a72315820e3a260374a7ab007da95af689f2d2715df1d6ed0bf079b633e6086e7993ee49a6c6578706572696d656e74616cf564736f6c63430005110040\n}\n",
				"bytecode": {
					"linkReferences": {},
					"object": "608060405234801561001057600080fd5b5061136f806100206000396000f3fe608060405234801561001057600080fd5b50600436106100885760003560e01c8063936143561161005b57806393614356146100fd578063aa86c8fc1461012d578063bd2895821461015d578063fe7f26921461017957610088565b80630b3e9bfc1461008d578063252e7bed146100a9578063612fa967146100c557806361650af7146100e1575b600080fd5b6100a760048036036100a29190810190610f23565b6101a9565b005b6100c360048036036100be9190810190610d6a565b6102c4565b005b6100df60048036036100da9190810190610d6a565b610391565b005b6100fb60048036036100f69190810190610e7c565b6103e5565b005b61011760048036036101129190810190610d16565b610498565b60405161012491906110bf565b60405180910390f35b61014760048036036101429190810190610de9565b6104ec565b60405161015491906110da565b60405180910390f35b61017760048036036101729190810190610c15565b610598565b005b610193600480360361018e9190810190610d16565b61077d565b6040516101a0919061109d565b60405180910390f35b600060018060036000886040516101c09190611086565b908152602001604051809103902087815481106101d957fe5b9060005260206000209060030201600001856040516101f89190611086565b908152602001604051809103902060003373ffffffffffffffffffffffffffffffffffffffff1673ffffffffffffffffffffffffffffffffffffffff16815260200190815260200160002060009054906101000a900460ff1660ff16901c1660ff161490508061026457fe5b826000866040516102759190611086565b9081526020016040518091039020858154811061028e57fe5b906000526020600020906003020160010160006101000a81548163ffffffff021916908363ffffffff1602179055505050505050565b60006001806000866040516102d99190611086565b908152602001604051809103902085815481106102f257fe5b9060005260206000209060030201600001846040516103119190611086565b908152602001604051809103902060003373ffffffffffffffffffffffffffffffffffffffff1673ffffffffffffffffffffffffffffffffffffffff16815260200190815260200160002060009054906101000a900460ff161660ff161490508061037857fe5b3373ffffffffffffffffffffffffffffffffffffffff16ff5b806000846040516103a29190611086565b908152602001604051809103902083815481106103bb57fe5b906000526020600020906003020160020190805190602001906103df92919061085a565b50505050565b806000866040516103f69190611086565b9081526020016040518091039020858154811061040f57fe5b90600052602060002090600302016000018460405161042e9190611086565b908152602001604051809103902060008473ffffffffffffffffffffffffffffffffffffffff1673ffffffffffffffffffffffffffffffffffffffff16815260200190815260200160002060006101000a81548160ff021916908360ff1602179055505050505050565b600080836040516104a99190611086565b908152602001604051809103902082815481106104c257fe5b906000526020600020906003020160010160009054906101000a900463ffffffff16905092915050565b600080856040516104fd9190611086565b9081526020016040518091039020848154811061051657fe5b9060005260206000209060030201600001836040516105359190611086565b908152602001604051809103902060008373ffffffffffffffffffffffffffffffffffffffff1673ffffffffffffffffffffffffffffffffffffffff16815260200190815260200160002060009054906101000a900460ff169050949350505050565b6105a06108da565b6040518060400160405280600063ffffffff1681526020018781525090506000876040516105ce9190611086565b9081526020016040518091039020819080600181540180825580915050906001820390600052602060002090600302016000909192909190915060008201518160010160006101000a81548163ffffffff021916908363ffffffff160217905550602082015181600201908051906020019061064b9291906108fa565b5050505060008090505b828110156107735783818151811061066957fe5b60200260200101516000896040516106819190611086565b9081526020016040518091039020600160008b6040516106a19190611086565b90815260200160405180910390208054905003815481106106be57fe5b90600052602060002090600302016000018783815181106106db57fe5b60200260200101516040516106f0919061106f565b9081526020016040518091039020600087848151811061070c57fe5b602002602001015173ffffffffffffffffffffffffffffffffffffffff1673ffffffffffffffffffffffffffffffffffffffff16815260200190815260200160002060006101000a81548160ff021916908360ff1602179055508080600101915050610655565b5050505050505050565b606060008360405161078f9190611086565b908152602001604051809103902082815481106107a857fe5b90600052602060002090600302016002018054600181600116156101000203166002900480601f01602080910402602001604051908101604052809291908181526020018280546001816001161561010002031660029004801561084d5780601f106108225761010080835404028352916020019161084d565b820191906000526020600020905b81548152906001019060200180831161083057829003601f168201915b5050505050905092915050565b828054600181600116156101000203166002900490600052602060002090601f016020900481019282601f1061089b57805160ff19168380011785556108c9565b828001600101855582156108c9579182015b828111156108c85782518255916020019190600101906108ad565b5b5090506108d6919061097a565b5090565b6040518060400160405280600063ffffffff168152602001606081525090565b828054600181600116156101000203166002900490600052602060002090601f016020900481019282601f1061093b57805160ff1916838001178555610969565b82800160010185558215610969579182015b8281111561096857825182559160200191906001019061094d565b5b509050610976919061097a565b5090565b61099c91905b80821115610998576000816000905550600101610980565b5090565b90565b6000813590506109ae816112d0565b92915050565b600082601f8301126109c557600080fd5b81356109d86109d382611122565b6110f5565b915081818352602084019350602081019050838560208402820111156109fd57600080fd5b60005b83811015610a2d5781610a13888261099f565b845260208401935060208301925050600181019050610a00565b5050505092915050565b600082601f830112610a4857600080fd5b8135610a5b610a568261114a565b6110f5565b9150818183526020840193506020810190508360005b83811015610aa15781358601610a878882610b2e565b845260208401935060208301925050600181019050610a71565b5050505092915050565b600082601f830112610abc57600080fd5b8135610acf610aca82611172565b6110f5565b91508181835260208401935060208101905083856020840282011115610af457600080fd5b60005b83811015610b245781610b0a8882610c00565b845260208401935060208301925050600181019050610af7565b5050505092915050565b600082601f830112610b3f57600080fd5b8135610b52610b4d8261119a565b6110f5565b91508082526020830160208301858383011115610b6e57600080fd5b610b7983828461127d565b50505092915050565b600082601f830112610b9357600080fd5b8135610ba6610ba1826111c6565b6110f5565b91508082526020830160208301858383011115610bc257600080fd5b610bcd83828461127d565b50505092915050565b600081359050610be5816112e7565b92915050565b600081359050610bfa816112fe565b92915050565b600081359050610c0f81611315565b92915050565b60008060008060008060c08789031215610c2e57600080fd5b600087013567ffffffffffffffff811115610c4857600080fd5b610c5489828a01610b82565b965050602087013567ffffffffffffffff811115610c7157600080fd5b610c7d89828a01610b82565b955050604087013567ffffffffffffffff811115610c9a57600080fd5b610ca689828a01610a37565b945050606087013567ffffffffffffffff811115610cc357600080fd5b610ccf89828a016109b4565b935050608087013567ffffffffffffffff811115610cec57600080fd5b610cf889828a01610aab565b92505060a0610d0989828a01610bd6565b9150509295509295509295565b60008060408385031215610d2957600080fd5b600083013567ffffffffffffffff811115610d4357600080fd5b610d4f85828601610b82565b9250506020610d6085828601610bd6565b9150509250929050565b600080600060608486031215610d7f57600080fd5b600084013567ffffffffffffffff811115610d9957600080fd5b610da586828701610b82565b9350506020610db686828701610bd6565b925050604084013567ffffffffffffffff811115610dd357600080fd5b610ddf86828701610b82565b9150509250925092565b60008060008060808587031215610dff57600080fd5b600085013567ffffffffffffffff811115610e1957600080fd5b610e2587828801610b82565b9450506020610e3687828801610bd6565b935050604085013567ffffffffffffffff811115610e5357600080fd5b610e5f87828801610b82565b9250506060610e708782880161099f565b91505092959194509250565b600080600080600060a08688031215610e9457600080fd5b600086013567ffffffffffffffff811115610eae57600080fd5b610eba88828901610b82565b9550506020610ecb88828901610bd6565b945050604086013567ffffffffffffffff811115610ee857600080fd5b610ef488828901610b82565b9350506060610f058882890161099f565b9250506080610f1688828901610c00565b9150509295509295909350565b60008060008060808587031215610f3957600080fd5b600085013567ffffffffffffffff811115610f5357600080fd5b610f5f87828801610b82565b9450506020610f7087828801610bd6565b9350506040610f8187828801610beb565b925050606085013567ffffffffffffffff811115610f9e57600080fd5b610faa87828801610b82565b91505092959194509250565b6000610fc1826111fd565b610fcb8185611208565b9350610fdb81856020860161128c565b610fe4816112bf565b840191505092915050565b6000610ffa826111fd565b6110048185611219565b935061101481856020860161128c565b80840191505092915050565b600061102b826111f2565b6110358185611219565b935061104581856020860161128c565b80840191505092915050565b61105a81611260565b82525050565b61106981611270565b82525050565b600061107b8284611020565b915081905092915050565b60006110928284610fef565b915081905092915050565b600060208201905081810360008301526110b78184610fb6565b905092915050565b60006020820190506110d46000830184611051565b92915050565b60006020820190506110ef6000830184611060565b92915050565b6000604051905081810181811067ffffffffffffffff8211171561111857600080fd5b8060405250919050565b600067ffffffffffffffff82111561113957600080fd5b602082029050602081019050919050565b600067ffffffffffffffff82111561116157600080fd5b602082029050602081019050919050565b600067ffffffffffffffff82111561118957600080fd5b602082029050602081019050919050565b600067ffffffffffffffff8211156111b157600080fd5b601f19601f8301169050602081019050919050565b600067ffffffffffffffff8211156111dd57600080fd5b601f19601f8301169050602081019050919050565b600081519050919050565b600081519050919050565b600082825260208201905092915050565b600081905092915050565b600061122f82611236565b9050919050565b600073ffffffffffffffffffffffffffffffffffffffff82169050919050565b6000819050919050565b600063ffffffff82169050919050565b600060ff82169050919050565b82818337600083830152505050565b60005b838110156112aa57808201518184015260208101905061128f565b838111156112b9576000848401525b50505050565b6000601f19601f8301169050919050565b6112d981611224565b81146112e457600080fd5b50565b6112f081611256565b81146112fb57600080fd5b50565b61130781611260565b811461131257600080fd5b50565b61131e81611270565b811461132957600080fd5b5056fea365627a7a72315820e3a260374a7ab007da95af689f2d2715df1d6ed0bf079b633e6086e7993ee49a6c6578706572696d656e74616cf564736f6c63430005110040",
					"opcodes": "PUSH1 0x80 PUSH1 0x40 MSTORE CALLVALUE DUP1 ISZERO PUSH2 0x10 JUMPI PUSH1 0x0 DUP1 REVERT JUMPDEST POP PUSH2 0x136F DUP1 PUSH2 0x20 PUSH1 0x0 CODECOPY PUSH1 0x0 RETURN INVALID PUSH1 0x80 PUSH1 0x40 MSTORE CALLVALUE DUP1 ISZERO PUSH2 0x10 JUMPI PUSH1 0x0 DUP1 REVERT JUMPDEST POP PUSH1 0x4 CALLDATASIZE LT PUSH2 0x88 JUMPI PUSH1 0x0 CALLDATALOAD PUSH1 0xE0 SHR DUP1 PUSH4 0x93614356 GT PUSH2 0x5B JUMPI DUP1 PUSH4 0x93614356 EQ PUSH2 0xFD JUMPI DUP1 PUSH4 0xAA86C8FC EQ PUSH2 0x12D JUMPI DUP1 PUSH4 0xBD289582 EQ PUSH2 0x15D JUMPI DUP1 PUSH4 0xFE7F2692 EQ PUSH2 0x179 JUMPI PUSH2 0x88 JUMP JUMPDEST DUP1 PUSH4 0xB3E9BFC EQ PUSH2 0x8D JUMPI DUP1 PUSH4 0x252E7BED EQ PUSH2 0xA9 JUMPI DUP1 PUSH4 0x612FA967 EQ PUSH2 0xC5 JUMPI DUP1 PUSH4 0x61650AF7 EQ PUSH2 0xE1 JUMPI JUMPDEST PUSH1 0x0 DUP1 REVERT JUMPDEST PUSH2 0xA7 PUSH1 0x4 DUP1 CALLDATASIZE SUB PUSH2 0xA2 SWAP2 SWAP1 DUP2 ADD SWAP1 PUSH2 0xF23 JUMP JUMPDEST PUSH2 0x1A9 JUMP JUMPDEST STOP JUMPDEST PUSH2 0xC3 PUSH1 0x4 DUP1 CALLDATASIZE SUB PUSH2 0xBE SWAP2 SWAP1 DUP2 ADD SWAP1 PUSH2 0xD6A JUMP JUMPDEST PUSH2 0x2C4 JUMP JUMPDEST STOP JUMPDEST PUSH2 0xDF PUSH1 0x4 DUP1 CALLDATASIZE SUB PUSH2 0xDA SWAP2 SWAP1 DUP2 ADD SWAP1 PUSH2 0xD6A JUMP JUMPDEST PUSH2 0x391 JUMP JUMPDEST STOP JUMPDEST PUSH2 0xFB PUSH1 0x4 DUP1 CALLDATASIZE SUB PUSH2 0xF6 SWAP2 SWAP1 DUP2 ADD SWAP1 PUSH2 0xE7C JUMP JUMPDEST PUSH2 0x3E5 JUMP JUMPDEST STOP JUMPDEST PUSH2 0x117 PUSH1 0x4 DUP1 CALLDATASIZE SUB PUSH2 0x112 SWAP2 SWAP1 DUP2 ADD SWAP1 PUSH2 0xD16 JUMP JUMPDEST PUSH2 0x498 JUMP JUMPDEST PUSH1 0x40 MLOAD PUSH2 0x124 SWAP2 SWAP1 PUSH2 0x10BF JUMP JUMPDEST PUSH1 0x40 MLOAD DUP1 SWAP2 SUB SWAP1 RETURN JUMPDEST PUSH2 0x147 PUSH1 0x4 DUP1 CALLDATASIZE SUB PUSH2 0x142 SWAP2 SWAP1 DUP2 ADD SWAP1 PUSH2 0xDE9 JUMP JUMPDEST PUSH2 0x4EC JUMP JUMPDEST PUSH1 0x40 MLOAD PUSH2 0x154 SWAP2 SWAP1 PUSH2 0x10DA JUMP JUMPDEST PUSH1 0x40 MLOAD DUP1 SWAP2 SUB SWAP1 RETURN JUMPDEST PUSH2 0x177 PUSH1 0x4 DUP1 CALLDATASIZE SUB PUSH2 0x172 SWAP2 SWAP1 DUP2 ADD SWAP1 PUSH2 0xC15 JUMP JUMPDEST PUSH2 0x598 JUMP JUMPDEST STOP JUMPDEST PUSH2 0x193 PUSH1 0x4 DUP1 CALLDATASIZE SUB PUSH2 0x18E SWAP2 SWAP1 DUP2 ADD SWAP1 PUSH2 0xD16 JUMP JUMPDEST PUSH2 0x77D JUMP JUMPDEST PUSH1 0x40 MLOAD PUSH2 0x1A0 SWAP2 SWAP1 PUSH2 0x109D JUMP JUMPDEST PUSH1 0x40 MLOAD DUP1 SWAP2 SUB SWAP1 RETURN JUMPDEST PUSH1 0x0 PUSH1 0x1 DUP1 PUSH1 0x3 PUSH1 0x0 DUP9 PUSH1 0x40 MLOAD PUSH2 0x1C0 SWAP2 SWAP1 PUSH2 0x1086 JUMP JUMPDEST SWAP1 DUP2 MSTORE PUSH1 0x20 ADD PUSH1 0x40 MLOAD DUP1 SWAP2 SUB SWAP1 KECCAK256 DUP8 DUP2 SLOAD DUP2 LT PUSH2 0x1D9 JUMPI INVALID JUMPDEST SWAP1 PUSH1 0x0 MSTORE PUSH1 0x20 PUSH1 0x0 KECCAK256 SWAP1 PUSH1 0x3 MUL ADD PUSH1 0x0 ADD DUP6 PUSH1 0x40 MLOAD PUSH2 0x1F8 SWAP2 SWAP1 PUSH2 0x1086 JUMP JUMPDEST SWAP1 DUP2 MSTORE PUSH1 0x20 ADD PUSH1 0x40 MLOAD DUP1 SWAP2 SUB SWAP1 KECCAK256 PUSH1 0x0 CALLER PUSH20 0xFFFFFFFFFFFFFFFFFFFFFFFFFFFFFFFFFFFFFFFF AND PUSH20 0xFFFFFFFFFFFFFFFFFFFFFFFFFFFFFFFFFFFFFFFF AND DUP2 MSTORE PUSH1 0x20 ADD SWAP1 DUP2 MSTORE PUSH1 0x20 ADD PUSH1 0x0 KECCAK256 PUSH1 0x0 SWAP1 SLOAD SWAP1 PUSH2 0x100 EXP SWAP1 DIV PUSH1 0xFF AND PUSH1 0xFF AND SWAP1 SHR AND PUSH1 0xFF AND EQ SWAP1 POP DUP1 PUSH2 0x264 JUMPI INVALID JUMPDEST DUP3 PUSH1 0x0 DUP7 PUSH1 0x40 MLOAD PUSH2 0x275 SWAP2 SWAP1 PUSH2 0x1086 JUMP JUMPDEST SWAP1 DUP2 MSTORE PUSH1 0x20 ADD PUSH1 0x40 MLOAD DUP1 SWAP2 SUB SWAP1 KECCAK256 DUP6 DUP2 SLOAD DUP2 LT PUSH2 0x28E JUMPI INVALID JUMPDEST SWAP1 PUSH1 0x0 MSTORE PUSH1 0x20 PUSH1 0x0 KECCAK256 SWAP1 PUSH1 0x3 MUL ADD PUSH1 0x1 ADD PUSH1 0x0 PUSH2 0x100 EXP DUP2 SLOAD DUP2 PUSH4 0xFFFFFFFF MUL NOT AND SWAP1 DUP4 PUSH4 0xFFFFFFFF AND MUL OR SWAP1 SSTORE POP POP POP POP POP POP JUMP JUMPDEST PUSH1 0x0 PUSH1 0x1 DUP1 PUSH1 0x0 DUP7 PUSH1 0x40 MLOAD PUSH2 0x2D9 SWAP2 SWAP1 PUSH2 0x1086 JUMP JUMPDEST SWAP1 DUP2 MSTORE PUSH1 0x20 ADD PUSH1 0x40 MLOAD DUP1 SWAP2 SUB SWAP1 KECCAK256 DUP6 DUP2 SLOAD DUP2 LT PUSH2 0x2F2 JUMPI INVALID JUMPDEST SWAP1 PUSH1 0x0 MSTORE PUSH1 0x20 PUSH1 0x0 KECCAK256 SWAP1 PUSH1 0x3 MUL ADD PUSH1 0x0 ADD DUP5 PUSH1 0x40 MLOAD PUSH2 0x311 SWAP2 SWAP1 PUSH2 0x1086 JUMP JUMPDEST SWAP1 DUP2 MSTORE PUSH1 0x20 ADD PUSH1 0x40 MLOAD DUP1 SWAP2 SUB SWAP1 KECCAK256 PUSH1 0x0 CALLER PUSH20 0xFFFFFFFFFFFFFFFFFFFFFFFFFFFFFFFFFFFFFFFF AND PUSH20 0xFFFFFFFFFFFFFFFFFFFFFFFFFFFFFFFFFFFFFFFF AND DUP2 MSTORE PUSH1 0x20 ADD SWAP1 DUP2 MSTORE PUSH1 0x20 ADD PUSH1 0x0 KECCAK256 PUSH1 0x0 SWAP1 SLOAD SWAP1 PUSH2 0x100 EXP SWAP1 DIV PUSH1 0xFF AND AND PUSH1 0xFF AND EQ SWAP1 POP DUP1 PUSH2 0x378 JUMPI INVALID JUMPDEST CALLER PUSH20 0xFFFFFFFFFFFFFFFFFFFFFFFFFFFFFFFFFFFFFFFF AND SELFDESTRUCT JUMPDEST DUP1 PUSH1 0x0 DUP5 PUSH1 0x40 MLOAD PUSH2 0x3A2 SWAP2 SWAP1 PUSH2 0x1086 JUMP JUMPDEST SWAP1 DUP2 MSTORE PUSH1 0x20 ADD PUSH1 0x40 MLOAD DUP1 SWAP2 SUB SWAP1 KECCAK256 DUP4 DUP2 SLOAD DUP2 LT PUSH2 0x3BB JUMPI INVALID JUMPDEST SWAP1 PUSH1 0x0 MSTORE PUSH1 0x20 PUSH1 0x0 KECCAK256 SWAP1 PUSH1 0x3 MUL ADD PUSH1 0x2 ADD SWAP1 DUP1 MLOAD SWAP1 PUSH1 0x20 ADD SWAP1 PUSH2 0x3DF SWAP3 SWAP2 SWAP1 PUSH2 0x85A JUMP JUMPDEST POP POP POP POP JUMP JUMPDEST DUP1 PUSH1 0x0 DUP7 PUSH1 0x40 MLOAD PUSH2 0x3F6 SWAP2 SWAP1 PUSH2 0x1086 JUMP JUMPDEST SWAP1 DUP2 MSTORE PUSH1 0x20 ADD PUSH1 0x40 MLOAD DUP1 SWAP2 SUB SWAP1 KECCAK256 DUP6 DUP2 SLOAD DUP2 LT PUSH2 0x40F JUMPI INVALID JUMPDEST SWAP1 PUSH1 0x0 MSTORE PUSH1 0x20 PUSH1 0x0 KECCAK256 SWAP1 PUSH1 0x3 MUL ADD PUSH1 0x0 ADD DUP5 PUSH1 0x40 MLOAD PUSH2 0x42E SWAP2 SWAP1 PUSH2 0x1086 JUMP JUMPDEST SWAP1 DUP2 MSTORE PUSH1 0x20 ADD PUSH1 0x40 MLOAD DUP1 SWAP2 SUB SWAP1 KECCAK256 PUSH1 0x0 DUP5 PUSH20 0xFFFFFFFFFFFFFFFFFFFFFFFFFFFFFFFFFFFFFFFF AND PUSH20 0xFFFFFFFFFFFFFFFFFFFFFFFFFFFFFFFFFFFFFFFF AND DUP2 MSTORE PUSH1 0x20 ADD SWAP1 DUP2 MSTORE PUSH1 0x20 ADD PUSH1 0x0 KECCAK256 PUSH1 0x0 PUSH2 0x100 EXP DUP2 SLOAD DUP2 PUSH1 0xFF MUL NOT AND SWAP1 DUP4 PUSH1 0xFF AND MUL OR SWAP1 SSTORE POP POP POP POP POP POP JUMP JUMPDEST PUSH1 0x0 DUP1 DUP4 PUSH1 0x40 MLOAD PUSH2 0x4A9 SWAP2 SWAP1 PUSH2 0x1086 JUMP JUMPDEST SWAP1 DUP2 MSTORE PUSH1 0x20 ADD PUSH1 0x40 MLOAD DUP1 SWAP2 SUB SWAP1 KECCAK256 DUP3 DUP2 SLOAD DUP2 LT PUSH2 0x4C2 JUMPI INVALID JUMPDEST SWAP1 PUSH1 0x0 MSTORE PUSH1 0x20 PUSH1 0x0 KECCAK256 SWAP1 PUSH1 0x3 MUL ADD PUSH1 0x1 ADD PUSH1 0x0 SWAP1 SLOAD SWAP1 PUSH2 0x100 EXP SWAP1 DIV PUSH4 0xFFFFFFFF AND SWAP1 POP SWAP3 SWAP2 POP POP JUMP JUMPDEST PUSH1 0x0 DUP1 DUP6 PUSH1 0x40 MLOAD PUSH2 0x4FD SWAP2 SWAP1 PUSH2 0x1086 JUMP JUMPDEST SWAP1 DUP2 MSTORE PUSH1 0x20 ADD PUSH1 0x40 MLOAD DUP1 SWAP2 SUB SWAP1 KECCAK256 DUP5 DUP2 SLOAD DUP2 LT PUSH2 0x516 JUMPI INVALID JUMPDEST SWAP1 PUSH1 0x0 MSTORE PUSH1 0x20 PUSH1 0x0 KECCAK256 SWAP1 PUSH1 0x3 MUL ADD PUSH1 0x0 ADD DUP4 PUSH1 0x40 MLOAD PUSH2 0x535 SWAP2 SWAP1 PUSH2 0x1086 JUMP JUMPDEST SWAP1 DUP2 MSTORE PUSH1 0x20 ADD PUSH1 0x40 MLOAD DUP1 SWAP2 SUB SWAP1 KECCAK256 PUSH1 0x0 DUP4 PUSH20 0xFFFFFFFFFFFFFFFFFFFFFFFFFFFFFFFFFFFFFFFF AND PUSH20 0xFFFFFFFFFFFFFFFFFFFFFFFFFFFFFFFFFFFFFFFF AND DUP2 MSTORE PUSH1 0x20 ADD SWAP1 DUP2 MSTORE PUSH1 0x20 ADD PUSH1 0x0 KECCAK256 PUSH1 0x0 SWAP1 SLOAD SWAP1 PUSH2 0x100 EXP SWAP1 DIV PUSH1 0xFF AND SWAP1 POP SWAP5 SWAP4 POP POP POP POP JUMP JUMPDEST PUSH2 0x5A0 PUSH2 0x8DA JUMP JUMPDEST PUSH1 0x40 MLOAD DUP1 PUSH1 0x40 ADD PUSH1 0x40 MSTORE DUP1 PUSH1 0x0 PUSH4 0xFFFFFFFF AND DUP2 MSTORE PUSH1 0x20 ADD DUP8 DUP2 MSTORE POP SWAP1 POP PUSH1 0x0 DUP8 PUSH1 0x40 MLOAD PUSH2 0x5CE SWAP2 SWAP1 PUSH2 0x1086 JUMP JUMPDEST SWAP1 DUP2 MSTORE PUSH1 0x20 ADD PUSH1 0x40 MLOAD DUP1 SWAP2 SUB SWAP1 KECCAK256 DUP2 SWAP1 DUP1 PUSH1 0x1 DUP2 SLOAD ADD DUP1 DUP3 SSTORE DUP1 SWAP2 POP POP SWAP1 PUSH1 0x1 DUP3 SUB SWAP1 PUSH1 0x0 MSTORE PUSH1 0x20 PUSH1 0x0 KECCAK256 SWAP1 PUSH1 0x3 MUL ADD PUSH1 0x0 SWAP1 SWAP2 SWAP3 SWAP1 SWAP2 SWAP1 SWAP2 POP PUSH1 0x0 DUP3 ADD MLOAD DUP2 PUSH1 0x1 ADD PUSH1 0x0 PUSH2 0x100 EXP DUP2 SLOAD DUP2 PUSH4 0xFFFFFFFF MUL NOT AND SWAP1 DUP4 PUSH4 0xFFFFFFFF AND MUL OR SWAP1 SSTORE POP PUSH1 0x20 DUP3 ADD MLOAD DUP2 PUSH1 0x2 ADD SWAP1 DUP1 MLOAD SWAP1 PUSH1 0x20 ADD SWAP1 PUSH2 0x64B SWAP3 SWAP2 SWAP1 PUSH2 0x8FA JUMP JUMPDEST POP POP POP POP PUSH1 0x0 DUP1 SWAP1 POP JUMPDEST DUP3 DUP2 LT ISZERO PUSH2 0x773 JUMPI DUP4 DUP2 DUP2 MLOAD DUP2 LT PUSH2 0x669 JUMPI INVALID JUMPDEST PUSH1 0x20 MUL PUSH1 0x20 ADD ADD MLOAD PUSH1 0x0 DUP10 PUSH1 0x40 MLOAD PUSH2 0x681 SWAP2 SWAP1 PUSH2 0x1086 JUMP JUMPDEST SWAP1 DUP2 MSTORE PUSH1 0x20 ADD PUSH1 0x40 MLOAD DUP1 SWAP2 SUB SWAP1 KECCAK256 PUSH1 0x1 PUSH1 0x0 DUP12 PUSH1 0x40 MLOAD PUSH2 0x6A1 SWAP2 SWAP1 PUSH2 0x1086 JUMP JUMPDEST SWAP1 DUP2 MSTORE PUSH1 0x20 ADD PUSH1 0x40 MLOAD DUP1 SWAP2 SUB SWAP1 KECCAK256 DUP1 SLOAD SWAP1 POP SUB DUP2 SLOAD DUP2 LT PUSH2 0x6BE JUMPI INVALID JUMPDEST SWAP1 PUSH1 0x0 MSTORE PUSH1 0x20 PUSH1 0x0 KECCAK256 SWAP1 PUSH1 0x3 MUL ADD PUSH1 0x0 ADD DUP8 DUP4 DUP2 MLOAD DUP2 LT PUSH2 0x6DB JUMPI INVALID JUMPDEST PUSH1 0x20 MUL PUSH1 0x20 ADD ADD MLOAD PUSH1 0x40 MLOAD PUSH2 0x6F0 SWAP2 SWAP1 PUSH2 0x106F JUMP JUMPDEST SWAP1 DUP2 MSTORE PUSH1 0x20 ADD PUSH1 0x40 MLOAD DUP1 SWAP2 SUB SWAP1 KECCAK256 PUSH1 0x0 DUP8 DUP5 DUP2 MLOAD DUP2 LT PUSH2 0x70C JUMPI INVALID JUMPDEST PUSH1 0x20 MUL PUSH1 0x20 ADD ADD MLOAD PUSH20 0xFFFFFFFFFFFFFFFFFFFFFFFFFFFFFFFFFFFFFFFF AND PUSH20 0xFFFFFFFFFFFFFFFFFFFFFFFFFFFFFFFFFFFFFFFF AND DUP2 MSTORE PUSH1 0x20 ADD SWAP1 DUP2 MSTORE PUSH1 0x20 ADD PUSH1 0x0 KECCAK256 PUSH1 0x0 PUSH2 0x100 EXP DUP2 SLOAD DUP2 PUSH1 0xFF MUL NOT AND SWAP1 DUP4 PUSH1 0xFF AND MUL OR SWAP1 SSTORE POP DUP1 DUP1 PUSH1 0x1 ADD SWAP2 POP POP PUSH2 0x655 JUMP JUMPDEST POP POP POP POP POP POP POP POP JUMP JUMPDEST PUSH1 0x60 PUSH1 0x0 DUP4 PUSH1 0x40 MLOAD PUSH2 0x78F SWAP2 SWAP1 PUSH2 0x1086 JUMP JUMPDEST SWAP1 DUP2 MSTORE PUSH1 0x20 ADD PUSH1 0x40 MLOAD DUP1 SWAP2 SUB SWAP1 KECCAK256 DUP3 DUP2 SLOAD DUP2 LT PUSH2 0x7A8 JUMPI INVALID JUMPDEST SWAP1 PUSH1 0x0 MSTORE PUSH1 0x20 PUSH1 0x0 KECCAK256 SWAP1 PUSH1 0x3 MUL ADD PUSH1 0x2 ADD DUP1 SLOAD PUSH1 0x1 DUP2 PUSH1 0x1 AND ISZERO PUSH2 0x100 MUL SUB AND PUSH1 0x2 SWAP1 DIV DUP1 PUSH1 0x1F ADD PUSH1 0x20 DUP1 SWAP2 DIV MUL PUSH1 0x20 ADD PUSH1 0x40 MLOAD SWAP1 DUP2 ADD PUSH1 0x40 MSTORE DUP1 SWAP3 SWAP2 SWAP1 DUP2 DUP2 MSTORE PUSH1 0x20 ADD DUP3 DUP1 SLOAD PUSH1 0x1 DUP2 PUSH1 0x1 AND ISZERO PUSH2 0x100 MUL SUB AND PUSH1 0x2 SWAP1 DIV DUP1 ISZERO PUSH2 0x84D JUMPI DUP1 PUSH1 0x1F LT PUSH2 0x822 JUMPI PUSH2 0x100 DUP1 DUP4 SLOAD DIV MUL DUP4 MSTORE SWAP2 PUSH1 0x20 ADD SWAP2 PUSH2 0x84D JUMP JUMPDEST DUP3 ADD SWAP2 SWAP1 PUSH1 0x0 MSTORE PUSH1 0x20 PUSH1 0x0 KECCAK256 SWAP1 JUMPDEST DUP2 SLOAD DUP2 MSTORE SWAP1 PUSH1 0x1 ADD SWAP1 PUSH1 0x20 ADD DUP1 DUP4 GT PUSH2 0x830 JUMPI DUP3 SWAP1 SUB PUSH1 0x1F AND DUP3 ADD SWAP2 JUMPDEST POP POP POP POP POP SWAP1 POP SWAP3 SWAP2 POP POP JUMP JUMPDEST DUP3 DUP1 SLOAD PUSH1 0x1 DUP2 PUSH1 0x1 AND ISZERO PUSH2 0x100 MUL SUB AND PUSH1 0x2 SWAP1 DIV SWAP1 PUSH1 0x0 MSTORE PUSH1 0x20 PUSH1 0x0 KECCAK256 SWAP1 PUSH1 0x1F ADD PUSH1 0x20 SWAP1 DIV DUP2 ADD SWAP3 DUP3 PUSH1 0x1F LT PUSH2 0x89B JUMPI DUP1 MLOAD PUSH1 0xFF NOT AND DUP4 DUP1 ADD OR DUP6 SSTORE PUSH2 0x8C9 JUMP JUMPDEST DUP3 DUP1 ADD PUSH1 0x1 ADD DUP6 SSTORE DUP3 ISZERO PUSH2 0x8C9 JUMPI SWAP2 DUP3 ADD JUMPDEST DUP3 DUP2 GT ISZERO PUSH2 0x8C8 JUMPI DUP3 MLOAD DUP3 SSTORE SWAP2 PUSH1 0x20 ADD SWAP2 SWAP1 PUSH1 0x1 ADD SWAP1 PUSH2 0x8AD JUMP JUMPDEST JUMPDEST POP SWAP1 POP PUSH2 0x8D6 SWAP2 SWAP1 PUSH2 0x97A JUMP JUMPDEST POP SWAP1 JUMP JUMPDEST PUSH1 0x40 MLOAD DUP1 PUSH1 0x40 ADD PUSH1 0x40 MSTORE DUP1 PUSH1 0x0 PUSH4 0xFFFFFFFF AND DUP2 MSTORE PUSH1 0x20 ADD PUSH1 0x60 DUP2 MSTORE POP SWAP1 JUMP JUMPDEST DUP3 DUP1 SLOAD PUSH1 0x1 DUP2 PUSH1 0x1 AND ISZERO PUSH2 0x100 MUL SUB AND PUSH1 0x2 SWAP1 DIV SWAP1 PUSH1 0x0 MSTORE PUSH1 0x20 PUSH1 0x0 KECCAK256 SWAP1 PUSH1 0x1F ADD PUSH1 0x20 SWAP1 DIV DUP2 ADD SWAP3 DUP3 PUSH1 0x1F LT PUSH2 0x93B JUMPI DUP1 MLOAD PUSH1 0xFF NOT AND DUP4 DUP1 ADD OR DUP6 SSTORE PUSH2 0x969 JUMP JUMPDEST DUP3 DUP1 ADD PUSH1 0x1 ADD DUP6 SSTORE DUP3 ISZERO PUSH2 0x969 JUMPI SWAP2 DUP3 ADD JUMPDEST DUP3 DUP2 GT ISZERO PUSH2 0x968 JUMPI DUP3 MLOAD DUP3 SSTORE SWAP2 PUSH1 0x20 ADD SWAP2 SWAP1 PUSH1 0x1 ADD SWAP1 PUSH2 0x94D JUMP JUMPDEST JUMPDEST POP SWAP1 POP PUSH2 0x976 SWAP2 SWAP1 PUSH2 0x97A JUMP JUMPDEST POP SWAP1 JUMP JUMPDEST PUSH2 0x99C SWAP2 SWAP1 JUMPDEST DUP1 DUP3 GT ISZERO PUSH2 0x998 JUMPI PUSH1 0x0 DUP2 PUSH1 0x0 SWAP1 SSTORE POP PUSH1 0x1 ADD PUSH2 0x980 JUMP JUMPDEST POP SWAP1 JUMP JUMPDEST SWAP1 JUMP JUMPDEST PUSH1 0x0 DUP2 CALLDATALOAD SWAP1 POP PUSH2 0x9AE DUP2 PUSH2 0x12D0 JUMP JUMPDEST SWAP3 SWAP2 POP POP JUMP JUMPDEST PUSH1 0x0 DUP3 PUSH1 0x1F DUP4 ADD SLT PUSH2 0x9C5 JUMPI PUSH1 0x0 DUP1 REVERT JUMPDEST DUP2 CALLDATALOAD PUSH2 0x9D8 PUSH2 0x9D3 DUP3 PUSH2 0x1122 JUMP JUMPDEST PUSH2 0x10F5 JUMP JUMPDEST SWAP2 POP DUP2 DUP2 DUP4 MSTORE PUSH1 0x20 DUP5 ADD SWAP4 POP PUSH1 0x20 DUP2 ADD SWAP1 POP DUP4 DUP6 PUSH1 0x20 DUP5 MUL DUP3 ADD GT ISZERO PUSH2 0x9FD JUMPI PUSH1 0x0 DUP1 REVERT JUMPDEST PUSH1 0x0 JUMPDEST DUP4 DUP2 LT ISZERO PUSH2 0xA2D JUMPI DUP2 PUSH2 0xA13 DUP9 DUP3 PUSH2 0x99F JUMP JUMPDEST DUP5 MSTORE PUSH1 0x20 DUP5 ADD SWAP4 POP PUSH1 0x20 DUP4 ADD SWAP3 POP POP PUSH1 0x1 DUP2 ADD SWAP1 POP PUSH2 0xA00 JUMP JUMPDEST POP POP POP POP SWAP3 SWAP2 POP POP JUMP JUMPDEST PUSH1 0x0 DUP3 PUSH1 0x1F DUP4 ADD SLT PUSH2 0xA48 JUMPI PUSH1 0x0 DUP1 REVERT JUMPDEST DUP2 CALLDATALOAD PUSH2 0xA5B PUSH2 0xA56 DUP3 PUSH2 0x114A JUMP JUMPDEST PUSH2 0x10F5 JUMP JUMPDEST SWAP2 POP DUP2 DUP2 DUP4 MSTORE PUSH1 0x20 DUP5 ADD SWAP4 POP PUSH1 0x20 DUP2 ADD SWAP1 POP DUP4 PUSH1 0x0 JUMPDEST DUP4 DUP2 LT ISZERO PUSH2 0xAA1 JUMPI DUP2 CALLDATALOAD DUP7 ADD PUSH2 0xA87 DUP9 DUP3 PUSH2 0xB2E JUMP JUMPDEST DUP5 MSTORE PUSH1 0x20 DUP5 ADD SWAP4 POP PUSH1 0x20 DUP4 ADD SWAP3 POP POP PUSH1 0x1 DUP2 ADD SWAP1 POP PUSH2 0xA71 JUMP JUMPDEST POP POP POP POP SWAP3 SWAP2 POP POP JUMP JUMPDEST PUSH1 0x0 DUP3 PUSH1 0x1F DUP4 ADD SLT PUSH2 0xABC JUMPI PUSH1 0x0 DUP1 REVERT JUMPDEST DUP2 CALLDATALOAD PUSH2 0xACF PUSH2 0xACA DUP3 PUSH2 0x1172 JUMP JUMPDEST PUSH2 0x10F5 JUMP JUMPDEST SWAP2 POP DUP2 DUP2 DUP4 MSTORE PUSH1 0x20 DUP5 ADD SWAP4 POP PUSH1 0x20 DUP2 ADD SWAP1 POP DUP4 DUP6 PUSH1 0x20 DUP5 MUL DUP3 ADD GT ISZERO PUSH2 0xAF4 JUMPI PUSH1 0x0 DUP1 REVERT JUMPDEST PUSH1 0x0 JUMPDEST DUP4 DUP2 LT ISZERO PUSH2 0xB24 JUMPI DUP2 PUSH2 0xB0A DUP9 DUP3 PUSH2 0xC00 JUMP JUMPDEST DUP5 MSTORE PUSH1 0x20 DUP5 ADD SWAP4 POP PUSH1 0x20 DUP4 ADD SWAP3 POP POP PUSH1 0x1 DUP2 ADD SWAP1 POP PUSH2 0xAF7 JUMP JUMPDEST POP POP POP POP SWAP3 SWAP2 POP POP JUMP JUMPDEST PUSH1 0x0 DUP3 PUSH1 0x1F DUP4 ADD SLT PUSH2 0xB3F JUMPI PUSH1 0x0 DUP1 REVERT JUMPDEST DUP2 CALLDATALOAD PUSH2 0xB52 PUSH2 0xB4D DUP3 PUSH2 0x119A JUMP JUMPDEST PUSH2 0x10F5 JUMP JUMPDEST SWAP2 POP DUP1 DUP3 MSTORE PUSH1 0x20 DUP4 ADD PUSH1 0x20 DUP4 ADD DUP6 DUP4 DUP4 ADD GT ISZERO PUSH2 0xB6E JUMPI PUSH1 0x0 DUP1 REVERT JUMPDEST PUSH2 0xB79 DUP4 DUP3 DUP5 PUSH2 0x127D JUMP JUMPDEST POP POP POP SWAP3 SWAP2 POP POP JUMP JUMPDEST PUSH1 0x0 DUP3 PUSH1 0x1F DUP4 ADD SLT PUSH2 0xB93 JUMPI PUSH1 0x0 DUP1 REVERT JUMPDEST DUP2 CALLDATALOAD PUSH2 0xBA6 PUSH2 0xBA1 DUP3 PUSH2 0x11C6 JUMP JUMPDEST PUSH2 0x10F5 JUMP JUMPDEST SWAP2 POP DUP1 DUP3 MSTORE PUSH1 0x20 DUP4 ADD PUSH1 0x20 DUP4 ADD DUP6 DUP4 DUP4 ADD GT ISZERO PUSH2 0xBC2 JUMPI PUSH1 0x0 DUP1 REVERT JUMPDEST PUSH2 0xBCD DUP4 DUP3 DUP5 PUSH2 0x127D JUMP JUMPDEST POP POP POP SWAP3 SWAP2 POP POP JUMP JUMPDEST PUSH1 0x0 DUP2 CALLDATALOAD SWAP1 POP PUSH2 0xBE5 DUP2 PUSH2 0x12E7 JUMP JUMPDEST SWAP3 SWAP2 POP POP JUMP JUMPDEST PUSH1 0x0 DUP2 CALLDATALOAD SWAP1 POP PUSH2 0xBFA DUP2 PUSH2 0x12FE JUMP JUMPDEST SWAP3 SWAP2 POP POP JUMP JUMPDEST PUSH1 0x0 DUP2 CALLDATALOAD SWAP1 POP PUSH2 0xC0F DUP2 PUSH2 0x1315 JUMP JUMPDEST SWAP3 SWAP2 POP POP JUMP JUMPDEST PUSH1 0x0 DUP1 PUSH1 0x0 DUP1 PUSH1 0x0 DUP1 PUSH1 0xC0 DUP8 DUP10 SUB SLT ISZERO PUSH2 0xC2E JUMPI PUSH1 0x0 DUP1 REVERT JUMPDEST PUSH1 0x0 DUP8 ADD CALLDATALOAD PUSH8 0xFFFFFFFFFFFFFFFF DUP2 GT ISZERO PUSH2 0xC48 JUMPI PUSH1 0x0 DUP1 REVERT JUMPDEST PUSH2 0xC54 DUP10 DUP3 DUP11 ADD PUSH2 0xB82 JUMP JUMPDEST SWAP7 POP POP PUSH1 0x20 DUP8 ADD CALLDATALOAD PUSH8 0xFFFFFFFFFFFFFFFF DUP2 GT ISZERO PUSH2 0xC71 JUMPI PUSH1 0x0 DUP1 REVERT JUMPDEST PUSH2 0xC7D DUP10 DUP3 DUP11 ADD PUSH2 0xB82 JUMP JUMPDEST SWAP6 POP POP PUSH1 0x40 DUP8 ADD CALLDATALOAD PUSH8 0xFFFFFFFFFFFFFFFF DUP2 GT ISZERO PUSH2 0xC9A JUMPI PUSH1 0x0 DUP1 REVERT JUMPDEST PUSH2 0xCA6 DUP10 DUP3 DUP11 ADD PUSH2 0xA37 JUMP JUMPDEST SWAP5 POP POP PUSH1 0x60 DUP8 ADD CALLDATALOAD PUSH8 0xFFFFFFFFFFFFFFFF DUP2 GT ISZERO PUSH2 0xCC3 JUMPI PUSH1 0x0 DUP1 REVERT JUMPDEST PUSH2 0xCCF DUP10 DUP3 DUP11 ADD PUSH2 0x9B4 JUMP JUMPDEST SWAP4 POP POP PUSH1 0x80 DUP8 ADD CALLDATALOAD PUSH8 0xFFFFFFFFFFFFFFFF DUP2 GT ISZERO PUSH2 0xCEC JUMPI PUSH1 0x0 DUP1 REVERT JUMPDEST PUSH2 0xCF8 DUP10 DUP3 DUP11 ADD PUSH2 0xAAB JUMP JUMPDEST SWAP3 POP POP PUSH1 0xA0 PUSH2 0xD09 DUP10 DUP3 DUP11 ADD PUSH2 0xBD6 JUMP JUMPDEST SWAP2 POP POP SWAP3 SWAP6 POP SWAP3 SWAP6 POP SWAP3 SWAP6 JUMP JUMPDEST PUSH1 0x0 DUP1 PUSH1 0x40 DUP4 DUP6 SUB SLT ISZERO PUSH2 0xD29 JUMPI PUSH1 0x0 DUP1 REVERT JUMPDEST PUSH1 0x0 DUP4 ADD CALLDATALOAD PUSH8 0xFFFFFFFFFFFFFFFF DUP2 GT ISZERO PUSH2 0xD43 JUMPI PUSH1 0x0 DUP1 REVERT JUMPDEST PUSH2 0xD4F DUP6 DUP3 DUP7 ADD PUSH2 0xB82 JUMP JUMPDEST SWAP3 POP POP PUSH1 0x20 PUSH2 0xD60 DUP6 DUP3 DUP7 ADD PUSH2 0xBD6 JUMP JUMPDEST SWAP2 POP POP SWAP3 POP SWAP3 SWAP1 POP JUMP JUMPDEST PUSH1 0x0 DUP1 PUSH1 0x0 PUSH1 0x60 DUP5 DUP7 SUB SLT ISZERO PUSH2 0xD7F JUMPI PUSH1 0x0 DUP1 REVERT JUMPDEST PUSH1 0x0 DUP5 ADD CALLDATALOAD PUSH8 0xFFFFFFFFFFFFFFFF DUP2 GT ISZERO PUSH2 0xD99 JUMPI PUSH1 0x0 DUP1 REVERT JUMPDEST PUSH2 0xDA5 DUP7 DUP3 DUP8 ADD PUSH2 0xB82 JUMP JUMPDEST SWAP4 POP POP PUSH1 0x20 PUSH2 0xDB6 DUP7 DUP3 DUP8 ADD PUSH2 0xBD6 JUMP JUMPDEST SWAP3 POP POP PUSH1 0x40 DUP5 ADD CALLDATALOAD PUSH8 0xFFFFFFFFFFFFFFFF DUP2 GT ISZERO PUSH2 0xDD3 JUMPI PUSH1 0x0 DUP1 REVERT JUMPDEST PUSH2 0xDDF DUP7 DUP3 DUP8 ADD PUSH2 0xB82 JUMP JUMPDEST SWAP2 POP POP SWAP3 POP SWAP3 POP SWAP3 JUMP JUMPDEST PUSH1 0x0 DUP1 PUSH1 0x0 DUP1 PUSH1 0x80 DUP6 DUP8 SUB SLT ISZERO PUSH2 0xDFF JUMPI PUSH1 0x0 DUP1 REVERT JUMPDEST PUSH1 0x0 DUP6 ADD CALLDATALOAD PUSH8 0xFFFFFFFFFFFFFFFF DUP2 GT ISZERO PUSH2 0xE19 JUMPI PUSH1 0x0 DUP1 REVERT JUMPDEST PUSH2 0xE25 DUP8 DUP3 DUP9 ADD PUSH2 0xB82 JUMP JUMPDEST SWAP5 POP POP PUSH1 0x20 PUSH2 0xE36 DUP8 DUP3 DUP9 ADD PUSH2 0xBD6 JUMP JUMPDEST SWAP4 POP POP PUSH1 0x40 DUP6 ADD CALLDATALOAD PUSH8 0xFFFFFFFFFFFFFFFF DUP2 GT ISZERO PUSH2 0xE53 JUMPI PUSH1 0x0 DUP1 REVERT JUMPDEST PUSH2 0xE5F DUP8 DUP3 DUP9 ADD PUSH2 0xB82 JUMP JUMPDEST SWAP3 POP POP PUSH1 0x60 PUSH2 0xE70 DUP8 DUP3 DUP9 ADD PUSH2 0x99F JUMP JUMPDEST SWAP2 POP POP SWAP3 SWAP6 SWAP2 SWAP5 POP SWAP3 POP JUMP JUMPDEST PUSH1 0x0 DUP1 PUSH1 0x0 DUP1 PUSH1 0x0 PUSH1 0xA0 DUP7 DUP9 SUB SLT ISZERO PUSH2 0xE94 JUMPI PUSH1 0x0 DUP1 REVERT JUMPDEST PUSH1 0x0 DUP7 ADD CALLDATALOAD PUSH8 0xFFFFFFFFFFFFFFFF DUP2 GT ISZERO PUSH2 0xEAE JUMPI PUSH1 0x0 DUP1 REVERT JUMPDEST PUSH2 0xEBA DUP9 DUP3 DUP10 ADD PUSH2 0xB82 JUMP JUMPDEST SWAP6 POP POP PUSH1 0x20 PUSH2 0xECB DUP9 DUP3 DUP10 ADD PUSH2 0xBD6 JUMP JUMPDEST SWAP5 POP POP PUSH1 0x40 DUP7 ADD CALLDATALOAD PUSH8 0xFFFFFFFFFFFFFFFF DUP2 GT ISZERO PUSH2 0xEE8 JUMPI PUSH1 0x0 DUP1 REVERT JUMPDEST PUSH2 0xEF4 DUP9 DUP3 DUP10 ADD PUSH2 0xB82 JUMP JUMPDEST SWAP4 POP POP PUSH1 0x60 PUSH2 0xF05 DUP9 DUP3 DUP10 ADD PUSH2 0x99F JUMP JUMPDEST SWAP3 POP POP PUSH1 0x80 PUSH2 0xF16 DUP9 DUP3 DUP10 ADD PUSH2 0xC00 JUMP JUMPDEST SWAP2 POP POP SWAP3 SWAP6 POP SWAP3 SWAP6 SWAP1 SWAP4 POP JUMP JUMPDEST PUSH1 0x0 DUP1 PUSH1 0x0 DUP1 PUSH1 0x80 DUP6 DUP8 SUB SLT ISZERO PUSH2 0xF39 JUMPI PUSH1 0x0 DUP1 REVERT JUMPDEST PUSH1 0x0 DUP6 ADD CALLDATALOAD PUSH8 0xFFFFFFFFFFFFFFFF DUP2 GT ISZERO PUSH2 0xF53 JUMPI PUSH1 0x0 DUP1 REVERT JUMPDEST PUSH2 0xF5F DUP8 DUP3 DUP9 ADD PUSH2 0xB82 JUMP JUMPDEST SWAP5 POP POP PUSH1 0x20 PUSH2 0xF70 DUP8 DUP3 DUP9 ADD PUSH2 0xBD6 JUMP JUMPDEST SWAP4 POP POP PUSH1 0x40 PUSH2 0xF81 DUP8 DUP3 DUP9 ADD PUSH2 0xBEB JUMP JUMPDEST SWAP3 POP POP PUSH1 0x60 DUP6 ADD CALLDATALOAD PUSH8 0xFFFFFFFFFFFFFFFF DUP2 GT ISZERO PUSH2 0xF9E JUMPI PUSH1 0x0 DUP1 REVERT JUMPDEST PUSH2 0xFAA DUP8 DUP3 DUP9 ADD PUSH2 0xB82 JUMP JUMPDEST SWAP2 POP POP SWAP3 SWAP6 SWAP2 SWAP5 POP SWAP3 POP JUMP JUMPDEST PUSH1 0x0 PUSH2 0xFC1 DUP3 PUSH2 0x11FD JUMP JUMPDEST PUSH2 0xFCB DUP2 DUP6 PUSH2 0x1208 JUMP JUMPDEST SWAP4 POP PUSH2 0xFDB DUP2 DUP6 PUSH1 0x20 DUP7 ADD PUSH2 0x128C JUMP JUMPDEST PUSH2 0xFE4 DUP2 PUSH2 0x12BF JUMP JUMPDEST DUP5 ADD SWAP2 POP POP SWAP3 SWAP2 POP POP JUMP JUMPDEST PUSH1 0x0 PUSH2 0xFFA DUP3 PUSH2 0x11FD JUMP JUMPDEST PUSH2 0x1004 DUP2 DUP6 PUSH2 0x1219 JUMP JUMPDEST SWAP4 POP PUSH2 0x1014 DUP2 DUP6 PUSH1 0x20 DUP7 ADD PUSH2 0x128C JUMP JUMPDEST DUP1 DUP5 ADD SWAP2 POP POP SWAP3 SWAP2 POP POP JUMP JUMPDEST PUSH1 0x0 PUSH2 0x102B DUP3 PUSH2 0x11F2 JUMP JUMPDEST PUSH2 0x1035 DUP2 DUP6 PUSH2 0x1219 JUMP JUMPDEST SWAP4 POP PUSH2 0x1045 DUP2 DUP6 PUSH1 0x20 DUP7 ADD PUSH2 0x128C JUMP JUMPDEST DUP1 DUP5 ADD SWAP2 POP POP SWAP3 SWAP2 POP POP JUMP JUMPDEST PUSH2 0x105A DUP2 PUSH2 0x1260 JUMP JUMPDEST DUP3 MSTORE POP POP JUMP JUMPDEST PUSH2 0x1069 DUP2 PUSH2 0x1270 JUMP JUMPDEST DUP3 MSTORE POP POP JUMP JUMPDEST PUSH1 0x0 PUSH2 0x107B DUP3 DUP5 PUSH2 0x1020 JUMP JUMPDEST SWAP2 POP DUP2 SWAP1 POP SWAP3 SWAP2 POP POP JUMP JUMPDEST PUSH1 0x0 PUSH2 0x1092 DUP3 DUP5 PUSH2 0xFEF JUMP JUMPDEST SWAP2 POP DUP2 SWAP1 POP SWAP3 SWAP2 POP POP JUMP JUMPDEST PUSH1 0x0 PUSH1 0x20 DUP3 ADD SWAP1 POP DUP2 DUP2 SUB PUSH1 0x0 DUP4 ADD MSTORE PUSH2 0x10B7 DUP2 DUP5 PUSH2 0xFB6 JUMP JUMPDEST SWAP1 POP SWAP3 SWAP2 POP POP JUMP JUMPDEST PUSH1 0x0 PUSH1 0x20 DUP3 ADD SWAP1 POP PUSH2 0x10D4 PUSH1 0x0 DUP4 ADD DUP5 PUSH2 0x1051 JUMP JUMPDEST SWAP3 SWAP2 POP POP JUMP JUMPDEST PUSH1 0x0 PUSH1 0x20 DUP3 ADD SWAP1 POP PUSH2 0x10EF PUSH1 0x0 DUP4 ADD DUP5 PUSH2 0x1060 JUMP JUMPDEST SWAP3 SWAP2 POP POP JUMP JUMPDEST PUSH1 0x0 PUSH1 0x40 MLOAD SWAP1 POP DUP2 DUP2 ADD DUP2 DUP2 LT PUSH8 0xFFFFFFFFFFFFFFFF DUP3 GT OR ISZERO PUSH2 0x1118 JUMPI PUSH1 0x0 DUP1 REVERT JUMPDEST DUP1 PUSH1 0x40 MSTORE POP SWAP2 SWAP1 POP JUMP JUMPDEST PUSH1 0x0 PUSH8 0xFFFFFFFFFFFFFFFF DUP3 GT ISZERO PUSH2 0x1139 JUMPI PUSH1 0x0 DUP1 REVERT JUMPDEST PUSH1 0x20 DUP3 MUL SWAP1 POP PUSH1 0x20 DUP2 ADD SWAP1 POP SWAP2 SWAP1 POP JUMP JUMPDEST PUSH1 0x0 PUSH8 0xFFFFFFFFFFFFFFFF DUP3 GT ISZERO PUSH2 0x1161 JUMPI PUSH1 0x0 DUP1 REVERT JUMPDEST PUSH1 0x20 DUP3 MUL SWAP1 POP PUSH1 0x20 DUP2 ADD SWAP1 POP SWAP2 SWAP1 POP JUMP JUMPDEST PUSH1 0x0 PUSH8 0xFFFFFFFFFFFFFFFF DUP3 GT ISZERO PUSH2 0x1189 JUMPI PUSH1 0x0 DUP1 REVERT JUMPDEST PUSH1 0x20 DUP3 MUL SWAP1 POP PUSH1 0x20 DUP2 ADD SWAP1 POP SWAP2 SWAP1 POP JUMP JUMPDEST PUSH1 0x0 PUSH8 0xFFFFFFFFFFFFFFFF DUP3 GT ISZERO PUSH2 0x11B1 JUMPI PUSH1 0x0 DUP1 REVERT JUMPDEST PUSH1 0x1F NOT PUSH1 0x1F DUP4 ADD AND SWAP1 POP PUSH1 0x20 DUP2 ADD SWAP1 POP SWAP2 SWAP1 POP JUMP JUMPDEST PUSH1 0x0 PUSH8 0xFFFFFFFFFFFFFFFF DUP3 GT ISZERO PUSH2 0x11DD JUMPI PUSH1 0x0 DUP1 REVERT JUMPDEST PUSH1 0x1F NOT PUSH1 0x1F DUP4 ADD AND SWAP1 POP PUSH1 0x20 DUP2 ADD SWAP1 POP SWAP2 SWAP1 POP JUMP JUMPDEST PUSH1 0x0 DUP2 MLOAD SWAP1 POP SWAP2 SWAP1 POP JUMP JUMPDEST PUSH1 0x0 DUP2 MLOAD SWAP1 POP SWAP2 SWAP1 POP JUMP JUMPDEST PUSH1 0x0 DUP3 DUP3 MSTORE PUSH1 0x20 DUP3 ADD SWAP1 POP SWAP3 SWAP2 POP POP JUMP JUMPDEST PUSH1 0x0 DUP2 SWAP1 POP SWAP3 SWAP2 POP POP JUMP JUMPDEST PUSH1 0x0 PUSH2 0x122F DUP3 PUSH2 0x1236 JUMP JUMPDEST SWAP1 POP SWAP2 SWAP1 POP JUMP JUMPDEST PUSH1 0x0 PUSH20 0xFFFFFFFFFFFFFFFFFFFFFFFFFFFFFFFFFFFFFFFF DUP3 AND SWAP1 POP SWAP2 SWAP1 POP JUMP JUMPDEST PUSH1 0x0 DUP2 SWAP1 POP SWAP2 SWAP1 POP JUMP JUMPDEST PUSH1 0x0 PUSH4 0xFFFFFFFF DUP3 AND SWAP1 POP SWAP2 SWAP1 POP JUMP JUMPDEST PUSH1 0x0 PUSH1 0xFF DUP3 AND SWAP1 POP SWAP2 SWAP1 POP JUMP JUMPDEST DUP3 DUP2 DUP4 CALLDATACOPY PUSH1 0x0 DUP4 DUP4 ADD MSTORE POP POP POP JUMP JUMPDEST PUSH1 0x0 JUMPDEST DUP4 DUP2 LT ISZERO PUSH2 0x12AA JUMPI DUP1 DUP3 ADD MLOAD DUP2 DUP5 ADD MSTORE PUSH1 0x20 DUP2 ADD SWAP1 POP PUSH2 0x128F JUMP JUMPDEST DUP4 DUP2 GT ISZERO PUSH2 0x12B9 JUMPI PUSH1 0x0 DUP5 DUP5 ADD MSTORE JUMPDEST POP POP POP POP JUMP JUMPDEST PUSH1 0x0 PUSH1 0x1F NOT PUSH1 0x1F DUP4 ADD AND SWAP1 POP SWAP2 SWAP1 POP JUMP JUMPDEST PUSH2 0x12D9 DUP2 PUSH2 0x1224 JUMP JUMPDEST DUP2 EQ PUSH2 0x12E4 JUMPI PUSH1 0x0 DUP1 REVERT JUMPDEST POP JUMP JUMPDEST PUSH2 0x12F0 DUP2 PUSH2 0x1256 JUMP JUMPDEST DUP2 EQ PUSH2 0x12FB JUMPI PUSH1 0x0 DUP1 REVERT JUMPDEST POP JUMP JUMPDEST PUSH2 0x1307 DUP2 PUSH2 0x1260 JUMP JUMPDEST DUP2 EQ PUSH2 0x1312 JUMPI PUSH1 0x0 DUP1 REVERT JUMPDEST POP JUMP JUMPDEST PUSH2 0x131E DUP2 PUSH2 0x1270 JUMP JUMPDEST DUP2 EQ PUSH2 0x1329 JUMPI PUSH1 0x0 DUP1 REVERT JUMPDEST POP JUMP INVALID LOG3 PUSH6 0x627A7A723158 KECCAK256 0xE3 LOG2 PUSH1 0x37 0x4A PUSH27 0xB007DA95AF689F2D2715DF1D6ED0BF079B633E6086E7993EE49A6C PUSH6 0x78706572696D PUSH6 0x6E74616CF564 PUSH20 0x6F6C634300051100400000000000000000000000 "
				},
				"gasEstimates": {
					"creation": {
						"codeDepositCost": "995000",
						"executionCost": "1034",
						"totalCost": "996034"
					},
					"external": {
						"deleteVariable(string,uint256,string)": "infinite",
						"getAccess(string,uint256,string,address)": "infinite",
						"getVariableName(string,uint256)": "infinite",
						"getVariableValue(string,uint256)": "infinite",
						"setVariableName(string,uint256,string)": "infinite",
						"updateMatrix(string,uint256,string,address,uint8)": "infinite",
						"updateValue(string,uint256,uint32,string)": "infinite",
						"uploadMatrix(string,string,string[],address[],uint8[],uint256)": "infinite"
					}
				},
				"methodIdentifiers": {
					"deleteVariable(string,uint256,string)": "252e7bed",
					"getAccess(string,uint256,string,address)": "aa86c8fc",
					"getVariableName(string,uint256)": "fe7f2692",
					"getVariableValue(string,uint256)": "93614356",
					"setVariableName(string,uint256,string)": "612fa967",
					"updateMatrix(string,uint256,string,address,uint8)": "61650af7",
					"updateValue(string,uint256,uint32,string)": "0b3e9bfc",
					"uploadMatrix(string,string,string[],address[],uint8[],uint256)": "bd289582"
				}
			},
			"storageLayout": {
				"storage": [
					{
						"astId": 18,
						"contract": "Access_Matrix.sol:Access_matrix",
						"label": "variables",
						"offset": 0,
						"slot": "0",
						"type": "t_mapping(t_string_memory,t_array(t_struct(Variable)13_storage)dyn_storage)"
					}
				],
				"types": {
					"t_address": {
						"encoding": "inplace",
						"label": "address",
						"numberOfBytes": "20"
					},
					"t_array(t_struct(Variable)13_storage)dyn_storage": {
						"base": "t_struct(Variable)13_storage",
						"encoding": "dynamic_array",
						"label": "struct Access_matrix.Variable[]",
						"numberOfBytes": "32"
					},
					"t_mapping(t_address,t_uint8)": {
						"encoding": "mapping",
						"key": "t_address",
						"label": "mapping(address => uint8)",
						"numberOfBytes": "32",
						"value": "t_uint8"
					},
					"t_mapping(t_string_memory,t_array(t_struct(Variable)13_storage)dyn_storage)": {
						"encoding": "mapping",
						"key": "t_string_memory",
						"label": "mapping(string => struct Access_matrix.Variable[])",
						"numberOfBytes": "32",
						"value": "t_array(t_struct(Variable)13_storage)dyn_storage"
					},
					"t_mapping(t_string_memory,t_mapping(t_address,t_uint8))": {
						"encoding": "mapping",
						"key": "t_string_memory",
						"label": "mapping(string => mapping(address => uint8))",
						"numberOfBytes": "32",
						"value": "t_mapping(t_address,t_uint8)"
					},
					"t_string_memory": {
						"encoding": "bytes",
						"label": "string",
						"numberOfBytes": "32"
					},
					"t_string_storage": {
						"encoding": "bytes",
						"label": "string",
						"numberOfBytes": "32"
					},
					"t_struct(Variable)13_storage": {
						"encoding": "inplace",
						"label": "struct Access_matrix.Variable",
						"members": [
							{
								"astId": 8,
								"contract": "Access_Matrix.sol:Access_matrix",
								"label": "matrix",
								"offset": 0,
								"slot": "0",
								"type": "t_mapping(t_string_memory,t_mapping(t_address,t_uint8))"
							},
							{
								"astId": 10,
								"contract": "Access_Matrix.sol:Access_matrix",
								"label": "value",
								"offset": 0,
								"slot": "1",
								"type": "t_uint32"
							},
							{
								"astId": 12,
								"contract": "Access_Matrix.sol:Access_matrix",
								"label": "name",
								"offset": 0,
								"slot": "2",
								"type": "t_string_storage"
							}
						],
						"numberOfBytes": "96"
					},
					"t_uint32": {
						"encoding": "inplace",
						"label": "uint32",
						"numberOfBytes": "4"
					},
					"t_uint8": {
						"encoding": "inplace",
						"label": "uint8",
						"numberOfBytes": "1"
					}
				}
			},
			"userdoc": {
				"methods": {}
			}
		}
	}
}