{
	"Access_Matrix.sol": {
		"Access_matrix": {
			"abi": [
				{
					"constant": false,
					"inputs": [
						{
							"internalType": "string",
							"name": "_hash",
							"type": "string"
						},
						{
							"internalType": "uint256",
							"name": "index",
							"type": "uint256"
						},
						{
							"internalType": "string",
							"name": "_activity",
							"type": "string"
						}
					],
					"name": "deleteVariable",
					"outputs": [],
					"payable": false,
					"stateMutability": "nonpayable",
					"type": "function"
				},
				{
					"constant": true,
					"inputs": [
						{
							"internalType": "string",
							"name": "_hash",
							"type": "string"
						},
						{
							"internalType": "uint256",
							"name": "index",
							"type": "uint256"
						},
						{
							"internalType": "string",
							"name": "_activity",
							"type": "string"
						},
						{
							"internalType": "address",
							"name": "_role",
							"type": "address"
						}
					],
					"name": "getAccess",
					"outputs": [
						{
							"internalType": "uint8",
							"name": "_access",
							"type": "uint8"
						}
					],
					"payable": false,
					"stateMutability": "view",
					"type": "function"
				},
				{
					"constant": true,
					"inputs": [
						{
							"internalType": "string",
							"name": "_hash",
							"type": "string"
						},
						{
							"internalType": "uint256",
							"name": "index",
							"type": "uint256"
						}
					],
					"name": "getActivites",
					"outputs": [
						{
							"internalType": "string[]",
							"name": "",
							"type": "string[]"
						}
					],
					"payable": false,
					"stateMutability": "view",
					"type": "function"
				},
				{
					"constant": true,
					"inputs": [
						{
							"internalType": "string",
							"name": "_hash",
							"type": "string"
						}
					],
					"name": "getAllVariables",
					"outputs": [
						{
							"internalType": "string[]",
							"name": "",
							"type": "string[]"
						},
						{
							"internalType": "uint32[]",
							"name": "",
							"type": "uint32[]"
						}
					],
					"payable": false,
					"stateMutability": "view",
					"type": "function"
				},
				{
					"constant": true,
					"inputs": [
						{
							"internalType": "string",
							"name": "_hash",
							"type": "string"
						},
						{
							"internalType": "uint256",
							"name": "index",
							"type": "uint256"
						}
					],
					"name": "getVariableName",
					"outputs": [
						{
							"internalType": "string",
							"name": "_varName",
							"type": "string"
						}
					],
					"payable": false,
					"stateMutability": "view",
					"type": "function"
				},
				{
					"constant": true,
					"inputs": [
						{
							"internalType": "string",
							"name": "_hash",
							"type": "string"
						},
						{
							"internalType": "uint256",
							"name": "index",
							"type": "uint256"
						}
					],
					"name": "getVariableValue",
					"outputs": [
						{
							"internalType": "uint32",
							"name": "_var",
							"type": "uint32"
						}
					],
					"payable": false,
					"stateMutability": "view",
					"type": "function"
				},
				{
					"constant": false,
					"inputs": [
						{
							"internalType": "string",
							"name": "_hash",
							"type": "string"
						},
						{
							"internalType": "uint256",
							"name": "index",
							"type": "uint256"
						},
						{
							"internalType": "string",
							"name": "_newName",
							"type": "string"
						}
					],
					"name": "setVariableName",
					"outputs": [],
					"payable": false,
					"stateMutability": "nonpayable",
					"type": "function"
				},
				{
					"constant": false,
					"inputs": [
						{
							"internalType": "string",
							"name": "_hash",
							"type": "string"
						},
						{
							"internalType": "uint256",
							"name": "index",
							"type": "uint256"
						},
						{
							"internalType": "string",
							"name": "_activity",
							"type": "string"
						},
						{
							"internalType": "address",
							"name": "_role",
							"type": "address"
						},
						{
							"internalType": "uint8",
							"name": "_val",
							"type": "uint8"
						}
					],
					"name": "updateMatrix",
					"outputs": [],
					"payable": false,
					"stateMutability": "nonpayable",
					"type": "function"
				},
				{
					"constant": false,
					"inputs": [
						{
							"internalType": "string",
							"name": "_hash",
							"type": "string"
						},
						{
							"internalType": "uint256",
							"name": "index",
							"type": "uint256"
						},
						{
							"internalType": "uint32",
							"name": "_variable_value",
							"type": "uint32"
						},
						{
							"internalType": "string",
							"name": "_activity",
							"type": "string"
						}
					],
					"name": "updateValue",
					"outputs": [],
					"payable": false,
					"stateMutability": "nonpayable",
					"type": "function"
				},
				{
					"constant": false,
					"inputs": [
						{
							"internalType": "string",
							"name": "_hash",
							"type": "string"
						},
						{
							"internalType": "string",
							"name": "_newName",
							"type": "string"
						},
						{
							"internalType": "string[]",
							"name": "_activities",
							"type": "string[]"
						},
						{
							"internalType": "address[]",
							"name": "_roles",
							"type": "address[]"
						},
						{
							"internalType": "uint8[]",
							"name": "_vals",
							"type": "uint8[]"
						},
						{
							"internalType": "uint256",
							"name": "nbOfElements",
							"type": "uint256"
						}
					],
					"name": "uploadMatrix",
					"outputs": [],
					"payable": false,
					"stateMutability": "nonpayable",
					"type": "function"
				}
			],
			"devdoc": {
				"methods": {
					"deleteVariable(string,uint256,string)": {
						"details": "deletes the contract if the caller has the authorization (first bit starting from right).",
						"params": {
							"_activity": "that want to have access"
						}
					},
					"getVariableValue(string,uint256)": {
						"details": "Get the variable value",
						"return": "_var the variable value "
					},
					"updateMatrix(string,uint256,string,address,uint8)": {
						"details": "Update an entry of the access matrix",
						"params": {
							"_activity": "is the name of the activity ",
							"_role": "is the role",
							"_val": "is a 4 bit int that allows to find if a certain matrix entry has access or not to a vraiable (read,write,create,delete) are the four bits."
						}
					},
					"updateValue(string,uint256,uint32,string)": {
						"details": "Update the variable value if the caller has access",
						"params": {
							"_activity": "name of the activity that want to update the variable value",
							"_variable_value": "new variable value "
						}
					}
				}
			},
			"evm": {
				"assembly": "    /* \"Access_Matrix.sol\":94:3688  contract Access_matrix {... */\n  mstore(0x40, 0x80)\n  callvalue\n    /* \"--CODEGEN--\":8:17   */\n  dup1\n    /* \"--CODEGEN--\":5:7   */\n  iszero\n  tag_1\n  jumpi\n    /* \"--CODEGEN--\":30:31   */\n  0x00\n    /* \"--CODEGEN--\":27:28   */\n  dup1\n    /* \"--CODEGEN--\":20:32   */\n  revert\n    /* \"--CODEGEN--\":5:7   */\ntag_1:\n    /* \"Access_Matrix.sol\":94:3688  contract Access_matrix {... */\n  pop\n  dataSize(sub_0)\n  dup1\n  dataOffset(sub_0)\n  0x00\n  codecopy\n  0x00\n  return\nstop\n\nsub_0: assembly {\n        /* \"Access_Matrix.sol\":94:3688  contract Access_matrix {... */\n      mstore(0x40, 0x80)\n      callvalue\n        /* \"--CODEGEN--\":8:17   */\n      dup1\n        /* \"--CODEGEN--\":5:7   */\n      iszero\n      tag_1\n      jumpi\n        /* \"--CODEGEN--\":30:31   */\n      0x00\n        /* \"--CODEGEN--\":27:28   */\n      dup1\n        /* \"--CODEGEN--\":20:32   */\n      revert\n        /* \"--CODEGEN--\":5:7   */\n    tag_1:\n        /* \"Access_Matrix.sol\":94:3688  contract Access_matrix {... */\n      pop\n      jumpi(tag_2, lt(calldatasize, 0x04))\n      shr(0xe0, calldataload(0x00))\n      dup1\n      0x89069ea7\n      gt\n      tag_13\n      jumpi\n      dup1\n      0x89069ea7\n      eq\n      tag_8\n      jumpi\n      dup1\n      0x93614356\n      eq\n      tag_9\n      jumpi\n      dup1\n      0xaa86c8fc\n      eq\n      tag_10\n      jumpi\n      dup1\n      0xbd289582\n      eq\n      tag_11\n      jumpi\n      dup1\n      0xfe7f2692\n      eq\n      tag_12\n      jumpi\n      jump(tag_2)\n    tag_13:\n      dup1\n      0x0b3e9bfc\n      eq\n      tag_3\n      jumpi\n      dup1\n      0x252e7bed\n      eq\n      tag_4\n      jumpi\n      dup1\n      0x612fa967\n      eq\n      tag_5\n      jumpi\n      dup1\n      0x61650af7\n      eq\n      tag_6\n      jumpi\n      dup1\n      0x6725f913\n      eq\n      tag_7\n      jumpi\n    tag_2:\n      0x00\n      dup1\n      revert\n        /* \"Access_Matrix.sol\":1920:2220  function updateValue(string memory _hash, uint index, uint32 _variable_value, string memory _activity) public {... */\n    tag_3:\n      tag_14\n      0x04\n      dup1\n      calldatasize\n      sub\n      tag_15\n      swap2\n      swap1\n      dup2\n      add\n      swap1\n      jump(tag_16)\n    tag_15:\n      tag_17\n      jump\t// in\n    tag_14:\n      stop\n        /* \"Access_Matrix.sol\":3436:3686  function deleteVariable(string memory _hash, uint index, string memory _activity) public {... */\n    tag_4:\n      tag_18\n      0x04\n      dup1\n      calldatasize\n      sub\n      tag_19\n      swap2\n      swap1\n      dup2\n      add\n      swap1\n      jump(tag_20)\n    tag_19:\n      tag_21\n      jump\t// in\n    tag_18:\n      stop\n        /* \"Access_Matrix.sol\":851:994  function setVariableName(string memory _hash, uint index, string memory _newName) public {... */\n    tag_5:\n      tag_22\n      0x04\n      dup1\n      calldatasize\n      sub\n      tag_23\n      swap2\n      swap1\n      dup2\n      add\n      swap1\n      jump(tag_20)\n    tag_23:\n      tag_24\n      jump\t// in\n    tag_22:\n      stop\n        /* \"Access_Matrix.sol\":661:845  function updateMatrix(string memory _hash, uint index, string memory _activity, address _role, uint8 _val) public {... */\n    tag_6:\n      tag_25\n      0x04\n      dup1\n      calldatasize\n      sub\n      tag_26\n      swap2\n      swap1\n      dup2\n      add\n      swap1\n      jump(tag_27)\n    tag_26:\n      tag_28\n      jump\t// in\n    tag_25:\n      stop\n        /* \"Access_Matrix.sol\":2893:3046  function getActivites(string memory _hash, uint index) public view returns (string[] memory) {... */\n    tag_7:\n      tag_29\n      0x04\n      dup1\n      calldatasize\n      sub\n      tag_30\n      swap2\n      swap1\n      dup2\n      add\n      swap1\n      jump(tag_31)\n    tag_30:\n      tag_32\n      jump\t// in\n    tag_29:\n      mload(0x40)\n      tag_33\n      swap2\n      swap1\n      jump(tag_34)\n    tag_33:\n      mload(0x40)\n      dup1\n      swap2\n      sub\n      swap1\n      return\n        /* \"Access_Matrix.sol\":2463:2887  function getAllVariables(string memory _hash) public view returns (string[] memory,  uint32[] memory){... */\n    tag_8:\n      tag_35\n      0x04\n      dup1\n      calldatasize\n      sub\n      tag_36\n      swap2\n      swap1\n      dup2\n      add\n      swap1\n      jump(tag_37)\n    tag_36:\n      tag_38\n      jump\t// in\n    tag_35:\n      mload(0x40)\n      tag_39\n      swap3\n      swap2\n      swap1\n      jump(tag_40)\n    tag_39:\n      mload(0x40)\n      dup1\n      swap2\n      sub\n      swap1\n      return\n        /* \"Access_Matrix.sol\":2312:2457  function getVariableValue(string memory _hash, uint index) public view returns (uint32 _var){... */\n    tag_9:\n      tag_41\n      0x04\n      dup1\n      calldatasize\n      sub\n      tag_42\n      swap2\n      swap1\n      dup2\n      add\n      swap1\n      jump(tag_31)\n    tag_42:\n      tag_43\n      jump\t// in\n    tag_41:\n      mload(0x40)\n      tag_44\n      swap2\n      swap1\n      jump(tag_45)\n    tag_44:\n      mload(0x40)\n      dup1\n      swap2\n      sub\n      swap1\n      return\n        /* \"Access_Matrix.sol\":3052:3251  function getAccess(string memory _hash, uint index, string memory _activity, address _role) public view returns (uint8 _access) {... */\n    tag_10:\n      tag_46\n      0x04\n      dup1\n      calldatasize\n      sub\n      tag_47\n      swap2\n      swap1\n      dup2\n      add\n      swap1\n      jump(tag_48)\n    tag_47:\n      tag_49\n      jump\t// in\n    tag_46:\n      mload(0x40)\n      tag_50\n      swap2\n      swap1\n      jump(tag_51)\n    tag_50:\n      mload(0x40)\n      dup1\n      swap2\n      sub\n      swap1\n      return\n        /* \"Access_Matrix.sol\":1159:1688  function uploadMatrix(string memory _hash, string memory _newName, string[] memory _activities, address[] memory _roles, uint8[] memory _vals, uint nbOfElements) public {... */\n    tag_11:\n      tag_52\n      0x04\n      dup1\n      calldatasize\n      sub\n      tag_53\n      swap2\n      swap1\n      dup2\n      add\n      swap1\n      jump(tag_54)\n    tag_53:\n      tag_55\n      jump\t// in\n    tag_52:\n      stop\n        /* \"Access_Matrix.sol\":1000:1153  function getVariableName(string memory _hash, uint index) public view returns (string memory _varName) {... */\n    tag_12:\n      tag_56\n      0x04\n      dup1\n      calldatasize\n      sub\n      tag_57\n      swap2\n      swap1\n      dup2\n      add\n      swap1\n      jump(tag_31)\n    tag_57:\n      tag_58\n      jump\t// in\n    tag_56:\n      mload(0x40)\n      tag_59\n      swap2\n      swap1\n      jump(tag_60)\n    tag_59:\n      mload(0x40)\n      dup1\n      swap2\n      sub\n      swap1\n      return\n        /* \"Access_Matrix.sol\":1920:2220  function updateValue(string memory _hash, uint index, uint32 _variable_value, string memory _activity) public {... */\n    tag_17:\n        /* \"Access_Matrix.sol\":2040:2055  bool has_access */\n      0x00\n        /* \"Access_Matrix.sol\":2127:2128  1 */\n      0x01\n        /* \"Access_Matrix.sol\":2122:2123  1 */\n      dup1\n        /* \"Access_Matrix.sol\":2116:2117  3 */\n      0x03\n        /* \"Access_Matrix.sol\":2059:2068  variables */\n      0x00\n        /* \"Access_Matrix.sol\":2069:2074  _hash */\n      dup9\n        /* \"Access_Matrix.sol\":2059:2075  variables[_hash] */\n      mload(0x40)\n      tag_62\n      swap2\n      swap1\n      jump(tag_63)\n    tag_62:\n      swap1\n      dup2\n      mstore\n      0x20\n      add\n      mload(0x40)\n      dup1\n      swap2\n      sub\n      swap1\n      keccak256\n        /* \"Access_Matrix.sol\":2076:2081  index */\n      dup8\n        /* \"Access_Matrix.sol\":2059:2082  variables[_hash][index] */\n      dup2\n      sload\n      dup2\n      lt\n      tag_64\n      jumpi\n      invalid\n    tag_64:\n      swap1\n      0x00\n      mstore\n      keccak256(0x00, 0x20)\n      swap1\n      0x05\n      mul\n      add\n        /* \"Access_Matrix.sol\":2059:2089  variables[_hash][index].matrix */\n      0x00\n      add\n        /* \"Access_Matrix.sol\":2090:2099  _activity */\n      dup6\n        /* \"Access_Matrix.sol\":2059:2100  variables[_hash][index].matrix[_activity] */\n      mload(0x40)\n      tag_66\n      swap2\n      swap1\n      jump(tag_63)\n    tag_66:\n      swap1\n      dup2\n      mstore\n      0x20\n      add\n      mload(0x40)\n      dup1\n      swap2\n      sub\n      swap1\n      keccak256\n        /* \"Access_Matrix.sol\":2059:2112  variables[_hash][index].matrix[_activity][msg.sender] */\n      0x00\n        /* \"Access_Matrix.sol\":2101:2111  msg.sender */\n      caller\n        /* \"Access_Matrix.sol\":2059:2112  variables[_hash][index].matrix[_activity][msg.sender] */\n      0xffffffffffffffffffffffffffffffffffffffff\n      and\n      0xffffffffffffffffffffffffffffffffffffffff\n      and\n      dup2\n      mstore\n      0x20\n      add\n      swap1\n      dup2\n      mstore\n      0x20\n      add\n      0x00\n      keccak256\n      0x00\n      swap1\n      sload\n      swap1\n      0x0100\n      exp\n      swap1\n      div\n      0xff\n      and\n        /* \"Access_Matrix.sol\":2059:2117  variables[_hash][index].matrix[_activity][msg.sender] >> 3 */\n      0xff\n      and\n      swap1\n      shr\n        /* \"Access_Matrix.sol\":2058:2123  (variables[_hash][index].matrix[_activity][msg.sender] >> 3 ) & 1 */\n      and\n        /* \"Access_Matrix.sol\":2058:2128  (variables[_hash][index].matrix[_activity][msg.sender] >> 3 ) & 1 == 1 */\n      0xff\n      and\n      eq\n        /* \"Access_Matrix.sol\":2040:2128  bool has_access = (variables[_hash][index].matrix[_activity][msg.sender] >> 3 ) & 1 == 1 */\n      swap1\n      pop\n        /* \"Access_Matrix.sol\":2145:2155  has_access */\n      dup1\n        /* \"Access_Matrix.sol\":2138:2156  assert(has_access) */\n      tag_67\n      jumpi\n      invalid\n    tag_67:\n        /* \"Access_Matrix.sol\":2198:2213  _variable_value */\n      dup3\n        /* \"Access_Matrix.sol\":2166:2175  variables */\n      0x00\n        /* \"Access_Matrix.sol\":2176:2181  _hash */\n      dup7\n        /* \"Access_Matrix.sol\":2166:2182  variables[_hash] */\n      mload(0x40)\n      tag_68\n      swap2\n      swap1\n      jump(tag_63)\n    tag_68:\n      swap1\n      dup2\n      mstore\n      0x20\n      add\n      mload(0x40)\n      dup1\n      swap2\n      sub\n      swap1\n      keccak256\n        /* \"Access_Matrix.sol\":2183:2188  index */\n      dup6\n        /* \"Access_Matrix.sol\":2166:2189  variables[_hash][index] */\n      dup2\n      sload\n      dup2\n      lt\n      tag_69\n      jumpi\n      invalid\n    tag_69:\n      swap1\n      0x00\n      mstore\n      keccak256(0x00, 0x20)\n      swap1\n      0x05\n      mul\n      add\n        /* \"Access_Matrix.sol\":2166:2195  variables[_hash][index].value */\n      0x03\n      add\n      0x00\n        /* \"Access_Matrix.sol\":2166:2213  variables[_hash][index].value = _variable_value */\n      0x0100\n      exp\n      dup2\n      sload\n      dup2\n      0xffffffff\n      mul\n      not\n      and\n      swap1\n      dup4\n      0xffffffff\n      and\n      mul\n      or\n      swap1\n      sstore\n      pop\n        /* \"Access_Matrix.sol\":1920:2220  function updateValue(string memory _hash, uint index, uint32 _variable_value, string memory _activity) public {... */\n      pop\n      pop\n      pop\n      pop\n      pop\n      jump\t// out\n        /* \"Access_Matrix.sol\":3436:3686  function deleteVariable(string memory _hash, uint index, string memory _activity) public {... */\n    tag_21:\n        /* \"Access_Matrix.sol\":3535:3550  bool has_access */\n      0x00\n        /* \"Access_Matrix.sol\":3616:3617  1 */\n      0x01\n        /* \"Access_Matrix.sol\":3611:3612  1 */\n      dup1\n        /* \"Access_Matrix.sol\":3554:3563  variables */\n      0x00\n        /* \"Access_Matrix.sol\":3564:3569  _hash */\n      dup7\n        /* \"Access_Matrix.sol\":3554:3570  variables[_hash] */\n      mload(0x40)\n      tag_72\n      swap2\n      swap1\n      jump(tag_63)\n    tag_72:\n      swap1\n      dup2\n      mstore\n      0x20\n      add\n      mload(0x40)\n      dup1\n      swap2\n      sub\n      swap1\n      keccak256\n        /* \"Access_Matrix.sol\":3571:3576  index */\n      dup6\n        /* \"Access_Matrix.sol\":3554:3577  variables[_hash][index] */\n      dup2\n      sload\n      dup2\n      lt\n      tag_73\n      jumpi\n      invalid\n    tag_73:\n      swap1\n      0x00\n      mstore\n      keccak256(0x00, 0x20)\n      swap1\n      0x05\n      mul\n      add\n        /* \"Access_Matrix.sol\":3554:3584  variables[_hash][index].matrix */\n      0x00\n      add\n        /* \"Access_Matrix.sol\":3585:3594  _activity */\n      dup5\n        /* \"Access_Matrix.sol\":3554:3595  variables[_hash][index].matrix[_activity] */\n      mload(0x40)\n      tag_75\n      swap2\n      swap1\n      jump(tag_63)\n    tag_75:\n      swap1\n      dup2\n      mstore\n      0x20\n      add\n      mload(0x40)\n      dup1\n      swap2\n      sub\n      swap1\n      keccak256\n        /* \"Access_Matrix.sol\":3554:3607  variables[_hash][index].matrix[_activity][msg.sender] */\n      0x00\n        /* \"Access_Matrix.sol\":3596:3606  msg.sender */\n      caller\n        /* \"Access_Matrix.sol\":3554:3607  variables[_hash][index].matrix[_activity][msg.sender] */\n      0xffffffffffffffffffffffffffffffffffffffff\n      and\n      0xffffffffffffffffffffffffffffffffffffffff\n      and\n      dup2\n      mstore\n      0x20\n      add\n      swap1\n      dup2\n      mstore\n      0x20\n      add\n      0x00\n      keccak256\n      0x00\n      swap1\n      sload\n      swap1\n      0x0100\n      exp\n      swap1\n      div\n      0xff\n      and\n        /* \"Access_Matrix.sol\":3553:3612  (variables[_hash][index].matrix[_activity][msg.sender]) & 1 */\n      and\n        /* \"Access_Matrix.sol\":3553:3617  (variables[_hash][index].matrix[_activity][msg.sender]) & 1 == 1 */\n      0xff\n      and\n      eq\n        /* \"Access_Matrix.sol\":3535:3617  bool has_access = (variables[_hash][index].matrix[_activity][msg.sender]) & 1 == 1 */\n      swap1\n      pop\n        /* \"Access_Matrix.sol\":3634:3644  has_access */\n      dup1\n        /* \"Access_Matrix.sol\":3627:3645  assert(has_access) */\n      tag_76\n      jumpi\n      invalid\n    tag_76:\n        /* \"Access_Matrix.sol\":3668:3678  msg.sender */\n      caller\n        /* \"Access_Matrix.sol\":3655:3679  selfdestruct(msg.sender) */\n      0xffffffffffffffffffffffffffffffffffffffff\n      and\n      selfdestruct\n        /* \"Access_Matrix.sol\":851:994  function setVariableName(string memory _hash, uint index, string memory _newName) public {... */\n    tag_24:\n        /* \"Access_Matrix.sol\":979:987  _newName */\n      dup1\n        /* \"Access_Matrix.sol\":948:957  variables */\n      0x00\n        /* \"Access_Matrix.sol\":958:963  _hash */\n      dup5\n        /* \"Access_Matrix.sol\":948:964  variables[_hash] */\n      mload(0x40)\n      tag_78\n      swap2\n      swap1\n      jump(tag_63)\n    tag_78:\n      swap1\n      dup2\n      mstore\n      0x20\n      add\n      mload(0x40)\n      dup1\n      swap2\n      sub\n      swap1\n      keccak256\n        /* \"Access_Matrix.sol\":965:970  index */\n      dup4\n        /* \"Access_Matrix.sol\":948:971  variables[_hash][index] */\n      dup2\n      sload\n      dup2\n      lt\n      tag_79\n      jumpi\n      invalid\n    tag_79:\n      swap1\n      0x00\n      mstore\n      keccak256(0x00, 0x20)\n      swap1\n      0x05\n      mul\n      add\n        /* \"Access_Matrix.sol\":948:976  variables[_hash][index].name */\n      0x04\n      add\n        /* \"Access_Matrix.sol\":948:987  variables[_hash][index].name = _newName */\n      swap1\n      dup1\n      mload\n      swap1\n      0x20\n      add\n      swap1\n      tag_81\n      swap3\n      swap2\n      swap1\n      tag_82\n      jump\t// in\n    tag_81:\n      pop\n        /* \"Access_Matrix.sol\":851:994  function setVariableName(string memory _hash, uint index, string memory _newName) public {... */\n      pop\n      pop\n      pop\n      jump\t// out\n        /* \"Access_Matrix.sol\":661:845  function updateMatrix(string memory _hash, uint index, string memory _activity, address _role, uint8 _val) public {... */\n    tag_28:\n        /* \"Access_Matrix.sol\":834:838  _val */\n      dup1\n        /* \"Access_Matrix.sol\":783:792  variables */\n      0x00\n        /* \"Access_Matrix.sol\":793:798  _hash */\n      dup7\n        /* \"Access_Matrix.sol\":783:799  variables[_hash] */\n      mload(0x40)\n      tag_84\n      swap2\n      swap1\n      jump(tag_63)\n    tag_84:\n      swap1\n      dup2\n      mstore\n      0x20\n      add\n      mload(0x40)\n      dup1\n      swap2\n      sub\n      swap1\n      keccak256\n        /* \"Access_Matrix.sol\":800:805  index */\n      dup6\n        /* \"Access_Matrix.sol\":783:806  variables[_hash][index] */\n      dup2\n      sload\n      dup2\n      lt\n      tag_85\n      jumpi\n      invalid\n    tag_85:\n      swap1\n      0x00\n      mstore\n      keccak256(0x00, 0x20)\n      swap1\n      0x05\n      mul\n      add\n        /* \"Access_Matrix.sol\":783:813  variables[_hash][index].matrix */\n      0x00\n      add\n        /* \"Access_Matrix.sol\":814:823  _activity */\n      dup5\n        /* \"Access_Matrix.sol\":783:824  variables[_hash][index].matrix[_activity] */\n      mload(0x40)\n      tag_87\n      swap2\n      swap1\n      jump(tag_63)\n    tag_87:\n      swap1\n      dup2\n      mstore\n      0x20\n      add\n      mload(0x40)\n      dup1\n      swap2\n      sub\n      swap1\n      keccak256\n        /* \"Access_Matrix.sol\":783:831  variables[_hash][index].matrix[_activity][_role] */\n      0x00\n        /* \"Access_Matrix.sol\":825:830  _role */\n      dup5\n        /* \"Access_Matrix.sol\":783:831  variables[_hash][index].matrix[_activity][_role] */\n      0xffffffffffffffffffffffffffffffffffffffff\n      and\n      0xffffffffffffffffffffffffffffffffffffffff\n      and\n      dup2\n      mstore\n      0x20\n      add\n      swap1\n      dup2\n      mstore\n      0x20\n      add\n      0x00\n      keccak256\n      0x00\n        /* \"Access_Matrix.sol\":783:838  variables[_hash][index].matrix[_activity][_role] = _val */\n      0x0100\n      exp\n      dup2\n      sload\n      dup2\n      0xff\n      mul\n      not\n      and\n      swap1\n      dup4\n      0xff\n      and\n      mul\n      or\n      swap1\n      sstore\n      pop\n        /* \"Access_Matrix.sol\":661:845  function updateMatrix(string memory _hash, uint index, string memory _activity, address _role, uint8 _val) public {... */\n      pop\n      pop\n      pop\n      pop\n      pop\n      jump\t// out\n        /* \"Access_Matrix.sol\":2893:3046  function getActivites(string memory _hash, uint index) public view returns (string[] memory) {... */\n    tag_32:\n        /* \"Access_Matrix.sol\":2969:2984  string[] memory */\n      0x60\n        /* \"Access_Matrix.sol\":3001:3010  variables */\n      0x00\n        /* \"Access_Matrix.sol\":3011:3016  _hash */\n      dup4\n        /* \"Access_Matrix.sol\":3001:3017  variables[_hash] */\n      mload(0x40)\n      tag_89\n      swap2\n      swap1\n      jump(tag_63)\n    tag_89:\n      swap1\n      dup2\n      mstore\n      0x20\n      add\n      mload(0x40)\n      dup1\n      swap2\n      sub\n      swap1\n      keccak256\n        /* \"Access_Matrix.sol\":3018:3023  index */\n      dup3\n        /* \"Access_Matrix.sol\":3001:3024  variables[_hash][index] */\n      dup2\n      sload\n      dup2\n      lt\n      tag_90\n      jumpi\n      invalid\n    tag_90:\n      swap1\n      0x00\n      mstore\n      keccak256(0x00, 0x20)\n      swap1\n      0x05\n      mul\n      add\n        /* \"Access_Matrix.sol\":3001:3039  variables[_hash][index].activitiesKeys */\n      0x01\n      add\n        /* \"Access_Matrix.sol\":2994:3039  return variables[_hash][index].activitiesKeys */\n      dup1\n      sload\n      dup1\n      0x20\n      mul\n      0x20\n      add\n      mload(0x40)\n      swap1\n      dup2\n      add\n      0x40\n      mstore\n      dup1\n      swap3\n      swap2\n      swap1\n      dup2\n      dup2\n      mstore\n      0x20\n      add\n      0x00\n      swap1\n    tag_92:\n      dup3\n      dup3\n      lt\n      iszero\n      tag_93\n      jumpi\n      dup4\n      dup3\n      swap1\n      0x00\n      mstore\n      keccak256(0x00, 0x20)\n      add\n      dup1\n      sload\n      0x01\n      dup2\n      0x01\n      and\n      iszero\n      0x0100\n      mul\n      sub\n      and\n      0x02\n      swap1\n      div\n      dup1\n      0x1f\n      add\n      0x20\n      dup1\n      swap2\n      div\n      mul\n      0x20\n      add\n      mload(0x40)\n      swap1\n      dup2\n      add\n      0x40\n      mstore\n      dup1\n      swap3\n      swap2\n      swap1\n      dup2\n      dup2\n      mstore\n      0x20\n      add\n      dup3\n      dup1\n      sload\n      0x01\n      dup2\n      0x01\n      and\n      iszero\n      0x0100\n      mul\n      sub\n      and\n      0x02\n      swap1\n      div\n      dup1\n      iszero\n      tag_95\n      jumpi\n      dup1\n      0x1f\n      lt\n      tag_96\n      jumpi\n      0x0100\n      dup1\n      dup4\n      sload\n      div\n      mul\n      dup4\n      mstore\n      swap2\n      0x20\n      add\n      swap2\n      jump(tag_95)\n    tag_96:\n      dup3\n      add\n      swap2\n      swap1\n      0x00\n      mstore\n      keccak256(0x00, 0x20)\n      swap1\n    tag_97:\n      dup2\n      sload\n      dup2\n      mstore\n      swap1\n      0x01\n      add\n      swap1\n      0x20\n      add\n      dup1\n      dup4\n      gt\n      tag_97\n      jumpi\n      dup3\n      swap1\n      sub\n      0x1f\n      and\n      dup3\n      add\n      swap2\n    tag_95:\n      pop\n      pop\n      pop\n      pop\n      pop\n      dup2\n      mstore\n      0x20\n      add\n      swap1\n      0x01\n      add\n      swap1\n      jump(tag_92)\n    tag_93:\n      pop\n      pop\n      pop\n      pop\n      swap1\n      pop\n        /* \"Access_Matrix.sol\":2893:3046  function getActivites(string memory _hash, uint index) public view returns (string[] memory) {... */\n      swap3\n      swap2\n      pop\n      pop\n      jump\t// out\n        /* \"Access_Matrix.sol\":2463:2887  function getAllVariables(string memory _hash) public view returns (string[] memory,  uint32[] memory){... */\n    tag_38:\n        /* \"Access_Matrix.sol\":2530:2545  string[] memory */\n      0x60\n        /* \"Access_Matrix.sol\":2548:2563  uint32[] memory */\n      dup1\n        /* \"Access_Matrix.sol\":2572:2591  string[] memory arr */\n      0x60\n        /* \"Access_Matrix.sol\":2607:2616  variables */\n      0x00\n        /* \"Access_Matrix.sol\":2617:2622  _hash */\n      dup5\n        /* \"Access_Matrix.sol\":2607:2623  variables[_hash] */\n      mload(0x40)\n      tag_99\n      swap2\n      swap1\n      jump(tag_63)\n    tag_99:\n      swap1\n      dup2\n      mstore\n      0x20\n      add\n      mload(0x40)\n      dup1\n      swap2\n      sub\n      swap1\n      keccak256\n        /* \"Access_Matrix.sol\":2607:2630  variables[_hash].length */\n      dup1\n      sload\n      swap1\n      pop\n        /* \"Access_Matrix.sol\":2594:2631  new string[](variables[_hash].length) */\n      mload(0x40)\n      swap1\n      dup1\n      dup3\n      mstore\n      dup1\n      0x20\n      mul\n      0x20\n      add\n      dup3\n      add\n      0x40\n      mstore\n      dup1\n      iszero\n      tag_100\n      jumpi\n      dup2\n      0x20\n      add\n    tag_101:\n      0x60\n      dup2\n      mstore\n      0x20\n      add\n      swap1\n      0x01\n      swap1\n      sub\n      swap1\n      dup2\n      tag_101\n      jumpi\n      swap1\n      pop\n    tag_100:\n      pop\n        /* \"Access_Matrix.sol\":2572:2631  string[] memory arr = new string[](variables[_hash].length) */\n      swap1\n      pop\n        /* \"Access_Matrix.sol\":2639:2658  uint32[] memory vls */\n      0x60\n        /* \"Access_Matrix.sol\":2674:2683  variables */\n      0x00\n        /* \"Access_Matrix.sol\":2684:2689  _hash */\n      dup6\n        /* \"Access_Matrix.sol\":2674:2690  variables[_hash] */\n      mload(0x40)\n      tag_102\n      swap2\n      swap1\n      jump(tag_63)\n    tag_102:\n      swap1\n      dup2\n      mstore\n      0x20\n      add\n      mload(0x40)\n      dup1\n      swap2\n      sub\n      swap1\n      keccak256\n        /* \"Access_Matrix.sol\":2674:2697  variables[_hash].length */\n      dup1\n      sload\n      swap1\n      pop\n        /* \"Access_Matrix.sol\":2661:2698  new uint32[](variables[_hash].length) */\n      mload(0x40)\n      swap1\n      dup1\n      dup3\n      mstore\n      dup1\n      0x20\n      mul\n      0x20\n      add\n      dup3\n      add\n      0x40\n      mstore\n      dup1\n      iszero\n      tag_103\n      jumpi\n      dup2\n      0x20\n      add\n        /* \"--CODEGEN--\":29:31   */\n      0x20\n        /* \"--CODEGEN--\":21:27   */\n      dup3\n        /* \"--CODEGEN--\":17:32   */\n      mul\n        /* \"--CODEGEN--\":117:121   */\n      dup1\n        /* \"--CODEGEN--\":105:115   */\n      codesize\n        /* \"--CODEGEN--\":97:103   */\n      dup4\n        /* \"--CODEGEN--\":88:122   */\n      codecopy\n        /* \"--CODEGEN--\":148:152   */\n      dup1\n        /* \"--CODEGEN--\":140:146   */\n      dup3\n        /* \"--CODEGEN--\":136:153   */\n      add\n        /* \"--CODEGEN--\":126:153   */\n      swap2\n      pop\n        /* \"--CODEGEN--\":0:157   */\n      pop\n        /* \"Access_Matrix.sol\":2661:2698  new uint32[](variables[_hash].length) */\n      swap1\n      pop\n    tag_103:\n      pop\n        /* \"Access_Matrix.sol\":2639:2698  uint32[] memory vls = new uint32[](variables[_hash].length) */\n      swap1\n      pop\n        /* \"Access_Matrix.sol\":2710:2716  uint i */\n      0x00\n        /* \"Access_Matrix.sol\":2719:2720  0 */\n      dup1\n        /* \"Access_Matrix.sol\":2710:2720  uint i = 0 */\n      swap1\n      pop\n        /* \"Access_Matrix.sol\":2706:2856  for(uint i = 0; i < variables[_hash].length; i++) {... */\n    tag_104:\n        /* \"Access_Matrix.sol\":2726:2735  variables */\n      0x00\n        /* \"Access_Matrix.sol\":2736:2741  _hash */\n      dup7\n        /* \"Access_Matrix.sol\":2726:2742  variables[_hash] */\n      mload(0x40)\n      tag_107\n      swap2\n      swap1\n      jump(tag_63)\n    tag_107:\n      swap1\n      dup2\n      mstore\n      0x20\n      add\n      mload(0x40)\n      dup1\n      swap2\n      sub\n      swap1\n      keccak256\n        /* \"Access_Matrix.sol\":2726:2749  variables[_hash].length */\n      dup1\n      sload\n      swap1\n      pop\n        /* \"Access_Matrix.sol\":2722:2723  i */\n      dup2\n        /* \"Access_Matrix.sol\":2722:2749  i < variables[_hash].length */\n      lt\n        /* \"Access_Matrix.sol\":2706:2856  for(uint i = 0; i < variables[_hash].length; i++) {... */\n      iszero\n      tag_105\n      jumpi\n        /* \"Access_Matrix.sol\":2776:2785  variables */\n      0x00\n        /* \"Access_Matrix.sol\":2786:2791  _hash */\n      dup7\n        /* \"Access_Matrix.sol\":2776:2792  variables[_hash] */\n      mload(0x40)\n      tag_108\n      swap2\n      swap1\n      jump(tag_63)\n    tag_108:\n      swap1\n      dup2\n      mstore\n      0x20\n      add\n      mload(0x40)\n      dup1\n      swap2\n      sub\n      swap1\n      keccak256\n        /* \"Access_Matrix.sol\":2793:2794  i */\n      dup2\n        /* \"Access_Matrix.sol\":2776:2795  variables[_hash][i] */\n      dup2\n      sload\n      dup2\n      lt\n      tag_109\n      jumpi\n      invalid\n    tag_109:\n      swap1\n      0x00\n      mstore\n      keccak256(0x00, 0x20)\n      swap1\n      0x05\n      mul\n      add\n        /* \"Access_Matrix.sol\":2776:2800  variables[_hash][i].name */\n      0x04\n      add\n        /* \"Access_Matrix.sol\":2766:2801  arr[i] = (variables[_hash][i].name) */\n      dup1\n      sload\n      0x01\n      dup2\n      0x01\n      and\n      iszero\n      0x0100\n      mul\n      sub\n      and\n      0x02\n      swap1\n      div\n      dup1\n      0x1f\n      add\n      0x20\n      dup1\n      swap2\n      div\n      mul\n      0x20\n      add\n      mload(0x40)\n      swap1\n      dup2\n      add\n      0x40\n      mstore\n      dup1\n      swap3\n      swap2\n      swap1\n      dup2\n      dup2\n      mstore\n      0x20\n      add\n      dup3\n      dup1\n      sload\n      0x01\n      dup2\n      0x01\n      and\n      iszero\n      0x0100\n      mul\n      sub\n      and\n      0x02\n      swap1\n      div\n      dup1\n      iszero\n      tag_111\n      jumpi\n      dup1\n      0x1f\n      lt\n      tag_112\n      jumpi\n      0x0100\n      dup1\n      dup4\n      sload\n      div\n      mul\n      dup4\n      mstore\n      swap2\n      0x20\n      add\n      swap2\n      jump(tag_111)\n    tag_112:\n      dup3\n      add\n      swap2\n      swap1\n      0x00\n      mstore\n      keccak256(0x00, 0x20)\n      swap1\n    tag_113:\n      dup2\n      sload\n      dup2\n      mstore\n      swap1\n      0x01\n      add\n      swap1\n      0x20\n      add\n      dup1\n      dup4\n      gt\n      tag_113\n      jumpi\n      dup3\n      swap1\n      sub\n      0x1f\n      and\n      dup3\n      add\n      swap2\n    tag_111:\n      pop\n      pop\n      pop\n      pop\n      pop\n        /* \"Access_Matrix.sol\":2766:2769  arr */\n      dup4\n        /* \"Access_Matrix.sol\":2770:2771  i */\n      dup3\n        /* \"Access_Matrix.sol\":2766:2772  arr[i] */\n      dup2\n      mload\n      dup2\n      lt\n      tag_114\n      jumpi\n      invalid\n    tag_114:\n      0x20\n      mul\n      0x20\n      add\n      add\n        /* \"Access_Matrix.sol\":2766:2801  arr[i] = (variables[_hash][i].name) */\n      dup2\n      swap1\n      mstore\n      pop\n        /* \"Access_Matrix.sol\":2821:2830  variables */\n      0x00\n        /* \"Access_Matrix.sol\":2831:2836  _hash */\n      dup7\n        /* \"Access_Matrix.sol\":2821:2837  variables[_hash] */\n      mload(0x40)\n      tag_115\n      swap2\n      swap1\n      jump(tag_63)\n    tag_115:\n      swap1\n      dup2\n      mstore\n      0x20\n      add\n      mload(0x40)\n      dup1\n      swap2\n      sub\n      swap1\n      keccak256\n        /* \"Access_Matrix.sol\":2838:2839  i */\n      dup2\n        /* \"Access_Matrix.sol\":2821:2840  variables[_hash][i] */\n      dup2\n      sload\n      dup2\n      lt\n      tag_116\n      jumpi\n      invalid\n    tag_116:\n      swap1\n      0x00\n      mstore\n      keccak256(0x00, 0x20)\n      swap1\n      0x05\n      mul\n      add\n        /* \"Access_Matrix.sol\":2821:2846  variables[_hash][i].value */\n      0x03\n      add\n      0x00\n      swap1\n      sload\n      swap1\n      0x0100\n      exp\n      swap1\n      div\n      0xffffffff\n      and\n        /* \"Access_Matrix.sol\":2811:2814  vls */\n      dup3\n        /* \"Access_Matrix.sol\":2815:2816  i */\n      dup3\n        /* \"Access_Matrix.sol\":2811:2817  vls[i] */\n      dup2\n      mload\n      dup2\n      lt\n      tag_118\n      jumpi\n      invalid\n    tag_118:\n      0x20\n      mul\n      0x20\n      add\n      add\n        /* \"Access_Matrix.sol\":2811:2847  vls[i] = (variables[_hash][i].value) */\n      swap1\n      0xffffffff\n      and\n      swap1\n      dup2\n      0xffffffff\n      and\n      dup2\n      mstore\n      pop\n      pop\n        /* \"Access_Matrix.sol\":2751:2754  i++ */\n      dup1\n      dup1\n      0x01\n      add\n      swap2\n      pop\n      pop\n        /* \"Access_Matrix.sol\":2706:2856  for(uint i = 0; i < variables[_hash].length; i++) {... */\n      jump(tag_104)\n    tag_105:\n      pop\n        /* \"Access_Matrix.sol\":2871:2874  arr */\n      dup2\n        /* \"Access_Matrix.sol\":2876:2879  vls */\n      dup2\n        /* \"Access_Matrix.sol\":2863:2880  return (arr, vls) */\n      swap4\n      pop\n      swap4\n      pop\n      pop\n      pop\n        /* \"Access_Matrix.sol\":2463:2887  function getAllVariables(string memory _hash) public view returns (string[] memory,  uint32[] memory){... */\n      swap2\n      pop\n      swap2\n      jump\t// out\n        /* \"Access_Matrix.sol\":2312:2457  function getVariableValue(string memory _hash, uint index) public view returns (uint32 _var){... */\n    tag_43:\n        /* \"Access_Matrix.sol\":2392:2403  uint32 _var */\n      0x00\n        /* \"Access_Matrix.sol\":2421:2430  variables */\n      dup1\n        /* \"Access_Matrix.sol\":2431:2436  _hash */\n      dup4\n        /* \"Access_Matrix.sol\":2421:2437  variables[_hash] */\n      mload(0x40)\n      tag_120\n      swap2\n      swap1\n      jump(tag_63)\n    tag_120:\n      swap1\n      dup2\n      mstore\n      0x20\n      add\n      mload(0x40)\n      dup1\n      swap2\n      sub\n      swap1\n      keccak256\n        /* \"Access_Matrix.sol\":2438:2443  index */\n      dup3\n        /* \"Access_Matrix.sol\":2421:2444  variables[_hash][index] */\n      dup2\n      sload\n      dup2\n      lt\n      tag_121\n      jumpi\n      invalid\n    tag_121:\n      swap1\n      0x00\n      mstore\n      keccak256(0x00, 0x20)\n      swap1\n      0x05\n      mul\n      add\n        /* \"Access_Matrix.sol\":2421:2450  variables[_hash][index].value */\n      0x03\n      add\n      0x00\n      swap1\n      sload\n      swap1\n      0x0100\n      exp\n      swap1\n      div\n      0xffffffff\n      and\n        /* \"Access_Matrix.sol\":2414:2450  return variables[_hash][index].value */\n      swap1\n      pop\n        /* \"Access_Matrix.sol\":2312:2457  function getVariableValue(string memory _hash, uint index) public view returns (uint32 _var){... */\n      swap3\n      swap2\n      pop\n      pop\n      jump\t// out\n        /* \"Access_Matrix.sol\":3052:3251  function getAccess(string memory _hash, uint index, string memory _activity, address _role) public view returns (uint8 _access) {... */\n    tag_49:\n        /* \"Access_Matrix.sol\":3165:3178  uint8 _access */\n      0x00\n        /* \"Access_Matrix.sol\":3196:3205  variables */\n      dup1\n        /* \"Access_Matrix.sol\":3206:3211  _hash */\n      dup6\n        /* \"Access_Matrix.sol\":3196:3212  variables[_hash] */\n      mload(0x40)\n      tag_124\n      swap2\n      swap1\n      jump(tag_63)\n    tag_124:\n      swap1\n      dup2\n      mstore\n      0x20\n      add\n      mload(0x40)\n      dup1\n      swap2\n      sub\n      swap1\n      keccak256\n        /* \"Access_Matrix.sol\":3213:3218  index */\n      dup5\n        /* \"Access_Matrix.sol\":3196:3219  variables[_hash][index] */\n      dup2\n      sload\n      dup2\n      lt\n      tag_125\n      jumpi\n      invalid\n    tag_125:\n      swap1\n      0x00\n      mstore\n      keccak256(0x00, 0x20)\n      swap1\n      0x05\n      mul\n      add\n        /* \"Access_Matrix.sol\":3196:3226  variables[_hash][index].matrix */\n      0x00\n      add\n        /* \"Access_Matrix.sol\":3227:3236  _activity */\n      dup4\n        /* \"Access_Matrix.sol\":3196:3237  variables[_hash][index].matrix[_activity] */\n      mload(0x40)\n      tag_127\n      swap2\n      swap1\n      jump(tag_63)\n    tag_127:\n      swap1\n      dup2\n      mstore\n      0x20\n      add\n      mload(0x40)\n      dup1\n      swap2\n      sub\n      swap1\n      keccak256\n        /* \"Access_Matrix.sol\":3196:3244  variables[_hash][index].matrix[_activity][_role] */\n      0x00\n        /* \"Access_Matrix.sol\":3238:3243  _role */\n      dup4\n        /* \"Access_Matrix.sol\":3196:3244  variables[_hash][index].matrix[_activity][_role] */\n      0xffffffffffffffffffffffffffffffffffffffff\n      and\n      0xffffffffffffffffffffffffffffffffffffffff\n      and\n      dup2\n      mstore\n      0x20\n      add\n      swap1\n      dup2\n      mstore\n      0x20\n      add\n      0x00\n      keccak256\n      0x00\n      swap1\n      sload\n      swap1\n      0x0100\n      exp\n      swap1\n      div\n      0xff\n      and\n        /* \"Access_Matrix.sol\":3188:3244  return  variables[_hash][index].matrix[_activity][_role] */\n      swap1\n      pop\n        /* \"Access_Matrix.sol\":3052:3251  function getAccess(string memory _hash, uint index, string memory _activity, address _role) public view returns (uint8 _access) {... */\n      swap5\n      swap4\n      pop\n      pop\n      pop\n      pop\n      jump\t// out\n        /* \"Access_Matrix.sol\":1159:1688  function uploadMatrix(string memory _hash, string memory _newName, string[] memory _activities, address[] memory _roles, uint8[] memory _vals, uint nbOfElements) public {... */\n    tag_55:\n        /* \"Access_Matrix.sol\":1336:1358  Variable memory topush */\n      tag_129\n      tag_130\n      jump\t// in\n    tag_129:\n        /* \"Access_Matrix.sol\":1361:1488  Variable( {... */\n      mload(0x40)\n      dup1\n      0x80\n      add\n      0x40\n      mstore\n      dup1\n        /* \"Access_Matrix.sol\":1441:1452  _activities */\n      dup7\n        /* \"Access_Matrix.sol\":1361:1488  Variable( {... */\n      dup2\n      mstore\n      0x20\n      add\n        /* \"Access_Matrix.sol\":1473:1479  _roles */\n      dup6\n        /* \"Access_Matrix.sol\":1361:1488  Variable( {... */\n      dup2\n      mstore\n      0x20\n      add\n        /* \"Access_Matrix.sol\":1413:1414  0 */\n      0x00\n        /* \"Access_Matrix.sol\":1361:1488  Variable( {... */\n      0xffffffff\n      and\n      dup2\n      mstore\n      0x20\n      add\n        /* \"Access_Matrix.sol\":1388:1396  _newName */\n      dup8\n        /* \"Access_Matrix.sol\":1361:1488  Variable( {... */\n      dup2\n      mstore\n      pop\n        /* \"Access_Matrix.sol\":1336:1488  Variable memory topush = Variable( {... */\n      swap1\n      pop\n        /* \"Access_Matrix.sol\":1496:1505  variables */\n      0x00\n        /* \"Access_Matrix.sol\":1506:1511  _hash */\n      dup8\n        /* \"Access_Matrix.sol\":1496:1512  variables[_hash] */\n      mload(0x40)\n      tag_131\n      swap2\n      swap1\n      jump(tag_63)\n    tag_131:\n      swap1\n      dup2\n      mstore\n      0x20\n      add\n      mload(0x40)\n      dup1\n      swap2\n      sub\n      swap1\n      keccak256\n        /* \"Access_Matrix.sol\":1518:1524  topush */\n      dup2\n        /* \"Access_Matrix.sol\":1496:1525  variables[_hash].push(topush) */\n      swap1\n      dup1\n        /* \"--CODEGEN--\":39:40   */\n      0x01\n        /* \"--CODEGEN--\":33:36   */\n      dup2\n        /* \"--CODEGEN--\":27:37   */\n      sload\n        /* \"--CODEGEN--\":23:41   */\n      add\n        /* \"--CODEGEN--\":57:67   */\n      dup1\n        /* \"--CODEGEN--\":52:55   */\n      dup3\n        /* \"--CODEGEN--\":45:68   */\n      sstore\n        /* \"--CODEGEN--\":79:89   */\n      dup1\n        /* \"--CODEGEN--\":72:89   */\n      swap2\n      pop\n        /* \"--CODEGEN--\":0:93   */\n      pop\n        /* \"Access_Matrix.sol\":1496:1525  variables[_hash].push(topush) */\n      swap1\n      0x01\n      dup3\n      sub\n      swap1\n      0x00\n      mstore\n      keccak256(0x00, 0x20)\n      swap1\n      0x05\n      mul\n      add\n      0x00\n      swap1\n      swap2\n      swap3\n      swap1\n      swap2\n      swap1\n      swap2\n      pop\n      0x00\n      dup3\n      add\n      mload\n      dup2\n      0x01\n      add\n      swap1\n      dup1\n      mload\n      swap1\n      0x20\n      add\n      swap1\n      tag_133\n      swap3\n      swap2\n      swap1\n      tag_134\n      jump\t// in\n    tag_133:\n      pop\n      0x20\n      dup3\n      add\n      mload\n      dup2\n      0x02\n      add\n      swap1\n      dup1\n      mload\n      swap1\n      0x20\n      add\n      swap1\n      tag_135\n      swap3\n      swap2\n      swap1\n      tag_136\n      jump\t// in\n    tag_135:\n      pop\n      0x40\n      dup3\n      add\n      mload\n      dup2\n      0x03\n      add\n      exp(0x0100, 0x00)\n      dup2\n      sload\n      dup2\n      0xffffffff\n      mul\n      not\n      and\n      swap1\n      dup4\n      0xffffffff\n      and\n      mul\n      or\n      swap1\n      sstore\n      pop\n      0x60\n      dup3\n      add\n      mload\n      dup2\n      0x04\n      add\n      swap1\n      dup1\n      mload\n      swap1\n      0x20\n      add\n      swap1\n      tag_137\n      swap3\n      swap2\n      swap1\n      tag_138\n      jump\t// in\n    tag_137:\n      pop\n      pop\n      pop\n      pop\n        /* \"Access_Matrix.sol\":1537:1543  uint k */\n      0x00\n        /* \"Access_Matrix.sol\":1546:1547  0 */\n      dup1\n        /* \"Access_Matrix.sol\":1537:1547  uint k = 0 */\n      swap1\n      pop\n        /* \"Access_Matrix.sol\":1533:1682  for(uint k = 0; k < nbOfElements; k++) {... */\n    tag_139:\n        /* \"Access_Matrix.sol\":1553:1565  nbOfElements */\n      dup3\n        /* \"Access_Matrix.sol\":1549:1550  k */\n      dup2\n        /* \"Access_Matrix.sol\":1549:1565  k < nbOfElements */\n      lt\n        /* \"Access_Matrix.sol\":1533:1682  for(uint k = 0; k < nbOfElements; k++) {... */\n      iszero\n      tag_140\n      jumpi\n        /* \"Access_Matrix.sol\":1664:1669  _vals */\n      dup4\n        /* \"Access_Matrix.sol\":1670:1671  k */\n      dup2\n        /* \"Access_Matrix.sol\":1664:1672  _vals[k] */\n      dup2\n      mload\n      dup2\n      lt\n      tag_142\n      jumpi\n      invalid\n    tag_142:\n      0x20\n      mul\n      0x20\n      add\n      add\n      mload\n        /* \"Access_Matrix.sol\":1582:1591  variables */\n      0x00\n        /* \"Access_Matrix.sol\":1592:1597  _hash */\n      dup10\n        /* \"Access_Matrix.sol\":1582:1598  variables[_hash] */\n      mload(0x40)\n      tag_143\n      swap2\n      swap1\n      jump(tag_63)\n    tag_143:\n      swap1\n      dup2\n      mstore\n      0x20\n      add\n      mload(0x40)\n      dup1\n      swap2\n      sub\n      swap1\n      keccak256\n        /* \"Access_Matrix.sol\":1625:1626  1 */\n      0x01\n        /* \"Access_Matrix.sol\":1599:1608  variables */\n      0x00\n        /* \"Access_Matrix.sol\":1609:1614  _hash */\n      dup12\n        /* \"Access_Matrix.sol\":1599:1615  variables[_hash] */\n      mload(0x40)\n      tag_144\n      swap2\n      swap1\n      jump(tag_63)\n    tag_144:\n      swap1\n      dup2\n      mstore\n      0x20\n      add\n      mload(0x40)\n      dup1\n      swap2\n      sub\n      swap1\n      keccak256\n        /* \"Access_Matrix.sol\":1599:1622  variables[_hash].length */\n      dup1\n      sload\n      swap1\n      pop\n        /* \"Access_Matrix.sol\":1599:1626  variables[_hash].length - 1 */\n      sub\n        /* \"Access_Matrix.sol\":1582:1627  variables[_hash][variables[_hash].length - 1] */\n      dup2\n      sload\n      dup2\n      lt\n      tag_145\n      jumpi\n      invalid\n    tag_145:\n      swap1\n      0x00\n      mstore\n      keccak256(0x00, 0x20)\n      swap1\n      0x05\n      mul\n      add\n        /* \"Access_Matrix.sol\":1582:1634  variables[_hash][variables[_hash].length - 1].matrix */\n      0x00\n      add\n        /* \"Access_Matrix.sol\":1635:1646  _activities */\n      dup8\n        /* \"Access_Matrix.sol\":1647:1648  k */\n      dup4\n        /* \"Access_Matrix.sol\":1635:1649  _activities[k] */\n      dup2\n      mload\n      dup2\n      lt\n      tag_147\n      jumpi\n      invalid\n    tag_147:\n      0x20\n      mul\n      0x20\n      add\n      add\n      mload\n        /* \"Access_Matrix.sol\":1582:1650  variables[_hash][variables[_hash].length - 1].matrix[_activities[k]] */\n      mload(0x40)\n      tag_148\n      swap2\n      swap1\n      jump(tag_149)\n    tag_148:\n      swap1\n      dup2\n      mstore\n      0x20\n      add\n      mload(0x40)\n      dup1\n      swap2\n      sub\n      swap1\n      keccak256\n        /* \"Access_Matrix.sol\":1582:1661  variables[_hash][variables[_hash].length - 1].matrix[_activities[k]][_roles[k]] */\n      0x00\n        /* \"Access_Matrix.sol\":1651:1657  _roles */\n      dup8\n        /* \"Access_Matrix.sol\":1658:1659  k */\n      dup5\n        /* \"Access_Matrix.sol\":1651:1660  _roles[k] */\n      dup2\n      mload\n      dup2\n      lt\n      tag_150\n      jumpi\n      invalid\n    tag_150:\n      0x20\n      mul\n      0x20\n      add\n      add\n      mload\n        /* \"Access_Matrix.sol\":1582:1661  variables[_hash][variables[_hash].length - 1].matrix[_activities[k]][_roles[k]] */\n      0xffffffffffffffffffffffffffffffffffffffff\n      and\n      0xffffffffffffffffffffffffffffffffffffffff\n      and\n      dup2\n      mstore\n      0x20\n      add\n      swap1\n      dup2\n      mstore\n      0x20\n      add\n      0x00\n      keccak256\n      0x00\n        /* \"Access_Matrix.sol\":1582:1672  variables[_hash][variables[_hash].length - 1].matrix[_activities[k]][_roles[k]] = _vals[k] */\n      0x0100\n      exp\n      dup2\n      sload\n      dup2\n      0xff\n      mul\n      not\n      and\n      swap1\n      dup4\n      0xff\n      and\n      mul\n      or\n      swap1\n      sstore\n      pop\n        /* \"Access_Matrix.sol\":1567:1570  k++ */\n      dup1\n      dup1\n      0x01\n      add\n      swap2\n      pop\n      pop\n        /* \"Access_Matrix.sol\":1533:1682  for(uint k = 0; k < nbOfElements; k++) {... */\n      jump(tag_139)\n    tag_140:\n      pop\n        /* \"Access_Matrix.sol\":1159:1688  function uploadMatrix(string memory _hash, string memory _newName, string[] memory _activities, address[] memory _roles, uint8[] memory _vals, uint nbOfElements) public {... */\n      pop\n      pop\n      pop\n      pop\n      pop\n      pop\n      pop\n      jump\t// out\n        /* \"Access_Matrix.sol\":1000:1153  function getVariableName(string memory _hash, uint index) public view returns (string memory _varName) {... */\n    tag_58:\n        /* \"Access_Matrix.sol\":1079:1101  string memory _varName */\n      0x60\n        /* \"Access_Matrix.sol\":1118:1127  variables */\n      0x00\n        /* \"Access_Matrix.sol\":1128:1133  _hash */\n      dup4\n        /* \"Access_Matrix.sol\":1118:1134  variables[_hash] */\n      mload(0x40)\n      tag_152\n      swap2\n      swap1\n      jump(tag_63)\n    tag_152:\n      swap1\n      dup2\n      mstore\n      0x20\n      add\n      mload(0x40)\n      dup1\n      swap2\n      sub\n      swap1\n      keccak256\n        /* \"Access_Matrix.sol\":1135:1140  index */\n      dup3\n        /* \"Access_Matrix.sol\":1118:1141  variables[_hash][index] */\n      dup2\n      sload\n      dup2\n      lt\n      tag_153\n      jumpi\n      invalid\n    tag_153:\n      swap1\n      0x00\n      mstore\n      keccak256(0x00, 0x20)\n      swap1\n      0x05\n      mul\n      add\n        /* \"Access_Matrix.sol\":1118:1146  variables[_hash][index].name */\n      0x04\n      add\n        /* \"Access_Matrix.sol\":1111:1146  return variables[_hash][index].name */\n      dup1\n      sload\n      0x01\n      dup2\n      0x01\n      and\n      iszero\n      0x0100\n      mul\n      sub\n      and\n      0x02\n      swap1\n      div\n      dup1\n      0x1f\n      add\n      0x20\n      dup1\n      swap2\n      div\n      mul\n      0x20\n      add\n      mload(0x40)\n      swap1\n      dup2\n      add\n      0x40\n      mstore\n      dup1\n      swap3\n      swap2\n      swap1\n      dup2\n      dup2\n      mstore\n      0x20\n      add\n      dup3\n      dup1\n      sload\n      0x01\n      dup2\n      0x01\n      and\n      iszero\n      0x0100\n      mul\n      sub\n      and\n      0x02\n      swap1\n      div\n      dup1\n      iszero\n      tag_155\n      jumpi\n      dup1\n      0x1f\n      lt\n      tag_156\n      jumpi\n      0x0100\n      dup1\n      dup4\n      sload\n      div\n      mul\n      dup4\n      mstore\n      swap2\n      0x20\n      add\n      swap2\n      jump(tag_155)\n    tag_156:\n      dup3\n      add\n      swap2\n      swap1\n      0x00\n      mstore\n      keccak256(0x00, 0x20)\n      swap1\n    tag_157:\n      dup2\n      sload\n      dup2\n      mstore\n      swap1\n      0x01\n      add\n      swap1\n      0x20\n      add\n      dup1\n      dup4\n      gt\n      tag_157\n      jumpi\n      dup3\n      swap1\n      sub\n      0x1f\n      and\n      dup3\n      add\n      swap2\n    tag_155:\n      pop\n      pop\n      pop\n      pop\n      pop\n      swap1\n      pop\n        /* \"Access_Matrix.sol\":1000:1153  function getVariableName(string memory _hash, uint index) public view returns (string memory _varName) {... */\n      swap3\n      swap2\n      pop\n      pop\n      jump\t// out\n        /* \"Access_Matrix.sol\":94:3688  contract Access_matrix {... */\n    tag_82:\n      dup3\n      dup1\n      sload\n      0x01\n      dup2\n      0x01\n      and\n      iszero\n      0x0100\n      mul\n      sub\n      and\n      0x02\n      swap1\n      div\n      swap1\n      0x00\n      mstore\n      keccak256(0x00, 0x20)\n      swap1\n      0x1f\n      add\n      0x20\n      swap1\n      div\n      dup2\n      add\n      swap3\n      dup3\n      0x1f\n      lt\n      tag_159\n      jumpi\n      dup1\n      mload\n      not(0xff)\n      and\n      dup4\n      dup1\n      add\n      or\n      dup6\n      sstore\n      jump(tag_158)\n    tag_159:\n      dup3\n      dup1\n      add\n      0x01\n      add\n      dup6\n      sstore\n      dup3\n      iszero\n      tag_158\n      jumpi\n      swap2\n      dup3\n      add\n    tag_160:\n      dup3\n      dup2\n      gt\n      iszero\n      tag_161\n      jumpi\n      dup3\n      mload\n      dup3\n      sstore\n      swap2\n      0x20\n      add\n      swap2\n      swap1\n      0x01\n      add\n      swap1\n      jump(tag_160)\n    tag_161:\n    tag_158:\n      pop\n      swap1\n      pop\n      tag_162\n      swap2\n      swap1\n      tag_163\n      jump\t// in\n    tag_162:\n      pop\n      swap1\n      jump\t// out\n    tag_130:\n      mload(0x40)\n      dup1\n      0x80\n      add\n      0x40\n      mstore\n      dup1\n      0x60\n      dup2\n      mstore\n      0x20\n      add\n      0x60\n      dup2\n      mstore\n      0x20\n      add\n      and(0xffffffff, 0x00)\n      dup2\n      mstore\n      0x20\n      add\n      0x60\n      dup2\n      mstore\n      pop\n      swap1\n      jump\t// out\n    tag_134:\n      dup3\n      dup1\n      sload\n      dup3\n      dup3\n      sstore\n      swap1\n      0x00\n      mstore\n      keccak256(0x00, 0x20)\n      swap1\n      dup2\n      add\n      swap3\n      dup3\n      iszero\n      tag_164\n      jumpi\n      swap2\n      0x20\n      mul\n      dup3\n      add\n    tag_165:\n      dup3\n      dup2\n      gt\n      iszero\n      tag_166\n      jumpi\n      dup3\n      mload\n      dup3\n      swap1\n      dup1\n      mload\n      swap1\n      0x20\n      add\n      swap1\n      tag_167\n      swap3\n      swap2\n      swap1\n      tag_138\n      jump\t// in\n    tag_167:\n      pop\n      swap2\n      0x20\n      add\n      swap2\n      swap1\n      0x01\n      add\n      swap1\n      jump(tag_165)\n    tag_166:\n    tag_164:\n      pop\n      swap1\n      pop\n      tag_168\n      swap2\n      swap1\n      tag_169\n      jump\t// in\n    tag_168:\n      pop\n      swap1\n      jump\t// out\n    tag_136:\n      dup3\n      dup1\n      sload\n      dup3\n      dup3\n      sstore\n      swap1\n      0x00\n      mstore\n      keccak256(0x00, 0x20)\n      swap1\n      dup2\n      add\n      swap3\n      dup3\n      iszero\n      tag_170\n      jumpi\n      swap2\n      0x20\n      mul\n      dup3\n      add\n    tag_171:\n      dup3\n      dup2\n      gt\n      iszero\n      tag_172\n      jumpi\n      dup3\n      mload\n      dup3\n      exp(0x0100, 0x00)\n      dup2\n      sload\n      dup2\n      0xffffffffffffffffffffffffffffffffffffffff\n      mul\n      not\n      and\n      swap1\n      dup4\n      0xffffffffffffffffffffffffffffffffffffffff\n      and\n      mul\n      or\n      swap1\n      sstore\n      pop\n      swap2\n      0x20\n      add\n      swap2\n      swap1\n      0x01\n      add\n      swap1\n      jump(tag_171)\n    tag_172:\n    tag_170:\n      pop\n      swap1\n      pop\n      tag_173\n      swap2\n      swap1\n      tag_174\n      jump\t// in\n    tag_173:\n      pop\n      swap1\n      jump\t// out\n    tag_138:\n      dup3\n      dup1\n      sload\n      0x01\n      dup2\n      0x01\n      and\n      iszero\n      0x0100\n      mul\n      sub\n      and\n      0x02\n      swap1\n      div\n      swap1\n      0x00\n      mstore\n      keccak256(0x00, 0x20)\n      swap1\n      0x1f\n      add\n      0x20\n      swap1\n      div\n      dup2\n      add\n      swap3\n      dup3\n      0x1f\n      lt\n      tag_176\n      jumpi\n      dup1\n      mload\n      not(0xff)\n      and\n      dup4\n      dup1\n      add\n      or\n      dup6\n      sstore\n      jump(tag_175)\n    tag_176:\n      dup3\n      dup1\n      add\n      0x01\n      add\n      dup6\n      sstore\n      dup3\n      iszero\n      tag_175\n      jumpi\n      swap2\n      dup3\n      add\n    tag_177:\n      dup3\n      dup2\n      gt\n      iszero\n      tag_178\n      jumpi\n      dup3\n      mload\n      dup3\n      sstore\n      swap2\n      0x20\n      add\n      swap2\n      swap1\n      0x01\n      add\n      swap1\n      jump(tag_177)\n    tag_178:\n    tag_175:\n      pop\n      swap1\n      pop\n      tag_179\n      swap2\n      swap1\n      tag_163\n      jump\t// in\n    tag_179:\n      pop\n      swap1\n      jump\t// out\n    tag_163:\n      tag_180\n      swap2\n      swap1\n    tag_181:\n      dup1\n      dup3\n      gt\n      iszero\n      tag_182\n      jumpi\n      0x00\n      dup2\n      0x00\n      swap1\n      sstore\n      pop\n      0x01\n      add\n      jump(tag_181)\n    tag_182:\n      pop\n      swap1\n      jump\n    tag_180:\n      swap1\n      jump\t// out\n    tag_169:\n      tag_183\n      swap2\n      swap1\n    tag_184:\n      dup1\n      dup3\n      gt\n      iszero\n      tag_185\n      jumpi\n      0x00\n      dup2\n      dup2\n      tag_186\n      swap2\n      swap1\n      tag_187\n      jump\t// in\n    tag_186:\n      pop\n      0x01\n      add\n      jump(tag_184)\n    tag_185:\n      pop\n      swap1\n      jump\n    tag_183:\n      swap1\n      jump\t// out\n    tag_174:\n      tag_188\n      swap2\n      swap1\n    tag_189:\n      dup1\n      dup3\n      gt\n      iszero\n      tag_190\n      jumpi\n      0x00\n      dup2\n      dup2\n      0x0100\n      exp\n      dup2\n      sload\n      swap1\n      0xffffffffffffffffffffffffffffffffffffffff\n      mul\n      not\n      and\n      swap1\n      sstore\n      pop\n      0x01\n      add\n      jump(tag_189)\n    tag_190:\n      pop\n      swap1\n      jump\n    tag_188:\n      swap1\n      jump\t// out\n    tag_187:\n      pop\n      dup1\n      sload\n      0x01\n      dup2\n      0x01\n      and\n      iszero\n      0x0100\n      mul\n      sub\n      and\n      0x02\n      swap1\n      div\n      0x00\n      dup3\n      sstore\n      dup1\n      0x1f\n      lt\n      tag_192\n      jumpi\n      pop\n      jump(tag_191)\n    tag_192:\n      0x1f\n      add\n      0x20\n      swap1\n      div\n      swap1\n      0x00\n      mstore\n      keccak256(0x00, 0x20)\n      swap1\n      dup2\n      add\n      swap1\n      tag_193\n      swap2\n      swap1\n      tag_163\n      jump\t// in\n    tag_193:\n    tag_191:\n      pop\n      jump\t// out\n        /* \"--CODEGEN--\":5:135   */\n    tag_195:\n      0x00\n        /* \"--CODEGEN--\":85:91   */\n      dup2\n        /* \"--CODEGEN--\":72:92   */\n      calldataload\n        /* \"--CODEGEN--\":63:92   */\n      swap1\n      pop\n        /* \"--CODEGEN--\":97:130   */\n      tag_196\n        /* \"--CODEGEN--\":124:129   */\n      dup2\n        /* \"--CODEGEN--\":97:130   */\n      jump(tag_197)\n    tag_196:\n        /* \"--CODEGEN--\":57:135   */\n      swap3\n      swap2\n      pop\n      pop\n      jump\n        /* \"--CODEGEN--\":160:867   */\n    tag_198:\n      0x00\n        /* \"--CODEGEN--\":277:280   */\n      dup3\n        /* \"--CODEGEN--\":270:274   */\n      0x1f\n        /* \"--CODEGEN--\":262:268   */\n      dup4\n        /* \"--CODEGEN--\":258:275   */\n      add\n        /* \"--CODEGEN--\":254:281   */\n      slt\n        /* \"--CODEGEN--\":244:246   */\n      tag_199\n      jumpi\n        /* \"--CODEGEN--\":295:296   */\n      0x00\n        /* \"--CODEGEN--\":292:293   */\n      dup1\n        /* \"--CODEGEN--\":285:297   */\n      revert\n        /* \"--CODEGEN--\":244:246   */\n    tag_199:\n        /* \"--CODEGEN--\":332:338   */\n      dup2\n        /* \"--CODEGEN--\":319:339   */\n      calldataload\n        /* \"--CODEGEN--\":354:434   */\n      tag_200\n        /* \"--CODEGEN--\":369:433   */\n      tag_201\n        /* \"--CODEGEN--\":426:432   */\n      dup3\n        /* \"--CODEGEN--\":369:433   */\n      jump(tag_202)\n    tag_201:\n        /* \"--CODEGEN--\":354:434   */\n      jump(tag_203)\n    tag_200:\n        /* \"--CODEGEN--\":345:434   */\n      swap2\n      pop\n        /* \"--CODEGEN--\":451:456   */\n      dup2\n        /* \"--CODEGEN--\":476:482   */\n      dup2\n        /* \"--CODEGEN--\":469:474   */\n      dup4\n        /* \"--CODEGEN--\":462:483   */\n      mstore\n        /* \"--CODEGEN--\":506:510   */\n      0x20\n        /* \"--CODEGEN--\":498:504   */\n      dup5\n        /* \"--CODEGEN--\":494:511   */\n      add\n        /* \"--CODEGEN--\":484:511   */\n      swap4\n      pop\n        /* \"--CODEGEN--\":528:532   */\n      0x20\n        /* \"--CODEGEN--\":523:526   */\n      dup2\n        /* \"--CODEGEN--\":519:533   */\n      add\n        /* \"--CODEGEN--\":512:533   */\n      swap1\n      pop\n        /* \"--CODEGEN--\":581:587   */\n      dup4\n        /* \"--CODEGEN--\":628:631   */\n      dup6\n        /* \"--CODEGEN--\":620:624   */\n      0x20\n        /* \"--CODEGEN--\":612:618   */\n      dup5\n        /* \"--CODEGEN--\":608:625   */\n      mul\n        /* \"--CODEGEN--\":603:606   */\n      dup3\n        /* \"--CODEGEN--\":599:626   */\n      add\n        /* \"--CODEGEN--\":596:632   */\n      gt\n        /* \"--CODEGEN--\":593:595   */\n      iszero\n      tag_204\n      jumpi\n        /* \"--CODEGEN--\":645:646   */\n      0x00\n        /* \"--CODEGEN--\":642:643   */\n      dup1\n        /* \"--CODEGEN--\":635:647   */\n      revert\n        /* \"--CODEGEN--\":593:595   */\n    tag_204:\n        /* \"--CODEGEN--\":670:671   */\n      0x00\n        /* \"--CODEGEN--\":655:861   */\n    tag_205:\n        /* \"--CODEGEN--\":680:686   */\n      dup4\n        /* \"--CODEGEN--\":677:678   */\n      dup2\n        /* \"--CODEGEN--\":674:687   */\n      lt\n        /* \"--CODEGEN--\":655:861   */\n      iszero\n      tag_207\n      jumpi\n        /* \"--CODEGEN--\":738:741   */\n      dup2\n        /* \"--CODEGEN--\":760:797   */\n      tag_208\n        /* \"--CODEGEN--\":793:796   */\n      dup9\n        /* \"--CODEGEN--\":781:791   */\n      dup3\n        /* \"--CODEGEN--\":760:797   */\n      jump(tag_195)\n    tag_208:\n        /* \"--CODEGEN--\":755:758   */\n      dup5\n        /* \"--CODEGEN--\":748:798   */\n      mstore\n        /* \"--CODEGEN--\":821:825   */\n      0x20\n        /* \"--CODEGEN--\":816:819   */\n      dup5\n        /* \"--CODEGEN--\":812:826   */\n      add\n        /* \"--CODEGEN--\":805:826   */\n      swap4\n      pop\n        /* \"--CODEGEN--\":849:853   */\n      0x20\n        /* \"--CODEGEN--\":844:847   */\n      dup4\n        /* \"--CODEGEN--\":840:854   */\n      add\n        /* \"--CODEGEN--\":833:854   */\n      swap3\n      pop\n        /* \"--CODEGEN--\":712:861   */\n      pop\n        /* \"--CODEGEN--\":702:703   */\n      0x01\n        /* \"--CODEGEN--\":699:700   */\n      dup2\n        /* \"--CODEGEN--\":695:704   */\n      add\n        /* \"--CODEGEN--\":690:704   */\n      swap1\n      pop\n        /* \"--CODEGEN--\":655:861   */\n      jump(tag_205)\n    tag_207:\n        /* \"--CODEGEN--\":659:673   */\n      pop\n        /* \"--CODEGEN--\":237:867   */\n      pop\n      pop\n      pop\n      swap3\n      swap2\n      pop\n      pop\n      jump\n        /* \"--CODEGEN--\":892:1588   */\n    tag_209:\n      0x00\n        /* \"--CODEGEN--\":1015:1018   */\n      dup3\n        /* \"--CODEGEN--\":1008:1012   */\n      0x1f\n        /* \"--CODEGEN--\":1000:1006   */\n      dup4\n        /* \"--CODEGEN--\":996:1013   */\n      add\n        /* \"--CODEGEN--\":992:1019   */\n      slt\n        /* \"--CODEGEN--\":982:984   */\n      tag_210\n      jumpi\n        /* \"--CODEGEN--\":1033:1034   */\n      0x00\n        /* \"--CODEGEN--\":1030:1031   */\n      dup1\n        /* \"--CODEGEN--\":1023:1035   */\n      revert\n        /* \"--CODEGEN--\":982:984   */\n    tag_210:\n        /* \"--CODEGEN--\":1070:1076   */\n      dup2\n        /* \"--CODEGEN--\":1057:1077   */\n      calldataload\n        /* \"--CODEGEN--\":1092:1178   */\n      tag_211\n        /* \"--CODEGEN--\":1107:1177   */\n      tag_212\n        /* \"--CODEGEN--\":1170:1176   */\n      dup3\n        /* \"--CODEGEN--\":1107:1177   */\n      jump(tag_213)\n    tag_212:\n        /* \"--CODEGEN--\":1092:1178   */\n      jump(tag_203)\n    tag_211:\n        /* \"--CODEGEN--\":1083:1178   */\n      swap2\n      pop\n        /* \"--CODEGEN--\":1195:1200   */\n      dup2\n        /* \"--CODEGEN--\":1220:1226   */\n      dup2\n        /* \"--CODEGEN--\":1213:1218   */\n      dup4\n        /* \"--CODEGEN--\":1206:1227   */\n      mstore\n        /* \"--CODEGEN--\":1250:1254   */\n      0x20\n        /* \"--CODEGEN--\":1242:1248   */\n      dup5\n        /* \"--CODEGEN--\":1238:1255   */\n      add\n        /* \"--CODEGEN--\":1228:1255   */\n      swap4\n      pop\n        /* \"--CODEGEN--\":1272:1276   */\n      0x20\n        /* \"--CODEGEN--\":1267:1270   */\n      dup2\n        /* \"--CODEGEN--\":1263:1277   */\n      add\n        /* \"--CODEGEN--\":1256:1277   */\n      swap1\n      pop\n        /* \"--CODEGEN--\":1325:1331   */\n      dup4\n        /* \"--CODEGEN--\":1358:1359   */\n      0x00\n        /* \"--CODEGEN--\":1343:1582   */\n    tag_214:\n        /* \"--CODEGEN--\":1368:1374   */\n      dup4\n        /* \"--CODEGEN--\":1365:1366   */\n      dup2\n        /* \"--CODEGEN--\":1362:1375   */\n      lt\n        /* \"--CODEGEN--\":1343:1582   */\n      iszero\n      tag_216\n      jumpi\n        /* \"--CODEGEN--\":1451:1454   */\n      dup2\n        /* \"--CODEGEN--\":1438:1455   */\n      calldataload\n        /* \"--CODEGEN--\":1430:1436   */\n      dup7\n        /* \"--CODEGEN--\":1426:1456   */\n      add\n        /* \"--CODEGEN--\":1475:1518   */\n      tag_217\n        /* \"--CODEGEN--\":1514:1517   */\n      dup9\n        /* \"--CODEGEN--\":1502:1512   */\n      dup3\n        /* \"--CODEGEN--\":1475:1518   */\n      jump(tag_218)\n    tag_217:\n        /* \"--CODEGEN--\":1470:1473   */\n      dup5\n        /* \"--CODEGEN--\":1463:1519   */\n      mstore\n        /* \"--CODEGEN--\":1542:1546   */\n      0x20\n        /* \"--CODEGEN--\":1537:1540   */\n      dup5\n        /* \"--CODEGEN--\":1533:1547   */\n      add\n        /* \"--CODEGEN--\":1526:1547   */\n      swap4\n      pop\n        /* \"--CODEGEN--\":1570:1574   */\n      0x20\n        /* \"--CODEGEN--\":1565:1568   */\n      dup4\n        /* \"--CODEGEN--\":1561:1575   */\n      add\n        /* \"--CODEGEN--\":1554:1575   */\n      swap3\n      pop\n        /* \"--CODEGEN--\":1400:1582   */\n      pop\n        /* \"--CODEGEN--\":1390:1391   */\n      0x01\n        /* \"--CODEGEN--\":1387:1388   */\n      dup2\n        /* \"--CODEGEN--\":1383:1392   */\n      add\n        /* \"--CODEGEN--\":1378:1392   */\n      swap1\n      pop\n        /* \"--CODEGEN--\":1343:1582   */\n      jump(tag_214)\n    tag_216:\n        /* \"--CODEGEN--\":1347:1361   */\n      pop\n        /* \"--CODEGEN--\":975:1588   */\n      pop\n      pop\n      pop\n      swap3\n      swap2\n      pop\n      pop\n      jump\n        /* \"--CODEGEN--\":1612:2313   */\n    tag_219:\n      0x00\n        /* \"--CODEGEN--\":1727:1730   */\n      dup3\n        /* \"--CODEGEN--\":1720:1724   */\n      0x1f\n        /* \"--CODEGEN--\":1712:1718   */\n      dup4\n        /* \"--CODEGEN--\":1708:1725   */\n      add\n        /* \"--CODEGEN--\":1704:1731   */\n      slt\n        /* \"--CODEGEN--\":1694:1696   */\n      tag_220\n      jumpi\n        /* \"--CODEGEN--\":1745:1746   */\n      0x00\n        /* \"--CODEGEN--\":1742:1743   */\n      dup1\n        /* \"--CODEGEN--\":1735:1747   */\n      revert\n        /* \"--CODEGEN--\":1694:1696   */\n    tag_220:\n        /* \"--CODEGEN--\":1782:1788   */\n      dup2\n        /* \"--CODEGEN--\":1769:1789   */\n      calldataload\n        /* \"--CODEGEN--\":1804:1882   */\n      tag_221\n        /* \"--CODEGEN--\":1819:1881   */\n      tag_222\n        /* \"--CODEGEN--\":1874:1880   */\n      dup3\n        /* \"--CODEGEN--\":1819:1881   */\n      jump(tag_223)\n    tag_222:\n        /* \"--CODEGEN--\":1804:1882   */\n      jump(tag_203)\n    tag_221:\n        /* \"--CODEGEN--\":1795:1882   */\n      swap2\n      pop\n        /* \"--CODEGEN--\":1899:1904   */\n      dup2\n        /* \"--CODEGEN--\":1924:1930   */\n      dup2\n        /* \"--CODEGEN--\":1917:1922   */\n      dup4\n        /* \"--CODEGEN--\":1910:1931   */\n      mstore\n        /* \"--CODEGEN--\":1954:1958   */\n      0x20\n        /* \"--CODEGEN--\":1946:1952   */\n      dup5\n        /* \"--CODEGEN--\":1942:1959   */\n      add\n        /* \"--CODEGEN--\":1932:1959   */\n      swap4\n      pop\n        /* \"--CODEGEN--\":1976:1980   */\n      0x20\n        /* \"--CODEGEN--\":1971:1974   */\n      dup2\n        /* \"--CODEGEN--\":1967:1981   */\n      add\n        /* \"--CODEGEN--\":1960:1981   */\n      swap1\n      pop\n        /* \"--CODEGEN--\":2029:2035   */\n      dup4\n        /* \"--CODEGEN--\":2076:2079   */\n      dup6\n        /* \"--CODEGEN--\":2068:2072   */\n      0x20\n        /* \"--CODEGEN--\":2060:2066   */\n      dup5\n        /* \"--CODEGEN--\":2056:2073   */\n      mul\n        /* \"--CODEGEN--\":2051:2054   */\n      dup3\n        /* \"--CODEGEN--\":2047:2074   */\n      add\n        /* \"--CODEGEN--\":2044:2080   */\n      gt\n        /* \"--CODEGEN--\":2041:2043   */\n      iszero\n      tag_224\n      jumpi\n        /* \"--CODEGEN--\":2093:2094   */\n      0x00\n        /* \"--CODEGEN--\":2090:2091   */\n      dup1\n        /* \"--CODEGEN--\":2083:2095   */\n      revert\n        /* \"--CODEGEN--\":2041:2043   */\n    tag_224:\n        /* \"--CODEGEN--\":2118:2119   */\n      0x00\n        /* \"--CODEGEN--\":2103:2307   */\n    tag_225:\n        /* \"--CODEGEN--\":2128:2134   */\n      dup4\n        /* \"--CODEGEN--\":2125:2126   */\n      dup2\n        /* \"--CODEGEN--\":2122:2135   */\n      lt\n        /* \"--CODEGEN--\":2103:2307   */\n      iszero\n      tag_227\n      jumpi\n        /* \"--CODEGEN--\":2186:2189   */\n      dup2\n        /* \"--CODEGEN--\":2208:2243   */\n      tag_228\n        /* \"--CODEGEN--\":2239:2242   */\n      dup9\n        /* \"--CODEGEN--\":2227:2237   */\n      dup3\n        /* \"--CODEGEN--\":2208:2243   */\n      jump(tag_229)\n    tag_228:\n        /* \"--CODEGEN--\":2203:2206   */\n      dup5\n        /* \"--CODEGEN--\":2196:2244   */\n      mstore\n        /* \"--CODEGEN--\":2267:2271   */\n      0x20\n        /* \"--CODEGEN--\":2262:2265   */\n      dup5\n        /* \"--CODEGEN--\":2258:2272   */\n      add\n        /* \"--CODEGEN--\":2251:2272   */\n      swap4\n      pop\n        /* \"--CODEGEN--\":2295:2299   */\n      0x20\n        /* \"--CODEGEN--\":2290:2293   */\n      dup4\n        /* \"--CODEGEN--\":2286:2300   */\n      add\n        /* \"--CODEGEN--\":2279:2300   */\n      swap3\n      pop\n        /* \"--CODEGEN--\":2160:2307   */\n      pop\n        /* \"--CODEGEN--\":2150:2151   */\n      0x01\n        /* \"--CODEGEN--\":2147:2148   */\n      dup2\n        /* \"--CODEGEN--\":2143:2152   */\n      add\n        /* \"--CODEGEN--\":2138:2152   */\n      swap1\n      pop\n        /* \"--CODEGEN--\":2103:2307   */\n      jump(tag_225)\n    tag_227:\n        /* \"--CODEGEN--\":2107:2121   */\n      pop\n        /* \"--CODEGEN--\":1687:2313   */\n      pop\n      pop\n      pop\n      swap3\n      swap2\n      pop\n      pop\n      jump\n        /* \"--CODEGEN--\":2322:2756   */\n    tag_218:\n      0x00\n        /* \"--CODEGEN--\":2420:2423   */\n      dup3\n        /* \"--CODEGEN--\":2413:2417   */\n      0x1f\n        /* \"--CODEGEN--\":2405:2411   */\n      dup4\n        /* \"--CODEGEN--\":2401:2418   */\n      add\n        /* \"--CODEGEN--\":2397:2424   */\n      slt\n        /* \"--CODEGEN--\":2387:2389   */\n      tag_230\n      jumpi\n        /* \"--CODEGEN--\":2438:2439   */\n      0x00\n        /* \"--CODEGEN--\":2435:2436   */\n      dup1\n        /* \"--CODEGEN--\":2428:2440   */\n      revert\n        /* \"--CODEGEN--\":2387:2389   */\n    tag_230:\n        /* \"--CODEGEN--\":2475:2481   */\n      dup2\n        /* \"--CODEGEN--\":2462:2482   */\n      calldataload\n        /* \"--CODEGEN--\":2497:2558   */\n      tag_231\n        /* \"--CODEGEN--\":2512:2557   */\n      tag_232\n        /* \"--CODEGEN--\":2550:2556   */\n      dup3\n        /* \"--CODEGEN--\":2512:2557   */\n      jump(tag_233)\n    tag_232:\n        /* \"--CODEGEN--\":2497:2558   */\n      jump(tag_203)\n    tag_231:\n        /* \"--CODEGEN--\":2488:2558   */\n      swap2\n      pop\n        /* \"--CODEGEN--\":2578:2584   */\n      dup1\n        /* \"--CODEGEN--\":2571:2576   */\n      dup3\n        /* \"--CODEGEN--\":2564:2585   */\n      mstore\n        /* \"--CODEGEN--\":2614:2618   */\n      0x20\n        /* \"--CODEGEN--\":2606:2612   */\n      dup4\n        /* \"--CODEGEN--\":2602:2619   */\n      add\n        /* \"--CODEGEN--\":2647:2651   */\n      0x20\n        /* \"--CODEGEN--\":2640:2645   */\n      dup4\n        /* \"--CODEGEN--\":2636:2652   */\n      add\n        /* \"--CODEGEN--\":2682:2685   */\n      dup6\n        /* \"--CODEGEN--\":2673:2679   */\n      dup4\n        /* \"--CODEGEN--\":2668:2671   */\n      dup4\n        /* \"--CODEGEN--\":2664:2680   */\n      add\n        /* \"--CODEGEN--\":2661:2686   */\n      gt\n        /* \"--CODEGEN--\":2658:2660   */\n      iszero\n      tag_234\n      jumpi\n        /* \"--CODEGEN--\":2699:2700   */\n      0x00\n        /* \"--CODEGEN--\":2696:2697   */\n      dup1\n        /* \"--CODEGEN--\":2689:2701   */\n      revert\n        /* \"--CODEGEN--\":2658:2660   */\n    tag_234:\n        /* \"--CODEGEN--\":2709:2750   */\n      tag_235\n        /* \"--CODEGEN--\":2743:2749   */\n      dup4\n        /* \"--CODEGEN--\":2738:2741   */\n      dup3\n        /* \"--CODEGEN--\":2733:2736   */\n      dup5\n        /* \"--CODEGEN--\":2709:2750   */\n      jump(tag_236)\n    tag_235:\n        /* \"--CODEGEN--\":2380:2756   */\n      pop\n      pop\n      pop\n      swap3\n      swap2\n      pop\n      pop\n      jump\n        /* \"--CODEGEN--\":2765:3207   */\n    tag_237:\n      0x00\n        /* \"--CODEGEN--\":2867:2870   */\n      dup3\n        /* \"--CODEGEN--\":2860:2864   */\n      0x1f\n        /* \"--CODEGEN--\":2852:2858   */\n      dup4\n        /* \"--CODEGEN--\":2848:2865   */\n      add\n        /* \"--CODEGEN--\":2844:2871   */\n      slt\n        /* \"--CODEGEN--\":2834:2836   */\n      tag_238\n      jumpi\n        /* \"--CODEGEN--\":2885:2886   */\n      0x00\n        /* \"--CODEGEN--\":2882:2883   */\n      dup1\n        /* \"--CODEGEN--\":2875:2887   */\n      revert\n        /* \"--CODEGEN--\":2834:2836   */\n    tag_238:\n        /* \"--CODEGEN--\":2922:2928   */\n      dup2\n        /* \"--CODEGEN--\":2909:2929   */\n      calldataload\n        /* \"--CODEGEN--\":2944:3009   */\n      tag_239\n        /* \"--CODEGEN--\":2959:3008   */\n      tag_240\n        /* \"--CODEGEN--\":3001:3007   */\n      dup3\n        /* \"--CODEGEN--\":2959:3008   */\n      jump(tag_241)\n    tag_240:\n        /* \"--CODEGEN--\":2944:3009   */\n      jump(tag_203)\n    tag_239:\n        /* \"--CODEGEN--\":2935:3009   */\n      swap2\n      pop\n        /* \"--CODEGEN--\":3029:3035   */\n      dup1\n        /* \"--CODEGEN--\":3022:3027   */\n      dup3\n        /* \"--CODEGEN--\":3015:3036   */\n      mstore\n        /* \"--CODEGEN--\":3065:3069   */\n      0x20\n        /* \"--CODEGEN--\":3057:3063   */\n      dup4\n        /* \"--CODEGEN--\":3053:3070   */\n      add\n        /* \"--CODEGEN--\":3098:3102   */\n      0x20\n        /* \"--CODEGEN--\":3091:3096   */\n      dup4\n        /* \"--CODEGEN--\":3087:3103   */\n      add\n        /* \"--CODEGEN--\":3133:3136   */\n      dup6\n        /* \"--CODEGEN--\":3124:3130   */\n      dup4\n        /* \"--CODEGEN--\":3119:3122   */\n      dup4\n        /* \"--CODEGEN--\":3115:3131   */\n      add\n        /* \"--CODEGEN--\":3112:3137   */\n      gt\n        /* \"--CODEGEN--\":3109:3111   */\n      iszero\n      tag_242\n      jumpi\n        /* \"--CODEGEN--\":3150:3151   */\n      0x00\n        /* \"--CODEGEN--\":3147:3148   */\n      dup1\n        /* \"--CODEGEN--\":3140:3152   */\n      revert\n        /* \"--CODEGEN--\":3109:3111   */\n    tag_242:\n        /* \"--CODEGEN--\":3160:3201   */\n      tag_243\n        /* \"--CODEGEN--\":3194:3200   */\n      dup4\n        /* \"--CODEGEN--\":3189:3192   */\n      dup3\n        /* \"--CODEGEN--\":3184:3187   */\n      dup5\n        /* \"--CODEGEN--\":3160:3201   */\n      jump(tag_236)\n    tag_243:\n        /* \"--CODEGEN--\":2827:3207   */\n      pop\n      pop\n      pop\n      swap3\n      swap2\n      pop\n      pop\n      jump\n        /* \"--CODEGEN--\":3215:3345   */\n    tag_244:\n      0x00\n        /* \"--CODEGEN--\":3295:3301   */\n      dup2\n        /* \"--CODEGEN--\":3282:3302   */\n      calldataload\n        /* \"--CODEGEN--\":3273:3302   */\n      swap1\n      pop\n        /* \"--CODEGEN--\":3307:3340   */\n      tag_245\n        /* \"--CODEGEN--\":3334:3339   */\n      dup2\n        /* \"--CODEGEN--\":3307:3340   */\n      jump(tag_246)\n    tag_245:\n        /* \"--CODEGEN--\":3267:3345   */\n      swap3\n      swap2\n      pop\n      pop\n      jump\n        /* \"--CODEGEN--\":3352:3480   */\n    tag_247:\n      0x00\n        /* \"--CODEGEN--\":3431:3437   */\n      dup2\n        /* \"--CODEGEN--\":3418:3438   */\n      calldataload\n        /* \"--CODEGEN--\":3409:3438   */\n      swap1\n      pop\n        /* \"--CODEGEN--\":3443:3475   */\n      tag_248\n        /* \"--CODEGEN--\":3469:3474   */\n      dup2\n        /* \"--CODEGEN--\":3443:3475   */\n      jump(tag_249)\n    tag_248:\n        /* \"--CODEGEN--\":3403:3480   */\n      swap3\n      swap2\n      pop\n      pop\n      jump\n        /* \"--CODEGEN--\":3487:3613   */\n    tag_229:\n      0x00\n        /* \"--CODEGEN--\":3565:3571   */\n      dup2\n        /* \"--CODEGEN--\":3552:3572   */\n      calldataload\n        /* \"--CODEGEN--\":3543:3572   */\n      swap1\n      pop\n        /* \"--CODEGEN--\":3577:3608   */\n      tag_250\n        /* \"--CODEGEN--\":3602:3607   */\n      dup2\n        /* \"--CODEGEN--\":3577:3608   */\n      jump(tag_251)\n    tag_250:\n        /* \"--CODEGEN--\":3537:3613   */\n      swap3\n      swap2\n      pop\n      pop\n      jump\n        /* \"--CODEGEN--\":3620:3967   */\n    tag_37:\n      0x00\n        /* \"--CODEGEN--\":3734:3736   */\n      0x20\n        /* \"--CODEGEN--\":3722:3731   */\n      dup3\n        /* \"--CODEGEN--\":3713:3720   */\n      dup5\n        /* \"--CODEGEN--\":3709:3732   */\n      sub\n        /* \"--CODEGEN--\":3705:3737   */\n      slt\n        /* \"--CODEGEN--\":3702:3704   */\n      iszero\n      tag_252\n      jumpi\n        /* \"--CODEGEN--\":3750:3751   */\n      0x00\n        /* \"--CODEGEN--\":3747:3748   */\n      dup1\n        /* \"--CODEGEN--\":3740:3752   */\n      revert\n        /* \"--CODEGEN--\":3702:3704   */\n    tag_252:\n        /* \"--CODEGEN--\":3813:3814   */\n      0x00\n        /* \"--CODEGEN--\":3802:3811   */\n      dup3\n        /* \"--CODEGEN--\":3798:3815   */\n      add\n        /* \"--CODEGEN--\":3785:3816   */\n      calldataload\n        /* \"--CODEGEN--\":3836:3854   */\n      0xffffffffffffffff\n        /* \"--CODEGEN--\":3828:3834   */\n      dup2\n        /* \"--CODEGEN--\":3825:3855   */\n      gt\n        /* \"--CODEGEN--\":3822:3824   */\n      iszero\n      tag_253\n      jumpi\n        /* \"--CODEGEN--\":3868:3869   */\n      0x00\n        /* \"--CODEGEN--\":3865:3866   */\n      dup1\n        /* \"--CODEGEN--\":3858:3870   */\n      revert\n        /* \"--CODEGEN--\":3822:3824   */\n    tag_253:\n        /* \"--CODEGEN--\":3888:3951   */\n      tag_254\n        /* \"--CODEGEN--\":3943:3950   */\n      dup5\n        /* \"--CODEGEN--\":3934:3940   */\n      dup3\n        /* \"--CODEGEN--\":3923:3932   */\n      dup6\n        /* \"--CODEGEN--\":3919:3941   */\n      add\n        /* \"--CODEGEN--\":3888:3951   */\n      jump(tag_237)\n    tag_254:\n        /* \"--CODEGEN--\":3878:3951   */\n      swap2\n      pop\n        /* \"--CODEGEN--\":3764:3957   */\n      pop\n        /* \"--CODEGEN--\":3696:3967   */\n      swap3\n      swap2\n      pop\n      pop\n      jump\n        /* \"--CODEGEN--\":3974:5471   */\n    tag_54:\n      0x00\n      dup1\n      0x00\n      dup1\n      0x00\n      dup1\n        /* \"--CODEGEN--\":4262:4265   */\n      0xc0\n        /* \"--CODEGEN--\":4250:4259   */\n      dup8\n        /* \"--CODEGEN--\":4241:4248   */\n      dup10\n        /* \"--CODEGEN--\":4237:4260   */\n      sub\n        /* \"--CODEGEN--\":4233:4266   */\n      slt\n        /* \"--CODEGEN--\":4230:4232   */\n      iszero\n      tag_255\n      jumpi\n        /* \"--CODEGEN--\":4279:4280   */\n      0x00\n        /* \"--CODEGEN--\":4276:4277   */\n      dup1\n        /* \"--CODEGEN--\":4269:4281   */\n      revert\n        /* \"--CODEGEN--\":4230:4232   */\n    tag_255:\n        /* \"--CODEGEN--\":4342:4343   */\n      0x00\n        /* \"--CODEGEN--\":4331:4340   */\n      dup8\n        /* \"--CODEGEN--\":4327:4344   */\n      add\n        /* \"--CODEGEN--\":4314:4345   */\n      calldataload\n        /* \"--CODEGEN--\":4365:4383   */\n      0xffffffffffffffff\n        /* \"--CODEGEN--\":4357:4363   */\n      dup2\n        /* \"--CODEGEN--\":4354:4384   */\n      gt\n        /* \"--CODEGEN--\":4351:4353   */\n      iszero\n      tag_256\n      jumpi\n        /* \"--CODEGEN--\":4397:4398   */\n      0x00\n        /* \"--CODEGEN--\":4394:4395   */\n      dup1\n        /* \"--CODEGEN--\":4387:4399   */\n      revert\n        /* \"--CODEGEN--\":4351:4353   */\n    tag_256:\n        /* \"--CODEGEN--\":4417:4480   */\n      tag_257\n        /* \"--CODEGEN--\":4472:4479   */\n      dup10\n        /* \"--CODEGEN--\":4463:4469   */\n      dup3\n        /* \"--CODEGEN--\":4452:4461   */\n      dup11\n        /* \"--CODEGEN--\":4448:4470   */\n      add\n        /* \"--CODEGEN--\":4417:4480   */\n      jump(tag_237)\n    tag_257:\n        /* \"--CODEGEN--\":4407:4480   */\n      swap7\n      pop\n        /* \"--CODEGEN--\":4293:4486   */\n      pop\n        /* \"--CODEGEN--\":4545:4547   */\n      0x20\n        /* \"--CODEGEN--\":4534:4543   */\n      dup8\n        /* \"--CODEGEN--\":4530:4548   */\n      add\n        /* \"--CODEGEN--\":4517:4549   */\n      calldataload\n        /* \"--CODEGEN--\":4569:4587   */\n      0xffffffffffffffff\n        /* \"--CODEGEN--\":4561:4567   */\n      dup2\n        /* \"--CODEGEN--\":4558:4588   */\n      gt\n        /* \"--CODEGEN--\":4555:4557   */\n      iszero\n      tag_258\n      jumpi\n        /* \"--CODEGEN--\":4601:4602   */\n      0x00\n        /* \"--CODEGEN--\":4598:4599   */\n      dup1\n        /* \"--CODEGEN--\":4591:4603   */\n      revert\n        /* \"--CODEGEN--\":4555:4557   */\n    tag_258:\n        /* \"--CODEGEN--\":4621:4684   */\n      tag_259\n        /* \"--CODEGEN--\":4676:4683   */\n      dup10\n        /* \"--CODEGEN--\":4667:4673   */\n      dup3\n        /* \"--CODEGEN--\":4656:4665   */\n      dup11\n        /* \"--CODEGEN--\":4652:4674   */\n      add\n        /* \"--CODEGEN--\":4621:4684   */\n      jump(tag_237)\n    tag_259:\n        /* \"--CODEGEN--\":4611:4684   */\n      swap6\n      pop\n        /* \"--CODEGEN--\":4496:4690   */\n      pop\n        /* \"--CODEGEN--\":4749:4751   */\n      0x40\n        /* \"--CODEGEN--\":4738:4747   */\n      dup8\n        /* \"--CODEGEN--\":4734:4752   */\n      add\n        /* \"--CODEGEN--\":4721:4753   */\n      calldataload\n        /* \"--CODEGEN--\":4773:4791   */\n      0xffffffffffffffff\n        /* \"--CODEGEN--\":4765:4771   */\n      dup2\n        /* \"--CODEGEN--\":4762:4792   */\n      gt\n        /* \"--CODEGEN--\":4759:4761   */\n      iszero\n      tag_260\n      jumpi\n        /* \"--CODEGEN--\":4805:4806   */\n      0x00\n        /* \"--CODEGEN--\":4802:4803   */\n      dup1\n        /* \"--CODEGEN--\":4795:4807   */\n      revert\n        /* \"--CODEGEN--\":4759:4761   */\n    tag_260:\n        /* \"--CODEGEN--\":4825:4909   */\n      tag_261\n        /* \"--CODEGEN--\":4901:4908   */\n      dup10\n        /* \"--CODEGEN--\":4892:4898   */\n      dup3\n        /* \"--CODEGEN--\":4881:4890   */\n      dup11\n        /* \"--CODEGEN--\":4877:4899   */\n      add\n        /* \"--CODEGEN--\":4825:4909   */\n      jump(tag_209)\n    tag_261:\n        /* \"--CODEGEN--\":4815:4909   */\n      swap5\n      pop\n        /* \"--CODEGEN--\":4700:4915   */\n      pop\n        /* \"--CODEGEN--\":4974:4976   */\n      0x60\n        /* \"--CODEGEN--\":4963:4972   */\n      dup8\n        /* \"--CODEGEN--\":4959:4977   */\n      add\n        /* \"--CODEGEN--\":4946:4978   */\n      calldataload\n        /* \"--CODEGEN--\":4998:5016   */\n      0xffffffffffffffff\n        /* \"--CODEGEN--\":4990:4996   */\n      dup2\n        /* \"--CODEGEN--\":4987:5017   */\n      gt\n        /* \"--CODEGEN--\":4984:4986   */\n      iszero\n      tag_262\n      jumpi\n        /* \"--CODEGEN--\":5030:5031   */\n      0x00\n        /* \"--CODEGEN--\":5027:5028   */\n      dup1\n        /* \"--CODEGEN--\":5020:5032   */\n      revert\n        /* \"--CODEGEN--\":4984:4986   */\n    tag_262:\n        /* \"--CODEGEN--\":5050:5128   */\n      tag_263\n        /* \"--CODEGEN--\":5120:5127   */\n      dup10\n        /* \"--CODEGEN--\":5111:5117   */\n      dup3\n        /* \"--CODEGEN--\":5100:5109   */\n      dup11\n        /* \"--CODEGEN--\":5096:5118   */\n      add\n        /* \"--CODEGEN--\":5050:5128   */\n      jump(tag_198)\n    tag_263:\n        /* \"--CODEGEN--\":5040:5128   */\n      swap4\n      pop\n        /* \"--CODEGEN--\":4925:5134   */\n      pop\n        /* \"--CODEGEN--\":5193:5196   */\n      0x80\n        /* \"--CODEGEN--\":5182:5191   */\n      dup8\n        /* \"--CODEGEN--\":5178:5197   */\n      add\n        /* \"--CODEGEN--\":5165:5198   */\n      calldataload\n        /* \"--CODEGEN--\":5218:5236   */\n      0xffffffffffffffff\n        /* \"--CODEGEN--\":5210:5216   */\n      dup2\n        /* \"--CODEGEN--\":5207:5237   */\n      gt\n        /* \"--CODEGEN--\":5204:5206   */\n      iszero\n      tag_264\n      jumpi\n        /* \"--CODEGEN--\":5250:5251   */\n      0x00\n        /* \"--CODEGEN--\":5247:5248   */\n      dup1\n        /* \"--CODEGEN--\":5240:5252   */\n      revert\n        /* \"--CODEGEN--\":5204:5206   */\n    tag_264:\n        /* \"--CODEGEN--\":5270:5346   */\n      tag_265\n        /* \"--CODEGEN--\":5338:5345   */\n      dup10\n        /* \"--CODEGEN--\":5329:5335   */\n      dup3\n        /* \"--CODEGEN--\":5318:5327   */\n      dup11\n        /* \"--CODEGEN--\":5314:5336   */\n      add\n        /* \"--CODEGEN--\":5270:5346   */\n      jump(tag_219)\n    tag_265:\n        /* \"--CODEGEN--\":5260:5346   */\n      swap3\n      pop\n        /* \"--CODEGEN--\":5144:5352   */\n      pop\n        /* \"--CODEGEN--\":5383:5386   */\n      0xa0\n        /* \"--CODEGEN--\":5402:5455   */\n      tag_266\n        /* \"--CODEGEN--\":5447:5454   */\n      dup10\n        /* \"--CODEGEN--\":5438:5444   */\n      dup3\n        /* \"--CODEGEN--\":5427:5436   */\n      dup11\n        /* \"--CODEGEN--\":5423:5445   */\n      add\n        /* \"--CODEGEN--\":5402:5455   */\n      jump(tag_244)\n    tag_266:\n        /* \"--CODEGEN--\":5392:5455   */\n      swap2\n      pop\n        /* \"--CODEGEN--\":5362:5461   */\n      pop\n        /* \"--CODEGEN--\":4224:5471   */\n      swap3\n      swap6\n      pop\n      swap3\n      swap6\n      pop\n      swap3\n      swap6\n      jump\n        /* \"--CODEGEN--\":5478:5950   */\n    tag_31:\n      0x00\n      dup1\n        /* \"--CODEGEN--\":5609:5611   */\n      0x40\n        /* \"--CODEGEN--\":5597:5606   */\n      dup4\n        /* \"--CODEGEN--\":5588:5595   */\n      dup6\n        /* \"--CODEGEN--\":5584:5607   */\n      sub\n        /* \"--CODEGEN--\":5580:5612   */\n      slt\n        /* \"--CODEGEN--\":5577:5579   */\n      iszero\n      tag_267\n      jumpi\n        /* \"--CODEGEN--\":5625:5626   */\n      0x00\n        /* \"--CODEGEN--\":5622:5623   */\n      dup1\n        /* \"--CODEGEN--\":5615:5627   */\n      revert\n        /* \"--CODEGEN--\":5577:5579   */\n    tag_267:\n        /* \"--CODEGEN--\":5688:5689   */\n      0x00\n        /* \"--CODEGEN--\":5677:5686   */\n      dup4\n        /* \"--CODEGEN--\":5673:5690   */\n      add\n        /* \"--CODEGEN--\":5660:5691   */\n      calldataload\n        /* \"--CODEGEN--\":5711:5729   */\n      0xffffffffffffffff\n        /* \"--CODEGEN--\":5703:5709   */\n      dup2\n        /* \"--CODEGEN--\":5700:5730   */\n      gt\n        /* \"--CODEGEN--\":5697:5699   */\n      iszero\n      tag_268\n      jumpi\n        /* \"--CODEGEN--\":5743:5744   */\n      0x00\n        /* \"--CODEGEN--\":5740:5741   */\n      dup1\n        /* \"--CODEGEN--\":5733:5745   */\n      revert\n        /* \"--CODEGEN--\":5697:5699   */\n    tag_268:\n        /* \"--CODEGEN--\":5763:5826   */\n      tag_269\n        /* \"--CODEGEN--\":5818:5825   */\n      dup6\n        /* \"--CODEGEN--\":5809:5815   */\n      dup3\n        /* \"--CODEGEN--\":5798:5807   */\n      dup7\n        /* \"--CODEGEN--\":5794:5816   */\n      add\n        /* \"--CODEGEN--\":5763:5826   */\n      jump(tag_237)\n    tag_269:\n        /* \"--CODEGEN--\":5753:5826   */\n      swap3\n      pop\n        /* \"--CODEGEN--\":5639:5832   */\n      pop\n        /* \"--CODEGEN--\":5863:5865   */\n      0x20\n        /* \"--CODEGEN--\":5881:5934   */\n      tag_270\n        /* \"--CODEGEN--\":5926:5933   */\n      dup6\n        /* \"--CODEGEN--\":5917:5923   */\n      dup3\n        /* \"--CODEGEN--\":5906:5915   */\n      dup7\n        /* \"--CODEGEN--\":5902:5924   */\n      add\n        /* \"--CODEGEN--\":5881:5934   */\n      jump(tag_244)\n    tag_270:\n        /* \"--CODEGEN--\":5871:5934   */\n      swap2\n      pop\n        /* \"--CODEGEN--\":5842:5940   */\n      pop\n        /* \"--CODEGEN--\":5571:5950   */\n      swap3\n      pop\n      swap3\n      swap1\n      pop\n      jump\n        /* \"--CODEGEN--\":5957:6660   */\n    tag_20:\n      0x00\n      dup1\n      0x00\n        /* \"--CODEGEN--\":6115:6117   */\n      0x60\n        /* \"--CODEGEN--\":6103:6112   */\n      dup5\n        /* \"--CODEGEN--\":6094:6101   */\n      dup7\n        /* \"--CODEGEN--\":6090:6113   */\n      sub\n        /* \"--CODEGEN--\":6086:6118   */\n      slt\n        /* \"--CODEGEN--\":6083:6085   */\n      iszero\n      tag_271\n      jumpi\n        /* \"--CODEGEN--\":6131:6132   */\n      0x00\n        /* \"--CODEGEN--\":6128:6129   */\n      dup1\n        /* \"--CODEGEN--\":6121:6133   */\n      revert\n        /* \"--CODEGEN--\":6083:6085   */\n    tag_271:\n        /* \"--CODEGEN--\":6194:6195   */\n      0x00\n        /* \"--CODEGEN--\":6183:6192   */\n      dup5\n        /* \"--CODEGEN--\":6179:6196   */\n      add\n        /* \"--CODEGEN--\":6166:6197   */\n      calldataload\n        /* \"--CODEGEN--\":6217:6235   */\n      0xffffffffffffffff\n        /* \"--CODEGEN--\":6209:6215   */\n      dup2\n        /* \"--CODEGEN--\":6206:6236   */\n      gt\n        /* \"--CODEGEN--\":6203:6205   */\n      iszero\n      tag_272\n      jumpi\n        /* \"--CODEGEN--\":6249:6250   */\n      0x00\n        /* \"--CODEGEN--\":6246:6247   */\n      dup1\n        /* \"--CODEGEN--\":6239:6251   */\n      revert\n        /* \"--CODEGEN--\":6203:6205   */\n    tag_272:\n        /* \"--CODEGEN--\":6269:6332   */\n      tag_273\n        /* \"--CODEGEN--\":6324:6331   */\n      dup7\n        /* \"--CODEGEN--\":6315:6321   */\n      dup3\n        /* \"--CODEGEN--\":6304:6313   */\n      dup8\n        /* \"--CODEGEN--\":6300:6322   */\n      add\n        /* \"--CODEGEN--\":6269:6332   */\n      jump(tag_237)\n    tag_273:\n        /* \"--CODEGEN--\":6259:6332   */\n      swap4\n      pop\n        /* \"--CODEGEN--\":6145:6338   */\n      pop\n        /* \"--CODEGEN--\":6369:6371   */\n      0x20\n        /* \"--CODEGEN--\":6387:6440   */\n      tag_274\n        /* \"--CODEGEN--\":6432:6439   */\n      dup7\n        /* \"--CODEGEN--\":6423:6429   */\n      dup3\n        /* \"--CODEGEN--\":6412:6421   */\n      dup8\n        /* \"--CODEGEN--\":6408:6430   */\n      add\n        /* \"--CODEGEN--\":6387:6440   */\n      jump(tag_244)\n    tag_274:\n        /* \"--CODEGEN--\":6377:6440   */\n      swap3\n      pop\n        /* \"--CODEGEN--\":6348:6446   */\n      pop\n        /* \"--CODEGEN--\":6505:6507   */\n      0x40\n        /* \"--CODEGEN--\":6494:6503   */\n      dup5\n        /* \"--CODEGEN--\":6490:6508   */\n      add\n        /* \"--CODEGEN--\":6477:6509   */\n      calldataload\n        /* \"--CODEGEN--\":6529:6547   */\n      0xffffffffffffffff\n        /* \"--CODEGEN--\":6521:6527   */\n      dup2\n        /* \"--CODEGEN--\":6518:6548   */\n      gt\n        /* \"--CODEGEN--\":6515:6517   */\n      iszero\n      tag_275\n      jumpi\n        /* \"--CODEGEN--\":6561:6562   */\n      0x00\n        /* \"--CODEGEN--\":6558:6559   */\n      dup1\n        /* \"--CODEGEN--\":6551:6563   */\n      revert\n        /* \"--CODEGEN--\":6515:6517   */\n    tag_275:\n        /* \"--CODEGEN--\":6581:6644   */\n      tag_276\n        /* \"--CODEGEN--\":6636:6643   */\n      dup7\n        /* \"--CODEGEN--\":6627:6633   */\n      dup3\n        /* \"--CODEGEN--\":6616:6625   */\n      dup8\n        /* \"--CODEGEN--\":6612:6634   */\n      add\n        /* \"--CODEGEN--\":6581:6644   */\n      jump(tag_237)\n    tag_276:\n        /* \"--CODEGEN--\":6571:6644   */\n      swap2\n      pop\n        /* \"--CODEGEN--\":6456:6650   */\n      pop\n        /* \"--CODEGEN--\":6077:6660   */\n      swap3\n      pop\n      swap3\n      pop\n      swap3\n      jump\n        /* \"--CODEGEN--\":6667:7496   */\n    tag_48:\n      0x00\n      dup1\n      0x00\n      dup1\n        /* \"--CODEGEN--\":6842:6845   */\n      0x80\n        /* \"--CODEGEN--\":6830:6839   */\n      dup6\n        /* \"--CODEGEN--\":6821:6828   */\n      dup8\n        /* \"--CODEGEN--\":6817:6840   */\n      sub\n        /* \"--CODEGEN--\":6813:6846   */\n      slt\n        /* \"--CODEGEN--\":6810:6812   */\n      iszero\n      tag_277\n      jumpi\n        /* \"--CODEGEN--\":6859:6860   */\n      0x00\n        /* \"--CODEGEN--\":6856:6857   */\n      dup1\n        /* \"--CODEGEN--\":6849:6861   */\n      revert\n        /* \"--CODEGEN--\":6810:6812   */\n    tag_277:\n        /* \"--CODEGEN--\":6922:6923   */\n      0x00\n        /* \"--CODEGEN--\":6911:6920   */\n      dup6\n        /* \"--CODEGEN--\":6907:6924   */\n      add\n        /* \"--CODEGEN--\":6894:6925   */\n      calldataload\n        /* \"--CODEGEN--\":6945:6963   */\n      0xffffffffffffffff\n        /* \"--CODEGEN--\":6937:6943   */\n      dup2\n        /* \"--CODEGEN--\":6934:6964   */\n      gt\n        /* \"--CODEGEN--\":6931:6933   */\n      iszero\n      tag_278\n      jumpi\n        /* \"--CODEGEN--\":6977:6978   */\n      0x00\n        /* \"--CODEGEN--\":6974:6975   */\n      dup1\n        /* \"--CODEGEN--\":6967:6979   */\n      revert\n        /* \"--CODEGEN--\":6931:6933   */\n    tag_278:\n        /* \"--CODEGEN--\":6997:7060   */\n      tag_279\n        /* \"--CODEGEN--\":7052:7059   */\n      dup8\n        /* \"--CODEGEN--\":7043:7049   */\n      dup3\n        /* \"--CODEGEN--\":7032:7041   */\n      dup9\n        /* \"--CODEGEN--\":7028:7050   */\n      add\n        /* \"--CODEGEN--\":6997:7060   */\n      jump(tag_237)\n    tag_279:\n        /* \"--CODEGEN--\":6987:7060   */\n      swap5\n      pop\n        /* \"--CODEGEN--\":6873:7066   */\n      pop\n        /* \"--CODEGEN--\":7097:7099   */\n      0x20\n        /* \"--CODEGEN--\":7115:7168   */\n      tag_280\n        /* \"--CODEGEN--\":7160:7167   */\n      dup8\n        /* \"--CODEGEN--\":7151:7157   */\n      dup3\n        /* \"--CODEGEN--\":7140:7149   */\n      dup9\n        /* \"--CODEGEN--\":7136:7158   */\n      add\n        /* \"--CODEGEN--\":7115:7168   */\n      jump(tag_244)\n    tag_280:\n        /* \"--CODEGEN--\":7105:7168   */\n      swap4\n      pop\n        /* \"--CODEGEN--\":7076:7174   */\n      pop\n        /* \"--CODEGEN--\":7233:7235   */\n      0x40\n        /* \"--CODEGEN--\":7222:7231   */\n      dup6\n        /* \"--CODEGEN--\":7218:7236   */\n      add\n        /* \"--CODEGEN--\":7205:7237   */\n      calldataload\n        /* \"--CODEGEN--\":7257:7275   */\n      0xffffffffffffffff\n        /* \"--CODEGEN--\":7249:7255   */\n      dup2\n        /* \"--CODEGEN--\":7246:7276   */\n      gt\n        /* \"--CODEGEN--\":7243:7245   */\n      iszero\n      tag_281\n      jumpi\n        /* \"--CODEGEN--\":7289:7290   */\n      0x00\n        /* \"--CODEGEN--\":7286:7287   */\n      dup1\n        /* \"--CODEGEN--\":7279:7291   */\n      revert\n        /* \"--CODEGEN--\":7243:7245   */\n    tag_281:\n        /* \"--CODEGEN--\":7309:7372   */\n      tag_282\n        /* \"--CODEGEN--\":7364:7371   */\n      dup8\n        /* \"--CODEGEN--\":7355:7361   */\n      dup3\n        /* \"--CODEGEN--\":7344:7353   */\n      dup9\n        /* \"--CODEGEN--\":7340:7362   */\n      add\n        /* \"--CODEGEN--\":7309:7372   */\n      jump(tag_237)\n    tag_282:\n        /* \"--CODEGEN--\":7299:7372   */\n      swap3\n      pop\n        /* \"--CODEGEN--\":7184:7378   */\n      pop\n        /* \"--CODEGEN--\":7409:7411   */\n      0x60\n        /* \"--CODEGEN--\":7427:7480   */\n      tag_283\n        /* \"--CODEGEN--\":7472:7479   */\n      dup8\n        /* \"--CODEGEN--\":7463:7469   */\n      dup3\n        /* \"--CODEGEN--\":7452:7461   */\n      dup9\n        /* \"--CODEGEN--\":7448:7470   */\n      add\n        /* \"--CODEGEN--\":7427:7480   */\n      jump(tag_195)\n    tag_283:\n        /* \"--CODEGEN--\":7417:7480   */\n      swap2\n      pop\n        /* \"--CODEGEN--\":7388:7486   */\n      pop\n        /* \"--CODEGEN--\":6804:7496   */\n      swap3\n      swap6\n      swap2\n      swap5\n      pop\n      swap3\n      pop\n      jump\n        /* \"--CODEGEN--\":7503:8454   */\n    tag_27:\n      0x00\n      dup1\n      0x00\n      dup1\n      0x00\n        /* \"--CODEGEN--\":7693:7696   */\n      0xa0\n        /* \"--CODEGEN--\":7681:7690   */\n      dup7\n        /* \"--CODEGEN--\":7672:7679   */\n      dup9\n        /* \"--CODEGEN--\":7668:7691   */\n      sub\n        /* \"--CODEGEN--\":7664:7697   */\n      slt\n        /* \"--CODEGEN--\":7661:7663   */\n      iszero\n      tag_284\n      jumpi\n        /* \"--CODEGEN--\":7710:7711   */\n      0x00\n        /* \"--CODEGEN--\":7707:7708   */\n      dup1\n        /* \"--CODEGEN--\":7700:7712   */\n      revert\n        /* \"--CODEGEN--\":7661:7663   */\n    tag_284:\n        /* \"--CODEGEN--\":7773:7774   */\n      0x00\n        /* \"--CODEGEN--\":7762:7771   */\n      dup7\n        /* \"--CODEGEN--\":7758:7775   */\n      add\n        /* \"--CODEGEN--\":7745:7776   */\n      calldataload\n        /* \"--CODEGEN--\":7796:7814   */\n      0xffffffffffffffff\n        /* \"--CODEGEN--\":7788:7794   */\n      dup2\n        /* \"--CODEGEN--\":7785:7815   */\n      gt\n        /* \"--CODEGEN--\":7782:7784   */\n      iszero\n      tag_285\n      jumpi\n        /* \"--CODEGEN--\":7828:7829   */\n      0x00\n        /* \"--CODEGEN--\":7825:7826   */\n      dup1\n        /* \"--CODEGEN--\":7818:7830   */\n      revert\n        /* \"--CODEGEN--\":7782:7784   */\n    tag_285:\n        /* \"--CODEGEN--\":7848:7911   */\n      tag_286\n        /* \"--CODEGEN--\":7903:7910   */\n      dup9\n        /* \"--CODEGEN--\":7894:7900   */\n      dup3\n        /* \"--CODEGEN--\":7883:7892   */\n      dup10\n        /* \"--CODEGEN--\":7879:7901   */\n      add\n        /* \"--CODEGEN--\":7848:7911   */\n      jump(tag_237)\n    tag_286:\n        /* \"--CODEGEN--\":7838:7911   */\n      swap6\n      pop\n        /* \"--CODEGEN--\":7724:7917   */\n      pop\n        /* \"--CODEGEN--\":7948:7950   */\n      0x20\n        /* \"--CODEGEN--\":7966:8019   */\n      tag_287\n        /* \"--CODEGEN--\":8011:8018   */\n      dup9\n        /* \"--CODEGEN--\":8002:8008   */\n      dup3\n        /* \"--CODEGEN--\":7991:8000   */\n      dup10\n        /* \"--CODEGEN--\":7987:8009   */\n      add\n        /* \"--CODEGEN--\":7966:8019   */\n      jump(tag_244)\n    tag_287:\n        /* \"--CODEGEN--\":7956:8019   */\n      swap5\n      pop\n        /* \"--CODEGEN--\":7927:8025   */\n      pop\n        /* \"--CODEGEN--\":8084:8086   */\n      0x40\n        /* \"--CODEGEN--\":8073:8082   */\n      dup7\n        /* \"--CODEGEN--\":8069:8087   */\n      add\n        /* \"--CODEGEN--\":8056:8088   */\n      calldataload\n        /* \"--CODEGEN--\":8108:8126   */\n      0xffffffffffffffff\n        /* \"--CODEGEN--\":8100:8106   */\n      dup2\n        /* \"--CODEGEN--\":8097:8127   */\n      gt\n        /* \"--CODEGEN--\":8094:8096   */\n      iszero\n      tag_288\n      jumpi\n        /* \"--CODEGEN--\":8140:8141   */\n      0x00\n        /* \"--CODEGEN--\":8137:8138   */\n      dup1\n        /* \"--CODEGEN--\":8130:8142   */\n      revert\n        /* \"--CODEGEN--\":8094:8096   */\n    tag_288:\n        /* \"--CODEGEN--\":8160:8223   */\n      tag_289\n        /* \"--CODEGEN--\":8215:8222   */\n      dup9\n        /* \"--CODEGEN--\":8206:8212   */\n      dup3\n        /* \"--CODEGEN--\":8195:8204   */\n      dup10\n        /* \"--CODEGEN--\":8191:8213   */\n      add\n        /* \"--CODEGEN--\":8160:8223   */\n      jump(tag_237)\n    tag_289:\n        /* \"--CODEGEN--\":8150:8223   */\n      swap4\n      pop\n        /* \"--CODEGEN--\":8035:8229   */\n      pop\n        /* \"--CODEGEN--\":8260:8262   */\n      0x60\n        /* \"--CODEGEN--\":8278:8331   */\n      tag_290\n        /* \"--CODEGEN--\":8323:8330   */\n      dup9\n        /* \"--CODEGEN--\":8314:8320   */\n      dup3\n        /* \"--CODEGEN--\":8303:8312   */\n      dup10\n        /* \"--CODEGEN--\":8299:8321   */\n      add\n        /* \"--CODEGEN--\":8278:8331   */\n      jump(tag_195)\n    tag_290:\n        /* \"--CODEGEN--\":8268:8331   */\n      swap3\n      pop\n        /* \"--CODEGEN--\":8239:8337   */\n      pop\n        /* \"--CODEGEN--\":8368:8371   */\n      0x80\n        /* \"--CODEGEN--\":8387:8438   */\n      tag_291\n        /* \"--CODEGEN--\":8430:8437   */\n      dup9\n        /* \"--CODEGEN--\":8421:8427   */\n      dup3\n        /* \"--CODEGEN--\":8410:8419   */\n      dup10\n        /* \"--CODEGEN--\":8406:8428   */\n      add\n        /* \"--CODEGEN--\":8387:8438   */\n      jump(tag_229)\n    tag_291:\n        /* \"--CODEGEN--\":8377:8438   */\n      swap2\n      pop\n        /* \"--CODEGEN--\":8347:8444   */\n      pop\n        /* \"--CODEGEN--\":7655:8454   */\n      swap3\n      swap6\n      pop\n      swap3\n      swap6\n      swap1\n      swap4\n      pop\n      jump\n        /* \"--CODEGEN--\":8461:9288   */\n    tag_16:\n      0x00\n      dup1\n      0x00\n      dup1\n        /* \"--CODEGEN--\":8635:8638   */\n      0x80\n        /* \"--CODEGEN--\":8623:8632   */\n      dup6\n        /* \"--CODEGEN--\":8614:8621   */\n      dup8\n        /* \"--CODEGEN--\":8610:8633   */\n      sub\n        /* \"--CODEGEN--\":8606:8639   */\n      slt\n        /* \"--CODEGEN--\":8603:8605   */\n      iszero\n      tag_292\n      jumpi\n        /* \"--CODEGEN--\":8652:8653   */\n      0x00\n        /* \"--CODEGEN--\":8649:8650   */\n      dup1\n        /* \"--CODEGEN--\":8642:8654   */\n      revert\n        /* \"--CODEGEN--\":8603:8605   */\n    tag_292:\n        /* \"--CODEGEN--\":8715:8716   */\n      0x00\n        /* \"--CODEGEN--\":8704:8713   */\n      dup6\n        /* \"--CODEGEN--\":8700:8717   */\n      add\n        /* \"--CODEGEN--\":8687:8718   */\n      calldataload\n        /* \"--CODEGEN--\":8738:8756   */\n      0xffffffffffffffff\n        /* \"--CODEGEN--\":8730:8736   */\n      dup2\n        /* \"--CODEGEN--\":8727:8757   */\n      gt\n        /* \"--CODEGEN--\":8724:8726   */\n      iszero\n      tag_293\n      jumpi\n        /* \"--CODEGEN--\":8770:8771   */\n      0x00\n        /* \"--CODEGEN--\":8767:8768   */\n      dup1\n        /* \"--CODEGEN--\":8760:8772   */\n      revert\n        /* \"--CODEGEN--\":8724:8726   */\n    tag_293:\n        /* \"--CODEGEN--\":8790:8853   */\n      tag_294\n        /* \"--CODEGEN--\":8845:8852   */\n      dup8\n        /* \"--CODEGEN--\":8836:8842   */\n      dup3\n        /* \"--CODEGEN--\":8825:8834   */\n      dup9\n        /* \"--CODEGEN--\":8821:8843   */\n      add\n        /* \"--CODEGEN--\":8790:8853   */\n      jump(tag_237)\n    tag_294:\n        /* \"--CODEGEN--\":8780:8853   */\n      swap5\n      pop\n        /* \"--CODEGEN--\":8666:8859   */\n      pop\n        /* \"--CODEGEN--\":8890:8892   */\n      0x20\n        /* \"--CODEGEN--\":8908:8961   */\n      tag_295\n        /* \"--CODEGEN--\":8953:8960   */\n      dup8\n        /* \"--CODEGEN--\":8944:8950   */\n      dup3\n        /* \"--CODEGEN--\":8933:8942   */\n      dup9\n        /* \"--CODEGEN--\":8929:8951   */\n      add\n        /* \"--CODEGEN--\":8908:8961   */\n      jump(tag_244)\n    tag_295:\n        /* \"--CODEGEN--\":8898:8961   */\n      swap4\n      pop\n        /* \"--CODEGEN--\":8869:8967   */\n      pop\n        /* \"--CODEGEN--\":8998:9000   */\n      0x40\n        /* \"--CODEGEN--\":9016:9068   */\n      tag_296\n        /* \"--CODEGEN--\":9060:9067   */\n      dup8\n        /* \"--CODEGEN--\":9051:9057   */\n      dup3\n        /* \"--CODEGEN--\":9040:9049   */\n      dup9\n        /* \"--CODEGEN--\":9036:9058   */\n      add\n        /* \"--CODEGEN--\":9016:9068   */\n      jump(tag_247)\n    tag_296:\n        /* \"--CODEGEN--\":9006:9068   */\n      swap3\n      pop\n        /* \"--CODEGEN--\":8977:9074   */\n      pop\n        /* \"--CODEGEN--\":9133:9135   */\n      0x60\n        /* \"--CODEGEN--\":9122:9131   */\n      dup6\n        /* \"--CODEGEN--\":9118:9136   */\n      add\n        /* \"--CODEGEN--\":9105:9137   */\n      calldataload\n        /* \"--CODEGEN--\":9157:9175   */\n      0xffffffffffffffff\n        /* \"--CODEGEN--\":9149:9155   */\n      dup2\n        /* \"--CODEGEN--\":9146:9176   */\n      gt\n        /* \"--CODEGEN--\":9143:9145   */\n      iszero\n      tag_297\n      jumpi\n        /* \"--CODEGEN--\":9189:9190   */\n      0x00\n        /* \"--CODEGEN--\":9186:9187   */\n      dup1\n        /* \"--CODEGEN--\":9179:9191   */\n      revert\n        /* \"--CODEGEN--\":9143:9145   */\n    tag_297:\n        /* \"--CODEGEN--\":9209:9272   */\n      tag_298\n        /* \"--CODEGEN--\":9264:9271   */\n      dup8\n        /* \"--CODEGEN--\":9255:9261   */\n      dup3\n        /* \"--CODEGEN--\":9244:9253   */\n      dup9\n        /* \"--CODEGEN--\":9240:9262   */\n      add\n        /* \"--CODEGEN--\":9209:9272   */\n      jump(tag_237)\n    tag_298:\n        /* \"--CODEGEN--\":9199:9272   */\n      swap2\n      pop\n        /* \"--CODEGEN--\":9084:9278   */\n      pop\n        /* \"--CODEGEN--\":8597:9288   */\n      swap3\n      swap6\n      swap2\n      swap5\n      pop\n      swap3\n      pop\n      jump\n        /* \"--CODEGEN--\":9296:9477   */\n    tag_299:\n      0x00\n        /* \"--CODEGEN--\":9409:9471   */\n      tag_300\n        /* \"--CODEGEN--\":9467:9470   */\n      dup4\n        /* \"--CODEGEN--\":9459:9465   */\n      dup4\n        /* \"--CODEGEN--\":9409:9471   */\n      jump(tag_301)\n    tag_300:\n        /* \"--CODEGEN--\":9395:9471   */\n      swap1\n      pop\n        /* \"--CODEGEN--\":9388:9477   */\n      swap3\n      swap2\n      pop\n      pop\n      jump\n        /* \"--CODEGEN--\":9486:9655   */\n    tag_302:\n      0x00\n        /* \"--CODEGEN--\":9571:9615   */\n      tag_303\n        /* \"--CODEGEN--\":9611:9614   */\n      dup4\n        /* \"--CODEGEN--\":9603:9609   */\n      dup4\n        /* \"--CODEGEN--\":9571:9615   */\n      jump(tag_304)\n    tag_303:\n        /* \"--CODEGEN--\":9644:9648   */\n      0x20\n        /* \"--CODEGEN--\":9639:9642   */\n      dup4\n        /* \"--CODEGEN--\":9635:9649   */\n      add\n        /* \"--CODEGEN--\":9621:9649   */\n      swap1\n      pop\n        /* \"--CODEGEN--\":9564:9655   */\n      swap3\n      swap2\n      pop\n      pop\n      jump\n        /* \"--CODEGEN--\":9692:10588   */\n    tag_305:\n      0x00\n        /* \"--CODEGEN--\":9849:9909   */\n      tag_306\n        /* \"--CODEGEN--\":9903:9908   */\n      dup3\n        /* \"--CODEGEN--\":9849:9909   */\n      jump(tag_307)\n    tag_306:\n        /* \"--CODEGEN--\":9922:10014   */\n      tag_308\n        /* \"--CODEGEN--\":10007:10013   */\n      dup2\n        /* \"--CODEGEN--\":10002:10005   */\n      dup6\n        /* \"--CODEGEN--\":9922:10014   */\n      jump(tag_309)\n    tag_308:\n        /* \"--CODEGEN--\":9915:10014   */\n      swap4\n      pop\n        /* \"--CODEGEN--\":10037:10040   */\n      dup4\n        /* \"--CODEGEN--\":10079:10083   */\n      0x20\n        /* \"--CODEGEN--\":10071:10077   */\n      dup3\n        /* \"--CODEGEN--\":10067:10084   */\n      mul\n        /* \"--CODEGEN--\":10062:10065   */\n      dup6\n        /* \"--CODEGEN--\":10058:10085   */\n      add\n        /* \"--CODEGEN--\":10106:10168   */\n      tag_310\n        /* \"--CODEGEN--\":10162:10167   */\n      dup6\n        /* \"--CODEGEN--\":10106:10168   */\n      jump(tag_311)\n    tag_310:\n        /* \"--CODEGEN--\":10188:10195   */\n      dup1\n        /* \"--CODEGEN--\":10216:10217   */\n      0x00\n        /* \"--CODEGEN--\":10201:10549   */\n    tag_312:\n        /* \"--CODEGEN--\":10226:10232   */\n      dup6\n        /* \"--CODEGEN--\":10223:10224   */\n      dup2\n        /* \"--CODEGEN--\":10220:10233   */\n      lt\n        /* \"--CODEGEN--\":10201:10549   */\n      iszero\n      tag_314\n      jumpi\n        /* \"--CODEGEN--\":10288:10297   */\n      dup5\n        /* \"--CODEGEN--\":10282:10286   */\n      dup5\n        /* \"--CODEGEN--\":10278:10298   */\n      sub\n        /* \"--CODEGEN--\":10273:10276   */\n      dup10\n        /* \"--CODEGEN--\":10266:10299   */\n      mstore\n        /* \"--CODEGEN--\":10333:10339   */\n      dup2\n        /* \"--CODEGEN--\":10327:10340   */\n      mload\n        /* \"--CODEGEN--\":10355:10431   */\n      tag_315\n        /* \"--CODEGEN--\":10426:10430   */\n      dup6\n        /* \"--CODEGEN--\":10411:10424   */\n      dup3\n        /* \"--CODEGEN--\":10355:10431   */\n      jump(tag_299)\n    tag_315:\n        /* \"--CODEGEN--\":10347:10431   */\n      swap5\n      pop\n        /* \"--CODEGEN--\":10448:10514   */\n      tag_316\n        /* \"--CODEGEN--\":10507:10513   */\n      dup4\n        /* \"--CODEGEN--\":10448:10514   */\n      jump(tag_317)\n    tag_316:\n        /* \"--CODEGEN--\":10438:10514   */\n      swap3\n      pop\n        /* \"--CODEGEN--\":10537:10541   */\n      0x20\n        /* \"--CODEGEN--\":10532:10535   */\n      dup11\n        /* \"--CODEGEN--\":10528:10542   */\n      add\n        /* \"--CODEGEN--\":10521:10542   */\n      swap10\n      pop\n        /* \"--CODEGEN--\":10258:10549   */\n      pop\n        /* \"--CODEGEN--\":10248:10249   */\n      0x01\n        /* \"--CODEGEN--\":10245:10246   */\n      dup2\n        /* \"--CODEGEN--\":10241:10250   */\n      add\n        /* \"--CODEGEN--\":10236:10250   */\n      swap1\n      pop\n        /* \"--CODEGEN--\":10201:10549   */\n      jump(tag_312)\n    tag_314:\n        /* \"--CODEGEN--\":10205:10219   */\n      pop\n        /* \"--CODEGEN--\":10562:10566   */\n      dup3\n        /* \"--CODEGEN--\":10555:10566   */\n      swap8\n      pop\n        /* \"--CODEGEN--\":10579:10582   */\n      dup8\n        /* \"--CODEGEN--\":10572:10582   */\n      swap6\n      pop\n        /* \"--CODEGEN--\":9828:10588   */\n      pop\n      pop\n      pop\n      pop\n      pop\n      swap3\n      swap2\n      pop\n      pop\n      jump\n        /* \"--CODEGEN--\":10625:11307   */\n    tag_318:\n      0x00\n        /* \"--CODEGEN--\":10768:10821   */\n      tag_319\n        /* \"--CODEGEN--\":10815:10820   */\n      dup3\n        /* \"--CODEGEN--\":10768:10821   */\n      jump(tag_320)\n    tag_319:\n        /* \"--CODEGEN--\":10834:10919   */\n      tag_321\n        /* \"--CODEGEN--\":10912:10918   */\n      dup2\n        /* \"--CODEGEN--\":10907:10910   */\n      dup6\n        /* \"--CODEGEN--\":10834:10919   */\n      jump(tag_322)\n    tag_321:\n        /* \"--CODEGEN--\":10827:10919   */\n      swap4\n      pop\n        /* \"--CODEGEN--\":10940:10995   */\n      tag_323\n        /* \"--CODEGEN--\":10989:10994   */\n      dup4\n        /* \"--CODEGEN--\":10940:10995   */\n      jump(tag_324)\n    tag_323:\n        /* \"--CODEGEN--\":11015:11022   */\n      dup1\n        /* \"--CODEGEN--\":11043:11044   */\n      0x00\n        /* \"--CODEGEN--\":11028:11285   */\n    tag_325:\n        /* \"--CODEGEN--\":11053:11059   */\n      dup4\n        /* \"--CODEGEN--\":11050:11051   */\n      dup2\n        /* \"--CODEGEN--\":11047:11060   */\n      lt\n        /* \"--CODEGEN--\":11028:11285   */\n      iszero\n      tag_327\n      jumpi\n        /* \"--CODEGEN--\":11120:11126   */\n      dup2\n        /* \"--CODEGEN--\":11114:11127   */\n      mload\n        /* \"--CODEGEN--\":11141:11202   */\n      tag_328\n        /* \"--CODEGEN--\":11198:11201   */\n      dup9\n        /* \"--CODEGEN--\":11183:11196   */\n      dup3\n        /* \"--CODEGEN--\":11141:11202   */\n      jump(tag_302)\n    tag_328:\n        /* \"--CODEGEN--\":11134:11202   */\n      swap8\n      pop\n        /* \"--CODEGEN--\":11219:11278   */\n      tag_329\n        /* \"--CODEGEN--\":11271:11277   */\n      dup4\n        /* \"--CODEGEN--\":11219:11278   */\n      jump(tag_330)\n    tag_329:\n        /* \"--CODEGEN--\":11209:11278   */\n      swap3\n      pop\n        /* \"--CODEGEN--\":11085:11285   */\n      pop\n        /* \"--CODEGEN--\":11075:11076   */\n      0x01\n        /* \"--CODEGEN--\":11072:11073   */\n      dup2\n        /* \"--CODEGEN--\":11068:11077   */\n      add\n        /* \"--CODEGEN--\":11063:11077   */\n      swap1\n      pop\n        /* \"--CODEGEN--\":11028:11285   */\n      jump(tag_325)\n    tag_327:\n        /* \"--CODEGEN--\":11032:11046   */\n      pop\n        /* \"--CODEGEN--\":11298:11301   */\n      dup6\n        /* \"--CODEGEN--\":11291:11301   */\n      swap4\n      pop\n        /* \"--CODEGEN--\":10747:11307   */\n      pop\n      pop\n      pop\n      swap3\n      swap2\n      pop\n      pop\n      jump\n        /* \"--CODEGEN--\":11315:11662   */\n    tag_331:\n      0x00\n        /* \"--CODEGEN--\":11427:11466   */\n      tag_332\n        /* \"--CODEGEN--\":11460:11465   */\n      dup3\n        /* \"--CODEGEN--\":11427:11466   */\n      jump(tag_333)\n    tag_332:\n        /* \"--CODEGEN--\":11478:11549   */\n      tag_334\n        /* \"--CODEGEN--\":11542:11548   */\n      dup2\n        /* \"--CODEGEN--\":11537:11540   */\n      dup6\n        /* \"--CODEGEN--\":11478:11549   */\n      jump(tag_335)\n    tag_334:\n        /* \"--CODEGEN--\":11471:11549   */\n      swap4\n      pop\n        /* \"--CODEGEN--\":11554:11606   */\n      tag_336\n        /* \"--CODEGEN--\":11599:11605   */\n      dup2\n        /* \"--CODEGEN--\":11594:11597   */\n      dup6\n        /* \"--CODEGEN--\":11587:11591   */\n      0x20\n        /* \"--CODEGEN--\":11580:11585   */\n      dup7\n        /* \"--CODEGEN--\":11576:11592   */\n      add\n        /* \"--CODEGEN--\":11554:11606   */\n      jump(tag_337)\n    tag_336:\n        /* \"--CODEGEN--\":11627:11656   */\n      tag_338\n        /* \"--CODEGEN--\":11649:11655   */\n      dup2\n        /* \"--CODEGEN--\":11627:11656   */\n      jump(tag_339)\n    tag_338:\n        /* \"--CODEGEN--\":11622:11625   */\n      dup5\n        /* \"--CODEGEN--\":11618:11657   */\n      add\n        /* \"--CODEGEN--\":11611:11657   */\n      swap2\n      pop\n        /* \"--CODEGEN--\":11407:11662   */\n      pop\n      swap3\n      swap2\n      pop\n      pop\n      jump\n        /* \"--CODEGEN--\":11669:12029   */\n    tag_340:\n      0x00\n        /* \"--CODEGEN--\":11799:11838   */\n      tag_341\n        /* \"--CODEGEN--\":11832:11837   */\n      dup3\n        /* \"--CODEGEN--\":11799:11838   */\n      jump(tag_333)\n    tag_341:\n        /* \"--CODEGEN--\":11850:11939   */\n      tag_342\n        /* \"--CODEGEN--\":11932:11938   */\n      dup2\n        /* \"--CODEGEN--\":11927:11930   */\n      dup6\n        /* \"--CODEGEN--\":11850:11939   */\n      jump(tag_343)\n    tag_342:\n        /* \"--CODEGEN--\":11843:11939   */\n      swap4\n      pop\n        /* \"--CODEGEN--\":11944:11996   */\n      tag_344\n        /* \"--CODEGEN--\":11989:11995   */\n      dup2\n        /* \"--CODEGEN--\":11984:11987   */\n      dup6\n        /* \"--CODEGEN--\":11977:11981   */\n      0x20\n        /* \"--CODEGEN--\":11970:11975   */\n      dup7\n        /* \"--CODEGEN--\":11966:11982   */\n      add\n        /* \"--CODEGEN--\":11944:11996   */\n      jump(tag_337)\n    tag_344:\n        /* \"--CODEGEN--\":12017:12023   */\n      dup1\n        /* \"--CODEGEN--\":12012:12015   */\n      dup5\n        /* \"--CODEGEN--\":12008:12024   */\n      add\n        /* \"--CODEGEN--\":12001:12024   */\n      swap2\n      pop\n        /* \"--CODEGEN--\":11779:12029   */\n      pop\n      swap3\n      swap2\n      pop\n      pop\n      jump\n        /* \"--CODEGEN--\":12036:12355   */\n    tag_301:\n      0x00\n        /* \"--CODEGEN--\":12134:12169   */\n      tag_345\n        /* \"--CODEGEN--\":12163:12168   */\n      dup3\n        /* \"--CODEGEN--\":12134:12169   */\n      jump(tag_346)\n    tag_345:\n        /* \"--CODEGEN--\":12181:12242   */\n      tag_347\n        /* \"--CODEGEN--\":12235:12241   */\n      dup2\n        /* \"--CODEGEN--\":12230:12233   */\n      dup6\n        /* \"--CODEGEN--\":12181:12242   */\n      jump(tag_348)\n    tag_347:\n        /* \"--CODEGEN--\":12174:12242   */\n      swap4\n      pop\n        /* \"--CODEGEN--\":12247:12299   */\n      tag_349\n        /* \"--CODEGEN--\":12292:12298   */\n      dup2\n        /* \"--CODEGEN--\":12287:12290   */\n      dup6\n        /* \"--CODEGEN--\":12280:12284   */\n      0x20\n        /* \"--CODEGEN--\":12273:12278   */\n      dup7\n        /* \"--CODEGEN--\":12269:12285   */\n      add\n        /* \"--CODEGEN--\":12247:12299   */\n      jump(tag_337)\n    tag_349:\n        /* \"--CODEGEN--\":12320:12349   */\n      tag_350\n        /* \"--CODEGEN--\":12342:12348   */\n      dup2\n        /* \"--CODEGEN--\":12320:12349   */\n      jump(tag_339)\n    tag_350:\n        /* \"--CODEGEN--\":12315:12318   */\n      dup5\n        /* \"--CODEGEN--\":12311:12350   */\n      add\n        /* \"--CODEGEN--\":12304:12350   */\n      swap2\n      pop\n        /* \"--CODEGEN--\":12114:12355   */\n      pop\n      swap3\n      swap2\n      pop\n      pop\n      jump\n        /* \"--CODEGEN--\":12362:12714   */\n    tag_351:\n      0x00\n        /* \"--CODEGEN--\":12488:12523   */\n      tag_352\n        /* \"--CODEGEN--\":12517:12522   */\n      dup3\n        /* \"--CODEGEN--\":12488:12523   */\n      jump(tag_346)\n    tag_352:\n        /* \"--CODEGEN--\":12535:12624   */\n      tag_353\n        /* \"--CODEGEN--\":12617:12623   */\n      dup2\n        /* \"--CODEGEN--\":12612:12615   */\n      dup6\n        /* \"--CODEGEN--\":12535:12624   */\n      jump(tag_343)\n    tag_353:\n        /* \"--CODEGEN--\":12528:12624   */\n      swap4\n      pop\n        /* \"--CODEGEN--\":12629:12681   */\n      tag_354\n        /* \"--CODEGEN--\":12674:12680   */\n      dup2\n        /* \"--CODEGEN--\":12669:12672   */\n      dup6\n        /* \"--CODEGEN--\":12662:12666   */\n      0x20\n        /* \"--CODEGEN--\":12655:12660   */\n      dup7\n        /* \"--CODEGEN--\":12651:12667   */\n      add\n        /* \"--CODEGEN--\":12629:12681   */\n      jump(tag_337)\n    tag_354:\n        /* \"--CODEGEN--\":12702:12708   */\n      dup1\n        /* \"--CODEGEN--\":12697:12700   */\n      dup5\n        /* \"--CODEGEN--\":12693:12709   */\n      add\n        /* \"--CODEGEN--\":12686:12709   */\n      swap2\n      pop\n        /* \"--CODEGEN--\":12468:12714   */\n      pop\n      swap3\n      swap2\n      pop\n      pop\n      jump\n        /* \"--CODEGEN--\":12721:12821   */\n    tag_304:\n        /* \"--CODEGEN--\":12792:12815   */\n      tag_355\n        /* \"--CODEGEN--\":12809:12814   */\n      dup2\n        /* \"--CODEGEN--\":12792:12815   */\n      jump(tag_356)\n    tag_355:\n        /* \"--CODEGEN--\":12787:12790   */\n      dup3\n        /* \"--CODEGEN--\":12780:12816   */\n      mstore\n        /* \"--CODEGEN--\":12774:12821   */\n      pop\n      pop\n      jump\n        /* \"--CODEGEN--\":12828:12938   */\n    tag_357:\n        /* \"--CODEGEN--\":12909:12932   */\n      tag_358\n        /* \"--CODEGEN--\":12926:12931   */\n      dup2\n        /* \"--CODEGEN--\":12909:12932   */\n      jump(tag_356)\n    tag_358:\n        /* \"--CODEGEN--\":12904:12907   */\n      dup3\n        /* \"--CODEGEN--\":12897:12933   */\n      mstore\n        /* \"--CODEGEN--\":12891:12938   */\n      pop\n      pop\n      jump\n        /* \"--CODEGEN--\":12945:13052   */\n    tag_359:\n        /* \"--CODEGEN--\":13024:13046   */\n      tag_360\n        /* \"--CODEGEN--\":13040:13045   */\n      dup2\n        /* \"--CODEGEN--\":13024:13046   */\n      jump(tag_361)\n    tag_360:\n        /* \"--CODEGEN--\":13019:13022   */\n      dup3\n        /* \"--CODEGEN--\":13012:13047   */\n      mstore\n        /* \"--CODEGEN--\":13006:13052   */\n      pop\n      pop\n      jump\n        /* \"--CODEGEN--\":13059:13317   */\n    tag_149:\n      0x00\n        /* \"--CODEGEN--\":13201:13292   */\n      tag_362\n        /* \"--CODEGEN--\":13288:13291   */\n      dup3\n        /* \"--CODEGEN--\":13279:13285   */\n      dup5\n        /* \"--CODEGEN--\":13201:13292   */\n      jump(tag_351)\n    tag_362:\n        /* \"--CODEGEN--\":13194:13292   */\n      swap2\n      pop\n        /* \"--CODEGEN--\":13309:13312   */\n      dup2\n        /* \"--CODEGEN--\":13302:13312   */\n      swap1\n      pop\n        /* \"--CODEGEN--\":13182:13317   */\n      swap3\n      swap2\n      pop\n      pop\n      jump\n        /* \"--CODEGEN--\":13324:13590   */\n    tag_63:\n      0x00\n        /* \"--CODEGEN--\":13470:13565   */\n      tag_363\n        /* \"--CODEGEN--\":13561:13564   */\n      dup3\n        /* \"--CODEGEN--\":13552:13558   */\n      dup5\n        /* \"--CODEGEN--\":13470:13565   */\n      jump(tag_340)\n    tag_363:\n        /* \"--CODEGEN--\":13463:13565   */\n      swap2\n      pop\n        /* \"--CODEGEN--\":13582:13585   */\n      dup2\n        /* \"--CODEGEN--\":13575:13585   */\n      swap1\n      pop\n        /* \"--CODEGEN--\":13451:13590   */\n      swap3\n      swap2\n      pop\n      pop\n      jump\n        /* \"--CODEGEN--\":13597:13982   */\n    tag_34:\n      0x00\n        /* \"--CODEGEN--\":13777:13779   */\n      0x20\n        /* \"--CODEGEN--\":13766:13775   */\n      dup3\n        /* \"--CODEGEN--\":13762:13780   */\n      add\n        /* \"--CODEGEN--\":13754:13780   */\n      swap1\n      pop\n        /* \"--CODEGEN--\":13827:13836   */\n      dup2\n        /* \"--CODEGEN--\":13821:13825   */\n      dup2\n        /* \"--CODEGEN--\":13817:13837   */\n      sub\n        /* \"--CODEGEN--\":13813:13814   */\n      0x00\n        /* \"--CODEGEN--\":13802:13811   */\n      dup4\n        /* \"--CODEGEN--\":13798:13815   */\n      add\n        /* \"--CODEGEN--\":13791:13838   */\n      mstore\n        /* \"--CODEGEN--\":13852:13972   */\n      tag_364\n        /* \"--CODEGEN--\":13967:13971   */\n      dup2\n        /* \"--CODEGEN--\":13958:13964   */\n      dup5\n        /* \"--CODEGEN--\":13852:13972   */\n      jump(tag_305)\n    tag_364:\n        /* \"--CODEGEN--\":13844:13972   */\n      swap1\n      pop\n        /* \"--CODEGEN--\":13748:13982   */\n      swap3\n      swap2\n      pop\n      pop\n      jump\n        /* \"--CODEGEN--\":13989:14629   */\n    tag_40:\n      0x00\n        /* \"--CODEGEN--\":14245:14247   */\n      0x40\n        /* \"--CODEGEN--\":14234:14243   */\n      dup3\n        /* \"--CODEGEN--\":14230:14248   */\n      add\n        /* \"--CODEGEN--\":14222:14248   */\n      swap1\n      pop\n        /* \"--CODEGEN--\":14295:14304   */\n      dup2\n        /* \"--CODEGEN--\":14289:14293   */\n      dup2\n        /* \"--CODEGEN--\":14285:14305   */\n      sub\n        /* \"--CODEGEN--\":14281:14282   */\n      0x00\n        /* \"--CODEGEN--\":14270:14279   */\n      dup4\n        /* \"--CODEGEN--\":14266:14283   */\n      add\n        /* \"--CODEGEN--\":14259:14306   */\n      mstore\n        /* \"--CODEGEN--\":14320:14440   */\n      tag_365\n        /* \"--CODEGEN--\":14435:14439   */\n      dup2\n        /* \"--CODEGEN--\":14426:14432   */\n      dup6\n        /* \"--CODEGEN--\":14320:14440   */\n      jump(tag_305)\n    tag_365:\n        /* \"--CODEGEN--\":14312:14440   */\n      swap1\n      pop\n        /* \"--CODEGEN--\":14488:14497   */\n      dup2\n        /* \"--CODEGEN--\":14482:14486   */\n      dup2\n        /* \"--CODEGEN--\":14478:14498   */\n      sub\n        /* \"--CODEGEN--\":14473:14475   */\n      0x20\n        /* \"--CODEGEN--\":14462:14471   */\n      dup4\n        /* \"--CODEGEN--\":14458:14476   */\n      add\n        /* \"--CODEGEN--\":14451:14499   */\n      mstore\n        /* \"--CODEGEN--\":14513:14619   */\n      tag_366\n        /* \"--CODEGEN--\":14614:14618   */\n      dup2\n        /* \"--CODEGEN--\":14605:14611   */\n      dup5\n        /* \"--CODEGEN--\":14513:14619   */\n      jump(tag_318)\n    tag_366:\n        /* \"--CODEGEN--\":14505:14619   */\n      swap1\n      pop\n        /* \"--CODEGEN--\":14216:14629   */\n      swap4\n      swap3\n      pop\n      pop\n      pop\n      jump\n        /* \"--CODEGEN--\":14636:14937   */\n    tag_60:\n      0x00\n        /* \"--CODEGEN--\":14774:14776   */\n      0x20\n        /* \"--CODEGEN--\":14763:14772   */\n      dup3\n        /* \"--CODEGEN--\":14759:14777   */\n      add\n        /* \"--CODEGEN--\":14751:14777   */\n      swap1\n      pop\n        /* \"--CODEGEN--\":14824:14833   */\n      dup2\n        /* \"--CODEGEN--\":14818:14822   */\n      dup2\n        /* \"--CODEGEN--\":14814:14834   */\n      sub\n        /* \"--CODEGEN--\":14810:14811   */\n      0x00\n        /* \"--CODEGEN--\":14799:14808   */\n      dup4\n        /* \"--CODEGEN--\":14795:14812   */\n      add\n        /* \"--CODEGEN--\":14788:14835   */\n      mstore\n        /* \"--CODEGEN--\":14849:14927   */\n      tag_367\n        /* \"--CODEGEN--\":14922:14926   */\n      dup2\n        /* \"--CODEGEN--\":14913:14919   */\n      dup5\n        /* \"--CODEGEN--\":14849:14927   */\n      jump(tag_331)\n    tag_367:\n        /* \"--CODEGEN--\":14841:14927   */\n      swap1\n      pop\n        /* \"--CODEGEN--\":14745:14937   */\n      swap3\n      swap2\n      pop\n      pop\n      jump\n        /* \"--CODEGEN--\":14944:15153   */\n    tag_45:\n      0x00\n        /* \"--CODEGEN--\":15060:15062   */\n      0x20\n        /* \"--CODEGEN--\":15049:15058   */\n      dup3\n        /* \"--CODEGEN--\":15045:15063   */\n      add\n        /* \"--CODEGEN--\":15037:15063   */\n      swap1\n      pop\n        /* \"--CODEGEN--\":15074:15143   */\n      tag_368\n        /* \"--CODEGEN--\":15140:15141   */\n      0x00\n        /* \"--CODEGEN--\":15129:15138   */\n      dup4\n        /* \"--CODEGEN--\":15125:15142   */\n      add\n        /* \"--CODEGEN--\":15116:15122   */\n      dup5\n        /* \"--CODEGEN--\":15074:15143   */\n      jump(tag_357)\n    tag_368:\n        /* \"--CODEGEN--\":15031:15153   */\n      swap3\n      swap2\n      pop\n      pop\n      jump\n        /* \"--CODEGEN--\":15160:15365   */\n    tag_51:\n      0x00\n        /* \"--CODEGEN--\":15274:15276   */\n      0x20\n        /* \"--CODEGEN--\":15263:15272   */\n      dup3\n        /* \"--CODEGEN--\":15259:15277   */\n      add\n        /* \"--CODEGEN--\":15251:15277   */\n      swap1\n      pop\n        /* \"--CODEGEN--\":15288:15355   */\n      tag_369\n        /* \"--CODEGEN--\":15352:15353   */\n      0x00\n        /* \"--CODEGEN--\":15341:15350   */\n      dup4\n        /* \"--CODEGEN--\":15337:15354   */\n      add\n        /* \"--CODEGEN--\":15328:15334   */\n      dup5\n        /* \"--CODEGEN--\":15288:15355   */\n      jump(tag_359)\n    tag_369:\n        /* \"--CODEGEN--\":15245:15365   */\n      swap3\n      swap2\n      pop\n      pop\n      jump\n        /* \"--CODEGEN--\":15372:15628   */\n    tag_203:\n      0x00\n        /* \"--CODEGEN--\":15434:15436   */\n      0x40\n        /* \"--CODEGEN--\":15428:15437   */\n      mload\n        /* \"--CODEGEN--\":15418:15437   */\n      swap1\n      pop\n        /* \"--CODEGEN--\":15472:15476   */\n      dup2\n        /* \"--CODEGEN--\":15464:15470   */\n      dup2\n        /* \"--CODEGEN--\":15460:15477   */\n      add\n        /* \"--CODEGEN--\":15571:15577   */\n      dup2\n        /* \"--CODEGEN--\":15559:15569   */\n      dup2\n        /* \"--CODEGEN--\":15556:15578   */\n      lt\n        /* \"--CODEGEN--\":15535:15553   */\n      0xffffffffffffffff\n        /* \"--CODEGEN--\":15523:15533   */\n      dup3\n        /* \"--CODEGEN--\":15520:15554   */\n      gt\n        /* \"--CODEGEN--\":15517:15579   */\n      or\n        /* \"--CODEGEN--\":15514:15516   */\n      iszero\n      tag_370\n      jumpi\n        /* \"--CODEGEN--\":15592:15593   */\n      0x00\n        /* \"--CODEGEN--\":15589:15590   */\n      dup1\n        /* \"--CODEGEN--\":15582:15594   */\n      revert\n        /* \"--CODEGEN--\":15514:15516   */\n    tag_370:\n        /* \"--CODEGEN--\":15612:15622   */\n      dup1\n        /* \"--CODEGEN--\":15608:15610   */\n      0x40\n        /* \"--CODEGEN--\":15601:15623   */\n      mstore\n        /* \"--CODEGEN--\":15412:15628   */\n      pop\n      swap2\n      swap1\n      pop\n      jump\n        /* \"--CODEGEN--\":15635:15939   */\n    tag_202:\n      0x00\n        /* \"--CODEGEN--\":15794:15812   */\n      0xffffffffffffffff\n        /* \"--CODEGEN--\":15786:15792   */\n      dup3\n        /* \"--CODEGEN--\":15783:15813   */\n      gt\n        /* \"--CODEGEN--\":15780:15782   */\n      iszero\n      tag_371\n      jumpi\n        /* \"--CODEGEN--\":15826:15827   */\n      0x00\n        /* \"--CODEGEN--\":15823:15824   */\n      dup1\n        /* \"--CODEGEN--\":15816:15828   */\n      revert\n        /* \"--CODEGEN--\":15780:15782   */\n    tag_371:\n        /* \"--CODEGEN--\":15861:15865   */\n      0x20\n        /* \"--CODEGEN--\":15853:15859   */\n      dup3\n        /* \"--CODEGEN--\":15849:15866   */\n      mul\n        /* \"--CODEGEN--\":15841:15866   */\n      swap1\n      pop\n        /* \"--CODEGEN--\":15924:15928   */\n      0x20\n        /* \"--CODEGEN--\":15918:15922   */\n      dup2\n        /* \"--CODEGEN--\":15914:15929   */\n      add\n        /* \"--CODEGEN--\":15906:15929   */\n      swap1\n      pop\n        /* \"--CODEGEN--\":15717:15939   */\n      swap2\n      swap1\n      pop\n      jump\n        /* \"--CODEGEN--\":15946:16256   */\n    tag_213:\n      0x00\n        /* \"--CODEGEN--\":16111:16129   */\n      0xffffffffffffffff\n        /* \"--CODEGEN--\":16103:16109   */\n      dup3\n        /* \"--CODEGEN--\":16100:16130   */\n      gt\n        /* \"--CODEGEN--\":16097:16099   */\n      iszero\n      tag_372\n      jumpi\n        /* \"--CODEGEN--\":16143:16144   */\n      0x00\n        /* \"--CODEGEN--\":16140:16141   */\n      dup1\n        /* \"--CODEGEN--\":16133:16145   */\n      revert\n        /* \"--CODEGEN--\":16097:16099   */\n    tag_372:\n        /* \"--CODEGEN--\":16178:16182   */\n      0x20\n        /* \"--CODEGEN--\":16170:16176   */\n      dup3\n        /* \"--CODEGEN--\":16166:16183   */\n      mul\n        /* \"--CODEGEN--\":16158:16183   */\n      swap1\n      pop\n        /* \"--CODEGEN--\":16241:16245   */\n      0x20\n        /* \"--CODEGEN--\":16235:16239   */\n      dup2\n        /* \"--CODEGEN--\":16231:16246   */\n      add\n        /* \"--CODEGEN--\":16223:16246   */\n      swap1\n      pop\n        /* \"--CODEGEN--\":16034:16256   */\n      swap2\n      swap1\n      pop\n      jump\n        /* \"--CODEGEN--\":16263:16565   */\n    tag_223:\n      0x00\n        /* \"--CODEGEN--\":16420:16438   */\n      0xffffffffffffffff\n        /* \"--CODEGEN--\":16412:16418   */\n      dup3\n        /* \"--CODEGEN--\":16409:16439   */\n      gt\n        /* \"--CODEGEN--\":16406:16408   */\n      iszero\n      tag_373\n      jumpi\n        /* \"--CODEGEN--\":16452:16453   */\n      0x00\n        /* \"--CODEGEN--\":16449:16450   */\n      dup1\n        /* \"--CODEGEN--\":16442:16454   */\n      revert\n        /* \"--CODEGEN--\":16406:16408   */\n    tag_373:\n        /* \"--CODEGEN--\":16487:16491   */\n      0x20\n        /* \"--CODEGEN--\":16479:16485   */\n      dup3\n        /* \"--CODEGEN--\":16475:16492   */\n      mul\n        /* \"--CODEGEN--\":16467:16492   */\n      swap1\n      pop\n        /* \"--CODEGEN--\":16550:16554   */\n      0x20\n        /* \"--CODEGEN--\":16544:16548   */\n      dup2\n        /* \"--CODEGEN--\":16540:16555   */\n      add\n        /* \"--CODEGEN--\":16532:16555   */\n      swap1\n      pop\n        /* \"--CODEGEN--\":16343:16565   */\n      swap2\n      swap1\n      pop\n      jump\n        /* \"--CODEGEN--\":16572:16890   */\n    tag_233:\n      0x00\n        /* \"--CODEGEN--\":16712:16730   */\n      0xffffffffffffffff\n        /* \"--CODEGEN--\":16704:16710   */\n      dup3\n        /* \"--CODEGEN--\":16701:16731   */\n      gt\n        /* \"--CODEGEN--\":16698:16700   */\n      iszero\n      tag_374\n      jumpi\n        /* \"--CODEGEN--\":16744:16745   */\n      0x00\n        /* \"--CODEGEN--\":16741:16742   */\n      dup1\n        /* \"--CODEGEN--\":16734:16746   */\n      revert\n        /* \"--CODEGEN--\":16698:16700   */\n    tag_374:\n        /* \"--CODEGEN--\":16811:16815   */\n      0x1f\n        /* \"--CODEGEN--\":16807:16816   */\n      not\n        /* \"--CODEGEN--\":16800:16804   */\n      0x1f\n        /* \"--CODEGEN--\":16792:16798   */\n      dup4\n        /* \"--CODEGEN--\":16788:16805   */\n      add\n        /* \"--CODEGEN--\":16784:16817   */\n      and\n        /* \"--CODEGEN--\":16776:16817   */\n      swap1\n      pop\n        /* \"--CODEGEN--\":16875:16879   */\n      0x20\n        /* \"--CODEGEN--\":16869:16873   */\n      dup2\n        /* \"--CODEGEN--\":16865:16880   */\n      add\n        /* \"--CODEGEN--\":16857:16880   */\n      swap1\n      pop\n        /* \"--CODEGEN--\":16635:16890   */\n      swap2\n      swap1\n      pop\n      jump\n        /* \"--CODEGEN--\":16897:17219   */\n    tag_241:\n      0x00\n        /* \"--CODEGEN--\":17041:17059   */\n      0xffffffffffffffff\n        /* \"--CODEGEN--\":17033:17039   */\n      dup3\n        /* \"--CODEGEN--\":17030:17060   */\n      gt\n        /* \"--CODEGEN--\":17027:17029   */\n      iszero\n      tag_375\n      jumpi\n        /* \"--CODEGEN--\":17073:17074   */\n      0x00\n        /* \"--CODEGEN--\":17070:17071   */\n      dup1\n        /* \"--CODEGEN--\":17063:17075   */\n      revert\n        /* \"--CODEGEN--\":17027:17029   */\n    tag_375:\n        /* \"--CODEGEN--\":17140:17144   */\n      0x1f\n        /* \"--CODEGEN--\":17136:17145   */\n      not\n        /* \"--CODEGEN--\":17129:17133   */\n      0x1f\n        /* \"--CODEGEN--\":17121:17127   */\n      dup4\n        /* \"--CODEGEN--\":17117:17134   */\n      add\n        /* \"--CODEGEN--\":17113:17146   */\n      and\n        /* \"--CODEGEN--\":17105:17146   */\n      swap1\n      pop\n        /* \"--CODEGEN--\":17204:17208   */\n      0x20\n        /* \"--CODEGEN--\":17198:17202   */\n      dup2\n        /* \"--CODEGEN--\":17194:17209   */\n      add\n        /* \"--CODEGEN--\":17186:17209   */\n      swap1\n      pop\n        /* \"--CODEGEN--\":16964:17219   */\n      swap2\n      swap1\n      pop\n      jump\n        /* \"--CODEGEN--\":17226:17383   */\n    tag_311:\n      0x00\n        /* \"--CODEGEN--\":17318:17321   */\n      dup2\n        /* \"--CODEGEN--\":17310:17321   */\n      swap1\n      pop\n        /* \"--CODEGEN--\":17356:17360   */\n      0x20\n        /* \"--CODEGEN--\":17351:17354   */\n      dup3\n        /* \"--CODEGEN--\":17347:17361   */\n      add\n        /* \"--CODEGEN--\":17339:17361   */\n      swap1\n      pop\n        /* \"--CODEGEN--\":17304:17383   */\n      swap2\n      swap1\n      pop\n      jump\n        /* \"--CODEGEN--\":17390:17540   */\n    tag_324:\n      0x00\n        /* \"--CODEGEN--\":17475:17478   */\n      dup2\n        /* \"--CODEGEN--\":17467:17478   */\n      swap1\n      pop\n        /* \"--CODEGEN--\":17513:17517   */\n      0x20\n        /* \"--CODEGEN--\":17508:17511   */\n      dup3\n        /* \"--CODEGEN--\":17504:17518   */\n      add\n        /* \"--CODEGEN--\":17496:17518   */\n      swap1\n      pop\n        /* \"--CODEGEN--\":17461:17540   */\n      swap2\n      swap1\n      pop\n      jump\n        /* \"--CODEGEN--\":17547:17690   */\n    tag_307:\n      0x00\n        /* \"--CODEGEN--\":17662:17667   */\n      dup2\n        /* \"--CODEGEN--\":17656:17668   */\n      mload\n        /* \"--CODEGEN--\":17646:17668   */\n      swap1\n      pop\n        /* \"--CODEGEN--\":17627:17690   */\n      swap2\n      swap1\n      pop\n      jump\n        /* \"--CODEGEN--\":17697:17833   */\n    tag_320:\n      0x00\n        /* \"--CODEGEN--\":17805:17810   */\n      dup2\n        /* \"--CODEGEN--\":17799:17811   */\n      mload\n        /* \"--CODEGEN--\":17789:17811   */\n      swap1\n      pop\n        /* \"--CODEGEN--\":17770:17833   */\n      swap2\n      swap1\n      pop\n      jump\n        /* \"--CODEGEN--\":17840:17958   */\n    tag_346:\n      0x00\n        /* \"--CODEGEN--\":17930:17935   */\n      dup2\n        /* \"--CODEGEN--\":17924:17936   */\n      mload\n        /* \"--CODEGEN--\":17914:17936   */\n      swap1\n      pop\n        /* \"--CODEGEN--\":17895:17958   */\n      swap2\n      swap1\n      pop\n      jump\n        /* \"--CODEGEN--\":17965:18087   */\n    tag_333:\n      0x00\n        /* \"--CODEGEN--\":18059:18064   */\n      dup2\n        /* \"--CODEGEN--\":18053:18065   */\n      mload\n        /* \"--CODEGEN--\":18043:18065   */\n      swap1\n      pop\n        /* \"--CODEGEN--\":18024:18087   */\n      swap2\n      swap1\n      pop\n      jump\n        /* \"--CODEGEN--\":18094:18208   */\n    tag_317:\n      0x00\n        /* \"--CODEGEN--\":18198:18202   */\n      0x20\n        /* \"--CODEGEN--\":18193:18196   */\n      dup3\n        /* \"--CODEGEN--\":18189:18203   */\n      add\n        /* \"--CODEGEN--\":18181:18203   */\n      swap1\n      pop\n        /* \"--CODEGEN--\":18175:18208   */\n      swap2\n      swap1\n      pop\n      jump\n        /* \"--CODEGEN--\":18215:18322   */\n    tag_330:\n      0x00\n        /* \"--CODEGEN--\":18312:18316   */\n      0x20\n        /* \"--CODEGEN--\":18307:18310   */\n      dup3\n        /* \"--CODEGEN--\":18303:18317   */\n      add\n        /* \"--CODEGEN--\":18295:18317   */\n      swap1\n      pop\n        /* \"--CODEGEN--\":18289:18322   */\n      swap2\n      swap1\n      pop\n      jump\n        /* \"--CODEGEN--\":18330:18514   */\n    tag_309:\n      0x00\n        /* \"--CODEGEN--\":18466:18472   */\n      dup3\n        /* \"--CODEGEN--\":18461:18464   */\n      dup3\n        /* \"--CODEGEN--\":18454:18473   */\n      mstore\n        /* \"--CODEGEN--\":18503:18507   */\n      0x20\n        /* \"--CODEGEN--\":18498:18501   */\n      dup3\n        /* \"--CODEGEN--\":18494:18508   */\n      add\n        /* \"--CODEGEN--\":18479:18508   */\n      swap1\n      pop\n        /* \"--CODEGEN--\":18447:18514   */\n      swap3\n      swap2\n      pop\n      pop\n      jump\n        /* \"--CODEGEN--\":18523:18700   */\n    tag_322:\n      0x00\n        /* \"--CODEGEN--\":18652:18658   */\n      dup3\n        /* \"--CODEGEN--\":18647:18650   */\n      dup3\n        /* \"--CODEGEN--\":18640:18659   */\n      mstore\n        /* \"--CODEGEN--\":18689:18693   */\n      0x20\n        /* \"--CODEGEN--\":18684:18687   */\n      dup3\n        /* \"--CODEGEN--\":18680:18694   */\n      add\n        /* \"--CODEGEN--\":18665:18694   */\n      swap1\n      pop\n        /* \"--CODEGEN--\":18633:18700   */\n      swap3\n      swap2\n      pop\n      pop\n      jump\n        /* \"--CODEGEN--\":18709:18862   */\n    tag_348:\n      0x00\n        /* \"--CODEGEN--\":18814:18820   */\n      dup3\n        /* \"--CODEGEN--\":18809:18812   */\n      dup3\n        /* \"--CODEGEN--\":18802:18821   */\n      mstore\n        /* \"--CODEGEN--\":18851:18855   */\n      0x20\n        /* \"--CODEGEN--\":18846:18849   */\n      dup3\n        /* \"--CODEGEN--\":18842:18856   */\n      add\n        /* \"--CODEGEN--\":18827:18856   */\n      swap1\n      pop\n        /* \"--CODEGEN--\":18795:18862   */\n      swap3\n      swap2\n      pop\n      pop\n      jump\n        /* \"--CODEGEN--\":18871:19034   */\n    tag_335:\n      0x00\n        /* \"--CODEGEN--\":18986:18992   */\n      dup3\n        /* \"--CODEGEN--\":18981:18984   */\n      dup3\n        /* \"--CODEGEN--\":18974:18993   */\n      mstore\n        /* \"--CODEGEN--\":19023:19027   */\n      0x20\n        /* \"--CODEGEN--\":19018:19021   */\n      dup3\n        /* \"--CODEGEN--\":19014:19028   */\n      add\n        /* \"--CODEGEN--\":18999:19028   */\n      swap1\n      pop\n        /* \"--CODEGEN--\":18967:19034   */\n      swap3\n      swap2\n      pop\n      pop\n      jump\n        /* \"--CODEGEN--\":19043:19188   */\n    tag_343:\n      0x00\n        /* \"--CODEGEN--\":19179:19182   */\n      dup2\n        /* \"--CODEGEN--\":19164:19182   */\n      swap1\n      pop\n        /* \"--CODEGEN--\":19157:19188   */\n      swap3\n      swap2\n      pop\n      pop\n      jump\n        /* \"--CODEGEN--\":19196:19287   */\n    tag_376:\n      0x00\n        /* \"--CODEGEN--\":19258:19282   */\n      tag_377\n        /* \"--CODEGEN--\":19276:19281   */\n      dup3\n        /* \"--CODEGEN--\":19258:19282   */\n      jump(tag_378)\n    tag_377:\n        /* \"--CODEGEN--\":19247:19282   */\n      swap1\n      pop\n        /* \"--CODEGEN--\":19241:19287   */\n      swap2\n      swap1\n      pop\n      jump\n        /* \"--CODEGEN--\":19294:19415   */\n    tag_378:\n      0x00\n        /* \"--CODEGEN--\":19367:19409   */\n      0xffffffffffffffffffffffffffffffffffffffff\n        /* \"--CODEGEN--\":19360:19365   */\n      dup3\n        /* \"--CODEGEN--\":19356:19410   */\n      and\n        /* \"--CODEGEN--\":19345:19410   */\n      swap1\n      pop\n        /* \"--CODEGEN--\":19339:19415   */\n      swap2\n      swap1\n      pop\n      jump\n        /* \"--CODEGEN--\":19422:19494   */\n    tag_379:\n      0x00\n        /* \"--CODEGEN--\":19484:19489   */\n      dup2\n        /* \"--CODEGEN--\":19473:19489   */\n      swap1\n      pop\n        /* \"--CODEGEN--\":19467:19494   */\n      swap2\n      swap1\n      pop\n      jump\n        /* \"--CODEGEN--\":19501:19589   */\n    tag_356:\n      0x00\n        /* \"--CODEGEN--\":19573:19583   */\n      0xffffffff\n        /* \"--CODEGEN--\":19566:19571   */\n      dup3\n        /* \"--CODEGEN--\":19562:19584   */\n      and\n        /* \"--CODEGEN--\":19551:19584   */\n      swap1\n      pop\n        /* \"--CODEGEN--\":19545:19589   */\n      swap2\n      swap1\n      pop\n      jump\n        /* \"--CODEGEN--\":19596:19677   */\n    tag_361:\n      0x00\n        /* \"--CODEGEN--\":19667:19671   */\n      0xff\n        /* \"--CODEGEN--\":19660:19665   */\n      dup3\n        /* \"--CODEGEN--\":19656:19672   */\n      and\n        /* \"--CODEGEN--\":19645:19672   */\n      swap1\n      pop\n        /* \"--CODEGEN--\":19639:19677   */\n      swap2\n      swap1\n      pop\n      jump\n        /* \"--CODEGEN--\":19685:19830   */\n    tag_236:\n        /* \"--CODEGEN--\":19766:19772   */\n      dup3\n        /* \"--CODEGEN--\":19761:19764   */\n      dup2\n        /* \"--CODEGEN--\":19756:19759   */\n      dup4\n        /* \"--CODEGEN--\":19743:19773   */\n      calldatacopy\n        /* \"--CODEGEN--\":19822:19823   */\n      0x00\n        /* \"--CODEGEN--\":19813:19819   */\n      dup4\n        /* \"--CODEGEN--\":19808:19811   */\n      dup4\n        /* \"--CODEGEN--\":19804:19820   */\n      add\n        /* \"--CODEGEN--\":19797:19824   */\n      mstore\n        /* \"--CODEGEN--\":19736:19830   */\n      pop\n      pop\n      pop\n      jump\n        /* \"--CODEGEN--\":19839:20107   */\n    tag_337:\n        /* \"--CODEGEN--\":19904:19905   */\n      0x00\n        /* \"--CODEGEN--\":19911:20012   */\n    tag_380:\n        /* \"--CODEGEN--\":19925:19931   */\n      dup4\n        /* \"--CODEGEN--\":19922:19923   */\n      dup2\n        /* \"--CODEGEN--\":19919:19932   */\n      lt\n        /* \"--CODEGEN--\":19911:20012   */\n      iszero\n      tag_382\n      jumpi\n        /* \"--CODEGEN--\":20001:20002   */\n      dup1\n        /* \"--CODEGEN--\":19996:19999   */\n      dup3\n        /* \"--CODEGEN--\":19992:20003   */\n      add\n        /* \"--CODEGEN--\":19986:20004   */\n      mload\n        /* \"--CODEGEN--\":19982:19983   */\n      dup2\n        /* \"--CODEGEN--\":19977:19980   */\n      dup5\n        /* \"--CODEGEN--\":19973:19984   */\n      add\n        /* \"--CODEGEN--\":19966:20005   */\n      mstore\n        /* \"--CODEGEN--\":19947:19949   */\n      0x20\n        /* \"--CODEGEN--\":19944:19945   */\n      dup2\n        /* \"--CODEGEN--\":19940:19950   */\n      add\n        /* \"--CODEGEN--\":19935:19950   */\n      swap1\n      pop\n        /* \"--CODEGEN--\":19911:20012   */\n      jump(tag_380)\n    tag_382:\n        /* \"--CODEGEN--\":20027:20033   */\n      dup4\n        /* \"--CODEGEN--\":20024:20025   */\n      dup2\n        /* \"--CODEGEN--\":20021:20034   */\n      gt\n        /* \"--CODEGEN--\":20018:20020   */\n      iszero\n      tag_383\n      jumpi\n        /* \"--CODEGEN--\":20092:20093   */\n      0x00\n        /* \"--CODEGEN--\":20083:20089   */\n      dup5\n        /* \"--CODEGEN--\":20078:20081   */\n      dup5\n        /* \"--CODEGEN--\":20074:20090   */\n      add\n        /* \"--CODEGEN--\":20067:20094   */\n      mstore\n        /* \"--CODEGEN--\":20018:20020   */\n    tag_383:\n        /* \"--CODEGEN--\":19888:20107   */\n      pop\n      pop\n      pop\n      pop\n      jump\n        /* \"--CODEGEN--\":20115:20212   */\n    tag_339:\n      0x00\n        /* \"--CODEGEN--\":20203:20205   */\n      0x1f\n        /* \"--CODEGEN--\":20199:20206   */\n      not\n        /* \"--CODEGEN--\":20194:20196   */\n      0x1f\n        /* \"--CODEGEN--\":20187:20192   */\n      dup4\n        /* \"--CODEGEN--\":20183:20197   */\n      add\n        /* \"--CODEGEN--\":20179:20207   */\n      and\n        /* \"--CODEGEN--\":20169:20207   */\n      swap1\n      pop\n        /* \"--CODEGEN--\":20163:20212   */\n      swap2\n      swap1\n      pop\n      jump\n        /* \"--CODEGEN--\":20220:20337   */\n    tag_197:\n        /* \"--CODEGEN--\":20289:20313   */\n      tag_384\n        /* \"--CODEGEN--\":20307:20312   */\n      dup2\n        /* \"--CODEGEN--\":20289:20313   */\n      jump(tag_376)\n    tag_384:\n        /* \"--CODEGEN--\":20282:20287   */\n      dup2\n        /* \"--CODEGEN--\":20279:20314   */\n      eq\n        /* \"--CODEGEN--\":20269:20271   */\n      tag_385\n      jumpi\n        /* \"--CODEGEN--\":20328:20329   */\n      0x00\n        /* \"--CODEGEN--\":20325:20326   */\n      dup1\n        /* \"--CODEGEN--\":20318:20330   */\n      revert\n        /* \"--CODEGEN--\":20269:20271   */\n    tag_385:\n        /* \"--CODEGEN--\":20263:20337   */\n      pop\n      jump\n        /* \"--CODEGEN--\":20344:20461   */\n    tag_246:\n        /* \"--CODEGEN--\":20413:20437   */\n      tag_386\n        /* \"--CODEGEN--\":20431:20436   */\n      dup2\n        /* \"--CODEGEN--\":20413:20437   */\n      jump(tag_379)\n    tag_386:\n        /* \"--CODEGEN--\":20406:20411   */\n      dup2\n        /* \"--CODEGEN--\":20403:20438   */\n      eq\n        /* \"--CODEGEN--\":20393:20395   */\n      tag_387\n      jumpi\n        /* \"--CODEGEN--\":20452:20453   */\n      0x00\n        /* \"--CODEGEN--\":20449:20450   */\n      dup1\n        /* \"--CODEGEN--\":20442:20454   */\n      revert\n        /* \"--CODEGEN--\":20393:20395   */\n    tag_387:\n        /* \"--CODEGEN--\":20387:20461   */\n      pop\n      jump\n        /* \"--CODEGEN--\":20468:20583   */\n    tag_249:\n        /* \"--CODEGEN--\":20536:20559   */\n      tag_388\n        /* \"--CODEGEN--\":20553:20558   */\n      dup2\n        /* \"--CODEGEN--\":20536:20559   */\n      jump(tag_356)\n    tag_388:\n        /* \"--CODEGEN--\":20529:20534   */\n      dup2\n        /* \"--CODEGEN--\":20526:20560   */\n      eq\n        /* \"--CODEGEN--\":20516:20518   */\n      tag_389\n      jumpi\n        /* \"--CODEGEN--\":20574:20575   */\n      0x00\n        /* \"--CODEGEN--\":20571:20572   */\n      dup1\n        /* \"--CODEGEN--\":20564:20576   */\n      revert\n        /* \"--CODEGEN--\":20516:20518   */\n    tag_389:\n        /* \"--CODEGEN--\":20510:20583   */\n      pop\n      jump\n        /* \"--CODEGEN--\":20590:20703   */\n    tag_251:\n        /* \"--CODEGEN--\":20657:20679   */\n      tag_390\n        /* \"--CODEGEN--\":20673:20678   */\n      dup2\n        /* \"--CODEGEN--\":20657:20679   */\n      jump(tag_361)\n    tag_390:\n        /* \"--CODEGEN--\":20650:20655   */\n      dup2\n        /* \"--CODEGEN--\":20647:20680   */\n      eq\n        /* \"--CODEGEN--\":20637:20639   */\n      tag_391\n      jumpi\n        /* \"--CODEGEN--\":20694:20695   */\n      0x00\n        /* \"--CODEGEN--\":20691:20692   */\n      dup1\n        /* \"--CODEGEN--\":20684:20696   */\n      revert\n        /* \"--CODEGEN--\":20637:20639   */\n    tag_391:\n        /* \"--CODEGEN--\":20631:20703   */\n      pop\n      jump\n\n    auxdata: 0xa365627a7a723158206345c660caa2749a0b8d75551059d39c6430386ea53c5076d0e5aa7751e75cdc6c6578706572696d656e74616cf564736f6c63430005110040\n}\n",
				"bytecode": {
					"linkReferences": {},
					"object": "608060405234801561001057600080fd5b50611bba806100206000396000f3fe608060405234801561001057600080fd5b506004361061009e5760003560e01c806389069ea71161006657806389069ea7146101435780639361435614610174578063aa86c8fc146101a4578063bd289582146101d4578063fe7f2692146101f05761009e565b80630b3e9bfc146100a3578063252e7bed146100bf578063612fa967146100db57806361650af7146100f75780636725f91314610113575b600080fd5b6100bd60048036036100b8919081019061154b565b610220565b005b6100d960048036036100d49190810190611392565b61033b565b005b6100f560048036036100f09190810190611392565b610408565b005b610111600480360361010c91908101906114a4565b61045c565b005b61012d6004803603610128919081019061133e565b61050f565b60405161013a919061180c565b60405180910390f35b61015d600480360361015891908101906111fc565b610633565b60405161016b92919061182e565b60405180910390f35b61018e6004803603610189919081019061133e565b61088a565b60405161019b9190611887565b60405180910390f35b6101be60048036036101b99190810190611411565b6108de565b6040516101cb91906118a2565b60405180910390f35b6101ee60048036036101e9919081019061123d565b61098a565b005b61020a6004803603610205919081019061133e565b610bb5565b6040516102179190611865565b60405180910390f35b6000600180600360008860405161023791906117f5565b9081526020016040518091039020878154811061025057fe5b90600052602060002090600502016000018560405161026f91906117f5565b908152602001604051809103902060003373ffffffffffffffffffffffffffffffffffffffff1673ffffffffffffffffffffffffffffffffffffffff16815260200190815260200160002060009054906101000a900460ff1660ff16901c1660ff16149050806102db57fe5b826000866040516102ec91906117f5565b9081526020016040518091039020858154811061030557fe5b906000526020600020906005020160030160006101000a81548163ffffffff021916908363ffffffff1602179055505050505050565b600060018060008660405161035091906117f5565b9081526020016040518091039020858154811061036957fe5b90600052602060002090600502016000018460405161038891906117f5565b908152602001604051809103902060003373ffffffffffffffffffffffffffffffffffffffff1673ffffffffffffffffffffffffffffffffffffffff16815260200190815260200160002060009054906101000a900460ff161660ff16149050806103ef57fe5b3373ffffffffffffffffffffffffffffffffffffffff16ff5b8060008460405161041991906117f5565b9081526020016040518091039020838154811061043257fe5b90600052602060002090600502016004019080519060200190610456929190610c92565b50505050565b8060008660405161046d91906117f5565b9081526020016040518091039020858154811061048657fe5b9060005260206000209060050201600001846040516104a591906117f5565b908152602001604051809103902060008473ffffffffffffffffffffffffffffffffffffffff1673ffffffffffffffffffffffffffffffffffffffff16815260200190815260200160002060006101000a81548160ff021916908360ff1602179055505050505050565b606060008360405161052191906117f5565b9081526020016040518091039020828154811061053a57fe5b9060005260206000209060050201600101805480602002602001604051908101604052809291908181526020016000905b82821015610627578382906000526020600020018054600181600116156101000203166002900480601f0160208091040260200160405190810160405280929190818152602001828054600181600116156101000203166002900480156106135780601f106105e857610100808354040283529160200191610613565b820191906000526020600020905b8154815290600101906020018083116105f657829003601f168201915b50505050508152602001906001019061056b565b50505050905092915050565b606080606060008460405161064891906117f5565b90815260200160405180910390208054905060405190808252806020026020018201604052801561068d57816020015b60608152602001906001900390816106785790505b50905060606000856040516106a291906117f5565b9081526020016040518091039020805490506040519080825280602002602001820160405280156106e25781602001602082028038833980820191505090505b50905060008090505b6000866040516106fb91906117f5565b90815260200160405180910390208054905081101561087c5760008660405161072491906117f5565b9081526020016040518091039020818154811061073d57fe5b90600052602060002090600502016004018054600181600116156101000203166002900480601f0160208091040260200160405190810160405280929190818152602001828054600181600116156101000203166002900480156107e25780601f106107b7576101008083540402835291602001916107e2565b820191906000526020600020905b8154815290600101906020018083116107c557829003601f168201915b50505050508382815181106107f357fe5b602002602001018190525060008660405161080e91906117f5565b9081526020016040518091039020818154811061082757fe5b906000526020600020906005020160030160009054906101000a900463ffffffff1682828151811061085557fe5b602002602001019063ffffffff16908163ffffffff168152505080806001019150506106eb565b508181935093505050915091565b6000808360405161089b91906117f5565b908152602001604051809103902082815481106108b457fe5b906000526020600020906005020160030160009054906101000a900463ffffffff16905092915050565b600080856040516108ef91906117f5565b9081526020016040518091039020848154811061090857fe5b90600052602060002090600502016000018360405161092791906117f5565b908152602001604051809103902060008373ffffffffffffffffffffffffffffffffffffffff1673ffffffffffffffffffffffffffffffffffffffff16815260200190815260200160002060009054906101000a900460ff169050949350505050565b610992610d12565b6040518060800160405280868152602001858152602001600063ffffffff1681526020018781525090506000876040516109cc91906117f5565b908152602001604051809103902081908060018154018082558091505090600182039060005260206000209060050201600090919290919091506000820151816001019080519060200190610a22929190610d40565b506020820151816002019080519060200190610a3f929190610da0565b5060408201518160030160006101000a81548163ffffffff021916908363ffffffff1602179055506060820151816004019080519060200190610a83929190610e2a565b5050505060008090505b82811015610bab57838181518110610aa157fe5b6020026020010151600089604051610ab991906117f5565b9081526020016040518091039020600160008b604051610ad991906117f5565b9081526020016040518091039020805490500381548110610af657fe5b9060005260206000209060050201600001878381518110610b1357fe5b6020026020010151604051610b2891906117de565b90815260200160405180910390206000878481518110610b4457fe5b602002602001015173ffffffffffffffffffffffffffffffffffffffff1673ffffffffffffffffffffffffffffffffffffffff16815260200190815260200160002060006101000a81548160ff021916908360ff1602179055508080600101915050610a8d565b5050505050505050565b6060600083604051610bc791906117f5565b90815260200160405180910390208281548110610be057fe5b90600052602060002090600502016004018054600181600116156101000203166002900480601f016020809104026020016040519081016040528092919081815260200182805460018160011615610100020316600290048015610c855780601f10610c5a57610100808354040283529160200191610c85565b820191906000526020600020905b815481529060010190602001808311610c6857829003601f168201915b5050505050905092915050565b828054600181600116156101000203166002900490600052602060002090601f016020900481019282601f10610cd357805160ff1916838001178555610d01565b82800160010185558215610d01579182015b82811115610d00578251825591602001919060010190610ce5565b5b509050610d0e9190610eaa565b5090565b60405180608001604052806060815260200160608152602001600063ffffffff168152602001606081525090565b828054828255906000526020600020908101928215610d8f579160200282015b82811115610d8e578251829080519060200190610d7e929190610e2a565b5091602001919060010190610d60565b5b509050610d9c9190610ecf565b5090565b828054828255906000526020600020908101928215610e19579160200282015b82811115610e185782518260006101000a81548173ffffffffffffffffffffffffffffffffffffffff021916908373ffffffffffffffffffffffffffffffffffffffff16021790555091602001919060010190610dc0565b5b509050610e269190610efb565b5090565b828054600181600116156101000203166002900490600052602060002090601f016020900481019282601f10610e6b57805160ff1916838001178555610e99565b82800160010185558215610e99579182015b82811115610e98578251825591602001919060010190610e7d565b5b509050610ea69190610eaa565b5090565b610ecc91905b80821115610ec8576000816000905550600101610eb0565b5090565b90565b610ef891905b80821115610ef45760008181610eeb9190610f3e565b50600101610ed5565b5090565b90565b610f3b91905b80821115610f3757600081816101000a81549073ffffffffffffffffffffffffffffffffffffffff021916905550600101610f01565b5090565b90565b50805460018160011615610100020316600290046000825580601f10610f645750610f83565b601f016020900490600052602060002090810190610f829190610eaa565b5b50565b600081359050610f9581611b1b565b92915050565b600082601f830112610fac57600080fd5b8135610fbf610fba826118ea565b6118bd565b91508181835260208401935060208101905083856020840282011115610fe457600080fd5b60005b838110156110145781610ffa8882610f86565b845260208401935060208301925050600181019050610fe7565b5050505092915050565b600082601f83011261102f57600080fd5b813561104261103d82611912565b6118bd565b9150818183526020840193506020810190508360005b83811015611088578135860161106e8882611115565b845260208401935060208301925050600181019050611058565b5050505092915050565b600082601f8301126110a357600080fd5b81356110b66110b18261193a565b6118bd565b915081818352602084019350602081019050838560208402820111156110db57600080fd5b60005b8381101561110b57816110f188826111e7565b8452602084019350602083019250506001810190506110de565b5050505092915050565b600082601f83011261112657600080fd5b813561113961113482611962565b6118bd565b9150808252602083016020830185838301111561115557600080fd5b611160838284611ac8565b50505092915050565b600082601f83011261117a57600080fd5b813561118d6111888261198e565b6118bd565b915080825260208301602083018583830111156111a957600080fd5b6111b4838284611ac8565b50505092915050565b6000813590506111cc81611b32565b92915050565b6000813590506111e181611b49565b92915050565b6000813590506111f681611b60565b92915050565b60006020828403121561120e57600080fd5b600082013567ffffffffffffffff81111561122857600080fd5b61123484828501611169565b91505092915050565b60008060008060008060c0878903121561125657600080fd5b600087013567ffffffffffffffff81111561127057600080fd5b61127c89828a01611169565b965050602087013567ffffffffffffffff81111561129957600080fd5b6112a589828a01611169565b955050604087013567ffffffffffffffff8111156112c257600080fd5b6112ce89828a0161101e565b945050606087013567ffffffffffffffff8111156112eb57600080fd5b6112f789828a01610f9b565b935050608087013567ffffffffffffffff81111561131457600080fd5b61132089828a01611092565b92505060a061133189828a016111bd565b9150509295509295509295565b6000806040838503121561135157600080fd5b600083013567ffffffffffffffff81111561136b57600080fd5b61137785828601611169565b9250506020611388858286016111bd565b9150509250929050565b6000806000606084860312156113a757600080fd5b600084013567ffffffffffffffff8111156113c157600080fd5b6113cd86828701611169565b93505060206113de868287016111bd565b925050604084013567ffffffffffffffff8111156113fb57600080fd5b61140786828701611169565b9150509250925092565b6000806000806080858703121561142757600080fd5b600085013567ffffffffffffffff81111561144157600080fd5b61144d87828801611169565b945050602061145e878288016111bd565b935050604085013567ffffffffffffffff81111561147b57600080fd5b61148787828801611169565b925050606061149887828801610f86565b91505092959194509250565b600080600080600060a086880312156114bc57600080fd5b600086013567ffffffffffffffff8111156114d657600080fd5b6114e288828901611169565b95505060206114f3888289016111bd565b945050604086013567ffffffffffffffff81111561151057600080fd5b61151c88828901611169565b935050606061152d88828901610f86565b925050608061153e888289016111e7565b9150509295509295909350565b6000806000806080858703121561156157600080fd5b600085013567ffffffffffffffff81111561157b57600080fd5b61158787828801611169565b9450506020611598878288016111bd565b93505060406115a9878288016111d2565b925050606085013567ffffffffffffffff8111156115c657600080fd5b6115d287828801611169565b91505092959194509250565b60006115ea8383611747565b905092915050565b60006115fe83836117b1565b60208301905092915050565b6000611615826119da565b61161f8185611a20565b935083602082028501611631856119ba565b8060005b8581101561166d578484038952815161164e85826115de565b945061165983611a06565b925060208a01995050600181019050611635565b50829750879550505050505092915050565b600061168a826119e5565b6116948185611a31565b935061169f836119ca565b8060005b838110156116d05781516116b788826115f2565b97506116c283611a13565b9250506001810190506116a3565b5085935050505092915050565b60006116e8826119fb565b6116f28185611a53565b9350611702818560208601611ad7565b61170b81611b0a565b840191505092915050565b6000611721826119fb565b61172b8185611a64565b935061173b818560208601611ad7565b80840191505092915050565b6000611752826119f0565b61175c8185611a42565b935061176c818560208601611ad7565b61177581611b0a565b840191505092915050565b600061178b826119f0565b6117958185611a64565b93506117a5818560208601611ad7565b80840191505092915050565b6117ba81611aab565b82525050565b6117c981611aab565b82525050565b6117d881611abb565b82525050565b60006117ea8284611780565b915081905092915050565b60006118018284611716565b915081905092915050565b60006020820190508181036000830152611826818461160a565b905092915050565b60006040820190508181036000830152611848818561160a565b9050818103602083015261185c818461167f565b90509392505050565b6000602082019050818103600083015261187f81846116dd565b905092915050565b600060208201905061189c60008301846117c0565b92915050565b60006020820190506118b760008301846117cf565b92915050565b6000604051905081810181811067ffffffffffffffff821117156118e057600080fd5b8060405250919050565b600067ffffffffffffffff82111561190157600080fd5b602082029050602081019050919050565b600067ffffffffffffffff82111561192957600080fd5b602082029050602081019050919050565b600067ffffffffffffffff82111561195157600080fd5b602082029050602081019050919050565b600067ffffffffffffffff82111561197957600080fd5b601f19601f8301169050602081019050919050565b600067ffffffffffffffff8211156119a557600080fd5b601f19601f8301169050602081019050919050565b6000819050602082019050919050565b6000819050602082019050919050565b600081519050919050565b600081519050919050565b600081519050919050565b600081519050919050565b6000602082019050919050565b6000602082019050919050565b600082825260208201905092915050565b600082825260208201905092915050565b600082825260208201905092915050565b600082825260208201905092915050565b600081905092915050565b6000611a7a82611a81565b9050919050565b600073ffffffffffffffffffffffffffffffffffffffff82169050919050565b6000819050919050565b600063ffffffff82169050919050565b600060ff82169050919050565b82818337600083830152505050565b60005b83811015611af5578082015181840152602081019050611ada565b83811115611b04576000848401525b50505050565b6000601f19601f8301169050919050565b611b2481611a6f565b8114611b2f57600080fd5b50565b611b3b81611aa1565b8114611b4657600080fd5b50565b611b5281611aab565b8114611b5d57600080fd5b50565b611b6981611abb565b8114611b7457600080fd5b5056fea365627a7a723158206345c660caa2749a0b8d75551059d39c6430386ea53c5076d0e5aa7751e75cdc6c6578706572696d656e74616cf564736f6c63430005110040",
					"opcodes": "PUSH1 0x80 PUSH1 0x40 MSTORE CALLVALUE DUP1 ISZERO PUSH2 0x10 JUMPI PUSH1 0x0 DUP1 REVERT JUMPDEST POP PUSH2 0x1BBA DUP1 PUSH2 0x20 PUSH1 0x0 CODECOPY PUSH1 0x0 RETURN INVALID PUSH1 0x80 PUSH1 0x40 MSTORE CALLVALUE DUP1 ISZERO PUSH2 0x10 JUMPI PUSH1 0x0 DUP1 REVERT JUMPDEST POP PUSH1 0x4 CALLDATASIZE LT PUSH2 0x9E JUMPI PUSH1 0x0 CALLDATALOAD PUSH1 0xE0 SHR DUP1 PUSH4 0x89069EA7 GT PUSH2 0x66 JUMPI DUP1 PUSH4 0x89069EA7 EQ PUSH2 0x143 JUMPI DUP1 PUSH4 0x93614356 EQ PUSH2 0x174 JUMPI DUP1 PUSH4 0xAA86C8FC EQ PUSH2 0x1A4 JUMPI DUP1 PUSH4 0xBD289582 EQ PUSH2 0x1D4 JUMPI DUP1 PUSH4 0xFE7F2692 EQ PUSH2 0x1F0 JUMPI PUSH2 0x9E JUMP JUMPDEST DUP1 PUSH4 0xB3E9BFC EQ PUSH2 0xA3 JUMPI DUP1 PUSH4 0x252E7BED EQ PUSH2 0xBF JUMPI DUP1 PUSH4 0x612FA967 EQ PUSH2 0xDB JUMPI DUP1 PUSH4 0x61650AF7 EQ PUSH2 0xF7 JUMPI DUP1 PUSH4 0x6725F913 EQ PUSH2 0x113 JUMPI JUMPDEST PUSH1 0x0 DUP1 REVERT JUMPDEST PUSH2 0xBD PUSH1 0x4 DUP1 CALLDATASIZE SUB PUSH2 0xB8 SWAP2 SWAP1 DUP2 ADD SWAP1 PUSH2 0x154B JUMP JUMPDEST PUSH2 0x220 JUMP JUMPDEST STOP JUMPDEST PUSH2 0xD9 PUSH1 0x4 DUP1 CALLDATASIZE SUB PUSH2 0xD4 SWAP2 SWAP1 DUP2 ADD SWAP1 PUSH2 0x1392 JUMP JUMPDEST PUSH2 0x33B JUMP JUMPDEST STOP JUMPDEST PUSH2 0xF5 PUSH1 0x4 DUP1 CALLDATASIZE SUB PUSH2 0xF0 SWAP2 SWAP1 DUP2 ADD SWAP1 PUSH2 0x1392 JUMP JUMPDEST PUSH2 0x408 JUMP JUMPDEST STOP JUMPDEST PUSH2 0x111 PUSH1 0x4 DUP1 CALLDATASIZE SUB PUSH2 0x10C SWAP2 SWAP1 DUP2 ADD SWAP1 PUSH2 0x14A4 JUMP JUMPDEST PUSH2 0x45C JUMP JUMPDEST STOP JUMPDEST PUSH2 0x12D PUSH1 0x4 DUP1 CALLDATASIZE SUB PUSH2 0x128 SWAP2 SWAP1 DUP2 ADD SWAP1 PUSH2 0x133E JUMP JUMPDEST PUSH2 0x50F JUMP JUMPDEST PUSH1 0x40 MLOAD PUSH2 0x13A SWAP2 SWAP1 PUSH2 0x180C JUMP JUMPDEST PUSH1 0x40 MLOAD DUP1 SWAP2 SUB SWAP1 RETURN JUMPDEST PUSH2 0x15D PUSH1 0x4 DUP1 CALLDATASIZE SUB PUSH2 0x158 SWAP2 SWAP1 DUP2 ADD SWAP1 PUSH2 0x11FC JUMP JUMPDEST PUSH2 0x633 JUMP JUMPDEST PUSH1 0x40 MLOAD PUSH2 0x16B SWAP3 SWAP2 SWAP1 PUSH2 0x182E JUMP JUMPDEST PUSH1 0x40 MLOAD DUP1 SWAP2 SUB SWAP1 RETURN JUMPDEST PUSH2 0x18E PUSH1 0x4 DUP1 CALLDATASIZE SUB PUSH2 0x189 SWAP2 SWAP1 DUP2 ADD SWAP1 PUSH2 0x133E JUMP JUMPDEST PUSH2 0x88A JUMP JUMPDEST PUSH1 0x40 MLOAD PUSH2 0x19B SWAP2 SWAP1 PUSH2 0x1887 JUMP JUMPDEST PUSH1 0x40 MLOAD DUP1 SWAP2 SUB SWAP1 RETURN JUMPDEST PUSH2 0x1BE PUSH1 0x4 DUP1 CALLDATASIZE SUB PUSH2 0x1B9 SWAP2 SWAP1 DUP2 ADD SWAP1 PUSH2 0x1411 JUMP JUMPDEST PUSH2 0x8DE JUMP JUMPDEST PUSH1 0x40 MLOAD PUSH2 0x1CB SWAP2 SWAP1 PUSH2 0x18A2 JUMP JUMPDEST PUSH1 0x40 MLOAD DUP1 SWAP2 SUB SWAP1 RETURN JUMPDEST PUSH2 0x1EE PUSH1 0x4 DUP1 CALLDATASIZE SUB PUSH2 0x1E9 SWAP2 SWAP1 DUP2 ADD SWAP1 PUSH2 0x123D JUMP JUMPDEST PUSH2 0x98A JUMP JUMPDEST STOP JUMPDEST PUSH2 0x20A PUSH1 0x4 DUP1 CALLDATASIZE SUB PUSH2 0x205 SWAP2 SWAP1 DUP2 ADD SWAP1 PUSH2 0x133E JUMP JUMPDEST PUSH2 0xBB5 JUMP JUMPDEST PUSH1 0x40 MLOAD PUSH2 0x217 SWAP2 SWAP1 PUSH2 0x1865 JUMP JUMPDEST PUSH1 0x40 MLOAD DUP1 SWAP2 SUB SWAP1 RETURN JUMPDEST PUSH1 0x0 PUSH1 0x1 DUP1 PUSH1 0x3 PUSH1 0x0 DUP9 PUSH1 0x40 MLOAD PUSH2 0x237 SWAP2 SWAP1 PUSH2 0x17F5 JUMP JUMPDEST SWAP1 DUP2 MSTORE PUSH1 0x20 ADD PUSH1 0x40 MLOAD DUP1 SWAP2 SUB SWAP1 KECCAK256 DUP8 DUP2 SLOAD DUP2 LT PUSH2 0x250 JUMPI INVALID JUMPDEST SWAP1 PUSH1 0x0 MSTORE PUSH1 0x20 PUSH1 0x0 KECCAK256 SWAP1 PUSH1 0x5 MUL ADD PUSH1 0x0 ADD DUP6 PUSH1 0x40 MLOAD PUSH2 0x26F SWAP2 SWAP1 PUSH2 0x17F5 JUMP JUMPDEST SWAP1 DUP2 MSTORE PUSH1 0x20 ADD PUSH1 0x40 MLOAD DUP1 SWAP2 SUB SWAP1 KECCAK256 PUSH1 0x0 CALLER PUSH20 0xFFFFFFFFFFFFFFFFFFFFFFFFFFFFFFFFFFFFFFFF AND PUSH20 0xFFFFFFFFFFFFFFFFFFFFFFFFFFFFFFFFFFFFFFFF AND DUP2 MSTORE PUSH1 0x20 ADD SWAP1 DUP2 MSTORE PUSH1 0x20 ADD PUSH1 0x0 KECCAK256 PUSH1 0x0 SWAP1 SLOAD SWAP1 PUSH2 0x100 EXP SWAP1 DIV PUSH1 0xFF AND PUSH1 0xFF AND SWAP1 SHR AND PUSH1 0xFF AND EQ SWAP1 POP DUP1 PUSH2 0x2DB JUMPI INVALID JUMPDEST DUP3 PUSH1 0x0 DUP7 PUSH1 0x40 MLOAD PUSH2 0x2EC SWAP2 SWAP1 PUSH2 0x17F5 JUMP JUMPDEST SWAP1 DUP2 MSTORE PUSH1 0x20 ADD PUSH1 0x40 MLOAD DUP1 SWAP2 SUB SWAP1 KECCAK256 DUP6 DUP2 SLOAD DUP2 LT PUSH2 0x305 JUMPI INVALID JUMPDEST SWAP1 PUSH1 0x0 MSTORE PUSH1 0x20 PUSH1 0x0 KECCAK256 SWAP1 PUSH1 0x5 MUL ADD PUSH1 0x3 ADD PUSH1 0x0 PUSH2 0x100 EXP DUP2 SLOAD DUP2 PUSH4 0xFFFFFFFF MUL NOT AND SWAP1 DUP4 PUSH4 0xFFFFFFFF AND MUL OR SWAP1 SSTORE POP POP POP POP POP POP JUMP JUMPDEST PUSH1 0x0 PUSH1 0x1 DUP1 PUSH1 0x0 DUP7 PUSH1 0x40 MLOAD PUSH2 0x350 SWAP2 SWAP1 PUSH2 0x17F5 JUMP JUMPDEST SWAP1 DUP2 MSTORE PUSH1 0x20 ADD PUSH1 0x40 MLOAD DUP1 SWAP2 SUB SWAP1 KECCAK256 DUP6 DUP2 SLOAD DUP2 LT PUSH2 0x369 JUMPI INVALID JUMPDEST SWAP1 PUSH1 0x0 MSTORE PUSH1 0x20 PUSH1 0x0 KECCAK256 SWAP1 PUSH1 0x5 MUL ADD PUSH1 0x0 ADD DUP5 PUSH1 0x40 MLOAD PUSH2 0x388 SWAP2 SWAP1 PUSH2 0x17F5 JUMP JUMPDEST SWAP1 DUP2 MSTORE PUSH1 0x20 ADD PUSH1 0x40 MLOAD DUP1 SWAP2 SUB SWAP1 KECCAK256 PUSH1 0x0 CALLER PUSH20 0xFFFFFFFFFFFFFFFFFFFFFFFFFFFFFFFFFFFFFFFF AND PUSH20 0xFFFFFFFFFFFFFFFFFFFFFFFFFFFFFFFFFFFFFFFF AND DUP2 MSTORE PUSH1 0x20 ADD SWAP1 DUP2 MSTORE PUSH1 0x20 ADD PUSH1 0x0 KECCAK256 PUSH1 0x0 SWAP1 SLOAD SWAP1 PUSH2 0x100 EXP SWAP1 DIV PUSH1 0xFF AND AND PUSH1 0xFF AND EQ SWAP1 POP DUP1 PUSH2 0x3EF JUMPI INVALID JUMPDEST CALLER PUSH20 0xFFFFFFFFFFFFFFFFFFFFFFFFFFFFFFFFFFFFFFFF AND SELFDESTRUCT JUMPDEST DUP1 PUSH1 0x0 DUP5 PUSH1 0x40 MLOAD PUSH2 0x419 SWAP2 SWAP1 PUSH2 0x17F5 JUMP JUMPDEST SWAP1 DUP2 MSTORE PUSH1 0x20 ADD PUSH1 0x40 MLOAD DUP1 SWAP2 SUB SWAP1 KECCAK256 DUP4 DUP2 SLOAD DUP2 LT PUSH2 0x432 JUMPI INVALID JUMPDEST SWAP1 PUSH1 0x0 MSTORE PUSH1 0x20 PUSH1 0x0 KECCAK256 SWAP1 PUSH1 0x5 MUL ADD PUSH1 0x4 ADD SWAP1 DUP1 MLOAD SWAP1 PUSH1 0x20 ADD SWAP1 PUSH2 0x456 SWAP3 SWAP2 SWAP1 PUSH2 0xC92 JUMP JUMPDEST POP POP POP POP JUMP JUMPDEST DUP1 PUSH1 0x0 DUP7 PUSH1 0x40 MLOAD PUSH2 0x46D SWAP2 SWAP1 PUSH2 0x17F5 JUMP JUMPDEST SWAP1 DUP2 MSTORE PUSH1 0x20 ADD PUSH1 0x40 MLOAD DUP1 SWAP2 SUB SWAP1 KECCAK256 DUP6 DUP2 SLOAD DUP2 LT PUSH2 0x486 JUMPI INVALID JUMPDEST SWAP1 PUSH1 0x0 MSTORE PUSH1 0x20 PUSH1 0x0 KECCAK256 SWAP1 PUSH1 0x5 MUL ADD PUSH1 0x0 ADD DUP5 PUSH1 0x40 MLOAD PUSH2 0x4A5 SWAP2 SWAP1 PUSH2 0x17F5 JUMP JUMPDEST SWAP1 DUP2 MSTORE PUSH1 0x20 ADD PUSH1 0x40 MLOAD DUP1 SWAP2 SUB SWAP1 KECCAK256 PUSH1 0x0 DUP5 PUSH20 0xFFFFFFFFFFFFFFFFFFFFFFFFFFFFFFFFFFFFFFFF AND PUSH20 0xFFFFFFFFFFFFFFFFFFFFFFFFFFFFFFFFFFFFFFFF AND DUP2 MSTORE PUSH1 0x20 ADD SWAP1 DUP2 MSTORE PUSH1 0x20 ADD PUSH1 0x0 KECCAK256 PUSH1 0x0 PUSH2 0x100 EXP DUP2 SLOAD DUP2 PUSH1 0xFF MUL NOT AND SWAP1 DUP4 PUSH1 0xFF AND MUL OR SWAP1 SSTORE POP POP POP POP POP POP JUMP JUMPDEST PUSH1 0x60 PUSH1 0x0 DUP4 PUSH1 0x40 MLOAD PUSH2 0x521 SWAP2 SWAP1 PUSH2 0x17F5 JUMP JUMPDEST SWAP1 DUP2 MSTORE PUSH1 0x20 ADD PUSH1 0x40 MLOAD DUP1 SWAP2 SUB SWAP1 KECCAK256 DUP3 DUP2 SLOAD DUP2 LT PUSH2 0x53A JUMPI INVALID JUMPDEST SWAP1 PUSH1 0x0 MSTORE PUSH1 0x20 PUSH1 0x0 KECCAK256 SWAP1 PUSH1 0x5 MUL ADD PUSH1 0x1 ADD DUP1 SLOAD DUP1 PUSH1 0x20 MUL PUSH1 0x20 ADD PUSH1 0x40 MLOAD SWAP1 DUP2 ADD PUSH1 0x40 MSTORE DUP1 SWAP3 SWAP2 SWAP1 DUP2 DUP2 MSTORE PUSH1 0x20 ADD PUSH1 0x0 SWAP1 JUMPDEST DUP3 DUP3 LT ISZERO PUSH2 0x627 JUMPI DUP4 DUP3 SWAP1 PUSH1 0x0 MSTORE PUSH1 0x20 PUSH1 0x0 KECCAK256 ADD DUP1 SLOAD PUSH1 0x1 DUP2 PUSH1 0x1 AND ISZERO PUSH2 0x100 MUL SUB AND PUSH1 0x2 SWAP1 DIV DUP1 PUSH1 0x1F ADD PUSH1 0x20 DUP1 SWAP2 DIV MUL PUSH1 0x20 ADD PUSH1 0x40 MLOAD SWAP1 DUP2 ADD PUSH1 0x40 MSTORE DUP1 SWAP3 SWAP2 SWAP1 DUP2 DUP2 MSTORE PUSH1 0x20 ADD DUP3 DUP1 SLOAD PUSH1 0x1 DUP2 PUSH1 0x1 AND ISZERO PUSH2 0x100 MUL SUB AND PUSH1 0x2 SWAP1 DIV DUP1 ISZERO PUSH2 0x613 JUMPI DUP1 PUSH1 0x1F LT PUSH2 0x5E8 JUMPI PUSH2 0x100 DUP1 DUP4 SLOAD DIV MUL DUP4 MSTORE SWAP2 PUSH1 0x20 ADD SWAP2 PUSH2 0x613 JUMP JUMPDEST DUP3 ADD SWAP2 SWAP1 PUSH1 0x0 MSTORE PUSH1 0x20 PUSH1 0x0 KECCAK256 SWAP1 JUMPDEST DUP2 SLOAD DUP2 MSTORE SWAP1 PUSH1 0x1 ADD SWAP1 PUSH1 0x20 ADD DUP1 DUP4 GT PUSH2 0x5F6 JUMPI DUP3 SWAP1 SUB PUSH1 0x1F AND DUP3 ADD SWAP2 JUMPDEST POP POP POP POP POP DUP2 MSTORE PUSH1 0x20 ADD SWAP1 PUSH1 0x1 ADD SWAP1 PUSH2 0x56B JUMP JUMPDEST POP POP POP POP SWAP1 POP SWAP3 SWAP2 POP POP JUMP JUMPDEST PUSH1 0x60 DUP1 PUSH1 0x60 PUSH1 0x0 DUP5 PUSH1 0x40 MLOAD PUSH2 0x648 SWAP2 SWAP1 PUSH2 0x17F5 JUMP JUMPDEST SWAP1 DUP2 MSTORE PUSH1 0x20 ADD PUSH1 0x40 MLOAD DUP1 SWAP2 SUB SWAP1 KECCAK256 DUP1 SLOAD SWAP1 POP PUSH1 0x40 MLOAD SWAP1 DUP1 DUP3 MSTORE DUP1 PUSH1 0x20 MUL PUSH1 0x20 ADD DUP3 ADD PUSH1 0x40 MSTORE DUP1 ISZERO PUSH2 0x68D JUMPI DUP2 PUSH1 0x20 ADD JUMPDEST PUSH1 0x60 DUP2 MSTORE PUSH1 0x20 ADD SWAP1 PUSH1 0x1 SWAP1 SUB SWAP1 DUP2 PUSH2 0x678 JUMPI SWAP1 POP JUMPDEST POP SWAP1 POP PUSH1 0x60 PUSH1 0x0 DUP6 PUSH1 0x40 MLOAD PUSH2 0x6A2 SWAP2 SWAP1 PUSH2 0x17F5 JUMP JUMPDEST SWAP1 DUP2 MSTORE PUSH1 0x20 ADD PUSH1 0x40 MLOAD DUP1 SWAP2 SUB SWAP1 KECCAK256 DUP1 SLOAD SWAP1 POP PUSH1 0x40 MLOAD SWAP1 DUP1 DUP3 MSTORE DUP1 PUSH1 0x20 MUL PUSH1 0x20 ADD DUP3 ADD PUSH1 0x40 MSTORE DUP1 ISZERO PUSH2 0x6E2 JUMPI DUP2 PUSH1 0x20 ADD PUSH1 0x20 DUP3 MUL DUP1 CODESIZE DUP4 CODECOPY DUP1 DUP3 ADD SWAP2 POP POP SWAP1 POP JUMPDEST POP SWAP1 POP PUSH1 0x0 DUP1 SWAP1 POP JUMPDEST PUSH1 0x0 DUP7 PUSH1 0x40 MLOAD PUSH2 0x6FB SWAP2 SWAP1 PUSH2 0x17F5 JUMP JUMPDEST SWAP1 DUP2 MSTORE PUSH1 0x20 ADD PUSH1 0x40 MLOAD DUP1 SWAP2 SUB SWAP1 KECCAK256 DUP1 SLOAD SWAP1 POP DUP2 LT ISZERO PUSH2 0x87C JUMPI PUSH1 0x0 DUP7 PUSH1 0x40 MLOAD PUSH2 0x724 SWAP2 SWAP1 PUSH2 0x17F5 JUMP JUMPDEST SWAP1 DUP2 MSTORE PUSH1 0x20 ADD PUSH1 0x40 MLOAD DUP1 SWAP2 SUB SWAP1 KECCAK256 DUP2 DUP2 SLOAD DUP2 LT PUSH2 0x73D JUMPI INVALID JUMPDEST SWAP1 PUSH1 0x0 MSTORE PUSH1 0x20 PUSH1 0x0 KECCAK256 SWAP1 PUSH1 0x5 MUL ADD PUSH1 0x4 ADD DUP1 SLOAD PUSH1 0x1 DUP2 PUSH1 0x1 AND ISZERO PUSH2 0x100 MUL SUB AND PUSH1 0x2 SWAP1 DIV DUP1 PUSH1 0x1F ADD PUSH1 0x20 DUP1 SWAP2 DIV MUL PUSH1 0x20 ADD PUSH1 0x40 MLOAD SWAP1 DUP2 ADD PUSH1 0x40 MSTORE DUP1 SWAP3 SWAP2 SWAP1 DUP2 DUP2 MSTORE PUSH1 0x20 ADD DUP3 DUP1 SLOAD PUSH1 0x1 DUP2 PUSH1 0x1 AND ISZERO PUSH2 0x100 MUL SUB AND PUSH1 0x2 SWAP1 DIV DUP1 ISZERO PUSH2 0x7E2 JUMPI DUP1 PUSH1 0x1F LT PUSH2 0x7B7 JUMPI PUSH2 0x100 DUP1 DUP4 SLOAD DIV MUL DUP4 MSTORE SWAP2 PUSH1 0x20 ADD SWAP2 PUSH2 0x7E2 JUMP JUMPDEST DUP3 ADD SWAP2 SWAP1 PUSH1 0x0 MSTORE PUSH1 0x20 PUSH1 0x0 KECCAK256 SWAP1 JUMPDEST DUP2 SLOAD DUP2 MSTORE SWAP1 PUSH1 0x1 ADD SWAP1 PUSH1 0x20 ADD DUP1 DUP4 GT PUSH2 0x7C5 JUMPI DUP3 SWAP1 SUB PUSH1 0x1F AND DUP3 ADD SWAP2 JUMPDEST POP POP POP POP POP DUP4 DUP3 DUP2 MLOAD DUP2 LT PUSH2 0x7F3 JUMPI INVALID JUMPDEST PUSH1 0x20 MUL PUSH1 0x20 ADD ADD DUP2 SWAP1 MSTORE POP PUSH1 0x0 DUP7 PUSH1 0x40 MLOAD PUSH2 0x80E SWAP2 SWAP1 PUSH2 0x17F5 JUMP JUMPDEST SWAP1 DUP2 MSTORE PUSH1 0x20 ADD PUSH1 0x40 MLOAD DUP1 SWAP2 SUB SWAP1 KECCAK256 DUP2 DUP2 SLOAD DUP2 LT PUSH2 0x827 JUMPI INVALID JUMPDEST SWAP1 PUSH1 0x0 MSTORE PUSH1 0x20 PUSH1 0x0 KECCAK256 SWAP1 PUSH1 0x5 MUL ADD PUSH1 0x3 ADD PUSH1 0x0 SWAP1 SLOAD SWAP1 PUSH2 0x100 EXP SWAP1 DIV PUSH4 0xFFFFFFFF AND DUP3 DUP3 DUP2 MLOAD DUP2 LT PUSH2 0x855 JUMPI INVALID JUMPDEST PUSH1 0x20 MUL PUSH1 0x20 ADD ADD SWAP1 PUSH4 0xFFFFFFFF AND SWAP1 DUP2 PUSH4 0xFFFFFFFF AND DUP2 MSTORE POP POP DUP1 DUP1 PUSH1 0x1 ADD SWAP2 POP POP PUSH2 0x6EB JUMP JUMPDEST POP DUP2 DUP2 SWAP4 POP SWAP4 POP POP POP SWAP2 POP SWAP2 JUMP JUMPDEST PUSH1 0x0 DUP1 DUP4 PUSH1 0x40 MLOAD PUSH2 0x89B SWAP2 SWAP1 PUSH2 0x17F5 JUMP JUMPDEST SWAP1 DUP2 MSTORE PUSH1 0x20 ADD PUSH1 0x40 MLOAD DUP1 SWAP2 SUB SWAP1 KECCAK256 DUP3 DUP2 SLOAD DUP2 LT PUSH2 0x8B4 JUMPI INVALID JUMPDEST SWAP1 PUSH1 0x0 MSTORE PUSH1 0x20 PUSH1 0x0 KECCAK256 SWAP1 PUSH1 0x5 MUL ADD PUSH1 0x3 ADD PUSH1 0x0 SWAP1 SLOAD SWAP1 PUSH2 0x100 EXP SWAP1 DIV PUSH4 0xFFFFFFFF AND SWAP1 POP SWAP3 SWAP2 POP POP JUMP JUMPDEST PUSH1 0x0 DUP1 DUP6 PUSH1 0x40 MLOAD PUSH2 0x8EF SWAP2 SWAP1 PUSH2 0x17F5 JUMP JUMPDEST SWAP1 DUP2 MSTORE PUSH1 0x20 ADD PUSH1 0x40 MLOAD DUP1 SWAP2 SUB SWAP1 KECCAK256 DUP5 DUP2 SLOAD DUP2 LT PUSH2 0x908 JUMPI INVALID JUMPDEST SWAP1 PUSH1 0x0 MSTORE PUSH1 0x20 PUSH1 0x0 KECCAK256 SWAP1 PUSH1 0x5 MUL ADD PUSH1 0x0 ADD DUP4 PUSH1 0x40 MLOAD PUSH2 0x927 SWAP2 SWAP1 PUSH2 0x17F5 JUMP JUMPDEST SWAP1 DUP2 MSTORE PUSH1 0x20 ADD PUSH1 0x40 MLOAD DUP1 SWAP2 SUB SWAP1 KECCAK256 PUSH1 0x0 DUP4 PUSH20 0xFFFFFFFFFFFFFFFFFFFFFFFFFFFFFFFFFFFFFFFF AND PUSH20 0xFFFFFFFFFFFFFFFFFFFFFFFFFFFFFFFFFFFFFFFF AND DUP2 MSTORE PUSH1 0x20 ADD SWAP1 DUP2 MSTORE PUSH1 0x20 ADD PUSH1 0x0 KECCAK256 PUSH1 0x0 SWAP1 SLOAD SWAP1 PUSH2 0x100 EXP SWAP1 DIV PUSH1 0xFF AND SWAP1 POP SWAP5 SWAP4 POP POP POP POP JUMP JUMPDEST PUSH2 0x992 PUSH2 0xD12 JUMP JUMPDEST PUSH1 0x40 MLOAD DUP1 PUSH1 0x80 ADD PUSH1 0x40 MSTORE DUP1 DUP7 DUP2 MSTORE PUSH1 0x20 ADD DUP6 DUP2 MSTORE PUSH1 0x20 ADD PUSH1 0x0 PUSH4 0xFFFFFFFF AND DUP2 MSTORE PUSH1 0x20 ADD DUP8 DUP2 MSTORE POP SWAP1 POP PUSH1 0x0 DUP8 PUSH1 0x40 MLOAD PUSH2 0x9CC SWAP2 SWAP1 PUSH2 0x17F5 JUMP JUMPDEST SWAP1 DUP2 MSTORE PUSH1 0x20 ADD PUSH1 0x40 MLOAD DUP1 SWAP2 SUB SWAP1 KECCAK256 DUP2 SWAP1 DUP1 PUSH1 0x1 DUP2 SLOAD ADD DUP1 DUP3 SSTORE DUP1 SWAP2 POP POP SWAP1 PUSH1 0x1 DUP3 SUB SWAP1 PUSH1 0x0 MSTORE PUSH1 0x20 PUSH1 0x0 KECCAK256 SWAP1 PUSH1 0x5 MUL ADD PUSH1 0x0 SWAP1 SWAP2 SWAP3 SWAP1 SWAP2 SWAP1 SWAP2 POP PUSH1 0x0 DUP3 ADD MLOAD DUP2 PUSH1 0x1 ADD SWAP1 DUP1 MLOAD SWAP1 PUSH1 0x20 ADD SWAP1 PUSH2 0xA22 SWAP3 SWAP2 SWAP1 PUSH2 0xD40 JUMP JUMPDEST POP PUSH1 0x20 DUP3 ADD MLOAD DUP2 PUSH1 0x2 ADD SWAP1 DUP1 MLOAD SWAP1 PUSH1 0x20 ADD SWAP1 PUSH2 0xA3F SWAP3 SWAP2 SWAP1 PUSH2 0xDA0 JUMP JUMPDEST POP PUSH1 0x40 DUP3 ADD MLOAD DUP2 PUSH1 0x3 ADD PUSH1 0x0 PUSH2 0x100 EXP DUP2 SLOAD DUP2 PUSH4 0xFFFFFFFF MUL NOT AND SWAP1 DUP4 PUSH4 0xFFFFFFFF AND MUL OR SWAP1 SSTORE POP PUSH1 0x60 DUP3 ADD MLOAD DUP2 PUSH1 0x4 ADD SWAP1 DUP1 MLOAD SWAP1 PUSH1 0x20 ADD SWAP1 PUSH2 0xA83 SWAP3 SWAP2 SWAP1 PUSH2 0xE2A JUMP JUMPDEST POP POP POP POP PUSH1 0x0 DUP1 SWAP1 POP JUMPDEST DUP3 DUP2 LT ISZERO PUSH2 0xBAB JUMPI DUP4 DUP2 DUP2 MLOAD DUP2 LT PUSH2 0xAA1 JUMPI INVALID JUMPDEST PUSH1 0x20 MUL PUSH1 0x20 ADD ADD MLOAD PUSH1 0x0 DUP10 PUSH1 0x40 MLOAD PUSH2 0xAB9 SWAP2 SWAP1 PUSH2 0x17F5 JUMP JUMPDEST SWAP1 DUP2 MSTORE PUSH1 0x20 ADD PUSH1 0x40 MLOAD DUP1 SWAP2 SUB SWAP1 KECCAK256 PUSH1 0x1 PUSH1 0x0 DUP12 PUSH1 0x40 MLOAD PUSH2 0xAD9 SWAP2 SWAP1 PUSH2 0x17F5 JUMP JUMPDEST SWAP1 DUP2 MSTORE PUSH1 0x20 ADD PUSH1 0x40 MLOAD DUP1 SWAP2 SUB SWAP1 KECCAK256 DUP1 SLOAD SWAP1 POP SUB DUP2 SLOAD DUP2 LT PUSH2 0xAF6 JUMPI INVALID JUMPDEST SWAP1 PUSH1 0x0 MSTORE PUSH1 0x20 PUSH1 0x0 KECCAK256 SWAP1 PUSH1 0x5 MUL ADD PUSH1 0x0 ADD DUP8 DUP4 DUP2 MLOAD DUP2 LT PUSH2 0xB13 JUMPI INVALID JUMPDEST PUSH1 0x20 MUL PUSH1 0x20 ADD ADD MLOAD PUSH1 0x40 MLOAD PUSH2 0xB28 SWAP2 SWAP1 PUSH2 0x17DE JUMP JUMPDEST SWAP1 DUP2 MSTORE PUSH1 0x20 ADD PUSH1 0x40 MLOAD DUP1 SWAP2 SUB SWAP1 KECCAK256 PUSH1 0x0 DUP8 DUP5 DUP2 MLOAD DUP2 LT PUSH2 0xB44 JUMPI INVALID JUMPDEST PUSH1 0x20 MUL PUSH1 0x20 ADD ADD MLOAD PUSH20 0xFFFFFFFFFFFFFFFFFFFFFFFFFFFFFFFFFFFFFFFF AND PUSH20 0xFFFFFFFFFFFFFFFFFFFFFFFFFFFFFFFFFFFFFFFF AND DUP2 MSTORE PUSH1 0x20 ADD SWAP1 DUP2 MSTORE PUSH1 0x20 ADD PUSH1 0x0 KECCAK256 PUSH1 0x0 PUSH2 0x100 EXP DUP2 SLOAD DUP2 PUSH1 0xFF MUL NOT AND SWAP1 DUP4 PUSH1 0xFF AND MUL OR SWAP1 SSTORE POP DUP1 DUP1 PUSH1 0x1 ADD SWAP2 POP POP PUSH2 0xA8D JUMP JUMPDEST POP POP POP POP POP POP POP POP JUMP JUMPDEST PUSH1 0x60 PUSH1 0x0 DUP4 PUSH1 0x40 MLOAD PUSH2 0xBC7 SWAP2 SWAP1 PUSH2 0x17F5 JUMP JUMPDEST SWAP1 DUP2 MSTORE PUSH1 0x20 ADD PUSH1 0x40 MLOAD DUP1 SWAP2 SUB SWAP1 KECCAK256 DUP3 DUP2 SLOAD DUP2 LT PUSH2 0xBE0 JUMPI INVALID JUMPDEST SWAP1 PUSH1 0x0 MSTORE PUSH1 0x20 PUSH1 0x0 KECCAK256 SWAP1 PUSH1 0x5 MUL ADD PUSH1 0x4 ADD DUP1 SLOAD PUSH1 0x1 DUP2 PUSH1 0x1 AND ISZERO PUSH2 0x100 MUL SUB AND PUSH1 0x2 SWAP1 DIV DUP1 PUSH1 0x1F ADD PUSH1 0x20 DUP1 SWAP2 DIV MUL PUSH1 0x20 ADD PUSH1 0x40 MLOAD SWAP1 DUP2 ADD PUSH1 0x40 MSTORE DUP1 SWAP3 SWAP2 SWAP1 DUP2 DUP2 MSTORE PUSH1 0x20 ADD DUP3 DUP1 SLOAD PUSH1 0x1 DUP2 PUSH1 0x1 AND ISZERO PUSH2 0x100 MUL SUB AND PUSH1 0x2 SWAP1 DIV DUP1 ISZERO PUSH2 0xC85 JUMPI DUP1 PUSH1 0x1F LT PUSH2 0xC5A JUMPI PUSH2 0x100 DUP1 DUP4 SLOAD DIV MUL DUP4 MSTORE SWAP2 PUSH1 0x20 ADD SWAP2 PUSH2 0xC85 JUMP JUMPDEST DUP3 ADD SWAP2 SWAP1 PUSH1 0x0 MSTORE PUSH1 0x20 PUSH1 0x0 KECCAK256 SWAP1 JUMPDEST DUP2 SLOAD DUP2 MSTORE SWAP1 PUSH1 0x1 ADD SWAP1 PUSH1 0x20 ADD DUP1 DUP4 GT PUSH2 0xC68 JUMPI DUP3 SWAP1 SUB PUSH1 0x1F AND DUP3 ADD SWAP2 JUMPDEST POP POP POP POP POP SWAP1 POP SWAP3 SWAP2 POP POP JUMP JUMPDEST DUP3 DUP1 SLOAD PUSH1 0x1 DUP2 PUSH1 0x1 AND ISZERO PUSH2 0x100 MUL SUB AND PUSH1 0x2 SWAP1 DIV SWAP1 PUSH1 0x0 MSTORE PUSH1 0x20 PUSH1 0x0 KECCAK256 SWAP1 PUSH1 0x1F ADD PUSH1 0x20 SWAP1 DIV DUP2 ADD SWAP3 DUP3 PUSH1 0x1F LT PUSH2 0xCD3 JUMPI DUP1 MLOAD PUSH1 0xFF NOT AND DUP4 DUP1 ADD OR DUP6 SSTORE PUSH2 0xD01 JUMP JUMPDEST DUP3 DUP1 ADD PUSH1 0x1 ADD DUP6 SSTORE DUP3 ISZERO PUSH2 0xD01 JUMPI SWAP2 DUP3 ADD JUMPDEST DUP3 DUP2 GT ISZERO PUSH2 0xD00 JUMPI DUP3 MLOAD DUP3 SSTORE SWAP2 PUSH1 0x20 ADD SWAP2 SWAP1 PUSH1 0x1 ADD SWAP1 PUSH2 0xCE5 JUMP JUMPDEST JUMPDEST POP SWAP1 POP PUSH2 0xD0E SWAP2 SWAP1 PUSH2 0xEAA JUMP JUMPDEST POP SWAP1 JUMP JUMPDEST PUSH1 0x40 MLOAD DUP1 PUSH1 0x80 ADD PUSH1 0x40 MSTORE DUP1 PUSH1 0x60 DUP2 MSTORE PUSH1 0x20 ADD PUSH1 0x60 DUP2 MSTORE PUSH1 0x20 ADD PUSH1 0x0 PUSH4 0xFFFFFFFF AND DUP2 MSTORE PUSH1 0x20 ADD PUSH1 0x60 DUP2 MSTORE POP SWAP1 JUMP JUMPDEST DUP3 DUP1 SLOAD DUP3 DUP3 SSTORE SWAP1 PUSH1 0x0 MSTORE PUSH1 0x20 PUSH1 0x0 KECCAK256 SWAP1 DUP2 ADD SWAP3 DUP3 ISZERO PUSH2 0xD8F JUMPI SWAP2 PUSH1 0x20 MUL DUP3 ADD JUMPDEST DUP3 DUP2 GT ISZERO PUSH2 0xD8E JUMPI DUP3 MLOAD DUP3 SWAP1 DUP1 MLOAD SWAP1 PUSH1 0x20 ADD SWAP1 PUSH2 0xD7E SWAP3 SWAP2 SWAP1 PUSH2 0xE2A JUMP JUMPDEST POP SWAP2 PUSH1 0x20 ADD SWAP2 SWAP1 PUSH1 0x1 ADD SWAP1 PUSH2 0xD60 JUMP JUMPDEST JUMPDEST POP SWAP1 POP PUSH2 0xD9C SWAP2 SWAP1 PUSH2 0xECF JUMP JUMPDEST POP SWAP1 JUMP JUMPDEST DUP3 DUP1 SLOAD DUP3 DUP3 SSTORE SWAP1 PUSH1 0x0 MSTORE PUSH1 0x20 PUSH1 0x0 KECCAK256 SWAP1 DUP2 ADD SWAP3 DUP3 ISZERO PUSH2 0xE19 JUMPI SWAP2 PUSH1 0x20 MUL DUP3 ADD JUMPDEST DUP3 DUP2 GT ISZERO PUSH2 0xE18 JUMPI DUP3 MLOAD DUP3 PUSH1 0x0 PUSH2 0x100 EXP DUP2 SLOAD DUP2 PUSH20 0xFFFFFFFFFFFFFFFFFFFFFFFFFFFFFFFFFFFFFFFF MUL NOT AND SWAP1 DUP4 PUSH20 0xFFFFFFFFFFFFFFFFFFFFFFFFFFFFFFFFFFFFFFFF AND MUL OR SWAP1 SSTORE POP SWAP2 PUSH1 0x20 ADD SWAP2 SWAP1 PUSH1 0x1 ADD SWAP1 PUSH2 0xDC0 JUMP JUMPDEST JUMPDEST POP SWAP1 POP PUSH2 0xE26 SWAP2 SWAP1 PUSH2 0xEFB JUMP JUMPDEST POP SWAP1 JUMP JUMPDEST DUP3 DUP1 SLOAD PUSH1 0x1 DUP2 PUSH1 0x1 AND ISZERO PUSH2 0x100 MUL SUB AND PUSH1 0x2 SWAP1 DIV SWAP1 PUSH1 0x0 MSTORE PUSH1 0x20 PUSH1 0x0 KECCAK256 SWAP1 PUSH1 0x1F ADD PUSH1 0x20 SWAP1 DIV DUP2 ADD SWAP3 DUP3 PUSH1 0x1F LT PUSH2 0xE6B JUMPI DUP1 MLOAD PUSH1 0xFF NOT AND DUP4 DUP1 ADD OR DUP6 SSTORE PUSH2 0xE99 JUMP JUMPDEST DUP3 DUP1 ADD PUSH1 0x1 ADD DUP6 SSTORE DUP3 ISZERO PUSH2 0xE99 JUMPI SWAP2 DUP3 ADD JUMPDEST DUP3 DUP2 GT ISZERO PUSH2 0xE98 JUMPI DUP3 MLOAD DUP3 SSTORE SWAP2 PUSH1 0x20 ADD SWAP2 SWAP1 PUSH1 0x1 ADD SWAP1 PUSH2 0xE7D JUMP JUMPDEST JUMPDEST POP SWAP1 POP PUSH2 0xEA6 SWAP2 SWAP1 PUSH2 0xEAA JUMP JUMPDEST POP SWAP1 JUMP JUMPDEST PUSH2 0xECC SWAP2 SWAP1 JUMPDEST DUP1 DUP3 GT ISZERO PUSH2 0xEC8 JUMPI PUSH1 0x0 DUP2 PUSH1 0x0 SWAP1 SSTORE POP PUSH1 0x1 ADD PUSH2 0xEB0 JUMP JUMPDEST POP SWAP1 JUMP JUMPDEST SWAP1 JUMP JUMPDEST PUSH2 0xEF8 SWAP2 SWAP1 JUMPDEST DUP1 DUP3 GT ISZERO PUSH2 0xEF4 JUMPI PUSH1 0x0 DUP2 DUP2 PUSH2 0xEEB SWAP2 SWAP1 PUSH2 0xF3E JUMP JUMPDEST POP PUSH1 0x1 ADD PUSH2 0xED5 JUMP JUMPDEST POP SWAP1 JUMP JUMPDEST SWAP1 JUMP JUMPDEST PUSH2 0xF3B SWAP2 SWAP1 JUMPDEST DUP1 DUP3 GT ISZERO PUSH2 0xF37 JUMPI PUSH1 0x0 DUP2 DUP2 PUSH2 0x100 EXP DUP2 SLOAD SWAP1 PUSH20 0xFFFFFFFFFFFFFFFFFFFFFFFFFFFFFFFFFFFFFFFF MUL NOT AND SWAP1 SSTORE POP PUSH1 0x1 ADD PUSH2 0xF01 JUMP JUMPDEST POP SWAP1 JUMP JUMPDEST SWAP1 JUMP JUMPDEST POP DUP1 SLOAD PUSH1 0x1 DUP2 PUSH1 0x1 AND ISZERO PUSH2 0x100 MUL SUB AND PUSH1 0x2 SWAP1 DIV PUSH1 0x0 DUP3 SSTORE DUP1 PUSH1 0x1F LT PUSH2 0xF64 JUMPI POP PUSH2 0xF83 JUMP JUMPDEST PUSH1 0x1F ADD PUSH1 0x20 SWAP1 DIV SWAP1 PUSH1 0x0 MSTORE PUSH1 0x20 PUSH1 0x0 KECCAK256 SWAP1 DUP2 ADD SWAP1 PUSH2 0xF82 SWAP2 SWAP1 PUSH2 0xEAA JUMP JUMPDEST JUMPDEST POP JUMP JUMPDEST PUSH1 0x0 DUP2 CALLDATALOAD SWAP1 POP PUSH2 0xF95 DUP2 PUSH2 0x1B1B JUMP JUMPDEST SWAP3 SWAP2 POP POP JUMP JUMPDEST PUSH1 0x0 DUP3 PUSH1 0x1F DUP4 ADD SLT PUSH2 0xFAC JUMPI PUSH1 0x0 DUP1 REVERT JUMPDEST DUP2 CALLDATALOAD PUSH2 0xFBF PUSH2 0xFBA DUP3 PUSH2 0x18EA JUMP JUMPDEST PUSH2 0x18BD JUMP JUMPDEST SWAP2 POP DUP2 DUP2 DUP4 MSTORE PUSH1 0x20 DUP5 ADD SWAP4 POP PUSH1 0x20 DUP2 ADD SWAP1 POP DUP4 DUP6 PUSH1 0x20 DUP5 MUL DUP3 ADD GT ISZERO PUSH2 0xFE4 JUMPI PUSH1 0x0 DUP1 REVERT JUMPDEST PUSH1 0x0 JUMPDEST DUP4 DUP2 LT ISZERO PUSH2 0x1014 JUMPI DUP2 PUSH2 0xFFA DUP9 DUP3 PUSH2 0xF86 JUMP JUMPDEST DUP5 MSTORE PUSH1 0x20 DUP5 ADD SWAP4 POP PUSH1 0x20 DUP4 ADD SWAP3 POP POP PUSH1 0x1 DUP2 ADD SWAP1 POP PUSH2 0xFE7 JUMP JUMPDEST POP POP POP POP SWAP3 SWAP2 POP POP JUMP JUMPDEST PUSH1 0x0 DUP3 PUSH1 0x1F DUP4 ADD SLT PUSH2 0x102F JUMPI PUSH1 0x0 DUP1 REVERT JUMPDEST DUP2 CALLDATALOAD PUSH2 0x1042 PUSH2 0x103D DUP3 PUSH2 0x1912 JUMP JUMPDEST PUSH2 0x18BD JUMP JUMPDEST SWAP2 POP DUP2 DUP2 DUP4 MSTORE PUSH1 0x20 DUP5 ADD SWAP4 POP PUSH1 0x20 DUP2 ADD SWAP1 POP DUP4 PUSH1 0x0 JUMPDEST DUP4 DUP2 LT ISZERO PUSH2 0x1088 JUMPI DUP2 CALLDATALOAD DUP7 ADD PUSH2 0x106E DUP9 DUP3 PUSH2 0x1115 JUMP JUMPDEST DUP5 MSTORE PUSH1 0x20 DUP5 ADD SWAP4 POP PUSH1 0x20 DUP4 ADD SWAP3 POP POP PUSH1 0x1 DUP2 ADD SWAP1 POP PUSH2 0x1058 JUMP JUMPDEST POP POP POP POP SWAP3 SWAP2 POP POP JUMP JUMPDEST PUSH1 0x0 DUP3 PUSH1 0x1F DUP4 ADD SLT PUSH2 0x10A3 JUMPI PUSH1 0x0 DUP1 REVERT JUMPDEST DUP2 CALLDATALOAD PUSH2 0x10B6 PUSH2 0x10B1 DUP3 PUSH2 0x193A JUMP JUMPDEST PUSH2 0x18BD JUMP JUMPDEST SWAP2 POP DUP2 DUP2 DUP4 MSTORE PUSH1 0x20 DUP5 ADD SWAP4 POP PUSH1 0x20 DUP2 ADD SWAP1 POP DUP4 DUP6 PUSH1 0x20 DUP5 MUL DUP3 ADD GT ISZERO PUSH2 0x10DB JUMPI PUSH1 0x0 DUP1 REVERT JUMPDEST PUSH1 0x0 JUMPDEST DUP4 DUP2 LT ISZERO PUSH2 0x110B JUMPI DUP2 PUSH2 0x10F1 DUP9 DUP3 PUSH2 0x11E7 JUMP JUMPDEST DUP5 MSTORE PUSH1 0x20 DUP5 ADD SWAP4 POP PUSH1 0x20 DUP4 ADD SWAP3 POP POP PUSH1 0x1 DUP2 ADD SWAP1 POP PUSH2 0x10DE JUMP JUMPDEST POP POP POP POP SWAP3 SWAP2 POP POP JUMP JUMPDEST PUSH1 0x0 DUP3 PUSH1 0x1F DUP4 ADD SLT PUSH2 0x1126 JUMPI PUSH1 0x0 DUP1 REVERT JUMPDEST DUP2 CALLDATALOAD PUSH2 0x1139 PUSH2 0x1134 DUP3 PUSH2 0x1962 JUMP JUMPDEST PUSH2 0x18BD JUMP JUMPDEST SWAP2 POP DUP1 DUP3 MSTORE PUSH1 0x20 DUP4 ADD PUSH1 0x20 DUP4 ADD DUP6 DUP4 DUP4 ADD GT ISZERO PUSH2 0x1155 JUMPI PUSH1 0x0 DUP1 REVERT JUMPDEST PUSH2 0x1160 DUP4 DUP3 DUP5 PUSH2 0x1AC8 JUMP JUMPDEST POP POP POP SWAP3 SWAP2 POP POP JUMP JUMPDEST PUSH1 0x0 DUP3 PUSH1 0x1F DUP4 ADD SLT PUSH2 0x117A JUMPI PUSH1 0x0 DUP1 REVERT JUMPDEST DUP2 CALLDATALOAD PUSH2 0x118D PUSH2 0x1188 DUP3 PUSH2 0x198E JUMP JUMPDEST PUSH2 0x18BD JUMP JUMPDEST SWAP2 POP DUP1 DUP3 MSTORE PUSH1 0x20 DUP4 ADD PUSH1 0x20 DUP4 ADD DUP6 DUP4 DUP4 ADD GT ISZERO PUSH2 0x11A9 JUMPI PUSH1 0x0 DUP1 REVERT JUMPDEST PUSH2 0x11B4 DUP4 DUP3 DUP5 PUSH2 0x1AC8 JUMP JUMPDEST POP POP POP SWAP3 SWAP2 POP POP JUMP JUMPDEST PUSH1 0x0 DUP2 CALLDATALOAD SWAP1 POP PUSH2 0x11CC DUP2 PUSH2 0x1B32 JUMP JUMPDEST SWAP3 SWAP2 POP POP JUMP JUMPDEST PUSH1 0x0 DUP2 CALLDATALOAD SWAP1 POP PUSH2 0x11E1 DUP2 PUSH2 0x1B49 JUMP JUMPDEST SWAP3 SWAP2 POP POP JUMP JUMPDEST PUSH1 0x0 DUP2 CALLDATALOAD SWAP1 POP PUSH2 0x11F6 DUP2 PUSH2 0x1B60 JUMP JUMPDEST SWAP3 SWAP2 POP POP JUMP JUMPDEST PUSH1 0x0 PUSH1 0x20 DUP3 DUP5 SUB SLT ISZERO PUSH2 0x120E JUMPI PUSH1 0x0 DUP1 REVERT JUMPDEST PUSH1 0x0 DUP3 ADD CALLDATALOAD PUSH8 0xFFFFFFFFFFFFFFFF DUP2 GT ISZERO PUSH2 0x1228 JUMPI PUSH1 0x0 DUP1 REVERT JUMPDEST PUSH2 0x1234 DUP5 DUP3 DUP6 ADD PUSH2 0x1169 JUMP JUMPDEST SWAP2 POP POP SWAP3 SWAP2 POP POP JUMP JUMPDEST PUSH1 0x0 DUP1 PUSH1 0x0 DUP1 PUSH1 0x0 DUP1 PUSH1 0xC0 DUP8 DUP10 SUB SLT ISZERO PUSH2 0x1256 JUMPI PUSH1 0x0 DUP1 REVERT JUMPDEST PUSH1 0x0 DUP8 ADD CALLDATALOAD PUSH8 0xFFFFFFFFFFFFFFFF DUP2 GT ISZERO PUSH2 0x1270 JUMPI PUSH1 0x0 DUP1 REVERT JUMPDEST PUSH2 0x127C DUP10 DUP3 DUP11 ADD PUSH2 0x1169 JUMP JUMPDEST SWAP7 POP POP PUSH1 0x20 DUP8 ADD CALLDATALOAD PUSH8 0xFFFFFFFFFFFFFFFF DUP2 GT ISZERO PUSH2 0x1299 JUMPI PUSH1 0x0 DUP1 REVERT JUMPDEST PUSH2 0x12A5 DUP10 DUP3 DUP11 ADD PUSH2 0x1169 JUMP JUMPDEST SWAP6 POP POP PUSH1 0x40 DUP8 ADD CALLDATALOAD PUSH8 0xFFFFFFFFFFFFFFFF DUP2 GT ISZERO PUSH2 0x12C2 JUMPI PUSH1 0x0 DUP1 REVERT JUMPDEST PUSH2 0x12CE DUP10 DUP3 DUP11 ADD PUSH2 0x101E JUMP JUMPDEST SWAP5 POP POP PUSH1 0x60 DUP8 ADD CALLDATALOAD PUSH8 0xFFFFFFFFFFFFFFFF DUP2 GT ISZERO PUSH2 0x12EB JUMPI PUSH1 0x0 DUP1 REVERT JUMPDEST PUSH2 0x12F7 DUP10 DUP3 DUP11 ADD PUSH2 0xF9B JUMP JUMPDEST SWAP4 POP POP PUSH1 0x80 DUP8 ADD CALLDATALOAD PUSH8 0xFFFFFFFFFFFFFFFF DUP2 GT ISZERO PUSH2 0x1314 JUMPI PUSH1 0x0 DUP1 REVERT JUMPDEST PUSH2 0x1320 DUP10 DUP3 DUP11 ADD PUSH2 0x1092 JUMP JUMPDEST SWAP3 POP POP PUSH1 0xA0 PUSH2 0x1331 DUP10 DUP3 DUP11 ADD PUSH2 0x11BD JUMP JUMPDEST SWAP2 POP POP SWAP3 SWAP6 POP SWAP3 SWAP6 POP SWAP3 SWAP6 JUMP JUMPDEST PUSH1 0x0 DUP1 PUSH1 0x40 DUP4 DUP6 SUB SLT ISZERO PUSH2 0x1351 JUMPI PUSH1 0x0 DUP1 REVERT JUMPDEST PUSH1 0x0 DUP4 ADD CALLDATALOAD PUSH8 0xFFFFFFFFFFFFFFFF DUP2 GT ISZERO PUSH2 0x136B JUMPI PUSH1 0x0 DUP1 REVERT JUMPDEST PUSH2 0x1377 DUP6 DUP3 DUP7 ADD PUSH2 0x1169 JUMP JUMPDEST SWAP3 POP POP PUSH1 0x20 PUSH2 0x1388 DUP6 DUP3 DUP7 ADD PUSH2 0x11BD JUMP JUMPDEST SWAP2 POP POP SWAP3 POP SWAP3 SWAP1 POP JUMP JUMPDEST PUSH1 0x0 DUP1 PUSH1 0x0 PUSH1 0x60 DUP5 DUP7 SUB SLT ISZERO PUSH2 0x13A7 JUMPI PUSH1 0x0 DUP1 REVERT JUMPDEST PUSH1 0x0 DUP5 ADD CALLDATALOAD PUSH8 0xFFFFFFFFFFFFFFFF DUP2 GT ISZERO PUSH2 0x13C1 JUMPI PUSH1 0x0 DUP1 REVERT JUMPDEST PUSH2 0x13CD DUP7 DUP3 DUP8 ADD PUSH2 0x1169 JUMP JUMPDEST SWAP4 POP POP PUSH1 0x20 PUSH2 0x13DE DUP7 DUP3 DUP8 ADD PUSH2 0x11BD JUMP JUMPDEST SWAP3 POP POP PUSH1 0x40 DUP5 ADD CALLDATALOAD PUSH8 0xFFFFFFFFFFFFFFFF DUP2 GT ISZERO PUSH2 0x13FB JUMPI PUSH1 0x0 DUP1 REVERT JUMPDEST PUSH2 0x1407 DUP7 DUP3 DUP8 ADD PUSH2 0x1169 JUMP JUMPDEST SWAP2 POP POP SWAP3 POP SWAP3 POP SWAP3 JUMP JUMPDEST PUSH1 0x0 DUP1 PUSH1 0x0 DUP1 PUSH1 0x80 DUP6 DUP8 SUB SLT ISZERO PUSH2 0x1427 JUMPI PUSH1 0x0 DUP1 REVERT JUMPDEST PUSH1 0x0 DUP6 ADD CALLDATALOAD PUSH8 0xFFFFFFFFFFFFFFFF DUP2 GT ISZERO PUSH2 0x1441 JUMPI PUSH1 0x0 DUP1 REVERT JUMPDEST PUSH2 0x144D DUP8 DUP3 DUP9 ADD PUSH2 0x1169 JUMP JUMPDEST SWAP5 POP POP PUSH1 0x20 PUSH2 0x145E DUP8 DUP3 DUP9 ADD PUSH2 0x11BD JUMP JUMPDEST SWAP4 POP POP PUSH1 0x40 DUP6 ADD CALLDATALOAD PUSH8 0xFFFFFFFFFFFFFFFF DUP2 GT ISZERO PUSH2 0x147B JUMPI PUSH1 0x0 DUP1 REVERT JUMPDEST PUSH2 0x1487 DUP8 DUP3 DUP9 ADD PUSH2 0x1169 JUMP JUMPDEST SWAP3 POP POP PUSH1 0x60 PUSH2 0x1498 DUP8 DUP3 DUP9 ADD PUSH2 0xF86 JUMP JUMPDEST SWAP2 POP POP SWAP3 SWAP6 SWAP2 SWAP5 POP SWAP3 POP JUMP JUMPDEST PUSH1 0x0 DUP1 PUSH1 0x0 DUP1 PUSH1 0x0 PUSH1 0xA0 DUP7 DUP9 SUB SLT ISZERO PUSH2 0x14BC JUMPI PUSH1 0x0 DUP1 REVERT JUMPDEST PUSH1 0x0 DUP7 ADD CALLDATALOAD PUSH8 0xFFFFFFFFFFFFFFFF DUP2 GT ISZERO PUSH2 0x14D6 JUMPI PUSH1 0x0 DUP1 REVERT JUMPDEST PUSH2 0x14E2 DUP9 DUP3 DUP10 ADD PUSH2 0x1169 JUMP JUMPDEST SWAP6 POP POP PUSH1 0x20 PUSH2 0x14F3 DUP9 DUP3 DUP10 ADD PUSH2 0x11BD JUMP JUMPDEST SWAP5 POP POP PUSH1 0x40 DUP7 ADD CALLDATALOAD PUSH8 0xFFFFFFFFFFFFFFFF DUP2 GT ISZERO PUSH2 0x1510 JUMPI PUSH1 0x0 DUP1 REVERT JUMPDEST PUSH2 0x151C DUP9 DUP3 DUP10 ADD PUSH2 0x1169 JUMP JUMPDEST SWAP4 POP POP PUSH1 0x60 PUSH2 0x152D DUP9 DUP3 DUP10 ADD PUSH2 0xF86 JUMP JUMPDEST SWAP3 POP POP PUSH1 0x80 PUSH2 0x153E DUP9 DUP3 DUP10 ADD PUSH2 0x11E7 JUMP JUMPDEST SWAP2 POP POP SWAP3 SWAP6 POP SWAP3 SWAP6 SWAP1 SWAP4 POP JUMP JUMPDEST PUSH1 0x0 DUP1 PUSH1 0x0 DUP1 PUSH1 0x80 DUP6 DUP8 SUB SLT ISZERO PUSH2 0x1561 JUMPI PUSH1 0x0 DUP1 REVERT JUMPDEST PUSH1 0x0 DUP6 ADD CALLDATALOAD PUSH8 0xFFFFFFFFFFFFFFFF DUP2 GT ISZERO PUSH2 0x157B JUMPI PUSH1 0x0 DUP1 REVERT JUMPDEST PUSH2 0x1587 DUP8 DUP3 DUP9 ADD PUSH2 0x1169 JUMP JUMPDEST SWAP5 POP POP PUSH1 0x20 PUSH2 0x1598 DUP8 DUP3 DUP9 ADD PUSH2 0x11BD JUMP JUMPDEST SWAP4 POP POP PUSH1 0x40 PUSH2 0x15A9 DUP8 DUP3 DUP9 ADD PUSH2 0x11D2 JUMP JUMPDEST SWAP3 POP POP PUSH1 0x60 DUP6 ADD CALLDATALOAD PUSH8 0xFFFFFFFFFFFFFFFF DUP2 GT ISZERO PUSH2 0x15C6 JUMPI PUSH1 0x0 DUP1 REVERT JUMPDEST PUSH2 0x15D2 DUP8 DUP3 DUP9 ADD PUSH2 0x1169 JUMP JUMPDEST SWAP2 POP POP SWAP3 SWAP6 SWAP2 SWAP5 POP SWAP3 POP JUMP JUMPDEST PUSH1 0x0 PUSH2 0x15EA DUP4 DUP4 PUSH2 0x1747 JUMP JUMPDEST SWAP1 POP SWAP3 SWAP2 POP POP JUMP JUMPDEST PUSH1 0x0 PUSH2 0x15FE DUP4 DUP4 PUSH2 0x17B1 JUMP JUMPDEST PUSH1 0x20 DUP4 ADD SWAP1 POP SWAP3 SWAP2 POP POP JUMP JUMPDEST PUSH1 0x0 PUSH2 0x1615 DUP3 PUSH2 0x19DA JUMP JUMPDEST PUSH2 0x161F DUP2 DUP6 PUSH2 0x1A20 JUMP JUMPDEST SWAP4 POP DUP4 PUSH1 0x20 DUP3 MUL DUP6 ADD PUSH2 0x1631 DUP6 PUSH2 0x19BA JUMP JUMPDEST DUP1 PUSH1 0x0 JUMPDEST DUP6 DUP2 LT ISZERO PUSH2 0x166D JUMPI DUP5 DUP5 SUB DUP10 MSTORE DUP2 MLOAD PUSH2 0x164E DUP6 DUP3 PUSH2 0x15DE JUMP JUMPDEST SWAP5 POP PUSH2 0x1659 DUP4 PUSH2 0x1A06 JUMP JUMPDEST SWAP3 POP PUSH1 0x20 DUP11 ADD SWAP10 POP POP PUSH1 0x1 DUP2 ADD SWAP1 POP PUSH2 0x1635 JUMP JUMPDEST POP DUP3 SWAP8 POP DUP8 SWAP6 POP POP POP POP POP POP SWAP3 SWAP2 POP POP JUMP JUMPDEST PUSH1 0x0 PUSH2 0x168A DUP3 PUSH2 0x19E5 JUMP JUMPDEST PUSH2 0x1694 DUP2 DUP6 PUSH2 0x1A31 JUMP JUMPDEST SWAP4 POP PUSH2 0x169F DUP4 PUSH2 0x19CA JUMP JUMPDEST DUP1 PUSH1 0x0 JUMPDEST DUP4 DUP2 LT ISZERO PUSH2 0x16D0 JUMPI DUP2 MLOAD PUSH2 0x16B7 DUP9 DUP3 PUSH2 0x15F2 JUMP JUMPDEST SWAP8 POP PUSH2 0x16C2 DUP4 PUSH2 0x1A13 JUMP JUMPDEST SWAP3 POP POP PUSH1 0x1 DUP2 ADD SWAP1 POP PUSH2 0x16A3 JUMP JUMPDEST POP DUP6 SWAP4 POP POP POP POP SWAP3 SWAP2 POP POP JUMP JUMPDEST PUSH1 0x0 PUSH2 0x16E8 DUP3 PUSH2 0x19FB JUMP JUMPDEST PUSH2 0x16F2 DUP2 DUP6 PUSH2 0x1A53 JUMP JUMPDEST SWAP4 POP PUSH2 0x1702 DUP2 DUP6 PUSH1 0x20 DUP7 ADD PUSH2 0x1AD7 JUMP JUMPDEST PUSH2 0x170B DUP2 PUSH2 0x1B0A JUMP JUMPDEST DUP5 ADD SWAP2 POP POP SWAP3 SWAP2 POP POP JUMP JUMPDEST PUSH1 0x0 PUSH2 0x1721 DUP3 PUSH2 0x19FB JUMP JUMPDEST PUSH2 0x172B DUP2 DUP6 PUSH2 0x1A64 JUMP JUMPDEST SWAP4 POP PUSH2 0x173B DUP2 DUP6 PUSH1 0x20 DUP7 ADD PUSH2 0x1AD7 JUMP JUMPDEST DUP1 DUP5 ADD SWAP2 POP POP SWAP3 SWAP2 POP POP JUMP JUMPDEST PUSH1 0x0 PUSH2 0x1752 DUP3 PUSH2 0x19F0 JUMP JUMPDEST PUSH2 0x175C DUP2 DUP6 PUSH2 0x1A42 JUMP JUMPDEST SWAP4 POP PUSH2 0x176C DUP2 DUP6 PUSH1 0x20 DUP7 ADD PUSH2 0x1AD7 JUMP JUMPDEST PUSH2 0x1775 DUP2 PUSH2 0x1B0A JUMP JUMPDEST DUP5 ADD SWAP2 POP POP SWAP3 SWAP2 POP POP JUMP JUMPDEST PUSH1 0x0 PUSH2 0x178B DUP3 PUSH2 0x19F0 JUMP JUMPDEST PUSH2 0x1795 DUP2 DUP6 PUSH2 0x1A64 JUMP JUMPDEST SWAP4 POP PUSH2 0x17A5 DUP2 DUP6 PUSH1 0x20 DUP7 ADD PUSH2 0x1AD7 JUMP JUMPDEST DUP1 DUP5 ADD SWAP2 POP POP SWAP3 SWAP2 POP POP JUMP JUMPDEST PUSH2 0x17BA DUP2 PUSH2 0x1AAB JUMP JUMPDEST DUP3 MSTORE POP POP JUMP JUMPDEST PUSH2 0x17C9 DUP2 PUSH2 0x1AAB JUMP JUMPDEST DUP3 MSTORE POP POP JUMP JUMPDEST PUSH2 0x17D8 DUP2 PUSH2 0x1ABB JUMP JUMPDEST DUP3 MSTORE POP POP JUMP JUMPDEST PUSH1 0x0 PUSH2 0x17EA DUP3 DUP5 PUSH2 0x1780 JUMP JUMPDEST SWAP2 POP DUP2 SWAP1 POP SWAP3 SWAP2 POP POP JUMP JUMPDEST PUSH1 0x0 PUSH2 0x1801 DUP3 DUP5 PUSH2 0x1716 JUMP JUMPDEST SWAP2 POP DUP2 SWAP1 POP SWAP3 SWAP2 POP POP JUMP JUMPDEST PUSH1 0x0 PUSH1 0x20 DUP3 ADD SWAP1 POP DUP2 DUP2 SUB PUSH1 0x0 DUP4 ADD MSTORE PUSH2 0x1826 DUP2 DUP5 PUSH2 0x160A JUMP JUMPDEST SWAP1 POP SWAP3 SWAP2 POP POP JUMP JUMPDEST PUSH1 0x0 PUSH1 0x40 DUP3 ADD SWAP1 POP DUP2 DUP2 SUB PUSH1 0x0 DUP4 ADD MSTORE PUSH2 0x1848 DUP2 DUP6 PUSH2 0x160A JUMP JUMPDEST SWAP1 POP DUP2 DUP2 SUB PUSH1 0x20 DUP4 ADD MSTORE PUSH2 0x185C DUP2 DUP5 PUSH2 0x167F JUMP JUMPDEST SWAP1 POP SWAP4 SWAP3 POP POP POP JUMP JUMPDEST PUSH1 0x0 PUSH1 0x20 DUP3 ADD SWAP1 POP DUP2 DUP2 SUB PUSH1 0x0 DUP4 ADD MSTORE PUSH2 0x187F DUP2 DUP5 PUSH2 0x16DD JUMP JUMPDEST SWAP1 POP SWAP3 SWAP2 POP POP JUMP JUMPDEST PUSH1 0x0 PUSH1 0x20 DUP3 ADD SWAP1 POP PUSH2 0x189C PUSH1 0x0 DUP4 ADD DUP5 PUSH2 0x17C0 JUMP JUMPDEST SWAP3 SWAP2 POP POP JUMP JUMPDEST PUSH1 0x0 PUSH1 0x20 DUP3 ADD SWAP1 POP PUSH2 0x18B7 PUSH1 0x0 DUP4 ADD DUP5 PUSH2 0x17CF JUMP JUMPDEST SWAP3 SWAP2 POP POP JUMP JUMPDEST PUSH1 0x0 PUSH1 0x40 MLOAD SWAP1 POP DUP2 DUP2 ADD DUP2 DUP2 LT PUSH8 0xFFFFFFFFFFFFFFFF DUP3 GT OR ISZERO PUSH2 0x18E0 JUMPI PUSH1 0x0 DUP1 REVERT JUMPDEST DUP1 PUSH1 0x40 MSTORE POP SWAP2 SWAP1 POP JUMP JUMPDEST PUSH1 0x0 PUSH8 0xFFFFFFFFFFFFFFFF DUP3 GT ISZERO PUSH2 0x1901 JUMPI PUSH1 0x0 DUP1 REVERT JUMPDEST PUSH1 0x20 DUP3 MUL SWAP1 POP PUSH1 0x20 DUP2 ADD SWAP1 POP SWAP2 SWAP1 POP JUMP JUMPDEST PUSH1 0x0 PUSH8 0xFFFFFFFFFFFFFFFF DUP3 GT ISZERO PUSH2 0x1929 JUMPI PUSH1 0x0 DUP1 REVERT JUMPDEST PUSH1 0x20 DUP3 MUL SWAP1 POP PUSH1 0x20 DUP2 ADD SWAP1 POP SWAP2 SWAP1 POP JUMP JUMPDEST PUSH1 0x0 PUSH8 0xFFFFFFFFFFFFFFFF DUP3 GT ISZERO PUSH2 0x1951 JUMPI PUSH1 0x0 DUP1 REVERT JUMPDEST PUSH1 0x20 DUP3 MUL SWAP1 POP PUSH1 0x20 DUP2 ADD SWAP1 POP SWAP2 SWAP1 POP JUMP JUMPDEST PUSH1 0x0 PUSH8 0xFFFFFFFFFFFFFFFF DUP3 GT ISZERO PUSH2 0x1979 JUMPI PUSH1 0x0 DUP1 REVERT JUMPDEST PUSH1 0x1F NOT PUSH1 0x1F DUP4 ADD AND SWAP1 POP PUSH1 0x20 DUP2 ADD SWAP1 POP SWAP2 SWAP1 POP JUMP JUMPDEST PUSH1 0x0 PUSH8 0xFFFFFFFFFFFFFFFF DUP3 GT ISZERO PUSH2 0x19A5 JUMPI PUSH1 0x0 DUP1 REVERT JUMPDEST PUSH1 0x1F NOT PUSH1 0x1F DUP4 ADD AND SWAP1 POP PUSH1 0x20 DUP2 ADD SWAP1 POP SWAP2 SWAP1 POP JUMP JUMPDEST PUSH1 0x0 DUP2 SWAP1 POP PUSH1 0x20 DUP3 ADD SWAP1 POP SWAP2 SWAP1 POP JUMP JUMPDEST PUSH1 0x0 DUP2 SWAP1 POP PUSH1 0x20 DUP3 ADD SWAP1 POP SWAP2 SWAP1 POP JUMP JUMPDEST PUSH1 0x0 DUP2 MLOAD SWAP1 POP SWAP2 SWAP1 POP JUMP JUMPDEST PUSH1 0x0 DUP2 MLOAD SWAP1 POP SWAP2 SWAP1 POP JUMP JUMPDEST PUSH1 0x0 DUP2 MLOAD SWAP1 POP SWAP2 SWAP1 POP JUMP JUMPDEST PUSH1 0x0 DUP2 MLOAD SWAP1 POP SWAP2 SWAP1 POP JUMP JUMPDEST PUSH1 0x0 PUSH1 0x20 DUP3 ADD SWAP1 POP SWAP2 SWAP1 POP JUMP JUMPDEST PUSH1 0x0 PUSH1 0x20 DUP3 ADD SWAP1 POP SWAP2 SWAP1 POP JUMP JUMPDEST PUSH1 0x0 DUP3 DUP3 MSTORE PUSH1 0x20 DUP3 ADD SWAP1 POP SWAP3 SWAP2 POP POP JUMP JUMPDEST PUSH1 0x0 DUP3 DUP3 MSTORE PUSH1 0x20 DUP3 ADD SWAP1 POP SWAP3 SWAP2 POP POP JUMP JUMPDEST PUSH1 0x0 DUP3 DUP3 MSTORE PUSH1 0x20 DUP3 ADD SWAP1 POP SWAP3 SWAP2 POP POP JUMP JUMPDEST PUSH1 0x0 DUP3 DUP3 MSTORE PUSH1 0x20 DUP3 ADD SWAP1 POP SWAP3 SWAP2 POP POP JUMP JUMPDEST PUSH1 0x0 DUP2 SWAP1 POP SWAP3 SWAP2 POP POP JUMP JUMPDEST PUSH1 0x0 PUSH2 0x1A7A DUP3 PUSH2 0x1A81 JUMP JUMPDEST SWAP1 POP SWAP2 SWAP1 POP JUMP JUMPDEST PUSH1 0x0 PUSH20 0xFFFFFFFFFFFFFFFFFFFFFFFFFFFFFFFFFFFFFFFF DUP3 AND SWAP1 POP SWAP2 SWAP1 POP JUMP JUMPDEST PUSH1 0x0 DUP2 SWAP1 POP SWAP2 SWAP1 POP JUMP JUMPDEST PUSH1 0x0 PUSH4 0xFFFFFFFF DUP3 AND SWAP1 POP SWAP2 SWAP1 POP JUMP JUMPDEST PUSH1 0x0 PUSH1 0xFF DUP3 AND SWAP1 POP SWAP2 SWAP1 POP JUMP JUMPDEST DUP3 DUP2 DUP4 CALLDATACOPY PUSH1 0x0 DUP4 DUP4 ADD MSTORE POP POP POP JUMP JUMPDEST PUSH1 0x0 JUMPDEST DUP4 DUP2 LT ISZERO PUSH2 0x1AF5 JUMPI DUP1 DUP3 ADD MLOAD DUP2 DUP5 ADD MSTORE PUSH1 0x20 DUP2 ADD SWAP1 POP PUSH2 0x1ADA JUMP JUMPDEST DUP4 DUP2 GT ISZERO PUSH2 0x1B04 JUMPI PUSH1 0x0 DUP5 DUP5 ADD MSTORE JUMPDEST POP POP POP POP JUMP JUMPDEST PUSH1 0x0 PUSH1 0x1F NOT PUSH1 0x1F DUP4 ADD AND SWAP1 POP SWAP2 SWAP1 POP JUMP JUMPDEST PUSH2 0x1B24 DUP2 PUSH2 0x1A6F JUMP JUMPDEST DUP2 EQ PUSH2 0x1B2F JUMPI PUSH1 0x0 DUP1 REVERT JUMPDEST POP JUMP JUMPDEST PUSH2 0x1B3B DUP2 PUSH2 0x1AA1 JUMP JUMPDEST DUP2 EQ PUSH2 0x1B46 JUMPI PUSH1 0x0 DUP1 REVERT JUMPDEST POP JUMP JUMPDEST PUSH2 0x1B52 DUP2 PUSH2 0x1AAB JUMP JUMPDEST DUP2 EQ PUSH2 0x1B5D JUMPI PUSH1 0x0 DUP1 REVERT JUMPDEST POP JUMP JUMPDEST PUSH2 0x1B69 DUP2 PUSH2 0x1ABB JUMP JUMPDEST DUP2 EQ PUSH2 0x1B74 JUMPI PUSH1 0x0 DUP1 REVERT JUMPDEST POP JUMP INVALID LOG3 PUSH6 0x627A7A723158 KECCAK256 PUSH4 0x45C660CA LOG2 PUSH21 0x9A0B8D75551059D39C6430386EA53C5076D0E5AA77 MLOAD 0xE7 0x5C 0xDC PUSH13 0x6578706572696D656E74616CF5 PUSH5 0x736F6C6343 STOP SDIV GT STOP BLOCKHASH "
				},
				"gasEstimates": {
					"creation": {
						"codeDepositCost": "1419600",
						"executionCost": "1479",
						"totalCost": "1421079"
					},
					"external": {
						"deleteVariable(string,uint256,string)": "infinite",
						"getAccess(string,uint256,string,address)": "infinite",
						"getActivites(string,uint256)": "infinite",
						"getAllVariables(string)": "infinite",
						"getVariableName(string,uint256)": "infinite",
						"getVariableValue(string,uint256)": "infinite",
						"setVariableName(string,uint256,string)": "infinite",
						"updateMatrix(string,uint256,string,address,uint8)": "infinite",
						"updateValue(string,uint256,uint32,string)": "infinite",
						"uploadMatrix(string,string,string[],address[],uint8[],uint256)": "infinite"
					}
				},
				"methodIdentifiers": {
					"deleteVariable(string,uint256,string)": "252e7bed",
					"getAccess(string,uint256,string,address)": "aa86c8fc",
					"getActivites(string,uint256)": "6725f913",
					"getAllVariables(string)": "89069ea7",
					"getVariableName(string,uint256)": "fe7f2692",
					"getVariableValue(string,uint256)": "93614356",
					"setVariableName(string,uint256,string)": "612fa967",
					"updateMatrix(string,uint256,string,address,uint8)": "61650af7",
					"updateValue(string,uint256,uint32,string)": "0b3e9bfc",
					"uploadMatrix(string,string,string[],address[],uint8[],uint256)": "bd289582"
				}
			},
			"storageLayout": {
				"storage": [
					{
						"astId": 24,
						"contract": "Access_Matrix.sol:Access_matrix",
						"label": "variables",
						"offset": 0,
						"slot": "0",
						"type": "t_mapping(t_string_memory,t_array(t_struct(Variable)19_storage)dyn_storage)"
					}
				],
				"types": {
					"t_address": {
						"encoding": "inplace",
						"label": "address",
						"numberOfBytes": "20"
					},
					"t_array(t_address)dyn_storage": {
						"base": "t_address",
						"encoding": "dynamic_array",
						"label": "address[]",
						"numberOfBytes": "32"
					},
					"t_array(t_string_storage)dyn_storage": {
						"base": "t_string_storage",
						"encoding": "dynamic_array",
						"label": "string[]",
						"numberOfBytes": "32"
					},
					"t_array(t_struct(Variable)19_storage)dyn_storage": {
						"base": "t_struct(Variable)19_storage",
						"encoding": "dynamic_array",
						"label": "struct Access_matrix.Variable[]",
						"numberOfBytes": "32"
					},
					"t_mapping(t_address,t_uint8)": {
						"encoding": "mapping",
						"key": "t_address",
						"label": "mapping(address => uint8)",
						"numberOfBytes": "32",
						"value": "t_uint8"
					},
					"t_mapping(t_string_memory,t_array(t_struct(Variable)19_storage)dyn_storage)": {
						"encoding": "mapping",
						"key": "t_string_memory",
						"label": "mapping(string => struct Access_matrix.Variable[])",
						"numberOfBytes": "32",
						"value": "t_array(t_struct(Variable)19_storage)dyn_storage"
					},
					"t_mapping(t_string_memory,t_mapping(t_address,t_uint8))": {
						"encoding": "mapping",
						"key": "t_string_memory",
						"label": "mapping(string => mapping(address => uint8))",
						"numberOfBytes": "32",
						"value": "t_mapping(t_address,t_uint8)"
					},
					"t_string_memory": {
						"encoding": "bytes",
						"label": "string",
						"numberOfBytes": "32"
					},
					"t_string_storage": {
						"encoding": "bytes",
						"label": "string",
						"numberOfBytes": "32"
					},
					"t_struct(Variable)19_storage": {
						"encoding": "inplace",
						"label": "struct Access_matrix.Variable",
						"members": [
							{
								"astId": 8,
								"contract": "Access_Matrix.sol:Access_matrix",
								"label": "matrix",
								"offset": 0,
								"slot": "0",
								"type": "t_mapping(t_string_memory,t_mapping(t_address,t_uint8))"
							},
							{
								"astId": 11,
								"contract": "Access_Matrix.sol:Access_matrix",
								"label": "activitiesKeys",
								"offset": 0,
								"slot": "1",
								"type": "t_array(t_string_storage)dyn_storage"
							},
							{
								"astId": 14,
								"contract": "Access_Matrix.sol:Access_matrix",
								"label": "rolesKeys",
								"offset": 0,
								"slot": "2",
								"type": "t_array(t_address)dyn_storage"
							},
							{
								"astId": 16,
								"contract": "Access_Matrix.sol:Access_matrix",
								"label": "value",
								"offset": 0,
								"slot": "3",
								"type": "t_uint32"
							},
							{
								"astId": 18,
								"contract": "Access_Matrix.sol:Access_matrix",
								"label": "name",
								"offset": 0,
								"slot": "4",
								"type": "t_string_storage"
							}
						],
						"numberOfBytes": "160"
					},
					"t_uint32": {
						"encoding": "inplace",
						"label": "uint32",
						"numberOfBytes": "4"
					},
					"t_uint8": {
						"encoding": "inplace",
						"label": "uint8",
						"numberOfBytes": "1"
					}
				}
			},
			"userdoc": {
				"methods": {}
			}
		}
	}
}