{
	"Access_Matrix.sol": {
		"Access_matrix": {
			"abi": [
				{
					"constant": false,
					"inputs": [
						{
							"internalType": "string",
							"name": "_activity",
							"type": "string"
						}
					],
					"name": "deleteVariable",
					"outputs": [],
					"payable": false,
					"stateMutability": "nonpayable",
					"type": "function"
				},
				{
					"constant": true,
					"inputs": [
						{
							"internalType": "string",
							"name": "_activity",
							"type": "string"
						},
						{
							"internalType": "address",
							"name": "_role",
							"type": "address"
						}
					],
					"name": "getAccess",
					"outputs": [
						{
							"internalType": "uint8",
							"name": "_access",
							"type": "uint8"
						}
					],
					"payable": false,
					"stateMutability": "view",
					"type": "function"
				},
				{
					"constant": true,
					"inputs": [],
					"name": "getVariableName",
					"outputs": [
						{
							"internalType": "string",
							"name": "_varName",
							"type": "string"
						}
					],
					"payable": false,
					"stateMutability": "view",
					"type": "function"
				},
				{
					"constant": true,
					"inputs": [],
					"name": "getVariableValue",
					"outputs": [
						{
							"internalType": "uint32",
							"name": "_var",
							"type": "uint32"
						}
					],
					"payable": false,
					"stateMutability": "view",
					"type": "function"
				},
				{
					"constant": false,
					"inputs": [
						{
							"internalType": "string",
							"name": "_newName",
							"type": "string"
						}
					],
					"name": "setVariableName",
					"outputs": [],
					"payable": false,
					"stateMutability": "nonpayable",
					"type": "function"
				},
				{
					"constant": false,
					"inputs": [
						{
							"internalType": "string",
							"name": "_activity",
							"type": "string"
						},
						{
							"internalType": "address",
							"name": "_role",
							"type": "address"
						},
						{
							"internalType": "uint8",
							"name": "_val",
							"type": "uint8"
						}
					],
					"name": "updateMatrix",
					"outputs": [],
					"payable": false,
					"stateMutability": "nonpayable",
					"type": "function"
				},
				{
					"constant": false,
					"inputs": [
						{
							"internalType": "string[]",
							"name": "_activities",
							"type": "string[]"
						},
						{
							"internalType": "address[]",
							"name": "_roles",
							"type": "address[]"
						},
						{
							"internalType": "uint8[]",
							"name": "_vals",
							"type": "uint8[]"
						},
						{
							"internalType": "uint256",
							"name": "nbOfElements",
							"type": "uint256"
						}
					],
					"name": "updateMultipleMatrix",
					"outputs": [],
					"payable": false,
					"stateMutability": "nonpayable",
					"type": "function"
				},
				{
					"constant": false,
					"inputs": [
						{
							"internalType": "uint32",
							"name": "_variable_value",
							"type": "uint32"
						},
						{
							"internalType": "string",
							"name": "_activity",
							"type": "string"
						}
					],
					"name": "updateValue",
					"outputs": [],
					"payable": false,
					"stateMutability": "nonpayable",
					"type": "function"
				}
			],
			"devdoc": {
				"methods": {
					"deleteVariable(string)": {
						"details": "deletes the contract if the caller has the authorization (first bit starting from right).",
						"params": {
							"_activity": "that want to have access"
						}
					},
					"getVariableValue()": {
						"details": "Get the variable value",
						"return": "_var the variable value "
					},
					"updateMatrix(string,address,uint8)": {
						"details": "Update an entry of the access matrix",
						"params": {
							"_activity": "is the name of the activity ",
							"_role": "is the role",
							"_val": "is a 4 bit int that allows to find if a certain matrix entry has access or not to a vraiable (read,write,create,delete) are the four bits."
						}
					},
					"updateValue(uint32,string)": {
						"details": "Update the variable value if the caller has access",
						"params": {
							"_activity": "name of the activity that want to update the variable value",
							"_variable_value": "new variable value "
						}
					}
				}
			},
			"evm": {
				"assembly": "    /* \"Access_Matrix.sol\":94:2286  contract Access_matrix {... */\n  mstore(0x40, 0x80)\n  callvalue\n    /* \"--CODEGEN--\":8:17   */\n  dup1\n    /* \"--CODEGEN--\":5:7   */\n  iszero\n  tag_1\n  jumpi\n    /* \"--CODEGEN--\":30:31   */\n  0x00\n    /* \"--CODEGEN--\":27:28   */\n  dup1\n    /* \"--CODEGEN--\":20:32   */\n  revert\n    /* \"--CODEGEN--\":5:7   */\ntag_1:\n    /* \"Access_Matrix.sol\":94:2286  contract Access_matrix {... */\n  pop\n  dataSize(sub_0)\n  dup1\n  dataOffset(sub_0)\n  0x00\n  codecopy\n  0x00\n  return\nstop\n\nsub_0: assembly {\n        /* \"Access_Matrix.sol\":94:2286  contract Access_matrix {... */\n      mstore(0x40, 0x80)\n      callvalue\n        /* \"--CODEGEN--\":8:17   */\n      dup1\n        /* \"--CODEGEN--\":5:7   */\n      iszero\n      tag_1\n      jumpi\n        /* \"--CODEGEN--\":30:31   */\n      0x00\n        /* \"--CODEGEN--\":27:28   */\n      dup1\n        /* \"--CODEGEN--\":20:32   */\n      revert\n        /* \"--CODEGEN--\":5:7   */\n    tag_1:\n        /* \"Access_Matrix.sol\":94:2286  contract Access_matrix {... */\n      pop\n      jumpi(tag_2, lt(calldatasize, 0x04))\n      shr(0xe0, calldataload(0x00))\n      dup1\n      0x449b0ffe\n      gt\n      tag_11\n      jumpi\n      dup1\n      0x449b0ffe\n      eq\n      tag_7\n      jumpi\n      dup1\n      0xdd1b91de\n      eq\n      tag_8\n      jumpi\n      dup1\n      0xf1af653c\n      eq\n      tag_9\n      jumpi\n      dup1\n      0xf472c386\n      eq\n      tag_10\n      jumpi\n      jump(tag_2)\n    tag_11:\n      dup1\n      0x0bd7c200\n      eq\n      tag_3\n      jumpi\n      dup1\n      0x0da08fe7\n      eq\n      tag_4\n      jumpi\n      dup1\n      0x11f55424\n      eq\n      tag_5\n      jumpi\n      dup1\n      0x34b9eb7d\n      eq\n      tag_6\n      jumpi\n    tag_2:\n      0x00\n      dup1\n      revert\n        /* \"Access_Matrix.sol\":674:760  function setVariableName(string memory _newName) public {... */\n    tag_3:\n      tag_12\n      0x04\n      dup1\n      calldatasize\n      sub\n      tag_13\n      swap2\n      swap1\n      dup2\n      add\n      swap1\n      jump(tag_14)\n    tag_13:\n      tag_15\n      jump\t// in\n    tag_12:\n      stop\n        /* \"Access_Matrix.sol\":1351:1573  function updateValue(uint32 _variable_value, string memory _activity) public {... */\n    tag_4:\n      tag_16\n      0x04\n      dup1\n      calldatasize\n      sub\n      tag_17\n      swap2\n      swap1\n      dup2\n      add\n      swap1\n      jump(tag_18)\n    tag_17:\n      tag_19\n      jump\t// in\n    tag_16:\n      stop\n        /* \"Access_Matrix.sol\":1665:1758  function getVariableValue() public view returns (uint32 _var){... */\n    tag_5:\n      tag_20\n      tag_21\n      jump\t// in\n    tag_20:\n      mload(0x40)\n      tag_22\n      swap2\n      swap1\n      jump(tag_23)\n    tag_22:\n      mload(0x40)\n      dup1\n      swap2\n      sub\n      swap1\n      return\n        /* \"Access_Matrix.sol\":541:668  function updateMatrix(string memory _activity, address _role, uint8 _val) public {... */\n    tag_6:\n      tag_24\n      0x04\n      dup1\n      calldatasize\n      sub\n      tag_25\n      swap2\n      swap1\n      dup2\n      add\n      swap1\n      jump(tag_26)\n    tag_25:\n      tag_27\n      jump\t// in\n    tag_24:\n      stop\n        /* \"Access_Matrix.sol\":766:864  function getVariableName() public view returns (string memory _varName) {... */\n    tag_7:\n      tag_28\n      tag_29\n      jump\t// in\n    tag_28:\n      mload(0x40)\n      tag_30\n      swap2\n      swap1\n      jump(tag_31)\n    tag_30:\n      mload(0x40)\n      dup1\n      swap2\n      sub\n      swap1\n      return\n        /* \"Access_Matrix.sol\":1764:1906  function getAccess(string memory _activity, address _role) public view returns (uint8 _access) {... */\n    tag_8:\n      tag_32\n      0x04\n      dup1\n      calldatasize\n      sub\n      tag_33\n      swap2\n      swap1\n      dup2\n      add\n      swap1\n      jump(tag_34)\n    tag_33:\n      tag_35\n      jump\t// in\n    tag_32:\n      mload(0x40)\n      tag_36\n      swap2\n      swap1\n      jump(tag_37)\n    tag_36:\n      mload(0x40)\n      dup1\n      swap2\n      sub\n      swap1\n      return\n        /* \"Access_Matrix.sol\":870:1119  function updateMultipleMatrix(string[] memory _activities, address[] memory _roles, uint8[] memory _vals, uint nbOfElements) public {... */\n    tag_9:\n      tag_38\n      0x04\n      dup1\n      calldatasize\n      sub\n      tag_39\n      swap2\n      swap1\n      dup2\n      add\n      swap1\n      jump(tag_40)\n    tag_39:\n      tag_41\n      jump\t// in\n    tag_38:\n      stop\n        /* \"Access_Matrix.sol\":2091:2284  function deleteVariable(string memory _activity) public {... */\n    tag_10:\n      tag_42\n      0x04\n      dup1\n      calldatasize\n      sub\n      tag_43\n      swap2\n      swap1\n      dup2\n      add\n      swap1\n      jump(tag_14)\n    tag_43:\n      tag_44\n      jump\t// in\n    tag_42:\n      stop\n        /* \"Access_Matrix.sol\":674:760  function setVariableName(string memory _newName) public {... */\n    tag_15:\n        /* \"Access_Matrix.sol\":745:753  _newName */\n      dup1\n        /* \"Access_Matrix.sol\":738:742  name */\n      0x02\n        /* \"Access_Matrix.sol\":738:753  name = _newName */\n      swap1\n      dup1\n      mload\n      swap1\n      0x20\n      add\n      swap1\n      tag_46\n      swap3\n      swap2\n      swap1\n      tag_47\n      jump\t// in\n    tag_46:\n      pop\n        /* \"Access_Matrix.sol\":674:760  function setVariableName(string memory _newName) public {... */\n      pop\n      jump\t// out\n        /* \"Access_Matrix.sol\":1351:1573  function updateValue(uint32 _variable_value, string memory _activity) public {... */\n    tag_19:\n        /* \"Access_Matrix.sol\":1438:1453  bool has_access */\n      0x00\n        /* \"Access_Matrix.sol\":1501:1502  1 */\n      0x01\n        /* \"Access_Matrix.sol\":1496:1497  1 */\n      dup1\n        /* \"Access_Matrix.sol\":1490:1491  3 */\n      0x03\n        /* \"Access_Matrix.sol\":1457:1463  matrix */\n      0x00\n        /* \"Access_Matrix.sol\":1464:1473  _activity */\n      dup6\n        /* \"Access_Matrix.sol\":1457:1474  matrix[_activity] */\n      mload(0x40)\n      tag_49\n      swap2\n      swap1\n      jump(tag_50)\n    tag_49:\n      swap1\n      dup2\n      mstore\n      0x20\n      add\n      mload(0x40)\n      dup1\n      swap2\n      sub\n      swap1\n      keccak256\n        /* \"Access_Matrix.sol\":1457:1486  matrix[_activity][msg.sender] */\n      0x00\n        /* \"Access_Matrix.sol\":1475:1485  msg.sender */\n      caller\n        /* \"Access_Matrix.sol\":1457:1486  matrix[_activity][msg.sender] */\n      0xffffffffffffffffffffffffffffffffffffffff\n      and\n      0xffffffffffffffffffffffffffffffffffffffff\n      and\n      dup2\n      mstore\n      0x20\n      add\n      swap1\n      dup2\n      mstore\n      0x20\n      add\n      0x00\n      keccak256\n      0x00\n      swap1\n      sload\n      swap1\n      0x0100\n      exp\n      swap1\n      div\n      0xff\n      and\n        /* \"Access_Matrix.sol\":1457:1491  matrix[_activity][msg.sender] >> 3 */\n      0xff\n      and\n      swap1\n      shr\n        /* \"Access_Matrix.sol\":1456:1497  (matrix[_activity][msg.sender] >> 3 ) & 1 */\n      and\n        /* \"Access_Matrix.sol\":1456:1502  (matrix[_activity][msg.sender] >> 3 ) & 1 == 1 */\n      0xff\n      and\n      eq\n        /* \"Access_Matrix.sol\":1438:1502  bool has_access = (matrix[_activity][msg.sender] >> 3 ) & 1 == 1 */\n      swap1\n      pop\n        /* \"Access_Matrix.sol\":1519:1529  has_access */\n      dup1\n        /* \"Access_Matrix.sol\":1512:1530  assert(has_access) */\n      tag_51\n      jumpi\n      invalid\n    tag_51:\n        /* \"Access_Matrix.sol\":1551:1566  _variable_value */\n      dup3\n        /* \"Access_Matrix.sol\":1540:1548  variable */\n      0x01\n      0x00\n        /* \"Access_Matrix.sol\":1540:1566  variable = _variable_value */\n      0x0100\n      exp\n      dup2\n      sload\n      dup2\n      0xffffffff\n      mul\n      not\n      and\n      swap1\n      dup4\n      0xffffffff\n      and\n      mul\n      or\n      swap1\n      sstore\n      pop\n        /* \"Access_Matrix.sol\":1351:1573  function updateValue(uint32 _variable_value, string memory _activity) public {... */\n      pop\n      pop\n      pop\n      jump\t// out\n        /* \"Access_Matrix.sol\":1665:1758  function getVariableValue() public view returns (uint32 _var){... */\n    tag_21:\n        /* \"Access_Matrix.sol\":1714:1725  uint32 _var */\n      0x00\n        /* \"Access_Matrix.sol\":1743:1751  variable */\n      0x01\n      0x00\n      swap1\n      sload\n      swap1\n      0x0100\n      exp\n      swap1\n      div\n      0xffffffff\n      and\n        /* \"Access_Matrix.sol\":1736:1751  return variable */\n      swap1\n      pop\n        /* \"Access_Matrix.sol\":1665:1758  function getVariableValue() public view returns (uint32 _var){... */\n      swap1\n      jump\t// out\n        /* \"Access_Matrix.sol\":541:668  function updateMatrix(string memory _activity, address _role, uint8 _val) public {... */\n    tag_27:\n        /* \"Access_Matrix.sol\":657:661  _val */\n      dup1\n        /* \"Access_Matrix.sol\":630:636  matrix */\n      0x00\n        /* \"Access_Matrix.sol\":637:646  _activity */\n      dup5\n        /* \"Access_Matrix.sol\":630:647  matrix[_activity] */\n      mload(0x40)\n      tag_54\n      swap2\n      swap1\n      jump(tag_50)\n    tag_54:\n      swap1\n      dup2\n      mstore\n      0x20\n      add\n      mload(0x40)\n      dup1\n      swap2\n      sub\n      swap1\n      keccak256\n        /* \"Access_Matrix.sol\":630:654  matrix[_activity][_role] */\n      0x00\n        /* \"Access_Matrix.sol\":648:653  _role */\n      dup5\n        /* \"Access_Matrix.sol\":630:654  matrix[_activity][_role] */\n      0xffffffffffffffffffffffffffffffffffffffff\n      and\n      0xffffffffffffffffffffffffffffffffffffffff\n      and\n      dup2\n      mstore\n      0x20\n      add\n      swap1\n      dup2\n      mstore\n      0x20\n      add\n      0x00\n      keccak256\n      0x00\n        /* \"Access_Matrix.sol\":630:661  matrix[_activity][_role] = _val */\n      0x0100\n      exp\n      dup2\n      sload\n      dup2\n      0xff\n      mul\n      not\n      and\n      swap1\n      dup4\n      0xff\n      and\n      mul\n      or\n      swap1\n      sstore\n      pop\n        /* \"Access_Matrix.sol\":541:668  function updateMatrix(string memory _activity, address _role, uint8 _val) public {... */\n      pop\n      pop\n      pop\n      jump\t// out\n        /* \"Access_Matrix.sol\":766:864  function getVariableName() public view returns (string memory _varName) {... */\n    tag_29:\n        /* \"Access_Matrix.sol\":814:836  string memory _varName */\n      0x60\n        /* \"Access_Matrix.sol\":853:857  name */\n      0x02\n        /* \"Access_Matrix.sol\":846:857  return name */\n      dup1\n      sload\n      0x01\n      dup2\n      0x01\n      and\n      iszero\n      0x0100\n      mul\n      sub\n      and\n      0x02\n      swap1\n      div\n      dup1\n      0x1f\n      add\n      0x20\n      dup1\n      swap2\n      div\n      mul\n      0x20\n      add\n      mload(0x40)\n      swap1\n      dup2\n      add\n      0x40\n      mstore\n      dup1\n      swap3\n      swap2\n      swap1\n      dup2\n      dup2\n      mstore\n      0x20\n      add\n      dup3\n      dup1\n      sload\n      0x01\n      dup2\n      0x01\n      and\n      iszero\n      0x0100\n      mul\n      sub\n      and\n      0x02\n      swap1\n      div\n      dup1\n      iszero\n      tag_56\n      jumpi\n      dup1\n      0x1f\n      lt\n      tag_57\n      jumpi\n      0x0100\n      dup1\n      dup4\n      sload\n      div\n      mul\n      dup4\n      mstore\n      swap2\n      0x20\n      add\n      swap2\n      jump(tag_56)\n    tag_57:\n      dup3\n      add\n      swap2\n      swap1\n      0x00\n      mstore\n      keccak256(0x00, 0x20)\n      swap1\n    tag_58:\n      dup2\n      sload\n      dup2\n      mstore\n      swap1\n      0x01\n      add\n      swap1\n      0x20\n      add\n      dup1\n      dup4\n      gt\n      tag_58\n      jumpi\n      dup3\n      swap1\n      sub\n      0x1f\n      and\n      dup3\n      add\n      swap2\n    tag_56:\n      pop\n      pop\n      pop\n      pop\n      pop\n      swap1\n      pop\n        /* \"Access_Matrix.sol\":766:864  function getVariableName() public view returns (string memory _varName) {... */\n      swap1\n      jump\t// out\n        /* \"Access_Matrix.sol\":1764:1906  function getAccess(string memory _activity, address _role) public view returns (uint8 _access) {... */\n    tag_35:\n        /* \"Access_Matrix.sol\":1844:1857  uint8 _access */\n      0x00\n        /* \"Access_Matrix.sol\":1875:1881  matrix */\n      dup1\n        /* \"Access_Matrix.sol\":1882:1891  _activity */\n      dup4\n        /* \"Access_Matrix.sol\":1875:1892  matrix[_activity] */\n      mload(0x40)\n      tag_60\n      swap2\n      swap1\n      jump(tag_50)\n    tag_60:\n      swap1\n      dup2\n      mstore\n      0x20\n      add\n      mload(0x40)\n      dup1\n      swap2\n      sub\n      swap1\n      keccak256\n        /* \"Access_Matrix.sol\":1875:1899  matrix[_activity][_role] */\n      0x00\n        /* \"Access_Matrix.sol\":1893:1898  _role */\n      dup4\n        /* \"Access_Matrix.sol\":1875:1899  matrix[_activity][_role] */\n      0xffffffffffffffffffffffffffffffffffffffff\n      and\n      0xffffffffffffffffffffffffffffffffffffffff\n      and\n      dup2\n      mstore\n      0x20\n      add\n      swap1\n      dup2\n      mstore\n      0x20\n      add\n      0x00\n      keccak256\n      0x00\n      swap1\n      sload\n      swap1\n      0x0100\n      exp\n      swap1\n      div\n      0xff\n      and\n        /* \"Access_Matrix.sol\":1867:1899  return  matrix[_activity][_role] */\n      swap1\n      pop\n        /* \"Access_Matrix.sol\":1764:1906  function getAccess(string memory _activity, address _role) public view returns (uint8 _access) {... */\n      swap3\n      swap2\n      pop\n      pop\n      jump\t// out\n        /* \"Access_Matrix.sol\":870:1119  function updateMultipleMatrix(string[] memory _activities, address[] memory _roles, uint8[] memory _vals, uint nbOfElements) public {... */\n    tag_41:\n        /* \"Access_Matrix.sol\":1014:1020  uint k */\n      0x00\n        /* \"Access_Matrix.sol\":1023:1024  0 */\n      dup1\n        /* \"Access_Matrix.sol\":1014:1024  uint k = 0 */\n      swap1\n      pop\n        /* \"Access_Matrix.sol\":1010:1113  for(uint k = 0; k < nbOfElements; k++) {... */\n    tag_62:\n        /* \"Access_Matrix.sol\":1030:1042  nbOfElements */\n      dup2\n        /* \"Access_Matrix.sol\":1026:1027  k */\n      dup2\n        /* \"Access_Matrix.sol\":1026:1042  k < nbOfElements */\n      lt\n        /* \"Access_Matrix.sol\":1010:1113  for(uint k = 0; k < nbOfElements; k++) {... */\n      iszero\n      tag_63\n      jumpi\n        /* \"Access_Matrix.sol\":1095:1100  _vals */\n      dup3\n        /* \"Access_Matrix.sol\":1101:1102  k */\n      dup2\n        /* \"Access_Matrix.sol\":1095:1103  _vals[k] */\n      dup2\n      mload\n      dup2\n      lt\n      tag_65\n      jumpi\n      invalid\n    tag_65:\n      0x20\n      mul\n      0x20\n      add\n      add\n      mload\n        /* \"Access_Matrix.sol\":1059:1065  matrix */\n      0x00\n        /* \"Access_Matrix.sol\":1066:1077  _activities */\n      dup7\n        /* \"Access_Matrix.sol\":1078:1079  k */\n      dup4\n        /* \"Access_Matrix.sol\":1066:1080  _activities[k] */\n      dup2\n      mload\n      dup2\n      lt\n      tag_66\n      jumpi\n      invalid\n    tag_66:\n      0x20\n      mul\n      0x20\n      add\n      add\n      mload\n        /* \"Access_Matrix.sol\":1059:1081  matrix[_activities[k]] */\n      mload(0x40)\n      tag_67\n      swap2\n      swap1\n      jump(tag_68)\n    tag_67:\n      swap1\n      dup2\n      mstore\n      0x20\n      add\n      mload(0x40)\n      dup1\n      swap2\n      sub\n      swap1\n      keccak256\n        /* \"Access_Matrix.sol\":1059:1092  matrix[_activities[k]][_roles[k]] */\n      0x00\n        /* \"Access_Matrix.sol\":1082:1088  _roles */\n      dup7\n        /* \"Access_Matrix.sol\":1089:1090  k */\n      dup5\n        /* \"Access_Matrix.sol\":1082:1091  _roles[k] */\n      dup2\n      mload\n      dup2\n      lt\n      tag_69\n      jumpi\n      invalid\n    tag_69:\n      0x20\n      mul\n      0x20\n      add\n      add\n      mload\n        /* \"Access_Matrix.sol\":1059:1092  matrix[_activities[k]][_roles[k]] */\n      0xffffffffffffffffffffffffffffffffffffffff\n      and\n      0xffffffffffffffffffffffffffffffffffffffff\n      and\n      dup2\n      mstore\n      0x20\n      add\n      swap1\n      dup2\n      mstore\n      0x20\n      add\n      0x00\n      keccak256\n      0x00\n        /* \"Access_Matrix.sol\":1059:1103  matrix[_activities[k]][_roles[k]] = _vals[k] */\n      0x0100\n      exp\n      dup2\n      sload\n      dup2\n      0xff\n      mul\n      not\n      and\n      swap1\n      dup4\n      0xff\n      and\n      mul\n      or\n      swap1\n      sstore\n      pop\n        /* \"Access_Matrix.sol\":1044:1047  k++ */\n      dup1\n      dup1\n      0x01\n      add\n      swap2\n      pop\n      pop\n        /* \"Access_Matrix.sol\":1010:1113  for(uint k = 0; k < nbOfElements; k++) {... */\n      jump(tag_62)\n    tag_63:\n      pop\n        /* \"Access_Matrix.sol\":870:1119  function updateMultipleMatrix(string[] memory _activities, address[] memory _roles, uint8[] memory _vals, uint nbOfElements) public {... */\n      pop\n      pop\n      pop\n      pop\n      jump\t// out\n        /* \"Access_Matrix.sol\":2091:2284  function deleteVariable(string memory _activity) public {... */\n    tag_44:\n        /* \"Access_Matrix.sol\":2157:2172  bool has_access */\n      0x00\n        /* \"Access_Matrix.sol\":2214:2215  1 */\n      0x01\n        /* \"Access_Matrix.sol\":2209:2210  1 */\n      dup1\n        /* \"Access_Matrix.sol\":2176:2182  matrix */\n      0x00\n        /* \"Access_Matrix.sol\":2183:2192  _activity */\n      dup5\n        /* \"Access_Matrix.sol\":2176:2193  matrix[_activity] */\n      mload(0x40)\n      tag_71\n      swap2\n      swap1\n      jump(tag_50)\n    tag_71:\n      swap1\n      dup2\n      mstore\n      0x20\n      add\n      mload(0x40)\n      dup1\n      swap2\n      sub\n      swap1\n      keccak256\n        /* \"Access_Matrix.sol\":2176:2205  matrix[_activity][msg.sender] */\n      0x00\n        /* \"Access_Matrix.sol\":2194:2204  msg.sender */\n      caller\n        /* \"Access_Matrix.sol\":2176:2205  matrix[_activity][msg.sender] */\n      0xffffffffffffffffffffffffffffffffffffffff\n      and\n      0xffffffffffffffffffffffffffffffffffffffff\n      and\n      dup2\n      mstore\n      0x20\n      add\n      swap1\n      dup2\n      mstore\n      0x20\n      add\n      0x00\n      keccak256\n      0x00\n      swap1\n      sload\n      swap1\n      0x0100\n      exp\n      swap1\n      div\n      0xff\n      and\n        /* \"Access_Matrix.sol\":2175:2210  (matrix[_activity][msg.sender]) & 1 */\n      and\n        /* \"Access_Matrix.sol\":2175:2215  (matrix[_activity][msg.sender]) & 1 == 1 */\n      0xff\n      and\n      eq\n        /* \"Access_Matrix.sol\":2157:2215  bool has_access = (matrix[_activity][msg.sender]) & 1 == 1 */\n      swap1\n      pop\n        /* \"Access_Matrix.sol\":2232:2242  has_access */\n      dup1\n        /* \"Access_Matrix.sol\":2225:2243  assert(has_access) */\n      tag_72\n      jumpi\n      invalid\n    tag_72:\n        /* \"Access_Matrix.sol\":2266:2276  msg.sender */\n      caller\n        /* \"Access_Matrix.sol\":2253:2277  selfdestruct(msg.sender) */\n      0xffffffffffffffffffffffffffffffffffffffff\n      and\n      selfdestruct\n        /* \"Access_Matrix.sol\":94:2286  contract Access_matrix {... */\n    tag_47:\n      dup3\n      dup1\n      sload\n      0x01\n      dup2\n      0x01\n      and\n      iszero\n      0x0100\n      mul\n      sub\n      and\n      0x02\n      swap1\n      div\n      swap1\n      0x00\n      mstore\n      keccak256(0x00, 0x20)\n      swap1\n      0x1f\n      add\n      0x20\n      swap1\n      div\n      dup2\n      add\n      swap3\n      dup3\n      0x1f\n      lt\n      tag_74\n      jumpi\n      dup1\n      mload\n      not(0xff)\n      and\n      dup4\n      dup1\n      add\n      or\n      dup6\n      sstore\n      jump(tag_73)\n    tag_74:\n      dup3\n      dup1\n      add\n      0x01\n      add\n      dup6\n      sstore\n      dup3\n      iszero\n      tag_73\n      jumpi\n      swap2\n      dup3\n      add\n    tag_75:\n      dup3\n      dup2\n      gt\n      iszero\n      tag_76\n      jumpi\n      dup3\n      mload\n      dup3\n      sstore\n      swap2\n      0x20\n      add\n      swap2\n      swap1\n      0x01\n      add\n      swap1\n      jump(tag_75)\n    tag_76:\n    tag_73:\n      pop\n      swap1\n      pop\n      tag_77\n      swap2\n      swap1\n      tag_78\n      jump\t// in\n    tag_77:\n      pop\n      swap1\n      jump\t// out\n    tag_78:\n      tag_79\n      swap2\n      swap1\n    tag_80:\n      dup1\n      dup3\n      gt\n      iszero\n      tag_81\n      jumpi\n      0x00\n      dup2\n      0x00\n      swap1\n      sstore\n      pop\n      0x01\n      add\n      jump(tag_80)\n    tag_81:\n      pop\n      swap1\n      jump\n    tag_79:\n      swap1\n      jump\t// out\n        /* \"--CODEGEN--\":5:135   */\n    tag_83:\n      0x00\n        /* \"--CODEGEN--\":85:91   */\n      dup2\n        /* \"--CODEGEN--\":72:92   */\n      calldataload\n        /* \"--CODEGEN--\":63:92   */\n      swap1\n      pop\n        /* \"--CODEGEN--\":97:130   */\n      tag_84\n        /* \"--CODEGEN--\":124:129   */\n      dup2\n        /* \"--CODEGEN--\":97:130   */\n      jump(tag_85)\n    tag_84:\n        /* \"--CODEGEN--\":57:135   */\n      swap3\n      swap2\n      pop\n      pop\n      jump\n        /* \"--CODEGEN--\":160:867   */\n    tag_86:\n      0x00\n        /* \"--CODEGEN--\":277:280   */\n      dup3\n        /* \"--CODEGEN--\":270:274   */\n      0x1f\n        /* \"--CODEGEN--\":262:268   */\n      dup4\n        /* \"--CODEGEN--\":258:275   */\n      add\n        /* \"--CODEGEN--\":254:281   */\n      slt\n        /* \"--CODEGEN--\":244:246   */\n      tag_87\n      jumpi\n        /* \"--CODEGEN--\":295:296   */\n      0x00\n        /* \"--CODEGEN--\":292:293   */\n      dup1\n        /* \"--CODEGEN--\":285:297   */\n      revert\n        /* \"--CODEGEN--\":244:246   */\n    tag_87:\n        /* \"--CODEGEN--\":332:338   */\n      dup2\n        /* \"--CODEGEN--\":319:339   */\n      calldataload\n        /* \"--CODEGEN--\":354:434   */\n      tag_88\n        /* \"--CODEGEN--\":369:433   */\n      tag_89\n        /* \"--CODEGEN--\":426:432   */\n      dup3\n        /* \"--CODEGEN--\":369:433   */\n      jump(tag_90)\n    tag_89:\n        /* \"--CODEGEN--\":354:434   */\n      jump(tag_91)\n    tag_88:\n        /* \"--CODEGEN--\":345:434   */\n      swap2\n      pop\n        /* \"--CODEGEN--\":451:456   */\n      dup2\n        /* \"--CODEGEN--\":476:482   */\n      dup2\n        /* \"--CODEGEN--\":469:474   */\n      dup4\n        /* \"--CODEGEN--\":462:483   */\n      mstore\n        /* \"--CODEGEN--\":506:510   */\n      0x20\n        /* \"--CODEGEN--\":498:504   */\n      dup5\n        /* \"--CODEGEN--\":494:511   */\n      add\n        /* \"--CODEGEN--\":484:511   */\n      swap4\n      pop\n        /* \"--CODEGEN--\":528:532   */\n      0x20\n        /* \"--CODEGEN--\":523:526   */\n      dup2\n        /* \"--CODEGEN--\":519:533   */\n      add\n        /* \"--CODEGEN--\":512:533   */\n      swap1\n      pop\n        /* \"--CODEGEN--\":581:587   */\n      dup4\n        /* \"--CODEGEN--\":628:631   */\n      dup6\n        /* \"--CODEGEN--\":620:624   */\n      0x20\n        /* \"--CODEGEN--\":612:618   */\n      dup5\n        /* \"--CODEGEN--\":608:625   */\n      mul\n        /* \"--CODEGEN--\":603:606   */\n      dup3\n        /* \"--CODEGEN--\":599:626   */\n      add\n        /* \"--CODEGEN--\":596:632   */\n      gt\n        /* \"--CODEGEN--\":593:595   */\n      iszero\n      tag_92\n      jumpi\n        /* \"--CODEGEN--\":645:646   */\n      0x00\n        /* \"--CODEGEN--\":642:643   */\n      dup1\n        /* \"--CODEGEN--\":635:647   */\n      revert\n        /* \"--CODEGEN--\":593:595   */\n    tag_92:\n        /* \"--CODEGEN--\":670:671   */\n      0x00\n        /* \"--CODEGEN--\":655:861   */\n    tag_93:\n        /* \"--CODEGEN--\":680:686   */\n      dup4\n        /* \"--CODEGEN--\":677:678   */\n      dup2\n        /* \"--CODEGEN--\":674:687   */\n      lt\n        /* \"--CODEGEN--\":655:861   */\n      iszero\n      tag_95\n      jumpi\n        /* \"--CODEGEN--\":738:741   */\n      dup2\n        /* \"--CODEGEN--\":760:797   */\n      tag_96\n        /* \"--CODEGEN--\":793:796   */\n      dup9\n        /* \"--CODEGEN--\":781:791   */\n      dup3\n        /* \"--CODEGEN--\":760:797   */\n      jump(tag_83)\n    tag_96:\n        /* \"--CODEGEN--\":755:758   */\n      dup5\n        /* \"--CODEGEN--\":748:798   */\n      mstore\n        /* \"--CODEGEN--\":821:825   */\n      0x20\n        /* \"--CODEGEN--\":816:819   */\n      dup5\n        /* \"--CODEGEN--\":812:826   */\n      add\n        /* \"--CODEGEN--\":805:826   */\n      swap4\n      pop\n        /* \"--CODEGEN--\":849:853   */\n      0x20\n        /* \"--CODEGEN--\":844:847   */\n      dup4\n        /* \"--CODEGEN--\":840:854   */\n      add\n        /* \"--CODEGEN--\":833:854   */\n      swap3\n      pop\n        /* \"--CODEGEN--\":712:861   */\n      pop\n        /* \"--CODEGEN--\":702:703   */\n      0x01\n        /* \"--CODEGEN--\":699:700   */\n      dup2\n        /* \"--CODEGEN--\":695:704   */\n      add\n        /* \"--CODEGEN--\":690:704   */\n      swap1\n      pop\n        /* \"--CODEGEN--\":655:861   */\n      jump(tag_93)\n    tag_95:\n        /* \"--CODEGEN--\":659:673   */\n      pop\n        /* \"--CODEGEN--\":237:867   */\n      pop\n      pop\n      pop\n      swap3\n      swap2\n      pop\n      pop\n      jump\n        /* \"--CODEGEN--\":892:1588   */\n    tag_97:\n      0x00\n        /* \"--CODEGEN--\":1015:1018   */\n      dup3\n        /* \"--CODEGEN--\":1008:1012   */\n      0x1f\n        /* \"--CODEGEN--\":1000:1006   */\n      dup4\n        /* \"--CODEGEN--\":996:1013   */\n      add\n        /* \"--CODEGEN--\":992:1019   */\n      slt\n        /* \"--CODEGEN--\":982:984   */\n      tag_98\n      jumpi\n        /* \"--CODEGEN--\":1033:1034   */\n      0x00\n        /* \"--CODEGEN--\":1030:1031   */\n      dup1\n        /* \"--CODEGEN--\":1023:1035   */\n      revert\n        /* \"--CODEGEN--\":982:984   */\n    tag_98:\n        /* \"--CODEGEN--\":1070:1076   */\n      dup2\n        /* \"--CODEGEN--\":1057:1077   */\n      calldataload\n        /* \"--CODEGEN--\":1092:1178   */\n      tag_99\n        /* \"--CODEGEN--\":1107:1177   */\n      tag_100\n        /* \"--CODEGEN--\":1170:1176   */\n      dup3\n        /* \"--CODEGEN--\":1107:1177   */\n      jump(tag_101)\n    tag_100:\n        /* \"--CODEGEN--\":1092:1178   */\n      jump(tag_91)\n    tag_99:\n        /* \"--CODEGEN--\":1083:1178   */\n      swap2\n      pop\n        /* \"--CODEGEN--\":1195:1200   */\n      dup2\n        /* \"--CODEGEN--\":1220:1226   */\n      dup2\n        /* \"--CODEGEN--\":1213:1218   */\n      dup4\n        /* \"--CODEGEN--\":1206:1227   */\n      mstore\n        /* \"--CODEGEN--\":1250:1254   */\n      0x20\n        /* \"--CODEGEN--\":1242:1248   */\n      dup5\n        /* \"--CODEGEN--\":1238:1255   */\n      add\n        /* \"--CODEGEN--\":1228:1255   */\n      swap4\n      pop\n        /* \"--CODEGEN--\":1272:1276   */\n      0x20\n        /* \"--CODEGEN--\":1267:1270   */\n      dup2\n        /* \"--CODEGEN--\":1263:1277   */\n      add\n        /* \"--CODEGEN--\":1256:1277   */\n      swap1\n      pop\n        /* \"--CODEGEN--\":1325:1331   */\n      dup4\n        /* \"--CODEGEN--\":1358:1359   */\n      0x00\n        /* \"--CODEGEN--\":1343:1582   */\n    tag_102:\n        /* \"--CODEGEN--\":1368:1374   */\n      dup4\n        /* \"--CODEGEN--\":1365:1366   */\n      dup2\n        /* \"--CODEGEN--\":1362:1375   */\n      lt\n        /* \"--CODEGEN--\":1343:1582   */\n      iszero\n      tag_104\n      jumpi\n        /* \"--CODEGEN--\":1451:1454   */\n      dup2\n        /* \"--CODEGEN--\":1438:1455   */\n      calldataload\n        /* \"--CODEGEN--\":1430:1436   */\n      dup7\n        /* \"--CODEGEN--\":1426:1456   */\n      add\n        /* \"--CODEGEN--\":1475:1518   */\n      tag_105\n        /* \"--CODEGEN--\":1514:1517   */\n      dup9\n        /* \"--CODEGEN--\":1502:1512   */\n      dup3\n        /* \"--CODEGEN--\":1475:1518   */\n      jump(tag_106)\n    tag_105:\n        /* \"--CODEGEN--\":1470:1473   */\n      dup5\n        /* \"--CODEGEN--\":1463:1519   */\n      mstore\n        /* \"--CODEGEN--\":1542:1546   */\n      0x20\n        /* \"--CODEGEN--\":1537:1540   */\n      dup5\n        /* \"--CODEGEN--\":1533:1547   */\n      add\n        /* \"--CODEGEN--\":1526:1547   */\n      swap4\n      pop\n        /* \"--CODEGEN--\":1570:1574   */\n      0x20\n        /* \"--CODEGEN--\":1565:1568   */\n      dup4\n        /* \"--CODEGEN--\":1561:1575   */\n      add\n        /* \"--CODEGEN--\":1554:1575   */\n      swap3\n      pop\n        /* \"--CODEGEN--\":1400:1582   */\n      pop\n        /* \"--CODEGEN--\":1390:1391   */\n      0x01\n        /* \"--CODEGEN--\":1387:1388   */\n      dup2\n        /* \"--CODEGEN--\":1383:1392   */\n      add\n        /* \"--CODEGEN--\":1378:1392   */\n      swap1\n      pop\n        /* \"--CODEGEN--\":1343:1582   */\n      jump(tag_102)\n    tag_104:\n        /* \"--CODEGEN--\":1347:1361   */\n      pop\n        /* \"--CODEGEN--\":975:1588   */\n      pop\n      pop\n      pop\n      swap3\n      swap2\n      pop\n      pop\n      jump\n        /* \"--CODEGEN--\":1612:2313   */\n    tag_107:\n      0x00\n        /* \"--CODEGEN--\":1727:1730   */\n      dup3\n        /* \"--CODEGEN--\":1720:1724   */\n      0x1f\n        /* \"--CODEGEN--\":1712:1718   */\n      dup4\n        /* \"--CODEGEN--\":1708:1725   */\n      add\n        /* \"--CODEGEN--\":1704:1731   */\n      slt\n        /* \"--CODEGEN--\":1694:1696   */\n      tag_108\n      jumpi\n        /* \"--CODEGEN--\":1745:1746   */\n      0x00\n        /* \"--CODEGEN--\":1742:1743   */\n      dup1\n        /* \"--CODEGEN--\":1735:1747   */\n      revert\n        /* \"--CODEGEN--\":1694:1696   */\n    tag_108:\n        /* \"--CODEGEN--\":1782:1788   */\n      dup2\n        /* \"--CODEGEN--\":1769:1789   */\n      calldataload\n        /* \"--CODEGEN--\":1804:1882   */\n      tag_109\n        /* \"--CODEGEN--\":1819:1881   */\n      tag_110\n        /* \"--CODEGEN--\":1874:1880   */\n      dup3\n        /* \"--CODEGEN--\":1819:1881   */\n      jump(tag_111)\n    tag_110:\n        /* \"--CODEGEN--\":1804:1882   */\n      jump(tag_91)\n    tag_109:\n        /* \"--CODEGEN--\":1795:1882   */\n      swap2\n      pop\n        /* \"--CODEGEN--\":1899:1904   */\n      dup2\n        /* \"--CODEGEN--\":1924:1930   */\n      dup2\n        /* \"--CODEGEN--\":1917:1922   */\n      dup4\n        /* \"--CODEGEN--\":1910:1931   */\n      mstore\n        /* \"--CODEGEN--\":1954:1958   */\n      0x20\n        /* \"--CODEGEN--\":1946:1952   */\n      dup5\n        /* \"--CODEGEN--\":1942:1959   */\n      add\n        /* \"--CODEGEN--\":1932:1959   */\n      swap4\n      pop\n        /* \"--CODEGEN--\":1976:1980   */\n      0x20\n        /* \"--CODEGEN--\":1971:1974   */\n      dup2\n        /* \"--CODEGEN--\":1967:1981   */\n      add\n        /* \"--CODEGEN--\":1960:1981   */\n      swap1\n      pop\n        /* \"--CODEGEN--\":2029:2035   */\n      dup4\n        /* \"--CODEGEN--\":2076:2079   */\n      dup6\n        /* \"--CODEGEN--\":2068:2072   */\n      0x20\n        /* \"--CODEGEN--\":2060:2066   */\n      dup5\n        /* \"--CODEGEN--\":2056:2073   */\n      mul\n        /* \"--CODEGEN--\":2051:2054   */\n      dup3\n        /* \"--CODEGEN--\":2047:2074   */\n      add\n        /* \"--CODEGEN--\":2044:2080   */\n      gt\n        /* \"--CODEGEN--\":2041:2043   */\n      iszero\n      tag_112\n      jumpi\n        /* \"--CODEGEN--\":2093:2094   */\n      0x00\n        /* \"--CODEGEN--\":2090:2091   */\n      dup1\n        /* \"--CODEGEN--\":2083:2095   */\n      revert\n        /* \"--CODEGEN--\":2041:2043   */\n    tag_112:\n        /* \"--CODEGEN--\":2118:2119   */\n      0x00\n        /* \"--CODEGEN--\":2103:2307   */\n    tag_113:\n        /* \"--CODEGEN--\":2128:2134   */\n      dup4\n        /* \"--CODEGEN--\":2125:2126   */\n      dup2\n        /* \"--CODEGEN--\":2122:2135   */\n      lt\n        /* \"--CODEGEN--\":2103:2307   */\n      iszero\n      tag_115\n      jumpi\n        /* \"--CODEGEN--\":2186:2189   */\n      dup2\n        /* \"--CODEGEN--\":2208:2243   */\n      tag_116\n        /* \"--CODEGEN--\":2239:2242   */\n      dup9\n        /* \"--CODEGEN--\":2227:2237   */\n      dup3\n        /* \"--CODEGEN--\":2208:2243   */\n      jump(tag_117)\n    tag_116:\n        /* \"--CODEGEN--\":2203:2206   */\n      dup5\n        /* \"--CODEGEN--\":2196:2244   */\n      mstore\n        /* \"--CODEGEN--\":2267:2271   */\n      0x20\n        /* \"--CODEGEN--\":2262:2265   */\n      dup5\n        /* \"--CODEGEN--\":2258:2272   */\n      add\n        /* \"--CODEGEN--\":2251:2272   */\n      swap4\n      pop\n        /* \"--CODEGEN--\":2295:2299   */\n      0x20\n        /* \"--CODEGEN--\":2290:2293   */\n      dup4\n        /* \"--CODEGEN--\":2286:2300   */\n      add\n        /* \"--CODEGEN--\":2279:2300   */\n      swap3\n      pop\n        /* \"--CODEGEN--\":2160:2307   */\n      pop\n        /* \"--CODEGEN--\":2150:2151   */\n      0x01\n        /* \"--CODEGEN--\":2147:2148   */\n      dup2\n        /* \"--CODEGEN--\":2143:2152   */\n      add\n        /* \"--CODEGEN--\":2138:2152   */\n      swap1\n      pop\n        /* \"--CODEGEN--\":2103:2307   */\n      jump(tag_113)\n    tag_115:\n        /* \"--CODEGEN--\":2107:2121   */\n      pop\n        /* \"--CODEGEN--\":1687:2313   */\n      pop\n      pop\n      pop\n      swap3\n      swap2\n      pop\n      pop\n      jump\n        /* \"--CODEGEN--\":2322:2756   */\n    tag_106:\n      0x00\n        /* \"--CODEGEN--\":2420:2423   */\n      dup3\n        /* \"--CODEGEN--\":2413:2417   */\n      0x1f\n        /* \"--CODEGEN--\":2405:2411   */\n      dup4\n        /* \"--CODEGEN--\":2401:2418   */\n      add\n        /* \"--CODEGEN--\":2397:2424   */\n      slt\n        /* \"--CODEGEN--\":2387:2389   */\n      tag_118\n      jumpi\n        /* \"--CODEGEN--\":2438:2439   */\n      0x00\n        /* \"--CODEGEN--\":2435:2436   */\n      dup1\n        /* \"--CODEGEN--\":2428:2440   */\n      revert\n        /* \"--CODEGEN--\":2387:2389   */\n    tag_118:\n        /* \"--CODEGEN--\":2475:2481   */\n      dup2\n        /* \"--CODEGEN--\":2462:2482   */\n      calldataload\n        /* \"--CODEGEN--\":2497:2558   */\n      tag_119\n        /* \"--CODEGEN--\":2512:2557   */\n      tag_120\n        /* \"--CODEGEN--\":2550:2556   */\n      dup3\n        /* \"--CODEGEN--\":2512:2557   */\n      jump(tag_121)\n    tag_120:\n        /* \"--CODEGEN--\":2497:2558   */\n      jump(tag_91)\n    tag_119:\n        /* \"--CODEGEN--\":2488:2558   */\n      swap2\n      pop\n        /* \"--CODEGEN--\":2578:2584   */\n      dup1\n        /* \"--CODEGEN--\":2571:2576   */\n      dup3\n        /* \"--CODEGEN--\":2564:2585   */\n      mstore\n        /* \"--CODEGEN--\":2614:2618   */\n      0x20\n        /* \"--CODEGEN--\":2606:2612   */\n      dup4\n        /* \"--CODEGEN--\":2602:2619   */\n      add\n        /* \"--CODEGEN--\":2647:2651   */\n      0x20\n        /* \"--CODEGEN--\":2640:2645   */\n      dup4\n        /* \"--CODEGEN--\":2636:2652   */\n      add\n        /* \"--CODEGEN--\":2682:2685   */\n      dup6\n        /* \"--CODEGEN--\":2673:2679   */\n      dup4\n        /* \"--CODEGEN--\":2668:2671   */\n      dup4\n        /* \"--CODEGEN--\":2664:2680   */\n      add\n        /* \"--CODEGEN--\":2661:2686   */\n      gt\n        /* \"--CODEGEN--\":2658:2660   */\n      iszero\n      tag_122\n      jumpi\n        /* \"--CODEGEN--\":2699:2700   */\n      0x00\n        /* \"--CODEGEN--\":2696:2697   */\n      dup1\n        /* \"--CODEGEN--\":2689:2701   */\n      revert\n        /* \"--CODEGEN--\":2658:2660   */\n    tag_122:\n        /* \"--CODEGEN--\":2709:2750   */\n      tag_123\n        /* \"--CODEGEN--\":2743:2749   */\n      dup4\n        /* \"--CODEGEN--\":2738:2741   */\n      dup3\n        /* \"--CODEGEN--\":2733:2736   */\n      dup5\n        /* \"--CODEGEN--\":2709:2750   */\n      jump(tag_124)\n    tag_123:\n        /* \"--CODEGEN--\":2380:2756   */\n      pop\n      pop\n      pop\n      swap3\n      swap2\n      pop\n      pop\n      jump\n        /* \"--CODEGEN--\":2765:3207   */\n    tag_125:\n      0x00\n        /* \"--CODEGEN--\":2867:2870   */\n      dup3\n        /* \"--CODEGEN--\":2860:2864   */\n      0x1f\n        /* \"--CODEGEN--\":2852:2858   */\n      dup4\n        /* \"--CODEGEN--\":2848:2865   */\n      add\n        /* \"--CODEGEN--\":2844:2871   */\n      slt\n        /* \"--CODEGEN--\":2834:2836   */\n      tag_126\n      jumpi\n        /* \"--CODEGEN--\":2885:2886   */\n      0x00\n        /* \"--CODEGEN--\":2882:2883   */\n      dup1\n        /* \"--CODEGEN--\":2875:2887   */\n      revert\n        /* \"--CODEGEN--\":2834:2836   */\n    tag_126:\n        /* \"--CODEGEN--\":2922:2928   */\n      dup2\n        /* \"--CODEGEN--\":2909:2929   */\n      calldataload\n        /* \"--CODEGEN--\":2944:3009   */\n      tag_127\n        /* \"--CODEGEN--\":2959:3008   */\n      tag_128\n        /* \"--CODEGEN--\":3001:3007   */\n      dup3\n        /* \"--CODEGEN--\":2959:3008   */\n      jump(tag_129)\n    tag_128:\n        /* \"--CODEGEN--\":2944:3009   */\n      jump(tag_91)\n    tag_127:\n        /* \"--CODEGEN--\":2935:3009   */\n      swap2\n      pop\n        /* \"--CODEGEN--\":3029:3035   */\n      dup1\n        /* \"--CODEGEN--\":3022:3027   */\n      dup3\n        /* \"--CODEGEN--\":3015:3036   */\n      mstore\n        /* \"--CODEGEN--\":3065:3069   */\n      0x20\n        /* \"--CODEGEN--\":3057:3063   */\n      dup4\n        /* \"--CODEGEN--\":3053:3070   */\n      add\n        /* \"--CODEGEN--\":3098:3102   */\n      0x20\n        /* \"--CODEGEN--\":3091:3096   */\n      dup4\n        /* \"--CODEGEN--\":3087:3103   */\n      add\n        /* \"--CODEGEN--\":3133:3136   */\n      dup6\n        /* \"--CODEGEN--\":3124:3130   */\n      dup4\n        /* \"--CODEGEN--\":3119:3122   */\n      dup4\n        /* \"--CODEGEN--\":3115:3131   */\n      add\n        /* \"--CODEGEN--\":3112:3137   */\n      gt\n        /* \"--CODEGEN--\":3109:3111   */\n      iszero\n      tag_130\n      jumpi\n        /* \"--CODEGEN--\":3150:3151   */\n      0x00\n        /* \"--CODEGEN--\":3147:3148   */\n      dup1\n        /* \"--CODEGEN--\":3140:3152   */\n      revert\n        /* \"--CODEGEN--\":3109:3111   */\n    tag_130:\n        /* \"--CODEGEN--\":3160:3201   */\n      tag_131\n        /* \"--CODEGEN--\":3194:3200   */\n      dup4\n        /* \"--CODEGEN--\":3189:3192   */\n      dup3\n        /* \"--CODEGEN--\":3184:3187   */\n      dup5\n        /* \"--CODEGEN--\":3160:3201   */\n      jump(tag_124)\n    tag_131:\n        /* \"--CODEGEN--\":2827:3207   */\n      pop\n      pop\n      pop\n      swap3\n      swap2\n      pop\n      pop\n      jump\n        /* \"--CODEGEN--\":3215:3345   */\n    tag_132:\n      0x00\n        /* \"--CODEGEN--\":3295:3301   */\n      dup2\n        /* \"--CODEGEN--\":3282:3302   */\n      calldataload\n        /* \"--CODEGEN--\":3273:3302   */\n      swap1\n      pop\n        /* \"--CODEGEN--\":3307:3340   */\n      tag_133\n        /* \"--CODEGEN--\":3334:3339   */\n      dup2\n        /* \"--CODEGEN--\":3307:3340   */\n      jump(tag_134)\n    tag_133:\n        /* \"--CODEGEN--\":3267:3345   */\n      swap3\n      swap2\n      pop\n      pop\n      jump\n        /* \"--CODEGEN--\":3352:3480   */\n    tag_135:\n      0x00\n        /* \"--CODEGEN--\":3431:3437   */\n      dup2\n        /* \"--CODEGEN--\":3418:3438   */\n      calldataload\n        /* \"--CODEGEN--\":3409:3438   */\n      swap1\n      pop\n        /* \"--CODEGEN--\":3443:3475   */\n      tag_136\n        /* \"--CODEGEN--\":3469:3474   */\n      dup2\n        /* \"--CODEGEN--\":3443:3475   */\n      jump(tag_137)\n    tag_136:\n        /* \"--CODEGEN--\":3403:3480   */\n      swap3\n      swap2\n      pop\n      pop\n      jump\n        /* \"--CODEGEN--\":3487:3613   */\n    tag_117:\n      0x00\n        /* \"--CODEGEN--\":3565:3571   */\n      dup2\n        /* \"--CODEGEN--\":3552:3572   */\n      calldataload\n        /* \"--CODEGEN--\":3543:3572   */\n      swap1\n      pop\n        /* \"--CODEGEN--\":3577:3608   */\n      tag_138\n        /* \"--CODEGEN--\":3602:3607   */\n      dup2\n        /* \"--CODEGEN--\":3577:3608   */\n      jump(tag_139)\n    tag_138:\n        /* \"--CODEGEN--\":3537:3613   */\n      swap3\n      swap2\n      pop\n      pop\n      jump\n        /* \"--CODEGEN--\":3620:4653   */\n    tag_40:\n      0x00\n      dup1\n      0x00\n      dup1\n        /* \"--CODEGEN--\":3854:3857   */\n      0x80\n        /* \"--CODEGEN--\":3842:3851   */\n      dup6\n        /* \"--CODEGEN--\":3833:3840   */\n      dup8\n        /* \"--CODEGEN--\":3829:3852   */\n      sub\n        /* \"--CODEGEN--\":3825:3858   */\n      slt\n        /* \"--CODEGEN--\":3822:3824   */\n      iszero\n      tag_140\n      jumpi\n        /* \"--CODEGEN--\":3871:3872   */\n      0x00\n        /* \"--CODEGEN--\":3868:3869   */\n      dup1\n        /* \"--CODEGEN--\":3861:3873   */\n      revert\n        /* \"--CODEGEN--\":3822:3824   */\n    tag_140:\n        /* \"--CODEGEN--\":3934:3935   */\n      0x00\n        /* \"--CODEGEN--\":3923:3932   */\n      dup6\n        /* \"--CODEGEN--\":3919:3936   */\n      add\n        /* \"--CODEGEN--\":3906:3937   */\n      calldataload\n        /* \"--CODEGEN--\":3957:3975   */\n      0xffffffffffffffff\n        /* \"--CODEGEN--\":3949:3955   */\n      dup2\n        /* \"--CODEGEN--\":3946:3976   */\n      gt\n        /* \"--CODEGEN--\":3943:3945   */\n      iszero\n      tag_141\n      jumpi\n        /* \"--CODEGEN--\":3989:3990   */\n      0x00\n        /* \"--CODEGEN--\":3986:3987   */\n      dup1\n        /* \"--CODEGEN--\":3979:3991   */\n      revert\n        /* \"--CODEGEN--\":3943:3945   */\n    tag_141:\n        /* \"--CODEGEN--\":4009:4093   */\n      tag_142\n        /* \"--CODEGEN--\":4085:4092   */\n      dup8\n        /* \"--CODEGEN--\":4076:4082   */\n      dup3\n        /* \"--CODEGEN--\":4065:4074   */\n      dup9\n        /* \"--CODEGEN--\":4061:4083   */\n      add\n        /* \"--CODEGEN--\":4009:4093   */\n      jump(tag_97)\n    tag_142:\n        /* \"--CODEGEN--\":3999:4093   */\n      swap5\n      pop\n        /* \"--CODEGEN--\":3885:4099   */\n      pop\n        /* \"--CODEGEN--\":4158:4160   */\n      0x20\n        /* \"--CODEGEN--\":4147:4156   */\n      dup6\n        /* \"--CODEGEN--\":4143:4161   */\n      add\n        /* \"--CODEGEN--\":4130:4162   */\n      calldataload\n        /* \"--CODEGEN--\":4182:4200   */\n      0xffffffffffffffff\n        /* \"--CODEGEN--\":4174:4180   */\n      dup2\n        /* \"--CODEGEN--\":4171:4201   */\n      gt\n        /* \"--CODEGEN--\":4168:4170   */\n      iszero\n      tag_143\n      jumpi\n        /* \"--CODEGEN--\":4214:4215   */\n      0x00\n        /* \"--CODEGEN--\":4211:4212   */\n      dup1\n        /* \"--CODEGEN--\":4204:4216   */\n      revert\n        /* \"--CODEGEN--\":4168:4170   */\n    tag_143:\n        /* \"--CODEGEN--\":4234:4312   */\n      tag_144\n        /* \"--CODEGEN--\":4304:4311   */\n      dup8\n        /* \"--CODEGEN--\":4295:4301   */\n      dup3\n        /* \"--CODEGEN--\":4284:4293   */\n      dup9\n        /* \"--CODEGEN--\":4280:4302   */\n      add\n        /* \"--CODEGEN--\":4234:4312   */\n      jump(tag_86)\n    tag_144:\n        /* \"--CODEGEN--\":4224:4312   */\n      swap4\n      pop\n        /* \"--CODEGEN--\":4109:4318   */\n      pop\n        /* \"--CODEGEN--\":4377:4379   */\n      0x40\n        /* \"--CODEGEN--\":4366:4375   */\n      dup6\n        /* \"--CODEGEN--\":4362:4380   */\n      add\n        /* \"--CODEGEN--\":4349:4381   */\n      calldataload\n        /* \"--CODEGEN--\":4401:4419   */\n      0xffffffffffffffff\n        /* \"--CODEGEN--\":4393:4399   */\n      dup2\n        /* \"--CODEGEN--\":4390:4420   */\n      gt\n        /* \"--CODEGEN--\":4387:4389   */\n      iszero\n      tag_145\n      jumpi\n        /* \"--CODEGEN--\":4433:4434   */\n      0x00\n        /* \"--CODEGEN--\":4430:4431   */\n      dup1\n        /* \"--CODEGEN--\":4423:4435   */\n      revert\n        /* \"--CODEGEN--\":4387:4389   */\n    tag_145:\n        /* \"--CODEGEN--\":4453:4529   */\n      tag_146\n        /* \"--CODEGEN--\":4521:4528   */\n      dup8\n        /* \"--CODEGEN--\":4512:4518   */\n      dup3\n        /* \"--CODEGEN--\":4501:4510   */\n      dup9\n        /* \"--CODEGEN--\":4497:4519   */\n      add\n        /* \"--CODEGEN--\":4453:4529   */\n      jump(tag_107)\n    tag_146:\n        /* \"--CODEGEN--\":4443:4529   */\n      swap3\n      pop\n        /* \"--CODEGEN--\":4328:4535   */\n      pop\n        /* \"--CODEGEN--\":4566:4568   */\n      0x60\n        /* \"--CODEGEN--\":4584:4637   */\n      tag_147\n        /* \"--CODEGEN--\":4629:4636   */\n      dup8\n        /* \"--CODEGEN--\":4620:4626   */\n      dup3\n        /* \"--CODEGEN--\":4609:4618   */\n      dup9\n        /* \"--CODEGEN--\":4605:4627   */\n      add\n        /* \"--CODEGEN--\":4584:4637   */\n      jump(tag_132)\n    tag_147:\n        /* \"--CODEGEN--\":4574:4637   */\n      swap2\n      pop\n        /* \"--CODEGEN--\":4545:4643   */\n      pop\n        /* \"--CODEGEN--\":3816:4653   */\n      swap3\n      swap6\n      swap2\n      swap5\n      pop\n      swap3\n      pop\n      jump\n        /* \"--CODEGEN--\":4660:5007   */\n    tag_14:\n      0x00\n        /* \"--CODEGEN--\":4774:4776   */\n      0x20\n        /* \"--CODEGEN--\":4762:4771   */\n      dup3\n        /* \"--CODEGEN--\":4753:4760   */\n      dup5\n        /* \"--CODEGEN--\":4749:4772   */\n      sub\n        /* \"--CODEGEN--\":4745:4777   */\n      slt\n        /* \"--CODEGEN--\":4742:4744   */\n      iszero\n      tag_148\n      jumpi\n        /* \"--CODEGEN--\":4790:4791   */\n      0x00\n        /* \"--CODEGEN--\":4787:4788   */\n      dup1\n        /* \"--CODEGEN--\":4780:4792   */\n      revert\n        /* \"--CODEGEN--\":4742:4744   */\n    tag_148:\n        /* \"--CODEGEN--\":4853:4854   */\n      0x00\n        /* \"--CODEGEN--\":4842:4851   */\n      dup3\n        /* \"--CODEGEN--\":4838:4855   */\n      add\n        /* \"--CODEGEN--\":4825:4856   */\n      calldataload\n        /* \"--CODEGEN--\":4876:4894   */\n      0xffffffffffffffff\n        /* \"--CODEGEN--\":4868:4874   */\n      dup2\n        /* \"--CODEGEN--\":4865:4895   */\n      gt\n        /* \"--CODEGEN--\":4862:4864   */\n      iszero\n      tag_149\n      jumpi\n        /* \"--CODEGEN--\":4908:4909   */\n      0x00\n        /* \"--CODEGEN--\":4905:4906   */\n      dup1\n        /* \"--CODEGEN--\":4898:4910   */\n      revert\n        /* \"--CODEGEN--\":4862:4864   */\n    tag_149:\n        /* \"--CODEGEN--\":4928:4991   */\n      tag_150\n        /* \"--CODEGEN--\":4983:4990   */\n      dup5\n        /* \"--CODEGEN--\":4974:4980   */\n      dup3\n        /* \"--CODEGEN--\":4963:4972   */\n      dup6\n        /* \"--CODEGEN--\":4959:4981   */\n      add\n        /* \"--CODEGEN--\":4928:4991   */\n      jump(tag_125)\n    tag_150:\n        /* \"--CODEGEN--\":4918:4991   */\n      swap2\n      pop\n        /* \"--CODEGEN--\":4804:4997   */\n      pop\n        /* \"--CODEGEN--\":4736:5007   */\n      swap3\n      swap2\n      pop\n      pop\n      jump\n        /* \"--CODEGEN--\":5014:5486   */\n    tag_34:\n      0x00\n      dup1\n        /* \"--CODEGEN--\":5145:5147   */\n      0x40\n        /* \"--CODEGEN--\":5133:5142   */\n      dup4\n        /* \"--CODEGEN--\":5124:5131   */\n      dup6\n        /* \"--CODEGEN--\":5120:5143   */\n      sub\n        /* \"--CODEGEN--\":5116:5148   */\n      slt\n        /* \"--CODEGEN--\":5113:5115   */\n      iszero\n      tag_151\n      jumpi\n        /* \"--CODEGEN--\":5161:5162   */\n      0x00\n        /* \"--CODEGEN--\":5158:5159   */\n      dup1\n        /* \"--CODEGEN--\":5151:5163   */\n      revert\n        /* \"--CODEGEN--\":5113:5115   */\n    tag_151:\n        /* \"--CODEGEN--\":5224:5225   */\n      0x00\n        /* \"--CODEGEN--\":5213:5222   */\n      dup4\n        /* \"--CODEGEN--\":5209:5226   */\n      add\n        /* \"--CODEGEN--\":5196:5227   */\n      calldataload\n        /* \"--CODEGEN--\":5247:5265   */\n      0xffffffffffffffff\n        /* \"--CODEGEN--\":5239:5245   */\n      dup2\n        /* \"--CODEGEN--\":5236:5266   */\n      gt\n        /* \"--CODEGEN--\":5233:5235   */\n      iszero\n      tag_152\n      jumpi\n        /* \"--CODEGEN--\":5279:5280   */\n      0x00\n        /* \"--CODEGEN--\":5276:5277   */\n      dup1\n        /* \"--CODEGEN--\":5269:5281   */\n      revert\n        /* \"--CODEGEN--\":5233:5235   */\n    tag_152:\n        /* \"--CODEGEN--\":5299:5362   */\n      tag_153\n        /* \"--CODEGEN--\":5354:5361   */\n      dup6\n        /* \"--CODEGEN--\":5345:5351   */\n      dup3\n        /* \"--CODEGEN--\":5334:5343   */\n      dup7\n        /* \"--CODEGEN--\":5330:5352   */\n      add\n        /* \"--CODEGEN--\":5299:5362   */\n      jump(tag_125)\n    tag_153:\n        /* \"--CODEGEN--\":5289:5362   */\n      swap3\n      pop\n        /* \"--CODEGEN--\":5175:5368   */\n      pop\n        /* \"--CODEGEN--\":5399:5401   */\n      0x20\n        /* \"--CODEGEN--\":5417:5470   */\n      tag_154\n        /* \"--CODEGEN--\":5462:5469   */\n      dup6\n        /* \"--CODEGEN--\":5453:5459   */\n      dup3\n        /* \"--CODEGEN--\":5442:5451   */\n      dup7\n        /* \"--CODEGEN--\":5438:5460   */\n      add\n        /* \"--CODEGEN--\":5417:5470   */\n      jump(tag_83)\n    tag_154:\n        /* \"--CODEGEN--\":5407:5470   */\n      swap2\n      pop\n        /* \"--CODEGEN--\":5378:5476   */\n      pop\n        /* \"--CODEGEN--\":5107:5486   */\n      swap3\n      pop\n      swap3\n      swap1\n      pop\n      jump\n        /* \"--CODEGEN--\":5493:6086   */\n    tag_26:\n      0x00\n      dup1\n      0x00\n        /* \"--CODEGEN--\":5639:5641   */\n      0x60\n        /* \"--CODEGEN--\":5627:5636   */\n      dup5\n        /* \"--CODEGEN--\":5618:5625   */\n      dup7\n        /* \"--CODEGEN--\":5614:5637   */\n      sub\n        /* \"--CODEGEN--\":5610:5642   */\n      slt\n        /* \"--CODEGEN--\":5607:5609   */\n      iszero\n      tag_155\n      jumpi\n        /* \"--CODEGEN--\":5655:5656   */\n      0x00\n        /* \"--CODEGEN--\":5652:5653   */\n      dup1\n        /* \"--CODEGEN--\":5645:5657   */\n      revert\n        /* \"--CODEGEN--\":5607:5609   */\n    tag_155:\n        /* \"--CODEGEN--\":5718:5719   */\n      0x00\n        /* \"--CODEGEN--\":5707:5716   */\n      dup5\n        /* \"--CODEGEN--\":5703:5720   */\n      add\n        /* \"--CODEGEN--\":5690:5721   */\n      calldataload\n        /* \"--CODEGEN--\":5741:5759   */\n      0xffffffffffffffff\n        /* \"--CODEGEN--\":5733:5739   */\n      dup2\n        /* \"--CODEGEN--\":5730:5760   */\n      gt\n        /* \"--CODEGEN--\":5727:5729   */\n      iszero\n      tag_156\n      jumpi\n        /* \"--CODEGEN--\":5773:5774   */\n      0x00\n        /* \"--CODEGEN--\":5770:5771   */\n      dup1\n        /* \"--CODEGEN--\":5763:5775   */\n      revert\n        /* \"--CODEGEN--\":5727:5729   */\n    tag_156:\n        /* \"--CODEGEN--\":5793:5856   */\n      tag_157\n        /* \"--CODEGEN--\":5848:5855   */\n      dup7\n        /* \"--CODEGEN--\":5839:5845   */\n      dup3\n        /* \"--CODEGEN--\":5828:5837   */\n      dup8\n        /* \"--CODEGEN--\":5824:5846   */\n      add\n        /* \"--CODEGEN--\":5793:5856   */\n      jump(tag_125)\n    tag_157:\n        /* \"--CODEGEN--\":5783:5856   */\n      swap4\n      pop\n        /* \"--CODEGEN--\":5669:5862   */\n      pop\n        /* \"--CODEGEN--\":5893:5895   */\n      0x20\n        /* \"--CODEGEN--\":5911:5964   */\n      tag_158\n        /* \"--CODEGEN--\":5956:5963   */\n      dup7\n        /* \"--CODEGEN--\":5947:5953   */\n      dup3\n        /* \"--CODEGEN--\":5936:5945   */\n      dup8\n        /* \"--CODEGEN--\":5932:5954   */\n      add\n        /* \"--CODEGEN--\":5911:5964   */\n      jump(tag_83)\n    tag_158:\n        /* \"--CODEGEN--\":5901:5964   */\n      swap3\n      pop\n        /* \"--CODEGEN--\":5872:5970   */\n      pop\n        /* \"--CODEGEN--\":6001:6003   */\n      0x40\n        /* \"--CODEGEN--\":6019:6070   */\n      tag_159\n        /* \"--CODEGEN--\":6062:6069   */\n      dup7\n        /* \"--CODEGEN--\":6053:6059   */\n      dup3\n        /* \"--CODEGEN--\":6042:6051   */\n      dup8\n        /* \"--CODEGEN--\":6038:6060   */\n      add\n        /* \"--CODEGEN--\":6019:6070   */\n      jump(tag_117)\n    tag_159:\n        /* \"--CODEGEN--\":6009:6070   */\n      swap2\n      pop\n        /* \"--CODEGEN--\":5980:6076   */\n      pop\n        /* \"--CODEGEN--\":5601:6086   */\n      swap3\n      pop\n      swap3\n      pop\n      swap3\n      jump\n        /* \"--CODEGEN--\":6093:6563   */\n    tag_18:\n      0x00\n      dup1\n        /* \"--CODEGEN--\":6223:6225   */\n      0x40\n        /* \"--CODEGEN--\":6211:6220   */\n      dup4\n        /* \"--CODEGEN--\":6202:6209   */\n      dup6\n        /* \"--CODEGEN--\":6198:6221   */\n      sub\n        /* \"--CODEGEN--\":6194:6226   */\n      slt\n        /* \"--CODEGEN--\":6191:6193   */\n      iszero\n      tag_160\n      jumpi\n        /* \"--CODEGEN--\":6239:6240   */\n      0x00\n        /* \"--CODEGEN--\":6236:6237   */\n      dup1\n        /* \"--CODEGEN--\":6229:6241   */\n      revert\n        /* \"--CODEGEN--\":6191:6193   */\n    tag_160:\n        /* \"--CODEGEN--\":6274:6275   */\n      0x00\n        /* \"--CODEGEN--\":6291:6343   */\n      tag_161\n        /* \"--CODEGEN--\":6335:6342   */\n      dup6\n        /* \"--CODEGEN--\":6326:6332   */\n      dup3\n        /* \"--CODEGEN--\":6315:6324   */\n      dup7\n        /* \"--CODEGEN--\":6311:6333   */\n      add\n        /* \"--CODEGEN--\":6291:6343   */\n      jump(tag_135)\n    tag_161:\n        /* \"--CODEGEN--\":6281:6343   */\n      swap3\n      pop\n        /* \"--CODEGEN--\":6253:6349   */\n      pop\n        /* \"--CODEGEN--\":6408:6410   */\n      0x20\n        /* \"--CODEGEN--\":6397:6406   */\n      dup4\n        /* \"--CODEGEN--\":6393:6411   */\n      add\n        /* \"--CODEGEN--\":6380:6412   */\n      calldataload\n        /* \"--CODEGEN--\":6432:6450   */\n      0xffffffffffffffff\n        /* \"--CODEGEN--\":6424:6430   */\n      dup2\n        /* \"--CODEGEN--\":6421:6451   */\n      gt\n        /* \"--CODEGEN--\":6418:6420   */\n      iszero\n      tag_162\n      jumpi\n        /* \"--CODEGEN--\":6464:6465   */\n      0x00\n        /* \"--CODEGEN--\":6461:6462   */\n      dup1\n        /* \"--CODEGEN--\":6454:6466   */\n      revert\n        /* \"--CODEGEN--\":6418:6420   */\n    tag_162:\n        /* \"--CODEGEN--\":6484:6547   */\n      tag_163\n        /* \"--CODEGEN--\":6539:6546   */\n      dup6\n        /* \"--CODEGEN--\":6530:6536   */\n      dup3\n        /* \"--CODEGEN--\":6519:6528   */\n      dup7\n        /* \"--CODEGEN--\":6515:6537   */\n      add\n        /* \"--CODEGEN--\":6484:6547   */\n      jump(tag_125)\n    tag_163:\n        /* \"--CODEGEN--\":6474:6547   */\n      swap2\n      pop\n        /* \"--CODEGEN--\":6359:6553   */\n      pop\n        /* \"--CODEGEN--\":6185:6563   */\n      swap3\n      pop\n      swap3\n      swap1\n      pop\n      jump\n        /* \"--CODEGEN--\":6570:6917   */\n    tag_164:\n      0x00\n        /* \"--CODEGEN--\":6682:6721   */\n      tag_165\n        /* \"--CODEGEN--\":6715:6720   */\n      dup3\n        /* \"--CODEGEN--\":6682:6721   */\n      jump(tag_166)\n    tag_165:\n        /* \"--CODEGEN--\":6733:6804   */\n      tag_167\n        /* \"--CODEGEN--\":6797:6803   */\n      dup2\n        /* \"--CODEGEN--\":6792:6795   */\n      dup6\n        /* \"--CODEGEN--\":6733:6804   */\n      jump(tag_168)\n    tag_167:\n        /* \"--CODEGEN--\":6726:6804   */\n      swap4\n      pop\n        /* \"--CODEGEN--\":6809:6861   */\n      tag_169\n        /* \"--CODEGEN--\":6854:6860   */\n      dup2\n        /* \"--CODEGEN--\":6849:6852   */\n      dup6\n        /* \"--CODEGEN--\":6842:6846   */\n      0x20\n        /* \"--CODEGEN--\":6835:6840   */\n      dup7\n        /* \"--CODEGEN--\":6831:6847   */\n      add\n        /* \"--CODEGEN--\":6809:6861   */\n      jump(tag_170)\n    tag_169:\n        /* \"--CODEGEN--\":6882:6911   */\n      tag_171\n        /* \"--CODEGEN--\":6904:6910   */\n      dup2\n        /* \"--CODEGEN--\":6882:6911   */\n      jump(tag_172)\n    tag_171:\n        /* \"--CODEGEN--\":6877:6880   */\n      dup5\n        /* \"--CODEGEN--\":6873:6912   */\n      add\n        /* \"--CODEGEN--\":6866:6912   */\n      swap2\n      pop\n        /* \"--CODEGEN--\":6662:6917   */\n      pop\n      swap3\n      swap2\n      pop\n      pop\n      jump\n        /* \"--CODEGEN--\":6924:7284   */\n    tag_173:\n      0x00\n        /* \"--CODEGEN--\":7054:7093   */\n      tag_174\n        /* \"--CODEGEN--\":7087:7092   */\n      dup3\n        /* \"--CODEGEN--\":7054:7093   */\n      jump(tag_166)\n    tag_174:\n        /* \"--CODEGEN--\":7105:7194   */\n      tag_175\n        /* \"--CODEGEN--\":7187:7193   */\n      dup2\n        /* \"--CODEGEN--\":7182:7185   */\n      dup6\n        /* \"--CODEGEN--\":7105:7194   */\n      jump(tag_176)\n    tag_175:\n        /* \"--CODEGEN--\":7098:7194   */\n      swap4\n      pop\n        /* \"--CODEGEN--\":7199:7251   */\n      tag_177\n        /* \"--CODEGEN--\":7244:7250   */\n      dup2\n        /* \"--CODEGEN--\":7239:7242   */\n      dup6\n        /* \"--CODEGEN--\":7232:7236   */\n      0x20\n        /* \"--CODEGEN--\":7225:7230   */\n      dup7\n        /* \"--CODEGEN--\":7221:7237   */\n      add\n        /* \"--CODEGEN--\":7199:7251   */\n      jump(tag_170)\n    tag_177:\n        /* \"--CODEGEN--\":7272:7278   */\n      dup1\n        /* \"--CODEGEN--\":7267:7270   */\n      dup5\n        /* \"--CODEGEN--\":7263:7279   */\n      add\n        /* \"--CODEGEN--\":7256:7279   */\n      swap2\n      pop\n        /* \"--CODEGEN--\":7034:7284   */\n      pop\n      swap3\n      swap2\n      pop\n      pop\n      jump\n        /* \"--CODEGEN--\":7291:7643   */\n    tag_178:\n      0x00\n        /* \"--CODEGEN--\":7417:7452   */\n      tag_179\n        /* \"--CODEGEN--\":7446:7451   */\n      dup3\n        /* \"--CODEGEN--\":7417:7452   */\n      jump(tag_180)\n    tag_179:\n        /* \"--CODEGEN--\":7464:7553   */\n      tag_181\n        /* \"--CODEGEN--\":7546:7552   */\n      dup2\n        /* \"--CODEGEN--\":7541:7544   */\n      dup6\n        /* \"--CODEGEN--\":7464:7553   */\n      jump(tag_176)\n    tag_181:\n        /* \"--CODEGEN--\":7457:7553   */\n      swap4\n      pop\n        /* \"--CODEGEN--\":7558:7610   */\n      tag_182\n        /* \"--CODEGEN--\":7603:7609   */\n      dup2\n        /* \"--CODEGEN--\":7598:7601   */\n      dup6\n        /* \"--CODEGEN--\":7591:7595   */\n      0x20\n        /* \"--CODEGEN--\":7584:7589   */\n      dup7\n        /* \"--CODEGEN--\":7580:7596   */\n      add\n        /* \"--CODEGEN--\":7558:7610   */\n      jump(tag_170)\n    tag_182:\n        /* \"--CODEGEN--\":7631:7637   */\n      dup1\n        /* \"--CODEGEN--\":7626:7629   */\n      dup5\n        /* \"--CODEGEN--\":7622:7638   */\n      add\n        /* \"--CODEGEN--\":7615:7638   */\n      swap2\n      pop\n        /* \"--CODEGEN--\":7397:7643   */\n      pop\n      swap3\n      swap2\n      pop\n      pop\n      jump\n        /* \"--CODEGEN--\":7650:7760   */\n    tag_183:\n        /* \"--CODEGEN--\":7731:7754   */\n      tag_184\n        /* \"--CODEGEN--\":7748:7753   */\n      dup2\n        /* \"--CODEGEN--\":7731:7754   */\n      jump(tag_185)\n    tag_184:\n        /* \"--CODEGEN--\":7726:7729   */\n      dup3\n        /* \"--CODEGEN--\":7719:7755   */\n      mstore\n        /* \"--CODEGEN--\":7713:7760   */\n      pop\n      pop\n      jump\n        /* \"--CODEGEN--\":7767:7874   */\n    tag_186:\n        /* \"--CODEGEN--\":7846:7868   */\n      tag_187\n        /* \"--CODEGEN--\":7862:7867   */\n      dup2\n        /* \"--CODEGEN--\":7846:7868   */\n      jump(tag_188)\n    tag_187:\n        /* \"--CODEGEN--\":7841:7844   */\n      dup3\n        /* \"--CODEGEN--\":7834:7869   */\n      mstore\n        /* \"--CODEGEN--\":7828:7874   */\n      pop\n      pop\n      jump\n        /* \"--CODEGEN--\":7881:8139   */\n    tag_68:\n      0x00\n        /* \"--CODEGEN--\":8023:8114   */\n      tag_189\n        /* \"--CODEGEN--\":8110:8113   */\n      dup3\n        /* \"--CODEGEN--\":8101:8107   */\n      dup5\n        /* \"--CODEGEN--\":8023:8114   */\n      jump(tag_178)\n    tag_189:\n        /* \"--CODEGEN--\":8016:8114   */\n      swap2\n      pop\n        /* \"--CODEGEN--\":8131:8134   */\n      dup2\n        /* \"--CODEGEN--\":8124:8134   */\n      swap1\n      pop\n        /* \"--CODEGEN--\":8004:8139   */\n      swap3\n      swap2\n      pop\n      pop\n      jump\n        /* \"--CODEGEN--\":8146:8412   */\n    tag_50:\n      0x00\n        /* \"--CODEGEN--\":8292:8387   */\n      tag_190\n        /* \"--CODEGEN--\":8383:8386   */\n      dup3\n        /* \"--CODEGEN--\":8374:8380   */\n      dup5\n        /* \"--CODEGEN--\":8292:8387   */\n      jump(tag_173)\n    tag_190:\n        /* \"--CODEGEN--\":8285:8387   */\n      swap2\n      pop\n        /* \"--CODEGEN--\":8404:8407   */\n      dup2\n        /* \"--CODEGEN--\":8397:8407   */\n      swap1\n      pop\n        /* \"--CODEGEN--\":8273:8412   */\n      swap3\n      swap2\n      pop\n      pop\n      jump\n        /* \"--CODEGEN--\":8419:8720   */\n    tag_31:\n      0x00\n        /* \"--CODEGEN--\":8557:8559   */\n      0x20\n        /* \"--CODEGEN--\":8546:8555   */\n      dup3\n        /* \"--CODEGEN--\":8542:8560   */\n      add\n        /* \"--CODEGEN--\":8534:8560   */\n      swap1\n      pop\n        /* \"--CODEGEN--\":8607:8616   */\n      dup2\n        /* \"--CODEGEN--\":8601:8605   */\n      dup2\n        /* \"--CODEGEN--\":8597:8617   */\n      sub\n        /* \"--CODEGEN--\":8593:8594   */\n      0x00\n        /* \"--CODEGEN--\":8582:8591   */\n      dup4\n        /* \"--CODEGEN--\":8578:8595   */\n      add\n        /* \"--CODEGEN--\":8571:8618   */\n      mstore\n        /* \"--CODEGEN--\":8632:8710   */\n      tag_191\n        /* \"--CODEGEN--\":8705:8709   */\n      dup2\n        /* \"--CODEGEN--\":8696:8702   */\n      dup5\n        /* \"--CODEGEN--\":8632:8710   */\n      jump(tag_164)\n    tag_191:\n        /* \"--CODEGEN--\":8624:8710   */\n      swap1\n      pop\n        /* \"--CODEGEN--\":8528:8720   */\n      swap3\n      swap2\n      pop\n      pop\n      jump\n        /* \"--CODEGEN--\":8727:8936   */\n    tag_23:\n      0x00\n        /* \"--CODEGEN--\":8843:8845   */\n      0x20\n        /* \"--CODEGEN--\":8832:8841   */\n      dup3\n        /* \"--CODEGEN--\":8828:8846   */\n      add\n        /* \"--CODEGEN--\":8820:8846   */\n      swap1\n      pop\n        /* \"--CODEGEN--\":8857:8926   */\n      tag_192\n        /* \"--CODEGEN--\":8923:8924   */\n      0x00\n        /* \"--CODEGEN--\":8912:8921   */\n      dup4\n        /* \"--CODEGEN--\":8908:8925   */\n      add\n        /* \"--CODEGEN--\":8899:8905   */\n      dup5\n        /* \"--CODEGEN--\":8857:8926   */\n      jump(tag_183)\n    tag_192:\n        /* \"--CODEGEN--\":8814:8936   */\n      swap3\n      swap2\n      pop\n      pop\n      jump\n        /* \"--CODEGEN--\":8943:9148   */\n    tag_37:\n      0x00\n        /* \"--CODEGEN--\":9057:9059   */\n      0x20\n        /* \"--CODEGEN--\":9046:9055   */\n      dup3\n        /* \"--CODEGEN--\":9042:9060   */\n      add\n        /* \"--CODEGEN--\":9034:9060   */\n      swap1\n      pop\n        /* \"--CODEGEN--\":9071:9138   */\n      tag_193\n        /* \"--CODEGEN--\":9135:9136   */\n      0x00\n        /* \"--CODEGEN--\":9124:9133   */\n      dup4\n        /* \"--CODEGEN--\":9120:9137   */\n      add\n        /* \"--CODEGEN--\":9111:9117   */\n      dup5\n        /* \"--CODEGEN--\":9071:9138   */\n      jump(tag_186)\n    tag_193:\n        /* \"--CODEGEN--\":9028:9148   */\n      swap3\n      swap2\n      pop\n      pop\n      jump\n        /* \"--CODEGEN--\":9155:9411   */\n    tag_91:\n      0x00\n        /* \"--CODEGEN--\":9217:9219   */\n      0x40\n        /* \"--CODEGEN--\":9211:9220   */\n      mload\n        /* \"--CODEGEN--\":9201:9220   */\n      swap1\n      pop\n        /* \"--CODEGEN--\":9255:9259   */\n      dup2\n        /* \"--CODEGEN--\":9247:9253   */\n      dup2\n        /* \"--CODEGEN--\":9243:9260   */\n      add\n        /* \"--CODEGEN--\":9354:9360   */\n      dup2\n        /* \"--CODEGEN--\":9342:9352   */\n      dup2\n        /* \"--CODEGEN--\":9339:9361   */\n      lt\n        /* \"--CODEGEN--\":9318:9336   */\n      0xffffffffffffffff\n        /* \"--CODEGEN--\":9306:9316   */\n      dup3\n        /* \"--CODEGEN--\":9303:9337   */\n      gt\n        /* \"--CODEGEN--\":9300:9362   */\n      or\n        /* \"--CODEGEN--\":9297:9299   */\n      iszero\n      tag_194\n      jumpi\n        /* \"--CODEGEN--\":9375:9376   */\n      0x00\n        /* \"--CODEGEN--\":9372:9373   */\n      dup1\n        /* \"--CODEGEN--\":9365:9377   */\n      revert\n        /* \"--CODEGEN--\":9297:9299   */\n    tag_194:\n        /* \"--CODEGEN--\":9395:9405   */\n      dup1\n        /* \"--CODEGEN--\":9391:9393   */\n      0x40\n        /* \"--CODEGEN--\":9384:9406   */\n      mstore\n        /* \"--CODEGEN--\":9195:9411   */\n      pop\n      swap2\n      swap1\n      pop\n      jump\n        /* \"--CODEGEN--\":9418:9722   */\n    tag_90:\n      0x00\n        /* \"--CODEGEN--\":9577:9595   */\n      0xffffffffffffffff\n        /* \"--CODEGEN--\":9569:9575   */\n      dup3\n        /* \"--CODEGEN--\":9566:9596   */\n      gt\n        /* \"--CODEGEN--\":9563:9565   */\n      iszero\n      tag_195\n      jumpi\n        /* \"--CODEGEN--\":9609:9610   */\n      0x00\n        /* \"--CODEGEN--\":9606:9607   */\n      dup1\n        /* \"--CODEGEN--\":9599:9611   */\n      revert\n        /* \"--CODEGEN--\":9563:9565   */\n    tag_195:\n        /* \"--CODEGEN--\":9644:9648   */\n      0x20\n        /* \"--CODEGEN--\":9636:9642   */\n      dup3\n        /* \"--CODEGEN--\":9632:9649   */\n      mul\n        /* \"--CODEGEN--\":9624:9649   */\n      swap1\n      pop\n        /* \"--CODEGEN--\":9707:9711   */\n      0x20\n        /* \"--CODEGEN--\":9701:9705   */\n      dup2\n        /* \"--CODEGEN--\":9697:9712   */\n      add\n        /* \"--CODEGEN--\":9689:9712   */\n      swap1\n      pop\n        /* \"--CODEGEN--\":9500:9722   */\n      swap2\n      swap1\n      pop\n      jump\n        /* \"--CODEGEN--\":9729:10039   */\n    tag_101:\n      0x00\n        /* \"--CODEGEN--\":9894:9912   */\n      0xffffffffffffffff\n        /* \"--CODEGEN--\":9886:9892   */\n      dup3\n        /* \"--CODEGEN--\":9883:9913   */\n      gt\n        /* \"--CODEGEN--\":9880:9882   */\n      iszero\n      tag_196\n      jumpi\n        /* \"--CODEGEN--\":9926:9927   */\n      0x00\n        /* \"--CODEGEN--\":9923:9924   */\n      dup1\n        /* \"--CODEGEN--\":9916:9928   */\n      revert\n        /* \"--CODEGEN--\":9880:9882   */\n    tag_196:\n        /* \"--CODEGEN--\":9961:9965   */\n      0x20\n        /* \"--CODEGEN--\":9953:9959   */\n      dup3\n        /* \"--CODEGEN--\":9949:9966   */\n      mul\n        /* \"--CODEGEN--\":9941:9966   */\n      swap1\n      pop\n        /* \"--CODEGEN--\":10024:10028   */\n      0x20\n        /* \"--CODEGEN--\":10018:10022   */\n      dup2\n        /* \"--CODEGEN--\":10014:10029   */\n      add\n        /* \"--CODEGEN--\":10006:10029   */\n      swap1\n      pop\n        /* \"--CODEGEN--\":9817:10039   */\n      swap2\n      swap1\n      pop\n      jump\n        /* \"--CODEGEN--\":10046:10348   */\n    tag_111:\n      0x00\n        /* \"--CODEGEN--\":10203:10221   */\n      0xffffffffffffffff\n        /* \"--CODEGEN--\":10195:10201   */\n      dup3\n        /* \"--CODEGEN--\":10192:10222   */\n      gt\n        /* \"--CODEGEN--\":10189:10191   */\n      iszero\n      tag_197\n      jumpi\n        /* \"--CODEGEN--\":10235:10236   */\n      0x00\n        /* \"--CODEGEN--\":10232:10233   */\n      dup1\n        /* \"--CODEGEN--\":10225:10237   */\n      revert\n        /* \"--CODEGEN--\":10189:10191   */\n    tag_197:\n        /* \"--CODEGEN--\":10270:10274   */\n      0x20\n        /* \"--CODEGEN--\":10262:10268   */\n      dup3\n        /* \"--CODEGEN--\":10258:10275   */\n      mul\n        /* \"--CODEGEN--\":10250:10275   */\n      swap1\n      pop\n        /* \"--CODEGEN--\":10333:10337   */\n      0x20\n        /* \"--CODEGEN--\":10327:10331   */\n      dup2\n        /* \"--CODEGEN--\":10323:10338   */\n      add\n        /* \"--CODEGEN--\":10315:10338   */\n      swap1\n      pop\n        /* \"--CODEGEN--\":10126:10348   */\n      swap2\n      swap1\n      pop\n      jump\n        /* \"--CODEGEN--\":10355:10673   */\n    tag_121:\n      0x00\n        /* \"--CODEGEN--\":10495:10513   */\n      0xffffffffffffffff\n        /* \"--CODEGEN--\":10487:10493   */\n      dup3\n        /* \"--CODEGEN--\":10484:10514   */\n      gt\n        /* \"--CODEGEN--\":10481:10483   */\n      iszero\n      tag_198\n      jumpi\n        /* \"--CODEGEN--\":10527:10528   */\n      0x00\n        /* \"--CODEGEN--\":10524:10525   */\n      dup1\n        /* \"--CODEGEN--\":10517:10529   */\n      revert\n        /* \"--CODEGEN--\":10481:10483   */\n    tag_198:\n        /* \"--CODEGEN--\":10594:10598   */\n      0x1f\n        /* \"--CODEGEN--\":10590:10599   */\n      not\n        /* \"--CODEGEN--\":10583:10587   */\n      0x1f\n        /* \"--CODEGEN--\":10575:10581   */\n      dup4\n        /* \"--CODEGEN--\":10571:10588   */\n      add\n        /* \"--CODEGEN--\":10567:10600   */\n      and\n        /* \"--CODEGEN--\":10559:10600   */\n      swap1\n      pop\n        /* \"--CODEGEN--\":10658:10662   */\n      0x20\n        /* \"--CODEGEN--\":10652:10656   */\n      dup2\n        /* \"--CODEGEN--\":10648:10663   */\n      add\n        /* \"--CODEGEN--\":10640:10663   */\n      swap1\n      pop\n        /* \"--CODEGEN--\":10418:10673   */\n      swap2\n      swap1\n      pop\n      jump\n        /* \"--CODEGEN--\":10680:11002   */\n    tag_129:\n      0x00\n        /* \"--CODEGEN--\":10824:10842   */\n      0xffffffffffffffff\n        /* \"--CODEGEN--\":10816:10822   */\n      dup3\n        /* \"--CODEGEN--\":10813:10843   */\n      gt\n        /* \"--CODEGEN--\":10810:10812   */\n      iszero\n      tag_199\n      jumpi\n        /* \"--CODEGEN--\":10856:10857   */\n      0x00\n        /* \"--CODEGEN--\":10853:10854   */\n      dup1\n        /* \"--CODEGEN--\":10846:10858   */\n      revert\n        /* \"--CODEGEN--\":10810:10812   */\n    tag_199:\n        /* \"--CODEGEN--\":10923:10927   */\n      0x1f\n        /* \"--CODEGEN--\":10919:10928   */\n      not\n        /* \"--CODEGEN--\":10912:10916   */\n      0x1f\n        /* \"--CODEGEN--\":10904:10910   */\n      dup4\n        /* \"--CODEGEN--\":10900:10917   */\n      add\n        /* \"--CODEGEN--\":10896:10929   */\n      and\n        /* \"--CODEGEN--\":10888:10929   */\n      swap1\n      pop\n        /* \"--CODEGEN--\":10987:10991   */\n      0x20\n        /* \"--CODEGEN--\":10981:10985   */\n      dup2\n        /* \"--CODEGEN--\":10977:10992   */\n      add\n        /* \"--CODEGEN--\":10969:10992   */\n      swap1\n      pop\n        /* \"--CODEGEN--\":10747:11002   */\n      swap2\n      swap1\n      pop\n      jump\n        /* \"--CODEGEN--\":11009:11127   */\n    tag_180:\n      0x00\n        /* \"--CODEGEN--\":11099:11104   */\n      dup2\n        /* \"--CODEGEN--\":11093:11105   */\n      mload\n        /* \"--CODEGEN--\":11083:11105   */\n      swap1\n      pop\n        /* \"--CODEGEN--\":11064:11127   */\n      swap2\n      swap1\n      pop\n      jump\n        /* \"--CODEGEN--\":11134:11256   */\n    tag_166:\n      0x00\n        /* \"--CODEGEN--\":11228:11233   */\n      dup2\n        /* \"--CODEGEN--\":11222:11234   */\n      mload\n        /* \"--CODEGEN--\":11212:11234   */\n      swap1\n      pop\n        /* \"--CODEGEN--\":11193:11256   */\n      swap2\n      swap1\n      pop\n      jump\n        /* \"--CODEGEN--\":11264:11427   */\n    tag_168:\n      0x00\n        /* \"--CODEGEN--\":11379:11385   */\n      dup3\n        /* \"--CODEGEN--\":11374:11377   */\n      dup3\n        /* \"--CODEGEN--\":11367:11386   */\n      mstore\n        /* \"--CODEGEN--\":11416:11420   */\n      0x20\n        /* \"--CODEGEN--\":11411:11414   */\n      dup3\n        /* \"--CODEGEN--\":11407:11421   */\n      add\n        /* \"--CODEGEN--\":11392:11421   */\n      swap1\n      pop\n        /* \"--CODEGEN--\":11360:11427   */\n      swap3\n      swap2\n      pop\n      pop\n      jump\n        /* \"--CODEGEN--\":11436:11581   */\n    tag_176:\n      0x00\n        /* \"--CODEGEN--\":11572:11575   */\n      dup2\n        /* \"--CODEGEN--\":11557:11575   */\n      swap1\n      pop\n        /* \"--CODEGEN--\":11550:11581   */\n      swap3\n      swap2\n      pop\n      pop\n      jump\n        /* \"--CODEGEN--\":11589:11680   */\n    tag_200:\n      0x00\n        /* \"--CODEGEN--\":11651:11675   */\n      tag_201\n        /* \"--CODEGEN--\":11669:11674   */\n      dup3\n        /* \"--CODEGEN--\":11651:11675   */\n      jump(tag_202)\n    tag_201:\n        /* \"--CODEGEN--\":11640:11675   */\n      swap1\n      pop\n        /* \"--CODEGEN--\":11634:11680   */\n      swap2\n      swap1\n      pop\n      jump\n        /* \"--CODEGEN--\":11687:11808   */\n    tag_202:\n      0x00\n        /* \"--CODEGEN--\":11760:11802   */\n      0xffffffffffffffffffffffffffffffffffffffff\n        /* \"--CODEGEN--\":11753:11758   */\n      dup3\n        /* \"--CODEGEN--\":11749:11803   */\n      and\n        /* \"--CODEGEN--\":11738:11803   */\n      swap1\n      pop\n        /* \"--CODEGEN--\":11732:11808   */\n      swap2\n      swap1\n      pop\n      jump\n        /* \"--CODEGEN--\":11815:11887   */\n    tag_203:\n      0x00\n        /* \"--CODEGEN--\":11877:11882   */\n      dup2\n        /* \"--CODEGEN--\":11866:11882   */\n      swap1\n      pop\n        /* \"--CODEGEN--\":11860:11887   */\n      swap2\n      swap1\n      pop\n      jump\n        /* \"--CODEGEN--\":11894:11982   */\n    tag_185:\n      0x00\n        /* \"--CODEGEN--\":11966:11976   */\n      0xffffffff\n        /* \"--CODEGEN--\":11959:11964   */\n      dup3\n        /* \"--CODEGEN--\":11955:11977   */\n      and\n        /* \"--CODEGEN--\":11944:11977   */\n      swap1\n      pop\n        /* \"--CODEGEN--\":11938:11982   */\n      swap2\n      swap1\n      pop\n      jump\n        /* \"--CODEGEN--\":11989:12070   */\n    tag_188:\n      0x00\n        /* \"--CODEGEN--\":12060:12064   */\n      0xff\n        /* \"--CODEGEN--\":12053:12058   */\n      dup3\n        /* \"--CODEGEN--\":12049:12065   */\n      and\n        /* \"--CODEGEN--\":12038:12065   */\n      swap1\n      pop\n        /* \"--CODEGEN--\":12032:12070   */\n      swap2\n      swap1\n      pop\n      jump\n        /* \"--CODEGEN--\":12078:12223   */\n    tag_124:\n        /* \"--CODEGEN--\":12159:12165   */\n      dup3\n        /* \"--CODEGEN--\":12154:12157   */\n      dup2\n        /* \"--CODEGEN--\":12149:12152   */\n      dup4\n        /* \"--CODEGEN--\":12136:12166   */\n      calldatacopy\n        /* \"--CODEGEN--\":12215:12216   */\n      0x00\n        /* \"--CODEGEN--\":12206:12212   */\n      dup4\n        /* \"--CODEGEN--\":12201:12204   */\n      dup4\n        /* \"--CODEGEN--\":12197:12213   */\n      add\n        /* \"--CODEGEN--\":12190:12217   */\n      mstore\n        /* \"--CODEGEN--\":12129:12223   */\n      pop\n      pop\n      pop\n      jump\n        /* \"--CODEGEN--\":12232:12500   */\n    tag_170:\n        /* \"--CODEGEN--\":12297:12298   */\n      0x00\n        /* \"--CODEGEN--\":12304:12405   */\n    tag_204:\n        /* \"--CODEGEN--\":12318:12324   */\n      dup4\n        /* \"--CODEGEN--\":12315:12316   */\n      dup2\n        /* \"--CODEGEN--\":12312:12325   */\n      lt\n        /* \"--CODEGEN--\":12304:12405   */\n      iszero\n      tag_206\n      jumpi\n        /* \"--CODEGEN--\":12394:12395   */\n      dup1\n        /* \"--CODEGEN--\":12389:12392   */\n      dup3\n        /* \"--CODEGEN--\":12385:12396   */\n      add\n        /* \"--CODEGEN--\":12379:12397   */\n      mload\n        /* \"--CODEGEN--\":12375:12376   */\n      dup2\n        /* \"--CODEGEN--\":12370:12373   */\n      dup5\n        /* \"--CODEGEN--\":12366:12377   */\n      add\n        /* \"--CODEGEN--\":12359:12398   */\n      mstore\n        /* \"--CODEGEN--\":12340:12342   */\n      0x20\n        /* \"--CODEGEN--\":12337:12338   */\n      dup2\n        /* \"--CODEGEN--\":12333:12343   */\n      add\n        /* \"--CODEGEN--\":12328:12343   */\n      swap1\n      pop\n        /* \"--CODEGEN--\":12304:12405   */\n      jump(tag_204)\n    tag_206:\n        /* \"--CODEGEN--\":12420:12426   */\n      dup4\n        /* \"--CODEGEN--\":12417:12418   */\n      dup2\n        /* \"--CODEGEN--\":12414:12427   */\n      gt\n        /* \"--CODEGEN--\":12411:12413   */\n      iszero\n      tag_207\n      jumpi\n        /* \"--CODEGEN--\":12485:12486   */\n      0x00\n        /* \"--CODEGEN--\":12476:12482   */\n      dup5\n        /* \"--CODEGEN--\":12471:12474   */\n      dup5\n        /* \"--CODEGEN--\":12467:12483   */\n      add\n        /* \"--CODEGEN--\":12460:12487   */\n      mstore\n        /* \"--CODEGEN--\":12411:12413   */\n    tag_207:\n        /* \"--CODEGEN--\":12281:12500   */\n      pop\n      pop\n      pop\n      pop\n      jump\n        /* \"--CODEGEN--\":12508:12605   */\n    tag_172:\n      0x00\n        /* \"--CODEGEN--\":12596:12598   */\n      0x1f\n        /* \"--CODEGEN--\":12592:12599   */\n      not\n        /* \"--CODEGEN--\":12587:12589   */\n      0x1f\n        /* \"--CODEGEN--\":12580:12585   */\n      dup4\n        /* \"--CODEGEN--\":12576:12590   */\n      add\n        /* \"--CODEGEN--\":12572:12600   */\n      and\n        /* \"--CODEGEN--\":12562:12600   */\n      swap1\n      pop\n        /* \"--CODEGEN--\":12556:12605   */\n      swap2\n      swap1\n      pop\n      jump\n        /* \"--CODEGEN--\":12613:12730   */\n    tag_85:\n        /* \"--CODEGEN--\":12682:12706   */\n      tag_208\n        /* \"--CODEGEN--\":12700:12705   */\n      dup2\n        /* \"--CODEGEN--\":12682:12706   */\n      jump(tag_200)\n    tag_208:\n        /* \"--CODEGEN--\":12675:12680   */\n      dup2\n        /* \"--CODEGEN--\":12672:12707   */\n      eq\n        /* \"--CODEGEN--\":12662:12664   */\n      tag_209\n      jumpi\n        /* \"--CODEGEN--\":12721:12722   */\n      0x00\n        /* \"--CODEGEN--\":12718:12719   */\n      dup1\n        /* \"--CODEGEN--\":12711:12723   */\n      revert\n        /* \"--CODEGEN--\":12662:12664   */\n    tag_209:\n        /* \"--CODEGEN--\":12656:12730   */\n      pop\n      jump\n        /* \"--CODEGEN--\":12737:12854   */\n    tag_134:\n        /* \"--CODEGEN--\":12806:12830   */\n      tag_210\n        /* \"--CODEGEN--\":12824:12829   */\n      dup2\n        /* \"--CODEGEN--\":12806:12830   */\n      jump(tag_203)\n    tag_210:\n        /* \"--CODEGEN--\":12799:12804   */\n      dup2\n        /* \"--CODEGEN--\":12796:12831   */\n      eq\n        /* \"--CODEGEN--\":12786:12788   */\n      tag_211\n      jumpi\n        /* \"--CODEGEN--\":12845:12846   */\n      0x00\n        /* \"--CODEGEN--\":12842:12843   */\n      dup1\n        /* \"--CODEGEN--\":12835:12847   */\n      revert\n        /* \"--CODEGEN--\":12786:12788   */\n    tag_211:\n        /* \"--CODEGEN--\":12780:12854   */\n      pop\n      jump\n        /* \"--CODEGEN--\":12861:12976   */\n    tag_137:\n        /* \"--CODEGEN--\":12929:12952   */\n      tag_212\n        /* \"--CODEGEN--\":12946:12951   */\n      dup2\n        /* \"--CODEGEN--\":12929:12952   */\n      jump(tag_185)\n    tag_212:\n        /* \"--CODEGEN--\":12922:12927   */\n      dup2\n        /* \"--CODEGEN--\":12919:12953   */\n      eq\n        /* \"--CODEGEN--\":12909:12911   */\n      tag_213\n      jumpi\n        /* \"--CODEGEN--\":12967:12968   */\n      0x00\n        /* \"--CODEGEN--\":12964:12965   */\n      dup1\n        /* \"--CODEGEN--\":12957:12969   */\n      revert\n        /* \"--CODEGEN--\":12909:12911   */\n    tag_213:\n        /* \"--CODEGEN--\":12903:12976   */\n      pop\n      jump\n        /* \"--CODEGEN--\":12983:13096   */\n    tag_139:\n        /* \"--CODEGEN--\":13050:13072   */\n      tag_214\n        /* \"--CODEGEN--\":13066:13071   */\n      dup2\n        /* \"--CODEGEN--\":13050:13072   */\n      jump(tag_188)\n    tag_214:\n        /* \"--CODEGEN--\":13043:13048   */\n      dup2\n        /* \"--CODEGEN--\":13040:13073   */\n      eq\n        /* \"--CODEGEN--\":13030:13032   */\n      tag_215\n      jumpi\n        /* \"--CODEGEN--\":13087:13088   */\n      0x00\n        /* \"--CODEGEN--\":13084:13085   */\n      dup1\n        /* \"--CODEGEN--\":13077:13089   */\n      revert\n        /* \"--CODEGEN--\":13030:13032   */\n    tag_215:\n        /* \"--CODEGEN--\":13024:13096   */\n      pop\n      jump\n\n    auxdata: 0xa365627a7a723158208496a2e07adf237c4b2b948af42652f2b3c40346a58c1d75e6032b970a1ebda66c6578706572696d656e74616cf564736f6c63430005110040\n}\n",
				"bytecode": {
					"linkReferences": {},
					"object": "608060405234801561001057600080fd5b50610e22806100206000396000f3fe608060405234801561001057600080fd5b50600436106100885760003560e01c8063449b0ffe1161005b578063449b0ffe146100ff578063dd1b91de1461011d578063f1af653c1461014d578063f472c3861461016957610088565b80630bd7c2001461008d5780630da08fe7146100a957806311f55424146100c557806334b9eb7d146100e3575b600080fd5b6100a760048036036100a29190810190610919565b610185565b005b6100c360048036036100be9190810190610a15565b61019f565b005b6100cd610248565b6040516100da9190610b72565b60405180910390f35b6100fd60048036036100f891908101906109ae565b610262565b005b6101076102db565b6040516101149190610b50565b60405180910390f35b6101376004803603610132919081019061095a565b61037d565b6040516101449190610b8d565b60405180910390f35b6101676004803603610162919081019061086e565b6103ef565b005b610183600480360361017e9190810190610919565b6104be565b005b806002908051906020019061019b929190610553565b5050565b600060018060036000856040516101b69190610b39565b908152602001604051809103902060003373ffffffffffffffffffffffffffffffffffffffff1673ffffffffffffffffffffffffffffffffffffffff16815260200190815260200160002060009054906101000a900460ff1660ff16901c1660ff161490508061022257fe5b82600160006101000a81548163ffffffff021916908363ffffffff160217905550505050565b6000600160009054906101000a900463ffffffff16905090565b806000846040516102739190610b39565b908152602001604051809103902060008473ffffffffffffffffffffffffffffffffffffffff1673ffffffffffffffffffffffffffffffffffffffff16815260200190815260200160002060006101000a81548160ff021916908360ff160217905550505050565b606060028054600181600116156101000203166002900480601f0160208091040260200160405190810160405280929190818152602001828054600181600116156101000203166002900480156103735780601f1061034857610100808354040283529160200191610373565b820191906000526020600020905b81548152906001019060200180831161035657829003601f168201915b5050505050905090565b6000808360405161038e9190610b39565b908152602001604051809103902060008373ffffffffffffffffffffffffffffffffffffffff1673ffffffffffffffffffffffffffffffffffffffff16815260200190815260200160002060009054906101000a900460ff16905092915050565b60008090505b818110156104b75782818151811061040957fe5b6020026020010151600086838151811061041f57fe5b60200260200101516040516104349190610b22565b9081526020016040518091039020600086848151811061045057fe5b602002602001015173ffffffffffffffffffffffffffffffffffffffff1673ffffffffffffffffffffffffffffffffffffffff16815260200190815260200160002060006101000a81548160ff021916908360ff16021790555080806001019150506103f5565b5050505050565b60006001806000846040516104d39190610b39565b908152602001604051809103902060003373ffffffffffffffffffffffffffffffffffffffff1673ffffffffffffffffffffffffffffffffffffffff16815260200190815260200160002060009054906101000a900460ff161660ff161490508061053a57fe5b3373ffffffffffffffffffffffffffffffffffffffff16ff5b828054600181600116156101000203166002900490600052602060002090601f016020900481019282601f1061059457805160ff19168380011785556105c2565b828001600101855582156105c2579182015b828111156105c15782518255916020019190600101906105a6565b5b5090506105cf91906105d3565b5090565b6105f591905b808211156105f15760008160009055506001016105d9565b5090565b90565b60008135905061060781610d83565b92915050565b600082601f83011261061e57600080fd5b813561063161062c82610bd5565b610ba8565b9150818183526020840193506020810190508385602084028201111561065657600080fd5b60005b83811015610686578161066c88826105f8565b845260208401935060208301925050600181019050610659565b5050505092915050565b600082601f8301126106a157600080fd5b81356106b46106af82610bfd565b610ba8565b9150818183526020840193506020810190508360005b838110156106fa57813586016106e08882610787565b8452602084019350602083019250506001810190506106ca565b5050505092915050565b600082601f83011261071557600080fd5b813561072861072382610c25565b610ba8565b9150818183526020840193506020810190508385602084028201111561074d57600080fd5b60005b8381101561077d57816107638882610859565b845260208401935060208301925050600181019050610750565b5050505092915050565b600082601f83011261079857600080fd5b81356107ab6107a682610c4d565b610ba8565b915080825260208301602083018583830111156107c757600080fd5b6107d2838284610d30565b50505092915050565b600082601f8301126107ec57600080fd5b81356107ff6107fa82610c79565b610ba8565b9150808252602083016020830185838301111561081b57600080fd5b610826838284610d30565b50505092915050565b60008135905061083e81610d9a565b92915050565b60008135905061085381610db1565b92915050565b60008135905061086881610dc8565b92915050565b6000806000806080858703121561088457600080fd5b600085013567ffffffffffffffff81111561089e57600080fd5b6108aa87828801610690565b945050602085013567ffffffffffffffff8111156108c757600080fd5b6108d38782880161060d565b935050604085013567ffffffffffffffff8111156108f057600080fd5b6108fc87828801610704565b925050606061090d8782880161082f565b91505092959194509250565b60006020828403121561092b57600080fd5b600082013567ffffffffffffffff81111561094557600080fd5b610951848285016107db565b91505092915050565b6000806040838503121561096d57600080fd5b600083013567ffffffffffffffff81111561098757600080fd5b610993858286016107db565b92505060206109a4858286016105f8565b9150509250929050565b6000806000606084860312156109c357600080fd5b600084013567ffffffffffffffff8111156109dd57600080fd5b6109e9868287016107db565b93505060206109fa868287016105f8565b9250506040610a0b86828701610859565b9150509250925092565b60008060408385031215610a2857600080fd5b6000610a3685828601610844565b925050602083013567ffffffffffffffff811115610a5357600080fd5b610a5f858286016107db565b9150509250929050565b6000610a7482610cb0565b610a7e8185610cbb565b9350610a8e818560208601610d3f565b610a9781610d72565b840191505092915050565b6000610aad82610cb0565b610ab78185610ccc565b9350610ac7818560208601610d3f565b80840191505092915050565b6000610ade82610ca5565b610ae88185610ccc565b9350610af8818560208601610d3f565b80840191505092915050565b610b0d81610d13565b82525050565b610b1c81610d23565b82525050565b6000610b2e8284610ad3565b915081905092915050565b6000610b458284610aa2565b915081905092915050565b60006020820190508181036000830152610b6a8184610a69565b905092915050565b6000602082019050610b876000830184610b04565b92915050565b6000602082019050610ba26000830184610b13565b92915050565b6000604051905081810181811067ffffffffffffffff82111715610bcb57600080fd5b8060405250919050565b600067ffffffffffffffff821115610bec57600080fd5b602082029050602081019050919050565b600067ffffffffffffffff821115610c1457600080fd5b602082029050602081019050919050565b600067ffffffffffffffff821115610c3c57600080fd5b602082029050602081019050919050565b600067ffffffffffffffff821115610c6457600080fd5b601f19601f8301169050602081019050919050565b600067ffffffffffffffff821115610c9057600080fd5b601f19601f8301169050602081019050919050565b600081519050919050565b600081519050919050565b600082825260208201905092915050565b600081905092915050565b6000610ce282610ce9565b9050919050565b600073ffffffffffffffffffffffffffffffffffffffff82169050919050565b6000819050919050565b600063ffffffff82169050919050565b600060ff82169050919050565b82818337600083830152505050565b60005b83811015610d5d578082015181840152602081019050610d42565b83811115610d6c576000848401525b50505050565b6000601f19601f8301169050919050565b610d8c81610cd7565b8114610d9757600080fd5b50565b610da381610d09565b8114610dae57600080fd5b50565b610dba81610d13565b8114610dc557600080fd5b50565b610dd181610d23565b8114610ddc57600080fd5b5056fea365627a7a723158208496a2e07adf237c4b2b948af42652f2b3c40346a58c1d75e6032b970a1ebda66c6578706572696d656e74616cf564736f6c63430005110040",
					"opcodes": "PUSH1 0x80 PUSH1 0x40 MSTORE CALLVALUE DUP1 ISZERO PUSH2 0x10 JUMPI PUSH1 0x0 DUP1 REVERT JUMPDEST POP PUSH2 0xE22 DUP1 PUSH2 0x20 PUSH1 0x0 CODECOPY PUSH1 0x0 RETURN INVALID PUSH1 0x80 PUSH1 0x40 MSTORE CALLVALUE DUP1 ISZERO PUSH2 0x10 JUMPI PUSH1 0x0 DUP1 REVERT JUMPDEST POP PUSH1 0x4 CALLDATASIZE LT PUSH2 0x88 JUMPI PUSH1 0x0 CALLDATALOAD PUSH1 0xE0 SHR DUP1 PUSH4 0x449B0FFE GT PUSH2 0x5B JUMPI DUP1 PUSH4 0x449B0FFE EQ PUSH2 0xFF JUMPI DUP1 PUSH4 0xDD1B91DE EQ PUSH2 0x11D JUMPI DUP1 PUSH4 0xF1AF653C EQ PUSH2 0x14D JUMPI DUP1 PUSH4 0xF472C386 EQ PUSH2 0x169 JUMPI PUSH2 0x88 JUMP JUMPDEST DUP1 PUSH4 0xBD7C200 EQ PUSH2 0x8D JUMPI DUP1 PUSH4 0xDA08FE7 EQ PUSH2 0xA9 JUMPI DUP1 PUSH4 0x11F55424 EQ PUSH2 0xC5 JUMPI DUP1 PUSH4 0x34B9EB7D EQ PUSH2 0xE3 JUMPI JUMPDEST PUSH1 0x0 DUP1 REVERT JUMPDEST PUSH2 0xA7 PUSH1 0x4 DUP1 CALLDATASIZE SUB PUSH2 0xA2 SWAP2 SWAP1 DUP2 ADD SWAP1 PUSH2 0x919 JUMP JUMPDEST PUSH2 0x185 JUMP JUMPDEST STOP JUMPDEST PUSH2 0xC3 PUSH1 0x4 DUP1 CALLDATASIZE SUB PUSH2 0xBE SWAP2 SWAP1 DUP2 ADD SWAP1 PUSH2 0xA15 JUMP JUMPDEST PUSH2 0x19F JUMP JUMPDEST STOP JUMPDEST PUSH2 0xCD PUSH2 0x248 JUMP JUMPDEST PUSH1 0x40 MLOAD PUSH2 0xDA SWAP2 SWAP1 PUSH2 0xB72 JUMP JUMPDEST PUSH1 0x40 MLOAD DUP1 SWAP2 SUB SWAP1 RETURN JUMPDEST PUSH2 0xFD PUSH1 0x4 DUP1 CALLDATASIZE SUB PUSH2 0xF8 SWAP2 SWAP1 DUP2 ADD SWAP1 PUSH2 0x9AE JUMP JUMPDEST PUSH2 0x262 JUMP JUMPDEST STOP JUMPDEST PUSH2 0x107 PUSH2 0x2DB JUMP JUMPDEST PUSH1 0x40 MLOAD PUSH2 0x114 SWAP2 SWAP1 PUSH2 0xB50 JUMP JUMPDEST PUSH1 0x40 MLOAD DUP1 SWAP2 SUB SWAP1 RETURN JUMPDEST PUSH2 0x137 PUSH1 0x4 DUP1 CALLDATASIZE SUB PUSH2 0x132 SWAP2 SWAP1 DUP2 ADD SWAP1 PUSH2 0x95A JUMP JUMPDEST PUSH2 0x37D JUMP JUMPDEST PUSH1 0x40 MLOAD PUSH2 0x144 SWAP2 SWAP1 PUSH2 0xB8D JUMP JUMPDEST PUSH1 0x40 MLOAD DUP1 SWAP2 SUB SWAP1 RETURN JUMPDEST PUSH2 0x167 PUSH1 0x4 DUP1 CALLDATASIZE SUB PUSH2 0x162 SWAP2 SWAP1 DUP2 ADD SWAP1 PUSH2 0x86E JUMP JUMPDEST PUSH2 0x3EF JUMP JUMPDEST STOP JUMPDEST PUSH2 0x183 PUSH1 0x4 DUP1 CALLDATASIZE SUB PUSH2 0x17E SWAP2 SWAP1 DUP2 ADD SWAP1 PUSH2 0x919 JUMP JUMPDEST PUSH2 0x4BE JUMP JUMPDEST STOP JUMPDEST DUP1 PUSH1 0x2 SWAP1 DUP1 MLOAD SWAP1 PUSH1 0x20 ADD SWAP1 PUSH2 0x19B SWAP3 SWAP2 SWAP1 PUSH2 0x553 JUMP JUMPDEST POP POP JUMP JUMPDEST PUSH1 0x0 PUSH1 0x1 DUP1 PUSH1 0x3 PUSH1 0x0 DUP6 PUSH1 0x40 MLOAD PUSH2 0x1B6 SWAP2 SWAP1 PUSH2 0xB39 JUMP JUMPDEST SWAP1 DUP2 MSTORE PUSH1 0x20 ADD PUSH1 0x40 MLOAD DUP1 SWAP2 SUB SWAP1 KECCAK256 PUSH1 0x0 CALLER PUSH20 0xFFFFFFFFFFFFFFFFFFFFFFFFFFFFFFFFFFFFFFFF AND PUSH20 0xFFFFFFFFFFFFFFFFFFFFFFFFFFFFFFFFFFFFFFFF AND DUP2 MSTORE PUSH1 0x20 ADD SWAP1 DUP2 MSTORE PUSH1 0x20 ADD PUSH1 0x0 KECCAK256 PUSH1 0x0 SWAP1 SLOAD SWAP1 PUSH2 0x100 EXP SWAP1 DIV PUSH1 0xFF AND PUSH1 0xFF AND SWAP1 SHR AND PUSH1 0xFF AND EQ SWAP1 POP DUP1 PUSH2 0x222 JUMPI INVALID JUMPDEST DUP3 PUSH1 0x1 PUSH1 0x0 PUSH2 0x100 EXP DUP2 SLOAD DUP2 PUSH4 0xFFFFFFFF MUL NOT AND SWAP1 DUP4 PUSH4 0xFFFFFFFF AND MUL OR SWAP1 SSTORE POP POP POP POP JUMP JUMPDEST PUSH1 0x0 PUSH1 0x1 PUSH1 0x0 SWAP1 SLOAD SWAP1 PUSH2 0x100 EXP SWAP1 DIV PUSH4 0xFFFFFFFF AND SWAP1 POP SWAP1 JUMP JUMPDEST DUP1 PUSH1 0x0 DUP5 PUSH1 0x40 MLOAD PUSH2 0x273 SWAP2 SWAP1 PUSH2 0xB39 JUMP JUMPDEST SWAP1 DUP2 MSTORE PUSH1 0x20 ADD PUSH1 0x40 MLOAD DUP1 SWAP2 SUB SWAP1 KECCAK256 PUSH1 0x0 DUP5 PUSH20 0xFFFFFFFFFFFFFFFFFFFFFFFFFFFFFFFFFFFFFFFF AND PUSH20 0xFFFFFFFFFFFFFFFFFFFFFFFFFFFFFFFFFFFFFFFF AND DUP2 MSTORE PUSH1 0x20 ADD SWAP1 DUP2 MSTORE PUSH1 0x20 ADD PUSH1 0x0 KECCAK256 PUSH1 0x0 PUSH2 0x100 EXP DUP2 SLOAD DUP2 PUSH1 0xFF MUL NOT AND SWAP1 DUP4 PUSH1 0xFF AND MUL OR SWAP1 SSTORE POP POP POP POP JUMP JUMPDEST PUSH1 0x60 PUSH1 0x2 DUP1 SLOAD PUSH1 0x1 DUP2 PUSH1 0x1 AND ISZERO PUSH2 0x100 MUL SUB AND PUSH1 0x2 SWAP1 DIV DUP1 PUSH1 0x1F ADD PUSH1 0x20 DUP1 SWAP2 DIV MUL PUSH1 0x20 ADD PUSH1 0x40 MLOAD SWAP1 DUP2 ADD PUSH1 0x40 MSTORE DUP1 SWAP3 SWAP2 SWAP1 DUP2 DUP2 MSTORE PUSH1 0x20 ADD DUP3 DUP1 SLOAD PUSH1 0x1 DUP2 PUSH1 0x1 AND ISZERO PUSH2 0x100 MUL SUB AND PUSH1 0x2 SWAP1 DIV DUP1 ISZERO PUSH2 0x373 JUMPI DUP1 PUSH1 0x1F LT PUSH2 0x348 JUMPI PUSH2 0x100 DUP1 DUP4 SLOAD DIV MUL DUP4 MSTORE SWAP2 PUSH1 0x20 ADD SWAP2 PUSH2 0x373 JUMP JUMPDEST DUP3 ADD SWAP2 SWAP1 PUSH1 0x0 MSTORE PUSH1 0x20 PUSH1 0x0 KECCAK256 SWAP1 JUMPDEST DUP2 SLOAD DUP2 MSTORE SWAP1 PUSH1 0x1 ADD SWAP1 PUSH1 0x20 ADD DUP1 DUP4 GT PUSH2 0x356 JUMPI DUP3 SWAP1 SUB PUSH1 0x1F AND DUP3 ADD SWAP2 JUMPDEST POP POP POP POP POP SWAP1 POP SWAP1 JUMP JUMPDEST PUSH1 0x0 DUP1 DUP4 PUSH1 0x40 MLOAD PUSH2 0x38E SWAP2 SWAP1 PUSH2 0xB39 JUMP JUMPDEST SWAP1 DUP2 MSTORE PUSH1 0x20 ADD PUSH1 0x40 MLOAD DUP1 SWAP2 SUB SWAP1 KECCAK256 PUSH1 0x0 DUP4 PUSH20 0xFFFFFFFFFFFFFFFFFFFFFFFFFFFFFFFFFFFFFFFF AND PUSH20 0xFFFFFFFFFFFFFFFFFFFFFFFFFFFFFFFFFFFFFFFF AND DUP2 MSTORE PUSH1 0x20 ADD SWAP1 DUP2 MSTORE PUSH1 0x20 ADD PUSH1 0x0 KECCAK256 PUSH1 0x0 SWAP1 SLOAD SWAP1 PUSH2 0x100 EXP SWAP1 DIV PUSH1 0xFF AND SWAP1 POP SWAP3 SWAP2 POP POP JUMP JUMPDEST PUSH1 0x0 DUP1 SWAP1 POP JUMPDEST DUP2 DUP2 LT ISZERO PUSH2 0x4B7 JUMPI DUP3 DUP2 DUP2 MLOAD DUP2 LT PUSH2 0x409 JUMPI INVALID JUMPDEST PUSH1 0x20 MUL PUSH1 0x20 ADD ADD MLOAD PUSH1 0x0 DUP7 DUP4 DUP2 MLOAD DUP2 LT PUSH2 0x41F JUMPI INVALID JUMPDEST PUSH1 0x20 MUL PUSH1 0x20 ADD ADD MLOAD PUSH1 0x40 MLOAD PUSH2 0x434 SWAP2 SWAP1 PUSH2 0xB22 JUMP JUMPDEST SWAP1 DUP2 MSTORE PUSH1 0x20 ADD PUSH1 0x40 MLOAD DUP1 SWAP2 SUB SWAP1 KECCAK256 PUSH1 0x0 DUP7 DUP5 DUP2 MLOAD DUP2 LT PUSH2 0x450 JUMPI INVALID JUMPDEST PUSH1 0x20 MUL PUSH1 0x20 ADD ADD MLOAD PUSH20 0xFFFFFFFFFFFFFFFFFFFFFFFFFFFFFFFFFFFFFFFF AND PUSH20 0xFFFFFFFFFFFFFFFFFFFFFFFFFFFFFFFFFFFFFFFF AND DUP2 MSTORE PUSH1 0x20 ADD SWAP1 DUP2 MSTORE PUSH1 0x20 ADD PUSH1 0x0 KECCAK256 PUSH1 0x0 PUSH2 0x100 EXP DUP2 SLOAD DUP2 PUSH1 0xFF MUL NOT AND SWAP1 DUP4 PUSH1 0xFF AND MUL OR SWAP1 SSTORE POP DUP1 DUP1 PUSH1 0x1 ADD SWAP2 POP POP PUSH2 0x3F5 JUMP JUMPDEST POP POP POP POP POP JUMP JUMPDEST PUSH1 0x0 PUSH1 0x1 DUP1 PUSH1 0x0 DUP5 PUSH1 0x40 MLOAD PUSH2 0x4D3 SWAP2 SWAP1 PUSH2 0xB39 JUMP JUMPDEST SWAP1 DUP2 MSTORE PUSH1 0x20 ADD PUSH1 0x40 MLOAD DUP1 SWAP2 SUB SWAP1 KECCAK256 PUSH1 0x0 CALLER PUSH20 0xFFFFFFFFFFFFFFFFFFFFFFFFFFFFFFFFFFFFFFFF AND PUSH20 0xFFFFFFFFFFFFFFFFFFFFFFFFFFFFFFFFFFFFFFFF AND DUP2 MSTORE PUSH1 0x20 ADD SWAP1 DUP2 MSTORE PUSH1 0x20 ADD PUSH1 0x0 KECCAK256 PUSH1 0x0 SWAP1 SLOAD SWAP1 PUSH2 0x100 EXP SWAP1 DIV PUSH1 0xFF AND AND PUSH1 0xFF AND EQ SWAP1 POP DUP1 PUSH2 0x53A JUMPI INVALID JUMPDEST CALLER PUSH20 0xFFFFFFFFFFFFFFFFFFFFFFFFFFFFFFFFFFFFFFFF AND SELFDESTRUCT JUMPDEST DUP3 DUP1 SLOAD PUSH1 0x1 DUP2 PUSH1 0x1 AND ISZERO PUSH2 0x100 MUL SUB AND PUSH1 0x2 SWAP1 DIV SWAP1 PUSH1 0x0 MSTORE PUSH1 0x20 PUSH1 0x0 KECCAK256 SWAP1 PUSH1 0x1F ADD PUSH1 0x20 SWAP1 DIV DUP2 ADD SWAP3 DUP3 PUSH1 0x1F LT PUSH2 0x594 JUMPI DUP1 MLOAD PUSH1 0xFF NOT AND DUP4 DUP1 ADD OR DUP6 SSTORE PUSH2 0x5C2 JUMP JUMPDEST DUP3 DUP1 ADD PUSH1 0x1 ADD DUP6 SSTORE DUP3 ISZERO PUSH2 0x5C2 JUMPI SWAP2 DUP3 ADD JUMPDEST DUP3 DUP2 GT ISZERO PUSH2 0x5C1 JUMPI DUP3 MLOAD DUP3 SSTORE SWAP2 PUSH1 0x20 ADD SWAP2 SWAP1 PUSH1 0x1 ADD SWAP1 PUSH2 0x5A6 JUMP JUMPDEST JUMPDEST POP SWAP1 POP PUSH2 0x5CF SWAP2 SWAP1 PUSH2 0x5D3 JUMP JUMPDEST POP SWAP1 JUMP JUMPDEST PUSH2 0x5F5 SWAP2 SWAP1 JUMPDEST DUP1 DUP3 GT ISZERO PUSH2 0x5F1 JUMPI PUSH1 0x0 DUP2 PUSH1 0x0 SWAP1 SSTORE POP PUSH1 0x1 ADD PUSH2 0x5D9 JUMP JUMPDEST POP SWAP1 JUMP JUMPDEST SWAP1 JUMP JUMPDEST PUSH1 0x0 DUP2 CALLDATALOAD SWAP1 POP PUSH2 0x607 DUP2 PUSH2 0xD83 JUMP JUMPDEST SWAP3 SWAP2 POP POP JUMP JUMPDEST PUSH1 0x0 DUP3 PUSH1 0x1F DUP4 ADD SLT PUSH2 0x61E JUMPI PUSH1 0x0 DUP1 REVERT JUMPDEST DUP2 CALLDATALOAD PUSH2 0x631 PUSH2 0x62C DUP3 PUSH2 0xBD5 JUMP JUMPDEST PUSH2 0xBA8 JUMP JUMPDEST SWAP2 POP DUP2 DUP2 DUP4 MSTORE PUSH1 0x20 DUP5 ADD SWAP4 POP PUSH1 0x20 DUP2 ADD SWAP1 POP DUP4 DUP6 PUSH1 0x20 DUP5 MUL DUP3 ADD GT ISZERO PUSH2 0x656 JUMPI PUSH1 0x0 DUP1 REVERT JUMPDEST PUSH1 0x0 JUMPDEST DUP4 DUP2 LT ISZERO PUSH2 0x686 JUMPI DUP2 PUSH2 0x66C DUP9 DUP3 PUSH2 0x5F8 JUMP JUMPDEST DUP5 MSTORE PUSH1 0x20 DUP5 ADD SWAP4 POP PUSH1 0x20 DUP4 ADD SWAP3 POP POP PUSH1 0x1 DUP2 ADD SWAP1 POP PUSH2 0x659 JUMP JUMPDEST POP POP POP POP SWAP3 SWAP2 POP POP JUMP JUMPDEST PUSH1 0x0 DUP3 PUSH1 0x1F DUP4 ADD SLT PUSH2 0x6A1 JUMPI PUSH1 0x0 DUP1 REVERT JUMPDEST DUP2 CALLDATALOAD PUSH2 0x6B4 PUSH2 0x6AF DUP3 PUSH2 0xBFD JUMP JUMPDEST PUSH2 0xBA8 JUMP JUMPDEST SWAP2 POP DUP2 DUP2 DUP4 MSTORE PUSH1 0x20 DUP5 ADD SWAP4 POP PUSH1 0x20 DUP2 ADD SWAP1 POP DUP4 PUSH1 0x0 JUMPDEST DUP4 DUP2 LT ISZERO PUSH2 0x6FA JUMPI DUP2 CALLDATALOAD DUP7 ADD PUSH2 0x6E0 DUP9 DUP3 PUSH2 0x787 JUMP JUMPDEST DUP5 MSTORE PUSH1 0x20 DUP5 ADD SWAP4 POP PUSH1 0x20 DUP4 ADD SWAP3 POP POP PUSH1 0x1 DUP2 ADD SWAP1 POP PUSH2 0x6CA JUMP JUMPDEST POP POP POP POP SWAP3 SWAP2 POP POP JUMP JUMPDEST PUSH1 0x0 DUP3 PUSH1 0x1F DUP4 ADD SLT PUSH2 0x715 JUMPI PUSH1 0x0 DUP1 REVERT JUMPDEST DUP2 CALLDATALOAD PUSH2 0x728 PUSH2 0x723 DUP3 PUSH2 0xC25 JUMP JUMPDEST PUSH2 0xBA8 JUMP JUMPDEST SWAP2 POP DUP2 DUP2 DUP4 MSTORE PUSH1 0x20 DUP5 ADD SWAP4 POP PUSH1 0x20 DUP2 ADD SWAP1 POP DUP4 DUP6 PUSH1 0x20 DUP5 MUL DUP3 ADD GT ISZERO PUSH2 0x74D JUMPI PUSH1 0x0 DUP1 REVERT JUMPDEST PUSH1 0x0 JUMPDEST DUP4 DUP2 LT ISZERO PUSH2 0x77D JUMPI DUP2 PUSH2 0x763 DUP9 DUP3 PUSH2 0x859 JUMP JUMPDEST DUP5 MSTORE PUSH1 0x20 DUP5 ADD SWAP4 POP PUSH1 0x20 DUP4 ADD SWAP3 POP POP PUSH1 0x1 DUP2 ADD SWAP1 POP PUSH2 0x750 JUMP JUMPDEST POP POP POP POP SWAP3 SWAP2 POP POP JUMP JUMPDEST PUSH1 0x0 DUP3 PUSH1 0x1F DUP4 ADD SLT PUSH2 0x798 JUMPI PUSH1 0x0 DUP1 REVERT JUMPDEST DUP2 CALLDATALOAD PUSH2 0x7AB PUSH2 0x7A6 DUP3 PUSH2 0xC4D JUMP JUMPDEST PUSH2 0xBA8 JUMP JUMPDEST SWAP2 POP DUP1 DUP3 MSTORE PUSH1 0x20 DUP4 ADD PUSH1 0x20 DUP4 ADD DUP6 DUP4 DUP4 ADD GT ISZERO PUSH2 0x7C7 JUMPI PUSH1 0x0 DUP1 REVERT JUMPDEST PUSH2 0x7D2 DUP4 DUP3 DUP5 PUSH2 0xD30 JUMP JUMPDEST POP POP POP SWAP3 SWAP2 POP POP JUMP JUMPDEST PUSH1 0x0 DUP3 PUSH1 0x1F DUP4 ADD SLT PUSH2 0x7EC JUMPI PUSH1 0x0 DUP1 REVERT JUMPDEST DUP2 CALLDATALOAD PUSH2 0x7FF PUSH2 0x7FA DUP3 PUSH2 0xC79 JUMP JUMPDEST PUSH2 0xBA8 JUMP JUMPDEST SWAP2 POP DUP1 DUP3 MSTORE PUSH1 0x20 DUP4 ADD PUSH1 0x20 DUP4 ADD DUP6 DUP4 DUP4 ADD GT ISZERO PUSH2 0x81B JUMPI PUSH1 0x0 DUP1 REVERT JUMPDEST PUSH2 0x826 DUP4 DUP3 DUP5 PUSH2 0xD30 JUMP JUMPDEST POP POP POP SWAP3 SWAP2 POP POP JUMP JUMPDEST PUSH1 0x0 DUP2 CALLDATALOAD SWAP1 POP PUSH2 0x83E DUP2 PUSH2 0xD9A JUMP JUMPDEST SWAP3 SWAP2 POP POP JUMP JUMPDEST PUSH1 0x0 DUP2 CALLDATALOAD SWAP1 POP PUSH2 0x853 DUP2 PUSH2 0xDB1 JUMP JUMPDEST SWAP3 SWAP2 POP POP JUMP JUMPDEST PUSH1 0x0 DUP2 CALLDATALOAD SWAP1 POP PUSH2 0x868 DUP2 PUSH2 0xDC8 JUMP JUMPDEST SWAP3 SWAP2 POP POP JUMP JUMPDEST PUSH1 0x0 DUP1 PUSH1 0x0 DUP1 PUSH1 0x80 DUP6 DUP8 SUB SLT ISZERO PUSH2 0x884 JUMPI PUSH1 0x0 DUP1 REVERT JUMPDEST PUSH1 0x0 DUP6 ADD CALLDATALOAD PUSH8 0xFFFFFFFFFFFFFFFF DUP2 GT ISZERO PUSH2 0x89E JUMPI PUSH1 0x0 DUP1 REVERT JUMPDEST PUSH2 0x8AA DUP8 DUP3 DUP9 ADD PUSH2 0x690 JUMP JUMPDEST SWAP5 POP POP PUSH1 0x20 DUP6 ADD CALLDATALOAD PUSH8 0xFFFFFFFFFFFFFFFF DUP2 GT ISZERO PUSH2 0x8C7 JUMPI PUSH1 0x0 DUP1 REVERT JUMPDEST PUSH2 0x8D3 DUP8 DUP3 DUP9 ADD PUSH2 0x60D JUMP JUMPDEST SWAP4 POP POP PUSH1 0x40 DUP6 ADD CALLDATALOAD PUSH8 0xFFFFFFFFFFFFFFFF DUP2 GT ISZERO PUSH2 0x8F0 JUMPI PUSH1 0x0 DUP1 REVERT JUMPDEST PUSH2 0x8FC DUP8 DUP3 DUP9 ADD PUSH2 0x704 JUMP JUMPDEST SWAP3 POP POP PUSH1 0x60 PUSH2 0x90D DUP8 DUP3 DUP9 ADD PUSH2 0x82F JUMP JUMPDEST SWAP2 POP POP SWAP3 SWAP6 SWAP2 SWAP5 POP SWAP3 POP JUMP JUMPDEST PUSH1 0x0 PUSH1 0x20 DUP3 DUP5 SUB SLT ISZERO PUSH2 0x92B JUMPI PUSH1 0x0 DUP1 REVERT JUMPDEST PUSH1 0x0 DUP3 ADD CALLDATALOAD PUSH8 0xFFFFFFFFFFFFFFFF DUP2 GT ISZERO PUSH2 0x945 JUMPI PUSH1 0x0 DUP1 REVERT JUMPDEST PUSH2 0x951 DUP5 DUP3 DUP6 ADD PUSH2 0x7DB JUMP JUMPDEST SWAP2 POP POP SWAP3 SWAP2 POP POP JUMP JUMPDEST PUSH1 0x0 DUP1 PUSH1 0x40 DUP4 DUP6 SUB SLT ISZERO PUSH2 0x96D JUMPI PUSH1 0x0 DUP1 REVERT JUMPDEST PUSH1 0x0 DUP4 ADD CALLDATALOAD PUSH8 0xFFFFFFFFFFFFFFFF DUP2 GT ISZERO PUSH2 0x987 JUMPI PUSH1 0x0 DUP1 REVERT JUMPDEST PUSH2 0x993 DUP6 DUP3 DUP7 ADD PUSH2 0x7DB JUMP JUMPDEST SWAP3 POP POP PUSH1 0x20 PUSH2 0x9A4 DUP6 DUP3 DUP7 ADD PUSH2 0x5F8 JUMP JUMPDEST SWAP2 POP POP SWAP3 POP SWAP3 SWAP1 POP JUMP JUMPDEST PUSH1 0x0 DUP1 PUSH1 0x0 PUSH1 0x60 DUP5 DUP7 SUB SLT ISZERO PUSH2 0x9C3 JUMPI PUSH1 0x0 DUP1 REVERT JUMPDEST PUSH1 0x0 DUP5 ADD CALLDATALOAD PUSH8 0xFFFFFFFFFFFFFFFF DUP2 GT ISZERO PUSH2 0x9DD JUMPI PUSH1 0x0 DUP1 REVERT JUMPDEST PUSH2 0x9E9 DUP7 DUP3 DUP8 ADD PUSH2 0x7DB JUMP JUMPDEST SWAP4 POP POP PUSH1 0x20 PUSH2 0x9FA DUP7 DUP3 DUP8 ADD PUSH2 0x5F8 JUMP JUMPDEST SWAP3 POP POP PUSH1 0x40 PUSH2 0xA0B DUP7 DUP3 DUP8 ADD PUSH2 0x859 JUMP JUMPDEST SWAP2 POP POP SWAP3 POP SWAP3 POP SWAP3 JUMP JUMPDEST PUSH1 0x0 DUP1 PUSH1 0x40 DUP4 DUP6 SUB SLT ISZERO PUSH2 0xA28 JUMPI PUSH1 0x0 DUP1 REVERT JUMPDEST PUSH1 0x0 PUSH2 0xA36 DUP6 DUP3 DUP7 ADD PUSH2 0x844 JUMP JUMPDEST SWAP3 POP POP PUSH1 0x20 DUP4 ADD CALLDATALOAD PUSH8 0xFFFFFFFFFFFFFFFF DUP2 GT ISZERO PUSH2 0xA53 JUMPI PUSH1 0x0 DUP1 REVERT JUMPDEST PUSH2 0xA5F DUP6 DUP3 DUP7 ADD PUSH2 0x7DB JUMP JUMPDEST SWAP2 POP POP SWAP3 POP SWAP3 SWAP1 POP JUMP JUMPDEST PUSH1 0x0 PUSH2 0xA74 DUP3 PUSH2 0xCB0 JUMP JUMPDEST PUSH2 0xA7E DUP2 DUP6 PUSH2 0xCBB JUMP JUMPDEST SWAP4 POP PUSH2 0xA8E DUP2 DUP6 PUSH1 0x20 DUP7 ADD PUSH2 0xD3F JUMP JUMPDEST PUSH2 0xA97 DUP2 PUSH2 0xD72 JUMP JUMPDEST DUP5 ADD SWAP2 POP POP SWAP3 SWAP2 POP POP JUMP JUMPDEST PUSH1 0x0 PUSH2 0xAAD DUP3 PUSH2 0xCB0 JUMP JUMPDEST PUSH2 0xAB7 DUP2 DUP6 PUSH2 0xCCC JUMP JUMPDEST SWAP4 POP PUSH2 0xAC7 DUP2 DUP6 PUSH1 0x20 DUP7 ADD PUSH2 0xD3F JUMP JUMPDEST DUP1 DUP5 ADD SWAP2 POP POP SWAP3 SWAP2 POP POP JUMP JUMPDEST PUSH1 0x0 PUSH2 0xADE DUP3 PUSH2 0xCA5 JUMP JUMPDEST PUSH2 0xAE8 DUP2 DUP6 PUSH2 0xCCC JUMP JUMPDEST SWAP4 POP PUSH2 0xAF8 DUP2 DUP6 PUSH1 0x20 DUP7 ADD PUSH2 0xD3F JUMP JUMPDEST DUP1 DUP5 ADD SWAP2 POP POP SWAP3 SWAP2 POP POP JUMP JUMPDEST PUSH2 0xB0D DUP2 PUSH2 0xD13 JUMP JUMPDEST DUP3 MSTORE POP POP JUMP JUMPDEST PUSH2 0xB1C DUP2 PUSH2 0xD23 JUMP JUMPDEST DUP3 MSTORE POP POP JUMP JUMPDEST PUSH1 0x0 PUSH2 0xB2E DUP3 DUP5 PUSH2 0xAD3 JUMP JUMPDEST SWAP2 POP DUP2 SWAP1 POP SWAP3 SWAP2 POP POP JUMP JUMPDEST PUSH1 0x0 PUSH2 0xB45 DUP3 DUP5 PUSH2 0xAA2 JUMP JUMPDEST SWAP2 POP DUP2 SWAP1 POP SWAP3 SWAP2 POP POP JUMP JUMPDEST PUSH1 0x0 PUSH1 0x20 DUP3 ADD SWAP1 POP DUP2 DUP2 SUB PUSH1 0x0 DUP4 ADD MSTORE PUSH2 0xB6A DUP2 DUP5 PUSH2 0xA69 JUMP JUMPDEST SWAP1 POP SWAP3 SWAP2 POP POP JUMP JUMPDEST PUSH1 0x0 PUSH1 0x20 DUP3 ADD SWAP1 POP PUSH2 0xB87 PUSH1 0x0 DUP4 ADD DUP5 PUSH2 0xB04 JUMP JUMPDEST SWAP3 SWAP2 POP POP JUMP JUMPDEST PUSH1 0x0 PUSH1 0x20 DUP3 ADD SWAP1 POP PUSH2 0xBA2 PUSH1 0x0 DUP4 ADD DUP5 PUSH2 0xB13 JUMP JUMPDEST SWAP3 SWAP2 POP POP JUMP JUMPDEST PUSH1 0x0 PUSH1 0x40 MLOAD SWAP1 POP DUP2 DUP2 ADD DUP2 DUP2 LT PUSH8 0xFFFFFFFFFFFFFFFF DUP3 GT OR ISZERO PUSH2 0xBCB JUMPI PUSH1 0x0 DUP1 REVERT JUMPDEST DUP1 PUSH1 0x40 MSTORE POP SWAP2 SWAP1 POP JUMP JUMPDEST PUSH1 0x0 PUSH8 0xFFFFFFFFFFFFFFFF DUP3 GT ISZERO PUSH2 0xBEC JUMPI PUSH1 0x0 DUP1 REVERT JUMPDEST PUSH1 0x20 DUP3 MUL SWAP1 POP PUSH1 0x20 DUP2 ADD SWAP1 POP SWAP2 SWAP1 POP JUMP JUMPDEST PUSH1 0x0 PUSH8 0xFFFFFFFFFFFFFFFF DUP3 GT ISZERO PUSH2 0xC14 JUMPI PUSH1 0x0 DUP1 REVERT JUMPDEST PUSH1 0x20 DUP3 MUL SWAP1 POP PUSH1 0x20 DUP2 ADD SWAP1 POP SWAP2 SWAP1 POP JUMP JUMPDEST PUSH1 0x0 PUSH8 0xFFFFFFFFFFFFFFFF DUP3 GT ISZERO PUSH2 0xC3C JUMPI PUSH1 0x0 DUP1 REVERT JUMPDEST PUSH1 0x20 DUP3 MUL SWAP1 POP PUSH1 0x20 DUP2 ADD SWAP1 POP SWAP2 SWAP1 POP JUMP JUMPDEST PUSH1 0x0 PUSH8 0xFFFFFFFFFFFFFFFF DUP3 GT ISZERO PUSH2 0xC64 JUMPI PUSH1 0x0 DUP1 REVERT JUMPDEST PUSH1 0x1F NOT PUSH1 0x1F DUP4 ADD AND SWAP1 POP PUSH1 0x20 DUP2 ADD SWAP1 POP SWAP2 SWAP1 POP JUMP JUMPDEST PUSH1 0x0 PUSH8 0xFFFFFFFFFFFFFFFF DUP3 GT ISZERO PUSH2 0xC90 JUMPI PUSH1 0x0 DUP1 REVERT JUMPDEST PUSH1 0x1F NOT PUSH1 0x1F DUP4 ADD AND SWAP1 POP PUSH1 0x20 DUP2 ADD SWAP1 POP SWAP2 SWAP1 POP JUMP JUMPDEST PUSH1 0x0 DUP2 MLOAD SWAP1 POP SWAP2 SWAP1 POP JUMP JUMPDEST PUSH1 0x0 DUP2 MLOAD SWAP1 POP SWAP2 SWAP1 POP JUMP JUMPDEST PUSH1 0x0 DUP3 DUP3 MSTORE PUSH1 0x20 DUP3 ADD SWAP1 POP SWAP3 SWAP2 POP POP JUMP JUMPDEST PUSH1 0x0 DUP2 SWAP1 POP SWAP3 SWAP2 POP POP JUMP JUMPDEST PUSH1 0x0 PUSH2 0xCE2 DUP3 PUSH2 0xCE9 JUMP JUMPDEST SWAP1 POP SWAP2 SWAP1 POP JUMP JUMPDEST PUSH1 0x0 PUSH20 0xFFFFFFFFFFFFFFFFFFFFFFFFFFFFFFFFFFFFFFFF DUP3 AND SWAP1 POP SWAP2 SWAP1 POP JUMP JUMPDEST PUSH1 0x0 DUP2 SWAP1 POP SWAP2 SWAP1 POP JUMP JUMPDEST PUSH1 0x0 PUSH4 0xFFFFFFFF DUP3 AND SWAP1 POP SWAP2 SWAP1 POP JUMP JUMPDEST PUSH1 0x0 PUSH1 0xFF DUP3 AND SWAP1 POP SWAP2 SWAP1 POP JUMP JUMPDEST DUP3 DUP2 DUP4 CALLDATACOPY PUSH1 0x0 DUP4 DUP4 ADD MSTORE POP POP POP JUMP JUMPDEST PUSH1 0x0 JUMPDEST DUP4 DUP2 LT ISZERO PUSH2 0xD5D JUMPI DUP1 DUP3 ADD MLOAD DUP2 DUP5 ADD MSTORE PUSH1 0x20 DUP2 ADD SWAP1 POP PUSH2 0xD42 JUMP JUMPDEST DUP4 DUP2 GT ISZERO PUSH2 0xD6C JUMPI PUSH1 0x0 DUP5 DUP5 ADD MSTORE JUMPDEST POP POP POP POP JUMP JUMPDEST PUSH1 0x0 PUSH1 0x1F NOT PUSH1 0x1F DUP4 ADD AND SWAP1 POP SWAP2 SWAP1 POP JUMP JUMPDEST PUSH2 0xD8C DUP2 PUSH2 0xCD7 JUMP JUMPDEST DUP2 EQ PUSH2 0xD97 JUMPI PUSH1 0x0 DUP1 REVERT JUMPDEST POP JUMP JUMPDEST PUSH2 0xDA3 DUP2 PUSH2 0xD09 JUMP JUMPDEST DUP2 EQ PUSH2 0xDAE JUMPI PUSH1 0x0 DUP1 REVERT JUMPDEST POP JUMP JUMPDEST PUSH2 0xDBA DUP2 PUSH2 0xD13 JUMP JUMPDEST DUP2 EQ PUSH2 0xDC5 JUMPI PUSH1 0x0 DUP1 REVERT JUMPDEST POP JUMP JUMPDEST PUSH2 0xDD1 DUP2 PUSH2 0xD23 JUMP JUMPDEST DUP2 EQ PUSH2 0xDDC JUMPI PUSH1 0x0 DUP1 REVERT JUMPDEST POP JUMP INVALID LOG3 PUSH6 0x627A7A723158 KECCAK256 DUP5 SWAP7 LOG2 0xE0 PUSH27 0xDF237C4B2B948AF42652F2B3C40346A58C1D75E6032B970A1EBDA6 PUSH13 0x6578706572696D656E74616CF5 PUSH5 0x736F6C6343 STOP SDIV GT STOP BLOCKHASH "
				},
				"gasEstimates": {
					"creation": {
						"codeDepositCost": "723600",
						"executionCost": "760",
						"totalCost": "724360"
					},
					"external": {
						"deleteVariable(string)": "infinite",
						"getAccess(string,address)": "infinite",
						"getVariableName()": "infinite",
						"getVariableValue()": "1224",
						"setVariableName(string)": "infinite",
						"updateMatrix(string,address,uint8)": "infinite",
						"updateMultipleMatrix(string[],address[],uint8[],uint256)": "infinite",
						"updateValue(uint32,string)": "infinite"
					}
				},
				"methodIdentifiers": {
					"deleteVariable(string)": "f472c386",
					"getAccess(string,address)": "dd1b91de",
					"getVariableName()": "449b0ffe",
					"getVariableValue()": "11f55424",
					"setVariableName(string)": "0bd7c200",
					"updateMatrix(string,address,uint8)": "34b9eb7d",
					"updateMultipleMatrix(string[],address[],uint8[],uint256)": "f1af653c",
					"updateValue(uint32,string)": "0da08fe7"
				}
			},
			"storageLayout": {
				"storage": [
					{
						"astId": 8,
						"contract": "Access_Matrix.sol:Access_matrix",
						"label": "matrix",
						"offset": 0,
						"slot": "0",
						"type": "t_mapping(t_string_memory,t_mapping(t_address,t_uint8))"
					},
					{
						"astId": 10,
						"contract": "Access_Matrix.sol:Access_matrix",
						"label": "variable",
						"offset": 0,
						"slot": "1",
						"type": "t_uint32"
					},
					{
						"astId": 12,
						"contract": "Access_Matrix.sol:Access_matrix",
						"label": "name",
						"offset": 0,
						"slot": "2",
						"type": "t_string_storage"
					}
				],
				"types": {
					"t_address": {
						"encoding": "inplace",
						"label": "address",
						"numberOfBytes": "20"
					},
					"t_mapping(t_address,t_uint8)": {
						"encoding": "mapping",
						"key": "t_address",
						"label": "mapping(address => uint8)",
						"numberOfBytes": "32",
						"value": "t_uint8"
					},
					"t_mapping(t_string_memory,t_mapping(t_address,t_uint8))": {
						"encoding": "mapping",
						"key": "t_string_memory",
						"label": "mapping(string => mapping(address => uint8))",
						"numberOfBytes": "32",
						"value": "t_mapping(t_address,t_uint8)"
					},
					"t_string_memory": {
						"encoding": "bytes",
						"label": "string",
						"numberOfBytes": "32"
					},
					"t_string_storage": {
						"encoding": "bytes",
						"label": "string",
						"numberOfBytes": "32"
					},
					"t_uint32": {
						"encoding": "inplace",
						"label": "uint32",
						"numberOfBytes": "4"
					},
					"t_uint8": {
						"encoding": "inplace",
						"label": "uint8",
						"numberOfBytes": "1"
					}
				}
			},
			"userdoc": {
				"methods": {}
			}
		}
	}
}