{
	"Access_Matrix.sol": {
		"Access_matrix": {
			"abi": [
				{
					"constant": false,
					"inputs": [
						{
							"internalType": "string",
							"name": "_hash",
							"type": "string"
						},
						{
							"internalType": "uint256",
							"name": "index",
							"type": "uint256"
						},
						{
							"internalType": "string",
							"name": "_activity",
							"type": "string"
						}
					],
					"name": "deleteVariable",
					"outputs": [],
					"payable": false,
					"stateMutability": "nonpayable",
					"type": "function"
				},
				{
					"constant": true,
					"inputs": [
						{
							"internalType": "string",
							"name": "_hash",
							"type": "string"
						},
						{
							"internalType": "uint256",
							"name": "index",
							"type": "uint256"
						},
						{
							"internalType": "string",
							"name": "_activity",
							"type": "string"
						},
						{
							"internalType": "address",
							"name": "_role",
							"type": "address"
						}
					],
					"name": "getAccess",
					"outputs": [
						{
							"internalType": "uint8",
							"name": "_access",
							"type": "uint8"
						}
					],
					"payable": false,
					"stateMutability": "view",
					"type": "function"
				},
				{
					"constant": true,
					"inputs": [
						{
							"internalType": "string",
							"name": "_hash",
							"type": "string"
						},
						{
							"internalType": "uint256",
							"name": "index",
							"type": "uint256"
						}
					],
					"name": "getActivites",
					"outputs": [
						{
							"internalType": "string[]",
							"name": "",
							"type": "string[]"
						}
					],
					"payable": false,
					"stateMutability": "view",
					"type": "function"
				},
				{
					"constant": true,
					"inputs": [
						{
							"internalType": "string",
							"name": "_hash",
							"type": "string"
						}
					],
					"name": "getAllVariables",
					"outputs": [
						{
							"internalType": "string[]",
							"name": "",
							"type": "string[]"
						},
						{
							"internalType": "uint32[]",
							"name": "",
							"type": "uint32[]"
						}
					],
					"payable": false,
					"stateMutability": "view",
					"type": "function"
				},
				{
					"constant": true,
					"inputs": [
						{
							"internalType": "string",
							"name": "_hash",
							"type": "string"
						},
						{
							"internalType": "uint256",
							"name": "index",
							"type": "uint256"
						}
					],
					"name": "getRoles",
					"outputs": [
						{
							"internalType": "address[]",
							"name": "",
							"type": "address[]"
						}
					],
					"payable": false,
					"stateMutability": "view",
					"type": "function"
				},
				{
					"constant": true,
					"inputs": [
						{
							"internalType": "string",
							"name": "_hash",
							"type": "string"
						},
						{
							"internalType": "uint256",
							"name": "index",
							"type": "uint256"
						}
					],
					"name": "getVariableName",
					"outputs": [
						{
							"internalType": "string",
							"name": "_varName",
							"type": "string"
						}
					],
					"payable": false,
					"stateMutability": "view",
					"type": "function"
				},
				{
					"constant": true,
					"inputs": [
						{
							"internalType": "string",
							"name": "_hash",
							"type": "string"
						},
						{
							"internalType": "uint256",
							"name": "index",
							"type": "uint256"
						}
					],
					"name": "getVariableValue",
					"outputs": [
						{
							"internalType": "uint32",
							"name": "_var",
							"type": "uint32"
						}
					],
					"payable": false,
					"stateMutability": "view",
					"type": "function"
				},
				{
					"constant": false,
					"inputs": [
						{
							"internalType": "string",
							"name": "_hash",
							"type": "string"
						},
						{
							"internalType": "uint256",
							"name": "index",
							"type": "uint256"
						},
						{
							"internalType": "string",
							"name": "_newName",
							"type": "string"
						}
					],
					"name": "setVariableName",
					"outputs": [],
					"payable": false,
					"stateMutability": "nonpayable",
					"type": "function"
				},
				{
					"constant": false,
					"inputs": [
						{
							"internalType": "string",
							"name": "_hash",
							"type": "string"
						},
						{
							"internalType": "uint256",
							"name": "index",
							"type": "uint256"
						},
						{
							"internalType": "string",
							"name": "_activity",
							"type": "string"
						},
						{
							"internalType": "address",
							"name": "_role",
							"type": "address"
						},
						{
							"internalType": "uint8",
							"name": "_val",
							"type": "uint8"
						}
					],
					"name": "updateMatrix",
					"outputs": [],
					"payable": false,
					"stateMutability": "nonpayable",
					"type": "function"
				},
				{
					"constant": false,
					"inputs": [
						{
							"internalType": "string",
							"name": "_hash",
							"type": "string"
						},
						{
							"internalType": "uint256",
							"name": "index",
							"type": "uint256"
						},
						{
							"internalType": "uint32",
							"name": "_variable_value",
							"type": "uint32"
						},
						{
							"internalType": "string",
							"name": "_activity",
							"type": "string"
						}
					],
					"name": "updateValue",
					"outputs": [],
					"payable": false,
					"stateMutability": "nonpayable",
					"type": "function"
				},
				{
					"constant": false,
					"inputs": [
						{
							"internalType": "string",
							"name": "_hash",
							"type": "string"
						},
						{
							"internalType": "string",
							"name": "_newName",
							"type": "string"
						},
						{
							"internalType": "string[]",
							"name": "_activities",
							"type": "string[]"
						},
						{
							"internalType": "address[]",
							"name": "_roles",
							"type": "address[]"
						},
						{
							"internalType": "uint8[]",
							"name": "_vals",
							"type": "uint8[]"
						},
						{
							"internalType": "uint256",
							"name": "nbOfElements",
							"type": "uint256"
						}
					],
					"name": "uploadMatrix",
					"outputs": [],
					"payable": false,
					"stateMutability": "nonpayable",
					"type": "function"
				}
			],
			"devdoc": {
				"methods": {
					"deleteVariable(string,uint256,string)": {
						"details": "deletes the contract if the caller has the authorization (first bit starting from right).",
						"params": {
							"_activity": "that want to have access"
						}
					},
					"getVariableValue(string,uint256)": {
						"details": "Get the variable value",
						"return": "_var the variable value "
					},
					"updateMatrix(string,uint256,string,address,uint8)": {
						"details": "Update an entry of the access matrix",
						"params": {
							"_activity": "is the name of the activity ",
							"_role": "is the role",
							"_val": "is a 4 bit int that allows to find if a certain matrix entry has access or not to a vraiable (read,write,create,delete) are the four bits."
						}
					},
					"updateValue(string,uint256,uint32,string)": {
						"details": "Update the variable value if the caller has access",
						"params": {
							"_activity": "name of the activity that want to update the variable value",
							"_variable_value": "new variable value "
						}
					}
				}
			},
			"evm": {
				"assembly": "    /* \"Access_Matrix.sol\":94:3839  contract Access_matrix {... */\n  mstore(0x40, 0x80)\n  callvalue\n    /* \"--CODEGEN--\":8:17   */\n  dup1\n    /* \"--CODEGEN--\":5:7   */\n  iszero\n  tag_1\n  jumpi\n    /* \"--CODEGEN--\":30:31   */\n  0x00\n    /* \"--CODEGEN--\":27:28   */\n  dup1\n    /* \"--CODEGEN--\":20:32   */\n  revert\n    /* \"--CODEGEN--\":5:7   */\ntag_1:\n    /* \"Access_Matrix.sol\":94:3839  contract Access_matrix {... */\n  pop\n  dataSize(sub_0)\n  dup1\n  dataOffset(sub_0)\n  0x00\n  codecopy\n  0x00\n  return\nstop\n\nsub_0: assembly {\n        /* \"Access_Matrix.sol\":94:3839  contract Access_matrix {... */\n      mstore(0x40, 0x80)\n      callvalue\n        /* \"--CODEGEN--\":8:17   */\n      dup1\n        /* \"--CODEGEN--\":5:7   */\n      iszero\n      tag_1\n      jumpi\n        /* \"--CODEGEN--\":30:31   */\n      0x00\n        /* \"--CODEGEN--\":27:28   */\n      dup1\n        /* \"--CODEGEN--\":20:32   */\n      revert\n        /* \"--CODEGEN--\":5:7   */\n    tag_1:\n        /* \"Access_Matrix.sol\":94:3839  contract Access_matrix {... */\n      pop\n      jumpi(tag_2, lt(calldatasize, 0x04))\n      shr(0xe0, calldataload(0x00))\n      dup1\n      0x73b029c3\n      gt\n      tag_14\n      jumpi\n      dup1\n      0x73b029c3\n      eq\n      tag_8\n      jumpi\n      dup1\n      0x89069ea7\n      eq\n      tag_9\n      jumpi\n      dup1\n      0x93614356\n      eq\n      tag_10\n      jumpi\n      dup1\n      0xaa86c8fc\n      eq\n      tag_11\n      jumpi\n      dup1\n      0xbd289582\n      eq\n      tag_12\n      jumpi\n      dup1\n      0xfe7f2692\n      eq\n      tag_13\n      jumpi\n      jump(tag_2)\n    tag_14:\n      dup1\n      0x0b3e9bfc\n      eq\n      tag_3\n      jumpi\n      dup1\n      0x252e7bed\n      eq\n      tag_4\n      jumpi\n      dup1\n      0x612fa967\n      eq\n      tag_5\n      jumpi\n      dup1\n      0x61650af7\n      eq\n      tag_6\n      jumpi\n      dup1\n      0x6725f913\n      eq\n      tag_7\n      jumpi\n    tag_2:\n      0x00\n      dup1\n      revert\n        /* \"Access_Matrix.sol\":1920:2220  function updateValue(string memory _hash, uint index, uint32 _variable_value, string memory _activity) public {... */\n    tag_3:\n      tag_15\n      0x04\n      dup1\n      calldatasize\n      sub\n      tag_16\n      swap2\n      swap1\n      dup2\n      add\n      swap1\n      jump(tag_17)\n    tag_16:\n      tag_18\n      jump\t// in\n    tag_15:\n      stop\n        /* \"Access_Matrix.sol\":3587:3837  function deleteVariable(string memory _hash, uint index, string memory _activity) public {... */\n    tag_4:\n      tag_19\n      0x04\n      dup1\n      calldatasize\n      sub\n      tag_20\n      swap2\n      swap1\n      dup2\n      add\n      swap1\n      jump(tag_21)\n    tag_20:\n      tag_22\n      jump\t// in\n    tag_19:\n      stop\n        /* \"Access_Matrix.sol\":851:994  function setVariableName(string memory _hash, uint index, string memory _newName) public {... */\n    tag_5:\n      tag_23\n      0x04\n      dup1\n      calldatasize\n      sub\n      tag_24\n      swap2\n      swap1\n      dup2\n      add\n      swap1\n      jump(tag_21)\n    tag_24:\n      tag_25\n      jump\t// in\n    tag_23:\n      stop\n        /* \"Access_Matrix.sol\":661:845  function updateMatrix(string memory _hash, uint index, string memory _activity, address _role, uint8 _val) public {... */\n    tag_6:\n      tag_26\n      0x04\n      dup1\n      calldatasize\n      sub\n      tag_27\n      swap2\n      swap1\n      dup2\n      add\n      swap1\n      jump(tag_28)\n    tag_27:\n      tag_29\n      jump\t// in\n    tag_26:\n      stop\n        /* \"Access_Matrix.sol\":2893:3046  function getActivites(string memory _hash, uint index) public view returns (string[] memory) {... */\n    tag_7:\n      tag_30\n      0x04\n      dup1\n      calldatasize\n      sub\n      tag_31\n      swap2\n      swap1\n      dup2\n      add\n      swap1\n      jump(tag_32)\n    tag_31:\n      tag_33\n      jump\t// in\n    tag_30:\n      mload(0x40)\n      tag_34\n      swap2\n      swap1\n      jump(tag_35)\n    tag_34:\n      mload(0x40)\n      dup1\n      swap2\n      sub\n      swap1\n      return\n        /* \"Access_Matrix.sol\":3052:3197  function getRoles(string memory _hash, uint index) public view returns (address[] memory) {... */\n    tag_8:\n      tag_36\n      0x04\n      dup1\n      calldatasize\n      sub\n      tag_37\n      swap2\n      swap1\n      dup2\n      add\n      swap1\n      jump(tag_32)\n    tag_37:\n      tag_38\n      jump\t// in\n    tag_36:\n      mload(0x40)\n      tag_39\n      swap2\n      swap1\n      jump(tag_40)\n    tag_39:\n      mload(0x40)\n      dup1\n      swap2\n      sub\n      swap1\n      return\n        /* \"Access_Matrix.sol\":2463:2887  function getAllVariables(string memory _hash) public view returns (string[] memory,  uint32[] memory){... */\n    tag_9:\n      tag_41\n      0x04\n      dup1\n      calldatasize\n      sub\n      tag_42\n      swap2\n      swap1\n      dup2\n      add\n      swap1\n      jump(tag_43)\n    tag_42:\n      tag_44\n      jump\t// in\n    tag_41:\n      mload(0x40)\n      tag_45\n      swap3\n      swap2\n      swap1\n      jump(tag_46)\n    tag_45:\n      mload(0x40)\n      dup1\n      swap2\n      sub\n      swap1\n      return\n        /* \"Access_Matrix.sol\":2312:2457  function getVariableValue(string memory _hash, uint index) public view returns (uint32 _var){... */\n    tag_10:\n      tag_47\n      0x04\n      dup1\n      calldatasize\n      sub\n      tag_48\n      swap2\n      swap1\n      dup2\n      add\n      swap1\n      jump(tag_32)\n    tag_48:\n      tag_49\n      jump\t// in\n    tag_47:\n      mload(0x40)\n      tag_50\n      swap2\n      swap1\n      jump(tag_51)\n    tag_50:\n      mload(0x40)\n      dup1\n      swap2\n      sub\n      swap1\n      return\n        /* \"Access_Matrix.sol\":3203:3402  function getAccess(string memory _hash, uint index, string memory _activity, address _role) public view returns (uint8 _access) {... */\n    tag_11:\n      tag_52\n      0x04\n      dup1\n      calldatasize\n      sub\n      tag_53\n      swap2\n      swap1\n      dup2\n      add\n      swap1\n      jump(tag_54)\n    tag_53:\n      tag_55\n      jump\t// in\n    tag_52:\n      mload(0x40)\n      tag_56\n      swap2\n      swap1\n      jump(tag_57)\n    tag_56:\n      mload(0x40)\n      dup1\n      swap2\n      sub\n      swap1\n      return\n        /* \"Access_Matrix.sol\":1159:1688  function uploadMatrix(string memory _hash, string memory _newName, string[] memory _activities, address[] memory _roles, uint8[] memory _vals, uint nbOfElements) public {... */\n    tag_12:\n      tag_58\n      0x04\n      dup1\n      calldatasize\n      sub\n      tag_59\n      swap2\n      swap1\n      dup2\n      add\n      swap1\n      jump(tag_60)\n    tag_59:\n      tag_61\n      jump\t// in\n    tag_58:\n      stop\n        /* \"Access_Matrix.sol\":1000:1153  function getVariableName(string memory _hash, uint index) public view returns (string memory _varName) {... */\n    tag_13:\n      tag_62\n      0x04\n      dup1\n      calldatasize\n      sub\n      tag_63\n      swap2\n      swap1\n      dup2\n      add\n      swap1\n      jump(tag_32)\n    tag_63:\n      tag_64\n      jump\t// in\n    tag_62:\n      mload(0x40)\n      tag_65\n      swap2\n      swap1\n      jump(tag_66)\n    tag_65:\n      mload(0x40)\n      dup1\n      swap2\n      sub\n      swap1\n      return\n        /* \"Access_Matrix.sol\":1920:2220  function updateValue(string memory _hash, uint index, uint32 _variable_value, string memory _activity) public {... */\n    tag_18:\n        /* \"Access_Matrix.sol\":2040:2055  bool has_access */\n      0x00\n        /* \"Access_Matrix.sol\":2127:2128  1 */\n      0x01\n        /* \"Access_Matrix.sol\":2122:2123  1 */\n      dup1\n        /* \"Access_Matrix.sol\":2116:2117  2 */\n      0x02\n        /* \"Access_Matrix.sol\":2059:2068  variables */\n      0x00\n        /* \"Access_Matrix.sol\":2069:2074  _hash */\n      dup9\n        /* \"Access_Matrix.sol\":2059:2075  variables[_hash] */\n      mload(0x40)\n      tag_68\n      swap2\n      swap1\n      jump(tag_69)\n    tag_68:\n      swap1\n      dup2\n      mstore\n      0x20\n      add\n      mload(0x40)\n      dup1\n      swap2\n      sub\n      swap1\n      keccak256\n        /* \"Access_Matrix.sol\":2076:2081  index */\n      dup8\n        /* \"Access_Matrix.sol\":2059:2082  variables[_hash][index] */\n      dup2\n      sload\n      dup2\n      lt\n      tag_70\n      jumpi\n      invalid\n    tag_70:\n      swap1\n      0x00\n      mstore\n      keccak256(0x00, 0x20)\n      swap1\n      0x05\n      mul\n      add\n        /* \"Access_Matrix.sol\":2059:2089  variables[_hash][index].matrix */\n      0x00\n      add\n        /* \"Access_Matrix.sol\":2090:2099  _activity */\n      dup6\n        /* \"Access_Matrix.sol\":2059:2100  variables[_hash][index].matrix[_activity] */\n      mload(0x40)\n      tag_72\n      swap2\n      swap1\n      jump(tag_69)\n    tag_72:\n      swap1\n      dup2\n      mstore\n      0x20\n      add\n      mload(0x40)\n      dup1\n      swap2\n      sub\n      swap1\n      keccak256\n        /* \"Access_Matrix.sol\":2059:2112  variables[_hash][index].matrix[_activity][msg.sender] */\n      0x00\n        /* \"Access_Matrix.sol\":2101:2111  msg.sender */\n      caller\n        /* \"Access_Matrix.sol\":2059:2112  variables[_hash][index].matrix[_activity][msg.sender] */\n      0xffffffffffffffffffffffffffffffffffffffff\n      and\n      0xffffffffffffffffffffffffffffffffffffffff\n      and\n      dup2\n      mstore\n      0x20\n      add\n      swap1\n      dup2\n      mstore\n      0x20\n      add\n      0x00\n      keccak256\n      0x00\n      swap1\n      sload\n      swap1\n      0x0100\n      exp\n      swap1\n      div\n      0xff\n      and\n        /* \"Access_Matrix.sol\":2059:2117  variables[_hash][index].matrix[_activity][msg.sender] >> 2 */\n      0xff\n      and\n      swap1\n      shr\n        /* \"Access_Matrix.sol\":2058:2123  (variables[_hash][index].matrix[_activity][msg.sender] >> 2 ) & 1 */\n      and\n        /* \"Access_Matrix.sol\":2058:2128  (variables[_hash][index].matrix[_activity][msg.sender] >> 2 ) & 1 == 1 */\n      0xff\n      and\n      eq\n        /* \"Access_Matrix.sol\":2040:2128  bool has_access = (variables[_hash][index].matrix[_activity][msg.sender] >> 2 ) & 1 == 1 */\n      swap1\n      pop\n        /* \"Access_Matrix.sol\":2145:2155  has_access */\n      dup1\n        /* \"Access_Matrix.sol\":2138:2156  assert(has_access) */\n      tag_73\n      jumpi\n      invalid\n    tag_73:\n        /* \"Access_Matrix.sol\":2198:2213  _variable_value */\n      dup3\n        /* \"Access_Matrix.sol\":2166:2175  variables */\n      0x00\n        /* \"Access_Matrix.sol\":2176:2181  _hash */\n      dup7\n        /* \"Access_Matrix.sol\":2166:2182  variables[_hash] */\n      mload(0x40)\n      tag_74\n      swap2\n      swap1\n      jump(tag_69)\n    tag_74:\n      swap1\n      dup2\n      mstore\n      0x20\n      add\n      mload(0x40)\n      dup1\n      swap2\n      sub\n      swap1\n      keccak256\n        /* \"Access_Matrix.sol\":2183:2188  index */\n      dup6\n        /* \"Access_Matrix.sol\":2166:2189  variables[_hash][index] */\n      dup2\n      sload\n      dup2\n      lt\n      tag_75\n      jumpi\n      invalid\n    tag_75:\n      swap1\n      0x00\n      mstore\n      keccak256(0x00, 0x20)\n      swap1\n      0x05\n      mul\n      add\n        /* \"Access_Matrix.sol\":2166:2195  variables[_hash][index].value */\n      0x03\n      add\n      0x00\n        /* \"Access_Matrix.sol\":2166:2213  variables[_hash][index].value = _variable_value */\n      0x0100\n      exp\n      dup2\n      sload\n      dup2\n      0xffffffff\n      mul\n      not\n      and\n      swap1\n      dup4\n      0xffffffff\n      and\n      mul\n      or\n      swap1\n      sstore\n      pop\n        /* \"Access_Matrix.sol\":1920:2220  function updateValue(string memory _hash, uint index, uint32 _variable_value, string memory _activity) public {... */\n      pop\n      pop\n      pop\n      pop\n      pop\n      jump\t// out\n        /* \"Access_Matrix.sol\":3587:3837  function deleteVariable(string memory _hash, uint index, string memory _activity) public {... */\n    tag_22:\n        /* \"Access_Matrix.sol\":3686:3701  bool has_access */\n      0x00\n        /* \"Access_Matrix.sol\":3767:3768  1 */\n      0x01\n        /* \"Access_Matrix.sol\":3762:3763  1 */\n      dup1\n        /* \"Access_Matrix.sol\":3705:3714  variables */\n      0x00\n        /* \"Access_Matrix.sol\":3715:3720  _hash */\n      dup7\n        /* \"Access_Matrix.sol\":3705:3721  variables[_hash] */\n      mload(0x40)\n      tag_78\n      swap2\n      swap1\n      jump(tag_69)\n    tag_78:\n      swap1\n      dup2\n      mstore\n      0x20\n      add\n      mload(0x40)\n      dup1\n      swap2\n      sub\n      swap1\n      keccak256\n        /* \"Access_Matrix.sol\":3722:3727  index */\n      dup6\n        /* \"Access_Matrix.sol\":3705:3728  variables[_hash][index] */\n      dup2\n      sload\n      dup2\n      lt\n      tag_79\n      jumpi\n      invalid\n    tag_79:\n      swap1\n      0x00\n      mstore\n      keccak256(0x00, 0x20)\n      swap1\n      0x05\n      mul\n      add\n        /* \"Access_Matrix.sol\":3705:3735  variables[_hash][index].matrix */\n      0x00\n      add\n        /* \"Access_Matrix.sol\":3736:3745  _activity */\n      dup5\n        /* \"Access_Matrix.sol\":3705:3746  variables[_hash][index].matrix[_activity] */\n      mload(0x40)\n      tag_81\n      swap2\n      swap1\n      jump(tag_69)\n    tag_81:\n      swap1\n      dup2\n      mstore\n      0x20\n      add\n      mload(0x40)\n      dup1\n      swap2\n      sub\n      swap1\n      keccak256\n        /* \"Access_Matrix.sol\":3705:3758  variables[_hash][index].matrix[_activity][msg.sender] */\n      0x00\n        /* \"Access_Matrix.sol\":3747:3757  msg.sender */\n      caller\n        /* \"Access_Matrix.sol\":3705:3758  variables[_hash][index].matrix[_activity][msg.sender] */\n      0xffffffffffffffffffffffffffffffffffffffff\n      and\n      0xffffffffffffffffffffffffffffffffffffffff\n      and\n      dup2\n      mstore\n      0x20\n      add\n      swap1\n      dup2\n      mstore\n      0x20\n      add\n      0x00\n      keccak256\n      0x00\n      swap1\n      sload\n      swap1\n      0x0100\n      exp\n      swap1\n      div\n      0xff\n      and\n        /* \"Access_Matrix.sol\":3704:3763  (variables[_hash][index].matrix[_activity][msg.sender]) & 1 */\n      and\n        /* \"Access_Matrix.sol\":3704:3768  (variables[_hash][index].matrix[_activity][msg.sender]) & 1 == 1 */\n      0xff\n      and\n      eq\n        /* \"Access_Matrix.sol\":3686:3768  bool has_access = (variables[_hash][index].matrix[_activity][msg.sender]) & 1 == 1 */\n      swap1\n      pop\n        /* \"Access_Matrix.sol\":3785:3795  has_access */\n      dup1\n        /* \"Access_Matrix.sol\":3778:3796  assert(has_access) */\n      tag_82\n      jumpi\n      invalid\n    tag_82:\n        /* \"Access_Matrix.sol\":3819:3829  msg.sender */\n      caller\n        /* \"Access_Matrix.sol\":3806:3830  selfdestruct(msg.sender) */\n      0xffffffffffffffffffffffffffffffffffffffff\n      and\n      selfdestruct\n        /* \"Access_Matrix.sol\":851:994  function setVariableName(string memory _hash, uint index, string memory _newName) public {... */\n    tag_25:\n        /* \"Access_Matrix.sol\":979:987  _newName */\n      dup1\n        /* \"Access_Matrix.sol\":948:957  variables */\n      0x00\n        /* \"Access_Matrix.sol\":958:963  _hash */\n      dup5\n        /* \"Access_Matrix.sol\":948:964  variables[_hash] */\n      mload(0x40)\n      tag_84\n      swap2\n      swap1\n      jump(tag_69)\n    tag_84:\n      swap1\n      dup2\n      mstore\n      0x20\n      add\n      mload(0x40)\n      dup1\n      swap2\n      sub\n      swap1\n      keccak256\n        /* \"Access_Matrix.sol\":965:970  index */\n      dup4\n        /* \"Access_Matrix.sol\":948:971  variables[_hash][index] */\n      dup2\n      sload\n      dup2\n      lt\n      tag_85\n      jumpi\n      invalid\n    tag_85:\n      swap1\n      0x00\n      mstore\n      keccak256(0x00, 0x20)\n      swap1\n      0x05\n      mul\n      add\n        /* \"Access_Matrix.sol\":948:976  variables[_hash][index].name */\n      0x04\n      add\n        /* \"Access_Matrix.sol\":948:987  variables[_hash][index].name = _newName */\n      swap1\n      dup1\n      mload\n      swap1\n      0x20\n      add\n      swap1\n      tag_87\n      swap3\n      swap2\n      swap1\n      tag_88\n      jump\t// in\n    tag_87:\n      pop\n        /* \"Access_Matrix.sol\":851:994  function setVariableName(string memory _hash, uint index, string memory _newName) public {... */\n      pop\n      pop\n      pop\n      jump\t// out\n        /* \"Access_Matrix.sol\":661:845  function updateMatrix(string memory _hash, uint index, string memory _activity, address _role, uint8 _val) public {... */\n    tag_29:\n        /* \"Access_Matrix.sol\":834:838  _val */\n      dup1\n        /* \"Access_Matrix.sol\":783:792  variables */\n      0x00\n        /* \"Access_Matrix.sol\":793:798  _hash */\n      dup7\n        /* \"Access_Matrix.sol\":783:799  variables[_hash] */\n      mload(0x40)\n      tag_90\n      swap2\n      swap1\n      jump(tag_69)\n    tag_90:\n      swap1\n      dup2\n      mstore\n      0x20\n      add\n      mload(0x40)\n      dup1\n      swap2\n      sub\n      swap1\n      keccak256\n        /* \"Access_Matrix.sol\":800:805  index */\n      dup6\n        /* \"Access_Matrix.sol\":783:806  variables[_hash][index] */\n      dup2\n      sload\n      dup2\n      lt\n      tag_91\n      jumpi\n      invalid\n    tag_91:\n      swap1\n      0x00\n      mstore\n      keccak256(0x00, 0x20)\n      swap1\n      0x05\n      mul\n      add\n        /* \"Access_Matrix.sol\":783:813  variables[_hash][index].matrix */\n      0x00\n      add\n        /* \"Access_Matrix.sol\":814:823  _activity */\n      dup5\n        /* \"Access_Matrix.sol\":783:824  variables[_hash][index].matrix[_activity] */\n      mload(0x40)\n      tag_93\n      swap2\n      swap1\n      jump(tag_69)\n    tag_93:\n      swap1\n      dup2\n      mstore\n      0x20\n      add\n      mload(0x40)\n      dup1\n      swap2\n      sub\n      swap1\n      keccak256\n        /* \"Access_Matrix.sol\":783:831  variables[_hash][index].matrix[_activity][_role] */\n      0x00\n        /* \"Access_Matrix.sol\":825:830  _role */\n      dup5\n        /* \"Access_Matrix.sol\":783:831  variables[_hash][index].matrix[_activity][_role] */\n      0xffffffffffffffffffffffffffffffffffffffff\n      and\n      0xffffffffffffffffffffffffffffffffffffffff\n      and\n      dup2\n      mstore\n      0x20\n      add\n      swap1\n      dup2\n      mstore\n      0x20\n      add\n      0x00\n      keccak256\n      0x00\n        /* \"Access_Matrix.sol\":783:838  variables[_hash][index].matrix[_activity][_role] = _val */\n      0x0100\n      exp\n      dup2\n      sload\n      dup2\n      0xff\n      mul\n      not\n      and\n      swap1\n      dup4\n      0xff\n      and\n      mul\n      or\n      swap1\n      sstore\n      pop\n        /* \"Access_Matrix.sol\":661:845  function updateMatrix(string memory _hash, uint index, string memory _activity, address _role, uint8 _val) public {... */\n      pop\n      pop\n      pop\n      pop\n      pop\n      jump\t// out\n        /* \"Access_Matrix.sol\":2893:3046  function getActivites(string memory _hash, uint index) public view returns (string[] memory) {... */\n    tag_33:\n        /* \"Access_Matrix.sol\":2969:2984  string[] memory */\n      0x60\n        /* \"Access_Matrix.sol\":3001:3010  variables */\n      0x00\n        /* \"Access_Matrix.sol\":3011:3016  _hash */\n      dup4\n        /* \"Access_Matrix.sol\":3001:3017  variables[_hash] */\n      mload(0x40)\n      tag_95\n      swap2\n      swap1\n      jump(tag_69)\n    tag_95:\n      swap1\n      dup2\n      mstore\n      0x20\n      add\n      mload(0x40)\n      dup1\n      swap2\n      sub\n      swap1\n      keccak256\n        /* \"Access_Matrix.sol\":3018:3023  index */\n      dup3\n        /* \"Access_Matrix.sol\":3001:3024  variables[_hash][index] */\n      dup2\n      sload\n      dup2\n      lt\n      tag_96\n      jumpi\n      invalid\n    tag_96:\n      swap1\n      0x00\n      mstore\n      keccak256(0x00, 0x20)\n      swap1\n      0x05\n      mul\n      add\n        /* \"Access_Matrix.sol\":3001:3039  variables[_hash][index].activitiesKeys */\n      0x01\n      add\n        /* \"Access_Matrix.sol\":2994:3039  return variables[_hash][index].activitiesKeys */\n      dup1\n      sload\n      dup1\n      0x20\n      mul\n      0x20\n      add\n      mload(0x40)\n      swap1\n      dup2\n      add\n      0x40\n      mstore\n      dup1\n      swap3\n      swap2\n      swap1\n      dup2\n      dup2\n      mstore\n      0x20\n      add\n      0x00\n      swap1\n    tag_98:\n      dup3\n      dup3\n      lt\n      iszero\n      tag_99\n      jumpi\n      dup4\n      dup3\n      swap1\n      0x00\n      mstore\n      keccak256(0x00, 0x20)\n      add\n      dup1\n      sload\n      0x01\n      dup2\n      0x01\n      and\n      iszero\n      0x0100\n      mul\n      sub\n      and\n      0x02\n      swap1\n      div\n      dup1\n      0x1f\n      add\n      0x20\n      dup1\n      swap2\n      div\n      mul\n      0x20\n      add\n      mload(0x40)\n      swap1\n      dup2\n      add\n      0x40\n      mstore\n      dup1\n      swap3\n      swap2\n      swap1\n      dup2\n      dup2\n      mstore\n      0x20\n      add\n      dup3\n      dup1\n      sload\n      0x01\n      dup2\n      0x01\n      and\n      iszero\n      0x0100\n      mul\n      sub\n      and\n      0x02\n      swap1\n      div\n      dup1\n      iszero\n      tag_101\n      jumpi\n      dup1\n      0x1f\n      lt\n      tag_102\n      jumpi\n      0x0100\n      dup1\n      dup4\n      sload\n      div\n      mul\n      dup4\n      mstore\n      swap2\n      0x20\n      add\n      swap2\n      jump(tag_101)\n    tag_102:\n      dup3\n      add\n      swap2\n      swap1\n      0x00\n      mstore\n      keccak256(0x00, 0x20)\n      swap1\n    tag_103:\n      dup2\n      sload\n      dup2\n      mstore\n      swap1\n      0x01\n      add\n      swap1\n      0x20\n      add\n      dup1\n      dup4\n      gt\n      tag_103\n      jumpi\n      dup3\n      swap1\n      sub\n      0x1f\n      and\n      dup3\n      add\n      swap2\n    tag_101:\n      pop\n      pop\n      pop\n      pop\n      pop\n      dup2\n      mstore\n      0x20\n      add\n      swap1\n      0x01\n      add\n      swap1\n      jump(tag_98)\n    tag_99:\n      pop\n      pop\n      pop\n      pop\n      swap1\n      pop\n        /* \"Access_Matrix.sol\":2893:3046  function getActivites(string memory _hash, uint index) public view returns (string[] memory) {... */\n      swap3\n      swap2\n      pop\n      pop\n      jump\t// out\n        /* \"Access_Matrix.sol\":3052:3197  function getRoles(string memory _hash, uint index) public view returns (address[] memory) {... */\n    tag_38:\n        /* \"Access_Matrix.sol\":3124:3140  address[] memory */\n      0x60\n        /* \"Access_Matrix.sol\":3157:3166  variables */\n      0x00\n        /* \"Access_Matrix.sol\":3167:3172  _hash */\n      dup4\n        /* \"Access_Matrix.sol\":3157:3173  variables[_hash] */\n      mload(0x40)\n      tag_105\n      swap2\n      swap1\n      jump(tag_69)\n    tag_105:\n      swap1\n      dup2\n      mstore\n      0x20\n      add\n      mload(0x40)\n      dup1\n      swap2\n      sub\n      swap1\n      keccak256\n        /* \"Access_Matrix.sol\":3174:3179  index */\n      dup3\n        /* \"Access_Matrix.sol\":3157:3180  variables[_hash][index] */\n      dup2\n      sload\n      dup2\n      lt\n      tag_106\n      jumpi\n      invalid\n    tag_106:\n      swap1\n      0x00\n      mstore\n      keccak256(0x00, 0x20)\n      swap1\n      0x05\n      mul\n      add\n        /* \"Access_Matrix.sol\":3157:3190  variables[_hash][index].rolesKeys */\n      0x02\n      add\n        /* \"Access_Matrix.sol\":3150:3190  return variables[_hash][index].rolesKeys */\n      dup1\n      sload\n      dup1\n      0x20\n      mul\n      0x20\n      add\n      mload(0x40)\n      swap1\n      dup2\n      add\n      0x40\n      mstore\n      dup1\n      swap3\n      swap2\n      swap1\n      dup2\n      dup2\n      mstore\n      0x20\n      add\n      dup3\n      dup1\n      sload\n      dup1\n      iszero\n      tag_108\n      jumpi\n      0x20\n      mul\n      dup3\n      add\n      swap2\n      swap1\n      0x00\n      mstore\n      keccak256(0x00, 0x20)\n      swap1\n    tag_109:\n      dup2\n      0x00\n      swap1\n      sload\n      swap1\n      0x0100\n      exp\n      swap1\n      div\n      0xffffffffffffffffffffffffffffffffffffffff\n      and\n      0xffffffffffffffffffffffffffffffffffffffff\n      and\n      dup2\n      mstore\n      0x20\n      add\n      swap1\n      0x01\n      add\n      swap1\n      dup1\n      dup4\n      gt\n      tag_109\n      jumpi\n    tag_108:\n      pop\n      pop\n      pop\n      pop\n      pop\n      swap1\n      pop\n        /* \"Access_Matrix.sol\":3052:3197  function getRoles(string memory _hash, uint index) public view returns (address[] memory) {... */\n      swap3\n      swap2\n      pop\n      pop\n      jump\t// out\n        /* \"Access_Matrix.sol\":2463:2887  function getAllVariables(string memory _hash) public view returns (string[] memory,  uint32[] memory){... */\n    tag_44:\n        /* \"Access_Matrix.sol\":2530:2545  string[] memory */\n      0x60\n        /* \"Access_Matrix.sol\":2548:2563  uint32[] memory */\n      dup1\n        /* \"Access_Matrix.sol\":2572:2591  string[] memory arr */\n      0x60\n        /* \"Access_Matrix.sol\":2607:2616  variables */\n      0x00\n        /* \"Access_Matrix.sol\":2617:2622  _hash */\n      dup5\n        /* \"Access_Matrix.sol\":2607:2623  variables[_hash] */\n      mload(0x40)\n      tag_111\n      swap2\n      swap1\n      jump(tag_69)\n    tag_111:\n      swap1\n      dup2\n      mstore\n      0x20\n      add\n      mload(0x40)\n      dup1\n      swap2\n      sub\n      swap1\n      keccak256\n        /* \"Access_Matrix.sol\":2607:2630  variables[_hash].length */\n      dup1\n      sload\n      swap1\n      pop\n        /* \"Access_Matrix.sol\":2594:2631  new string[](variables[_hash].length) */\n      mload(0x40)\n      swap1\n      dup1\n      dup3\n      mstore\n      dup1\n      0x20\n      mul\n      0x20\n      add\n      dup3\n      add\n      0x40\n      mstore\n      dup1\n      iszero\n      tag_112\n      jumpi\n      dup2\n      0x20\n      add\n    tag_113:\n      0x60\n      dup2\n      mstore\n      0x20\n      add\n      swap1\n      0x01\n      swap1\n      sub\n      swap1\n      dup2\n      tag_113\n      jumpi\n      swap1\n      pop\n    tag_112:\n      pop\n        /* \"Access_Matrix.sol\":2572:2631  string[] memory arr = new string[](variables[_hash].length) */\n      swap1\n      pop\n        /* \"Access_Matrix.sol\":2639:2658  uint32[] memory vls */\n      0x60\n        /* \"Access_Matrix.sol\":2674:2683  variables */\n      0x00\n        /* \"Access_Matrix.sol\":2684:2689  _hash */\n      dup6\n        /* \"Access_Matrix.sol\":2674:2690  variables[_hash] */\n      mload(0x40)\n      tag_114\n      swap2\n      swap1\n      jump(tag_69)\n    tag_114:\n      swap1\n      dup2\n      mstore\n      0x20\n      add\n      mload(0x40)\n      dup1\n      swap2\n      sub\n      swap1\n      keccak256\n        /* \"Access_Matrix.sol\":2674:2697  variables[_hash].length */\n      dup1\n      sload\n      swap1\n      pop\n        /* \"Access_Matrix.sol\":2661:2698  new uint32[](variables[_hash].length) */\n      mload(0x40)\n      swap1\n      dup1\n      dup3\n      mstore\n      dup1\n      0x20\n      mul\n      0x20\n      add\n      dup3\n      add\n      0x40\n      mstore\n      dup1\n      iszero\n      tag_115\n      jumpi\n      dup2\n      0x20\n      add\n        /* \"--CODEGEN--\":29:31   */\n      0x20\n        /* \"--CODEGEN--\":21:27   */\n      dup3\n        /* \"--CODEGEN--\":17:32   */\n      mul\n        /* \"--CODEGEN--\":117:121   */\n      dup1\n        /* \"--CODEGEN--\":105:115   */\n      codesize\n        /* \"--CODEGEN--\":97:103   */\n      dup4\n        /* \"--CODEGEN--\":88:122   */\n      codecopy\n        /* \"--CODEGEN--\":148:152   */\n      dup1\n        /* \"--CODEGEN--\":140:146   */\n      dup3\n        /* \"--CODEGEN--\":136:153   */\n      add\n        /* \"--CODEGEN--\":126:153   */\n      swap2\n      pop\n        /* \"--CODEGEN--\":0:157   */\n      pop\n        /* \"Access_Matrix.sol\":2661:2698  new uint32[](variables[_hash].length) */\n      swap1\n      pop\n    tag_115:\n      pop\n        /* \"Access_Matrix.sol\":2639:2698  uint32[] memory vls = new uint32[](variables[_hash].length) */\n      swap1\n      pop\n        /* \"Access_Matrix.sol\":2710:2716  uint i */\n      0x00\n        /* \"Access_Matrix.sol\":2719:2720  0 */\n      dup1\n        /* \"Access_Matrix.sol\":2710:2720  uint i = 0 */\n      swap1\n      pop\n        /* \"Access_Matrix.sol\":2706:2856  for(uint i = 0; i < variables[_hash].length; i++) {... */\n    tag_116:\n        /* \"Access_Matrix.sol\":2726:2735  variables */\n      0x00\n        /* \"Access_Matrix.sol\":2736:2741  _hash */\n      dup7\n        /* \"Access_Matrix.sol\":2726:2742  variables[_hash] */\n      mload(0x40)\n      tag_119\n      swap2\n      swap1\n      jump(tag_69)\n    tag_119:\n      swap1\n      dup2\n      mstore\n      0x20\n      add\n      mload(0x40)\n      dup1\n      swap2\n      sub\n      swap1\n      keccak256\n        /* \"Access_Matrix.sol\":2726:2749  variables[_hash].length */\n      dup1\n      sload\n      swap1\n      pop\n        /* \"Access_Matrix.sol\":2722:2723  i */\n      dup2\n        /* \"Access_Matrix.sol\":2722:2749  i < variables[_hash].length */\n      lt\n        /* \"Access_Matrix.sol\":2706:2856  for(uint i = 0; i < variables[_hash].length; i++) {... */\n      iszero\n      tag_117\n      jumpi\n        /* \"Access_Matrix.sol\":2776:2785  variables */\n      0x00\n        /* \"Access_Matrix.sol\":2786:2791  _hash */\n      dup7\n        /* \"Access_Matrix.sol\":2776:2792  variables[_hash] */\n      mload(0x40)\n      tag_120\n      swap2\n      swap1\n      jump(tag_69)\n    tag_120:\n      swap1\n      dup2\n      mstore\n      0x20\n      add\n      mload(0x40)\n      dup1\n      swap2\n      sub\n      swap1\n      keccak256\n        /* \"Access_Matrix.sol\":2793:2794  i */\n      dup2\n        /* \"Access_Matrix.sol\":2776:2795  variables[_hash][i] */\n      dup2\n      sload\n      dup2\n      lt\n      tag_121\n      jumpi\n      invalid\n    tag_121:\n      swap1\n      0x00\n      mstore\n      keccak256(0x00, 0x20)\n      swap1\n      0x05\n      mul\n      add\n        /* \"Access_Matrix.sol\":2776:2800  variables[_hash][i].name */\n      0x04\n      add\n        /* \"Access_Matrix.sol\":2766:2801  arr[i] = (variables[_hash][i].name) */\n      dup1\n      sload\n      0x01\n      dup2\n      0x01\n      and\n      iszero\n      0x0100\n      mul\n      sub\n      and\n      0x02\n      swap1\n      div\n      dup1\n      0x1f\n      add\n      0x20\n      dup1\n      swap2\n      div\n      mul\n      0x20\n      add\n      mload(0x40)\n      swap1\n      dup2\n      add\n      0x40\n      mstore\n      dup1\n      swap3\n      swap2\n      swap1\n      dup2\n      dup2\n      mstore\n      0x20\n      add\n      dup3\n      dup1\n      sload\n      0x01\n      dup2\n      0x01\n      and\n      iszero\n      0x0100\n      mul\n      sub\n      and\n      0x02\n      swap1\n      div\n      dup1\n      iszero\n      tag_123\n      jumpi\n      dup1\n      0x1f\n      lt\n      tag_124\n      jumpi\n      0x0100\n      dup1\n      dup4\n      sload\n      div\n      mul\n      dup4\n      mstore\n      swap2\n      0x20\n      add\n      swap2\n      jump(tag_123)\n    tag_124:\n      dup3\n      add\n      swap2\n      swap1\n      0x00\n      mstore\n      keccak256(0x00, 0x20)\n      swap1\n    tag_125:\n      dup2\n      sload\n      dup2\n      mstore\n      swap1\n      0x01\n      add\n      swap1\n      0x20\n      add\n      dup1\n      dup4\n      gt\n      tag_125\n      jumpi\n      dup3\n      swap1\n      sub\n      0x1f\n      and\n      dup3\n      add\n      swap2\n    tag_123:\n      pop\n      pop\n      pop\n      pop\n      pop\n        /* \"Access_Matrix.sol\":2766:2769  arr */\n      dup4\n        /* \"Access_Matrix.sol\":2770:2771  i */\n      dup3\n        /* \"Access_Matrix.sol\":2766:2772  arr[i] */\n      dup2\n      mload\n      dup2\n      lt\n      tag_126\n      jumpi\n      invalid\n    tag_126:\n      0x20\n      mul\n      0x20\n      add\n      add\n        /* \"Access_Matrix.sol\":2766:2801  arr[i] = (variables[_hash][i].name) */\n      dup2\n      swap1\n      mstore\n      pop\n        /* \"Access_Matrix.sol\":2821:2830  variables */\n      0x00\n        /* \"Access_Matrix.sol\":2831:2836  _hash */\n      dup7\n        /* \"Access_Matrix.sol\":2821:2837  variables[_hash] */\n      mload(0x40)\n      tag_127\n      swap2\n      swap1\n      jump(tag_69)\n    tag_127:\n      swap1\n      dup2\n      mstore\n      0x20\n      add\n      mload(0x40)\n      dup1\n      swap2\n      sub\n      swap1\n      keccak256\n        /* \"Access_Matrix.sol\":2838:2839  i */\n      dup2\n        /* \"Access_Matrix.sol\":2821:2840  variables[_hash][i] */\n      dup2\n      sload\n      dup2\n      lt\n      tag_128\n      jumpi\n      invalid\n    tag_128:\n      swap1\n      0x00\n      mstore\n      keccak256(0x00, 0x20)\n      swap1\n      0x05\n      mul\n      add\n        /* \"Access_Matrix.sol\":2821:2846  variables[_hash][i].value */\n      0x03\n      add\n      0x00\n      swap1\n      sload\n      swap1\n      0x0100\n      exp\n      swap1\n      div\n      0xffffffff\n      and\n        /* \"Access_Matrix.sol\":2811:2814  vls */\n      dup3\n        /* \"Access_Matrix.sol\":2815:2816  i */\n      dup3\n        /* \"Access_Matrix.sol\":2811:2817  vls[i] */\n      dup2\n      mload\n      dup2\n      lt\n      tag_130\n      jumpi\n      invalid\n    tag_130:\n      0x20\n      mul\n      0x20\n      add\n      add\n        /* \"Access_Matrix.sol\":2811:2847  vls[i] = (variables[_hash][i].value) */\n      swap1\n      0xffffffff\n      and\n      swap1\n      dup2\n      0xffffffff\n      and\n      dup2\n      mstore\n      pop\n      pop\n        /* \"Access_Matrix.sol\":2751:2754  i++ */\n      dup1\n      dup1\n      0x01\n      add\n      swap2\n      pop\n      pop\n        /* \"Access_Matrix.sol\":2706:2856  for(uint i = 0; i < variables[_hash].length; i++) {... */\n      jump(tag_116)\n    tag_117:\n      pop\n        /* \"Access_Matrix.sol\":2871:2874  arr */\n      dup2\n        /* \"Access_Matrix.sol\":2876:2879  vls */\n      dup2\n        /* \"Access_Matrix.sol\":2863:2880  return (arr, vls) */\n      swap4\n      pop\n      swap4\n      pop\n      pop\n      pop\n        /* \"Access_Matrix.sol\":2463:2887  function getAllVariables(string memory _hash) public view returns (string[] memory,  uint32[] memory){... */\n      swap2\n      pop\n      swap2\n      jump\t// out\n        /* \"Access_Matrix.sol\":2312:2457  function getVariableValue(string memory _hash, uint index) public view returns (uint32 _var){... */\n    tag_49:\n        /* \"Access_Matrix.sol\":2392:2403  uint32 _var */\n      0x00\n        /* \"Access_Matrix.sol\":2421:2430  variables */\n      dup1\n        /* \"Access_Matrix.sol\":2431:2436  _hash */\n      dup4\n        /* \"Access_Matrix.sol\":2421:2437  variables[_hash] */\n      mload(0x40)\n      tag_132\n      swap2\n      swap1\n      jump(tag_69)\n    tag_132:\n      swap1\n      dup2\n      mstore\n      0x20\n      add\n      mload(0x40)\n      dup1\n      swap2\n      sub\n      swap1\n      keccak256\n        /* \"Access_Matrix.sol\":2438:2443  index */\n      dup3\n        /* \"Access_Matrix.sol\":2421:2444  variables[_hash][index] */\n      dup2\n      sload\n      dup2\n      lt\n      tag_133\n      jumpi\n      invalid\n    tag_133:\n      swap1\n      0x00\n      mstore\n      keccak256(0x00, 0x20)\n      swap1\n      0x05\n      mul\n      add\n        /* \"Access_Matrix.sol\":2421:2450  variables[_hash][index].value */\n      0x03\n      add\n      0x00\n      swap1\n      sload\n      swap1\n      0x0100\n      exp\n      swap1\n      div\n      0xffffffff\n      and\n        /* \"Access_Matrix.sol\":2414:2450  return variables[_hash][index].value */\n      swap1\n      pop\n        /* \"Access_Matrix.sol\":2312:2457  function getVariableValue(string memory _hash, uint index) public view returns (uint32 _var){... */\n      swap3\n      swap2\n      pop\n      pop\n      jump\t// out\n        /* \"Access_Matrix.sol\":3203:3402  function getAccess(string memory _hash, uint index, string memory _activity, address _role) public view returns (uint8 _access) {... */\n    tag_55:\n        /* \"Access_Matrix.sol\":3316:3329  uint8 _access */\n      0x00\n        /* \"Access_Matrix.sol\":3347:3356  variables */\n      dup1\n        /* \"Access_Matrix.sol\":3357:3362  _hash */\n      dup6\n        /* \"Access_Matrix.sol\":3347:3363  variables[_hash] */\n      mload(0x40)\n      tag_136\n      swap2\n      swap1\n      jump(tag_69)\n    tag_136:\n      swap1\n      dup2\n      mstore\n      0x20\n      add\n      mload(0x40)\n      dup1\n      swap2\n      sub\n      swap1\n      keccak256\n        /* \"Access_Matrix.sol\":3364:3369  index */\n      dup5\n        /* \"Access_Matrix.sol\":3347:3370  variables[_hash][index] */\n      dup2\n      sload\n      dup2\n      lt\n      tag_137\n      jumpi\n      invalid\n    tag_137:\n      swap1\n      0x00\n      mstore\n      keccak256(0x00, 0x20)\n      swap1\n      0x05\n      mul\n      add\n        /* \"Access_Matrix.sol\":3347:3377  variables[_hash][index].matrix */\n      0x00\n      add\n        /* \"Access_Matrix.sol\":3378:3387  _activity */\n      dup4\n        /* \"Access_Matrix.sol\":3347:3388  variables[_hash][index].matrix[_activity] */\n      mload(0x40)\n      tag_139\n      swap2\n      swap1\n      jump(tag_69)\n    tag_139:\n      swap1\n      dup2\n      mstore\n      0x20\n      add\n      mload(0x40)\n      dup1\n      swap2\n      sub\n      swap1\n      keccak256\n        /* \"Access_Matrix.sol\":3347:3395  variables[_hash][index].matrix[_activity][_role] */\n      0x00\n        /* \"Access_Matrix.sol\":3389:3394  _role */\n      dup4\n        /* \"Access_Matrix.sol\":3347:3395  variables[_hash][index].matrix[_activity][_role] */\n      0xffffffffffffffffffffffffffffffffffffffff\n      and\n      0xffffffffffffffffffffffffffffffffffffffff\n      and\n      dup2\n      mstore\n      0x20\n      add\n      swap1\n      dup2\n      mstore\n      0x20\n      add\n      0x00\n      keccak256\n      0x00\n      swap1\n      sload\n      swap1\n      0x0100\n      exp\n      swap1\n      div\n      0xff\n      and\n        /* \"Access_Matrix.sol\":3339:3395  return  variables[_hash][index].matrix[_activity][_role] */\n      swap1\n      pop\n        /* \"Access_Matrix.sol\":3203:3402  function getAccess(string memory _hash, uint index, string memory _activity, address _role) public view returns (uint8 _access) {... */\n      swap5\n      swap4\n      pop\n      pop\n      pop\n      pop\n      jump\t// out\n        /* \"Access_Matrix.sol\":1159:1688  function uploadMatrix(string memory _hash, string memory _newName, string[] memory _activities, address[] memory _roles, uint8[] memory _vals, uint nbOfElements) public {... */\n    tag_61:\n        /* \"Access_Matrix.sol\":1336:1358  Variable memory topush */\n      tag_141\n      tag_142\n      jump\t// in\n    tag_141:\n        /* \"Access_Matrix.sol\":1361:1488  Variable( {... */\n      mload(0x40)\n      dup1\n      0x80\n      add\n      0x40\n      mstore\n      dup1\n        /* \"Access_Matrix.sol\":1441:1452  _activities */\n      dup7\n        /* \"Access_Matrix.sol\":1361:1488  Variable( {... */\n      dup2\n      mstore\n      0x20\n      add\n        /* \"Access_Matrix.sol\":1473:1479  _roles */\n      dup6\n        /* \"Access_Matrix.sol\":1361:1488  Variable( {... */\n      dup2\n      mstore\n      0x20\n      add\n        /* \"Access_Matrix.sol\":1413:1414  0 */\n      0x00\n        /* \"Access_Matrix.sol\":1361:1488  Variable( {... */\n      0xffffffff\n      and\n      dup2\n      mstore\n      0x20\n      add\n        /* \"Access_Matrix.sol\":1388:1396  _newName */\n      dup8\n        /* \"Access_Matrix.sol\":1361:1488  Variable( {... */\n      dup2\n      mstore\n      pop\n        /* \"Access_Matrix.sol\":1336:1488  Variable memory topush = Variable( {... */\n      swap1\n      pop\n        /* \"Access_Matrix.sol\":1496:1505  variables */\n      0x00\n        /* \"Access_Matrix.sol\":1506:1511  _hash */\n      dup8\n        /* \"Access_Matrix.sol\":1496:1512  variables[_hash] */\n      mload(0x40)\n      tag_143\n      swap2\n      swap1\n      jump(tag_69)\n    tag_143:\n      swap1\n      dup2\n      mstore\n      0x20\n      add\n      mload(0x40)\n      dup1\n      swap2\n      sub\n      swap1\n      keccak256\n        /* \"Access_Matrix.sol\":1518:1524  topush */\n      dup2\n        /* \"Access_Matrix.sol\":1496:1525  variables[_hash].push(topush) */\n      swap1\n      dup1\n        /* \"--CODEGEN--\":39:40   */\n      0x01\n        /* \"--CODEGEN--\":33:36   */\n      dup2\n        /* \"--CODEGEN--\":27:37   */\n      sload\n        /* \"--CODEGEN--\":23:41   */\n      add\n        /* \"--CODEGEN--\":57:67   */\n      dup1\n        /* \"--CODEGEN--\":52:55   */\n      dup3\n        /* \"--CODEGEN--\":45:68   */\n      sstore\n        /* \"--CODEGEN--\":79:89   */\n      dup1\n        /* \"--CODEGEN--\":72:89   */\n      swap2\n      pop\n        /* \"--CODEGEN--\":0:93   */\n      pop\n        /* \"Access_Matrix.sol\":1496:1525  variables[_hash].push(topush) */\n      swap1\n      0x01\n      dup3\n      sub\n      swap1\n      0x00\n      mstore\n      keccak256(0x00, 0x20)\n      swap1\n      0x05\n      mul\n      add\n      0x00\n      swap1\n      swap2\n      swap3\n      swap1\n      swap2\n      swap1\n      swap2\n      pop\n      0x00\n      dup3\n      add\n      mload\n      dup2\n      0x01\n      add\n      swap1\n      dup1\n      mload\n      swap1\n      0x20\n      add\n      swap1\n      tag_145\n      swap3\n      swap2\n      swap1\n      tag_146\n      jump\t// in\n    tag_145:\n      pop\n      0x20\n      dup3\n      add\n      mload\n      dup2\n      0x02\n      add\n      swap1\n      dup1\n      mload\n      swap1\n      0x20\n      add\n      swap1\n      tag_147\n      swap3\n      swap2\n      swap1\n      tag_148\n      jump\t// in\n    tag_147:\n      pop\n      0x40\n      dup3\n      add\n      mload\n      dup2\n      0x03\n      add\n      exp(0x0100, 0x00)\n      dup2\n      sload\n      dup2\n      0xffffffff\n      mul\n      not\n      and\n      swap1\n      dup4\n      0xffffffff\n      and\n      mul\n      or\n      swap1\n      sstore\n      pop\n      0x60\n      dup3\n      add\n      mload\n      dup2\n      0x04\n      add\n      swap1\n      dup1\n      mload\n      swap1\n      0x20\n      add\n      swap1\n      tag_149\n      swap3\n      swap2\n      swap1\n      tag_150\n      jump\t// in\n    tag_149:\n      pop\n      pop\n      pop\n      pop\n        /* \"Access_Matrix.sol\":1537:1543  uint k */\n      0x00\n        /* \"Access_Matrix.sol\":1546:1547  0 */\n      dup1\n        /* \"Access_Matrix.sol\":1537:1547  uint k = 0 */\n      swap1\n      pop\n        /* \"Access_Matrix.sol\":1533:1682  for(uint k = 0; k < nbOfElements; k++) {... */\n    tag_151:\n        /* \"Access_Matrix.sol\":1553:1565  nbOfElements */\n      dup3\n        /* \"Access_Matrix.sol\":1549:1550  k */\n      dup2\n        /* \"Access_Matrix.sol\":1549:1565  k < nbOfElements */\n      lt\n        /* \"Access_Matrix.sol\":1533:1682  for(uint k = 0; k < nbOfElements; k++) {... */\n      iszero\n      tag_152\n      jumpi\n        /* \"Access_Matrix.sol\":1664:1669  _vals */\n      dup4\n        /* \"Access_Matrix.sol\":1670:1671  k */\n      dup2\n        /* \"Access_Matrix.sol\":1664:1672  _vals[k] */\n      dup2\n      mload\n      dup2\n      lt\n      tag_154\n      jumpi\n      invalid\n    tag_154:\n      0x20\n      mul\n      0x20\n      add\n      add\n      mload\n        /* \"Access_Matrix.sol\":1582:1591  variables */\n      0x00\n        /* \"Access_Matrix.sol\":1592:1597  _hash */\n      dup10\n        /* \"Access_Matrix.sol\":1582:1598  variables[_hash] */\n      mload(0x40)\n      tag_155\n      swap2\n      swap1\n      jump(tag_69)\n    tag_155:\n      swap1\n      dup2\n      mstore\n      0x20\n      add\n      mload(0x40)\n      dup1\n      swap2\n      sub\n      swap1\n      keccak256\n        /* \"Access_Matrix.sol\":1625:1626  1 */\n      0x01\n        /* \"Access_Matrix.sol\":1599:1608  variables */\n      0x00\n        /* \"Access_Matrix.sol\":1609:1614  _hash */\n      dup12\n        /* \"Access_Matrix.sol\":1599:1615  variables[_hash] */\n      mload(0x40)\n      tag_156\n      swap2\n      swap1\n      jump(tag_69)\n    tag_156:\n      swap1\n      dup2\n      mstore\n      0x20\n      add\n      mload(0x40)\n      dup1\n      swap2\n      sub\n      swap1\n      keccak256\n        /* \"Access_Matrix.sol\":1599:1622  variables[_hash].length */\n      dup1\n      sload\n      swap1\n      pop\n        /* \"Access_Matrix.sol\":1599:1626  variables[_hash].length - 1 */\n      sub\n        /* \"Access_Matrix.sol\":1582:1627  variables[_hash][variables[_hash].length - 1] */\n      dup2\n      sload\n      dup2\n      lt\n      tag_157\n      jumpi\n      invalid\n    tag_157:\n      swap1\n      0x00\n      mstore\n      keccak256(0x00, 0x20)\n      swap1\n      0x05\n      mul\n      add\n        /* \"Access_Matrix.sol\":1582:1634  variables[_hash][variables[_hash].length - 1].matrix */\n      0x00\n      add\n        /* \"Access_Matrix.sol\":1635:1646  _activities */\n      dup8\n        /* \"Access_Matrix.sol\":1647:1648  k */\n      dup4\n        /* \"Access_Matrix.sol\":1635:1649  _activities[k] */\n      dup2\n      mload\n      dup2\n      lt\n      tag_159\n      jumpi\n      invalid\n    tag_159:\n      0x20\n      mul\n      0x20\n      add\n      add\n      mload\n        /* \"Access_Matrix.sol\":1582:1650  variables[_hash][variables[_hash].length - 1].matrix[_activities[k]] */\n      mload(0x40)\n      tag_160\n      swap2\n      swap1\n      jump(tag_161)\n    tag_160:\n      swap1\n      dup2\n      mstore\n      0x20\n      add\n      mload(0x40)\n      dup1\n      swap2\n      sub\n      swap1\n      keccak256\n        /* \"Access_Matrix.sol\":1582:1661  variables[_hash][variables[_hash].length - 1].matrix[_activities[k]][_roles[k]] */\n      0x00\n        /* \"Access_Matrix.sol\":1651:1657  _roles */\n      dup8\n        /* \"Access_Matrix.sol\":1658:1659  k */\n      dup5\n        /* \"Access_Matrix.sol\":1651:1660  _roles[k] */\n      dup2\n      mload\n      dup2\n      lt\n      tag_162\n      jumpi\n      invalid\n    tag_162:\n      0x20\n      mul\n      0x20\n      add\n      add\n      mload\n        /* \"Access_Matrix.sol\":1582:1661  variables[_hash][variables[_hash].length - 1].matrix[_activities[k]][_roles[k]] */\n      0xffffffffffffffffffffffffffffffffffffffff\n      and\n      0xffffffffffffffffffffffffffffffffffffffff\n      and\n      dup2\n      mstore\n      0x20\n      add\n      swap1\n      dup2\n      mstore\n      0x20\n      add\n      0x00\n      keccak256\n      0x00\n        /* \"Access_Matrix.sol\":1582:1672  variables[_hash][variables[_hash].length - 1].matrix[_activities[k]][_roles[k]] = _vals[k] */\n      0x0100\n      exp\n      dup2\n      sload\n      dup2\n      0xff\n      mul\n      not\n      and\n      swap1\n      dup4\n      0xff\n      and\n      mul\n      or\n      swap1\n      sstore\n      pop\n        /* \"Access_Matrix.sol\":1567:1570  k++ */\n      dup1\n      dup1\n      0x01\n      add\n      swap2\n      pop\n      pop\n        /* \"Access_Matrix.sol\":1533:1682  for(uint k = 0; k < nbOfElements; k++) {... */\n      jump(tag_151)\n    tag_152:\n      pop\n        /* \"Access_Matrix.sol\":1159:1688  function uploadMatrix(string memory _hash, string memory _newName, string[] memory _activities, address[] memory _roles, uint8[] memory _vals, uint nbOfElements) public {... */\n      pop\n      pop\n      pop\n      pop\n      pop\n      pop\n      pop\n      jump\t// out\n        /* \"Access_Matrix.sol\":1000:1153  function getVariableName(string memory _hash, uint index) public view returns (string memory _varName) {... */\n    tag_64:\n        /* \"Access_Matrix.sol\":1079:1101  string memory _varName */\n      0x60\n        /* \"Access_Matrix.sol\":1118:1127  variables */\n      0x00\n        /* \"Access_Matrix.sol\":1128:1133  _hash */\n      dup4\n        /* \"Access_Matrix.sol\":1118:1134  variables[_hash] */\n      mload(0x40)\n      tag_164\n      swap2\n      swap1\n      jump(tag_69)\n    tag_164:\n      swap1\n      dup2\n      mstore\n      0x20\n      add\n      mload(0x40)\n      dup1\n      swap2\n      sub\n      swap1\n      keccak256\n        /* \"Access_Matrix.sol\":1135:1140  index */\n      dup3\n        /* \"Access_Matrix.sol\":1118:1141  variables[_hash][index] */\n      dup2\n      sload\n      dup2\n      lt\n      tag_165\n      jumpi\n      invalid\n    tag_165:\n      swap1\n      0x00\n      mstore\n      keccak256(0x00, 0x20)\n      swap1\n      0x05\n      mul\n      add\n        /* \"Access_Matrix.sol\":1118:1146  variables[_hash][index].name */\n      0x04\n      add\n        /* \"Access_Matrix.sol\":1111:1146  return variables[_hash][index].name */\n      dup1\n      sload\n      0x01\n      dup2\n      0x01\n      and\n      iszero\n      0x0100\n      mul\n      sub\n      and\n      0x02\n      swap1\n      div\n      dup1\n      0x1f\n      add\n      0x20\n      dup1\n      swap2\n      div\n      mul\n      0x20\n      add\n      mload(0x40)\n      swap1\n      dup2\n      add\n      0x40\n      mstore\n      dup1\n      swap3\n      swap2\n      swap1\n      dup2\n      dup2\n      mstore\n      0x20\n      add\n      dup3\n      dup1\n      sload\n      0x01\n      dup2\n      0x01\n      and\n      iszero\n      0x0100\n      mul\n      sub\n      and\n      0x02\n      swap1\n      div\n      dup1\n      iszero\n      tag_167\n      jumpi\n      dup1\n      0x1f\n      lt\n      tag_168\n      jumpi\n      0x0100\n      dup1\n      dup4\n      sload\n      div\n      mul\n      dup4\n      mstore\n      swap2\n      0x20\n      add\n      swap2\n      jump(tag_167)\n    tag_168:\n      dup3\n      add\n      swap2\n      swap1\n      0x00\n      mstore\n      keccak256(0x00, 0x20)\n      swap1\n    tag_169:\n      dup2\n      sload\n      dup2\n      mstore\n      swap1\n      0x01\n      add\n      swap1\n      0x20\n      add\n      dup1\n      dup4\n      gt\n      tag_169\n      jumpi\n      dup3\n      swap1\n      sub\n      0x1f\n      and\n      dup3\n      add\n      swap2\n    tag_167:\n      pop\n      pop\n      pop\n      pop\n      pop\n      swap1\n      pop\n        /* \"Access_Matrix.sol\":1000:1153  function getVariableName(string memory _hash, uint index) public view returns (string memory _varName) {... */\n      swap3\n      swap2\n      pop\n      pop\n      jump\t// out\n        /* \"Access_Matrix.sol\":94:3839  contract Access_matrix {... */\n    tag_88:\n      dup3\n      dup1\n      sload\n      0x01\n      dup2\n      0x01\n      and\n      iszero\n      0x0100\n      mul\n      sub\n      and\n      0x02\n      swap1\n      div\n      swap1\n      0x00\n      mstore\n      keccak256(0x00, 0x20)\n      swap1\n      0x1f\n      add\n      0x20\n      swap1\n      div\n      dup2\n      add\n      swap3\n      dup3\n      0x1f\n      lt\n      tag_171\n      jumpi\n      dup1\n      mload\n      not(0xff)\n      and\n      dup4\n      dup1\n      add\n      or\n      dup6\n      sstore\n      jump(tag_170)\n    tag_171:\n      dup3\n      dup1\n      add\n      0x01\n      add\n      dup6\n      sstore\n      dup3\n      iszero\n      tag_170\n      jumpi\n      swap2\n      dup3\n      add\n    tag_172:\n      dup3\n      dup2\n      gt\n      iszero\n      tag_173\n      jumpi\n      dup3\n      mload\n      dup3\n      sstore\n      swap2\n      0x20\n      add\n      swap2\n      swap1\n      0x01\n      add\n      swap1\n      jump(tag_172)\n    tag_173:\n    tag_170:\n      pop\n      swap1\n      pop\n      tag_174\n      swap2\n      swap1\n      tag_175\n      jump\t// in\n    tag_174:\n      pop\n      swap1\n      jump\t// out\n    tag_142:\n      mload(0x40)\n      dup1\n      0x80\n      add\n      0x40\n      mstore\n      dup1\n      0x60\n      dup2\n      mstore\n      0x20\n      add\n      0x60\n      dup2\n      mstore\n      0x20\n      add\n      and(0xffffffff, 0x00)\n      dup2\n      mstore\n      0x20\n      add\n      0x60\n      dup2\n      mstore\n      pop\n      swap1\n      jump\t// out\n    tag_146:\n      dup3\n      dup1\n      sload\n      dup3\n      dup3\n      sstore\n      swap1\n      0x00\n      mstore\n      keccak256(0x00, 0x20)\n      swap1\n      dup2\n      add\n      swap3\n      dup3\n      iszero\n      tag_176\n      jumpi\n      swap2\n      0x20\n      mul\n      dup3\n      add\n    tag_177:\n      dup3\n      dup2\n      gt\n      iszero\n      tag_178\n      jumpi\n      dup3\n      mload\n      dup3\n      swap1\n      dup1\n      mload\n      swap1\n      0x20\n      add\n      swap1\n      tag_179\n      swap3\n      swap2\n      swap1\n      tag_150\n      jump\t// in\n    tag_179:\n      pop\n      swap2\n      0x20\n      add\n      swap2\n      swap1\n      0x01\n      add\n      swap1\n      jump(tag_177)\n    tag_178:\n    tag_176:\n      pop\n      swap1\n      pop\n      tag_180\n      swap2\n      swap1\n      tag_181\n      jump\t// in\n    tag_180:\n      pop\n      swap1\n      jump\t// out\n    tag_148:\n      dup3\n      dup1\n      sload\n      dup3\n      dup3\n      sstore\n      swap1\n      0x00\n      mstore\n      keccak256(0x00, 0x20)\n      swap1\n      dup2\n      add\n      swap3\n      dup3\n      iszero\n      tag_182\n      jumpi\n      swap2\n      0x20\n      mul\n      dup3\n      add\n    tag_183:\n      dup3\n      dup2\n      gt\n      iszero\n      tag_184\n      jumpi\n      dup3\n      mload\n      dup3\n      exp(0x0100, 0x00)\n      dup2\n      sload\n      dup2\n      0xffffffffffffffffffffffffffffffffffffffff\n      mul\n      not\n      and\n      swap1\n      dup4\n      0xffffffffffffffffffffffffffffffffffffffff\n      and\n      mul\n      or\n      swap1\n      sstore\n      pop\n      swap2\n      0x20\n      add\n      swap2\n      swap1\n      0x01\n      add\n      swap1\n      jump(tag_183)\n    tag_184:\n    tag_182:\n      pop\n      swap1\n      pop\n      tag_185\n      swap2\n      swap1\n      tag_186\n      jump\t// in\n    tag_185:\n      pop\n      swap1\n      jump\t// out\n    tag_150:\n      dup3\n      dup1\n      sload\n      0x01\n      dup2\n      0x01\n      and\n      iszero\n      0x0100\n      mul\n      sub\n      and\n      0x02\n      swap1\n      div\n      swap1\n      0x00\n      mstore\n      keccak256(0x00, 0x20)\n      swap1\n      0x1f\n      add\n      0x20\n      swap1\n      div\n      dup2\n      add\n      swap3\n      dup3\n      0x1f\n      lt\n      tag_188\n      jumpi\n      dup1\n      mload\n      not(0xff)\n      and\n      dup4\n      dup1\n      add\n      or\n      dup6\n      sstore\n      jump(tag_187)\n    tag_188:\n      dup3\n      dup1\n      add\n      0x01\n      add\n      dup6\n      sstore\n      dup3\n      iszero\n      tag_187\n      jumpi\n      swap2\n      dup3\n      add\n    tag_189:\n      dup3\n      dup2\n      gt\n      iszero\n      tag_190\n      jumpi\n      dup3\n      mload\n      dup3\n      sstore\n      swap2\n      0x20\n      add\n      swap2\n      swap1\n      0x01\n      add\n      swap1\n      jump(tag_189)\n    tag_190:\n    tag_187:\n      pop\n      swap1\n      pop\n      tag_191\n      swap2\n      swap1\n      tag_175\n      jump\t// in\n    tag_191:\n      pop\n      swap1\n      jump\t// out\n    tag_175:\n      tag_192\n      swap2\n      swap1\n    tag_193:\n      dup1\n      dup3\n      gt\n      iszero\n      tag_194\n      jumpi\n      0x00\n      dup2\n      0x00\n      swap1\n      sstore\n      pop\n      0x01\n      add\n      jump(tag_193)\n    tag_194:\n      pop\n      swap1\n      jump\n    tag_192:\n      swap1\n      jump\t// out\n    tag_181:\n      tag_195\n      swap2\n      swap1\n    tag_196:\n      dup1\n      dup3\n      gt\n      iszero\n      tag_197\n      jumpi\n      0x00\n      dup2\n      dup2\n      tag_198\n      swap2\n      swap1\n      tag_199\n      jump\t// in\n    tag_198:\n      pop\n      0x01\n      add\n      jump(tag_196)\n    tag_197:\n      pop\n      swap1\n      jump\n    tag_195:\n      swap1\n      jump\t// out\n    tag_186:\n      tag_200\n      swap2\n      swap1\n    tag_201:\n      dup1\n      dup3\n      gt\n      iszero\n      tag_202\n      jumpi\n      0x00\n      dup2\n      dup2\n      0x0100\n      exp\n      dup2\n      sload\n      swap1\n      0xffffffffffffffffffffffffffffffffffffffff\n      mul\n      not\n      and\n      swap1\n      sstore\n      pop\n      0x01\n      add\n      jump(tag_201)\n    tag_202:\n      pop\n      swap1\n      jump\n    tag_200:\n      swap1\n      jump\t// out\n    tag_199:\n      pop\n      dup1\n      sload\n      0x01\n      dup2\n      0x01\n      and\n      iszero\n      0x0100\n      mul\n      sub\n      and\n      0x02\n      swap1\n      div\n      0x00\n      dup3\n      sstore\n      dup1\n      0x1f\n      lt\n      tag_204\n      jumpi\n      pop\n      jump(tag_203)\n    tag_204:\n      0x1f\n      add\n      0x20\n      swap1\n      div\n      swap1\n      0x00\n      mstore\n      keccak256(0x00, 0x20)\n      swap1\n      dup2\n      add\n      swap1\n      tag_205\n      swap2\n      swap1\n      tag_175\n      jump\t// in\n    tag_205:\n    tag_203:\n      pop\n      jump\t// out\n        /* \"--CODEGEN--\":5:135   */\n    tag_207:\n      0x00\n        /* \"--CODEGEN--\":85:91   */\n      dup2\n        /* \"--CODEGEN--\":72:92   */\n      calldataload\n        /* \"--CODEGEN--\":63:92   */\n      swap1\n      pop\n        /* \"--CODEGEN--\":97:130   */\n      tag_208\n        /* \"--CODEGEN--\":124:129   */\n      dup2\n        /* \"--CODEGEN--\":97:130   */\n      jump(tag_209)\n    tag_208:\n        /* \"--CODEGEN--\":57:135   */\n      swap3\n      swap2\n      pop\n      pop\n      jump\n        /* \"--CODEGEN--\":160:867   */\n    tag_210:\n      0x00\n        /* \"--CODEGEN--\":277:280   */\n      dup3\n        /* \"--CODEGEN--\":270:274   */\n      0x1f\n        /* \"--CODEGEN--\":262:268   */\n      dup4\n        /* \"--CODEGEN--\":258:275   */\n      add\n        /* \"--CODEGEN--\":254:281   */\n      slt\n        /* \"--CODEGEN--\":244:246   */\n      tag_211\n      jumpi\n        /* \"--CODEGEN--\":295:296   */\n      0x00\n        /* \"--CODEGEN--\":292:293   */\n      dup1\n        /* \"--CODEGEN--\":285:297   */\n      revert\n        /* \"--CODEGEN--\":244:246   */\n    tag_211:\n        /* \"--CODEGEN--\":332:338   */\n      dup2\n        /* \"--CODEGEN--\":319:339   */\n      calldataload\n        /* \"--CODEGEN--\":354:434   */\n      tag_212\n        /* \"--CODEGEN--\":369:433   */\n      tag_213\n        /* \"--CODEGEN--\":426:432   */\n      dup3\n        /* \"--CODEGEN--\":369:433   */\n      jump(tag_214)\n    tag_213:\n        /* \"--CODEGEN--\":354:434   */\n      jump(tag_215)\n    tag_212:\n        /* \"--CODEGEN--\":345:434   */\n      swap2\n      pop\n        /* \"--CODEGEN--\":451:456   */\n      dup2\n        /* \"--CODEGEN--\":476:482   */\n      dup2\n        /* \"--CODEGEN--\":469:474   */\n      dup4\n        /* \"--CODEGEN--\":462:483   */\n      mstore\n        /* \"--CODEGEN--\":506:510   */\n      0x20\n        /* \"--CODEGEN--\":498:504   */\n      dup5\n        /* \"--CODEGEN--\":494:511   */\n      add\n        /* \"--CODEGEN--\":484:511   */\n      swap4\n      pop\n        /* \"--CODEGEN--\":528:532   */\n      0x20\n        /* \"--CODEGEN--\":523:526   */\n      dup2\n        /* \"--CODEGEN--\":519:533   */\n      add\n        /* \"--CODEGEN--\":512:533   */\n      swap1\n      pop\n        /* \"--CODEGEN--\":581:587   */\n      dup4\n        /* \"--CODEGEN--\":628:631   */\n      dup6\n        /* \"--CODEGEN--\":620:624   */\n      0x20\n        /* \"--CODEGEN--\":612:618   */\n      dup5\n        /* \"--CODEGEN--\":608:625   */\n      mul\n        /* \"--CODEGEN--\":603:606   */\n      dup3\n        /* \"--CODEGEN--\":599:626   */\n      add\n        /* \"--CODEGEN--\":596:632   */\n      gt\n        /* \"--CODEGEN--\":593:595   */\n      iszero\n      tag_216\n      jumpi\n        /* \"--CODEGEN--\":645:646   */\n      0x00\n        /* \"--CODEGEN--\":642:643   */\n      dup1\n        /* \"--CODEGEN--\":635:647   */\n      revert\n        /* \"--CODEGEN--\":593:595   */\n    tag_216:\n        /* \"--CODEGEN--\":670:671   */\n      0x00\n        /* \"--CODEGEN--\":655:861   */\n    tag_217:\n        /* \"--CODEGEN--\":680:686   */\n      dup4\n        /* \"--CODEGEN--\":677:678   */\n      dup2\n        /* \"--CODEGEN--\":674:687   */\n      lt\n        /* \"--CODEGEN--\":655:861   */\n      iszero\n      tag_219\n      jumpi\n        /* \"--CODEGEN--\":738:741   */\n      dup2\n        /* \"--CODEGEN--\":760:797   */\n      tag_220\n        /* \"--CODEGEN--\":793:796   */\n      dup9\n        /* \"--CODEGEN--\":781:791   */\n      dup3\n        /* \"--CODEGEN--\":760:797   */\n      jump(tag_207)\n    tag_220:\n        /* \"--CODEGEN--\":755:758   */\n      dup5\n        /* \"--CODEGEN--\":748:798   */\n      mstore\n        /* \"--CODEGEN--\":821:825   */\n      0x20\n        /* \"--CODEGEN--\":816:819   */\n      dup5\n        /* \"--CODEGEN--\":812:826   */\n      add\n        /* \"--CODEGEN--\":805:826   */\n      swap4\n      pop\n        /* \"--CODEGEN--\":849:853   */\n      0x20\n        /* \"--CODEGEN--\":844:847   */\n      dup4\n        /* \"--CODEGEN--\":840:854   */\n      add\n        /* \"--CODEGEN--\":833:854   */\n      swap3\n      pop\n        /* \"--CODEGEN--\":712:861   */\n      pop\n        /* \"--CODEGEN--\":702:703   */\n      0x01\n        /* \"--CODEGEN--\":699:700   */\n      dup2\n        /* \"--CODEGEN--\":695:704   */\n      add\n        /* \"--CODEGEN--\":690:704   */\n      swap1\n      pop\n        /* \"--CODEGEN--\":655:861   */\n      jump(tag_217)\n    tag_219:\n        /* \"--CODEGEN--\":659:673   */\n      pop\n        /* \"--CODEGEN--\":237:867   */\n      pop\n      pop\n      pop\n      swap3\n      swap2\n      pop\n      pop\n      jump\n        /* \"--CODEGEN--\":892:1588   */\n    tag_221:\n      0x00\n        /* \"--CODEGEN--\":1015:1018   */\n      dup3\n        /* \"--CODEGEN--\":1008:1012   */\n      0x1f\n        /* \"--CODEGEN--\":1000:1006   */\n      dup4\n        /* \"--CODEGEN--\":996:1013   */\n      add\n        /* \"--CODEGEN--\":992:1019   */\n      slt\n        /* \"--CODEGEN--\":982:984   */\n      tag_222\n      jumpi\n        /* \"--CODEGEN--\":1033:1034   */\n      0x00\n        /* \"--CODEGEN--\":1030:1031   */\n      dup1\n        /* \"--CODEGEN--\":1023:1035   */\n      revert\n        /* \"--CODEGEN--\":982:984   */\n    tag_222:\n        /* \"--CODEGEN--\":1070:1076   */\n      dup2\n        /* \"--CODEGEN--\":1057:1077   */\n      calldataload\n        /* \"--CODEGEN--\":1092:1178   */\n      tag_223\n        /* \"--CODEGEN--\":1107:1177   */\n      tag_224\n        /* \"--CODEGEN--\":1170:1176   */\n      dup3\n        /* \"--CODEGEN--\":1107:1177   */\n      jump(tag_225)\n    tag_224:\n        /* \"--CODEGEN--\":1092:1178   */\n      jump(tag_215)\n    tag_223:\n        /* \"--CODEGEN--\":1083:1178   */\n      swap2\n      pop\n        /* \"--CODEGEN--\":1195:1200   */\n      dup2\n        /* \"--CODEGEN--\":1220:1226   */\n      dup2\n        /* \"--CODEGEN--\":1213:1218   */\n      dup4\n        /* \"--CODEGEN--\":1206:1227   */\n      mstore\n        /* \"--CODEGEN--\":1250:1254   */\n      0x20\n        /* \"--CODEGEN--\":1242:1248   */\n      dup5\n        /* \"--CODEGEN--\":1238:1255   */\n      add\n        /* \"--CODEGEN--\":1228:1255   */\n      swap4\n      pop\n        /* \"--CODEGEN--\":1272:1276   */\n      0x20\n        /* \"--CODEGEN--\":1267:1270   */\n      dup2\n        /* \"--CODEGEN--\":1263:1277   */\n      add\n        /* \"--CODEGEN--\":1256:1277   */\n      swap1\n      pop\n        /* \"--CODEGEN--\":1325:1331   */\n      dup4\n        /* \"--CODEGEN--\":1358:1359   */\n      0x00\n        /* \"--CODEGEN--\":1343:1582   */\n    tag_226:\n        /* \"--CODEGEN--\":1368:1374   */\n      dup4\n        /* \"--CODEGEN--\":1365:1366   */\n      dup2\n        /* \"--CODEGEN--\":1362:1375   */\n      lt\n        /* \"--CODEGEN--\":1343:1582   */\n      iszero\n      tag_228\n      jumpi\n        /* \"--CODEGEN--\":1451:1454   */\n      dup2\n        /* \"--CODEGEN--\":1438:1455   */\n      calldataload\n        /* \"--CODEGEN--\":1430:1436   */\n      dup7\n        /* \"--CODEGEN--\":1426:1456   */\n      add\n        /* \"--CODEGEN--\":1475:1518   */\n      tag_229\n        /* \"--CODEGEN--\":1514:1517   */\n      dup9\n        /* \"--CODEGEN--\":1502:1512   */\n      dup3\n        /* \"--CODEGEN--\":1475:1518   */\n      jump(tag_230)\n    tag_229:\n        /* \"--CODEGEN--\":1470:1473   */\n      dup5\n        /* \"--CODEGEN--\":1463:1519   */\n      mstore\n        /* \"--CODEGEN--\":1542:1546   */\n      0x20\n        /* \"--CODEGEN--\":1537:1540   */\n      dup5\n        /* \"--CODEGEN--\":1533:1547   */\n      add\n        /* \"--CODEGEN--\":1526:1547   */\n      swap4\n      pop\n        /* \"--CODEGEN--\":1570:1574   */\n      0x20\n        /* \"--CODEGEN--\":1565:1568   */\n      dup4\n        /* \"--CODEGEN--\":1561:1575   */\n      add\n        /* \"--CODEGEN--\":1554:1575   */\n      swap3\n      pop\n        /* \"--CODEGEN--\":1400:1582   */\n      pop\n        /* \"--CODEGEN--\":1390:1391   */\n      0x01\n        /* \"--CODEGEN--\":1387:1388   */\n      dup2\n        /* \"--CODEGEN--\":1383:1392   */\n      add\n        /* \"--CODEGEN--\":1378:1392   */\n      swap1\n      pop\n        /* \"--CODEGEN--\":1343:1582   */\n      jump(tag_226)\n    tag_228:\n        /* \"--CODEGEN--\":1347:1361   */\n      pop\n        /* \"--CODEGEN--\":975:1588   */\n      pop\n      pop\n      pop\n      swap3\n      swap2\n      pop\n      pop\n      jump\n        /* \"--CODEGEN--\":1612:2313   */\n    tag_231:\n      0x00\n        /* \"--CODEGEN--\":1727:1730   */\n      dup3\n        /* \"--CODEGEN--\":1720:1724   */\n      0x1f\n        /* \"--CODEGEN--\":1712:1718   */\n      dup4\n        /* \"--CODEGEN--\":1708:1725   */\n      add\n        /* \"--CODEGEN--\":1704:1731   */\n      slt\n        /* \"--CODEGEN--\":1694:1696   */\n      tag_232\n      jumpi\n        /* \"--CODEGEN--\":1745:1746   */\n      0x00\n        /* \"--CODEGEN--\":1742:1743   */\n      dup1\n        /* \"--CODEGEN--\":1735:1747   */\n      revert\n        /* \"--CODEGEN--\":1694:1696   */\n    tag_232:\n        /* \"--CODEGEN--\":1782:1788   */\n      dup2\n        /* \"--CODEGEN--\":1769:1789   */\n      calldataload\n        /* \"--CODEGEN--\":1804:1882   */\n      tag_233\n        /* \"--CODEGEN--\":1819:1881   */\n      tag_234\n        /* \"--CODEGEN--\":1874:1880   */\n      dup3\n        /* \"--CODEGEN--\":1819:1881   */\n      jump(tag_235)\n    tag_234:\n        /* \"--CODEGEN--\":1804:1882   */\n      jump(tag_215)\n    tag_233:\n        /* \"--CODEGEN--\":1795:1882   */\n      swap2\n      pop\n        /* \"--CODEGEN--\":1899:1904   */\n      dup2\n        /* \"--CODEGEN--\":1924:1930   */\n      dup2\n        /* \"--CODEGEN--\":1917:1922   */\n      dup4\n        /* \"--CODEGEN--\":1910:1931   */\n      mstore\n        /* \"--CODEGEN--\":1954:1958   */\n      0x20\n        /* \"--CODEGEN--\":1946:1952   */\n      dup5\n        /* \"--CODEGEN--\":1942:1959   */\n      add\n        /* \"--CODEGEN--\":1932:1959   */\n      swap4\n      pop\n        /* \"--CODEGEN--\":1976:1980   */\n      0x20\n        /* \"--CODEGEN--\":1971:1974   */\n      dup2\n        /* \"--CODEGEN--\":1967:1981   */\n      add\n        /* \"--CODEGEN--\":1960:1981   */\n      swap1\n      pop\n        /* \"--CODEGEN--\":2029:2035   */\n      dup4\n        /* \"--CODEGEN--\":2076:2079   */\n      dup6\n        /* \"--CODEGEN--\":2068:2072   */\n      0x20\n        /* \"--CODEGEN--\":2060:2066   */\n      dup5\n        /* \"--CODEGEN--\":2056:2073   */\n      mul\n        /* \"--CODEGEN--\":2051:2054   */\n      dup3\n        /* \"--CODEGEN--\":2047:2074   */\n      add\n        /* \"--CODEGEN--\":2044:2080   */\n      gt\n        /* \"--CODEGEN--\":2041:2043   */\n      iszero\n      tag_236\n      jumpi\n        /* \"--CODEGEN--\":2093:2094   */\n      0x00\n        /* \"--CODEGEN--\":2090:2091   */\n      dup1\n        /* \"--CODEGEN--\":2083:2095   */\n      revert\n        /* \"--CODEGEN--\":2041:2043   */\n    tag_236:\n        /* \"--CODEGEN--\":2118:2119   */\n      0x00\n        /* \"--CODEGEN--\":2103:2307   */\n    tag_237:\n        /* \"--CODEGEN--\":2128:2134   */\n      dup4\n        /* \"--CODEGEN--\":2125:2126   */\n      dup2\n        /* \"--CODEGEN--\":2122:2135   */\n      lt\n        /* \"--CODEGEN--\":2103:2307   */\n      iszero\n      tag_239\n      jumpi\n        /* \"--CODEGEN--\":2186:2189   */\n      dup2\n        /* \"--CODEGEN--\":2208:2243   */\n      tag_240\n        /* \"--CODEGEN--\":2239:2242   */\n      dup9\n        /* \"--CODEGEN--\":2227:2237   */\n      dup3\n        /* \"--CODEGEN--\":2208:2243   */\n      jump(tag_241)\n    tag_240:\n        /* \"--CODEGEN--\":2203:2206   */\n      dup5\n        /* \"--CODEGEN--\":2196:2244   */\n      mstore\n        /* \"--CODEGEN--\":2267:2271   */\n      0x20\n        /* \"--CODEGEN--\":2262:2265   */\n      dup5\n        /* \"--CODEGEN--\":2258:2272   */\n      add\n        /* \"--CODEGEN--\":2251:2272   */\n      swap4\n      pop\n        /* \"--CODEGEN--\":2295:2299   */\n      0x20\n        /* \"--CODEGEN--\":2290:2293   */\n      dup4\n        /* \"--CODEGEN--\":2286:2300   */\n      add\n        /* \"--CODEGEN--\":2279:2300   */\n      swap3\n      pop\n        /* \"--CODEGEN--\":2160:2307   */\n      pop\n        /* \"--CODEGEN--\":2150:2151   */\n      0x01\n        /* \"--CODEGEN--\":2147:2148   */\n      dup2\n        /* \"--CODEGEN--\":2143:2152   */\n      add\n        /* \"--CODEGEN--\":2138:2152   */\n      swap1\n      pop\n        /* \"--CODEGEN--\":2103:2307   */\n      jump(tag_237)\n    tag_239:\n        /* \"--CODEGEN--\":2107:2121   */\n      pop\n        /* \"--CODEGEN--\":1687:2313   */\n      pop\n      pop\n      pop\n      swap3\n      swap2\n      pop\n      pop\n      jump\n        /* \"--CODEGEN--\":2322:2756   */\n    tag_230:\n      0x00\n        /* \"--CODEGEN--\":2420:2423   */\n      dup3\n        /* \"--CODEGEN--\":2413:2417   */\n      0x1f\n        /* \"--CODEGEN--\":2405:2411   */\n      dup4\n        /* \"--CODEGEN--\":2401:2418   */\n      add\n        /* \"--CODEGEN--\":2397:2424   */\n      slt\n        /* \"--CODEGEN--\":2387:2389   */\n      tag_242\n      jumpi\n        /* \"--CODEGEN--\":2438:2439   */\n      0x00\n        /* \"--CODEGEN--\":2435:2436   */\n      dup1\n        /* \"--CODEGEN--\":2428:2440   */\n      revert\n        /* \"--CODEGEN--\":2387:2389   */\n    tag_242:\n        /* \"--CODEGEN--\":2475:2481   */\n      dup2\n        /* \"--CODEGEN--\":2462:2482   */\n      calldataload\n        /* \"--CODEGEN--\":2497:2558   */\n      tag_243\n        /* \"--CODEGEN--\":2512:2557   */\n      tag_244\n        /* \"--CODEGEN--\":2550:2556   */\n      dup3\n        /* \"--CODEGEN--\":2512:2557   */\n      jump(tag_245)\n    tag_244:\n        /* \"--CODEGEN--\":2497:2558   */\n      jump(tag_215)\n    tag_243:\n        /* \"--CODEGEN--\":2488:2558   */\n      swap2\n      pop\n        /* \"--CODEGEN--\":2578:2584   */\n      dup1\n        /* \"--CODEGEN--\":2571:2576   */\n      dup3\n        /* \"--CODEGEN--\":2564:2585   */\n      mstore\n        /* \"--CODEGEN--\":2614:2618   */\n      0x20\n        /* \"--CODEGEN--\":2606:2612   */\n      dup4\n        /* \"--CODEGEN--\":2602:2619   */\n      add\n        /* \"--CODEGEN--\":2647:2651   */\n      0x20\n        /* \"--CODEGEN--\":2640:2645   */\n      dup4\n        /* \"--CODEGEN--\":2636:2652   */\n      add\n        /* \"--CODEGEN--\":2682:2685   */\n      dup6\n        /* \"--CODEGEN--\":2673:2679   */\n      dup4\n        /* \"--CODEGEN--\":2668:2671   */\n      dup4\n        /* \"--CODEGEN--\":2664:2680   */\n      add\n        /* \"--CODEGEN--\":2661:2686   */\n      gt\n        /* \"--CODEGEN--\":2658:2660   */\n      iszero\n      tag_246\n      jumpi\n        /* \"--CODEGEN--\":2699:2700   */\n      0x00\n        /* \"--CODEGEN--\":2696:2697   */\n      dup1\n        /* \"--CODEGEN--\":2689:2701   */\n      revert\n        /* \"--CODEGEN--\":2658:2660   */\n    tag_246:\n        /* \"--CODEGEN--\":2709:2750   */\n      tag_247\n        /* \"--CODEGEN--\":2743:2749   */\n      dup4\n        /* \"--CODEGEN--\":2738:2741   */\n      dup3\n        /* \"--CODEGEN--\":2733:2736   */\n      dup5\n        /* \"--CODEGEN--\":2709:2750   */\n      jump(tag_248)\n    tag_247:\n        /* \"--CODEGEN--\":2380:2756   */\n      pop\n      pop\n      pop\n      swap3\n      swap2\n      pop\n      pop\n      jump\n        /* \"--CODEGEN--\":2765:3207   */\n    tag_249:\n      0x00\n        /* \"--CODEGEN--\":2867:2870   */\n      dup3\n        /* \"--CODEGEN--\":2860:2864   */\n      0x1f\n        /* \"--CODEGEN--\":2852:2858   */\n      dup4\n        /* \"--CODEGEN--\":2848:2865   */\n      add\n        /* \"--CODEGEN--\":2844:2871   */\n      slt\n        /* \"--CODEGEN--\":2834:2836   */\n      tag_250\n      jumpi\n        /* \"--CODEGEN--\":2885:2886   */\n      0x00\n        /* \"--CODEGEN--\":2882:2883   */\n      dup1\n        /* \"--CODEGEN--\":2875:2887   */\n      revert\n        /* \"--CODEGEN--\":2834:2836   */\n    tag_250:\n        /* \"--CODEGEN--\":2922:2928   */\n      dup2\n        /* \"--CODEGEN--\":2909:2929   */\n      calldataload\n        /* \"--CODEGEN--\":2944:3009   */\n      tag_251\n        /* \"--CODEGEN--\":2959:3008   */\n      tag_252\n        /* \"--CODEGEN--\":3001:3007   */\n      dup3\n        /* \"--CODEGEN--\":2959:3008   */\n      jump(tag_253)\n    tag_252:\n        /* \"--CODEGEN--\":2944:3009   */\n      jump(tag_215)\n    tag_251:\n        /* \"--CODEGEN--\":2935:3009   */\n      swap2\n      pop\n        /* \"--CODEGEN--\":3029:3035   */\n      dup1\n        /* \"--CODEGEN--\":3022:3027   */\n      dup3\n        /* \"--CODEGEN--\":3015:3036   */\n      mstore\n        /* \"--CODEGEN--\":3065:3069   */\n      0x20\n        /* \"--CODEGEN--\":3057:3063   */\n      dup4\n        /* \"--CODEGEN--\":3053:3070   */\n      add\n        /* \"--CODEGEN--\":3098:3102   */\n      0x20\n        /* \"--CODEGEN--\":3091:3096   */\n      dup4\n        /* \"--CODEGEN--\":3087:3103   */\n      add\n        /* \"--CODEGEN--\":3133:3136   */\n      dup6\n        /* \"--CODEGEN--\":3124:3130   */\n      dup4\n        /* \"--CODEGEN--\":3119:3122   */\n      dup4\n        /* \"--CODEGEN--\":3115:3131   */\n      add\n        /* \"--CODEGEN--\":3112:3137   */\n      gt\n        /* \"--CODEGEN--\":3109:3111   */\n      iszero\n      tag_254\n      jumpi\n        /* \"--CODEGEN--\":3150:3151   */\n      0x00\n        /* \"--CODEGEN--\":3147:3148   */\n      dup1\n        /* \"--CODEGEN--\":3140:3152   */\n      revert\n        /* \"--CODEGEN--\":3109:3111   */\n    tag_254:\n        /* \"--CODEGEN--\":3160:3201   */\n      tag_255\n        /* \"--CODEGEN--\":3194:3200   */\n      dup4\n        /* \"--CODEGEN--\":3189:3192   */\n      dup3\n        /* \"--CODEGEN--\":3184:3187   */\n      dup5\n        /* \"--CODEGEN--\":3160:3201   */\n      jump(tag_248)\n    tag_255:\n        /* \"--CODEGEN--\":2827:3207   */\n      pop\n      pop\n      pop\n      swap3\n      swap2\n      pop\n      pop\n      jump\n        /* \"--CODEGEN--\":3215:3345   */\n    tag_256:\n      0x00\n        /* \"--CODEGEN--\":3295:3301   */\n      dup2\n        /* \"--CODEGEN--\":3282:3302   */\n      calldataload\n        /* \"--CODEGEN--\":3273:3302   */\n      swap1\n      pop\n        /* \"--CODEGEN--\":3307:3340   */\n      tag_257\n        /* \"--CODEGEN--\":3334:3339   */\n      dup2\n        /* \"--CODEGEN--\":3307:3340   */\n      jump(tag_258)\n    tag_257:\n        /* \"--CODEGEN--\":3267:3345   */\n      swap3\n      swap2\n      pop\n      pop\n      jump\n        /* \"--CODEGEN--\":3352:3480   */\n    tag_259:\n      0x00\n        /* \"--CODEGEN--\":3431:3437   */\n      dup2\n        /* \"--CODEGEN--\":3418:3438   */\n      calldataload\n        /* \"--CODEGEN--\":3409:3438   */\n      swap1\n      pop\n        /* \"--CODEGEN--\":3443:3475   */\n      tag_260\n        /* \"--CODEGEN--\":3469:3474   */\n      dup2\n        /* \"--CODEGEN--\":3443:3475   */\n      jump(tag_261)\n    tag_260:\n        /* \"--CODEGEN--\":3403:3480   */\n      swap3\n      swap2\n      pop\n      pop\n      jump\n        /* \"--CODEGEN--\":3487:3613   */\n    tag_241:\n      0x00\n        /* \"--CODEGEN--\":3565:3571   */\n      dup2\n        /* \"--CODEGEN--\":3552:3572   */\n      calldataload\n        /* \"--CODEGEN--\":3543:3572   */\n      swap1\n      pop\n        /* \"--CODEGEN--\":3577:3608   */\n      tag_262\n        /* \"--CODEGEN--\":3602:3607   */\n      dup2\n        /* \"--CODEGEN--\":3577:3608   */\n      jump(tag_263)\n    tag_262:\n        /* \"--CODEGEN--\":3537:3613   */\n      swap3\n      swap2\n      pop\n      pop\n      jump\n        /* \"--CODEGEN--\":3620:3967   */\n    tag_43:\n      0x00\n        /* \"--CODEGEN--\":3734:3736   */\n      0x20\n        /* \"--CODEGEN--\":3722:3731   */\n      dup3\n        /* \"--CODEGEN--\":3713:3720   */\n      dup5\n        /* \"--CODEGEN--\":3709:3732   */\n      sub\n        /* \"--CODEGEN--\":3705:3737   */\n      slt\n        /* \"--CODEGEN--\":3702:3704   */\n      iszero\n      tag_264\n      jumpi\n        /* \"--CODEGEN--\":3750:3751   */\n      0x00\n        /* \"--CODEGEN--\":3747:3748   */\n      dup1\n        /* \"--CODEGEN--\":3740:3752   */\n      revert\n        /* \"--CODEGEN--\":3702:3704   */\n    tag_264:\n        /* \"--CODEGEN--\":3813:3814   */\n      0x00\n        /* \"--CODEGEN--\":3802:3811   */\n      dup3\n        /* \"--CODEGEN--\":3798:3815   */\n      add\n        /* \"--CODEGEN--\":3785:3816   */\n      calldataload\n        /* \"--CODEGEN--\":3836:3854   */\n      0xffffffffffffffff\n        /* \"--CODEGEN--\":3828:3834   */\n      dup2\n        /* \"--CODEGEN--\":3825:3855   */\n      gt\n        /* \"--CODEGEN--\":3822:3824   */\n      iszero\n      tag_265\n      jumpi\n        /* \"--CODEGEN--\":3868:3869   */\n      0x00\n        /* \"--CODEGEN--\":3865:3866   */\n      dup1\n        /* \"--CODEGEN--\":3858:3870   */\n      revert\n        /* \"--CODEGEN--\":3822:3824   */\n    tag_265:\n        /* \"--CODEGEN--\":3888:3951   */\n      tag_266\n        /* \"--CODEGEN--\":3943:3950   */\n      dup5\n        /* \"--CODEGEN--\":3934:3940   */\n      dup3\n        /* \"--CODEGEN--\":3923:3932   */\n      dup6\n        /* \"--CODEGEN--\":3919:3941   */\n      add\n        /* \"--CODEGEN--\":3888:3951   */\n      jump(tag_249)\n    tag_266:\n        /* \"--CODEGEN--\":3878:3951   */\n      swap2\n      pop\n        /* \"--CODEGEN--\":3764:3957   */\n      pop\n        /* \"--CODEGEN--\":3696:3967   */\n      swap3\n      swap2\n      pop\n      pop\n      jump\n        /* \"--CODEGEN--\":3974:5471   */\n    tag_60:\n      0x00\n      dup1\n      0x00\n      dup1\n      0x00\n      dup1\n        /* \"--CODEGEN--\":4262:4265   */\n      0xc0\n        /* \"--CODEGEN--\":4250:4259   */\n      dup8\n        /* \"--CODEGEN--\":4241:4248   */\n      dup10\n        /* \"--CODEGEN--\":4237:4260   */\n      sub\n        /* \"--CODEGEN--\":4233:4266   */\n      slt\n        /* \"--CODEGEN--\":4230:4232   */\n      iszero\n      tag_267\n      jumpi\n        /* \"--CODEGEN--\":4279:4280   */\n      0x00\n        /* \"--CODEGEN--\":4276:4277   */\n      dup1\n        /* \"--CODEGEN--\":4269:4281   */\n      revert\n        /* \"--CODEGEN--\":4230:4232   */\n    tag_267:\n        /* \"--CODEGEN--\":4342:4343   */\n      0x00\n        /* \"--CODEGEN--\":4331:4340   */\n      dup8\n        /* \"--CODEGEN--\":4327:4344   */\n      add\n        /* \"--CODEGEN--\":4314:4345   */\n      calldataload\n        /* \"--CODEGEN--\":4365:4383   */\n      0xffffffffffffffff\n        /* \"--CODEGEN--\":4357:4363   */\n      dup2\n        /* \"--CODEGEN--\":4354:4384   */\n      gt\n        /* \"--CODEGEN--\":4351:4353   */\n      iszero\n      tag_268\n      jumpi\n        /* \"--CODEGEN--\":4397:4398   */\n      0x00\n        /* \"--CODEGEN--\":4394:4395   */\n      dup1\n        /* \"--CODEGEN--\":4387:4399   */\n      revert\n        /* \"--CODEGEN--\":4351:4353   */\n    tag_268:\n        /* \"--CODEGEN--\":4417:4480   */\n      tag_269\n        /* \"--CODEGEN--\":4472:4479   */\n      dup10\n        /* \"--CODEGEN--\":4463:4469   */\n      dup3\n        /* \"--CODEGEN--\":4452:4461   */\n      dup11\n        /* \"--CODEGEN--\":4448:4470   */\n      add\n        /* \"--CODEGEN--\":4417:4480   */\n      jump(tag_249)\n    tag_269:\n        /* \"--CODEGEN--\":4407:4480   */\n      swap7\n      pop\n        /* \"--CODEGEN--\":4293:4486   */\n      pop\n        /* \"--CODEGEN--\":4545:4547   */\n      0x20\n        /* \"--CODEGEN--\":4534:4543   */\n      dup8\n        /* \"--CODEGEN--\":4530:4548   */\n      add\n        /* \"--CODEGEN--\":4517:4549   */\n      calldataload\n        /* \"--CODEGEN--\":4569:4587   */\n      0xffffffffffffffff\n        /* \"--CODEGEN--\":4561:4567   */\n      dup2\n        /* \"--CODEGEN--\":4558:4588   */\n      gt\n        /* \"--CODEGEN--\":4555:4557   */\n      iszero\n      tag_270\n      jumpi\n        /* \"--CODEGEN--\":4601:4602   */\n      0x00\n        /* \"--CODEGEN--\":4598:4599   */\n      dup1\n        /* \"--CODEGEN--\":4591:4603   */\n      revert\n        /* \"--CODEGEN--\":4555:4557   */\n    tag_270:\n        /* \"--CODEGEN--\":4621:4684   */\n      tag_271\n        /* \"--CODEGEN--\":4676:4683   */\n      dup10\n        /* \"--CODEGEN--\":4667:4673   */\n      dup3\n        /* \"--CODEGEN--\":4656:4665   */\n      dup11\n        /* \"--CODEGEN--\":4652:4674   */\n      add\n        /* \"--CODEGEN--\":4621:4684   */\n      jump(tag_249)\n    tag_271:\n        /* \"--CODEGEN--\":4611:4684   */\n      swap6\n      pop\n        /* \"--CODEGEN--\":4496:4690   */\n      pop\n        /* \"--CODEGEN--\":4749:4751   */\n      0x40\n        /* \"--CODEGEN--\":4738:4747   */\n      dup8\n        /* \"--CODEGEN--\":4734:4752   */\n      add\n        /* \"--CODEGEN--\":4721:4753   */\n      calldataload\n        /* \"--CODEGEN--\":4773:4791   */\n      0xffffffffffffffff\n        /* \"--CODEGEN--\":4765:4771   */\n      dup2\n        /* \"--CODEGEN--\":4762:4792   */\n      gt\n        /* \"--CODEGEN--\":4759:4761   */\n      iszero\n      tag_272\n      jumpi\n        /* \"--CODEGEN--\":4805:4806   */\n      0x00\n        /* \"--CODEGEN--\":4802:4803   */\n      dup1\n        /* \"--CODEGEN--\":4795:4807   */\n      revert\n        /* \"--CODEGEN--\":4759:4761   */\n    tag_272:\n        /* \"--CODEGEN--\":4825:4909   */\n      tag_273\n        /* \"--CODEGEN--\":4901:4908   */\n      dup10\n        /* \"--CODEGEN--\":4892:4898   */\n      dup3\n        /* \"--CODEGEN--\":4881:4890   */\n      dup11\n        /* \"--CODEGEN--\":4877:4899   */\n      add\n        /* \"--CODEGEN--\":4825:4909   */\n      jump(tag_221)\n    tag_273:\n        /* \"--CODEGEN--\":4815:4909   */\n      swap5\n      pop\n        /* \"--CODEGEN--\":4700:4915   */\n      pop\n        /* \"--CODEGEN--\":4974:4976   */\n      0x60\n        /* \"--CODEGEN--\":4963:4972   */\n      dup8\n        /* \"--CODEGEN--\":4959:4977   */\n      add\n        /* \"--CODEGEN--\":4946:4978   */\n      calldataload\n        /* \"--CODEGEN--\":4998:5016   */\n      0xffffffffffffffff\n        /* \"--CODEGEN--\":4990:4996   */\n      dup2\n        /* \"--CODEGEN--\":4987:5017   */\n      gt\n        /* \"--CODEGEN--\":4984:4986   */\n      iszero\n      tag_274\n      jumpi\n        /* \"--CODEGEN--\":5030:5031   */\n      0x00\n        /* \"--CODEGEN--\":5027:5028   */\n      dup1\n        /* \"--CODEGEN--\":5020:5032   */\n      revert\n        /* \"--CODEGEN--\":4984:4986   */\n    tag_274:\n        /* \"--CODEGEN--\":5050:5128   */\n      tag_275\n        /* \"--CODEGEN--\":5120:5127   */\n      dup10\n        /* \"--CODEGEN--\":5111:5117   */\n      dup3\n        /* \"--CODEGEN--\":5100:5109   */\n      dup11\n        /* \"--CODEGEN--\":5096:5118   */\n      add\n        /* \"--CODEGEN--\":5050:5128   */\n      jump(tag_210)\n    tag_275:\n        /* \"--CODEGEN--\":5040:5128   */\n      swap4\n      pop\n        /* \"--CODEGEN--\":4925:5134   */\n      pop\n        /* \"--CODEGEN--\":5193:5196   */\n      0x80\n        /* \"--CODEGEN--\":5182:5191   */\n      dup8\n        /* \"--CODEGEN--\":5178:5197   */\n      add\n        /* \"--CODEGEN--\":5165:5198   */\n      calldataload\n        /* \"--CODEGEN--\":5218:5236   */\n      0xffffffffffffffff\n        /* \"--CODEGEN--\":5210:5216   */\n      dup2\n        /* \"--CODEGEN--\":5207:5237   */\n      gt\n        /* \"--CODEGEN--\":5204:5206   */\n      iszero\n      tag_276\n      jumpi\n        /* \"--CODEGEN--\":5250:5251   */\n      0x00\n        /* \"--CODEGEN--\":5247:5248   */\n      dup1\n        /* \"--CODEGEN--\":5240:5252   */\n      revert\n        /* \"--CODEGEN--\":5204:5206   */\n    tag_276:\n        /* \"--CODEGEN--\":5270:5346   */\n      tag_277\n        /* \"--CODEGEN--\":5338:5345   */\n      dup10\n        /* \"--CODEGEN--\":5329:5335   */\n      dup3\n        /* \"--CODEGEN--\":5318:5327   */\n      dup11\n        /* \"--CODEGEN--\":5314:5336   */\n      add\n        /* \"--CODEGEN--\":5270:5346   */\n      jump(tag_231)\n    tag_277:\n        /* \"--CODEGEN--\":5260:5346   */\n      swap3\n      pop\n        /* \"--CODEGEN--\":5144:5352   */\n      pop\n        /* \"--CODEGEN--\":5383:5386   */\n      0xa0\n        /* \"--CODEGEN--\":5402:5455   */\n      tag_278\n        /* \"--CODEGEN--\":5447:5454   */\n      dup10\n        /* \"--CODEGEN--\":5438:5444   */\n      dup3\n        /* \"--CODEGEN--\":5427:5436   */\n      dup11\n        /* \"--CODEGEN--\":5423:5445   */\n      add\n        /* \"--CODEGEN--\":5402:5455   */\n      jump(tag_256)\n    tag_278:\n        /* \"--CODEGEN--\":5392:5455   */\n      swap2\n      pop\n        /* \"--CODEGEN--\":5362:5461   */\n      pop\n        /* \"--CODEGEN--\":4224:5471   */\n      swap3\n      swap6\n      pop\n      swap3\n      swap6\n      pop\n      swap3\n      swap6\n      jump\n        /* \"--CODEGEN--\":5478:5950   */\n    tag_32:\n      0x00\n      dup1\n        /* \"--CODEGEN--\":5609:5611   */\n      0x40\n        /* \"--CODEGEN--\":5597:5606   */\n      dup4\n        /* \"--CODEGEN--\":5588:5595   */\n      dup6\n        /* \"--CODEGEN--\":5584:5607   */\n      sub\n        /* \"--CODEGEN--\":5580:5612   */\n      slt\n        /* \"--CODEGEN--\":5577:5579   */\n      iszero\n      tag_279\n      jumpi\n        /* \"--CODEGEN--\":5625:5626   */\n      0x00\n        /* \"--CODEGEN--\":5622:5623   */\n      dup1\n        /* \"--CODEGEN--\":5615:5627   */\n      revert\n        /* \"--CODEGEN--\":5577:5579   */\n    tag_279:\n        /* \"--CODEGEN--\":5688:5689   */\n      0x00\n        /* \"--CODEGEN--\":5677:5686   */\n      dup4\n        /* \"--CODEGEN--\":5673:5690   */\n      add\n        /* \"--CODEGEN--\":5660:5691   */\n      calldataload\n        /* \"--CODEGEN--\":5711:5729   */\n      0xffffffffffffffff\n        /* \"--CODEGEN--\":5703:5709   */\n      dup2\n        /* \"--CODEGEN--\":5700:5730   */\n      gt\n        /* \"--CODEGEN--\":5697:5699   */\n      iszero\n      tag_280\n      jumpi\n        /* \"--CODEGEN--\":5743:5744   */\n      0x00\n        /* \"--CODEGEN--\":5740:5741   */\n      dup1\n        /* \"--CODEGEN--\":5733:5745   */\n      revert\n        /* \"--CODEGEN--\":5697:5699   */\n    tag_280:\n        /* \"--CODEGEN--\":5763:5826   */\n      tag_281\n        /* \"--CODEGEN--\":5818:5825   */\n      dup6\n        /* \"--CODEGEN--\":5809:5815   */\n      dup3\n        /* \"--CODEGEN--\":5798:5807   */\n      dup7\n        /* \"--CODEGEN--\":5794:5816   */\n      add\n        /* \"--CODEGEN--\":5763:5826   */\n      jump(tag_249)\n    tag_281:\n        /* \"--CODEGEN--\":5753:5826   */\n      swap3\n      pop\n        /* \"--CODEGEN--\":5639:5832   */\n      pop\n        /* \"--CODEGEN--\":5863:5865   */\n      0x20\n        /* \"--CODEGEN--\":5881:5934   */\n      tag_282\n        /* \"--CODEGEN--\":5926:5933   */\n      dup6\n        /* \"--CODEGEN--\":5917:5923   */\n      dup3\n        /* \"--CODEGEN--\":5906:5915   */\n      dup7\n        /* \"--CODEGEN--\":5902:5924   */\n      add\n        /* \"--CODEGEN--\":5881:5934   */\n      jump(tag_256)\n    tag_282:\n        /* \"--CODEGEN--\":5871:5934   */\n      swap2\n      pop\n        /* \"--CODEGEN--\":5842:5940   */\n      pop\n        /* \"--CODEGEN--\":5571:5950   */\n      swap3\n      pop\n      swap3\n      swap1\n      pop\n      jump\n        /* \"--CODEGEN--\":5957:6660   */\n    tag_21:\n      0x00\n      dup1\n      0x00\n        /* \"--CODEGEN--\":6115:6117   */\n      0x60\n        /* \"--CODEGEN--\":6103:6112   */\n      dup5\n        /* \"--CODEGEN--\":6094:6101   */\n      dup7\n        /* \"--CODEGEN--\":6090:6113   */\n      sub\n        /* \"--CODEGEN--\":6086:6118   */\n      slt\n        /* \"--CODEGEN--\":6083:6085   */\n      iszero\n      tag_283\n      jumpi\n        /* \"--CODEGEN--\":6131:6132   */\n      0x00\n        /* \"--CODEGEN--\":6128:6129   */\n      dup1\n        /* \"--CODEGEN--\":6121:6133   */\n      revert\n        /* \"--CODEGEN--\":6083:6085   */\n    tag_283:\n        /* \"--CODEGEN--\":6194:6195   */\n      0x00\n        /* \"--CODEGEN--\":6183:6192   */\n      dup5\n        /* \"--CODEGEN--\":6179:6196   */\n      add\n        /* \"--CODEGEN--\":6166:6197   */\n      calldataload\n        /* \"--CODEGEN--\":6217:6235   */\n      0xffffffffffffffff\n        /* \"--CODEGEN--\":6209:6215   */\n      dup2\n        /* \"--CODEGEN--\":6206:6236   */\n      gt\n        /* \"--CODEGEN--\":6203:6205   */\n      iszero\n      tag_284\n      jumpi\n        /* \"--CODEGEN--\":6249:6250   */\n      0x00\n        /* \"--CODEGEN--\":6246:6247   */\n      dup1\n        /* \"--CODEGEN--\":6239:6251   */\n      revert\n        /* \"--CODEGEN--\":6203:6205   */\n    tag_284:\n        /* \"--CODEGEN--\":6269:6332   */\n      tag_285\n        /* \"--CODEGEN--\":6324:6331   */\n      dup7\n        /* \"--CODEGEN--\":6315:6321   */\n      dup3\n        /* \"--CODEGEN--\":6304:6313   */\n      dup8\n        /* \"--CODEGEN--\":6300:6322   */\n      add\n        /* \"--CODEGEN--\":6269:6332   */\n      jump(tag_249)\n    tag_285:\n        /* \"--CODEGEN--\":6259:6332   */\n      swap4\n      pop\n        /* \"--CODEGEN--\":6145:6338   */\n      pop\n        /* \"--CODEGEN--\":6369:6371   */\n      0x20\n        /* \"--CODEGEN--\":6387:6440   */\n      tag_286\n        /* \"--CODEGEN--\":6432:6439   */\n      dup7\n        /* \"--CODEGEN--\":6423:6429   */\n      dup3\n        /* \"--CODEGEN--\":6412:6421   */\n      dup8\n        /* \"--CODEGEN--\":6408:6430   */\n      add\n        /* \"--CODEGEN--\":6387:6440   */\n      jump(tag_256)\n    tag_286:\n        /* \"--CODEGEN--\":6377:6440   */\n      swap3\n      pop\n        /* \"--CODEGEN--\":6348:6446   */\n      pop\n        /* \"--CODEGEN--\":6505:6507   */\n      0x40\n        /* \"--CODEGEN--\":6494:6503   */\n      dup5\n        /* \"--CODEGEN--\":6490:6508   */\n      add\n        /* \"--CODEGEN--\":6477:6509   */\n      calldataload\n        /* \"--CODEGEN--\":6529:6547   */\n      0xffffffffffffffff\n        /* \"--CODEGEN--\":6521:6527   */\n      dup2\n        /* \"--CODEGEN--\":6518:6548   */\n      gt\n        /* \"--CODEGEN--\":6515:6517   */\n      iszero\n      tag_287\n      jumpi\n        /* \"--CODEGEN--\":6561:6562   */\n      0x00\n        /* \"--CODEGEN--\":6558:6559   */\n      dup1\n        /* \"--CODEGEN--\":6551:6563   */\n      revert\n        /* \"--CODEGEN--\":6515:6517   */\n    tag_287:\n        /* \"--CODEGEN--\":6581:6644   */\n      tag_288\n        /* \"--CODEGEN--\":6636:6643   */\n      dup7\n        /* \"--CODEGEN--\":6627:6633   */\n      dup3\n        /* \"--CODEGEN--\":6616:6625   */\n      dup8\n        /* \"--CODEGEN--\":6612:6634   */\n      add\n        /* \"--CODEGEN--\":6581:6644   */\n      jump(tag_249)\n    tag_288:\n        /* \"--CODEGEN--\":6571:6644   */\n      swap2\n      pop\n        /* \"--CODEGEN--\":6456:6650   */\n      pop\n        /* \"--CODEGEN--\":6077:6660   */\n      swap3\n      pop\n      swap3\n      pop\n      swap3\n      jump\n        /* \"--CODEGEN--\":6667:7496   */\n    tag_54:\n      0x00\n      dup1\n      0x00\n      dup1\n        /* \"--CODEGEN--\":6842:6845   */\n      0x80\n        /* \"--CODEGEN--\":6830:6839   */\n      dup6\n        /* \"--CODEGEN--\":6821:6828   */\n      dup8\n        /* \"--CODEGEN--\":6817:6840   */\n      sub\n        /* \"--CODEGEN--\":6813:6846   */\n      slt\n        /* \"--CODEGEN--\":6810:6812   */\n      iszero\n      tag_289\n      jumpi\n        /* \"--CODEGEN--\":6859:6860   */\n      0x00\n        /* \"--CODEGEN--\":6856:6857   */\n      dup1\n        /* \"--CODEGEN--\":6849:6861   */\n      revert\n        /* \"--CODEGEN--\":6810:6812   */\n    tag_289:\n        /* \"--CODEGEN--\":6922:6923   */\n      0x00\n        /* \"--CODEGEN--\":6911:6920   */\n      dup6\n        /* \"--CODEGEN--\":6907:6924   */\n      add\n        /* \"--CODEGEN--\":6894:6925   */\n      calldataload\n        /* \"--CODEGEN--\":6945:6963   */\n      0xffffffffffffffff\n        /* \"--CODEGEN--\":6937:6943   */\n      dup2\n        /* \"--CODEGEN--\":6934:6964   */\n      gt\n        /* \"--CODEGEN--\":6931:6933   */\n      iszero\n      tag_290\n      jumpi\n        /* \"--CODEGEN--\":6977:6978   */\n      0x00\n        /* \"--CODEGEN--\":6974:6975   */\n      dup1\n        /* \"--CODEGEN--\":6967:6979   */\n      revert\n        /* \"--CODEGEN--\":6931:6933   */\n    tag_290:\n        /* \"--CODEGEN--\":6997:7060   */\n      tag_291\n        /* \"--CODEGEN--\":7052:7059   */\n      dup8\n        /* \"--CODEGEN--\":7043:7049   */\n      dup3\n        /* \"--CODEGEN--\":7032:7041   */\n      dup9\n        /* \"--CODEGEN--\":7028:7050   */\n      add\n        /* \"--CODEGEN--\":6997:7060   */\n      jump(tag_249)\n    tag_291:\n        /* \"--CODEGEN--\":6987:7060   */\n      swap5\n      pop\n        /* \"--CODEGEN--\":6873:7066   */\n      pop\n        /* \"--CODEGEN--\":7097:7099   */\n      0x20\n        /* \"--CODEGEN--\":7115:7168   */\n      tag_292\n        /* \"--CODEGEN--\":7160:7167   */\n      dup8\n        /* \"--CODEGEN--\":7151:7157   */\n      dup3\n        /* \"--CODEGEN--\":7140:7149   */\n      dup9\n        /* \"--CODEGEN--\":7136:7158   */\n      add\n        /* \"--CODEGEN--\":7115:7168   */\n      jump(tag_256)\n    tag_292:\n        /* \"--CODEGEN--\":7105:7168   */\n      swap4\n      pop\n        /* \"--CODEGEN--\":7076:7174   */\n      pop\n        /* \"--CODEGEN--\":7233:7235   */\n      0x40\n        /* \"--CODEGEN--\":7222:7231   */\n      dup6\n        /* \"--CODEGEN--\":7218:7236   */\n      add\n        /* \"--CODEGEN--\":7205:7237   */\n      calldataload\n        /* \"--CODEGEN--\":7257:7275   */\n      0xffffffffffffffff\n        /* \"--CODEGEN--\":7249:7255   */\n      dup2\n        /* \"--CODEGEN--\":7246:7276   */\n      gt\n        /* \"--CODEGEN--\":7243:7245   */\n      iszero\n      tag_293\n      jumpi\n        /* \"--CODEGEN--\":7289:7290   */\n      0x00\n        /* \"--CODEGEN--\":7286:7287   */\n      dup1\n        /* \"--CODEGEN--\":7279:7291   */\n      revert\n        /* \"--CODEGEN--\":7243:7245   */\n    tag_293:\n        /* \"--CODEGEN--\":7309:7372   */\n      tag_294\n        /* \"--CODEGEN--\":7364:7371   */\n      dup8\n        /* \"--CODEGEN--\":7355:7361   */\n      dup3\n        /* \"--CODEGEN--\":7344:7353   */\n      dup9\n        /* \"--CODEGEN--\":7340:7362   */\n      add\n        /* \"--CODEGEN--\":7309:7372   */\n      jump(tag_249)\n    tag_294:\n        /* \"--CODEGEN--\":7299:7372   */\n      swap3\n      pop\n        /* \"--CODEGEN--\":7184:7378   */\n      pop\n        /* \"--CODEGEN--\":7409:7411   */\n      0x60\n        /* \"--CODEGEN--\":7427:7480   */\n      tag_295\n        /* \"--CODEGEN--\":7472:7479   */\n      dup8\n        /* \"--CODEGEN--\":7463:7469   */\n      dup3\n        /* \"--CODEGEN--\":7452:7461   */\n      dup9\n        /* \"--CODEGEN--\":7448:7470   */\n      add\n        /* \"--CODEGEN--\":7427:7480   */\n      jump(tag_207)\n    tag_295:\n        /* \"--CODEGEN--\":7417:7480   */\n      swap2\n      pop\n        /* \"--CODEGEN--\":7388:7486   */\n      pop\n        /* \"--CODEGEN--\":6804:7496   */\n      swap3\n      swap6\n      swap2\n      swap5\n      pop\n      swap3\n      pop\n      jump\n        /* \"--CODEGEN--\":7503:8454   */\n    tag_28:\n      0x00\n      dup1\n      0x00\n      dup1\n      0x00\n        /* \"--CODEGEN--\":7693:7696   */\n      0xa0\n        /* \"--CODEGEN--\":7681:7690   */\n      dup7\n        /* \"--CODEGEN--\":7672:7679   */\n      dup9\n        /* \"--CODEGEN--\":7668:7691   */\n      sub\n        /* \"--CODEGEN--\":7664:7697   */\n      slt\n        /* \"--CODEGEN--\":7661:7663   */\n      iszero\n      tag_296\n      jumpi\n        /* \"--CODEGEN--\":7710:7711   */\n      0x00\n        /* \"--CODEGEN--\":7707:7708   */\n      dup1\n        /* \"--CODEGEN--\":7700:7712   */\n      revert\n        /* \"--CODEGEN--\":7661:7663   */\n    tag_296:\n        /* \"--CODEGEN--\":7773:7774   */\n      0x00\n        /* \"--CODEGEN--\":7762:7771   */\n      dup7\n        /* \"--CODEGEN--\":7758:7775   */\n      add\n        /* \"--CODEGEN--\":7745:7776   */\n      calldataload\n        /* \"--CODEGEN--\":7796:7814   */\n      0xffffffffffffffff\n        /* \"--CODEGEN--\":7788:7794   */\n      dup2\n        /* \"--CODEGEN--\":7785:7815   */\n      gt\n        /* \"--CODEGEN--\":7782:7784   */\n      iszero\n      tag_297\n      jumpi\n        /* \"--CODEGEN--\":7828:7829   */\n      0x00\n        /* \"--CODEGEN--\":7825:7826   */\n      dup1\n        /* \"--CODEGEN--\":7818:7830   */\n      revert\n        /* \"--CODEGEN--\":7782:7784   */\n    tag_297:\n        /* \"--CODEGEN--\":7848:7911   */\n      tag_298\n        /* \"--CODEGEN--\":7903:7910   */\n      dup9\n        /* \"--CODEGEN--\":7894:7900   */\n      dup3\n        /* \"--CODEGEN--\":7883:7892   */\n      dup10\n        /* \"--CODEGEN--\":7879:7901   */\n      add\n        /* \"--CODEGEN--\":7848:7911   */\n      jump(tag_249)\n    tag_298:\n        /* \"--CODEGEN--\":7838:7911   */\n      swap6\n      pop\n        /* \"--CODEGEN--\":7724:7917   */\n      pop\n        /* \"--CODEGEN--\":7948:7950   */\n      0x20\n        /* \"--CODEGEN--\":7966:8019   */\n      tag_299\n        /* \"--CODEGEN--\":8011:8018   */\n      dup9\n        /* \"--CODEGEN--\":8002:8008   */\n      dup3\n        /* \"--CODEGEN--\":7991:8000   */\n      dup10\n        /* \"--CODEGEN--\":7987:8009   */\n      add\n        /* \"--CODEGEN--\":7966:8019   */\n      jump(tag_256)\n    tag_299:\n        /* \"--CODEGEN--\":7956:8019   */\n      swap5\n      pop\n        /* \"--CODEGEN--\":7927:8025   */\n      pop\n        /* \"--CODEGEN--\":8084:8086   */\n      0x40\n        /* \"--CODEGEN--\":8073:8082   */\n      dup7\n        /* \"--CODEGEN--\":8069:8087   */\n      add\n        /* \"--CODEGEN--\":8056:8088   */\n      calldataload\n        /* \"--CODEGEN--\":8108:8126   */\n      0xffffffffffffffff\n        /* \"--CODEGEN--\":8100:8106   */\n      dup2\n        /* \"--CODEGEN--\":8097:8127   */\n      gt\n        /* \"--CODEGEN--\":8094:8096   */\n      iszero\n      tag_300\n      jumpi\n        /* \"--CODEGEN--\":8140:8141   */\n      0x00\n        /* \"--CODEGEN--\":8137:8138   */\n      dup1\n        /* \"--CODEGEN--\":8130:8142   */\n      revert\n        /* \"--CODEGEN--\":8094:8096   */\n    tag_300:\n        /* \"--CODEGEN--\":8160:8223   */\n      tag_301\n        /* \"--CODEGEN--\":8215:8222   */\n      dup9\n        /* \"--CODEGEN--\":8206:8212   */\n      dup3\n        /* \"--CODEGEN--\":8195:8204   */\n      dup10\n        /* \"--CODEGEN--\":8191:8213   */\n      add\n        /* \"--CODEGEN--\":8160:8223   */\n      jump(tag_249)\n    tag_301:\n        /* \"--CODEGEN--\":8150:8223   */\n      swap4\n      pop\n        /* \"--CODEGEN--\":8035:8229   */\n      pop\n        /* \"--CODEGEN--\":8260:8262   */\n      0x60\n        /* \"--CODEGEN--\":8278:8331   */\n      tag_302\n        /* \"--CODEGEN--\":8323:8330   */\n      dup9\n        /* \"--CODEGEN--\":8314:8320   */\n      dup3\n        /* \"--CODEGEN--\":8303:8312   */\n      dup10\n        /* \"--CODEGEN--\":8299:8321   */\n      add\n        /* \"--CODEGEN--\":8278:8331   */\n      jump(tag_207)\n    tag_302:\n        /* \"--CODEGEN--\":8268:8331   */\n      swap3\n      pop\n        /* \"--CODEGEN--\":8239:8337   */\n      pop\n        /* \"--CODEGEN--\":8368:8371   */\n      0x80\n        /* \"--CODEGEN--\":8387:8438   */\n      tag_303\n        /* \"--CODEGEN--\":8430:8437   */\n      dup9\n        /* \"--CODEGEN--\":8421:8427   */\n      dup3\n        /* \"--CODEGEN--\":8410:8419   */\n      dup10\n        /* \"--CODEGEN--\":8406:8428   */\n      add\n        /* \"--CODEGEN--\":8387:8438   */\n      jump(tag_241)\n    tag_303:\n        /* \"--CODEGEN--\":8377:8438   */\n      swap2\n      pop\n        /* \"--CODEGEN--\":8347:8444   */\n      pop\n        /* \"--CODEGEN--\":7655:8454   */\n      swap3\n      swap6\n      pop\n      swap3\n      swap6\n      swap1\n      swap4\n      pop\n      jump\n        /* \"--CODEGEN--\":8461:9288   */\n    tag_17:\n      0x00\n      dup1\n      0x00\n      dup1\n        /* \"--CODEGEN--\":8635:8638   */\n      0x80\n        /* \"--CODEGEN--\":8623:8632   */\n      dup6\n        /* \"--CODEGEN--\":8614:8621   */\n      dup8\n        /* \"--CODEGEN--\":8610:8633   */\n      sub\n        /* \"--CODEGEN--\":8606:8639   */\n      slt\n        /* \"--CODEGEN--\":8603:8605   */\n      iszero\n      tag_304\n      jumpi\n        /* \"--CODEGEN--\":8652:8653   */\n      0x00\n        /* \"--CODEGEN--\":8649:8650   */\n      dup1\n        /* \"--CODEGEN--\":8642:8654   */\n      revert\n        /* \"--CODEGEN--\":8603:8605   */\n    tag_304:\n        /* \"--CODEGEN--\":8715:8716   */\n      0x00\n        /* \"--CODEGEN--\":8704:8713   */\n      dup6\n        /* \"--CODEGEN--\":8700:8717   */\n      add\n        /* \"--CODEGEN--\":8687:8718   */\n      calldataload\n        /* \"--CODEGEN--\":8738:8756   */\n      0xffffffffffffffff\n        /* \"--CODEGEN--\":8730:8736   */\n      dup2\n        /* \"--CODEGEN--\":8727:8757   */\n      gt\n        /* \"--CODEGEN--\":8724:8726   */\n      iszero\n      tag_305\n      jumpi\n        /* \"--CODEGEN--\":8770:8771   */\n      0x00\n        /* \"--CODEGEN--\":8767:8768   */\n      dup1\n        /* \"--CODEGEN--\":8760:8772   */\n      revert\n        /* \"--CODEGEN--\":8724:8726   */\n    tag_305:\n        /* \"--CODEGEN--\":8790:8853   */\n      tag_306\n        /* \"--CODEGEN--\":8845:8852   */\n      dup8\n        /* \"--CODEGEN--\":8836:8842   */\n      dup3\n        /* \"--CODEGEN--\":8825:8834   */\n      dup9\n        /* \"--CODEGEN--\":8821:8843   */\n      add\n        /* \"--CODEGEN--\":8790:8853   */\n      jump(tag_249)\n    tag_306:\n        /* \"--CODEGEN--\":8780:8853   */\n      swap5\n      pop\n        /* \"--CODEGEN--\":8666:8859   */\n      pop\n        /* \"--CODEGEN--\":8890:8892   */\n      0x20\n        /* \"--CODEGEN--\":8908:8961   */\n      tag_307\n        /* \"--CODEGEN--\":8953:8960   */\n      dup8\n        /* \"--CODEGEN--\":8944:8950   */\n      dup3\n        /* \"--CODEGEN--\":8933:8942   */\n      dup9\n        /* \"--CODEGEN--\":8929:8951   */\n      add\n        /* \"--CODEGEN--\":8908:8961   */\n      jump(tag_256)\n    tag_307:\n        /* \"--CODEGEN--\":8898:8961   */\n      swap4\n      pop\n        /* \"--CODEGEN--\":8869:8967   */\n      pop\n        /* \"--CODEGEN--\":8998:9000   */\n      0x40\n        /* \"--CODEGEN--\":9016:9068   */\n      tag_308\n        /* \"--CODEGEN--\":9060:9067   */\n      dup8\n        /* \"--CODEGEN--\":9051:9057   */\n      dup3\n        /* \"--CODEGEN--\":9040:9049   */\n      dup9\n        /* \"--CODEGEN--\":9036:9058   */\n      add\n        /* \"--CODEGEN--\":9016:9068   */\n      jump(tag_259)\n    tag_308:\n        /* \"--CODEGEN--\":9006:9068   */\n      swap3\n      pop\n        /* \"--CODEGEN--\":8977:9074   */\n      pop\n        /* \"--CODEGEN--\":9133:9135   */\n      0x60\n        /* \"--CODEGEN--\":9122:9131   */\n      dup6\n        /* \"--CODEGEN--\":9118:9136   */\n      add\n        /* \"--CODEGEN--\":9105:9137   */\n      calldataload\n        /* \"--CODEGEN--\":9157:9175   */\n      0xffffffffffffffff\n        /* \"--CODEGEN--\":9149:9155   */\n      dup2\n        /* \"--CODEGEN--\":9146:9176   */\n      gt\n        /* \"--CODEGEN--\":9143:9145   */\n      iszero\n      tag_309\n      jumpi\n        /* \"--CODEGEN--\":9189:9190   */\n      0x00\n        /* \"--CODEGEN--\":9186:9187   */\n      dup1\n        /* \"--CODEGEN--\":9179:9191   */\n      revert\n        /* \"--CODEGEN--\":9143:9145   */\n    tag_309:\n        /* \"--CODEGEN--\":9209:9272   */\n      tag_310\n        /* \"--CODEGEN--\":9264:9271   */\n      dup8\n        /* \"--CODEGEN--\":9255:9261   */\n      dup3\n        /* \"--CODEGEN--\":9244:9253   */\n      dup9\n        /* \"--CODEGEN--\":9240:9262   */\n      add\n        /* \"--CODEGEN--\":9209:9272   */\n      jump(tag_249)\n    tag_310:\n        /* \"--CODEGEN--\":9199:9272   */\n      swap2\n      pop\n        /* \"--CODEGEN--\":9084:9278   */\n      pop\n        /* \"--CODEGEN--\":8597:9288   */\n      swap3\n      swap6\n      swap2\n      swap5\n      pop\n      swap3\n      pop\n      jump\n        /* \"--CODEGEN--\":9296:9469   */\n    tag_311:\n      0x00\n        /* \"--CODEGEN--\":9383:9429   */\n      tag_312\n        /* \"--CODEGEN--\":9425:9428   */\n      dup4\n        /* \"--CODEGEN--\":9417:9423   */\n      dup4\n        /* \"--CODEGEN--\":9383:9429   */\n      jump(tag_313)\n    tag_312:\n        /* \"--CODEGEN--\":9458:9462   */\n      0x20\n        /* \"--CODEGEN--\":9453:9456   */\n      dup4\n        /* \"--CODEGEN--\":9449:9463   */\n      add\n        /* \"--CODEGEN--\":9435:9463   */\n      swap1\n      pop\n        /* \"--CODEGEN--\":9376:9469   */\n      swap3\n      swap2\n      pop\n      pop\n      jump\n        /* \"--CODEGEN--\":9478:9659   */\n    tag_314:\n      0x00\n        /* \"--CODEGEN--\":9591:9653   */\n      tag_315\n        /* \"--CODEGEN--\":9649:9652   */\n      dup4\n        /* \"--CODEGEN--\":9641:9647   */\n      dup4\n        /* \"--CODEGEN--\":9591:9653   */\n      jump(tag_316)\n    tag_315:\n        /* \"--CODEGEN--\":9577:9653   */\n      swap1\n      pop\n        /* \"--CODEGEN--\":9570:9659   */\n      swap3\n      swap2\n      pop\n      pop\n      jump\n        /* \"--CODEGEN--\":9668:9837   */\n    tag_317:\n      0x00\n        /* \"--CODEGEN--\":9753:9797   */\n      tag_318\n        /* \"--CODEGEN--\":9793:9796   */\n      dup4\n        /* \"--CODEGEN--\":9785:9791   */\n      dup4\n        /* \"--CODEGEN--\":9753:9797   */\n      jump(tag_319)\n    tag_318:\n        /* \"--CODEGEN--\":9826:9830   */\n      0x20\n        /* \"--CODEGEN--\":9821:9824   */\n      dup4\n        /* \"--CODEGEN--\":9817:9831   */\n      add\n        /* \"--CODEGEN--\":9803:9831   */\n      swap1\n      pop\n        /* \"--CODEGEN--\":9746:9837   */\n      swap3\n      swap2\n      pop\n      pop\n      jump\n        /* \"--CODEGEN--\":9845:9948   */\n    tag_313:\n        /* \"--CODEGEN--\":9918:9942   */\n      tag_320\n        /* \"--CODEGEN--\":9936:9941   */\n      dup2\n        /* \"--CODEGEN--\":9918:9942   */\n      jump(tag_321)\n    tag_320:\n        /* \"--CODEGEN--\":9913:9916   */\n      dup3\n        /* \"--CODEGEN--\":9906:9943   */\n      mstore\n        /* \"--CODEGEN--\":9900:9948   */\n      pop\n      pop\n      jump\n        /* \"--CODEGEN--\":9986:10676   */\n    tag_322:\n      0x00\n        /* \"--CODEGEN--\":10131:10185   */\n      tag_323\n        /* \"--CODEGEN--\":10179:10184   */\n      dup3\n        /* \"--CODEGEN--\":10131:10185   */\n      jump(tag_324)\n    tag_323:\n        /* \"--CODEGEN--\":10198:10284   */\n      tag_325\n        /* \"--CODEGEN--\":10277:10283   */\n      dup2\n        /* \"--CODEGEN--\":10272:10275   */\n      dup6\n        /* \"--CODEGEN--\":10198:10284   */\n      jump(tag_326)\n    tag_325:\n        /* \"--CODEGEN--\":10191:10284   */\n      swap4\n      pop\n        /* \"--CODEGEN--\":10305:10361   */\n      tag_327\n        /* \"--CODEGEN--\":10355:10360   */\n      dup4\n        /* \"--CODEGEN--\":10305:10361   */\n      jump(tag_328)\n    tag_327:\n        /* \"--CODEGEN--\":10381:10388   */\n      dup1\n        /* \"--CODEGEN--\":10409:10410   */\n      0x00\n        /* \"--CODEGEN--\":10394:10654   */\n    tag_329:\n        /* \"--CODEGEN--\":10419:10425   */\n      dup4\n        /* \"--CODEGEN--\":10416:10417   */\n      dup2\n        /* \"--CODEGEN--\":10413:10426   */\n      lt\n        /* \"--CODEGEN--\":10394:10654   */\n      iszero\n      tag_331\n      jumpi\n        /* \"--CODEGEN--\":10486:10492   */\n      dup2\n        /* \"--CODEGEN--\":10480:10493   */\n      mload\n        /* \"--CODEGEN--\":10507:10570   */\n      tag_332\n        /* \"--CODEGEN--\":10566:10569   */\n      dup9\n        /* \"--CODEGEN--\":10551:10564   */\n      dup3\n        /* \"--CODEGEN--\":10507:10570   */\n      jump(tag_311)\n    tag_332:\n        /* \"--CODEGEN--\":10500:10570   */\n      swap8\n      pop\n        /* \"--CODEGEN--\":10587:10647   */\n      tag_333\n        /* \"--CODEGEN--\":10640:10646   */\n      dup4\n        /* \"--CODEGEN--\":10587:10647   */\n      jump(tag_334)\n    tag_333:\n        /* \"--CODEGEN--\":10577:10647   */\n      swap3\n      pop\n        /* \"--CODEGEN--\":10451:10654   */\n      pop\n        /* \"--CODEGEN--\":10441:10442   */\n      0x01\n        /* \"--CODEGEN--\":10438:10439   */\n      dup2\n        /* \"--CODEGEN--\":10434:10443   */\n      add\n        /* \"--CODEGEN--\":10429:10443   */\n      swap1\n      pop\n        /* \"--CODEGEN--\":10394:10654   */\n      jump(tag_329)\n    tag_331:\n        /* \"--CODEGEN--\":10398:10412   */\n      pop\n        /* \"--CODEGEN--\":10667:10670   */\n      dup6\n        /* \"--CODEGEN--\":10660:10670   */\n      swap4\n      pop\n        /* \"--CODEGEN--\":10110:10676   */\n      pop\n      pop\n      pop\n      swap3\n      swap2\n      pop\n      pop\n      jump\n        /* \"--CODEGEN--\":10713:11609   */\n    tag_335:\n      0x00\n        /* \"--CODEGEN--\":10870:10930   */\n      tag_336\n        /* \"--CODEGEN--\":10924:10929   */\n      dup3\n        /* \"--CODEGEN--\":10870:10930   */\n      jump(tag_337)\n    tag_336:\n        /* \"--CODEGEN--\":10943:11035   */\n      tag_338\n        /* \"--CODEGEN--\":11028:11034   */\n      dup2\n        /* \"--CODEGEN--\":11023:11026   */\n      dup6\n        /* \"--CODEGEN--\":10943:11035   */\n      jump(tag_339)\n    tag_338:\n        /* \"--CODEGEN--\":10936:11035   */\n      swap4\n      pop\n        /* \"--CODEGEN--\":11058:11061   */\n      dup4\n        /* \"--CODEGEN--\":11100:11104   */\n      0x20\n        /* \"--CODEGEN--\":11092:11098   */\n      dup3\n        /* \"--CODEGEN--\":11088:11105   */\n      mul\n        /* \"--CODEGEN--\":11083:11086   */\n      dup6\n        /* \"--CODEGEN--\":11079:11106   */\n      add\n        /* \"--CODEGEN--\":11127:11189   */\n      tag_340\n        /* \"--CODEGEN--\":11183:11188   */\n      dup6\n        /* \"--CODEGEN--\":11127:11189   */\n      jump(tag_341)\n    tag_340:\n        /* \"--CODEGEN--\":11209:11216   */\n      dup1\n        /* \"--CODEGEN--\":11237:11238   */\n      0x00\n        /* \"--CODEGEN--\":11222:11570   */\n    tag_342:\n        /* \"--CODEGEN--\":11247:11253   */\n      dup6\n        /* \"--CODEGEN--\":11244:11245   */\n      dup2\n        /* \"--CODEGEN--\":11241:11254   */\n      lt\n        /* \"--CODEGEN--\":11222:11570   */\n      iszero\n      tag_344\n      jumpi\n        /* \"--CODEGEN--\":11309:11318   */\n      dup5\n        /* \"--CODEGEN--\":11303:11307   */\n      dup5\n        /* \"--CODEGEN--\":11299:11319   */\n      sub\n        /* \"--CODEGEN--\":11294:11297   */\n      dup10\n        /* \"--CODEGEN--\":11287:11320   */\n      mstore\n        /* \"--CODEGEN--\":11354:11360   */\n      dup2\n        /* \"--CODEGEN--\":11348:11361   */\n      mload\n        /* \"--CODEGEN--\":11376:11452   */\n      tag_345\n        /* \"--CODEGEN--\":11447:11451   */\n      dup6\n        /* \"--CODEGEN--\":11432:11445   */\n      dup3\n        /* \"--CODEGEN--\":11376:11452   */\n      jump(tag_314)\n    tag_345:\n        /* \"--CODEGEN--\":11368:11452   */\n      swap5\n      pop\n        /* \"--CODEGEN--\":11469:11535   */\n      tag_346\n        /* \"--CODEGEN--\":11528:11534   */\n      dup4\n        /* \"--CODEGEN--\":11469:11535   */\n      jump(tag_347)\n    tag_346:\n        /* \"--CODEGEN--\":11459:11535   */\n      swap3\n      pop\n        /* \"--CODEGEN--\":11558:11562   */\n      0x20\n        /* \"--CODEGEN--\":11553:11556   */\n      dup11\n        /* \"--CODEGEN--\":11549:11563   */\n      add\n        /* \"--CODEGEN--\":11542:11563   */\n      swap10\n      pop\n        /* \"--CODEGEN--\":11279:11570   */\n      pop\n        /* \"--CODEGEN--\":11269:11270   */\n      0x01\n        /* \"--CODEGEN--\":11266:11267   */\n      dup2\n        /* \"--CODEGEN--\":11262:11271   */\n      add\n        /* \"--CODEGEN--\":11257:11271   */\n      swap1\n      pop\n        /* \"--CODEGEN--\":11222:11570   */\n      jump(tag_342)\n    tag_344:\n        /* \"--CODEGEN--\":11226:11240   */\n      pop\n        /* \"--CODEGEN--\":11583:11587   */\n      dup3\n        /* \"--CODEGEN--\":11576:11587   */\n      swap8\n      pop\n        /* \"--CODEGEN--\":11600:11603   */\n      dup8\n        /* \"--CODEGEN--\":11593:11603   */\n      swap6\n      pop\n        /* \"--CODEGEN--\":10849:11609   */\n      pop\n      pop\n      pop\n      pop\n      pop\n      swap3\n      swap2\n      pop\n      pop\n      jump\n        /* \"--CODEGEN--\":11646:12328   */\n    tag_348:\n      0x00\n        /* \"--CODEGEN--\":11789:11842   */\n      tag_349\n        /* \"--CODEGEN--\":11836:11841   */\n      dup3\n        /* \"--CODEGEN--\":11789:11842   */\n      jump(tag_350)\n    tag_349:\n        /* \"--CODEGEN--\":11855:11940   */\n      tag_351\n        /* \"--CODEGEN--\":11933:11939   */\n      dup2\n        /* \"--CODEGEN--\":11928:11931   */\n      dup6\n        /* \"--CODEGEN--\":11855:11940   */\n      jump(tag_352)\n    tag_351:\n        /* \"--CODEGEN--\":11848:11940   */\n      swap4\n      pop\n        /* \"--CODEGEN--\":11961:12016   */\n      tag_353\n        /* \"--CODEGEN--\":12010:12015   */\n      dup4\n        /* \"--CODEGEN--\":11961:12016   */\n      jump(tag_354)\n    tag_353:\n        /* \"--CODEGEN--\":12036:12043   */\n      dup1\n        /* \"--CODEGEN--\":12064:12065   */\n      0x00\n        /* \"--CODEGEN--\":12049:12306   */\n    tag_355:\n        /* \"--CODEGEN--\":12074:12080   */\n      dup4\n        /* \"--CODEGEN--\":12071:12072   */\n      dup2\n        /* \"--CODEGEN--\":12068:12081   */\n      lt\n        /* \"--CODEGEN--\":12049:12306   */\n      iszero\n      tag_357\n      jumpi\n        /* \"--CODEGEN--\":12141:12147   */\n      dup2\n        /* \"--CODEGEN--\":12135:12148   */\n      mload\n        /* \"--CODEGEN--\":12162:12223   */\n      tag_358\n        /* \"--CODEGEN--\":12219:12222   */\n      dup9\n        /* \"--CODEGEN--\":12204:12217   */\n      dup3\n        /* \"--CODEGEN--\":12162:12223   */\n      jump(tag_317)\n    tag_358:\n        /* \"--CODEGEN--\":12155:12223   */\n      swap8\n      pop\n        /* \"--CODEGEN--\":12240:12299   */\n      tag_359\n        /* \"--CODEGEN--\":12292:12298   */\n      dup4\n        /* \"--CODEGEN--\":12240:12299   */\n      jump(tag_360)\n    tag_359:\n        /* \"--CODEGEN--\":12230:12299   */\n      swap3\n      pop\n        /* \"--CODEGEN--\":12106:12306   */\n      pop\n        /* \"--CODEGEN--\":12096:12097   */\n      0x01\n        /* \"--CODEGEN--\":12093:12094   */\n      dup2\n        /* \"--CODEGEN--\":12089:12098   */\n      add\n        /* \"--CODEGEN--\":12084:12098   */\n      swap1\n      pop\n        /* \"--CODEGEN--\":12049:12306   */\n      jump(tag_355)\n    tag_357:\n        /* \"--CODEGEN--\":12053:12067   */\n      pop\n        /* \"--CODEGEN--\":12319:12322   */\n      dup6\n        /* \"--CODEGEN--\":12312:12322   */\n      swap4\n      pop\n        /* \"--CODEGEN--\":11768:12328   */\n      pop\n      pop\n      pop\n      swap3\n      swap2\n      pop\n      pop\n      jump\n        /* \"--CODEGEN--\":12336:12683   */\n    tag_361:\n      0x00\n        /* \"--CODEGEN--\":12448:12487   */\n      tag_362\n        /* \"--CODEGEN--\":12481:12486   */\n      dup3\n        /* \"--CODEGEN--\":12448:12487   */\n      jump(tag_363)\n    tag_362:\n        /* \"--CODEGEN--\":12499:12570   */\n      tag_364\n        /* \"--CODEGEN--\":12563:12569   */\n      dup2\n        /* \"--CODEGEN--\":12558:12561   */\n      dup6\n        /* \"--CODEGEN--\":12499:12570   */\n      jump(tag_365)\n    tag_364:\n        /* \"--CODEGEN--\":12492:12570   */\n      swap4\n      pop\n        /* \"--CODEGEN--\":12575:12627   */\n      tag_366\n        /* \"--CODEGEN--\":12620:12626   */\n      dup2\n        /* \"--CODEGEN--\":12615:12618   */\n      dup6\n        /* \"--CODEGEN--\":12608:12612   */\n      0x20\n        /* \"--CODEGEN--\":12601:12606   */\n      dup7\n        /* \"--CODEGEN--\":12597:12613   */\n      add\n        /* \"--CODEGEN--\":12575:12627   */\n      jump(tag_367)\n    tag_366:\n        /* \"--CODEGEN--\":12648:12677   */\n      tag_368\n        /* \"--CODEGEN--\":12670:12676   */\n      dup2\n        /* \"--CODEGEN--\":12648:12677   */\n      jump(tag_369)\n    tag_368:\n        /* \"--CODEGEN--\":12643:12646   */\n      dup5\n        /* \"--CODEGEN--\":12639:12678   */\n      add\n        /* \"--CODEGEN--\":12632:12678   */\n      swap2\n      pop\n        /* \"--CODEGEN--\":12428:12683   */\n      pop\n      swap3\n      swap2\n      pop\n      pop\n      jump\n        /* \"--CODEGEN--\":12690:13050   */\n    tag_370:\n      0x00\n        /* \"--CODEGEN--\":12820:12859   */\n      tag_371\n        /* \"--CODEGEN--\":12853:12858   */\n      dup3\n        /* \"--CODEGEN--\":12820:12859   */\n      jump(tag_363)\n    tag_371:\n        /* \"--CODEGEN--\":12871:12960   */\n      tag_372\n        /* \"--CODEGEN--\":12953:12959   */\n      dup2\n        /* \"--CODEGEN--\":12948:12951   */\n      dup6\n        /* \"--CODEGEN--\":12871:12960   */\n      jump(tag_373)\n    tag_372:\n        /* \"--CODEGEN--\":12864:12960   */\n      swap4\n      pop\n        /* \"--CODEGEN--\":12965:13017   */\n      tag_374\n        /* \"--CODEGEN--\":13010:13016   */\n      dup2\n        /* \"--CODEGEN--\":13005:13008   */\n      dup6\n        /* \"--CODEGEN--\":12998:13002   */\n      0x20\n        /* \"--CODEGEN--\":12991:12996   */\n      dup7\n        /* \"--CODEGEN--\":12987:13003   */\n      add\n        /* \"--CODEGEN--\":12965:13017   */\n      jump(tag_367)\n    tag_374:\n        /* \"--CODEGEN--\":13038:13044   */\n      dup1\n        /* \"--CODEGEN--\":13033:13036   */\n      dup5\n        /* \"--CODEGEN--\":13029:13045   */\n      add\n        /* \"--CODEGEN--\":13022:13045   */\n      swap2\n      pop\n        /* \"--CODEGEN--\":12800:13050   */\n      pop\n      swap3\n      swap2\n      pop\n      pop\n      jump\n        /* \"--CODEGEN--\":13057:13376   */\n    tag_316:\n      0x00\n        /* \"--CODEGEN--\":13155:13190   */\n      tag_375\n        /* \"--CODEGEN--\":13184:13189   */\n      dup3\n        /* \"--CODEGEN--\":13155:13190   */\n      jump(tag_376)\n    tag_375:\n        /* \"--CODEGEN--\":13202:13263   */\n      tag_377\n        /* \"--CODEGEN--\":13256:13262   */\n      dup2\n        /* \"--CODEGEN--\":13251:13254   */\n      dup6\n        /* \"--CODEGEN--\":13202:13263   */\n      jump(tag_378)\n    tag_377:\n        /* \"--CODEGEN--\":13195:13263   */\n      swap4\n      pop\n        /* \"--CODEGEN--\":13268:13320   */\n      tag_379\n        /* \"--CODEGEN--\":13313:13319   */\n      dup2\n        /* \"--CODEGEN--\":13308:13311   */\n      dup6\n        /* \"--CODEGEN--\":13301:13305   */\n      0x20\n        /* \"--CODEGEN--\":13294:13299   */\n      dup7\n        /* \"--CODEGEN--\":13290:13306   */\n      add\n        /* \"--CODEGEN--\":13268:13320   */\n      jump(tag_367)\n    tag_379:\n        /* \"--CODEGEN--\":13341:13370   */\n      tag_380\n        /* \"--CODEGEN--\":13363:13369   */\n      dup2\n        /* \"--CODEGEN--\":13341:13370   */\n      jump(tag_369)\n    tag_380:\n        /* \"--CODEGEN--\":13336:13339   */\n      dup5\n        /* \"--CODEGEN--\":13332:13371   */\n      add\n        /* \"--CODEGEN--\":13325:13371   */\n      swap2\n      pop\n        /* \"--CODEGEN--\":13135:13376   */\n      pop\n      swap3\n      swap2\n      pop\n      pop\n      jump\n        /* \"--CODEGEN--\":13383:13735   */\n    tag_381:\n      0x00\n        /* \"--CODEGEN--\":13509:13544   */\n      tag_382\n        /* \"--CODEGEN--\":13538:13543   */\n      dup3\n        /* \"--CODEGEN--\":13509:13544   */\n      jump(tag_376)\n    tag_382:\n        /* \"--CODEGEN--\":13556:13645   */\n      tag_383\n        /* \"--CODEGEN--\":13638:13644   */\n      dup2\n        /* \"--CODEGEN--\":13633:13636   */\n      dup6\n        /* \"--CODEGEN--\":13556:13645   */\n      jump(tag_373)\n    tag_383:\n        /* \"--CODEGEN--\":13549:13645   */\n      swap4\n      pop\n        /* \"--CODEGEN--\":13650:13702   */\n      tag_384\n        /* \"--CODEGEN--\":13695:13701   */\n      dup2\n        /* \"--CODEGEN--\":13690:13693   */\n      dup6\n        /* \"--CODEGEN--\":13683:13687   */\n      0x20\n        /* \"--CODEGEN--\":13676:13681   */\n      dup7\n        /* \"--CODEGEN--\":13672:13688   */\n      add\n        /* \"--CODEGEN--\":13650:13702   */\n      jump(tag_367)\n    tag_384:\n        /* \"--CODEGEN--\":13723:13729   */\n      dup1\n        /* \"--CODEGEN--\":13718:13721   */\n      dup5\n        /* \"--CODEGEN--\":13714:13730   */\n      add\n        /* \"--CODEGEN--\":13707:13730   */\n      swap2\n      pop\n        /* \"--CODEGEN--\":13489:13735   */\n      pop\n      swap3\n      swap2\n      pop\n      pop\n      jump\n        /* \"--CODEGEN--\":13742:13842   */\n    tag_319:\n        /* \"--CODEGEN--\":13813:13836   */\n      tag_385\n        /* \"--CODEGEN--\":13830:13835   */\n      dup2\n        /* \"--CODEGEN--\":13813:13836   */\n      jump(tag_386)\n    tag_385:\n        /* \"--CODEGEN--\":13808:13811   */\n      dup3\n        /* \"--CODEGEN--\":13801:13837   */\n      mstore\n        /* \"--CODEGEN--\":13795:13842   */\n      pop\n      pop\n      jump\n        /* \"--CODEGEN--\":13849:13959   */\n    tag_387:\n        /* \"--CODEGEN--\":13930:13953   */\n      tag_388\n        /* \"--CODEGEN--\":13947:13952   */\n      dup2\n        /* \"--CODEGEN--\":13930:13953   */\n      jump(tag_386)\n    tag_388:\n        /* \"--CODEGEN--\":13925:13928   */\n      dup3\n        /* \"--CODEGEN--\":13918:13954   */\n      mstore\n        /* \"--CODEGEN--\":13912:13959   */\n      pop\n      pop\n      jump\n        /* \"--CODEGEN--\":13966:14073   */\n    tag_389:\n        /* \"--CODEGEN--\":14045:14067   */\n      tag_390\n        /* \"--CODEGEN--\":14061:14066   */\n      dup2\n        /* \"--CODEGEN--\":14045:14067   */\n      jump(tag_391)\n    tag_390:\n        /* \"--CODEGEN--\":14040:14043   */\n      dup3\n        /* \"--CODEGEN--\":14033:14068   */\n      mstore\n        /* \"--CODEGEN--\":14027:14073   */\n      pop\n      pop\n      jump\n        /* \"--CODEGEN--\":14080:14338   */\n    tag_161:\n      0x00\n        /* \"--CODEGEN--\":14222:14313   */\n      tag_392\n        /* \"--CODEGEN--\":14309:14312   */\n      dup3\n        /* \"--CODEGEN--\":14300:14306   */\n      dup5\n        /* \"--CODEGEN--\":14222:14313   */\n      jump(tag_381)\n    tag_392:\n        /* \"--CODEGEN--\":14215:14313   */\n      swap2\n      pop\n        /* \"--CODEGEN--\":14330:14333   */\n      dup2\n        /* \"--CODEGEN--\":14323:14333   */\n      swap1\n      pop\n        /* \"--CODEGEN--\":14203:14338   */\n      swap3\n      swap2\n      pop\n      pop\n      jump\n        /* \"--CODEGEN--\":14345:14611   */\n    tag_69:\n      0x00\n        /* \"--CODEGEN--\":14491:14586   */\n      tag_393\n        /* \"--CODEGEN--\":14582:14585   */\n      dup3\n        /* \"--CODEGEN--\":14573:14579   */\n      dup5\n        /* \"--CODEGEN--\":14491:14586   */\n      jump(tag_370)\n    tag_393:\n        /* \"--CODEGEN--\":14484:14586   */\n      swap2\n      pop\n        /* \"--CODEGEN--\":14603:14606   */\n      dup2\n        /* \"--CODEGEN--\":14596:14606   */\n      swap1\n      pop\n        /* \"--CODEGEN--\":14472:14611   */\n      swap3\n      swap2\n      pop\n      pop\n      jump\n        /* \"--CODEGEN--\":14618:14979   */\n    tag_40:\n      0x00\n        /* \"--CODEGEN--\":14786:14788   */\n      0x20\n        /* \"--CODEGEN--\":14775:14784   */\n      dup3\n        /* \"--CODEGEN--\":14771:14789   */\n      add\n        /* \"--CODEGEN--\":14763:14789   */\n      swap1\n      pop\n        /* \"--CODEGEN--\":14836:14845   */\n      dup2\n        /* \"--CODEGEN--\":14830:14834   */\n      dup2\n        /* \"--CODEGEN--\":14826:14846   */\n      sub\n        /* \"--CODEGEN--\":14822:14823   */\n      0x00\n        /* \"--CODEGEN--\":14811:14820   */\n      dup4\n        /* \"--CODEGEN--\":14807:14824   */\n      add\n        /* \"--CODEGEN--\":14800:14847   */\n      mstore\n        /* \"--CODEGEN--\":14861:14969   */\n      tag_394\n        /* \"--CODEGEN--\":14964:14968   */\n      dup2\n        /* \"--CODEGEN--\":14955:14961   */\n      dup5\n        /* \"--CODEGEN--\":14861:14969   */\n      jump(tag_322)\n    tag_394:\n        /* \"--CODEGEN--\":14853:14969   */\n      swap1\n      pop\n        /* \"--CODEGEN--\":14757:14979   */\n      swap3\n      swap2\n      pop\n      pop\n      jump\n        /* \"--CODEGEN--\":14986:15371   */\n    tag_35:\n      0x00\n        /* \"--CODEGEN--\":15166:15168   */\n      0x20\n        /* \"--CODEGEN--\":15155:15164   */\n      dup3\n        /* \"--CODEGEN--\":15151:15169   */\n      add\n        /* \"--CODEGEN--\":15143:15169   */\n      swap1\n      pop\n        /* \"--CODEGEN--\":15216:15225   */\n      dup2\n        /* \"--CODEGEN--\":15210:15214   */\n      dup2\n        /* \"--CODEGEN--\":15206:15226   */\n      sub\n        /* \"--CODEGEN--\":15202:15203   */\n      0x00\n        /* \"--CODEGEN--\":15191:15200   */\n      dup4\n        /* \"--CODEGEN--\":15187:15204   */\n      add\n        /* \"--CODEGEN--\":15180:15227   */\n      mstore\n        /* \"--CODEGEN--\":15241:15361   */\n      tag_395\n        /* \"--CODEGEN--\":15356:15360   */\n      dup2\n        /* \"--CODEGEN--\":15347:15353   */\n      dup5\n        /* \"--CODEGEN--\":15241:15361   */\n      jump(tag_335)\n    tag_395:\n        /* \"--CODEGEN--\":15233:15361   */\n      swap1\n      pop\n        /* \"--CODEGEN--\":15137:15371   */\n      swap3\n      swap2\n      pop\n      pop\n      jump\n        /* \"--CODEGEN--\":15378:16018   */\n    tag_46:\n      0x00\n        /* \"--CODEGEN--\":15634:15636   */\n      0x40\n        /* \"--CODEGEN--\":15623:15632   */\n      dup3\n        /* \"--CODEGEN--\":15619:15637   */\n      add\n        /* \"--CODEGEN--\":15611:15637   */\n      swap1\n      pop\n        /* \"--CODEGEN--\":15684:15693   */\n      dup2\n        /* \"--CODEGEN--\":15678:15682   */\n      dup2\n        /* \"--CODEGEN--\":15674:15694   */\n      sub\n        /* \"--CODEGEN--\":15670:15671   */\n      0x00\n        /* \"--CODEGEN--\":15659:15668   */\n      dup4\n        /* \"--CODEGEN--\":15655:15672   */\n      add\n        /* \"--CODEGEN--\":15648:15695   */\n      mstore\n        /* \"--CODEGEN--\":15709:15829   */\n      tag_396\n        /* \"--CODEGEN--\":15824:15828   */\n      dup2\n        /* \"--CODEGEN--\":15815:15821   */\n      dup6\n        /* \"--CODEGEN--\":15709:15829   */\n      jump(tag_335)\n    tag_396:\n        /* \"--CODEGEN--\":15701:15829   */\n      swap1\n      pop\n        /* \"--CODEGEN--\":15877:15886   */\n      dup2\n        /* \"--CODEGEN--\":15871:15875   */\n      dup2\n        /* \"--CODEGEN--\":15867:15887   */\n      sub\n        /* \"--CODEGEN--\":15862:15864   */\n      0x20\n        /* \"--CODEGEN--\":15851:15860   */\n      dup4\n        /* \"--CODEGEN--\":15847:15865   */\n      add\n        /* \"--CODEGEN--\":15840:15888   */\n      mstore\n        /* \"--CODEGEN--\":15902:16008   */\n      tag_397\n        /* \"--CODEGEN--\":16003:16007   */\n      dup2\n        /* \"--CODEGEN--\":15994:16000   */\n      dup5\n        /* \"--CODEGEN--\":15902:16008   */\n      jump(tag_348)\n    tag_397:\n        /* \"--CODEGEN--\":15894:16008   */\n      swap1\n      pop\n        /* \"--CODEGEN--\":15605:16018   */\n      swap4\n      swap3\n      pop\n      pop\n      pop\n      jump\n        /* \"--CODEGEN--\":16025:16326   */\n    tag_66:\n      0x00\n        /* \"--CODEGEN--\":16163:16165   */\n      0x20\n        /* \"--CODEGEN--\":16152:16161   */\n      dup3\n        /* \"--CODEGEN--\":16148:16166   */\n      add\n        /* \"--CODEGEN--\":16140:16166   */\n      swap1\n      pop\n        /* \"--CODEGEN--\":16213:16222   */\n      dup2\n        /* \"--CODEGEN--\":16207:16211   */\n      dup2\n        /* \"--CODEGEN--\":16203:16223   */\n      sub\n        /* \"--CODEGEN--\":16199:16200   */\n      0x00\n        /* \"--CODEGEN--\":16188:16197   */\n      dup4\n        /* \"--CODEGEN--\":16184:16201   */\n      add\n        /* \"--CODEGEN--\":16177:16224   */\n      mstore\n        /* \"--CODEGEN--\":16238:16316   */\n      tag_398\n        /* \"--CODEGEN--\":16311:16315   */\n      dup2\n        /* \"--CODEGEN--\":16302:16308   */\n      dup5\n        /* \"--CODEGEN--\":16238:16316   */\n      jump(tag_361)\n    tag_398:\n        /* \"--CODEGEN--\":16230:16316   */\n      swap1\n      pop\n        /* \"--CODEGEN--\":16134:16326   */\n      swap3\n      swap2\n      pop\n      pop\n      jump\n        /* \"--CODEGEN--\":16333:16542   */\n    tag_51:\n      0x00\n        /* \"--CODEGEN--\":16449:16451   */\n      0x20\n        /* \"--CODEGEN--\":16438:16447   */\n      dup3\n        /* \"--CODEGEN--\":16434:16452   */\n      add\n        /* \"--CODEGEN--\":16426:16452   */\n      swap1\n      pop\n        /* \"--CODEGEN--\":16463:16532   */\n      tag_399\n        /* \"--CODEGEN--\":16529:16530   */\n      0x00\n        /* \"--CODEGEN--\":16518:16527   */\n      dup4\n        /* \"--CODEGEN--\":16514:16531   */\n      add\n        /* \"--CODEGEN--\":16505:16511   */\n      dup5\n        /* \"--CODEGEN--\":16463:16532   */\n      jump(tag_387)\n    tag_399:\n        /* \"--CODEGEN--\":16420:16542   */\n      swap3\n      swap2\n      pop\n      pop\n      jump\n        /* \"--CODEGEN--\":16549:16754   */\n    tag_57:\n      0x00\n        /* \"--CODEGEN--\":16663:16665   */\n      0x20\n        /* \"--CODEGEN--\":16652:16661   */\n      dup3\n        /* \"--CODEGEN--\":16648:16666   */\n      add\n        /* \"--CODEGEN--\":16640:16666   */\n      swap1\n      pop\n        /* \"--CODEGEN--\":16677:16744   */\n      tag_400\n        /* \"--CODEGEN--\":16741:16742   */\n      0x00\n        /* \"--CODEGEN--\":16730:16739   */\n      dup4\n        /* \"--CODEGEN--\":16726:16743   */\n      add\n        /* \"--CODEGEN--\":16717:16723   */\n      dup5\n        /* \"--CODEGEN--\":16677:16744   */\n      jump(tag_389)\n    tag_400:\n        /* \"--CODEGEN--\":16634:16754   */\n      swap3\n      swap2\n      pop\n      pop\n      jump\n        /* \"--CODEGEN--\":16761:17017   */\n    tag_215:\n      0x00\n        /* \"--CODEGEN--\":16823:16825   */\n      0x40\n        /* \"--CODEGEN--\":16817:16826   */\n      mload\n        /* \"--CODEGEN--\":16807:16826   */\n      swap1\n      pop\n        /* \"--CODEGEN--\":16861:16865   */\n      dup2\n        /* \"--CODEGEN--\":16853:16859   */\n      dup2\n        /* \"--CODEGEN--\":16849:16866   */\n      add\n        /* \"--CODEGEN--\":16960:16966   */\n      dup2\n        /* \"--CODEGEN--\":16948:16958   */\n      dup2\n        /* \"--CODEGEN--\":16945:16967   */\n      lt\n        /* \"--CODEGEN--\":16924:16942   */\n      0xffffffffffffffff\n        /* \"--CODEGEN--\":16912:16922   */\n      dup3\n        /* \"--CODEGEN--\":16909:16943   */\n      gt\n        /* \"--CODEGEN--\":16906:16968   */\n      or\n        /* \"--CODEGEN--\":16903:16905   */\n      iszero\n      tag_401\n      jumpi\n        /* \"--CODEGEN--\":16981:16982   */\n      0x00\n        /* \"--CODEGEN--\":16978:16979   */\n      dup1\n        /* \"--CODEGEN--\":16971:16983   */\n      revert\n        /* \"--CODEGEN--\":16903:16905   */\n    tag_401:\n        /* \"--CODEGEN--\":17001:17011   */\n      dup1\n        /* \"--CODEGEN--\":16997:16999   */\n      0x40\n        /* \"--CODEGEN--\":16990:17012   */\n      mstore\n        /* \"--CODEGEN--\":16801:17017   */\n      pop\n      swap2\n      swap1\n      pop\n      jump\n        /* \"--CODEGEN--\":17024:17328   */\n    tag_214:\n      0x00\n        /* \"--CODEGEN--\":17183:17201   */\n      0xffffffffffffffff\n        /* \"--CODEGEN--\":17175:17181   */\n      dup3\n        /* \"--CODEGEN--\":17172:17202   */\n      gt\n        /* \"--CODEGEN--\":17169:17171   */\n      iszero\n      tag_402\n      jumpi\n        /* \"--CODEGEN--\":17215:17216   */\n      0x00\n        /* \"--CODEGEN--\":17212:17213   */\n      dup1\n        /* \"--CODEGEN--\":17205:17217   */\n      revert\n        /* \"--CODEGEN--\":17169:17171   */\n    tag_402:\n        /* \"--CODEGEN--\":17250:17254   */\n      0x20\n        /* \"--CODEGEN--\":17242:17248   */\n      dup3\n        /* \"--CODEGEN--\":17238:17255   */\n      mul\n        /* \"--CODEGEN--\":17230:17255   */\n      swap1\n      pop\n        /* \"--CODEGEN--\":17313:17317   */\n      0x20\n        /* \"--CODEGEN--\":17307:17311   */\n      dup2\n        /* \"--CODEGEN--\":17303:17318   */\n      add\n        /* \"--CODEGEN--\":17295:17318   */\n      swap1\n      pop\n        /* \"--CODEGEN--\":17106:17328   */\n      swap2\n      swap1\n      pop\n      jump\n        /* \"--CODEGEN--\":17335:17645   */\n    tag_225:\n      0x00\n        /* \"--CODEGEN--\":17500:17518   */\n      0xffffffffffffffff\n        /* \"--CODEGEN--\":17492:17498   */\n      dup3\n        /* \"--CODEGEN--\":17489:17519   */\n      gt\n        /* \"--CODEGEN--\":17486:17488   */\n      iszero\n      tag_403\n      jumpi\n        /* \"--CODEGEN--\":17532:17533   */\n      0x00\n        /* \"--CODEGEN--\":17529:17530   */\n      dup1\n        /* \"--CODEGEN--\":17522:17534   */\n      revert\n        /* \"--CODEGEN--\":17486:17488   */\n    tag_403:\n        /* \"--CODEGEN--\":17567:17571   */\n      0x20\n        /* \"--CODEGEN--\":17559:17565   */\n      dup3\n        /* \"--CODEGEN--\":17555:17572   */\n      mul\n        /* \"--CODEGEN--\":17547:17572   */\n      swap1\n      pop\n        /* \"--CODEGEN--\":17630:17634   */\n      0x20\n        /* \"--CODEGEN--\":17624:17628   */\n      dup2\n        /* \"--CODEGEN--\":17620:17635   */\n      add\n        /* \"--CODEGEN--\":17612:17635   */\n      swap1\n      pop\n        /* \"--CODEGEN--\":17423:17645   */\n      swap2\n      swap1\n      pop\n      jump\n        /* \"--CODEGEN--\":17652:17954   */\n    tag_235:\n      0x00\n        /* \"--CODEGEN--\":17809:17827   */\n      0xffffffffffffffff\n        /* \"--CODEGEN--\":17801:17807   */\n      dup3\n        /* \"--CODEGEN--\":17798:17828   */\n      gt\n        /* \"--CODEGEN--\":17795:17797   */\n      iszero\n      tag_404\n      jumpi\n        /* \"--CODEGEN--\":17841:17842   */\n      0x00\n        /* \"--CODEGEN--\":17838:17839   */\n      dup1\n        /* \"--CODEGEN--\":17831:17843   */\n      revert\n        /* \"--CODEGEN--\":17795:17797   */\n    tag_404:\n        /* \"--CODEGEN--\":17876:17880   */\n      0x20\n        /* \"--CODEGEN--\":17868:17874   */\n      dup3\n        /* \"--CODEGEN--\":17864:17881   */\n      mul\n        /* \"--CODEGEN--\":17856:17881   */\n      swap1\n      pop\n        /* \"--CODEGEN--\":17939:17943   */\n      0x20\n        /* \"--CODEGEN--\":17933:17937   */\n      dup2\n        /* \"--CODEGEN--\":17929:17944   */\n      add\n        /* \"--CODEGEN--\":17921:17944   */\n      swap1\n      pop\n        /* \"--CODEGEN--\":17732:17954   */\n      swap2\n      swap1\n      pop\n      jump\n        /* \"--CODEGEN--\":17961:18279   */\n    tag_245:\n      0x00\n        /* \"--CODEGEN--\":18101:18119   */\n      0xffffffffffffffff\n        /* \"--CODEGEN--\":18093:18099   */\n      dup3\n        /* \"--CODEGEN--\":18090:18120   */\n      gt\n        /* \"--CODEGEN--\":18087:18089   */\n      iszero\n      tag_405\n      jumpi\n        /* \"--CODEGEN--\":18133:18134   */\n      0x00\n        /* \"--CODEGEN--\":18130:18131   */\n      dup1\n        /* \"--CODEGEN--\":18123:18135   */\n      revert\n        /* \"--CODEGEN--\":18087:18089   */\n    tag_405:\n        /* \"--CODEGEN--\":18200:18204   */\n      0x1f\n        /* \"--CODEGEN--\":18196:18205   */\n      not\n        /* \"--CODEGEN--\":18189:18193   */\n      0x1f\n        /* \"--CODEGEN--\":18181:18187   */\n      dup4\n        /* \"--CODEGEN--\":18177:18194   */\n      add\n        /* \"--CODEGEN--\":18173:18206   */\n      and\n        /* \"--CODEGEN--\":18165:18206   */\n      swap1\n      pop\n        /* \"--CODEGEN--\":18264:18268   */\n      0x20\n        /* \"--CODEGEN--\":18258:18262   */\n      dup2\n        /* \"--CODEGEN--\":18254:18269   */\n      add\n        /* \"--CODEGEN--\":18246:18269   */\n      swap1\n      pop\n        /* \"--CODEGEN--\":18024:18279   */\n      swap2\n      swap1\n      pop\n      jump\n        /* \"--CODEGEN--\":18286:18608   */\n    tag_253:\n      0x00\n        /* \"--CODEGEN--\":18430:18448   */\n      0xffffffffffffffff\n        /* \"--CODEGEN--\":18422:18428   */\n      dup3\n        /* \"--CODEGEN--\":18419:18449   */\n      gt\n        /* \"--CODEGEN--\":18416:18418   */\n      iszero\n      tag_406\n      jumpi\n        /* \"--CODEGEN--\":18462:18463   */\n      0x00\n        /* \"--CODEGEN--\":18459:18460   */\n      dup1\n        /* \"--CODEGEN--\":18452:18464   */\n      revert\n        /* \"--CODEGEN--\":18416:18418   */\n    tag_406:\n        /* \"--CODEGEN--\":18529:18533   */\n      0x1f\n        /* \"--CODEGEN--\":18525:18534   */\n      not\n        /* \"--CODEGEN--\":18518:18522   */\n      0x1f\n        /* \"--CODEGEN--\":18510:18516   */\n      dup4\n        /* \"--CODEGEN--\":18506:18523   */\n      add\n        /* \"--CODEGEN--\":18502:18535   */\n      and\n        /* \"--CODEGEN--\":18494:18535   */\n      swap1\n      pop\n        /* \"--CODEGEN--\":18593:18597   */\n      0x20\n        /* \"--CODEGEN--\":18587:18591   */\n      dup2\n        /* \"--CODEGEN--\":18583:18598   */\n      add\n        /* \"--CODEGEN--\":18575:18598   */\n      swap1\n      pop\n        /* \"--CODEGEN--\":18353:18608   */\n      swap2\n      swap1\n      pop\n      jump\n        /* \"--CODEGEN--\":18615:18766   */\n    tag_328:\n      0x00\n        /* \"--CODEGEN--\":18701:18704   */\n      dup2\n        /* \"--CODEGEN--\":18693:18704   */\n      swap1\n      pop\n        /* \"--CODEGEN--\":18739:18743   */\n      0x20\n        /* \"--CODEGEN--\":18734:18737   */\n      dup3\n        /* \"--CODEGEN--\":18730:18744   */\n      add\n        /* \"--CODEGEN--\":18722:18744   */\n      swap1\n      pop\n        /* \"--CODEGEN--\":18687:18766   */\n      swap2\n      swap1\n      pop\n      jump\n        /* \"--CODEGEN--\":18773:18930   */\n    tag_341:\n      0x00\n        /* \"--CODEGEN--\":18865:18868   */\n      dup2\n        /* \"--CODEGEN--\":18857:18868   */\n      swap1\n      pop\n        /* \"--CODEGEN--\":18903:18907   */\n      0x20\n        /* \"--CODEGEN--\":18898:18901   */\n      dup3\n        /* \"--CODEGEN--\":18894:18908   */\n      add\n        /* \"--CODEGEN--\":18886:18908   */\n      swap1\n      pop\n        /* \"--CODEGEN--\":18851:18930   */\n      swap2\n      swap1\n      pop\n      jump\n        /* \"--CODEGEN--\":18937:19087   */\n    tag_354:\n      0x00\n        /* \"--CODEGEN--\":19022:19025   */\n      dup2\n        /* \"--CODEGEN--\":19014:19025   */\n      swap1\n      pop\n        /* \"--CODEGEN--\":19060:19064   */\n      0x20\n        /* \"--CODEGEN--\":19055:19058   */\n      dup3\n        /* \"--CODEGEN--\":19051:19065   */\n      add\n        /* \"--CODEGEN--\":19043:19065   */\n      swap1\n      pop\n        /* \"--CODEGEN--\":19008:19087   */\n      swap2\n      swap1\n      pop\n      jump\n        /* \"--CODEGEN--\":19094:19231   */\n    tag_324:\n      0x00\n        /* \"--CODEGEN--\":19203:19208   */\n      dup2\n        /* \"--CODEGEN--\":19197:19209   */\n      mload\n        /* \"--CODEGEN--\":19187:19209   */\n      swap1\n      pop\n        /* \"--CODEGEN--\":19168:19231   */\n      swap2\n      swap1\n      pop\n      jump\n        /* \"--CODEGEN--\":19238:19381   */\n    tag_337:\n      0x00\n        /* \"--CODEGEN--\":19353:19358   */\n      dup2\n        /* \"--CODEGEN--\":19347:19359   */\n      mload\n        /* \"--CODEGEN--\":19337:19359   */\n      swap1\n      pop\n        /* \"--CODEGEN--\":19318:19381   */\n      swap2\n      swap1\n      pop\n      jump\n        /* \"--CODEGEN--\":19388:19524   */\n    tag_350:\n      0x00\n        /* \"--CODEGEN--\":19496:19501   */\n      dup2\n        /* \"--CODEGEN--\":19490:19502   */\n      mload\n        /* \"--CODEGEN--\":19480:19502   */\n      swap1\n      pop\n        /* \"--CODEGEN--\":19461:19524   */\n      swap2\n      swap1\n      pop\n      jump\n        /* \"--CODEGEN--\":19531:19649   */\n    tag_376:\n      0x00\n        /* \"--CODEGEN--\":19621:19626   */\n      dup2\n        /* \"--CODEGEN--\":19615:19627   */\n      mload\n        /* \"--CODEGEN--\":19605:19627   */\n      swap1\n      pop\n        /* \"--CODEGEN--\":19586:19649   */\n      swap2\n      swap1\n      pop\n      jump\n        /* \"--CODEGEN--\":19656:19778   */\n    tag_363:\n      0x00\n        /* \"--CODEGEN--\":19750:19755   */\n      dup2\n        /* \"--CODEGEN--\":19744:19756   */\n      mload\n        /* \"--CODEGEN--\":19734:19756   */\n      swap1\n      pop\n        /* \"--CODEGEN--\":19715:19778   */\n      swap2\n      swap1\n      pop\n      jump\n        /* \"--CODEGEN--\":19785:19893   */\n    tag_334:\n      0x00\n        /* \"--CODEGEN--\":19883:19887   */\n      0x20\n        /* \"--CODEGEN--\":19878:19881   */\n      dup3\n        /* \"--CODEGEN--\":19874:19888   */\n      add\n        /* \"--CODEGEN--\":19866:19888   */\n      swap1\n      pop\n        /* \"--CODEGEN--\":19860:19893   */\n      swap2\n      swap1\n      pop\n      jump\n        /* \"--CODEGEN--\":19900:20014   */\n    tag_347:\n      0x00\n        /* \"--CODEGEN--\":20004:20008   */\n      0x20\n        /* \"--CODEGEN--\":19999:20002   */\n      dup3\n        /* \"--CODEGEN--\":19995:20009   */\n      add\n        /* \"--CODEGEN--\":19987:20009   */\n      swap1\n      pop\n        /* \"--CODEGEN--\":19981:20014   */\n      swap2\n      swap1\n      pop\n      jump\n        /* \"--CODEGEN--\":20021:20128   */\n    tag_360:\n      0x00\n        /* \"--CODEGEN--\":20118:20122   */\n      0x20\n        /* \"--CODEGEN--\":20113:20116   */\n      dup3\n        /* \"--CODEGEN--\":20109:20123   */\n      add\n        /* \"--CODEGEN--\":20101:20123   */\n      swap1\n      pop\n        /* \"--CODEGEN--\":20095:20128   */\n      swap2\n      swap1\n      pop\n      jump\n        /* \"--CODEGEN--\":20136:20314   */\n    tag_326:\n      0x00\n        /* \"--CODEGEN--\":20266:20272   */\n      dup3\n        /* \"--CODEGEN--\":20261:20264   */\n      dup3\n        /* \"--CODEGEN--\":20254:20273   */\n      mstore\n        /* \"--CODEGEN--\":20303:20307   */\n      0x20\n        /* \"--CODEGEN--\":20298:20301   */\n      dup3\n        /* \"--CODEGEN--\":20294:20308   */\n      add\n        /* \"--CODEGEN--\":20279:20308   */\n      swap1\n      pop\n        /* \"--CODEGEN--\":20247:20314   */\n      swap3\n      swap2\n      pop\n      pop\n      jump\n        /* \"--CODEGEN--\":20323:20507   */\n    tag_339:\n      0x00\n        /* \"--CODEGEN--\":20459:20465   */\n      dup3\n        /* \"--CODEGEN--\":20454:20457   */\n      dup3\n        /* \"--CODEGEN--\":20447:20466   */\n      mstore\n        /* \"--CODEGEN--\":20496:20500   */\n      0x20\n        /* \"--CODEGEN--\":20491:20494   */\n      dup3\n        /* \"--CODEGEN--\":20487:20501   */\n      add\n        /* \"--CODEGEN--\":20472:20501   */\n      swap1\n      pop\n        /* \"--CODEGEN--\":20440:20507   */\n      swap3\n      swap2\n      pop\n      pop\n      jump\n        /* \"--CODEGEN--\":20516:20693   */\n    tag_352:\n      0x00\n        /* \"--CODEGEN--\":20645:20651   */\n      dup3\n        /* \"--CODEGEN--\":20640:20643   */\n      dup3\n        /* \"--CODEGEN--\":20633:20652   */\n      mstore\n        /* \"--CODEGEN--\":20682:20686   */\n      0x20\n        /* \"--CODEGEN--\":20677:20680   */\n      dup3\n        /* \"--CODEGEN--\":20673:20687   */\n      add\n        /* \"--CODEGEN--\":20658:20687   */\n      swap1\n      pop\n        /* \"--CODEGEN--\":20626:20693   */\n      swap3\n      swap2\n      pop\n      pop\n      jump\n        /* \"--CODEGEN--\":20702:20855   */\n    tag_378:\n      0x00\n        /* \"--CODEGEN--\":20807:20813   */\n      dup3\n        /* \"--CODEGEN--\":20802:20805   */\n      dup3\n        /* \"--CODEGEN--\":20795:20814   */\n      mstore\n        /* \"--CODEGEN--\":20844:20848   */\n      0x20\n        /* \"--CODEGEN--\":20839:20842   */\n      dup3\n        /* \"--CODEGEN--\":20835:20849   */\n      add\n        /* \"--CODEGEN--\":20820:20849   */\n      swap1\n      pop\n        /* \"--CODEGEN--\":20788:20855   */\n      swap3\n      swap2\n      pop\n      pop\n      jump\n        /* \"--CODEGEN--\":20864:21027   */\n    tag_365:\n      0x00\n        /* \"--CODEGEN--\":20979:20985   */\n      dup3\n        /* \"--CODEGEN--\":20974:20977   */\n      dup3\n        /* \"--CODEGEN--\":20967:20986   */\n      mstore\n        /* \"--CODEGEN--\":21016:21020   */\n      0x20\n        /* \"--CODEGEN--\":21011:21014   */\n      dup3\n        /* \"--CODEGEN--\":21007:21021   */\n      add\n        /* \"--CODEGEN--\":20992:21021   */\n      swap1\n      pop\n        /* \"--CODEGEN--\":20960:21027   */\n      swap3\n      swap2\n      pop\n      pop\n      jump\n        /* \"--CODEGEN--\":21036:21181   */\n    tag_373:\n      0x00\n        /* \"--CODEGEN--\":21172:21175   */\n      dup2\n        /* \"--CODEGEN--\":21157:21175   */\n      swap1\n      pop\n        /* \"--CODEGEN--\":21150:21181   */\n      swap3\n      swap2\n      pop\n      pop\n      jump\n        /* \"--CODEGEN--\":21189:21280   */\n    tag_321:\n      0x00\n        /* \"--CODEGEN--\":21251:21275   */\n      tag_407\n        /* \"--CODEGEN--\":21269:21274   */\n      dup3\n        /* \"--CODEGEN--\":21251:21275   */\n      jump(tag_408)\n    tag_407:\n        /* \"--CODEGEN--\":21240:21275   */\n      swap1\n      pop\n        /* \"--CODEGEN--\":21234:21280   */\n      swap2\n      swap1\n      pop\n      jump\n        /* \"--CODEGEN--\":21287:21408   */\n    tag_408:\n      0x00\n        /* \"--CODEGEN--\":21360:21402   */\n      0xffffffffffffffffffffffffffffffffffffffff\n        /* \"--CODEGEN--\":21353:21358   */\n      dup3\n        /* \"--CODEGEN--\":21349:21403   */\n      and\n        /* \"--CODEGEN--\":21338:21403   */\n      swap1\n      pop\n        /* \"--CODEGEN--\":21332:21408   */\n      swap2\n      swap1\n      pop\n      jump\n        /* \"--CODEGEN--\":21415:21487   */\n    tag_409:\n      0x00\n        /* \"--CODEGEN--\":21477:21482   */\n      dup2\n        /* \"--CODEGEN--\":21466:21482   */\n      swap1\n      pop\n        /* \"--CODEGEN--\":21460:21487   */\n      swap2\n      swap1\n      pop\n      jump\n        /* \"--CODEGEN--\":21494:21582   */\n    tag_386:\n      0x00\n        /* \"--CODEGEN--\":21566:21576   */\n      0xffffffff\n        /* \"--CODEGEN--\":21559:21564   */\n      dup3\n        /* \"--CODEGEN--\":21555:21577   */\n      and\n        /* \"--CODEGEN--\":21544:21577   */\n      swap1\n      pop\n        /* \"--CODEGEN--\":21538:21582   */\n      swap2\n      swap1\n      pop\n      jump\n        /* \"--CODEGEN--\":21589:21670   */\n    tag_391:\n      0x00\n        /* \"--CODEGEN--\":21660:21664   */\n      0xff\n        /* \"--CODEGEN--\":21653:21658   */\n      dup3\n        /* \"--CODEGEN--\":21649:21665   */\n      and\n        /* \"--CODEGEN--\":21638:21665   */\n      swap1\n      pop\n        /* \"--CODEGEN--\":21632:21670   */\n      swap2\n      swap1\n      pop\n      jump\n        /* \"--CODEGEN--\":21678:21823   */\n    tag_248:\n        /* \"--CODEGEN--\":21759:21765   */\n      dup3\n        /* \"--CODEGEN--\":21754:21757   */\n      dup2\n        /* \"--CODEGEN--\":21749:21752   */\n      dup4\n        /* \"--CODEGEN--\":21736:21766   */\n      calldatacopy\n        /* \"--CODEGEN--\":21815:21816   */\n      0x00\n        /* \"--CODEGEN--\":21806:21812   */\n      dup4\n        /* \"--CODEGEN--\":21801:21804   */\n      dup4\n        /* \"--CODEGEN--\":21797:21813   */\n      add\n        /* \"--CODEGEN--\":21790:21817   */\n      mstore\n        /* \"--CODEGEN--\":21729:21823   */\n      pop\n      pop\n      pop\n      jump\n        /* \"--CODEGEN--\":21832:22100   */\n    tag_367:\n        /* \"--CODEGEN--\":21897:21898   */\n      0x00\n        /* \"--CODEGEN--\":21904:22005   */\n    tag_410:\n        /* \"--CODEGEN--\":21918:21924   */\n      dup4\n        /* \"--CODEGEN--\":21915:21916   */\n      dup2\n        /* \"--CODEGEN--\":21912:21925   */\n      lt\n        /* \"--CODEGEN--\":21904:22005   */\n      iszero\n      tag_412\n      jumpi\n        /* \"--CODEGEN--\":21994:21995   */\n      dup1\n        /* \"--CODEGEN--\":21989:21992   */\n      dup3\n        /* \"--CODEGEN--\":21985:21996   */\n      add\n        /* \"--CODEGEN--\":21979:21997   */\n      mload\n        /* \"--CODEGEN--\":21975:21976   */\n      dup2\n        /* \"--CODEGEN--\":21970:21973   */\n      dup5\n        /* \"--CODEGEN--\":21966:21977   */\n      add\n        /* \"--CODEGEN--\":21959:21998   */\n      mstore\n        /* \"--CODEGEN--\":21940:21942   */\n      0x20\n        /* \"--CODEGEN--\":21937:21938   */\n      dup2\n        /* \"--CODEGEN--\":21933:21943   */\n      add\n        /* \"--CODEGEN--\":21928:21943   */\n      swap1\n      pop\n        /* \"--CODEGEN--\":21904:22005   */\n      jump(tag_410)\n    tag_412:\n        /* \"--CODEGEN--\":22020:22026   */\n      dup4\n        /* \"--CODEGEN--\":22017:22018   */\n      dup2\n        /* \"--CODEGEN--\":22014:22027   */\n      gt\n        /* \"--CODEGEN--\":22011:22013   */\n      iszero\n      tag_413\n      jumpi\n        /* \"--CODEGEN--\":22085:22086   */\n      0x00\n        /* \"--CODEGEN--\":22076:22082   */\n      dup5\n        /* \"--CODEGEN--\":22071:22074   */\n      dup5\n        /* \"--CODEGEN--\":22067:22083   */\n      add\n        /* \"--CODEGEN--\":22060:22087   */\n      mstore\n        /* \"--CODEGEN--\":22011:22013   */\n    tag_413:\n        /* \"--CODEGEN--\":21881:22100   */\n      pop\n      pop\n      pop\n      pop\n      jump\n        /* \"--CODEGEN--\":22108:22205   */\n    tag_369:\n      0x00\n        /* \"--CODEGEN--\":22196:22198   */\n      0x1f\n        /* \"--CODEGEN--\":22192:22199   */\n      not\n        /* \"--CODEGEN--\":22187:22189   */\n      0x1f\n        /* \"--CODEGEN--\":22180:22185   */\n      dup4\n        /* \"--CODEGEN--\":22176:22190   */\n      add\n        /* \"--CODEGEN--\":22172:22200   */\n      and\n        /* \"--CODEGEN--\":22162:22200   */\n      swap1\n      pop\n        /* \"--CODEGEN--\":22156:22205   */\n      swap2\n      swap1\n      pop\n      jump\n        /* \"--CODEGEN--\":22213:22330   */\n    tag_209:\n        /* \"--CODEGEN--\":22282:22306   */\n      tag_414\n        /* \"--CODEGEN--\":22300:22305   */\n      dup2\n        /* \"--CODEGEN--\":22282:22306   */\n      jump(tag_321)\n    tag_414:\n        /* \"--CODEGEN--\":22275:22280   */\n      dup2\n        /* \"--CODEGEN--\":22272:22307   */\n      eq\n        /* \"--CODEGEN--\":22262:22264   */\n      tag_415\n      jumpi\n        /* \"--CODEGEN--\":22321:22322   */\n      0x00\n        /* \"--CODEGEN--\":22318:22319   */\n      dup1\n        /* \"--CODEGEN--\":22311:22323   */\n      revert\n        /* \"--CODEGEN--\":22262:22264   */\n    tag_415:\n        /* \"--CODEGEN--\":22256:22330   */\n      pop\n      jump\n        /* \"--CODEGEN--\":22337:22454   */\n    tag_258:\n        /* \"--CODEGEN--\":22406:22430   */\n      tag_416\n        /* \"--CODEGEN--\":22424:22429   */\n      dup2\n        /* \"--CODEGEN--\":22406:22430   */\n      jump(tag_409)\n    tag_416:\n        /* \"--CODEGEN--\":22399:22404   */\n      dup2\n        /* \"--CODEGEN--\":22396:22431   */\n      eq\n        /* \"--CODEGEN--\":22386:22388   */\n      tag_417\n      jumpi\n        /* \"--CODEGEN--\":22445:22446   */\n      0x00\n        /* \"--CODEGEN--\":22442:22443   */\n      dup1\n        /* \"--CODEGEN--\":22435:22447   */\n      revert\n        /* \"--CODEGEN--\":22386:22388   */\n    tag_417:\n        /* \"--CODEGEN--\":22380:22454   */\n      pop\n      jump\n        /* \"--CODEGEN--\":22461:22576   */\n    tag_261:\n        /* \"--CODEGEN--\":22529:22552   */\n      tag_418\n        /* \"--CODEGEN--\":22546:22551   */\n      dup2\n        /* \"--CODEGEN--\":22529:22552   */\n      jump(tag_386)\n    tag_418:\n        /* \"--CODEGEN--\":22522:22527   */\n      dup2\n        /* \"--CODEGEN--\":22519:22553   */\n      eq\n        /* \"--CODEGEN--\":22509:22511   */\n      tag_419\n      jumpi\n        /* \"--CODEGEN--\":22567:22568   */\n      0x00\n        /* \"--CODEGEN--\":22564:22565   */\n      dup1\n        /* \"--CODEGEN--\":22557:22569   */\n      revert\n        /* \"--CODEGEN--\":22509:22511   */\n    tag_419:\n        /* \"--CODEGEN--\":22503:22576   */\n      pop\n      jump\n        /* \"--CODEGEN--\":22583:22696   */\n    tag_263:\n        /* \"--CODEGEN--\":22650:22672   */\n      tag_420\n        /* \"--CODEGEN--\":22666:22671   */\n      dup2\n        /* \"--CODEGEN--\":22650:22672   */\n      jump(tag_391)\n    tag_420:\n        /* \"--CODEGEN--\":22643:22648   */\n      dup2\n        /* \"--CODEGEN--\":22640:22673   */\n      eq\n        /* \"--CODEGEN--\":22630:22632   */\n      tag_421\n      jumpi\n        /* \"--CODEGEN--\":22687:22688   */\n      0x00\n        /* \"--CODEGEN--\":22684:22685   */\n      dup1\n        /* \"--CODEGEN--\":22677:22689   */\n      revert\n        /* \"--CODEGEN--\":22630:22632   */\n    tag_421:\n        /* \"--CODEGEN--\":22624:22696   */\n      pop\n      jump\n\n    auxdata: 0xa365627a7a723158205dee19d33fe78ffd1832c01a6af8f1152cd1493ba8b24e057a2ceffa4ff0659d6c6578706572696d656e74616cf564736f6c63430005110040\n}\n",
				"bytecode": {
					"linkReferences": {},
					"object": "608060405234801561001057600080fd5b50611d9e806100206000396000f3fe608060405234801561001057600080fd5b50600436106100a95760003560e01c806373b029c31161007157806373b029c31461014e57806389069ea71461017e57806393614356146101af578063aa86c8fc146101df578063bd2895821461020f578063fe7f26921461022b576100a9565b80630b3e9bfc146100ae578063252e7bed146100ca578063612fa967146100e657806361650af7146101025780636725f9131461011e575b600080fd5b6100c860048036036100c3919081019061164f565b61025b565b005b6100e460048036036100df9190810190611496565b610376565b005b61010060048036036100fb9190810190611496565b610443565b005b61011c600480360361011791908101906115a8565b610497565b005b61013860048036036101339190810190611442565b61054a565b60405161014591906119b7565b60405180910390f35b61016860048036036101639190810190611442565b61066e565b6040516101759190611995565b60405180910390f35b61019860048036036101939190810190611300565b610737565b6040516101a69291906119d9565b60405180910390f35b6101c960048036036101c49190810190611442565b61098e565b6040516101d69190611a32565b60405180910390f35b6101f960048036036101f49190810190611515565b6109e2565b6040516102069190611a4d565b60405180910390f35b61022960048036036102249190810190611341565b610a8e565b005b61024560048036036102409190810190611442565b610cb9565b6040516102529190611a10565b60405180910390f35b60006001806002600088604051610272919061197e565b9081526020016040518091039020878154811061028b57fe5b9060005260206000209060050201600001856040516102aa919061197e565b908152602001604051809103902060003373ffffffffffffffffffffffffffffffffffffffff1673ffffffffffffffffffffffffffffffffffffffff16815260200190815260200160002060009054906101000a900460ff1660ff16901c1660ff161490508061031657fe5b82600086604051610327919061197e565b9081526020016040518091039020858154811061034057fe5b906000526020600020906005020160030160006101000a81548163ffffffff021916908363ffffffff1602179055505050505050565b600060018060008660405161038b919061197e565b908152602001604051809103902085815481106103a457fe5b9060005260206000209060050201600001846040516103c3919061197e565b908152602001604051809103902060003373ffffffffffffffffffffffffffffffffffffffff1673ffffffffffffffffffffffffffffffffffffffff16815260200190815260200160002060009054906101000a900460ff161660ff161490508061042a57fe5b3373ffffffffffffffffffffffffffffffffffffffff16ff5b80600084604051610454919061197e565b9081526020016040518091039020838154811061046d57fe5b90600052602060002090600502016004019080519060200190610491929190610d96565b50505050565b806000866040516104a8919061197e565b908152602001604051809103902085815481106104c157fe5b9060005260206000209060050201600001846040516104e0919061197e565b908152602001604051809103902060008473ffffffffffffffffffffffffffffffffffffffff1673ffffffffffffffffffffffffffffffffffffffff16815260200190815260200160002060006101000a81548160ff021916908360ff1602179055505050505050565b606060008360405161055c919061197e565b9081526020016040518091039020828154811061057557fe5b9060005260206000209060050201600101805480602002602001604051908101604052809291908181526020016000905b82821015610662578382906000526020600020018054600181600116156101000203166002900480601f01602080910402602001604051908101604052809291908181526020018280546001816001161561010002031660029004801561064e5780601f106106235761010080835404028352916020019161064e565b820191906000526020600020905b81548152906001019060200180831161063157829003601f168201915b5050505050815260200190600101906105a6565b50505050905092915050565b6060600083604051610680919061197e565b9081526020016040518091039020828154811061069957fe5b906000526020600020906005020160020180548060200260200160405190810160405280929190818152602001828054801561072a57602002820191906000526020600020905b8160009054906101000a900473ffffffffffffffffffffffffffffffffffffffff1673ffffffffffffffffffffffffffffffffffffffff16815260200190600101908083116106e0575b5050505050905092915050565b606080606060008460405161074c919061197e565b90815260200160405180910390208054905060405190808252806020026020018201604052801561079157816020015b606081526020019060019003908161077c5790505b50905060606000856040516107a6919061197e565b9081526020016040518091039020805490506040519080825280602002602001820160405280156107e65781602001602082028038833980820191505090505b50905060008090505b6000866040516107ff919061197e565b90815260200160405180910390208054905081101561098057600086604051610828919061197e565b9081526020016040518091039020818154811061084157fe5b90600052602060002090600502016004018054600181600116156101000203166002900480601f0160208091040260200160405190810160405280929190818152602001828054600181600116156101000203166002900480156108e65780601f106108bb576101008083540402835291602001916108e6565b820191906000526020600020905b8154815290600101906020018083116108c957829003601f168201915b50505050508382815181106108f757fe5b6020026020010181905250600086604051610912919061197e565b9081526020016040518091039020818154811061092b57fe5b906000526020600020906005020160030160009054906101000a900463ffffffff1682828151811061095957fe5b602002602001019063ffffffff16908163ffffffff168152505080806001019150506107ef565b508181935093505050915091565b6000808360405161099f919061197e565b908152602001604051809103902082815481106109b857fe5b906000526020600020906005020160030160009054906101000a900463ffffffff16905092915050565b600080856040516109f3919061197e565b90815260200160405180910390208481548110610a0c57fe5b906000526020600020906005020160000183604051610a2b919061197e565b908152602001604051809103902060008373ffffffffffffffffffffffffffffffffffffffff1673ffffffffffffffffffffffffffffffffffffffff16815260200190815260200160002060009054906101000a900460ff169050949350505050565b610a96610e16565b6040518060800160405280868152602001858152602001600063ffffffff168152602001878152509050600087604051610ad0919061197e565b908152602001604051809103902081908060018154018082558091505090600182039060005260206000209060050201600090919290919091506000820151816001019080519060200190610b26929190610e44565b506020820151816002019080519060200190610b43929190610ea4565b5060408201518160030160006101000a81548163ffffffff021916908363ffffffff1602179055506060820151816004019080519060200190610b87929190610f2e565b5050505060008090505b82811015610caf57838181518110610ba557fe5b6020026020010151600089604051610bbd919061197e565b9081526020016040518091039020600160008b604051610bdd919061197e565b9081526020016040518091039020805490500381548110610bfa57fe5b9060005260206000209060050201600001878381518110610c1757fe5b6020026020010151604051610c2c9190611967565b90815260200160405180910390206000878481518110610c4857fe5b602002602001015173ffffffffffffffffffffffffffffffffffffffff1673ffffffffffffffffffffffffffffffffffffffff16815260200190815260200160002060006101000a81548160ff021916908360ff1602179055508080600101915050610b91565b5050505050505050565b6060600083604051610ccb919061197e565b90815260200160405180910390208281548110610ce457fe5b90600052602060002090600502016004018054600181600116156101000203166002900480601f016020809104026020016040519081016040528092919081815260200182805460018160011615610100020316600290048015610d895780601f10610d5e57610100808354040283529160200191610d89565b820191906000526020600020905b815481529060010190602001808311610d6c57829003601f168201915b5050505050905092915050565b828054600181600116156101000203166002900490600052602060002090601f016020900481019282601f10610dd757805160ff1916838001178555610e05565b82800160010185558215610e05579182015b82811115610e04578251825591602001919060010190610de9565b5b509050610e129190610fae565b5090565b60405180608001604052806060815260200160608152602001600063ffffffff168152602001606081525090565b828054828255906000526020600020908101928215610e93579160200282015b82811115610e92578251829080519060200190610e82929190610f2e565b5091602001919060010190610e64565b5b509050610ea09190610fd3565b5090565b828054828255906000526020600020908101928215610f1d579160200282015b82811115610f1c5782518260006101000a81548173ffffffffffffffffffffffffffffffffffffffff021916908373ffffffffffffffffffffffffffffffffffffffff16021790555091602001919060010190610ec4565b5b509050610f2a9190610fff565b5090565b828054600181600116156101000203166002900490600052602060002090601f016020900481019282601f10610f6f57805160ff1916838001178555610f9d565b82800160010185558215610f9d579182015b82811115610f9c578251825591602001919060010190610f81565b5b509050610faa9190610fae565b5090565b610fd091905b80821115610fcc576000816000905550600101610fb4565b5090565b90565b610ffc91905b80821115610ff85760008181610fef9190611042565b50600101610fd9565b5090565b90565b61103f91905b8082111561103b57600081816101000a81549073ffffffffffffffffffffffffffffffffffffffff021916905550600101611005565b5090565b90565b50805460018160011615610100020316600290046000825580601f106110685750611087565b601f0160209004906000526020600020908101906110869190610fae565b5b50565b60008135905061109981611cff565b92915050565b600082601f8301126110b057600080fd5b81356110c36110be82611a95565b611a68565b915081818352602084019350602081019050838560208402820111156110e857600080fd5b60005b8381101561111857816110fe888261108a565b8452602084019350602083019250506001810190506110eb565b5050505092915050565b600082601f83011261113357600080fd5b813561114661114182611abd565b611a68565b9150818183526020840193506020810190508360005b8381101561118c57813586016111728882611219565b84526020840193506020830192505060018101905061115c565b5050505092915050565b600082601f8301126111a757600080fd5b81356111ba6111b582611ae5565b611a68565b915081818352602084019350602081019050838560208402820111156111df57600080fd5b60005b8381101561120f57816111f588826112eb565b8452602084019350602083019250506001810190506111e2565b5050505092915050565b600082601f83011261122a57600080fd5b813561123d61123882611b0d565b611a68565b9150808252602083016020830185838301111561125957600080fd5b611264838284611cac565b50505092915050565b600082601f83011261127e57600080fd5b813561129161128c82611b39565b611a68565b915080825260208301602083018583830111156112ad57600080fd5b6112b8838284611cac565b50505092915050565b6000813590506112d081611d16565b92915050565b6000813590506112e581611d2d565b92915050565b6000813590506112fa81611d44565b92915050565b60006020828403121561131257600080fd5b600082013567ffffffffffffffff81111561132c57600080fd5b6113388482850161126d565b91505092915050565b60008060008060008060c0878903121561135a57600080fd5b600087013567ffffffffffffffff81111561137457600080fd5b61138089828a0161126d565b965050602087013567ffffffffffffffff81111561139d57600080fd5b6113a989828a0161126d565b955050604087013567ffffffffffffffff8111156113c657600080fd5b6113d289828a01611122565b945050606087013567ffffffffffffffff8111156113ef57600080fd5b6113fb89828a0161109f565b935050608087013567ffffffffffffffff81111561141857600080fd5b61142489828a01611196565b92505060a061143589828a016112c1565b9150509295509295509295565b6000806040838503121561145557600080fd5b600083013567ffffffffffffffff81111561146f57600080fd5b61147b8582860161126d565b925050602061148c858286016112c1565b9150509250929050565b6000806000606084860312156114ab57600080fd5b600084013567ffffffffffffffff8111156114c557600080fd5b6114d18682870161126d565b93505060206114e2868287016112c1565b925050604084013567ffffffffffffffff8111156114ff57600080fd5b61150b8682870161126d565b9150509250925092565b6000806000806080858703121561152b57600080fd5b600085013567ffffffffffffffff81111561154557600080fd5b6115518782880161126d565b9450506020611562878288016112c1565b935050604085013567ffffffffffffffff81111561157f57600080fd5b61158b8782880161126d565b925050606061159c8782880161108a565b91505092959194509250565b600080600080600060a086880312156115c057600080fd5b600086013567ffffffffffffffff8111156115da57600080fd5b6115e68882890161126d565b95505060206115f7888289016112c1565b945050604086013567ffffffffffffffff81111561161457600080fd5b6116208882890161126d565b93505060606116318882890161108a565b9250506080611642888289016112eb565b9150509295509295909350565b6000806000806080858703121561166557600080fd5b600085013567ffffffffffffffff81111561167f57600080fd5b61168b8782880161126d565b945050602061169c878288016112c1565b93505060406116ad878288016112d6565b925050606085013567ffffffffffffffff8111156116ca57600080fd5b6116d68782880161126d565b91505092959194509250565b60006116ee8383611726565b60208301905092915050565b600061170683836118d0565b905092915050565b600061171a838361193a565b60208301905092915050565b61172f81611c53565b82525050565b600061174082611b95565b61174a8185611bf3565b935061175583611b65565b8060005b8381101561178657815161176d88826116e2565b975061177883611bcc565b925050600181019050611759565b5085935050505092915050565b600061179e82611ba0565b6117a88185611c04565b9350836020820285016117ba85611b75565b8060005b858110156117f657848403895281516117d785826116fa565b94506117e283611bd9565b925060208a019950506001810190506117be565b50829750879550505050505092915050565b600061181382611bab565b61181d8185611c15565b935061182883611b85565b8060005b83811015611859578151611840888261170e565b975061184b83611be6565b92505060018101905061182c565b5085935050505092915050565b600061187182611bc1565b61187b8185611c37565b935061188b818560208601611cbb565b61189481611cee565b840191505092915050565b60006118aa82611bc1565b6118b48185611c48565b93506118c4818560208601611cbb565b80840191505092915050565b60006118db82611bb6565b6118e58185611c26565b93506118f5818560208601611cbb565b6118fe81611cee565b840191505092915050565b600061191482611bb6565b61191e8185611c48565b935061192e818560208601611cbb565b80840191505092915050565b61194381611c8f565b82525050565b61195281611c8f565b82525050565b61196181611c9f565b82525050565b60006119738284611909565b915081905092915050565b600061198a828461189f565b915081905092915050565b600060208201905081810360008301526119af8184611735565b905092915050565b600060208201905081810360008301526119d18184611793565b905092915050565b600060408201905081810360008301526119f38185611793565b90508181036020830152611a078184611808565b90509392505050565b60006020820190508181036000830152611a2a8184611866565b905092915050565b6000602082019050611a476000830184611949565b92915050565b6000602082019050611a626000830184611958565b92915050565b6000604051905081810181811067ffffffffffffffff82111715611a8b57600080fd5b8060405250919050565b600067ffffffffffffffff821115611aac57600080fd5b602082029050602081019050919050565b600067ffffffffffffffff821115611ad457600080fd5b602082029050602081019050919050565b600067ffffffffffffffff821115611afc57600080fd5b602082029050602081019050919050565b600067ffffffffffffffff821115611b2457600080fd5b601f19601f8301169050602081019050919050565b600067ffffffffffffffff821115611b5057600080fd5b601f19601f8301169050602081019050919050565b6000819050602082019050919050565b6000819050602082019050919050565b6000819050602082019050919050565b600081519050919050565b600081519050919050565b600081519050919050565b600081519050919050565b600081519050919050565b6000602082019050919050565b6000602082019050919050565b6000602082019050919050565b600082825260208201905092915050565b600082825260208201905092915050565b600082825260208201905092915050565b600082825260208201905092915050565b600082825260208201905092915050565b600081905092915050565b6000611c5e82611c65565b9050919050565b600073ffffffffffffffffffffffffffffffffffffffff82169050919050565b6000819050919050565b600063ffffffff82169050919050565b600060ff82169050919050565b82818337600083830152505050565b60005b83811015611cd9578082015181840152602081019050611cbe565b83811115611ce8576000848401525b50505050565b6000601f19601f8301169050919050565b611d0881611c53565b8114611d1357600080fd5b50565b611d1f81611c85565b8114611d2a57600080fd5b50565b611d3681611c8f565b8114611d4157600080fd5b50565b611d4d81611c9f565b8114611d5857600080fd5b5056fea365627a7a723158205dee19d33fe78ffd1832c01a6af8f1152cd1493ba8b24e057a2ceffa4ff0659d6c6578706572696d656e74616cf564736f6c63430005110040",
					"opcodes": "PUSH1 0x80 PUSH1 0x40 MSTORE CALLVALUE DUP1 ISZERO PUSH2 0x10 JUMPI PUSH1 0x0 DUP1 REVERT JUMPDEST POP PUSH2 0x1D9E DUP1 PUSH2 0x20 PUSH1 0x0 CODECOPY PUSH1 0x0 RETURN INVALID PUSH1 0x80 PUSH1 0x40 MSTORE CALLVALUE DUP1 ISZERO PUSH2 0x10 JUMPI PUSH1 0x0 DUP1 REVERT JUMPDEST POP PUSH1 0x4 CALLDATASIZE LT PUSH2 0xA9 JUMPI PUSH1 0x0 CALLDATALOAD PUSH1 0xE0 SHR DUP1 PUSH4 0x73B029C3 GT PUSH2 0x71 JUMPI DUP1 PUSH4 0x73B029C3 EQ PUSH2 0x14E JUMPI DUP1 PUSH4 0x89069EA7 EQ PUSH2 0x17E JUMPI DUP1 PUSH4 0x93614356 EQ PUSH2 0x1AF JUMPI DUP1 PUSH4 0xAA86C8FC EQ PUSH2 0x1DF JUMPI DUP1 PUSH4 0xBD289582 EQ PUSH2 0x20F JUMPI DUP1 PUSH4 0xFE7F2692 EQ PUSH2 0x22B JUMPI PUSH2 0xA9 JUMP JUMPDEST DUP1 PUSH4 0xB3E9BFC EQ PUSH2 0xAE JUMPI DUP1 PUSH4 0x252E7BED EQ PUSH2 0xCA JUMPI DUP1 PUSH4 0x612FA967 EQ PUSH2 0xE6 JUMPI DUP1 PUSH4 0x61650AF7 EQ PUSH2 0x102 JUMPI DUP1 PUSH4 0x6725F913 EQ PUSH2 0x11E JUMPI JUMPDEST PUSH1 0x0 DUP1 REVERT JUMPDEST PUSH2 0xC8 PUSH1 0x4 DUP1 CALLDATASIZE SUB PUSH2 0xC3 SWAP2 SWAP1 DUP2 ADD SWAP1 PUSH2 0x164F JUMP JUMPDEST PUSH2 0x25B JUMP JUMPDEST STOP JUMPDEST PUSH2 0xE4 PUSH1 0x4 DUP1 CALLDATASIZE SUB PUSH2 0xDF SWAP2 SWAP1 DUP2 ADD SWAP1 PUSH2 0x1496 JUMP JUMPDEST PUSH2 0x376 JUMP JUMPDEST STOP JUMPDEST PUSH2 0x100 PUSH1 0x4 DUP1 CALLDATASIZE SUB PUSH2 0xFB SWAP2 SWAP1 DUP2 ADD SWAP1 PUSH2 0x1496 JUMP JUMPDEST PUSH2 0x443 JUMP JUMPDEST STOP JUMPDEST PUSH2 0x11C PUSH1 0x4 DUP1 CALLDATASIZE SUB PUSH2 0x117 SWAP2 SWAP1 DUP2 ADD SWAP1 PUSH2 0x15A8 JUMP JUMPDEST PUSH2 0x497 JUMP JUMPDEST STOP JUMPDEST PUSH2 0x138 PUSH1 0x4 DUP1 CALLDATASIZE SUB PUSH2 0x133 SWAP2 SWAP1 DUP2 ADD SWAP1 PUSH2 0x1442 JUMP JUMPDEST PUSH2 0x54A JUMP JUMPDEST PUSH1 0x40 MLOAD PUSH2 0x145 SWAP2 SWAP1 PUSH2 0x19B7 JUMP JUMPDEST PUSH1 0x40 MLOAD DUP1 SWAP2 SUB SWAP1 RETURN JUMPDEST PUSH2 0x168 PUSH1 0x4 DUP1 CALLDATASIZE SUB PUSH2 0x163 SWAP2 SWAP1 DUP2 ADD SWAP1 PUSH2 0x1442 JUMP JUMPDEST PUSH2 0x66E JUMP JUMPDEST PUSH1 0x40 MLOAD PUSH2 0x175 SWAP2 SWAP1 PUSH2 0x1995 JUMP JUMPDEST PUSH1 0x40 MLOAD DUP1 SWAP2 SUB SWAP1 RETURN JUMPDEST PUSH2 0x198 PUSH1 0x4 DUP1 CALLDATASIZE SUB PUSH2 0x193 SWAP2 SWAP1 DUP2 ADD SWAP1 PUSH2 0x1300 JUMP JUMPDEST PUSH2 0x737 JUMP JUMPDEST PUSH1 0x40 MLOAD PUSH2 0x1A6 SWAP3 SWAP2 SWAP1 PUSH2 0x19D9 JUMP JUMPDEST PUSH1 0x40 MLOAD DUP1 SWAP2 SUB SWAP1 RETURN JUMPDEST PUSH2 0x1C9 PUSH1 0x4 DUP1 CALLDATASIZE SUB PUSH2 0x1C4 SWAP2 SWAP1 DUP2 ADD SWAP1 PUSH2 0x1442 JUMP JUMPDEST PUSH2 0x98E JUMP JUMPDEST PUSH1 0x40 MLOAD PUSH2 0x1D6 SWAP2 SWAP1 PUSH2 0x1A32 JUMP JUMPDEST PUSH1 0x40 MLOAD DUP1 SWAP2 SUB SWAP1 RETURN JUMPDEST PUSH2 0x1F9 PUSH1 0x4 DUP1 CALLDATASIZE SUB PUSH2 0x1F4 SWAP2 SWAP1 DUP2 ADD SWAP1 PUSH2 0x1515 JUMP JUMPDEST PUSH2 0x9E2 JUMP JUMPDEST PUSH1 0x40 MLOAD PUSH2 0x206 SWAP2 SWAP1 PUSH2 0x1A4D JUMP JUMPDEST PUSH1 0x40 MLOAD DUP1 SWAP2 SUB SWAP1 RETURN JUMPDEST PUSH2 0x229 PUSH1 0x4 DUP1 CALLDATASIZE SUB PUSH2 0x224 SWAP2 SWAP1 DUP2 ADD SWAP1 PUSH2 0x1341 JUMP JUMPDEST PUSH2 0xA8E JUMP JUMPDEST STOP JUMPDEST PUSH2 0x245 PUSH1 0x4 DUP1 CALLDATASIZE SUB PUSH2 0x240 SWAP2 SWAP1 DUP2 ADD SWAP1 PUSH2 0x1442 JUMP JUMPDEST PUSH2 0xCB9 JUMP JUMPDEST PUSH1 0x40 MLOAD PUSH2 0x252 SWAP2 SWAP1 PUSH2 0x1A10 JUMP JUMPDEST PUSH1 0x40 MLOAD DUP1 SWAP2 SUB SWAP1 RETURN JUMPDEST PUSH1 0x0 PUSH1 0x1 DUP1 PUSH1 0x2 PUSH1 0x0 DUP9 PUSH1 0x40 MLOAD PUSH2 0x272 SWAP2 SWAP1 PUSH2 0x197E JUMP JUMPDEST SWAP1 DUP2 MSTORE PUSH1 0x20 ADD PUSH1 0x40 MLOAD DUP1 SWAP2 SUB SWAP1 KECCAK256 DUP8 DUP2 SLOAD DUP2 LT PUSH2 0x28B JUMPI INVALID JUMPDEST SWAP1 PUSH1 0x0 MSTORE PUSH1 0x20 PUSH1 0x0 KECCAK256 SWAP1 PUSH1 0x5 MUL ADD PUSH1 0x0 ADD DUP6 PUSH1 0x40 MLOAD PUSH2 0x2AA SWAP2 SWAP1 PUSH2 0x197E JUMP JUMPDEST SWAP1 DUP2 MSTORE PUSH1 0x20 ADD PUSH1 0x40 MLOAD DUP1 SWAP2 SUB SWAP1 KECCAK256 PUSH1 0x0 CALLER PUSH20 0xFFFFFFFFFFFFFFFFFFFFFFFFFFFFFFFFFFFFFFFF AND PUSH20 0xFFFFFFFFFFFFFFFFFFFFFFFFFFFFFFFFFFFFFFFF AND DUP2 MSTORE PUSH1 0x20 ADD SWAP1 DUP2 MSTORE PUSH1 0x20 ADD PUSH1 0x0 KECCAK256 PUSH1 0x0 SWAP1 SLOAD SWAP1 PUSH2 0x100 EXP SWAP1 DIV PUSH1 0xFF AND PUSH1 0xFF AND SWAP1 SHR AND PUSH1 0xFF AND EQ SWAP1 POP DUP1 PUSH2 0x316 JUMPI INVALID JUMPDEST DUP3 PUSH1 0x0 DUP7 PUSH1 0x40 MLOAD PUSH2 0x327 SWAP2 SWAP1 PUSH2 0x197E JUMP JUMPDEST SWAP1 DUP2 MSTORE PUSH1 0x20 ADD PUSH1 0x40 MLOAD DUP1 SWAP2 SUB SWAP1 KECCAK256 DUP6 DUP2 SLOAD DUP2 LT PUSH2 0x340 JUMPI INVALID JUMPDEST SWAP1 PUSH1 0x0 MSTORE PUSH1 0x20 PUSH1 0x0 KECCAK256 SWAP1 PUSH1 0x5 MUL ADD PUSH1 0x3 ADD PUSH1 0x0 PUSH2 0x100 EXP DUP2 SLOAD DUP2 PUSH4 0xFFFFFFFF MUL NOT AND SWAP1 DUP4 PUSH4 0xFFFFFFFF AND MUL OR SWAP1 SSTORE POP POP POP POP POP POP JUMP JUMPDEST PUSH1 0x0 PUSH1 0x1 DUP1 PUSH1 0x0 DUP7 PUSH1 0x40 MLOAD PUSH2 0x38B SWAP2 SWAP1 PUSH2 0x197E JUMP JUMPDEST SWAP1 DUP2 MSTORE PUSH1 0x20 ADD PUSH1 0x40 MLOAD DUP1 SWAP2 SUB SWAP1 KECCAK256 DUP6 DUP2 SLOAD DUP2 LT PUSH2 0x3A4 JUMPI INVALID JUMPDEST SWAP1 PUSH1 0x0 MSTORE PUSH1 0x20 PUSH1 0x0 KECCAK256 SWAP1 PUSH1 0x5 MUL ADD PUSH1 0x0 ADD DUP5 PUSH1 0x40 MLOAD PUSH2 0x3C3 SWAP2 SWAP1 PUSH2 0x197E JUMP JUMPDEST SWAP1 DUP2 MSTORE PUSH1 0x20 ADD PUSH1 0x40 MLOAD DUP1 SWAP2 SUB SWAP1 KECCAK256 PUSH1 0x0 CALLER PUSH20 0xFFFFFFFFFFFFFFFFFFFFFFFFFFFFFFFFFFFFFFFF AND PUSH20 0xFFFFFFFFFFFFFFFFFFFFFFFFFFFFFFFFFFFFFFFF AND DUP2 MSTORE PUSH1 0x20 ADD SWAP1 DUP2 MSTORE PUSH1 0x20 ADD PUSH1 0x0 KECCAK256 PUSH1 0x0 SWAP1 SLOAD SWAP1 PUSH2 0x100 EXP SWAP1 DIV PUSH1 0xFF AND AND PUSH1 0xFF AND EQ SWAP1 POP DUP1 PUSH2 0x42A JUMPI INVALID JUMPDEST CALLER PUSH20 0xFFFFFFFFFFFFFFFFFFFFFFFFFFFFFFFFFFFFFFFF AND SELFDESTRUCT JUMPDEST DUP1 PUSH1 0x0 DUP5 PUSH1 0x40 MLOAD PUSH2 0x454 SWAP2 SWAP1 PUSH2 0x197E JUMP JUMPDEST SWAP1 DUP2 MSTORE PUSH1 0x20 ADD PUSH1 0x40 MLOAD DUP1 SWAP2 SUB SWAP1 KECCAK256 DUP4 DUP2 SLOAD DUP2 LT PUSH2 0x46D JUMPI INVALID JUMPDEST SWAP1 PUSH1 0x0 MSTORE PUSH1 0x20 PUSH1 0x0 KECCAK256 SWAP1 PUSH1 0x5 MUL ADD PUSH1 0x4 ADD SWAP1 DUP1 MLOAD SWAP1 PUSH1 0x20 ADD SWAP1 PUSH2 0x491 SWAP3 SWAP2 SWAP1 PUSH2 0xD96 JUMP JUMPDEST POP POP POP POP JUMP JUMPDEST DUP1 PUSH1 0x0 DUP7 PUSH1 0x40 MLOAD PUSH2 0x4A8 SWAP2 SWAP1 PUSH2 0x197E JUMP JUMPDEST SWAP1 DUP2 MSTORE PUSH1 0x20 ADD PUSH1 0x40 MLOAD DUP1 SWAP2 SUB SWAP1 KECCAK256 DUP6 DUP2 SLOAD DUP2 LT PUSH2 0x4C1 JUMPI INVALID JUMPDEST SWAP1 PUSH1 0x0 MSTORE PUSH1 0x20 PUSH1 0x0 KECCAK256 SWAP1 PUSH1 0x5 MUL ADD PUSH1 0x0 ADD DUP5 PUSH1 0x40 MLOAD PUSH2 0x4E0 SWAP2 SWAP1 PUSH2 0x197E JUMP JUMPDEST SWAP1 DUP2 MSTORE PUSH1 0x20 ADD PUSH1 0x40 MLOAD DUP1 SWAP2 SUB SWAP1 KECCAK256 PUSH1 0x0 DUP5 PUSH20 0xFFFFFFFFFFFFFFFFFFFFFFFFFFFFFFFFFFFFFFFF AND PUSH20 0xFFFFFFFFFFFFFFFFFFFFFFFFFFFFFFFFFFFFFFFF AND DUP2 MSTORE PUSH1 0x20 ADD SWAP1 DUP2 MSTORE PUSH1 0x20 ADD PUSH1 0x0 KECCAK256 PUSH1 0x0 PUSH2 0x100 EXP DUP2 SLOAD DUP2 PUSH1 0xFF MUL NOT AND SWAP1 DUP4 PUSH1 0xFF AND MUL OR SWAP1 SSTORE POP POP POP POP POP POP JUMP JUMPDEST PUSH1 0x60 PUSH1 0x0 DUP4 PUSH1 0x40 MLOAD PUSH2 0x55C SWAP2 SWAP1 PUSH2 0x197E JUMP JUMPDEST SWAP1 DUP2 MSTORE PUSH1 0x20 ADD PUSH1 0x40 MLOAD DUP1 SWAP2 SUB SWAP1 KECCAK256 DUP3 DUP2 SLOAD DUP2 LT PUSH2 0x575 JUMPI INVALID JUMPDEST SWAP1 PUSH1 0x0 MSTORE PUSH1 0x20 PUSH1 0x0 KECCAK256 SWAP1 PUSH1 0x5 MUL ADD PUSH1 0x1 ADD DUP1 SLOAD DUP1 PUSH1 0x20 MUL PUSH1 0x20 ADD PUSH1 0x40 MLOAD SWAP1 DUP2 ADD PUSH1 0x40 MSTORE DUP1 SWAP3 SWAP2 SWAP1 DUP2 DUP2 MSTORE PUSH1 0x20 ADD PUSH1 0x0 SWAP1 JUMPDEST DUP3 DUP3 LT ISZERO PUSH2 0x662 JUMPI DUP4 DUP3 SWAP1 PUSH1 0x0 MSTORE PUSH1 0x20 PUSH1 0x0 KECCAK256 ADD DUP1 SLOAD PUSH1 0x1 DUP2 PUSH1 0x1 AND ISZERO PUSH2 0x100 MUL SUB AND PUSH1 0x2 SWAP1 DIV DUP1 PUSH1 0x1F ADD PUSH1 0x20 DUP1 SWAP2 DIV MUL PUSH1 0x20 ADD PUSH1 0x40 MLOAD SWAP1 DUP2 ADD PUSH1 0x40 MSTORE DUP1 SWAP3 SWAP2 SWAP1 DUP2 DUP2 MSTORE PUSH1 0x20 ADD DUP3 DUP1 SLOAD PUSH1 0x1 DUP2 PUSH1 0x1 AND ISZERO PUSH2 0x100 MUL SUB AND PUSH1 0x2 SWAP1 DIV DUP1 ISZERO PUSH2 0x64E JUMPI DUP1 PUSH1 0x1F LT PUSH2 0x623 JUMPI PUSH2 0x100 DUP1 DUP4 SLOAD DIV MUL DUP4 MSTORE SWAP2 PUSH1 0x20 ADD SWAP2 PUSH2 0x64E JUMP JUMPDEST DUP3 ADD SWAP2 SWAP1 PUSH1 0x0 MSTORE PUSH1 0x20 PUSH1 0x0 KECCAK256 SWAP1 JUMPDEST DUP2 SLOAD DUP2 MSTORE SWAP1 PUSH1 0x1 ADD SWAP1 PUSH1 0x20 ADD DUP1 DUP4 GT PUSH2 0x631 JUMPI DUP3 SWAP1 SUB PUSH1 0x1F AND DUP3 ADD SWAP2 JUMPDEST POP POP POP POP POP DUP2 MSTORE PUSH1 0x20 ADD SWAP1 PUSH1 0x1 ADD SWAP1 PUSH2 0x5A6 JUMP JUMPDEST POP POP POP POP SWAP1 POP SWAP3 SWAP2 POP POP JUMP JUMPDEST PUSH1 0x60 PUSH1 0x0 DUP4 PUSH1 0x40 MLOAD PUSH2 0x680 SWAP2 SWAP1 PUSH2 0x197E JUMP JUMPDEST SWAP1 DUP2 MSTORE PUSH1 0x20 ADD PUSH1 0x40 MLOAD DUP1 SWAP2 SUB SWAP1 KECCAK256 DUP3 DUP2 SLOAD DUP2 LT PUSH2 0x699 JUMPI INVALID JUMPDEST SWAP1 PUSH1 0x0 MSTORE PUSH1 0x20 PUSH1 0x0 KECCAK256 SWAP1 PUSH1 0x5 MUL ADD PUSH1 0x2 ADD DUP1 SLOAD DUP1 PUSH1 0x20 MUL PUSH1 0x20 ADD PUSH1 0x40 MLOAD SWAP1 DUP2 ADD PUSH1 0x40 MSTORE DUP1 SWAP3 SWAP2 SWAP1 DUP2 DUP2 MSTORE PUSH1 0x20 ADD DUP3 DUP1 SLOAD DUP1 ISZERO PUSH2 0x72A JUMPI PUSH1 0x20 MUL DUP3 ADD SWAP2 SWAP1 PUSH1 0x0 MSTORE PUSH1 0x20 PUSH1 0x0 KECCAK256 SWAP1 JUMPDEST DUP2 PUSH1 0x0 SWAP1 SLOAD SWAP1 PUSH2 0x100 EXP SWAP1 DIV PUSH20 0xFFFFFFFFFFFFFFFFFFFFFFFFFFFFFFFFFFFFFFFF AND PUSH20 0xFFFFFFFFFFFFFFFFFFFFFFFFFFFFFFFFFFFFFFFF AND DUP2 MSTORE PUSH1 0x20 ADD SWAP1 PUSH1 0x1 ADD SWAP1 DUP1 DUP4 GT PUSH2 0x6E0 JUMPI JUMPDEST POP POP POP POP POP SWAP1 POP SWAP3 SWAP2 POP POP JUMP JUMPDEST PUSH1 0x60 DUP1 PUSH1 0x60 PUSH1 0x0 DUP5 PUSH1 0x40 MLOAD PUSH2 0x74C SWAP2 SWAP1 PUSH2 0x197E JUMP JUMPDEST SWAP1 DUP2 MSTORE PUSH1 0x20 ADD PUSH1 0x40 MLOAD DUP1 SWAP2 SUB SWAP1 KECCAK256 DUP1 SLOAD SWAP1 POP PUSH1 0x40 MLOAD SWAP1 DUP1 DUP3 MSTORE DUP1 PUSH1 0x20 MUL PUSH1 0x20 ADD DUP3 ADD PUSH1 0x40 MSTORE DUP1 ISZERO PUSH2 0x791 JUMPI DUP2 PUSH1 0x20 ADD JUMPDEST PUSH1 0x60 DUP2 MSTORE PUSH1 0x20 ADD SWAP1 PUSH1 0x1 SWAP1 SUB SWAP1 DUP2 PUSH2 0x77C JUMPI SWAP1 POP JUMPDEST POP SWAP1 POP PUSH1 0x60 PUSH1 0x0 DUP6 PUSH1 0x40 MLOAD PUSH2 0x7A6 SWAP2 SWAP1 PUSH2 0x197E JUMP JUMPDEST SWAP1 DUP2 MSTORE PUSH1 0x20 ADD PUSH1 0x40 MLOAD DUP1 SWAP2 SUB SWAP1 KECCAK256 DUP1 SLOAD SWAP1 POP PUSH1 0x40 MLOAD SWAP1 DUP1 DUP3 MSTORE DUP1 PUSH1 0x20 MUL PUSH1 0x20 ADD DUP3 ADD PUSH1 0x40 MSTORE DUP1 ISZERO PUSH2 0x7E6 JUMPI DUP2 PUSH1 0x20 ADD PUSH1 0x20 DUP3 MUL DUP1 CODESIZE DUP4 CODECOPY DUP1 DUP3 ADD SWAP2 POP POP SWAP1 POP JUMPDEST POP SWAP1 POP PUSH1 0x0 DUP1 SWAP1 POP JUMPDEST PUSH1 0x0 DUP7 PUSH1 0x40 MLOAD PUSH2 0x7FF SWAP2 SWAP1 PUSH2 0x197E JUMP JUMPDEST SWAP1 DUP2 MSTORE PUSH1 0x20 ADD PUSH1 0x40 MLOAD DUP1 SWAP2 SUB SWAP1 KECCAK256 DUP1 SLOAD SWAP1 POP DUP2 LT ISZERO PUSH2 0x980 JUMPI PUSH1 0x0 DUP7 PUSH1 0x40 MLOAD PUSH2 0x828 SWAP2 SWAP1 PUSH2 0x197E JUMP JUMPDEST SWAP1 DUP2 MSTORE PUSH1 0x20 ADD PUSH1 0x40 MLOAD DUP1 SWAP2 SUB SWAP1 KECCAK256 DUP2 DUP2 SLOAD DUP2 LT PUSH2 0x841 JUMPI INVALID JUMPDEST SWAP1 PUSH1 0x0 MSTORE PUSH1 0x20 PUSH1 0x0 KECCAK256 SWAP1 PUSH1 0x5 MUL ADD PUSH1 0x4 ADD DUP1 SLOAD PUSH1 0x1 DUP2 PUSH1 0x1 AND ISZERO PUSH2 0x100 MUL SUB AND PUSH1 0x2 SWAP1 DIV DUP1 PUSH1 0x1F ADD PUSH1 0x20 DUP1 SWAP2 DIV MUL PUSH1 0x20 ADD PUSH1 0x40 MLOAD SWAP1 DUP2 ADD PUSH1 0x40 MSTORE DUP1 SWAP3 SWAP2 SWAP1 DUP2 DUP2 MSTORE PUSH1 0x20 ADD DUP3 DUP1 SLOAD PUSH1 0x1 DUP2 PUSH1 0x1 AND ISZERO PUSH2 0x100 MUL SUB AND PUSH1 0x2 SWAP1 DIV DUP1 ISZERO PUSH2 0x8E6 JUMPI DUP1 PUSH1 0x1F LT PUSH2 0x8BB JUMPI PUSH2 0x100 DUP1 DUP4 SLOAD DIV MUL DUP4 MSTORE SWAP2 PUSH1 0x20 ADD SWAP2 PUSH2 0x8E6 JUMP JUMPDEST DUP3 ADD SWAP2 SWAP1 PUSH1 0x0 MSTORE PUSH1 0x20 PUSH1 0x0 KECCAK256 SWAP1 JUMPDEST DUP2 SLOAD DUP2 MSTORE SWAP1 PUSH1 0x1 ADD SWAP1 PUSH1 0x20 ADD DUP1 DUP4 GT PUSH2 0x8C9 JUMPI DUP3 SWAP1 SUB PUSH1 0x1F AND DUP3 ADD SWAP2 JUMPDEST POP POP POP POP POP DUP4 DUP3 DUP2 MLOAD DUP2 LT PUSH2 0x8F7 JUMPI INVALID JUMPDEST PUSH1 0x20 MUL PUSH1 0x20 ADD ADD DUP2 SWAP1 MSTORE POP PUSH1 0x0 DUP7 PUSH1 0x40 MLOAD PUSH2 0x912 SWAP2 SWAP1 PUSH2 0x197E JUMP JUMPDEST SWAP1 DUP2 MSTORE PUSH1 0x20 ADD PUSH1 0x40 MLOAD DUP1 SWAP2 SUB SWAP1 KECCAK256 DUP2 DUP2 SLOAD DUP2 LT PUSH2 0x92B JUMPI INVALID JUMPDEST SWAP1 PUSH1 0x0 MSTORE PUSH1 0x20 PUSH1 0x0 KECCAK256 SWAP1 PUSH1 0x5 MUL ADD PUSH1 0x3 ADD PUSH1 0x0 SWAP1 SLOAD SWAP1 PUSH2 0x100 EXP SWAP1 DIV PUSH4 0xFFFFFFFF AND DUP3 DUP3 DUP2 MLOAD DUP2 LT PUSH2 0x959 JUMPI INVALID JUMPDEST PUSH1 0x20 MUL PUSH1 0x20 ADD ADD SWAP1 PUSH4 0xFFFFFFFF AND SWAP1 DUP2 PUSH4 0xFFFFFFFF AND DUP2 MSTORE POP POP DUP1 DUP1 PUSH1 0x1 ADD SWAP2 POP POP PUSH2 0x7EF JUMP JUMPDEST POP DUP2 DUP2 SWAP4 POP SWAP4 POP POP POP SWAP2 POP SWAP2 JUMP JUMPDEST PUSH1 0x0 DUP1 DUP4 PUSH1 0x40 MLOAD PUSH2 0x99F SWAP2 SWAP1 PUSH2 0x197E JUMP JUMPDEST SWAP1 DUP2 MSTORE PUSH1 0x20 ADD PUSH1 0x40 MLOAD DUP1 SWAP2 SUB SWAP1 KECCAK256 DUP3 DUP2 SLOAD DUP2 LT PUSH2 0x9B8 JUMPI INVALID JUMPDEST SWAP1 PUSH1 0x0 MSTORE PUSH1 0x20 PUSH1 0x0 KECCAK256 SWAP1 PUSH1 0x5 MUL ADD PUSH1 0x3 ADD PUSH1 0x0 SWAP1 SLOAD SWAP1 PUSH2 0x100 EXP SWAP1 DIV PUSH4 0xFFFFFFFF AND SWAP1 POP SWAP3 SWAP2 POP POP JUMP JUMPDEST PUSH1 0x0 DUP1 DUP6 PUSH1 0x40 MLOAD PUSH2 0x9F3 SWAP2 SWAP1 PUSH2 0x197E JUMP JUMPDEST SWAP1 DUP2 MSTORE PUSH1 0x20 ADD PUSH1 0x40 MLOAD DUP1 SWAP2 SUB SWAP1 KECCAK256 DUP5 DUP2 SLOAD DUP2 LT PUSH2 0xA0C JUMPI INVALID JUMPDEST SWAP1 PUSH1 0x0 MSTORE PUSH1 0x20 PUSH1 0x0 KECCAK256 SWAP1 PUSH1 0x5 MUL ADD PUSH1 0x0 ADD DUP4 PUSH1 0x40 MLOAD PUSH2 0xA2B SWAP2 SWAP1 PUSH2 0x197E JUMP JUMPDEST SWAP1 DUP2 MSTORE PUSH1 0x20 ADD PUSH1 0x40 MLOAD DUP1 SWAP2 SUB SWAP1 KECCAK256 PUSH1 0x0 DUP4 PUSH20 0xFFFFFFFFFFFFFFFFFFFFFFFFFFFFFFFFFFFFFFFF AND PUSH20 0xFFFFFFFFFFFFFFFFFFFFFFFFFFFFFFFFFFFFFFFF AND DUP2 MSTORE PUSH1 0x20 ADD SWAP1 DUP2 MSTORE PUSH1 0x20 ADD PUSH1 0x0 KECCAK256 PUSH1 0x0 SWAP1 SLOAD SWAP1 PUSH2 0x100 EXP SWAP1 DIV PUSH1 0xFF AND SWAP1 POP SWAP5 SWAP4 POP POP POP POP JUMP JUMPDEST PUSH2 0xA96 PUSH2 0xE16 JUMP JUMPDEST PUSH1 0x40 MLOAD DUP1 PUSH1 0x80 ADD PUSH1 0x40 MSTORE DUP1 DUP7 DUP2 MSTORE PUSH1 0x20 ADD DUP6 DUP2 MSTORE PUSH1 0x20 ADD PUSH1 0x0 PUSH4 0xFFFFFFFF AND DUP2 MSTORE PUSH1 0x20 ADD DUP8 DUP2 MSTORE POP SWAP1 POP PUSH1 0x0 DUP8 PUSH1 0x40 MLOAD PUSH2 0xAD0 SWAP2 SWAP1 PUSH2 0x197E JUMP JUMPDEST SWAP1 DUP2 MSTORE PUSH1 0x20 ADD PUSH1 0x40 MLOAD DUP1 SWAP2 SUB SWAP1 KECCAK256 DUP2 SWAP1 DUP1 PUSH1 0x1 DUP2 SLOAD ADD DUP1 DUP3 SSTORE DUP1 SWAP2 POP POP SWAP1 PUSH1 0x1 DUP3 SUB SWAP1 PUSH1 0x0 MSTORE PUSH1 0x20 PUSH1 0x0 KECCAK256 SWAP1 PUSH1 0x5 MUL ADD PUSH1 0x0 SWAP1 SWAP2 SWAP3 SWAP1 SWAP2 SWAP1 SWAP2 POP PUSH1 0x0 DUP3 ADD MLOAD DUP2 PUSH1 0x1 ADD SWAP1 DUP1 MLOAD SWAP1 PUSH1 0x20 ADD SWAP1 PUSH2 0xB26 SWAP3 SWAP2 SWAP1 PUSH2 0xE44 JUMP JUMPDEST POP PUSH1 0x20 DUP3 ADD MLOAD DUP2 PUSH1 0x2 ADD SWAP1 DUP1 MLOAD SWAP1 PUSH1 0x20 ADD SWAP1 PUSH2 0xB43 SWAP3 SWAP2 SWAP1 PUSH2 0xEA4 JUMP JUMPDEST POP PUSH1 0x40 DUP3 ADD MLOAD DUP2 PUSH1 0x3 ADD PUSH1 0x0 PUSH2 0x100 EXP DUP2 SLOAD DUP2 PUSH4 0xFFFFFFFF MUL NOT AND SWAP1 DUP4 PUSH4 0xFFFFFFFF AND MUL OR SWAP1 SSTORE POP PUSH1 0x60 DUP3 ADD MLOAD DUP2 PUSH1 0x4 ADD SWAP1 DUP1 MLOAD SWAP1 PUSH1 0x20 ADD SWAP1 PUSH2 0xB87 SWAP3 SWAP2 SWAP1 PUSH2 0xF2E JUMP JUMPDEST POP POP POP POP PUSH1 0x0 DUP1 SWAP1 POP JUMPDEST DUP3 DUP2 LT ISZERO PUSH2 0xCAF JUMPI DUP4 DUP2 DUP2 MLOAD DUP2 LT PUSH2 0xBA5 JUMPI INVALID JUMPDEST PUSH1 0x20 MUL PUSH1 0x20 ADD ADD MLOAD PUSH1 0x0 DUP10 PUSH1 0x40 MLOAD PUSH2 0xBBD SWAP2 SWAP1 PUSH2 0x197E JUMP JUMPDEST SWAP1 DUP2 MSTORE PUSH1 0x20 ADD PUSH1 0x40 MLOAD DUP1 SWAP2 SUB SWAP1 KECCAK256 PUSH1 0x1 PUSH1 0x0 DUP12 PUSH1 0x40 MLOAD PUSH2 0xBDD SWAP2 SWAP1 PUSH2 0x197E JUMP JUMPDEST SWAP1 DUP2 MSTORE PUSH1 0x20 ADD PUSH1 0x40 MLOAD DUP1 SWAP2 SUB SWAP1 KECCAK256 DUP1 SLOAD SWAP1 POP SUB DUP2 SLOAD DUP2 LT PUSH2 0xBFA JUMPI INVALID JUMPDEST SWAP1 PUSH1 0x0 MSTORE PUSH1 0x20 PUSH1 0x0 KECCAK256 SWAP1 PUSH1 0x5 MUL ADD PUSH1 0x0 ADD DUP8 DUP4 DUP2 MLOAD DUP2 LT PUSH2 0xC17 JUMPI INVALID JUMPDEST PUSH1 0x20 MUL PUSH1 0x20 ADD ADD MLOAD PUSH1 0x40 MLOAD PUSH2 0xC2C SWAP2 SWAP1 PUSH2 0x1967 JUMP JUMPDEST SWAP1 DUP2 MSTORE PUSH1 0x20 ADD PUSH1 0x40 MLOAD DUP1 SWAP2 SUB SWAP1 KECCAK256 PUSH1 0x0 DUP8 DUP5 DUP2 MLOAD DUP2 LT PUSH2 0xC48 JUMPI INVALID JUMPDEST PUSH1 0x20 MUL PUSH1 0x20 ADD ADD MLOAD PUSH20 0xFFFFFFFFFFFFFFFFFFFFFFFFFFFFFFFFFFFFFFFF AND PUSH20 0xFFFFFFFFFFFFFFFFFFFFFFFFFFFFFFFFFFFFFFFF AND DUP2 MSTORE PUSH1 0x20 ADD SWAP1 DUP2 MSTORE PUSH1 0x20 ADD PUSH1 0x0 KECCAK256 PUSH1 0x0 PUSH2 0x100 EXP DUP2 SLOAD DUP2 PUSH1 0xFF MUL NOT AND SWAP1 DUP4 PUSH1 0xFF AND MUL OR SWAP1 SSTORE POP DUP1 DUP1 PUSH1 0x1 ADD SWAP2 POP POP PUSH2 0xB91 JUMP JUMPDEST POP POP POP POP POP POP POP POP JUMP JUMPDEST PUSH1 0x60 PUSH1 0x0 DUP4 PUSH1 0x40 MLOAD PUSH2 0xCCB SWAP2 SWAP1 PUSH2 0x197E JUMP JUMPDEST SWAP1 DUP2 MSTORE PUSH1 0x20 ADD PUSH1 0x40 MLOAD DUP1 SWAP2 SUB SWAP1 KECCAK256 DUP3 DUP2 SLOAD DUP2 LT PUSH2 0xCE4 JUMPI INVALID JUMPDEST SWAP1 PUSH1 0x0 MSTORE PUSH1 0x20 PUSH1 0x0 KECCAK256 SWAP1 PUSH1 0x5 MUL ADD PUSH1 0x4 ADD DUP1 SLOAD PUSH1 0x1 DUP2 PUSH1 0x1 AND ISZERO PUSH2 0x100 MUL SUB AND PUSH1 0x2 SWAP1 DIV DUP1 PUSH1 0x1F ADD PUSH1 0x20 DUP1 SWAP2 DIV MUL PUSH1 0x20 ADD PUSH1 0x40 MLOAD SWAP1 DUP2 ADD PUSH1 0x40 MSTORE DUP1 SWAP3 SWAP2 SWAP1 DUP2 DUP2 MSTORE PUSH1 0x20 ADD DUP3 DUP1 SLOAD PUSH1 0x1 DUP2 PUSH1 0x1 AND ISZERO PUSH2 0x100 MUL SUB AND PUSH1 0x2 SWAP1 DIV DUP1 ISZERO PUSH2 0xD89 JUMPI DUP1 PUSH1 0x1F LT PUSH2 0xD5E JUMPI PUSH2 0x100 DUP1 DUP4 SLOAD DIV MUL DUP4 MSTORE SWAP2 PUSH1 0x20 ADD SWAP2 PUSH2 0xD89 JUMP JUMPDEST DUP3 ADD SWAP2 SWAP1 PUSH1 0x0 MSTORE PUSH1 0x20 PUSH1 0x0 KECCAK256 SWAP1 JUMPDEST DUP2 SLOAD DUP2 MSTORE SWAP1 PUSH1 0x1 ADD SWAP1 PUSH1 0x20 ADD DUP1 DUP4 GT PUSH2 0xD6C JUMPI DUP3 SWAP1 SUB PUSH1 0x1F AND DUP3 ADD SWAP2 JUMPDEST POP POP POP POP POP SWAP1 POP SWAP3 SWAP2 POP POP JUMP JUMPDEST DUP3 DUP1 SLOAD PUSH1 0x1 DUP2 PUSH1 0x1 AND ISZERO PUSH2 0x100 MUL SUB AND PUSH1 0x2 SWAP1 DIV SWAP1 PUSH1 0x0 MSTORE PUSH1 0x20 PUSH1 0x0 KECCAK256 SWAP1 PUSH1 0x1F ADD PUSH1 0x20 SWAP1 DIV DUP2 ADD SWAP3 DUP3 PUSH1 0x1F LT PUSH2 0xDD7 JUMPI DUP1 MLOAD PUSH1 0xFF NOT AND DUP4 DUP1 ADD OR DUP6 SSTORE PUSH2 0xE05 JUMP JUMPDEST DUP3 DUP1 ADD PUSH1 0x1 ADD DUP6 SSTORE DUP3 ISZERO PUSH2 0xE05 JUMPI SWAP2 DUP3 ADD JUMPDEST DUP3 DUP2 GT ISZERO PUSH2 0xE04 JUMPI DUP3 MLOAD DUP3 SSTORE SWAP2 PUSH1 0x20 ADD SWAP2 SWAP1 PUSH1 0x1 ADD SWAP1 PUSH2 0xDE9 JUMP JUMPDEST JUMPDEST POP SWAP1 POP PUSH2 0xE12 SWAP2 SWAP1 PUSH2 0xFAE JUMP JUMPDEST POP SWAP1 JUMP JUMPDEST PUSH1 0x40 MLOAD DUP1 PUSH1 0x80 ADD PUSH1 0x40 MSTORE DUP1 PUSH1 0x60 DUP2 MSTORE PUSH1 0x20 ADD PUSH1 0x60 DUP2 MSTORE PUSH1 0x20 ADD PUSH1 0x0 PUSH4 0xFFFFFFFF AND DUP2 MSTORE PUSH1 0x20 ADD PUSH1 0x60 DUP2 MSTORE POP SWAP1 JUMP JUMPDEST DUP3 DUP1 SLOAD DUP3 DUP3 SSTORE SWAP1 PUSH1 0x0 MSTORE PUSH1 0x20 PUSH1 0x0 KECCAK256 SWAP1 DUP2 ADD SWAP3 DUP3 ISZERO PUSH2 0xE93 JUMPI SWAP2 PUSH1 0x20 MUL DUP3 ADD JUMPDEST DUP3 DUP2 GT ISZERO PUSH2 0xE92 JUMPI DUP3 MLOAD DUP3 SWAP1 DUP1 MLOAD SWAP1 PUSH1 0x20 ADD SWAP1 PUSH2 0xE82 SWAP3 SWAP2 SWAP1 PUSH2 0xF2E JUMP JUMPDEST POP SWAP2 PUSH1 0x20 ADD SWAP2 SWAP1 PUSH1 0x1 ADD SWAP1 PUSH2 0xE64 JUMP JUMPDEST JUMPDEST POP SWAP1 POP PUSH2 0xEA0 SWAP2 SWAP1 PUSH2 0xFD3 JUMP JUMPDEST POP SWAP1 JUMP JUMPDEST DUP3 DUP1 SLOAD DUP3 DUP3 SSTORE SWAP1 PUSH1 0x0 MSTORE PUSH1 0x20 PUSH1 0x0 KECCAK256 SWAP1 DUP2 ADD SWAP3 DUP3 ISZERO PUSH2 0xF1D JUMPI SWAP2 PUSH1 0x20 MUL DUP3 ADD JUMPDEST DUP3 DUP2 GT ISZERO PUSH2 0xF1C JUMPI DUP3 MLOAD DUP3 PUSH1 0x0 PUSH2 0x100 EXP DUP2 SLOAD DUP2 PUSH20 0xFFFFFFFFFFFFFFFFFFFFFFFFFFFFFFFFFFFFFFFF MUL NOT AND SWAP1 DUP4 PUSH20 0xFFFFFFFFFFFFFFFFFFFFFFFFFFFFFFFFFFFFFFFF AND MUL OR SWAP1 SSTORE POP SWAP2 PUSH1 0x20 ADD SWAP2 SWAP1 PUSH1 0x1 ADD SWAP1 PUSH2 0xEC4 JUMP JUMPDEST JUMPDEST POP SWAP1 POP PUSH2 0xF2A SWAP2 SWAP1 PUSH2 0xFFF JUMP JUMPDEST POP SWAP1 JUMP JUMPDEST DUP3 DUP1 SLOAD PUSH1 0x1 DUP2 PUSH1 0x1 AND ISZERO PUSH2 0x100 MUL SUB AND PUSH1 0x2 SWAP1 DIV SWAP1 PUSH1 0x0 MSTORE PUSH1 0x20 PUSH1 0x0 KECCAK256 SWAP1 PUSH1 0x1F ADD PUSH1 0x20 SWAP1 DIV DUP2 ADD SWAP3 DUP3 PUSH1 0x1F LT PUSH2 0xF6F JUMPI DUP1 MLOAD PUSH1 0xFF NOT AND DUP4 DUP1 ADD OR DUP6 SSTORE PUSH2 0xF9D JUMP JUMPDEST DUP3 DUP1 ADD PUSH1 0x1 ADD DUP6 SSTORE DUP3 ISZERO PUSH2 0xF9D JUMPI SWAP2 DUP3 ADD JUMPDEST DUP3 DUP2 GT ISZERO PUSH2 0xF9C JUMPI DUP3 MLOAD DUP3 SSTORE SWAP2 PUSH1 0x20 ADD SWAP2 SWAP1 PUSH1 0x1 ADD SWAP1 PUSH2 0xF81 JUMP JUMPDEST JUMPDEST POP SWAP1 POP PUSH2 0xFAA SWAP2 SWAP1 PUSH2 0xFAE JUMP JUMPDEST POP SWAP1 JUMP JUMPDEST PUSH2 0xFD0 SWAP2 SWAP1 JUMPDEST DUP1 DUP3 GT ISZERO PUSH2 0xFCC JUMPI PUSH1 0x0 DUP2 PUSH1 0x0 SWAP1 SSTORE POP PUSH1 0x1 ADD PUSH2 0xFB4 JUMP JUMPDEST POP SWAP1 JUMP JUMPDEST SWAP1 JUMP JUMPDEST PUSH2 0xFFC SWAP2 SWAP1 JUMPDEST DUP1 DUP3 GT ISZERO PUSH2 0xFF8 JUMPI PUSH1 0x0 DUP2 DUP2 PUSH2 0xFEF SWAP2 SWAP1 PUSH2 0x1042 JUMP JUMPDEST POP PUSH1 0x1 ADD PUSH2 0xFD9 JUMP JUMPDEST POP SWAP1 JUMP JUMPDEST SWAP1 JUMP JUMPDEST PUSH2 0x103F SWAP2 SWAP1 JUMPDEST DUP1 DUP3 GT ISZERO PUSH2 0x103B JUMPI PUSH1 0x0 DUP2 DUP2 PUSH2 0x100 EXP DUP2 SLOAD SWAP1 PUSH20 0xFFFFFFFFFFFFFFFFFFFFFFFFFFFFFFFFFFFFFFFF MUL NOT AND SWAP1 SSTORE POP PUSH1 0x1 ADD PUSH2 0x1005 JUMP JUMPDEST POP SWAP1 JUMP JUMPDEST SWAP1 JUMP JUMPDEST POP DUP1 SLOAD PUSH1 0x1 DUP2 PUSH1 0x1 AND ISZERO PUSH2 0x100 MUL SUB AND PUSH1 0x2 SWAP1 DIV PUSH1 0x0 DUP3 SSTORE DUP1 PUSH1 0x1F LT PUSH2 0x1068 JUMPI POP PUSH2 0x1087 JUMP JUMPDEST PUSH1 0x1F ADD PUSH1 0x20 SWAP1 DIV SWAP1 PUSH1 0x0 MSTORE PUSH1 0x20 PUSH1 0x0 KECCAK256 SWAP1 DUP2 ADD SWAP1 PUSH2 0x1086 SWAP2 SWAP1 PUSH2 0xFAE JUMP JUMPDEST JUMPDEST POP JUMP JUMPDEST PUSH1 0x0 DUP2 CALLDATALOAD SWAP1 POP PUSH2 0x1099 DUP2 PUSH2 0x1CFF JUMP JUMPDEST SWAP3 SWAP2 POP POP JUMP JUMPDEST PUSH1 0x0 DUP3 PUSH1 0x1F DUP4 ADD SLT PUSH2 0x10B0 JUMPI PUSH1 0x0 DUP1 REVERT JUMPDEST DUP2 CALLDATALOAD PUSH2 0x10C3 PUSH2 0x10BE DUP3 PUSH2 0x1A95 JUMP JUMPDEST PUSH2 0x1A68 JUMP JUMPDEST SWAP2 POP DUP2 DUP2 DUP4 MSTORE PUSH1 0x20 DUP5 ADD SWAP4 POP PUSH1 0x20 DUP2 ADD SWAP1 POP DUP4 DUP6 PUSH1 0x20 DUP5 MUL DUP3 ADD GT ISZERO PUSH2 0x10E8 JUMPI PUSH1 0x0 DUP1 REVERT JUMPDEST PUSH1 0x0 JUMPDEST DUP4 DUP2 LT ISZERO PUSH2 0x1118 JUMPI DUP2 PUSH2 0x10FE DUP9 DUP3 PUSH2 0x108A JUMP JUMPDEST DUP5 MSTORE PUSH1 0x20 DUP5 ADD SWAP4 POP PUSH1 0x20 DUP4 ADD SWAP3 POP POP PUSH1 0x1 DUP2 ADD SWAP1 POP PUSH2 0x10EB JUMP JUMPDEST POP POP POP POP SWAP3 SWAP2 POP POP JUMP JUMPDEST PUSH1 0x0 DUP3 PUSH1 0x1F DUP4 ADD SLT PUSH2 0x1133 JUMPI PUSH1 0x0 DUP1 REVERT JUMPDEST DUP2 CALLDATALOAD PUSH2 0x1146 PUSH2 0x1141 DUP3 PUSH2 0x1ABD JUMP JUMPDEST PUSH2 0x1A68 JUMP JUMPDEST SWAP2 POP DUP2 DUP2 DUP4 MSTORE PUSH1 0x20 DUP5 ADD SWAP4 POP PUSH1 0x20 DUP2 ADD SWAP1 POP DUP4 PUSH1 0x0 JUMPDEST DUP4 DUP2 LT ISZERO PUSH2 0x118C JUMPI DUP2 CALLDATALOAD DUP7 ADD PUSH2 0x1172 DUP9 DUP3 PUSH2 0x1219 JUMP JUMPDEST DUP5 MSTORE PUSH1 0x20 DUP5 ADD SWAP4 POP PUSH1 0x20 DUP4 ADD SWAP3 POP POP PUSH1 0x1 DUP2 ADD SWAP1 POP PUSH2 0x115C JUMP JUMPDEST POP POP POP POP SWAP3 SWAP2 POP POP JUMP JUMPDEST PUSH1 0x0 DUP3 PUSH1 0x1F DUP4 ADD SLT PUSH2 0x11A7 JUMPI PUSH1 0x0 DUP1 REVERT JUMPDEST DUP2 CALLDATALOAD PUSH2 0x11BA PUSH2 0x11B5 DUP3 PUSH2 0x1AE5 JUMP JUMPDEST PUSH2 0x1A68 JUMP JUMPDEST SWAP2 POP DUP2 DUP2 DUP4 MSTORE PUSH1 0x20 DUP5 ADD SWAP4 POP PUSH1 0x20 DUP2 ADD SWAP1 POP DUP4 DUP6 PUSH1 0x20 DUP5 MUL DUP3 ADD GT ISZERO PUSH2 0x11DF JUMPI PUSH1 0x0 DUP1 REVERT JUMPDEST PUSH1 0x0 JUMPDEST DUP4 DUP2 LT ISZERO PUSH2 0x120F JUMPI DUP2 PUSH2 0x11F5 DUP9 DUP3 PUSH2 0x12EB JUMP JUMPDEST DUP5 MSTORE PUSH1 0x20 DUP5 ADD SWAP4 POP PUSH1 0x20 DUP4 ADD SWAP3 POP POP PUSH1 0x1 DUP2 ADD SWAP1 POP PUSH2 0x11E2 JUMP JUMPDEST POP POP POP POP SWAP3 SWAP2 POP POP JUMP JUMPDEST PUSH1 0x0 DUP3 PUSH1 0x1F DUP4 ADD SLT PUSH2 0x122A JUMPI PUSH1 0x0 DUP1 REVERT JUMPDEST DUP2 CALLDATALOAD PUSH2 0x123D PUSH2 0x1238 DUP3 PUSH2 0x1B0D JUMP JUMPDEST PUSH2 0x1A68 JUMP JUMPDEST SWAP2 POP DUP1 DUP3 MSTORE PUSH1 0x20 DUP4 ADD PUSH1 0x20 DUP4 ADD DUP6 DUP4 DUP4 ADD GT ISZERO PUSH2 0x1259 JUMPI PUSH1 0x0 DUP1 REVERT JUMPDEST PUSH2 0x1264 DUP4 DUP3 DUP5 PUSH2 0x1CAC JUMP JUMPDEST POP POP POP SWAP3 SWAP2 POP POP JUMP JUMPDEST PUSH1 0x0 DUP3 PUSH1 0x1F DUP4 ADD SLT PUSH2 0x127E JUMPI PUSH1 0x0 DUP1 REVERT JUMPDEST DUP2 CALLDATALOAD PUSH2 0x1291 PUSH2 0x128C DUP3 PUSH2 0x1B39 JUMP JUMPDEST PUSH2 0x1A68 JUMP JUMPDEST SWAP2 POP DUP1 DUP3 MSTORE PUSH1 0x20 DUP4 ADD PUSH1 0x20 DUP4 ADD DUP6 DUP4 DUP4 ADD GT ISZERO PUSH2 0x12AD JUMPI PUSH1 0x0 DUP1 REVERT JUMPDEST PUSH2 0x12B8 DUP4 DUP3 DUP5 PUSH2 0x1CAC JUMP JUMPDEST POP POP POP SWAP3 SWAP2 POP POP JUMP JUMPDEST PUSH1 0x0 DUP2 CALLDATALOAD SWAP1 POP PUSH2 0x12D0 DUP2 PUSH2 0x1D16 JUMP JUMPDEST SWAP3 SWAP2 POP POP JUMP JUMPDEST PUSH1 0x0 DUP2 CALLDATALOAD SWAP1 POP PUSH2 0x12E5 DUP2 PUSH2 0x1D2D JUMP JUMPDEST SWAP3 SWAP2 POP POP JUMP JUMPDEST PUSH1 0x0 DUP2 CALLDATALOAD SWAP1 POP PUSH2 0x12FA DUP2 PUSH2 0x1D44 JUMP JUMPDEST SWAP3 SWAP2 POP POP JUMP JUMPDEST PUSH1 0x0 PUSH1 0x20 DUP3 DUP5 SUB SLT ISZERO PUSH2 0x1312 JUMPI PUSH1 0x0 DUP1 REVERT JUMPDEST PUSH1 0x0 DUP3 ADD CALLDATALOAD PUSH8 0xFFFFFFFFFFFFFFFF DUP2 GT ISZERO PUSH2 0x132C JUMPI PUSH1 0x0 DUP1 REVERT JUMPDEST PUSH2 0x1338 DUP5 DUP3 DUP6 ADD PUSH2 0x126D JUMP JUMPDEST SWAP2 POP POP SWAP3 SWAP2 POP POP JUMP JUMPDEST PUSH1 0x0 DUP1 PUSH1 0x0 DUP1 PUSH1 0x0 DUP1 PUSH1 0xC0 DUP8 DUP10 SUB SLT ISZERO PUSH2 0x135A JUMPI PUSH1 0x0 DUP1 REVERT JUMPDEST PUSH1 0x0 DUP8 ADD CALLDATALOAD PUSH8 0xFFFFFFFFFFFFFFFF DUP2 GT ISZERO PUSH2 0x1374 JUMPI PUSH1 0x0 DUP1 REVERT JUMPDEST PUSH2 0x1380 DUP10 DUP3 DUP11 ADD PUSH2 0x126D JUMP JUMPDEST SWAP7 POP POP PUSH1 0x20 DUP8 ADD CALLDATALOAD PUSH8 0xFFFFFFFFFFFFFFFF DUP2 GT ISZERO PUSH2 0x139D JUMPI PUSH1 0x0 DUP1 REVERT JUMPDEST PUSH2 0x13A9 DUP10 DUP3 DUP11 ADD PUSH2 0x126D JUMP JUMPDEST SWAP6 POP POP PUSH1 0x40 DUP8 ADD CALLDATALOAD PUSH8 0xFFFFFFFFFFFFFFFF DUP2 GT ISZERO PUSH2 0x13C6 JUMPI PUSH1 0x0 DUP1 REVERT JUMPDEST PUSH2 0x13D2 DUP10 DUP3 DUP11 ADD PUSH2 0x1122 JUMP JUMPDEST SWAP5 POP POP PUSH1 0x60 DUP8 ADD CALLDATALOAD PUSH8 0xFFFFFFFFFFFFFFFF DUP2 GT ISZERO PUSH2 0x13EF JUMPI PUSH1 0x0 DUP1 REVERT JUMPDEST PUSH2 0x13FB DUP10 DUP3 DUP11 ADD PUSH2 0x109F JUMP JUMPDEST SWAP4 POP POP PUSH1 0x80 DUP8 ADD CALLDATALOAD PUSH8 0xFFFFFFFFFFFFFFFF DUP2 GT ISZERO PUSH2 0x1418 JUMPI PUSH1 0x0 DUP1 REVERT JUMPDEST PUSH2 0x1424 DUP10 DUP3 DUP11 ADD PUSH2 0x1196 JUMP JUMPDEST SWAP3 POP POP PUSH1 0xA0 PUSH2 0x1435 DUP10 DUP3 DUP11 ADD PUSH2 0x12C1 JUMP JUMPDEST SWAP2 POP POP SWAP3 SWAP6 POP SWAP3 SWAP6 POP SWAP3 SWAP6 JUMP JUMPDEST PUSH1 0x0 DUP1 PUSH1 0x40 DUP4 DUP6 SUB SLT ISZERO PUSH2 0x1455 JUMPI PUSH1 0x0 DUP1 REVERT JUMPDEST PUSH1 0x0 DUP4 ADD CALLDATALOAD PUSH8 0xFFFFFFFFFFFFFFFF DUP2 GT ISZERO PUSH2 0x146F JUMPI PUSH1 0x0 DUP1 REVERT JUMPDEST PUSH2 0x147B DUP6 DUP3 DUP7 ADD PUSH2 0x126D JUMP JUMPDEST SWAP3 POP POP PUSH1 0x20 PUSH2 0x148C DUP6 DUP3 DUP7 ADD PUSH2 0x12C1 JUMP JUMPDEST SWAP2 POP POP SWAP3 POP SWAP3 SWAP1 POP JUMP JUMPDEST PUSH1 0x0 DUP1 PUSH1 0x0 PUSH1 0x60 DUP5 DUP7 SUB SLT ISZERO PUSH2 0x14AB JUMPI PUSH1 0x0 DUP1 REVERT JUMPDEST PUSH1 0x0 DUP5 ADD CALLDATALOAD PUSH8 0xFFFFFFFFFFFFFFFF DUP2 GT ISZERO PUSH2 0x14C5 JUMPI PUSH1 0x0 DUP1 REVERT JUMPDEST PUSH2 0x14D1 DUP7 DUP3 DUP8 ADD PUSH2 0x126D JUMP JUMPDEST SWAP4 POP POP PUSH1 0x20 PUSH2 0x14E2 DUP7 DUP3 DUP8 ADD PUSH2 0x12C1 JUMP JUMPDEST SWAP3 POP POP PUSH1 0x40 DUP5 ADD CALLDATALOAD PUSH8 0xFFFFFFFFFFFFFFFF DUP2 GT ISZERO PUSH2 0x14FF JUMPI PUSH1 0x0 DUP1 REVERT JUMPDEST PUSH2 0x150B DUP7 DUP3 DUP8 ADD PUSH2 0x126D JUMP JUMPDEST SWAP2 POP POP SWAP3 POP SWAP3 POP SWAP3 JUMP JUMPDEST PUSH1 0x0 DUP1 PUSH1 0x0 DUP1 PUSH1 0x80 DUP6 DUP8 SUB SLT ISZERO PUSH2 0x152B JUMPI PUSH1 0x0 DUP1 REVERT JUMPDEST PUSH1 0x0 DUP6 ADD CALLDATALOAD PUSH8 0xFFFFFFFFFFFFFFFF DUP2 GT ISZERO PUSH2 0x1545 JUMPI PUSH1 0x0 DUP1 REVERT JUMPDEST PUSH2 0x1551 DUP8 DUP3 DUP9 ADD PUSH2 0x126D JUMP JUMPDEST SWAP5 POP POP PUSH1 0x20 PUSH2 0x1562 DUP8 DUP3 DUP9 ADD PUSH2 0x12C1 JUMP JUMPDEST SWAP4 POP POP PUSH1 0x40 DUP6 ADD CALLDATALOAD PUSH8 0xFFFFFFFFFFFFFFFF DUP2 GT ISZERO PUSH2 0x157F JUMPI PUSH1 0x0 DUP1 REVERT JUMPDEST PUSH2 0x158B DUP8 DUP3 DUP9 ADD PUSH2 0x126D JUMP JUMPDEST SWAP3 POP POP PUSH1 0x60 PUSH2 0x159C DUP8 DUP3 DUP9 ADD PUSH2 0x108A JUMP JUMPDEST SWAP2 POP POP SWAP3 SWAP6 SWAP2 SWAP5 POP SWAP3 POP JUMP JUMPDEST PUSH1 0x0 DUP1 PUSH1 0x0 DUP1 PUSH1 0x0 PUSH1 0xA0 DUP7 DUP9 SUB SLT ISZERO PUSH2 0x15C0 JUMPI PUSH1 0x0 DUP1 REVERT JUMPDEST PUSH1 0x0 DUP7 ADD CALLDATALOAD PUSH8 0xFFFFFFFFFFFFFFFF DUP2 GT ISZERO PUSH2 0x15DA JUMPI PUSH1 0x0 DUP1 REVERT JUMPDEST PUSH2 0x15E6 DUP9 DUP3 DUP10 ADD PUSH2 0x126D JUMP JUMPDEST SWAP6 POP POP PUSH1 0x20 PUSH2 0x15F7 DUP9 DUP3 DUP10 ADD PUSH2 0x12C1 JUMP JUMPDEST SWAP5 POP POP PUSH1 0x40 DUP7 ADD CALLDATALOAD PUSH8 0xFFFFFFFFFFFFFFFF DUP2 GT ISZERO PUSH2 0x1614 JUMPI PUSH1 0x0 DUP1 REVERT JUMPDEST PUSH2 0x1620 DUP9 DUP3 DUP10 ADD PUSH2 0x126D JUMP JUMPDEST SWAP4 POP POP PUSH1 0x60 PUSH2 0x1631 DUP9 DUP3 DUP10 ADD PUSH2 0x108A JUMP JUMPDEST SWAP3 POP POP PUSH1 0x80 PUSH2 0x1642 DUP9 DUP3 DUP10 ADD PUSH2 0x12EB JUMP JUMPDEST SWAP2 POP POP SWAP3 SWAP6 POP SWAP3 SWAP6 SWAP1 SWAP4 POP JUMP JUMPDEST PUSH1 0x0 DUP1 PUSH1 0x0 DUP1 PUSH1 0x80 DUP6 DUP8 SUB SLT ISZERO PUSH2 0x1665 JUMPI PUSH1 0x0 DUP1 REVERT JUMPDEST PUSH1 0x0 DUP6 ADD CALLDATALOAD PUSH8 0xFFFFFFFFFFFFFFFF DUP2 GT ISZERO PUSH2 0x167F JUMPI PUSH1 0x0 DUP1 REVERT JUMPDEST PUSH2 0x168B DUP8 DUP3 DUP9 ADD PUSH2 0x126D JUMP JUMPDEST SWAP5 POP POP PUSH1 0x20 PUSH2 0x169C DUP8 DUP3 DUP9 ADD PUSH2 0x12C1 JUMP JUMPDEST SWAP4 POP POP PUSH1 0x40 PUSH2 0x16AD DUP8 DUP3 DUP9 ADD PUSH2 0x12D6 JUMP JUMPDEST SWAP3 POP POP PUSH1 0x60 DUP6 ADD CALLDATALOAD PUSH8 0xFFFFFFFFFFFFFFFF DUP2 GT ISZERO PUSH2 0x16CA JUMPI PUSH1 0x0 DUP1 REVERT JUMPDEST PUSH2 0x16D6 DUP8 DUP3 DUP9 ADD PUSH2 0x126D JUMP JUMPDEST SWAP2 POP POP SWAP3 SWAP6 SWAP2 SWAP5 POP SWAP3 POP JUMP JUMPDEST PUSH1 0x0 PUSH2 0x16EE DUP4 DUP4 PUSH2 0x1726 JUMP JUMPDEST PUSH1 0x20 DUP4 ADD SWAP1 POP SWAP3 SWAP2 POP POP JUMP JUMPDEST PUSH1 0x0 PUSH2 0x1706 DUP4 DUP4 PUSH2 0x18D0 JUMP JUMPDEST SWAP1 POP SWAP3 SWAP2 POP POP JUMP JUMPDEST PUSH1 0x0 PUSH2 0x171A DUP4 DUP4 PUSH2 0x193A JUMP JUMPDEST PUSH1 0x20 DUP4 ADD SWAP1 POP SWAP3 SWAP2 POP POP JUMP JUMPDEST PUSH2 0x172F DUP2 PUSH2 0x1C53 JUMP JUMPDEST DUP3 MSTORE POP POP JUMP JUMPDEST PUSH1 0x0 PUSH2 0x1740 DUP3 PUSH2 0x1B95 JUMP JUMPDEST PUSH2 0x174A DUP2 DUP6 PUSH2 0x1BF3 JUMP JUMPDEST SWAP4 POP PUSH2 0x1755 DUP4 PUSH2 0x1B65 JUMP JUMPDEST DUP1 PUSH1 0x0 JUMPDEST DUP4 DUP2 LT ISZERO PUSH2 0x1786 JUMPI DUP2 MLOAD PUSH2 0x176D DUP9 DUP3 PUSH2 0x16E2 JUMP JUMPDEST SWAP8 POP PUSH2 0x1778 DUP4 PUSH2 0x1BCC JUMP JUMPDEST SWAP3 POP POP PUSH1 0x1 DUP2 ADD SWAP1 POP PUSH2 0x1759 JUMP JUMPDEST POP DUP6 SWAP4 POP POP POP POP SWAP3 SWAP2 POP POP JUMP JUMPDEST PUSH1 0x0 PUSH2 0x179E DUP3 PUSH2 0x1BA0 JUMP JUMPDEST PUSH2 0x17A8 DUP2 DUP6 PUSH2 0x1C04 JUMP JUMPDEST SWAP4 POP DUP4 PUSH1 0x20 DUP3 MUL DUP6 ADD PUSH2 0x17BA DUP6 PUSH2 0x1B75 JUMP JUMPDEST DUP1 PUSH1 0x0 JUMPDEST DUP6 DUP2 LT ISZERO PUSH2 0x17F6 JUMPI DUP5 DUP5 SUB DUP10 MSTORE DUP2 MLOAD PUSH2 0x17D7 DUP6 DUP3 PUSH2 0x16FA JUMP JUMPDEST SWAP5 POP PUSH2 0x17E2 DUP4 PUSH2 0x1BD9 JUMP JUMPDEST SWAP3 POP PUSH1 0x20 DUP11 ADD SWAP10 POP POP PUSH1 0x1 DUP2 ADD SWAP1 POP PUSH2 0x17BE JUMP JUMPDEST POP DUP3 SWAP8 POP DUP8 SWAP6 POP POP POP POP POP POP SWAP3 SWAP2 POP POP JUMP JUMPDEST PUSH1 0x0 PUSH2 0x1813 DUP3 PUSH2 0x1BAB JUMP JUMPDEST PUSH2 0x181D DUP2 DUP6 PUSH2 0x1C15 JUMP JUMPDEST SWAP4 POP PUSH2 0x1828 DUP4 PUSH2 0x1B85 JUMP JUMPDEST DUP1 PUSH1 0x0 JUMPDEST DUP4 DUP2 LT ISZERO PUSH2 0x1859 JUMPI DUP2 MLOAD PUSH2 0x1840 DUP9 DUP3 PUSH2 0x170E JUMP JUMPDEST SWAP8 POP PUSH2 0x184B DUP4 PUSH2 0x1BE6 JUMP JUMPDEST SWAP3 POP POP PUSH1 0x1 DUP2 ADD SWAP1 POP PUSH2 0x182C JUMP JUMPDEST POP DUP6 SWAP4 POP POP POP POP SWAP3 SWAP2 POP POP JUMP JUMPDEST PUSH1 0x0 PUSH2 0x1871 DUP3 PUSH2 0x1BC1 JUMP JUMPDEST PUSH2 0x187B DUP2 DUP6 PUSH2 0x1C37 JUMP JUMPDEST SWAP4 POP PUSH2 0x188B DUP2 DUP6 PUSH1 0x20 DUP7 ADD PUSH2 0x1CBB JUMP JUMPDEST PUSH2 0x1894 DUP2 PUSH2 0x1CEE JUMP JUMPDEST DUP5 ADD SWAP2 POP POP SWAP3 SWAP2 POP POP JUMP JUMPDEST PUSH1 0x0 PUSH2 0x18AA DUP3 PUSH2 0x1BC1 JUMP JUMPDEST PUSH2 0x18B4 DUP2 DUP6 PUSH2 0x1C48 JUMP JUMPDEST SWAP4 POP PUSH2 0x18C4 DUP2 DUP6 PUSH1 0x20 DUP7 ADD PUSH2 0x1CBB JUMP JUMPDEST DUP1 DUP5 ADD SWAP2 POP POP SWAP3 SWAP2 POP POP JUMP JUMPDEST PUSH1 0x0 PUSH2 0x18DB DUP3 PUSH2 0x1BB6 JUMP JUMPDEST PUSH2 0x18E5 DUP2 DUP6 PUSH2 0x1C26 JUMP JUMPDEST SWAP4 POP PUSH2 0x18F5 DUP2 DUP6 PUSH1 0x20 DUP7 ADD PUSH2 0x1CBB JUMP JUMPDEST PUSH2 0x18FE DUP2 PUSH2 0x1CEE JUMP JUMPDEST DUP5 ADD SWAP2 POP POP SWAP3 SWAP2 POP POP JUMP JUMPDEST PUSH1 0x0 PUSH2 0x1914 DUP3 PUSH2 0x1BB6 JUMP JUMPDEST PUSH2 0x191E DUP2 DUP6 PUSH2 0x1C48 JUMP JUMPDEST SWAP4 POP PUSH2 0x192E DUP2 DUP6 PUSH1 0x20 DUP7 ADD PUSH2 0x1CBB JUMP JUMPDEST DUP1 DUP5 ADD SWAP2 POP POP SWAP3 SWAP2 POP POP JUMP JUMPDEST PUSH2 0x1943 DUP2 PUSH2 0x1C8F JUMP JUMPDEST DUP3 MSTORE POP POP JUMP JUMPDEST PUSH2 0x1952 DUP2 PUSH2 0x1C8F JUMP JUMPDEST DUP3 MSTORE POP POP JUMP JUMPDEST PUSH2 0x1961 DUP2 PUSH2 0x1C9F JUMP JUMPDEST DUP3 MSTORE POP POP JUMP JUMPDEST PUSH1 0x0 PUSH2 0x1973 DUP3 DUP5 PUSH2 0x1909 JUMP JUMPDEST SWAP2 POP DUP2 SWAP1 POP SWAP3 SWAP2 POP POP JUMP JUMPDEST PUSH1 0x0 PUSH2 0x198A DUP3 DUP5 PUSH2 0x189F JUMP JUMPDEST SWAP2 POP DUP2 SWAP1 POP SWAP3 SWAP2 POP POP JUMP JUMPDEST PUSH1 0x0 PUSH1 0x20 DUP3 ADD SWAP1 POP DUP2 DUP2 SUB PUSH1 0x0 DUP4 ADD MSTORE PUSH2 0x19AF DUP2 DUP5 PUSH2 0x1735 JUMP JUMPDEST SWAP1 POP SWAP3 SWAP2 POP POP JUMP JUMPDEST PUSH1 0x0 PUSH1 0x20 DUP3 ADD SWAP1 POP DUP2 DUP2 SUB PUSH1 0x0 DUP4 ADD MSTORE PUSH2 0x19D1 DUP2 DUP5 PUSH2 0x1793 JUMP JUMPDEST SWAP1 POP SWAP3 SWAP2 POP POP JUMP JUMPDEST PUSH1 0x0 PUSH1 0x40 DUP3 ADD SWAP1 POP DUP2 DUP2 SUB PUSH1 0x0 DUP4 ADD MSTORE PUSH2 0x19F3 DUP2 DUP6 PUSH2 0x1793 JUMP JUMPDEST SWAP1 POP DUP2 DUP2 SUB PUSH1 0x20 DUP4 ADD MSTORE PUSH2 0x1A07 DUP2 DUP5 PUSH2 0x1808 JUMP JUMPDEST SWAP1 POP SWAP4 SWAP3 POP POP POP JUMP JUMPDEST PUSH1 0x0 PUSH1 0x20 DUP3 ADD SWAP1 POP DUP2 DUP2 SUB PUSH1 0x0 DUP4 ADD MSTORE PUSH2 0x1A2A DUP2 DUP5 PUSH2 0x1866 JUMP JUMPDEST SWAP1 POP SWAP3 SWAP2 POP POP JUMP JUMPDEST PUSH1 0x0 PUSH1 0x20 DUP3 ADD SWAP1 POP PUSH2 0x1A47 PUSH1 0x0 DUP4 ADD DUP5 PUSH2 0x1949 JUMP JUMPDEST SWAP3 SWAP2 POP POP JUMP JUMPDEST PUSH1 0x0 PUSH1 0x20 DUP3 ADD SWAP1 POP PUSH2 0x1A62 PUSH1 0x0 DUP4 ADD DUP5 PUSH2 0x1958 JUMP JUMPDEST SWAP3 SWAP2 POP POP JUMP JUMPDEST PUSH1 0x0 PUSH1 0x40 MLOAD SWAP1 POP DUP2 DUP2 ADD DUP2 DUP2 LT PUSH8 0xFFFFFFFFFFFFFFFF DUP3 GT OR ISZERO PUSH2 0x1A8B JUMPI PUSH1 0x0 DUP1 REVERT JUMPDEST DUP1 PUSH1 0x40 MSTORE POP SWAP2 SWAP1 POP JUMP JUMPDEST PUSH1 0x0 PUSH8 0xFFFFFFFFFFFFFFFF DUP3 GT ISZERO PUSH2 0x1AAC JUMPI PUSH1 0x0 DUP1 REVERT JUMPDEST PUSH1 0x20 DUP3 MUL SWAP1 POP PUSH1 0x20 DUP2 ADD SWAP1 POP SWAP2 SWAP1 POP JUMP JUMPDEST PUSH1 0x0 PUSH8 0xFFFFFFFFFFFFFFFF DUP3 GT ISZERO PUSH2 0x1AD4 JUMPI PUSH1 0x0 DUP1 REVERT JUMPDEST PUSH1 0x20 DUP3 MUL SWAP1 POP PUSH1 0x20 DUP2 ADD SWAP1 POP SWAP2 SWAP1 POP JUMP JUMPDEST PUSH1 0x0 PUSH8 0xFFFFFFFFFFFFFFFF DUP3 GT ISZERO PUSH2 0x1AFC JUMPI PUSH1 0x0 DUP1 REVERT JUMPDEST PUSH1 0x20 DUP3 MUL SWAP1 POP PUSH1 0x20 DUP2 ADD SWAP1 POP SWAP2 SWAP1 POP JUMP JUMPDEST PUSH1 0x0 PUSH8 0xFFFFFFFFFFFFFFFF DUP3 GT ISZERO PUSH2 0x1B24 JUMPI PUSH1 0x0 DUP1 REVERT JUMPDEST PUSH1 0x1F NOT PUSH1 0x1F DUP4 ADD AND SWAP1 POP PUSH1 0x20 DUP2 ADD SWAP1 POP SWAP2 SWAP1 POP JUMP JUMPDEST PUSH1 0x0 PUSH8 0xFFFFFFFFFFFFFFFF DUP3 GT ISZERO PUSH2 0x1B50 JUMPI PUSH1 0x0 DUP1 REVERT JUMPDEST PUSH1 0x1F NOT PUSH1 0x1F DUP4 ADD AND SWAP1 POP PUSH1 0x20 DUP2 ADD SWAP1 POP SWAP2 SWAP1 POP JUMP JUMPDEST PUSH1 0x0 DUP2 SWAP1 POP PUSH1 0x20 DUP3 ADD SWAP1 POP SWAP2 SWAP1 POP JUMP JUMPDEST PUSH1 0x0 DUP2 SWAP1 POP PUSH1 0x20 DUP3 ADD SWAP1 POP SWAP2 SWAP1 POP JUMP JUMPDEST PUSH1 0x0 DUP2 SWAP1 POP PUSH1 0x20 DUP3 ADD SWAP1 POP SWAP2 SWAP1 POP JUMP JUMPDEST PUSH1 0x0 DUP2 MLOAD SWAP1 POP SWAP2 SWAP1 POP JUMP JUMPDEST PUSH1 0x0 DUP2 MLOAD SWAP1 POP SWAP2 SWAP1 POP JUMP JUMPDEST PUSH1 0x0 DUP2 MLOAD SWAP1 POP SWAP2 SWAP1 POP JUMP JUMPDEST PUSH1 0x0 DUP2 MLOAD SWAP1 POP SWAP2 SWAP1 POP JUMP JUMPDEST PUSH1 0x0 DUP2 MLOAD SWAP1 POP SWAP2 SWAP1 POP JUMP JUMPDEST PUSH1 0x0 PUSH1 0x20 DUP3 ADD SWAP1 POP SWAP2 SWAP1 POP JUMP JUMPDEST PUSH1 0x0 PUSH1 0x20 DUP3 ADD SWAP1 POP SWAP2 SWAP1 POP JUMP JUMPDEST PUSH1 0x0 PUSH1 0x20 DUP3 ADD SWAP1 POP SWAP2 SWAP1 POP JUMP JUMPDEST PUSH1 0x0 DUP3 DUP3 MSTORE PUSH1 0x20 DUP3 ADD SWAP1 POP SWAP3 SWAP2 POP POP JUMP JUMPDEST PUSH1 0x0 DUP3 DUP3 MSTORE PUSH1 0x20 DUP3 ADD SWAP1 POP SWAP3 SWAP2 POP POP JUMP JUMPDEST PUSH1 0x0 DUP3 DUP3 MSTORE PUSH1 0x20 DUP3 ADD SWAP1 POP SWAP3 SWAP2 POP POP JUMP JUMPDEST PUSH1 0x0 DUP3 DUP3 MSTORE PUSH1 0x20 DUP3 ADD SWAP1 POP SWAP3 SWAP2 POP POP JUMP JUMPDEST PUSH1 0x0 DUP3 DUP3 MSTORE PUSH1 0x20 DUP3 ADD SWAP1 POP SWAP3 SWAP2 POP POP JUMP JUMPDEST PUSH1 0x0 DUP2 SWAP1 POP SWAP3 SWAP2 POP POP JUMP JUMPDEST PUSH1 0x0 PUSH2 0x1C5E DUP3 PUSH2 0x1C65 JUMP JUMPDEST SWAP1 POP SWAP2 SWAP1 POP JUMP JUMPDEST PUSH1 0x0 PUSH20 0xFFFFFFFFFFFFFFFFFFFFFFFFFFFFFFFFFFFFFFFF DUP3 AND SWAP1 POP SWAP2 SWAP1 POP JUMP JUMPDEST PUSH1 0x0 DUP2 SWAP1 POP SWAP2 SWAP1 POP JUMP JUMPDEST PUSH1 0x0 PUSH4 0xFFFFFFFF DUP3 AND SWAP1 POP SWAP2 SWAP1 POP JUMP JUMPDEST PUSH1 0x0 PUSH1 0xFF DUP3 AND SWAP1 POP SWAP2 SWAP1 POP JUMP JUMPDEST DUP3 DUP2 DUP4 CALLDATACOPY PUSH1 0x0 DUP4 DUP4 ADD MSTORE POP POP POP JUMP JUMPDEST PUSH1 0x0 JUMPDEST DUP4 DUP2 LT ISZERO PUSH2 0x1CD9 JUMPI DUP1 DUP3 ADD MLOAD DUP2 DUP5 ADD MSTORE PUSH1 0x20 DUP2 ADD SWAP1 POP PUSH2 0x1CBE JUMP JUMPDEST DUP4 DUP2 GT ISZERO PUSH2 0x1CE8 JUMPI PUSH1 0x0 DUP5 DUP5 ADD MSTORE JUMPDEST POP POP POP POP JUMP JUMPDEST PUSH1 0x0 PUSH1 0x1F NOT PUSH1 0x1F DUP4 ADD AND SWAP1 POP SWAP2 SWAP1 POP JUMP JUMPDEST PUSH2 0x1D08 DUP2 PUSH2 0x1C53 JUMP JUMPDEST DUP2 EQ PUSH2 0x1D13 JUMPI PUSH1 0x0 DUP1 REVERT JUMPDEST POP JUMP JUMPDEST PUSH2 0x1D1F DUP2 PUSH2 0x1C85 JUMP JUMPDEST DUP2 EQ PUSH2 0x1D2A JUMPI PUSH1 0x0 DUP1 REVERT JUMPDEST POP JUMP JUMPDEST PUSH2 0x1D36 DUP2 PUSH2 0x1C8F JUMP JUMPDEST DUP2 EQ PUSH2 0x1D41 JUMPI PUSH1 0x0 DUP1 REVERT JUMPDEST POP JUMP JUMPDEST PUSH2 0x1D4D DUP2 PUSH2 0x1C9F JUMP JUMPDEST DUP2 EQ PUSH2 0x1D58 JUMPI PUSH1 0x0 DUP1 REVERT JUMPDEST POP JUMP INVALID LOG3 PUSH6 0x627A7A723158 KECCAK256 0x5D 0xEE NOT 0xD3 EXTCODEHASH 0xE7 DUP16 REVERT XOR ORIGIN 0xC0 BYTE PUSH11 0xF8F1152CD1493BA8B24E05 PUSH27 0x2CEFFA4FF0659D6C6578706572696D656E74616CF564736F6C6343 STOP SDIV GT STOP BLOCKHASH "
				},
				"gasEstimates": {
					"creation": {
						"codeDepositCost": "1516400",
						"executionCost": "1582",
						"totalCost": "1517982"
					},
					"external": {
						"deleteVariable(string,uint256,string)": "infinite",
						"getAccess(string,uint256,string,address)": "infinite",
						"getActivites(string,uint256)": "infinite",
						"getAllVariables(string)": "infinite",
						"getRoles(string,uint256)": "infinite",
						"getVariableName(string,uint256)": "infinite",
						"getVariableValue(string,uint256)": "infinite",
						"setVariableName(string,uint256,string)": "infinite",
						"updateMatrix(string,uint256,string,address,uint8)": "infinite",
						"updateValue(string,uint256,uint32,string)": "infinite",
						"uploadMatrix(string,string,string[],address[],uint8[],uint256)": "infinite"
					}
				},
				"methodIdentifiers": {
					"deleteVariable(string,uint256,string)": "252e7bed",
					"getAccess(string,uint256,string,address)": "aa86c8fc",
					"getActivites(string,uint256)": "6725f913",
					"getAllVariables(string)": "89069ea7",
					"getRoles(string,uint256)": "73b029c3",
					"getVariableName(string,uint256)": "fe7f2692",
					"getVariableValue(string,uint256)": "93614356",
					"setVariableName(string,uint256,string)": "612fa967",
					"updateMatrix(string,uint256,string,address,uint8)": "61650af7",
					"updateValue(string,uint256,uint32,string)": "0b3e9bfc",
					"uploadMatrix(string,string,string[],address[],uint8[],uint256)": "bd289582"
				}
			},
			"storageLayout": {
				"storage": [
					{
						"astId": 24,
						"contract": "Access_Matrix.sol:Access_matrix",
						"label": "variables",
						"offset": 0,
						"slot": "0",
						"type": "t_mapping(t_string_memory,t_array(t_struct(Variable)19_storage)dyn_storage)"
					}
				],
				"types": {
					"t_address": {
						"encoding": "inplace",
						"label": "address",
						"numberOfBytes": "20"
					},
					"t_array(t_address)dyn_storage": {
						"base": "t_address",
						"encoding": "dynamic_array",
						"label": "address[]",
						"numberOfBytes": "32"
					},
					"t_array(t_string_storage)dyn_storage": {
						"base": "t_string_storage",
						"encoding": "dynamic_array",
						"label": "string[]",
						"numberOfBytes": "32"
					},
					"t_array(t_struct(Variable)19_storage)dyn_storage": {
						"base": "t_struct(Variable)19_storage",
						"encoding": "dynamic_array",
						"label": "struct Access_matrix.Variable[]",
						"numberOfBytes": "32"
					},
					"t_mapping(t_address,t_uint8)": {
						"encoding": "mapping",
						"key": "t_address",
						"label": "mapping(address => uint8)",
						"numberOfBytes": "32",
						"value": "t_uint8"
					},
					"t_mapping(t_string_memory,t_array(t_struct(Variable)19_storage)dyn_storage)": {
						"encoding": "mapping",
						"key": "t_string_memory",
						"label": "mapping(string => struct Access_matrix.Variable[])",
						"numberOfBytes": "32",
						"value": "t_array(t_struct(Variable)19_storage)dyn_storage"
					},
					"t_mapping(t_string_memory,t_mapping(t_address,t_uint8))": {
						"encoding": "mapping",
						"key": "t_string_memory",
						"label": "mapping(string => mapping(address => uint8))",
						"numberOfBytes": "32",
						"value": "t_mapping(t_address,t_uint8)"
					},
					"t_string_memory": {
						"encoding": "bytes",
						"label": "string",
						"numberOfBytes": "32"
					},
					"t_string_storage": {
						"encoding": "bytes",
						"label": "string",
						"numberOfBytes": "32"
					},
					"t_struct(Variable)19_storage": {
						"encoding": "inplace",
						"label": "struct Access_matrix.Variable",
						"members": [
							{
								"astId": 8,
								"contract": "Access_Matrix.sol:Access_matrix",
								"label": "matrix",
								"offset": 0,
								"slot": "0",
								"type": "t_mapping(t_string_memory,t_mapping(t_address,t_uint8))"
							},
							{
								"astId": 11,
								"contract": "Access_Matrix.sol:Access_matrix",
								"label": "activitiesKeys",
								"offset": 0,
								"slot": "1",
								"type": "t_array(t_string_storage)dyn_storage"
							},
							{
								"astId": 14,
								"contract": "Access_Matrix.sol:Access_matrix",
								"label": "rolesKeys",
								"offset": 0,
								"slot": "2",
								"type": "t_array(t_address)dyn_storage"
							},
							{
								"astId": 16,
								"contract": "Access_Matrix.sol:Access_matrix",
								"label": "value",
								"offset": 0,
								"slot": "3",
								"type": "t_uint32"
							},
							{
								"astId": 18,
								"contract": "Access_Matrix.sol:Access_matrix",
								"label": "name",
								"offset": 0,
								"slot": "4",
								"type": "t_string_storage"
							}
						],
						"numberOfBytes": "160"
					},
					"t_uint32": {
						"encoding": "inplace",
						"label": "uint32",
						"numberOfBytes": "4"
					},
					"t_uint8": {
						"encoding": "inplace",
						"label": "uint8",
						"numberOfBytes": "1"
					}
				}
			},
			"userdoc": {
				"methods": {}
			}
		}
	}
}