{
	"Access_Matrix.sol": {
		"Access_matrix": {
			"abi": [
				{
					"constant": false,
					"inputs": [
						{
							"internalType": "string",
							"name": "_hash",
							"type": "string"
						},
						{
							"internalType": "uint256",
							"name": "index",
							"type": "uint256"
						},
						{
							"internalType": "string",
							"name": "_activity",
							"type": "string"
						}
					],
					"name": "deleteVariable",
					"outputs": [],
					"payable": false,
					"stateMutability": "nonpayable",
					"type": "function"
				},
				{
					"constant": true,
					"inputs": [
						{
							"internalType": "string",
							"name": "_hash",
							"type": "string"
						},
						{
							"internalType": "uint256",
							"name": "index",
							"type": "uint256"
						},
						{
							"internalType": "string",
							"name": "_activity",
							"type": "string"
						},
						{
							"internalType": "address",
							"name": "_role",
							"type": "address"
						}
					],
					"name": "getAccess",
					"outputs": [
						{
							"internalType": "uint8",
							"name": "_access",
							"type": "uint8"
						}
					],
					"payable": false,
					"stateMutability": "view",
					"type": "function"
				},
				{
					"constant": true,
					"inputs": [
						{
							"internalType": "string",
							"name": "_hash",
							"type": "string"
						}
					],
					"name": "getAllVariables",
					"outputs": [
						{
							"internalType": "string[]",
							"name": "",
							"type": "string[]"
						},
						{
							"internalType": "uint32[]",
							"name": "",
							"type": "uint32[]"
						}
					],
					"payable": false,
					"stateMutability": "view",
					"type": "function"
				},
				{
					"constant": true,
					"inputs": [
						{
							"internalType": "string",
							"name": "_hash",
							"type": "string"
						},
						{
							"internalType": "uint256",
							"name": "index",
							"type": "uint256"
						}
					],
					"name": "getVariableName",
					"outputs": [
						{
							"internalType": "string",
							"name": "_varName",
							"type": "string"
						}
					],
					"payable": false,
					"stateMutability": "view",
					"type": "function"
				},
				{
					"constant": true,
					"inputs": [
						{
							"internalType": "string",
							"name": "_hash",
							"type": "string"
						},
						{
							"internalType": "uint256",
							"name": "index",
							"type": "uint256"
						}
					],
					"name": "getVariableValue",
					"outputs": [
						{
							"internalType": "uint32",
							"name": "_var",
							"type": "uint32"
						}
					],
					"payable": false,
					"stateMutability": "view",
					"type": "function"
				},
				{
					"constant": false,
					"inputs": [
						{
							"internalType": "string",
							"name": "_hash",
							"type": "string"
						},
						{
							"internalType": "uint256",
							"name": "index",
							"type": "uint256"
						},
						{
							"internalType": "string",
							"name": "_newName",
							"type": "string"
						}
					],
					"name": "setVariableName",
					"outputs": [],
					"payable": false,
					"stateMutability": "nonpayable",
					"type": "function"
				},
				{
					"constant": false,
					"inputs": [
						{
							"internalType": "string",
							"name": "_hash",
							"type": "string"
						},
						{
							"internalType": "uint256",
							"name": "index",
							"type": "uint256"
						},
						{
							"internalType": "string",
							"name": "_activity",
							"type": "string"
						},
						{
							"internalType": "address",
							"name": "_role",
							"type": "address"
						},
						{
							"internalType": "uint8",
							"name": "_val",
							"type": "uint8"
						}
					],
					"name": "updateMatrix",
					"outputs": [],
					"payable": false,
					"stateMutability": "nonpayable",
					"type": "function"
				},
				{
					"constant": false,
					"inputs": [
						{
							"internalType": "string",
							"name": "_hash",
							"type": "string"
						},
						{
							"internalType": "uint256",
							"name": "index",
							"type": "uint256"
						},
						{
							"internalType": "uint32",
							"name": "_variable_value",
							"type": "uint32"
						},
						{
							"internalType": "string",
							"name": "_activity",
							"type": "string"
						}
					],
					"name": "updateValue",
					"outputs": [],
					"payable": false,
					"stateMutability": "nonpayable",
					"type": "function"
				},
				{
					"constant": false,
					"inputs": [
						{
							"internalType": "string",
							"name": "_hash",
							"type": "string"
						},
						{
							"internalType": "string",
							"name": "_newName",
							"type": "string"
						},
						{
							"internalType": "string[]",
							"name": "_activities",
							"type": "string[]"
						},
						{
							"internalType": "address[]",
							"name": "_roles",
							"type": "address[]"
						},
						{
							"internalType": "uint8[]",
							"name": "_vals",
							"type": "uint8[]"
						},
						{
							"internalType": "uint256",
							"name": "nbOfElements",
							"type": "uint256"
						}
					],
					"name": "uploadMatrix",
					"outputs": [],
					"payable": false,
					"stateMutability": "nonpayable",
					"type": "function"
				}
			],
			"devdoc": {
				"methods": {
					"deleteVariable(string,uint256,string)": {
						"details": "deletes the contract if the caller has the authorization (first bit starting from right).",
						"params": {
							"_activity": "that want to have access"
						}
					},
					"getVariableValue(string,uint256)": {
						"details": "Get the variable value",
						"return": "_var the variable value "
					},
					"updateMatrix(string,uint256,string,address,uint8)": {
						"details": "Update an entry of the access matrix",
						"params": {
							"_activity": "is the name of the activity ",
							"_role": "is the role",
							"_val": "is a 4 bit int that allows to find if a certain matrix entry has access or not to a vraiable (read,write,create,delete) are the four bits."
						}
					},
					"updateValue(string,uint256,uint32,string)": {
						"details": "Update the variable value if the caller has access",
						"params": {
							"_activity": "name of the activity that want to update the variable value",
							"_variable_value": "new variable value "
						}
					}
				}
			},
			"evm": {
				"assembly": "    /* \"Access_Matrix.sol\":94:3410  contract Access_matrix {... */\n  mstore(0x40, 0x80)\n  callvalue\n    /* \"--CODEGEN--\":8:17   */\n  dup1\n    /* \"--CODEGEN--\":5:7   */\n  iszero\n  tag_1\n  jumpi\n    /* \"--CODEGEN--\":30:31   */\n  0x00\n    /* \"--CODEGEN--\":27:28   */\n  dup1\n    /* \"--CODEGEN--\":20:32   */\n  revert\n    /* \"--CODEGEN--\":5:7   */\ntag_1:\n    /* \"Access_Matrix.sol\":94:3410  contract Access_matrix {... */\n  pop\n  dataSize(sub_0)\n  dup1\n  dataOffset(sub_0)\n  0x00\n  codecopy\n  0x00\n  return\nstop\n\nsub_0: assembly {\n        /* \"Access_Matrix.sol\":94:3410  contract Access_matrix {... */\n      mstore(0x40, 0x80)\n      callvalue\n        /* \"--CODEGEN--\":8:17   */\n      dup1\n        /* \"--CODEGEN--\":5:7   */\n      iszero\n      tag_1\n      jumpi\n        /* \"--CODEGEN--\":30:31   */\n      0x00\n        /* \"--CODEGEN--\":27:28   */\n      dup1\n        /* \"--CODEGEN--\":20:32   */\n      revert\n        /* \"--CODEGEN--\":5:7   */\n    tag_1:\n        /* \"Access_Matrix.sol\":94:3410  contract Access_matrix {... */\n      pop\n      jumpi(tag_2, lt(calldatasize, 0x04))\n      shr(0xe0, calldataload(0x00))\n      dup1\n      0x89069ea7\n      gt\n      tag_12\n      jumpi\n      dup1\n      0x89069ea7\n      eq\n      tag_7\n      jumpi\n      dup1\n      0x93614356\n      eq\n      tag_8\n      jumpi\n      dup1\n      0xaa86c8fc\n      eq\n      tag_9\n      jumpi\n      dup1\n      0xbd289582\n      eq\n      tag_10\n      jumpi\n      dup1\n      0xfe7f2692\n      eq\n      tag_11\n      jumpi\n      jump(tag_2)\n    tag_12:\n      dup1\n      0x0b3e9bfc\n      eq\n      tag_3\n      jumpi\n      dup1\n      0x252e7bed\n      eq\n      tag_4\n      jumpi\n      dup1\n      0x612fa967\n      eq\n      tag_5\n      jumpi\n      dup1\n      0x61650af7\n      eq\n      tag_6\n      jumpi\n    tag_2:\n      0x00\n      dup1\n      revert\n        /* \"Access_Matrix.sol\":1801:2101  function updateValue(string memory _hash, uint index, uint32 _variable_value, string memory _activity) public {... */\n    tag_3:\n      tag_13\n      0x04\n      dup1\n      calldatasize\n      sub\n      tag_14\n      swap2\n      swap1\n      dup2\n      add\n      swap1\n      jump(tag_15)\n    tag_14:\n      tag_16\n      jump\t// in\n    tag_13:\n      stop\n        /* \"Access_Matrix.sol\":3158:3408  function deleteVariable(string memory _hash, uint index, string memory _activity) public {... */\n    tag_4:\n      tag_17\n      0x04\n      dup1\n      calldatasize\n      sub\n      tag_18\n      swap2\n      swap1\n      dup2\n      add\n      swap1\n      jump(tag_19)\n    tag_18:\n      tag_20\n      jump\t// in\n    tag_17:\n      stop\n        /* \"Access_Matrix.sol\":797:940  function setVariableName(string memory _hash, uint index, string memory _newName) public {... */\n    tag_5:\n      tag_21\n      0x04\n      dup1\n      calldatasize\n      sub\n      tag_22\n      swap2\n      swap1\n      dup2\n      add\n      swap1\n      jump(tag_19)\n    tag_22:\n      tag_23\n      jump\t// in\n    tag_21:\n      stop\n        /* \"Access_Matrix.sol\":607:791  function updateMatrix(string memory _hash, uint index, string memory _activity, address _role, uint8 _val) public {... */\n    tag_6:\n      tag_24\n      0x04\n      dup1\n      calldatasize\n      sub\n      tag_25\n      swap2\n      swap1\n      dup2\n      add\n      swap1\n      jump(tag_26)\n    tag_25:\n      tag_27\n      jump\t// in\n    tag_24:\n      stop\n        /* \"Access_Matrix.sol\":2344:2768  function getAllVariables(string memory _hash) public view returns (string[] memory,  uint32[] memory){... */\n    tag_7:\n      tag_28\n      0x04\n      dup1\n      calldatasize\n      sub\n      tag_29\n      swap2\n      swap1\n      dup2\n      add\n      swap1\n      jump(tag_30)\n    tag_29:\n      tag_31\n      jump\t// in\n    tag_28:\n      mload(0x40)\n      tag_32\n      swap3\n      swap2\n      swap1\n      jump(tag_33)\n    tag_32:\n      mload(0x40)\n      dup1\n      swap2\n      sub\n      swap1\n      return\n        /* \"Access_Matrix.sol\":2193:2338  function getVariableValue(string memory _hash, uint index) public view returns (uint32 _var){... */\n    tag_8:\n      tag_34\n      0x04\n      dup1\n      calldatasize\n      sub\n      tag_35\n      swap2\n      swap1\n      dup2\n      add\n      swap1\n      jump(tag_36)\n    tag_35:\n      tag_37\n      jump\t// in\n    tag_34:\n      mload(0x40)\n      tag_38\n      swap2\n      swap1\n      jump(tag_39)\n    tag_38:\n      mload(0x40)\n      dup1\n      swap2\n      sub\n      swap1\n      return\n        /* \"Access_Matrix.sol\":2774:2973  function getAccess(string memory _hash, uint index, string memory _activity, address _role) public view returns (uint8 _access) {... */\n    tag_9:\n      tag_40\n      0x04\n      dup1\n      calldatasize\n      sub\n      tag_41\n      swap2\n      swap1\n      dup2\n      add\n      swap1\n      jump(tag_42)\n    tag_41:\n      tag_43\n      jump\t// in\n    tag_40:\n      mload(0x40)\n      tag_44\n      swap2\n      swap1\n      jump(tag_45)\n    tag_44:\n      mload(0x40)\n      dup1\n      swap2\n      sub\n      swap1\n      return\n        /* \"Access_Matrix.sol\":1105:1569  function uploadMatrix(string memory _hash, string memory _newName, string[] memory _activities, address[] memory _roles, uint8[] memory _vals, uint nbOfElements) public {... */\n    tag_10:\n      tag_46\n      0x04\n      dup1\n      calldatasize\n      sub\n      tag_47\n      swap2\n      swap1\n      dup2\n      add\n      swap1\n      jump(tag_48)\n    tag_47:\n      tag_49\n      jump\t// in\n    tag_46:\n      stop\n        /* \"Access_Matrix.sol\":946:1099  function getVariableName(string memory _hash, uint index) public view returns (string memory _varName) {... */\n    tag_11:\n      tag_50\n      0x04\n      dup1\n      calldatasize\n      sub\n      tag_51\n      swap2\n      swap1\n      dup2\n      add\n      swap1\n      jump(tag_36)\n    tag_51:\n      tag_52\n      jump\t// in\n    tag_50:\n      mload(0x40)\n      tag_53\n      swap2\n      swap1\n      jump(tag_54)\n    tag_53:\n      mload(0x40)\n      dup1\n      swap2\n      sub\n      swap1\n      return\n        /* \"Access_Matrix.sol\":1801:2101  function updateValue(string memory _hash, uint index, uint32 _variable_value, string memory _activity) public {... */\n    tag_16:\n        /* \"Access_Matrix.sol\":1921:1936  bool has_access */\n      0x00\n        /* \"Access_Matrix.sol\":2008:2009  1 */\n      0x01\n        /* \"Access_Matrix.sol\":2003:2004  1 */\n      dup1\n        /* \"Access_Matrix.sol\":1997:1998  3 */\n      0x03\n        /* \"Access_Matrix.sol\":1940:1949  variables */\n      0x00\n        /* \"Access_Matrix.sol\":1950:1955  _hash */\n      dup9\n        /* \"Access_Matrix.sol\":1940:1956  variables[_hash] */\n      mload(0x40)\n      tag_56\n      swap2\n      swap1\n      jump(tag_57)\n    tag_56:\n      swap1\n      dup2\n      mstore\n      0x20\n      add\n      mload(0x40)\n      dup1\n      swap2\n      sub\n      swap1\n      keccak256\n        /* \"Access_Matrix.sol\":1957:1962  index */\n      dup8\n        /* \"Access_Matrix.sol\":1940:1963  variables[_hash][index] */\n      dup2\n      sload\n      dup2\n      lt\n      tag_58\n      jumpi\n      invalid\n    tag_58:\n      swap1\n      0x00\n      mstore\n      keccak256(0x00, 0x20)\n      swap1\n      0x03\n      mul\n      add\n        /* \"Access_Matrix.sol\":1940:1970  variables[_hash][index].matrix */\n      0x00\n      add\n        /* \"Access_Matrix.sol\":1971:1980  _activity */\n      dup6\n        /* \"Access_Matrix.sol\":1940:1981  variables[_hash][index].matrix[_activity] */\n      mload(0x40)\n      tag_60\n      swap2\n      swap1\n      jump(tag_57)\n    tag_60:\n      swap1\n      dup2\n      mstore\n      0x20\n      add\n      mload(0x40)\n      dup1\n      swap2\n      sub\n      swap1\n      keccak256\n        /* \"Access_Matrix.sol\":1940:1993  variables[_hash][index].matrix[_activity][msg.sender] */\n      0x00\n        /* \"Access_Matrix.sol\":1982:1992  msg.sender */\n      caller\n        /* \"Access_Matrix.sol\":1940:1993  variables[_hash][index].matrix[_activity][msg.sender] */\n      0xffffffffffffffffffffffffffffffffffffffff\n      and\n      0xffffffffffffffffffffffffffffffffffffffff\n      and\n      dup2\n      mstore\n      0x20\n      add\n      swap1\n      dup2\n      mstore\n      0x20\n      add\n      0x00\n      keccak256\n      0x00\n      swap1\n      sload\n      swap1\n      0x0100\n      exp\n      swap1\n      div\n      0xff\n      and\n        /* \"Access_Matrix.sol\":1940:1998  variables[_hash][index].matrix[_activity][msg.sender] >> 3 */\n      0xff\n      and\n      swap1\n      shr\n        /* \"Access_Matrix.sol\":1939:2004  (variables[_hash][index].matrix[_activity][msg.sender] >> 3 ) & 1 */\n      and\n        /* \"Access_Matrix.sol\":1939:2009  (variables[_hash][index].matrix[_activity][msg.sender] >> 3 ) & 1 == 1 */\n      0xff\n      and\n      eq\n        /* \"Access_Matrix.sol\":1921:2009  bool has_access = (variables[_hash][index].matrix[_activity][msg.sender] >> 3 ) & 1 == 1 */\n      swap1\n      pop\n        /* \"Access_Matrix.sol\":2026:2036  has_access */\n      dup1\n        /* \"Access_Matrix.sol\":2019:2037  assert(has_access) */\n      tag_61\n      jumpi\n      invalid\n    tag_61:\n        /* \"Access_Matrix.sol\":2079:2094  _variable_value */\n      dup3\n        /* \"Access_Matrix.sol\":2047:2056  variables */\n      0x00\n        /* \"Access_Matrix.sol\":2057:2062  _hash */\n      dup7\n        /* \"Access_Matrix.sol\":2047:2063  variables[_hash] */\n      mload(0x40)\n      tag_62\n      swap2\n      swap1\n      jump(tag_57)\n    tag_62:\n      swap1\n      dup2\n      mstore\n      0x20\n      add\n      mload(0x40)\n      dup1\n      swap2\n      sub\n      swap1\n      keccak256\n        /* \"Access_Matrix.sol\":2064:2069  index */\n      dup6\n        /* \"Access_Matrix.sol\":2047:2070  variables[_hash][index] */\n      dup2\n      sload\n      dup2\n      lt\n      tag_63\n      jumpi\n      invalid\n    tag_63:\n      swap1\n      0x00\n      mstore\n      keccak256(0x00, 0x20)\n      swap1\n      0x03\n      mul\n      add\n        /* \"Access_Matrix.sol\":2047:2076  variables[_hash][index].value */\n      0x01\n      add\n      0x00\n        /* \"Access_Matrix.sol\":2047:2094  variables[_hash][index].value = _variable_value */\n      0x0100\n      exp\n      dup2\n      sload\n      dup2\n      0xffffffff\n      mul\n      not\n      and\n      swap1\n      dup4\n      0xffffffff\n      and\n      mul\n      or\n      swap1\n      sstore\n      pop\n        /* \"Access_Matrix.sol\":1801:2101  function updateValue(string memory _hash, uint index, uint32 _variable_value, string memory _activity) public {... */\n      pop\n      pop\n      pop\n      pop\n      pop\n      jump\t// out\n        /* \"Access_Matrix.sol\":3158:3408  function deleteVariable(string memory _hash, uint index, string memory _activity) public {... */\n    tag_20:\n        /* \"Access_Matrix.sol\":3257:3272  bool has_access */\n      0x00\n        /* \"Access_Matrix.sol\":3338:3339  1 */\n      0x01\n        /* \"Access_Matrix.sol\":3333:3334  1 */\n      dup1\n        /* \"Access_Matrix.sol\":3276:3285  variables */\n      0x00\n        /* \"Access_Matrix.sol\":3286:3291  _hash */\n      dup7\n        /* \"Access_Matrix.sol\":3276:3292  variables[_hash] */\n      mload(0x40)\n      tag_66\n      swap2\n      swap1\n      jump(tag_57)\n    tag_66:\n      swap1\n      dup2\n      mstore\n      0x20\n      add\n      mload(0x40)\n      dup1\n      swap2\n      sub\n      swap1\n      keccak256\n        /* \"Access_Matrix.sol\":3293:3298  index */\n      dup6\n        /* \"Access_Matrix.sol\":3276:3299  variables[_hash][index] */\n      dup2\n      sload\n      dup2\n      lt\n      tag_67\n      jumpi\n      invalid\n    tag_67:\n      swap1\n      0x00\n      mstore\n      keccak256(0x00, 0x20)\n      swap1\n      0x03\n      mul\n      add\n        /* \"Access_Matrix.sol\":3276:3306  variables[_hash][index].matrix */\n      0x00\n      add\n        /* \"Access_Matrix.sol\":3307:3316  _activity */\n      dup5\n        /* \"Access_Matrix.sol\":3276:3317  variables[_hash][index].matrix[_activity] */\n      mload(0x40)\n      tag_69\n      swap2\n      swap1\n      jump(tag_57)\n    tag_69:\n      swap1\n      dup2\n      mstore\n      0x20\n      add\n      mload(0x40)\n      dup1\n      swap2\n      sub\n      swap1\n      keccak256\n        /* \"Access_Matrix.sol\":3276:3329  variables[_hash][index].matrix[_activity][msg.sender] */\n      0x00\n        /* \"Access_Matrix.sol\":3318:3328  msg.sender */\n      caller\n        /* \"Access_Matrix.sol\":3276:3329  variables[_hash][index].matrix[_activity][msg.sender] */\n      0xffffffffffffffffffffffffffffffffffffffff\n      and\n      0xffffffffffffffffffffffffffffffffffffffff\n      and\n      dup2\n      mstore\n      0x20\n      add\n      swap1\n      dup2\n      mstore\n      0x20\n      add\n      0x00\n      keccak256\n      0x00\n      swap1\n      sload\n      swap1\n      0x0100\n      exp\n      swap1\n      div\n      0xff\n      and\n        /* \"Access_Matrix.sol\":3275:3334  (variables[_hash][index].matrix[_activity][msg.sender]) & 1 */\n      and\n        /* \"Access_Matrix.sol\":3275:3339  (variables[_hash][index].matrix[_activity][msg.sender]) & 1 == 1 */\n      0xff\n      and\n      eq\n        /* \"Access_Matrix.sol\":3257:3339  bool has_access = (variables[_hash][index].matrix[_activity][msg.sender]) & 1 == 1 */\n      swap1\n      pop\n        /* \"Access_Matrix.sol\":3356:3366  has_access */\n      dup1\n        /* \"Access_Matrix.sol\":3349:3367  assert(has_access) */\n      tag_70\n      jumpi\n      invalid\n    tag_70:\n        /* \"Access_Matrix.sol\":3390:3400  msg.sender */\n      caller\n        /* \"Access_Matrix.sol\":3377:3401  selfdestruct(msg.sender) */\n      0xffffffffffffffffffffffffffffffffffffffff\n      and\n      selfdestruct\n        /* \"Access_Matrix.sol\":797:940  function setVariableName(string memory _hash, uint index, string memory _newName) public {... */\n    tag_23:\n        /* \"Access_Matrix.sol\":925:933  _newName */\n      dup1\n        /* \"Access_Matrix.sol\":894:903  variables */\n      0x00\n        /* \"Access_Matrix.sol\":904:909  _hash */\n      dup5\n        /* \"Access_Matrix.sol\":894:910  variables[_hash] */\n      mload(0x40)\n      tag_72\n      swap2\n      swap1\n      jump(tag_57)\n    tag_72:\n      swap1\n      dup2\n      mstore\n      0x20\n      add\n      mload(0x40)\n      dup1\n      swap2\n      sub\n      swap1\n      keccak256\n        /* \"Access_Matrix.sol\":911:916  index */\n      dup4\n        /* \"Access_Matrix.sol\":894:917  variables[_hash][index] */\n      dup2\n      sload\n      dup2\n      lt\n      tag_73\n      jumpi\n      invalid\n    tag_73:\n      swap1\n      0x00\n      mstore\n      keccak256(0x00, 0x20)\n      swap1\n      0x03\n      mul\n      add\n        /* \"Access_Matrix.sol\":894:922  variables[_hash][index].name */\n      0x02\n      add\n        /* \"Access_Matrix.sol\":894:933  variables[_hash][index].name = _newName */\n      swap1\n      dup1\n      mload\n      swap1\n      0x20\n      add\n      swap1\n      tag_75\n      swap3\n      swap2\n      swap1\n      tag_76\n      jump\t// in\n    tag_75:\n      pop\n        /* \"Access_Matrix.sol\":797:940  function setVariableName(string memory _hash, uint index, string memory _newName) public {... */\n      pop\n      pop\n      pop\n      jump\t// out\n        /* \"Access_Matrix.sol\":607:791  function updateMatrix(string memory _hash, uint index, string memory _activity, address _role, uint8 _val) public {... */\n    tag_27:\n        /* \"Access_Matrix.sol\":780:784  _val */\n      dup1\n        /* \"Access_Matrix.sol\":729:738  variables */\n      0x00\n        /* \"Access_Matrix.sol\":739:744  _hash */\n      dup7\n        /* \"Access_Matrix.sol\":729:745  variables[_hash] */\n      mload(0x40)\n      tag_78\n      swap2\n      swap1\n      jump(tag_57)\n    tag_78:\n      swap1\n      dup2\n      mstore\n      0x20\n      add\n      mload(0x40)\n      dup1\n      swap2\n      sub\n      swap1\n      keccak256\n        /* \"Access_Matrix.sol\":746:751  index */\n      dup6\n        /* \"Access_Matrix.sol\":729:752  variables[_hash][index] */\n      dup2\n      sload\n      dup2\n      lt\n      tag_79\n      jumpi\n      invalid\n    tag_79:\n      swap1\n      0x00\n      mstore\n      keccak256(0x00, 0x20)\n      swap1\n      0x03\n      mul\n      add\n        /* \"Access_Matrix.sol\":729:759  variables[_hash][index].matrix */\n      0x00\n      add\n        /* \"Access_Matrix.sol\":760:769  _activity */\n      dup5\n        /* \"Access_Matrix.sol\":729:770  variables[_hash][index].matrix[_activity] */\n      mload(0x40)\n      tag_81\n      swap2\n      swap1\n      jump(tag_57)\n    tag_81:\n      swap1\n      dup2\n      mstore\n      0x20\n      add\n      mload(0x40)\n      dup1\n      swap2\n      sub\n      swap1\n      keccak256\n        /* \"Access_Matrix.sol\":729:777  variables[_hash][index].matrix[_activity][_role] */\n      0x00\n        /* \"Access_Matrix.sol\":771:776  _role */\n      dup5\n        /* \"Access_Matrix.sol\":729:777  variables[_hash][index].matrix[_activity][_role] */\n      0xffffffffffffffffffffffffffffffffffffffff\n      and\n      0xffffffffffffffffffffffffffffffffffffffff\n      and\n      dup2\n      mstore\n      0x20\n      add\n      swap1\n      dup2\n      mstore\n      0x20\n      add\n      0x00\n      keccak256\n      0x00\n        /* \"Access_Matrix.sol\":729:784  variables[_hash][index].matrix[_activity][_role] = _val */\n      0x0100\n      exp\n      dup2\n      sload\n      dup2\n      0xff\n      mul\n      not\n      and\n      swap1\n      dup4\n      0xff\n      and\n      mul\n      or\n      swap1\n      sstore\n      pop\n        /* \"Access_Matrix.sol\":607:791  function updateMatrix(string memory _hash, uint index, string memory _activity, address _role, uint8 _val) public {... */\n      pop\n      pop\n      pop\n      pop\n      pop\n      jump\t// out\n        /* \"Access_Matrix.sol\":2344:2768  function getAllVariables(string memory _hash) public view returns (string[] memory,  uint32[] memory){... */\n    tag_31:\n        /* \"Access_Matrix.sol\":2411:2426  string[] memory */\n      0x60\n        /* \"Access_Matrix.sol\":2429:2444  uint32[] memory */\n      dup1\n        /* \"Access_Matrix.sol\":2453:2472  string[] memory arr */\n      0x60\n        /* \"Access_Matrix.sol\":2488:2497  variables */\n      0x00\n        /* \"Access_Matrix.sol\":2498:2503  _hash */\n      dup5\n        /* \"Access_Matrix.sol\":2488:2504  variables[_hash] */\n      mload(0x40)\n      tag_83\n      swap2\n      swap1\n      jump(tag_57)\n    tag_83:\n      swap1\n      dup2\n      mstore\n      0x20\n      add\n      mload(0x40)\n      dup1\n      swap2\n      sub\n      swap1\n      keccak256\n        /* \"Access_Matrix.sol\":2488:2511  variables[_hash].length */\n      dup1\n      sload\n      swap1\n      pop\n        /* \"Access_Matrix.sol\":2475:2512  new string[](variables[_hash].length) */\n      mload(0x40)\n      swap1\n      dup1\n      dup3\n      mstore\n      dup1\n      0x20\n      mul\n      0x20\n      add\n      dup3\n      add\n      0x40\n      mstore\n      dup1\n      iszero\n      tag_84\n      jumpi\n      dup2\n      0x20\n      add\n    tag_85:\n      0x60\n      dup2\n      mstore\n      0x20\n      add\n      swap1\n      0x01\n      swap1\n      sub\n      swap1\n      dup2\n      tag_85\n      jumpi\n      swap1\n      pop\n    tag_84:\n      pop\n        /* \"Access_Matrix.sol\":2453:2512  string[] memory arr = new string[](variables[_hash].length) */\n      swap1\n      pop\n        /* \"Access_Matrix.sol\":2520:2539  uint32[] memory vls */\n      0x60\n        /* \"Access_Matrix.sol\":2555:2564  variables */\n      0x00\n        /* \"Access_Matrix.sol\":2565:2570  _hash */\n      dup6\n        /* \"Access_Matrix.sol\":2555:2571  variables[_hash] */\n      mload(0x40)\n      tag_86\n      swap2\n      swap1\n      jump(tag_57)\n    tag_86:\n      swap1\n      dup2\n      mstore\n      0x20\n      add\n      mload(0x40)\n      dup1\n      swap2\n      sub\n      swap1\n      keccak256\n        /* \"Access_Matrix.sol\":2555:2578  variables[_hash].length */\n      dup1\n      sload\n      swap1\n      pop\n        /* \"Access_Matrix.sol\":2542:2579  new uint32[](variables[_hash].length) */\n      mload(0x40)\n      swap1\n      dup1\n      dup3\n      mstore\n      dup1\n      0x20\n      mul\n      0x20\n      add\n      dup3\n      add\n      0x40\n      mstore\n      dup1\n      iszero\n      tag_87\n      jumpi\n      dup2\n      0x20\n      add\n        /* \"--CODEGEN--\":29:31   */\n      0x20\n        /* \"--CODEGEN--\":21:27   */\n      dup3\n        /* \"--CODEGEN--\":17:32   */\n      mul\n        /* \"--CODEGEN--\":117:121   */\n      dup1\n        /* \"--CODEGEN--\":105:115   */\n      codesize\n        /* \"--CODEGEN--\":97:103   */\n      dup4\n        /* \"--CODEGEN--\":88:122   */\n      codecopy\n        /* \"--CODEGEN--\":148:152   */\n      dup1\n        /* \"--CODEGEN--\":140:146   */\n      dup3\n        /* \"--CODEGEN--\":136:153   */\n      add\n        /* \"--CODEGEN--\":126:153   */\n      swap2\n      pop\n        /* \"--CODEGEN--\":0:157   */\n      pop\n        /* \"Access_Matrix.sol\":2542:2579  new uint32[](variables[_hash].length) */\n      swap1\n      pop\n    tag_87:\n      pop\n        /* \"Access_Matrix.sol\":2520:2579  uint32[] memory vls = new uint32[](variables[_hash].length) */\n      swap1\n      pop\n        /* \"Access_Matrix.sol\":2591:2597  uint i */\n      0x00\n        /* \"Access_Matrix.sol\":2600:2601  0 */\n      dup1\n        /* \"Access_Matrix.sol\":2591:2601  uint i = 0 */\n      swap1\n      pop\n        /* \"Access_Matrix.sol\":2587:2737  for(uint i = 0; i < variables[_hash].length; i++) {... */\n    tag_88:\n        /* \"Access_Matrix.sol\":2607:2616  variables */\n      0x00\n        /* \"Access_Matrix.sol\":2617:2622  _hash */\n      dup7\n        /* \"Access_Matrix.sol\":2607:2623  variables[_hash] */\n      mload(0x40)\n      tag_91\n      swap2\n      swap1\n      jump(tag_57)\n    tag_91:\n      swap1\n      dup2\n      mstore\n      0x20\n      add\n      mload(0x40)\n      dup1\n      swap2\n      sub\n      swap1\n      keccak256\n        /* \"Access_Matrix.sol\":2607:2630  variables[_hash].length */\n      dup1\n      sload\n      swap1\n      pop\n        /* \"Access_Matrix.sol\":2603:2604  i */\n      dup2\n        /* \"Access_Matrix.sol\":2603:2630  i < variables[_hash].length */\n      lt\n        /* \"Access_Matrix.sol\":2587:2737  for(uint i = 0; i < variables[_hash].length; i++) {... */\n      iszero\n      tag_89\n      jumpi\n        /* \"Access_Matrix.sol\":2657:2666  variables */\n      0x00\n        /* \"Access_Matrix.sol\":2667:2672  _hash */\n      dup7\n        /* \"Access_Matrix.sol\":2657:2673  variables[_hash] */\n      mload(0x40)\n      tag_92\n      swap2\n      swap1\n      jump(tag_57)\n    tag_92:\n      swap1\n      dup2\n      mstore\n      0x20\n      add\n      mload(0x40)\n      dup1\n      swap2\n      sub\n      swap1\n      keccak256\n        /* \"Access_Matrix.sol\":2674:2675  i */\n      dup2\n        /* \"Access_Matrix.sol\":2657:2676  variables[_hash][i] */\n      dup2\n      sload\n      dup2\n      lt\n      tag_93\n      jumpi\n      invalid\n    tag_93:\n      swap1\n      0x00\n      mstore\n      keccak256(0x00, 0x20)\n      swap1\n      0x03\n      mul\n      add\n        /* \"Access_Matrix.sol\":2657:2681  variables[_hash][i].name */\n      0x02\n      add\n        /* \"Access_Matrix.sol\":2647:2682  arr[i] = (variables[_hash][i].name) */\n      dup1\n      sload\n      0x01\n      dup2\n      0x01\n      and\n      iszero\n      0x0100\n      mul\n      sub\n      and\n      0x02\n      swap1\n      div\n      dup1\n      0x1f\n      add\n      0x20\n      dup1\n      swap2\n      div\n      mul\n      0x20\n      add\n      mload(0x40)\n      swap1\n      dup2\n      add\n      0x40\n      mstore\n      dup1\n      swap3\n      swap2\n      swap1\n      dup2\n      dup2\n      mstore\n      0x20\n      add\n      dup3\n      dup1\n      sload\n      0x01\n      dup2\n      0x01\n      and\n      iszero\n      0x0100\n      mul\n      sub\n      and\n      0x02\n      swap1\n      div\n      dup1\n      iszero\n      tag_95\n      jumpi\n      dup1\n      0x1f\n      lt\n      tag_96\n      jumpi\n      0x0100\n      dup1\n      dup4\n      sload\n      div\n      mul\n      dup4\n      mstore\n      swap2\n      0x20\n      add\n      swap2\n      jump(tag_95)\n    tag_96:\n      dup3\n      add\n      swap2\n      swap1\n      0x00\n      mstore\n      keccak256(0x00, 0x20)\n      swap1\n    tag_97:\n      dup2\n      sload\n      dup2\n      mstore\n      swap1\n      0x01\n      add\n      swap1\n      0x20\n      add\n      dup1\n      dup4\n      gt\n      tag_97\n      jumpi\n      dup3\n      swap1\n      sub\n      0x1f\n      and\n      dup3\n      add\n      swap2\n    tag_95:\n      pop\n      pop\n      pop\n      pop\n      pop\n        /* \"Access_Matrix.sol\":2647:2650  arr */\n      dup4\n        /* \"Access_Matrix.sol\":2651:2652  i */\n      dup3\n        /* \"Access_Matrix.sol\":2647:2653  arr[i] */\n      dup2\n      mload\n      dup2\n      lt\n      tag_98\n      jumpi\n      invalid\n    tag_98:\n      0x20\n      mul\n      0x20\n      add\n      add\n        /* \"Access_Matrix.sol\":2647:2682  arr[i] = (variables[_hash][i].name) */\n      dup2\n      swap1\n      mstore\n      pop\n        /* \"Access_Matrix.sol\":2702:2711  variables */\n      0x00\n        /* \"Access_Matrix.sol\":2712:2717  _hash */\n      dup7\n        /* \"Access_Matrix.sol\":2702:2718  variables[_hash] */\n      mload(0x40)\n      tag_99\n      swap2\n      swap1\n      jump(tag_57)\n    tag_99:\n      swap1\n      dup2\n      mstore\n      0x20\n      add\n      mload(0x40)\n      dup1\n      swap2\n      sub\n      swap1\n      keccak256\n        /* \"Access_Matrix.sol\":2719:2720  i */\n      dup2\n        /* \"Access_Matrix.sol\":2702:2721  variables[_hash][i] */\n      dup2\n      sload\n      dup2\n      lt\n      tag_100\n      jumpi\n      invalid\n    tag_100:\n      swap1\n      0x00\n      mstore\n      keccak256(0x00, 0x20)\n      swap1\n      0x03\n      mul\n      add\n        /* \"Access_Matrix.sol\":2702:2727  variables[_hash][i].value */\n      0x01\n      add\n      0x00\n      swap1\n      sload\n      swap1\n      0x0100\n      exp\n      swap1\n      div\n      0xffffffff\n      and\n        /* \"Access_Matrix.sol\":2692:2695  vls */\n      dup3\n        /* \"Access_Matrix.sol\":2696:2697  i */\n      dup3\n        /* \"Access_Matrix.sol\":2692:2698  vls[i] */\n      dup2\n      mload\n      dup2\n      lt\n      tag_102\n      jumpi\n      invalid\n    tag_102:\n      0x20\n      mul\n      0x20\n      add\n      add\n        /* \"Access_Matrix.sol\":2692:2728  vls[i] = (variables[_hash][i].value) */\n      swap1\n      0xffffffff\n      and\n      swap1\n      dup2\n      0xffffffff\n      and\n      dup2\n      mstore\n      pop\n      pop\n        /* \"Access_Matrix.sol\":2632:2635  i++ */\n      dup1\n      dup1\n      0x01\n      add\n      swap2\n      pop\n      pop\n        /* \"Access_Matrix.sol\":2587:2737  for(uint i = 0; i < variables[_hash].length; i++) {... */\n      jump(tag_88)\n    tag_89:\n      pop\n        /* \"Access_Matrix.sol\":2752:2755  arr */\n      dup2\n        /* \"Access_Matrix.sol\":2757:2760  vls */\n      dup2\n        /* \"Access_Matrix.sol\":2744:2761  return (arr, vls) */\n      swap4\n      pop\n      swap4\n      pop\n      pop\n      pop\n        /* \"Access_Matrix.sol\":2344:2768  function getAllVariables(string memory _hash) public view returns (string[] memory,  uint32[] memory){... */\n      swap2\n      pop\n      swap2\n      jump\t// out\n        /* \"Access_Matrix.sol\":2193:2338  function getVariableValue(string memory _hash, uint index) public view returns (uint32 _var){... */\n    tag_37:\n        /* \"Access_Matrix.sol\":2273:2284  uint32 _var */\n      0x00\n        /* \"Access_Matrix.sol\":2302:2311  variables */\n      dup1\n        /* \"Access_Matrix.sol\":2312:2317  _hash */\n      dup4\n        /* \"Access_Matrix.sol\":2302:2318  variables[_hash] */\n      mload(0x40)\n      tag_104\n      swap2\n      swap1\n      jump(tag_57)\n    tag_104:\n      swap1\n      dup2\n      mstore\n      0x20\n      add\n      mload(0x40)\n      dup1\n      swap2\n      sub\n      swap1\n      keccak256\n        /* \"Access_Matrix.sol\":2319:2324  index */\n      dup3\n        /* \"Access_Matrix.sol\":2302:2325  variables[_hash][index] */\n      dup2\n      sload\n      dup2\n      lt\n      tag_105\n      jumpi\n      invalid\n    tag_105:\n      swap1\n      0x00\n      mstore\n      keccak256(0x00, 0x20)\n      swap1\n      0x03\n      mul\n      add\n        /* \"Access_Matrix.sol\":2302:2331  variables[_hash][index].value */\n      0x01\n      add\n      0x00\n      swap1\n      sload\n      swap1\n      0x0100\n      exp\n      swap1\n      div\n      0xffffffff\n      and\n        /* \"Access_Matrix.sol\":2295:2331  return variables[_hash][index].value */\n      swap1\n      pop\n        /* \"Access_Matrix.sol\":2193:2338  function getVariableValue(string memory _hash, uint index) public view returns (uint32 _var){... */\n      swap3\n      swap2\n      pop\n      pop\n      jump\t// out\n        /* \"Access_Matrix.sol\":2774:2973  function getAccess(string memory _hash, uint index, string memory _activity, address _role) public view returns (uint8 _access) {... */\n    tag_43:\n        /* \"Access_Matrix.sol\":2887:2900  uint8 _access */\n      0x00\n        /* \"Access_Matrix.sol\":2918:2927  variables */\n      dup1\n        /* \"Access_Matrix.sol\":2928:2933  _hash */\n      dup6\n        /* \"Access_Matrix.sol\":2918:2934  variables[_hash] */\n      mload(0x40)\n      tag_108\n      swap2\n      swap1\n      jump(tag_57)\n    tag_108:\n      swap1\n      dup2\n      mstore\n      0x20\n      add\n      mload(0x40)\n      dup1\n      swap2\n      sub\n      swap1\n      keccak256\n        /* \"Access_Matrix.sol\":2935:2940  index */\n      dup5\n        /* \"Access_Matrix.sol\":2918:2941  variables[_hash][index] */\n      dup2\n      sload\n      dup2\n      lt\n      tag_109\n      jumpi\n      invalid\n    tag_109:\n      swap1\n      0x00\n      mstore\n      keccak256(0x00, 0x20)\n      swap1\n      0x03\n      mul\n      add\n        /* \"Access_Matrix.sol\":2918:2948  variables[_hash][index].matrix */\n      0x00\n      add\n        /* \"Access_Matrix.sol\":2949:2958  _activity */\n      dup4\n        /* \"Access_Matrix.sol\":2918:2959  variables[_hash][index].matrix[_activity] */\n      mload(0x40)\n      tag_111\n      swap2\n      swap1\n      jump(tag_57)\n    tag_111:\n      swap1\n      dup2\n      mstore\n      0x20\n      add\n      mload(0x40)\n      dup1\n      swap2\n      sub\n      swap1\n      keccak256\n        /* \"Access_Matrix.sol\":2918:2966  variables[_hash][index].matrix[_activity][_role] */\n      0x00\n        /* \"Access_Matrix.sol\":2960:2965  _role */\n      dup4\n        /* \"Access_Matrix.sol\":2918:2966  variables[_hash][index].matrix[_activity][_role] */\n      0xffffffffffffffffffffffffffffffffffffffff\n      and\n      0xffffffffffffffffffffffffffffffffffffffff\n      and\n      dup2\n      mstore\n      0x20\n      add\n      swap1\n      dup2\n      mstore\n      0x20\n      add\n      0x00\n      keccak256\n      0x00\n      swap1\n      sload\n      swap1\n      0x0100\n      exp\n      swap1\n      div\n      0xff\n      and\n        /* \"Access_Matrix.sol\":2910:2966  return  variables[_hash][index].matrix[_activity][_role] */\n      swap1\n      pop\n        /* \"Access_Matrix.sol\":2774:2973  function getAccess(string memory _hash, uint index, string memory _activity, address _role) public view returns (uint8 _access) {... */\n      swap5\n      swap4\n      pop\n      pop\n      pop\n      pop\n      jump\t// out\n        /* \"Access_Matrix.sol\":1105:1569  function uploadMatrix(string memory _hash, string memory _newName, string[] memory _activities, address[] memory _roles, uint8[] memory _vals, uint nbOfElements) public {... */\n    tag_49:\n        /* \"Access_Matrix.sol\":1282:1304  Variable memory topush */\n      tag_113\n      tag_114\n      jump\t// in\n    tag_113:\n        /* \"Access_Matrix.sol\":1307:1369  Variable( {... */\n      mload(0x40)\n      dup1\n      0x40\n      add\n      0x40\n      mstore\n      dup1\n        /* \"Access_Matrix.sol\":1359:1360  0 */\n      0x00\n        /* \"Access_Matrix.sol\":1307:1369  Variable( {... */\n      0xffffffff\n      and\n      dup2\n      mstore\n      0x20\n      add\n        /* \"Access_Matrix.sol\":1334:1342  _newName */\n      dup8\n        /* \"Access_Matrix.sol\":1307:1369  Variable( {... */\n      dup2\n      mstore\n      pop\n        /* \"Access_Matrix.sol\":1282:1369  Variable memory topush = Variable( {... */\n      swap1\n      pop\n        /* \"Access_Matrix.sol\":1377:1386  variables */\n      0x00\n        /* \"Access_Matrix.sol\":1387:1392  _hash */\n      dup8\n        /* \"Access_Matrix.sol\":1377:1393  variables[_hash] */\n      mload(0x40)\n      tag_115\n      swap2\n      swap1\n      jump(tag_57)\n    tag_115:\n      swap1\n      dup2\n      mstore\n      0x20\n      add\n      mload(0x40)\n      dup1\n      swap2\n      sub\n      swap1\n      keccak256\n        /* \"Access_Matrix.sol\":1399:1405  topush */\n      dup2\n        /* \"Access_Matrix.sol\":1377:1406  variables[_hash].push(topush) */\n      swap1\n      dup1\n        /* \"--CODEGEN--\":39:40   */\n      0x01\n        /* \"--CODEGEN--\":33:36   */\n      dup2\n        /* \"--CODEGEN--\":27:37   */\n      sload\n        /* \"--CODEGEN--\":23:41   */\n      add\n        /* \"--CODEGEN--\":57:67   */\n      dup1\n        /* \"--CODEGEN--\":52:55   */\n      dup3\n        /* \"--CODEGEN--\":45:68   */\n      sstore\n        /* \"--CODEGEN--\":79:89   */\n      dup1\n        /* \"--CODEGEN--\":72:89   */\n      swap2\n      pop\n        /* \"--CODEGEN--\":0:93   */\n      pop\n        /* \"Access_Matrix.sol\":1377:1406  variables[_hash].push(topush) */\n      swap1\n      0x01\n      dup3\n      sub\n      swap1\n      0x00\n      mstore\n      keccak256(0x00, 0x20)\n      swap1\n      0x03\n      mul\n      add\n      0x00\n      swap1\n      swap2\n      swap3\n      swap1\n      swap2\n      swap1\n      swap2\n      pop\n      0x00\n      dup3\n      add\n      mload\n      dup2\n      0x01\n      add\n      exp(0x0100, 0x00)\n      dup2\n      sload\n      dup2\n      0xffffffff\n      mul\n      not\n      and\n      swap1\n      dup4\n      0xffffffff\n      and\n      mul\n      or\n      swap1\n      sstore\n      pop\n      0x20\n      dup3\n      add\n      mload\n      dup2\n      0x02\n      add\n      swap1\n      dup1\n      mload\n      swap1\n      0x20\n      add\n      swap1\n      tag_117\n      swap3\n      swap2\n      swap1\n      tag_118\n      jump\t// in\n    tag_117:\n      pop\n      pop\n      pop\n      pop\n        /* \"Access_Matrix.sol\":1418:1424  uint k */\n      0x00\n        /* \"Access_Matrix.sol\":1427:1428  0 */\n      dup1\n        /* \"Access_Matrix.sol\":1418:1428  uint k = 0 */\n      swap1\n      pop\n        /* \"Access_Matrix.sol\":1414:1563  for(uint k = 0; k < nbOfElements; k++) {... */\n    tag_119:\n        /* \"Access_Matrix.sol\":1434:1446  nbOfElements */\n      dup3\n        /* \"Access_Matrix.sol\":1430:1431  k */\n      dup2\n        /* \"Access_Matrix.sol\":1430:1446  k < nbOfElements */\n      lt\n        /* \"Access_Matrix.sol\":1414:1563  for(uint k = 0; k < nbOfElements; k++) {... */\n      iszero\n      tag_120\n      jumpi\n        /* \"Access_Matrix.sol\":1545:1550  _vals */\n      dup4\n        /* \"Access_Matrix.sol\":1551:1552  k */\n      dup2\n        /* \"Access_Matrix.sol\":1545:1553  _vals[k] */\n      dup2\n      mload\n      dup2\n      lt\n      tag_122\n      jumpi\n      invalid\n    tag_122:\n      0x20\n      mul\n      0x20\n      add\n      add\n      mload\n        /* \"Access_Matrix.sol\":1463:1472  variables */\n      0x00\n        /* \"Access_Matrix.sol\":1473:1478  _hash */\n      dup10\n        /* \"Access_Matrix.sol\":1463:1479  variables[_hash] */\n      mload(0x40)\n      tag_123\n      swap2\n      swap1\n      jump(tag_57)\n    tag_123:\n      swap1\n      dup2\n      mstore\n      0x20\n      add\n      mload(0x40)\n      dup1\n      swap2\n      sub\n      swap1\n      keccak256\n        /* \"Access_Matrix.sol\":1506:1507  1 */\n      0x01\n        /* \"Access_Matrix.sol\":1480:1489  variables */\n      0x00\n        /* \"Access_Matrix.sol\":1490:1495  _hash */\n      dup12\n        /* \"Access_Matrix.sol\":1480:1496  variables[_hash] */\n      mload(0x40)\n      tag_124\n      swap2\n      swap1\n      jump(tag_57)\n    tag_124:\n      swap1\n      dup2\n      mstore\n      0x20\n      add\n      mload(0x40)\n      dup1\n      swap2\n      sub\n      swap1\n      keccak256\n        /* \"Access_Matrix.sol\":1480:1503  variables[_hash].length */\n      dup1\n      sload\n      swap1\n      pop\n        /* \"Access_Matrix.sol\":1480:1507  variables[_hash].length - 1 */\n      sub\n        /* \"Access_Matrix.sol\":1463:1508  variables[_hash][variables[_hash].length - 1] */\n      dup2\n      sload\n      dup2\n      lt\n      tag_125\n      jumpi\n      invalid\n    tag_125:\n      swap1\n      0x00\n      mstore\n      keccak256(0x00, 0x20)\n      swap1\n      0x03\n      mul\n      add\n        /* \"Access_Matrix.sol\":1463:1515  variables[_hash][variables[_hash].length - 1].matrix */\n      0x00\n      add\n        /* \"Access_Matrix.sol\":1516:1527  _activities */\n      dup8\n        /* \"Access_Matrix.sol\":1528:1529  k */\n      dup4\n        /* \"Access_Matrix.sol\":1516:1530  _activities[k] */\n      dup2\n      mload\n      dup2\n      lt\n      tag_127\n      jumpi\n      invalid\n    tag_127:\n      0x20\n      mul\n      0x20\n      add\n      add\n      mload\n        /* \"Access_Matrix.sol\":1463:1531  variables[_hash][variables[_hash].length - 1].matrix[_activities[k]] */\n      mload(0x40)\n      tag_128\n      swap2\n      swap1\n      jump(tag_129)\n    tag_128:\n      swap1\n      dup2\n      mstore\n      0x20\n      add\n      mload(0x40)\n      dup1\n      swap2\n      sub\n      swap1\n      keccak256\n        /* \"Access_Matrix.sol\":1463:1542  variables[_hash][variables[_hash].length - 1].matrix[_activities[k]][_roles[k]] */\n      0x00\n        /* \"Access_Matrix.sol\":1532:1538  _roles */\n      dup8\n        /* \"Access_Matrix.sol\":1539:1540  k */\n      dup5\n        /* \"Access_Matrix.sol\":1532:1541  _roles[k] */\n      dup2\n      mload\n      dup2\n      lt\n      tag_130\n      jumpi\n      invalid\n    tag_130:\n      0x20\n      mul\n      0x20\n      add\n      add\n      mload\n        /* \"Access_Matrix.sol\":1463:1542  variables[_hash][variables[_hash].length - 1].matrix[_activities[k]][_roles[k]] */\n      0xffffffffffffffffffffffffffffffffffffffff\n      and\n      0xffffffffffffffffffffffffffffffffffffffff\n      and\n      dup2\n      mstore\n      0x20\n      add\n      swap1\n      dup2\n      mstore\n      0x20\n      add\n      0x00\n      keccak256\n      0x00\n        /* \"Access_Matrix.sol\":1463:1553  variables[_hash][variables[_hash].length - 1].matrix[_activities[k]][_roles[k]] = _vals[k] */\n      0x0100\n      exp\n      dup2\n      sload\n      dup2\n      0xff\n      mul\n      not\n      and\n      swap1\n      dup4\n      0xff\n      and\n      mul\n      or\n      swap1\n      sstore\n      pop\n        /* \"Access_Matrix.sol\":1448:1451  k++ */\n      dup1\n      dup1\n      0x01\n      add\n      swap2\n      pop\n      pop\n        /* \"Access_Matrix.sol\":1414:1563  for(uint k = 0; k < nbOfElements; k++) {... */\n      jump(tag_119)\n    tag_120:\n      pop\n        /* \"Access_Matrix.sol\":1105:1569  function uploadMatrix(string memory _hash, string memory _newName, string[] memory _activities, address[] memory _roles, uint8[] memory _vals, uint nbOfElements) public {... */\n      pop\n      pop\n      pop\n      pop\n      pop\n      pop\n      pop\n      jump\t// out\n        /* \"Access_Matrix.sol\":946:1099  function getVariableName(string memory _hash, uint index) public view returns (string memory _varName) {... */\n    tag_52:\n        /* \"Access_Matrix.sol\":1025:1047  string memory _varName */\n      0x60\n        /* \"Access_Matrix.sol\":1064:1073  variables */\n      0x00\n        /* \"Access_Matrix.sol\":1074:1079  _hash */\n      dup4\n        /* \"Access_Matrix.sol\":1064:1080  variables[_hash] */\n      mload(0x40)\n      tag_132\n      swap2\n      swap1\n      jump(tag_57)\n    tag_132:\n      swap1\n      dup2\n      mstore\n      0x20\n      add\n      mload(0x40)\n      dup1\n      swap2\n      sub\n      swap1\n      keccak256\n        /* \"Access_Matrix.sol\":1081:1086  index */\n      dup3\n        /* \"Access_Matrix.sol\":1064:1087  variables[_hash][index] */\n      dup2\n      sload\n      dup2\n      lt\n      tag_133\n      jumpi\n      invalid\n    tag_133:\n      swap1\n      0x00\n      mstore\n      keccak256(0x00, 0x20)\n      swap1\n      0x03\n      mul\n      add\n        /* \"Access_Matrix.sol\":1064:1092  variables[_hash][index].name */\n      0x02\n      add\n        /* \"Access_Matrix.sol\":1057:1092  return variables[_hash][index].name */\n      dup1\n      sload\n      0x01\n      dup2\n      0x01\n      and\n      iszero\n      0x0100\n      mul\n      sub\n      and\n      0x02\n      swap1\n      div\n      dup1\n      0x1f\n      add\n      0x20\n      dup1\n      swap2\n      div\n      mul\n      0x20\n      add\n      mload(0x40)\n      swap1\n      dup2\n      add\n      0x40\n      mstore\n      dup1\n      swap3\n      swap2\n      swap1\n      dup2\n      dup2\n      mstore\n      0x20\n      add\n      dup3\n      dup1\n      sload\n      0x01\n      dup2\n      0x01\n      and\n      iszero\n      0x0100\n      mul\n      sub\n      and\n      0x02\n      swap1\n      div\n      dup1\n      iszero\n      tag_135\n      jumpi\n      dup1\n      0x1f\n      lt\n      tag_136\n      jumpi\n      0x0100\n      dup1\n      dup4\n      sload\n      div\n      mul\n      dup4\n      mstore\n      swap2\n      0x20\n      add\n      swap2\n      jump(tag_135)\n    tag_136:\n      dup3\n      add\n      swap2\n      swap1\n      0x00\n      mstore\n      keccak256(0x00, 0x20)\n      swap1\n    tag_137:\n      dup2\n      sload\n      dup2\n      mstore\n      swap1\n      0x01\n      add\n      swap1\n      0x20\n      add\n      dup1\n      dup4\n      gt\n      tag_137\n      jumpi\n      dup3\n      swap1\n      sub\n      0x1f\n      and\n      dup3\n      add\n      swap2\n    tag_135:\n      pop\n      pop\n      pop\n      pop\n      pop\n      swap1\n      pop\n        /* \"Access_Matrix.sol\":946:1099  function getVariableName(string memory _hash, uint index) public view returns (string memory _varName) {... */\n      swap3\n      swap2\n      pop\n      pop\n      jump\t// out\n        /* \"Access_Matrix.sol\":94:3410  contract Access_matrix {... */\n    tag_76:\n      dup3\n      dup1\n      sload\n      0x01\n      dup2\n      0x01\n      and\n      iszero\n      0x0100\n      mul\n      sub\n      and\n      0x02\n      swap1\n      div\n      swap1\n      0x00\n      mstore\n      keccak256(0x00, 0x20)\n      swap1\n      0x1f\n      add\n      0x20\n      swap1\n      div\n      dup2\n      add\n      swap3\n      dup3\n      0x1f\n      lt\n      tag_139\n      jumpi\n      dup1\n      mload\n      not(0xff)\n      and\n      dup4\n      dup1\n      add\n      or\n      dup6\n      sstore\n      jump(tag_138)\n    tag_139:\n      dup3\n      dup1\n      add\n      0x01\n      add\n      dup6\n      sstore\n      dup3\n      iszero\n      tag_138\n      jumpi\n      swap2\n      dup3\n      add\n    tag_140:\n      dup3\n      dup2\n      gt\n      iszero\n      tag_141\n      jumpi\n      dup3\n      mload\n      dup3\n      sstore\n      swap2\n      0x20\n      add\n      swap2\n      swap1\n      0x01\n      add\n      swap1\n      jump(tag_140)\n    tag_141:\n    tag_138:\n      pop\n      swap1\n      pop\n      tag_142\n      swap2\n      swap1\n      tag_143\n      jump\t// in\n    tag_142:\n      pop\n      swap1\n      jump\t// out\n    tag_114:\n      mload(0x40)\n      dup1\n      0x40\n      add\n      0x40\n      mstore\n      dup1\n      and(0xffffffff, 0x00)\n      dup2\n      mstore\n      0x20\n      add\n      0x60\n      dup2\n      mstore\n      pop\n      swap1\n      jump\t// out\n    tag_118:\n      dup3\n      dup1\n      sload\n      0x01\n      dup2\n      0x01\n      and\n      iszero\n      0x0100\n      mul\n      sub\n      and\n      0x02\n      swap1\n      div\n      swap1\n      0x00\n      mstore\n      keccak256(0x00, 0x20)\n      swap1\n      0x1f\n      add\n      0x20\n      swap1\n      div\n      dup2\n      add\n      swap3\n      dup3\n      0x1f\n      lt\n      tag_145\n      jumpi\n      dup1\n      mload\n      not(0xff)\n      and\n      dup4\n      dup1\n      add\n      or\n      dup6\n      sstore\n      jump(tag_144)\n    tag_145:\n      dup3\n      dup1\n      add\n      0x01\n      add\n      dup6\n      sstore\n      dup3\n      iszero\n      tag_144\n      jumpi\n      swap2\n      dup3\n      add\n    tag_146:\n      dup3\n      dup2\n      gt\n      iszero\n      tag_147\n      jumpi\n      dup3\n      mload\n      dup3\n      sstore\n      swap2\n      0x20\n      add\n      swap2\n      swap1\n      0x01\n      add\n      swap1\n      jump(tag_146)\n    tag_147:\n    tag_144:\n      pop\n      swap1\n      pop\n      tag_148\n      swap2\n      swap1\n      tag_143\n      jump\t// in\n    tag_148:\n      pop\n      swap1\n      jump\t// out\n    tag_143:\n      tag_149\n      swap2\n      swap1\n    tag_150:\n      dup1\n      dup3\n      gt\n      iszero\n      tag_151\n      jumpi\n      0x00\n      dup2\n      0x00\n      swap1\n      sstore\n      pop\n      0x01\n      add\n      jump(tag_150)\n    tag_151:\n      pop\n      swap1\n      jump\n    tag_149:\n      swap1\n      jump\t// out\n        /* \"--CODEGEN--\":5:135   */\n    tag_153:\n      0x00\n        /* \"--CODEGEN--\":85:91   */\n      dup2\n        /* \"--CODEGEN--\":72:92   */\n      calldataload\n        /* \"--CODEGEN--\":63:92   */\n      swap1\n      pop\n        /* \"--CODEGEN--\":97:130   */\n      tag_154\n        /* \"--CODEGEN--\":124:129   */\n      dup2\n        /* \"--CODEGEN--\":97:130   */\n      jump(tag_155)\n    tag_154:\n        /* \"--CODEGEN--\":57:135   */\n      swap3\n      swap2\n      pop\n      pop\n      jump\n        /* \"--CODEGEN--\":160:867   */\n    tag_156:\n      0x00\n        /* \"--CODEGEN--\":277:280   */\n      dup3\n        /* \"--CODEGEN--\":270:274   */\n      0x1f\n        /* \"--CODEGEN--\":262:268   */\n      dup4\n        /* \"--CODEGEN--\":258:275   */\n      add\n        /* \"--CODEGEN--\":254:281   */\n      slt\n        /* \"--CODEGEN--\":244:246   */\n      tag_157\n      jumpi\n        /* \"--CODEGEN--\":295:296   */\n      0x00\n        /* \"--CODEGEN--\":292:293   */\n      dup1\n        /* \"--CODEGEN--\":285:297   */\n      revert\n        /* \"--CODEGEN--\":244:246   */\n    tag_157:\n        /* \"--CODEGEN--\":332:338   */\n      dup2\n        /* \"--CODEGEN--\":319:339   */\n      calldataload\n        /* \"--CODEGEN--\":354:434   */\n      tag_158\n        /* \"--CODEGEN--\":369:433   */\n      tag_159\n        /* \"--CODEGEN--\":426:432   */\n      dup3\n        /* \"--CODEGEN--\":369:433   */\n      jump(tag_160)\n    tag_159:\n        /* \"--CODEGEN--\":354:434   */\n      jump(tag_161)\n    tag_158:\n        /* \"--CODEGEN--\":345:434   */\n      swap2\n      pop\n        /* \"--CODEGEN--\":451:456   */\n      dup2\n        /* \"--CODEGEN--\":476:482   */\n      dup2\n        /* \"--CODEGEN--\":469:474   */\n      dup4\n        /* \"--CODEGEN--\":462:483   */\n      mstore\n        /* \"--CODEGEN--\":506:510   */\n      0x20\n        /* \"--CODEGEN--\":498:504   */\n      dup5\n        /* \"--CODEGEN--\":494:511   */\n      add\n        /* \"--CODEGEN--\":484:511   */\n      swap4\n      pop\n        /* \"--CODEGEN--\":528:532   */\n      0x20\n        /* \"--CODEGEN--\":523:526   */\n      dup2\n        /* \"--CODEGEN--\":519:533   */\n      add\n        /* \"--CODEGEN--\":512:533   */\n      swap1\n      pop\n        /* \"--CODEGEN--\":581:587   */\n      dup4\n        /* \"--CODEGEN--\":628:631   */\n      dup6\n        /* \"--CODEGEN--\":620:624   */\n      0x20\n        /* \"--CODEGEN--\":612:618   */\n      dup5\n        /* \"--CODEGEN--\":608:625   */\n      mul\n        /* \"--CODEGEN--\":603:606   */\n      dup3\n        /* \"--CODEGEN--\":599:626   */\n      add\n        /* \"--CODEGEN--\":596:632   */\n      gt\n        /* \"--CODEGEN--\":593:595   */\n      iszero\n      tag_162\n      jumpi\n        /* \"--CODEGEN--\":645:646   */\n      0x00\n        /* \"--CODEGEN--\":642:643   */\n      dup1\n        /* \"--CODEGEN--\":635:647   */\n      revert\n        /* \"--CODEGEN--\":593:595   */\n    tag_162:\n        /* \"--CODEGEN--\":670:671   */\n      0x00\n        /* \"--CODEGEN--\":655:861   */\n    tag_163:\n        /* \"--CODEGEN--\":680:686   */\n      dup4\n        /* \"--CODEGEN--\":677:678   */\n      dup2\n        /* \"--CODEGEN--\":674:687   */\n      lt\n        /* \"--CODEGEN--\":655:861   */\n      iszero\n      tag_165\n      jumpi\n        /* \"--CODEGEN--\":738:741   */\n      dup2\n        /* \"--CODEGEN--\":760:797   */\n      tag_166\n        /* \"--CODEGEN--\":793:796   */\n      dup9\n        /* \"--CODEGEN--\":781:791   */\n      dup3\n        /* \"--CODEGEN--\":760:797   */\n      jump(tag_153)\n    tag_166:\n        /* \"--CODEGEN--\":755:758   */\n      dup5\n        /* \"--CODEGEN--\":748:798   */\n      mstore\n        /* \"--CODEGEN--\":821:825   */\n      0x20\n        /* \"--CODEGEN--\":816:819   */\n      dup5\n        /* \"--CODEGEN--\":812:826   */\n      add\n        /* \"--CODEGEN--\":805:826   */\n      swap4\n      pop\n        /* \"--CODEGEN--\":849:853   */\n      0x20\n        /* \"--CODEGEN--\":844:847   */\n      dup4\n        /* \"--CODEGEN--\":840:854   */\n      add\n        /* \"--CODEGEN--\":833:854   */\n      swap3\n      pop\n        /* \"--CODEGEN--\":712:861   */\n      pop\n        /* \"--CODEGEN--\":702:703   */\n      0x01\n        /* \"--CODEGEN--\":699:700   */\n      dup2\n        /* \"--CODEGEN--\":695:704   */\n      add\n        /* \"--CODEGEN--\":690:704   */\n      swap1\n      pop\n        /* \"--CODEGEN--\":655:861   */\n      jump(tag_163)\n    tag_165:\n        /* \"--CODEGEN--\":659:673   */\n      pop\n        /* \"--CODEGEN--\":237:867   */\n      pop\n      pop\n      pop\n      swap3\n      swap2\n      pop\n      pop\n      jump\n        /* \"--CODEGEN--\":892:1588   */\n    tag_167:\n      0x00\n        /* \"--CODEGEN--\":1015:1018   */\n      dup3\n        /* \"--CODEGEN--\":1008:1012   */\n      0x1f\n        /* \"--CODEGEN--\":1000:1006   */\n      dup4\n        /* \"--CODEGEN--\":996:1013   */\n      add\n        /* \"--CODEGEN--\":992:1019   */\n      slt\n        /* \"--CODEGEN--\":982:984   */\n      tag_168\n      jumpi\n        /* \"--CODEGEN--\":1033:1034   */\n      0x00\n        /* \"--CODEGEN--\":1030:1031   */\n      dup1\n        /* \"--CODEGEN--\":1023:1035   */\n      revert\n        /* \"--CODEGEN--\":982:984   */\n    tag_168:\n        /* \"--CODEGEN--\":1070:1076   */\n      dup2\n        /* \"--CODEGEN--\":1057:1077   */\n      calldataload\n        /* \"--CODEGEN--\":1092:1178   */\n      tag_169\n        /* \"--CODEGEN--\":1107:1177   */\n      tag_170\n        /* \"--CODEGEN--\":1170:1176   */\n      dup3\n        /* \"--CODEGEN--\":1107:1177   */\n      jump(tag_171)\n    tag_170:\n        /* \"--CODEGEN--\":1092:1178   */\n      jump(tag_161)\n    tag_169:\n        /* \"--CODEGEN--\":1083:1178   */\n      swap2\n      pop\n        /* \"--CODEGEN--\":1195:1200   */\n      dup2\n        /* \"--CODEGEN--\":1220:1226   */\n      dup2\n        /* \"--CODEGEN--\":1213:1218   */\n      dup4\n        /* \"--CODEGEN--\":1206:1227   */\n      mstore\n        /* \"--CODEGEN--\":1250:1254   */\n      0x20\n        /* \"--CODEGEN--\":1242:1248   */\n      dup5\n        /* \"--CODEGEN--\":1238:1255   */\n      add\n        /* \"--CODEGEN--\":1228:1255   */\n      swap4\n      pop\n        /* \"--CODEGEN--\":1272:1276   */\n      0x20\n        /* \"--CODEGEN--\":1267:1270   */\n      dup2\n        /* \"--CODEGEN--\":1263:1277   */\n      add\n        /* \"--CODEGEN--\":1256:1277   */\n      swap1\n      pop\n        /* \"--CODEGEN--\":1325:1331   */\n      dup4\n        /* \"--CODEGEN--\":1358:1359   */\n      0x00\n        /* \"--CODEGEN--\":1343:1582   */\n    tag_172:\n        /* \"--CODEGEN--\":1368:1374   */\n      dup4\n        /* \"--CODEGEN--\":1365:1366   */\n      dup2\n        /* \"--CODEGEN--\":1362:1375   */\n      lt\n        /* \"--CODEGEN--\":1343:1582   */\n      iszero\n      tag_174\n      jumpi\n        /* \"--CODEGEN--\":1451:1454   */\n      dup2\n        /* \"--CODEGEN--\":1438:1455   */\n      calldataload\n        /* \"--CODEGEN--\":1430:1436   */\n      dup7\n        /* \"--CODEGEN--\":1426:1456   */\n      add\n        /* \"--CODEGEN--\":1475:1518   */\n      tag_175\n        /* \"--CODEGEN--\":1514:1517   */\n      dup9\n        /* \"--CODEGEN--\":1502:1512   */\n      dup3\n        /* \"--CODEGEN--\":1475:1518   */\n      jump(tag_176)\n    tag_175:\n        /* \"--CODEGEN--\":1470:1473   */\n      dup5\n        /* \"--CODEGEN--\":1463:1519   */\n      mstore\n        /* \"--CODEGEN--\":1542:1546   */\n      0x20\n        /* \"--CODEGEN--\":1537:1540   */\n      dup5\n        /* \"--CODEGEN--\":1533:1547   */\n      add\n        /* \"--CODEGEN--\":1526:1547   */\n      swap4\n      pop\n        /* \"--CODEGEN--\":1570:1574   */\n      0x20\n        /* \"--CODEGEN--\":1565:1568   */\n      dup4\n        /* \"--CODEGEN--\":1561:1575   */\n      add\n        /* \"--CODEGEN--\":1554:1575   */\n      swap3\n      pop\n        /* \"--CODEGEN--\":1400:1582   */\n      pop\n        /* \"--CODEGEN--\":1390:1391   */\n      0x01\n        /* \"--CODEGEN--\":1387:1388   */\n      dup2\n        /* \"--CODEGEN--\":1383:1392   */\n      add\n        /* \"--CODEGEN--\":1378:1392   */\n      swap1\n      pop\n        /* \"--CODEGEN--\":1343:1582   */\n      jump(tag_172)\n    tag_174:\n        /* \"--CODEGEN--\":1347:1361   */\n      pop\n        /* \"--CODEGEN--\":975:1588   */\n      pop\n      pop\n      pop\n      swap3\n      swap2\n      pop\n      pop\n      jump\n        /* \"--CODEGEN--\":1612:2313   */\n    tag_177:\n      0x00\n        /* \"--CODEGEN--\":1727:1730   */\n      dup3\n        /* \"--CODEGEN--\":1720:1724   */\n      0x1f\n        /* \"--CODEGEN--\":1712:1718   */\n      dup4\n        /* \"--CODEGEN--\":1708:1725   */\n      add\n        /* \"--CODEGEN--\":1704:1731   */\n      slt\n        /* \"--CODEGEN--\":1694:1696   */\n      tag_178\n      jumpi\n        /* \"--CODEGEN--\":1745:1746   */\n      0x00\n        /* \"--CODEGEN--\":1742:1743   */\n      dup1\n        /* \"--CODEGEN--\":1735:1747   */\n      revert\n        /* \"--CODEGEN--\":1694:1696   */\n    tag_178:\n        /* \"--CODEGEN--\":1782:1788   */\n      dup2\n        /* \"--CODEGEN--\":1769:1789   */\n      calldataload\n        /* \"--CODEGEN--\":1804:1882   */\n      tag_179\n        /* \"--CODEGEN--\":1819:1881   */\n      tag_180\n        /* \"--CODEGEN--\":1874:1880   */\n      dup3\n        /* \"--CODEGEN--\":1819:1881   */\n      jump(tag_181)\n    tag_180:\n        /* \"--CODEGEN--\":1804:1882   */\n      jump(tag_161)\n    tag_179:\n        /* \"--CODEGEN--\":1795:1882   */\n      swap2\n      pop\n        /* \"--CODEGEN--\":1899:1904   */\n      dup2\n        /* \"--CODEGEN--\":1924:1930   */\n      dup2\n        /* \"--CODEGEN--\":1917:1922   */\n      dup4\n        /* \"--CODEGEN--\":1910:1931   */\n      mstore\n        /* \"--CODEGEN--\":1954:1958   */\n      0x20\n        /* \"--CODEGEN--\":1946:1952   */\n      dup5\n        /* \"--CODEGEN--\":1942:1959   */\n      add\n        /* \"--CODEGEN--\":1932:1959   */\n      swap4\n      pop\n        /* \"--CODEGEN--\":1976:1980   */\n      0x20\n        /* \"--CODEGEN--\":1971:1974   */\n      dup2\n        /* \"--CODEGEN--\":1967:1981   */\n      add\n        /* \"--CODEGEN--\":1960:1981   */\n      swap1\n      pop\n        /* \"--CODEGEN--\":2029:2035   */\n      dup4\n        /* \"--CODEGEN--\":2076:2079   */\n      dup6\n        /* \"--CODEGEN--\":2068:2072   */\n      0x20\n        /* \"--CODEGEN--\":2060:2066   */\n      dup5\n        /* \"--CODEGEN--\":2056:2073   */\n      mul\n        /* \"--CODEGEN--\":2051:2054   */\n      dup3\n        /* \"--CODEGEN--\":2047:2074   */\n      add\n        /* \"--CODEGEN--\":2044:2080   */\n      gt\n        /* \"--CODEGEN--\":2041:2043   */\n      iszero\n      tag_182\n      jumpi\n        /* \"--CODEGEN--\":2093:2094   */\n      0x00\n        /* \"--CODEGEN--\":2090:2091   */\n      dup1\n        /* \"--CODEGEN--\":2083:2095   */\n      revert\n        /* \"--CODEGEN--\":2041:2043   */\n    tag_182:\n        /* \"--CODEGEN--\":2118:2119   */\n      0x00\n        /* \"--CODEGEN--\":2103:2307   */\n    tag_183:\n        /* \"--CODEGEN--\":2128:2134   */\n      dup4\n        /* \"--CODEGEN--\":2125:2126   */\n      dup2\n        /* \"--CODEGEN--\":2122:2135   */\n      lt\n        /* \"--CODEGEN--\":2103:2307   */\n      iszero\n      tag_185\n      jumpi\n        /* \"--CODEGEN--\":2186:2189   */\n      dup2\n        /* \"--CODEGEN--\":2208:2243   */\n      tag_186\n        /* \"--CODEGEN--\":2239:2242   */\n      dup9\n        /* \"--CODEGEN--\":2227:2237   */\n      dup3\n        /* \"--CODEGEN--\":2208:2243   */\n      jump(tag_187)\n    tag_186:\n        /* \"--CODEGEN--\":2203:2206   */\n      dup5\n        /* \"--CODEGEN--\":2196:2244   */\n      mstore\n        /* \"--CODEGEN--\":2267:2271   */\n      0x20\n        /* \"--CODEGEN--\":2262:2265   */\n      dup5\n        /* \"--CODEGEN--\":2258:2272   */\n      add\n        /* \"--CODEGEN--\":2251:2272   */\n      swap4\n      pop\n        /* \"--CODEGEN--\":2295:2299   */\n      0x20\n        /* \"--CODEGEN--\":2290:2293   */\n      dup4\n        /* \"--CODEGEN--\":2286:2300   */\n      add\n        /* \"--CODEGEN--\":2279:2300   */\n      swap3\n      pop\n        /* \"--CODEGEN--\":2160:2307   */\n      pop\n        /* \"--CODEGEN--\":2150:2151   */\n      0x01\n        /* \"--CODEGEN--\":2147:2148   */\n      dup2\n        /* \"--CODEGEN--\":2143:2152   */\n      add\n        /* \"--CODEGEN--\":2138:2152   */\n      swap1\n      pop\n        /* \"--CODEGEN--\":2103:2307   */\n      jump(tag_183)\n    tag_185:\n        /* \"--CODEGEN--\":2107:2121   */\n      pop\n        /* \"--CODEGEN--\":1687:2313   */\n      pop\n      pop\n      pop\n      swap3\n      swap2\n      pop\n      pop\n      jump\n        /* \"--CODEGEN--\":2322:2756   */\n    tag_176:\n      0x00\n        /* \"--CODEGEN--\":2420:2423   */\n      dup3\n        /* \"--CODEGEN--\":2413:2417   */\n      0x1f\n        /* \"--CODEGEN--\":2405:2411   */\n      dup4\n        /* \"--CODEGEN--\":2401:2418   */\n      add\n        /* \"--CODEGEN--\":2397:2424   */\n      slt\n        /* \"--CODEGEN--\":2387:2389   */\n      tag_188\n      jumpi\n        /* \"--CODEGEN--\":2438:2439   */\n      0x00\n        /* \"--CODEGEN--\":2435:2436   */\n      dup1\n        /* \"--CODEGEN--\":2428:2440   */\n      revert\n        /* \"--CODEGEN--\":2387:2389   */\n    tag_188:\n        /* \"--CODEGEN--\":2475:2481   */\n      dup2\n        /* \"--CODEGEN--\":2462:2482   */\n      calldataload\n        /* \"--CODEGEN--\":2497:2558   */\n      tag_189\n        /* \"--CODEGEN--\":2512:2557   */\n      tag_190\n        /* \"--CODEGEN--\":2550:2556   */\n      dup3\n        /* \"--CODEGEN--\":2512:2557   */\n      jump(tag_191)\n    tag_190:\n        /* \"--CODEGEN--\":2497:2558   */\n      jump(tag_161)\n    tag_189:\n        /* \"--CODEGEN--\":2488:2558   */\n      swap2\n      pop\n        /* \"--CODEGEN--\":2578:2584   */\n      dup1\n        /* \"--CODEGEN--\":2571:2576   */\n      dup3\n        /* \"--CODEGEN--\":2564:2585   */\n      mstore\n        /* \"--CODEGEN--\":2614:2618   */\n      0x20\n        /* \"--CODEGEN--\":2606:2612   */\n      dup4\n        /* \"--CODEGEN--\":2602:2619   */\n      add\n        /* \"--CODEGEN--\":2647:2651   */\n      0x20\n        /* \"--CODEGEN--\":2640:2645   */\n      dup4\n        /* \"--CODEGEN--\":2636:2652   */\n      add\n        /* \"--CODEGEN--\":2682:2685   */\n      dup6\n        /* \"--CODEGEN--\":2673:2679   */\n      dup4\n        /* \"--CODEGEN--\":2668:2671   */\n      dup4\n        /* \"--CODEGEN--\":2664:2680   */\n      add\n        /* \"--CODEGEN--\":2661:2686   */\n      gt\n        /* \"--CODEGEN--\":2658:2660   */\n      iszero\n      tag_192\n      jumpi\n        /* \"--CODEGEN--\":2699:2700   */\n      0x00\n        /* \"--CODEGEN--\":2696:2697   */\n      dup1\n        /* \"--CODEGEN--\":2689:2701   */\n      revert\n        /* \"--CODEGEN--\":2658:2660   */\n    tag_192:\n        /* \"--CODEGEN--\":2709:2750   */\n      tag_193\n        /* \"--CODEGEN--\":2743:2749   */\n      dup4\n        /* \"--CODEGEN--\":2738:2741   */\n      dup3\n        /* \"--CODEGEN--\":2733:2736   */\n      dup5\n        /* \"--CODEGEN--\":2709:2750   */\n      jump(tag_194)\n    tag_193:\n        /* \"--CODEGEN--\":2380:2756   */\n      pop\n      pop\n      pop\n      swap3\n      swap2\n      pop\n      pop\n      jump\n        /* \"--CODEGEN--\":2765:3207   */\n    tag_195:\n      0x00\n        /* \"--CODEGEN--\":2867:2870   */\n      dup3\n        /* \"--CODEGEN--\":2860:2864   */\n      0x1f\n        /* \"--CODEGEN--\":2852:2858   */\n      dup4\n        /* \"--CODEGEN--\":2848:2865   */\n      add\n        /* \"--CODEGEN--\":2844:2871   */\n      slt\n        /* \"--CODEGEN--\":2834:2836   */\n      tag_196\n      jumpi\n        /* \"--CODEGEN--\":2885:2886   */\n      0x00\n        /* \"--CODEGEN--\":2882:2883   */\n      dup1\n        /* \"--CODEGEN--\":2875:2887   */\n      revert\n        /* \"--CODEGEN--\":2834:2836   */\n    tag_196:\n        /* \"--CODEGEN--\":2922:2928   */\n      dup2\n        /* \"--CODEGEN--\":2909:2929   */\n      calldataload\n        /* \"--CODEGEN--\":2944:3009   */\n      tag_197\n        /* \"--CODEGEN--\":2959:3008   */\n      tag_198\n        /* \"--CODEGEN--\":3001:3007   */\n      dup3\n        /* \"--CODEGEN--\":2959:3008   */\n      jump(tag_199)\n    tag_198:\n        /* \"--CODEGEN--\":2944:3009   */\n      jump(tag_161)\n    tag_197:\n        /* \"--CODEGEN--\":2935:3009   */\n      swap2\n      pop\n        /* \"--CODEGEN--\":3029:3035   */\n      dup1\n        /* \"--CODEGEN--\":3022:3027   */\n      dup3\n        /* \"--CODEGEN--\":3015:3036   */\n      mstore\n        /* \"--CODEGEN--\":3065:3069   */\n      0x20\n        /* \"--CODEGEN--\":3057:3063   */\n      dup4\n        /* \"--CODEGEN--\":3053:3070   */\n      add\n        /* \"--CODEGEN--\":3098:3102   */\n      0x20\n        /* \"--CODEGEN--\":3091:3096   */\n      dup4\n        /* \"--CODEGEN--\":3087:3103   */\n      add\n        /* \"--CODEGEN--\":3133:3136   */\n      dup6\n        /* \"--CODEGEN--\":3124:3130   */\n      dup4\n        /* \"--CODEGEN--\":3119:3122   */\n      dup4\n        /* \"--CODEGEN--\":3115:3131   */\n      add\n        /* \"--CODEGEN--\":3112:3137   */\n      gt\n        /* \"--CODEGEN--\":3109:3111   */\n      iszero\n      tag_200\n      jumpi\n        /* \"--CODEGEN--\":3150:3151   */\n      0x00\n        /* \"--CODEGEN--\":3147:3148   */\n      dup1\n        /* \"--CODEGEN--\":3140:3152   */\n      revert\n        /* \"--CODEGEN--\":3109:3111   */\n    tag_200:\n        /* \"--CODEGEN--\":3160:3201   */\n      tag_201\n        /* \"--CODEGEN--\":3194:3200   */\n      dup4\n        /* \"--CODEGEN--\":3189:3192   */\n      dup3\n        /* \"--CODEGEN--\":3184:3187   */\n      dup5\n        /* \"--CODEGEN--\":3160:3201   */\n      jump(tag_194)\n    tag_201:\n        /* \"--CODEGEN--\":2827:3207   */\n      pop\n      pop\n      pop\n      swap3\n      swap2\n      pop\n      pop\n      jump\n        /* \"--CODEGEN--\":3215:3345   */\n    tag_202:\n      0x00\n        /* \"--CODEGEN--\":3295:3301   */\n      dup2\n        /* \"--CODEGEN--\":3282:3302   */\n      calldataload\n        /* \"--CODEGEN--\":3273:3302   */\n      swap1\n      pop\n        /* \"--CODEGEN--\":3307:3340   */\n      tag_203\n        /* \"--CODEGEN--\":3334:3339   */\n      dup2\n        /* \"--CODEGEN--\":3307:3340   */\n      jump(tag_204)\n    tag_203:\n        /* \"--CODEGEN--\":3267:3345   */\n      swap3\n      swap2\n      pop\n      pop\n      jump\n        /* \"--CODEGEN--\":3352:3480   */\n    tag_205:\n      0x00\n        /* \"--CODEGEN--\":3431:3437   */\n      dup2\n        /* \"--CODEGEN--\":3418:3438   */\n      calldataload\n        /* \"--CODEGEN--\":3409:3438   */\n      swap1\n      pop\n        /* \"--CODEGEN--\":3443:3475   */\n      tag_206\n        /* \"--CODEGEN--\":3469:3474   */\n      dup2\n        /* \"--CODEGEN--\":3443:3475   */\n      jump(tag_207)\n    tag_206:\n        /* \"--CODEGEN--\":3403:3480   */\n      swap3\n      swap2\n      pop\n      pop\n      jump\n        /* \"--CODEGEN--\":3487:3613   */\n    tag_187:\n      0x00\n        /* \"--CODEGEN--\":3565:3571   */\n      dup2\n        /* \"--CODEGEN--\":3552:3572   */\n      calldataload\n        /* \"--CODEGEN--\":3543:3572   */\n      swap1\n      pop\n        /* \"--CODEGEN--\":3577:3608   */\n      tag_208\n        /* \"--CODEGEN--\":3602:3607   */\n      dup2\n        /* \"--CODEGEN--\":3577:3608   */\n      jump(tag_209)\n    tag_208:\n        /* \"--CODEGEN--\":3537:3613   */\n      swap3\n      swap2\n      pop\n      pop\n      jump\n        /* \"--CODEGEN--\":3620:3967   */\n    tag_30:\n      0x00\n        /* \"--CODEGEN--\":3734:3736   */\n      0x20\n        /* \"--CODEGEN--\":3722:3731   */\n      dup3\n        /* \"--CODEGEN--\":3713:3720   */\n      dup5\n        /* \"--CODEGEN--\":3709:3732   */\n      sub\n        /* \"--CODEGEN--\":3705:3737   */\n      slt\n        /* \"--CODEGEN--\":3702:3704   */\n      iszero\n      tag_210\n      jumpi\n        /* \"--CODEGEN--\":3750:3751   */\n      0x00\n        /* \"--CODEGEN--\":3747:3748   */\n      dup1\n        /* \"--CODEGEN--\":3740:3752   */\n      revert\n        /* \"--CODEGEN--\":3702:3704   */\n    tag_210:\n        /* \"--CODEGEN--\":3813:3814   */\n      0x00\n        /* \"--CODEGEN--\":3802:3811   */\n      dup3\n        /* \"--CODEGEN--\":3798:3815   */\n      add\n        /* \"--CODEGEN--\":3785:3816   */\n      calldataload\n        /* \"--CODEGEN--\":3836:3854   */\n      0xffffffffffffffff\n        /* \"--CODEGEN--\":3828:3834   */\n      dup2\n        /* \"--CODEGEN--\":3825:3855   */\n      gt\n        /* \"--CODEGEN--\":3822:3824   */\n      iszero\n      tag_211\n      jumpi\n        /* \"--CODEGEN--\":3868:3869   */\n      0x00\n        /* \"--CODEGEN--\":3865:3866   */\n      dup1\n        /* \"--CODEGEN--\":3858:3870   */\n      revert\n        /* \"--CODEGEN--\":3822:3824   */\n    tag_211:\n        /* \"--CODEGEN--\":3888:3951   */\n      tag_212\n        /* \"--CODEGEN--\":3943:3950   */\n      dup5\n        /* \"--CODEGEN--\":3934:3940   */\n      dup3\n        /* \"--CODEGEN--\":3923:3932   */\n      dup6\n        /* \"--CODEGEN--\":3919:3941   */\n      add\n        /* \"--CODEGEN--\":3888:3951   */\n      jump(tag_195)\n    tag_212:\n        /* \"--CODEGEN--\":3878:3951   */\n      swap2\n      pop\n        /* \"--CODEGEN--\":3764:3957   */\n      pop\n        /* \"--CODEGEN--\":3696:3967   */\n      swap3\n      swap2\n      pop\n      pop\n      jump\n        /* \"--CODEGEN--\":3974:5471   */\n    tag_48:\n      0x00\n      dup1\n      0x00\n      dup1\n      0x00\n      dup1\n        /* \"--CODEGEN--\":4262:4265   */\n      0xc0\n        /* \"--CODEGEN--\":4250:4259   */\n      dup8\n        /* \"--CODEGEN--\":4241:4248   */\n      dup10\n        /* \"--CODEGEN--\":4237:4260   */\n      sub\n        /* \"--CODEGEN--\":4233:4266   */\n      slt\n        /* \"--CODEGEN--\":4230:4232   */\n      iszero\n      tag_213\n      jumpi\n        /* \"--CODEGEN--\":4279:4280   */\n      0x00\n        /* \"--CODEGEN--\":4276:4277   */\n      dup1\n        /* \"--CODEGEN--\":4269:4281   */\n      revert\n        /* \"--CODEGEN--\":4230:4232   */\n    tag_213:\n        /* \"--CODEGEN--\":4342:4343   */\n      0x00\n        /* \"--CODEGEN--\":4331:4340   */\n      dup8\n        /* \"--CODEGEN--\":4327:4344   */\n      add\n        /* \"--CODEGEN--\":4314:4345   */\n      calldataload\n        /* \"--CODEGEN--\":4365:4383   */\n      0xffffffffffffffff\n        /* \"--CODEGEN--\":4357:4363   */\n      dup2\n        /* \"--CODEGEN--\":4354:4384   */\n      gt\n        /* \"--CODEGEN--\":4351:4353   */\n      iszero\n      tag_214\n      jumpi\n        /* \"--CODEGEN--\":4397:4398   */\n      0x00\n        /* \"--CODEGEN--\":4394:4395   */\n      dup1\n        /* \"--CODEGEN--\":4387:4399   */\n      revert\n        /* \"--CODEGEN--\":4351:4353   */\n    tag_214:\n        /* \"--CODEGEN--\":4417:4480   */\n      tag_215\n        /* \"--CODEGEN--\":4472:4479   */\n      dup10\n        /* \"--CODEGEN--\":4463:4469   */\n      dup3\n        /* \"--CODEGEN--\":4452:4461   */\n      dup11\n        /* \"--CODEGEN--\":4448:4470   */\n      add\n        /* \"--CODEGEN--\":4417:4480   */\n      jump(tag_195)\n    tag_215:\n        /* \"--CODEGEN--\":4407:4480   */\n      swap7\n      pop\n        /* \"--CODEGEN--\":4293:4486   */\n      pop\n        /* \"--CODEGEN--\":4545:4547   */\n      0x20\n        /* \"--CODEGEN--\":4534:4543   */\n      dup8\n        /* \"--CODEGEN--\":4530:4548   */\n      add\n        /* \"--CODEGEN--\":4517:4549   */\n      calldataload\n        /* \"--CODEGEN--\":4569:4587   */\n      0xffffffffffffffff\n        /* \"--CODEGEN--\":4561:4567   */\n      dup2\n        /* \"--CODEGEN--\":4558:4588   */\n      gt\n        /* \"--CODEGEN--\":4555:4557   */\n      iszero\n      tag_216\n      jumpi\n        /* \"--CODEGEN--\":4601:4602   */\n      0x00\n        /* \"--CODEGEN--\":4598:4599   */\n      dup1\n        /* \"--CODEGEN--\":4591:4603   */\n      revert\n        /* \"--CODEGEN--\":4555:4557   */\n    tag_216:\n        /* \"--CODEGEN--\":4621:4684   */\n      tag_217\n        /* \"--CODEGEN--\":4676:4683   */\n      dup10\n        /* \"--CODEGEN--\":4667:4673   */\n      dup3\n        /* \"--CODEGEN--\":4656:4665   */\n      dup11\n        /* \"--CODEGEN--\":4652:4674   */\n      add\n        /* \"--CODEGEN--\":4621:4684   */\n      jump(tag_195)\n    tag_217:\n        /* \"--CODEGEN--\":4611:4684   */\n      swap6\n      pop\n        /* \"--CODEGEN--\":4496:4690   */\n      pop\n        /* \"--CODEGEN--\":4749:4751   */\n      0x40\n        /* \"--CODEGEN--\":4738:4747   */\n      dup8\n        /* \"--CODEGEN--\":4734:4752   */\n      add\n        /* \"--CODEGEN--\":4721:4753   */\n      calldataload\n        /* \"--CODEGEN--\":4773:4791   */\n      0xffffffffffffffff\n        /* \"--CODEGEN--\":4765:4771   */\n      dup2\n        /* \"--CODEGEN--\":4762:4792   */\n      gt\n        /* \"--CODEGEN--\":4759:4761   */\n      iszero\n      tag_218\n      jumpi\n        /* \"--CODEGEN--\":4805:4806   */\n      0x00\n        /* \"--CODEGEN--\":4802:4803   */\n      dup1\n        /* \"--CODEGEN--\":4795:4807   */\n      revert\n        /* \"--CODEGEN--\":4759:4761   */\n    tag_218:\n        /* \"--CODEGEN--\":4825:4909   */\n      tag_219\n        /* \"--CODEGEN--\":4901:4908   */\n      dup10\n        /* \"--CODEGEN--\":4892:4898   */\n      dup3\n        /* \"--CODEGEN--\":4881:4890   */\n      dup11\n        /* \"--CODEGEN--\":4877:4899   */\n      add\n        /* \"--CODEGEN--\":4825:4909   */\n      jump(tag_167)\n    tag_219:\n        /* \"--CODEGEN--\":4815:4909   */\n      swap5\n      pop\n        /* \"--CODEGEN--\":4700:4915   */\n      pop\n        /* \"--CODEGEN--\":4974:4976   */\n      0x60\n        /* \"--CODEGEN--\":4963:4972   */\n      dup8\n        /* \"--CODEGEN--\":4959:4977   */\n      add\n        /* \"--CODEGEN--\":4946:4978   */\n      calldataload\n        /* \"--CODEGEN--\":4998:5016   */\n      0xffffffffffffffff\n        /* \"--CODEGEN--\":4990:4996   */\n      dup2\n        /* \"--CODEGEN--\":4987:5017   */\n      gt\n        /* \"--CODEGEN--\":4984:4986   */\n      iszero\n      tag_220\n      jumpi\n        /* \"--CODEGEN--\":5030:5031   */\n      0x00\n        /* \"--CODEGEN--\":5027:5028   */\n      dup1\n        /* \"--CODEGEN--\":5020:5032   */\n      revert\n        /* \"--CODEGEN--\":4984:4986   */\n    tag_220:\n        /* \"--CODEGEN--\":5050:5128   */\n      tag_221\n        /* \"--CODEGEN--\":5120:5127   */\n      dup10\n        /* \"--CODEGEN--\":5111:5117   */\n      dup3\n        /* \"--CODEGEN--\":5100:5109   */\n      dup11\n        /* \"--CODEGEN--\":5096:5118   */\n      add\n        /* \"--CODEGEN--\":5050:5128   */\n      jump(tag_156)\n    tag_221:\n        /* \"--CODEGEN--\":5040:5128   */\n      swap4\n      pop\n        /* \"--CODEGEN--\":4925:5134   */\n      pop\n        /* \"--CODEGEN--\":5193:5196   */\n      0x80\n        /* \"--CODEGEN--\":5182:5191   */\n      dup8\n        /* \"--CODEGEN--\":5178:5197   */\n      add\n        /* \"--CODEGEN--\":5165:5198   */\n      calldataload\n        /* \"--CODEGEN--\":5218:5236   */\n      0xffffffffffffffff\n        /* \"--CODEGEN--\":5210:5216   */\n      dup2\n        /* \"--CODEGEN--\":5207:5237   */\n      gt\n        /* \"--CODEGEN--\":5204:5206   */\n      iszero\n      tag_222\n      jumpi\n        /* \"--CODEGEN--\":5250:5251   */\n      0x00\n        /* \"--CODEGEN--\":5247:5248   */\n      dup1\n        /* \"--CODEGEN--\":5240:5252   */\n      revert\n        /* \"--CODEGEN--\":5204:5206   */\n    tag_222:\n        /* \"--CODEGEN--\":5270:5346   */\n      tag_223\n        /* \"--CODEGEN--\":5338:5345   */\n      dup10\n        /* \"--CODEGEN--\":5329:5335   */\n      dup3\n        /* \"--CODEGEN--\":5318:5327   */\n      dup11\n        /* \"--CODEGEN--\":5314:5336   */\n      add\n        /* \"--CODEGEN--\":5270:5346   */\n      jump(tag_177)\n    tag_223:\n        /* \"--CODEGEN--\":5260:5346   */\n      swap3\n      pop\n        /* \"--CODEGEN--\":5144:5352   */\n      pop\n        /* \"--CODEGEN--\":5383:5386   */\n      0xa0\n        /* \"--CODEGEN--\":5402:5455   */\n      tag_224\n        /* \"--CODEGEN--\":5447:5454   */\n      dup10\n        /* \"--CODEGEN--\":5438:5444   */\n      dup3\n        /* \"--CODEGEN--\":5427:5436   */\n      dup11\n        /* \"--CODEGEN--\":5423:5445   */\n      add\n        /* \"--CODEGEN--\":5402:5455   */\n      jump(tag_202)\n    tag_224:\n        /* \"--CODEGEN--\":5392:5455   */\n      swap2\n      pop\n        /* \"--CODEGEN--\":5362:5461   */\n      pop\n        /* \"--CODEGEN--\":4224:5471   */\n      swap3\n      swap6\n      pop\n      swap3\n      swap6\n      pop\n      swap3\n      swap6\n      jump\n        /* \"--CODEGEN--\":5478:5950   */\n    tag_36:\n      0x00\n      dup1\n        /* \"--CODEGEN--\":5609:5611   */\n      0x40\n        /* \"--CODEGEN--\":5597:5606   */\n      dup4\n        /* \"--CODEGEN--\":5588:5595   */\n      dup6\n        /* \"--CODEGEN--\":5584:5607   */\n      sub\n        /* \"--CODEGEN--\":5580:5612   */\n      slt\n        /* \"--CODEGEN--\":5577:5579   */\n      iszero\n      tag_225\n      jumpi\n        /* \"--CODEGEN--\":5625:5626   */\n      0x00\n        /* \"--CODEGEN--\":5622:5623   */\n      dup1\n        /* \"--CODEGEN--\":5615:5627   */\n      revert\n        /* \"--CODEGEN--\":5577:5579   */\n    tag_225:\n        /* \"--CODEGEN--\":5688:5689   */\n      0x00\n        /* \"--CODEGEN--\":5677:5686   */\n      dup4\n        /* \"--CODEGEN--\":5673:5690   */\n      add\n        /* \"--CODEGEN--\":5660:5691   */\n      calldataload\n        /* \"--CODEGEN--\":5711:5729   */\n      0xffffffffffffffff\n        /* \"--CODEGEN--\":5703:5709   */\n      dup2\n        /* \"--CODEGEN--\":5700:5730   */\n      gt\n        /* \"--CODEGEN--\":5697:5699   */\n      iszero\n      tag_226\n      jumpi\n        /* \"--CODEGEN--\":5743:5744   */\n      0x00\n        /* \"--CODEGEN--\":5740:5741   */\n      dup1\n        /* \"--CODEGEN--\":5733:5745   */\n      revert\n        /* \"--CODEGEN--\":5697:5699   */\n    tag_226:\n        /* \"--CODEGEN--\":5763:5826   */\n      tag_227\n        /* \"--CODEGEN--\":5818:5825   */\n      dup6\n        /* \"--CODEGEN--\":5809:5815   */\n      dup3\n        /* \"--CODEGEN--\":5798:5807   */\n      dup7\n        /* \"--CODEGEN--\":5794:5816   */\n      add\n        /* \"--CODEGEN--\":5763:5826   */\n      jump(tag_195)\n    tag_227:\n        /* \"--CODEGEN--\":5753:5826   */\n      swap3\n      pop\n        /* \"--CODEGEN--\":5639:5832   */\n      pop\n        /* \"--CODEGEN--\":5863:5865   */\n      0x20\n        /* \"--CODEGEN--\":5881:5934   */\n      tag_228\n        /* \"--CODEGEN--\":5926:5933   */\n      dup6\n        /* \"--CODEGEN--\":5917:5923   */\n      dup3\n        /* \"--CODEGEN--\":5906:5915   */\n      dup7\n        /* \"--CODEGEN--\":5902:5924   */\n      add\n        /* \"--CODEGEN--\":5881:5934   */\n      jump(tag_202)\n    tag_228:\n        /* \"--CODEGEN--\":5871:5934   */\n      swap2\n      pop\n        /* \"--CODEGEN--\":5842:5940   */\n      pop\n        /* \"--CODEGEN--\":5571:5950   */\n      swap3\n      pop\n      swap3\n      swap1\n      pop\n      jump\n        /* \"--CODEGEN--\":5957:6660   */\n    tag_19:\n      0x00\n      dup1\n      0x00\n        /* \"--CODEGEN--\":6115:6117   */\n      0x60\n        /* \"--CODEGEN--\":6103:6112   */\n      dup5\n        /* \"--CODEGEN--\":6094:6101   */\n      dup7\n        /* \"--CODEGEN--\":6090:6113   */\n      sub\n        /* \"--CODEGEN--\":6086:6118   */\n      slt\n        /* \"--CODEGEN--\":6083:6085   */\n      iszero\n      tag_229\n      jumpi\n        /* \"--CODEGEN--\":6131:6132   */\n      0x00\n        /* \"--CODEGEN--\":6128:6129   */\n      dup1\n        /* \"--CODEGEN--\":6121:6133   */\n      revert\n        /* \"--CODEGEN--\":6083:6085   */\n    tag_229:\n        /* \"--CODEGEN--\":6194:6195   */\n      0x00\n        /* \"--CODEGEN--\":6183:6192   */\n      dup5\n        /* \"--CODEGEN--\":6179:6196   */\n      add\n        /* \"--CODEGEN--\":6166:6197   */\n      calldataload\n        /* \"--CODEGEN--\":6217:6235   */\n      0xffffffffffffffff\n        /* \"--CODEGEN--\":6209:6215   */\n      dup2\n        /* \"--CODEGEN--\":6206:6236   */\n      gt\n        /* \"--CODEGEN--\":6203:6205   */\n      iszero\n      tag_230\n      jumpi\n        /* \"--CODEGEN--\":6249:6250   */\n      0x00\n        /* \"--CODEGEN--\":6246:6247   */\n      dup1\n        /* \"--CODEGEN--\":6239:6251   */\n      revert\n        /* \"--CODEGEN--\":6203:6205   */\n    tag_230:\n        /* \"--CODEGEN--\":6269:6332   */\n      tag_231\n        /* \"--CODEGEN--\":6324:6331   */\n      dup7\n        /* \"--CODEGEN--\":6315:6321   */\n      dup3\n        /* \"--CODEGEN--\":6304:6313   */\n      dup8\n        /* \"--CODEGEN--\":6300:6322   */\n      add\n        /* \"--CODEGEN--\":6269:6332   */\n      jump(tag_195)\n    tag_231:\n        /* \"--CODEGEN--\":6259:6332   */\n      swap4\n      pop\n        /* \"--CODEGEN--\":6145:6338   */\n      pop\n        /* \"--CODEGEN--\":6369:6371   */\n      0x20\n        /* \"--CODEGEN--\":6387:6440   */\n      tag_232\n        /* \"--CODEGEN--\":6432:6439   */\n      dup7\n        /* \"--CODEGEN--\":6423:6429   */\n      dup3\n        /* \"--CODEGEN--\":6412:6421   */\n      dup8\n        /* \"--CODEGEN--\":6408:6430   */\n      add\n        /* \"--CODEGEN--\":6387:6440   */\n      jump(tag_202)\n    tag_232:\n        /* \"--CODEGEN--\":6377:6440   */\n      swap3\n      pop\n        /* \"--CODEGEN--\":6348:6446   */\n      pop\n        /* \"--CODEGEN--\":6505:6507   */\n      0x40\n        /* \"--CODEGEN--\":6494:6503   */\n      dup5\n        /* \"--CODEGEN--\":6490:6508   */\n      add\n        /* \"--CODEGEN--\":6477:6509   */\n      calldataload\n        /* \"--CODEGEN--\":6529:6547   */\n      0xffffffffffffffff\n        /* \"--CODEGEN--\":6521:6527   */\n      dup2\n        /* \"--CODEGEN--\":6518:6548   */\n      gt\n        /* \"--CODEGEN--\":6515:6517   */\n      iszero\n      tag_233\n      jumpi\n        /* \"--CODEGEN--\":6561:6562   */\n      0x00\n        /* \"--CODEGEN--\":6558:6559   */\n      dup1\n        /* \"--CODEGEN--\":6551:6563   */\n      revert\n        /* \"--CODEGEN--\":6515:6517   */\n    tag_233:\n        /* \"--CODEGEN--\":6581:6644   */\n      tag_234\n        /* \"--CODEGEN--\":6636:6643   */\n      dup7\n        /* \"--CODEGEN--\":6627:6633   */\n      dup3\n        /* \"--CODEGEN--\":6616:6625   */\n      dup8\n        /* \"--CODEGEN--\":6612:6634   */\n      add\n        /* \"--CODEGEN--\":6581:6644   */\n      jump(tag_195)\n    tag_234:\n        /* \"--CODEGEN--\":6571:6644   */\n      swap2\n      pop\n        /* \"--CODEGEN--\":6456:6650   */\n      pop\n        /* \"--CODEGEN--\":6077:6660   */\n      swap3\n      pop\n      swap3\n      pop\n      swap3\n      jump\n        /* \"--CODEGEN--\":6667:7496   */\n    tag_42:\n      0x00\n      dup1\n      0x00\n      dup1\n        /* \"--CODEGEN--\":6842:6845   */\n      0x80\n        /* \"--CODEGEN--\":6830:6839   */\n      dup6\n        /* \"--CODEGEN--\":6821:6828   */\n      dup8\n        /* \"--CODEGEN--\":6817:6840   */\n      sub\n        /* \"--CODEGEN--\":6813:6846   */\n      slt\n        /* \"--CODEGEN--\":6810:6812   */\n      iszero\n      tag_235\n      jumpi\n        /* \"--CODEGEN--\":6859:6860   */\n      0x00\n        /* \"--CODEGEN--\":6856:6857   */\n      dup1\n        /* \"--CODEGEN--\":6849:6861   */\n      revert\n        /* \"--CODEGEN--\":6810:6812   */\n    tag_235:\n        /* \"--CODEGEN--\":6922:6923   */\n      0x00\n        /* \"--CODEGEN--\":6911:6920   */\n      dup6\n        /* \"--CODEGEN--\":6907:6924   */\n      add\n        /* \"--CODEGEN--\":6894:6925   */\n      calldataload\n        /* \"--CODEGEN--\":6945:6963   */\n      0xffffffffffffffff\n        /* \"--CODEGEN--\":6937:6943   */\n      dup2\n        /* \"--CODEGEN--\":6934:6964   */\n      gt\n        /* \"--CODEGEN--\":6931:6933   */\n      iszero\n      tag_236\n      jumpi\n        /* \"--CODEGEN--\":6977:6978   */\n      0x00\n        /* \"--CODEGEN--\":6974:6975   */\n      dup1\n        /* \"--CODEGEN--\":6967:6979   */\n      revert\n        /* \"--CODEGEN--\":6931:6933   */\n    tag_236:\n        /* \"--CODEGEN--\":6997:7060   */\n      tag_237\n        /* \"--CODEGEN--\":7052:7059   */\n      dup8\n        /* \"--CODEGEN--\":7043:7049   */\n      dup3\n        /* \"--CODEGEN--\":7032:7041   */\n      dup9\n        /* \"--CODEGEN--\":7028:7050   */\n      add\n        /* \"--CODEGEN--\":6997:7060   */\n      jump(tag_195)\n    tag_237:\n        /* \"--CODEGEN--\":6987:7060   */\n      swap5\n      pop\n        /* \"--CODEGEN--\":6873:7066   */\n      pop\n        /* \"--CODEGEN--\":7097:7099   */\n      0x20\n        /* \"--CODEGEN--\":7115:7168   */\n      tag_238\n        /* \"--CODEGEN--\":7160:7167   */\n      dup8\n        /* \"--CODEGEN--\":7151:7157   */\n      dup3\n        /* \"--CODEGEN--\":7140:7149   */\n      dup9\n        /* \"--CODEGEN--\":7136:7158   */\n      add\n        /* \"--CODEGEN--\":7115:7168   */\n      jump(tag_202)\n    tag_238:\n        /* \"--CODEGEN--\":7105:7168   */\n      swap4\n      pop\n        /* \"--CODEGEN--\":7076:7174   */\n      pop\n        /* \"--CODEGEN--\":7233:7235   */\n      0x40\n        /* \"--CODEGEN--\":7222:7231   */\n      dup6\n        /* \"--CODEGEN--\":7218:7236   */\n      add\n        /* \"--CODEGEN--\":7205:7237   */\n      calldataload\n        /* \"--CODEGEN--\":7257:7275   */\n      0xffffffffffffffff\n        /* \"--CODEGEN--\":7249:7255   */\n      dup2\n        /* \"--CODEGEN--\":7246:7276   */\n      gt\n        /* \"--CODEGEN--\":7243:7245   */\n      iszero\n      tag_239\n      jumpi\n        /* \"--CODEGEN--\":7289:7290   */\n      0x00\n        /* \"--CODEGEN--\":7286:7287   */\n      dup1\n        /* \"--CODEGEN--\":7279:7291   */\n      revert\n        /* \"--CODEGEN--\":7243:7245   */\n    tag_239:\n        /* \"--CODEGEN--\":7309:7372   */\n      tag_240\n        /* \"--CODEGEN--\":7364:7371   */\n      dup8\n        /* \"--CODEGEN--\":7355:7361   */\n      dup3\n        /* \"--CODEGEN--\":7344:7353   */\n      dup9\n        /* \"--CODEGEN--\":7340:7362   */\n      add\n        /* \"--CODEGEN--\":7309:7372   */\n      jump(tag_195)\n    tag_240:\n        /* \"--CODEGEN--\":7299:7372   */\n      swap3\n      pop\n        /* \"--CODEGEN--\":7184:7378   */\n      pop\n        /* \"--CODEGEN--\":7409:7411   */\n      0x60\n        /* \"--CODEGEN--\":7427:7480   */\n      tag_241\n        /* \"--CODEGEN--\":7472:7479   */\n      dup8\n        /* \"--CODEGEN--\":7463:7469   */\n      dup3\n        /* \"--CODEGEN--\":7452:7461   */\n      dup9\n        /* \"--CODEGEN--\":7448:7470   */\n      add\n        /* \"--CODEGEN--\":7427:7480   */\n      jump(tag_153)\n    tag_241:\n        /* \"--CODEGEN--\":7417:7480   */\n      swap2\n      pop\n        /* \"--CODEGEN--\":7388:7486   */\n      pop\n        /* \"--CODEGEN--\":6804:7496   */\n      swap3\n      swap6\n      swap2\n      swap5\n      pop\n      swap3\n      pop\n      jump\n        /* \"--CODEGEN--\":7503:8454   */\n    tag_26:\n      0x00\n      dup1\n      0x00\n      dup1\n      0x00\n        /* \"--CODEGEN--\":7693:7696   */\n      0xa0\n        /* \"--CODEGEN--\":7681:7690   */\n      dup7\n        /* \"--CODEGEN--\":7672:7679   */\n      dup9\n        /* \"--CODEGEN--\":7668:7691   */\n      sub\n        /* \"--CODEGEN--\":7664:7697   */\n      slt\n        /* \"--CODEGEN--\":7661:7663   */\n      iszero\n      tag_242\n      jumpi\n        /* \"--CODEGEN--\":7710:7711   */\n      0x00\n        /* \"--CODEGEN--\":7707:7708   */\n      dup1\n        /* \"--CODEGEN--\":7700:7712   */\n      revert\n        /* \"--CODEGEN--\":7661:7663   */\n    tag_242:\n        /* \"--CODEGEN--\":7773:7774   */\n      0x00\n        /* \"--CODEGEN--\":7762:7771   */\n      dup7\n        /* \"--CODEGEN--\":7758:7775   */\n      add\n        /* \"--CODEGEN--\":7745:7776   */\n      calldataload\n        /* \"--CODEGEN--\":7796:7814   */\n      0xffffffffffffffff\n        /* \"--CODEGEN--\":7788:7794   */\n      dup2\n        /* \"--CODEGEN--\":7785:7815   */\n      gt\n        /* \"--CODEGEN--\":7782:7784   */\n      iszero\n      tag_243\n      jumpi\n        /* \"--CODEGEN--\":7828:7829   */\n      0x00\n        /* \"--CODEGEN--\":7825:7826   */\n      dup1\n        /* \"--CODEGEN--\":7818:7830   */\n      revert\n        /* \"--CODEGEN--\":7782:7784   */\n    tag_243:\n        /* \"--CODEGEN--\":7848:7911   */\n      tag_244\n        /* \"--CODEGEN--\":7903:7910   */\n      dup9\n        /* \"--CODEGEN--\":7894:7900   */\n      dup3\n        /* \"--CODEGEN--\":7883:7892   */\n      dup10\n        /* \"--CODEGEN--\":7879:7901   */\n      add\n        /* \"--CODEGEN--\":7848:7911   */\n      jump(tag_195)\n    tag_244:\n        /* \"--CODEGEN--\":7838:7911   */\n      swap6\n      pop\n        /* \"--CODEGEN--\":7724:7917   */\n      pop\n        /* \"--CODEGEN--\":7948:7950   */\n      0x20\n        /* \"--CODEGEN--\":7966:8019   */\n      tag_245\n        /* \"--CODEGEN--\":8011:8018   */\n      dup9\n        /* \"--CODEGEN--\":8002:8008   */\n      dup3\n        /* \"--CODEGEN--\":7991:8000   */\n      dup10\n        /* \"--CODEGEN--\":7987:8009   */\n      add\n        /* \"--CODEGEN--\":7966:8019   */\n      jump(tag_202)\n    tag_245:\n        /* \"--CODEGEN--\":7956:8019   */\n      swap5\n      pop\n        /* \"--CODEGEN--\":7927:8025   */\n      pop\n        /* \"--CODEGEN--\":8084:8086   */\n      0x40\n        /* \"--CODEGEN--\":8073:8082   */\n      dup7\n        /* \"--CODEGEN--\":8069:8087   */\n      add\n        /* \"--CODEGEN--\":8056:8088   */\n      calldataload\n        /* \"--CODEGEN--\":8108:8126   */\n      0xffffffffffffffff\n        /* \"--CODEGEN--\":8100:8106   */\n      dup2\n        /* \"--CODEGEN--\":8097:8127   */\n      gt\n        /* \"--CODEGEN--\":8094:8096   */\n      iszero\n      tag_246\n      jumpi\n        /* \"--CODEGEN--\":8140:8141   */\n      0x00\n        /* \"--CODEGEN--\":8137:8138   */\n      dup1\n        /* \"--CODEGEN--\":8130:8142   */\n      revert\n        /* \"--CODEGEN--\":8094:8096   */\n    tag_246:\n        /* \"--CODEGEN--\":8160:8223   */\n      tag_247\n        /* \"--CODEGEN--\":8215:8222   */\n      dup9\n        /* \"--CODEGEN--\":8206:8212   */\n      dup3\n        /* \"--CODEGEN--\":8195:8204   */\n      dup10\n        /* \"--CODEGEN--\":8191:8213   */\n      add\n        /* \"--CODEGEN--\":8160:8223   */\n      jump(tag_195)\n    tag_247:\n        /* \"--CODEGEN--\":8150:8223   */\n      swap4\n      pop\n        /* \"--CODEGEN--\":8035:8229   */\n      pop\n        /* \"--CODEGEN--\":8260:8262   */\n      0x60\n        /* \"--CODEGEN--\":8278:8331   */\n      tag_248\n        /* \"--CODEGEN--\":8323:8330   */\n      dup9\n        /* \"--CODEGEN--\":8314:8320   */\n      dup3\n        /* \"--CODEGEN--\":8303:8312   */\n      dup10\n        /* \"--CODEGEN--\":8299:8321   */\n      add\n        /* \"--CODEGEN--\":8278:8331   */\n      jump(tag_153)\n    tag_248:\n        /* \"--CODEGEN--\":8268:8331   */\n      swap3\n      pop\n        /* \"--CODEGEN--\":8239:8337   */\n      pop\n        /* \"--CODEGEN--\":8368:8371   */\n      0x80\n        /* \"--CODEGEN--\":8387:8438   */\n      tag_249\n        /* \"--CODEGEN--\":8430:8437   */\n      dup9\n        /* \"--CODEGEN--\":8421:8427   */\n      dup3\n        /* \"--CODEGEN--\":8410:8419   */\n      dup10\n        /* \"--CODEGEN--\":8406:8428   */\n      add\n        /* \"--CODEGEN--\":8387:8438   */\n      jump(tag_187)\n    tag_249:\n        /* \"--CODEGEN--\":8377:8438   */\n      swap2\n      pop\n        /* \"--CODEGEN--\":8347:8444   */\n      pop\n        /* \"--CODEGEN--\":7655:8454   */\n      swap3\n      swap6\n      pop\n      swap3\n      swap6\n      swap1\n      swap4\n      pop\n      jump\n        /* \"--CODEGEN--\":8461:9288   */\n    tag_15:\n      0x00\n      dup1\n      0x00\n      dup1\n        /* \"--CODEGEN--\":8635:8638   */\n      0x80\n        /* \"--CODEGEN--\":8623:8632   */\n      dup6\n        /* \"--CODEGEN--\":8614:8621   */\n      dup8\n        /* \"--CODEGEN--\":8610:8633   */\n      sub\n        /* \"--CODEGEN--\":8606:8639   */\n      slt\n        /* \"--CODEGEN--\":8603:8605   */\n      iszero\n      tag_250\n      jumpi\n        /* \"--CODEGEN--\":8652:8653   */\n      0x00\n        /* \"--CODEGEN--\":8649:8650   */\n      dup1\n        /* \"--CODEGEN--\":8642:8654   */\n      revert\n        /* \"--CODEGEN--\":8603:8605   */\n    tag_250:\n        /* \"--CODEGEN--\":8715:8716   */\n      0x00\n        /* \"--CODEGEN--\":8704:8713   */\n      dup6\n        /* \"--CODEGEN--\":8700:8717   */\n      add\n        /* \"--CODEGEN--\":8687:8718   */\n      calldataload\n        /* \"--CODEGEN--\":8738:8756   */\n      0xffffffffffffffff\n        /* \"--CODEGEN--\":8730:8736   */\n      dup2\n        /* \"--CODEGEN--\":8727:8757   */\n      gt\n        /* \"--CODEGEN--\":8724:8726   */\n      iszero\n      tag_251\n      jumpi\n        /* \"--CODEGEN--\":8770:8771   */\n      0x00\n        /* \"--CODEGEN--\":8767:8768   */\n      dup1\n        /* \"--CODEGEN--\":8760:8772   */\n      revert\n        /* \"--CODEGEN--\":8724:8726   */\n    tag_251:\n        /* \"--CODEGEN--\":8790:8853   */\n      tag_252\n        /* \"--CODEGEN--\":8845:8852   */\n      dup8\n        /* \"--CODEGEN--\":8836:8842   */\n      dup3\n        /* \"--CODEGEN--\":8825:8834   */\n      dup9\n        /* \"--CODEGEN--\":8821:8843   */\n      add\n        /* \"--CODEGEN--\":8790:8853   */\n      jump(tag_195)\n    tag_252:\n        /* \"--CODEGEN--\":8780:8853   */\n      swap5\n      pop\n        /* \"--CODEGEN--\":8666:8859   */\n      pop\n        /* \"--CODEGEN--\":8890:8892   */\n      0x20\n        /* \"--CODEGEN--\":8908:8961   */\n      tag_253\n        /* \"--CODEGEN--\":8953:8960   */\n      dup8\n        /* \"--CODEGEN--\":8944:8950   */\n      dup3\n        /* \"--CODEGEN--\":8933:8942   */\n      dup9\n        /* \"--CODEGEN--\":8929:8951   */\n      add\n        /* \"--CODEGEN--\":8908:8961   */\n      jump(tag_202)\n    tag_253:\n        /* \"--CODEGEN--\":8898:8961   */\n      swap4\n      pop\n        /* \"--CODEGEN--\":8869:8967   */\n      pop\n        /* \"--CODEGEN--\":8998:9000   */\n      0x40\n        /* \"--CODEGEN--\":9016:9068   */\n      tag_254\n        /* \"--CODEGEN--\":9060:9067   */\n      dup8\n        /* \"--CODEGEN--\":9051:9057   */\n      dup3\n        /* \"--CODEGEN--\":9040:9049   */\n      dup9\n        /* \"--CODEGEN--\":9036:9058   */\n      add\n        /* \"--CODEGEN--\":9016:9068   */\n      jump(tag_205)\n    tag_254:\n        /* \"--CODEGEN--\":9006:9068   */\n      swap3\n      pop\n        /* \"--CODEGEN--\":8977:9074   */\n      pop\n        /* \"--CODEGEN--\":9133:9135   */\n      0x60\n        /* \"--CODEGEN--\":9122:9131   */\n      dup6\n        /* \"--CODEGEN--\":9118:9136   */\n      add\n        /* \"--CODEGEN--\":9105:9137   */\n      calldataload\n        /* \"--CODEGEN--\":9157:9175   */\n      0xffffffffffffffff\n        /* \"--CODEGEN--\":9149:9155   */\n      dup2\n        /* \"--CODEGEN--\":9146:9176   */\n      gt\n        /* \"--CODEGEN--\":9143:9145   */\n      iszero\n      tag_255\n      jumpi\n        /* \"--CODEGEN--\":9189:9190   */\n      0x00\n        /* \"--CODEGEN--\":9186:9187   */\n      dup1\n        /* \"--CODEGEN--\":9179:9191   */\n      revert\n        /* \"--CODEGEN--\":9143:9145   */\n    tag_255:\n        /* \"--CODEGEN--\":9209:9272   */\n      tag_256\n        /* \"--CODEGEN--\":9264:9271   */\n      dup8\n        /* \"--CODEGEN--\":9255:9261   */\n      dup3\n        /* \"--CODEGEN--\":9244:9253   */\n      dup9\n        /* \"--CODEGEN--\":9240:9262   */\n      add\n        /* \"--CODEGEN--\":9209:9272   */\n      jump(tag_195)\n    tag_256:\n        /* \"--CODEGEN--\":9199:9272   */\n      swap2\n      pop\n        /* \"--CODEGEN--\":9084:9278   */\n      pop\n        /* \"--CODEGEN--\":8597:9288   */\n      swap3\n      swap6\n      swap2\n      swap5\n      pop\n      swap3\n      pop\n      jump\n        /* \"--CODEGEN--\":9296:9477   */\n    tag_257:\n      0x00\n        /* \"--CODEGEN--\":9409:9471   */\n      tag_258\n        /* \"--CODEGEN--\":9467:9470   */\n      dup4\n        /* \"--CODEGEN--\":9459:9465   */\n      dup4\n        /* \"--CODEGEN--\":9409:9471   */\n      jump(tag_259)\n    tag_258:\n        /* \"--CODEGEN--\":9395:9471   */\n      swap1\n      pop\n        /* \"--CODEGEN--\":9388:9477   */\n      swap3\n      swap2\n      pop\n      pop\n      jump\n        /* \"--CODEGEN--\":9486:9655   */\n    tag_260:\n      0x00\n        /* \"--CODEGEN--\":9571:9615   */\n      tag_261\n        /* \"--CODEGEN--\":9611:9614   */\n      dup4\n        /* \"--CODEGEN--\":9603:9609   */\n      dup4\n        /* \"--CODEGEN--\":9571:9615   */\n      jump(tag_262)\n    tag_261:\n        /* \"--CODEGEN--\":9644:9648   */\n      0x20\n        /* \"--CODEGEN--\":9639:9642   */\n      dup4\n        /* \"--CODEGEN--\":9635:9649   */\n      add\n        /* \"--CODEGEN--\":9621:9649   */\n      swap1\n      pop\n        /* \"--CODEGEN--\":9564:9655   */\n      swap3\n      swap2\n      pop\n      pop\n      jump\n        /* \"--CODEGEN--\":9692:10588   */\n    tag_263:\n      0x00\n        /* \"--CODEGEN--\":9849:9909   */\n      tag_264\n        /* \"--CODEGEN--\":9903:9908   */\n      dup3\n        /* \"--CODEGEN--\":9849:9909   */\n      jump(tag_265)\n    tag_264:\n        /* \"--CODEGEN--\":9922:10014   */\n      tag_266\n        /* \"--CODEGEN--\":10007:10013   */\n      dup2\n        /* \"--CODEGEN--\":10002:10005   */\n      dup6\n        /* \"--CODEGEN--\":9922:10014   */\n      jump(tag_267)\n    tag_266:\n        /* \"--CODEGEN--\":9915:10014   */\n      swap4\n      pop\n        /* \"--CODEGEN--\":10037:10040   */\n      dup4\n        /* \"--CODEGEN--\":10079:10083   */\n      0x20\n        /* \"--CODEGEN--\":10071:10077   */\n      dup3\n        /* \"--CODEGEN--\":10067:10084   */\n      mul\n        /* \"--CODEGEN--\":10062:10065   */\n      dup6\n        /* \"--CODEGEN--\":10058:10085   */\n      add\n        /* \"--CODEGEN--\":10106:10168   */\n      tag_268\n        /* \"--CODEGEN--\":10162:10167   */\n      dup6\n        /* \"--CODEGEN--\":10106:10168   */\n      jump(tag_269)\n    tag_268:\n        /* \"--CODEGEN--\":10188:10195   */\n      dup1\n        /* \"--CODEGEN--\":10216:10217   */\n      0x00\n        /* \"--CODEGEN--\":10201:10549   */\n    tag_270:\n        /* \"--CODEGEN--\":10226:10232   */\n      dup6\n        /* \"--CODEGEN--\":10223:10224   */\n      dup2\n        /* \"--CODEGEN--\":10220:10233   */\n      lt\n        /* \"--CODEGEN--\":10201:10549   */\n      iszero\n      tag_272\n      jumpi\n        /* \"--CODEGEN--\":10288:10297   */\n      dup5\n        /* \"--CODEGEN--\":10282:10286   */\n      dup5\n        /* \"--CODEGEN--\":10278:10298   */\n      sub\n        /* \"--CODEGEN--\":10273:10276   */\n      dup10\n        /* \"--CODEGEN--\":10266:10299   */\n      mstore\n        /* \"--CODEGEN--\":10333:10339   */\n      dup2\n        /* \"--CODEGEN--\":10327:10340   */\n      mload\n        /* \"--CODEGEN--\":10355:10431   */\n      tag_273\n        /* \"--CODEGEN--\":10426:10430   */\n      dup6\n        /* \"--CODEGEN--\":10411:10424   */\n      dup3\n        /* \"--CODEGEN--\":10355:10431   */\n      jump(tag_257)\n    tag_273:\n        /* \"--CODEGEN--\":10347:10431   */\n      swap5\n      pop\n        /* \"--CODEGEN--\":10448:10514   */\n      tag_274\n        /* \"--CODEGEN--\":10507:10513   */\n      dup4\n        /* \"--CODEGEN--\":10448:10514   */\n      jump(tag_275)\n    tag_274:\n        /* \"--CODEGEN--\":10438:10514   */\n      swap3\n      pop\n        /* \"--CODEGEN--\":10537:10541   */\n      0x20\n        /* \"--CODEGEN--\":10532:10535   */\n      dup11\n        /* \"--CODEGEN--\":10528:10542   */\n      add\n        /* \"--CODEGEN--\":10521:10542   */\n      swap10\n      pop\n        /* \"--CODEGEN--\":10258:10549   */\n      pop\n        /* \"--CODEGEN--\":10248:10249   */\n      0x01\n        /* \"--CODEGEN--\":10245:10246   */\n      dup2\n        /* \"--CODEGEN--\":10241:10250   */\n      add\n        /* \"--CODEGEN--\":10236:10250   */\n      swap1\n      pop\n        /* \"--CODEGEN--\":10201:10549   */\n      jump(tag_270)\n    tag_272:\n        /* \"--CODEGEN--\":10205:10219   */\n      pop\n        /* \"--CODEGEN--\":10562:10566   */\n      dup3\n        /* \"--CODEGEN--\":10555:10566   */\n      swap8\n      pop\n        /* \"--CODEGEN--\":10579:10582   */\n      dup8\n        /* \"--CODEGEN--\":10572:10582   */\n      swap6\n      pop\n        /* \"--CODEGEN--\":9828:10588   */\n      pop\n      pop\n      pop\n      pop\n      pop\n      swap3\n      swap2\n      pop\n      pop\n      jump\n        /* \"--CODEGEN--\":10625:11307   */\n    tag_276:\n      0x00\n        /* \"--CODEGEN--\":10768:10821   */\n      tag_277\n        /* \"--CODEGEN--\":10815:10820   */\n      dup3\n        /* \"--CODEGEN--\":10768:10821   */\n      jump(tag_278)\n    tag_277:\n        /* \"--CODEGEN--\":10834:10919   */\n      tag_279\n        /* \"--CODEGEN--\":10912:10918   */\n      dup2\n        /* \"--CODEGEN--\":10907:10910   */\n      dup6\n        /* \"--CODEGEN--\":10834:10919   */\n      jump(tag_280)\n    tag_279:\n        /* \"--CODEGEN--\":10827:10919   */\n      swap4\n      pop\n        /* \"--CODEGEN--\":10940:10995   */\n      tag_281\n        /* \"--CODEGEN--\":10989:10994   */\n      dup4\n        /* \"--CODEGEN--\":10940:10995   */\n      jump(tag_282)\n    tag_281:\n        /* \"--CODEGEN--\":11015:11022   */\n      dup1\n        /* \"--CODEGEN--\":11043:11044   */\n      0x00\n        /* \"--CODEGEN--\":11028:11285   */\n    tag_283:\n        /* \"--CODEGEN--\":11053:11059   */\n      dup4\n        /* \"--CODEGEN--\":11050:11051   */\n      dup2\n        /* \"--CODEGEN--\":11047:11060   */\n      lt\n        /* \"--CODEGEN--\":11028:11285   */\n      iszero\n      tag_285\n      jumpi\n        /* \"--CODEGEN--\":11120:11126   */\n      dup2\n        /* \"--CODEGEN--\":11114:11127   */\n      mload\n        /* \"--CODEGEN--\":11141:11202   */\n      tag_286\n        /* \"--CODEGEN--\":11198:11201   */\n      dup9\n        /* \"--CODEGEN--\":11183:11196   */\n      dup3\n        /* \"--CODEGEN--\":11141:11202   */\n      jump(tag_260)\n    tag_286:\n        /* \"--CODEGEN--\":11134:11202   */\n      swap8\n      pop\n        /* \"--CODEGEN--\":11219:11278   */\n      tag_287\n        /* \"--CODEGEN--\":11271:11277   */\n      dup4\n        /* \"--CODEGEN--\":11219:11278   */\n      jump(tag_288)\n    tag_287:\n        /* \"--CODEGEN--\":11209:11278   */\n      swap3\n      pop\n        /* \"--CODEGEN--\":11085:11285   */\n      pop\n        /* \"--CODEGEN--\":11075:11076   */\n      0x01\n        /* \"--CODEGEN--\":11072:11073   */\n      dup2\n        /* \"--CODEGEN--\":11068:11077   */\n      add\n        /* \"--CODEGEN--\":11063:11077   */\n      swap1\n      pop\n        /* \"--CODEGEN--\":11028:11285   */\n      jump(tag_283)\n    tag_285:\n        /* \"--CODEGEN--\":11032:11046   */\n      pop\n        /* \"--CODEGEN--\":11298:11301   */\n      dup6\n        /* \"--CODEGEN--\":11291:11301   */\n      swap4\n      pop\n        /* \"--CODEGEN--\":10747:11307   */\n      pop\n      pop\n      pop\n      swap3\n      swap2\n      pop\n      pop\n      jump\n        /* \"--CODEGEN--\":11315:11662   */\n    tag_289:\n      0x00\n        /* \"--CODEGEN--\":11427:11466   */\n      tag_290\n        /* \"--CODEGEN--\":11460:11465   */\n      dup3\n        /* \"--CODEGEN--\":11427:11466   */\n      jump(tag_291)\n    tag_290:\n        /* \"--CODEGEN--\":11478:11549   */\n      tag_292\n        /* \"--CODEGEN--\":11542:11548   */\n      dup2\n        /* \"--CODEGEN--\":11537:11540   */\n      dup6\n        /* \"--CODEGEN--\":11478:11549   */\n      jump(tag_293)\n    tag_292:\n        /* \"--CODEGEN--\":11471:11549   */\n      swap4\n      pop\n        /* \"--CODEGEN--\":11554:11606   */\n      tag_294\n        /* \"--CODEGEN--\":11599:11605   */\n      dup2\n        /* \"--CODEGEN--\":11594:11597   */\n      dup6\n        /* \"--CODEGEN--\":11587:11591   */\n      0x20\n        /* \"--CODEGEN--\":11580:11585   */\n      dup7\n        /* \"--CODEGEN--\":11576:11592   */\n      add\n        /* \"--CODEGEN--\":11554:11606   */\n      jump(tag_295)\n    tag_294:\n        /* \"--CODEGEN--\":11627:11656   */\n      tag_296\n        /* \"--CODEGEN--\":11649:11655   */\n      dup2\n        /* \"--CODEGEN--\":11627:11656   */\n      jump(tag_297)\n    tag_296:\n        /* \"--CODEGEN--\":11622:11625   */\n      dup5\n        /* \"--CODEGEN--\":11618:11657   */\n      add\n        /* \"--CODEGEN--\":11611:11657   */\n      swap2\n      pop\n        /* \"--CODEGEN--\":11407:11662   */\n      pop\n      swap3\n      swap2\n      pop\n      pop\n      jump\n        /* \"--CODEGEN--\":11669:12029   */\n    tag_298:\n      0x00\n        /* \"--CODEGEN--\":11799:11838   */\n      tag_299\n        /* \"--CODEGEN--\":11832:11837   */\n      dup3\n        /* \"--CODEGEN--\":11799:11838   */\n      jump(tag_291)\n    tag_299:\n        /* \"--CODEGEN--\":11850:11939   */\n      tag_300\n        /* \"--CODEGEN--\":11932:11938   */\n      dup2\n        /* \"--CODEGEN--\":11927:11930   */\n      dup6\n        /* \"--CODEGEN--\":11850:11939   */\n      jump(tag_301)\n    tag_300:\n        /* \"--CODEGEN--\":11843:11939   */\n      swap4\n      pop\n        /* \"--CODEGEN--\":11944:11996   */\n      tag_302\n        /* \"--CODEGEN--\":11989:11995   */\n      dup2\n        /* \"--CODEGEN--\":11984:11987   */\n      dup6\n        /* \"--CODEGEN--\":11977:11981   */\n      0x20\n        /* \"--CODEGEN--\":11970:11975   */\n      dup7\n        /* \"--CODEGEN--\":11966:11982   */\n      add\n        /* \"--CODEGEN--\":11944:11996   */\n      jump(tag_295)\n    tag_302:\n        /* \"--CODEGEN--\":12017:12023   */\n      dup1\n        /* \"--CODEGEN--\":12012:12015   */\n      dup5\n        /* \"--CODEGEN--\":12008:12024   */\n      add\n        /* \"--CODEGEN--\":12001:12024   */\n      swap2\n      pop\n        /* \"--CODEGEN--\":11779:12029   */\n      pop\n      swap3\n      swap2\n      pop\n      pop\n      jump\n        /* \"--CODEGEN--\":12036:12355   */\n    tag_259:\n      0x00\n        /* \"--CODEGEN--\":12134:12169   */\n      tag_303\n        /* \"--CODEGEN--\":12163:12168   */\n      dup3\n        /* \"--CODEGEN--\":12134:12169   */\n      jump(tag_304)\n    tag_303:\n        /* \"--CODEGEN--\":12181:12242   */\n      tag_305\n        /* \"--CODEGEN--\":12235:12241   */\n      dup2\n        /* \"--CODEGEN--\":12230:12233   */\n      dup6\n        /* \"--CODEGEN--\":12181:12242   */\n      jump(tag_306)\n    tag_305:\n        /* \"--CODEGEN--\":12174:12242   */\n      swap4\n      pop\n        /* \"--CODEGEN--\":12247:12299   */\n      tag_307\n        /* \"--CODEGEN--\":12292:12298   */\n      dup2\n        /* \"--CODEGEN--\":12287:12290   */\n      dup6\n        /* \"--CODEGEN--\":12280:12284   */\n      0x20\n        /* \"--CODEGEN--\":12273:12278   */\n      dup7\n        /* \"--CODEGEN--\":12269:12285   */\n      add\n        /* \"--CODEGEN--\":12247:12299   */\n      jump(tag_295)\n    tag_307:\n        /* \"--CODEGEN--\":12320:12349   */\n      tag_308\n        /* \"--CODEGEN--\":12342:12348   */\n      dup2\n        /* \"--CODEGEN--\":12320:12349   */\n      jump(tag_297)\n    tag_308:\n        /* \"--CODEGEN--\":12315:12318   */\n      dup5\n        /* \"--CODEGEN--\":12311:12350   */\n      add\n        /* \"--CODEGEN--\":12304:12350   */\n      swap2\n      pop\n        /* \"--CODEGEN--\":12114:12355   */\n      pop\n      swap3\n      swap2\n      pop\n      pop\n      jump\n        /* \"--CODEGEN--\":12362:12714   */\n    tag_309:\n      0x00\n        /* \"--CODEGEN--\":12488:12523   */\n      tag_310\n        /* \"--CODEGEN--\":12517:12522   */\n      dup3\n        /* \"--CODEGEN--\":12488:12523   */\n      jump(tag_304)\n    tag_310:\n        /* \"--CODEGEN--\":12535:12624   */\n      tag_311\n        /* \"--CODEGEN--\":12617:12623   */\n      dup2\n        /* \"--CODEGEN--\":12612:12615   */\n      dup6\n        /* \"--CODEGEN--\":12535:12624   */\n      jump(tag_301)\n    tag_311:\n        /* \"--CODEGEN--\":12528:12624   */\n      swap4\n      pop\n        /* \"--CODEGEN--\":12629:12681   */\n      tag_312\n        /* \"--CODEGEN--\":12674:12680   */\n      dup2\n        /* \"--CODEGEN--\":12669:12672   */\n      dup6\n        /* \"--CODEGEN--\":12662:12666   */\n      0x20\n        /* \"--CODEGEN--\":12655:12660   */\n      dup7\n        /* \"--CODEGEN--\":12651:12667   */\n      add\n        /* \"--CODEGEN--\":12629:12681   */\n      jump(tag_295)\n    tag_312:\n        /* \"--CODEGEN--\":12702:12708   */\n      dup1\n        /* \"--CODEGEN--\":12697:12700   */\n      dup5\n        /* \"--CODEGEN--\":12693:12709   */\n      add\n        /* \"--CODEGEN--\":12686:12709   */\n      swap2\n      pop\n        /* \"--CODEGEN--\":12468:12714   */\n      pop\n      swap3\n      swap2\n      pop\n      pop\n      jump\n        /* \"--CODEGEN--\":12721:12821   */\n    tag_262:\n        /* \"--CODEGEN--\":12792:12815   */\n      tag_313\n        /* \"--CODEGEN--\":12809:12814   */\n      dup2\n        /* \"--CODEGEN--\":12792:12815   */\n      jump(tag_314)\n    tag_313:\n        /* \"--CODEGEN--\":12787:12790   */\n      dup3\n        /* \"--CODEGEN--\":12780:12816   */\n      mstore\n        /* \"--CODEGEN--\":12774:12821   */\n      pop\n      pop\n      jump\n        /* \"--CODEGEN--\":12828:12938   */\n    tag_315:\n        /* \"--CODEGEN--\":12909:12932   */\n      tag_316\n        /* \"--CODEGEN--\":12926:12931   */\n      dup2\n        /* \"--CODEGEN--\":12909:12932   */\n      jump(tag_314)\n    tag_316:\n        /* \"--CODEGEN--\":12904:12907   */\n      dup3\n        /* \"--CODEGEN--\":12897:12933   */\n      mstore\n        /* \"--CODEGEN--\":12891:12938   */\n      pop\n      pop\n      jump\n        /* \"--CODEGEN--\":12945:13052   */\n    tag_317:\n        /* \"--CODEGEN--\":13024:13046   */\n      tag_318\n        /* \"--CODEGEN--\":13040:13045   */\n      dup2\n        /* \"--CODEGEN--\":13024:13046   */\n      jump(tag_319)\n    tag_318:\n        /* \"--CODEGEN--\":13019:13022   */\n      dup3\n        /* \"--CODEGEN--\":13012:13047   */\n      mstore\n        /* \"--CODEGEN--\":13006:13052   */\n      pop\n      pop\n      jump\n        /* \"--CODEGEN--\":13059:13317   */\n    tag_129:\n      0x00\n        /* \"--CODEGEN--\":13201:13292   */\n      tag_320\n        /* \"--CODEGEN--\":13288:13291   */\n      dup3\n        /* \"--CODEGEN--\":13279:13285   */\n      dup5\n        /* \"--CODEGEN--\":13201:13292   */\n      jump(tag_309)\n    tag_320:\n        /* \"--CODEGEN--\":13194:13292   */\n      swap2\n      pop\n        /* \"--CODEGEN--\":13309:13312   */\n      dup2\n        /* \"--CODEGEN--\":13302:13312   */\n      swap1\n      pop\n        /* \"--CODEGEN--\":13182:13317   */\n      swap3\n      swap2\n      pop\n      pop\n      jump\n        /* \"--CODEGEN--\":13324:13590   */\n    tag_57:\n      0x00\n        /* \"--CODEGEN--\":13470:13565   */\n      tag_321\n        /* \"--CODEGEN--\":13561:13564   */\n      dup3\n        /* \"--CODEGEN--\":13552:13558   */\n      dup5\n        /* \"--CODEGEN--\":13470:13565   */\n      jump(tag_298)\n    tag_321:\n        /* \"--CODEGEN--\":13463:13565   */\n      swap2\n      pop\n        /* \"--CODEGEN--\":13582:13585   */\n      dup2\n        /* \"--CODEGEN--\":13575:13585   */\n      swap1\n      pop\n        /* \"--CODEGEN--\":13451:13590   */\n      swap3\n      swap2\n      pop\n      pop\n      jump\n        /* \"--CODEGEN--\":13597:14237   */\n    tag_33:\n      0x00\n        /* \"--CODEGEN--\":13853:13855   */\n      0x40\n        /* \"--CODEGEN--\":13842:13851   */\n      dup3\n        /* \"--CODEGEN--\":13838:13856   */\n      add\n        /* \"--CODEGEN--\":13830:13856   */\n      swap1\n      pop\n        /* \"--CODEGEN--\":13903:13912   */\n      dup2\n        /* \"--CODEGEN--\":13897:13901   */\n      dup2\n        /* \"--CODEGEN--\":13893:13913   */\n      sub\n        /* \"--CODEGEN--\":13889:13890   */\n      0x00\n        /* \"--CODEGEN--\":13878:13887   */\n      dup4\n        /* \"--CODEGEN--\":13874:13891   */\n      add\n        /* \"--CODEGEN--\":13867:13914   */\n      mstore\n        /* \"--CODEGEN--\":13928:14048   */\n      tag_322\n        /* \"--CODEGEN--\":14043:14047   */\n      dup2\n        /* \"--CODEGEN--\":14034:14040   */\n      dup6\n        /* \"--CODEGEN--\":13928:14048   */\n      jump(tag_263)\n    tag_322:\n        /* \"--CODEGEN--\":13920:14048   */\n      swap1\n      pop\n        /* \"--CODEGEN--\":14096:14105   */\n      dup2\n        /* \"--CODEGEN--\":14090:14094   */\n      dup2\n        /* \"--CODEGEN--\":14086:14106   */\n      sub\n        /* \"--CODEGEN--\":14081:14083   */\n      0x20\n        /* \"--CODEGEN--\":14070:14079   */\n      dup4\n        /* \"--CODEGEN--\":14066:14084   */\n      add\n        /* \"--CODEGEN--\":14059:14107   */\n      mstore\n        /* \"--CODEGEN--\":14121:14227   */\n      tag_323\n        /* \"--CODEGEN--\":14222:14226   */\n      dup2\n        /* \"--CODEGEN--\":14213:14219   */\n      dup5\n        /* \"--CODEGEN--\":14121:14227   */\n      jump(tag_276)\n    tag_323:\n        /* \"--CODEGEN--\":14113:14227   */\n      swap1\n      pop\n        /* \"--CODEGEN--\":13824:14237   */\n      swap4\n      swap3\n      pop\n      pop\n      pop\n      jump\n        /* \"--CODEGEN--\":14244:14545   */\n    tag_54:\n      0x00\n        /* \"--CODEGEN--\":14382:14384   */\n      0x20\n        /* \"--CODEGEN--\":14371:14380   */\n      dup3\n        /* \"--CODEGEN--\":14367:14385   */\n      add\n        /* \"--CODEGEN--\":14359:14385   */\n      swap1\n      pop\n        /* \"--CODEGEN--\":14432:14441   */\n      dup2\n        /* \"--CODEGEN--\":14426:14430   */\n      dup2\n        /* \"--CODEGEN--\":14422:14442   */\n      sub\n        /* \"--CODEGEN--\":14418:14419   */\n      0x00\n        /* \"--CODEGEN--\":14407:14416   */\n      dup4\n        /* \"--CODEGEN--\":14403:14420   */\n      add\n        /* \"--CODEGEN--\":14396:14443   */\n      mstore\n        /* \"--CODEGEN--\":14457:14535   */\n      tag_324\n        /* \"--CODEGEN--\":14530:14534   */\n      dup2\n        /* \"--CODEGEN--\":14521:14527   */\n      dup5\n        /* \"--CODEGEN--\":14457:14535   */\n      jump(tag_289)\n    tag_324:\n        /* \"--CODEGEN--\":14449:14535   */\n      swap1\n      pop\n        /* \"--CODEGEN--\":14353:14545   */\n      swap3\n      swap2\n      pop\n      pop\n      jump\n        /* \"--CODEGEN--\":14552:14761   */\n    tag_39:\n      0x00\n        /* \"--CODEGEN--\":14668:14670   */\n      0x20\n        /* \"--CODEGEN--\":14657:14666   */\n      dup3\n        /* \"--CODEGEN--\":14653:14671   */\n      add\n        /* \"--CODEGEN--\":14645:14671   */\n      swap1\n      pop\n        /* \"--CODEGEN--\":14682:14751   */\n      tag_325\n        /* \"--CODEGEN--\":14748:14749   */\n      0x00\n        /* \"--CODEGEN--\":14737:14746   */\n      dup4\n        /* \"--CODEGEN--\":14733:14750   */\n      add\n        /* \"--CODEGEN--\":14724:14730   */\n      dup5\n        /* \"--CODEGEN--\":14682:14751   */\n      jump(tag_315)\n    tag_325:\n        /* \"--CODEGEN--\":14639:14761   */\n      swap3\n      swap2\n      pop\n      pop\n      jump\n        /* \"--CODEGEN--\":14768:14973   */\n    tag_45:\n      0x00\n        /* \"--CODEGEN--\":14882:14884   */\n      0x20\n        /* \"--CODEGEN--\":14871:14880   */\n      dup3\n        /* \"--CODEGEN--\":14867:14885   */\n      add\n        /* \"--CODEGEN--\":14859:14885   */\n      swap1\n      pop\n        /* \"--CODEGEN--\":14896:14963   */\n      tag_326\n        /* \"--CODEGEN--\":14960:14961   */\n      0x00\n        /* \"--CODEGEN--\":14949:14958   */\n      dup4\n        /* \"--CODEGEN--\":14945:14962   */\n      add\n        /* \"--CODEGEN--\":14936:14942   */\n      dup5\n        /* \"--CODEGEN--\":14896:14963   */\n      jump(tag_317)\n    tag_326:\n        /* \"--CODEGEN--\":14853:14973   */\n      swap3\n      swap2\n      pop\n      pop\n      jump\n        /* \"--CODEGEN--\":14980:15236   */\n    tag_161:\n      0x00\n        /* \"--CODEGEN--\":15042:15044   */\n      0x40\n        /* \"--CODEGEN--\":15036:15045   */\n      mload\n        /* \"--CODEGEN--\":15026:15045   */\n      swap1\n      pop\n        /* \"--CODEGEN--\":15080:15084   */\n      dup2\n        /* \"--CODEGEN--\":15072:15078   */\n      dup2\n        /* \"--CODEGEN--\":15068:15085   */\n      add\n        /* \"--CODEGEN--\":15179:15185   */\n      dup2\n        /* \"--CODEGEN--\":15167:15177   */\n      dup2\n        /* \"--CODEGEN--\":15164:15186   */\n      lt\n        /* \"--CODEGEN--\":15143:15161   */\n      0xffffffffffffffff\n        /* \"--CODEGEN--\":15131:15141   */\n      dup3\n        /* \"--CODEGEN--\":15128:15162   */\n      gt\n        /* \"--CODEGEN--\":15125:15187   */\n      or\n        /* \"--CODEGEN--\":15122:15124   */\n      iszero\n      tag_327\n      jumpi\n        /* \"--CODEGEN--\":15200:15201   */\n      0x00\n        /* \"--CODEGEN--\":15197:15198   */\n      dup1\n        /* \"--CODEGEN--\":15190:15202   */\n      revert\n        /* \"--CODEGEN--\":15122:15124   */\n    tag_327:\n        /* \"--CODEGEN--\":15220:15230   */\n      dup1\n        /* \"--CODEGEN--\":15216:15218   */\n      0x40\n        /* \"--CODEGEN--\":15209:15231   */\n      mstore\n        /* \"--CODEGEN--\":15020:15236   */\n      pop\n      swap2\n      swap1\n      pop\n      jump\n        /* \"--CODEGEN--\":15243:15547   */\n    tag_160:\n      0x00\n        /* \"--CODEGEN--\":15402:15420   */\n      0xffffffffffffffff\n        /* \"--CODEGEN--\":15394:15400   */\n      dup3\n        /* \"--CODEGEN--\":15391:15421   */\n      gt\n        /* \"--CODEGEN--\":15388:15390   */\n      iszero\n      tag_328\n      jumpi\n        /* \"--CODEGEN--\":15434:15435   */\n      0x00\n        /* \"--CODEGEN--\":15431:15432   */\n      dup1\n        /* \"--CODEGEN--\":15424:15436   */\n      revert\n        /* \"--CODEGEN--\":15388:15390   */\n    tag_328:\n        /* \"--CODEGEN--\":15469:15473   */\n      0x20\n        /* \"--CODEGEN--\":15461:15467   */\n      dup3\n        /* \"--CODEGEN--\":15457:15474   */\n      mul\n        /* \"--CODEGEN--\":15449:15474   */\n      swap1\n      pop\n        /* \"--CODEGEN--\":15532:15536   */\n      0x20\n        /* \"--CODEGEN--\":15526:15530   */\n      dup2\n        /* \"--CODEGEN--\":15522:15537   */\n      add\n        /* \"--CODEGEN--\":15514:15537   */\n      swap1\n      pop\n        /* \"--CODEGEN--\":15325:15547   */\n      swap2\n      swap1\n      pop\n      jump\n        /* \"--CODEGEN--\":15554:15864   */\n    tag_171:\n      0x00\n        /* \"--CODEGEN--\":15719:15737   */\n      0xffffffffffffffff\n        /* \"--CODEGEN--\":15711:15717   */\n      dup3\n        /* \"--CODEGEN--\":15708:15738   */\n      gt\n        /* \"--CODEGEN--\":15705:15707   */\n      iszero\n      tag_329\n      jumpi\n        /* \"--CODEGEN--\":15751:15752   */\n      0x00\n        /* \"--CODEGEN--\":15748:15749   */\n      dup1\n        /* \"--CODEGEN--\":15741:15753   */\n      revert\n        /* \"--CODEGEN--\":15705:15707   */\n    tag_329:\n        /* \"--CODEGEN--\":15786:15790   */\n      0x20\n        /* \"--CODEGEN--\":15778:15784   */\n      dup3\n        /* \"--CODEGEN--\":15774:15791   */\n      mul\n        /* \"--CODEGEN--\":15766:15791   */\n      swap1\n      pop\n        /* \"--CODEGEN--\":15849:15853   */\n      0x20\n        /* \"--CODEGEN--\":15843:15847   */\n      dup2\n        /* \"--CODEGEN--\":15839:15854   */\n      add\n        /* \"--CODEGEN--\":15831:15854   */\n      swap1\n      pop\n        /* \"--CODEGEN--\":15642:15864   */\n      swap2\n      swap1\n      pop\n      jump\n        /* \"--CODEGEN--\":15871:16173   */\n    tag_181:\n      0x00\n        /* \"--CODEGEN--\":16028:16046   */\n      0xffffffffffffffff\n        /* \"--CODEGEN--\":16020:16026   */\n      dup3\n        /* \"--CODEGEN--\":16017:16047   */\n      gt\n        /* \"--CODEGEN--\":16014:16016   */\n      iszero\n      tag_330\n      jumpi\n        /* \"--CODEGEN--\":16060:16061   */\n      0x00\n        /* \"--CODEGEN--\":16057:16058   */\n      dup1\n        /* \"--CODEGEN--\":16050:16062   */\n      revert\n        /* \"--CODEGEN--\":16014:16016   */\n    tag_330:\n        /* \"--CODEGEN--\":16095:16099   */\n      0x20\n        /* \"--CODEGEN--\":16087:16093   */\n      dup3\n        /* \"--CODEGEN--\":16083:16100   */\n      mul\n        /* \"--CODEGEN--\":16075:16100   */\n      swap1\n      pop\n        /* \"--CODEGEN--\":16158:16162   */\n      0x20\n        /* \"--CODEGEN--\":16152:16156   */\n      dup2\n        /* \"--CODEGEN--\":16148:16163   */\n      add\n        /* \"--CODEGEN--\":16140:16163   */\n      swap1\n      pop\n        /* \"--CODEGEN--\":15951:16173   */\n      swap2\n      swap1\n      pop\n      jump\n        /* \"--CODEGEN--\":16180:16498   */\n    tag_191:\n      0x00\n        /* \"--CODEGEN--\":16320:16338   */\n      0xffffffffffffffff\n        /* \"--CODEGEN--\":16312:16318   */\n      dup3\n        /* \"--CODEGEN--\":16309:16339   */\n      gt\n        /* \"--CODEGEN--\":16306:16308   */\n      iszero\n      tag_331\n      jumpi\n        /* \"--CODEGEN--\":16352:16353   */\n      0x00\n        /* \"--CODEGEN--\":16349:16350   */\n      dup1\n        /* \"--CODEGEN--\":16342:16354   */\n      revert\n        /* \"--CODEGEN--\":16306:16308   */\n    tag_331:\n        /* \"--CODEGEN--\":16419:16423   */\n      0x1f\n        /* \"--CODEGEN--\":16415:16424   */\n      not\n        /* \"--CODEGEN--\":16408:16412   */\n      0x1f\n        /* \"--CODEGEN--\":16400:16406   */\n      dup4\n        /* \"--CODEGEN--\":16396:16413   */\n      add\n        /* \"--CODEGEN--\":16392:16425   */\n      and\n        /* \"--CODEGEN--\":16384:16425   */\n      swap1\n      pop\n        /* \"--CODEGEN--\":16483:16487   */\n      0x20\n        /* \"--CODEGEN--\":16477:16481   */\n      dup2\n        /* \"--CODEGEN--\":16473:16488   */\n      add\n        /* \"--CODEGEN--\":16465:16488   */\n      swap1\n      pop\n        /* \"--CODEGEN--\":16243:16498   */\n      swap2\n      swap1\n      pop\n      jump\n        /* \"--CODEGEN--\":16505:16827   */\n    tag_199:\n      0x00\n        /* \"--CODEGEN--\":16649:16667   */\n      0xffffffffffffffff\n        /* \"--CODEGEN--\":16641:16647   */\n      dup3\n        /* \"--CODEGEN--\":16638:16668   */\n      gt\n        /* \"--CODEGEN--\":16635:16637   */\n      iszero\n      tag_332\n      jumpi\n        /* \"--CODEGEN--\":16681:16682   */\n      0x00\n        /* \"--CODEGEN--\":16678:16679   */\n      dup1\n        /* \"--CODEGEN--\":16671:16683   */\n      revert\n        /* \"--CODEGEN--\":16635:16637   */\n    tag_332:\n        /* \"--CODEGEN--\":16748:16752   */\n      0x1f\n        /* \"--CODEGEN--\":16744:16753   */\n      not\n        /* \"--CODEGEN--\":16737:16741   */\n      0x1f\n        /* \"--CODEGEN--\":16729:16735   */\n      dup4\n        /* \"--CODEGEN--\":16725:16742   */\n      add\n        /* \"--CODEGEN--\":16721:16754   */\n      and\n        /* \"--CODEGEN--\":16713:16754   */\n      swap1\n      pop\n        /* \"--CODEGEN--\":16812:16816   */\n      0x20\n        /* \"--CODEGEN--\":16806:16810   */\n      dup2\n        /* \"--CODEGEN--\":16802:16817   */\n      add\n        /* \"--CODEGEN--\":16794:16817   */\n      swap1\n      pop\n        /* \"--CODEGEN--\":16572:16827   */\n      swap2\n      swap1\n      pop\n      jump\n        /* \"--CODEGEN--\":16834:16991   */\n    tag_269:\n      0x00\n        /* \"--CODEGEN--\":16926:16929   */\n      dup2\n        /* \"--CODEGEN--\":16918:16929   */\n      swap1\n      pop\n        /* \"--CODEGEN--\":16964:16968   */\n      0x20\n        /* \"--CODEGEN--\":16959:16962   */\n      dup3\n        /* \"--CODEGEN--\":16955:16969   */\n      add\n        /* \"--CODEGEN--\":16947:16969   */\n      swap1\n      pop\n        /* \"--CODEGEN--\":16912:16991   */\n      swap2\n      swap1\n      pop\n      jump\n        /* \"--CODEGEN--\":16998:17148   */\n    tag_282:\n      0x00\n        /* \"--CODEGEN--\":17083:17086   */\n      dup2\n        /* \"--CODEGEN--\":17075:17086   */\n      swap1\n      pop\n        /* \"--CODEGEN--\":17121:17125   */\n      0x20\n        /* \"--CODEGEN--\":17116:17119   */\n      dup3\n        /* \"--CODEGEN--\":17112:17126   */\n      add\n        /* \"--CODEGEN--\":17104:17126   */\n      swap1\n      pop\n        /* \"--CODEGEN--\":17069:17148   */\n      swap2\n      swap1\n      pop\n      jump\n        /* \"--CODEGEN--\":17155:17298   */\n    tag_265:\n      0x00\n        /* \"--CODEGEN--\":17270:17275   */\n      dup2\n        /* \"--CODEGEN--\":17264:17276   */\n      mload\n        /* \"--CODEGEN--\":17254:17276   */\n      swap1\n      pop\n        /* \"--CODEGEN--\":17235:17298   */\n      swap2\n      swap1\n      pop\n      jump\n        /* \"--CODEGEN--\":17305:17441   */\n    tag_278:\n      0x00\n        /* \"--CODEGEN--\":17413:17418   */\n      dup2\n        /* \"--CODEGEN--\":17407:17419   */\n      mload\n        /* \"--CODEGEN--\":17397:17419   */\n      swap1\n      pop\n        /* \"--CODEGEN--\":17378:17441   */\n      swap2\n      swap1\n      pop\n      jump\n        /* \"--CODEGEN--\":17448:17566   */\n    tag_304:\n      0x00\n        /* \"--CODEGEN--\":17538:17543   */\n      dup2\n        /* \"--CODEGEN--\":17532:17544   */\n      mload\n        /* \"--CODEGEN--\":17522:17544   */\n      swap1\n      pop\n        /* \"--CODEGEN--\":17503:17566   */\n      swap2\n      swap1\n      pop\n      jump\n        /* \"--CODEGEN--\":17573:17695   */\n    tag_291:\n      0x00\n        /* \"--CODEGEN--\":17667:17672   */\n      dup2\n        /* \"--CODEGEN--\":17661:17673   */\n      mload\n        /* \"--CODEGEN--\":17651:17673   */\n      swap1\n      pop\n        /* \"--CODEGEN--\":17632:17695   */\n      swap2\n      swap1\n      pop\n      jump\n        /* \"--CODEGEN--\":17702:17816   */\n    tag_275:\n      0x00\n        /* \"--CODEGEN--\":17806:17810   */\n      0x20\n        /* \"--CODEGEN--\":17801:17804   */\n      dup3\n        /* \"--CODEGEN--\":17797:17811   */\n      add\n        /* \"--CODEGEN--\":17789:17811   */\n      swap1\n      pop\n        /* \"--CODEGEN--\":17783:17816   */\n      swap2\n      swap1\n      pop\n      jump\n        /* \"--CODEGEN--\":17823:17930   */\n    tag_288:\n      0x00\n        /* \"--CODEGEN--\":17920:17924   */\n      0x20\n        /* \"--CODEGEN--\":17915:17918   */\n      dup3\n        /* \"--CODEGEN--\":17911:17925   */\n      add\n        /* \"--CODEGEN--\":17903:17925   */\n      swap1\n      pop\n        /* \"--CODEGEN--\":17897:17930   */\n      swap2\n      swap1\n      pop\n      jump\n        /* \"--CODEGEN--\":17938:18122   */\n    tag_267:\n      0x00\n        /* \"--CODEGEN--\":18074:18080   */\n      dup3\n        /* \"--CODEGEN--\":18069:18072   */\n      dup3\n        /* \"--CODEGEN--\":18062:18081   */\n      mstore\n        /* \"--CODEGEN--\":18111:18115   */\n      0x20\n        /* \"--CODEGEN--\":18106:18109   */\n      dup3\n        /* \"--CODEGEN--\":18102:18116   */\n      add\n        /* \"--CODEGEN--\":18087:18116   */\n      swap1\n      pop\n        /* \"--CODEGEN--\":18055:18122   */\n      swap3\n      swap2\n      pop\n      pop\n      jump\n        /* \"--CODEGEN--\":18131:18308   */\n    tag_280:\n      0x00\n        /* \"--CODEGEN--\":18260:18266   */\n      dup3\n        /* \"--CODEGEN--\":18255:18258   */\n      dup3\n        /* \"--CODEGEN--\":18248:18267   */\n      mstore\n        /* \"--CODEGEN--\":18297:18301   */\n      0x20\n        /* \"--CODEGEN--\":18292:18295   */\n      dup3\n        /* \"--CODEGEN--\":18288:18302   */\n      add\n        /* \"--CODEGEN--\":18273:18302   */\n      swap1\n      pop\n        /* \"--CODEGEN--\":18241:18308   */\n      swap3\n      swap2\n      pop\n      pop\n      jump\n        /* \"--CODEGEN--\":18317:18470   */\n    tag_306:\n      0x00\n        /* \"--CODEGEN--\":18422:18428   */\n      dup3\n        /* \"--CODEGEN--\":18417:18420   */\n      dup3\n        /* \"--CODEGEN--\":18410:18429   */\n      mstore\n        /* \"--CODEGEN--\":18459:18463   */\n      0x20\n        /* \"--CODEGEN--\":18454:18457   */\n      dup3\n        /* \"--CODEGEN--\":18450:18464   */\n      add\n        /* \"--CODEGEN--\":18435:18464   */\n      swap1\n      pop\n        /* \"--CODEGEN--\":18403:18470   */\n      swap3\n      swap2\n      pop\n      pop\n      jump\n        /* \"--CODEGEN--\":18479:18642   */\n    tag_293:\n      0x00\n        /* \"--CODEGEN--\":18594:18600   */\n      dup3\n        /* \"--CODEGEN--\":18589:18592   */\n      dup3\n        /* \"--CODEGEN--\":18582:18601   */\n      mstore\n        /* \"--CODEGEN--\":18631:18635   */\n      0x20\n        /* \"--CODEGEN--\":18626:18629   */\n      dup3\n        /* \"--CODEGEN--\":18622:18636   */\n      add\n        /* \"--CODEGEN--\":18607:18636   */\n      swap1\n      pop\n        /* \"--CODEGEN--\":18575:18642   */\n      swap3\n      swap2\n      pop\n      pop\n      jump\n        /* \"--CODEGEN--\":18651:18796   */\n    tag_301:\n      0x00\n        /* \"--CODEGEN--\":18787:18790   */\n      dup2\n        /* \"--CODEGEN--\":18772:18790   */\n      swap1\n      pop\n        /* \"--CODEGEN--\":18765:18796   */\n      swap3\n      swap2\n      pop\n      pop\n      jump\n        /* \"--CODEGEN--\":18804:18895   */\n    tag_333:\n      0x00\n        /* \"--CODEGEN--\":18866:18890   */\n      tag_334\n        /* \"--CODEGEN--\":18884:18889   */\n      dup3\n        /* \"--CODEGEN--\":18866:18890   */\n      jump(tag_335)\n    tag_334:\n        /* \"--CODEGEN--\":18855:18890   */\n      swap1\n      pop\n        /* \"--CODEGEN--\":18849:18895   */\n      swap2\n      swap1\n      pop\n      jump\n        /* \"--CODEGEN--\":18902:19023   */\n    tag_335:\n      0x00\n        /* \"--CODEGEN--\":18975:19017   */\n      0xffffffffffffffffffffffffffffffffffffffff\n        /* \"--CODEGEN--\":18968:18973   */\n      dup3\n        /* \"--CODEGEN--\":18964:19018   */\n      and\n        /* \"--CODEGEN--\":18953:19018   */\n      swap1\n      pop\n        /* \"--CODEGEN--\":18947:19023   */\n      swap2\n      swap1\n      pop\n      jump\n        /* \"--CODEGEN--\":19030:19102   */\n    tag_336:\n      0x00\n        /* \"--CODEGEN--\":19092:19097   */\n      dup2\n        /* \"--CODEGEN--\":19081:19097   */\n      swap1\n      pop\n        /* \"--CODEGEN--\":19075:19102   */\n      swap2\n      swap1\n      pop\n      jump\n        /* \"--CODEGEN--\":19109:19197   */\n    tag_314:\n      0x00\n        /* \"--CODEGEN--\":19181:19191   */\n      0xffffffff\n        /* \"--CODEGEN--\":19174:19179   */\n      dup3\n        /* \"--CODEGEN--\":19170:19192   */\n      and\n        /* \"--CODEGEN--\":19159:19192   */\n      swap1\n      pop\n        /* \"--CODEGEN--\":19153:19197   */\n      swap2\n      swap1\n      pop\n      jump\n        /* \"--CODEGEN--\":19204:19285   */\n    tag_319:\n      0x00\n        /* \"--CODEGEN--\":19275:19279   */\n      0xff\n        /* \"--CODEGEN--\":19268:19273   */\n      dup3\n        /* \"--CODEGEN--\":19264:19280   */\n      and\n        /* \"--CODEGEN--\":19253:19280   */\n      swap1\n      pop\n        /* \"--CODEGEN--\":19247:19285   */\n      swap2\n      swap1\n      pop\n      jump\n        /* \"--CODEGEN--\":19293:19438   */\n    tag_194:\n        /* \"--CODEGEN--\":19374:19380   */\n      dup3\n        /* \"--CODEGEN--\":19369:19372   */\n      dup2\n        /* \"--CODEGEN--\":19364:19367   */\n      dup4\n        /* \"--CODEGEN--\":19351:19381   */\n      calldatacopy\n        /* \"--CODEGEN--\":19430:19431   */\n      0x00\n        /* \"--CODEGEN--\":19421:19427   */\n      dup4\n        /* \"--CODEGEN--\":19416:19419   */\n      dup4\n        /* \"--CODEGEN--\":19412:19428   */\n      add\n        /* \"--CODEGEN--\":19405:19432   */\n      mstore\n        /* \"--CODEGEN--\":19344:19438   */\n      pop\n      pop\n      pop\n      jump\n        /* \"--CODEGEN--\":19447:19715   */\n    tag_295:\n        /* \"--CODEGEN--\":19512:19513   */\n      0x00\n        /* \"--CODEGEN--\":19519:19620   */\n    tag_337:\n        /* \"--CODEGEN--\":19533:19539   */\n      dup4\n        /* \"--CODEGEN--\":19530:19531   */\n      dup2\n        /* \"--CODEGEN--\":19527:19540   */\n      lt\n        /* \"--CODEGEN--\":19519:19620   */\n      iszero\n      tag_339\n      jumpi\n        /* \"--CODEGEN--\":19609:19610   */\n      dup1\n        /* \"--CODEGEN--\":19604:19607   */\n      dup3\n        /* \"--CODEGEN--\":19600:19611   */\n      add\n        /* \"--CODEGEN--\":19594:19612   */\n      mload\n        /* \"--CODEGEN--\":19590:19591   */\n      dup2\n        /* \"--CODEGEN--\":19585:19588   */\n      dup5\n        /* \"--CODEGEN--\":19581:19592   */\n      add\n        /* \"--CODEGEN--\":19574:19613   */\n      mstore\n        /* \"--CODEGEN--\":19555:19557   */\n      0x20\n        /* \"--CODEGEN--\":19552:19553   */\n      dup2\n        /* \"--CODEGEN--\":19548:19558   */\n      add\n        /* \"--CODEGEN--\":19543:19558   */\n      swap1\n      pop\n        /* \"--CODEGEN--\":19519:19620   */\n      jump(tag_337)\n    tag_339:\n        /* \"--CODEGEN--\":19635:19641   */\n      dup4\n        /* \"--CODEGEN--\":19632:19633   */\n      dup2\n        /* \"--CODEGEN--\":19629:19642   */\n      gt\n        /* \"--CODEGEN--\":19626:19628   */\n      iszero\n      tag_340\n      jumpi\n        /* \"--CODEGEN--\":19700:19701   */\n      0x00\n        /* \"--CODEGEN--\":19691:19697   */\n      dup5\n        /* \"--CODEGEN--\":19686:19689   */\n      dup5\n        /* \"--CODEGEN--\":19682:19698   */\n      add\n        /* \"--CODEGEN--\":19675:19702   */\n      mstore\n        /* \"--CODEGEN--\":19626:19628   */\n    tag_340:\n        /* \"--CODEGEN--\":19496:19715   */\n      pop\n      pop\n      pop\n      pop\n      jump\n        /* \"--CODEGEN--\":19723:19820   */\n    tag_297:\n      0x00\n        /* \"--CODEGEN--\":19811:19813   */\n      0x1f\n        /* \"--CODEGEN--\":19807:19814   */\n      not\n        /* \"--CODEGEN--\":19802:19804   */\n      0x1f\n        /* \"--CODEGEN--\":19795:19800   */\n      dup4\n        /* \"--CODEGEN--\":19791:19805   */\n      add\n        /* \"--CODEGEN--\":19787:19815   */\n      and\n        /* \"--CODEGEN--\":19777:19815   */\n      swap1\n      pop\n        /* \"--CODEGEN--\":19771:19820   */\n      swap2\n      swap1\n      pop\n      jump\n        /* \"--CODEGEN--\":19828:19945   */\n    tag_155:\n        /* \"--CODEGEN--\":19897:19921   */\n      tag_341\n        /* \"--CODEGEN--\":19915:19920   */\n      dup2\n        /* \"--CODEGEN--\":19897:19921   */\n      jump(tag_333)\n    tag_341:\n        /* \"--CODEGEN--\":19890:19895   */\n      dup2\n        /* \"--CODEGEN--\":19887:19922   */\n      eq\n        /* \"--CODEGEN--\":19877:19879   */\n      tag_342\n      jumpi\n        /* \"--CODEGEN--\":19936:19937   */\n      0x00\n        /* \"--CODEGEN--\":19933:19934   */\n      dup1\n        /* \"--CODEGEN--\":19926:19938   */\n      revert\n        /* \"--CODEGEN--\":19877:19879   */\n    tag_342:\n        /* \"--CODEGEN--\":19871:19945   */\n      pop\n      jump\n        /* \"--CODEGEN--\":19952:20069   */\n    tag_204:\n        /* \"--CODEGEN--\":20021:20045   */\n      tag_343\n        /* \"--CODEGEN--\":20039:20044   */\n      dup2\n        /* \"--CODEGEN--\":20021:20045   */\n      jump(tag_336)\n    tag_343:\n        /* \"--CODEGEN--\":20014:20019   */\n      dup2\n        /* \"--CODEGEN--\":20011:20046   */\n      eq\n        /* \"--CODEGEN--\":20001:20003   */\n      tag_344\n      jumpi\n        /* \"--CODEGEN--\":20060:20061   */\n      0x00\n        /* \"--CODEGEN--\":20057:20058   */\n      dup1\n        /* \"--CODEGEN--\":20050:20062   */\n      revert\n        /* \"--CODEGEN--\":20001:20003   */\n    tag_344:\n        /* \"--CODEGEN--\":19995:20069   */\n      pop\n      jump\n        /* \"--CODEGEN--\":20076:20191   */\n    tag_207:\n        /* \"--CODEGEN--\":20144:20167   */\n      tag_345\n        /* \"--CODEGEN--\":20161:20166   */\n      dup2\n        /* \"--CODEGEN--\":20144:20167   */\n      jump(tag_314)\n    tag_345:\n        /* \"--CODEGEN--\":20137:20142   */\n      dup2\n        /* \"--CODEGEN--\":20134:20168   */\n      eq\n        /* \"--CODEGEN--\":20124:20126   */\n      tag_346\n      jumpi\n        /* \"--CODEGEN--\":20182:20183   */\n      0x00\n        /* \"--CODEGEN--\":20179:20180   */\n      dup1\n        /* \"--CODEGEN--\":20172:20184   */\n      revert\n        /* \"--CODEGEN--\":20124:20126   */\n    tag_346:\n        /* \"--CODEGEN--\":20118:20191   */\n      pop\n      jump\n        /* \"--CODEGEN--\":20198:20311   */\n    tag_209:\n        /* \"--CODEGEN--\":20265:20287   */\n      tag_347\n        /* \"--CODEGEN--\":20281:20286   */\n      dup2\n        /* \"--CODEGEN--\":20265:20287   */\n      jump(tag_319)\n    tag_347:\n        /* \"--CODEGEN--\":20258:20263   */\n      dup2\n        /* \"--CODEGEN--\":20255:20288   */\n      eq\n        /* \"--CODEGEN--\":20245:20247   */\n      tag_348\n      jumpi\n        /* \"--CODEGEN--\":20302:20303   */\n      0x00\n        /* \"--CODEGEN--\":20299:20300   */\n      dup1\n        /* \"--CODEGEN--\":20292:20304   */\n      revert\n        /* \"--CODEGEN--\":20245:20247   */\n    tag_348:\n        /* \"--CODEGEN--\":20239:20311   */\n      pop\n      jump\n\n    auxdata: 0xa365627a7a7231582070065cf993cfefd49138c1366129bd7c6d1018a8541bbb58c9d6b95e6b1deb1c6c6578706572696d656e74616cf564736f6c63430005110040\n}\n",
				"bytecode": {
					"linkReferences": {},
					"object": "608060405234801561001057600080fd5b50611844806100206000396000f3fe608060405234801561001057600080fd5b50600436106100935760003560e01c806389069ea71161006657806389069ea7146101085780639361435614610139578063aa86c8fc14610169578063bd28958214610199578063fe7f2692146101b557610093565b80630b3e9bfc14610098578063252e7bed146100b4578063612fa967146100d057806361650af7146100ec575b600080fd5b6100b260048036036100ad91908101906111f7565b6101e5565b005b6100ce60048036036100c9919081019061103e565b610300565b005b6100ea60048036036100e5919081019061103e565b6103cd565b005b61010660048036036101019190810190611150565b610421565b005b610122600480360361011d9190810190610ea8565b6104d4565b6040516101309291906114b8565b60405180910390f35b610153600480360361014e9190810190610fea565b61072b565b6040516101609190611511565b60405180910390f35b610183600480360361017e91908101906110bd565b61077f565b604051610190919061152c565b60405180910390f35b6101b360048036036101ae9190810190610ee9565b61082b565b005b6101cf60048036036101ca9190810190610fea565b610a10565b6040516101dc91906114ef565b60405180910390f35b600060018060036000886040516101fc91906114a1565b9081526020016040518091039020878154811061021557fe5b90600052602060002090600302016000018560405161023491906114a1565b908152602001604051809103902060003373ffffffffffffffffffffffffffffffffffffffff1673ffffffffffffffffffffffffffffffffffffffff16815260200190815260200160002060009054906101000a900460ff1660ff16901c1660ff16149050806102a057fe5b826000866040516102b191906114a1565b908152602001604051809103902085815481106102ca57fe5b906000526020600020906003020160010160006101000a81548163ffffffff021916908363ffffffff1602179055505050505050565b600060018060008660405161031591906114a1565b9081526020016040518091039020858154811061032e57fe5b90600052602060002090600302016000018460405161034d91906114a1565b908152602001604051809103902060003373ffffffffffffffffffffffffffffffffffffffff1673ffffffffffffffffffffffffffffffffffffffff16815260200190815260200160002060009054906101000a900460ff161660ff16149050806103b457fe5b3373ffffffffffffffffffffffffffffffffffffffff16ff5b806000846040516103de91906114a1565b908152602001604051809103902083815481106103f757fe5b9060005260206000209060030201600201908051906020019061041b929190610aed565b50505050565b8060008660405161043291906114a1565b9081526020016040518091039020858154811061044b57fe5b90600052602060002090600302016000018460405161046a91906114a1565b908152602001604051809103902060008473ffffffffffffffffffffffffffffffffffffffff1673ffffffffffffffffffffffffffffffffffffffff16815260200190815260200160002060006101000a81548160ff021916908360ff1602179055505050505050565b60608060606000846040516104e991906114a1565b90815260200160405180910390208054905060405190808252806020026020018201604052801561052e57816020015b60608152602001906001900390816105195790505b509050606060008560405161054391906114a1565b9081526020016040518091039020805490506040519080825280602002602001820160405280156105835781602001602082028038833980820191505090505b50905060008090505b60008660405161059c91906114a1565b90815260200160405180910390208054905081101561071d576000866040516105c591906114a1565b908152602001604051809103902081815481106105de57fe5b90600052602060002090600302016002018054600181600116156101000203166002900480601f0160208091040260200160405190810160405280929190818152602001828054600181600116156101000203166002900480156106835780601f1061065857610100808354040283529160200191610683565b820191906000526020600020905b81548152906001019060200180831161066657829003601f168201915b505050505083828151811061069457fe5b60200260200101819052506000866040516106af91906114a1565b908152602001604051809103902081815481106106c857fe5b906000526020600020906003020160010160009054906101000a900463ffffffff168282815181106106f657fe5b602002602001019063ffffffff16908163ffffffff1681525050808060010191505061058c565b508181935093505050915091565b6000808360405161073c91906114a1565b9081526020016040518091039020828154811061075557fe5b906000526020600020906003020160010160009054906101000a900463ffffffff16905092915050565b6000808560405161079091906114a1565b908152602001604051809103902084815481106107a957fe5b9060005260206000209060030201600001836040516107c891906114a1565b908152602001604051809103902060008373ffffffffffffffffffffffffffffffffffffffff1673ffffffffffffffffffffffffffffffffffffffff16815260200190815260200160002060009054906101000a900460ff169050949350505050565b610833610b6d565b6040518060400160405280600063ffffffff16815260200187815250905060008760405161086191906114a1565b9081526020016040518091039020819080600181540180825580915050906001820390600052602060002090600302016000909192909190915060008201518160010160006101000a81548163ffffffff021916908363ffffffff16021790555060208201518160020190805190602001906108de929190610b8d565b5050505060008090505b82811015610a06578381815181106108fc57fe5b602002602001015160008960405161091491906114a1565b9081526020016040518091039020600160008b60405161093491906114a1565b908152602001604051809103902080549050038154811061095157fe5b906000526020600020906003020160000187838151811061096e57fe5b6020026020010151604051610983919061148a565b9081526020016040518091039020600087848151811061099f57fe5b602002602001015173ffffffffffffffffffffffffffffffffffffffff1673ffffffffffffffffffffffffffffffffffffffff16815260200190815260200160002060006101000a81548160ff021916908360ff16021790555080806001019150506108e8565b5050505050505050565b6060600083604051610a2291906114a1565b90815260200160405180910390208281548110610a3b57fe5b90600052602060002090600302016002018054600181600116156101000203166002900480601f016020809104026020016040519081016040528092919081815260200182805460018160011615610100020316600290048015610ae05780601f10610ab557610100808354040283529160200191610ae0565b820191906000526020600020905b815481529060010190602001808311610ac357829003601f168201915b5050505050905092915050565b828054600181600116156101000203166002900490600052602060002090601f016020900481019282601f10610b2e57805160ff1916838001178555610b5c565b82800160010185558215610b5c579182015b82811115610b5b578251825591602001919060010190610b40565b5b509050610b699190610c0d565b5090565b6040518060400160405280600063ffffffff168152602001606081525090565b828054600181600116156101000203166002900490600052602060002090601f016020900481019282601f10610bce57805160ff1916838001178555610bfc565b82800160010185558215610bfc579182015b82811115610bfb578251825591602001919060010190610be0565b5b509050610c099190610c0d565b5090565b610c2f91905b80821115610c2b576000816000905550600101610c13565b5090565b90565b600081359050610c41816117a5565b92915050565b600082601f830112610c5857600080fd5b8135610c6b610c6682611574565b611547565b91508181835260208401935060208101905083856020840282011115610c9057600080fd5b60005b83811015610cc05781610ca68882610c32565b845260208401935060208301925050600181019050610c93565b5050505092915050565b600082601f830112610cdb57600080fd5b8135610cee610ce98261159c565b611547565b9150818183526020840193506020810190508360005b83811015610d345781358601610d1a8882610dc1565b845260208401935060208301925050600181019050610d04565b5050505092915050565b600082601f830112610d4f57600080fd5b8135610d62610d5d826115c4565b611547565b91508181835260208401935060208101905083856020840282011115610d8757600080fd5b60005b83811015610db75781610d9d8882610e93565b845260208401935060208301925050600181019050610d8a565b5050505092915050565b600082601f830112610dd257600080fd5b8135610de5610de0826115ec565b611547565b91508082526020830160208301858383011115610e0157600080fd5b610e0c838284611752565b50505092915050565b600082601f830112610e2657600080fd5b8135610e39610e3482611618565b611547565b91508082526020830160208301858383011115610e5557600080fd5b610e60838284611752565b50505092915050565b600081359050610e78816117bc565b92915050565b600081359050610e8d816117d3565b92915050565b600081359050610ea2816117ea565b92915050565b600060208284031215610eba57600080fd5b600082013567ffffffffffffffff811115610ed457600080fd5b610ee084828501610e15565b91505092915050565b60008060008060008060c08789031215610f0257600080fd5b600087013567ffffffffffffffff811115610f1c57600080fd5b610f2889828a01610e15565b965050602087013567ffffffffffffffff811115610f4557600080fd5b610f5189828a01610e15565b955050604087013567ffffffffffffffff811115610f6e57600080fd5b610f7a89828a01610cca565b945050606087013567ffffffffffffffff811115610f9757600080fd5b610fa389828a01610c47565b935050608087013567ffffffffffffffff811115610fc057600080fd5b610fcc89828a01610d3e565b92505060a0610fdd89828a01610e69565b9150509295509295509295565b60008060408385031215610ffd57600080fd5b600083013567ffffffffffffffff81111561101757600080fd5b61102385828601610e15565b925050602061103485828601610e69565b9150509250929050565b60008060006060848603121561105357600080fd5b600084013567ffffffffffffffff81111561106d57600080fd5b61107986828701610e15565b935050602061108a86828701610e69565b925050604084013567ffffffffffffffff8111156110a757600080fd5b6110b386828701610e15565b9150509250925092565b600080600080608085870312156110d357600080fd5b600085013567ffffffffffffffff8111156110ed57600080fd5b6110f987828801610e15565b945050602061110a87828801610e69565b935050604085013567ffffffffffffffff81111561112757600080fd5b61113387828801610e15565b925050606061114487828801610c32565b91505092959194509250565b600080600080600060a0868803121561116857600080fd5b600086013567ffffffffffffffff81111561118257600080fd5b61118e88828901610e15565b955050602061119f88828901610e69565b945050604086013567ffffffffffffffff8111156111bc57600080fd5b6111c888828901610e15565b93505060606111d988828901610c32565b92505060806111ea88828901610e93565b9150509295509295909350565b6000806000806080858703121561120d57600080fd5b600085013567ffffffffffffffff81111561122757600080fd5b61123387828801610e15565b945050602061124487828801610e69565b935050604061125587828801610e7e565b925050606085013567ffffffffffffffff81111561127257600080fd5b61127e87828801610e15565b91505092959194509250565b600061129683836113f3565b905092915050565b60006112aa838361145d565b60208301905092915050565b60006112c182611664565b6112cb81856116aa565b9350836020820285016112dd85611644565b8060005b8581101561131957848403895281516112fa858261128a565b945061130583611690565b925060208a019950506001810190506112e1565b50829750879550505050505092915050565b60006113368261166f565b61134081856116bb565b935061134b83611654565b8060005b8381101561137c578151611363888261129e565b975061136e8361169d565b92505060018101905061134f565b5085935050505092915050565b600061139482611685565b61139e81856116dd565b93506113ae818560208601611761565b6113b781611794565b840191505092915050565b60006113cd82611685565b6113d781856116ee565b93506113e7818560208601611761565b80840191505092915050565b60006113fe8261167a565b61140881856116cc565b9350611418818560208601611761565b61142181611794565b840191505092915050565b60006114378261167a565b61144181856116ee565b9350611451818560208601611761565b80840191505092915050565b61146681611735565b82525050565b61147581611735565b82525050565b61148481611745565b82525050565b6000611496828461142c565b915081905092915050565b60006114ad82846113c2565b915081905092915050565b600060408201905081810360008301526114d281856112b6565b905081810360208301526114e6818461132b565b90509392505050565b600060208201905081810360008301526115098184611389565b905092915050565b6000602082019050611526600083018461146c565b92915050565b6000602082019050611541600083018461147b565b92915050565b6000604051905081810181811067ffffffffffffffff8211171561156a57600080fd5b8060405250919050565b600067ffffffffffffffff82111561158b57600080fd5b602082029050602081019050919050565b600067ffffffffffffffff8211156115b357600080fd5b602082029050602081019050919050565b600067ffffffffffffffff8211156115db57600080fd5b602082029050602081019050919050565b600067ffffffffffffffff82111561160357600080fd5b601f19601f8301169050602081019050919050565b600067ffffffffffffffff82111561162f57600080fd5b601f19601f8301169050602081019050919050565b6000819050602082019050919050565b6000819050602082019050919050565b600081519050919050565b600081519050919050565b600081519050919050565b600081519050919050565b6000602082019050919050565b6000602082019050919050565b600082825260208201905092915050565b600082825260208201905092915050565b600082825260208201905092915050565b600082825260208201905092915050565b600081905092915050565b60006117048261170b565b9050919050565b600073ffffffffffffffffffffffffffffffffffffffff82169050919050565b6000819050919050565b600063ffffffff82169050919050565b600060ff82169050919050565b82818337600083830152505050565b60005b8381101561177f578082015181840152602081019050611764565b8381111561178e576000848401525b50505050565b6000601f19601f8301169050919050565b6117ae816116f9565b81146117b957600080fd5b50565b6117c58161172b565b81146117d057600080fd5b50565b6117dc81611735565b81146117e757600080fd5b50565b6117f381611745565b81146117fe57600080fd5b5056fea365627a7a7231582070065cf993cfefd49138c1366129bd7c6d1018a8541bbb58c9d6b95e6b1deb1c6c6578706572696d656e74616cf564736f6c63430005110040",
					"opcodes": "PUSH1 0x80 PUSH1 0x40 MSTORE CALLVALUE DUP1 ISZERO PUSH2 0x10 JUMPI PUSH1 0x0 DUP1 REVERT JUMPDEST POP PUSH2 0x1844 DUP1 PUSH2 0x20 PUSH1 0x0 CODECOPY PUSH1 0x0 RETURN INVALID PUSH1 0x80 PUSH1 0x40 MSTORE CALLVALUE DUP1 ISZERO PUSH2 0x10 JUMPI PUSH1 0x0 DUP1 REVERT JUMPDEST POP PUSH1 0x4 CALLDATASIZE LT PUSH2 0x93 JUMPI PUSH1 0x0 CALLDATALOAD PUSH1 0xE0 SHR DUP1 PUSH4 0x89069EA7 GT PUSH2 0x66 JUMPI DUP1 PUSH4 0x89069EA7 EQ PUSH2 0x108 JUMPI DUP1 PUSH4 0x93614356 EQ PUSH2 0x139 JUMPI DUP1 PUSH4 0xAA86C8FC EQ PUSH2 0x169 JUMPI DUP1 PUSH4 0xBD289582 EQ PUSH2 0x199 JUMPI DUP1 PUSH4 0xFE7F2692 EQ PUSH2 0x1B5 JUMPI PUSH2 0x93 JUMP JUMPDEST DUP1 PUSH4 0xB3E9BFC EQ PUSH2 0x98 JUMPI DUP1 PUSH4 0x252E7BED EQ PUSH2 0xB4 JUMPI DUP1 PUSH4 0x612FA967 EQ PUSH2 0xD0 JUMPI DUP1 PUSH4 0x61650AF7 EQ PUSH2 0xEC JUMPI JUMPDEST PUSH1 0x0 DUP1 REVERT JUMPDEST PUSH2 0xB2 PUSH1 0x4 DUP1 CALLDATASIZE SUB PUSH2 0xAD SWAP2 SWAP1 DUP2 ADD SWAP1 PUSH2 0x11F7 JUMP JUMPDEST PUSH2 0x1E5 JUMP JUMPDEST STOP JUMPDEST PUSH2 0xCE PUSH1 0x4 DUP1 CALLDATASIZE SUB PUSH2 0xC9 SWAP2 SWAP1 DUP2 ADD SWAP1 PUSH2 0x103E JUMP JUMPDEST PUSH2 0x300 JUMP JUMPDEST STOP JUMPDEST PUSH2 0xEA PUSH1 0x4 DUP1 CALLDATASIZE SUB PUSH2 0xE5 SWAP2 SWAP1 DUP2 ADD SWAP1 PUSH2 0x103E JUMP JUMPDEST PUSH2 0x3CD JUMP JUMPDEST STOP JUMPDEST PUSH2 0x106 PUSH1 0x4 DUP1 CALLDATASIZE SUB PUSH2 0x101 SWAP2 SWAP1 DUP2 ADD SWAP1 PUSH2 0x1150 JUMP JUMPDEST PUSH2 0x421 JUMP JUMPDEST STOP JUMPDEST PUSH2 0x122 PUSH1 0x4 DUP1 CALLDATASIZE SUB PUSH2 0x11D SWAP2 SWAP1 DUP2 ADD SWAP1 PUSH2 0xEA8 JUMP JUMPDEST PUSH2 0x4D4 JUMP JUMPDEST PUSH1 0x40 MLOAD PUSH2 0x130 SWAP3 SWAP2 SWAP1 PUSH2 0x14B8 JUMP JUMPDEST PUSH1 0x40 MLOAD DUP1 SWAP2 SUB SWAP1 RETURN JUMPDEST PUSH2 0x153 PUSH1 0x4 DUP1 CALLDATASIZE SUB PUSH2 0x14E SWAP2 SWAP1 DUP2 ADD SWAP1 PUSH2 0xFEA JUMP JUMPDEST PUSH2 0x72B JUMP JUMPDEST PUSH1 0x40 MLOAD PUSH2 0x160 SWAP2 SWAP1 PUSH2 0x1511 JUMP JUMPDEST PUSH1 0x40 MLOAD DUP1 SWAP2 SUB SWAP1 RETURN JUMPDEST PUSH2 0x183 PUSH1 0x4 DUP1 CALLDATASIZE SUB PUSH2 0x17E SWAP2 SWAP1 DUP2 ADD SWAP1 PUSH2 0x10BD JUMP JUMPDEST PUSH2 0x77F JUMP JUMPDEST PUSH1 0x40 MLOAD PUSH2 0x190 SWAP2 SWAP1 PUSH2 0x152C JUMP JUMPDEST PUSH1 0x40 MLOAD DUP1 SWAP2 SUB SWAP1 RETURN JUMPDEST PUSH2 0x1B3 PUSH1 0x4 DUP1 CALLDATASIZE SUB PUSH2 0x1AE SWAP2 SWAP1 DUP2 ADD SWAP1 PUSH2 0xEE9 JUMP JUMPDEST PUSH2 0x82B JUMP JUMPDEST STOP JUMPDEST PUSH2 0x1CF PUSH1 0x4 DUP1 CALLDATASIZE SUB PUSH2 0x1CA SWAP2 SWAP1 DUP2 ADD SWAP1 PUSH2 0xFEA JUMP JUMPDEST PUSH2 0xA10 JUMP JUMPDEST PUSH1 0x40 MLOAD PUSH2 0x1DC SWAP2 SWAP1 PUSH2 0x14EF JUMP JUMPDEST PUSH1 0x40 MLOAD DUP1 SWAP2 SUB SWAP1 RETURN JUMPDEST PUSH1 0x0 PUSH1 0x1 DUP1 PUSH1 0x3 PUSH1 0x0 DUP9 PUSH1 0x40 MLOAD PUSH2 0x1FC SWAP2 SWAP1 PUSH2 0x14A1 JUMP JUMPDEST SWAP1 DUP2 MSTORE PUSH1 0x20 ADD PUSH1 0x40 MLOAD DUP1 SWAP2 SUB SWAP1 KECCAK256 DUP8 DUP2 SLOAD DUP2 LT PUSH2 0x215 JUMPI INVALID JUMPDEST SWAP1 PUSH1 0x0 MSTORE PUSH1 0x20 PUSH1 0x0 KECCAK256 SWAP1 PUSH1 0x3 MUL ADD PUSH1 0x0 ADD DUP6 PUSH1 0x40 MLOAD PUSH2 0x234 SWAP2 SWAP1 PUSH2 0x14A1 JUMP JUMPDEST SWAP1 DUP2 MSTORE PUSH1 0x20 ADD PUSH1 0x40 MLOAD DUP1 SWAP2 SUB SWAP1 KECCAK256 PUSH1 0x0 CALLER PUSH20 0xFFFFFFFFFFFFFFFFFFFFFFFFFFFFFFFFFFFFFFFF AND PUSH20 0xFFFFFFFFFFFFFFFFFFFFFFFFFFFFFFFFFFFFFFFF AND DUP2 MSTORE PUSH1 0x20 ADD SWAP1 DUP2 MSTORE PUSH1 0x20 ADD PUSH1 0x0 KECCAK256 PUSH1 0x0 SWAP1 SLOAD SWAP1 PUSH2 0x100 EXP SWAP1 DIV PUSH1 0xFF AND PUSH1 0xFF AND SWAP1 SHR AND PUSH1 0xFF AND EQ SWAP1 POP DUP1 PUSH2 0x2A0 JUMPI INVALID JUMPDEST DUP3 PUSH1 0x0 DUP7 PUSH1 0x40 MLOAD PUSH2 0x2B1 SWAP2 SWAP1 PUSH2 0x14A1 JUMP JUMPDEST SWAP1 DUP2 MSTORE PUSH1 0x20 ADD PUSH1 0x40 MLOAD DUP1 SWAP2 SUB SWAP1 KECCAK256 DUP6 DUP2 SLOAD DUP2 LT PUSH2 0x2CA JUMPI INVALID JUMPDEST SWAP1 PUSH1 0x0 MSTORE PUSH1 0x20 PUSH1 0x0 KECCAK256 SWAP1 PUSH1 0x3 MUL ADD PUSH1 0x1 ADD PUSH1 0x0 PUSH2 0x100 EXP DUP2 SLOAD DUP2 PUSH4 0xFFFFFFFF MUL NOT AND SWAP1 DUP4 PUSH4 0xFFFFFFFF AND MUL OR SWAP1 SSTORE POP POP POP POP POP POP JUMP JUMPDEST PUSH1 0x0 PUSH1 0x1 DUP1 PUSH1 0x0 DUP7 PUSH1 0x40 MLOAD PUSH2 0x315 SWAP2 SWAP1 PUSH2 0x14A1 JUMP JUMPDEST SWAP1 DUP2 MSTORE PUSH1 0x20 ADD PUSH1 0x40 MLOAD DUP1 SWAP2 SUB SWAP1 KECCAK256 DUP6 DUP2 SLOAD DUP2 LT PUSH2 0x32E JUMPI INVALID JUMPDEST SWAP1 PUSH1 0x0 MSTORE PUSH1 0x20 PUSH1 0x0 KECCAK256 SWAP1 PUSH1 0x3 MUL ADD PUSH1 0x0 ADD DUP5 PUSH1 0x40 MLOAD PUSH2 0x34D SWAP2 SWAP1 PUSH2 0x14A1 JUMP JUMPDEST SWAP1 DUP2 MSTORE PUSH1 0x20 ADD PUSH1 0x40 MLOAD DUP1 SWAP2 SUB SWAP1 KECCAK256 PUSH1 0x0 CALLER PUSH20 0xFFFFFFFFFFFFFFFFFFFFFFFFFFFFFFFFFFFFFFFF AND PUSH20 0xFFFFFFFFFFFFFFFFFFFFFFFFFFFFFFFFFFFFFFFF AND DUP2 MSTORE PUSH1 0x20 ADD SWAP1 DUP2 MSTORE PUSH1 0x20 ADD PUSH1 0x0 KECCAK256 PUSH1 0x0 SWAP1 SLOAD SWAP1 PUSH2 0x100 EXP SWAP1 DIV PUSH1 0xFF AND AND PUSH1 0xFF AND EQ SWAP1 POP DUP1 PUSH2 0x3B4 JUMPI INVALID JUMPDEST CALLER PUSH20 0xFFFFFFFFFFFFFFFFFFFFFFFFFFFFFFFFFFFFFFFF AND SELFDESTRUCT JUMPDEST DUP1 PUSH1 0x0 DUP5 PUSH1 0x40 MLOAD PUSH2 0x3DE SWAP2 SWAP1 PUSH2 0x14A1 JUMP JUMPDEST SWAP1 DUP2 MSTORE PUSH1 0x20 ADD PUSH1 0x40 MLOAD DUP1 SWAP2 SUB SWAP1 KECCAK256 DUP4 DUP2 SLOAD DUP2 LT PUSH2 0x3F7 JUMPI INVALID JUMPDEST SWAP1 PUSH1 0x0 MSTORE PUSH1 0x20 PUSH1 0x0 KECCAK256 SWAP1 PUSH1 0x3 MUL ADD PUSH1 0x2 ADD SWAP1 DUP1 MLOAD SWAP1 PUSH1 0x20 ADD SWAP1 PUSH2 0x41B SWAP3 SWAP2 SWAP1 PUSH2 0xAED JUMP JUMPDEST POP POP POP POP JUMP JUMPDEST DUP1 PUSH1 0x0 DUP7 PUSH1 0x40 MLOAD PUSH2 0x432 SWAP2 SWAP1 PUSH2 0x14A1 JUMP JUMPDEST SWAP1 DUP2 MSTORE PUSH1 0x20 ADD PUSH1 0x40 MLOAD DUP1 SWAP2 SUB SWAP1 KECCAK256 DUP6 DUP2 SLOAD DUP2 LT PUSH2 0x44B JUMPI INVALID JUMPDEST SWAP1 PUSH1 0x0 MSTORE PUSH1 0x20 PUSH1 0x0 KECCAK256 SWAP1 PUSH1 0x3 MUL ADD PUSH1 0x0 ADD DUP5 PUSH1 0x40 MLOAD PUSH2 0x46A SWAP2 SWAP1 PUSH2 0x14A1 JUMP JUMPDEST SWAP1 DUP2 MSTORE PUSH1 0x20 ADD PUSH1 0x40 MLOAD DUP1 SWAP2 SUB SWAP1 KECCAK256 PUSH1 0x0 DUP5 PUSH20 0xFFFFFFFFFFFFFFFFFFFFFFFFFFFFFFFFFFFFFFFF AND PUSH20 0xFFFFFFFFFFFFFFFFFFFFFFFFFFFFFFFFFFFFFFFF AND DUP2 MSTORE PUSH1 0x20 ADD SWAP1 DUP2 MSTORE PUSH1 0x20 ADD PUSH1 0x0 KECCAK256 PUSH1 0x0 PUSH2 0x100 EXP DUP2 SLOAD DUP2 PUSH1 0xFF MUL NOT AND SWAP1 DUP4 PUSH1 0xFF AND MUL OR SWAP1 SSTORE POP POP POP POP POP POP JUMP JUMPDEST PUSH1 0x60 DUP1 PUSH1 0x60 PUSH1 0x0 DUP5 PUSH1 0x40 MLOAD PUSH2 0x4E9 SWAP2 SWAP1 PUSH2 0x14A1 JUMP JUMPDEST SWAP1 DUP2 MSTORE PUSH1 0x20 ADD PUSH1 0x40 MLOAD DUP1 SWAP2 SUB SWAP1 KECCAK256 DUP1 SLOAD SWAP1 POP PUSH1 0x40 MLOAD SWAP1 DUP1 DUP3 MSTORE DUP1 PUSH1 0x20 MUL PUSH1 0x20 ADD DUP3 ADD PUSH1 0x40 MSTORE DUP1 ISZERO PUSH2 0x52E JUMPI DUP2 PUSH1 0x20 ADD JUMPDEST PUSH1 0x60 DUP2 MSTORE PUSH1 0x20 ADD SWAP1 PUSH1 0x1 SWAP1 SUB SWAP1 DUP2 PUSH2 0x519 JUMPI SWAP1 POP JUMPDEST POP SWAP1 POP PUSH1 0x60 PUSH1 0x0 DUP6 PUSH1 0x40 MLOAD PUSH2 0x543 SWAP2 SWAP1 PUSH2 0x14A1 JUMP JUMPDEST SWAP1 DUP2 MSTORE PUSH1 0x20 ADD PUSH1 0x40 MLOAD DUP1 SWAP2 SUB SWAP1 KECCAK256 DUP1 SLOAD SWAP1 POP PUSH1 0x40 MLOAD SWAP1 DUP1 DUP3 MSTORE DUP1 PUSH1 0x20 MUL PUSH1 0x20 ADD DUP3 ADD PUSH1 0x40 MSTORE DUP1 ISZERO PUSH2 0x583 JUMPI DUP2 PUSH1 0x20 ADD PUSH1 0x20 DUP3 MUL DUP1 CODESIZE DUP4 CODECOPY DUP1 DUP3 ADD SWAP2 POP POP SWAP1 POP JUMPDEST POP SWAP1 POP PUSH1 0x0 DUP1 SWAP1 POP JUMPDEST PUSH1 0x0 DUP7 PUSH1 0x40 MLOAD PUSH2 0x59C SWAP2 SWAP1 PUSH2 0x14A1 JUMP JUMPDEST SWAP1 DUP2 MSTORE PUSH1 0x20 ADD PUSH1 0x40 MLOAD DUP1 SWAP2 SUB SWAP1 KECCAK256 DUP1 SLOAD SWAP1 POP DUP2 LT ISZERO PUSH2 0x71D JUMPI PUSH1 0x0 DUP7 PUSH1 0x40 MLOAD PUSH2 0x5C5 SWAP2 SWAP1 PUSH2 0x14A1 JUMP JUMPDEST SWAP1 DUP2 MSTORE PUSH1 0x20 ADD PUSH1 0x40 MLOAD DUP1 SWAP2 SUB SWAP1 KECCAK256 DUP2 DUP2 SLOAD DUP2 LT PUSH2 0x5DE JUMPI INVALID JUMPDEST SWAP1 PUSH1 0x0 MSTORE PUSH1 0x20 PUSH1 0x0 KECCAK256 SWAP1 PUSH1 0x3 MUL ADD PUSH1 0x2 ADD DUP1 SLOAD PUSH1 0x1 DUP2 PUSH1 0x1 AND ISZERO PUSH2 0x100 MUL SUB AND PUSH1 0x2 SWAP1 DIV DUP1 PUSH1 0x1F ADD PUSH1 0x20 DUP1 SWAP2 DIV MUL PUSH1 0x20 ADD PUSH1 0x40 MLOAD SWAP1 DUP2 ADD PUSH1 0x40 MSTORE DUP1 SWAP3 SWAP2 SWAP1 DUP2 DUP2 MSTORE PUSH1 0x20 ADD DUP3 DUP1 SLOAD PUSH1 0x1 DUP2 PUSH1 0x1 AND ISZERO PUSH2 0x100 MUL SUB AND PUSH1 0x2 SWAP1 DIV DUP1 ISZERO PUSH2 0x683 JUMPI DUP1 PUSH1 0x1F LT PUSH2 0x658 JUMPI PUSH2 0x100 DUP1 DUP4 SLOAD DIV MUL DUP4 MSTORE SWAP2 PUSH1 0x20 ADD SWAP2 PUSH2 0x683 JUMP JUMPDEST DUP3 ADD SWAP2 SWAP1 PUSH1 0x0 MSTORE PUSH1 0x20 PUSH1 0x0 KECCAK256 SWAP1 JUMPDEST DUP2 SLOAD DUP2 MSTORE SWAP1 PUSH1 0x1 ADD SWAP1 PUSH1 0x20 ADD DUP1 DUP4 GT PUSH2 0x666 JUMPI DUP3 SWAP1 SUB PUSH1 0x1F AND DUP3 ADD SWAP2 JUMPDEST POP POP POP POP POP DUP4 DUP3 DUP2 MLOAD DUP2 LT PUSH2 0x694 JUMPI INVALID JUMPDEST PUSH1 0x20 MUL PUSH1 0x20 ADD ADD DUP2 SWAP1 MSTORE POP PUSH1 0x0 DUP7 PUSH1 0x40 MLOAD PUSH2 0x6AF SWAP2 SWAP1 PUSH2 0x14A1 JUMP JUMPDEST SWAP1 DUP2 MSTORE PUSH1 0x20 ADD PUSH1 0x40 MLOAD DUP1 SWAP2 SUB SWAP1 KECCAK256 DUP2 DUP2 SLOAD DUP2 LT PUSH2 0x6C8 JUMPI INVALID JUMPDEST SWAP1 PUSH1 0x0 MSTORE PUSH1 0x20 PUSH1 0x0 KECCAK256 SWAP1 PUSH1 0x3 MUL ADD PUSH1 0x1 ADD PUSH1 0x0 SWAP1 SLOAD SWAP1 PUSH2 0x100 EXP SWAP1 DIV PUSH4 0xFFFFFFFF AND DUP3 DUP3 DUP2 MLOAD DUP2 LT PUSH2 0x6F6 JUMPI INVALID JUMPDEST PUSH1 0x20 MUL PUSH1 0x20 ADD ADD SWAP1 PUSH4 0xFFFFFFFF AND SWAP1 DUP2 PUSH4 0xFFFFFFFF AND DUP2 MSTORE POP POP DUP1 DUP1 PUSH1 0x1 ADD SWAP2 POP POP PUSH2 0x58C JUMP JUMPDEST POP DUP2 DUP2 SWAP4 POP SWAP4 POP POP POP SWAP2 POP SWAP2 JUMP JUMPDEST PUSH1 0x0 DUP1 DUP4 PUSH1 0x40 MLOAD PUSH2 0x73C SWAP2 SWAP1 PUSH2 0x14A1 JUMP JUMPDEST SWAP1 DUP2 MSTORE PUSH1 0x20 ADD PUSH1 0x40 MLOAD DUP1 SWAP2 SUB SWAP1 KECCAK256 DUP3 DUP2 SLOAD DUP2 LT PUSH2 0x755 JUMPI INVALID JUMPDEST SWAP1 PUSH1 0x0 MSTORE PUSH1 0x20 PUSH1 0x0 KECCAK256 SWAP1 PUSH1 0x3 MUL ADD PUSH1 0x1 ADD PUSH1 0x0 SWAP1 SLOAD SWAP1 PUSH2 0x100 EXP SWAP1 DIV PUSH4 0xFFFFFFFF AND SWAP1 POP SWAP3 SWAP2 POP POP JUMP JUMPDEST PUSH1 0x0 DUP1 DUP6 PUSH1 0x40 MLOAD PUSH2 0x790 SWAP2 SWAP1 PUSH2 0x14A1 JUMP JUMPDEST SWAP1 DUP2 MSTORE PUSH1 0x20 ADD PUSH1 0x40 MLOAD DUP1 SWAP2 SUB SWAP1 KECCAK256 DUP5 DUP2 SLOAD DUP2 LT PUSH2 0x7A9 JUMPI INVALID JUMPDEST SWAP1 PUSH1 0x0 MSTORE PUSH1 0x20 PUSH1 0x0 KECCAK256 SWAP1 PUSH1 0x3 MUL ADD PUSH1 0x0 ADD DUP4 PUSH1 0x40 MLOAD PUSH2 0x7C8 SWAP2 SWAP1 PUSH2 0x14A1 JUMP JUMPDEST SWAP1 DUP2 MSTORE PUSH1 0x20 ADD PUSH1 0x40 MLOAD DUP1 SWAP2 SUB SWAP1 KECCAK256 PUSH1 0x0 DUP4 PUSH20 0xFFFFFFFFFFFFFFFFFFFFFFFFFFFFFFFFFFFFFFFF AND PUSH20 0xFFFFFFFFFFFFFFFFFFFFFFFFFFFFFFFFFFFFFFFF AND DUP2 MSTORE PUSH1 0x20 ADD SWAP1 DUP2 MSTORE PUSH1 0x20 ADD PUSH1 0x0 KECCAK256 PUSH1 0x0 SWAP1 SLOAD SWAP1 PUSH2 0x100 EXP SWAP1 DIV PUSH1 0xFF AND SWAP1 POP SWAP5 SWAP4 POP POP POP POP JUMP JUMPDEST PUSH2 0x833 PUSH2 0xB6D JUMP JUMPDEST PUSH1 0x40 MLOAD DUP1 PUSH1 0x40 ADD PUSH1 0x40 MSTORE DUP1 PUSH1 0x0 PUSH4 0xFFFFFFFF AND DUP2 MSTORE PUSH1 0x20 ADD DUP8 DUP2 MSTORE POP SWAP1 POP PUSH1 0x0 DUP8 PUSH1 0x40 MLOAD PUSH2 0x861 SWAP2 SWAP1 PUSH2 0x14A1 JUMP JUMPDEST SWAP1 DUP2 MSTORE PUSH1 0x20 ADD PUSH1 0x40 MLOAD DUP1 SWAP2 SUB SWAP1 KECCAK256 DUP2 SWAP1 DUP1 PUSH1 0x1 DUP2 SLOAD ADD DUP1 DUP3 SSTORE DUP1 SWAP2 POP POP SWAP1 PUSH1 0x1 DUP3 SUB SWAP1 PUSH1 0x0 MSTORE PUSH1 0x20 PUSH1 0x0 KECCAK256 SWAP1 PUSH1 0x3 MUL ADD PUSH1 0x0 SWAP1 SWAP2 SWAP3 SWAP1 SWAP2 SWAP1 SWAP2 POP PUSH1 0x0 DUP3 ADD MLOAD DUP2 PUSH1 0x1 ADD PUSH1 0x0 PUSH2 0x100 EXP DUP2 SLOAD DUP2 PUSH4 0xFFFFFFFF MUL NOT AND SWAP1 DUP4 PUSH4 0xFFFFFFFF AND MUL OR SWAP1 SSTORE POP PUSH1 0x20 DUP3 ADD MLOAD DUP2 PUSH1 0x2 ADD SWAP1 DUP1 MLOAD SWAP1 PUSH1 0x20 ADD SWAP1 PUSH2 0x8DE SWAP3 SWAP2 SWAP1 PUSH2 0xB8D JUMP JUMPDEST POP POP POP POP PUSH1 0x0 DUP1 SWAP1 POP JUMPDEST DUP3 DUP2 LT ISZERO PUSH2 0xA06 JUMPI DUP4 DUP2 DUP2 MLOAD DUP2 LT PUSH2 0x8FC JUMPI INVALID JUMPDEST PUSH1 0x20 MUL PUSH1 0x20 ADD ADD MLOAD PUSH1 0x0 DUP10 PUSH1 0x40 MLOAD PUSH2 0x914 SWAP2 SWAP1 PUSH2 0x14A1 JUMP JUMPDEST SWAP1 DUP2 MSTORE PUSH1 0x20 ADD PUSH1 0x40 MLOAD DUP1 SWAP2 SUB SWAP1 KECCAK256 PUSH1 0x1 PUSH1 0x0 DUP12 PUSH1 0x40 MLOAD PUSH2 0x934 SWAP2 SWAP1 PUSH2 0x14A1 JUMP JUMPDEST SWAP1 DUP2 MSTORE PUSH1 0x20 ADD PUSH1 0x40 MLOAD DUP1 SWAP2 SUB SWAP1 KECCAK256 DUP1 SLOAD SWAP1 POP SUB DUP2 SLOAD DUP2 LT PUSH2 0x951 JUMPI INVALID JUMPDEST SWAP1 PUSH1 0x0 MSTORE PUSH1 0x20 PUSH1 0x0 KECCAK256 SWAP1 PUSH1 0x3 MUL ADD PUSH1 0x0 ADD DUP8 DUP4 DUP2 MLOAD DUP2 LT PUSH2 0x96E JUMPI INVALID JUMPDEST PUSH1 0x20 MUL PUSH1 0x20 ADD ADD MLOAD PUSH1 0x40 MLOAD PUSH2 0x983 SWAP2 SWAP1 PUSH2 0x148A JUMP JUMPDEST SWAP1 DUP2 MSTORE PUSH1 0x20 ADD PUSH1 0x40 MLOAD DUP1 SWAP2 SUB SWAP1 KECCAK256 PUSH1 0x0 DUP8 DUP5 DUP2 MLOAD DUP2 LT PUSH2 0x99F JUMPI INVALID JUMPDEST PUSH1 0x20 MUL PUSH1 0x20 ADD ADD MLOAD PUSH20 0xFFFFFFFFFFFFFFFFFFFFFFFFFFFFFFFFFFFFFFFF AND PUSH20 0xFFFFFFFFFFFFFFFFFFFFFFFFFFFFFFFFFFFFFFFF AND DUP2 MSTORE PUSH1 0x20 ADD SWAP1 DUP2 MSTORE PUSH1 0x20 ADD PUSH1 0x0 KECCAK256 PUSH1 0x0 PUSH2 0x100 EXP DUP2 SLOAD DUP2 PUSH1 0xFF MUL NOT AND SWAP1 DUP4 PUSH1 0xFF AND MUL OR SWAP1 SSTORE POP DUP1 DUP1 PUSH1 0x1 ADD SWAP2 POP POP PUSH2 0x8E8 JUMP JUMPDEST POP POP POP POP POP POP POP POP JUMP JUMPDEST PUSH1 0x60 PUSH1 0x0 DUP4 PUSH1 0x40 MLOAD PUSH2 0xA22 SWAP2 SWAP1 PUSH2 0x14A1 JUMP JUMPDEST SWAP1 DUP2 MSTORE PUSH1 0x20 ADD PUSH1 0x40 MLOAD DUP1 SWAP2 SUB SWAP1 KECCAK256 DUP3 DUP2 SLOAD DUP2 LT PUSH2 0xA3B JUMPI INVALID JUMPDEST SWAP1 PUSH1 0x0 MSTORE PUSH1 0x20 PUSH1 0x0 KECCAK256 SWAP1 PUSH1 0x3 MUL ADD PUSH1 0x2 ADD DUP1 SLOAD PUSH1 0x1 DUP2 PUSH1 0x1 AND ISZERO PUSH2 0x100 MUL SUB AND PUSH1 0x2 SWAP1 DIV DUP1 PUSH1 0x1F ADD PUSH1 0x20 DUP1 SWAP2 DIV MUL PUSH1 0x20 ADD PUSH1 0x40 MLOAD SWAP1 DUP2 ADD PUSH1 0x40 MSTORE DUP1 SWAP3 SWAP2 SWAP1 DUP2 DUP2 MSTORE PUSH1 0x20 ADD DUP3 DUP1 SLOAD PUSH1 0x1 DUP2 PUSH1 0x1 AND ISZERO PUSH2 0x100 MUL SUB AND PUSH1 0x2 SWAP1 DIV DUP1 ISZERO PUSH2 0xAE0 JUMPI DUP1 PUSH1 0x1F LT PUSH2 0xAB5 JUMPI PUSH2 0x100 DUP1 DUP4 SLOAD DIV MUL DUP4 MSTORE SWAP2 PUSH1 0x20 ADD SWAP2 PUSH2 0xAE0 JUMP JUMPDEST DUP3 ADD SWAP2 SWAP1 PUSH1 0x0 MSTORE PUSH1 0x20 PUSH1 0x0 KECCAK256 SWAP1 JUMPDEST DUP2 SLOAD DUP2 MSTORE SWAP1 PUSH1 0x1 ADD SWAP1 PUSH1 0x20 ADD DUP1 DUP4 GT PUSH2 0xAC3 JUMPI DUP3 SWAP1 SUB PUSH1 0x1F AND DUP3 ADD SWAP2 JUMPDEST POP POP POP POP POP SWAP1 POP SWAP3 SWAP2 POP POP JUMP JUMPDEST DUP3 DUP1 SLOAD PUSH1 0x1 DUP2 PUSH1 0x1 AND ISZERO PUSH2 0x100 MUL SUB AND PUSH1 0x2 SWAP1 DIV SWAP1 PUSH1 0x0 MSTORE PUSH1 0x20 PUSH1 0x0 KECCAK256 SWAP1 PUSH1 0x1F ADD PUSH1 0x20 SWAP1 DIV DUP2 ADD SWAP3 DUP3 PUSH1 0x1F LT PUSH2 0xB2E JUMPI DUP1 MLOAD PUSH1 0xFF NOT AND DUP4 DUP1 ADD OR DUP6 SSTORE PUSH2 0xB5C JUMP JUMPDEST DUP3 DUP1 ADD PUSH1 0x1 ADD DUP6 SSTORE DUP3 ISZERO PUSH2 0xB5C JUMPI SWAP2 DUP3 ADD JUMPDEST DUP3 DUP2 GT ISZERO PUSH2 0xB5B JUMPI DUP3 MLOAD DUP3 SSTORE SWAP2 PUSH1 0x20 ADD SWAP2 SWAP1 PUSH1 0x1 ADD SWAP1 PUSH2 0xB40 JUMP JUMPDEST JUMPDEST POP SWAP1 POP PUSH2 0xB69 SWAP2 SWAP1 PUSH2 0xC0D JUMP JUMPDEST POP SWAP1 JUMP JUMPDEST PUSH1 0x40 MLOAD DUP1 PUSH1 0x40 ADD PUSH1 0x40 MSTORE DUP1 PUSH1 0x0 PUSH4 0xFFFFFFFF AND DUP2 MSTORE PUSH1 0x20 ADD PUSH1 0x60 DUP2 MSTORE POP SWAP1 JUMP JUMPDEST DUP3 DUP1 SLOAD PUSH1 0x1 DUP2 PUSH1 0x1 AND ISZERO PUSH2 0x100 MUL SUB AND PUSH1 0x2 SWAP1 DIV SWAP1 PUSH1 0x0 MSTORE PUSH1 0x20 PUSH1 0x0 KECCAK256 SWAP1 PUSH1 0x1F ADD PUSH1 0x20 SWAP1 DIV DUP2 ADD SWAP3 DUP3 PUSH1 0x1F LT PUSH2 0xBCE JUMPI DUP1 MLOAD PUSH1 0xFF NOT AND DUP4 DUP1 ADD OR DUP6 SSTORE PUSH2 0xBFC JUMP JUMPDEST DUP3 DUP1 ADD PUSH1 0x1 ADD DUP6 SSTORE DUP3 ISZERO PUSH2 0xBFC JUMPI SWAP2 DUP3 ADD JUMPDEST DUP3 DUP2 GT ISZERO PUSH2 0xBFB JUMPI DUP3 MLOAD DUP3 SSTORE SWAP2 PUSH1 0x20 ADD SWAP2 SWAP1 PUSH1 0x1 ADD SWAP1 PUSH2 0xBE0 JUMP JUMPDEST JUMPDEST POP SWAP1 POP PUSH2 0xC09 SWAP2 SWAP1 PUSH2 0xC0D JUMP JUMPDEST POP SWAP1 JUMP JUMPDEST PUSH2 0xC2F SWAP2 SWAP1 JUMPDEST DUP1 DUP3 GT ISZERO PUSH2 0xC2B JUMPI PUSH1 0x0 DUP2 PUSH1 0x0 SWAP1 SSTORE POP PUSH1 0x1 ADD PUSH2 0xC13 JUMP JUMPDEST POP SWAP1 JUMP JUMPDEST SWAP1 JUMP JUMPDEST PUSH1 0x0 DUP2 CALLDATALOAD SWAP1 POP PUSH2 0xC41 DUP2 PUSH2 0x17A5 JUMP JUMPDEST SWAP3 SWAP2 POP POP JUMP JUMPDEST PUSH1 0x0 DUP3 PUSH1 0x1F DUP4 ADD SLT PUSH2 0xC58 JUMPI PUSH1 0x0 DUP1 REVERT JUMPDEST DUP2 CALLDATALOAD PUSH2 0xC6B PUSH2 0xC66 DUP3 PUSH2 0x1574 JUMP JUMPDEST PUSH2 0x1547 JUMP JUMPDEST SWAP2 POP DUP2 DUP2 DUP4 MSTORE PUSH1 0x20 DUP5 ADD SWAP4 POP PUSH1 0x20 DUP2 ADD SWAP1 POP DUP4 DUP6 PUSH1 0x20 DUP5 MUL DUP3 ADD GT ISZERO PUSH2 0xC90 JUMPI PUSH1 0x0 DUP1 REVERT JUMPDEST PUSH1 0x0 JUMPDEST DUP4 DUP2 LT ISZERO PUSH2 0xCC0 JUMPI DUP2 PUSH2 0xCA6 DUP9 DUP3 PUSH2 0xC32 JUMP JUMPDEST DUP5 MSTORE PUSH1 0x20 DUP5 ADD SWAP4 POP PUSH1 0x20 DUP4 ADD SWAP3 POP POP PUSH1 0x1 DUP2 ADD SWAP1 POP PUSH2 0xC93 JUMP JUMPDEST POP POP POP POP SWAP3 SWAP2 POP POP JUMP JUMPDEST PUSH1 0x0 DUP3 PUSH1 0x1F DUP4 ADD SLT PUSH2 0xCDB JUMPI PUSH1 0x0 DUP1 REVERT JUMPDEST DUP2 CALLDATALOAD PUSH2 0xCEE PUSH2 0xCE9 DUP3 PUSH2 0x159C JUMP JUMPDEST PUSH2 0x1547 JUMP JUMPDEST SWAP2 POP DUP2 DUP2 DUP4 MSTORE PUSH1 0x20 DUP5 ADD SWAP4 POP PUSH1 0x20 DUP2 ADD SWAP1 POP DUP4 PUSH1 0x0 JUMPDEST DUP4 DUP2 LT ISZERO PUSH2 0xD34 JUMPI DUP2 CALLDATALOAD DUP7 ADD PUSH2 0xD1A DUP9 DUP3 PUSH2 0xDC1 JUMP JUMPDEST DUP5 MSTORE PUSH1 0x20 DUP5 ADD SWAP4 POP PUSH1 0x20 DUP4 ADD SWAP3 POP POP PUSH1 0x1 DUP2 ADD SWAP1 POP PUSH2 0xD04 JUMP JUMPDEST POP POP POP POP SWAP3 SWAP2 POP POP JUMP JUMPDEST PUSH1 0x0 DUP3 PUSH1 0x1F DUP4 ADD SLT PUSH2 0xD4F JUMPI PUSH1 0x0 DUP1 REVERT JUMPDEST DUP2 CALLDATALOAD PUSH2 0xD62 PUSH2 0xD5D DUP3 PUSH2 0x15C4 JUMP JUMPDEST PUSH2 0x1547 JUMP JUMPDEST SWAP2 POP DUP2 DUP2 DUP4 MSTORE PUSH1 0x20 DUP5 ADD SWAP4 POP PUSH1 0x20 DUP2 ADD SWAP1 POP DUP4 DUP6 PUSH1 0x20 DUP5 MUL DUP3 ADD GT ISZERO PUSH2 0xD87 JUMPI PUSH1 0x0 DUP1 REVERT JUMPDEST PUSH1 0x0 JUMPDEST DUP4 DUP2 LT ISZERO PUSH2 0xDB7 JUMPI DUP2 PUSH2 0xD9D DUP9 DUP3 PUSH2 0xE93 JUMP JUMPDEST DUP5 MSTORE PUSH1 0x20 DUP5 ADD SWAP4 POP PUSH1 0x20 DUP4 ADD SWAP3 POP POP PUSH1 0x1 DUP2 ADD SWAP1 POP PUSH2 0xD8A JUMP JUMPDEST POP POP POP POP SWAP3 SWAP2 POP POP JUMP JUMPDEST PUSH1 0x0 DUP3 PUSH1 0x1F DUP4 ADD SLT PUSH2 0xDD2 JUMPI PUSH1 0x0 DUP1 REVERT JUMPDEST DUP2 CALLDATALOAD PUSH2 0xDE5 PUSH2 0xDE0 DUP3 PUSH2 0x15EC JUMP JUMPDEST PUSH2 0x1547 JUMP JUMPDEST SWAP2 POP DUP1 DUP3 MSTORE PUSH1 0x20 DUP4 ADD PUSH1 0x20 DUP4 ADD DUP6 DUP4 DUP4 ADD GT ISZERO PUSH2 0xE01 JUMPI PUSH1 0x0 DUP1 REVERT JUMPDEST PUSH2 0xE0C DUP4 DUP3 DUP5 PUSH2 0x1752 JUMP JUMPDEST POP POP POP SWAP3 SWAP2 POP POP JUMP JUMPDEST PUSH1 0x0 DUP3 PUSH1 0x1F DUP4 ADD SLT PUSH2 0xE26 JUMPI PUSH1 0x0 DUP1 REVERT JUMPDEST DUP2 CALLDATALOAD PUSH2 0xE39 PUSH2 0xE34 DUP3 PUSH2 0x1618 JUMP JUMPDEST PUSH2 0x1547 JUMP JUMPDEST SWAP2 POP DUP1 DUP3 MSTORE PUSH1 0x20 DUP4 ADD PUSH1 0x20 DUP4 ADD DUP6 DUP4 DUP4 ADD GT ISZERO PUSH2 0xE55 JUMPI PUSH1 0x0 DUP1 REVERT JUMPDEST PUSH2 0xE60 DUP4 DUP3 DUP5 PUSH2 0x1752 JUMP JUMPDEST POP POP POP SWAP3 SWAP2 POP POP JUMP JUMPDEST PUSH1 0x0 DUP2 CALLDATALOAD SWAP1 POP PUSH2 0xE78 DUP2 PUSH2 0x17BC JUMP JUMPDEST SWAP3 SWAP2 POP POP JUMP JUMPDEST PUSH1 0x0 DUP2 CALLDATALOAD SWAP1 POP PUSH2 0xE8D DUP2 PUSH2 0x17D3 JUMP JUMPDEST SWAP3 SWAP2 POP POP JUMP JUMPDEST PUSH1 0x0 DUP2 CALLDATALOAD SWAP1 POP PUSH2 0xEA2 DUP2 PUSH2 0x17EA JUMP JUMPDEST SWAP3 SWAP2 POP POP JUMP JUMPDEST PUSH1 0x0 PUSH1 0x20 DUP3 DUP5 SUB SLT ISZERO PUSH2 0xEBA JUMPI PUSH1 0x0 DUP1 REVERT JUMPDEST PUSH1 0x0 DUP3 ADD CALLDATALOAD PUSH8 0xFFFFFFFFFFFFFFFF DUP2 GT ISZERO PUSH2 0xED4 JUMPI PUSH1 0x0 DUP1 REVERT JUMPDEST PUSH2 0xEE0 DUP5 DUP3 DUP6 ADD PUSH2 0xE15 JUMP JUMPDEST SWAP2 POP POP SWAP3 SWAP2 POP POP JUMP JUMPDEST PUSH1 0x0 DUP1 PUSH1 0x0 DUP1 PUSH1 0x0 DUP1 PUSH1 0xC0 DUP8 DUP10 SUB SLT ISZERO PUSH2 0xF02 JUMPI PUSH1 0x0 DUP1 REVERT JUMPDEST PUSH1 0x0 DUP8 ADD CALLDATALOAD PUSH8 0xFFFFFFFFFFFFFFFF DUP2 GT ISZERO PUSH2 0xF1C JUMPI PUSH1 0x0 DUP1 REVERT JUMPDEST PUSH2 0xF28 DUP10 DUP3 DUP11 ADD PUSH2 0xE15 JUMP JUMPDEST SWAP7 POP POP PUSH1 0x20 DUP8 ADD CALLDATALOAD PUSH8 0xFFFFFFFFFFFFFFFF DUP2 GT ISZERO PUSH2 0xF45 JUMPI PUSH1 0x0 DUP1 REVERT JUMPDEST PUSH2 0xF51 DUP10 DUP3 DUP11 ADD PUSH2 0xE15 JUMP JUMPDEST SWAP6 POP POP PUSH1 0x40 DUP8 ADD CALLDATALOAD PUSH8 0xFFFFFFFFFFFFFFFF DUP2 GT ISZERO PUSH2 0xF6E JUMPI PUSH1 0x0 DUP1 REVERT JUMPDEST PUSH2 0xF7A DUP10 DUP3 DUP11 ADD PUSH2 0xCCA JUMP JUMPDEST SWAP5 POP POP PUSH1 0x60 DUP8 ADD CALLDATALOAD PUSH8 0xFFFFFFFFFFFFFFFF DUP2 GT ISZERO PUSH2 0xF97 JUMPI PUSH1 0x0 DUP1 REVERT JUMPDEST PUSH2 0xFA3 DUP10 DUP3 DUP11 ADD PUSH2 0xC47 JUMP JUMPDEST SWAP4 POP POP PUSH1 0x80 DUP8 ADD CALLDATALOAD PUSH8 0xFFFFFFFFFFFFFFFF DUP2 GT ISZERO PUSH2 0xFC0 JUMPI PUSH1 0x0 DUP1 REVERT JUMPDEST PUSH2 0xFCC DUP10 DUP3 DUP11 ADD PUSH2 0xD3E JUMP JUMPDEST SWAP3 POP POP PUSH1 0xA0 PUSH2 0xFDD DUP10 DUP3 DUP11 ADD PUSH2 0xE69 JUMP JUMPDEST SWAP2 POP POP SWAP3 SWAP6 POP SWAP3 SWAP6 POP SWAP3 SWAP6 JUMP JUMPDEST PUSH1 0x0 DUP1 PUSH1 0x40 DUP4 DUP6 SUB SLT ISZERO PUSH2 0xFFD JUMPI PUSH1 0x0 DUP1 REVERT JUMPDEST PUSH1 0x0 DUP4 ADD CALLDATALOAD PUSH8 0xFFFFFFFFFFFFFFFF DUP2 GT ISZERO PUSH2 0x1017 JUMPI PUSH1 0x0 DUP1 REVERT JUMPDEST PUSH2 0x1023 DUP6 DUP3 DUP7 ADD PUSH2 0xE15 JUMP JUMPDEST SWAP3 POP POP PUSH1 0x20 PUSH2 0x1034 DUP6 DUP3 DUP7 ADD PUSH2 0xE69 JUMP JUMPDEST SWAP2 POP POP SWAP3 POP SWAP3 SWAP1 POP JUMP JUMPDEST PUSH1 0x0 DUP1 PUSH1 0x0 PUSH1 0x60 DUP5 DUP7 SUB SLT ISZERO PUSH2 0x1053 JUMPI PUSH1 0x0 DUP1 REVERT JUMPDEST PUSH1 0x0 DUP5 ADD CALLDATALOAD PUSH8 0xFFFFFFFFFFFFFFFF DUP2 GT ISZERO PUSH2 0x106D JUMPI PUSH1 0x0 DUP1 REVERT JUMPDEST PUSH2 0x1079 DUP7 DUP3 DUP8 ADD PUSH2 0xE15 JUMP JUMPDEST SWAP4 POP POP PUSH1 0x20 PUSH2 0x108A DUP7 DUP3 DUP8 ADD PUSH2 0xE69 JUMP JUMPDEST SWAP3 POP POP PUSH1 0x40 DUP5 ADD CALLDATALOAD PUSH8 0xFFFFFFFFFFFFFFFF DUP2 GT ISZERO PUSH2 0x10A7 JUMPI PUSH1 0x0 DUP1 REVERT JUMPDEST PUSH2 0x10B3 DUP7 DUP3 DUP8 ADD PUSH2 0xE15 JUMP JUMPDEST SWAP2 POP POP SWAP3 POP SWAP3 POP SWAP3 JUMP JUMPDEST PUSH1 0x0 DUP1 PUSH1 0x0 DUP1 PUSH1 0x80 DUP6 DUP8 SUB SLT ISZERO PUSH2 0x10D3 JUMPI PUSH1 0x0 DUP1 REVERT JUMPDEST PUSH1 0x0 DUP6 ADD CALLDATALOAD PUSH8 0xFFFFFFFFFFFFFFFF DUP2 GT ISZERO PUSH2 0x10ED JUMPI PUSH1 0x0 DUP1 REVERT JUMPDEST PUSH2 0x10F9 DUP8 DUP3 DUP9 ADD PUSH2 0xE15 JUMP JUMPDEST SWAP5 POP POP PUSH1 0x20 PUSH2 0x110A DUP8 DUP3 DUP9 ADD PUSH2 0xE69 JUMP JUMPDEST SWAP4 POP POP PUSH1 0x40 DUP6 ADD CALLDATALOAD PUSH8 0xFFFFFFFFFFFFFFFF DUP2 GT ISZERO PUSH2 0x1127 JUMPI PUSH1 0x0 DUP1 REVERT JUMPDEST PUSH2 0x1133 DUP8 DUP3 DUP9 ADD PUSH2 0xE15 JUMP JUMPDEST SWAP3 POP POP PUSH1 0x60 PUSH2 0x1144 DUP8 DUP3 DUP9 ADD PUSH2 0xC32 JUMP JUMPDEST SWAP2 POP POP SWAP3 SWAP6 SWAP2 SWAP5 POP SWAP3 POP JUMP JUMPDEST PUSH1 0x0 DUP1 PUSH1 0x0 DUP1 PUSH1 0x0 PUSH1 0xA0 DUP7 DUP9 SUB SLT ISZERO PUSH2 0x1168 JUMPI PUSH1 0x0 DUP1 REVERT JUMPDEST PUSH1 0x0 DUP7 ADD CALLDATALOAD PUSH8 0xFFFFFFFFFFFFFFFF DUP2 GT ISZERO PUSH2 0x1182 JUMPI PUSH1 0x0 DUP1 REVERT JUMPDEST PUSH2 0x118E DUP9 DUP3 DUP10 ADD PUSH2 0xE15 JUMP JUMPDEST SWAP6 POP POP PUSH1 0x20 PUSH2 0x119F DUP9 DUP3 DUP10 ADD PUSH2 0xE69 JUMP JUMPDEST SWAP5 POP POP PUSH1 0x40 DUP7 ADD CALLDATALOAD PUSH8 0xFFFFFFFFFFFFFFFF DUP2 GT ISZERO PUSH2 0x11BC JUMPI PUSH1 0x0 DUP1 REVERT JUMPDEST PUSH2 0x11C8 DUP9 DUP3 DUP10 ADD PUSH2 0xE15 JUMP JUMPDEST SWAP4 POP POP PUSH1 0x60 PUSH2 0x11D9 DUP9 DUP3 DUP10 ADD PUSH2 0xC32 JUMP JUMPDEST SWAP3 POP POP PUSH1 0x80 PUSH2 0x11EA DUP9 DUP3 DUP10 ADD PUSH2 0xE93 JUMP JUMPDEST SWAP2 POP POP SWAP3 SWAP6 POP SWAP3 SWAP6 SWAP1 SWAP4 POP JUMP JUMPDEST PUSH1 0x0 DUP1 PUSH1 0x0 DUP1 PUSH1 0x80 DUP6 DUP8 SUB SLT ISZERO PUSH2 0x120D JUMPI PUSH1 0x0 DUP1 REVERT JUMPDEST PUSH1 0x0 DUP6 ADD CALLDATALOAD PUSH8 0xFFFFFFFFFFFFFFFF DUP2 GT ISZERO PUSH2 0x1227 JUMPI PUSH1 0x0 DUP1 REVERT JUMPDEST PUSH2 0x1233 DUP8 DUP3 DUP9 ADD PUSH2 0xE15 JUMP JUMPDEST SWAP5 POP POP PUSH1 0x20 PUSH2 0x1244 DUP8 DUP3 DUP9 ADD PUSH2 0xE69 JUMP JUMPDEST SWAP4 POP POP PUSH1 0x40 PUSH2 0x1255 DUP8 DUP3 DUP9 ADD PUSH2 0xE7E JUMP JUMPDEST SWAP3 POP POP PUSH1 0x60 DUP6 ADD CALLDATALOAD PUSH8 0xFFFFFFFFFFFFFFFF DUP2 GT ISZERO PUSH2 0x1272 JUMPI PUSH1 0x0 DUP1 REVERT JUMPDEST PUSH2 0x127E DUP8 DUP3 DUP9 ADD PUSH2 0xE15 JUMP JUMPDEST SWAP2 POP POP SWAP3 SWAP6 SWAP2 SWAP5 POP SWAP3 POP JUMP JUMPDEST PUSH1 0x0 PUSH2 0x1296 DUP4 DUP4 PUSH2 0x13F3 JUMP JUMPDEST SWAP1 POP SWAP3 SWAP2 POP POP JUMP JUMPDEST PUSH1 0x0 PUSH2 0x12AA DUP4 DUP4 PUSH2 0x145D JUMP JUMPDEST PUSH1 0x20 DUP4 ADD SWAP1 POP SWAP3 SWAP2 POP POP JUMP JUMPDEST PUSH1 0x0 PUSH2 0x12C1 DUP3 PUSH2 0x1664 JUMP JUMPDEST PUSH2 0x12CB DUP2 DUP6 PUSH2 0x16AA JUMP JUMPDEST SWAP4 POP DUP4 PUSH1 0x20 DUP3 MUL DUP6 ADD PUSH2 0x12DD DUP6 PUSH2 0x1644 JUMP JUMPDEST DUP1 PUSH1 0x0 JUMPDEST DUP6 DUP2 LT ISZERO PUSH2 0x1319 JUMPI DUP5 DUP5 SUB DUP10 MSTORE DUP2 MLOAD PUSH2 0x12FA DUP6 DUP3 PUSH2 0x128A JUMP JUMPDEST SWAP5 POP PUSH2 0x1305 DUP4 PUSH2 0x1690 JUMP JUMPDEST SWAP3 POP PUSH1 0x20 DUP11 ADD SWAP10 POP POP PUSH1 0x1 DUP2 ADD SWAP1 POP PUSH2 0x12E1 JUMP JUMPDEST POP DUP3 SWAP8 POP DUP8 SWAP6 POP POP POP POP POP POP SWAP3 SWAP2 POP POP JUMP JUMPDEST PUSH1 0x0 PUSH2 0x1336 DUP3 PUSH2 0x166F JUMP JUMPDEST PUSH2 0x1340 DUP2 DUP6 PUSH2 0x16BB JUMP JUMPDEST SWAP4 POP PUSH2 0x134B DUP4 PUSH2 0x1654 JUMP JUMPDEST DUP1 PUSH1 0x0 JUMPDEST DUP4 DUP2 LT ISZERO PUSH2 0x137C JUMPI DUP2 MLOAD PUSH2 0x1363 DUP9 DUP3 PUSH2 0x129E JUMP JUMPDEST SWAP8 POP PUSH2 0x136E DUP4 PUSH2 0x169D JUMP JUMPDEST SWAP3 POP POP PUSH1 0x1 DUP2 ADD SWAP1 POP PUSH2 0x134F JUMP JUMPDEST POP DUP6 SWAP4 POP POP POP POP SWAP3 SWAP2 POP POP JUMP JUMPDEST PUSH1 0x0 PUSH2 0x1394 DUP3 PUSH2 0x1685 JUMP JUMPDEST PUSH2 0x139E DUP2 DUP6 PUSH2 0x16DD JUMP JUMPDEST SWAP4 POP PUSH2 0x13AE DUP2 DUP6 PUSH1 0x20 DUP7 ADD PUSH2 0x1761 JUMP JUMPDEST PUSH2 0x13B7 DUP2 PUSH2 0x1794 JUMP JUMPDEST DUP5 ADD SWAP2 POP POP SWAP3 SWAP2 POP POP JUMP JUMPDEST PUSH1 0x0 PUSH2 0x13CD DUP3 PUSH2 0x1685 JUMP JUMPDEST PUSH2 0x13D7 DUP2 DUP6 PUSH2 0x16EE JUMP JUMPDEST SWAP4 POP PUSH2 0x13E7 DUP2 DUP6 PUSH1 0x20 DUP7 ADD PUSH2 0x1761 JUMP JUMPDEST DUP1 DUP5 ADD SWAP2 POP POP SWAP3 SWAP2 POP POP JUMP JUMPDEST PUSH1 0x0 PUSH2 0x13FE DUP3 PUSH2 0x167A JUMP JUMPDEST PUSH2 0x1408 DUP2 DUP6 PUSH2 0x16CC JUMP JUMPDEST SWAP4 POP PUSH2 0x1418 DUP2 DUP6 PUSH1 0x20 DUP7 ADD PUSH2 0x1761 JUMP JUMPDEST PUSH2 0x1421 DUP2 PUSH2 0x1794 JUMP JUMPDEST DUP5 ADD SWAP2 POP POP SWAP3 SWAP2 POP POP JUMP JUMPDEST PUSH1 0x0 PUSH2 0x1437 DUP3 PUSH2 0x167A JUMP JUMPDEST PUSH2 0x1441 DUP2 DUP6 PUSH2 0x16EE JUMP JUMPDEST SWAP4 POP PUSH2 0x1451 DUP2 DUP6 PUSH1 0x20 DUP7 ADD PUSH2 0x1761 JUMP JUMPDEST DUP1 DUP5 ADD SWAP2 POP POP SWAP3 SWAP2 POP POP JUMP JUMPDEST PUSH2 0x1466 DUP2 PUSH2 0x1735 JUMP JUMPDEST DUP3 MSTORE POP POP JUMP JUMPDEST PUSH2 0x1475 DUP2 PUSH2 0x1735 JUMP JUMPDEST DUP3 MSTORE POP POP JUMP JUMPDEST PUSH2 0x1484 DUP2 PUSH2 0x1745 JUMP JUMPDEST DUP3 MSTORE POP POP JUMP JUMPDEST PUSH1 0x0 PUSH2 0x1496 DUP3 DUP5 PUSH2 0x142C JUMP JUMPDEST SWAP2 POP DUP2 SWAP1 POP SWAP3 SWAP2 POP POP JUMP JUMPDEST PUSH1 0x0 PUSH2 0x14AD DUP3 DUP5 PUSH2 0x13C2 JUMP JUMPDEST SWAP2 POP DUP2 SWAP1 POP SWAP3 SWAP2 POP POP JUMP JUMPDEST PUSH1 0x0 PUSH1 0x40 DUP3 ADD SWAP1 POP DUP2 DUP2 SUB PUSH1 0x0 DUP4 ADD MSTORE PUSH2 0x14D2 DUP2 DUP6 PUSH2 0x12B6 JUMP JUMPDEST SWAP1 POP DUP2 DUP2 SUB PUSH1 0x20 DUP4 ADD MSTORE PUSH2 0x14E6 DUP2 DUP5 PUSH2 0x132B JUMP JUMPDEST SWAP1 POP SWAP4 SWAP3 POP POP POP JUMP JUMPDEST PUSH1 0x0 PUSH1 0x20 DUP3 ADD SWAP1 POP DUP2 DUP2 SUB PUSH1 0x0 DUP4 ADD MSTORE PUSH2 0x1509 DUP2 DUP5 PUSH2 0x1389 JUMP JUMPDEST SWAP1 POP SWAP3 SWAP2 POP POP JUMP JUMPDEST PUSH1 0x0 PUSH1 0x20 DUP3 ADD SWAP1 POP PUSH2 0x1526 PUSH1 0x0 DUP4 ADD DUP5 PUSH2 0x146C JUMP JUMPDEST SWAP3 SWAP2 POP POP JUMP JUMPDEST PUSH1 0x0 PUSH1 0x20 DUP3 ADD SWAP1 POP PUSH2 0x1541 PUSH1 0x0 DUP4 ADD DUP5 PUSH2 0x147B JUMP JUMPDEST SWAP3 SWAP2 POP POP JUMP JUMPDEST PUSH1 0x0 PUSH1 0x40 MLOAD SWAP1 POP DUP2 DUP2 ADD DUP2 DUP2 LT PUSH8 0xFFFFFFFFFFFFFFFF DUP3 GT OR ISZERO PUSH2 0x156A JUMPI PUSH1 0x0 DUP1 REVERT JUMPDEST DUP1 PUSH1 0x40 MSTORE POP SWAP2 SWAP1 POP JUMP JUMPDEST PUSH1 0x0 PUSH8 0xFFFFFFFFFFFFFFFF DUP3 GT ISZERO PUSH2 0x158B JUMPI PUSH1 0x0 DUP1 REVERT JUMPDEST PUSH1 0x20 DUP3 MUL SWAP1 POP PUSH1 0x20 DUP2 ADD SWAP1 POP SWAP2 SWAP1 POP JUMP JUMPDEST PUSH1 0x0 PUSH8 0xFFFFFFFFFFFFFFFF DUP3 GT ISZERO PUSH2 0x15B3 JUMPI PUSH1 0x0 DUP1 REVERT JUMPDEST PUSH1 0x20 DUP3 MUL SWAP1 POP PUSH1 0x20 DUP2 ADD SWAP1 POP SWAP2 SWAP1 POP JUMP JUMPDEST PUSH1 0x0 PUSH8 0xFFFFFFFFFFFFFFFF DUP3 GT ISZERO PUSH2 0x15DB JUMPI PUSH1 0x0 DUP1 REVERT JUMPDEST PUSH1 0x20 DUP3 MUL SWAP1 POP PUSH1 0x20 DUP2 ADD SWAP1 POP SWAP2 SWAP1 POP JUMP JUMPDEST PUSH1 0x0 PUSH8 0xFFFFFFFFFFFFFFFF DUP3 GT ISZERO PUSH2 0x1603 JUMPI PUSH1 0x0 DUP1 REVERT JUMPDEST PUSH1 0x1F NOT PUSH1 0x1F DUP4 ADD AND SWAP1 POP PUSH1 0x20 DUP2 ADD SWAP1 POP SWAP2 SWAP1 POP JUMP JUMPDEST PUSH1 0x0 PUSH8 0xFFFFFFFFFFFFFFFF DUP3 GT ISZERO PUSH2 0x162F JUMPI PUSH1 0x0 DUP1 REVERT JUMPDEST PUSH1 0x1F NOT PUSH1 0x1F DUP4 ADD AND SWAP1 POP PUSH1 0x20 DUP2 ADD SWAP1 POP SWAP2 SWAP1 POP JUMP JUMPDEST PUSH1 0x0 DUP2 SWAP1 POP PUSH1 0x20 DUP3 ADD SWAP1 POP SWAP2 SWAP1 POP JUMP JUMPDEST PUSH1 0x0 DUP2 SWAP1 POP PUSH1 0x20 DUP3 ADD SWAP1 POP SWAP2 SWAP1 POP JUMP JUMPDEST PUSH1 0x0 DUP2 MLOAD SWAP1 POP SWAP2 SWAP1 POP JUMP JUMPDEST PUSH1 0x0 DUP2 MLOAD SWAP1 POP SWAP2 SWAP1 POP JUMP JUMPDEST PUSH1 0x0 DUP2 MLOAD SWAP1 POP SWAP2 SWAP1 POP JUMP JUMPDEST PUSH1 0x0 DUP2 MLOAD SWAP1 POP SWAP2 SWAP1 POP JUMP JUMPDEST PUSH1 0x0 PUSH1 0x20 DUP3 ADD SWAP1 POP SWAP2 SWAP1 POP JUMP JUMPDEST PUSH1 0x0 PUSH1 0x20 DUP3 ADD SWAP1 POP SWAP2 SWAP1 POP JUMP JUMPDEST PUSH1 0x0 DUP3 DUP3 MSTORE PUSH1 0x20 DUP3 ADD SWAP1 POP SWAP3 SWAP2 POP POP JUMP JUMPDEST PUSH1 0x0 DUP3 DUP3 MSTORE PUSH1 0x20 DUP3 ADD SWAP1 POP SWAP3 SWAP2 POP POP JUMP JUMPDEST PUSH1 0x0 DUP3 DUP3 MSTORE PUSH1 0x20 DUP3 ADD SWAP1 POP SWAP3 SWAP2 POP POP JUMP JUMPDEST PUSH1 0x0 DUP3 DUP3 MSTORE PUSH1 0x20 DUP3 ADD SWAP1 POP SWAP3 SWAP2 POP POP JUMP JUMPDEST PUSH1 0x0 DUP2 SWAP1 POP SWAP3 SWAP2 POP POP JUMP JUMPDEST PUSH1 0x0 PUSH2 0x1704 DUP3 PUSH2 0x170B JUMP JUMPDEST SWAP1 POP SWAP2 SWAP1 POP JUMP JUMPDEST PUSH1 0x0 PUSH20 0xFFFFFFFFFFFFFFFFFFFFFFFFFFFFFFFFFFFFFFFF DUP3 AND SWAP1 POP SWAP2 SWAP1 POP JUMP JUMPDEST PUSH1 0x0 DUP2 SWAP1 POP SWAP2 SWAP1 POP JUMP JUMPDEST PUSH1 0x0 PUSH4 0xFFFFFFFF DUP3 AND SWAP1 POP SWAP2 SWAP1 POP JUMP JUMPDEST PUSH1 0x0 PUSH1 0xFF DUP3 AND SWAP1 POP SWAP2 SWAP1 POP JUMP JUMPDEST DUP3 DUP2 DUP4 CALLDATACOPY PUSH1 0x0 DUP4 DUP4 ADD MSTORE POP POP POP JUMP JUMPDEST PUSH1 0x0 JUMPDEST DUP4 DUP2 LT ISZERO PUSH2 0x177F JUMPI DUP1 DUP3 ADD MLOAD DUP2 DUP5 ADD MSTORE PUSH1 0x20 DUP2 ADD SWAP1 POP PUSH2 0x1764 JUMP JUMPDEST DUP4 DUP2 GT ISZERO PUSH2 0x178E JUMPI PUSH1 0x0 DUP5 DUP5 ADD MSTORE JUMPDEST POP POP POP POP JUMP JUMPDEST PUSH1 0x0 PUSH1 0x1F NOT PUSH1 0x1F DUP4 ADD AND SWAP1 POP SWAP2 SWAP1 POP JUMP JUMPDEST PUSH2 0x17AE DUP2 PUSH2 0x16F9 JUMP JUMPDEST DUP2 EQ PUSH2 0x17B9 JUMPI PUSH1 0x0 DUP1 REVERT JUMPDEST POP JUMP JUMPDEST PUSH2 0x17C5 DUP2 PUSH2 0x172B JUMP JUMPDEST DUP2 EQ PUSH2 0x17D0 JUMPI PUSH1 0x0 DUP1 REVERT JUMPDEST POP JUMP JUMPDEST PUSH2 0x17DC DUP2 PUSH2 0x1735 JUMP JUMPDEST DUP2 EQ PUSH2 0x17E7 JUMPI PUSH1 0x0 DUP1 REVERT JUMPDEST POP JUMP JUMPDEST PUSH2 0x17F3 DUP2 PUSH2 0x1745 JUMP JUMPDEST DUP2 EQ PUSH2 0x17FE JUMPI PUSH1 0x0 DUP1 REVERT JUMPDEST POP JUMP INVALID LOG3 PUSH6 0x627A7A723158 KECCAK256 PUSH17 0x65CF993CFEFD49138C1366129BD7C6D10 XOR 0xA8 SLOAD SHL 0xBB PC 0xC9 0xD6 0xB9 0x5E PUSH12 0x1DEB1C6C6578706572696D65 PUSH15 0x74616CF564736F6C63430005110040 "
				},
				"gasEstimates": {
					"creation": {
						"codeDepositCost": "1242400",
						"executionCost": "1295",
						"totalCost": "1243695"
					},
					"external": {
						"deleteVariable(string,uint256,string)": "infinite",
						"getAccess(string,uint256,string,address)": "infinite",
						"getAllVariables(string)": "infinite",
						"getVariableName(string,uint256)": "infinite",
						"getVariableValue(string,uint256)": "infinite",
						"setVariableName(string,uint256,string)": "infinite",
						"updateMatrix(string,uint256,string,address,uint8)": "infinite",
						"updateValue(string,uint256,uint32,string)": "infinite",
						"uploadMatrix(string,string,string[],address[],uint8[],uint256)": "infinite"
					}
				},
				"methodIdentifiers": {
					"deleteVariable(string,uint256,string)": "252e7bed",
					"getAccess(string,uint256,string,address)": "aa86c8fc",
					"getAllVariables(string)": "89069ea7",
					"getVariableName(string,uint256)": "fe7f2692",
					"getVariableValue(string,uint256)": "93614356",
					"setVariableName(string,uint256,string)": "612fa967",
					"updateMatrix(string,uint256,string,address,uint8)": "61650af7",
					"updateValue(string,uint256,uint32,string)": "0b3e9bfc",
					"uploadMatrix(string,string,string[],address[],uint8[],uint256)": "bd289582"
				}
			},
			"storageLayout": {
				"storage": [
					{
						"astId": 18,
						"contract": "Access_Matrix.sol:Access_matrix",
						"label": "variables",
						"offset": 0,
						"slot": "0",
						"type": "t_mapping(t_string_memory,t_array(t_struct(Variable)13_storage)dyn_storage)"
					}
				],
				"types": {
					"t_address": {
						"encoding": "inplace",
						"label": "address",
						"numberOfBytes": "20"
					},
					"t_array(t_struct(Variable)13_storage)dyn_storage": {
						"base": "t_struct(Variable)13_storage",
						"encoding": "dynamic_array",
						"label": "struct Access_matrix.Variable[]",
						"numberOfBytes": "32"
					},
					"t_mapping(t_address,t_uint8)": {
						"encoding": "mapping",
						"key": "t_address",
						"label": "mapping(address => uint8)",
						"numberOfBytes": "32",
						"value": "t_uint8"
					},
					"t_mapping(t_string_memory,t_array(t_struct(Variable)13_storage)dyn_storage)": {
						"encoding": "mapping",
						"key": "t_string_memory",
						"label": "mapping(string => struct Access_matrix.Variable[])",
						"numberOfBytes": "32",
						"value": "t_array(t_struct(Variable)13_storage)dyn_storage"
					},
					"t_mapping(t_string_memory,t_mapping(t_address,t_uint8))": {
						"encoding": "mapping",
						"key": "t_string_memory",
						"label": "mapping(string => mapping(address => uint8))",
						"numberOfBytes": "32",
						"value": "t_mapping(t_address,t_uint8)"
					},
					"t_string_memory": {
						"encoding": "bytes",
						"label": "string",
						"numberOfBytes": "32"
					},
					"t_string_storage": {
						"encoding": "bytes",
						"label": "string",
						"numberOfBytes": "32"
					},
					"t_struct(Variable)13_storage": {
						"encoding": "inplace",
						"label": "struct Access_matrix.Variable",
						"members": [
							{
								"astId": 8,
								"contract": "Access_Matrix.sol:Access_matrix",
								"label": "matrix",
								"offset": 0,
								"slot": "0",
								"type": "t_mapping(t_string_memory,t_mapping(t_address,t_uint8))"
							},
							{
								"astId": 10,
								"contract": "Access_Matrix.sol:Access_matrix",
								"label": "value",
								"offset": 0,
								"slot": "1",
								"type": "t_uint32"
							},
							{
								"astId": 12,
								"contract": "Access_Matrix.sol:Access_matrix",
								"label": "name",
								"offset": 0,
								"slot": "2",
								"type": "t_string_storage"
							}
						],
						"numberOfBytes": "96"
					},
					"t_uint32": {
						"encoding": "inplace",
						"label": "uint32",
						"numberOfBytes": "4"
					},
					"t_uint8": {
						"encoding": "inplace",
						"label": "uint8",
						"numberOfBytes": "1"
					}
				}
			},
			"userdoc": {
				"methods": {}
			}
		}
	}
}