{
	"Access_Matrix.sol": {
		"Access_matrix": {
			"abi": [
				{
					"constant": false,
					"inputs": [
						{
							"internalType": "string",
							"name": "_hash",
							"type": "string"
						},
						{
							"internalType": "uint256",
							"name": "index",
							"type": "uint256"
						},
						{
							"internalType": "string",
							"name": "_activity",
							"type": "string"
						}
					],
					"name": "deleteVariable",
					"outputs": [],
					"payable": false,
					"stateMutability": "nonpayable",
					"type": "function"
				},
				{
					"constant": true,
					"inputs": [
						{
							"internalType": "string",
							"name": "_hash",
							"type": "string"
						},
						{
							"internalType": "uint256",
							"name": "index",
							"type": "uint256"
						},
						{
							"internalType": "string",
							"name": "_activity",
							"type": "string"
						},
						{
							"internalType": "address",
							"name": "_role",
							"type": "address"
						}
					],
					"name": "getAccess",
					"outputs": [
						{
							"internalType": "uint8",
							"name": "_access",
							"type": "uint8"
						}
					],
					"payable": false,
					"stateMutability": "view",
					"type": "function"
				},
				{
					"constant": true,
					"inputs": [
						{
							"internalType": "string",
							"name": "_hash",
							"type": "string"
						},
						{
							"internalType": "uint256",
							"name": "index",
							"type": "uint256"
						}
					],
					"name": "getVariableName",
					"outputs": [
						{
							"internalType": "string",
							"name": "_varName",
							"type": "string"
						}
					],
					"payable": false,
					"stateMutability": "view",
					"type": "function"
				},
				{
					"constant": true,
					"inputs": [
						{
							"internalType": "string",
							"name": "_hash",
							"type": "string"
						},
						{
							"internalType": "uint256",
							"name": "index",
							"type": "uint256"
						}
					],
					"name": "getVariableValue",
					"outputs": [
						{
							"internalType": "uint32",
							"name": "_var",
							"type": "uint32"
						}
					],
					"payable": false,
					"stateMutability": "view",
					"type": "function"
				},
				{
					"constant": false,
					"inputs": [
						{
							"internalType": "string",
							"name": "_hash",
							"type": "string"
						},
						{
							"internalType": "uint256",
							"name": "index",
							"type": "uint256"
						},
						{
							"internalType": "string",
							"name": "_newName",
							"type": "string"
						}
					],
					"name": "setVariableName",
					"outputs": [],
					"payable": false,
					"stateMutability": "nonpayable",
					"type": "function"
				},
				{
					"constant": false,
					"inputs": [
						{
							"internalType": "string",
							"name": "_hash",
							"type": "string"
						},
						{
							"internalType": "uint256",
							"name": "index",
							"type": "uint256"
						},
						{
							"internalType": "string",
							"name": "_activity",
							"type": "string"
						},
						{
							"internalType": "address",
							"name": "_role",
							"type": "address"
						},
						{
							"internalType": "uint8",
							"name": "_val",
							"type": "uint8"
						}
					],
					"name": "updateMatrix",
					"outputs": [],
					"payable": false,
					"stateMutability": "nonpayable",
					"type": "function"
				},
				{
					"constant": false,
					"inputs": [
						{
							"internalType": "string",
							"name": "_hash",
							"type": "string"
						},
						{
							"internalType": "uint256",
							"name": "index",
							"type": "uint256"
						},
						{
							"internalType": "uint32",
							"name": "_variable_value",
							"type": "uint32"
						},
						{
							"internalType": "string",
							"name": "_activity",
							"type": "string"
						}
					],
					"name": "updateValue",
					"outputs": [],
					"payable": false,
					"stateMutability": "nonpayable",
					"type": "function"
				},
				{
					"constant": false,
					"inputs": [
						{
							"internalType": "string",
							"name": "_hash",
							"type": "string"
						},
						{
							"internalType": "uint256",
							"name": "index",
							"type": "uint256"
						},
						{
							"internalType": "string",
							"name": "_newName",
							"type": "string"
						},
						{
							"internalType": "string[]",
							"name": "_activities",
							"type": "string[]"
						},
						{
							"internalType": "address[]",
							"name": "_roles",
							"type": "address[]"
						},
						{
							"internalType": "uint8[]",
							"name": "_vals",
							"type": "uint8[]"
						},
						{
							"internalType": "uint256",
							"name": "nbOfElements",
							"type": "uint256"
						}
					],
					"name": "uploadMatrix",
					"outputs": [],
					"payable": false,
					"stateMutability": "nonpayable",
					"type": "function"
				}
			],
			"devdoc": {
				"methods": {
					"deleteVariable(string,uint256,string)": {
						"details": "deletes the contract if the caller has the authorization (first bit starting from right).",
						"params": {
							"_activity": "that want to have access"
						}
					},
					"getVariableValue(string,uint256)": {
						"details": "Get the variable value",
						"return": "_var the variable value "
					},
					"updateMatrix(string,uint256,string,address,uint8)": {
						"details": "Update an entry of the access matrix",
						"params": {
							"_activity": "is the name of the activity ",
							"_role": "is the role",
							"_val": "is a 4 bit int that allows to find if a certain matrix entry has access or not to a vraiable (read,write,create,delete) are the four bits."
						}
					},
					"updateValue(string,uint256,uint32,string)": {
						"details": "Update the variable value if the caller has access",
						"params": {
							"_activity": "name of the activity that want to update the variable value",
							"_variable_value": "new variable value "
						}
					}
				}
			},
			"evm": {
				"assembly": "    /* \"Access_Matrix.sol\":94:2980  contract Access_matrix {... */\n  mstore(0x40, 0x80)\n  callvalue\n    /* \"--CODEGEN--\":8:17   */\n  dup1\n    /* \"--CODEGEN--\":5:7   */\n  iszero\n  tag_1\n  jumpi\n    /* \"--CODEGEN--\":30:31   */\n  0x00\n    /* \"--CODEGEN--\":27:28   */\n  dup1\n    /* \"--CODEGEN--\":20:32   */\n  revert\n    /* \"--CODEGEN--\":5:7   */\ntag_1:\n    /* \"Access_Matrix.sol\":94:2980  contract Access_matrix {... */\n  pop\n  dataSize(sub_0)\n  dup1\n  dataOffset(sub_0)\n  0x00\n  codecopy\n  0x00\n  return\nstop\n\nsub_0: assembly {\n        /* \"Access_Matrix.sol\":94:2980  contract Access_matrix {... */\n      mstore(0x40, 0x80)\n      callvalue\n        /* \"--CODEGEN--\":8:17   */\n      dup1\n        /* \"--CODEGEN--\":5:7   */\n      iszero\n      tag_1\n      jumpi\n        /* \"--CODEGEN--\":30:31   */\n      0x00\n        /* \"--CODEGEN--\":27:28   */\n      dup1\n        /* \"--CODEGEN--\":20:32   */\n      revert\n        /* \"--CODEGEN--\":5:7   */\n    tag_1:\n        /* \"Access_Matrix.sol\":94:2980  contract Access_matrix {... */\n      pop\n      jumpi(tag_2, lt(calldatasize, 0x04))\n      shr(0xe0, calldataload(0x00))\n      dup1\n      0x93614356\n      gt\n      tag_11\n      jumpi\n      dup1\n      0x93614356\n      eq\n      tag_7\n      jumpi\n      dup1\n      0xaa86c8fc\n      eq\n      tag_8\n      jumpi\n      dup1\n      0xaefec0c0\n      eq\n      tag_9\n      jumpi\n      dup1\n      0xfe7f2692\n      eq\n      tag_10\n      jumpi\n      jump(tag_2)\n    tag_11:\n      dup1\n      0x0b3e9bfc\n      eq\n      tag_3\n      jumpi\n      dup1\n      0x252e7bed\n      eq\n      tag_4\n      jumpi\n      dup1\n      0x612fa967\n      eq\n      tag_5\n      jumpi\n      dup1\n      0x61650af7\n      eq\n      tag_6\n      jumpi\n    tag_2:\n      0x00\n      dup1\n      revert\n        /* \"Access_Matrix.sol\":1801:2101  function updateValue(string memory _hash, uint index, uint32 _variable_value, string memory _activity) public {... */\n    tag_3:\n      tag_12\n      0x04\n      dup1\n      calldatasize\n      sub\n      tag_13\n      swap2\n      swap1\n      dup2\n      add\n      swap1\n      jump(tag_14)\n    tag_13:\n      tag_15\n      jump\t// in\n    tag_12:\n      stop\n        /* \"Access_Matrix.sol\":2728:2978  function deleteVariable(string memory _hash, uint index, string memory _activity) public {... */\n    tag_4:\n      tag_16\n      0x04\n      dup1\n      calldatasize\n      sub\n      tag_17\n      swap2\n      swap1\n      dup2\n      add\n      swap1\n      jump(tag_18)\n    tag_17:\n      tag_19\n      jump\t// in\n    tag_16:\n      stop\n        /* \"Access_Matrix.sol\":797:940  function setVariableName(string memory _hash, uint index, string memory _newName) public {... */\n    tag_5:\n      tag_20\n      0x04\n      dup1\n      calldatasize\n      sub\n      tag_21\n      swap2\n      swap1\n      dup2\n      add\n      swap1\n      jump(tag_18)\n    tag_21:\n      tag_22\n      jump\t// in\n    tag_20:\n      stop\n        /* \"Access_Matrix.sol\":607:791  function updateMatrix(string memory _hash, uint index, string memory _activity, address _role, uint8 _val) public {... */\n    tag_6:\n      tag_23\n      0x04\n      dup1\n      calldatasize\n      sub\n      tag_24\n      swap2\n      swap1\n      dup2\n      add\n      swap1\n      jump(tag_25)\n    tag_24:\n      tag_26\n      jump\t// in\n    tag_23:\n      stop\n        /* \"Access_Matrix.sol\":2193:2338  function getVariableValue(string memory _hash, uint index) public view returns (uint32 _var){... */\n    tag_7:\n      tag_27\n      0x04\n      dup1\n      calldatasize\n      sub\n      tag_28\n      swap2\n      swap1\n      dup2\n      add\n      swap1\n      jump(tag_29)\n    tag_28:\n      tag_30\n      jump\t// in\n    tag_27:\n      mload(0x40)\n      tag_31\n      swap2\n      swap1\n      jump(tag_32)\n    tag_31:\n      mload(0x40)\n      dup1\n      swap2\n      sub\n      swap1\n      return\n        /* \"Access_Matrix.sol\":2344:2543  function getAccess(string memory _hash, uint index, string memory _activity, address _role) public view returns (uint8 _access) {... */\n    tag_8:\n      tag_33\n      0x04\n      dup1\n      calldatasize\n      sub\n      tag_34\n      swap2\n      swap1\n      dup2\n      add\n      swap1\n      jump(tag_35)\n    tag_34:\n      tag_36\n      jump\t// in\n    tag_33:\n      mload(0x40)\n      tag_37\n      swap2\n      swap1\n      jump(tag_38)\n    tag_37:\n      mload(0x40)\n      dup1\n      swap2\n      sub\n      swap1\n      return\n        /* \"Access_Matrix.sol\":1105:1569  function uploadMatrix(string memory _hash, uint index, string memory _newName, string[] memory _activities, address[] memory _roles, uint8[] memory _vals, uint nbOfElements) public {... */\n    tag_9:\n      tag_39\n      0x04\n      dup1\n      calldatasize\n      sub\n      tag_40\n      swap2\n      swap1\n      dup2\n      add\n      swap1\n      jump(tag_41)\n    tag_40:\n      tag_42\n      jump\t// in\n    tag_39:\n      stop\n        /* \"Access_Matrix.sol\":946:1099  function getVariableName(string memory _hash, uint index) public view returns (string memory _varName) {... */\n    tag_10:\n      tag_43\n      0x04\n      dup1\n      calldatasize\n      sub\n      tag_44\n      swap2\n      swap1\n      dup2\n      add\n      swap1\n      jump(tag_29)\n    tag_44:\n      tag_45\n      jump\t// in\n    tag_43:\n      mload(0x40)\n      tag_46\n      swap2\n      swap1\n      jump(tag_47)\n    tag_46:\n      mload(0x40)\n      dup1\n      swap2\n      sub\n      swap1\n      return\n        /* \"Access_Matrix.sol\":1801:2101  function updateValue(string memory _hash, uint index, uint32 _variable_value, string memory _activity) public {... */\n    tag_15:\n        /* \"Access_Matrix.sol\":1921:1936  bool has_access */\n      0x00\n        /* \"Access_Matrix.sol\":2008:2009  1 */\n      0x01\n        /* \"Access_Matrix.sol\":2003:2004  1 */\n      dup1\n        /* \"Access_Matrix.sol\":1997:1998  3 */\n      0x03\n        /* \"Access_Matrix.sol\":1940:1949  variables */\n      0x00\n        /* \"Access_Matrix.sol\":1950:1955  _hash */\n      dup9\n        /* \"Access_Matrix.sol\":1940:1956  variables[_hash] */\n      mload(0x40)\n      tag_49\n      swap2\n      swap1\n      jump(tag_50)\n    tag_49:\n      swap1\n      dup2\n      mstore\n      0x20\n      add\n      mload(0x40)\n      dup1\n      swap2\n      sub\n      swap1\n      keccak256\n        /* \"Access_Matrix.sol\":1957:1962  index */\n      dup8\n        /* \"Access_Matrix.sol\":1940:1963  variables[_hash][index] */\n      dup2\n      sload\n      dup2\n      lt\n      tag_51\n      jumpi\n      invalid\n    tag_51:\n      swap1\n      0x00\n      mstore\n      keccak256(0x00, 0x20)\n      swap1\n      0x03\n      mul\n      add\n        /* \"Access_Matrix.sol\":1940:1970  variables[_hash][index].matrix */\n      0x00\n      add\n        /* \"Access_Matrix.sol\":1971:1980  _activity */\n      dup6\n        /* \"Access_Matrix.sol\":1940:1981  variables[_hash][index].matrix[_activity] */\n      mload(0x40)\n      tag_53\n      swap2\n      swap1\n      jump(tag_50)\n    tag_53:\n      swap1\n      dup2\n      mstore\n      0x20\n      add\n      mload(0x40)\n      dup1\n      swap2\n      sub\n      swap1\n      keccak256\n        /* \"Access_Matrix.sol\":1940:1993  variables[_hash][index].matrix[_activity][msg.sender] */\n      0x00\n        /* \"Access_Matrix.sol\":1982:1992  msg.sender */\n      caller\n        /* \"Access_Matrix.sol\":1940:1993  variables[_hash][index].matrix[_activity][msg.sender] */\n      0xffffffffffffffffffffffffffffffffffffffff\n      and\n      0xffffffffffffffffffffffffffffffffffffffff\n      and\n      dup2\n      mstore\n      0x20\n      add\n      swap1\n      dup2\n      mstore\n      0x20\n      add\n      0x00\n      keccak256\n      0x00\n      swap1\n      sload\n      swap1\n      0x0100\n      exp\n      swap1\n      div\n      0xff\n      and\n        /* \"Access_Matrix.sol\":1940:1998  variables[_hash][index].matrix[_activity][msg.sender] >> 3 */\n      0xff\n      and\n      swap1\n      shr\n        /* \"Access_Matrix.sol\":1939:2004  (variables[_hash][index].matrix[_activity][msg.sender] >> 3 ) & 1 */\n      and\n        /* \"Access_Matrix.sol\":1939:2009  (variables[_hash][index].matrix[_activity][msg.sender] >> 3 ) & 1 == 1 */\n      0xff\n      and\n      eq\n        /* \"Access_Matrix.sol\":1921:2009  bool has_access = (variables[_hash][index].matrix[_activity][msg.sender] >> 3 ) & 1 == 1 */\n      swap1\n      pop\n        /* \"Access_Matrix.sol\":2026:2036  has_access */\n      dup1\n        /* \"Access_Matrix.sol\":2019:2037  assert(has_access) */\n      tag_54\n      jumpi\n      invalid\n    tag_54:\n        /* \"Access_Matrix.sol\":2079:2094  _variable_value */\n      dup3\n        /* \"Access_Matrix.sol\":2047:2056  variables */\n      0x00\n        /* \"Access_Matrix.sol\":2057:2062  _hash */\n      dup7\n        /* \"Access_Matrix.sol\":2047:2063  variables[_hash] */\n      mload(0x40)\n      tag_55\n      swap2\n      swap1\n      jump(tag_50)\n    tag_55:\n      swap1\n      dup2\n      mstore\n      0x20\n      add\n      mload(0x40)\n      dup1\n      swap2\n      sub\n      swap1\n      keccak256\n        /* \"Access_Matrix.sol\":2064:2069  index */\n      dup6\n        /* \"Access_Matrix.sol\":2047:2070  variables[_hash][index] */\n      dup2\n      sload\n      dup2\n      lt\n      tag_56\n      jumpi\n      invalid\n    tag_56:\n      swap1\n      0x00\n      mstore\n      keccak256(0x00, 0x20)\n      swap1\n      0x03\n      mul\n      add\n        /* \"Access_Matrix.sol\":2047:2076  variables[_hash][index].value */\n      0x01\n      add\n      0x00\n        /* \"Access_Matrix.sol\":2047:2094  variables[_hash][index].value = _variable_value */\n      0x0100\n      exp\n      dup2\n      sload\n      dup2\n      0xffffffff\n      mul\n      not\n      and\n      swap1\n      dup4\n      0xffffffff\n      and\n      mul\n      or\n      swap1\n      sstore\n      pop\n        /* \"Access_Matrix.sol\":1801:2101  function updateValue(string memory _hash, uint index, uint32 _variable_value, string memory _activity) public {... */\n      pop\n      pop\n      pop\n      pop\n      pop\n      jump\t// out\n        /* \"Access_Matrix.sol\":2728:2978  function deleteVariable(string memory _hash, uint index, string memory _activity) public {... */\n    tag_19:\n        /* \"Access_Matrix.sol\":2827:2842  bool has_access */\n      0x00\n        /* \"Access_Matrix.sol\":2908:2909  1 */\n      0x01\n        /* \"Access_Matrix.sol\":2903:2904  1 */\n      dup1\n        /* \"Access_Matrix.sol\":2846:2855  variables */\n      0x00\n        /* \"Access_Matrix.sol\":2856:2861  _hash */\n      dup7\n        /* \"Access_Matrix.sol\":2846:2862  variables[_hash] */\n      mload(0x40)\n      tag_59\n      swap2\n      swap1\n      jump(tag_50)\n    tag_59:\n      swap1\n      dup2\n      mstore\n      0x20\n      add\n      mload(0x40)\n      dup1\n      swap2\n      sub\n      swap1\n      keccak256\n        /* \"Access_Matrix.sol\":2863:2868  index */\n      dup6\n        /* \"Access_Matrix.sol\":2846:2869  variables[_hash][index] */\n      dup2\n      sload\n      dup2\n      lt\n      tag_60\n      jumpi\n      invalid\n    tag_60:\n      swap1\n      0x00\n      mstore\n      keccak256(0x00, 0x20)\n      swap1\n      0x03\n      mul\n      add\n        /* \"Access_Matrix.sol\":2846:2876  variables[_hash][index].matrix */\n      0x00\n      add\n        /* \"Access_Matrix.sol\":2877:2886  _activity */\n      dup5\n        /* \"Access_Matrix.sol\":2846:2887  variables[_hash][index].matrix[_activity] */\n      mload(0x40)\n      tag_62\n      swap2\n      swap1\n      jump(tag_50)\n    tag_62:\n      swap1\n      dup2\n      mstore\n      0x20\n      add\n      mload(0x40)\n      dup1\n      swap2\n      sub\n      swap1\n      keccak256\n        /* \"Access_Matrix.sol\":2846:2899  variables[_hash][index].matrix[_activity][msg.sender] */\n      0x00\n        /* \"Access_Matrix.sol\":2888:2898  msg.sender */\n      caller\n        /* \"Access_Matrix.sol\":2846:2899  variables[_hash][index].matrix[_activity][msg.sender] */\n      0xffffffffffffffffffffffffffffffffffffffff\n      and\n      0xffffffffffffffffffffffffffffffffffffffff\n      and\n      dup2\n      mstore\n      0x20\n      add\n      swap1\n      dup2\n      mstore\n      0x20\n      add\n      0x00\n      keccak256\n      0x00\n      swap1\n      sload\n      swap1\n      0x0100\n      exp\n      swap1\n      div\n      0xff\n      and\n        /* \"Access_Matrix.sol\":2845:2904  (variables[_hash][index].matrix[_activity][msg.sender]) & 1 */\n      and\n        /* \"Access_Matrix.sol\":2845:2909  (variables[_hash][index].matrix[_activity][msg.sender]) & 1 == 1 */\n      0xff\n      and\n      eq\n        /* \"Access_Matrix.sol\":2827:2909  bool has_access = (variables[_hash][index].matrix[_activity][msg.sender]) & 1 == 1 */\n      swap1\n      pop\n        /* \"Access_Matrix.sol\":2926:2936  has_access */\n      dup1\n        /* \"Access_Matrix.sol\":2919:2937  assert(has_access) */\n      tag_63\n      jumpi\n      invalid\n    tag_63:\n        /* \"Access_Matrix.sol\":2960:2970  msg.sender */\n      caller\n        /* \"Access_Matrix.sol\":2947:2971  selfdestruct(msg.sender) */\n      0xffffffffffffffffffffffffffffffffffffffff\n      and\n      selfdestruct\n        /* \"Access_Matrix.sol\":797:940  function setVariableName(string memory _hash, uint index, string memory _newName) public {... */\n    tag_22:\n        /* \"Access_Matrix.sol\":925:933  _newName */\n      dup1\n        /* \"Access_Matrix.sol\":894:903  variables */\n      0x00\n        /* \"Access_Matrix.sol\":904:909  _hash */\n      dup5\n        /* \"Access_Matrix.sol\":894:910  variables[_hash] */\n      mload(0x40)\n      tag_65\n      swap2\n      swap1\n      jump(tag_50)\n    tag_65:\n      swap1\n      dup2\n      mstore\n      0x20\n      add\n      mload(0x40)\n      dup1\n      swap2\n      sub\n      swap1\n      keccak256\n        /* \"Access_Matrix.sol\":911:916  index */\n      dup4\n        /* \"Access_Matrix.sol\":894:917  variables[_hash][index] */\n      dup2\n      sload\n      dup2\n      lt\n      tag_66\n      jumpi\n      invalid\n    tag_66:\n      swap1\n      0x00\n      mstore\n      keccak256(0x00, 0x20)\n      swap1\n      0x03\n      mul\n      add\n        /* \"Access_Matrix.sol\":894:922  variables[_hash][index].name */\n      0x02\n      add\n        /* \"Access_Matrix.sol\":894:933  variables[_hash][index].name = _newName */\n      swap1\n      dup1\n      mload\n      swap1\n      0x20\n      add\n      swap1\n      tag_68\n      swap3\n      swap2\n      swap1\n      tag_69\n      jump\t// in\n    tag_68:\n      pop\n        /* \"Access_Matrix.sol\":797:940  function setVariableName(string memory _hash, uint index, string memory _newName) public {... */\n      pop\n      pop\n      pop\n      jump\t// out\n        /* \"Access_Matrix.sol\":607:791  function updateMatrix(string memory _hash, uint index, string memory _activity, address _role, uint8 _val) public {... */\n    tag_26:\n        /* \"Access_Matrix.sol\":780:784  _val */\n      dup1\n        /* \"Access_Matrix.sol\":729:738  variables */\n      0x00\n        /* \"Access_Matrix.sol\":739:744  _hash */\n      dup7\n        /* \"Access_Matrix.sol\":729:745  variables[_hash] */\n      mload(0x40)\n      tag_71\n      swap2\n      swap1\n      jump(tag_50)\n    tag_71:\n      swap1\n      dup2\n      mstore\n      0x20\n      add\n      mload(0x40)\n      dup1\n      swap2\n      sub\n      swap1\n      keccak256\n        /* \"Access_Matrix.sol\":746:751  index */\n      dup6\n        /* \"Access_Matrix.sol\":729:752  variables[_hash][index] */\n      dup2\n      sload\n      dup2\n      lt\n      tag_72\n      jumpi\n      invalid\n    tag_72:\n      swap1\n      0x00\n      mstore\n      keccak256(0x00, 0x20)\n      swap1\n      0x03\n      mul\n      add\n        /* \"Access_Matrix.sol\":729:759  variables[_hash][index].matrix */\n      0x00\n      add\n        /* \"Access_Matrix.sol\":760:769  _activity */\n      dup5\n        /* \"Access_Matrix.sol\":729:770  variables[_hash][index].matrix[_activity] */\n      mload(0x40)\n      tag_74\n      swap2\n      swap1\n      jump(tag_50)\n    tag_74:\n      swap1\n      dup2\n      mstore\n      0x20\n      add\n      mload(0x40)\n      dup1\n      swap2\n      sub\n      swap1\n      keccak256\n        /* \"Access_Matrix.sol\":729:777  variables[_hash][index].matrix[_activity][_role] */\n      0x00\n        /* \"Access_Matrix.sol\":771:776  _role */\n      dup5\n        /* \"Access_Matrix.sol\":729:777  variables[_hash][index].matrix[_activity][_role] */\n      0xffffffffffffffffffffffffffffffffffffffff\n      and\n      0xffffffffffffffffffffffffffffffffffffffff\n      and\n      dup2\n      mstore\n      0x20\n      add\n      swap1\n      dup2\n      mstore\n      0x20\n      add\n      0x00\n      keccak256\n      0x00\n        /* \"Access_Matrix.sol\":729:784  variables[_hash][index].matrix[_activity][_role] = _val */\n      0x0100\n      exp\n      dup2\n      sload\n      dup2\n      0xff\n      mul\n      not\n      and\n      swap1\n      dup4\n      0xff\n      and\n      mul\n      or\n      swap1\n      sstore\n      pop\n        /* \"Access_Matrix.sol\":607:791  function updateMatrix(string memory _hash, uint index, string memory _activity, address _role, uint8 _val) public {... */\n      pop\n      pop\n      pop\n      pop\n      pop\n      jump\t// out\n        /* \"Access_Matrix.sol\":2193:2338  function getVariableValue(string memory _hash, uint index) public view returns (uint32 _var){... */\n    tag_30:\n        /* \"Access_Matrix.sol\":2273:2284  uint32 _var */\n      0x00\n        /* \"Access_Matrix.sol\":2302:2311  variables */\n      dup1\n        /* \"Access_Matrix.sol\":2312:2317  _hash */\n      dup4\n        /* \"Access_Matrix.sol\":2302:2318  variables[_hash] */\n      mload(0x40)\n      tag_76\n      swap2\n      swap1\n      jump(tag_50)\n    tag_76:\n      swap1\n      dup2\n      mstore\n      0x20\n      add\n      mload(0x40)\n      dup1\n      swap2\n      sub\n      swap1\n      keccak256\n        /* \"Access_Matrix.sol\":2319:2324  index */\n      dup3\n        /* \"Access_Matrix.sol\":2302:2325  variables[_hash][index] */\n      dup2\n      sload\n      dup2\n      lt\n      tag_77\n      jumpi\n      invalid\n    tag_77:\n      swap1\n      0x00\n      mstore\n      keccak256(0x00, 0x20)\n      swap1\n      0x03\n      mul\n      add\n        /* \"Access_Matrix.sol\":2302:2331  variables[_hash][index].value */\n      0x01\n      add\n      0x00\n      swap1\n      sload\n      swap1\n      0x0100\n      exp\n      swap1\n      div\n      0xffffffff\n      and\n        /* \"Access_Matrix.sol\":2295:2331  return variables[_hash][index].value */\n      swap1\n      pop\n        /* \"Access_Matrix.sol\":2193:2338  function getVariableValue(string memory _hash, uint index) public view returns (uint32 _var){... */\n      swap3\n      swap2\n      pop\n      pop\n      jump\t// out\n        /* \"Access_Matrix.sol\":2344:2543  function getAccess(string memory _hash, uint index, string memory _activity, address _role) public view returns (uint8 _access) {... */\n    tag_36:\n        /* \"Access_Matrix.sol\":2457:2470  uint8 _access */\n      0x00\n        /* \"Access_Matrix.sol\":2488:2497  variables */\n      dup1\n        /* \"Access_Matrix.sol\":2498:2503  _hash */\n      dup6\n        /* \"Access_Matrix.sol\":2488:2504  variables[_hash] */\n      mload(0x40)\n      tag_80\n      swap2\n      swap1\n      jump(tag_50)\n    tag_80:\n      swap1\n      dup2\n      mstore\n      0x20\n      add\n      mload(0x40)\n      dup1\n      swap2\n      sub\n      swap1\n      keccak256\n        /* \"Access_Matrix.sol\":2505:2510  index */\n      dup5\n        /* \"Access_Matrix.sol\":2488:2511  variables[_hash][index] */\n      dup2\n      sload\n      dup2\n      lt\n      tag_81\n      jumpi\n      invalid\n    tag_81:\n      swap1\n      0x00\n      mstore\n      keccak256(0x00, 0x20)\n      swap1\n      0x03\n      mul\n      add\n        /* \"Access_Matrix.sol\":2488:2518  variables[_hash][index].matrix */\n      0x00\n      add\n        /* \"Access_Matrix.sol\":2519:2528  _activity */\n      dup4\n        /* \"Access_Matrix.sol\":2488:2529  variables[_hash][index].matrix[_activity] */\n      mload(0x40)\n      tag_83\n      swap2\n      swap1\n      jump(tag_50)\n    tag_83:\n      swap1\n      dup2\n      mstore\n      0x20\n      add\n      mload(0x40)\n      dup1\n      swap2\n      sub\n      swap1\n      keccak256\n        /* \"Access_Matrix.sol\":2488:2536  variables[_hash][index].matrix[_activity][_role] */\n      0x00\n        /* \"Access_Matrix.sol\":2530:2535  _role */\n      dup4\n        /* \"Access_Matrix.sol\":2488:2536  variables[_hash][index].matrix[_activity][_role] */\n      0xffffffffffffffffffffffffffffffffffffffff\n      and\n      0xffffffffffffffffffffffffffffffffffffffff\n      and\n      dup2\n      mstore\n      0x20\n      add\n      swap1\n      dup2\n      mstore\n      0x20\n      add\n      0x00\n      keccak256\n      0x00\n      swap1\n      sload\n      swap1\n      0x0100\n      exp\n      swap1\n      div\n      0xff\n      and\n        /* \"Access_Matrix.sol\":2480:2536  return  variables[_hash][index].matrix[_activity][_role] */\n      swap1\n      pop\n        /* \"Access_Matrix.sol\":2344:2543  function getAccess(string memory _hash, uint index, string memory _activity, address _role) public view returns (uint8 _access) {... */\n      swap5\n      swap4\n      pop\n      pop\n      pop\n      pop\n      jump\t// out\n        /* \"Access_Matrix.sol\":1105:1569  function uploadMatrix(string memory _hash, uint index, string memory _newName, string[] memory _activities, address[] memory _roles, uint8[] memory _vals, uint nbOfElements) public {... */\n    tag_42:\n        /* \"Access_Matrix.sol\":1294:1316  Variable memory topush */\n      tag_85\n      tag_86\n      jump\t// in\n    tag_85:\n        /* \"Access_Matrix.sol\":1319:1381  Variable( {... */\n      mload(0x40)\n      dup1\n      0x40\n      add\n      0x40\n      mstore\n      dup1\n        /* \"Access_Matrix.sol\":1371:1372  0 */\n      0x00\n        /* \"Access_Matrix.sol\":1319:1381  Variable( {... */\n      0xffffffff\n      and\n      dup2\n      mstore\n      0x20\n      add\n        /* \"Access_Matrix.sol\":1346:1354  _newName */\n      dup8\n        /* \"Access_Matrix.sol\":1319:1381  Variable( {... */\n      dup2\n      mstore\n      pop\n        /* \"Access_Matrix.sol\":1294:1381  Variable memory topush = Variable( {... */\n      swap1\n      pop\n        /* \"Access_Matrix.sol\":1420:1428  _newName */\n      dup6\n        /* \"Access_Matrix.sol\":1389:1398  variables */\n      0x00\n        /* \"Access_Matrix.sol\":1399:1404  _hash */\n      dup10\n        /* \"Access_Matrix.sol\":1389:1405  variables[_hash] */\n      mload(0x40)\n      tag_87\n      swap2\n      swap1\n      jump(tag_50)\n    tag_87:\n      swap1\n      dup2\n      mstore\n      0x20\n      add\n      mload(0x40)\n      dup1\n      swap2\n      sub\n      swap1\n      keccak256\n        /* \"Access_Matrix.sol\":1406:1411  index */\n      dup9\n        /* \"Access_Matrix.sol\":1389:1412  variables[_hash][index] */\n      dup2\n      sload\n      dup2\n      lt\n      tag_88\n      jumpi\n      invalid\n    tag_88:\n      swap1\n      0x00\n      mstore\n      keccak256(0x00, 0x20)\n      swap1\n      0x03\n      mul\n      add\n        /* \"Access_Matrix.sol\":1389:1417  variables[_hash][index].name */\n      0x02\n      add\n        /* \"Access_Matrix.sol\":1389:1428  variables[_hash][index].name = _newName */\n      swap1\n      dup1\n      mload\n      swap1\n      0x20\n      add\n      swap1\n      tag_90\n      swap3\n      swap2\n      swap1\n      tag_69\n      jump\t// in\n    tag_90:\n      pop\n        /* \"Access_Matrix.sol\":1440:1446  uint k */\n      0x00\n        /* \"Access_Matrix.sol\":1449:1450  0 */\n      dup1\n        /* \"Access_Matrix.sol\":1440:1450  uint k = 0 */\n      swap1\n      pop\n        /* \"Access_Matrix.sol\":1436:1563  for(uint k = 0; k < nbOfElements; k++) {... */\n    tag_91:\n        /* \"Access_Matrix.sol\":1456:1468  nbOfElements */\n      dup3\n        /* \"Access_Matrix.sol\":1452:1453  k */\n      dup2\n        /* \"Access_Matrix.sol\":1452:1468  k < nbOfElements */\n      lt\n        /* \"Access_Matrix.sol\":1436:1563  for(uint k = 0; k < nbOfElements; k++) {... */\n      iszero\n      tag_92\n      jumpi\n        /* \"Access_Matrix.sol\":1545:1550  _vals */\n      dup4\n        /* \"Access_Matrix.sol\":1551:1552  k */\n      dup2\n        /* \"Access_Matrix.sol\":1545:1553  _vals[k] */\n      dup2\n      mload\n      dup2\n      lt\n      tag_94\n      jumpi\n      invalid\n    tag_94:\n      0x20\n      mul\n      0x20\n      add\n      add\n      mload\n        /* \"Access_Matrix.sol\":1485:1494  variables */\n      0x00\n        /* \"Access_Matrix.sol\":1495:1500  _hash */\n      dup11\n        /* \"Access_Matrix.sol\":1485:1501  variables[_hash] */\n      mload(0x40)\n      tag_95\n      swap2\n      swap1\n      jump(tag_50)\n    tag_95:\n      swap1\n      dup2\n      mstore\n      0x20\n      add\n      mload(0x40)\n      dup1\n      swap2\n      sub\n      swap1\n      keccak256\n        /* \"Access_Matrix.sol\":1502:1507  index */\n      dup10\n        /* \"Access_Matrix.sol\":1485:1508  variables[_hash][index] */\n      dup2\n      sload\n      dup2\n      lt\n      tag_96\n      jumpi\n      invalid\n    tag_96:\n      swap1\n      0x00\n      mstore\n      keccak256(0x00, 0x20)\n      swap1\n      0x03\n      mul\n      add\n        /* \"Access_Matrix.sol\":1485:1515  variables[_hash][index].matrix */\n      0x00\n      add\n        /* \"Access_Matrix.sol\":1516:1527  _activities */\n      dup8\n        /* \"Access_Matrix.sol\":1528:1529  k */\n      dup4\n        /* \"Access_Matrix.sol\":1516:1530  _activities[k] */\n      dup2\n      mload\n      dup2\n      lt\n      tag_98\n      jumpi\n      invalid\n    tag_98:\n      0x20\n      mul\n      0x20\n      add\n      add\n      mload\n        /* \"Access_Matrix.sol\":1485:1531  variables[_hash][index].matrix[_activities[k]] */\n      mload(0x40)\n      tag_99\n      swap2\n      swap1\n      jump(tag_100)\n    tag_99:\n      swap1\n      dup2\n      mstore\n      0x20\n      add\n      mload(0x40)\n      dup1\n      swap2\n      sub\n      swap1\n      keccak256\n        /* \"Access_Matrix.sol\":1485:1542  variables[_hash][index].matrix[_activities[k]][_roles[k]] */\n      0x00\n        /* \"Access_Matrix.sol\":1532:1538  _roles */\n      dup8\n        /* \"Access_Matrix.sol\":1539:1540  k */\n      dup5\n        /* \"Access_Matrix.sol\":1532:1541  _roles[k] */\n      dup2\n      mload\n      dup2\n      lt\n      tag_101\n      jumpi\n      invalid\n    tag_101:\n      0x20\n      mul\n      0x20\n      add\n      add\n      mload\n        /* \"Access_Matrix.sol\":1485:1542  variables[_hash][index].matrix[_activities[k]][_roles[k]] */\n      0xffffffffffffffffffffffffffffffffffffffff\n      and\n      0xffffffffffffffffffffffffffffffffffffffff\n      and\n      dup2\n      mstore\n      0x20\n      add\n      swap1\n      dup2\n      mstore\n      0x20\n      add\n      0x00\n      keccak256\n      0x00\n        /* \"Access_Matrix.sol\":1485:1553  variables[_hash][index].matrix[_activities[k]][_roles[k]] = _vals[k] */\n      0x0100\n      exp\n      dup2\n      sload\n      dup2\n      0xff\n      mul\n      not\n      and\n      swap1\n      dup4\n      0xff\n      and\n      mul\n      or\n      swap1\n      sstore\n      pop\n        /* \"Access_Matrix.sol\":1470:1473  k++ */\n      dup1\n      dup1\n      0x01\n      add\n      swap2\n      pop\n      pop\n        /* \"Access_Matrix.sol\":1436:1563  for(uint k = 0; k < nbOfElements; k++) {... */\n      jump(tag_91)\n    tag_92:\n      pop\n        /* \"Access_Matrix.sol\":1105:1569  function uploadMatrix(string memory _hash, uint index, string memory _newName, string[] memory _activities, address[] memory _roles, uint8[] memory _vals, uint nbOfElements) public {... */\n      pop\n      pop\n      pop\n      pop\n      pop\n      pop\n      pop\n      pop\n      jump\t// out\n        /* \"Access_Matrix.sol\":946:1099  function getVariableName(string memory _hash, uint index) public view returns (string memory _varName) {... */\n    tag_45:\n        /* \"Access_Matrix.sol\":1025:1047  string memory _varName */\n      0x60\n        /* \"Access_Matrix.sol\":1064:1073  variables */\n      0x00\n        /* \"Access_Matrix.sol\":1074:1079  _hash */\n      dup4\n        /* \"Access_Matrix.sol\":1064:1080  variables[_hash] */\n      mload(0x40)\n      tag_103\n      swap2\n      swap1\n      jump(tag_50)\n    tag_103:\n      swap1\n      dup2\n      mstore\n      0x20\n      add\n      mload(0x40)\n      dup1\n      swap2\n      sub\n      swap1\n      keccak256\n        /* \"Access_Matrix.sol\":1081:1086  index */\n      dup3\n        /* \"Access_Matrix.sol\":1064:1087  variables[_hash][index] */\n      dup2\n      sload\n      dup2\n      lt\n      tag_104\n      jumpi\n      invalid\n    tag_104:\n      swap1\n      0x00\n      mstore\n      keccak256(0x00, 0x20)\n      swap1\n      0x03\n      mul\n      add\n        /* \"Access_Matrix.sol\":1064:1092  variables[_hash][index].name */\n      0x02\n      add\n        /* \"Access_Matrix.sol\":1057:1092  return variables[_hash][index].name */\n      dup1\n      sload\n      0x01\n      dup2\n      0x01\n      and\n      iszero\n      0x0100\n      mul\n      sub\n      and\n      0x02\n      swap1\n      div\n      dup1\n      0x1f\n      add\n      0x20\n      dup1\n      swap2\n      div\n      mul\n      0x20\n      add\n      mload(0x40)\n      swap1\n      dup2\n      add\n      0x40\n      mstore\n      dup1\n      swap3\n      swap2\n      swap1\n      dup2\n      dup2\n      mstore\n      0x20\n      add\n      dup3\n      dup1\n      sload\n      0x01\n      dup2\n      0x01\n      and\n      iszero\n      0x0100\n      mul\n      sub\n      and\n      0x02\n      swap1\n      div\n      dup1\n      iszero\n      tag_106\n      jumpi\n      dup1\n      0x1f\n      lt\n      tag_107\n      jumpi\n      0x0100\n      dup1\n      dup4\n      sload\n      div\n      mul\n      dup4\n      mstore\n      swap2\n      0x20\n      add\n      swap2\n      jump(tag_106)\n    tag_107:\n      dup3\n      add\n      swap2\n      swap1\n      0x00\n      mstore\n      keccak256(0x00, 0x20)\n      swap1\n    tag_108:\n      dup2\n      sload\n      dup2\n      mstore\n      swap1\n      0x01\n      add\n      swap1\n      0x20\n      add\n      dup1\n      dup4\n      gt\n      tag_108\n      jumpi\n      dup3\n      swap1\n      sub\n      0x1f\n      and\n      dup3\n      add\n      swap2\n    tag_106:\n      pop\n      pop\n      pop\n      pop\n      pop\n      swap1\n      pop\n        /* \"Access_Matrix.sol\":946:1099  function getVariableName(string memory _hash, uint index) public view returns (string memory _varName) {... */\n      swap3\n      swap2\n      pop\n      pop\n      jump\t// out\n        /* \"Access_Matrix.sol\":94:2980  contract Access_matrix {... */\n    tag_69:\n      dup3\n      dup1\n      sload\n      0x01\n      dup2\n      0x01\n      and\n      iszero\n      0x0100\n      mul\n      sub\n      and\n      0x02\n      swap1\n      div\n      swap1\n      0x00\n      mstore\n      keccak256(0x00, 0x20)\n      swap1\n      0x1f\n      add\n      0x20\n      swap1\n      div\n      dup2\n      add\n      swap3\n      dup3\n      0x1f\n      lt\n      tag_110\n      jumpi\n      dup1\n      mload\n      not(0xff)\n      and\n      dup4\n      dup1\n      add\n      or\n      dup6\n      sstore\n      jump(tag_109)\n    tag_110:\n      dup3\n      dup1\n      add\n      0x01\n      add\n      dup6\n      sstore\n      dup3\n      iszero\n      tag_109\n      jumpi\n      swap2\n      dup3\n      add\n    tag_111:\n      dup3\n      dup2\n      gt\n      iszero\n      tag_112\n      jumpi\n      dup3\n      mload\n      dup3\n      sstore\n      swap2\n      0x20\n      add\n      swap2\n      swap1\n      0x01\n      add\n      swap1\n      jump(tag_111)\n    tag_112:\n    tag_109:\n      pop\n      swap1\n      pop\n      tag_113\n      swap2\n      swap1\n      tag_114\n      jump\t// in\n    tag_113:\n      pop\n      swap1\n      jump\t// out\n    tag_86:\n      mload(0x40)\n      dup1\n      0x40\n      add\n      0x40\n      mstore\n      dup1\n      and(0xffffffff, 0x00)\n      dup2\n      mstore\n      0x20\n      add\n      0x60\n      dup2\n      mstore\n      pop\n      swap1\n      jump\t// out\n    tag_114:\n      tag_115\n      swap2\n      swap1\n    tag_116:\n      dup1\n      dup3\n      gt\n      iszero\n      tag_117\n      jumpi\n      0x00\n      dup2\n      0x00\n      swap1\n      sstore\n      pop\n      0x01\n      add\n      jump(tag_116)\n    tag_117:\n      pop\n      swap1\n      jump\n    tag_115:\n      swap1\n      jump\t// out\n        /* \"--CODEGEN--\":5:135   */\n    tag_119:\n      0x00\n        /* \"--CODEGEN--\":85:91   */\n      dup2\n        /* \"--CODEGEN--\":72:92   */\n      calldataload\n        /* \"--CODEGEN--\":63:92   */\n      swap1\n      pop\n        /* \"--CODEGEN--\":97:130   */\n      tag_120\n        /* \"--CODEGEN--\":124:129   */\n      dup2\n        /* \"--CODEGEN--\":97:130   */\n      jump(tag_121)\n    tag_120:\n        /* \"--CODEGEN--\":57:135   */\n      swap3\n      swap2\n      pop\n      pop\n      jump\n        /* \"--CODEGEN--\":160:867   */\n    tag_122:\n      0x00\n        /* \"--CODEGEN--\":277:280   */\n      dup3\n        /* \"--CODEGEN--\":270:274   */\n      0x1f\n        /* \"--CODEGEN--\":262:268   */\n      dup4\n        /* \"--CODEGEN--\":258:275   */\n      add\n        /* \"--CODEGEN--\":254:281   */\n      slt\n        /* \"--CODEGEN--\":244:246   */\n      tag_123\n      jumpi\n        /* \"--CODEGEN--\":295:296   */\n      0x00\n        /* \"--CODEGEN--\":292:293   */\n      dup1\n        /* \"--CODEGEN--\":285:297   */\n      revert\n        /* \"--CODEGEN--\":244:246   */\n    tag_123:\n        /* \"--CODEGEN--\":332:338   */\n      dup2\n        /* \"--CODEGEN--\":319:339   */\n      calldataload\n        /* \"--CODEGEN--\":354:434   */\n      tag_124\n        /* \"--CODEGEN--\":369:433   */\n      tag_125\n        /* \"--CODEGEN--\":426:432   */\n      dup3\n        /* \"--CODEGEN--\":369:433   */\n      jump(tag_126)\n    tag_125:\n        /* \"--CODEGEN--\":354:434   */\n      jump(tag_127)\n    tag_124:\n        /* \"--CODEGEN--\":345:434   */\n      swap2\n      pop\n        /* \"--CODEGEN--\":451:456   */\n      dup2\n        /* \"--CODEGEN--\":476:482   */\n      dup2\n        /* \"--CODEGEN--\":469:474   */\n      dup4\n        /* \"--CODEGEN--\":462:483   */\n      mstore\n        /* \"--CODEGEN--\":506:510   */\n      0x20\n        /* \"--CODEGEN--\":498:504   */\n      dup5\n        /* \"--CODEGEN--\":494:511   */\n      add\n        /* \"--CODEGEN--\":484:511   */\n      swap4\n      pop\n        /* \"--CODEGEN--\":528:532   */\n      0x20\n        /* \"--CODEGEN--\":523:526   */\n      dup2\n        /* \"--CODEGEN--\":519:533   */\n      add\n        /* \"--CODEGEN--\":512:533   */\n      swap1\n      pop\n        /* \"--CODEGEN--\":581:587   */\n      dup4\n        /* \"--CODEGEN--\":628:631   */\n      dup6\n        /* \"--CODEGEN--\":620:624   */\n      0x20\n        /* \"--CODEGEN--\":612:618   */\n      dup5\n        /* \"--CODEGEN--\":608:625   */\n      mul\n        /* \"--CODEGEN--\":603:606   */\n      dup3\n        /* \"--CODEGEN--\":599:626   */\n      add\n        /* \"--CODEGEN--\":596:632   */\n      gt\n        /* \"--CODEGEN--\":593:595   */\n      iszero\n      tag_128\n      jumpi\n        /* \"--CODEGEN--\":645:646   */\n      0x00\n        /* \"--CODEGEN--\":642:643   */\n      dup1\n        /* \"--CODEGEN--\":635:647   */\n      revert\n        /* \"--CODEGEN--\":593:595   */\n    tag_128:\n        /* \"--CODEGEN--\":670:671   */\n      0x00\n        /* \"--CODEGEN--\":655:861   */\n    tag_129:\n        /* \"--CODEGEN--\":680:686   */\n      dup4\n        /* \"--CODEGEN--\":677:678   */\n      dup2\n        /* \"--CODEGEN--\":674:687   */\n      lt\n        /* \"--CODEGEN--\":655:861   */\n      iszero\n      tag_131\n      jumpi\n        /* \"--CODEGEN--\":738:741   */\n      dup2\n        /* \"--CODEGEN--\":760:797   */\n      tag_132\n        /* \"--CODEGEN--\":793:796   */\n      dup9\n        /* \"--CODEGEN--\":781:791   */\n      dup3\n        /* \"--CODEGEN--\":760:797   */\n      jump(tag_119)\n    tag_132:\n        /* \"--CODEGEN--\":755:758   */\n      dup5\n        /* \"--CODEGEN--\":748:798   */\n      mstore\n        /* \"--CODEGEN--\":821:825   */\n      0x20\n        /* \"--CODEGEN--\":816:819   */\n      dup5\n        /* \"--CODEGEN--\":812:826   */\n      add\n        /* \"--CODEGEN--\":805:826   */\n      swap4\n      pop\n        /* \"--CODEGEN--\":849:853   */\n      0x20\n        /* \"--CODEGEN--\":844:847   */\n      dup4\n        /* \"--CODEGEN--\":840:854   */\n      add\n        /* \"--CODEGEN--\":833:854   */\n      swap3\n      pop\n        /* \"--CODEGEN--\":712:861   */\n      pop\n        /* \"--CODEGEN--\":702:703   */\n      0x01\n        /* \"--CODEGEN--\":699:700   */\n      dup2\n        /* \"--CODEGEN--\":695:704   */\n      add\n        /* \"--CODEGEN--\":690:704   */\n      swap1\n      pop\n        /* \"--CODEGEN--\":655:861   */\n      jump(tag_129)\n    tag_131:\n        /* \"--CODEGEN--\":659:673   */\n      pop\n        /* \"--CODEGEN--\":237:867   */\n      pop\n      pop\n      pop\n      swap3\n      swap2\n      pop\n      pop\n      jump\n        /* \"--CODEGEN--\":892:1588   */\n    tag_133:\n      0x00\n        /* \"--CODEGEN--\":1015:1018   */\n      dup3\n        /* \"--CODEGEN--\":1008:1012   */\n      0x1f\n        /* \"--CODEGEN--\":1000:1006   */\n      dup4\n        /* \"--CODEGEN--\":996:1013   */\n      add\n        /* \"--CODEGEN--\":992:1019   */\n      slt\n        /* \"--CODEGEN--\":982:984   */\n      tag_134\n      jumpi\n        /* \"--CODEGEN--\":1033:1034   */\n      0x00\n        /* \"--CODEGEN--\":1030:1031   */\n      dup1\n        /* \"--CODEGEN--\":1023:1035   */\n      revert\n        /* \"--CODEGEN--\":982:984   */\n    tag_134:\n        /* \"--CODEGEN--\":1070:1076   */\n      dup2\n        /* \"--CODEGEN--\":1057:1077   */\n      calldataload\n        /* \"--CODEGEN--\":1092:1178   */\n      tag_135\n        /* \"--CODEGEN--\":1107:1177   */\n      tag_136\n        /* \"--CODEGEN--\":1170:1176   */\n      dup3\n        /* \"--CODEGEN--\":1107:1177   */\n      jump(tag_137)\n    tag_136:\n        /* \"--CODEGEN--\":1092:1178   */\n      jump(tag_127)\n    tag_135:\n        /* \"--CODEGEN--\":1083:1178   */\n      swap2\n      pop\n        /* \"--CODEGEN--\":1195:1200   */\n      dup2\n        /* \"--CODEGEN--\":1220:1226   */\n      dup2\n        /* \"--CODEGEN--\":1213:1218   */\n      dup4\n        /* \"--CODEGEN--\":1206:1227   */\n      mstore\n        /* \"--CODEGEN--\":1250:1254   */\n      0x20\n        /* \"--CODEGEN--\":1242:1248   */\n      dup5\n        /* \"--CODEGEN--\":1238:1255   */\n      add\n        /* \"--CODEGEN--\":1228:1255   */\n      swap4\n      pop\n        /* \"--CODEGEN--\":1272:1276   */\n      0x20\n        /* \"--CODEGEN--\":1267:1270   */\n      dup2\n        /* \"--CODEGEN--\":1263:1277   */\n      add\n        /* \"--CODEGEN--\":1256:1277   */\n      swap1\n      pop\n        /* \"--CODEGEN--\":1325:1331   */\n      dup4\n        /* \"--CODEGEN--\":1358:1359   */\n      0x00\n        /* \"--CODEGEN--\":1343:1582   */\n    tag_138:\n        /* \"--CODEGEN--\":1368:1374   */\n      dup4\n        /* \"--CODEGEN--\":1365:1366   */\n      dup2\n        /* \"--CODEGEN--\":1362:1375   */\n      lt\n        /* \"--CODEGEN--\":1343:1582   */\n      iszero\n      tag_140\n      jumpi\n        /* \"--CODEGEN--\":1451:1454   */\n      dup2\n        /* \"--CODEGEN--\":1438:1455   */\n      calldataload\n        /* \"--CODEGEN--\":1430:1436   */\n      dup7\n        /* \"--CODEGEN--\":1426:1456   */\n      add\n        /* \"--CODEGEN--\":1475:1518   */\n      tag_141\n        /* \"--CODEGEN--\":1514:1517   */\n      dup9\n        /* \"--CODEGEN--\":1502:1512   */\n      dup3\n        /* \"--CODEGEN--\":1475:1518   */\n      jump(tag_142)\n    tag_141:\n        /* \"--CODEGEN--\":1470:1473   */\n      dup5\n        /* \"--CODEGEN--\":1463:1519   */\n      mstore\n        /* \"--CODEGEN--\":1542:1546   */\n      0x20\n        /* \"--CODEGEN--\":1537:1540   */\n      dup5\n        /* \"--CODEGEN--\":1533:1547   */\n      add\n        /* \"--CODEGEN--\":1526:1547   */\n      swap4\n      pop\n        /* \"--CODEGEN--\":1570:1574   */\n      0x20\n        /* \"--CODEGEN--\":1565:1568   */\n      dup4\n        /* \"--CODEGEN--\":1561:1575   */\n      add\n        /* \"--CODEGEN--\":1554:1575   */\n      swap3\n      pop\n        /* \"--CODEGEN--\":1400:1582   */\n      pop\n        /* \"--CODEGEN--\":1390:1391   */\n      0x01\n        /* \"--CODEGEN--\":1387:1388   */\n      dup2\n        /* \"--CODEGEN--\":1383:1392   */\n      add\n        /* \"--CODEGEN--\":1378:1392   */\n      swap1\n      pop\n        /* \"--CODEGEN--\":1343:1582   */\n      jump(tag_138)\n    tag_140:\n        /* \"--CODEGEN--\":1347:1361   */\n      pop\n        /* \"--CODEGEN--\":975:1588   */\n      pop\n      pop\n      pop\n      swap3\n      swap2\n      pop\n      pop\n      jump\n        /* \"--CODEGEN--\":1612:2313   */\n    tag_143:\n      0x00\n        /* \"--CODEGEN--\":1727:1730   */\n      dup3\n        /* \"--CODEGEN--\":1720:1724   */\n      0x1f\n        /* \"--CODEGEN--\":1712:1718   */\n      dup4\n        /* \"--CODEGEN--\":1708:1725   */\n      add\n        /* \"--CODEGEN--\":1704:1731   */\n      slt\n        /* \"--CODEGEN--\":1694:1696   */\n      tag_144\n      jumpi\n        /* \"--CODEGEN--\":1745:1746   */\n      0x00\n        /* \"--CODEGEN--\":1742:1743   */\n      dup1\n        /* \"--CODEGEN--\":1735:1747   */\n      revert\n        /* \"--CODEGEN--\":1694:1696   */\n    tag_144:\n        /* \"--CODEGEN--\":1782:1788   */\n      dup2\n        /* \"--CODEGEN--\":1769:1789   */\n      calldataload\n        /* \"--CODEGEN--\":1804:1882   */\n      tag_145\n        /* \"--CODEGEN--\":1819:1881   */\n      tag_146\n        /* \"--CODEGEN--\":1874:1880   */\n      dup3\n        /* \"--CODEGEN--\":1819:1881   */\n      jump(tag_147)\n    tag_146:\n        /* \"--CODEGEN--\":1804:1882   */\n      jump(tag_127)\n    tag_145:\n        /* \"--CODEGEN--\":1795:1882   */\n      swap2\n      pop\n        /* \"--CODEGEN--\":1899:1904   */\n      dup2\n        /* \"--CODEGEN--\":1924:1930   */\n      dup2\n        /* \"--CODEGEN--\":1917:1922   */\n      dup4\n        /* \"--CODEGEN--\":1910:1931   */\n      mstore\n        /* \"--CODEGEN--\":1954:1958   */\n      0x20\n        /* \"--CODEGEN--\":1946:1952   */\n      dup5\n        /* \"--CODEGEN--\":1942:1959   */\n      add\n        /* \"--CODEGEN--\":1932:1959   */\n      swap4\n      pop\n        /* \"--CODEGEN--\":1976:1980   */\n      0x20\n        /* \"--CODEGEN--\":1971:1974   */\n      dup2\n        /* \"--CODEGEN--\":1967:1981   */\n      add\n        /* \"--CODEGEN--\":1960:1981   */\n      swap1\n      pop\n        /* \"--CODEGEN--\":2029:2035   */\n      dup4\n        /* \"--CODEGEN--\":2076:2079   */\n      dup6\n        /* \"--CODEGEN--\":2068:2072   */\n      0x20\n        /* \"--CODEGEN--\":2060:2066   */\n      dup5\n        /* \"--CODEGEN--\":2056:2073   */\n      mul\n        /* \"--CODEGEN--\":2051:2054   */\n      dup3\n        /* \"--CODEGEN--\":2047:2074   */\n      add\n        /* \"--CODEGEN--\":2044:2080   */\n      gt\n        /* \"--CODEGEN--\":2041:2043   */\n      iszero\n      tag_148\n      jumpi\n        /* \"--CODEGEN--\":2093:2094   */\n      0x00\n        /* \"--CODEGEN--\":2090:2091   */\n      dup1\n        /* \"--CODEGEN--\":2083:2095   */\n      revert\n        /* \"--CODEGEN--\":2041:2043   */\n    tag_148:\n        /* \"--CODEGEN--\":2118:2119   */\n      0x00\n        /* \"--CODEGEN--\":2103:2307   */\n    tag_149:\n        /* \"--CODEGEN--\":2128:2134   */\n      dup4\n        /* \"--CODEGEN--\":2125:2126   */\n      dup2\n        /* \"--CODEGEN--\":2122:2135   */\n      lt\n        /* \"--CODEGEN--\":2103:2307   */\n      iszero\n      tag_151\n      jumpi\n        /* \"--CODEGEN--\":2186:2189   */\n      dup2\n        /* \"--CODEGEN--\":2208:2243   */\n      tag_152\n        /* \"--CODEGEN--\":2239:2242   */\n      dup9\n        /* \"--CODEGEN--\":2227:2237   */\n      dup3\n        /* \"--CODEGEN--\":2208:2243   */\n      jump(tag_153)\n    tag_152:\n        /* \"--CODEGEN--\":2203:2206   */\n      dup5\n        /* \"--CODEGEN--\":2196:2244   */\n      mstore\n        /* \"--CODEGEN--\":2267:2271   */\n      0x20\n        /* \"--CODEGEN--\":2262:2265   */\n      dup5\n        /* \"--CODEGEN--\":2258:2272   */\n      add\n        /* \"--CODEGEN--\":2251:2272   */\n      swap4\n      pop\n        /* \"--CODEGEN--\":2295:2299   */\n      0x20\n        /* \"--CODEGEN--\":2290:2293   */\n      dup4\n        /* \"--CODEGEN--\":2286:2300   */\n      add\n        /* \"--CODEGEN--\":2279:2300   */\n      swap3\n      pop\n        /* \"--CODEGEN--\":2160:2307   */\n      pop\n        /* \"--CODEGEN--\":2150:2151   */\n      0x01\n        /* \"--CODEGEN--\":2147:2148   */\n      dup2\n        /* \"--CODEGEN--\":2143:2152   */\n      add\n        /* \"--CODEGEN--\":2138:2152   */\n      swap1\n      pop\n        /* \"--CODEGEN--\":2103:2307   */\n      jump(tag_149)\n    tag_151:\n        /* \"--CODEGEN--\":2107:2121   */\n      pop\n        /* \"--CODEGEN--\":1687:2313   */\n      pop\n      pop\n      pop\n      swap3\n      swap2\n      pop\n      pop\n      jump\n        /* \"--CODEGEN--\":2322:2756   */\n    tag_142:\n      0x00\n        /* \"--CODEGEN--\":2420:2423   */\n      dup3\n        /* \"--CODEGEN--\":2413:2417   */\n      0x1f\n        /* \"--CODEGEN--\":2405:2411   */\n      dup4\n        /* \"--CODEGEN--\":2401:2418   */\n      add\n        /* \"--CODEGEN--\":2397:2424   */\n      slt\n        /* \"--CODEGEN--\":2387:2389   */\n      tag_154\n      jumpi\n        /* \"--CODEGEN--\":2438:2439   */\n      0x00\n        /* \"--CODEGEN--\":2435:2436   */\n      dup1\n        /* \"--CODEGEN--\":2428:2440   */\n      revert\n        /* \"--CODEGEN--\":2387:2389   */\n    tag_154:\n        /* \"--CODEGEN--\":2475:2481   */\n      dup2\n        /* \"--CODEGEN--\":2462:2482   */\n      calldataload\n        /* \"--CODEGEN--\":2497:2558   */\n      tag_155\n        /* \"--CODEGEN--\":2512:2557   */\n      tag_156\n        /* \"--CODEGEN--\":2550:2556   */\n      dup3\n        /* \"--CODEGEN--\":2512:2557   */\n      jump(tag_157)\n    tag_156:\n        /* \"--CODEGEN--\":2497:2558   */\n      jump(tag_127)\n    tag_155:\n        /* \"--CODEGEN--\":2488:2558   */\n      swap2\n      pop\n        /* \"--CODEGEN--\":2578:2584   */\n      dup1\n        /* \"--CODEGEN--\":2571:2576   */\n      dup3\n        /* \"--CODEGEN--\":2564:2585   */\n      mstore\n        /* \"--CODEGEN--\":2614:2618   */\n      0x20\n        /* \"--CODEGEN--\":2606:2612   */\n      dup4\n        /* \"--CODEGEN--\":2602:2619   */\n      add\n        /* \"--CODEGEN--\":2647:2651   */\n      0x20\n        /* \"--CODEGEN--\":2640:2645   */\n      dup4\n        /* \"--CODEGEN--\":2636:2652   */\n      add\n        /* \"--CODEGEN--\":2682:2685   */\n      dup6\n        /* \"--CODEGEN--\":2673:2679   */\n      dup4\n        /* \"--CODEGEN--\":2668:2671   */\n      dup4\n        /* \"--CODEGEN--\":2664:2680   */\n      add\n        /* \"--CODEGEN--\":2661:2686   */\n      gt\n        /* \"--CODEGEN--\":2658:2660   */\n      iszero\n      tag_158\n      jumpi\n        /* \"--CODEGEN--\":2699:2700   */\n      0x00\n        /* \"--CODEGEN--\":2696:2697   */\n      dup1\n        /* \"--CODEGEN--\":2689:2701   */\n      revert\n        /* \"--CODEGEN--\":2658:2660   */\n    tag_158:\n        /* \"--CODEGEN--\":2709:2750   */\n      tag_159\n        /* \"--CODEGEN--\":2743:2749   */\n      dup4\n        /* \"--CODEGEN--\":2738:2741   */\n      dup3\n        /* \"--CODEGEN--\":2733:2736   */\n      dup5\n        /* \"--CODEGEN--\":2709:2750   */\n      jump(tag_160)\n    tag_159:\n        /* \"--CODEGEN--\":2380:2756   */\n      pop\n      pop\n      pop\n      swap3\n      swap2\n      pop\n      pop\n      jump\n        /* \"--CODEGEN--\":2765:3207   */\n    tag_161:\n      0x00\n        /* \"--CODEGEN--\":2867:2870   */\n      dup3\n        /* \"--CODEGEN--\":2860:2864   */\n      0x1f\n        /* \"--CODEGEN--\":2852:2858   */\n      dup4\n        /* \"--CODEGEN--\":2848:2865   */\n      add\n        /* \"--CODEGEN--\":2844:2871   */\n      slt\n        /* \"--CODEGEN--\":2834:2836   */\n      tag_162\n      jumpi\n        /* \"--CODEGEN--\":2885:2886   */\n      0x00\n        /* \"--CODEGEN--\":2882:2883   */\n      dup1\n        /* \"--CODEGEN--\":2875:2887   */\n      revert\n        /* \"--CODEGEN--\":2834:2836   */\n    tag_162:\n        /* \"--CODEGEN--\":2922:2928   */\n      dup2\n        /* \"--CODEGEN--\":2909:2929   */\n      calldataload\n        /* \"--CODEGEN--\":2944:3009   */\n      tag_163\n        /* \"--CODEGEN--\":2959:3008   */\n      tag_164\n        /* \"--CODEGEN--\":3001:3007   */\n      dup3\n        /* \"--CODEGEN--\":2959:3008   */\n      jump(tag_165)\n    tag_164:\n        /* \"--CODEGEN--\":2944:3009   */\n      jump(tag_127)\n    tag_163:\n        /* \"--CODEGEN--\":2935:3009   */\n      swap2\n      pop\n        /* \"--CODEGEN--\":3029:3035   */\n      dup1\n        /* \"--CODEGEN--\":3022:3027   */\n      dup3\n        /* \"--CODEGEN--\":3015:3036   */\n      mstore\n        /* \"--CODEGEN--\":3065:3069   */\n      0x20\n        /* \"--CODEGEN--\":3057:3063   */\n      dup4\n        /* \"--CODEGEN--\":3053:3070   */\n      add\n        /* \"--CODEGEN--\":3098:3102   */\n      0x20\n        /* \"--CODEGEN--\":3091:3096   */\n      dup4\n        /* \"--CODEGEN--\":3087:3103   */\n      add\n        /* \"--CODEGEN--\":3133:3136   */\n      dup6\n        /* \"--CODEGEN--\":3124:3130   */\n      dup4\n        /* \"--CODEGEN--\":3119:3122   */\n      dup4\n        /* \"--CODEGEN--\":3115:3131   */\n      add\n        /* \"--CODEGEN--\":3112:3137   */\n      gt\n        /* \"--CODEGEN--\":3109:3111   */\n      iszero\n      tag_166\n      jumpi\n        /* \"--CODEGEN--\":3150:3151   */\n      0x00\n        /* \"--CODEGEN--\":3147:3148   */\n      dup1\n        /* \"--CODEGEN--\":3140:3152   */\n      revert\n        /* \"--CODEGEN--\":3109:3111   */\n    tag_166:\n        /* \"--CODEGEN--\":3160:3201   */\n      tag_167\n        /* \"--CODEGEN--\":3194:3200   */\n      dup4\n        /* \"--CODEGEN--\":3189:3192   */\n      dup3\n        /* \"--CODEGEN--\":3184:3187   */\n      dup5\n        /* \"--CODEGEN--\":3160:3201   */\n      jump(tag_160)\n    tag_167:\n        /* \"--CODEGEN--\":2827:3207   */\n      pop\n      pop\n      pop\n      swap3\n      swap2\n      pop\n      pop\n      jump\n        /* \"--CODEGEN--\":3215:3345   */\n    tag_168:\n      0x00\n        /* \"--CODEGEN--\":3295:3301   */\n      dup2\n        /* \"--CODEGEN--\":3282:3302   */\n      calldataload\n        /* \"--CODEGEN--\":3273:3302   */\n      swap1\n      pop\n        /* \"--CODEGEN--\":3307:3340   */\n      tag_169\n        /* \"--CODEGEN--\":3334:3339   */\n      dup2\n        /* \"--CODEGEN--\":3307:3340   */\n      jump(tag_170)\n    tag_169:\n        /* \"--CODEGEN--\":3267:3345   */\n      swap3\n      swap2\n      pop\n      pop\n      jump\n        /* \"--CODEGEN--\":3352:3480   */\n    tag_171:\n      0x00\n        /* \"--CODEGEN--\":3431:3437   */\n      dup2\n        /* \"--CODEGEN--\":3418:3438   */\n      calldataload\n        /* \"--CODEGEN--\":3409:3438   */\n      swap1\n      pop\n        /* \"--CODEGEN--\":3443:3475   */\n      tag_172\n        /* \"--CODEGEN--\":3469:3474   */\n      dup2\n        /* \"--CODEGEN--\":3443:3475   */\n      jump(tag_173)\n    tag_172:\n        /* \"--CODEGEN--\":3403:3480   */\n      swap3\n      swap2\n      pop\n      pop\n      jump\n        /* \"--CODEGEN--\":3487:3613   */\n    tag_153:\n      0x00\n        /* \"--CODEGEN--\":3565:3571   */\n      dup2\n        /* \"--CODEGEN--\":3552:3572   */\n      calldataload\n        /* \"--CODEGEN--\":3543:3572   */\n      swap1\n      pop\n        /* \"--CODEGEN--\":3577:3608   */\n      tag_174\n        /* \"--CODEGEN--\":3602:3607   */\n      dup2\n        /* \"--CODEGEN--\":3577:3608   */\n      jump(tag_175)\n    tag_174:\n        /* \"--CODEGEN--\":3537:3613   */\n      swap3\n      swap2\n      pop\n      pop\n      jump\n        /* \"--CODEGEN--\":3620:4092   */\n    tag_29:\n      0x00\n      dup1\n        /* \"--CODEGEN--\":3751:3753   */\n      0x40\n        /* \"--CODEGEN--\":3739:3748   */\n      dup4\n        /* \"--CODEGEN--\":3730:3737   */\n      dup6\n        /* \"--CODEGEN--\":3726:3749   */\n      sub\n        /* \"--CODEGEN--\":3722:3754   */\n      slt\n        /* \"--CODEGEN--\":3719:3721   */\n      iszero\n      tag_176\n      jumpi\n        /* \"--CODEGEN--\":3767:3768   */\n      0x00\n        /* \"--CODEGEN--\":3764:3765   */\n      dup1\n        /* \"--CODEGEN--\":3757:3769   */\n      revert\n        /* \"--CODEGEN--\":3719:3721   */\n    tag_176:\n        /* \"--CODEGEN--\":3830:3831   */\n      0x00\n        /* \"--CODEGEN--\":3819:3828   */\n      dup4\n        /* \"--CODEGEN--\":3815:3832   */\n      add\n        /* \"--CODEGEN--\":3802:3833   */\n      calldataload\n        /* \"--CODEGEN--\":3853:3871   */\n      0xffffffffffffffff\n        /* \"--CODEGEN--\":3845:3851   */\n      dup2\n        /* \"--CODEGEN--\":3842:3872   */\n      gt\n        /* \"--CODEGEN--\":3839:3841   */\n      iszero\n      tag_177\n      jumpi\n        /* \"--CODEGEN--\":3885:3886   */\n      0x00\n        /* \"--CODEGEN--\":3882:3883   */\n      dup1\n        /* \"--CODEGEN--\":3875:3887   */\n      revert\n        /* \"--CODEGEN--\":3839:3841   */\n    tag_177:\n        /* \"--CODEGEN--\":3905:3968   */\n      tag_178\n        /* \"--CODEGEN--\":3960:3967   */\n      dup6\n        /* \"--CODEGEN--\":3951:3957   */\n      dup3\n        /* \"--CODEGEN--\":3940:3949   */\n      dup7\n        /* \"--CODEGEN--\":3936:3958   */\n      add\n        /* \"--CODEGEN--\":3905:3968   */\n      jump(tag_161)\n    tag_178:\n        /* \"--CODEGEN--\":3895:3968   */\n      swap3\n      pop\n        /* \"--CODEGEN--\":3781:3974   */\n      pop\n        /* \"--CODEGEN--\":4005:4007   */\n      0x20\n        /* \"--CODEGEN--\":4023:4076   */\n      tag_179\n        /* \"--CODEGEN--\":4068:4075   */\n      dup6\n        /* \"--CODEGEN--\":4059:4065   */\n      dup3\n        /* \"--CODEGEN--\":4048:4057   */\n      dup7\n        /* \"--CODEGEN--\":4044:4066   */\n      add\n        /* \"--CODEGEN--\":4023:4076   */\n      jump(tag_168)\n    tag_179:\n        /* \"--CODEGEN--\":4013:4076   */\n      swap2\n      pop\n        /* \"--CODEGEN--\":3984:4082   */\n      pop\n        /* \"--CODEGEN--\":3713:4092   */\n      swap3\n      pop\n      swap3\n      swap1\n      pop\n      jump\n        /* \"--CODEGEN--\":4099:4802   */\n    tag_18:\n      0x00\n      dup1\n      0x00\n        /* \"--CODEGEN--\":4257:4259   */\n      0x60\n        /* \"--CODEGEN--\":4245:4254   */\n      dup5\n        /* \"--CODEGEN--\":4236:4243   */\n      dup7\n        /* \"--CODEGEN--\":4232:4255   */\n      sub\n        /* \"--CODEGEN--\":4228:4260   */\n      slt\n        /* \"--CODEGEN--\":4225:4227   */\n      iszero\n      tag_180\n      jumpi\n        /* \"--CODEGEN--\":4273:4274   */\n      0x00\n        /* \"--CODEGEN--\":4270:4271   */\n      dup1\n        /* \"--CODEGEN--\":4263:4275   */\n      revert\n        /* \"--CODEGEN--\":4225:4227   */\n    tag_180:\n        /* \"--CODEGEN--\":4336:4337   */\n      0x00\n        /* \"--CODEGEN--\":4325:4334   */\n      dup5\n        /* \"--CODEGEN--\":4321:4338   */\n      add\n        /* \"--CODEGEN--\":4308:4339   */\n      calldataload\n        /* \"--CODEGEN--\":4359:4377   */\n      0xffffffffffffffff\n        /* \"--CODEGEN--\":4351:4357   */\n      dup2\n        /* \"--CODEGEN--\":4348:4378   */\n      gt\n        /* \"--CODEGEN--\":4345:4347   */\n      iszero\n      tag_181\n      jumpi\n        /* \"--CODEGEN--\":4391:4392   */\n      0x00\n        /* \"--CODEGEN--\":4388:4389   */\n      dup1\n        /* \"--CODEGEN--\":4381:4393   */\n      revert\n        /* \"--CODEGEN--\":4345:4347   */\n    tag_181:\n        /* \"--CODEGEN--\":4411:4474   */\n      tag_182\n        /* \"--CODEGEN--\":4466:4473   */\n      dup7\n        /* \"--CODEGEN--\":4457:4463   */\n      dup3\n        /* \"--CODEGEN--\":4446:4455   */\n      dup8\n        /* \"--CODEGEN--\":4442:4464   */\n      add\n        /* \"--CODEGEN--\":4411:4474   */\n      jump(tag_161)\n    tag_182:\n        /* \"--CODEGEN--\":4401:4474   */\n      swap4\n      pop\n        /* \"--CODEGEN--\":4287:4480   */\n      pop\n        /* \"--CODEGEN--\":4511:4513   */\n      0x20\n        /* \"--CODEGEN--\":4529:4582   */\n      tag_183\n        /* \"--CODEGEN--\":4574:4581   */\n      dup7\n        /* \"--CODEGEN--\":4565:4571   */\n      dup3\n        /* \"--CODEGEN--\":4554:4563   */\n      dup8\n        /* \"--CODEGEN--\":4550:4572   */\n      add\n        /* \"--CODEGEN--\":4529:4582   */\n      jump(tag_168)\n    tag_183:\n        /* \"--CODEGEN--\":4519:4582   */\n      swap3\n      pop\n        /* \"--CODEGEN--\":4490:4588   */\n      pop\n        /* \"--CODEGEN--\":4647:4649   */\n      0x40\n        /* \"--CODEGEN--\":4636:4645   */\n      dup5\n        /* \"--CODEGEN--\":4632:4650   */\n      add\n        /* \"--CODEGEN--\":4619:4651   */\n      calldataload\n        /* \"--CODEGEN--\":4671:4689   */\n      0xffffffffffffffff\n        /* \"--CODEGEN--\":4663:4669   */\n      dup2\n        /* \"--CODEGEN--\":4660:4690   */\n      gt\n        /* \"--CODEGEN--\":4657:4659   */\n      iszero\n      tag_184\n      jumpi\n        /* \"--CODEGEN--\":4703:4704   */\n      0x00\n        /* \"--CODEGEN--\":4700:4701   */\n      dup1\n        /* \"--CODEGEN--\":4693:4705   */\n      revert\n        /* \"--CODEGEN--\":4657:4659   */\n    tag_184:\n        /* \"--CODEGEN--\":4723:4786   */\n      tag_185\n        /* \"--CODEGEN--\":4778:4785   */\n      dup7\n        /* \"--CODEGEN--\":4769:4775   */\n      dup3\n        /* \"--CODEGEN--\":4758:4767   */\n      dup8\n        /* \"--CODEGEN--\":4754:4776   */\n      add\n        /* \"--CODEGEN--\":4723:4786   */\n      jump(tag_161)\n    tag_185:\n        /* \"--CODEGEN--\":4713:4786   */\n      swap2\n      pop\n        /* \"--CODEGEN--\":4598:4792   */\n      pop\n        /* \"--CODEGEN--\":4219:4802   */\n      swap3\n      pop\n      swap3\n      pop\n      swap3\n      jump\n        /* \"--CODEGEN--\":4809:5638   */\n    tag_35:\n      0x00\n      dup1\n      0x00\n      dup1\n        /* \"--CODEGEN--\":4984:4987   */\n      0x80\n        /* \"--CODEGEN--\":4972:4981   */\n      dup6\n        /* \"--CODEGEN--\":4963:4970   */\n      dup8\n        /* \"--CODEGEN--\":4959:4982   */\n      sub\n        /* \"--CODEGEN--\":4955:4988   */\n      slt\n        /* \"--CODEGEN--\":4952:4954   */\n      iszero\n      tag_186\n      jumpi\n        /* \"--CODEGEN--\":5001:5002   */\n      0x00\n        /* \"--CODEGEN--\":4998:4999   */\n      dup1\n        /* \"--CODEGEN--\":4991:5003   */\n      revert\n        /* \"--CODEGEN--\":4952:4954   */\n    tag_186:\n        /* \"--CODEGEN--\":5064:5065   */\n      0x00\n        /* \"--CODEGEN--\":5053:5062   */\n      dup6\n        /* \"--CODEGEN--\":5049:5066   */\n      add\n        /* \"--CODEGEN--\":5036:5067   */\n      calldataload\n        /* \"--CODEGEN--\":5087:5105   */\n      0xffffffffffffffff\n        /* \"--CODEGEN--\":5079:5085   */\n      dup2\n        /* \"--CODEGEN--\":5076:5106   */\n      gt\n        /* \"--CODEGEN--\":5073:5075   */\n      iszero\n      tag_187\n      jumpi\n        /* \"--CODEGEN--\":5119:5120   */\n      0x00\n        /* \"--CODEGEN--\":5116:5117   */\n      dup1\n        /* \"--CODEGEN--\":5109:5121   */\n      revert\n        /* \"--CODEGEN--\":5073:5075   */\n    tag_187:\n        /* \"--CODEGEN--\":5139:5202   */\n      tag_188\n        /* \"--CODEGEN--\":5194:5201   */\n      dup8\n        /* \"--CODEGEN--\":5185:5191   */\n      dup3\n        /* \"--CODEGEN--\":5174:5183   */\n      dup9\n        /* \"--CODEGEN--\":5170:5192   */\n      add\n        /* \"--CODEGEN--\":5139:5202   */\n      jump(tag_161)\n    tag_188:\n        /* \"--CODEGEN--\":5129:5202   */\n      swap5\n      pop\n        /* \"--CODEGEN--\":5015:5208   */\n      pop\n        /* \"--CODEGEN--\":5239:5241   */\n      0x20\n        /* \"--CODEGEN--\":5257:5310   */\n      tag_189\n        /* \"--CODEGEN--\":5302:5309   */\n      dup8\n        /* \"--CODEGEN--\":5293:5299   */\n      dup3\n        /* \"--CODEGEN--\":5282:5291   */\n      dup9\n        /* \"--CODEGEN--\":5278:5300   */\n      add\n        /* \"--CODEGEN--\":5257:5310   */\n      jump(tag_168)\n    tag_189:\n        /* \"--CODEGEN--\":5247:5310   */\n      swap4\n      pop\n        /* \"--CODEGEN--\":5218:5316   */\n      pop\n        /* \"--CODEGEN--\":5375:5377   */\n      0x40\n        /* \"--CODEGEN--\":5364:5373   */\n      dup6\n        /* \"--CODEGEN--\":5360:5378   */\n      add\n        /* \"--CODEGEN--\":5347:5379   */\n      calldataload\n        /* \"--CODEGEN--\":5399:5417   */\n      0xffffffffffffffff\n        /* \"--CODEGEN--\":5391:5397   */\n      dup2\n        /* \"--CODEGEN--\":5388:5418   */\n      gt\n        /* \"--CODEGEN--\":5385:5387   */\n      iszero\n      tag_190\n      jumpi\n        /* \"--CODEGEN--\":5431:5432   */\n      0x00\n        /* \"--CODEGEN--\":5428:5429   */\n      dup1\n        /* \"--CODEGEN--\":5421:5433   */\n      revert\n        /* \"--CODEGEN--\":5385:5387   */\n    tag_190:\n        /* \"--CODEGEN--\":5451:5514   */\n      tag_191\n        /* \"--CODEGEN--\":5506:5513   */\n      dup8\n        /* \"--CODEGEN--\":5497:5503   */\n      dup3\n        /* \"--CODEGEN--\":5486:5495   */\n      dup9\n        /* \"--CODEGEN--\":5482:5504   */\n      add\n        /* \"--CODEGEN--\":5451:5514   */\n      jump(tag_161)\n    tag_191:\n        /* \"--CODEGEN--\":5441:5514   */\n      swap3\n      pop\n        /* \"--CODEGEN--\":5326:5520   */\n      pop\n        /* \"--CODEGEN--\":5551:5553   */\n      0x60\n        /* \"--CODEGEN--\":5569:5622   */\n      tag_192\n        /* \"--CODEGEN--\":5614:5621   */\n      dup8\n        /* \"--CODEGEN--\":5605:5611   */\n      dup3\n        /* \"--CODEGEN--\":5594:5603   */\n      dup9\n        /* \"--CODEGEN--\":5590:5612   */\n      add\n        /* \"--CODEGEN--\":5569:5622   */\n      jump(tag_119)\n    tag_192:\n        /* \"--CODEGEN--\":5559:5622   */\n      swap2\n      pop\n        /* \"--CODEGEN--\":5530:5628   */\n      pop\n        /* \"--CODEGEN--\":4946:5638   */\n      swap3\n      swap6\n      swap2\n      swap5\n      pop\n      swap3\n      pop\n      jump\n        /* \"--CODEGEN--\":5645:6596   */\n    tag_25:\n      0x00\n      dup1\n      0x00\n      dup1\n      0x00\n        /* \"--CODEGEN--\":5835:5838   */\n      0xa0\n        /* \"--CODEGEN--\":5823:5832   */\n      dup7\n        /* \"--CODEGEN--\":5814:5821   */\n      dup9\n        /* \"--CODEGEN--\":5810:5833   */\n      sub\n        /* \"--CODEGEN--\":5806:5839   */\n      slt\n        /* \"--CODEGEN--\":5803:5805   */\n      iszero\n      tag_193\n      jumpi\n        /* \"--CODEGEN--\":5852:5853   */\n      0x00\n        /* \"--CODEGEN--\":5849:5850   */\n      dup1\n        /* \"--CODEGEN--\":5842:5854   */\n      revert\n        /* \"--CODEGEN--\":5803:5805   */\n    tag_193:\n        /* \"--CODEGEN--\":5915:5916   */\n      0x00\n        /* \"--CODEGEN--\":5904:5913   */\n      dup7\n        /* \"--CODEGEN--\":5900:5917   */\n      add\n        /* \"--CODEGEN--\":5887:5918   */\n      calldataload\n        /* \"--CODEGEN--\":5938:5956   */\n      0xffffffffffffffff\n        /* \"--CODEGEN--\":5930:5936   */\n      dup2\n        /* \"--CODEGEN--\":5927:5957   */\n      gt\n        /* \"--CODEGEN--\":5924:5926   */\n      iszero\n      tag_194\n      jumpi\n        /* \"--CODEGEN--\":5970:5971   */\n      0x00\n        /* \"--CODEGEN--\":5967:5968   */\n      dup1\n        /* \"--CODEGEN--\":5960:5972   */\n      revert\n        /* \"--CODEGEN--\":5924:5926   */\n    tag_194:\n        /* \"--CODEGEN--\":5990:6053   */\n      tag_195\n        /* \"--CODEGEN--\":6045:6052   */\n      dup9\n        /* \"--CODEGEN--\":6036:6042   */\n      dup3\n        /* \"--CODEGEN--\":6025:6034   */\n      dup10\n        /* \"--CODEGEN--\":6021:6043   */\n      add\n        /* \"--CODEGEN--\":5990:6053   */\n      jump(tag_161)\n    tag_195:\n        /* \"--CODEGEN--\":5980:6053   */\n      swap6\n      pop\n        /* \"--CODEGEN--\":5866:6059   */\n      pop\n        /* \"--CODEGEN--\":6090:6092   */\n      0x20\n        /* \"--CODEGEN--\":6108:6161   */\n      tag_196\n        /* \"--CODEGEN--\":6153:6160   */\n      dup9\n        /* \"--CODEGEN--\":6144:6150   */\n      dup3\n        /* \"--CODEGEN--\":6133:6142   */\n      dup10\n        /* \"--CODEGEN--\":6129:6151   */\n      add\n        /* \"--CODEGEN--\":6108:6161   */\n      jump(tag_168)\n    tag_196:\n        /* \"--CODEGEN--\":6098:6161   */\n      swap5\n      pop\n        /* \"--CODEGEN--\":6069:6167   */\n      pop\n        /* \"--CODEGEN--\":6226:6228   */\n      0x40\n        /* \"--CODEGEN--\":6215:6224   */\n      dup7\n        /* \"--CODEGEN--\":6211:6229   */\n      add\n        /* \"--CODEGEN--\":6198:6230   */\n      calldataload\n        /* \"--CODEGEN--\":6250:6268   */\n      0xffffffffffffffff\n        /* \"--CODEGEN--\":6242:6248   */\n      dup2\n        /* \"--CODEGEN--\":6239:6269   */\n      gt\n        /* \"--CODEGEN--\":6236:6238   */\n      iszero\n      tag_197\n      jumpi\n        /* \"--CODEGEN--\":6282:6283   */\n      0x00\n        /* \"--CODEGEN--\":6279:6280   */\n      dup1\n        /* \"--CODEGEN--\":6272:6284   */\n      revert\n        /* \"--CODEGEN--\":6236:6238   */\n    tag_197:\n        /* \"--CODEGEN--\":6302:6365   */\n      tag_198\n        /* \"--CODEGEN--\":6357:6364   */\n      dup9\n        /* \"--CODEGEN--\":6348:6354   */\n      dup3\n        /* \"--CODEGEN--\":6337:6346   */\n      dup10\n        /* \"--CODEGEN--\":6333:6355   */\n      add\n        /* \"--CODEGEN--\":6302:6365   */\n      jump(tag_161)\n    tag_198:\n        /* \"--CODEGEN--\":6292:6365   */\n      swap4\n      pop\n        /* \"--CODEGEN--\":6177:6371   */\n      pop\n        /* \"--CODEGEN--\":6402:6404   */\n      0x60\n        /* \"--CODEGEN--\":6420:6473   */\n      tag_199\n        /* \"--CODEGEN--\":6465:6472   */\n      dup9\n        /* \"--CODEGEN--\":6456:6462   */\n      dup3\n        /* \"--CODEGEN--\":6445:6454   */\n      dup10\n        /* \"--CODEGEN--\":6441:6463   */\n      add\n        /* \"--CODEGEN--\":6420:6473   */\n      jump(tag_119)\n    tag_199:\n        /* \"--CODEGEN--\":6410:6473   */\n      swap3\n      pop\n        /* \"--CODEGEN--\":6381:6479   */\n      pop\n        /* \"--CODEGEN--\":6510:6513   */\n      0x80\n        /* \"--CODEGEN--\":6529:6580   */\n      tag_200\n        /* \"--CODEGEN--\":6572:6579   */\n      dup9\n        /* \"--CODEGEN--\":6563:6569   */\n      dup3\n        /* \"--CODEGEN--\":6552:6561   */\n      dup10\n        /* \"--CODEGEN--\":6548:6570   */\n      add\n        /* \"--CODEGEN--\":6529:6580   */\n      jump(tag_153)\n    tag_200:\n        /* \"--CODEGEN--\":6519:6580   */\n      swap2\n      pop\n        /* \"--CODEGEN--\":6489:6586   */\n      pop\n        /* \"--CODEGEN--\":5797:6596   */\n      swap3\n      swap6\n      pop\n      swap3\n      swap6\n      swap1\n      swap4\n      pop\n      jump\n        /* \"--CODEGEN--\":6603:8226   */\n    tag_41:\n      0x00\n      dup1\n      0x00\n      dup1\n      0x00\n      dup1\n      0x00\n        /* \"--CODEGEN--\":6908:6911   */\n      0xe0\n        /* \"--CODEGEN--\":6896:6905   */\n      dup9\n        /* \"--CODEGEN--\":6887:6894   */\n      dup11\n        /* \"--CODEGEN--\":6883:6906   */\n      sub\n        /* \"--CODEGEN--\":6879:6912   */\n      slt\n        /* \"--CODEGEN--\":6876:6878   */\n      iszero\n      tag_201\n      jumpi\n        /* \"--CODEGEN--\":6925:6926   */\n      0x00\n        /* \"--CODEGEN--\":6922:6923   */\n      dup1\n        /* \"--CODEGEN--\":6915:6927   */\n      revert\n        /* \"--CODEGEN--\":6876:6878   */\n    tag_201:\n        /* \"--CODEGEN--\":6988:6989   */\n      0x00\n        /* \"--CODEGEN--\":6977:6986   */\n      dup9\n        /* \"--CODEGEN--\":6973:6990   */\n      add\n        /* \"--CODEGEN--\":6960:6991   */\n      calldataload\n        /* \"--CODEGEN--\":7011:7029   */\n      0xffffffffffffffff\n        /* \"--CODEGEN--\":7003:7009   */\n      dup2\n        /* \"--CODEGEN--\":7000:7030   */\n      gt\n        /* \"--CODEGEN--\":6997:6999   */\n      iszero\n      tag_202\n      jumpi\n        /* \"--CODEGEN--\":7043:7044   */\n      0x00\n        /* \"--CODEGEN--\":7040:7041   */\n      dup1\n        /* \"--CODEGEN--\":7033:7045   */\n      revert\n        /* \"--CODEGEN--\":6997:6999   */\n    tag_202:\n        /* \"--CODEGEN--\":7063:7126   */\n      tag_203\n        /* \"--CODEGEN--\":7118:7125   */\n      dup11\n        /* \"--CODEGEN--\":7109:7115   */\n      dup3\n        /* \"--CODEGEN--\":7098:7107   */\n      dup12\n        /* \"--CODEGEN--\":7094:7116   */\n      add\n        /* \"--CODEGEN--\":7063:7126   */\n      jump(tag_161)\n    tag_203:\n        /* \"--CODEGEN--\":7053:7126   */\n      swap8\n      pop\n        /* \"--CODEGEN--\":6939:7132   */\n      pop\n        /* \"--CODEGEN--\":7163:7165   */\n      0x20\n        /* \"--CODEGEN--\":7181:7234   */\n      tag_204\n        /* \"--CODEGEN--\":7226:7233   */\n      dup11\n        /* \"--CODEGEN--\":7217:7223   */\n      dup3\n        /* \"--CODEGEN--\":7206:7215   */\n      dup12\n        /* \"--CODEGEN--\":7202:7224   */\n      add\n        /* \"--CODEGEN--\":7181:7234   */\n      jump(tag_168)\n    tag_204:\n        /* \"--CODEGEN--\":7171:7234   */\n      swap7\n      pop\n        /* \"--CODEGEN--\":7142:7240   */\n      pop\n        /* \"--CODEGEN--\":7299:7301   */\n      0x40\n        /* \"--CODEGEN--\":7288:7297   */\n      dup9\n        /* \"--CODEGEN--\":7284:7302   */\n      add\n        /* \"--CODEGEN--\":7271:7303   */\n      calldataload\n        /* \"--CODEGEN--\":7323:7341   */\n      0xffffffffffffffff\n        /* \"--CODEGEN--\":7315:7321   */\n      dup2\n        /* \"--CODEGEN--\":7312:7342   */\n      gt\n        /* \"--CODEGEN--\":7309:7311   */\n      iszero\n      tag_205\n      jumpi\n        /* \"--CODEGEN--\":7355:7356   */\n      0x00\n        /* \"--CODEGEN--\":7352:7353   */\n      dup1\n        /* \"--CODEGEN--\":7345:7357   */\n      revert\n        /* \"--CODEGEN--\":7309:7311   */\n    tag_205:\n        /* \"--CODEGEN--\":7375:7438   */\n      tag_206\n        /* \"--CODEGEN--\":7430:7437   */\n      dup11\n        /* \"--CODEGEN--\":7421:7427   */\n      dup3\n        /* \"--CODEGEN--\":7410:7419   */\n      dup12\n        /* \"--CODEGEN--\":7406:7428   */\n      add\n        /* \"--CODEGEN--\":7375:7438   */\n      jump(tag_161)\n    tag_206:\n        /* \"--CODEGEN--\":7365:7438   */\n      swap6\n      pop\n        /* \"--CODEGEN--\":7250:7444   */\n      pop\n        /* \"--CODEGEN--\":7503:7505   */\n      0x60\n        /* \"--CODEGEN--\":7492:7501   */\n      dup9\n        /* \"--CODEGEN--\":7488:7506   */\n      add\n        /* \"--CODEGEN--\":7475:7507   */\n      calldataload\n        /* \"--CODEGEN--\":7527:7545   */\n      0xffffffffffffffff\n        /* \"--CODEGEN--\":7519:7525   */\n      dup2\n        /* \"--CODEGEN--\":7516:7546   */\n      gt\n        /* \"--CODEGEN--\":7513:7515   */\n      iszero\n      tag_207\n      jumpi\n        /* \"--CODEGEN--\":7559:7560   */\n      0x00\n        /* \"--CODEGEN--\":7556:7557   */\n      dup1\n        /* \"--CODEGEN--\":7549:7561   */\n      revert\n        /* \"--CODEGEN--\":7513:7515   */\n    tag_207:\n        /* \"--CODEGEN--\":7579:7663   */\n      tag_208\n        /* \"--CODEGEN--\":7655:7662   */\n      dup11\n        /* \"--CODEGEN--\":7646:7652   */\n      dup3\n        /* \"--CODEGEN--\":7635:7644   */\n      dup12\n        /* \"--CODEGEN--\":7631:7653   */\n      add\n        /* \"--CODEGEN--\":7579:7663   */\n      jump(tag_133)\n    tag_208:\n        /* \"--CODEGEN--\":7569:7663   */\n      swap5\n      pop\n        /* \"--CODEGEN--\":7454:7669   */\n      pop\n        /* \"--CODEGEN--\":7728:7731   */\n      0x80\n        /* \"--CODEGEN--\":7717:7726   */\n      dup9\n        /* \"--CODEGEN--\":7713:7732   */\n      add\n        /* \"--CODEGEN--\":7700:7733   */\n      calldataload\n        /* \"--CODEGEN--\":7753:7771   */\n      0xffffffffffffffff\n        /* \"--CODEGEN--\":7745:7751   */\n      dup2\n        /* \"--CODEGEN--\":7742:7772   */\n      gt\n        /* \"--CODEGEN--\":7739:7741   */\n      iszero\n      tag_209\n      jumpi\n        /* \"--CODEGEN--\":7785:7786   */\n      0x00\n        /* \"--CODEGEN--\":7782:7783   */\n      dup1\n        /* \"--CODEGEN--\":7775:7787   */\n      revert\n        /* \"--CODEGEN--\":7739:7741   */\n    tag_209:\n        /* \"--CODEGEN--\":7805:7883   */\n      tag_210\n        /* \"--CODEGEN--\":7875:7882   */\n      dup11\n        /* \"--CODEGEN--\":7866:7872   */\n      dup3\n        /* \"--CODEGEN--\":7855:7864   */\n      dup12\n        /* \"--CODEGEN--\":7851:7873   */\n      add\n        /* \"--CODEGEN--\":7805:7883   */\n      jump(tag_122)\n    tag_210:\n        /* \"--CODEGEN--\":7795:7883   */\n      swap4\n      pop\n        /* \"--CODEGEN--\":7679:7889   */\n      pop\n        /* \"--CODEGEN--\":7948:7951   */\n      0xa0\n        /* \"--CODEGEN--\":7937:7946   */\n      dup9\n        /* \"--CODEGEN--\":7933:7952   */\n      add\n        /* \"--CODEGEN--\":7920:7953   */\n      calldataload\n        /* \"--CODEGEN--\":7973:7991   */\n      0xffffffffffffffff\n        /* \"--CODEGEN--\":7965:7971   */\n      dup2\n        /* \"--CODEGEN--\":7962:7992   */\n      gt\n        /* \"--CODEGEN--\":7959:7961   */\n      iszero\n      tag_211\n      jumpi\n        /* \"--CODEGEN--\":8005:8006   */\n      0x00\n        /* \"--CODEGEN--\":8002:8003   */\n      dup1\n        /* \"--CODEGEN--\":7995:8007   */\n      revert\n        /* \"--CODEGEN--\":7959:7961   */\n    tag_211:\n        /* \"--CODEGEN--\":8025:8101   */\n      tag_212\n        /* \"--CODEGEN--\":8093:8100   */\n      dup11\n        /* \"--CODEGEN--\":8084:8090   */\n      dup3\n        /* \"--CODEGEN--\":8073:8082   */\n      dup12\n        /* \"--CODEGEN--\":8069:8091   */\n      add\n        /* \"--CODEGEN--\":8025:8101   */\n      jump(tag_143)\n    tag_212:\n        /* \"--CODEGEN--\":8015:8101   */\n      swap3\n      pop\n        /* \"--CODEGEN--\":7899:8107   */\n      pop\n        /* \"--CODEGEN--\":8138:8141   */\n      0xc0\n        /* \"--CODEGEN--\":8157:8210   */\n      tag_213\n        /* \"--CODEGEN--\":8202:8209   */\n      dup11\n        /* \"--CODEGEN--\":8193:8199   */\n      dup3\n        /* \"--CODEGEN--\":8182:8191   */\n      dup12\n        /* \"--CODEGEN--\":8178:8200   */\n      add\n        /* \"--CODEGEN--\":8157:8210   */\n      jump(tag_168)\n    tag_213:\n        /* \"--CODEGEN--\":8147:8210   */\n      swap2\n      pop\n        /* \"--CODEGEN--\":8117:8216   */\n      pop\n        /* \"--CODEGEN--\":6870:8226   */\n      swap3\n      swap6\n      swap9\n      swap2\n      swap5\n      swap8\n      pop\n      swap3\n      swap6\n      pop\n      jump\n        /* \"--CODEGEN--\":8233:9060   */\n    tag_14:\n      0x00\n      dup1\n      0x00\n      dup1\n        /* \"--CODEGEN--\":8407:8410   */\n      0x80\n        /* \"--CODEGEN--\":8395:8404   */\n      dup6\n        /* \"--CODEGEN--\":8386:8393   */\n      dup8\n        /* \"--CODEGEN--\":8382:8405   */\n      sub\n        /* \"--CODEGEN--\":8378:8411   */\n      slt\n        /* \"--CODEGEN--\":8375:8377   */\n      iszero\n      tag_214\n      jumpi\n        /* \"--CODEGEN--\":8424:8425   */\n      0x00\n        /* \"--CODEGEN--\":8421:8422   */\n      dup1\n        /* \"--CODEGEN--\":8414:8426   */\n      revert\n        /* \"--CODEGEN--\":8375:8377   */\n    tag_214:\n        /* \"--CODEGEN--\":8487:8488   */\n      0x00\n        /* \"--CODEGEN--\":8476:8485   */\n      dup6\n        /* \"--CODEGEN--\":8472:8489   */\n      add\n        /* \"--CODEGEN--\":8459:8490   */\n      calldataload\n        /* \"--CODEGEN--\":8510:8528   */\n      0xffffffffffffffff\n        /* \"--CODEGEN--\":8502:8508   */\n      dup2\n        /* \"--CODEGEN--\":8499:8529   */\n      gt\n        /* \"--CODEGEN--\":8496:8498   */\n      iszero\n      tag_215\n      jumpi\n        /* \"--CODEGEN--\":8542:8543   */\n      0x00\n        /* \"--CODEGEN--\":8539:8540   */\n      dup1\n        /* \"--CODEGEN--\":8532:8544   */\n      revert\n        /* \"--CODEGEN--\":8496:8498   */\n    tag_215:\n        /* \"--CODEGEN--\":8562:8625   */\n      tag_216\n        /* \"--CODEGEN--\":8617:8624   */\n      dup8\n        /* \"--CODEGEN--\":8608:8614   */\n      dup3\n        /* \"--CODEGEN--\":8597:8606   */\n      dup9\n        /* \"--CODEGEN--\":8593:8615   */\n      add\n        /* \"--CODEGEN--\":8562:8625   */\n      jump(tag_161)\n    tag_216:\n        /* \"--CODEGEN--\":8552:8625   */\n      swap5\n      pop\n        /* \"--CODEGEN--\":8438:8631   */\n      pop\n        /* \"--CODEGEN--\":8662:8664   */\n      0x20\n        /* \"--CODEGEN--\":8680:8733   */\n      tag_217\n        /* \"--CODEGEN--\":8725:8732   */\n      dup8\n        /* \"--CODEGEN--\":8716:8722   */\n      dup3\n        /* \"--CODEGEN--\":8705:8714   */\n      dup9\n        /* \"--CODEGEN--\":8701:8723   */\n      add\n        /* \"--CODEGEN--\":8680:8733   */\n      jump(tag_168)\n    tag_217:\n        /* \"--CODEGEN--\":8670:8733   */\n      swap4\n      pop\n        /* \"--CODEGEN--\":8641:8739   */\n      pop\n        /* \"--CODEGEN--\":8770:8772   */\n      0x40\n        /* \"--CODEGEN--\":8788:8840   */\n      tag_218\n        /* \"--CODEGEN--\":8832:8839   */\n      dup8\n        /* \"--CODEGEN--\":8823:8829   */\n      dup3\n        /* \"--CODEGEN--\":8812:8821   */\n      dup9\n        /* \"--CODEGEN--\":8808:8830   */\n      add\n        /* \"--CODEGEN--\":8788:8840   */\n      jump(tag_171)\n    tag_218:\n        /* \"--CODEGEN--\":8778:8840   */\n      swap3\n      pop\n        /* \"--CODEGEN--\":8749:8846   */\n      pop\n        /* \"--CODEGEN--\":8905:8907   */\n      0x60\n        /* \"--CODEGEN--\":8894:8903   */\n      dup6\n        /* \"--CODEGEN--\":8890:8908   */\n      add\n        /* \"--CODEGEN--\":8877:8909   */\n      calldataload\n        /* \"--CODEGEN--\":8929:8947   */\n      0xffffffffffffffff\n        /* \"--CODEGEN--\":8921:8927   */\n      dup2\n        /* \"--CODEGEN--\":8918:8948   */\n      gt\n        /* \"--CODEGEN--\":8915:8917   */\n      iszero\n      tag_219\n      jumpi\n        /* \"--CODEGEN--\":8961:8962   */\n      0x00\n        /* \"--CODEGEN--\":8958:8959   */\n      dup1\n        /* \"--CODEGEN--\":8951:8963   */\n      revert\n        /* \"--CODEGEN--\":8915:8917   */\n    tag_219:\n        /* \"--CODEGEN--\":8981:9044   */\n      tag_220\n        /* \"--CODEGEN--\":9036:9043   */\n      dup8\n        /* \"--CODEGEN--\":9027:9033   */\n      dup3\n        /* \"--CODEGEN--\":9016:9025   */\n      dup9\n        /* \"--CODEGEN--\":9012:9034   */\n      add\n        /* \"--CODEGEN--\":8981:9044   */\n      jump(tag_161)\n    tag_220:\n        /* \"--CODEGEN--\":8971:9044   */\n      swap2\n      pop\n        /* \"--CODEGEN--\":8856:9050   */\n      pop\n        /* \"--CODEGEN--\":8369:9060   */\n      swap3\n      swap6\n      swap2\n      swap5\n      pop\n      swap3\n      pop\n      jump\n        /* \"--CODEGEN--\":9067:9414   */\n    tag_221:\n      0x00\n        /* \"--CODEGEN--\":9179:9218   */\n      tag_222\n        /* \"--CODEGEN--\":9212:9217   */\n      dup3\n        /* \"--CODEGEN--\":9179:9218   */\n      jump(tag_223)\n    tag_222:\n        /* \"--CODEGEN--\":9230:9301   */\n      tag_224\n        /* \"--CODEGEN--\":9294:9300   */\n      dup2\n        /* \"--CODEGEN--\":9289:9292   */\n      dup6\n        /* \"--CODEGEN--\":9230:9301   */\n      jump(tag_225)\n    tag_224:\n        /* \"--CODEGEN--\":9223:9301   */\n      swap4\n      pop\n        /* \"--CODEGEN--\":9306:9358   */\n      tag_226\n        /* \"--CODEGEN--\":9351:9357   */\n      dup2\n        /* \"--CODEGEN--\":9346:9349   */\n      dup6\n        /* \"--CODEGEN--\":9339:9343   */\n      0x20\n        /* \"--CODEGEN--\":9332:9337   */\n      dup7\n        /* \"--CODEGEN--\":9328:9344   */\n      add\n        /* \"--CODEGEN--\":9306:9358   */\n      jump(tag_227)\n    tag_226:\n        /* \"--CODEGEN--\":9379:9408   */\n      tag_228\n        /* \"--CODEGEN--\":9401:9407   */\n      dup2\n        /* \"--CODEGEN--\":9379:9408   */\n      jump(tag_229)\n    tag_228:\n        /* \"--CODEGEN--\":9374:9377   */\n      dup5\n        /* \"--CODEGEN--\":9370:9409   */\n      add\n        /* \"--CODEGEN--\":9363:9409   */\n      swap2\n      pop\n        /* \"--CODEGEN--\":9159:9414   */\n      pop\n      swap3\n      swap2\n      pop\n      pop\n      jump\n        /* \"--CODEGEN--\":9421:9781   */\n    tag_230:\n      0x00\n        /* \"--CODEGEN--\":9551:9590   */\n      tag_231\n        /* \"--CODEGEN--\":9584:9589   */\n      dup3\n        /* \"--CODEGEN--\":9551:9590   */\n      jump(tag_223)\n    tag_231:\n        /* \"--CODEGEN--\":9602:9691   */\n      tag_232\n        /* \"--CODEGEN--\":9684:9690   */\n      dup2\n        /* \"--CODEGEN--\":9679:9682   */\n      dup6\n        /* \"--CODEGEN--\":9602:9691   */\n      jump(tag_233)\n    tag_232:\n        /* \"--CODEGEN--\":9595:9691   */\n      swap4\n      pop\n        /* \"--CODEGEN--\":9696:9748   */\n      tag_234\n        /* \"--CODEGEN--\":9741:9747   */\n      dup2\n        /* \"--CODEGEN--\":9736:9739   */\n      dup6\n        /* \"--CODEGEN--\":9729:9733   */\n      0x20\n        /* \"--CODEGEN--\":9722:9727   */\n      dup7\n        /* \"--CODEGEN--\":9718:9734   */\n      add\n        /* \"--CODEGEN--\":9696:9748   */\n      jump(tag_227)\n    tag_234:\n        /* \"--CODEGEN--\":9769:9775   */\n      dup1\n        /* \"--CODEGEN--\":9764:9767   */\n      dup5\n        /* \"--CODEGEN--\":9760:9776   */\n      add\n        /* \"--CODEGEN--\":9753:9776   */\n      swap2\n      pop\n        /* \"--CODEGEN--\":9531:9781   */\n      pop\n      swap3\n      swap2\n      pop\n      pop\n      jump\n        /* \"--CODEGEN--\":9788:10140   */\n    tag_235:\n      0x00\n        /* \"--CODEGEN--\":9914:9949   */\n      tag_236\n        /* \"--CODEGEN--\":9943:9948   */\n      dup3\n        /* \"--CODEGEN--\":9914:9949   */\n      jump(tag_237)\n    tag_236:\n        /* \"--CODEGEN--\":9961:10050   */\n      tag_238\n        /* \"--CODEGEN--\":10043:10049   */\n      dup2\n        /* \"--CODEGEN--\":10038:10041   */\n      dup6\n        /* \"--CODEGEN--\":9961:10050   */\n      jump(tag_233)\n    tag_238:\n        /* \"--CODEGEN--\":9954:10050   */\n      swap4\n      pop\n        /* \"--CODEGEN--\":10055:10107   */\n      tag_239\n        /* \"--CODEGEN--\":10100:10106   */\n      dup2\n        /* \"--CODEGEN--\":10095:10098   */\n      dup6\n        /* \"--CODEGEN--\":10088:10092   */\n      0x20\n        /* \"--CODEGEN--\":10081:10086   */\n      dup7\n        /* \"--CODEGEN--\":10077:10093   */\n      add\n        /* \"--CODEGEN--\":10055:10107   */\n      jump(tag_227)\n    tag_239:\n        /* \"--CODEGEN--\":10128:10134   */\n      dup1\n        /* \"--CODEGEN--\":10123:10126   */\n      dup5\n        /* \"--CODEGEN--\":10119:10135   */\n      add\n        /* \"--CODEGEN--\":10112:10135   */\n      swap2\n      pop\n        /* \"--CODEGEN--\":9894:10140   */\n      pop\n      swap3\n      swap2\n      pop\n      pop\n      jump\n        /* \"--CODEGEN--\":10147:10257   */\n    tag_240:\n        /* \"--CODEGEN--\":10228:10251   */\n      tag_241\n        /* \"--CODEGEN--\":10245:10250   */\n      dup2\n        /* \"--CODEGEN--\":10228:10251   */\n      jump(tag_242)\n    tag_241:\n        /* \"--CODEGEN--\":10223:10226   */\n      dup3\n        /* \"--CODEGEN--\":10216:10252   */\n      mstore\n        /* \"--CODEGEN--\":10210:10257   */\n      pop\n      pop\n      jump\n        /* \"--CODEGEN--\":10264:10371   */\n    tag_243:\n        /* \"--CODEGEN--\":10343:10365   */\n      tag_244\n        /* \"--CODEGEN--\":10359:10364   */\n      dup2\n        /* \"--CODEGEN--\":10343:10365   */\n      jump(tag_245)\n    tag_244:\n        /* \"--CODEGEN--\":10338:10341   */\n      dup3\n        /* \"--CODEGEN--\":10331:10366   */\n      mstore\n        /* \"--CODEGEN--\":10325:10371   */\n      pop\n      pop\n      jump\n        /* \"--CODEGEN--\":10378:10636   */\n    tag_100:\n      0x00\n        /* \"--CODEGEN--\":10520:10611   */\n      tag_246\n        /* \"--CODEGEN--\":10607:10610   */\n      dup3\n        /* \"--CODEGEN--\":10598:10604   */\n      dup5\n        /* \"--CODEGEN--\":10520:10611   */\n      jump(tag_235)\n    tag_246:\n        /* \"--CODEGEN--\":10513:10611   */\n      swap2\n      pop\n        /* \"--CODEGEN--\":10628:10631   */\n      dup2\n        /* \"--CODEGEN--\":10621:10631   */\n      swap1\n      pop\n        /* \"--CODEGEN--\":10501:10636   */\n      swap3\n      swap2\n      pop\n      pop\n      jump\n        /* \"--CODEGEN--\":10643:10909   */\n    tag_50:\n      0x00\n        /* \"--CODEGEN--\":10789:10884   */\n      tag_247\n        /* \"--CODEGEN--\":10880:10883   */\n      dup3\n        /* \"--CODEGEN--\":10871:10877   */\n      dup5\n        /* \"--CODEGEN--\":10789:10884   */\n      jump(tag_230)\n    tag_247:\n        /* \"--CODEGEN--\":10782:10884   */\n      swap2\n      pop\n        /* \"--CODEGEN--\":10901:10904   */\n      dup2\n        /* \"--CODEGEN--\":10894:10904   */\n      swap1\n      pop\n        /* \"--CODEGEN--\":10770:10909   */\n      swap3\n      swap2\n      pop\n      pop\n      jump\n        /* \"--CODEGEN--\":10916:11217   */\n    tag_47:\n      0x00\n        /* \"--CODEGEN--\":11054:11056   */\n      0x20\n        /* \"--CODEGEN--\":11043:11052   */\n      dup3\n        /* \"--CODEGEN--\":11039:11057   */\n      add\n        /* \"--CODEGEN--\":11031:11057   */\n      swap1\n      pop\n        /* \"--CODEGEN--\":11104:11113   */\n      dup2\n        /* \"--CODEGEN--\":11098:11102   */\n      dup2\n        /* \"--CODEGEN--\":11094:11114   */\n      sub\n        /* \"--CODEGEN--\":11090:11091   */\n      0x00\n        /* \"--CODEGEN--\":11079:11088   */\n      dup4\n        /* \"--CODEGEN--\":11075:11092   */\n      add\n        /* \"--CODEGEN--\":11068:11115   */\n      mstore\n        /* \"--CODEGEN--\":11129:11207   */\n      tag_248\n        /* \"--CODEGEN--\":11202:11206   */\n      dup2\n        /* \"--CODEGEN--\":11193:11199   */\n      dup5\n        /* \"--CODEGEN--\":11129:11207   */\n      jump(tag_221)\n    tag_248:\n        /* \"--CODEGEN--\":11121:11207   */\n      swap1\n      pop\n        /* \"--CODEGEN--\":11025:11217   */\n      swap3\n      swap2\n      pop\n      pop\n      jump\n        /* \"--CODEGEN--\":11224:11433   */\n    tag_32:\n      0x00\n        /* \"--CODEGEN--\":11340:11342   */\n      0x20\n        /* \"--CODEGEN--\":11329:11338   */\n      dup3\n        /* \"--CODEGEN--\":11325:11343   */\n      add\n        /* \"--CODEGEN--\":11317:11343   */\n      swap1\n      pop\n        /* \"--CODEGEN--\":11354:11423   */\n      tag_249\n        /* \"--CODEGEN--\":11420:11421   */\n      0x00\n        /* \"--CODEGEN--\":11409:11418   */\n      dup4\n        /* \"--CODEGEN--\":11405:11422   */\n      add\n        /* \"--CODEGEN--\":11396:11402   */\n      dup5\n        /* \"--CODEGEN--\":11354:11423   */\n      jump(tag_240)\n    tag_249:\n        /* \"--CODEGEN--\":11311:11433   */\n      swap3\n      swap2\n      pop\n      pop\n      jump\n        /* \"--CODEGEN--\":11440:11645   */\n    tag_38:\n      0x00\n        /* \"--CODEGEN--\":11554:11556   */\n      0x20\n        /* \"--CODEGEN--\":11543:11552   */\n      dup3\n        /* \"--CODEGEN--\":11539:11557   */\n      add\n        /* \"--CODEGEN--\":11531:11557   */\n      swap1\n      pop\n        /* \"--CODEGEN--\":11568:11635   */\n      tag_250\n        /* \"--CODEGEN--\":11632:11633   */\n      0x00\n        /* \"--CODEGEN--\":11621:11630   */\n      dup4\n        /* \"--CODEGEN--\":11617:11634   */\n      add\n        /* \"--CODEGEN--\":11608:11614   */\n      dup5\n        /* \"--CODEGEN--\":11568:11635   */\n      jump(tag_243)\n    tag_250:\n        /* \"--CODEGEN--\":11525:11645   */\n      swap3\n      swap2\n      pop\n      pop\n      jump\n        /* \"--CODEGEN--\":11652:11908   */\n    tag_127:\n      0x00\n        /* \"--CODEGEN--\":11714:11716   */\n      0x40\n        /* \"--CODEGEN--\":11708:11717   */\n      mload\n        /* \"--CODEGEN--\":11698:11717   */\n      swap1\n      pop\n        /* \"--CODEGEN--\":11752:11756   */\n      dup2\n        /* \"--CODEGEN--\":11744:11750   */\n      dup2\n        /* \"--CODEGEN--\":11740:11757   */\n      add\n        /* \"--CODEGEN--\":11851:11857   */\n      dup2\n        /* \"--CODEGEN--\":11839:11849   */\n      dup2\n        /* \"--CODEGEN--\":11836:11858   */\n      lt\n        /* \"--CODEGEN--\":11815:11833   */\n      0xffffffffffffffff\n        /* \"--CODEGEN--\":11803:11813   */\n      dup3\n        /* \"--CODEGEN--\":11800:11834   */\n      gt\n        /* \"--CODEGEN--\":11797:11859   */\n      or\n        /* \"--CODEGEN--\":11794:11796   */\n      iszero\n      tag_251\n      jumpi\n        /* \"--CODEGEN--\":11872:11873   */\n      0x00\n        /* \"--CODEGEN--\":11869:11870   */\n      dup1\n        /* \"--CODEGEN--\":11862:11874   */\n      revert\n        /* \"--CODEGEN--\":11794:11796   */\n    tag_251:\n        /* \"--CODEGEN--\":11892:11902   */\n      dup1\n        /* \"--CODEGEN--\":11888:11890   */\n      0x40\n        /* \"--CODEGEN--\":11881:11903   */\n      mstore\n        /* \"--CODEGEN--\":11692:11908   */\n      pop\n      swap2\n      swap1\n      pop\n      jump\n        /* \"--CODEGEN--\":11915:12219   */\n    tag_126:\n      0x00\n        /* \"--CODEGEN--\":12074:12092   */\n      0xffffffffffffffff\n        /* \"--CODEGEN--\":12066:12072   */\n      dup3\n        /* \"--CODEGEN--\":12063:12093   */\n      gt\n        /* \"--CODEGEN--\":12060:12062   */\n      iszero\n      tag_252\n      jumpi\n        /* \"--CODEGEN--\":12106:12107   */\n      0x00\n        /* \"--CODEGEN--\":12103:12104   */\n      dup1\n        /* \"--CODEGEN--\":12096:12108   */\n      revert\n        /* \"--CODEGEN--\":12060:12062   */\n    tag_252:\n        /* \"--CODEGEN--\":12141:12145   */\n      0x20\n        /* \"--CODEGEN--\":12133:12139   */\n      dup3\n        /* \"--CODEGEN--\":12129:12146   */\n      mul\n        /* \"--CODEGEN--\":12121:12146   */\n      swap1\n      pop\n        /* \"--CODEGEN--\":12204:12208   */\n      0x20\n        /* \"--CODEGEN--\":12198:12202   */\n      dup2\n        /* \"--CODEGEN--\":12194:12209   */\n      add\n        /* \"--CODEGEN--\":12186:12209   */\n      swap1\n      pop\n        /* \"--CODEGEN--\":11997:12219   */\n      swap2\n      swap1\n      pop\n      jump\n        /* \"--CODEGEN--\":12226:12536   */\n    tag_137:\n      0x00\n        /* \"--CODEGEN--\":12391:12409   */\n      0xffffffffffffffff\n        /* \"--CODEGEN--\":12383:12389   */\n      dup3\n        /* \"--CODEGEN--\":12380:12410   */\n      gt\n        /* \"--CODEGEN--\":12377:12379   */\n      iszero\n      tag_253\n      jumpi\n        /* \"--CODEGEN--\":12423:12424   */\n      0x00\n        /* \"--CODEGEN--\":12420:12421   */\n      dup1\n        /* \"--CODEGEN--\":12413:12425   */\n      revert\n        /* \"--CODEGEN--\":12377:12379   */\n    tag_253:\n        /* \"--CODEGEN--\":12458:12462   */\n      0x20\n        /* \"--CODEGEN--\":12450:12456   */\n      dup3\n        /* \"--CODEGEN--\":12446:12463   */\n      mul\n        /* \"--CODEGEN--\":12438:12463   */\n      swap1\n      pop\n        /* \"--CODEGEN--\":12521:12525   */\n      0x20\n        /* \"--CODEGEN--\":12515:12519   */\n      dup2\n        /* \"--CODEGEN--\":12511:12526   */\n      add\n        /* \"--CODEGEN--\":12503:12526   */\n      swap1\n      pop\n        /* \"--CODEGEN--\":12314:12536   */\n      swap2\n      swap1\n      pop\n      jump\n        /* \"--CODEGEN--\":12543:12845   */\n    tag_147:\n      0x00\n        /* \"--CODEGEN--\":12700:12718   */\n      0xffffffffffffffff\n        /* \"--CODEGEN--\":12692:12698   */\n      dup3\n        /* \"--CODEGEN--\":12689:12719   */\n      gt\n        /* \"--CODEGEN--\":12686:12688   */\n      iszero\n      tag_254\n      jumpi\n        /* \"--CODEGEN--\":12732:12733   */\n      0x00\n        /* \"--CODEGEN--\":12729:12730   */\n      dup1\n        /* \"--CODEGEN--\":12722:12734   */\n      revert\n        /* \"--CODEGEN--\":12686:12688   */\n    tag_254:\n        /* \"--CODEGEN--\":12767:12771   */\n      0x20\n        /* \"--CODEGEN--\":12759:12765   */\n      dup3\n        /* \"--CODEGEN--\":12755:12772   */\n      mul\n        /* \"--CODEGEN--\":12747:12772   */\n      swap1\n      pop\n        /* \"--CODEGEN--\":12830:12834   */\n      0x20\n        /* \"--CODEGEN--\":12824:12828   */\n      dup2\n        /* \"--CODEGEN--\":12820:12835   */\n      add\n        /* \"--CODEGEN--\":12812:12835   */\n      swap1\n      pop\n        /* \"--CODEGEN--\":12623:12845   */\n      swap2\n      swap1\n      pop\n      jump\n        /* \"--CODEGEN--\":12852:13170   */\n    tag_157:\n      0x00\n        /* \"--CODEGEN--\":12992:13010   */\n      0xffffffffffffffff\n        /* \"--CODEGEN--\":12984:12990   */\n      dup3\n        /* \"--CODEGEN--\":12981:13011   */\n      gt\n        /* \"--CODEGEN--\":12978:12980   */\n      iszero\n      tag_255\n      jumpi\n        /* \"--CODEGEN--\":13024:13025   */\n      0x00\n        /* \"--CODEGEN--\":13021:13022   */\n      dup1\n        /* \"--CODEGEN--\":13014:13026   */\n      revert\n        /* \"--CODEGEN--\":12978:12980   */\n    tag_255:\n        /* \"--CODEGEN--\":13091:13095   */\n      0x1f\n        /* \"--CODEGEN--\":13087:13096   */\n      not\n        /* \"--CODEGEN--\":13080:13084   */\n      0x1f\n        /* \"--CODEGEN--\":13072:13078   */\n      dup4\n        /* \"--CODEGEN--\":13068:13085   */\n      add\n        /* \"--CODEGEN--\":13064:13097   */\n      and\n        /* \"--CODEGEN--\":13056:13097   */\n      swap1\n      pop\n        /* \"--CODEGEN--\":13155:13159   */\n      0x20\n        /* \"--CODEGEN--\":13149:13153   */\n      dup2\n        /* \"--CODEGEN--\":13145:13160   */\n      add\n        /* \"--CODEGEN--\":13137:13160   */\n      swap1\n      pop\n        /* \"--CODEGEN--\":12915:13170   */\n      swap2\n      swap1\n      pop\n      jump\n        /* \"--CODEGEN--\":13177:13499   */\n    tag_165:\n      0x00\n        /* \"--CODEGEN--\":13321:13339   */\n      0xffffffffffffffff\n        /* \"--CODEGEN--\":13313:13319   */\n      dup3\n        /* \"--CODEGEN--\":13310:13340   */\n      gt\n        /* \"--CODEGEN--\":13307:13309   */\n      iszero\n      tag_256\n      jumpi\n        /* \"--CODEGEN--\":13353:13354   */\n      0x00\n        /* \"--CODEGEN--\":13350:13351   */\n      dup1\n        /* \"--CODEGEN--\":13343:13355   */\n      revert\n        /* \"--CODEGEN--\":13307:13309   */\n    tag_256:\n        /* \"--CODEGEN--\":13420:13424   */\n      0x1f\n        /* \"--CODEGEN--\":13416:13425   */\n      not\n        /* \"--CODEGEN--\":13409:13413   */\n      0x1f\n        /* \"--CODEGEN--\":13401:13407   */\n      dup4\n        /* \"--CODEGEN--\":13397:13414   */\n      add\n        /* \"--CODEGEN--\":13393:13426   */\n      and\n        /* \"--CODEGEN--\":13385:13426   */\n      swap1\n      pop\n        /* \"--CODEGEN--\":13484:13488   */\n      0x20\n        /* \"--CODEGEN--\":13478:13482   */\n      dup2\n        /* \"--CODEGEN--\":13474:13489   */\n      add\n        /* \"--CODEGEN--\":13466:13489   */\n      swap1\n      pop\n        /* \"--CODEGEN--\":13244:13499   */\n      swap2\n      swap1\n      pop\n      jump\n        /* \"--CODEGEN--\":13506:13624   */\n    tag_237:\n      0x00\n        /* \"--CODEGEN--\":13596:13601   */\n      dup2\n        /* \"--CODEGEN--\":13590:13602   */\n      mload\n        /* \"--CODEGEN--\":13580:13602   */\n      swap1\n      pop\n        /* \"--CODEGEN--\":13561:13624   */\n      swap2\n      swap1\n      pop\n      jump\n        /* \"--CODEGEN--\":13631:13753   */\n    tag_223:\n      0x00\n        /* \"--CODEGEN--\":13725:13730   */\n      dup2\n        /* \"--CODEGEN--\":13719:13731   */\n      mload\n        /* \"--CODEGEN--\":13709:13731   */\n      swap1\n      pop\n        /* \"--CODEGEN--\":13690:13753   */\n      swap2\n      swap1\n      pop\n      jump\n        /* \"--CODEGEN--\":13761:13924   */\n    tag_225:\n      0x00\n        /* \"--CODEGEN--\":13876:13882   */\n      dup3\n        /* \"--CODEGEN--\":13871:13874   */\n      dup3\n        /* \"--CODEGEN--\":13864:13883   */\n      mstore\n        /* \"--CODEGEN--\":13913:13917   */\n      0x20\n        /* \"--CODEGEN--\":13908:13911   */\n      dup3\n        /* \"--CODEGEN--\":13904:13918   */\n      add\n        /* \"--CODEGEN--\":13889:13918   */\n      swap1\n      pop\n        /* \"--CODEGEN--\":13857:13924   */\n      swap3\n      swap2\n      pop\n      pop\n      jump\n        /* \"--CODEGEN--\":13933:14078   */\n    tag_233:\n      0x00\n        /* \"--CODEGEN--\":14069:14072   */\n      dup2\n        /* \"--CODEGEN--\":14054:14072   */\n      swap1\n      pop\n        /* \"--CODEGEN--\":14047:14078   */\n      swap3\n      swap2\n      pop\n      pop\n      jump\n        /* \"--CODEGEN--\":14086:14177   */\n    tag_257:\n      0x00\n        /* \"--CODEGEN--\":14148:14172   */\n      tag_258\n        /* \"--CODEGEN--\":14166:14171   */\n      dup3\n        /* \"--CODEGEN--\":14148:14172   */\n      jump(tag_259)\n    tag_258:\n        /* \"--CODEGEN--\":14137:14172   */\n      swap1\n      pop\n        /* \"--CODEGEN--\":14131:14177   */\n      swap2\n      swap1\n      pop\n      jump\n        /* \"--CODEGEN--\":14184:14305   */\n    tag_259:\n      0x00\n        /* \"--CODEGEN--\":14257:14299   */\n      0xffffffffffffffffffffffffffffffffffffffff\n        /* \"--CODEGEN--\":14250:14255   */\n      dup3\n        /* \"--CODEGEN--\":14246:14300   */\n      and\n        /* \"--CODEGEN--\":14235:14300   */\n      swap1\n      pop\n        /* \"--CODEGEN--\":14229:14305   */\n      swap2\n      swap1\n      pop\n      jump\n        /* \"--CODEGEN--\":14312:14384   */\n    tag_260:\n      0x00\n        /* \"--CODEGEN--\":14374:14379   */\n      dup2\n        /* \"--CODEGEN--\":14363:14379   */\n      swap1\n      pop\n        /* \"--CODEGEN--\":14357:14384   */\n      swap2\n      swap1\n      pop\n      jump\n        /* \"--CODEGEN--\":14391:14479   */\n    tag_242:\n      0x00\n        /* \"--CODEGEN--\":14463:14473   */\n      0xffffffff\n        /* \"--CODEGEN--\":14456:14461   */\n      dup3\n        /* \"--CODEGEN--\":14452:14474   */\n      and\n        /* \"--CODEGEN--\":14441:14474   */\n      swap1\n      pop\n        /* \"--CODEGEN--\":14435:14479   */\n      swap2\n      swap1\n      pop\n      jump\n        /* \"--CODEGEN--\":14486:14567   */\n    tag_245:\n      0x00\n        /* \"--CODEGEN--\":14557:14561   */\n      0xff\n        /* \"--CODEGEN--\":14550:14555   */\n      dup3\n        /* \"--CODEGEN--\":14546:14562   */\n      and\n        /* \"--CODEGEN--\":14535:14562   */\n      swap1\n      pop\n        /* \"--CODEGEN--\":14529:14567   */\n      swap2\n      swap1\n      pop\n      jump\n        /* \"--CODEGEN--\":14575:14720   */\n    tag_160:\n        /* \"--CODEGEN--\":14656:14662   */\n      dup3\n        /* \"--CODEGEN--\":14651:14654   */\n      dup2\n        /* \"--CODEGEN--\":14646:14649   */\n      dup4\n        /* \"--CODEGEN--\":14633:14663   */\n      calldatacopy\n        /* \"--CODEGEN--\":14712:14713   */\n      0x00\n        /* \"--CODEGEN--\":14703:14709   */\n      dup4\n        /* \"--CODEGEN--\":14698:14701   */\n      dup4\n        /* \"--CODEGEN--\":14694:14710   */\n      add\n        /* \"--CODEGEN--\":14687:14714   */\n      mstore\n        /* \"--CODEGEN--\":14626:14720   */\n      pop\n      pop\n      pop\n      jump\n        /* \"--CODEGEN--\":14729:14997   */\n    tag_227:\n        /* \"--CODEGEN--\":14794:14795   */\n      0x00\n        /* \"--CODEGEN--\":14801:14902   */\n    tag_261:\n        /* \"--CODEGEN--\":14815:14821   */\n      dup4\n        /* \"--CODEGEN--\":14812:14813   */\n      dup2\n        /* \"--CODEGEN--\":14809:14822   */\n      lt\n        /* \"--CODEGEN--\":14801:14902   */\n      iszero\n      tag_263\n      jumpi\n        /* \"--CODEGEN--\":14891:14892   */\n      dup1\n        /* \"--CODEGEN--\":14886:14889   */\n      dup3\n        /* \"--CODEGEN--\":14882:14893   */\n      add\n        /* \"--CODEGEN--\":14876:14894   */\n      mload\n        /* \"--CODEGEN--\":14872:14873   */\n      dup2\n        /* \"--CODEGEN--\":14867:14870   */\n      dup5\n        /* \"--CODEGEN--\":14863:14874   */\n      add\n        /* \"--CODEGEN--\":14856:14895   */\n      mstore\n        /* \"--CODEGEN--\":14837:14839   */\n      0x20\n        /* \"--CODEGEN--\":14834:14835   */\n      dup2\n        /* \"--CODEGEN--\":14830:14840   */\n      add\n        /* \"--CODEGEN--\":14825:14840   */\n      swap1\n      pop\n        /* \"--CODEGEN--\":14801:14902   */\n      jump(tag_261)\n    tag_263:\n        /* \"--CODEGEN--\":14917:14923   */\n      dup4\n        /* \"--CODEGEN--\":14914:14915   */\n      dup2\n        /* \"--CODEGEN--\":14911:14924   */\n      gt\n        /* \"--CODEGEN--\":14908:14910   */\n      iszero\n      tag_264\n      jumpi\n        /* \"--CODEGEN--\":14982:14983   */\n      0x00\n        /* \"--CODEGEN--\":14973:14979   */\n      dup5\n        /* \"--CODEGEN--\":14968:14971   */\n      dup5\n        /* \"--CODEGEN--\":14964:14980   */\n      add\n        /* \"--CODEGEN--\":14957:14984   */\n      mstore\n        /* \"--CODEGEN--\":14908:14910   */\n    tag_264:\n        /* \"--CODEGEN--\":14778:14997   */\n      pop\n      pop\n      pop\n      pop\n      jump\n        /* \"--CODEGEN--\":15005:15102   */\n    tag_229:\n      0x00\n        /* \"--CODEGEN--\":15093:15095   */\n      0x1f\n        /* \"--CODEGEN--\":15089:15096   */\n      not\n        /* \"--CODEGEN--\":15084:15086   */\n      0x1f\n        /* \"--CODEGEN--\":15077:15082   */\n      dup4\n        /* \"--CODEGEN--\":15073:15087   */\n      add\n        /* \"--CODEGEN--\":15069:15097   */\n      and\n        /* \"--CODEGEN--\":15059:15097   */\n      swap1\n      pop\n        /* \"--CODEGEN--\":15053:15102   */\n      swap2\n      swap1\n      pop\n      jump\n        /* \"--CODEGEN--\":15110:15227   */\n    tag_121:\n        /* \"--CODEGEN--\":15179:15203   */\n      tag_265\n        /* \"--CODEGEN--\":15197:15202   */\n      dup2\n        /* \"--CODEGEN--\":15179:15203   */\n      jump(tag_257)\n    tag_265:\n        /* \"--CODEGEN--\":15172:15177   */\n      dup2\n        /* \"--CODEGEN--\":15169:15204   */\n      eq\n        /* \"--CODEGEN--\":15159:15161   */\n      tag_266\n      jumpi\n        /* \"--CODEGEN--\":15218:15219   */\n      0x00\n        /* \"--CODEGEN--\":15215:15216   */\n      dup1\n        /* \"--CODEGEN--\":15208:15220   */\n      revert\n        /* \"--CODEGEN--\":15159:15161   */\n    tag_266:\n        /* \"--CODEGEN--\":15153:15227   */\n      pop\n      jump\n        /* \"--CODEGEN--\":15234:15351   */\n    tag_170:\n        /* \"--CODEGEN--\":15303:15327   */\n      tag_267\n        /* \"--CODEGEN--\":15321:15326   */\n      dup2\n        /* \"--CODEGEN--\":15303:15327   */\n      jump(tag_260)\n    tag_267:\n        /* \"--CODEGEN--\":15296:15301   */\n      dup2\n        /* \"--CODEGEN--\":15293:15328   */\n      eq\n        /* \"--CODEGEN--\":15283:15285   */\n      tag_268\n      jumpi\n        /* \"--CODEGEN--\":15342:15343   */\n      0x00\n        /* \"--CODEGEN--\":15339:15340   */\n      dup1\n        /* \"--CODEGEN--\":15332:15344   */\n      revert\n        /* \"--CODEGEN--\":15283:15285   */\n    tag_268:\n        /* \"--CODEGEN--\":15277:15351   */\n      pop\n      jump\n        /* \"--CODEGEN--\":15358:15473   */\n    tag_173:\n        /* \"--CODEGEN--\":15426:15449   */\n      tag_269\n        /* \"--CODEGEN--\":15443:15448   */\n      dup2\n        /* \"--CODEGEN--\":15426:15449   */\n      jump(tag_242)\n    tag_269:\n        /* \"--CODEGEN--\":15419:15424   */\n      dup2\n        /* \"--CODEGEN--\":15416:15450   */\n      eq\n        /* \"--CODEGEN--\":15406:15408   */\n      tag_270\n      jumpi\n        /* \"--CODEGEN--\":15464:15465   */\n      0x00\n        /* \"--CODEGEN--\":15461:15462   */\n      dup1\n        /* \"--CODEGEN--\":15454:15466   */\n      revert\n        /* \"--CODEGEN--\":15406:15408   */\n    tag_270:\n        /* \"--CODEGEN--\":15400:15473   */\n      pop\n      jump\n        /* \"--CODEGEN--\":15480:15593   */\n    tag_175:\n        /* \"--CODEGEN--\":15547:15569   */\n      tag_271\n        /* \"--CODEGEN--\":15563:15568   */\n      dup2\n        /* \"--CODEGEN--\":15547:15569   */\n      jump(tag_245)\n    tag_271:\n        /* \"--CODEGEN--\":15540:15545   */\n      dup2\n        /* \"--CODEGEN--\":15537:15570   */\n      eq\n        /* \"--CODEGEN--\":15527:15529   */\n      tag_272\n      jumpi\n        /* \"--CODEGEN--\":15584:15585   */\n      0x00\n        /* \"--CODEGEN--\":15581:15582   */\n      dup1\n        /* \"--CODEGEN--\":15574:15586   */\n      revert\n        /* \"--CODEGEN--\":15527:15529   */\n    tag_272:\n        /* \"--CODEGEN--\":15521:15593   */\n      pop\n      jump\n\n    auxdata: 0xa365627a7a7231582094c13e346b61c2901bb3f68bf42ba7be448db2b059f56cc49b09d43050eed8f26c6578706572696d656e74616cf564736f6c63430005110040\n}\n",
				"bytecode": {
					"linkReferences": {},
					"object": "608060405234801561001057600080fd5b5061129f806100206000396000f3fe608060405234801561001057600080fd5b50600436106100885760003560e01c8063936143561161005b57806393614356146100fd578063aa86c8fc1461012d578063aefec0c01461015d578063fe7f26921461017957610088565b80630b3e9bfc1461008d578063252e7bed146100a9578063612fa967146100c557806361650af7146100e1575b600080fd5b6100a760048036036100a29190810190610e53565b6101a9565b005b6100c360048036036100be9190810190610b84565b6102c4565b005b6100df60048036036100da9190810190610b84565b610391565b005b6100fb60048036036100f69190810190610c96565b6103e5565b005b61011760048036036101129190810190610b30565b610498565b6040516101249190610fef565b60405180910390f35b61014760048036036101429190810190610c03565b6104ec565b604051610154919061100a565b60405180910390f35b61017760048036036101729190810190610d3d565b610598565b005b610193600480360361018e9190810190610b30565b610718565b6040516101a09190610fcd565b60405180910390f35b600060018060036000886040516101c09190610fb6565b908152602001604051809103902087815481106101d957fe5b9060005260206000209060030201600001856040516101f89190610fb6565b908152602001604051809103902060003373ffffffffffffffffffffffffffffffffffffffff1673ffffffffffffffffffffffffffffffffffffffff16815260200190815260200160002060009054906101000a900460ff1660ff16901c1660ff161490508061026457fe5b826000866040516102759190610fb6565b9081526020016040518091039020858154811061028e57fe5b906000526020600020906003020160010160006101000a81548163ffffffff021916908363ffffffff1602179055505050505050565b60006001806000866040516102d99190610fb6565b908152602001604051809103902085815481106102f257fe5b9060005260206000209060030201600001846040516103119190610fb6565b908152602001604051809103902060003373ffffffffffffffffffffffffffffffffffffffff1673ffffffffffffffffffffffffffffffffffffffff16815260200190815260200160002060009054906101000a900460ff161660ff161490508061037857fe5b3373ffffffffffffffffffffffffffffffffffffffff16ff5b806000846040516103a29190610fb6565b908152602001604051809103902083815481106103bb57fe5b906000526020600020906003020160020190805190602001906103df9291906107f5565b50505050565b806000866040516103f69190610fb6565b9081526020016040518091039020858154811061040f57fe5b90600052602060002090600302016000018460405161042e9190610fb6565b908152602001604051809103902060008473ffffffffffffffffffffffffffffffffffffffff1673ffffffffffffffffffffffffffffffffffffffff16815260200190815260200160002060006101000a81548160ff021916908360ff1602179055505050505050565b600080836040516104a99190610fb6565b908152602001604051809103902082815481106104c257fe5b906000526020600020906003020160010160009054906101000a900463ffffffff16905092915050565b600080856040516104fd9190610fb6565b9081526020016040518091039020848154811061051657fe5b9060005260206000209060030201600001836040516105359190610fb6565b908152602001604051809103902060008373ffffffffffffffffffffffffffffffffffffffff1673ffffffffffffffffffffffffffffffffffffffff16815260200190815260200160002060009054906101000a900460ff169050949350505050565b6105a0610875565b6040518060400160405280600063ffffffff168152602001878152509050856000896040516105cf9190610fb6565b908152602001604051809103902088815481106105e857fe5b9060005260206000209060030201600201908051906020019061060c9291906107f5565b5060008090505b8281101561070d5783818151811061062757fe5b602002602001015160008a60405161063f9190610fb6565b9081526020016040518091039020898154811061065857fe5b906000526020600020906003020160000187838151811061067557fe5b602002602001015160405161068a9190610f9f565b908152602001604051809103902060008784815181106106a657fe5b602002602001015173ffffffffffffffffffffffffffffffffffffffff1673ffffffffffffffffffffffffffffffffffffffff16815260200190815260200160002060006101000a81548160ff021916908360ff1602179055508080600101915050610613565b505050505050505050565b606060008360405161072a9190610fb6565b9081526020016040518091039020828154811061074357fe5b90600052602060002090600302016002018054600181600116156101000203166002900480601f0160208091040260200160405190810160405280929190818152602001828054600181600116156101000203166002900480156107e85780601f106107bd576101008083540402835291602001916107e8565b820191906000526020600020905b8154815290600101906020018083116107cb57829003601f168201915b5050505050905092915050565b828054600181600116156101000203166002900490600052602060002090601f016020900481019282601f1061083657805160ff1916838001178555610864565b82800160010185558215610864579182015b82811115610863578251825591602001919060010190610848565b5b5090506108719190610895565b5090565b6040518060400160405280600063ffffffff168152602001606081525090565b6108b791905b808211156108b357600081600090555060010161089b565b5090565b90565b6000813590506108c981611200565b92915050565b600082601f8301126108e057600080fd5b81356108f36108ee82611052565b611025565b9150818183526020840193506020810190508385602084028201111561091857600080fd5b60005b83811015610948578161092e88826108ba565b84526020840193506020830192505060018101905061091b565b5050505092915050565b600082601f83011261096357600080fd5b81356109766109718261107a565b611025565b9150818183526020840193506020810190508360005b838110156109bc57813586016109a28882610a49565b84526020840193506020830192505060018101905061098c565b5050505092915050565b600082601f8301126109d757600080fd5b81356109ea6109e5826110a2565b611025565b91508181835260208401935060208101905083856020840282011115610a0f57600080fd5b60005b83811015610a3f5781610a258882610b1b565b845260208401935060208301925050600181019050610a12565b5050505092915050565b600082601f830112610a5a57600080fd5b8135610a6d610a68826110ca565b611025565b91508082526020830160208301858383011115610a8957600080fd5b610a948382846111ad565b50505092915050565b600082601f830112610aae57600080fd5b8135610ac1610abc826110f6565b611025565b91508082526020830160208301858383011115610add57600080fd5b610ae88382846111ad565b50505092915050565b600081359050610b0081611217565b92915050565b600081359050610b158161122e565b92915050565b600081359050610b2a81611245565b92915050565b60008060408385031215610b4357600080fd5b600083013567ffffffffffffffff811115610b5d57600080fd5b610b6985828601610a9d565b9250506020610b7a85828601610af1565b9150509250929050565b600080600060608486031215610b9957600080fd5b600084013567ffffffffffffffff811115610bb357600080fd5b610bbf86828701610a9d565b9350506020610bd086828701610af1565b925050604084013567ffffffffffffffff811115610bed57600080fd5b610bf986828701610a9d565b9150509250925092565b60008060008060808587031215610c1957600080fd5b600085013567ffffffffffffffff811115610c3357600080fd5b610c3f87828801610a9d565b9450506020610c5087828801610af1565b935050604085013567ffffffffffffffff811115610c6d57600080fd5b610c7987828801610a9d565b9250506060610c8a878288016108ba565b91505092959194509250565b600080600080600060a08688031215610cae57600080fd5b600086013567ffffffffffffffff811115610cc857600080fd5b610cd488828901610a9d565b9550506020610ce588828901610af1565b945050604086013567ffffffffffffffff811115610d0257600080fd5b610d0e88828901610a9d565b9350506060610d1f888289016108ba565b9250506080610d3088828901610b1b565b9150509295509295909350565b600080600080600080600060e0888a031215610d5857600080fd5b600088013567ffffffffffffffff811115610d7257600080fd5b610d7e8a828b01610a9d565b9750506020610d8f8a828b01610af1565b965050604088013567ffffffffffffffff811115610dac57600080fd5b610db88a828b01610a9d565b955050606088013567ffffffffffffffff811115610dd557600080fd5b610de18a828b01610952565b945050608088013567ffffffffffffffff811115610dfe57600080fd5b610e0a8a828b016108cf565b93505060a088013567ffffffffffffffff811115610e2757600080fd5b610e338a828b016109c6565b92505060c0610e448a828b01610af1565b91505092959891949750929550565b60008060008060808587031215610e6957600080fd5b600085013567ffffffffffffffff811115610e8357600080fd5b610e8f87828801610a9d565b9450506020610ea087828801610af1565b9350506040610eb187828801610b06565b925050606085013567ffffffffffffffff811115610ece57600080fd5b610eda87828801610a9d565b91505092959194509250565b6000610ef18261112d565b610efb8185611138565b9350610f0b8185602086016111bc565b610f14816111ef565b840191505092915050565b6000610f2a8261112d565b610f348185611149565b9350610f448185602086016111bc565b80840191505092915050565b6000610f5b82611122565b610f658185611149565b9350610f758185602086016111bc565b80840191505092915050565b610f8a81611190565b82525050565b610f99816111a0565b82525050565b6000610fab8284610f50565b915081905092915050565b6000610fc28284610f1f565b915081905092915050565b60006020820190508181036000830152610fe78184610ee6565b905092915050565b60006020820190506110046000830184610f81565b92915050565b600060208201905061101f6000830184610f90565b92915050565b6000604051905081810181811067ffffffffffffffff8211171561104857600080fd5b8060405250919050565b600067ffffffffffffffff82111561106957600080fd5b602082029050602081019050919050565b600067ffffffffffffffff82111561109157600080fd5b602082029050602081019050919050565b600067ffffffffffffffff8211156110b957600080fd5b602082029050602081019050919050565b600067ffffffffffffffff8211156110e157600080fd5b601f19601f8301169050602081019050919050565b600067ffffffffffffffff82111561110d57600080fd5b601f19601f8301169050602081019050919050565b600081519050919050565b600081519050919050565b600082825260208201905092915050565b600081905092915050565b600061115f82611166565b9050919050565b600073ffffffffffffffffffffffffffffffffffffffff82169050919050565b6000819050919050565b600063ffffffff82169050919050565b600060ff82169050919050565b82818337600083830152505050565b60005b838110156111da5780820151818401526020810190506111bf565b838111156111e9576000848401525b50505050565b6000601f19601f8301169050919050565b61120981611154565b811461121457600080fd5b50565b61122081611186565b811461122b57600080fd5b50565b61123781611190565b811461124257600080fd5b50565b61124e816111a0565b811461125957600080fd5b5056fea365627a7a7231582094c13e346b61c2901bb3f68bf42ba7be448db2b059f56cc49b09d43050eed8f26c6578706572696d656e74616cf564736f6c63430005110040",
					"opcodes": "PUSH1 0x80 PUSH1 0x40 MSTORE CALLVALUE DUP1 ISZERO PUSH2 0x10 JUMPI PUSH1 0x0 DUP1 REVERT JUMPDEST POP PUSH2 0x129F DUP1 PUSH2 0x20 PUSH1 0x0 CODECOPY PUSH1 0x0 RETURN INVALID PUSH1 0x80 PUSH1 0x40 MSTORE CALLVALUE DUP1 ISZERO PUSH2 0x10 JUMPI PUSH1 0x0 DUP1 REVERT JUMPDEST POP PUSH1 0x4 CALLDATASIZE LT PUSH2 0x88 JUMPI PUSH1 0x0 CALLDATALOAD PUSH1 0xE0 SHR DUP1 PUSH4 0x93614356 GT PUSH2 0x5B JUMPI DUP1 PUSH4 0x93614356 EQ PUSH2 0xFD JUMPI DUP1 PUSH4 0xAA86C8FC EQ PUSH2 0x12D JUMPI DUP1 PUSH4 0xAEFEC0C0 EQ PUSH2 0x15D JUMPI DUP1 PUSH4 0xFE7F2692 EQ PUSH2 0x179 JUMPI PUSH2 0x88 JUMP JUMPDEST DUP1 PUSH4 0xB3E9BFC EQ PUSH2 0x8D JUMPI DUP1 PUSH4 0x252E7BED EQ PUSH2 0xA9 JUMPI DUP1 PUSH4 0x612FA967 EQ PUSH2 0xC5 JUMPI DUP1 PUSH4 0x61650AF7 EQ PUSH2 0xE1 JUMPI JUMPDEST PUSH1 0x0 DUP1 REVERT JUMPDEST PUSH2 0xA7 PUSH1 0x4 DUP1 CALLDATASIZE SUB PUSH2 0xA2 SWAP2 SWAP1 DUP2 ADD SWAP1 PUSH2 0xE53 JUMP JUMPDEST PUSH2 0x1A9 JUMP JUMPDEST STOP JUMPDEST PUSH2 0xC3 PUSH1 0x4 DUP1 CALLDATASIZE SUB PUSH2 0xBE SWAP2 SWAP1 DUP2 ADD SWAP1 PUSH2 0xB84 JUMP JUMPDEST PUSH2 0x2C4 JUMP JUMPDEST STOP JUMPDEST PUSH2 0xDF PUSH1 0x4 DUP1 CALLDATASIZE SUB PUSH2 0xDA SWAP2 SWAP1 DUP2 ADD SWAP1 PUSH2 0xB84 JUMP JUMPDEST PUSH2 0x391 JUMP JUMPDEST STOP JUMPDEST PUSH2 0xFB PUSH1 0x4 DUP1 CALLDATASIZE SUB PUSH2 0xF6 SWAP2 SWAP1 DUP2 ADD SWAP1 PUSH2 0xC96 JUMP JUMPDEST PUSH2 0x3E5 JUMP JUMPDEST STOP JUMPDEST PUSH2 0x117 PUSH1 0x4 DUP1 CALLDATASIZE SUB PUSH2 0x112 SWAP2 SWAP1 DUP2 ADD SWAP1 PUSH2 0xB30 JUMP JUMPDEST PUSH2 0x498 JUMP JUMPDEST PUSH1 0x40 MLOAD PUSH2 0x124 SWAP2 SWAP1 PUSH2 0xFEF JUMP JUMPDEST PUSH1 0x40 MLOAD DUP1 SWAP2 SUB SWAP1 RETURN JUMPDEST PUSH2 0x147 PUSH1 0x4 DUP1 CALLDATASIZE SUB PUSH2 0x142 SWAP2 SWAP1 DUP2 ADD SWAP1 PUSH2 0xC03 JUMP JUMPDEST PUSH2 0x4EC JUMP JUMPDEST PUSH1 0x40 MLOAD PUSH2 0x154 SWAP2 SWAP1 PUSH2 0x100A JUMP JUMPDEST PUSH1 0x40 MLOAD DUP1 SWAP2 SUB SWAP1 RETURN JUMPDEST PUSH2 0x177 PUSH1 0x4 DUP1 CALLDATASIZE SUB PUSH2 0x172 SWAP2 SWAP1 DUP2 ADD SWAP1 PUSH2 0xD3D JUMP JUMPDEST PUSH2 0x598 JUMP JUMPDEST STOP JUMPDEST PUSH2 0x193 PUSH1 0x4 DUP1 CALLDATASIZE SUB PUSH2 0x18E SWAP2 SWAP1 DUP2 ADD SWAP1 PUSH2 0xB30 JUMP JUMPDEST PUSH2 0x718 JUMP JUMPDEST PUSH1 0x40 MLOAD PUSH2 0x1A0 SWAP2 SWAP1 PUSH2 0xFCD JUMP JUMPDEST PUSH1 0x40 MLOAD DUP1 SWAP2 SUB SWAP1 RETURN JUMPDEST PUSH1 0x0 PUSH1 0x1 DUP1 PUSH1 0x3 PUSH1 0x0 DUP9 PUSH1 0x40 MLOAD PUSH2 0x1C0 SWAP2 SWAP1 PUSH2 0xFB6 JUMP JUMPDEST SWAP1 DUP2 MSTORE PUSH1 0x20 ADD PUSH1 0x40 MLOAD DUP1 SWAP2 SUB SWAP1 KECCAK256 DUP8 DUP2 SLOAD DUP2 LT PUSH2 0x1D9 JUMPI INVALID JUMPDEST SWAP1 PUSH1 0x0 MSTORE PUSH1 0x20 PUSH1 0x0 KECCAK256 SWAP1 PUSH1 0x3 MUL ADD PUSH1 0x0 ADD DUP6 PUSH1 0x40 MLOAD PUSH2 0x1F8 SWAP2 SWAP1 PUSH2 0xFB6 JUMP JUMPDEST SWAP1 DUP2 MSTORE PUSH1 0x20 ADD PUSH1 0x40 MLOAD DUP1 SWAP2 SUB SWAP1 KECCAK256 PUSH1 0x0 CALLER PUSH20 0xFFFFFFFFFFFFFFFFFFFFFFFFFFFFFFFFFFFFFFFF AND PUSH20 0xFFFFFFFFFFFFFFFFFFFFFFFFFFFFFFFFFFFFFFFF AND DUP2 MSTORE PUSH1 0x20 ADD SWAP1 DUP2 MSTORE PUSH1 0x20 ADD PUSH1 0x0 KECCAK256 PUSH1 0x0 SWAP1 SLOAD SWAP1 PUSH2 0x100 EXP SWAP1 DIV PUSH1 0xFF AND PUSH1 0xFF AND SWAP1 SHR AND PUSH1 0xFF AND EQ SWAP1 POP DUP1 PUSH2 0x264 JUMPI INVALID JUMPDEST DUP3 PUSH1 0x0 DUP7 PUSH1 0x40 MLOAD PUSH2 0x275 SWAP2 SWAP1 PUSH2 0xFB6 JUMP JUMPDEST SWAP1 DUP2 MSTORE PUSH1 0x20 ADD PUSH1 0x40 MLOAD DUP1 SWAP2 SUB SWAP1 KECCAK256 DUP6 DUP2 SLOAD DUP2 LT PUSH2 0x28E JUMPI INVALID JUMPDEST SWAP1 PUSH1 0x0 MSTORE PUSH1 0x20 PUSH1 0x0 KECCAK256 SWAP1 PUSH1 0x3 MUL ADD PUSH1 0x1 ADD PUSH1 0x0 PUSH2 0x100 EXP DUP2 SLOAD DUP2 PUSH4 0xFFFFFFFF MUL NOT AND SWAP1 DUP4 PUSH4 0xFFFFFFFF AND MUL OR SWAP1 SSTORE POP POP POP POP POP POP JUMP JUMPDEST PUSH1 0x0 PUSH1 0x1 DUP1 PUSH1 0x0 DUP7 PUSH1 0x40 MLOAD PUSH2 0x2D9 SWAP2 SWAP1 PUSH2 0xFB6 JUMP JUMPDEST SWAP1 DUP2 MSTORE PUSH1 0x20 ADD PUSH1 0x40 MLOAD DUP1 SWAP2 SUB SWAP1 KECCAK256 DUP6 DUP2 SLOAD DUP2 LT PUSH2 0x2F2 JUMPI INVALID JUMPDEST SWAP1 PUSH1 0x0 MSTORE PUSH1 0x20 PUSH1 0x0 KECCAK256 SWAP1 PUSH1 0x3 MUL ADD PUSH1 0x0 ADD DUP5 PUSH1 0x40 MLOAD PUSH2 0x311 SWAP2 SWAP1 PUSH2 0xFB6 JUMP JUMPDEST SWAP1 DUP2 MSTORE PUSH1 0x20 ADD PUSH1 0x40 MLOAD DUP1 SWAP2 SUB SWAP1 KECCAK256 PUSH1 0x0 CALLER PUSH20 0xFFFFFFFFFFFFFFFFFFFFFFFFFFFFFFFFFFFFFFFF AND PUSH20 0xFFFFFFFFFFFFFFFFFFFFFFFFFFFFFFFFFFFFFFFF AND DUP2 MSTORE PUSH1 0x20 ADD SWAP1 DUP2 MSTORE PUSH1 0x20 ADD PUSH1 0x0 KECCAK256 PUSH1 0x0 SWAP1 SLOAD SWAP1 PUSH2 0x100 EXP SWAP1 DIV PUSH1 0xFF AND AND PUSH1 0xFF AND EQ SWAP1 POP DUP1 PUSH2 0x378 JUMPI INVALID JUMPDEST CALLER PUSH20 0xFFFFFFFFFFFFFFFFFFFFFFFFFFFFFFFFFFFFFFFF AND SELFDESTRUCT JUMPDEST DUP1 PUSH1 0x0 DUP5 PUSH1 0x40 MLOAD PUSH2 0x3A2 SWAP2 SWAP1 PUSH2 0xFB6 JUMP JUMPDEST SWAP1 DUP2 MSTORE PUSH1 0x20 ADD PUSH1 0x40 MLOAD DUP1 SWAP2 SUB SWAP1 KECCAK256 DUP4 DUP2 SLOAD DUP2 LT PUSH2 0x3BB JUMPI INVALID JUMPDEST SWAP1 PUSH1 0x0 MSTORE PUSH1 0x20 PUSH1 0x0 KECCAK256 SWAP1 PUSH1 0x3 MUL ADD PUSH1 0x2 ADD SWAP1 DUP1 MLOAD SWAP1 PUSH1 0x20 ADD SWAP1 PUSH2 0x3DF SWAP3 SWAP2 SWAP1 PUSH2 0x7F5 JUMP JUMPDEST POP POP POP POP JUMP JUMPDEST DUP1 PUSH1 0x0 DUP7 PUSH1 0x40 MLOAD PUSH2 0x3F6 SWAP2 SWAP1 PUSH2 0xFB6 JUMP JUMPDEST SWAP1 DUP2 MSTORE PUSH1 0x20 ADD PUSH1 0x40 MLOAD DUP1 SWAP2 SUB SWAP1 KECCAK256 DUP6 DUP2 SLOAD DUP2 LT PUSH2 0x40F JUMPI INVALID JUMPDEST SWAP1 PUSH1 0x0 MSTORE PUSH1 0x20 PUSH1 0x0 KECCAK256 SWAP1 PUSH1 0x3 MUL ADD PUSH1 0x0 ADD DUP5 PUSH1 0x40 MLOAD PUSH2 0x42E SWAP2 SWAP1 PUSH2 0xFB6 JUMP JUMPDEST SWAP1 DUP2 MSTORE PUSH1 0x20 ADD PUSH1 0x40 MLOAD DUP1 SWAP2 SUB SWAP1 KECCAK256 PUSH1 0x0 DUP5 PUSH20 0xFFFFFFFFFFFFFFFFFFFFFFFFFFFFFFFFFFFFFFFF AND PUSH20 0xFFFFFFFFFFFFFFFFFFFFFFFFFFFFFFFFFFFFFFFF AND DUP2 MSTORE PUSH1 0x20 ADD SWAP1 DUP2 MSTORE PUSH1 0x20 ADD PUSH1 0x0 KECCAK256 PUSH1 0x0 PUSH2 0x100 EXP DUP2 SLOAD DUP2 PUSH1 0xFF MUL NOT AND SWAP1 DUP4 PUSH1 0xFF AND MUL OR SWAP1 SSTORE POP POP POP POP POP POP JUMP JUMPDEST PUSH1 0x0 DUP1 DUP4 PUSH1 0x40 MLOAD PUSH2 0x4A9 SWAP2 SWAP1 PUSH2 0xFB6 JUMP JUMPDEST SWAP1 DUP2 MSTORE PUSH1 0x20 ADD PUSH1 0x40 MLOAD DUP1 SWAP2 SUB SWAP1 KECCAK256 DUP3 DUP2 SLOAD DUP2 LT PUSH2 0x4C2 JUMPI INVALID JUMPDEST SWAP1 PUSH1 0x0 MSTORE PUSH1 0x20 PUSH1 0x0 KECCAK256 SWAP1 PUSH1 0x3 MUL ADD PUSH1 0x1 ADD PUSH1 0x0 SWAP1 SLOAD SWAP1 PUSH2 0x100 EXP SWAP1 DIV PUSH4 0xFFFFFFFF AND SWAP1 POP SWAP3 SWAP2 POP POP JUMP JUMPDEST PUSH1 0x0 DUP1 DUP6 PUSH1 0x40 MLOAD PUSH2 0x4FD SWAP2 SWAP1 PUSH2 0xFB6 JUMP JUMPDEST SWAP1 DUP2 MSTORE PUSH1 0x20 ADD PUSH1 0x40 MLOAD DUP1 SWAP2 SUB SWAP1 KECCAK256 DUP5 DUP2 SLOAD DUP2 LT PUSH2 0x516 JUMPI INVALID JUMPDEST SWAP1 PUSH1 0x0 MSTORE PUSH1 0x20 PUSH1 0x0 KECCAK256 SWAP1 PUSH1 0x3 MUL ADD PUSH1 0x0 ADD DUP4 PUSH1 0x40 MLOAD PUSH2 0x535 SWAP2 SWAP1 PUSH2 0xFB6 JUMP JUMPDEST SWAP1 DUP2 MSTORE PUSH1 0x20 ADD PUSH1 0x40 MLOAD DUP1 SWAP2 SUB SWAP1 KECCAK256 PUSH1 0x0 DUP4 PUSH20 0xFFFFFFFFFFFFFFFFFFFFFFFFFFFFFFFFFFFFFFFF AND PUSH20 0xFFFFFFFFFFFFFFFFFFFFFFFFFFFFFFFFFFFFFFFF AND DUP2 MSTORE PUSH1 0x20 ADD SWAP1 DUP2 MSTORE PUSH1 0x20 ADD PUSH1 0x0 KECCAK256 PUSH1 0x0 SWAP1 SLOAD SWAP1 PUSH2 0x100 EXP SWAP1 DIV PUSH1 0xFF AND SWAP1 POP SWAP5 SWAP4 POP POP POP POP JUMP JUMPDEST PUSH2 0x5A0 PUSH2 0x875 JUMP JUMPDEST PUSH1 0x40 MLOAD DUP1 PUSH1 0x40 ADD PUSH1 0x40 MSTORE DUP1 PUSH1 0x0 PUSH4 0xFFFFFFFF AND DUP2 MSTORE PUSH1 0x20 ADD DUP8 DUP2 MSTORE POP SWAP1 POP DUP6 PUSH1 0x0 DUP10 PUSH1 0x40 MLOAD PUSH2 0x5CF SWAP2 SWAP1 PUSH2 0xFB6 JUMP JUMPDEST SWAP1 DUP2 MSTORE PUSH1 0x20 ADD PUSH1 0x40 MLOAD DUP1 SWAP2 SUB SWAP1 KECCAK256 DUP9 DUP2 SLOAD DUP2 LT PUSH2 0x5E8 JUMPI INVALID JUMPDEST SWAP1 PUSH1 0x0 MSTORE PUSH1 0x20 PUSH1 0x0 KECCAK256 SWAP1 PUSH1 0x3 MUL ADD PUSH1 0x2 ADD SWAP1 DUP1 MLOAD SWAP1 PUSH1 0x20 ADD SWAP1 PUSH2 0x60C SWAP3 SWAP2 SWAP1 PUSH2 0x7F5 JUMP JUMPDEST POP PUSH1 0x0 DUP1 SWAP1 POP JUMPDEST DUP3 DUP2 LT ISZERO PUSH2 0x70D JUMPI DUP4 DUP2 DUP2 MLOAD DUP2 LT PUSH2 0x627 JUMPI INVALID JUMPDEST PUSH1 0x20 MUL PUSH1 0x20 ADD ADD MLOAD PUSH1 0x0 DUP11 PUSH1 0x40 MLOAD PUSH2 0x63F SWAP2 SWAP1 PUSH2 0xFB6 JUMP JUMPDEST SWAP1 DUP2 MSTORE PUSH1 0x20 ADD PUSH1 0x40 MLOAD DUP1 SWAP2 SUB SWAP1 KECCAK256 DUP10 DUP2 SLOAD DUP2 LT PUSH2 0x658 JUMPI INVALID JUMPDEST SWAP1 PUSH1 0x0 MSTORE PUSH1 0x20 PUSH1 0x0 KECCAK256 SWAP1 PUSH1 0x3 MUL ADD PUSH1 0x0 ADD DUP8 DUP4 DUP2 MLOAD DUP2 LT PUSH2 0x675 JUMPI INVALID JUMPDEST PUSH1 0x20 MUL PUSH1 0x20 ADD ADD MLOAD PUSH1 0x40 MLOAD PUSH2 0x68A SWAP2 SWAP1 PUSH2 0xF9F JUMP JUMPDEST SWAP1 DUP2 MSTORE PUSH1 0x20 ADD PUSH1 0x40 MLOAD DUP1 SWAP2 SUB SWAP1 KECCAK256 PUSH1 0x0 DUP8 DUP5 DUP2 MLOAD DUP2 LT PUSH2 0x6A6 JUMPI INVALID JUMPDEST PUSH1 0x20 MUL PUSH1 0x20 ADD ADD MLOAD PUSH20 0xFFFFFFFFFFFFFFFFFFFFFFFFFFFFFFFFFFFFFFFF AND PUSH20 0xFFFFFFFFFFFFFFFFFFFFFFFFFFFFFFFFFFFFFFFF AND DUP2 MSTORE PUSH1 0x20 ADD SWAP1 DUP2 MSTORE PUSH1 0x20 ADD PUSH1 0x0 KECCAK256 PUSH1 0x0 PUSH2 0x100 EXP DUP2 SLOAD DUP2 PUSH1 0xFF MUL NOT AND SWAP1 DUP4 PUSH1 0xFF AND MUL OR SWAP1 SSTORE POP DUP1 DUP1 PUSH1 0x1 ADD SWAP2 POP POP PUSH2 0x613 JUMP JUMPDEST POP POP POP POP POP POP POP POP POP JUMP JUMPDEST PUSH1 0x60 PUSH1 0x0 DUP4 PUSH1 0x40 MLOAD PUSH2 0x72A SWAP2 SWAP1 PUSH2 0xFB6 JUMP JUMPDEST SWAP1 DUP2 MSTORE PUSH1 0x20 ADD PUSH1 0x40 MLOAD DUP1 SWAP2 SUB SWAP1 KECCAK256 DUP3 DUP2 SLOAD DUP2 LT PUSH2 0x743 JUMPI INVALID JUMPDEST SWAP1 PUSH1 0x0 MSTORE PUSH1 0x20 PUSH1 0x0 KECCAK256 SWAP1 PUSH1 0x3 MUL ADD PUSH1 0x2 ADD DUP1 SLOAD PUSH1 0x1 DUP2 PUSH1 0x1 AND ISZERO PUSH2 0x100 MUL SUB AND PUSH1 0x2 SWAP1 DIV DUP1 PUSH1 0x1F ADD PUSH1 0x20 DUP1 SWAP2 DIV MUL PUSH1 0x20 ADD PUSH1 0x40 MLOAD SWAP1 DUP2 ADD PUSH1 0x40 MSTORE DUP1 SWAP3 SWAP2 SWAP1 DUP2 DUP2 MSTORE PUSH1 0x20 ADD DUP3 DUP1 SLOAD PUSH1 0x1 DUP2 PUSH1 0x1 AND ISZERO PUSH2 0x100 MUL SUB AND PUSH1 0x2 SWAP1 DIV DUP1 ISZERO PUSH2 0x7E8 JUMPI DUP1 PUSH1 0x1F LT PUSH2 0x7BD JUMPI PUSH2 0x100 DUP1 DUP4 SLOAD DIV MUL DUP4 MSTORE SWAP2 PUSH1 0x20 ADD SWAP2 PUSH2 0x7E8 JUMP JUMPDEST DUP3 ADD SWAP2 SWAP1 PUSH1 0x0 MSTORE PUSH1 0x20 PUSH1 0x0 KECCAK256 SWAP1 JUMPDEST DUP2 SLOAD DUP2 MSTORE SWAP1 PUSH1 0x1 ADD SWAP1 PUSH1 0x20 ADD DUP1 DUP4 GT PUSH2 0x7CB JUMPI DUP3 SWAP1 SUB PUSH1 0x1F AND DUP3 ADD SWAP2 JUMPDEST POP POP POP POP POP SWAP1 POP SWAP3 SWAP2 POP POP JUMP JUMPDEST DUP3 DUP1 SLOAD PUSH1 0x1 DUP2 PUSH1 0x1 AND ISZERO PUSH2 0x100 MUL SUB AND PUSH1 0x2 SWAP1 DIV SWAP1 PUSH1 0x0 MSTORE PUSH1 0x20 PUSH1 0x0 KECCAK256 SWAP1 PUSH1 0x1F ADD PUSH1 0x20 SWAP1 DIV DUP2 ADD SWAP3 DUP3 PUSH1 0x1F LT PUSH2 0x836 JUMPI DUP1 MLOAD PUSH1 0xFF NOT AND DUP4 DUP1 ADD OR DUP6 SSTORE PUSH2 0x864 JUMP JUMPDEST DUP3 DUP1 ADD PUSH1 0x1 ADD DUP6 SSTORE DUP3 ISZERO PUSH2 0x864 JUMPI SWAP2 DUP3 ADD JUMPDEST DUP3 DUP2 GT ISZERO PUSH2 0x863 JUMPI DUP3 MLOAD DUP3 SSTORE SWAP2 PUSH1 0x20 ADD SWAP2 SWAP1 PUSH1 0x1 ADD SWAP1 PUSH2 0x848 JUMP JUMPDEST JUMPDEST POP SWAP1 POP PUSH2 0x871 SWAP2 SWAP1 PUSH2 0x895 JUMP JUMPDEST POP SWAP1 JUMP JUMPDEST PUSH1 0x40 MLOAD DUP1 PUSH1 0x40 ADD PUSH1 0x40 MSTORE DUP1 PUSH1 0x0 PUSH4 0xFFFFFFFF AND DUP2 MSTORE PUSH1 0x20 ADD PUSH1 0x60 DUP2 MSTORE POP SWAP1 JUMP JUMPDEST PUSH2 0x8B7 SWAP2 SWAP1 JUMPDEST DUP1 DUP3 GT ISZERO PUSH2 0x8B3 JUMPI PUSH1 0x0 DUP2 PUSH1 0x0 SWAP1 SSTORE POP PUSH1 0x1 ADD PUSH2 0x89B JUMP JUMPDEST POP SWAP1 JUMP JUMPDEST SWAP1 JUMP JUMPDEST PUSH1 0x0 DUP2 CALLDATALOAD SWAP1 POP PUSH2 0x8C9 DUP2 PUSH2 0x1200 JUMP JUMPDEST SWAP3 SWAP2 POP POP JUMP JUMPDEST PUSH1 0x0 DUP3 PUSH1 0x1F DUP4 ADD SLT PUSH2 0x8E0 JUMPI PUSH1 0x0 DUP1 REVERT JUMPDEST DUP2 CALLDATALOAD PUSH2 0x8F3 PUSH2 0x8EE DUP3 PUSH2 0x1052 JUMP JUMPDEST PUSH2 0x1025 JUMP JUMPDEST SWAP2 POP DUP2 DUP2 DUP4 MSTORE PUSH1 0x20 DUP5 ADD SWAP4 POP PUSH1 0x20 DUP2 ADD SWAP1 POP DUP4 DUP6 PUSH1 0x20 DUP5 MUL DUP3 ADD GT ISZERO PUSH2 0x918 JUMPI PUSH1 0x0 DUP1 REVERT JUMPDEST PUSH1 0x0 JUMPDEST DUP4 DUP2 LT ISZERO PUSH2 0x948 JUMPI DUP2 PUSH2 0x92E DUP9 DUP3 PUSH2 0x8BA JUMP JUMPDEST DUP5 MSTORE PUSH1 0x20 DUP5 ADD SWAP4 POP PUSH1 0x20 DUP4 ADD SWAP3 POP POP PUSH1 0x1 DUP2 ADD SWAP1 POP PUSH2 0x91B JUMP JUMPDEST POP POP POP POP SWAP3 SWAP2 POP POP JUMP JUMPDEST PUSH1 0x0 DUP3 PUSH1 0x1F DUP4 ADD SLT PUSH2 0x963 JUMPI PUSH1 0x0 DUP1 REVERT JUMPDEST DUP2 CALLDATALOAD PUSH2 0x976 PUSH2 0x971 DUP3 PUSH2 0x107A JUMP JUMPDEST PUSH2 0x1025 JUMP JUMPDEST SWAP2 POP DUP2 DUP2 DUP4 MSTORE PUSH1 0x20 DUP5 ADD SWAP4 POP PUSH1 0x20 DUP2 ADD SWAP1 POP DUP4 PUSH1 0x0 JUMPDEST DUP4 DUP2 LT ISZERO PUSH2 0x9BC JUMPI DUP2 CALLDATALOAD DUP7 ADD PUSH2 0x9A2 DUP9 DUP3 PUSH2 0xA49 JUMP JUMPDEST DUP5 MSTORE PUSH1 0x20 DUP5 ADD SWAP4 POP PUSH1 0x20 DUP4 ADD SWAP3 POP POP PUSH1 0x1 DUP2 ADD SWAP1 POP PUSH2 0x98C JUMP JUMPDEST POP POP POP POP SWAP3 SWAP2 POP POP JUMP JUMPDEST PUSH1 0x0 DUP3 PUSH1 0x1F DUP4 ADD SLT PUSH2 0x9D7 JUMPI PUSH1 0x0 DUP1 REVERT JUMPDEST DUP2 CALLDATALOAD PUSH2 0x9EA PUSH2 0x9E5 DUP3 PUSH2 0x10A2 JUMP JUMPDEST PUSH2 0x1025 JUMP JUMPDEST SWAP2 POP DUP2 DUP2 DUP4 MSTORE PUSH1 0x20 DUP5 ADD SWAP4 POP PUSH1 0x20 DUP2 ADD SWAP1 POP DUP4 DUP6 PUSH1 0x20 DUP5 MUL DUP3 ADD GT ISZERO PUSH2 0xA0F JUMPI PUSH1 0x0 DUP1 REVERT JUMPDEST PUSH1 0x0 JUMPDEST DUP4 DUP2 LT ISZERO PUSH2 0xA3F JUMPI DUP2 PUSH2 0xA25 DUP9 DUP3 PUSH2 0xB1B JUMP JUMPDEST DUP5 MSTORE PUSH1 0x20 DUP5 ADD SWAP4 POP PUSH1 0x20 DUP4 ADD SWAP3 POP POP PUSH1 0x1 DUP2 ADD SWAP1 POP PUSH2 0xA12 JUMP JUMPDEST POP POP POP POP SWAP3 SWAP2 POP POP JUMP JUMPDEST PUSH1 0x0 DUP3 PUSH1 0x1F DUP4 ADD SLT PUSH2 0xA5A JUMPI PUSH1 0x0 DUP1 REVERT JUMPDEST DUP2 CALLDATALOAD PUSH2 0xA6D PUSH2 0xA68 DUP3 PUSH2 0x10CA JUMP JUMPDEST PUSH2 0x1025 JUMP JUMPDEST SWAP2 POP DUP1 DUP3 MSTORE PUSH1 0x20 DUP4 ADD PUSH1 0x20 DUP4 ADD DUP6 DUP4 DUP4 ADD GT ISZERO PUSH2 0xA89 JUMPI PUSH1 0x0 DUP1 REVERT JUMPDEST PUSH2 0xA94 DUP4 DUP3 DUP5 PUSH2 0x11AD JUMP JUMPDEST POP POP POP SWAP3 SWAP2 POP POP JUMP JUMPDEST PUSH1 0x0 DUP3 PUSH1 0x1F DUP4 ADD SLT PUSH2 0xAAE JUMPI PUSH1 0x0 DUP1 REVERT JUMPDEST DUP2 CALLDATALOAD PUSH2 0xAC1 PUSH2 0xABC DUP3 PUSH2 0x10F6 JUMP JUMPDEST PUSH2 0x1025 JUMP JUMPDEST SWAP2 POP DUP1 DUP3 MSTORE PUSH1 0x20 DUP4 ADD PUSH1 0x20 DUP4 ADD DUP6 DUP4 DUP4 ADD GT ISZERO PUSH2 0xADD JUMPI PUSH1 0x0 DUP1 REVERT JUMPDEST PUSH2 0xAE8 DUP4 DUP3 DUP5 PUSH2 0x11AD JUMP JUMPDEST POP POP POP SWAP3 SWAP2 POP POP JUMP JUMPDEST PUSH1 0x0 DUP2 CALLDATALOAD SWAP1 POP PUSH2 0xB00 DUP2 PUSH2 0x1217 JUMP JUMPDEST SWAP3 SWAP2 POP POP JUMP JUMPDEST PUSH1 0x0 DUP2 CALLDATALOAD SWAP1 POP PUSH2 0xB15 DUP2 PUSH2 0x122E JUMP JUMPDEST SWAP3 SWAP2 POP POP JUMP JUMPDEST PUSH1 0x0 DUP2 CALLDATALOAD SWAP1 POP PUSH2 0xB2A DUP2 PUSH2 0x1245 JUMP JUMPDEST SWAP3 SWAP2 POP POP JUMP JUMPDEST PUSH1 0x0 DUP1 PUSH1 0x40 DUP4 DUP6 SUB SLT ISZERO PUSH2 0xB43 JUMPI PUSH1 0x0 DUP1 REVERT JUMPDEST PUSH1 0x0 DUP4 ADD CALLDATALOAD PUSH8 0xFFFFFFFFFFFFFFFF DUP2 GT ISZERO PUSH2 0xB5D JUMPI PUSH1 0x0 DUP1 REVERT JUMPDEST PUSH2 0xB69 DUP6 DUP3 DUP7 ADD PUSH2 0xA9D JUMP JUMPDEST SWAP3 POP POP PUSH1 0x20 PUSH2 0xB7A DUP6 DUP3 DUP7 ADD PUSH2 0xAF1 JUMP JUMPDEST SWAP2 POP POP SWAP3 POP SWAP3 SWAP1 POP JUMP JUMPDEST PUSH1 0x0 DUP1 PUSH1 0x0 PUSH1 0x60 DUP5 DUP7 SUB SLT ISZERO PUSH2 0xB99 JUMPI PUSH1 0x0 DUP1 REVERT JUMPDEST PUSH1 0x0 DUP5 ADD CALLDATALOAD PUSH8 0xFFFFFFFFFFFFFFFF DUP2 GT ISZERO PUSH2 0xBB3 JUMPI PUSH1 0x0 DUP1 REVERT JUMPDEST PUSH2 0xBBF DUP7 DUP3 DUP8 ADD PUSH2 0xA9D JUMP JUMPDEST SWAP4 POP POP PUSH1 0x20 PUSH2 0xBD0 DUP7 DUP3 DUP8 ADD PUSH2 0xAF1 JUMP JUMPDEST SWAP3 POP POP PUSH1 0x40 DUP5 ADD CALLDATALOAD PUSH8 0xFFFFFFFFFFFFFFFF DUP2 GT ISZERO PUSH2 0xBED JUMPI PUSH1 0x0 DUP1 REVERT JUMPDEST PUSH2 0xBF9 DUP7 DUP3 DUP8 ADD PUSH2 0xA9D JUMP JUMPDEST SWAP2 POP POP SWAP3 POP SWAP3 POP SWAP3 JUMP JUMPDEST PUSH1 0x0 DUP1 PUSH1 0x0 DUP1 PUSH1 0x80 DUP6 DUP8 SUB SLT ISZERO PUSH2 0xC19 JUMPI PUSH1 0x0 DUP1 REVERT JUMPDEST PUSH1 0x0 DUP6 ADD CALLDATALOAD PUSH8 0xFFFFFFFFFFFFFFFF DUP2 GT ISZERO PUSH2 0xC33 JUMPI PUSH1 0x0 DUP1 REVERT JUMPDEST PUSH2 0xC3F DUP8 DUP3 DUP9 ADD PUSH2 0xA9D JUMP JUMPDEST SWAP5 POP POP PUSH1 0x20 PUSH2 0xC50 DUP8 DUP3 DUP9 ADD PUSH2 0xAF1 JUMP JUMPDEST SWAP4 POP POP PUSH1 0x40 DUP6 ADD CALLDATALOAD PUSH8 0xFFFFFFFFFFFFFFFF DUP2 GT ISZERO PUSH2 0xC6D JUMPI PUSH1 0x0 DUP1 REVERT JUMPDEST PUSH2 0xC79 DUP8 DUP3 DUP9 ADD PUSH2 0xA9D JUMP JUMPDEST SWAP3 POP POP PUSH1 0x60 PUSH2 0xC8A DUP8 DUP3 DUP9 ADD PUSH2 0x8BA JUMP JUMPDEST SWAP2 POP POP SWAP3 SWAP6 SWAP2 SWAP5 POP SWAP3 POP JUMP JUMPDEST PUSH1 0x0 DUP1 PUSH1 0x0 DUP1 PUSH1 0x0 PUSH1 0xA0 DUP7 DUP9 SUB SLT ISZERO PUSH2 0xCAE JUMPI PUSH1 0x0 DUP1 REVERT JUMPDEST PUSH1 0x0 DUP7 ADD CALLDATALOAD PUSH8 0xFFFFFFFFFFFFFFFF DUP2 GT ISZERO PUSH2 0xCC8 JUMPI PUSH1 0x0 DUP1 REVERT JUMPDEST PUSH2 0xCD4 DUP9 DUP3 DUP10 ADD PUSH2 0xA9D JUMP JUMPDEST SWAP6 POP POP PUSH1 0x20 PUSH2 0xCE5 DUP9 DUP3 DUP10 ADD PUSH2 0xAF1 JUMP JUMPDEST SWAP5 POP POP PUSH1 0x40 DUP7 ADD CALLDATALOAD PUSH8 0xFFFFFFFFFFFFFFFF DUP2 GT ISZERO PUSH2 0xD02 JUMPI PUSH1 0x0 DUP1 REVERT JUMPDEST PUSH2 0xD0E DUP9 DUP3 DUP10 ADD PUSH2 0xA9D JUMP JUMPDEST SWAP4 POP POP PUSH1 0x60 PUSH2 0xD1F DUP9 DUP3 DUP10 ADD PUSH2 0x8BA JUMP JUMPDEST SWAP3 POP POP PUSH1 0x80 PUSH2 0xD30 DUP9 DUP3 DUP10 ADD PUSH2 0xB1B JUMP JUMPDEST SWAP2 POP POP SWAP3 SWAP6 POP SWAP3 SWAP6 SWAP1 SWAP4 POP JUMP JUMPDEST PUSH1 0x0 DUP1 PUSH1 0x0 DUP1 PUSH1 0x0 DUP1 PUSH1 0x0 PUSH1 0xE0 DUP9 DUP11 SUB SLT ISZERO PUSH2 0xD58 JUMPI PUSH1 0x0 DUP1 REVERT JUMPDEST PUSH1 0x0 DUP9 ADD CALLDATALOAD PUSH8 0xFFFFFFFFFFFFFFFF DUP2 GT ISZERO PUSH2 0xD72 JUMPI PUSH1 0x0 DUP1 REVERT JUMPDEST PUSH2 0xD7E DUP11 DUP3 DUP12 ADD PUSH2 0xA9D JUMP JUMPDEST SWAP8 POP POP PUSH1 0x20 PUSH2 0xD8F DUP11 DUP3 DUP12 ADD PUSH2 0xAF1 JUMP JUMPDEST SWAP7 POP POP PUSH1 0x40 DUP9 ADD CALLDATALOAD PUSH8 0xFFFFFFFFFFFFFFFF DUP2 GT ISZERO PUSH2 0xDAC JUMPI PUSH1 0x0 DUP1 REVERT JUMPDEST PUSH2 0xDB8 DUP11 DUP3 DUP12 ADD PUSH2 0xA9D JUMP JUMPDEST SWAP6 POP POP PUSH1 0x60 DUP9 ADD CALLDATALOAD PUSH8 0xFFFFFFFFFFFFFFFF DUP2 GT ISZERO PUSH2 0xDD5 JUMPI PUSH1 0x0 DUP1 REVERT JUMPDEST PUSH2 0xDE1 DUP11 DUP3 DUP12 ADD PUSH2 0x952 JUMP JUMPDEST SWAP5 POP POP PUSH1 0x80 DUP9 ADD CALLDATALOAD PUSH8 0xFFFFFFFFFFFFFFFF DUP2 GT ISZERO PUSH2 0xDFE JUMPI PUSH1 0x0 DUP1 REVERT JUMPDEST PUSH2 0xE0A DUP11 DUP3 DUP12 ADD PUSH2 0x8CF JUMP JUMPDEST SWAP4 POP POP PUSH1 0xA0 DUP9 ADD CALLDATALOAD PUSH8 0xFFFFFFFFFFFFFFFF DUP2 GT ISZERO PUSH2 0xE27 JUMPI PUSH1 0x0 DUP1 REVERT JUMPDEST PUSH2 0xE33 DUP11 DUP3 DUP12 ADD PUSH2 0x9C6 JUMP JUMPDEST SWAP3 POP POP PUSH1 0xC0 PUSH2 0xE44 DUP11 DUP3 DUP12 ADD PUSH2 0xAF1 JUMP JUMPDEST SWAP2 POP POP SWAP3 SWAP6 SWAP9 SWAP2 SWAP5 SWAP8 POP SWAP3 SWAP6 POP JUMP JUMPDEST PUSH1 0x0 DUP1 PUSH1 0x0 DUP1 PUSH1 0x80 DUP6 DUP8 SUB SLT ISZERO PUSH2 0xE69 JUMPI PUSH1 0x0 DUP1 REVERT JUMPDEST PUSH1 0x0 DUP6 ADD CALLDATALOAD PUSH8 0xFFFFFFFFFFFFFFFF DUP2 GT ISZERO PUSH2 0xE83 JUMPI PUSH1 0x0 DUP1 REVERT JUMPDEST PUSH2 0xE8F DUP8 DUP3 DUP9 ADD PUSH2 0xA9D JUMP JUMPDEST SWAP5 POP POP PUSH1 0x20 PUSH2 0xEA0 DUP8 DUP3 DUP9 ADD PUSH2 0xAF1 JUMP JUMPDEST SWAP4 POP POP PUSH1 0x40 PUSH2 0xEB1 DUP8 DUP3 DUP9 ADD PUSH2 0xB06 JUMP JUMPDEST SWAP3 POP POP PUSH1 0x60 DUP6 ADD CALLDATALOAD PUSH8 0xFFFFFFFFFFFFFFFF DUP2 GT ISZERO PUSH2 0xECE JUMPI PUSH1 0x0 DUP1 REVERT JUMPDEST PUSH2 0xEDA DUP8 DUP3 DUP9 ADD PUSH2 0xA9D JUMP JUMPDEST SWAP2 POP POP SWAP3 SWAP6 SWAP2 SWAP5 POP SWAP3 POP JUMP JUMPDEST PUSH1 0x0 PUSH2 0xEF1 DUP3 PUSH2 0x112D JUMP JUMPDEST PUSH2 0xEFB DUP2 DUP6 PUSH2 0x1138 JUMP JUMPDEST SWAP4 POP PUSH2 0xF0B DUP2 DUP6 PUSH1 0x20 DUP7 ADD PUSH2 0x11BC JUMP JUMPDEST PUSH2 0xF14 DUP2 PUSH2 0x11EF JUMP JUMPDEST DUP5 ADD SWAP2 POP POP SWAP3 SWAP2 POP POP JUMP JUMPDEST PUSH1 0x0 PUSH2 0xF2A DUP3 PUSH2 0x112D JUMP JUMPDEST PUSH2 0xF34 DUP2 DUP6 PUSH2 0x1149 JUMP JUMPDEST SWAP4 POP PUSH2 0xF44 DUP2 DUP6 PUSH1 0x20 DUP7 ADD PUSH2 0x11BC JUMP JUMPDEST DUP1 DUP5 ADD SWAP2 POP POP SWAP3 SWAP2 POP POP JUMP JUMPDEST PUSH1 0x0 PUSH2 0xF5B DUP3 PUSH2 0x1122 JUMP JUMPDEST PUSH2 0xF65 DUP2 DUP6 PUSH2 0x1149 JUMP JUMPDEST SWAP4 POP PUSH2 0xF75 DUP2 DUP6 PUSH1 0x20 DUP7 ADD PUSH2 0x11BC JUMP JUMPDEST DUP1 DUP5 ADD SWAP2 POP POP SWAP3 SWAP2 POP POP JUMP JUMPDEST PUSH2 0xF8A DUP2 PUSH2 0x1190 JUMP JUMPDEST DUP3 MSTORE POP POP JUMP JUMPDEST PUSH2 0xF99 DUP2 PUSH2 0x11A0 JUMP JUMPDEST DUP3 MSTORE POP POP JUMP JUMPDEST PUSH1 0x0 PUSH2 0xFAB DUP3 DUP5 PUSH2 0xF50 JUMP JUMPDEST SWAP2 POP DUP2 SWAP1 POP SWAP3 SWAP2 POP POP JUMP JUMPDEST PUSH1 0x0 PUSH2 0xFC2 DUP3 DUP5 PUSH2 0xF1F JUMP JUMPDEST SWAP2 POP DUP2 SWAP1 POP SWAP3 SWAP2 POP POP JUMP JUMPDEST PUSH1 0x0 PUSH1 0x20 DUP3 ADD SWAP1 POP DUP2 DUP2 SUB PUSH1 0x0 DUP4 ADD MSTORE PUSH2 0xFE7 DUP2 DUP5 PUSH2 0xEE6 JUMP JUMPDEST SWAP1 POP SWAP3 SWAP2 POP POP JUMP JUMPDEST PUSH1 0x0 PUSH1 0x20 DUP3 ADD SWAP1 POP PUSH2 0x1004 PUSH1 0x0 DUP4 ADD DUP5 PUSH2 0xF81 JUMP JUMPDEST SWAP3 SWAP2 POP POP JUMP JUMPDEST PUSH1 0x0 PUSH1 0x20 DUP3 ADD SWAP1 POP PUSH2 0x101F PUSH1 0x0 DUP4 ADD DUP5 PUSH2 0xF90 JUMP JUMPDEST SWAP3 SWAP2 POP POP JUMP JUMPDEST PUSH1 0x0 PUSH1 0x40 MLOAD SWAP1 POP DUP2 DUP2 ADD DUP2 DUP2 LT PUSH8 0xFFFFFFFFFFFFFFFF DUP3 GT OR ISZERO PUSH2 0x1048 JUMPI PUSH1 0x0 DUP1 REVERT JUMPDEST DUP1 PUSH1 0x40 MSTORE POP SWAP2 SWAP1 POP JUMP JUMPDEST PUSH1 0x0 PUSH8 0xFFFFFFFFFFFFFFFF DUP3 GT ISZERO PUSH2 0x1069 JUMPI PUSH1 0x0 DUP1 REVERT JUMPDEST PUSH1 0x20 DUP3 MUL SWAP1 POP PUSH1 0x20 DUP2 ADD SWAP1 POP SWAP2 SWAP1 POP JUMP JUMPDEST PUSH1 0x0 PUSH8 0xFFFFFFFFFFFFFFFF DUP3 GT ISZERO PUSH2 0x1091 JUMPI PUSH1 0x0 DUP1 REVERT JUMPDEST PUSH1 0x20 DUP3 MUL SWAP1 POP PUSH1 0x20 DUP2 ADD SWAP1 POP SWAP2 SWAP1 POP JUMP JUMPDEST PUSH1 0x0 PUSH8 0xFFFFFFFFFFFFFFFF DUP3 GT ISZERO PUSH2 0x10B9 JUMPI PUSH1 0x0 DUP1 REVERT JUMPDEST PUSH1 0x20 DUP3 MUL SWAP1 POP PUSH1 0x20 DUP2 ADD SWAP1 POP SWAP2 SWAP1 POP JUMP JUMPDEST PUSH1 0x0 PUSH8 0xFFFFFFFFFFFFFFFF DUP3 GT ISZERO PUSH2 0x10E1 JUMPI PUSH1 0x0 DUP1 REVERT JUMPDEST PUSH1 0x1F NOT PUSH1 0x1F DUP4 ADD AND SWAP1 POP PUSH1 0x20 DUP2 ADD SWAP1 POP SWAP2 SWAP1 POP JUMP JUMPDEST PUSH1 0x0 PUSH8 0xFFFFFFFFFFFFFFFF DUP3 GT ISZERO PUSH2 0x110D JUMPI PUSH1 0x0 DUP1 REVERT JUMPDEST PUSH1 0x1F NOT PUSH1 0x1F DUP4 ADD AND SWAP1 POP PUSH1 0x20 DUP2 ADD SWAP1 POP SWAP2 SWAP1 POP JUMP JUMPDEST PUSH1 0x0 DUP2 MLOAD SWAP1 POP SWAP2 SWAP1 POP JUMP JUMPDEST PUSH1 0x0 DUP2 MLOAD SWAP1 POP SWAP2 SWAP1 POP JUMP JUMPDEST PUSH1 0x0 DUP3 DUP3 MSTORE PUSH1 0x20 DUP3 ADD SWAP1 POP SWAP3 SWAP2 POP POP JUMP JUMPDEST PUSH1 0x0 DUP2 SWAP1 POP SWAP3 SWAP2 POP POP JUMP JUMPDEST PUSH1 0x0 PUSH2 0x115F DUP3 PUSH2 0x1166 JUMP JUMPDEST SWAP1 POP SWAP2 SWAP1 POP JUMP JUMPDEST PUSH1 0x0 PUSH20 0xFFFFFFFFFFFFFFFFFFFFFFFFFFFFFFFFFFFFFFFF DUP3 AND SWAP1 POP SWAP2 SWAP1 POP JUMP JUMPDEST PUSH1 0x0 DUP2 SWAP1 POP SWAP2 SWAP1 POP JUMP JUMPDEST PUSH1 0x0 PUSH4 0xFFFFFFFF DUP3 AND SWAP1 POP SWAP2 SWAP1 POP JUMP JUMPDEST PUSH1 0x0 PUSH1 0xFF DUP3 AND SWAP1 POP SWAP2 SWAP1 POP JUMP JUMPDEST DUP3 DUP2 DUP4 CALLDATACOPY PUSH1 0x0 DUP4 DUP4 ADD MSTORE POP POP POP JUMP JUMPDEST PUSH1 0x0 JUMPDEST DUP4 DUP2 LT ISZERO PUSH2 0x11DA JUMPI DUP1 DUP3 ADD MLOAD DUP2 DUP5 ADD MSTORE PUSH1 0x20 DUP2 ADD SWAP1 POP PUSH2 0x11BF JUMP JUMPDEST DUP4 DUP2 GT ISZERO PUSH2 0x11E9 JUMPI PUSH1 0x0 DUP5 DUP5 ADD MSTORE JUMPDEST POP POP POP POP JUMP JUMPDEST PUSH1 0x0 PUSH1 0x1F NOT PUSH1 0x1F DUP4 ADD AND SWAP1 POP SWAP2 SWAP1 POP JUMP JUMPDEST PUSH2 0x1209 DUP2 PUSH2 0x1154 JUMP JUMPDEST DUP2 EQ PUSH2 0x1214 JUMPI PUSH1 0x0 DUP1 REVERT JUMPDEST POP JUMP JUMPDEST PUSH2 0x1220 DUP2 PUSH2 0x1186 JUMP JUMPDEST DUP2 EQ PUSH2 0x122B JUMPI PUSH1 0x0 DUP1 REVERT JUMPDEST POP JUMP JUMPDEST PUSH2 0x1237 DUP2 PUSH2 0x1190 JUMP JUMPDEST DUP2 EQ PUSH2 0x1242 JUMPI PUSH1 0x0 DUP1 REVERT JUMPDEST POP JUMP JUMPDEST PUSH2 0x124E DUP2 PUSH2 0x11A0 JUMP JUMPDEST DUP2 EQ PUSH2 0x1259 JUMPI PUSH1 0x0 DUP1 REVERT JUMPDEST POP JUMP INVALID LOG3 PUSH6 0x627A7A723158 KECCAK256 SWAP5 0xC1 RETURNDATACOPY CALLVALUE PUSH12 0x61C2901BB3F68BF42BA7BE44 DUP14 0xB2 0xB0 MSIZE CREATE2 PUSH13 0xC49B09D43050EED8F26C657870 PUSH6 0x72696D656E74 PUSH2 0x6CF5 PUSH5 0x736F6C6343 STOP SDIV GT STOP BLOCKHASH "
				},
				"gasEstimates": {
					"creation": {
						"codeDepositCost": "953400",
						"executionCost": "988",
						"totalCost": "954388"
					},
					"external": {
						"deleteVariable(string,uint256,string)": "infinite",
						"getAccess(string,uint256,string,address)": "infinite",
						"getVariableName(string,uint256)": "infinite",
						"getVariableValue(string,uint256)": "infinite",
						"setVariableName(string,uint256,string)": "infinite",
						"updateMatrix(string,uint256,string,address,uint8)": "infinite",
						"updateValue(string,uint256,uint32,string)": "infinite",
						"uploadMatrix(string,uint256,string,string[],address[],uint8[],uint256)": "infinite"
					}
				},
				"methodIdentifiers": {
					"deleteVariable(string,uint256,string)": "252e7bed",
					"getAccess(string,uint256,string,address)": "aa86c8fc",
					"getVariableName(string,uint256)": "fe7f2692",
					"getVariableValue(string,uint256)": "93614356",
					"setVariableName(string,uint256,string)": "612fa967",
					"updateMatrix(string,uint256,string,address,uint8)": "61650af7",
					"updateValue(string,uint256,uint32,string)": "0b3e9bfc",
					"uploadMatrix(string,uint256,string,string[],address[],uint8[],uint256)": "aefec0c0"
				}
			},
			"storageLayout": {
				"storage": [
					{
						"astId": 18,
						"contract": "Access_Matrix.sol:Access_matrix",
						"label": "variables",
						"offset": 0,
						"slot": "0",
						"type": "t_mapping(t_string_memory,t_array(t_struct(Variable)13_storage)dyn_storage)"
					}
				],
				"types": {
					"t_address": {
						"encoding": "inplace",
						"label": "address",
						"numberOfBytes": "20"
					},
					"t_array(t_struct(Variable)13_storage)dyn_storage": {
						"base": "t_struct(Variable)13_storage",
						"encoding": "dynamic_array",
						"label": "struct Access_matrix.Variable[]",
						"numberOfBytes": "32"
					},
					"t_mapping(t_address,t_uint8)": {
						"encoding": "mapping",
						"key": "t_address",
						"label": "mapping(address => uint8)",
						"numberOfBytes": "32",
						"value": "t_uint8"
					},
					"t_mapping(t_string_memory,t_array(t_struct(Variable)13_storage)dyn_storage)": {
						"encoding": "mapping",
						"key": "t_string_memory",
						"label": "mapping(string => struct Access_matrix.Variable[])",
						"numberOfBytes": "32",
						"value": "t_array(t_struct(Variable)13_storage)dyn_storage"
					},
					"t_mapping(t_string_memory,t_mapping(t_address,t_uint8))": {
						"encoding": "mapping",
						"key": "t_string_memory",
						"label": "mapping(string => mapping(address => uint8))",
						"numberOfBytes": "32",
						"value": "t_mapping(t_address,t_uint8)"
					},
					"t_string_memory": {
						"encoding": "bytes",
						"label": "string",
						"numberOfBytes": "32"
					},
					"t_string_storage": {
						"encoding": "bytes",
						"label": "string",
						"numberOfBytes": "32"
					},
					"t_struct(Variable)13_storage": {
						"encoding": "inplace",
						"label": "struct Access_matrix.Variable",
						"members": [
							{
								"astId": 8,
								"contract": "Access_Matrix.sol:Access_matrix",
								"label": "matrix",
								"offset": 0,
								"slot": "0",
								"type": "t_mapping(t_string_memory,t_mapping(t_address,t_uint8))"
							},
							{
								"astId": 10,
								"contract": "Access_Matrix.sol:Access_matrix",
								"label": "value",
								"offset": 0,
								"slot": "1",
								"type": "t_uint32"
							},
							{
								"astId": 12,
								"contract": "Access_Matrix.sol:Access_matrix",
								"label": "name",
								"offset": 0,
								"slot": "2",
								"type": "t_string_storage"
							}
						],
						"numberOfBytes": "96"
					},
					"t_uint32": {
						"encoding": "inplace",
						"label": "uint32",
						"numberOfBytes": "4"
					},
					"t_uint8": {
						"encoding": "inplace",
						"label": "uint8",
						"numberOfBytes": "1"
					}
				}
			},
			"userdoc": {
				"methods": {}
			}
		}
	}
}