{
	"Access_Matrix.sol": {
		"Access_matrix": {
			"abi": [
				{
					"constant": false,
					"inputs": [
						{
							"internalType": "string",
							"name": "_activity",
							"type": "string"
						}
					],
					"name": "deleteVariable",
					"outputs": [],
					"payable": false,
					"stateMutability": "nonpayable",
					"type": "function"
				},
				{
					"constant": true,
					"inputs": [
						{
							"internalType": "string",
							"name": "_activity",
							"type": "string"
						},
						{
							"internalType": "address",
							"name": "_role",
							"type": "address"
						}
					],
					"name": "getAccess",
					"outputs": [
						{
							"internalType": "uint8",
							"name": "_access",
							"type": "uint8"
						}
					],
					"payable": false,
					"stateMutability": "view",
					"type": "function"
				},
				{
					"constant": true,
					"inputs": [],
					"name": "getVariableValue",
					"outputs": [
						{
							"internalType": "uint32",
							"name": "_var",
							"type": "uint32"
						}
					],
					"payable": false,
					"stateMutability": "view",
					"type": "function"
				},
				{
					"constant": false,
					"inputs": [
						{
							"internalType": "string",
							"name": "_newName",
							"type": "string"
						}
					],
					"name": "setVariableName",
					"outputs": [],
					"payable": false,
					"stateMutability": "nonpayable",
					"type": "function"
				},
				{
					"constant": false,
					"inputs": [
						{
							"internalType": "string",
							"name": "_activity",
							"type": "string"
						},
						{
							"internalType": "address",
							"name": "_role",
							"type": "address"
						},
						{
							"internalType": "uint8",
							"name": "_val",
							"type": "uint8"
						}
					],
					"name": "updateMatrix",
					"outputs": [],
					"payable": false,
					"stateMutability": "nonpayable",
					"type": "function"
				},
				{
					"constant": false,
					"inputs": [
						{
							"internalType": "string[]",
							"name": "_activities",
							"type": "string[]"
						},
						{
							"internalType": "address[]",
							"name": "_roles",
							"type": "address[]"
						},
						{
							"internalType": "uint8[]",
							"name": "_vals",
							"type": "uint8[]"
						},
						{
							"internalType": "uint256",
							"name": "nbOfElements",
							"type": "uint256"
						}
					],
					"name": "updateMultipleMatrix",
					"outputs": [],
					"payable": false,
					"stateMutability": "nonpayable",
					"type": "function"
				},
				{
					"constant": false,
					"inputs": [
						{
							"internalType": "uint32",
							"name": "_variable_value",
							"type": "uint32"
						},
						{
							"internalType": "string",
							"name": "_activity",
							"type": "string"
						}
					],
					"name": "updateValue",
					"outputs": [],
					"payable": false,
					"stateMutability": "nonpayable",
					"type": "function"
				}
			],
			"devdoc": {
				"methods": {
					"deleteVariable(string)": {
						"details": "deletes the contract if the caller has the authorization (first bit starting from right).",
						"params": {
							"_activity": "that want to have access"
						}
					},
					"getVariableValue()": {
						"details": "Get the variable value",
						"return": "_var the variable value "
					},
					"updateMatrix(string,address,uint8)": {
						"details": "Update an entry of the access matrix",
						"params": {
							"_activity": "is the name of the activity ",
							"_role": "is the role",
							"_val": "is a 4 bit int that allows to find if a certain matrix entry has access or not to a vraiable (read,write,create,delete) are the four bits."
						}
					},
					"updateValue(uint32,string)": {
						"details": "Update the variable value if the caller has access",
						"params": {
							"_activity": "name of the activity that want to update the variable value",
							"_variable_value": "new variable value "
						}
					}
				}
			},
			"evm": {
				"assembly": "    /* \"Access_Matrix.sol\":94:2182  contract Access_matrix {... */\n  mstore(0x40, 0x80)\n  callvalue\n    /* \"--CODEGEN--\":8:17   */\n  dup1\n    /* \"--CODEGEN--\":5:7   */\n  iszero\n  tag_1\n  jumpi\n    /* \"--CODEGEN--\":30:31   */\n  0x00\n    /* \"--CODEGEN--\":27:28   */\n  dup1\n    /* \"--CODEGEN--\":20:32   */\n  revert\n    /* \"--CODEGEN--\":5:7   */\ntag_1:\n    /* \"Access_Matrix.sol\":94:2182  contract Access_matrix {... */\n  pop\n  dataSize(sub_0)\n  dup1\n  dataOffset(sub_0)\n  0x00\n  codecopy\n  0x00\n  return\nstop\n\nsub_0: assembly {\n        /* \"Access_Matrix.sol\":94:2182  contract Access_matrix {... */\n      mstore(0x40, 0x80)\n      callvalue\n        /* \"--CODEGEN--\":8:17   */\n      dup1\n        /* \"--CODEGEN--\":5:7   */\n      iszero\n      tag_1\n      jumpi\n        /* \"--CODEGEN--\":30:31   */\n      0x00\n        /* \"--CODEGEN--\":27:28   */\n      dup1\n        /* \"--CODEGEN--\":20:32   */\n      revert\n        /* \"--CODEGEN--\":5:7   */\n    tag_1:\n        /* \"Access_Matrix.sol\":94:2182  contract Access_matrix {... */\n      pop\n      jumpi(tag_2, lt(calldatasize, 0x04))\n      shr(0xe0, calldataload(0x00))\n      dup1\n      0x34b9eb7d\n      gt\n      tag_10\n      jumpi\n      dup1\n      0x34b9eb7d\n      eq\n      tag_6\n      jumpi\n      dup1\n      0xdd1b91de\n      eq\n      tag_7\n      jumpi\n      dup1\n      0xf1af653c\n      eq\n      tag_8\n      jumpi\n      dup1\n      0xf472c386\n      eq\n      tag_9\n      jumpi\n      jump(tag_2)\n    tag_10:\n      dup1\n      0x0bd7c200\n      eq\n      tag_3\n      jumpi\n      dup1\n      0x0da08fe7\n      eq\n      tag_4\n      jumpi\n      dup1\n      0x11f55424\n      eq\n      tag_5\n      jumpi\n    tag_2:\n      0x00\n      dup1\n      revert\n        /* \"Access_Matrix.sol\":674:760  function setVariableName(string memory _newName) public {... */\n    tag_3:\n      tag_11\n      0x04\n      dup1\n      calldatasize\n      sub\n      tag_12\n      swap2\n      swap1\n      dup2\n      add\n      swap1\n      jump(tag_13)\n    tag_12:\n      tag_14\n      jump\t// in\n    tag_11:\n      stop\n        /* \"Access_Matrix.sol\":1247:1469  function updateValue(uint32 _variable_value, string memory _activity) public {... */\n    tag_4:\n      tag_15\n      0x04\n      dup1\n      calldatasize\n      sub\n      tag_16\n      swap2\n      swap1\n      dup2\n      add\n      swap1\n      jump(tag_17)\n    tag_16:\n      tag_18\n      jump\t// in\n    tag_15:\n      stop\n        /* \"Access_Matrix.sol\":1561:1654  function getVariableValue() public view returns (uint32 _var){... */\n    tag_5:\n      tag_19\n      tag_20\n      jump\t// in\n    tag_19:\n      mload(0x40)\n      tag_21\n      swap2\n      swap1\n      jump(tag_22)\n    tag_21:\n      mload(0x40)\n      dup1\n      swap2\n      sub\n      swap1\n      return\n        /* \"Access_Matrix.sol\":541:668  function updateMatrix(string memory _activity, address _role, uint8 _val) public {... */\n    tag_6:\n      tag_23\n      0x04\n      dup1\n      calldatasize\n      sub\n      tag_24\n      swap2\n      swap1\n      dup2\n      add\n      swap1\n      jump(tag_25)\n    tag_24:\n      tag_26\n      jump\t// in\n    tag_23:\n      stop\n        /* \"Access_Matrix.sol\":1660:1802  function getAccess(string memory _activity, address _role) public view returns (uint8 _access) {... */\n    tag_7:\n      tag_27\n      0x04\n      dup1\n      calldatasize\n      sub\n      tag_28\n      swap2\n      swap1\n      dup2\n      add\n      swap1\n      jump(tag_29)\n    tag_28:\n      tag_30\n      jump\t// in\n    tag_27:\n      mload(0x40)\n      tag_31\n      swap2\n      swap1\n      jump(tag_32)\n    tag_31:\n      mload(0x40)\n      dup1\n      swap2\n      sub\n      swap1\n      return\n        /* \"Access_Matrix.sol\":766:1015  function updateMultipleMatrix(string[] memory _activities, address[] memory _roles, uint8[] memory _vals, uint nbOfElements) public {... */\n    tag_8:\n      tag_33\n      0x04\n      dup1\n      calldatasize\n      sub\n      tag_34\n      swap2\n      swap1\n      dup2\n      add\n      swap1\n      jump(tag_35)\n    tag_34:\n      tag_36\n      jump\t// in\n    tag_33:\n      stop\n        /* \"Access_Matrix.sol\":1987:2180  function deleteVariable(string memory _activity) public {... */\n    tag_9:\n      tag_37\n      0x04\n      dup1\n      calldatasize\n      sub\n      tag_38\n      swap2\n      swap1\n      dup2\n      add\n      swap1\n      jump(tag_13)\n    tag_38:\n      tag_39\n      jump\t// in\n    tag_37:\n      stop\n        /* \"Access_Matrix.sol\":674:760  function setVariableName(string memory _newName) public {... */\n    tag_14:\n        /* \"Access_Matrix.sol\":745:753  _newName */\n      dup1\n        /* \"Access_Matrix.sol\":738:742  name */\n      0x02\n        /* \"Access_Matrix.sol\":738:753  name = _newName */\n      swap1\n      dup1\n      mload\n      swap1\n      0x20\n      add\n      swap1\n      tag_41\n      swap3\n      swap2\n      swap1\n      tag_42\n      jump\t// in\n    tag_41:\n      pop\n        /* \"Access_Matrix.sol\":674:760  function setVariableName(string memory _newName) public {... */\n      pop\n      jump\t// out\n        /* \"Access_Matrix.sol\":1247:1469  function updateValue(uint32 _variable_value, string memory _activity) public {... */\n    tag_18:\n        /* \"Access_Matrix.sol\":1334:1349  bool has_access */\n      0x00\n        /* \"Access_Matrix.sol\":1397:1398  1 */\n      0x01\n        /* \"Access_Matrix.sol\":1392:1393  1 */\n      dup1\n        /* \"Access_Matrix.sol\":1386:1387  3 */\n      0x03\n        /* \"Access_Matrix.sol\":1353:1359  matrix */\n      0x00\n        /* \"Access_Matrix.sol\":1360:1369  _activity */\n      dup6\n        /* \"Access_Matrix.sol\":1353:1370  matrix[_activity] */\n      mload(0x40)\n      tag_44\n      swap2\n      swap1\n      jump(tag_45)\n    tag_44:\n      swap1\n      dup2\n      mstore\n      0x20\n      add\n      mload(0x40)\n      dup1\n      swap2\n      sub\n      swap1\n      keccak256\n        /* \"Access_Matrix.sol\":1353:1382  matrix[_activity][msg.sender] */\n      0x00\n        /* \"Access_Matrix.sol\":1371:1381  msg.sender */\n      caller\n        /* \"Access_Matrix.sol\":1353:1382  matrix[_activity][msg.sender] */\n      0xffffffffffffffffffffffffffffffffffffffff\n      and\n      0xffffffffffffffffffffffffffffffffffffffff\n      and\n      dup2\n      mstore\n      0x20\n      add\n      swap1\n      dup2\n      mstore\n      0x20\n      add\n      0x00\n      keccak256\n      0x00\n      swap1\n      sload\n      swap1\n      0x0100\n      exp\n      swap1\n      div\n      0xff\n      and\n        /* \"Access_Matrix.sol\":1353:1387  matrix[_activity][msg.sender] >> 3 */\n      0xff\n      and\n      swap1\n      shr\n        /* \"Access_Matrix.sol\":1352:1393  (matrix[_activity][msg.sender] >> 3 ) & 1 */\n      and\n        /* \"Access_Matrix.sol\":1352:1398  (matrix[_activity][msg.sender] >> 3 ) & 1 == 1 */\n      0xff\n      and\n      eq\n        /* \"Access_Matrix.sol\":1334:1398  bool has_access = (matrix[_activity][msg.sender] >> 3 ) & 1 == 1 */\n      swap1\n      pop\n        /* \"Access_Matrix.sol\":1415:1425  has_access */\n      dup1\n        /* \"Access_Matrix.sol\":1408:1426  assert(has_access) */\n      tag_46\n      jumpi\n      invalid\n    tag_46:\n        /* \"Access_Matrix.sol\":1447:1462  _variable_value */\n      dup3\n        /* \"Access_Matrix.sol\":1436:1444  variable */\n      0x01\n      0x00\n        /* \"Access_Matrix.sol\":1436:1462  variable = _variable_value */\n      0x0100\n      exp\n      dup2\n      sload\n      dup2\n      0xffffffff\n      mul\n      not\n      and\n      swap1\n      dup4\n      0xffffffff\n      and\n      mul\n      or\n      swap1\n      sstore\n      pop\n        /* \"Access_Matrix.sol\":1247:1469  function updateValue(uint32 _variable_value, string memory _activity) public {... */\n      pop\n      pop\n      pop\n      jump\t// out\n        /* \"Access_Matrix.sol\":1561:1654  function getVariableValue() public view returns (uint32 _var){... */\n    tag_20:\n        /* \"Access_Matrix.sol\":1610:1621  uint32 _var */\n      0x00\n        /* \"Access_Matrix.sol\":1639:1647  variable */\n      0x01\n      0x00\n      swap1\n      sload\n      swap1\n      0x0100\n      exp\n      swap1\n      div\n      0xffffffff\n      and\n        /* \"Access_Matrix.sol\":1632:1647  return variable */\n      swap1\n      pop\n        /* \"Access_Matrix.sol\":1561:1654  function getVariableValue() public view returns (uint32 _var){... */\n      swap1\n      jump\t// out\n        /* \"Access_Matrix.sol\":541:668  function updateMatrix(string memory _activity, address _role, uint8 _val) public {... */\n    tag_26:\n        /* \"Access_Matrix.sol\":657:661  _val */\n      dup1\n        /* \"Access_Matrix.sol\":630:636  matrix */\n      0x00\n        /* \"Access_Matrix.sol\":637:646  _activity */\n      dup5\n        /* \"Access_Matrix.sol\":630:647  matrix[_activity] */\n      mload(0x40)\n      tag_49\n      swap2\n      swap1\n      jump(tag_45)\n    tag_49:\n      swap1\n      dup2\n      mstore\n      0x20\n      add\n      mload(0x40)\n      dup1\n      swap2\n      sub\n      swap1\n      keccak256\n        /* \"Access_Matrix.sol\":630:654  matrix[_activity][_role] */\n      0x00\n        /* \"Access_Matrix.sol\":648:653  _role */\n      dup5\n        /* \"Access_Matrix.sol\":630:654  matrix[_activity][_role] */\n      0xffffffffffffffffffffffffffffffffffffffff\n      and\n      0xffffffffffffffffffffffffffffffffffffffff\n      and\n      dup2\n      mstore\n      0x20\n      add\n      swap1\n      dup2\n      mstore\n      0x20\n      add\n      0x00\n      keccak256\n      0x00\n        /* \"Access_Matrix.sol\":630:661  matrix[_activity][_role] = _val */\n      0x0100\n      exp\n      dup2\n      sload\n      dup2\n      0xff\n      mul\n      not\n      and\n      swap1\n      dup4\n      0xff\n      and\n      mul\n      or\n      swap1\n      sstore\n      pop\n        /* \"Access_Matrix.sol\":541:668  function updateMatrix(string memory _activity, address _role, uint8 _val) public {... */\n      pop\n      pop\n      pop\n      jump\t// out\n        /* \"Access_Matrix.sol\":1660:1802  function getAccess(string memory _activity, address _role) public view returns (uint8 _access) {... */\n    tag_30:\n        /* \"Access_Matrix.sol\":1740:1753  uint8 _access */\n      0x00\n        /* \"Access_Matrix.sol\":1771:1777  matrix */\n      dup1\n        /* \"Access_Matrix.sol\":1778:1787  _activity */\n      dup4\n        /* \"Access_Matrix.sol\":1771:1788  matrix[_activity] */\n      mload(0x40)\n      tag_51\n      swap2\n      swap1\n      jump(tag_45)\n    tag_51:\n      swap1\n      dup2\n      mstore\n      0x20\n      add\n      mload(0x40)\n      dup1\n      swap2\n      sub\n      swap1\n      keccak256\n        /* \"Access_Matrix.sol\":1771:1795  matrix[_activity][_role] */\n      0x00\n        /* \"Access_Matrix.sol\":1789:1794  _role */\n      dup4\n        /* \"Access_Matrix.sol\":1771:1795  matrix[_activity][_role] */\n      0xffffffffffffffffffffffffffffffffffffffff\n      and\n      0xffffffffffffffffffffffffffffffffffffffff\n      and\n      dup2\n      mstore\n      0x20\n      add\n      swap1\n      dup2\n      mstore\n      0x20\n      add\n      0x00\n      keccak256\n      0x00\n      swap1\n      sload\n      swap1\n      0x0100\n      exp\n      swap1\n      div\n      0xff\n      and\n        /* \"Access_Matrix.sol\":1763:1795  return  matrix[_activity][_role] */\n      swap1\n      pop\n        /* \"Access_Matrix.sol\":1660:1802  function getAccess(string memory _activity, address _role) public view returns (uint8 _access) {... */\n      swap3\n      swap2\n      pop\n      pop\n      jump\t// out\n        /* \"Access_Matrix.sol\":766:1015  function updateMultipleMatrix(string[] memory _activities, address[] memory _roles, uint8[] memory _vals, uint nbOfElements) public {... */\n    tag_36:\n        /* \"Access_Matrix.sol\":910:916  uint k */\n      0x00\n        /* \"Access_Matrix.sol\":919:920  0 */\n      dup1\n        /* \"Access_Matrix.sol\":910:920  uint k = 0 */\n      swap1\n      pop\n        /* \"Access_Matrix.sol\":906:1009  for(uint k = 0; k < nbOfElements; k++) {... */\n    tag_53:\n        /* \"Access_Matrix.sol\":926:938  nbOfElements */\n      dup2\n        /* \"Access_Matrix.sol\":922:923  k */\n      dup2\n        /* \"Access_Matrix.sol\":922:938  k < nbOfElements */\n      lt\n        /* \"Access_Matrix.sol\":906:1009  for(uint k = 0; k < nbOfElements; k++) {... */\n      iszero\n      tag_54\n      jumpi\n        /* \"Access_Matrix.sol\":991:996  _vals */\n      dup3\n        /* \"Access_Matrix.sol\":997:998  k */\n      dup2\n        /* \"Access_Matrix.sol\":991:999  _vals[k] */\n      dup2\n      mload\n      dup2\n      lt\n      tag_56\n      jumpi\n      invalid\n    tag_56:\n      0x20\n      mul\n      0x20\n      add\n      add\n      mload\n        /* \"Access_Matrix.sol\":955:961  matrix */\n      0x00\n        /* \"Access_Matrix.sol\":962:973  _activities */\n      dup7\n        /* \"Access_Matrix.sol\":974:975  k */\n      dup4\n        /* \"Access_Matrix.sol\":962:976  _activities[k] */\n      dup2\n      mload\n      dup2\n      lt\n      tag_57\n      jumpi\n      invalid\n    tag_57:\n      0x20\n      mul\n      0x20\n      add\n      add\n      mload\n        /* \"Access_Matrix.sol\":955:977  matrix[_activities[k]] */\n      mload(0x40)\n      tag_58\n      swap2\n      swap1\n      jump(tag_59)\n    tag_58:\n      swap1\n      dup2\n      mstore\n      0x20\n      add\n      mload(0x40)\n      dup1\n      swap2\n      sub\n      swap1\n      keccak256\n        /* \"Access_Matrix.sol\":955:988  matrix[_activities[k]][_roles[k]] */\n      0x00\n        /* \"Access_Matrix.sol\":978:984  _roles */\n      dup7\n        /* \"Access_Matrix.sol\":985:986  k */\n      dup5\n        /* \"Access_Matrix.sol\":978:987  _roles[k] */\n      dup2\n      mload\n      dup2\n      lt\n      tag_60\n      jumpi\n      invalid\n    tag_60:\n      0x20\n      mul\n      0x20\n      add\n      add\n      mload\n        /* \"Access_Matrix.sol\":955:988  matrix[_activities[k]][_roles[k]] */\n      0xffffffffffffffffffffffffffffffffffffffff\n      and\n      0xffffffffffffffffffffffffffffffffffffffff\n      and\n      dup2\n      mstore\n      0x20\n      add\n      swap1\n      dup2\n      mstore\n      0x20\n      add\n      0x00\n      keccak256\n      0x00\n        /* \"Access_Matrix.sol\":955:999  matrix[_activities[k]][_roles[k]] = _vals[k] */\n      0x0100\n      exp\n      dup2\n      sload\n      dup2\n      0xff\n      mul\n      not\n      and\n      swap1\n      dup4\n      0xff\n      and\n      mul\n      or\n      swap1\n      sstore\n      pop\n        /* \"Access_Matrix.sol\":940:943  k++ */\n      dup1\n      dup1\n      0x01\n      add\n      swap2\n      pop\n      pop\n        /* \"Access_Matrix.sol\":906:1009  for(uint k = 0; k < nbOfElements; k++) {... */\n      jump(tag_53)\n    tag_54:\n      pop\n        /* \"Access_Matrix.sol\":766:1015  function updateMultipleMatrix(string[] memory _activities, address[] memory _roles, uint8[] memory _vals, uint nbOfElements) public {... */\n      pop\n      pop\n      pop\n      pop\n      jump\t// out\n        /* \"Access_Matrix.sol\":1987:2180  function deleteVariable(string memory _activity) public {... */\n    tag_39:\n        /* \"Access_Matrix.sol\":2053:2068  bool has_access */\n      0x00\n        /* \"Access_Matrix.sol\":2110:2111  1 */\n      0x01\n        /* \"Access_Matrix.sol\":2105:2106  1 */\n      dup1\n        /* \"Access_Matrix.sol\":2072:2078  matrix */\n      0x00\n        /* \"Access_Matrix.sol\":2079:2088  _activity */\n      dup5\n        /* \"Access_Matrix.sol\":2072:2089  matrix[_activity] */\n      mload(0x40)\n      tag_62\n      swap2\n      swap1\n      jump(tag_45)\n    tag_62:\n      swap1\n      dup2\n      mstore\n      0x20\n      add\n      mload(0x40)\n      dup1\n      swap2\n      sub\n      swap1\n      keccak256\n        /* \"Access_Matrix.sol\":2072:2101  matrix[_activity][msg.sender] */\n      0x00\n        /* \"Access_Matrix.sol\":2090:2100  msg.sender */\n      caller\n        /* \"Access_Matrix.sol\":2072:2101  matrix[_activity][msg.sender] */\n      0xffffffffffffffffffffffffffffffffffffffff\n      and\n      0xffffffffffffffffffffffffffffffffffffffff\n      and\n      dup2\n      mstore\n      0x20\n      add\n      swap1\n      dup2\n      mstore\n      0x20\n      add\n      0x00\n      keccak256\n      0x00\n      swap1\n      sload\n      swap1\n      0x0100\n      exp\n      swap1\n      div\n      0xff\n      and\n        /* \"Access_Matrix.sol\":2071:2106  (matrix[_activity][msg.sender]) & 1 */\n      and\n        /* \"Access_Matrix.sol\":2071:2111  (matrix[_activity][msg.sender]) & 1 == 1 */\n      0xff\n      and\n      eq\n        /* \"Access_Matrix.sol\":2053:2111  bool has_access = (matrix[_activity][msg.sender]) & 1 == 1 */\n      swap1\n      pop\n        /* \"Access_Matrix.sol\":2128:2138  has_access */\n      dup1\n        /* \"Access_Matrix.sol\":2121:2139  assert(has_access) */\n      tag_63\n      jumpi\n      invalid\n    tag_63:\n        /* \"Access_Matrix.sol\":2162:2172  msg.sender */\n      caller\n        /* \"Access_Matrix.sol\":2149:2173  selfdestruct(msg.sender) */\n      0xffffffffffffffffffffffffffffffffffffffff\n      and\n      selfdestruct\n        /* \"Access_Matrix.sol\":94:2182  contract Access_matrix {... */\n    tag_42:\n      dup3\n      dup1\n      sload\n      0x01\n      dup2\n      0x01\n      and\n      iszero\n      0x0100\n      mul\n      sub\n      and\n      0x02\n      swap1\n      div\n      swap1\n      0x00\n      mstore\n      keccak256(0x00, 0x20)\n      swap1\n      0x1f\n      add\n      0x20\n      swap1\n      div\n      dup2\n      add\n      swap3\n      dup3\n      0x1f\n      lt\n      tag_65\n      jumpi\n      dup1\n      mload\n      not(0xff)\n      and\n      dup4\n      dup1\n      add\n      or\n      dup6\n      sstore\n      jump(tag_64)\n    tag_65:\n      dup3\n      dup1\n      add\n      0x01\n      add\n      dup6\n      sstore\n      dup3\n      iszero\n      tag_64\n      jumpi\n      swap2\n      dup3\n      add\n    tag_66:\n      dup3\n      dup2\n      gt\n      iszero\n      tag_67\n      jumpi\n      dup3\n      mload\n      dup3\n      sstore\n      swap2\n      0x20\n      add\n      swap2\n      swap1\n      0x01\n      add\n      swap1\n      jump(tag_66)\n    tag_67:\n    tag_64:\n      pop\n      swap1\n      pop\n      tag_68\n      swap2\n      swap1\n      tag_69\n      jump\t// in\n    tag_68:\n      pop\n      swap1\n      jump\t// out\n    tag_69:\n      tag_70\n      swap2\n      swap1\n    tag_71:\n      dup1\n      dup3\n      gt\n      iszero\n      tag_72\n      jumpi\n      0x00\n      dup2\n      0x00\n      swap1\n      sstore\n      pop\n      0x01\n      add\n      jump(tag_71)\n    tag_72:\n      pop\n      swap1\n      jump\n    tag_70:\n      swap1\n      jump\t// out\n        /* \"--CODEGEN--\":5:135   */\n    tag_74:\n      0x00\n        /* \"--CODEGEN--\":85:91   */\n      dup2\n        /* \"--CODEGEN--\":72:92   */\n      calldataload\n        /* \"--CODEGEN--\":63:92   */\n      swap1\n      pop\n        /* \"--CODEGEN--\":97:130   */\n      tag_75\n        /* \"--CODEGEN--\":124:129   */\n      dup2\n        /* \"--CODEGEN--\":97:130   */\n      jump(tag_76)\n    tag_75:\n        /* \"--CODEGEN--\":57:135   */\n      swap3\n      swap2\n      pop\n      pop\n      jump\n        /* \"--CODEGEN--\":160:867   */\n    tag_77:\n      0x00\n        /* \"--CODEGEN--\":277:280   */\n      dup3\n        /* \"--CODEGEN--\":270:274   */\n      0x1f\n        /* \"--CODEGEN--\":262:268   */\n      dup4\n        /* \"--CODEGEN--\":258:275   */\n      add\n        /* \"--CODEGEN--\":254:281   */\n      slt\n        /* \"--CODEGEN--\":244:246   */\n      tag_78\n      jumpi\n        /* \"--CODEGEN--\":295:296   */\n      0x00\n        /* \"--CODEGEN--\":292:293   */\n      dup1\n        /* \"--CODEGEN--\":285:297   */\n      revert\n        /* \"--CODEGEN--\":244:246   */\n    tag_78:\n        /* \"--CODEGEN--\":332:338   */\n      dup2\n        /* \"--CODEGEN--\":319:339   */\n      calldataload\n        /* \"--CODEGEN--\":354:434   */\n      tag_79\n        /* \"--CODEGEN--\":369:433   */\n      tag_80\n        /* \"--CODEGEN--\":426:432   */\n      dup3\n        /* \"--CODEGEN--\":369:433   */\n      jump(tag_81)\n    tag_80:\n        /* \"--CODEGEN--\":354:434   */\n      jump(tag_82)\n    tag_79:\n        /* \"--CODEGEN--\":345:434   */\n      swap2\n      pop\n        /* \"--CODEGEN--\":451:456   */\n      dup2\n        /* \"--CODEGEN--\":476:482   */\n      dup2\n        /* \"--CODEGEN--\":469:474   */\n      dup4\n        /* \"--CODEGEN--\":462:483   */\n      mstore\n        /* \"--CODEGEN--\":506:510   */\n      0x20\n        /* \"--CODEGEN--\":498:504   */\n      dup5\n        /* \"--CODEGEN--\":494:511   */\n      add\n        /* \"--CODEGEN--\":484:511   */\n      swap4\n      pop\n        /* \"--CODEGEN--\":528:532   */\n      0x20\n        /* \"--CODEGEN--\":523:526   */\n      dup2\n        /* \"--CODEGEN--\":519:533   */\n      add\n        /* \"--CODEGEN--\":512:533   */\n      swap1\n      pop\n        /* \"--CODEGEN--\":581:587   */\n      dup4\n        /* \"--CODEGEN--\":628:631   */\n      dup6\n        /* \"--CODEGEN--\":620:624   */\n      0x20\n        /* \"--CODEGEN--\":612:618   */\n      dup5\n        /* \"--CODEGEN--\":608:625   */\n      mul\n        /* \"--CODEGEN--\":603:606   */\n      dup3\n        /* \"--CODEGEN--\":599:626   */\n      add\n        /* \"--CODEGEN--\":596:632   */\n      gt\n        /* \"--CODEGEN--\":593:595   */\n      iszero\n      tag_83\n      jumpi\n        /* \"--CODEGEN--\":645:646   */\n      0x00\n        /* \"--CODEGEN--\":642:643   */\n      dup1\n        /* \"--CODEGEN--\":635:647   */\n      revert\n        /* \"--CODEGEN--\":593:595   */\n    tag_83:\n        /* \"--CODEGEN--\":670:671   */\n      0x00\n        /* \"--CODEGEN--\":655:861   */\n    tag_84:\n        /* \"--CODEGEN--\":680:686   */\n      dup4\n        /* \"--CODEGEN--\":677:678   */\n      dup2\n        /* \"--CODEGEN--\":674:687   */\n      lt\n        /* \"--CODEGEN--\":655:861   */\n      iszero\n      tag_86\n      jumpi\n        /* \"--CODEGEN--\":738:741   */\n      dup2\n        /* \"--CODEGEN--\":760:797   */\n      tag_87\n        /* \"--CODEGEN--\":793:796   */\n      dup9\n        /* \"--CODEGEN--\":781:791   */\n      dup3\n        /* \"--CODEGEN--\":760:797   */\n      jump(tag_74)\n    tag_87:\n        /* \"--CODEGEN--\":755:758   */\n      dup5\n        /* \"--CODEGEN--\":748:798   */\n      mstore\n        /* \"--CODEGEN--\":821:825   */\n      0x20\n        /* \"--CODEGEN--\":816:819   */\n      dup5\n        /* \"--CODEGEN--\":812:826   */\n      add\n        /* \"--CODEGEN--\":805:826   */\n      swap4\n      pop\n        /* \"--CODEGEN--\":849:853   */\n      0x20\n        /* \"--CODEGEN--\":844:847   */\n      dup4\n        /* \"--CODEGEN--\":840:854   */\n      add\n        /* \"--CODEGEN--\":833:854   */\n      swap3\n      pop\n        /* \"--CODEGEN--\":712:861   */\n      pop\n        /* \"--CODEGEN--\":702:703   */\n      0x01\n        /* \"--CODEGEN--\":699:700   */\n      dup2\n        /* \"--CODEGEN--\":695:704   */\n      add\n        /* \"--CODEGEN--\":690:704   */\n      swap1\n      pop\n        /* \"--CODEGEN--\":655:861   */\n      jump(tag_84)\n    tag_86:\n        /* \"--CODEGEN--\":659:673   */\n      pop\n        /* \"--CODEGEN--\":237:867   */\n      pop\n      pop\n      pop\n      swap3\n      swap2\n      pop\n      pop\n      jump\n        /* \"--CODEGEN--\":892:1588   */\n    tag_88:\n      0x00\n        /* \"--CODEGEN--\":1015:1018   */\n      dup3\n        /* \"--CODEGEN--\":1008:1012   */\n      0x1f\n        /* \"--CODEGEN--\":1000:1006   */\n      dup4\n        /* \"--CODEGEN--\":996:1013   */\n      add\n        /* \"--CODEGEN--\":992:1019   */\n      slt\n        /* \"--CODEGEN--\":982:984   */\n      tag_89\n      jumpi\n        /* \"--CODEGEN--\":1033:1034   */\n      0x00\n        /* \"--CODEGEN--\":1030:1031   */\n      dup1\n        /* \"--CODEGEN--\":1023:1035   */\n      revert\n        /* \"--CODEGEN--\":982:984   */\n    tag_89:\n        /* \"--CODEGEN--\":1070:1076   */\n      dup2\n        /* \"--CODEGEN--\":1057:1077   */\n      calldataload\n        /* \"--CODEGEN--\":1092:1178   */\n      tag_90\n        /* \"--CODEGEN--\":1107:1177   */\n      tag_91\n        /* \"--CODEGEN--\":1170:1176   */\n      dup3\n        /* \"--CODEGEN--\":1107:1177   */\n      jump(tag_92)\n    tag_91:\n        /* \"--CODEGEN--\":1092:1178   */\n      jump(tag_82)\n    tag_90:\n        /* \"--CODEGEN--\":1083:1178   */\n      swap2\n      pop\n        /* \"--CODEGEN--\":1195:1200   */\n      dup2\n        /* \"--CODEGEN--\":1220:1226   */\n      dup2\n        /* \"--CODEGEN--\":1213:1218   */\n      dup4\n        /* \"--CODEGEN--\":1206:1227   */\n      mstore\n        /* \"--CODEGEN--\":1250:1254   */\n      0x20\n        /* \"--CODEGEN--\":1242:1248   */\n      dup5\n        /* \"--CODEGEN--\":1238:1255   */\n      add\n        /* \"--CODEGEN--\":1228:1255   */\n      swap4\n      pop\n        /* \"--CODEGEN--\":1272:1276   */\n      0x20\n        /* \"--CODEGEN--\":1267:1270   */\n      dup2\n        /* \"--CODEGEN--\":1263:1277   */\n      add\n        /* \"--CODEGEN--\":1256:1277   */\n      swap1\n      pop\n        /* \"--CODEGEN--\":1325:1331   */\n      dup4\n        /* \"--CODEGEN--\":1358:1359   */\n      0x00\n        /* \"--CODEGEN--\":1343:1582   */\n    tag_93:\n        /* \"--CODEGEN--\":1368:1374   */\n      dup4\n        /* \"--CODEGEN--\":1365:1366   */\n      dup2\n        /* \"--CODEGEN--\":1362:1375   */\n      lt\n        /* \"--CODEGEN--\":1343:1582   */\n      iszero\n      tag_95\n      jumpi\n        /* \"--CODEGEN--\":1451:1454   */\n      dup2\n        /* \"--CODEGEN--\":1438:1455   */\n      calldataload\n        /* \"--CODEGEN--\":1430:1436   */\n      dup7\n        /* \"--CODEGEN--\":1426:1456   */\n      add\n        /* \"--CODEGEN--\":1475:1518   */\n      tag_96\n        /* \"--CODEGEN--\":1514:1517   */\n      dup9\n        /* \"--CODEGEN--\":1502:1512   */\n      dup3\n        /* \"--CODEGEN--\":1475:1518   */\n      jump(tag_97)\n    tag_96:\n        /* \"--CODEGEN--\":1470:1473   */\n      dup5\n        /* \"--CODEGEN--\":1463:1519   */\n      mstore\n        /* \"--CODEGEN--\":1542:1546   */\n      0x20\n        /* \"--CODEGEN--\":1537:1540   */\n      dup5\n        /* \"--CODEGEN--\":1533:1547   */\n      add\n        /* \"--CODEGEN--\":1526:1547   */\n      swap4\n      pop\n        /* \"--CODEGEN--\":1570:1574   */\n      0x20\n        /* \"--CODEGEN--\":1565:1568   */\n      dup4\n        /* \"--CODEGEN--\":1561:1575   */\n      add\n        /* \"--CODEGEN--\":1554:1575   */\n      swap3\n      pop\n        /* \"--CODEGEN--\":1400:1582   */\n      pop\n        /* \"--CODEGEN--\":1390:1391   */\n      0x01\n        /* \"--CODEGEN--\":1387:1388   */\n      dup2\n        /* \"--CODEGEN--\":1383:1392   */\n      add\n        /* \"--CODEGEN--\":1378:1392   */\n      swap1\n      pop\n        /* \"--CODEGEN--\":1343:1582   */\n      jump(tag_93)\n    tag_95:\n        /* \"--CODEGEN--\":1347:1361   */\n      pop\n        /* \"--CODEGEN--\":975:1588   */\n      pop\n      pop\n      pop\n      swap3\n      swap2\n      pop\n      pop\n      jump\n        /* \"--CODEGEN--\":1612:2313   */\n    tag_98:\n      0x00\n        /* \"--CODEGEN--\":1727:1730   */\n      dup3\n        /* \"--CODEGEN--\":1720:1724   */\n      0x1f\n        /* \"--CODEGEN--\":1712:1718   */\n      dup4\n        /* \"--CODEGEN--\":1708:1725   */\n      add\n        /* \"--CODEGEN--\":1704:1731   */\n      slt\n        /* \"--CODEGEN--\":1694:1696   */\n      tag_99\n      jumpi\n        /* \"--CODEGEN--\":1745:1746   */\n      0x00\n        /* \"--CODEGEN--\":1742:1743   */\n      dup1\n        /* \"--CODEGEN--\":1735:1747   */\n      revert\n        /* \"--CODEGEN--\":1694:1696   */\n    tag_99:\n        /* \"--CODEGEN--\":1782:1788   */\n      dup2\n        /* \"--CODEGEN--\":1769:1789   */\n      calldataload\n        /* \"--CODEGEN--\":1804:1882   */\n      tag_100\n        /* \"--CODEGEN--\":1819:1881   */\n      tag_101\n        /* \"--CODEGEN--\":1874:1880   */\n      dup3\n        /* \"--CODEGEN--\":1819:1881   */\n      jump(tag_102)\n    tag_101:\n        /* \"--CODEGEN--\":1804:1882   */\n      jump(tag_82)\n    tag_100:\n        /* \"--CODEGEN--\":1795:1882   */\n      swap2\n      pop\n        /* \"--CODEGEN--\":1899:1904   */\n      dup2\n        /* \"--CODEGEN--\":1924:1930   */\n      dup2\n        /* \"--CODEGEN--\":1917:1922   */\n      dup4\n        /* \"--CODEGEN--\":1910:1931   */\n      mstore\n        /* \"--CODEGEN--\":1954:1958   */\n      0x20\n        /* \"--CODEGEN--\":1946:1952   */\n      dup5\n        /* \"--CODEGEN--\":1942:1959   */\n      add\n        /* \"--CODEGEN--\":1932:1959   */\n      swap4\n      pop\n        /* \"--CODEGEN--\":1976:1980   */\n      0x20\n        /* \"--CODEGEN--\":1971:1974   */\n      dup2\n        /* \"--CODEGEN--\":1967:1981   */\n      add\n        /* \"--CODEGEN--\":1960:1981   */\n      swap1\n      pop\n        /* \"--CODEGEN--\":2029:2035   */\n      dup4\n        /* \"--CODEGEN--\":2076:2079   */\n      dup6\n        /* \"--CODEGEN--\":2068:2072   */\n      0x20\n        /* \"--CODEGEN--\":2060:2066   */\n      dup5\n        /* \"--CODEGEN--\":2056:2073   */\n      mul\n        /* \"--CODEGEN--\":2051:2054   */\n      dup3\n        /* \"--CODEGEN--\":2047:2074   */\n      add\n        /* \"--CODEGEN--\":2044:2080   */\n      gt\n        /* \"--CODEGEN--\":2041:2043   */\n      iszero\n      tag_103\n      jumpi\n        /* \"--CODEGEN--\":2093:2094   */\n      0x00\n        /* \"--CODEGEN--\":2090:2091   */\n      dup1\n        /* \"--CODEGEN--\":2083:2095   */\n      revert\n        /* \"--CODEGEN--\":2041:2043   */\n    tag_103:\n        /* \"--CODEGEN--\":2118:2119   */\n      0x00\n        /* \"--CODEGEN--\":2103:2307   */\n    tag_104:\n        /* \"--CODEGEN--\":2128:2134   */\n      dup4\n        /* \"--CODEGEN--\":2125:2126   */\n      dup2\n        /* \"--CODEGEN--\":2122:2135   */\n      lt\n        /* \"--CODEGEN--\":2103:2307   */\n      iszero\n      tag_106\n      jumpi\n        /* \"--CODEGEN--\":2186:2189   */\n      dup2\n        /* \"--CODEGEN--\":2208:2243   */\n      tag_107\n        /* \"--CODEGEN--\":2239:2242   */\n      dup9\n        /* \"--CODEGEN--\":2227:2237   */\n      dup3\n        /* \"--CODEGEN--\":2208:2243   */\n      jump(tag_108)\n    tag_107:\n        /* \"--CODEGEN--\":2203:2206   */\n      dup5\n        /* \"--CODEGEN--\":2196:2244   */\n      mstore\n        /* \"--CODEGEN--\":2267:2271   */\n      0x20\n        /* \"--CODEGEN--\":2262:2265   */\n      dup5\n        /* \"--CODEGEN--\":2258:2272   */\n      add\n        /* \"--CODEGEN--\":2251:2272   */\n      swap4\n      pop\n        /* \"--CODEGEN--\":2295:2299   */\n      0x20\n        /* \"--CODEGEN--\":2290:2293   */\n      dup4\n        /* \"--CODEGEN--\":2286:2300   */\n      add\n        /* \"--CODEGEN--\":2279:2300   */\n      swap3\n      pop\n        /* \"--CODEGEN--\":2160:2307   */\n      pop\n        /* \"--CODEGEN--\":2150:2151   */\n      0x01\n        /* \"--CODEGEN--\":2147:2148   */\n      dup2\n        /* \"--CODEGEN--\":2143:2152   */\n      add\n        /* \"--CODEGEN--\":2138:2152   */\n      swap1\n      pop\n        /* \"--CODEGEN--\":2103:2307   */\n      jump(tag_104)\n    tag_106:\n        /* \"--CODEGEN--\":2107:2121   */\n      pop\n        /* \"--CODEGEN--\":1687:2313   */\n      pop\n      pop\n      pop\n      swap3\n      swap2\n      pop\n      pop\n      jump\n        /* \"--CODEGEN--\":2322:2756   */\n    tag_97:\n      0x00\n        /* \"--CODEGEN--\":2420:2423   */\n      dup3\n        /* \"--CODEGEN--\":2413:2417   */\n      0x1f\n        /* \"--CODEGEN--\":2405:2411   */\n      dup4\n        /* \"--CODEGEN--\":2401:2418   */\n      add\n        /* \"--CODEGEN--\":2397:2424   */\n      slt\n        /* \"--CODEGEN--\":2387:2389   */\n      tag_109\n      jumpi\n        /* \"--CODEGEN--\":2438:2439   */\n      0x00\n        /* \"--CODEGEN--\":2435:2436   */\n      dup1\n        /* \"--CODEGEN--\":2428:2440   */\n      revert\n        /* \"--CODEGEN--\":2387:2389   */\n    tag_109:\n        /* \"--CODEGEN--\":2475:2481   */\n      dup2\n        /* \"--CODEGEN--\":2462:2482   */\n      calldataload\n        /* \"--CODEGEN--\":2497:2558   */\n      tag_110\n        /* \"--CODEGEN--\":2512:2557   */\n      tag_111\n        /* \"--CODEGEN--\":2550:2556   */\n      dup3\n        /* \"--CODEGEN--\":2512:2557   */\n      jump(tag_112)\n    tag_111:\n        /* \"--CODEGEN--\":2497:2558   */\n      jump(tag_82)\n    tag_110:\n        /* \"--CODEGEN--\":2488:2558   */\n      swap2\n      pop\n        /* \"--CODEGEN--\":2578:2584   */\n      dup1\n        /* \"--CODEGEN--\":2571:2576   */\n      dup3\n        /* \"--CODEGEN--\":2564:2585   */\n      mstore\n        /* \"--CODEGEN--\":2614:2618   */\n      0x20\n        /* \"--CODEGEN--\":2606:2612   */\n      dup4\n        /* \"--CODEGEN--\":2602:2619   */\n      add\n        /* \"--CODEGEN--\":2647:2651   */\n      0x20\n        /* \"--CODEGEN--\":2640:2645   */\n      dup4\n        /* \"--CODEGEN--\":2636:2652   */\n      add\n        /* \"--CODEGEN--\":2682:2685   */\n      dup6\n        /* \"--CODEGEN--\":2673:2679   */\n      dup4\n        /* \"--CODEGEN--\":2668:2671   */\n      dup4\n        /* \"--CODEGEN--\":2664:2680   */\n      add\n        /* \"--CODEGEN--\":2661:2686   */\n      gt\n        /* \"--CODEGEN--\":2658:2660   */\n      iszero\n      tag_113\n      jumpi\n        /* \"--CODEGEN--\":2699:2700   */\n      0x00\n        /* \"--CODEGEN--\":2696:2697   */\n      dup1\n        /* \"--CODEGEN--\":2689:2701   */\n      revert\n        /* \"--CODEGEN--\":2658:2660   */\n    tag_113:\n        /* \"--CODEGEN--\":2709:2750   */\n      tag_114\n        /* \"--CODEGEN--\":2743:2749   */\n      dup4\n        /* \"--CODEGEN--\":2738:2741   */\n      dup3\n        /* \"--CODEGEN--\":2733:2736   */\n      dup5\n        /* \"--CODEGEN--\":2709:2750   */\n      jump(tag_115)\n    tag_114:\n        /* \"--CODEGEN--\":2380:2756   */\n      pop\n      pop\n      pop\n      swap3\n      swap2\n      pop\n      pop\n      jump\n        /* \"--CODEGEN--\":2765:3207   */\n    tag_116:\n      0x00\n        /* \"--CODEGEN--\":2867:2870   */\n      dup3\n        /* \"--CODEGEN--\":2860:2864   */\n      0x1f\n        /* \"--CODEGEN--\":2852:2858   */\n      dup4\n        /* \"--CODEGEN--\":2848:2865   */\n      add\n        /* \"--CODEGEN--\":2844:2871   */\n      slt\n        /* \"--CODEGEN--\":2834:2836   */\n      tag_117\n      jumpi\n        /* \"--CODEGEN--\":2885:2886   */\n      0x00\n        /* \"--CODEGEN--\":2882:2883   */\n      dup1\n        /* \"--CODEGEN--\":2875:2887   */\n      revert\n        /* \"--CODEGEN--\":2834:2836   */\n    tag_117:\n        /* \"--CODEGEN--\":2922:2928   */\n      dup2\n        /* \"--CODEGEN--\":2909:2929   */\n      calldataload\n        /* \"--CODEGEN--\":2944:3009   */\n      tag_118\n        /* \"--CODEGEN--\":2959:3008   */\n      tag_119\n        /* \"--CODEGEN--\":3001:3007   */\n      dup3\n        /* \"--CODEGEN--\":2959:3008   */\n      jump(tag_120)\n    tag_119:\n        /* \"--CODEGEN--\":2944:3009   */\n      jump(tag_82)\n    tag_118:\n        /* \"--CODEGEN--\":2935:3009   */\n      swap2\n      pop\n        /* \"--CODEGEN--\":3029:3035   */\n      dup1\n        /* \"--CODEGEN--\":3022:3027   */\n      dup3\n        /* \"--CODEGEN--\":3015:3036   */\n      mstore\n        /* \"--CODEGEN--\":3065:3069   */\n      0x20\n        /* \"--CODEGEN--\":3057:3063   */\n      dup4\n        /* \"--CODEGEN--\":3053:3070   */\n      add\n        /* \"--CODEGEN--\":3098:3102   */\n      0x20\n        /* \"--CODEGEN--\":3091:3096   */\n      dup4\n        /* \"--CODEGEN--\":3087:3103   */\n      add\n        /* \"--CODEGEN--\":3133:3136   */\n      dup6\n        /* \"--CODEGEN--\":3124:3130   */\n      dup4\n        /* \"--CODEGEN--\":3119:3122   */\n      dup4\n        /* \"--CODEGEN--\":3115:3131   */\n      add\n        /* \"--CODEGEN--\":3112:3137   */\n      gt\n        /* \"--CODEGEN--\":3109:3111   */\n      iszero\n      tag_121\n      jumpi\n        /* \"--CODEGEN--\":3150:3151   */\n      0x00\n        /* \"--CODEGEN--\":3147:3148   */\n      dup1\n        /* \"--CODEGEN--\":3140:3152   */\n      revert\n        /* \"--CODEGEN--\":3109:3111   */\n    tag_121:\n        /* \"--CODEGEN--\":3160:3201   */\n      tag_122\n        /* \"--CODEGEN--\":3194:3200   */\n      dup4\n        /* \"--CODEGEN--\":3189:3192   */\n      dup3\n        /* \"--CODEGEN--\":3184:3187   */\n      dup5\n        /* \"--CODEGEN--\":3160:3201   */\n      jump(tag_115)\n    tag_122:\n        /* \"--CODEGEN--\":2827:3207   */\n      pop\n      pop\n      pop\n      swap3\n      swap2\n      pop\n      pop\n      jump\n        /* \"--CODEGEN--\":3215:3345   */\n    tag_123:\n      0x00\n        /* \"--CODEGEN--\":3295:3301   */\n      dup2\n        /* \"--CODEGEN--\":3282:3302   */\n      calldataload\n        /* \"--CODEGEN--\":3273:3302   */\n      swap1\n      pop\n        /* \"--CODEGEN--\":3307:3340   */\n      tag_124\n        /* \"--CODEGEN--\":3334:3339   */\n      dup2\n        /* \"--CODEGEN--\":3307:3340   */\n      jump(tag_125)\n    tag_124:\n        /* \"--CODEGEN--\":3267:3345   */\n      swap3\n      swap2\n      pop\n      pop\n      jump\n        /* \"--CODEGEN--\":3352:3480   */\n    tag_126:\n      0x00\n        /* \"--CODEGEN--\":3431:3437   */\n      dup2\n        /* \"--CODEGEN--\":3418:3438   */\n      calldataload\n        /* \"--CODEGEN--\":3409:3438   */\n      swap1\n      pop\n        /* \"--CODEGEN--\":3443:3475   */\n      tag_127\n        /* \"--CODEGEN--\":3469:3474   */\n      dup2\n        /* \"--CODEGEN--\":3443:3475   */\n      jump(tag_128)\n    tag_127:\n        /* \"--CODEGEN--\":3403:3480   */\n      swap3\n      swap2\n      pop\n      pop\n      jump\n        /* \"--CODEGEN--\":3487:3613   */\n    tag_108:\n      0x00\n        /* \"--CODEGEN--\":3565:3571   */\n      dup2\n        /* \"--CODEGEN--\":3552:3572   */\n      calldataload\n        /* \"--CODEGEN--\":3543:3572   */\n      swap1\n      pop\n        /* \"--CODEGEN--\":3577:3608   */\n      tag_129\n        /* \"--CODEGEN--\":3602:3607   */\n      dup2\n        /* \"--CODEGEN--\":3577:3608   */\n      jump(tag_130)\n    tag_129:\n        /* \"--CODEGEN--\":3537:3613   */\n      swap3\n      swap2\n      pop\n      pop\n      jump\n        /* \"--CODEGEN--\":3620:4653   */\n    tag_35:\n      0x00\n      dup1\n      0x00\n      dup1\n        /* \"--CODEGEN--\":3854:3857   */\n      0x80\n        /* \"--CODEGEN--\":3842:3851   */\n      dup6\n        /* \"--CODEGEN--\":3833:3840   */\n      dup8\n        /* \"--CODEGEN--\":3829:3852   */\n      sub\n        /* \"--CODEGEN--\":3825:3858   */\n      slt\n        /* \"--CODEGEN--\":3822:3824   */\n      iszero\n      tag_131\n      jumpi\n        /* \"--CODEGEN--\":3871:3872   */\n      0x00\n        /* \"--CODEGEN--\":3868:3869   */\n      dup1\n        /* \"--CODEGEN--\":3861:3873   */\n      revert\n        /* \"--CODEGEN--\":3822:3824   */\n    tag_131:\n        /* \"--CODEGEN--\":3934:3935   */\n      0x00\n        /* \"--CODEGEN--\":3923:3932   */\n      dup6\n        /* \"--CODEGEN--\":3919:3936   */\n      add\n        /* \"--CODEGEN--\":3906:3937   */\n      calldataload\n        /* \"--CODEGEN--\":3957:3975   */\n      0xffffffffffffffff\n        /* \"--CODEGEN--\":3949:3955   */\n      dup2\n        /* \"--CODEGEN--\":3946:3976   */\n      gt\n        /* \"--CODEGEN--\":3943:3945   */\n      iszero\n      tag_132\n      jumpi\n        /* \"--CODEGEN--\":3989:3990   */\n      0x00\n        /* \"--CODEGEN--\":3986:3987   */\n      dup1\n        /* \"--CODEGEN--\":3979:3991   */\n      revert\n        /* \"--CODEGEN--\":3943:3945   */\n    tag_132:\n        /* \"--CODEGEN--\":4009:4093   */\n      tag_133\n        /* \"--CODEGEN--\":4085:4092   */\n      dup8\n        /* \"--CODEGEN--\":4076:4082   */\n      dup3\n        /* \"--CODEGEN--\":4065:4074   */\n      dup9\n        /* \"--CODEGEN--\":4061:4083   */\n      add\n        /* \"--CODEGEN--\":4009:4093   */\n      jump(tag_88)\n    tag_133:\n        /* \"--CODEGEN--\":3999:4093   */\n      swap5\n      pop\n        /* \"--CODEGEN--\":3885:4099   */\n      pop\n        /* \"--CODEGEN--\":4158:4160   */\n      0x20\n        /* \"--CODEGEN--\":4147:4156   */\n      dup6\n        /* \"--CODEGEN--\":4143:4161   */\n      add\n        /* \"--CODEGEN--\":4130:4162   */\n      calldataload\n        /* \"--CODEGEN--\":4182:4200   */\n      0xffffffffffffffff\n        /* \"--CODEGEN--\":4174:4180   */\n      dup2\n        /* \"--CODEGEN--\":4171:4201   */\n      gt\n        /* \"--CODEGEN--\":4168:4170   */\n      iszero\n      tag_134\n      jumpi\n        /* \"--CODEGEN--\":4214:4215   */\n      0x00\n        /* \"--CODEGEN--\":4211:4212   */\n      dup1\n        /* \"--CODEGEN--\":4204:4216   */\n      revert\n        /* \"--CODEGEN--\":4168:4170   */\n    tag_134:\n        /* \"--CODEGEN--\":4234:4312   */\n      tag_135\n        /* \"--CODEGEN--\":4304:4311   */\n      dup8\n        /* \"--CODEGEN--\":4295:4301   */\n      dup3\n        /* \"--CODEGEN--\":4284:4293   */\n      dup9\n        /* \"--CODEGEN--\":4280:4302   */\n      add\n        /* \"--CODEGEN--\":4234:4312   */\n      jump(tag_77)\n    tag_135:\n        /* \"--CODEGEN--\":4224:4312   */\n      swap4\n      pop\n        /* \"--CODEGEN--\":4109:4318   */\n      pop\n        /* \"--CODEGEN--\":4377:4379   */\n      0x40\n        /* \"--CODEGEN--\":4366:4375   */\n      dup6\n        /* \"--CODEGEN--\":4362:4380   */\n      add\n        /* \"--CODEGEN--\":4349:4381   */\n      calldataload\n        /* \"--CODEGEN--\":4401:4419   */\n      0xffffffffffffffff\n        /* \"--CODEGEN--\":4393:4399   */\n      dup2\n        /* \"--CODEGEN--\":4390:4420   */\n      gt\n        /* \"--CODEGEN--\":4387:4389   */\n      iszero\n      tag_136\n      jumpi\n        /* \"--CODEGEN--\":4433:4434   */\n      0x00\n        /* \"--CODEGEN--\":4430:4431   */\n      dup1\n        /* \"--CODEGEN--\":4423:4435   */\n      revert\n        /* \"--CODEGEN--\":4387:4389   */\n    tag_136:\n        /* \"--CODEGEN--\":4453:4529   */\n      tag_137\n        /* \"--CODEGEN--\":4521:4528   */\n      dup8\n        /* \"--CODEGEN--\":4512:4518   */\n      dup3\n        /* \"--CODEGEN--\":4501:4510   */\n      dup9\n        /* \"--CODEGEN--\":4497:4519   */\n      add\n        /* \"--CODEGEN--\":4453:4529   */\n      jump(tag_98)\n    tag_137:\n        /* \"--CODEGEN--\":4443:4529   */\n      swap3\n      pop\n        /* \"--CODEGEN--\":4328:4535   */\n      pop\n        /* \"--CODEGEN--\":4566:4568   */\n      0x60\n        /* \"--CODEGEN--\":4584:4637   */\n      tag_138\n        /* \"--CODEGEN--\":4629:4636   */\n      dup8\n        /* \"--CODEGEN--\":4620:4626   */\n      dup3\n        /* \"--CODEGEN--\":4609:4618   */\n      dup9\n        /* \"--CODEGEN--\":4605:4627   */\n      add\n        /* \"--CODEGEN--\":4584:4637   */\n      jump(tag_123)\n    tag_138:\n        /* \"--CODEGEN--\":4574:4637   */\n      swap2\n      pop\n        /* \"--CODEGEN--\":4545:4643   */\n      pop\n        /* \"--CODEGEN--\":3816:4653   */\n      swap3\n      swap6\n      swap2\n      swap5\n      pop\n      swap3\n      pop\n      jump\n        /* \"--CODEGEN--\":4660:5007   */\n    tag_13:\n      0x00\n        /* \"--CODEGEN--\":4774:4776   */\n      0x20\n        /* \"--CODEGEN--\":4762:4771   */\n      dup3\n        /* \"--CODEGEN--\":4753:4760   */\n      dup5\n        /* \"--CODEGEN--\":4749:4772   */\n      sub\n        /* \"--CODEGEN--\":4745:4777   */\n      slt\n        /* \"--CODEGEN--\":4742:4744   */\n      iszero\n      tag_139\n      jumpi\n        /* \"--CODEGEN--\":4790:4791   */\n      0x00\n        /* \"--CODEGEN--\":4787:4788   */\n      dup1\n        /* \"--CODEGEN--\":4780:4792   */\n      revert\n        /* \"--CODEGEN--\":4742:4744   */\n    tag_139:\n        /* \"--CODEGEN--\":4853:4854   */\n      0x00\n        /* \"--CODEGEN--\":4842:4851   */\n      dup3\n        /* \"--CODEGEN--\":4838:4855   */\n      add\n        /* \"--CODEGEN--\":4825:4856   */\n      calldataload\n        /* \"--CODEGEN--\":4876:4894   */\n      0xffffffffffffffff\n        /* \"--CODEGEN--\":4868:4874   */\n      dup2\n        /* \"--CODEGEN--\":4865:4895   */\n      gt\n        /* \"--CODEGEN--\":4862:4864   */\n      iszero\n      tag_140\n      jumpi\n        /* \"--CODEGEN--\":4908:4909   */\n      0x00\n        /* \"--CODEGEN--\":4905:4906   */\n      dup1\n        /* \"--CODEGEN--\":4898:4910   */\n      revert\n        /* \"--CODEGEN--\":4862:4864   */\n    tag_140:\n        /* \"--CODEGEN--\":4928:4991   */\n      tag_141\n        /* \"--CODEGEN--\":4983:4990   */\n      dup5\n        /* \"--CODEGEN--\":4974:4980   */\n      dup3\n        /* \"--CODEGEN--\":4963:4972   */\n      dup6\n        /* \"--CODEGEN--\":4959:4981   */\n      add\n        /* \"--CODEGEN--\":4928:4991   */\n      jump(tag_116)\n    tag_141:\n        /* \"--CODEGEN--\":4918:4991   */\n      swap2\n      pop\n        /* \"--CODEGEN--\":4804:4997   */\n      pop\n        /* \"--CODEGEN--\":4736:5007   */\n      swap3\n      swap2\n      pop\n      pop\n      jump\n        /* \"--CODEGEN--\":5014:5486   */\n    tag_29:\n      0x00\n      dup1\n        /* \"--CODEGEN--\":5145:5147   */\n      0x40\n        /* \"--CODEGEN--\":5133:5142   */\n      dup4\n        /* \"--CODEGEN--\":5124:5131   */\n      dup6\n        /* \"--CODEGEN--\":5120:5143   */\n      sub\n        /* \"--CODEGEN--\":5116:5148   */\n      slt\n        /* \"--CODEGEN--\":5113:5115   */\n      iszero\n      tag_142\n      jumpi\n        /* \"--CODEGEN--\":5161:5162   */\n      0x00\n        /* \"--CODEGEN--\":5158:5159   */\n      dup1\n        /* \"--CODEGEN--\":5151:5163   */\n      revert\n        /* \"--CODEGEN--\":5113:5115   */\n    tag_142:\n        /* \"--CODEGEN--\":5224:5225   */\n      0x00\n        /* \"--CODEGEN--\":5213:5222   */\n      dup4\n        /* \"--CODEGEN--\":5209:5226   */\n      add\n        /* \"--CODEGEN--\":5196:5227   */\n      calldataload\n        /* \"--CODEGEN--\":5247:5265   */\n      0xffffffffffffffff\n        /* \"--CODEGEN--\":5239:5245   */\n      dup2\n        /* \"--CODEGEN--\":5236:5266   */\n      gt\n        /* \"--CODEGEN--\":5233:5235   */\n      iszero\n      tag_143\n      jumpi\n        /* \"--CODEGEN--\":5279:5280   */\n      0x00\n        /* \"--CODEGEN--\":5276:5277   */\n      dup1\n        /* \"--CODEGEN--\":5269:5281   */\n      revert\n        /* \"--CODEGEN--\":5233:5235   */\n    tag_143:\n        /* \"--CODEGEN--\":5299:5362   */\n      tag_144\n        /* \"--CODEGEN--\":5354:5361   */\n      dup6\n        /* \"--CODEGEN--\":5345:5351   */\n      dup3\n        /* \"--CODEGEN--\":5334:5343   */\n      dup7\n        /* \"--CODEGEN--\":5330:5352   */\n      add\n        /* \"--CODEGEN--\":5299:5362   */\n      jump(tag_116)\n    tag_144:\n        /* \"--CODEGEN--\":5289:5362   */\n      swap3\n      pop\n        /* \"--CODEGEN--\":5175:5368   */\n      pop\n        /* \"--CODEGEN--\":5399:5401   */\n      0x20\n        /* \"--CODEGEN--\":5417:5470   */\n      tag_145\n        /* \"--CODEGEN--\":5462:5469   */\n      dup6\n        /* \"--CODEGEN--\":5453:5459   */\n      dup3\n        /* \"--CODEGEN--\":5442:5451   */\n      dup7\n        /* \"--CODEGEN--\":5438:5460   */\n      add\n        /* \"--CODEGEN--\":5417:5470   */\n      jump(tag_74)\n    tag_145:\n        /* \"--CODEGEN--\":5407:5470   */\n      swap2\n      pop\n        /* \"--CODEGEN--\":5378:5476   */\n      pop\n        /* \"--CODEGEN--\":5107:5486   */\n      swap3\n      pop\n      swap3\n      swap1\n      pop\n      jump\n        /* \"--CODEGEN--\":5493:6086   */\n    tag_25:\n      0x00\n      dup1\n      0x00\n        /* \"--CODEGEN--\":5639:5641   */\n      0x60\n        /* \"--CODEGEN--\":5627:5636   */\n      dup5\n        /* \"--CODEGEN--\":5618:5625   */\n      dup7\n        /* \"--CODEGEN--\":5614:5637   */\n      sub\n        /* \"--CODEGEN--\":5610:5642   */\n      slt\n        /* \"--CODEGEN--\":5607:5609   */\n      iszero\n      tag_146\n      jumpi\n        /* \"--CODEGEN--\":5655:5656   */\n      0x00\n        /* \"--CODEGEN--\":5652:5653   */\n      dup1\n        /* \"--CODEGEN--\":5645:5657   */\n      revert\n        /* \"--CODEGEN--\":5607:5609   */\n    tag_146:\n        /* \"--CODEGEN--\":5718:5719   */\n      0x00\n        /* \"--CODEGEN--\":5707:5716   */\n      dup5\n        /* \"--CODEGEN--\":5703:5720   */\n      add\n        /* \"--CODEGEN--\":5690:5721   */\n      calldataload\n        /* \"--CODEGEN--\":5741:5759   */\n      0xffffffffffffffff\n        /* \"--CODEGEN--\":5733:5739   */\n      dup2\n        /* \"--CODEGEN--\":5730:5760   */\n      gt\n        /* \"--CODEGEN--\":5727:5729   */\n      iszero\n      tag_147\n      jumpi\n        /* \"--CODEGEN--\":5773:5774   */\n      0x00\n        /* \"--CODEGEN--\":5770:5771   */\n      dup1\n        /* \"--CODEGEN--\":5763:5775   */\n      revert\n        /* \"--CODEGEN--\":5727:5729   */\n    tag_147:\n        /* \"--CODEGEN--\":5793:5856   */\n      tag_148\n        /* \"--CODEGEN--\":5848:5855   */\n      dup7\n        /* \"--CODEGEN--\":5839:5845   */\n      dup3\n        /* \"--CODEGEN--\":5828:5837   */\n      dup8\n        /* \"--CODEGEN--\":5824:5846   */\n      add\n        /* \"--CODEGEN--\":5793:5856   */\n      jump(tag_116)\n    tag_148:\n        /* \"--CODEGEN--\":5783:5856   */\n      swap4\n      pop\n        /* \"--CODEGEN--\":5669:5862   */\n      pop\n        /* \"--CODEGEN--\":5893:5895   */\n      0x20\n        /* \"--CODEGEN--\":5911:5964   */\n      tag_149\n        /* \"--CODEGEN--\":5956:5963   */\n      dup7\n        /* \"--CODEGEN--\":5947:5953   */\n      dup3\n        /* \"--CODEGEN--\":5936:5945   */\n      dup8\n        /* \"--CODEGEN--\":5932:5954   */\n      add\n        /* \"--CODEGEN--\":5911:5964   */\n      jump(tag_74)\n    tag_149:\n        /* \"--CODEGEN--\":5901:5964   */\n      swap3\n      pop\n        /* \"--CODEGEN--\":5872:5970   */\n      pop\n        /* \"--CODEGEN--\":6001:6003   */\n      0x40\n        /* \"--CODEGEN--\":6019:6070   */\n      tag_150\n        /* \"--CODEGEN--\":6062:6069   */\n      dup7\n        /* \"--CODEGEN--\":6053:6059   */\n      dup3\n        /* \"--CODEGEN--\":6042:6051   */\n      dup8\n        /* \"--CODEGEN--\":6038:6060   */\n      add\n        /* \"--CODEGEN--\":6019:6070   */\n      jump(tag_108)\n    tag_150:\n        /* \"--CODEGEN--\":6009:6070   */\n      swap2\n      pop\n        /* \"--CODEGEN--\":5980:6076   */\n      pop\n        /* \"--CODEGEN--\":5601:6086   */\n      swap3\n      pop\n      swap3\n      pop\n      swap3\n      jump\n        /* \"--CODEGEN--\":6093:6563   */\n    tag_17:\n      0x00\n      dup1\n        /* \"--CODEGEN--\":6223:6225   */\n      0x40\n        /* \"--CODEGEN--\":6211:6220   */\n      dup4\n        /* \"--CODEGEN--\":6202:6209   */\n      dup6\n        /* \"--CODEGEN--\":6198:6221   */\n      sub\n        /* \"--CODEGEN--\":6194:6226   */\n      slt\n        /* \"--CODEGEN--\":6191:6193   */\n      iszero\n      tag_151\n      jumpi\n        /* \"--CODEGEN--\":6239:6240   */\n      0x00\n        /* \"--CODEGEN--\":6236:6237   */\n      dup1\n        /* \"--CODEGEN--\":6229:6241   */\n      revert\n        /* \"--CODEGEN--\":6191:6193   */\n    tag_151:\n        /* \"--CODEGEN--\":6274:6275   */\n      0x00\n        /* \"--CODEGEN--\":6291:6343   */\n      tag_152\n        /* \"--CODEGEN--\":6335:6342   */\n      dup6\n        /* \"--CODEGEN--\":6326:6332   */\n      dup3\n        /* \"--CODEGEN--\":6315:6324   */\n      dup7\n        /* \"--CODEGEN--\":6311:6333   */\n      add\n        /* \"--CODEGEN--\":6291:6343   */\n      jump(tag_126)\n    tag_152:\n        /* \"--CODEGEN--\":6281:6343   */\n      swap3\n      pop\n        /* \"--CODEGEN--\":6253:6349   */\n      pop\n        /* \"--CODEGEN--\":6408:6410   */\n      0x20\n        /* \"--CODEGEN--\":6397:6406   */\n      dup4\n        /* \"--CODEGEN--\":6393:6411   */\n      add\n        /* \"--CODEGEN--\":6380:6412   */\n      calldataload\n        /* \"--CODEGEN--\":6432:6450   */\n      0xffffffffffffffff\n        /* \"--CODEGEN--\":6424:6430   */\n      dup2\n        /* \"--CODEGEN--\":6421:6451   */\n      gt\n        /* \"--CODEGEN--\":6418:6420   */\n      iszero\n      tag_153\n      jumpi\n        /* \"--CODEGEN--\":6464:6465   */\n      0x00\n        /* \"--CODEGEN--\":6461:6462   */\n      dup1\n        /* \"--CODEGEN--\":6454:6466   */\n      revert\n        /* \"--CODEGEN--\":6418:6420   */\n    tag_153:\n        /* \"--CODEGEN--\":6484:6547   */\n      tag_154\n        /* \"--CODEGEN--\":6539:6546   */\n      dup6\n        /* \"--CODEGEN--\":6530:6536   */\n      dup3\n        /* \"--CODEGEN--\":6519:6528   */\n      dup7\n        /* \"--CODEGEN--\":6515:6537   */\n      add\n        /* \"--CODEGEN--\":6484:6547   */\n      jump(tag_116)\n    tag_154:\n        /* \"--CODEGEN--\":6474:6547   */\n      swap2\n      pop\n        /* \"--CODEGEN--\":6359:6553   */\n      pop\n        /* \"--CODEGEN--\":6185:6563   */\n      swap3\n      pop\n      swap3\n      swap1\n      pop\n      jump\n        /* \"--CODEGEN--\":6570:6930   */\n    tag_155:\n      0x00\n        /* \"--CODEGEN--\":6700:6739   */\n      tag_156\n        /* \"--CODEGEN--\":6733:6738   */\n      dup3\n        /* \"--CODEGEN--\":6700:6739   */\n      jump(tag_157)\n    tag_156:\n        /* \"--CODEGEN--\":6751:6840   */\n      tag_158\n        /* \"--CODEGEN--\":6833:6839   */\n      dup2\n        /* \"--CODEGEN--\":6828:6831   */\n      dup6\n        /* \"--CODEGEN--\":6751:6840   */\n      jump(tag_159)\n    tag_158:\n        /* \"--CODEGEN--\":6744:6840   */\n      swap4\n      pop\n        /* \"--CODEGEN--\":6845:6897   */\n      tag_160\n        /* \"--CODEGEN--\":6890:6896   */\n      dup2\n        /* \"--CODEGEN--\":6885:6888   */\n      dup6\n        /* \"--CODEGEN--\":6878:6882   */\n      0x20\n        /* \"--CODEGEN--\":6871:6876   */\n      dup7\n        /* \"--CODEGEN--\":6867:6883   */\n      add\n        /* \"--CODEGEN--\":6845:6897   */\n      jump(tag_161)\n    tag_160:\n        /* \"--CODEGEN--\":6918:6924   */\n      dup1\n        /* \"--CODEGEN--\":6913:6916   */\n      dup5\n        /* \"--CODEGEN--\":6909:6925   */\n      add\n        /* \"--CODEGEN--\":6902:6925   */\n      swap2\n      pop\n        /* \"--CODEGEN--\":6680:6930   */\n      pop\n      swap3\n      swap2\n      pop\n      pop\n      jump\n        /* \"--CODEGEN--\":6937:7289   */\n    tag_162:\n      0x00\n        /* \"--CODEGEN--\":7063:7098   */\n      tag_163\n        /* \"--CODEGEN--\":7092:7097   */\n      dup3\n        /* \"--CODEGEN--\":7063:7098   */\n      jump(tag_164)\n    tag_163:\n        /* \"--CODEGEN--\":7110:7199   */\n      tag_165\n        /* \"--CODEGEN--\":7192:7198   */\n      dup2\n        /* \"--CODEGEN--\":7187:7190   */\n      dup6\n        /* \"--CODEGEN--\":7110:7199   */\n      jump(tag_159)\n    tag_165:\n        /* \"--CODEGEN--\":7103:7199   */\n      swap4\n      pop\n        /* \"--CODEGEN--\":7204:7256   */\n      tag_166\n        /* \"--CODEGEN--\":7249:7255   */\n      dup2\n        /* \"--CODEGEN--\":7244:7247   */\n      dup6\n        /* \"--CODEGEN--\":7237:7241   */\n      0x20\n        /* \"--CODEGEN--\":7230:7235   */\n      dup7\n        /* \"--CODEGEN--\":7226:7242   */\n      add\n        /* \"--CODEGEN--\":7204:7256   */\n      jump(tag_161)\n    tag_166:\n        /* \"--CODEGEN--\":7277:7283   */\n      dup1\n        /* \"--CODEGEN--\":7272:7275   */\n      dup5\n        /* \"--CODEGEN--\":7268:7284   */\n      add\n        /* \"--CODEGEN--\":7261:7284   */\n      swap2\n      pop\n        /* \"--CODEGEN--\":7043:7289   */\n      pop\n      swap3\n      swap2\n      pop\n      pop\n      jump\n        /* \"--CODEGEN--\":7296:7406   */\n    tag_167:\n        /* \"--CODEGEN--\":7377:7400   */\n      tag_168\n        /* \"--CODEGEN--\":7394:7399   */\n      dup2\n        /* \"--CODEGEN--\":7377:7400   */\n      jump(tag_169)\n    tag_168:\n        /* \"--CODEGEN--\":7372:7375   */\n      dup3\n        /* \"--CODEGEN--\":7365:7401   */\n      mstore\n        /* \"--CODEGEN--\":7359:7406   */\n      pop\n      pop\n      jump\n        /* \"--CODEGEN--\":7413:7520   */\n    tag_170:\n        /* \"--CODEGEN--\":7492:7514   */\n      tag_171\n        /* \"--CODEGEN--\":7508:7513   */\n      dup2\n        /* \"--CODEGEN--\":7492:7514   */\n      jump(tag_172)\n    tag_171:\n        /* \"--CODEGEN--\":7487:7490   */\n      dup3\n        /* \"--CODEGEN--\":7480:7515   */\n      mstore\n        /* \"--CODEGEN--\":7474:7520   */\n      pop\n      pop\n      jump\n        /* \"--CODEGEN--\":7527:7785   */\n    tag_59:\n      0x00\n        /* \"--CODEGEN--\":7669:7760   */\n      tag_173\n        /* \"--CODEGEN--\":7756:7759   */\n      dup3\n        /* \"--CODEGEN--\":7747:7753   */\n      dup5\n        /* \"--CODEGEN--\":7669:7760   */\n      jump(tag_162)\n    tag_173:\n        /* \"--CODEGEN--\":7662:7760   */\n      swap2\n      pop\n        /* \"--CODEGEN--\":7777:7780   */\n      dup2\n        /* \"--CODEGEN--\":7770:7780   */\n      swap1\n      pop\n        /* \"--CODEGEN--\":7650:7785   */\n      swap3\n      swap2\n      pop\n      pop\n      jump\n        /* \"--CODEGEN--\":7792:8058   */\n    tag_45:\n      0x00\n        /* \"--CODEGEN--\":7938:8033   */\n      tag_174\n        /* \"--CODEGEN--\":8029:8032   */\n      dup3\n        /* \"--CODEGEN--\":8020:8026   */\n      dup5\n        /* \"--CODEGEN--\":7938:8033   */\n      jump(tag_155)\n    tag_174:\n        /* \"--CODEGEN--\":7931:8033   */\n      swap2\n      pop\n        /* \"--CODEGEN--\":8050:8053   */\n      dup2\n        /* \"--CODEGEN--\":8043:8053   */\n      swap1\n      pop\n        /* \"--CODEGEN--\":7919:8058   */\n      swap3\n      swap2\n      pop\n      pop\n      jump\n        /* \"--CODEGEN--\":8065:8274   */\n    tag_22:\n      0x00\n        /* \"--CODEGEN--\":8181:8183   */\n      0x20\n        /* \"--CODEGEN--\":8170:8179   */\n      dup3\n        /* \"--CODEGEN--\":8166:8184   */\n      add\n        /* \"--CODEGEN--\":8158:8184   */\n      swap1\n      pop\n        /* \"--CODEGEN--\":8195:8264   */\n      tag_175\n        /* \"--CODEGEN--\":8261:8262   */\n      0x00\n        /* \"--CODEGEN--\":8250:8259   */\n      dup4\n        /* \"--CODEGEN--\":8246:8263   */\n      add\n        /* \"--CODEGEN--\":8237:8243   */\n      dup5\n        /* \"--CODEGEN--\":8195:8264   */\n      jump(tag_167)\n    tag_175:\n        /* \"--CODEGEN--\":8152:8274   */\n      swap3\n      swap2\n      pop\n      pop\n      jump\n        /* \"--CODEGEN--\":8281:8486   */\n    tag_32:\n      0x00\n        /* \"--CODEGEN--\":8395:8397   */\n      0x20\n        /* \"--CODEGEN--\":8384:8393   */\n      dup3\n        /* \"--CODEGEN--\":8380:8398   */\n      add\n        /* \"--CODEGEN--\":8372:8398   */\n      swap1\n      pop\n        /* \"--CODEGEN--\":8409:8476   */\n      tag_176\n        /* \"--CODEGEN--\":8473:8474   */\n      0x00\n        /* \"--CODEGEN--\":8462:8471   */\n      dup4\n        /* \"--CODEGEN--\":8458:8475   */\n      add\n        /* \"--CODEGEN--\":8449:8455   */\n      dup5\n        /* \"--CODEGEN--\":8409:8476   */\n      jump(tag_170)\n    tag_176:\n        /* \"--CODEGEN--\":8366:8486   */\n      swap3\n      swap2\n      pop\n      pop\n      jump\n        /* \"--CODEGEN--\":8493:8749   */\n    tag_82:\n      0x00\n        /* \"--CODEGEN--\":8555:8557   */\n      0x40\n        /* \"--CODEGEN--\":8549:8558   */\n      mload\n        /* \"--CODEGEN--\":8539:8558   */\n      swap1\n      pop\n        /* \"--CODEGEN--\":8593:8597   */\n      dup2\n        /* \"--CODEGEN--\":8585:8591   */\n      dup2\n        /* \"--CODEGEN--\":8581:8598   */\n      add\n        /* \"--CODEGEN--\":8692:8698   */\n      dup2\n        /* \"--CODEGEN--\":8680:8690   */\n      dup2\n        /* \"--CODEGEN--\":8677:8699   */\n      lt\n        /* \"--CODEGEN--\":8656:8674   */\n      0xffffffffffffffff\n        /* \"--CODEGEN--\":8644:8654   */\n      dup3\n        /* \"--CODEGEN--\":8641:8675   */\n      gt\n        /* \"--CODEGEN--\":8638:8700   */\n      or\n        /* \"--CODEGEN--\":8635:8637   */\n      iszero\n      tag_177\n      jumpi\n        /* \"--CODEGEN--\":8713:8714   */\n      0x00\n        /* \"--CODEGEN--\":8710:8711   */\n      dup1\n        /* \"--CODEGEN--\":8703:8715   */\n      revert\n        /* \"--CODEGEN--\":8635:8637   */\n    tag_177:\n        /* \"--CODEGEN--\":8733:8743   */\n      dup1\n        /* \"--CODEGEN--\":8729:8731   */\n      0x40\n        /* \"--CODEGEN--\":8722:8744   */\n      mstore\n        /* \"--CODEGEN--\":8533:8749   */\n      pop\n      swap2\n      swap1\n      pop\n      jump\n        /* \"--CODEGEN--\":8756:9060   */\n    tag_81:\n      0x00\n        /* \"--CODEGEN--\":8915:8933   */\n      0xffffffffffffffff\n        /* \"--CODEGEN--\":8907:8913   */\n      dup3\n        /* \"--CODEGEN--\":8904:8934   */\n      gt\n        /* \"--CODEGEN--\":8901:8903   */\n      iszero\n      tag_178\n      jumpi\n        /* \"--CODEGEN--\":8947:8948   */\n      0x00\n        /* \"--CODEGEN--\":8944:8945   */\n      dup1\n        /* \"--CODEGEN--\":8937:8949   */\n      revert\n        /* \"--CODEGEN--\":8901:8903   */\n    tag_178:\n        /* \"--CODEGEN--\":8982:8986   */\n      0x20\n        /* \"--CODEGEN--\":8974:8980   */\n      dup3\n        /* \"--CODEGEN--\":8970:8987   */\n      mul\n        /* \"--CODEGEN--\":8962:8987   */\n      swap1\n      pop\n        /* \"--CODEGEN--\":9045:9049   */\n      0x20\n        /* \"--CODEGEN--\":9039:9043   */\n      dup2\n        /* \"--CODEGEN--\":9035:9050   */\n      add\n        /* \"--CODEGEN--\":9027:9050   */\n      swap1\n      pop\n        /* \"--CODEGEN--\":8838:9060   */\n      swap2\n      swap1\n      pop\n      jump\n        /* \"--CODEGEN--\":9067:9377   */\n    tag_92:\n      0x00\n        /* \"--CODEGEN--\":9232:9250   */\n      0xffffffffffffffff\n        /* \"--CODEGEN--\":9224:9230   */\n      dup3\n        /* \"--CODEGEN--\":9221:9251   */\n      gt\n        /* \"--CODEGEN--\":9218:9220   */\n      iszero\n      tag_179\n      jumpi\n        /* \"--CODEGEN--\":9264:9265   */\n      0x00\n        /* \"--CODEGEN--\":9261:9262   */\n      dup1\n        /* \"--CODEGEN--\":9254:9266   */\n      revert\n        /* \"--CODEGEN--\":9218:9220   */\n    tag_179:\n        /* \"--CODEGEN--\":9299:9303   */\n      0x20\n        /* \"--CODEGEN--\":9291:9297   */\n      dup3\n        /* \"--CODEGEN--\":9287:9304   */\n      mul\n        /* \"--CODEGEN--\":9279:9304   */\n      swap1\n      pop\n        /* \"--CODEGEN--\":9362:9366   */\n      0x20\n        /* \"--CODEGEN--\":9356:9360   */\n      dup2\n        /* \"--CODEGEN--\":9352:9367   */\n      add\n        /* \"--CODEGEN--\":9344:9367   */\n      swap1\n      pop\n        /* \"--CODEGEN--\":9155:9377   */\n      swap2\n      swap1\n      pop\n      jump\n        /* \"--CODEGEN--\":9384:9686   */\n    tag_102:\n      0x00\n        /* \"--CODEGEN--\":9541:9559   */\n      0xffffffffffffffff\n        /* \"--CODEGEN--\":9533:9539   */\n      dup3\n        /* \"--CODEGEN--\":9530:9560   */\n      gt\n        /* \"--CODEGEN--\":9527:9529   */\n      iszero\n      tag_180\n      jumpi\n        /* \"--CODEGEN--\":9573:9574   */\n      0x00\n        /* \"--CODEGEN--\":9570:9571   */\n      dup1\n        /* \"--CODEGEN--\":9563:9575   */\n      revert\n        /* \"--CODEGEN--\":9527:9529   */\n    tag_180:\n        /* \"--CODEGEN--\":9608:9612   */\n      0x20\n        /* \"--CODEGEN--\":9600:9606   */\n      dup3\n        /* \"--CODEGEN--\":9596:9613   */\n      mul\n        /* \"--CODEGEN--\":9588:9613   */\n      swap1\n      pop\n        /* \"--CODEGEN--\":9671:9675   */\n      0x20\n        /* \"--CODEGEN--\":9665:9669   */\n      dup2\n        /* \"--CODEGEN--\":9661:9676   */\n      add\n        /* \"--CODEGEN--\":9653:9676   */\n      swap1\n      pop\n        /* \"--CODEGEN--\":9464:9686   */\n      swap2\n      swap1\n      pop\n      jump\n        /* \"--CODEGEN--\":9693:10011   */\n    tag_112:\n      0x00\n        /* \"--CODEGEN--\":9833:9851   */\n      0xffffffffffffffff\n        /* \"--CODEGEN--\":9825:9831   */\n      dup3\n        /* \"--CODEGEN--\":9822:9852   */\n      gt\n        /* \"--CODEGEN--\":9819:9821   */\n      iszero\n      tag_181\n      jumpi\n        /* \"--CODEGEN--\":9865:9866   */\n      0x00\n        /* \"--CODEGEN--\":9862:9863   */\n      dup1\n        /* \"--CODEGEN--\":9855:9867   */\n      revert\n        /* \"--CODEGEN--\":9819:9821   */\n    tag_181:\n        /* \"--CODEGEN--\":9932:9936   */\n      0x1f\n        /* \"--CODEGEN--\":9928:9937   */\n      not\n        /* \"--CODEGEN--\":9921:9925   */\n      0x1f\n        /* \"--CODEGEN--\":9913:9919   */\n      dup4\n        /* \"--CODEGEN--\":9909:9926   */\n      add\n        /* \"--CODEGEN--\":9905:9938   */\n      and\n        /* \"--CODEGEN--\":9897:9938   */\n      swap1\n      pop\n        /* \"--CODEGEN--\":9996:10000   */\n      0x20\n        /* \"--CODEGEN--\":9990:9994   */\n      dup2\n        /* \"--CODEGEN--\":9986:10001   */\n      add\n        /* \"--CODEGEN--\":9978:10001   */\n      swap1\n      pop\n        /* \"--CODEGEN--\":9756:10011   */\n      swap2\n      swap1\n      pop\n      jump\n        /* \"--CODEGEN--\":10018:10340   */\n    tag_120:\n      0x00\n        /* \"--CODEGEN--\":10162:10180   */\n      0xffffffffffffffff\n        /* \"--CODEGEN--\":10154:10160   */\n      dup3\n        /* \"--CODEGEN--\":10151:10181   */\n      gt\n        /* \"--CODEGEN--\":10148:10150   */\n      iszero\n      tag_182\n      jumpi\n        /* \"--CODEGEN--\":10194:10195   */\n      0x00\n        /* \"--CODEGEN--\":10191:10192   */\n      dup1\n        /* \"--CODEGEN--\":10184:10196   */\n      revert\n        /* \"--CODEGEN--\":10148:10150   */\n    tag_182:\n        /* \"--CODEGEN--\":10261:10265   */\n      0x1f\n        /* \"--CODEGEN--\":10257:10266   */\n      not\n        /* \"--CODEGEN--\":10250:10254   */\n      0x1f\n        /* \"--CODEGEN--\":10242:10248   */\n      dup4\n        /* \"--CODEGEN--\":10238:10255   */\n      add\n        /* \"--CODEGEN--\":10234:10267   */\n      and\n        /* \"--CODEGEN--\":10226:10267   */\n      swap1\n      pop\n        /* \"--CODEGEN--\":10325:10329   */\n      0x20\n        /* \"--CODEGEN--\":10319:10323   */\n      dup2\n        /* \"--CODEGEN--\":10315:10330   */\n      add\n        /* \"--CODEGEN--\":10307:10330   */\n      swap1\n      pop\n        /* \"--CODEGEN--\":10085:10340   */\n      swap2\n      swap1\n      pop\n      jump\n        /* \"--CODEGEN--\":10347:10465   */\n    tag_164:\n      0x00\n        /* \"--CODEGEN--\":10437:10442   */\n      dup2\n        /* \"--CODEGEN--\":10431:10443   */\n      mload\n        /* \"--CODEGEN--\":10421:10443   */\n      swap1\n      pop\n        /* \"--CODEGEN--\":10402:10465   */\n      swap2\n      swap1\n      pop\n      jump\n        /* \"--CODEGEN--\":10472:10594   */\n    tag_157:\n      0x00\n        /* \"--CODEGEN--\":10566:10571   */\n      dup2\n        /* \"--CODEGEN--\":10560:10572   */\n      mload\n        /* \"--CODEGEN--\":10550:10572   */\n      swap1\n      pop\n        /* \"--CODEGEN--\":10531:10594   */\n      swap2\n      swap1\n      pop\n      jump\n        /* \"--CODEGEN--\":10602:10747   */\n    tag_159:\n      0x00\n        /* \"--CODEGEN--\":10738:10741   */\n      dup2\n        /* \"--CODEGEN--\":10723:10741   */\n      swap1\n      pop\n        /* \"--CODEGEN--\":10716:10747   */\n      swap3\n      swap2\n      pop\n      pop\n      jump\n        /* \"--CODEGEN--\":10755:10846   */\n    tag_183:\n      0x00\n        /* \"--CODEGEN--\":10817:10841   */\n      tag_184\n        /* \"--CODEGEN--\":10835:10840   */\n      dup3\n        /* \"--CODEGEN--\":10817:10841   */\n      jump(tag_185)\n    tag_184:\n        /* \"--CODEGEN--\":10806:10841   */\n      swap1\n      pop\n        /* \"--CODEGEN--\":10800:10846   */\n      swap2\n      swap1\n      pop\n      jump\n        /* \"--CODEGEN--\":10853:10974   */\n    tag_185:\n      0x00\n        /* \"--CODEGEN--\":10926:10968   */\n      0xffffffffffffffffffffffffffffffffffffffff\n        /* \"--CODEGEN--\":10919:10924   */\n      dup3\n        /* \"--CODEGEN--\":10915:10969   */\n      and\n        /* \"--CODEGEN--\":10904:10969   */\n      swap1\n      pop\n        /* \"--CODEGEN--\":10898:10974   */\n      swap2\n      swap1\n      pop\n      jump\n        /* \"--CODEGEN--\":10981:11053   */\n    tag_186:\n      0x00\n        /* \"--CODEGEN--\":11043:11048   */\n      dup2\n        /* \"--CODEGEN--\":11032:11048   */\n      swap1\n      pop\n        /* \"--CODEGEN--\":11026:11053   */\n      swap2\n      swap1\n      pop\n      jump\n        /* \"--CODEGEN--\":11060:11148   */\n    tag_169:\n      0x00\n        /* \"--CODEGEN--\":11132:11142   */\n      0xffffffff\n        /* \"--CODEGEN--\":11125:11130   */\n      dup3\n        /* \"--CODEGEN--\":11121:11143   */\n      and\n        /* \"--CODEGEN--\":11110:11143   */\n      swap1\n      pop\n        /* \"--CODEGEN--\":11104:11148   */\n      swap2\n      swap1\n      pop\n      jump\n        /* \"--CODEGEN--\":11155:11236   */\n    tag_172:\n      0x00\n        /* \"--CODEGEN--\":11226:11230   */\n      0xff\n        /* \"--CODEGEN--\":11219:11224   */\n      dup3\n        /* \"--CODEGEN--\":11215:11231   */\n      and\n        /* \"--CODEGEN--\":11204:11231   */\n      swap1\n      pop\n        /* \"--CODEGEN--\":11198:11236   */\n      swap2\n      swap1\n      pop\n      jump\n        /* \"--CODEGEN--\":11244:11389   */\n    tag_115:\n        /* \"--CODEGEN--\":11325:11331   */\n      dup3\n        /* \"--CODEGEN--\":11320:11323   */\n      dup2\n        /* \"--CODEGEN--\":11315:11318   */\n      dup4\n        /* \"--CODEGEN--\":11302:11332   */\n      calldatacopy\n        /* \"--CODEGEN--\":11381:11382   */\n      0x00\n        /* \"--CODEGEN--\":11372:11378   */\n      dup4\n        /* \"--CODEGEN--\":11367:11370   */\n      dup4\n        /* \"--CODEGEN--\":11363:11379   */\n      add\n        /* \"--CODEGEN--\":11356:11383   */\n      mstore\n        /* \"--CODEGEN--\":11295:11389   */\n      pop\n      pop\n      pop\n      jump\n        /* \"--CODEGEN--\":11398:11666   */\n    tag_161:\n        /* \"--CODEGEN--\":11463:11464   */\n      0x00\n        /* \"--CODEGEN--\":11470:11571   */\n    tag_187:\n        /* \"--CODEGEN--\":11484:11490   */\n      dup4\n        /* \"--CODEGEN--\":11481:11482   */\n      dup2\n        /* \"--CODEGEN--\":11478:11491   */\n      lt\n        /* \"--CODEGEN--\":11470:11571   */\n      iszero\n      tag_189\n      jumpi\n        /* \"--CODEGEN--\":11560:11561   */\n      dup1\n        /* \"--CODEGEN--\":11555:11558   */\n      dup3\n        /* \"--CODEGEN--\":11551:11562   */\n      add\n        /* \"--CODEGEN--\":11545:11563   */\n      mload\n        /* \"--CODEGEN--\":11541:11542   */\n      dup2\n        /* \"--CODEGEN--\":11536:11539   */\n      dup5\n        /* \"--CODEGEN--\":11532:11543   */\n      add\n        /* \"--CODEGEN--\":11525:11564   */\n      mstore\n        /* \"--CODEGEN--\":11506:11508   */\n      0x20\n        /* \"--CODEGEN--\":11503:11504   */\n      dup2\n        /* \"--CODEGEN--\":11499:11509   */\n      add\n        /* \"--CODEGEN--\":11494:11509   */\n      swap1\n      pop\n        /* \"--CODEGEN--\":11470:11571   */\n      jump(tag_187)\n    tag_189:\n        /* \"--CODEGEN--\":11586:11592   */\n      dup4\n        /* \"--CODEGEN--\":11583:11584   */\n      dup2\n        /* \"--CODEGEN--\":11580:11593   */\n      gt\n        /* \"--CODEGEN--\":11577:11579   */\n      iszero\n      tag_190\n      jumpi\n        /* \"--CODEGEN--\":11651:11652   */\n      0x00\n        /* \"--CODEGEN--\":11642:11648   */\n      dup5\n        /* \"--CODEGEN--\":11637:11640   */\n      dup5\n        /* \"--CODEGEN--\":11633:11649   */\n      add\n        /* \"--CODEGEN--\":11626:11653   */\n      mstore\n        /* \"--CODEGEN--\":11577:11579   */\n    tag_190:\n        /* \"--CODEGEN--\":11447:11666   */\n      pop\n      pop\n      pop\n      pop\n      jump\n        /* \"--CODEGEN--\":11674:11791   */\n    tag_76:\n        /* \"--CODEGEN--\":11743:11767   */\n      tag_191\n        /* \"--CODEGEN--\":11761:11766   */\n      dup2\n        /* \"--CODEGEN--\":11743:11767   */\n      jump(tag_183)\n    tag_191:\n        /* \"--CODEGEN--\":11736:11741   */\n      dup2\n        /* \"--CODEGEN--\":11733:11768   */\n      eq\n        /* \"--CODEGEN--\":11723:11725   */\n      tag_192\n      jumpi\n        /* \"--CODEGEN--\":11782:11783   */\n      0x00\n        /* \"--CODEGEN--\":11779:11780   */\n      dup1\n        /* \"--CODEGEN--\":11772:11784   */\n      revert\n        /* \"--CODEGEN--\":11723:11725   */\n    tag_192:\n        /* \"--CODEGEN--\":11717:11791   */\n      pop\n      jump\n        /* \"--CODEGEN--\":11798:11915   */\n    tag_125:\n        /* \"--CODEGEN--\":11867:11891   */\n      tag_193\n        /* \"--CODEGEN--\":11885:11890   */\n      dup2\n        /* \"--CODEGEN--\":11867:11891   */\n      jump(tag_186)\n    tag_193:\n        /* \"--CODEGEN--\":11860:11865   */\n      dup2\n        /* \"--CODEGEN--\":11857:11892   */\n      eq\n        /* \"--CODEGEN--\":11847:11849   */\n      tag_194\n      jumpi\n        /* \"--CODEGEN--\":11906:11907   */\n      0x00\n        /* \"--CODEGEN--\":11903:11904   */\n      dup1\n        /* \"--CODEGEN--\":11896:11908   */\n      revert\n        /* \"--CODEGEN--\":11847:11849   */\n    tag_194:\n        /* \"--CODEGEN--\":11841:11915   */\n      pop\n      jump\n        /* \"--CODEGEN--\":11922:12037   */\n    tag_128:\n        /* \"--CODEGEN--\":11990:12013   */\n      tag_195\n        /* \"--CODEGEN--\":12007:12012   */\n      dup2\n        /* \"--CODEGEN--\":11990:12013   */\n      jump(tag_169)\n    tag_195:\n        /* \"--CODEGEN--\":11983:11988   */\n      dup2\n        /* \"--CODEGEN--\":11980:12014   */\n      eq\n        /* \"--CODEGEN--\":11970:11972   */\n      tag_196\n      jumpi\n        /* \"--CODEGEN--\":12028:12029   */\n      0x00\n        /* \"--CODEGEN--\":12025:12026   */\n      dup1\n        /* \"--CODEGEN--\":12018:12030   */\n      revert\n        /* \"--CODEGEN--\":11970:11972   */\n    tag_196:\n        /* \"--CODEGEN--\":11964:12037   */\n      pop\n      jump\n        /* \"--CODEGEN--\":12044:12157   */\n    tag_130:\n        /* \"--CODEGEN--\":12111:12133   */\n      tag_197\n        /* \"--CODEGEN--\":12127:12132   */\n      dup2\n        /* \"--CODEGEN--\":12111:12133   */\n      jump(tag_172)\n    tag_197:\n        /* \"--CODEGEN--\":12104:12109   */\n      dup2\n        /* \"--CODEGEN--\":12101:12134   */\n      eq\n        /* \"--CODEGEN--\":12091:12093   */\n      tag_198\n      jumpi\n        /* \"--CODEGEN--\":12148:12149   */\n      0x00\n        /* \"--CODEGEN--\":12145:12146   */\n      dup1\n        /* \"--CODEGEN--\":12138:12150   */\n      revert\n        /* \"--CODEGEN--\":12091:12093   */\n    tag_198:\n        /* \"--CODEGEN--\":12085:12157   */\n      pop\n      jump\n\n    auxdata: 0xa365627a7a723158204bb794e10e7d985b06e5d4f0023ffc76c387496a9c60c1fe0595bf6cf621fd0f6c6578706572696d656e74616cf564736f6c63430005110040\n}\n",
				"bytecode": {
					"linkReferences": {},
					"object": "608060405234801561001057600080fd5b50610cda806100206000396000f3fe608060405234801561001057600080fd5b506004361061007d5760003560e01c806334b9eb7d1161005b57806334b9eb7d146100d8578063dd1b91de146100f4578063f1af653c14610124578063f472c386146101405761007d565b80630bd7c200146100825780630da08fe71461009e57806311f55424146100ba575b600080fd5b61009c6004803603610097919081019061084e565b61015c565b005b6100b860048036036100b3919081019061094a565b610176565b005b6100c261021f565b6040516100cf9190610a4c565b60405180910390f35b6100f260048036036100ed91908101906108e3565b610239565b005b61010e6004803603610109919081019061088f565b6102b2565b60405161011b9190610a67565b60405180910390f35b61013e600480360361013991908101906107a3565b610324565b005b61015a6004803603610155919081019061084e565b6103f3565b005b8060029080519060200190610172929190610488565b5050565b6000600180600360008560405161018d9190610a35565b908152602001604051809103902060003373ffffffffffffffffffffffffffffffffffffffff1673ffffffffffffffffffffffffffffffffffffffff16815260200190815260200160002060009054906101000a900460ff1660ff16901c1660ff16149050806101f957fe5b82600160006101000a81548163ffffffff021916908363ffffffff160217905550505050565b6000600160009054906101000a900463ffffffff16905090565b8060008460405161024a9190610a35565b908152602001604051809103902060008473ffffffffffffffffffffffffffffffffffffffff1673ffffffffffffffffffffffffffffffffffffffff16815260200190815260200160002060006101000a81548160ff021916908360ff160217905550505050565b600080836040516102c39190610a35565b908152602001604051809103902060008373ffffffffffffffffffffffffffffffffffffffff1673ffffffffffffffffffffffffffffffffffffffff16815260200190815260200160002060009054906101000a900460ff16905092915050565b60008090505b818110156103ec5782818151811061033e57fe5b6020026020010151600086838151811061035457fe5b60200260200101516040516103699190610a1e565b9081526020016040518091039020600086848151811061038557fe5b602002602001015173ffffffffffffffffffffffffffffffffffffffff1673ffffffffffffffffffffffffffffffffffffffff16815260200190815260200160002060006101000a81548160ff021916908360ff160217905550808060010191505061032a565b5050505050565b60006001806000846040516104089190610a35565b908152602001604051809103902060003373ffffffffffffffffffffffffffffffffffffffff1673ffffffffffffffffffffffffffffffffffffffff16815260200190815260200160002060009054906101000a900460ff161660ff161490508061046f57fe5b3373ffffffffffffffffffffffffffffffffffffffff16ff5b828054600181600116156101000203166002900490600052602060002090601f016020900481019282601f106104c957805160ff19168380011785556104f7565b828001600101855582156104f7579182015b828111156104f65782518255916020019190600101906104db565b5b5090506105049190610508565b5090565b61052a91905b8082111561052657600081600090555060010161050e565b5090565b90565b60008135905061053c81610c3b565b92915050565b600082601f83011261055357600080fd5b813561056661056182610aaf565b610a82565b9150818183526020840193506020810190508385602084028201111561058b57600080fd5b60005b838110156105bb57816105a1888261052d565b84526020840193506020830192505060018101905061058e565b5050505092915050565b600082601f8301126105d657600080fd5b81356105e96105e482610ad7565b610a82565b9150818183526020840193506020810190508360005b8381101561062f578135860161061588826106bc565b8452602084019350602083019250506001810190506105ff565b5050505092915050565b600082601f83011261064a57600080fd5b813561065d61065882610aff565b610a82565b9150818183526020840193506020810190508385602084028201111561068257600080fd5b60005b838110156106b25781610698888261078e565b845260208401935060208301925050600181019050610685565b5050505092915050565b600082601f8301126106cd57600080fd5b81356106e06106db82610b27565b610a82565b915080825260208301602083018583830111156106fc57600080fd5b610707838284610bf9565b50505092915050565b600082601f83011261072157600080fd5b813561073461072f82610b53565b610a82565b9150808252602083016020830185838301111561075057600080fd5b61075b838284610bf9565b50505092915050565b60008135905061077381610c52565b92915050565b60008135905061078881610c69565b92915050565b60008135905061079d81610c80565b92915050565b600080600080608085870312156107b957600080fd5b600085013567ffffffffffffffff8111156107d357600080fd5b6107df878288016105c5565b945050602085013567ffffffffffffffff8111156107fc57600080fd5b61080887828801610542565b935050604085013567ffffffffffffffff81111561082557600080fd5b61083187828801610639565b925050606061084287828801610764565b91505092959194509250565b60006020828403121561086057600080fd5b600082013567ffffffffffffffff81111561087a57600080fd5b61088684828501610710565b91505092915050565b600080604083850312156108a257600080fd5b600083013567ffffffffffffffff8111156108bc57600080fd5b6108c885828601610710565b92505060206108d98582860161052d565b9150509250929050565b6000806000606084860312156108f857600080fd5b600084013567ffffffffffffffff81111561091257600080fd5b61091e86828701610710565b935050602061092f8682870161052d565b92505060406109408682870161078e565b9150509250925092565b6000806040838503121561095d57600080fd5b600061096b85828601610779565b925050602083013567ffffffffffffffff81111561098857600080fd5b61099485828601610710565b9150509250929050565b60006109a982610b8a565b6109b38185610b95565b93506109c3818560208601610c08565b80840191505092915050565b60006109da82610b7f565b6109e48185610b95565b93506109f4818560208601610c08565b80840191505092915050565b610a0981610bdc565b82525050565b610a1881610bec565b82525050565b6000610a2a82846109cf565b915081905092915050565b6000610a41828461099e565b915081905092915050565b6000602082019050610a616000830184610a00565b92915050565b6000602082019050610a7c6000830184610a0f565b92915050565b6000604051905081810181811067ffffffffffffffff82111715610aa557600080fd5b8060405250919050565b600067ffffffffffffffff821115610ac657600080fd5b602082029050602081019050919050565b600067ffffffffffffffff821115610aee57600080fd5b602082029050602081019050919050565b600067ffffffffffffffff821115610b1657600080fd5b602082029050602081019050919050565b600067ffffffffffffffff821115610b3e57600080fd5b601f19601f8301169050602081019050919050565b600067ffffffffffffffff821115610b6a57600080fd5b601f19601f8301169050602081019050919050565b600081519050919050565b600081519050919050565b600081905092915050565b6000610bab82610bb2565b9050919050565b600073ffffffffffffffffffffffffffffffffffffffff82169050919050565b6000819050919050565b600063ffffffff82169050919050565b600060ff82169050919050565b82818337600083830152505050565b60005b83811015610c26578082015181840152602081019050610c0b565b83811115610c35576000848401525b50505050565b610c4481610ba0565b8114610c4f57600080fd5b50565b610c5b81610bd2565b8114610c6657600080fd5b50565b610c7281610bdc565b8114610c7d57600080fd5b50565b610c8981610bec565b8114610c9457600080fd5b5056fea365627a7a723158204bb794e10e7d985b06e5d4f0023ffc76c387496a9c60c1fe0595bf6cf621fd0f6c6578706572696d656e74616cf564736f6c63430005110040",
					"opcodes": "PUSH1 0x80 PUSH1 0x40 MSTORE CALLVALUE DUP1 ISZERO PUSH2 0x10 JUMPI PUSH1 0x0 DUP1 REVERT JUMPDEST POP PUSH2 0xCDA DUP1 PUSH2 0x20 PUSH1 0x0 CODECOPY PUSH1 0x0 RETURN INVALID PUSH1 0x80 PUSH1 0x40 MSTORE CALLVALUE DUP1 ISZERO PUSH2 0x10 JUMPI PUSH1 0x0 DUP1 REVERT JUMPDEST POP PUSH1 0x4 CALLDATASIZE LT PUSH2 0x7D JUMPI PUSH1 0x0 CALLDATALOAD PUSH1 0xE0 SHR DUP1 PUSH4 0x34B9EB7D GT PUSH2 0x5B JUMPI DUP1 PUSH4 0x34B9EB7D EQ PUSH2 0xD8 JUMPI DUP1 PUSH4 0xDD1B91DE EQ PUSH2 0xF4 JUMPI DUP1 PUSH4 0xF1AF653C EQ PUSH2 0x124 JUMPI DUP1 PUSH4 0xF472C386 EQ PUSH2 0x140 JUMPI PUSH2 0x7D JUMP JUMPDEST DUP1 PUSH4 0xBD7C200 EQ PUSH2 0x82 JUMPI DUP1 PUSH4 0xDA08FE7 EQ PUSH2 0x9E JUMPI DUP1 PUSH4 0x11F55424 EQ PUSH2 0xBA JUMPI JUMPDEST PUSH1 0x0 DUP1 REVERT JUMPDEST PUSH2 0x9C PUSH1 0x4 DUP1 CALLDATASIZE SUB PUSH2 0x97 SWAP2 SWAP1 DUP2 ADD SWAP1 PUSH2 0x84E JUMP JUMPDEST PUSH2 0x15C JUMP JUMPDEST STOP JUMPDEST PUSH2 0xB8 PUSH1 0x4 DUP1 CALLDATASIZE SUB PUSH2 0xB3 SWAP2 SWAP1 DUP2 ADD SWAP1 PUSH2 0x94A JUMP JUMPDEST PUSH2 0x176 JUMP JUMPDEST STOP JUMPDEST PUSH2 0xC2 PUSH2 0x21F JUMP JUMPDEST PUSH1 0x40 MLOAD PUSH2 0xCF SWAP2 SWAP1 PUSH2 0xA4C JUMP JUMPDEST PUSH1 0x40 MLOAD DUP1 SWAP2 SUB SWAP1 RETURN JUMPDEST PUSH2 0xF2 PUSH1 0x4 DUP1 CALLDATASIZE SUB PUSH2 0xED SWAP2 SWAP1 DUP2 ADD SWAP1 PUSH2 0x8E3 JUMP JUMPDEST PUSH2 0x239 JUMP JUMPDEST STOP JUMPDEST PUSH2 0x10E PUSH1 0x4 DUP1 CALLDATASIZE SUB PUSH2 0x109 SWAP2 SWAP1 DUP2 ADD SWAP1 PUSH2 0x88F JUMP JUMPDEST PUSH2 0x2B2 JUMP JUMPDEST PUSH1 0x40 MLOAD PUSH2 0x11B SWAP2 SWAP1 PUSH2 0xA67 JUMP JUMPDEST PUSH1 0x40 MLOAD DUP1 SWAP2 SUB SWAP1 RETURN JUMPDEST PUSH2 0x13E PUSH1 0x4 DUP1 CALLDATASIZE SUB PUSH2 0x139 SWAP2 SWAP1 DUP2 ADD SWAP1 PUSH2 0x7A3 JUMP JUMPDEST PUSH2 0x324 JUMP JUMPDEST STOP JUMPDEST PUSH2 0x15A PUSH1 0x4 DUP1 CALLDATASIZE SUB PUSH2 0x155 SWAP2 SWAP1 DUP2 ADD SWAP1 PUSH2 0x84E JUMP JUMPDEST PUSH2 0x3F3 JUMP JUMPDEST STOP JUMPDEST DUP1 PUSH1 0x2 SWAP1 DUP1 MLOAD SWAP1 PUSH1 0x20 ADD SWAP1 PUSH2 0x172 SWAP3 SWAP2 SWAP1 PUSH2 0x488 JUMP JUMPDEST POP POP JUMP JUMPDEST PUSH1 0x0 PUSH1 0x1 DUP1 PUSH1 0x3 PUSH1 0x0 DUP6 PUSH1 0x40 MLOAD PUSH2 0x18D SWAP2 SWAP1 PUSH2 0xA35 JUMP JUMPDEST SWAP1 DUP2 MSTORE PUSH1 0x20 ADD PUSH1 0x40 MLOAD DUP1 SWAP2 SUB SWAP1 KECCAK256 PUSH1 0x0 CALLER PUSH20 0xFFFFFFFFFFFFFFFFFFFFFFFFFFFFFFFFFFFFFFFF AND PUSH20 0xFFFFFFFFFFFFFFFFFFFFFFFFFFFFFFFFFFFFFFFF AND DUP2 MSTORE PUSH1 0x20 ADD SWAP1 DUP2 MSTORE PUSH1 0x20 ADD PUSH1 0x0 KECCAK256 PUSH1 0x0 SWAP1 SLOAD SWAP1 PUSH2 0x100 EXP SWAP1 DIV PUSH1 0xFF AND PUSH1 0xFF AND SWAP1 SHR AND PUSH1 0xFF AND EQ SWAP1 POP DUP1 PUSH2 0x1F9 JUMPI INVALID JUMPDEST DUP3 PUSH1 0x1 PUSH1 0x0 PUSH2 0x100 EXP DUP2 SLOAD DUP2 PUSH4 0xFFFFFFFF MUL NOT AND SWAP1 DUP4 PUSH4 0xFFFFFFFF AND MUL OR SWAP1 SSTORE POP POP POP POP JUMP JUMPDEST PUSH1 0x0 PUSH1 0x1 PUSH1 0x0 SWAP1 SLOAD SWAP1 PUSH2 0x100 EXP SWAP1 DIV PUSH4 0xFFFFFFFF AND SWAP1 POP SWAP1 JUMP JUMPDEST DUP1 PUSH1 0x0 DUP5 PUSH1 0x40 MLOAD PUSH2 0x24A SWAP2 SWAP1 PUSH2 0xA35 JUMP JUMPDEST SWAP1 DUP2 MSTORE PUSH1 0x20 ADD PUSH1 0x40 MLOAD DUP1 SWAP2 SUB SWAP1 KECCAK256 PUSH1 0x0 DUP5 PUSH20 0xFFFFFFFFFFFFFFFFFFFFFFFFFFFFFFFFFFFFFFFF AND PUSH20 0xFFFFFFFFFFFFFFFFFFFFFFFFFFFFFFFFFFFFFFFF AND DUP2 MSTORE PUSH1 0x20 ADD SWAP1 DUP2 MSTORE PUSH1 0x20 ADD PUSH1 0x0 KECCAK256 PUSH1 0x0 PUSH2 0x100 EXP DUP2 SLOAD DUP2 PUSH1 0xFF MUL NOT AND SWAP1 DUP4 PUSH1 0xFF AND MUL OR SWAP1 SSTORE POP POP POP POP JUMP JUMPDEST PUSH1 0x0 DUP1 DUP4 PUSH1 0x40 MLOAD PUSH2 0x2C3 SWAP2 SWAP1 PUSH2 0xA35 JUMP JUMPDEST SWAP1 DUP2 MSTORE PUSH1 0x20 ADD PUSH1 0x40 MLOAD DUP1 SWAP2 SUB SWAP1 KECCAK256 PUSH1 0x0 DUP4 PUSH20 0xFFFFFFFFFFFFFFFFFFFFFFFFFFFFFFFFFFFFFFFF AND PUSH20 0xFFFFFFFFFFFFFFFFFFFFFFFFFFFFFFFFFFFFFFFF AND DUP2 MSTORE PUSH1 0x20 ADD SWAP1 DUP2 MSTORE PUSH1 0x20 ADD PUSH1 0x0 KECCAK256 PUSH1 0x0 SWAP1 SLOAD SWAP1 PUSH2 0x100 EXP SWAP1 DIV PUSH1 0xFF AND SWAP1 POP SWAP3 SWAP2 POP POP JUMP JUMPDEST PUSH1 0x0 DUP1 SWAP1 POP JUMPDEST DUP2 DUP2 LT ISZERO PUSH2 0x3EC JUMPI DUP3 DUP2 DUP2 MLOAD DUP2 LT PUSH2 0x33E JUMPI INVALID JUMPDEST PUSH1 0x20 MUL PUSH1 0x20 ADD ADD MLOAD PUSH1 0x0 DUP7 DUP4 DUP2 MLOAD DUP2 LT PUSH2 0x354 JUMPI INVALID JUMPDEST PUSH1 0x20 MUL PUSH1 0x20 ADD ADD MLOAD PUSH1 0x40 MLOAD PUSH2 0x369 SWAP2 SWAP1 PUSH2 0xA1E JUMP JUMPDEST SWAP1 DUP2 MSTORE PUSH1 0x20 ADD PUSH1 0x40 MLOAD DUP1 SWAP2 SUB SWAP1 KECCAK256 PUSH1 0x0 DUP7 DUP5 DUP2 MLOAD DUP2 LT PUSH2 0x385 JUMPI INVALID JUMPDEST PUSH1 0x20 MUL PUSH1 0x20 ADD ADD MLOAD PUSH20 0xFFFFFFFFFFFFFFFFFFFFFFFFFFFFFFFFFFFFFFFF AND PUSH20 0xFFFFFFFFFFFFFFFFFFFFFFFFFFFFFFFFFFFFFFFF AND DUP2 MSTORE PUSH1 0x20 ADD SWAP1 DUP2 MSTORE PUSH1 0x20 ADD PUSH1 0x0 KECCAK256 PUSH1 0x0 PUSH2 0x100 EXP DUP2 SLOAD DUP2 PUSH1 0xFF MUL NOT AND SWAP1 DUP4 PUSH1 0xFF AND MUL OR SWAP1 SSTORE POP DUP1 DUP1 PUSH1 0x1 ADD SWAP2 POP POP PUSH2 0x32A JUMP JUMPDEST POP POP POP POP POP JUMP JUMPDEST PUSH1 0x0 PUSH1 0x1 DUP1 PUSH1 0x0 DUP5 PUSH1 0x40 MLOAD PUSH2 0x408 SWAP2 SWAP1 PUSH2 0xA35 JUMP JUMPDEST SWAP1 DUP2 MSTORE PUSH1 0x20 ADD PUSH1 0x40 MLOAD DUP1 SWAP2 SUB SWAP1 KECCAK256 PUSH1 0x0 CALLER PUSH20 0xFFFFFFFFFFFFFFFFFFFFFFFFFFFFFFFFFFFFFFFF AND PUSH20 0xFFFFFFFFFFFFFFFFFFFFFFFFFFFFFFFFFFFFFFFF AND DUP2 MSTORE PUSH1 0x20 ADD SWAP1 DUP2 MSTORE PUSH1 0x20 ADD PUSH1 0x0 KECCAK256 PUSH1 0x0 SWAP1 SLOAD SWAP1 PUSH2 0x100 EXP SWAP1 DIV PUSH1 0xFF AND AND PUSH1 0xFF AND EQ SWAP1 POP DUP1 PUSH2 0x46F JUMPI INVALID JUMPDEST CALLER PUSH20 0xFFFFFFFFFFFFFFFFFFFFFFFFFFFFFFFFFFFFFFFF AND SELFDESTRUCT JUMPDEST DUP3 DUP1 SLOAD PUSH1 0x1 DUP2 PUSH1 0x1 AND ISZERO PUSH2 0x100 MUL SUB AND PUSH1 0x2 SWAP1 DIV SWAP1 PUSH1 0x0 MSTORE PUSH1 0x20 PUSH1 0x0 KECCAK256 SWAP1 PUSH1 0x1F ADD PUSH1 0x20 SWAP1 DIV DUP2 ADD SWAP3 DUP3 PUSH1 0x1F LT PUSH2 0x4C9 JUMPI DUP1 MLOAD PUSH1 0xFF NOT AND DUP4 DUP1 ADD OR DUP6 SSTORE PUSH2 0x4F7 JUMP JUMPDEST DUP3 DUP1 ADD PUSH1 0x1 ADD DUP6 SSTORE DUP3 ISZERO PUSH2 0x4F7 JUMPI SWAP2 DUP3 ADD JUMPDEST DUP3 DUP2 GT ISZERO PUSH2 0x4F6 JUMPI DUP3 MLOAD DUP3 SSTORE SWAP2 PUSH1 0x20 ADD SWAP2 SWAP1 PUSH1 0x1 ADD SWAP1 PUSH2 0x4DB JUMP JUMPDEST JUMPDEST POP SWAP1 POP PUSH2 0x504 SWAP2 SWAP1 PUSH2 0x508 JUMP JUMPDEST POP SWAP1 JUMP JUMPDEST PUSH2 0x52A SWAP2 SWAP1 JUMPDEST DUP1 DUP3 GT ISZERO PUSH2 0x526 JUMPI PUSH1 0x0 DUP2 PUSH1 0x0 SWAP1 SSTORE POP PUSH1 0x1 ADD PUSH2 0x50E JUMP JUMPDEST POP SWAP1 JUMP JUMPDEST SWAP1 JUMP JUMPDEST PUSH1 0x0 DUP2 CALLDATALOAD SWAP1 POP PUSH2 0x53C DUP2 PUSH2 0xC3B JUMP JUMPDEST SWAP3 SWAP2 POP POP JUMP JUMPDEST PUSH1 0x0 DUP3 PUSH1 0x1F DUP4 ADD SLT PUSH2 0x553 JUMPI PUSH1 0x0 DUP1 REVERT JUMPDEST DUP2 CALLDATALOAD PUSH2 0x566 PUSH2 0x561 DUP3 PUSH2 0xAAF JUMP JUMPDEST PUSH2 0xA82 JUMP JUMPDEST SWAP2 POP DUP2 DUP2 DUP4 MSTORE PUSH1 0x20 DUP5 ADD SWAP4 POP PUSH1 0x20 DUP2 ADD SWAP1 POP DUP4 DUP6 PUSH1 0x20 DUP5 MUL DUP3 ADD GT ISZERO PUSH2 0x58B JUMPI PUSH1 0x0 DUP1 REVERT JUMPDEST PUSH1 0x0 JUMPDEST DUP4 DUP2 LT ISZERO PUSH2 0x5BB JUMPI DUP2 PUSH2 0x5A1 DUP9 DUP3 PUSH2 0x52D JUMP JUMPDEST DUP5 MSTORE PUSH1 0x20 DUP5 ADD SWAP4 POP PUSH1 0x20 DUP4 ADD SWAP3 POP POP PUSH1 0x1 DUP2 ADD SWAP1 POP PUSH2 0x58E JUMP JUMPDEST POP POP POP POP SWAP3 SWAP2 POP POP JUMP JUMPDEST PUSH1 0x0 DUP3 PUSH1 0x1F DUP4 ADD SLT PUSH2 0x5D6 JUMPI PUSH1 0x0 DUP1 REVERT JUMPDEST DUP2 CALLDATALOAD PUSH2 0x5E9 PUSH2 0x5E4 DUP3 PUSH2 0xAD7 JUMP JUMPDEST PUSH2 0xA82 JUMP JUMPDEST SWAP2 POP DUP2 DUP2 DUP4 MSTORE PUSH1 0x20 DUP5 ADD SWAP4 POP PUSH1 0x20 DUP2 ADD SWAP1 POP DUP4 PUSH1 0x0 JUMPDEST DUP4 DUP2 LT ISZERO PUSH2 0x62F JUMPI DUP2 CALLDATALOAD DUP7 ADD PUSH2 0x615 DUP9 DUP3 PUSH2 0x6BC JUMP JUMPDEST DUP5 MSTORE PUSH1 0x20 DUP5 ADD SWAP4 POP PUSH1 0x20 DUP4 ADD SWAP3 POP POP PUSH1 0x1 DUP2 ADD SWAP1 POP PUSH2 0x5FF JUMP JUMPDEST POP POP POP POP SWAP3 SWAP2 POP POP JUMP JUMPDEST PUSH1 0x0 DUP3 PUSH1 0x1F DUP4 ADD SLT PUSH2 0x64A JUMPI PUSH1 0x0 DUP1 REVERT JUMPDEST DUP2 CALLDATALOAD PUSH2 0x65D PUSH2 0x658 DUP3 PUSH2 0xAFF JUMP JUMPDEST PUSH2 0xA82 JUMP JUMPDEST SWAP2 POP DUP2 DUP2 DUP4 MSTORE PUSH1 0x20 DUP5 ADD SWAP4 POP PUSH1 0x20 DUP2 ADD SWAP1 POP DUP4 DUP6 PUSH1 0x20 DUP5 MUL DUP3 ADD GT ISZERO PUSH2 0x682 JUMPI PUSH1 0x0 DUP1 REVERT JUMPDEST PUSH1 0x0 JUMPDEST DUP4 DUP2 LT ISZERO PUSH2 0x6B2 JUMPI DUP2 PUSH2 0x698 DUP9 DUP3 PUSH2 0x78E JUMP JUMPDEST DUP5 MSTORE PUSH1 0x20 DUP5 ADD SWAP4 POP PUSH1 0x20 DUP4 ADD SWAP3 POP POP PUSH1 0x1 DUP2 ADD SWAP1 POP PUSH2 0x685 JUMP JUMPDEST POP POP POP POP SWAP3 SWAP2 POP POP JUMP JUMPDEST PUSH1 0x0 DUP3 PUSH1 0x1F DUP4 ADD SLT PUSH2 0x6CD JUMPI PUSH1 0x0 DUP1 REVERT JUMPDEST DUP2 CALLDATALOAD PUSH2 0x6E0 PUSH2 0x6DB DUP3 PUSH2 0xB27 JUMP JUMPDEST PUSH2 0xA82 JUMP JUMPDEST SWAP2 POP DUP1 DUP3 MSTORE PUSH1 0x20 DUP4 ADD PUSH1 0x20 DUP4 ADD DUP6 DUP4 DUP4 ADD GT ISZERO PUSH2 0x6FC JUMPI PUSH1 0x0 DUP1 REVERT JUMPDEST PUSH2 0x707 DUP4 DUP3 DUP5 PUSH2 0xBF9 JUMP JUMPDEST POP POP POP SWAP3 SWAP2 POP POP JUMP JUMPDEST PUSH1 0x0 DUP3 PUSH1 0x1F DUP4 ADD SLT PUSH2 0x721 JUMPI PUSH1 0x0 DUP1 REVERT JUMPDEST DUP2 CALLDATALOAD PUSH2 0x734 PUSH2 0x72F DUP3 PUSH2 0xB53 JUMP JUMPDEST PUSH2 0xA82 JUMP JUMPDEST SWAP2 POP DUP1 DUP3 MSTORE PUSH1 0x20 DUP4 ADD PUSH1 0x20 DUP4 ADD DUP6 DUP4 DUP4 ADD GT ISZERO PUSH2 0x750 JUMPI PUSH1 0x0 DUP1 REVERT JUMPDEST PUSH2 0x75B DUP4 DUP3 DUP5 PUSH2 0xBF9 JUMP JUMPDEST POP POP POP SWAP3 SWAP2 POP POP JUMP JUMPDEST PUSH1 0x0 DUP2 CALLDATALOAD SWAP1 POP PUSH2 0x773 DUP2 PUSH2 0xC52 JUMP JUMPDEST SWAP3 SWAP2 POP POP JUMP JUMPDEST PUSH1 0x0 DUP2 CALLDATALOAD SWAP1 POP PUSH2 0x788 DUP2 PUSH2 0xC69 JUMP JUMPDEST SWAP3 SWAP2 POP POP JUMP JUMPDEST PUSH1 0x0 DUP2 CALLDATALOAD SWAP1 POP PUSH2 0x79D DUP2 PUSH2 0xC80 JUMP JUMPDEST SWAP3 SWAP2 POP POP JUMP JUMPDEST PUSH1 0x0 DUP1 PUSH1 0x0 DUP1 PUSH1 0x80 DUP6 DUP8 SUB SLT ISZERO PUSH2 0x7B9 JUMPI PUSH1 0x0 DUP1 REVERT JUMPDEST PUSH1 0x0 DUP6 ADD CALLDATALOAD PUSH8 0xFFFFFFFFFFFFFFFF DUP2 GT ISZERO PUSH2 0x7D3 JUMPI PUSH1 0x0 DUP1 REVERT JUMPDEST PUSH2 0x7DF DUP8 DUP3 DUP9 ADD PUSH2 0x5C5 JUMP JUMPDEST SWAP5 POP POP PUSH1 0x20 DUP6 ADD CALLDATALOAD PUSH8 0xFFFFFFFFFFFFFFFF DUP2 GT ISZERO PUSH2 0x7FC JUMPI PUSH1 0x0 DUP1 REVERT JUMPDEST PUSH2 0x808 DUP8 DUP3 DUP9 ADD PUSH2 0x542 JUMP JUMPDEST SWAP4 POP POP PUSH1 0x40 DUP6 ADD CALLDATALOAD PUSH8 0xFFFFFFFFFFFFFFFF DUP2 GT ISZERO PUSH2 0x825 JUMPI PUSH1 0x0 DUP1 REVERT JUMPDEST PUSH2 0x831 DUP8 DUP3 DUP9 ADD PUSH2 0x639 JUMP JUMPDEST SWAP3 POP POP PUSH1 0x60 PUSH2 0x842 DUP8 DUP3 DUP9 ADD PUSH2 0x764 JUMP JUMPDEST SWAP2 POP POP SWAP3 SWAP6 SWAP2 SWAP5 POP SWAP3 POP JUMP JUMPDEST PUSH1 0x0 PUSH1 0x20 DUP3 DUP5 SUB SLT ISZERO PUSH2 0x860 JUMPI PUSH1 0x0 DUP1 REVERT JUMPDEST PUSH1 0x0 DUP3 ADD CALLDATALOAD PUSH8 0xFFFFFFFFFFFFFFFF DUP2 GT ISZERO PUSH2 0x87A JUMPI PUSH1 0x0 DUP1 REVERT JUMPDEST PUSH2 0x886 DUP5 DUP3 DUP6 ADD PUSH2 0x710 JUMP JUMPDEST SWAP2 POP POP SWAP3 SWAP2 POP POP JUMP JUMPDEST PUSH1 0x0 DUP1 PUSH1 0x40 DUP4 DUP6 SUB SLT ISZERO PUSH2 0x8A2 JUMPI PUSH1 0x0 DUP1 REVERT JUMPDEST PUSH1 0x0 DUP4 ADD CALLDATALOAD PUSH8 0xFFFFFFFFFFFFFFFF DUP2 GT ISZERO PUSH2 0x8BC JUMPI PUSH1 0x0 DUP1 REVERT JUMPDEST PUSH2 0x8C8 DUP6 DUP3 DUP7 ADD PUSH2 0x710 JUMP JUMPDEST SWAP3 POP POP PUSH1 0x20 PUSH2 0x8D9 DUP6 DUP3 DUP7 ADD PUSH2 0x52D JUMP JUMPDEST SWAP2 POP POP SWAP3 POP SWAP3 SWAP1 POP JUMP JUMPDEST PUSH1 0x0 DUP1 PUSH1 0x0 PUSH1 0x60 DUP5 DUP7 SUB SLT ISZERO PUSH2 0x8F8 JUMPI PUSH1 0x0 DUP1 REVERT JUMPDEST PUSH1 0x0 DUP5 ADD CALLDATALOAD PUSH8 0xFFFFFFFFFFFFFFFF DUP2 GT ISZERO PUSH2 0x912 JUMPI PUSH1 0x0 DUP1 REVERT JUMPDEST PUSH2 0x91E DUP7 DUP3 DUP8 ADD PUSH2 0x710 JUMP JUMPDEST SWAP4 POP POP PUSH1 0x20 PUSH2 0x92F DUP7 DUP3 DUP8 ADD PUSH2 0x52D JUMP JUMPDEST SWAP3 POP POP PUSH1 0x40 PUSH2 0x940 DUP7 DUP3 DUP8 ADD PUSH2 0x78E JUMP JUMPDEST SWAP2 POP POP SWAP3 POP SWAP3 POP SWAP3 JUMP JUMPDEST PUSH1 0x0 DUP1 PUSH1 0x40 DUP4 DUP6 SUB SLT ISZERO PUSH2 0x95D JUMPI PUSH1 0x0 DUP1 REVERT JUMPDEST PUSH1 0x0 PUSH2 0x96B DUP6 DUP3 DUP7 ADD PUSH2 0x779 JUMP JUMPDEST SWAP3 POP POP PUSH1 0x20 DUP4 ADD CALLDATALOAD PUSH8 0xFFFFFFFFFFFFFFFF DUP2 GT ISZERO PUSH2 0x988 JUMPI PUSH1 0x0 DUP1 REVERT JUMPDEST PUSH2 0x994 DUP6 DUP3 DUP7 ADD PUSH2 0x710 JUMP JUMPDEST SWAP2 POP POP SWAP3 POP SWAP3 SWAP1 POP JUMP JUMPDEST PUSH1 0x0 PUSH2 0x9A9 DUP3 PUSH2 0xB8A JUMP JUMPDEST PUSH2 0x9B3 DUP2 DUP6 PUSH2 0xB95 JUMP JUMPDEST SWAP4 POP PUSH2 0x9C3 DUP2 DUP6 PUSH1 0x20 DUP7 ADD PUSH2 0xC08 JUMP JUMPDEST DUP1 DUP5 ADD SWAP2 POP POP SWAP3 SWAP2 POP POP JUMP JUMPDEST PUSH1 0x0 PUSH2 0x9DA DUP3 PUSH2 0xB7F JUMP JUMPDEST PUSH2 0x9E4 DUP2 DUP6 PUSH2 0xB95 JUMP JUMPDEST SWAP4 POP PUSH2 0x9F4 DUP2 DUP6 PUSH1 0x20 DUP7 ADD PUSH2 0xC08 JUMP JUMPDEST DUP1 DUP5 ADD SWAP2 POP POP SWAP3 SWAP2 POP POP JUMP JUMPDEST PUSH2 0xA09 DUP2 PUSH2 0xBDC JUMP JUMPDEST DUP3 MSTORE POP POP JUMP JUMPDEST PUSH2 0xA18 DUP2 PUSH2 0xBEC JUMP JUMPDEST DUP3 MSTORE POP POP JUMP JUMPDEST PUSH1 0x0 PUSH2 0xA2A DUP3 DUP5 PUSH2 0x9CF JUMP JUMPDEST SWAP2 POP DUP2 SWAP1 POP SWAP3 SWAP2 POP POP JUMP JUMPDEST PUSH1 0x0 PUSH2 0xA41 DUP3 DUP5 PUSH2 0x99E JUMP JUMPDEST SWAP2 POP DUP2 SWAP1 POP SWAP3 SWAP2 POP POP JUMP JUMPDEST PUSH1 0x0 PUSH1 0x20 DUP3 ADD SWAP1 POP PUSH2 0xA61 PUSH1 0x0 DUP4 ADD DUP5 PUSH2 0xA00 JUMP JUMPDEST SWAP3 SWAP2 POP POP JUMP JUMPDEST PUSH1 0x0 PUSH1 0x20 DUP3 ADD SWAP1 POP PUSH2 0xA7C PUSH1 0x0 DUP4 ADD DUP5 PUSH2 0xA0F JUMP JUMPDEST SWAP3 SWAP2 POP POP JUMP JUMPDEST PUSH1 0x0 PUSH1 0x40 MLOAD SWAP1 POP DUP2 DUP2 ADD DUP2 DUP2 LT PUSH8 0xFFFFFFFFFFFFFFFF DUP3 GT OR ISZERO PUSH2 0xAA5 JUMPI PUSH1 0x0 DUP1 REVERT JUMPDEST DUP1 PUSH1 0x40 MSTORE POP SWAP2 SWAP1 POP JUMP JUMPDEST PUSH1 0x0 PUSH8 0xFFFFFFFFFFFFFFFF DUP3 GT ISZERO PUSH2 0xAC6 JUMPI PUSH1 0x0 DUP1 REVERT JUMPDEST PUSH1 0x20 DUP3 MUL SWAP1 POP PUSH1 0x20 DUP2 ADD SWAP1 POP SWAP2 SWAP1 POP JUMP JUMPDEST PUSH1 0x0 PUSH8 0xFFFFFFFFFFFFFFFF DUP3 GT ISZERO PUSH2 0xAEE JUMPI PUSH1 0x0 DUP1 REVERT JUMPDEST PUSH1 0x20 DUP3 MUL SWAP1 POP PUSH1 0x20 DUP2 ADD SWAP1 POP SWAP2 SWAP1 POP JUMP JUMPDEST PUSH1 0x0 PUSH8 0xFFFFFFFFFFFFFFFF DUP3 GT ISZERO PUSH2 0xB16 JUMPI PUSH1 0x0 DUP1 REVERT JUMPDEST PUSH1 0x20 DUP3 MUL SWAP1 POP PUSH1 0x20 DUP2 ADD SWAP1 POP SWAP2 SWAP1 POP JUMP JUMPDEST PUSH1 0x0 PUSH8 0xFFFFFFFFFFFFFFFF DUP3 GT ISZERO PUSH2 0xB3E JUMPI PUSH1 0x0 DUP1 REVERT JUMPDEST PUSH1 0x1F NOT PUSH1 0x1F DUP4 ADD AND SWAP1 POP PUSH1 0x20 DUP2 ADD SWAP1 POP SWAP2 SWAP1 POP JUMP JUMPDEST PUSH1 0x0 PUSH8 0xFFFFFFFFFFFFFFFF DUP3 GT ISZERO PUSH2 0xB6A JUMPI PUSH1 0x0 DUP1 REVERT JUMPDEST PUSH1 0x1F NOT PUSH1 0x1F DUP4 ADD AND SWAP1 POP PUSH1 0x20 DUP2 ADD SWAP1 POP SWAP2 SWAP1 POP JUMP JUMPDEST PUSH1 0x0 DUP2 MLOAD SWAP1 POP SWAP2 SWAP1 POP JUMP JUMPDEST PUSH1 0x0 DUP2 MLOAD SWAP1 POP SWAP2 SWAP1 POP JUMP JUMPDEST PUSH1 0x0 DUP2 SWAP1 POP SWAP3 SWAP2 POP POP JUMP JUMPDEST PUSH1 0x0 PUSH2 0xBAB DUP3 PUSH2 0xBB2 JUMP JUMPDEST SWAP1 POP SWAP2 SWAP1 POP JUMP JUMPDEST PUSH1 0x0 PUSH20 0xFFFFFFFFFFFFFFFFFFFFFFFFFFFFFFFFFFFFFFFF DUP3 AND SWAP1 POP SWAP2 SWAP1 POP JUMP JUMPDEST PUSH1 0x0 DUP2 SWAP1 POP SWAP2 SWAP1 POP JUMP JUMPDEST PUSH1 0x0 PUSH4 0xFFFFFFFF DUP3 AND SWAP1 POP SWAP2 SWAP1 POP JUMP JUMPDEST PUSH1 0x0 PUSH1 0xFF DUP3 AND SWAP1 POP SWAP2 SWAP1 POP JUMP JUMPDEST DUP3 DUP2 DUP4 CALLDATACOPY PUSH1 0x0 DUP4 DUP4 ADD MSTORE POP POP POP JUMP JUMPDEST PUSH1 0x0 JUMPDEST DUP4 DUP2 LT ISZERO PUSH2 0xC26 JUMPI DUP1 DUP3 ADD MLOAD DUP2 DUP5 ADD MSTORE PUSH1 0x20 DUP2 ADD SWAP1 POP PUSH2 0xC0B JUMP JUMPDEST DUP4 DUP2 GT ISZERO PUSH2 0xC35 JUMPI PUSH1 0x0 DUP5 DUP5 ADD MSTORE JUMPDEST POP POP POP POP JUMP JUMPDEST PUSH2 0xC44 DUP2 PUSH2 0xBA0 JUMP JUMPDEST DUP2 EQ PUSH2 0xC4F JUMPI PUSH1 0x0 DUP1 REVERT JUMPDEST POP JUMP JUMPDEST PUSH2 0xC5B DUP2 PUSH2 0xBD2 JUMP JUMPDEST DUP2 EQ PUSH2 0xC66 JUMPI PUSH1 0x0 DUP1 REVERT JUMPDEST POP JUMP JUMPDEST PUSH2 0xC72 DUP2 PUSH2 0xBDC JUMP JUMPDEST DUP2 EQ PUSH2 0xC7D JUMPI PUSH1 0x0 DUP1 REVERT JUMPDEST POP JUMP JUMPDEST PUSH2 0xC89 DUP2 PUSH2 0xBEC JUMP JUMPDEST DUP2 EQ PUSH2 0xC94 JUMPI PUSH1 0x0 DUP1 REVERT JUMPDEST POP JUMP INVALID LOG3 PUSH6 0x627A7A723158 KECCAK256 0x4B 0xB7 SWAP5 0xE1 0xE PUSH30 0x985B06E5D4F0023FFC76C387496A9C60C1FE0595BF6CF621FD0F6C657870 PUSH6 0x72696D656E74 PUSH2 0x6CF5 PUSH5 0x736F6C6343 STOP SDIV GT STOP BLOCKHASH "
				},
				"gasEstimates": {
					"creation": {
						"codeDepositCost": "658000",
						"executionCost": "689",
						"totalCost": "658689"
					},
					"external": {
						"deleteVariable(string)": "infinite",
						"getAccess(string,address)": "infinite",
						"getVariableValue()": "1224",
						"setVariableName(string)": "infinite",
						"updateMatrix(string,address,uint8)": "infinite",
						"updateMultipleMatrix(string[],address[],uint8[],uint256)": "infinite",
						"updateValue(uint32,string)": "infinite"
					}
				},
				"methodIdentifiers": {
					"deleteVariable(string)": "f472c386",
					"getAccess(string,address)": "dd1b91de",
					"getVariableValue()": "11f55424",
					"setVariableName(string)": "0bd7c200",
					"updateMatrix(string,address,uint8)": "34b9eb7d",
					"updateMultipleMatrix(string[],address[],uint8[],uint256)": "f1af653c",
					"updateValue(uint32,string)": "0da08fe7"
				}
			},
			"storageLayout": {
				"storage": [
					{
						"astId": 8,
						"contract": "Access_Matrix.sol:Access_matrix",
						"label": "matrix",
						"offset": 0,
						"slot": "0",
						"type": "t_mapping(t_string_memory,t_mapping(t_address,t_uint8))"
					},
					{
						"astId": 10,
						"contract": "Access_Matrix.sol:Access_matrix",
						"label": "variable",
						"offset": 0,
						"slot": "1",
						"type": "t_uint32"
					},
					{
						"astId": 12,
						"contract": "Access_Matrix.sol:Access_matrix",
						"label": "name",
						"offset": 0,
						"slot": "2",
						"type": "t_string_storage"
					}
				],
				"types": {
					"t_address": {
						"encoding": "inplace",
						"label": "address",
						"numberOfBytes": "20"
					},
					"t_mapping(t_address,t_uint8)": {
						"encoding": "mapping",
						"key": "t_address",
						"label": "mapping(address => uint8)",
						"numberOfBytes": "32",
						"value": "t_uint8"
					},
					"t_mapping(t_string_memory,t_mapping(t_address,t_uint8))": {
						"encoding": "mapping",
						"key": "t_string_memory",
						"label": "mapping(string => mapping(address => uint8))",
						"numberOfBytes": "32",
						"value": "t_mapping(t_address,t_uint8)"
					},
					"t_string_memory": {
						"encoding": "bytes",
						"label": "string",
						"numberOfBytes": "32"
					},
					"t_string_storage": {
						"encoding": "bytes",
						"label": "string",
						"numberOfBytes": "32"
					},
					"t_uint32": {
						"encoding": "inplace",
						"label": "uint32",
						"numberOfBytes": "4"
					},
					"t_uint8": {
						"encoding": "inplace",
						"label": "uint8",
						"numberOfBytes": "1"
					}
				}
			},
			"userdoc": {
				"methods": {}
			}
		}
	}
}