{
	"Access_Matrix.sol": {
		"Access_matrix": {
			"abi": [
				{
					"constant": false,
					"inputs": [
						{
							"internalType": "string",
							"name": "_hash",
							"type": "string"
						},
						{
							"internalType": "string",
							"name": "_activity",
							"type": "string"
						}
					],
					"name": "deleteVariable",
					"outputs": [],
					"payable": false,
					"stateMutability": "nonpayable",
					"type": "function"
				},
				{
					"constant": true,
					"inputs": [
						{
							"internalType": "string",
							"name": "_hash",
							"type": "string"
						},
						{
							"internalType": "string",
							"name": "_activity",
							"type": "string"
						},
						{
							"internalType": "address",
							"name": "_role",
							"type": "address"
						}
					],
					"name": "getAccess",
					"outputs": [
						{
							"internalType": "uint8",
							"name": "_access",
							"type": "uint8"
						}
					],
					"payable": false,
					"stateMutability": "view",
					"type": "function"
				},
				{
					"constant": true,
					"inputs": [
						{
							"internalType": "string",
							"name": "_hash",
							"type": "string"
						}
					],
					"name": "getVariableName",
					"outputs": [
						{
							"internalType": "string",
							"name": "_varName",
							"type": "string"
						}
					],
					"payable": false,
					"stateMutability": "view",
					"type": "function"
				},
				{
					"constant": true,
					"inputs": [
						{
							"internalType": "string",
							"name": "_hash",
							"type": "string"
						}
					],
					"name": "getVariableValue",
					"outputs": [
						{
							"internalType": "uint32",
							"name": "_var",
							"type": "uint32"
						}
					],
					"payable": false,
					"stateMutability": "view",
					"type": "function"
				},
				{
					"constant": false,
					"inputs": [
						{
							"internalType": "string",
							"name": "_hash",
							"type": "string"
						},
						{
							"internalType": "string",
							"name": "_newName",
							"type": "string"
						}
					],
					"name": "setVariableName",
					"outputs": [],
					"payable": false,
					"stateMutability": "nonpayable",
					"type": "function"
				},
				{
					"constant": false,
					"inputs": [
						{
							"internalType": "string",
							"name": "_hash",
							"type": "string"
						},
						{
							"internalType": "string",
							"name": "_activity",
							"type": "string"
						},
						{
							"internalType": "address",
							"name": "_role",
							"type": "address"
						},
						{
							"internalType": "uint8",
							"name": "_val",
							"type": "uint8"
						}
					],
					"name": "updateMatrix",
					"outputs": [],
					"payable": false,
					"stateMutability": "nonpayable",
					"type": "function"
				},
				{
					"constant": false,
					"inputs": [
						{
							"internalType": "string",
							"name": "_hash",
							"type": "string"
						},
						{
							"internalType": "uint32",
							"name": "_variable_value",
							"type": "uint32"
						},
						{
							"internalType": "string",
							"name": "_activity",
							"type": "string"
						}
					],
					"name": "updateValue",
					"outputs": [],
					"payable": false,
					"stateMutability": "nonpayable",
					"type": "function"
				},
				{
					"constant": false,
					"inputs": [
						{
							"internalType": "string",
							"name": "_hash",
							"type": "string"
						},
						{
							"internalType": "string[]",
							"name": "_activities",
							"type": "string[]"
						},
						{
							"internalType": "address[]",
							"name": "_roles",
							"type": "address[]"
						},
						{
							"internalType": "uint8[]",
							"name": "_vals",
							"type": "uint8[]"
						},
						{
							"internalType": "uint256",
							"name": "nbOfElements",
							"type": "uint256"
						}
					],
					"name": "uploadMatrix",
					"outputs": [],
					"payable": false,
					"stateMutability": "nonpayable",
					"type": "function"
				}
			],
			"devdoc": {
				"methods": {
					"deleteVariable(string,string)": {
						"details": "deletes the contract if the caller has the authorization (first bit starting from right).",
						"params": {
							"_activity": "that want to have access"
						}
					},
					"getVariableValue(string)": {
						"details": "Get the variable value",
						"return": "_var the variable value "
					},
					"updateMatrix(string,string,address,uint8)": {
						"details": "Update an entry of the access matrix",
						"params": {
							"_activity": "is the name of the activity ",
							"_role": "is the role",
							"_val": "is a 4 bit int that allows to find if a certain matrix entry has access or not to a vraiable (read,write,create,delete) are the four bits."
						}
					},
					"updateValue(string,uint32,string)": {
						"details": "Update the variable value if the caller has access",
						"params": {
							"_activity": "name of the activity that want to update the variable value",
							"_variable_value": "new variable value "
						}
					}
				}
			},
			"evm": {
				"assembly": "    /* \"Access_Matrix.sol\":94:2653  contract Access_matrix {... */\n  mstore(0x40, 0x80)\n  callvalue\n    /* \"--CODEGEN--\":8:17   */\n  dup1\n    /* \"--CODEGEN--\":5:7   */\n  iszero\n  tag_1\n  jumpi\n    /* \"--CODEGEN--\":30:31   */\n  0x00\n    /* \"--CODEGEN--\":27:28   */\n  dup1\n    /* \"--CODEGEN--\":20:32   */\n  revert\n    /* \"--CODEGEN--\":5:7   */\ntag_1:\n    /* \"Access_Matrix.sol\":94:2653  contract Access_matrix {... */\n  pop\n  dataSize(sub_0)\n  dup1\n  dataOffset(sub_0)\n  0x00\n  codecopy\n  0x00\n  return\nstop\n\nsub_0: assembly {\n        /* \"Access_Matrix.sol\":94:2653  contract Access_matrix {... */\n      mstore(0x40, 0x80)\n      callvalue\n        /* \"--CODEGEN--\":8:17   */\n      dup1\n        /* \"--CODEGEN--\":5:7   */\n      iszero\n      tag_1\n      jumpi\n        /* \"--CODEGEN--\":30:31   */\n      0x00\n        /* \"--CODEGEN--\":27:28   */\n      dup1\n        /* \"--CODEGEN--\":20:32   */\n      revert\n        /* \"--CODEGEN--\":5:7   */\n    tag_1:\n        /* \"Access_Matrix.sol\":94:2653  contract Access_matrix {... */\n      pop\n      jumpi(tag_2, lt(calldatasize, 0x04))\n      shr(0xe0, calldataload(0x00))\n      dup1\n      0x6877473e\n      gt\n      tag_11\n      jumpi\n      dup1\n      0x6877473e\n      eq\n      tag_7\n      jumpi\n      dup1\n      0x6cb1f394\n      eq\n      tag_8\n      jumpi\n      dup1\n      0xb8f88aad\n      eq\n      tag_9\n      jumpi\n      dup1\n      0xd6dd2a2b\n      eq\n      tag_10\n      jumpi\n      jump(tag_2)\n    tag_11:\n      dup1\n      0x21d3473b\n      eq\n      tag_3\n      jumpi\n      dup1\n      0x23eab7ff\n      eq\n      tag_4\n      jumpi\n      dup1\n      0x26e1a9e7\n      eq\n      tag_5\n      jumpi\n      dup1\n      0x34a12cf8\n      eq\n      tag_6\n      jumpi\n    tag_2:\n      0x00\n      dup1\n      revert\n        /* \"Access_Matrix.sol\":2055:2235  function getAccess(string memory _hash, string memory _activity, address _role) public view returns (uint8 _access) {... */\n    tag_3:\n      tag_12\n      0x04\n      dup1\n      calldatasize\n      sub\n      tag_13\n      swap2\n      swap1\n      dup2\n      add\n      swap1\n      jump(tag_14)\n    tag_13:\n      tag_15\n      jump\t// in\n    tag_12:\n      mload(0x40)\n      tag_16\n      swap2\n      swap1\n      jump(tag_17)\n    tag_16:\n      mload(0x40)\n      dup1\n      swap2\n      sub\n      swap1\n      return\n        /* \"Access_Matrix.sol\":906:1040  function getVariableName(string memory _hash) public view returns (string memory _varName) {... */\n    tag_4:\n      tag_18\n      0x04\n      dup1\n      calldatasize\n      sub\n      tag_19\n      swap2\n      swap1\n      dup2\n      add\n      swap1\n      jump(tag_20)\n    tag_19:\n      tag_21\n      jump\t// in\n    tag_18:\n      mload(0x40)\n      tag_22\n      swap2\n      swap1\n      jump(tag_23)\n    tag_22:\n      mload(0x40)\n      dup1\n      swap2\n      sub\n      swap1\n      return\n        /* \"Access_Matrix.sol\":2420:2651  function deleteVariable(string memory _hash, string memory _activity) public {... */\n    tag_5:\n      tag_24\n      0x04\n      dup1\n      calldatasize\n      sub\n      tag_25\n      swap2\n      swap1\n      dup2\n      add\n      swap1\n      jump(tag_26)\n    tag_25:\n      tag_27\n      jump\t// in\n    tag_24:\n      stop\n        /* \"Access_Matrix.sol\":776:900  function setVariableName(string memory _hash, string memory _newName) public {... */\n    tag_6:\n      tag_28\n      0x04\n      dup1\n      calldatasize\n      sub\n      tag_29\n      swap2\n      swap1\n      dup2\n      add\n      swap1\n      jump(tag_26)\n    tag_29:\n      tag_30\n      jump\t// in\n    tag_28:\n      stop\n        /* \"Access_Matrix.sol\":1923:2049  function getVariableValue(string memory _hash) public view returns (uint32 _var){... */\n    tag_7:\n      tag_31\n      0x04\n      dup1\n      calldatasize\n      sub\n      tag_32\n      swap2\n      swap1\n      dup2\n      add\n      swap1\n      jump(tag_20)\n    tag_32:\n      tag_33\n      jump\t// in\n    tag_31:\n      mload(0x40)\n      tag_34\n      swap2\n      swap1\n      jump(tag_35)\n    tag_34:\n      mload(0x40)\n      dup1\n      swap2\n      sub\n      swap1\n      return\n        /* \"Access_Matrix.sol\":1557:1831  function updateValue(string memory _hash, uint32 _variable_value, string memory _activity) public {... */\n    tag_8:\n      tag_36\n      0x04\n      dup1\n      calldatasize\n      sub\n      tag_37\n      swap2\n      swap1\n      dup2\n      add\n      swap1\n      jump(tag_38)\n    tag_37:\n      tag_39\n      jump\t// in\n    tag_36:\n      stop\n        /* \"Access_Matrix.sol\":1046:1325  function uploadMatrix(string memory _hash, string[] memory _activities, address[] memory _roles, uint8[] memory _vals, uint nbOfElements) public {... */\n    tag_9:\n      tag_40\n      0x04\n      dup1\n      calldatasize\n      sub\n      tag_41\n      swap2\n      swap1\n      dup2\n      add\n      swap1\n      jump(tag_42)\n    tag_41:\n      tag_43\n      jump\t// in\n    tag_40:\n      stop\n        /* \"Access_Matrix.sol\":605:770  function updateMatrix(string memory _hash, string memory _activity, address _role, uint8 _val) public {... */\n    tag_10:\n      tag_44\n      0x04\n      dup1\n      calldatasize\n      sub\n      tag_45\n      swap2\n      swap1\n      dup2\n      add\n      swap1\n      jump(tag_46)\n    tag_45:\n      tag_47\n      jump\t// in\n    tag_44:\n      stop\n        /* \"Access_Matrix.sol\":2055:2235  function getAccess(string memory _hash, string memory _activity, address _role) public view returns (uint8 _access) {... */\n    tag_15:\n        /* \"Access_Matrix.sol\":2156:2169  uint8 _access */\n      0x00\n        /* \"Access_Matrix.sol\":2187:2196  variables */\n      dup1\n        /* \"Access_Matrix.sol\":2197:2202  _hash */\n      dup5\n        /* \"Access_Matrix.sol\":2187:2203  variables[_hash] */\n      mload(0x40)\n      tag_49\n      swap2\n      swap1\n      jump(tag_50)\n    tag_49:\n      swap1\n      dup2\n      mstore\n      0x20\n      add\n      mload(0x40)\n      dup1\n      swap2\n      sub\n      swap1\n      keccak256\n        /* \"Access_Matrix.sol\":2187:2210  variables[_hash].matrix */\n      0x00\n      add\n        /* \"Access_Matrix.sol\":2211:2220  _activity */\n      dup4\n        /* \"Access_Matrix.sol\":2187:2221  variables[_hash].matrix[_activity] */\n      mload(0x40)\n      tag_51\n      swap2\n      swap1\n      jump(tag_50)\n    tag_51:\n      swap1\n      dup2\n      mstore\n      0x20\n      add\n      mload(0x40)\n      dup1\n      swap2\n      sub\n      swap1\n      keccak256\n        /* \"Access_Matrix.sol\":2187:2228  variables[_hash].matrix[_activity][_role] */\n      0x00\n        /* \"Access_Matrix.sol\":2222:2227  _role */\n      dup4\n        /* \"Access_Matrix.sol\":2187:2228  variables[_hash].matrix[_activity][_role] */\n      0xffffffffffffffffffffffffffffffffffffffff\n      and\n      0xffffffffffffffffffffffffffffffffffffffff\n      and\n      dup2\n      mstore\n      0x20\n      add\n      swap1\n      dup2\n      mstore\n      0x20\n      add\n      0x00\n      keccak256\n      0x00\n      swap1\n      sload\n      swap1\n      0x0100\n      exp\n      swap1\n      div\n      0xff\n      and\n        /* \"Access_Matrix.sol\":2179:2228  return  variables[_hash].matrix[_activity][_role] */\n      swap1\n      pop\n        /* \"Access_Matrix.sol\":2055:2235  function getAccess(string memory _hash, string memory _activity, address _role) public view returns (uint8 _access) {... */\n      swap4\n      swap3\n      pop\n      pop\n      pop\n      jump\t// out\n        /* \"Access_Matrix.sol\":906:1040  function getVariableName(string memory _hash) public view returns (string memory _varName) {... */\n    tag_21:\n        /* \"Access_Matrix.sol\":973:995  string memory _varName */\n      0x60\n        /* \"Access_Matrix.sol\":1012:1021  variables */\n      0x00\n        /* \"Access_Matrix.sol\":1022:1027  _hash */\n      dup3\n        /* \"Access_Matrix.sol\":1012:1028  variables[_hash] */\n      mload(0x40)\n      tag_53\n      swap2\n      swap1\n      jump(tag_50)\n    tag_53:\n      swap1\n      dup2\n      mstore\n      0x20\n      add\n      mload(0x40)\n      dup1\n      swap2\n      sub\n      swap1\n      keccak256\n        /* \"Access_Matrix.sol\":1012:1033  variables[_hash].name */\n      0x02\n      add\n        /* \"Access_Matrix.sol\":1005:1033  return variables[_hash].name */\n      dup1\n      sload\n      0x01\n      dup2\n      0x01\n      and\n      iszero\n      0x0100\n      mul\n      sub\n      and\n      0x02\n      swap1\n      div\n      dup1\n      0x1f\n      add\n      0x20\n      dup1\n      swap2\n      div\n      mul\n      0x20\n      add\n      mload(0x40)\n      swap1\n      dup2\n      add\n      0x40\n      mstore\n      dup1\n      swap3\n      swap2\n      swap1\n      dup2\n      dup2\n      mstore\n      0x20\n      add\n      dup3\n      dup1\n      sload\n      0x01\n      dup2\n      0x01\n      and\n      iszero\n      0x0100\n      mul\n      sub\n      and\n      0x02\n      swap1\n      div\n      dup1\n      iszero\n      tag_54\n      jumpi\n      dup1\n      0x1f\n      lt\n      tag_55\n      jumpi\n      0x0100\n      dup1\n      dup4\n      sload\n      div\n      mul\n      dup4\n      mstore\n      swap2\n      0x20\n      add\n      swap2\n      jump(tag_54)\n    tag_55:\n      dup3\n      add\n      swap2\n      swap1\n      0x00\n      mstore\n      keccak256(0x00, 0x20)\n      swap1\n    tag_56:\n      dup2\n      sload\n      dup2\n      mstore\n      swap1\n      0x01\n      add\n      swap1\n      0x20\n      add\n      dup1\n      dup4\n      gt\n      tag_56\n      jumpi\n      dup3\n      swap1\n      sub\n      0x1f\n      and\n      dup3\n      add\n      swap2\n    tag_54:\n      pop\n      pop\n      pop\n      pop\n      pop\n      swap1\n      pop\n        /* \"Access_Matrix.sol\":906:1040  function getVariableName(string memory _hash) public view returns (string memory _varName) {... */\n      swap2\n      swap1\n      pop\n      jump\t// out\n        /* \"Access_Matrix.sol\":2420:2651  function deleteVariable(string memory _hash, string memory _activity) public {... */\n    tag_27:\n        /* \"Access_Matrix.sol\":2507:2522  bool has_access */\n      0x00\n        /* \"Access_Matrix.sol\":2581:2582  1 */\n      0x01\n        /* \"Access_Matrix.sol\":2576:2577  1 */\n      dup1\n        /* \"Access_Matrix.sol\":2526:2535  variables */\n      0x00\n        /* \"Access_Matrix.sol\":2536:2541  _hash */\n      dup6\n        /* \"Access_Matrix.sol\":2526:2542  variables[_hash] */\n      mload(0x40)\n      tag_58\n      swap2\n      swap1\n      jump(tag_50)\n    tag_58:\n      swap1\n      dup2\n      mstore\n      0x20\n      add\n      mload(0x40)\n      dup1\n      swap2\n      sub\n      swap1\n      keccak256\n        /* \"Access_Matrix.sol\":2526:2549  variables[_hash].matrix */\n      0x00\n      add\n        /* \"Access_Matrix.sol\":2550:2559  _activity */\n      dup5\n        /* \"Access_Matrix.sol\":2526:2560  variables[_hash].matrix[_activity] */\n      mload(0x40)\n      tag_59\n      swap2\n      swap1\n      jump(tag_50)\n    tag_59:\n      swap1\n      dup2\n      mstore\n      0x20\n      add\n      mload(0x40)\n      dup1\n      swap2\n      sub\n      swap1\n      keccak256\n        /* \"Access_Matrix.sol\":2526:2572  variables[_hash].matrix[_activity][msg.sender] */\n      0x00\n        /* \"Access_Matrix.sol\":2561:2571  msg.sender */\n      caller\n        /* \"Access_Matrix.sol\":2526:2572  variables[_hash].matrix[_activity][msg.sender] */\n      0xffffffffffffffffffffffffffffffffffffffff\n      and\n      0xffffffffffffffffffffffffffffffffffffffff\n      and\n      dup2\n      mstore\n      0x20\n      add\n      swap1\n      dup2\n      mstore\n      0x20\n      add\n      0x00\n      keccak256\n      0x00\n      swap1\n      sload\n      swap1\n      0x0100\n      exp\n      swap1\n      div\n      0xff\n      and\n        /* \"Access_Matrix.sol\":2525:2577  (variables[_hash].matrix[_activity][msg.sender]) & 1 */\n      and\n        /* \"Access_Matrix.sol\":2525:2582  (variables[_hash].matrix[_activity][msg.sender]) & 1 == 1 */\n      0xff\n      and\n      eq\n        /* \"Access_Matrix.sol\":2507:2582  bool has_access = (variables[_hash].matrix[_activity][msg.sender]) & 1 == 1 */\n      swap1\n      pop\n        /* \"Access_Matrix.sol\":2599:2609  has_access */\n      dup1\n        /* \"Access_Matrix.sol\":2592:2610  assert(has_access) */\n      tag_60\n      jumpi\n      invalid\n    tag_60:\n        /* \"Access_Matrix.sol\":2633:2643  msg.sender */\n      caller\n        /* \"Access_Matrix.sol\":2620:2644  selfdestruct(msg.sender) */\n      0xffffffffffffffffffffffffffffffffffffffff\n      and\n      selfdestruct\n        /* \"Access_Matrix.sol\":776:900  function setVariableName(string memory _hash, string memory _newName) public {... */\n    tag_30:\n        /* \"Access_Matrix.sol\":885:893  _newName */\n      dup1\n        /* \"Access_Matrix.sol\":861:870  variables */\n      0x00\n        /* \"Access_Matrix.sol\":871:876  _hash */\n      dup4\n        /* \"Access_Matrix.sol\":861:877  variables[_hash] */\n      mload(0x40)\n      tag_62\n      swap2\n      swap1\n      jump(tag_50)\n    tag_62:\n      swap1\n      dup2\n      mstore\n      0x20\n      add\n      mload(0x40)\n      dup1\n      swap2\n      sub\n      swap1\n      keccak256\n        /* \"Access_Matrix.sol\":861:882  variables[_hash].name */\n      0x02\n      add\n        /* \"Access_Matrix.sol\":861:893  variables[_hash].name = _newName */\n      swap1\n      dup1\n      mload\n      swap1\n      0x20\n      add\n      swap1\n      tag_63\n      swap3\n      swap2\n      swap1\n      tag_64\n      jump\t// in\n    tag_63:\n      pop\n        /* \"Access_Matrix.sol\":776:900  function setVariableName(string memory _hash, string memory _newName) public {... */\n      pop\n      pop\n      jump\t// out\n        /* \"Access_Matrix.sol\":1923:2049  function getVariableValue(string memory _hash) public view returns (uint32 _var){... */\n    tag_33:\n        /* \"Access_Matrix.sol\":1991:2002  uint32 _var */\n      0x00\n        /* \"Access_Matrix.sol\":2020:2029  variables */\n      dup1\n        /* \"Access_Matrix.sol\":2030:2035  _hash */\n      dup3\n        /* \"Access_Matrix.sol\":2020:2036  variables[_hash] */\n      mload(0x40)\n      tag_66\n      swap2\n      swap1\n      jump(tag_50)\n    tag_66:\n      swap1\n      dup2\n      mstore\n      0x20\n      add\n      mload(0x40)\n      dup1\n      swap2\n      sub\n      swap1\n      keccak256\n        /* \"Access_Matrix.sol\":2020:2042  variables[_hash].value */\n      0x01\n      add\n      0x00\n      swap1\n      sload\n      swap1\n      0x0100\n      exp\n      swap1\n      div\n      0xffffffff\n      and\n        /* \"Access_Matrix.sol\":2013:2042  return variables[_hash].value */\n      swap1\n      pop\n        /* \"Access_Matrix.sol\":1923:2049  function getVariableValue(string memory _hash) public view returns (uint32 _var){... */\n      swap2\n      swap1\n      pop\n      jump\t// out\n        /* \"Access_Matrix.sol\":1557:1831  function updateValue(string memory _hash, uint32 _variable_value, string memory _activity) public {... */\n    tag_39:\n        /* \"Access_Matrix.sol\":1665:1680  bool has_access */\n      0x00\n        /* \"Access_Matrix.sol\":1745:1746  1 */\n      0x01\n        /* \"Access_Matrix.sol\":1740:1741  1 */\n      dup1\n        /* \"Access_Matrix.sol\":1734:1735  3 */\n      0x03\n        /* \"Access_Matrix.sol\":1684:1693  variables */\n      0x00\n        /* \"Access_Matrix.sol\":1694:1699  _hash */\n      dup8\n        /* \"Access_Matrix.sol\":1684:1700  variables[_hash] */\n      mload(0x40)\n      tag_68\n      swap2\n      swap1\n      jump(tag_50)\n    tag_68:\n      swap1\n      dup2\n      mstore\n      0x20\n      add\n      mload(0x40)\n      dup1\n      swap2\n      sub\n      swap1\n      keccak256\n        /* \"Access_Matrix.sol\":1684:1707  variables[_hash].matrix */\n      0x00\n      add\n        /* \"Access_Matrix.sol\":1708:1717  _activity */\n      dup6\n        /* \"Access_Matrix.sol\":1684:1718  variables[_hash].matrix[_activity] */\n      mload(0x40)\n      tag_69\n      swap2\n      swap1\n      jump(tag_50)\n    tag_69:\n      swap1\n      dup2\n      mstore\n      0x20\n      add\n      mload(0x40)\n      dup1\n      swap2\n      sub\n      swap1\n      keccak256\n        /* \"Access_Matrix.sol\":1684:1730  variables[_hash].matrix[_activity][msg.sender] */\n      0x00\n        /* \"Access_Matrix.sol\":1719:1729  msg.sender */\n      caller\n        /* \"Access_Matrix.sol\":1684:1730  variables[_hash].matrix[_activity][msg.sender] */\n      0xffffffffffffffffffffffffffffffffffffffff\n      and\n      0xffffffffffffffffffffffffffffffffffffffff\n      and\n      dup2\n      mstore\n      0x20\n      add\n      swap1\n      dup2\n      mstore\n      0x20\n      add\n      0x00\n      keccak256\n      0x00\n      swap1\n      sload\n      swap1\n      0x0100\n      exp\n      swap1\n      div\n      0xff\n      and\n        /* \"Access_Matrix.sol\":1684:1735  variables[_hash].matrix[_activity][msg.sender] >> 3 */\n      0xff\n      and\n      swap1\n      shr\n        /* \"Access_Matrix.sol\":1683:1741  (variables[_hash].matrix[_activity][msg.sender] >> 3 ) & 1 */\n      and\n        /* \"Access_Matrix.sol\":1683:1746  (variables[_hash].matrix[_activity][msg.sender] >> 3 ) & 1 == 1 */\n      0xff\n      and\n      eq\n        /* \"Access_Matrix.sol\":1665:1746  bool has_access = (variables[_hash].matrix[_activity][msg.sender] >> 3 ) & 1 == 1 */\n      swap1\n      pop\n        /* \"Access_Matrix.sol\":1763:1773  has_access */\n      dup1\n        /* \"Access_Matrix.sol\":1756:1774  assert(has_access) */\n      tag_70\n      jumpi\n      invalid\n    tag_70:\n        /* \"Access_Matrix.sol\":1809:1824  _variable_value */\n      dup3\n        /* \"Access_Matrix.sol\":1784:1793  variables */\n      0x00\n        /* \"Access_Matrix.sol\":1794:1799  _hash */\n      dup6\n        /* \"Access_Matrix.sol\":1784:1800  variables[_hash] */\n      mload(0x40)\n      tag_71\n      swap2\n      swap1\n      jump(tag_50)\n    tag_71:\n      swap1\n      dup2\n      mstore\n      0x20\n      add\n      mload(0x40)\n      dup1\n      swap2\n      sub\n      swap1\n      keccak256\n        /* \"Access_Matrix.sol\":1784:1806  variables[_hash].value */\n      0x01\n      add\n      0x00\n        /* \"Access_Matrix.sol\":1784:1824  variables[_hash].value = _variable_value */\n      0x0100\n      exp\n      dup2\n      sload\n      dup2\n      0xffffffff\n      mul\n      not\n      and\n      swap1\n      dup4\n      0xffffffff\n      and\n      mul\n      or\n      swap1\n      sstore\n      pop\n        /* \"Access_Matrix.sol\":1557:1831  function updateValue(string memory _hash, uint32 _variable_value, string memory _activity) public {... */\n      pop\n      pop\n      pop\n      pop\n      jump\t// out\n        /* \"Access_Matrix.sol\":1046:1325  function uploadMatrix(string memory _hash, string[] memory _activities, address[] memory _roles, uint8[] memory _vals, uint nbOfElements) public {... */\n    tag_43:\n        /* \"Access_Matrix.sol\":1203:1209  uint k */\n      0x00\n        /* \"Access_Matrix.sol\":1212:1213  0 */\n      dup1\n        /* \"Access_Matrix.sol\":1203:1213  uint k = 0 */\n      swap1\n      pop\n        /* \"Access_Matrix.sol\":1199:1319  for(uint k = 0; k < nbOfElements; k++) {... */\n    tag_73:\n        /* \"Access_Matrix.sol\":1219:1231  nbOfElements */\n      dup2\n        /* \"Access_Matrix.sol\":1215:1216  k */\n      dup2\n        /* \"Access_Matrix.sol\":1215:1231  k < nbOfElements */\n      lt\n        /* \"Access_Matrix.sol\":1199:1319  for(uint k = 0; k < nbOfElements; k++) {... */\n      iszero\n      tag_74\n      jumpi\n        /* \"Access_Matrix.sol\":1301:1306  _vals */\n      dup3\n        /* \"Access_Matrix.sol\":1307:1308  k */\n      dup2\n        /* \"Access_Matrix.sol\":1301:1309  _vals[k] */\n      dup2\n      mload\n      dup2\n      lt\n      tag_76\n      jumpi\n      invalid\n    tag_76:\n      0x20\n      mul\n      0x20\n      add\n      add\n      mload\n        /* \"Access_Matrix.sol\":1248:1257  variables */\n      0x00\n        /* \"Access_Matrix.sol\":1258:1263  _hash */\n      dup8\n        /* \"Access_Matrix.sol\":1248:1264  variables[_hash] */\n      mload(0x40)\n      tag_77\n      swap2\n      swap1\n      jump(tag_50)\n    tag_77:\n      swap1\n      dup2\n      mstore\n      0x20\n      add\n      mload(0x40)\n      dup1\n      swap2\n      sub\n      swap1\n      keccak256\n        /* \"Access_Matrix.sol\":1248:1271  variables[_hash].matrix */\n      0x00\n      add\n        /* \"Access_Matrix.sol\":1272:1283  _activities */\n      dup7\n        /* \"Access_Matrix.sol\":1284:1285  k */\n      dup4\n        /* \"Access_Matrix.sol\":1272:1286  _activities[k] */\n      dup2\n      mload\n      dup2\n      lt\n      tag_78\n      jumpi\n      invalid\n    tag_78:\n      0x20\n      mul\n      0x20\n      add\n      add\n      mload\n        /* \"Access_Matrix.sol\":1248:1287  variables[_hash].matrix[_activities[k]] */\n      mload(0x40)\n      tag_79\n      swap2\n      swap1\n      jump(tag_80)\n    tag_79:\n      swap1\n      dup2\n      mstore\n      0x20\n      add\n      mload(0x40)\n      dup1\n      swap2\n      sub\n      swap1\n      keccak256\n        /* \"Access_Matrix.sol\":1248:1298  variables[_hash].matrix[_activities[k]][_roles[k]] */\n      0x00\n        /* \"Access_Matrix.sol\":1288:1294  _roles */\n      dup7\n        /* \"Access_Matrix.sol\":1295:1296  k */\n      dup5\n        /* \"Access_Matrix.sol\":1288:1297  _roles[k] */\n      dup2\n      mload\n      dup2\n      lt\n      tag_81\n      jumpi\n      invalid\n    tag_81:\n      0x20\n      mul\n      0x20\n      add\n      add\n      mload\n        /* \"Access_Matrix.sol\":1248:1298  variables[_hash].matrix[_activities[k]][_roles[k]] */\n      0xffffffffffffffffffffffffffffffffffffffff\n      and\n      0xffffffffffffffffffffffffffffffffffffffff\n      and\n      dup2\n      mstore\n      0x20\n      add\n      swap1\n      dup2\n      mstore\n      0x20\n      add\n      0x00\n      keccak256\n      0x00\n        /* \"Access_Matrix.sol\":1248:1309  variables[_hash].matrix[_activities[k]][_roles[k]] = _vals[k] */\n      0x0100\n      exp\n      dup2\n      sload\n      dup2\n      0xff\n      mul\n      not\n      and\n      swap1\n      dup4\n      0xff\n      and\n      mul\n      or\n      swap1\n      sstore\n      pop\n        /* \"Access_Matrix.sol\":1233:1236  k++ */\n      dup1\n      dup1\n      0x01\n      add\n      swap2\n      pop\n      pop\n        /* \"Access_Matrix.sol\":1199:1319  for(uint k = 0; k < nbOfElements; k++) {... */\n      jump(tag_73)\n    tag_74:\n      pop\n        /* \"Access_Matrix.sol\":1046:1325  function uploadMatrix(string memory _hash, string[] memory _activities, address[] memory _roles, uint8[] memory _vals, uint nbOfElements) public {... */\n      pop\n      pop\n      pop\n      pop\n      pop\n      jump\t// out\n        /* \"Access_Matrix.sol\":605:770  function updateMatrix(string memory _hash, string memory _activity, address _role, uint8 _val) public {... */\n    tag_47:\n        /* \"Access_Matrix.sol\":759:763  _val */\n      dup1\n        /* \"Access_Matrix.sol\":715:724  variables */\n      0x00\n        /* \"Access_Matrix.sol\":725:730  _hash */\n      dup6\n        /* \"Access_Matrix.sol\":715:731  variables[_hash] */\n      mload(0x40)\n      tag_83\n      swap2\n      swap1\n      jump(tag_50)\n    tag_83:\n      swap1\n      dup2\n      mstore\n      0x20\n      add\n      mload(0x40)\n      dup1\n      swap2\n      sub\n      swap1\n      keccak256\n        /* \"Access_Matrix.sol\":715:738  variables[_hash].matrix */\n      0x00\n      add\n        /* \"Access_Matrix.sol\":739:748  _activity */\n      dup5\n        /* \"Access_Matrix.sol\":715:749  variables[_hash].matrix[_activity] */\n      mload(0x40)\n      tag_84\n      swap2\n      swap1\n      jump(tag_50)\n    tag_84:\n      swap1\n      dup2\n      mstore\n      0x20\n      add\n      mload(0x40)\n      dup1\n      swap2\n      sub\n      swap1\n      keccak256\n        /* \"Access_Matrix.sol\":715:756  variables[_hash].matrix[_activity][_role] */\n      0x00\n        /* \"Access_Matrix.sol\":750:755  _role */\n      dup5\n        /* \"Access_Matrix.sol\":715:756  variables[_hash].matrix[_activity][_role] */\n      0xffffffffffffffffffffffffffffffffffffffff\n      and\n      0xffffffffffffffffffffffffffffffffffffffff\n      and\n      dup2\n      mstore\n      0x20\n      add\n      swap1\n      dup2\n      mstore\n      0x20\n      add\n      0x00\n      keccak256\n      0x00\n        /* \"Access_Matrix.sol\":715:763  variables[_hash].matrix[_activity][_role] = _val */\n      0x0100\n      exp\n      dup2\n      sload\n      dup2\n      0xff\n      mul\n      not\n      and\n      swap1\n      dup4\n      0xff\n      and\n      mul\n      or\n      swap1\n      sstore\n      pop\n        /* \"Access_Matrix.sol\":605:770  function updateMatrix(string memory _hash, string memory _activity, address _role, uint8 _val) public {... */\n      pop\n      pop\n      pop\n      pop\n      jump\t// out\n        /* \"Access_Matrix.sol\":94:2653  contract Access_matrix {... */\n    tag_64:\n      dup3\n      dup1\n      sload\n      0x01\n      dup2\n      0x01\n      and\n      iszero\n      0x0100\n      mul\n      sub\n      and\n      0x02\n      swap1\n      div\n      swap1\n      0x00\n      mstore\n      keccak256(0x00, 0x20)\n      swap1\n      0x1f\n      add\n      0x20\n      swap1\n      div\n      dup2\n      add\n      swap3\n      dup3\n      0x1f\n      lt\n      tag_86\n      jumpi\n      dup1\n      mload\n      not(0xff)\n      and\n      dup4\n      dup1\n      add\n      or\n      dup6\n      sstore\n      jump(tag_85)\n    tag_86:\n      dup3\n      dup1\n      add\n      0x01\n      add\n      dup6\n      sstore\n      dup3\n      iszero\n      tag_85\n      jumpi\n      swap2\n      dup3\n      add\n    tag_87:\n      dup3\n      dup2\n      gt\n      iszero\n      tag_88\n      jumpi\n      dup3\n      mload\n      dup3\n      sstore\n      swap2\n      0x20\n      add\n      swap2\n      swap1\n      0x01\n      add\n      swap1\n      jump(tag_87)\n    tag_88:\n    tag_85:\n      pop\n      swap1\n      pop\n      tag_89\n      swap2\n      swap1\n      tag_90\n      jump\t// in\n    tag_89:\n      pop\n      swap1\n      jump\t// out\n    tag_90:\n      tag_91\n      swap2\n      swap1\n    tag_92:\n      dup1\n      dup3\n      gt\n      iszero\n      tag_93\n      jumpi\n      0x00\n      dup2\n      0x00\n      swap1\n      sstore\n      pop\n      0x01\n      add\n      jump(tag_92)\n    tag_93:\n      pop\n      swap1\n      jump\n    tag_91:\n      swap1\n      jump\t// out\n        /* \"--CODEGEN--\":5:135   */\n    tag_95:\n      0x00\n        /* \"--CODEGEN--\":85:91   */\n      dup2\n        /* \"--CODEGEN--\":72:92   */\n      calldataload\n        /* \"--CODEGEN--\":63:92   */\n      swap1\n      pop\n        /* \"--CODEGEN--\":97:130   */\n      tag_96\n        /* \"--CODEGEN--\":124:129   */\n      dup2\n        /* \"--CODEGEN--\":97:130   */\n      jump(tag_97)\n    tag_96:\n        /* \"--CODEGEN--\":57:135   */\n      swap3\n      swap2\n      pop\n      pop\n      jump\n        /* \"--CODEGEN--\":160:867   */\n    tag_98:\n      0x00\n        /* \"--CODEGEN--\":277:280   */\n      dup3\n        /* \"--CODEGEN--\":270:274   */\n      0x1f\n        /* \"--CODEGEN--\":262:268   */\n      dup4\n        /* \"--CODEGEN--\":258:275   */\n      add\n        /* \"--CODEGEN--\":254:281   */\n      slt\n        /* \"--CODEGEN--\":244:246   */\n      tag_99\n      jumpi\n        /* \"--CODEGEN--\":295:296   */\n      0x00\n        /* \"--CODEGEN--\":292:293   */\n      dup1\n        /* \"--CODEGEN--\":285:297   */\n      revert\n        /* \"--CODEGEN--\":244:246   */\n    tag_99:\n        /* \"--CODEGEN--\":332:338   */\n      dup2\n        /* \"--CODEGEN--\":319:339   */\n      calldataload\n        /* \"--CODEGEN--\":354:434   */\n      tag_100\n        /* \"--CODEGEN--\":369:433   */\n      tag_101\n        /* \"--CODEGEN--\":426:432   */\n      dup3\n        /* \"--CODEGEN--\":369:433   */\n      jump(tag_102)\n    tag_101:\n        /* \"--CODEGEN--\":354:434   */\n      jump(tag_103)\n    tag_100:\n        /* \"--CODEGEN--\":345:434   */\n      swap2\n      pop\n        /* \"--CODEGEN--\":451:456   */\n      dup2\n        /* \"--CODEGEN--\":476:482   */\n      dup2\n        /* \"--CODEGEN--\":469:474   */\n      dup4\n        /* \"--CODEGEN--\":462:483   */\n      mstore\n        /* \"--CODEGEN--\":506:510   */\n      0x20\n        /* \"--CODEGEN--\":498:504   */\n      dup5\n        /* \"--CODEGEN--\":494:511   */\n      add\n        /* \"--CODEGEN--\":484:511   */\n      swap4\n      pop\n        /* \"--CODEGEN--\":528:532   */\n      0x20\n        /* \"--CODEGEN--\":523:526   */\n      dup2\n        /* \"--CODEGEN--\":519:533   */\n      add\n        /* \"--CODEGEN--\":512:533   */\n      swap1\n      pop\n        /* \"--CODEGEN--\":581:587   */\n      dup4\n        /* \"--CODEGEN--\":628:631   */\n      dup6\n        /* \"--CODEGEN--\":620:624   */\n      0x20\n        /* \"--CODEGEN--\":612:618   */\n      dup5\n        /* \"--CODEGEN--\":608:625   */\n      mul\n        /* \"--CODEGEN--\":603:606   */\n      dup3\n        /* \"--CODEGEN--\":599:626   */\n      add\n        /* \"--CODEGEN--\":596:632   */\n      gt\n        /* \"--CODEGEN--\":593:595   */\n      iszero\n      tag_104\n      jumpi\n        /* \"--CODEGEN--\":645:646   */\n      0x00\n        /* \"--CODEGEN--\":642:643   */\n      dup1\n        /* \"--CODEGEN--\":635:647   */\n      revert\n        /* \"--CODEGEN--\":593:595   */\n    tag_104:\n        /* \"--CODEGEN--\":670:671   */\n      0x00\n        /* \"--CODEGEN--\":655:861   */\n    tag_105:\n        /* \"--CODEGEN--\":680:686   */\n      dup4\n        /* \"--CODEGEN--\":677:678   */\n      dup2\n        /* \"--CODEGEN--\":674:687   */\n      lt\n        /* \"--CODEGEN--\":655:861   */\n      iszero\n      tag_107\n      jumpi\n        /* \"--CODEGEN--\":738:741   */\n      dup2\n        /* \"--CODEGEN--\":760:797   */\n      tag_108\n        /* \"--CODEGEN--\":793:796   */\n      dup9\n        /* \"--CODEGEN--\":781:791   */\n      dup3\n        /* \"--CODEGEN--\":760:797   */\n      jump(tag_95)\n    tag_108:\n        /* \"--CODEGEN--\":755:758   */\n      dup5\n        /* \"--CODEGEN--\":748:798   */\n      mstore\n        /* \"--CODEGEN--\":821:825   */\n      0x20\n        /* \"--CODEGEN--\":816:819   */\n      dup5\n        /* \"--CODEGEN--\":812:826   */\n      add\n        /* \"--CODEGEN--\":805:826   */\n      swap4\n      pop\n        /* \"--CODEGEN--\":849:853   */\n      0x20\n        /* \"--CODEGEN--\":844:847   */\n      dup4\n        /* \"--CODEGEN--\":840:854   */\n      add\n        /* \"--CODEGEN--\":833:854   */\n      swap3\n      pop\n        /* \"--CODEGEN--\":712:861   */\n      pop\n        /* \"--CODEGEN--\":702:703   */\n      0x01\n        /* \"--CODEGEN--\":699:700   */\n      dup2\n        /* \"--CODEGEN--\":695:704   */\n      add\n        /* \"--CODEGEN--\":690:704   */\n      swap1\n      pop\n        /* \"--CODEGEN--\":655:861   */\n      jump(tag_105)\n    tag_107:\n        /* \"--CODEGEN--\":659:673   */\n      pop\n        /* \"--CODEGEN--\":237:867   */\n      pop\n      pop\n      pop\n      swap3\n      swap2\n      pop\n      pop\n      jump\n        /* \"--CODEGEN--\":892:1588   */\n    tag_109:\n      0x00\n        /* \"--CODEGEN--\":1015:1018   */\n      dup3\n        /* \"--CODEGEN--\":1008:1012   */\n      0x1f\n        /* \"--CODEGEN--\":1000:1006   */\n      dup4\n        /* \"--CODEGEN--\":996:1013   */\n      add\n        /* \"--CODEGEN--\":992:1019   */\n      slt\n        /* \"--CODEGEN--\":982:984   */\n      tag_110\n      jumpi\n        /* \"--CODEGEN--\":1033:1034   */\n      0x00\n        /* \"--CODEGEN--\":1030:1031   */\n      dup1\n        /* \"--CODEGEN--\":1023:1035   */\n      revert\n        /* \"--CODEGEN--\":982:984   */\n    tag_110:\n        /* \"--CODEGEN--\":1070:1076   */\n      dup2\n        /* \"--CODEGEN--\":1057:1077   */\n      calldataload\n        /* \"--CODEGEN--\":1092:1178   */\n      tag_111\n        /* \"--CODEGEN--\":1107:1177   */\n      tag_112\n        /* \"--CODEGEN--\":1170:1176   */\n      dup3\n        /* \"--CODEGEN--\":1107:1177   */\n      jump(tag_113)\n    tag_112:\n        /* \"--CODEGEN--\":1092:1178   */\n      jump(tag_103)\n    tag_111:\n        /* \"--CODEGEN--\":1083:1178   */\n      swap2\n      pop\n        /* \"--CODEGEN--\":1195:1200   */\n      dup2\n        /* \"--CODEGEN--\":1220:1226   */\n      dup2\n        /* \"--CODEGEN--\":1213:1218   */\n      dup4\n        /* \"--CODEGEN--\":1206:1227   */\n      mstore\n        /* \"--CODEGEN--\":1250:1254   */\n      0x20\n        /* \"--CODEGEN--\":1242:1248   */\n      dup5\n        /* \"--CODEGEN--\":1238:1255   */\n      add\n        /* \"--CODEGEN--\":1228:1255   */\n      swap4\n      pop\n        /* \"--CODEGEN--\":1272:1276   */\n      0x20\n        /* \"--CODEGEN--\":1267:1270   */\n      dup2\n        /* \"--CODEGEN--\":1263:1277   */\n      add\n        /* \"--CODEGEN--\":1256:1277   */\n      swap1\n      pop\n        /* \"--CODEGEN--\":1325:1331   */\n      dup4\n        /* \"--CODEGEN--\":1358:1359   */\n      0x00\n        /* \"--CODEGEN--\":1343:1582   */\n    tag_114:\n        /* \"--CODEGEN--\":1368:1374   */\n      dup4\n        /* \"--CODEGEN--\":1365:1366   */\n      dup2\n        /* \"--CODEGEN--\":1362:1375   */\n      lt\n        /* \"--CODEGEN--\":1343:1582   */\n      iszero\n      tag_116\n      jumpi\n        /* \"--CODEGEN--\":1451:1454   */\n      dup2\n        /* \"--CODEGEN--\":1438:1455   */\n      calldataload\n        /* \"--CODEGEN--\":1430:1436   */\n      dup7\n        /* \"--CODEGEN--\":1426:1456   */\n      add\n        /* \"--CODEGEN--\":1475:1518   */\n      tag_117\n        /* \"--CODEGEN--\":1514:1517   */\n      dup9\n        /* \"--CODEGEN--\":1502:1512   */\n      dup3\n        /* \"--CODEGEN--\":1475:1518   */\n      jump(tag_118)\n    tag_117:\n        /* \"--CODEGEN--\":1470:1473   */\n      dup5\n        /* \"--CODEGEN--\":1463:1519   */\n      mstore\n        /* \"--CODEGEN--\":1542:1546   */\n      0x20\n        /* \"--CODEGEN--\":1537:1540   */\n      dup5\n        /* \"--CODEGEN--\":1533:1547   */\n      add\n        /* \"--CODEGEN--\":1526:1547   */\n      swap4\n      pop\n        /* \"--CODEGEN--\":1570:1574   */\n      0x20\n        /* \"--CODEGEN--\":1565:1568   */\n      dup4\n        /* \"--CODEGEN--\":1561:1575   */\n      add\n        /* \"--CODEGEN--\":1554:1575   */\n      swap3\n      pop\n        /* \"--CODEGEN--\":1400:1582   */\n      pop\n        /* \"--CODEGEN--\":1390:1391   */\n      0x01\n        /* \"--CODEGEN--\":1387:1388   */\n      dup2\n        /* \"--CODEGEN--\":1383:1392   */\n      add\n        /* \"--CODEGEN--\":1378:1392   */\n      swap1\n      pop\n        /* \"--CODEGEN--\":1343:1582   */\n      jump(tag_114)\n    tag_116:\n        /* \"--CODEGEN--\":1347:1361   */\n      pop\n        /* \"--CODEGEN--\":975:1588   */\n      pop\n      pop\n      pop\n      swap3\n      swap2\n      pop\n      pop\n      jump\n        /* \"--CODEGEN--\":1612:2313   */\n    tag_119:\n      0x00\n        /* \"--CODEGEN--\":1727:1730   */\n      dup3\n        /* \"--CODEGEN--\":1720:1724   */\n      0x1f\n        /* \"--CODEGEN--\":1712:1718   */\n      dup4\n        /* \"--CODEGEN--\":1708:1725   */\n      add\n        /* \"--CODEGEN--\":1704:1731   */\n      slt\n        /* \"--CODEGEN--\":1694:1696   */\n      tag_120\n      jumpi\n        /* \"--CODEGEN--\":1745:1746   */\n      0x00\n        /* \"--CODEGEN--\":1742:1743   */\n      dup1\n        /* \"--CODEGEN--\":1735:1747   */\n      revert\n        /* \"--CODEGEN--\":1694:1696   */\n    tag_120:\n        /* \"--CODEGEN--\":1782:1788   */\n      dup2\n        /* \"--CODEGEN--\":1769:1789   */\n      calldataload\n        /* \"--CODEGEN--\":1804:1882   */\n      tag_121\n        /* \"--CODEGEN--\":1819:1881   */\n      tag_122\n        /* \"--CODEGEN--\":1874:1880   */\n      dup3\n        /* \"--CODEGEN--\":1819:1881   */\n      jump(tag_123)\n    tag_122:\n        /* \"--CODEGEN--\":1804:1882   */\n      jump(tag_103)\n    tag_121:\n        /* \"--CODEGEN--\":1795:1882   */\n      swap2\n      pop\n        /* \"--CODEGEN--\":1899:1904   */\n      dup2\n        /* \"--CODEGEN--\":1924:1930   */\n      dup2\n        /* \"--CODEGEN--\":1917:1922   */\n      dup4\n        /* \"--CODEGEN--\":1910:1931   */\n      mstore\n        /* \"--CODEGEN--\":1954:1958   */\n      0x20\n        /* \"--CODEGEN--\":1946:1952   */\n      dup5\n        /* \"--CODEGEN--\":1942:1959   */\n      add\n        /* \"--CODEGEN--\":1932:1959   */\n      swap4\n      pop\n        /* \"--CODEGEN--\":1976:1980   */\n      0x20\n        /* \"--CODEGEN--\":1971:1974   */\n      dup2\n        /* \"--CODEGEN--\":1967:1981   */\n      add\n        /* \"--CODEGEN--\":1960:1981   */\n      swap1\n      pop\n        /* \"--CODEGEN--\":2029:2035   */\n      dup4\n        /* \"--CODEGEN--\":2076:2079   */\n      dup6\n        /* \"--CODEGEN--\":2068:2072   */\n      0x20\n        /* \"--CODEGEN--\":2060:2066   */\n      dup5\n        /* \"--CODEGEN--\":2056:2073   */\n      mul\n        /* \"--CODEGEN--\":2051:2054   */\n      dup3\n        /* \"--CODEGEN--\":2047:2074   */\n      add\n        /* \"--CODEGEN--\":2044:2080   */\n      gt\n        /* \"--CODEGEN--\":2041:2043   */\n      iszero\n      tag_124\n      jumpi\n        /* \"--CODEGEN--\":2093:2094   */\n      0x00\n        /* \"--CODEGEN--\":2090:2091   */\n      dup1\n        /* \"--CODEGEN--\":2083:2095   */\n      revert\n        /* \"--CODEGEN--\":2041:2043   */\n    tag_124:\n        /* \"--CODEGEN--\":2118:2119   */\n      0x00\n        /* \"--CODEGEN--\":2103:2307   */\n    tag_125:\n        /* \"--CODEGEN--\":2128:2134   */\n      dup4\n        /* \"--CODEGEN--\":2125:2126   */\n      dup2\n        /* \"--CODEGEN--\":2122:2135   */\n      lt\n        /* \"--CODEGEN--\":2103:2307   */\n      iszero\n      tag_127\n      jumpi\n        /* \"--CODEGEN--\":2186:2189   */\n      dup2\n        /* \"--CODEGEN--\":2208:2243   */\n      tag_128\n        /* \"--CODEGEN--\":2239:2242   */\n      dup9\n        /* \"--CODEGEN--\":2227:2237   */\n      dup3\n        /* \"--CODEGEN--\":2208:2243   */\n      jump(tag_129)\n    tag_128:\n        /* \"--CODEGEN--\":2203:2206   */\n      dup5\n        /* \"--CODEGEN--\":2196:2244   */\n      mstore\n        /* \"--CODEGEN--\":2267:2271   */\n      0x20\n        /* \"--CODEGEN--\":2262:2265   */\n      dup5\n        /* \"--CODEGEN--\":2258:2272   */\n      add\n        /* \"--CODEGEN--\":2251:2272   */\n      swap4\n      pop\n        /* \"--CODEGEN--\":2295:2299   */\n      0x20\n        /* \"--CODEGEN--\":2290:2293   */\n      dup4\n        /* \"--CODEGEN--\":2286:2300   */\n      add\n        /* \"--CODEGEN--\":2279:2300   */\n      swap3\n      pop\n        /* \"--CODEGEN--\":2160:2307   */\n      pop\n        /* \"--CODEGEN--\":2150:2151   */\n      0x01\n        /* \"--CODEGEN--\":2147:2148   */\n      dup2\n        /* \"--CODEGEN--\":2143:2152   */\n      add\n        /* \"--CODEGEN--\":2138:2152   */\n      swap1\n      pop\n        /* \"--CODEGEN--\":2103:2307   */\n      jump(tag_125)\n    tag_127:\n        /* \"--CODEGEN--\":2107:2121   */\n      pop\n        /* \"--CODEGEN--\":1687:2313   */\n      pop\n      pop\n      pop\n      swap3\n      swap2\n      pop\n      pop\n      jump\n        /* \"--CODEGEN--\":2322:2756   */\n    tag_118:\n      0x00\n        /* \"--CODEGEN--\":2420:2423   */\n      dup3\n        /* \"--CODEGEN--\":2413:2417   */\n      0x1f\n        /* \"--CODEGEN--\":2405:2411   */\n      dup4\n        /* \"--CODEGEN--\":2401:2418   */\n      add\n        /* \"--CODEGEN--\":2397:2424   */\n      slt\n        /* \"--CODEGEN--\":2387:2389   */\n      tag_130\n      jumpi\n        /* \"--CODEGEN--\":2438:2439   */\n      0x00\n        /* \"--CODEGEN--\":2435:2436   */\n      dup1\n        /* \"--CODEGEN--\":2428:2440   */\n      revert\n        /* \"--CODEGEN--\":2387:2389   */\n    tag_130:\n        /* \"--CODEGEN--\":2475:2481   */\n      dup2\n        /* \"--CODEGEN--\":2462:2482   */\n      calldataload\n        /* \"--CODEGEN--\":2497:2558   */\n      tag_131\n        /* \"--CODEGEN--\":2512:2557   */\n      tag_132\n        /* \"--CODEGEN--\":2550:2556   */\n      dup3\n        /* \"--CODEGEN--\":2512:2557   */\n      jump(tag_133)\n    tag_132:\n        /* \"--CODEGEN--\":2497:2558   */\n      jump(tag_103)\n    tag_131:\n        /* \"--CODEGEN--\":2488:2558   */\n      swap2\n      pop\n        /* \"--CODEGEN--\":2578:2584   */\n      dup1\n        /* \"--CODEGEN--\":2571:2576   */\n      dup3\n        /* \"--CODEGEN--\":2564:2585   */\n      mstore\n        /* \"--CODEGEN--\":2614:2618   */\n      0x20\n        /* \"--CODEGEN--\":2606:2612   */\n      dup4\n        /* \"--CODEGEN--\":2602:2619   */\n      add\n        /* \"--CODEGEN--\":2647:2651   */\n      0x20\n        /* \"--CODEGEN--\":2640:2645   */\n      dup4\n        /* \"--CODEGEN--\":2636:2652   */\n      add\n        /* \"--CODEGEN--\":2682:2685   */\n      dup6\n        /* \"--CODEGEN--\":2673:2679   */\n      dup4\n        /* \"--CODEGEN--\":2668:2671   */\n      dup4\n        /* \"--CODEGEN--\":2664:2680   */\n      add\n        /* \"--CODEGEN--\":2661:2686   */\n      gt\n        /* \"--CODEGEN--\":2658:2660   */\n      iszero\n      tag_134\n      jumpi\n        /* \"--CODEGEN--\":2699:2700   */\n      0x00\n        /* \"--CODEGEN--\":2696:2697   */\n      dup1\n        /* \"--CODEGEN--\":2689:2701   */\n      revert\n        /* \"--CODEGEN--\":2658:2660   */\n    tag_134:\n        /* \"--CODEGEN--\":2709:2750   */\n      tag_135\n        /* \"--CODEGEN--\":2743:2749   */\n      dup4\n        /* \"--CODEGEN--\":2738:2741   */\n      dup3\n        /* \"--CODEGEN--\":2733:2736   */\n      dup5\n        /* \"--CODEGEN--\":2709:2750   */\n      jump(tag_136)\n    tag_135:\n        /* \"--CODEGEN--\":2380:2756   */\n      pop\n      pop\n      pop\n      swap3\n      swap2\n      pop\n      pop\n      jump\n        /* \"--CODEGEN--\":2765:3207   */\n    tag_137:\n      0x00\n        /* \"--CODEGEN--\":2867:2870   */\n      dup3\n        /* \"--CODEGEN--\":2860:2864   */\n      0x1f\n        /* \"--CODEGEN--\":2852:2858   */\n      dup4\n        /* \"--CODEGEN--\":2848:2865   */\n      add\n        /* \"--CODEGEN--\":2844:2871   */\n      slt\n        /* \"--CODEGEN--\":2834:2836   */\n      tag_138\n      jumpi\n        /* \"--CODEGEN--\":2885:2886   */\n      0x00\n        /* \"--CODEGEN--\":2882:2883   */\n      dup1\n        /* \"--CODEGEN--\":2875:2887   */\n      revert\n        /* \"--CODEGEN--\":2834:2836   */\n    tag_138:\n        /* \"--CODEGEN--\":2922:2928   */\n      dup2\n        /* \"--CODEGEN--\":2909:2929   */\n      calldataload\n        /* \"--CODEGEN--\":2944:3009   */\n      tag_139\n        /* \"--CODEGEN--\":2959:3008   */\n      tag_140\n        /* \"--CODEGEN--\":3001:3007   */\n      dup3\n        /* \"--CODEGEN--\":2959:3008   */\n      jump(tag_141)\n    tag_140:\n        /* \"--CODEGEN--\":2944:3009   */\n      jump(tag_103)\n    tag_139:\n        /* \"--CODEGEN--\":2935:3009   */\n      swap2\n      pop\n        /* \"--CODEGEN--\":3029:3035   */\n      dup1\n        /* \"--CODEGEN--\":3022:3027   */\n      dup3\n        /* \"--CODEGEN--\":3015:3036   */\n      mstore\n        /* \"--CODEGEN--\":3065:3069   */\n      0x20\n        /* \"--CODEGEN--\":3057:3063   */\n      dup4\n        /* \"--CODEGEN--\":3053:3070   */\n      add\n        /* \"--CODEGEN--\":3098:3102   */\n      0x20\n        /* \"--CODEGEN--\":3091:3096   */\n      dup4\n        /* \"--CODEGEN--\":3087:3103   */\n      add\n        /* \"--CODEGEN--\":3133:3136   */\n      dup6\n        /* \"--CODEGEN--\":3124:3130   */\n      dup4\n        /* \"--CODEGEN--\":3119:3122   */\n      dup4\n        /* \"--CODEGEN--\":3115:3131   */\n      add\n        /* \"--CODEGEN--\":3112:3137   */\n      gt\n        /* \"--CODEGEN--\":3109:3111   */\n      iszero\n      tag_142\n      jumpi\n        /* \"--CODEGEN--\":3150:3151   */\n      0x00\n        /* \"--CODEGEN--\":3147:3148   */\n      dup1\n        /* \"--CODEGEN--\":3140:3152   */\n      revert\n        /* \"--CODEGEN--\":3109:3111   */\n    tag_142:\n        /* \"--CODEGEN--\":3160:3201   */\n      tag_143\n        /* \"--CODEGEN--\":3194:3200   */\n      dup4\n        /* \"--CODEGEN--\":3189:3192   */\n      dup3\n        /* \"--CODEGEN--\":3184:3187   */\n      dup5\n        /* \"--CODEGEN--\":3160:3201   */\n      jump(tag_136)\n    tag_143:\n        /* \"--CODEGEN--\":2827:3207   */\n      pop\n      pop\n      pop\n      swap3\n      swap2\n      pop\n      pop\n      jump\n        /* \"--CODEGEN--\":3215:3345   */\n    tag_144:\n      0x00\n        /* \"--CODEGEN--\":3295:3301   */\n      dup2\n        /* \"--CODEGEN--\":3282:3302   */\n      calldataload\n        /* \"--CODEGEN--\":3273:3302   */\n      swap1\n      pop\n        /* \"--CODEGEN--\":3307:3340   */\n      tag_145\n        /* \"--CODEGEN--\":3334:3339   */\n      dup2\n        /* \"--CODEGEN--\":3307:3340   */\n      jump(tag_146)\n    tag_145:\n        /* \"--CODEGEN--\":3267:3345   */\n      swap3\n      swap2\n      pop\n      pop\n      jump\n        /* \"--CODEGEN--\":3352:3480   */\n    tag_147:\n      0x00\n        /* \"--CODEGEN--\":3431:3437   */\n      dup2\n        /* \"--CODEGEN--\":3418:3438   */\n      calldataload\n        /* \"--CODEGEN--\":3409:3438   */\n      swap1\n      pop\n        /* \"--CODEGEN--\":3443:3475   */\n      tag_148\n        /* \"--CODEGEN--\":3469:3474   */\n      dup2\n        /* \"--CODEGEN--\":3443:3475   */\n      jump(tag_149)\n    tag_148:\n        /* \"--CODEGEN--\":3403:3480   */\n      swap3\n      swap2\n      pop\n      pop\n      jump\n        /* \"--CODEGEN--\":3487:3613   */\n    tag_129:\n      0x00\n        /* \"--CODEGEN--\":3565:3571   */\n      dup2\n        /* \"--CODEGEN--\":3552:3572   */\n      calldataload\n        /* \"--CODEGEN--\":3543:3572   */\n      swap1\n      pop\n        /* \"--CODEGEN--\":3577:3608   */\n      tag_150\n        /* \"--CODEGEN--\":3602:3607   */\n      dup2\n        /* \"--CODEGEN--\":3577:3608   */\n      jump(tag_151)\n    tag_150:\n        /* \"--CODEGEN--\":3537:3613   */\n      swap3\n      swap2\n      pop\n      pop\n      jump\n        /* \"--CODEGEN--\":3620:3967   */\n    tag_20:\n      0x00\n        /* \"--CODEGEN--\":3734:3736   */\n      0x20\n        /* \"--CODEGEN--\":3722:3731   */\n      dup3\n        /* \"--CODEGEN--\":3713:3720   */\n      dup5\n        /* \"--CODEGEN--\":3709:3732   */\n      sub\n        /* \"--CODEGEN--\":3705:3737   */\n      slt\n        /* \"--CODEGEN--\":3702:3704   */\n      iszero\n      tag_152\n      jumpi\n        /* \"--CODEGEN--\":3750:3751   */\n      0x00\n        /* \"--CODEGEN--\":3747:3748   */\n      dup1\n        /* \"--CODEGEN--\":3740:3752   */\n      revert\n        /* \"--CODEGEN--\":3702:3704   */\n    tag_152:\n        /* \"--CODEGEN--\":3813:3814   */\n      0x00\n        /* \"--CODEGEN--\":3802:3811   */\n      dup3\n        /* \"--CODEGEN--\":3798:3815   */\n      add\n        /* \"--CODEGEN--\":3785:3816   */\n      calldataload\n        /* \"--CODEGEN--\":3836:3854   */\n      0xffffffffffffffff\n        /* \"--CODEGEN--\":3828:3834   */\n      dup2\n        /* \"--CODEGEN--\":3825:3855   */\n      gt\n        /* \"--CODEGEN--\":3822:3824   */\n      iszero\n      tag_153\n      jumpi\n        /* \"--CODEGEN--\":3868:3869   */\n      0x00\n        /* \"--CODEGEN--\":3865:3866   */\n      dup1\n        /* \"--CODEGEN--\":3858:3870   */\n      revert\n        /* \"--CODEGEN--\":3822:3824   */\n    tag_153:\n        /* \"--CODEGEN--\":3888:3951   */\n      tag_154\n        /* \"--CODEGEN--\":3943:3950   */\n      dup5\n        /* \"--CODEGEN--\":3934:3940   */\n      dup3\n        /* \"--CODEGEN--\":3923:3932   */\n      dup6\n        /* \"--CODEGEN--\":3919:3941   */\n      add\n        /* \"--CODEGEN--\":3888:3951   */\n      jump(tag_137)\n    tag_154:\n        /* \"--CODEGEN--\":3878:3951   */\n      swap2\n      pop\n        /* \"--CODEGEN--\":3764:3957   */\n      pop\n        /* \"--CODEGEN--\":3696:3967   */\n      swap3\n      swap2\n      pop\n      pop\n      jump\n        /* \"--CODEGEN--\":3974:5239   */\n    tag_42:\n      0x00\n      dup1\n      0x00\n      dup1\n      0x00\n        /* \"--CODEGEN--\":4235:4238   */\n      0xa0\n        /* \"--CODEGEN--\":4223:4232   */\n      dup7\n        /* \"--CODEGEN--\":4214:4221   */\n      dup9\n        /* \"--CODEGEN--\":4210:4233   */\n      sub\n        /* \"--CODEGEN--\":4206:4239   */\n      slt\n        /* \"--CODEGEN--\":4203:4205   */\n      iszero\n      tag_155\n      jumpi\n        /* \"--CODEGEN--\":4252:4253   */\n      0x00\n        /* \"--CODEGEN--\":4249:4250   */\n      dup1\n        /* \"--CODEGEN--\":4242:4254   */\n      revert\n        /* \"--CODEGEN--\":4203:4205   */\n    tag_155:\n        /* \"--CODEGEN--\":4315:4316   */\n      0x00\n        /* \"--CODEGEN--\":4304:4313   */\n      dup7\n        /* \"--CODEGEN--\":4300:4317   */\n      add\n        /* \"--CODEGEN--\":4287:4318   */\n      calldataload\n        /* \"--CODEGEN--\":4338:4356   */\n      0xffffffffffffffff\n        /* \"--CODEGEN--\":4330:4336   */\n      dup2\n        /* \"--CODEGEN--\":4327:4357   */\n      gt\n        /* \"--CODEGEN--\":4324:4326   */\n      iszero\n      tag_156\n      jumpi\n        /* \"--CODEGEN--\":4370:4371   */\n      0x00\n        /* \"--CODEGEN--\":4367:4368   */\n      dup1\n        /* \"--CODEGEN--\":4360:4372   */\n      revert\n        /* \"--CODEGEN--\":4324:4326   */\n    tag_156:\n        /* \"--CODEGEN--\":4390:4453   */\n      tag_157\n        /* \"--CODEGEN--\":4445:4452   */\n      dup9\n        /* \"--CODEGEN--\":4436:4442   */\n      dup3\n        /* \"--CODEGEN--\":4425:4434   */\n      dup10\n        /* \"--CODEGEN--\":4421:4443   */\n      add\n        /* \"--CODEGEN--\":4390:4453   */\n      jump(tag_137)\n    tag_157:\n        /* \"--CODEGEN--\":4380:4453   */\n      swap6\n      pop\n        /* \"--CODEGEN--\":4266:4459   */\n      pop\n        /* \"--CODEGEN--\":4518:4520   */\n      0x20\n        /* \"--CODEGEN--\":4507:4516   */\n      dup7\n        /* \"--CODEGEN--\":4503:4521   */\n      add\n        /* \"--CODEGEN--\":4490:4522   */\n      calldataload\n        /* \"--CODEGEN--\":4542:4560   */\n      0xffffffffffffffff\n        /* \"--CODEGEN--\":4534:4540   */\n      dup2\n        /* \"--CODEGEN--\":4531:4561   */\n      gt\n        /* \"--CODEGEN--\":4528:4530   */\n      iszero\n      tag_158\n      jumpi\n        /* \"--CODEGEN--\":4574:4575   */\n      0x00\n        /* \"--CODEGEN--\":4571:4572   */\n      dup1\n        /* \"--CODEGEN--\":4564:4576   */\n      revert\n        /* \"--CODEGEN--\":4528:4530   */\n    tag_158:\n        /* \"--CODEGEN--\":4594:4678   */\n      tag_159\n        /* \"--CODEGEN--\":4670:4677   */\n      dup9\n        /* \"--CODEGEN--\":4661:4667   */\n      dup3\n        /* \"--CODEGEN--\":4650:4659   */\n      dup10\n        /* \"--CODEGEN--\":4646:4668   */\n      add\n        /* \"--CODEGEN--\":4594:4678   */\n      jump(tag_109)\n    tag_159:\n        /* \"--CODEGEN--\":4584:4678   */\n      swap5\n      pop\n        /* \"--CODEGEN--\":4469:4684   */\n      pop\n        /* \"--CODEGEN--\":4743:4745   */\n      0x40\n        /* \"--CODEGEN--\":4732:4741   */\n      dup7\n        /* \"--CODEGEN--\":4728:4746   */\n      add\n        /* \"--CODEGEN--\":4715:4747   */\n      calldataload\n        /* \"--CODEGEN--\":4767:4785   */\n      0xffffffffffffffff\n        /* \"--CODEGEN--\":4759:4765   */\n      dup2\n        /* \"--CODEGEN--\":4756:4786   */\n      gt\n        /* \"--CODEGEN--\":4753:4755   */\n      iszero\n      tag_160\n      jumpi\n        /* \"--CODEGEN--\":4799:4800   */\n      0x00\n        /* \"--CODEGEN--\":4796:4797   */\n      dup1\n        /* \"--CODEGEN--\":4789:4801   */\n      revert\n        /* \"--CODEGEN--\":4753:4755   */\n    tag_160:\n        /* \"--CODEGEN--\":4819:4897   */\n      tag_161\n        /* \"--CODEGEN--\":4889:4896   */\n      dup9\n        /* \"--CODEGEN--\":4880:4886   */\n      dup3\n        /* \"--CODEGEN--\":4869:4878   */\n      dup10\n        /* \"--CODEGEN--\":4865:4887   */\n      add\n        /* \"--CODEGEN--\":4819:4897   */\n      jump(tag_98)\n    tag_161:\n        /* \"--CODEGEN--\":4809:4897   */\n      swap4\n      pop\n        /* \"--CODEGEN--\":4694:4903   */\n      pop\n        /* \"--CODEGEN--\":4962:4964   */\n      0x60\n        /* \"--CODEGEN--\":4951:4960   */\n      dup7\n        /* \"--CODEGEN--\":4947:4965   */\n      add\n        /* \"--CODEGEN--\":4934:4966   */\n      calldataload\n        /* \"--CODEGEN--\":4986:5004   */\n      0xffffffffffffffff\n        /* \"--CODEGEN--\":4978:4984   */\n      dup2\n        /* \"--CODEGEN--\":4975:5005   */\n      gt\n        /* \"--CODEGEN--\":4972:4974   */\n      iszero\n      tag_162\n      jumpi\n        /* \"--CODEGEN--\":5018:5019   */\n      0x00\n        /* \"--CODEGEN--\":5015:5016   */\n      dup1\n        /* \"--CODEGEN--\":5008:5020   */\n      revert\n        /* \"--CODEGEN--\":4972:4974   */\n    tag_162:\n        /* \"--CODEGEN--\":5038:5114   */\n      tag_163\n        /* \"--CODEGEN--\":5106:5113   */\n      dup9\n        /* \"--CODEGEN--\":5097:5103   */\n      dup3\n        /* \"--CODEGEN--\":5086:5095   */\n      dup10\n        /* \"--CODEGEN--\":5082:5104   */\n      add\n        /* \"--CODEGEN--\":5038:5114   */\n      jump(tag_119)\n    tag_163:\n        /* \"--CODEGEN--\":5028:5114   */\n      swap3\n      pop\n        /* \"--CODEGEN--\":4913:5120   */\n      pop\n        /* \"--CODEGEN--\":5151:5154   */\n      0x80\n        /* \"--CODEGEN--\":5170:5223   */\n      tag_164\n        /* \"--CODEGEN--\":5215:5222   */\n      dup9\n        /* \"--CODEGEN--\":5206:5212   */\n      dup3\n        /* \"--CODEGEN--\":5195:5204   */\n      dup10\n        /* \"--CODEGEN--\":5191:5213   */\n      add\n        /* \"--CODEGEN--\":5170:5223   */\n      jump(tag_144)\n    tag_164:\n        /* \"--CODEGEN--\":5160:5223   */\n      swap2\n      pop\n        /* \"--CODEGEN--\":5130:5229   */\n      pop\n        /* \"--CODEGEN--\":4197:5239   */\n      swap3\n      swap6\n      pop\n      swap3\n      swap6\n      swap1\n      swap4\n      pop\n      jump\n        /* \"--CODEGEN--\":5246:5824   */\n    tag_26:\n      0x00\n      dup1\n        /* \"--CODEGEN--\":5387:5389   */\n      0x40\n        /* \"--CODEGEN--\":5375:5384   */\n      dup4\n        /* \"--CODEGEN--\":5366:5373   */\n      dup6\n        /* \"--CODEGEN--\":5362:5385   */\n      sub\n        /* \"--CODEGEN--\":5358:5390   */\n      slt\n        /* \"--CODEGEN--\":5355:5357   */\n      iszero\n      tag_165\n      jumpi\n        /* \"--CODEGEN--\":5403:5404   */\n      0x00\n        /* \"--CODEGEN--\":5400:5401   */\n      dup1\n        /* \"--CODEGEN--\":5393:5405   */\n      revert\n        /* \"--CODEGEN--\":5355:5357   */\n    tag_165:\n        /* \"--CODEGEN--\":5466:5467   */\n      0x00\n        /* \"--CODEGEN--\":5455:5464   */\n      dup4\n        /* \"--CODEGEN--\":5451:5468   */\n      add\n        /* \"--CODEGEN--\":5438:5469   */\n      calldataload\n        /* \"--CODEGEN--\":5489:5507   */\n      0xffffffffffffffff\n        /* \"--CODEGEN--\":5481:5487   */\n      dup2\n        /* \"--CODEGEN--\":5478:5508   */\n      gt\n        /* \"--CODEGEN--\":5475:5477   */\n      iszero\n      tag_166\n      jumpi\n        /* \"--CODEGEN--\":5521:5522   */\n      0x00\n        /* \"--CODEGEN--\":5518:5519   */\n      dup1\n        /* \"--CODEGEN--\":5511:5523   */\n      revert\n        /* \"--CODEGEN--\":5475:5477   */\n    tag_166:\n        /* \"--CODEGEN--\":5541:5604   */\n      tag_167\n        /* \"--CODEGEN--\":5596:5603   */\n      dup6\n        /* \"--CODEGEN--\":5587:5593   */\n      dup3\n        /* \"--CODEGEN--\":5576:5585   */\n      dup7\n        /* \"--CODEGEN--\":5572:5594   */\n      add\n        /* \"--CODEGEN--\":5541:5604   */\n      jump(tag_137)\n    tag_167:\n        /* \"--CODEGEN--\":5531:5604   */\n      swap3\n      pop\n        /* \"--CODEGEN--\":5417:5610   */\n      pop\n        /* \"--CODEGEN--\":5669:5671   */\n      0x20\n        /* \"--CODEGEN--\":5658:5667   */\n      dup4\n        /* \"--CODEGEN--\":5654:5672   */\n      add\n        /* \"--CODEGEN--\":5641:5673   */\n      calldataload\n        /* \"--CODEGEN--\":5693:5711   */\n      0xffffffffffffffff\n        /* \"--CODEGEN--\":5685:5691   */\n      dup2\n        /* \"--CODEGEN--\":5682:5712   */\n      gt\n        /* \"--CODEGEN--\":5679:5681   */\n      iszero\n      tag_168\n      jumpi\n        /* \"--CODEGEN--\":5725:5726   */\n      0x00\n        /* \"--CODEGEN--\":5722:5723   */\n      dup1\n        /* \"--CODEGEN--\":5715:5727   */\n      revert\n        /* \"--CODEGEN--\":5679:5681   */\n    tag_168:\n        /* \"--CODEGEN--\":5745:5808   */\n      tag_169\n        /* \"--CODEGEN--\":5800:5807   */\n      dup6\n        /* \"--CODEGEN--\":5791:5797   */\n      dup3\n        /* \"--CODEGEN--\":5780:5789   */\n      dup7\n        /* \"--CODEGEN--\":5776:5798   */\n      add\n        /* \"--CODEGEN--\":5745:5808   */\n      jump(tag_137)\n    tag_169:\n        /* \"--CODEGEN--\":5735:5808   */\n      swap2\n      pop\n        /* \"--CODEGEN--\":5620:5814   */\n      pop\n        /* \"--CODEGEN--\":5349:5824   */\n      swap3\n      pop\n      swap3\n      swap1\n      pop\n      jump\n        /* \"--CODEGEN--\":5831:6534   */\n    tag_14:\n      0x00\n      dup1\n      0x00\n        /* \"--CODEGEN--\":5989:5991   */\n      0x60\n        /* \"--CODEGEN--\":5977:5986   */\n      dup5\n        /* \"--CODEGEN--\":5968:5975   */\n      dup7\n        /* \"--CODEGEN--\":5964:5987   */\n      sub\n        /* \"--CODEGEN--\":5960:5992   */\n      slt\n        /* \"--CODEGEN--\":5957:5959   */\n      iszero\n      tag_170\n      jumpi\n        /* \"--CODEGEN--\":6005:6006   */\n      0x00\n        /* \"--CODEGEN--\":6002:6003   */\n      dup1\n        /* \"--CODEGEN--\":5995:6007   */\n      revert\n        /* \"--CODEGEN--\":5957:5959   */\n    tag_170:\n        /* \"--CODEGEN--\":6068:6069   */\n      0x00\n        /* \"--CODEGEN--\":6057:6066   */\n      dup5\n        /* \"--CODEGEN--\":6053:6070   */\n      add\n        /* \"--CODEGEN--\":6040:6071   */\n      calldataload\n        /* \"--CODEGEN--\":6091:6109   */\n      0xffffffffffffffff\n        /* \"--CODEGEN--\":6083:6089   */\n      dup2\n        /* \"--CODEGEN--\":6080:6110   */\n      gt\n        /* \"--CODEGEN--\":6077:6079   */\n      iszero\n      tag_171\n      jumpi\n        /* \"--CODEGEN--\":6123:6124   */\n      0x00\n        /* \"--CODEGEN--\":6120:6121   */\n      dup1\n        /* \"--CODEGEN--\":6113:6125   */\n      revert\n        /* \"--CODEGEN--\":6077:6079   */\n    tag_171:\n        /* \"--CODEGEN--\":6143:6206   */\n      tag_172\n        /* \"--CODEGEN--\":6198:6205   */\n      dup7\n        /* \"--CODEGEN--\":6189:6195   */\n      dup3\n        /* \"--CODEGEN--\":6178:6187   */\n      dup8\n        /* \"--CODEGEN--\":6174:6196   */\n      add\n        /* \"--CODEGEN--\":6143:6206   */\n      jump(tag_137)\n    tag_172:\n        /* \"--CODEGEN--\":6133:6206   */\n      swap4\n      pop\n        /* \"--CODEGEN--\":6019:6212   */\n      pop\n        /* \"--CODEGEN--\":6271:6273   */\n      0x20\n        /* \"--CODEGEN--\":6260:6269   */\n      dup5\n        /* \"--CODEGEN--\":6256:6274   */\n      add\n        /* \"--CODEGEN--\":6243:6275   */\n      calldataload\n        /* \"--CODEGEN--\":6295:6313   */\n      0xffffffffffffffff\n        /* \"--CODEGEN--\":6287:6293   */\n      dup2\n        /* \"--CODEGEN--\":6284:6314   */\n      gt\n        /* \"--CODEGEN--\":6281:6283   */\n      iszero\n      tag_173\n      jumpi\n        /* \"--CODEGEN--\":6327:6328   */\n      0x00\n        /* \"--CODEGEN--\":6324:6325   */\n      dup1\n        /* \"--CODEGEN--\":6317:6329   */\n      revert\n        /* \"--CODEGEN--\":6281:6283   */\n    tag_173:\n        /* \"--CODEGEN--\":6347:6410   */\n      tag_174\n        /* \"--CODEGEN--\":6402:6409   */\n      dup7\n        /* \"--CODEGEN--\":6393:6399   */\n      dup3\n        /* \"--CODEGEN--\":6382:6391   */\n      dup8\n        /* \"--CODEGEN--\":6378:6400   */\n      add\n        /* \"--CODEGEN--\":6347:6410   */\n      jump(tag_137)\n    tag_174:\n        /* \"--CODEGEN--\":6337:6410   */\n      swap3\n      pop\n        /* \"--CODEGEN--\":6222:6416   */\n      pop\n        /* \"--CODEGEN--\":6447:6449   */\n      0x40\n        /* \"--CODEGEN--\":6465:6518   */\n      tag_175\n        /* \"--CODEGEN--\":6510:6517   */\n      dup7\n        /* \"--CODEGEN--\":6501:6507   */\n      dup3\n        /* \"--CODEGEN--\":6490:6499   */\n      dup8\n        /* \"--CODEGEN--\":6486:6508   */\n      add\n        /* \"--CODEGEN--\":6465:6518   */\n      jump(tag_95)\n    tag_175:\n        /* \"--CODEGEN--\":6455:6518   */\n      swap2\n      pop\n        /* \"--CODEGEN--\":6426:6524   */\n      pop\n        /* \"--CODEGEN--\":5951:6534   */\n      swap3\n      pop\n      swap3\n      pop\n      swap3\n      jump\n        /* \"--CODEGEN--\":6541:7366   */\n    tag_46:\n      0x00\n      dup1\n      0x00\n      dup1\n        /* \"--CODEGEN--\":6714:6717   */\n      0x80\n        /* \"--CODEGEN--\":6702:6711   */\n      dup6\n        /* \"--CODEGEN--\":6693:6700   */\n      dup8\n        /* \"--CODEGEN--\":6689:6712   */\n      sub\n        /* \"--CODEGEN--\":6685:6718   */\n      slt\n        /* \"--CODEGEN--\":6682:6684   */\n      iszero\n      tag_176\n      jumpi\n        /* \"--CODEGEN--\":6731:6732   */\n      0x00\n        /* \"--CODEGEN--\":6728:6729   */\n      dup1\n        /* \"--CODEGEN--\":6721:6733   */\n      revert\n        /* \"--CODEGEN--\":6682:6684   */\n    tag_176:\n        /* \"--CODEGEN--\":6794:6795   */\n      0x00\n        /* \"--CODEGEN--\":6783:6792   */\n      dup6\n        /* \"--CODEGEN--\":6779:6796   */\n      add\n        /* \"--CODEGEN--\":6766:6797   */\n      calldataload\n        /* \"--CODEGEN--\":6817:6835   */\n      0xffffffffffffffff\n        /* \"--CODEGEN--\":6809:6815   */\n      dup2\n        /* \"--CODEGEN--\":6806:6836   */\n      gt\n        /* \"--CODEGEN--\":6803:6805   */\n      iszero\n      tag_177\n      jumpi\n        /* \"--CODEGEN--\":6849:6850   */\n      0x00\n        /* \"--CODEGEN--\":6846:6847   */\n      dup1\n        /* \"--CODEGEN--\":6839:6851   */\n      revert\n        /* \"--CODEGEN--\":6803:6805   */\n    tag_177:\n        /* \"--CODEGEN--\":6869:6932   */\n      tag_178\n        /* \"--CODEGEN--\":6924:6931   */\n      dup8\n        /* \"--CODEGEN--\":6915:6921   */\n      dup3\n        /* \"--CODEGEN--\":6904:6913   */\n      dup9\n        /* \"--CODEGEN--\":6900:6922   */\n      add\n        /* \"--CODEGEN--\":6869:6932   */\n      jump(tag_137)\n    tag_178:\n        /* \"--CODEGEN--\":6859:6932   */\n      swap5\n      pop\n        /* \"--CODEGEN--\":6745:6938   */\n      pop\n        /* \"--CODEGEN--\":6997:6999   */\n      0x20\n        /* \"--CODEGEN--\":6986:6995   */\n      dup6\n        /* \"--CODEGEN--\":6982:7000   */\n      add\n        /* \"--CODEGEN--\":6969:7001   */\n      calldataload\n        /* \"--CODEGEN--\":7021:7039   */\n      0xffffffffffffffff\n        /* \"--CODEGEN--\":7013:7019   */\n      dup2\n        /* \"--CODEGEN--\":7010:7040   */\n      gt\n        /* \"--CODEGEN--\":7007:7009   */\n      iszero\n      tag_179\n      jumpi\n        /* \"--CODEGEN--\":7053:7054   */\n      0x00\n        /* \"--CODEGEN--\":7050:7051   */\n      dup1\n        /* \"--CODEGEN--\":7043:7055   */\n      revert\n        /* \"--CODEGEN--\":7007:7009   */\n    tag_179:\n        /* \"--CODEGEN--\":7073:7136   */\n      tag_180\n        /* \"--CODEGEN--\":7128:7135   */\n      dup8\n        /* \"--CODEGEN--\":7119:7125   */\n      dup3\n        /* \"--CODEGEN--\":7108:7117   */\n      dup9\n        /* \"--CODEGEN--\":7104:7126   */\n      add\n        /* \"--CODEGEN--\":7073:7136   */\n      jump(tag_137)\n    tag_180:\n        /* \"--CODEGEN--\":7063:7136   */\n      swap4\n      pop\n        /* \"--CODEGEN--\":6948:7142   */\n      pop\n        /* \"--CODEGEN--\":7173:7175   */\n      0x40\n        /* \"--CODEGEN--\":7191:7244   */\n      tag_181\n        /* \"--CODEGEN--\":7236:7243   */\n      dup8\n        /* \"--CODEGEN--\":7227:7233   */\n      dup3\n        /* \"--CODEGEN--\":7216:7225   */\n      dup9\n        /* \"--CODEGEN--\":7212:7234   */\n      add\n        /* \"--CODEGEN--\":7191:7244   */\n      jump(tag_95)\n    tag_181:\n        /* \"--CODEGEN--\":7181:7244   */\n      swap3\n      pop\n        /* \"--CODEGEN--\":7152:7250   */\n      pop\n        /* \"--CODEGEN--\":7281:7283   */\n      0x60\n        /* \"--CODEGEN--\":7299:7350   */\n      tag_182\n        /* \"--CODEGEN--\":7342:7349   */\n      dup8\n        /* \"--CODEGEN--\":7333:7339   */\n      dup3\n        /* \"--CODEGEN--\":7322:7331   */\n      dup9\n        /* \"--CODEGEN--\":7318:7340   */\n      add\n        /* \"--CODEGEN--\":7299:7350   */\n      jump(tag_129)\n    tag_182:\n        /* \"--CODEGEN--\":7289:7350   */\n      swap2\n      pop\n        /* \"--CODEGEN--\":7260:7356   */\n      pop\n        /* \"--CODEGEN--\":6676:7366   */\n      swap3\n      swap6\n      swap2\n      swap5\n      pop\n      swap3\n      pop\n      jump\n        /* \"--CODEGEN--\":7373:8074   */\n    tag_38:\n      0x00\n      dup1\n      0x00\n        /* \"--CODEGEN--\":7530:7532   */\n      0x60\n        /* \"--CODEGEN--\":7518:7527   */\n      dup5\n        /* \"--CODEGEN--\":7509:7516   */\n      dup7\n        /* \"--CODEGEN--\":7505:7528   */\n      sub\n        /* \"--CODEGEN--\":7501:7533   */\n      slt\n        /* \"--CODEGEN--\":7498:7500   */\n      iszero\n      tag_183\n      jumpi\n        /* \"--CODEGEN--\":7546:7547   */\n      0x00\n        /* \"--CODEGEN--\":7543:7544   */\n      dup1\n        /* \"--CODEGEN--\":7536:7548   */\n      revert\n        /* \"--CODEGEN--\":7498:7500   */\n    tag_183:\n        /* \"--CODEGEN--\":7609:7610   */\n      0x00\n        /* \"--CODEGEN--\":7598:7607   */\n      dup5\n        /* \"--CODEGEN--\":7594:7611   */\n      add\n        /* \"--CODEGEN--\":7581:7612   */\n      calldataload\n        /* \"--CODEGEN--\":7632:7650   */\n      0xffffffffffffffff\n        /* \"--CODEGEN--\":7624:7630   */\n      dup2\n        /* \"--CODEGEN--\":7621:7651   */\n      gt\n        /* \"--CODEGEN--\":7618:7620   */\n      iszero\n      tag_184\n      jumpi\n        /* \"--CODEGEN--\":7664:7665   */\n      0x00\n        /* \"--CODEGEN--\":7661:7662   */\n      dup1\n        /* \"--CODEGEN--\":7654:7666   */\n      revert\n        /* \"--CODEGEN--\":7618:7620   */\n    tag_184:\n        /* \"--CODEGEN--\":7684:7747   */\n      tag_185\n        /* \"--CODEGEN--\":7739:7746   */\n      dup7\n        /* \"--CODEGEN--\":7730:7736   */\n      dup3\n        /* \"--CODEGEN--\":7719:7728   */\n      dup8\n        /* \"--CODEGEN--\":7715:7737   */\n      add\n        /* \"--CODEGEN--\":7684:7747   */\n      jump(tag_137)\n    tag_185:\n        /* \"--CODEGEN--\":7674:7747   */\n      swap4\n      pop\n        /* \"--CODEGEN--\":7560:7753   */\n      pop\n        /* \"--CODEGEN--\":7784:7786   */\n      0x20\n        /* \"--CODEGEN--\":7802:7854   */\n      tag_186\n        /* \"--CODEGEN--\":7846:7853   */\n      dup7\n        /* \"--CODEGEN--\":7837:7843   */\n      dup3\n        /* \"--CODEGEN--\":7826:7835   */\n      dup8\n        /* \"--CODEGEN--\":7822:7844   */\n      add\n        /* \"--CODEGEN--\":7802:7854   */\n      jump(tag_147)\n    tag_186:\n        /* \"--CODEGEN--\":7792:7854   */\n      swap3\n      pop\n        /* \"--CODEGEN--\":7763:7860   */\n      pop\n        /* \"--CODEGEN--\":7919:7921   */\n      0x40\n        /* \"--CODEGEN--\":7908:7917   */\n      dup5\n        /* \"--CODEGEN--\":7904:7922   */\n      add\n        /* \"--CODEGEN--\":7891:7923   */\n      calldataload\n        /* \"--CODEGEN--\":7943:7961   */\n      0xffffffffffffffff\n        /* \"--CODEGEN--\":7935:7941   */\n      dup2\n        /* \"--CODEGEN--\":7932:7962   */\n      gt\n        /* \"--CODEGEN--\":7929:7931   */\n      iszero\n      tag_187\n      jumpi\n        /* \"--CODEGEN--\":7975:7976   */\n      0x00\n        /* \"--CODEGEN--\":7972:7973   */\n      dup1\n        /* \"--CODEGEN--\":7965:7977   */\n      revert\n        /* \"--CODEGEN--\":7929:7931   */\n    tag_187:\n        /* \"--CODEGEN--\":7995:8058   */\n      tag_188\n        /* \"--CODEGEN--\":8050:8057   */\n      dup7\n        /* \"--CODEGEN--\":8041:8047   */\n      dup3\n        /* \"--CODEGEN--\":8030:8039   */\n      dup8\n        /* \"--CODEGEN--\":8026:8048   */\n      add\n        /* \"--CODEGEN--\":7995:8058   */\n      jump(tag_137)\n    tag_188:\n        /* \"--CODEGEN--\":7985:8058   */\n      swap2\n      pop\n        /* \"--CODEGEN--\":7870:8064   */\n      pop\n        /* \"--CODEGEN--\":7492:8074   */\n      swap3\n      pop\n      swap3\n      pop\n      swap3\n      jump\n        /* \"--CODEGEN--\":8081:8428   */\n    tag_189:\n      0x00\n        /* \"--CODEGEN--\":8193:8232   */\n      tag_190\n        /* \"--CODEGEN--\":8226:8231   */\n      dup3\n        /* \"--CODEGEN--\":8193:8232   */\n      jump(tag_191)\n    tag_190:\n        /* \"--CODEGEN--\":8244:8315   */\n      tag_192\n        /* \"--CODEGEN--\":8308:8314   */\n      dup2\n        /* \"--CODEGEN--\":8303:8306   */\n      dup6\n        /* \"--CODEGEN--\":8244:8315   */\n      jump(tag_193)\n    tag_192:\n        /* \"--CODEGEN--\":8237:8315   */\n      swap4\n      pop\n        /* \"--CODEGEN--\":8320:8372   */\n      tag_194\n        /* \"--CODEGEN--\":8365:8371   */\n      dup2\n        /* \"--CODEGEN--\":8360:8363   */\n      dup6\n        /* \"--CODEGEN--\":8353:8357   */\n      0x20\n        /* \"--CODEGEN--\":8346:8351   */\n      dup7\n        /* \"--CODEGEN--\":8342:8358   */\n      add\n        /* \"--CODEGEN--\":8320:8372   */\n      jump(tag_195)\n    tag_194:\n        /* \"--CODEGEN--\":8393:8422   */\n      tag_196\n        /* \"--CODEGEN--\":8415:8421   */\n      dup2\n        /* \"--CODEGEN--\":8393:8422   */\n      jump(tag_197)\n    tag_196:\n        /* \"--CODEGEN--\":8388:8391   */\n      dup5\n        /* \"--CODEGEN--\":8384:8423   */\n      add\n        /* \"--CODEGEN--\":8377:8423   */\n      swap2\n      pop\n        /* \"--CODEGEN--\":8173:8428   */\n      pop\n      swap3\n      swap2\n      pop\n      pop\n      jump\n        /* \"--CODEGEN--\":8435:8795   */\n    tag_198:\n      0x00\n        /* \"--CODEGEN--\":8565:8604   */\n      tag_199\n        /* \"--CODEGEN--\":8598:8603   */\n      dup3\n        /* \"--CODEGEN--\":8565:8604   */\n      jump(tag_191)\n    tag_199:\n        /* \"--CODEGEN--\":8616:8705   */\n      tag_200\n        /* \"--CODEGEN--\":8698:8704   */\n      dup2\n        /* \"--CODEGEN--\":8693:8696   */\n      dup6\n        /* \"--CODEGEN--\":8616:8705   */\n      jump(tag_201)\n    tag_200:\n        /* \"--CODEGEN--\":8609:8705   */\n      swap4\n      pop\n        /* \"--CODEGEN--\":8710:8762   */\n      tag_202\n        /* \"--CODEGEN--\":8755:8761   */\n      dup2\n        /* \"--CODEGEN--\":8750:8753   */\n      dup6\n        /* \"--CODEGEN--\":8743:8747   */\n      0x20\n        /* \"--CODEGEN--\":8736:8741   */\n      dup7\n        /* \"--CODEGEN--\":8732:8748   */\n      add\n        /* \"--CODEGEN--\":8710:8762   */\n      jump(tag_195)\n    tag_202:\n        /* \"--CODEGEN--\":8783:8789   */\n      dup1\n        /* \"--CODEGEN--\":8778:8781   */\n      dup5\n        /* \"--CODEGEN--\":8774:8790   */\n      add\n        /* \"--CODEGEN--\":8767:8790   */\n      swap2\n      pop\n        /* \"--CODEGEN--\":8545:8795   */\n      pop\n      swap3\n      swap2\n      pop\n      pop\n      jump\n        /* \"--CODEGEN--\":8802:9154   */\n    tag_203:\n      0x00\n        /* \"--CODEGEN--\":8928:8963   */\n      tag_204\n        /* \"--CODEGEN--\":8957:8962   */\n      dup3\n        /* \"--CODEGEN--\":8928:8963   */\n      jump(tag_205)\n    tag_204:\n        /* \"--CODEGEN--\":8975:9064   */\n      tag_206\n        /* \"--CODEGEN--\":9057:9063   */\n      dup2\n        /* \"--CODEGEN--\":9052:9055   */\n      dup6\n        /* \"--CODEGEN--\":8975:9064   */\n      jump(tag_201)\n    tag_206:\n        /* \"--CODEGEN--\":8968:9064   */\n      swap4\n      pop\n        /* \"--CODEGEN--\":9069:9121   */\n      tag_207\n        /* \"--CODEGEN--\":9114:9120   */\n      dup2\n        /* \"--CODEGEN--\":9109:9112   */\n      dup6\n        /* \"--CODEGEN--\":9102:9106   */\n      0x20\n        /* \"--CODEGEN--\":9095:9100   */\n      dup7\n        /* \"--CODEGEN--\":9091:9107   */\n      add\n        /* \"--CODEGEN--\":9069:9121   */\n      jump(tag_195)\n    tag_207:\n        /* \"--CODEGEN--\":9142:9148   */\n      dup1\n        /* \"--CODEGEN--\":9137:9140   */\n      dup5\n        /* \"--CODEGEN--\":9133:9149   */\n      add\n        /* \"--CODEGEN--\":9126:9149   */\n      swap2\n      pop\n        /* \"--CODEGEN--\":8908:9154   */\n      pop\n      swap3\n      swap2\n      pop\n      pop\n      jump\n        /* \"--CODEGEN--\":9161:9271   */\n    tag_208:\n        /* \"--CODEGEN--\":9242:9265   */\n      tag_209\n        /* \"--CODEGEN--\":9259:9264   */\n      dup2\n        /* \"--CODEGEN--\":9242:9265   */\n      jump(tag_210)\n    tag_209:\n        /* \"--CODEGEN--\":9237:9240   */\n      dup3\n        /* \"--CODEGEN--\":9230:9266   */\n      mstore\n        /* \"--CODEGEN--\":9224:9271   */\n      pop\n      pop\n      jump\n        /* \"--CODEGEN--\":9278:9385   */\n    tag_211:\n        /* \"--CODEGEN--\":9357:9379   */\n      tag_212\n        /* \"--CODEGEN--\":9373:9378   */\n      dup2\n        /* \"--CODEGEN--\":9357:9379   */\n      jump(tag_213)\n    tag_212:\n        /* \"--CODEGEN--\":9352:9355   */\n      dup3\n        /* \"--CODEGEN--\":9345:9380   */\n      mstore\n        /* \"--CODEGEN--\":9339:9385   */\n      pop\n      pop\n      jump\n        /* \"--CODEGEN--\":9392:9650   */\n    tag_80:\n      0x00\n        /* \"--CODEGEN--\":9534:9625   */\n      tag_214\n        /* \"--CODEGEN--\":9621:9624   */\n      dup3\n        /* \"--CODEGEN--\":9612:9618   */\n      dup5\n        /* \"--CODEGEN--\":9534:9625   */\n      jump(tag_203)\n    tag_214:\n        /* \"--CODEGEN--\":9527:9625   */\n      swap2\n      pop\n        /* \"--CODEGEN--\":9642:9645   */\n      dup2\n        /* \"--CODEGEN--\":9635:9645   */\n      swap1\n      pop\n        /* \"--CODEGEN--\":9515:9650   */\n      swap3\n      swap2\n      pop\n      pop\n      jump\n        /* \"--CODEGEN--\":9657:9923   */\n    tag_50:\n      0x00\n        /* \"--CODEGEN--\":9803:9898   */\n      tag_215\n        /* \"--CODEGEN--\":9894:9897   */\n      dup3\n        /* \"--CODEGEN--\":9885:9891   */\n      dup5\n        /* \"--CODEGEN--\":9803:9898   */\n      jump(tag_198)\n    tag_215:\n        /* \"--CODEGEN--\":9796:9898   */\n      swap2\n      pop\n        /* \"--CODEGEN--\":9915:9918   */\n      dup2\n        /* \"--CODEGEN--\":9908:9918   */\n      swap1\n      pop\n        /* \"--CODEGEN--\":9784:9923   */\n      swap3\n      swap2\n      pop\n      pop\n      jump\n        /* \"--CODEGEN--\":9930:10231   */\n    tag_23:\n      0x00\n        /* \"--CODEGEN--\":10068:10070   */\n      0x20\n        /* \"--CODEGEN--\":10057:10066   */\n      dup3\n        /* \"--CODEGEN--\":10053:10071   */\n      add\n        /* \"--CODEGEN--\":10045:10071   */\n      swap1\n      pop\n        /* \"--CODEGEN--\":10118:10127   */\n      dup2\n        /* \"--CODEGEN--\":10112:10116   */\n      dup2\n        /* \"--CODEGEN--\":10108:10128   */\n      sub\n        /* \"--CODEGEN--\":10104:10105   */\n      0x00\n        /* \"--CODEGEN--\":10093:10102   */\n      dup4\n        /* \"--CODEGEN--\":10089:10106   */\n      add\n        /* \"--CODEGEN--\":10082:10129   */\n      mstore\n        /* \"--CODEGEN--\":10143:10221   */\n      tag_216\n        /* \"--CODEGEN--\":10216:10220   */\n      dup2\n        /* \"--CODEGEN--\":10207:10213   */\n      dup5\n        /* \"--CODEGEN--\":10143:10221   */\n      jump(tag_189)\n    tag_216:\n        /* \"--CODEGEN--\":10135:10221   */\n      swap1\n      pop\n        /* \"--CODEGEN--\":10039:10231   */\n      swap3\n      swap2\n      pop\n      pop\n      jump\n        /* \"--CODEGEN--\":10238:10447   */\n    tag_35:\n      0x00\n        /* \"--CODEGEN--\":10354:10356   */\n      0x20\n        /* \"--CODEGEN--\":10343:10352   */\n      dup3\n        /* \"--CODEGEN--\":10339:10357   */\n      add\n        /* \"--CODEGEN--\":10331:10357   */\n      swap1\n      pop\n        /* \"--CODEGEN--\":10368:10437   */\n      tag_217\n        /* \"--CODEGEN--\":10434:10435   */\n      0x00\n        /* \"--CODEGEN--\":10423:10432   */\n      dup4\n        /* \"--CODEGEN--\":10419:10436   */\n      add\n        /* \"--CODEGEN--\":10410:10416   */\n      dup5\n        /* \"--CODEGEN--\":10368:10437   */\n      jump(tag_208)\n    tag_217:\n        /* \"--CODEGEN--\":10325:10447   */\n      swap3\n      swap2\n      pop\n      pop\n      jump\n        /* \"--CODEGEN--\":10454:10659   */\n    tag_17:\n      0x00\n        /* \"--CODEGEN--\":10568:10570   */\n      0x20\n        /* \"--CODEGEN--\":10557:10566   */\n      dup3\n        /* \"--CODEGEN--\":10553:10571   */\n      add\n        /* \"--CODEGEN--\":10545:10571   */\n      swap1\n      pop\n        /* \"--CODEGEN--\":10582:10649   */\n      tag_218\n        /* \"--CODEGEN--\":10646:10647   */\n      0x00\n        /* \"--CODEGEN--\":10635:10644   */\n      dup4\n        /* \"--CODEGEN--\":10631:10648   */\n      add\n        /* \"--CODEGEN--\":10622:10628   */\n      dup5\n        /* \"--CODEGEN--\":10582:10649   */\n      jump(tag_211)\n    tag_218:\n        /* \"--CODEGEN--\":10539:10659   */\n      swap3\n      swap2\n      pop\n      pop\n      jump\n        /* \"--CODEGEN--\":10666:10922   */\n    tag_103:\n      0x00\n        /* \"--CODEGEN--\":10728:10730   */\n      0x40\n        /* \"--CODEGEN--\":10722:10731   */\n      mload\n        /* \"--CODEGEN--\":10712:10731   */\n      swap1\n      pop\n        /* \"--CODEGEN--\":10766:10770   */\n      dup2\n        /* \"--CODEGEN--\":10758:10764   */\n      dup2\n        /* \"--CODEGEN--\":10754:10771   */\n      add\n        /* \"--CODEGEN--\":10865:10871   */\n      dup2\n        /* \"--CODEGEN--\":10853:10863   */\n      dup2\n        /* \"--CODEGEN--\":10850:10872   */\n      lt\n        /* \"--CODEGEN--\":10829:10847   */\n      0xffffffffffffffff\n        /* \"--CODEGEN--\":10817:10827   */\n      dup3\n        /* \"--CODEGEN--\":10814:10848   */\n      gt\n        /* \"--CODEGEN--\":10811:10873   */\n      or\n        /* \"--CODEGEN--\":10808:10810   */\n      iszero\n      tag_219\n      jumpi\n        /* \"--CODEGEN--\":10886:10887   */\n      0x00\n        /* \"--CODEGEN--\":10883:10884   */\n      dup1\n        /* \"--CODEGEN--\":10876:10888   */\n      revert\n        /* \"--CODEGEN--\":10808:10810   */\n    tag_219:\n        /* \"--CODEGEN--\":10906:10916   */\n      dup1\n        /* \"--CODEGEN--\":10902:10904   */\n      0x40\n        /* \"--CODEGEN--\":10895:10917   */\n      mstore\n        /* \"--CODEGEN--\":10706:10922   */\n      pop\n      swap2\n      swap1\n      pop\n      jump\n        /* \"--CODEGEN--\":10929:11233   */\n    tag_102:\n      0x00\n        /* \"--CODEGEN--\":11088:11106   */\n      0xffffffffffffffff\n        /* \"--CODEGEN--\":11080:11086   */\n      dup3\n        /* \"--CODEGEN--\":11077:11107   */\n      gt\n        /* \"--CODEGEN--\":11074:11076   */\n      iszero\n      tag_220\n      jumpi\n        /* \"--CODEGEN--\":11120:11121   */\n      0x00\n        /* \"--CODEGEN--\":11117:11118   */\n      dup1\n        /* \"--CODEGEN--\":11110:11122   */\n      revert\n        /* \"--CODEGEN--\":11074:11076   */\n    tag_220:\n        /* \"--CODEGEN--\":11155:11159   */\n      0x20\n        /* \"--CODEGEN--\":11147:11153   */\n      dup3\n        /* \"--CODEGEN--\":11143:11160   */\n      mul\n        /* \"--CODEGEN--\":11135:11160   */\n      swap1\n      pop\n        /* \"--CODEGEN--\":11218:11222   */\n      0x20\n        /* \"--CODEGEN--\":11212:11216   */\n      dup2\n        /* \"--CODEGEN--\":11208:11223   */\n      add\n        /* \"--CODEGEN--\":11200:11223   */\n      swap1\n      pop\n        /* \"--CODEGEN--\":11011:11233   */\n      swap2\n      swap1\n      pop\n      jump\n        /* \"--CODEGEN--\":11240:11550   */\n    tag_113:\n      0x00\n        /* \"--CODEGEN--\":11405:11423   */\n      0xffffffffffffffff\n        /* \"--CODEGEN--\":11397:11403   */\n      dup3\n        /* \"--CODEGEN--\":11394:11424   */\n      gt\n        /* \"--CODEGEN--\":11391:11393   */\n      iszero\n      tag_221\n      jumpi\n        /* \"--CODEGEN--\":11437:11438   */\n      0x00\n        /* \"--CODEGEN--\":11434:11435   */\n      dup1\n        /* \"--CODEGEN--\":11427:11439   */\n      revert\n        /* \"--CODEGEN--\":11391:11393   */\n    tag_221:\n        /* \"--CODEGEN--\":11472:11476   */\n      0x20\n        /* \"--CODEGEN--\":11464:11470   */\n      dup3\n        /* \"--CODEGEN--\":11460:11477   */\n      mul\n        /* \"--CODEGEN--\":11452:11477   */\n      swap1\n      pop\n        /* \"--CODEGEN--\":11535:11539   */\n      0x20\n        /* \"--CODEGEN--\":11529:11533   */\n      dup2\n        /* \"--CODEGEN--\":11525:11540   */\n      add\n        /* \"--CODEGEN--\":11517:11540   */\n      swap1\n      pop\n        /* \"--CODEGEN--\":11328:11550   */\n      swap2\n      swap1\n      pop\n      jump\n        /* \"--CODEGEN--\":11557:11859   */\n    tag_123:\n      0x00\n        /* \"--CODEGEN--\":11714:11732   */\n      0xffffffffffffffff\n        /* \"--CODEGEN--\":11706:11712   */\n      dup3\n        /* \"--CODEGEN--\":11703:11733   */\n      gt\n        /* \"--CODEGEN--\":11700:11702   */\n      iszero\n      tag_222\n      jumpi\n        /* \"--CODEGEN--\":11746:11747   */\n      0x00\n        /* \"--CODEGEN--\":11743:11744   */\n      dup1\n        /* \"--CODEGEN--\":11736:11748   */\n      revert\n        /* \"--CODEGEN--\":11700:11702   */\n    tag_222:\n        /* \"--CODEGEN--\":11781:11785   */\n      0x20\n        /* \"--CODEGEN--\":11773:11779   */\n      dup3\n        /* \"--CODEGEN--\":11769:11786   */\n      mul\n        /* \"--CODEGEN--\":11761:11786   */\n      swap1\n      pop\n        /* \"--CODEGEN--\":11844:11848   */\n      0x20\n        /* \"--CODEGEN--\":11838:11842   */\n      dup2\n        /* \"--CODEGEN--\":11834:11849   */\n      add\n        /* \"--CODEGEN--\":11826:11849   */\n      swap1\n      pop\n        /* \"--CODEGEN--\":11637:11859   */\n      swap2\n      swap1\n      pop\n      jump\n        /* \"--CODEGEN--\":11866:12184   */\n    tag_133:\n      0x00\n        /* \"--CODEGEN--\":12006:12024   */\n      0xffffffffffffffff\n        /* \"--CODEGEN--\":11998:12004   */\n      dup3\n        /* \"--CODEGEN--\":11995:12025   */\n      gt\n        /* \"--CODEGEN--\":11992:11994   */\n      iszero\n      tag_223\n      jumpi\n        /* \"--CODEGEN--\":12038:12039   */\n      0x00\n        /* \"--CODEGEN--\":12035:12036   */\n      dup1\n        /* \"--CODEGEN--\":12028:12040   */\n      revert\n        /* \"--CODEGEN--\":11992:11994   */\n    tag_223:\n        /* \"--CODEGEN--\":12105:12109   */\n      0x1f\n        /* \"--CODEGEN--\":12101:12110   */\n      not\n        /* \"--CODEGEN--\":12094:12098   */\n      0x1f\n        /* \"--CODEGEN--\":12086:12092   */\n      dup4\n        /* \"--CODEGEN--\":12082:12099   */\n      add\n        /* \"--CODEGEN--\":12078:12111   */\n      and\n        /* \"--CODEGEN--\":12070:12111   */\n      swap1\n      pop\n        /* \"--CODEGEN--\":12169:12173   */\n      0x20\n        /* \"--CODEGEN--\":12163:12167   */\n      dup2\n        /* \"--CODEGEN--\":12159:12174   */\n      add\n        /* \"--CODEGEN--\":12151:12174   */\n      swap1\n      pop\n        /* \"--CODEGEN--\":11929:12184   */\n      swap2\n      swap1\n      pop\n      jump\n        /* \"--CODEGEN--\":12191:12513   */\n    tag_141:\n      0x00\n        /* \"--CODEGEN--\":12335:12353   */\n      0xffffffffffffffff\n        /* \"--CODEGEN--\":12327:12333   */\n      dup3\n        /* \"--CODEGEN--\":12324:12354   */\n      gt\n        /* \"--CODEGEN--\":12321:12323   */\n      iszero\n      tag_224\n      jumpi\n        /* \"--CODEGEN--\":12367:12368   */\n      0x00\n        /* \"--CODEGEN--\":12364:12365   */\n      dup1\n        /* \"--CODEGEN--\":12357:12369   */\n      revert\n        /* \"--CODEGEN--\":12321:12323   */\n    tag_224:\n        /* \"--CODEGEN--\":12434:12438   */\n      0x1f\n        /* \"--CODEGEN--\":12430:12439   */\n      not\n        /* \"--CODEGEN--\":12423:12427   */\n      0x1f\n        /* \"--CODEGEN--\":12415:12421   */\n      dup4\n        /* \"--CODEGEN--\":12411:12428   */\n      add\n        /* \"--CODEGEN--\":12407:12440   */\n      and\n        /* \"--CODEGEN--\":12399:12440   */\n      swap1\n      pop\n        /* \"--CODEGEN--\":12498:12502   */\n      0x20\n        /* \"--CODEGEN--\":12492:12496   */\n      dup2\n        /* \"--CODEGEN--\":12488:12503   */\n      add\n        /* \"--CODEGEN--\":12480:12503   */\n      swap1\n      pop\n        /* \"--CODEGEN--\":12258:12513   */\n      swap2\n      swap1\n      pop\n      jump\n        /* \"--CODEGEN--\":12520:12638   */\n    tag_205:\n      0x00\n        /* \"--CODEGEN--\":12610:12615   */\n      dup2\n        /* \"--CODEGEN--\":12604:12616   */\n      mload\n        /* \"--CODEGEN--\":12594:12616   */\n      swap1\n      pop\n        /* \"--CODEGEN--\":12575:12638   */\n      swap2\n      swap1\n      pop\n      jump\n        /* \"--CODEGEN--\":12645:12767   */\n    tag_191:\n      0x00\n        /* \"--CODEGEN--\":12739:12744   */\n      dup2\n        /* \"--CODEGEN--\":12733:12745   */\n      mload\n        /* \"--CODEGEN--\":12723:12745   */\n      swap1\n      pop\n        /* \"--CODEGEN--\":12704:12767   */\n      swap2\n      swap1\n      pop\n      jump\n        /* \"--CODEGEN--\":12775:12938   */\n    tag_193:\n      0x00\n        /* \"--CODEGEN--\":12890:12896   */\n      dup3\n        /* \"--CODEGEN--\":12885:12888   */\n      dup3\n        /* \"--CODEGEN--\":12878:12897   */\n      mstore\n        /* \"--CODEGEN--\":12927:12931   */\n      0x20\n        /* \"--CODEGEN--\":12922:12925   */\n      dup3\n        /* \"--CODEGEN--\":12918:12932   */\n      add\n        /* \"--CODEGEN--\":12903:12932   */\n      swap1\n      pop\n        /* \"--CODEGEN--\":12871:12938   */\n      swap3\n      swap2\n      pop\n      pop\n      jump\n        /* \"--CODEGEN--\":12947:13092   */\n    tag_201:\n      0x00\n        /* \"--CODEGEN--\":13083:13086   */\n      dup2\n        /* \"--CODEGEN--\":13068:13086   */\n      swap1\n      pop\n        /* \"--CODEGEN--\":13061:13092   */\n      swap3\n      swap2\n      pop\n      pop\n      jump\n        /* \"--CODEGEN--\":13100:13191   */\n    tag_225:\n      0x00\n        /* \"--CODEGEN--\":13162:13186   */\n      tag_226\n        /* \"--CODEGEN--\":13180:13185   */\n      dup3\n        /* \"--CODEGEN--\":13162:13186   */\n      jump(tag_227)\n    tag_226:\n        /* \"--CODEGEN--\":13151:13186   */\n      swap1\n      pop\n        /* \"--CODEGEN--\":13145:13191   */\n      swap2\n      swap1\n      pop\n      jump\n        /* \"--CODEGEN--\":13198:13319   */\n    tag_227:\n      0x00\n        /* \"--CODEGEN--\":13271:13313   */\n      0xffffffffffffffffffffffffffffffffffffffff\n        /* \"--CODEGEN--\":13264:13269   */\n      dup3\n        /* \"--CODEGEN--\":13260:13314   */\n      and\n        /* \"--CODEGEN--\":13249:13314   */\n      swap1\n      pop\n        /* \"--CODEGEN--\":13243:13319   */\n      swap2\n      swap1\n      pop\n      jump\n        /* \"--CODEGEN--\":13326:13398   */\n    tag_228:\n      0x00\n        /* \"--CODEGEN--\":13388:13393   */\n      dup2\n        /* \"--CODEGEN--\":13377:13393   */\n      swap1\n      pop\n        /* \"--CODEGEN--\":13371:13398   */\n      swap2\n      swap1\n      pop\n      jump\n        /* \"--CODEGEN--\":13405:13493   */\n    tag_210:\n      0x00\n        /* \"--CODEGEN--\":13477:13487   */\n      0xffffffff\n        /* \"--CODEGEN--\":13470:13475   */\n      dup3\n        /* \"--CODEGEN--\":13466:13488   */\n      and\n        /* \"--CODEGEN--\":13455:13488   */\n      swap1\n      pop\n        /* \"--CODEGEN--\":13449:13493   */\n      swap2\n      swap1\n      pop\n      jump\n        /* \"--CODEGEN--\":13500:13581   */\n    tag_213:\n      0x00\n        /* \"--CODEGEN--\":13571:13575   */\n      0xff\n        /* \"--CODEGEN--\":13564:13569   */\n      dup3\n        /* \"--CODEGEN--\":13560:13576   */\n      and\n        /* \"--CODEGEN--\":13549:13576   */\n      swap1\n      pop\n        /* \"--CODEGEN--\":13543:13581   */\n      swap2\n      swap1\n      pop\n      jump\n        /* \"--CODEGEN--\":13589:13734   */\n    tag_136:\n        /* \"--CODEGEN--\":13670:13676   */\n      dup3\n        /* \"--CODEGEN--\":13665:13668   */\n      dup2\n        /* \"--CODEGEN--\":13660:13663   */\n      dup4\n        /* \"--CODEGEN--\":13647:13677   */\n      calldatacopy\n        /* \"--CODEGEN--\":13726:13727   */\n      0x00\n        /* \"--CODEGEN--\":13717:13723   */\n      dup4\n        /* \"--CODEGEN--\":13712:13715   */\n      dup4\n        /* \"--CODEGEN--\":13708:13724   */\n      add\n        /* \"--CODEGEN--\":13701:13728   */\n      mstore\n        /* \"--CODEGEN--\":13640:13734   */\n      pop\n      pop\n      pop\n      jump\n        /* \"--CODEGEN--\":13743:14011   */\n    tag_195:\n        /* \"--CODEGEN--\":13808:13809   */\n      0x00\n        /* \"--CODEGEN--\":13815:13916   */\n    tag_229:\n        /* \"--CODEGEN--\":13829:13835   */\n      dup4\n        /* \"--CODEGEN--\":13826:13827   */\n      dup2\n        /* \"--CODEGEN--\":13823:13836   */\n      lt\n        /* \"--CODEGEN--\":13815:13916   */\n      iszero\n      tag_231\n      jumpi\n        /* \"--CODEGEN--\":13905:13906   */\n      dup1\n        /* \"--CODEGEN--\":13900:13903   */\n      dup3\n        /* \"--CODEGEN--\":13896:13907   */\n      add\n        /* \"--CODEGEN--\":13890:13908   */\n      mload\n        /* \"--CODEGEN--\":13886:13887   */\n      dup2\n        /* \"--CODEGEN--\":13881:13884   */\n      dup5\n        /* \"--CODEGEN--\":13877:13888   */\n      add\n        /* \"--CODEGEN--\":13870:13909   */\n      mstore\n        /* \"--CODEGEN--\":13851:13853   */\n      0x20\n        /* \"--CODEGEN--\":13848:13849   */\n      dup2\n        /* \"--CODEGEN--\":13844:13854   */\n      add\n        /* \"--CODEGEN--\":13839:13854   */\n      swap1\n      pop\n        /* \"--CODEGEN--\":13815:13916   */\n      jump(tag_229)\n    tag_231:\n        /* \"--CODEGEN--\":13931:13937   */\n      dup4\n        /* \"--CODEGEN--\":13928:13929   */\n      dup2\n        /* \"--CODEGEN--\":13925:13938   */\n      gt\n        /* \"--CODEGEN--\":13922:13924   */\n      iszero\n      tag_232\n      jumpi\n        /* \"--CODEGEN--\":13996:13997   */\n      0x00\n        /* \"--CODEGEN--\":13987:13993   */\n      dup5\n        /* \"--CODEGEN--\":13982:13985   */\n      dup5\n        /* \"--CODEGEN--\":13978:13994   */\n      add\n        /* \"--CODEGEN--\":13971:13998   */\n      mstore\n        /* \"--CODEGEN--\":13922:13924   */\n    tag_232:\n        /* \"--CODEGEN--\":13792:14011   */\n      pop\n      pop\n      pop\n      pop\n      jump\n        /* \"--CODEGEN--\":14019:14116   */\n    tag_197:\n      0x00\n        /* \"--CODEGEN--\":14107:14109   */\n      0x1f\n        /* \"--CODEGEN--\":14103:14110   */\n      not\n        /* \"--CODEGEN--\":14098:14100   */\n      0x1f\n        /* \"--CODEGEN--\":14091:14096   */\n      dup4\n        /* \"--CODEGEN--\":14087:14101   */\n      add\n        /* \"--CODEGEN--\":14083:14111   */\n      and\n        /* \"--CODEGEN--\":14073:14111   */\n      swap1\n      pop\n        /* \"--CODEGEN--\":14067:14116   */\n      swap2\n      swap1\n      pop\n      jump\n        /* \"--CODEGEN--\":14124:14241   */\n    tag_97:\n        /* \"--CODEGEN--\":14193:14217   */\n      tag_233\n        /* \"--CODEGEN--\":14211:14216   */\n      dup2\n        /* \"--CODEGEN--\":14193:14217   */\n      jump(tag_225)\n    tag_233:\n        /* \"--CODEGEN--\":14186:14191   */\n      dup2\n        /* \"--CODEGEN--\":14183:14218   */\n      eq\n        /* \"--CODEGEN--\":14173:14175   */\n      tag_234\n      jumpi\n        /* \"--CODEGEN--\":14232:14233   */\n      0x00\n        /* \"--CODEGEN--\":14229:14230   */\n      dup1\n        /* \"--CODEGEN--\":14222:14234   */\n      revert\n        /* \"--CODEGEN--\":14173:14175   */\n    tag_234:\n        /* \"--CODEGEN--\":14167:14241   */\n      pop\n      jump\n        /* \"--CODEGEN--\":14248:14365   */\n    tag_146:\n        /* \"--CODEGEN--\":14317:14341   */\n      tag_235\n        /* \"--CODEGEN--\":14335:14340   */\n      dup2\n        /* \"--CODEGEN--\":14317:14341   */\n      jump(tag_228)\n    tag_235:\n        /* \"--CODEGEN--\":14310:14315   */\n      dup2\n        /* \"--CODEGEN--\":14307:14342   */\n      eq\n        /* \"--CODEGEN--\":14297:14299   */\n      tag_236\n      jumpi\n        /* \"--CODEGEN--\":14356:14357   */\n      0x00\n        /* \"--CODEGEN--\":14353:14354   */\n      dup1\n        /* \"--CODEGEN--\":14346:14358   */\n      revert\n        /* \"--CODEGEN--\":14297:14299   */\n    tag_236:\n        /* \"--CODEGEN--\":14291:14365   */\n      pop\n      jump\n        /* \"--CODEGEN--\":14372:14487   */\n    tag_149:\n        /* \"--CODEGEN--\":14440:14463   */\n      tag_237\n        /* \"--CODEGEN--\":14457:14462   */\n      dup2\n        /* \"--CODEGEN--\":14440:14463   */\n      jump(tag_210)\n    tag_237:\n        /* \"--CODEGEN--\":14433:14438   */\n      dup2\n        /* \"--CODEGEN--\":14430:14464   */\n      eq\n        /* \"--CODEGEN--\":14420:14422   */\n      tag_238\n      jumpi\n        /* \"--CODEGEN--\":14478:14479   */\n      0x00\n        /* \"--CODEGEN--\":14475:14476   */\n      dup1\n        /* \"--CODEGEN--\":14468:14480   */\n      revert\n        /* \"--CODEGEN--\":14420:14422   */\n    tag_238:\n        /* \"--CODEGEN--\":14414:14487   */\n      pop\n      jump\n        /* \"--CODEGEN--\":14494:14607   */\n    tag_151:\n        /* \"--CODEGEN--\":14561:14583   */\n      tag_239\n        /* \"--CODEGEN--\":14577:14582   */\n      dup2\n        /* \"--CODEGEN--\":14561:14583   */\n      jump(tag_213)\n    tag_239:\n        /* \"--CODEGEN--\":14554:14559   */\n      dup2\n        /* \"--CODEGEN--\":14551:14584   */\n      eq\n        /* \"--CODEGEN--\":14541:14543   */\n      tag_240\n      jumpi\n        /* \"--CODEGEN--\":14598:14599   */\n      0x00\n        /* \"--CODEGEN--\":14595:14596   */\n      dup1\n        /* \"--CODEGEN--\":14588:14600   */\n      revert\n        /* \"--CODEGEN--\":14541:14543   */\n    tag_240:\n        /* \"--CODEGEN--\":14535:14607   */\n      pop\n      jump\n\n    auxdata: 0xa365627a7a72315820c89697e520d874d15a2c87a58803dbb188c347d238c3b0cf0d5d57dc0312e7b96c6578706572696d656e74616cf564736f6c63430005110040\n}\n",
				"bytecode": {
					"linkReferences": {},
					"object": "608060405234801561001057600080fd5b5061107f806100206000396000f3fe608060405234801561001057600080fd5b50600436106100885760003560e01c80636877473e1161005b5780636877473e146101255780636cb1f39414610155578063b8f88aad14610171578063d6dd2a2b1461018d57610088565b806321d3473b1461008d57806323eab7ff146100bd57806326e1a9e7146100ed57806334a12cf814610109575b600080fd5b6100a760048036036100a29190810190610b35565b6101a9565b6040516100b49190610dea565b60405180910390f35b6100d760048036036100d291908101906109b1565b61023b565b6040516100e49190610dad565b60405180910390f35b61010760048036036101029190810190610ac9565b6102fe565b005b610123600480360361011e9190810190610ac9565b6103b2565b005b61013f600480360361013a91908101906109b1565b6103ec565b60405161014c9190610dcf565b60405180910390f35b61016f600480360361016a9190810190610c47565b610426565b005b61018b600480360361018691908101906109f2565b61050e565b005b6101a760048036036101a29190810190610bb4565b6105fd565b005b600080846040516101ba9190610d96565b9081526020016040518091039020600001836040516101d99190610d96565b908152602001604051809103902060008373ffffffffffffffffffffffffffffffffffffffff1673ffffffffffffffffffffffffffffffffffffffff16815260200190815260200160002060009054906101000a900460ff1690509392505050565b606060008260405161024d9190610d96565b90815260200160405180910390206002018054600181600116156101000203166002900480601f0160208091040260200160405190810160405280929190818152602001828054600181600116156101000203166002900480156102f25780601f106102c7576101008083540402835291602001916102f2565b820191906000526020600020905b8154815290600101906020018083116102d557829003601f168201915b50505050509050919050565b60006001806000856040516103139190610d96565b9081526020016040518091039020600001846040516103329190610d96565b908152602001604051809103902060003373ffffffffffffffffffffffffffffffffffffffff1673ffffffffffffffffffffffffffffffffffffffff16815260200190815260200160002060009054906101000a900460ff161660ff161490508061039957fe5b3373ffffffffffffffffffffffffffffffffffffffff16ff5b806000836040516103c39190610d96565b908152602001604051809103902060020190805190602001906103e7929190610696565b505050565b600080826040516103fd9190610d96565b908152602001604051809103902060010160009054906101000a900463ffffffff169050919050565b6000600180600360008760405161043d9190610d96565b90815260200160405180910390206000018560405161045c9190610d96565b908152602001604051809103902060003373ffffffffffffffffffffffffffffffffffffffff1673ffffffffffffffffffffffffffffffffffffffff16815260200190815260200160002060009054906101000a900460ff1660ff16901c1660ff16149050806104c857fe5b826000856040516104d99190610d96565b908152602001604051809103902060010160006101000a81548163ffffffff021916908363ffffffff16021790555050505050565b60008090505b818110156105f55782818151811061052857fe5b60200260200101516000876040516105409190610d96565b908152602001604051809103902060000186838151811061055d57fe5b60200260200101516040516105729190610d7f565b9081526020016040518091039020600086848151811061058e57fe5b602002602001015173ffffffffffffffffffffffffffffffffffffffff1673ffffffffffffffffffffffffffffffffffffffff16815260200190815260200160002060006101000a81548160ff021916908360ff1602179055508080600101915050610514565b505050505050565b8060008560405161060e9190610d96565b90815260200160405180910390206000018460405161062d9190610d96565b908152602001604051809103902060008473ffffffffffffffffffffffffffffffffffffffff1673ffffffffffffffffffffffffffffffffffffffff16815260200190815260200160002060006101000a81548160ff021916908360ff16021790555050505050565b828054600181600116156101000203166002900490600052602060002090601f016020900481019282601f106106d757805160ff1916838001178555610705565b82800160010185558215610705579182015b828111156107045782518255916020019190600101906106e9565b5b5090506107129190610716565b5090565b61073891905b8082111561073457600081600090555060010161071c565b5090565b90565b60008135905061074a81610fe0565b92915050565b600082601f83011261076157600080fd5b813561077461076f82610e32565b610e05565b9150818183526020840193506020810190508385602084028201111561079957600080fd5b60005b838110156107c957816107af888261073b565b84526020840193506020830192505060018101905061079c565b5050505092915050565b600082601f8301126107e457600080fd5b81356107f76107f282610e5a565b610e05565b9150818183526020840193506020810190508360005b8381101561083d578135860161082388826108ca565b84526020840193506020830192505060018101905061080d565b5050505092915050565b600082601f83011261085857600080fd5b813561086b61086682610e82565b610e05565b9150818183526020840193506020810190508385602084028201111561089057600080fd5b60005b838110156108c057816108a6888261099c565b845260208401935060208301925050600181019050610893565b5050505092915050565b600082601f8301126108db57600080fd5b81356108ee6108e982610eaa565b610e05565b9150808252602083016020830185838301111561090a57600080fd5b610915838284610f8d565b50505092915050565b600082601f83011261092f57600080fd5b813561094261093d82610ed6565b610e05565b9150808252602083016020830185838301111561095e57600080fd5b610969838284610f8d565b50505092915050565b60008135905061098181610ff7565b92915050565b6000813590506109968161100e565b92915050565b6000813590506109ab81611025565b92915050565b6000602082840312156109c357600080fd5b600082013567ffffffffffffffff8111156109dd57600080fd5b6109e98482850161091e565b91505092915050565b600080600080600060a08688031215610a0a57600080fd5b600086013567ffffffffffffffff811115610a2457600080fd5b610a308882890161091e565b955050602086013567ffffffffffffffff811115610a4d57600080fd5b610a59888289016107d3565b945050604086013567ffffffffffffffff811115610a7657600080fd5b610a8288828901610750565b935050606086013567ffffffffffffffff811115610a9f57600080fd5b610aab88828901610847565b9250506080610abc88828901610972565b9150509295509295909350565b60008060408385031215610adc57600080fd5b600083013567ffffffffffffffff811115610af657600080fd5b610b028582860161091e565b925050602083013567ffffffffffffffff811115610b1f57600080fd5b610b2b8582860161091e565b9150509250929050565b600080600060608486031215610b4a57600080fd5b600084013567ffffffffffffffff811115610b6457600080fd5b610b708682870161091e565b935050602084013567ffffffffffffffff811115610b8d57600080fd5b610b998682870161091e565b9250506040610baa8682870161073b565b9150509250925092565b60008060008060808587031215610bca57600080fd5b600085013567ffffffffffffffff811115610be457600080fd5b610bf08782880161091e565b945050602085013567ffffffffffffffff811115610c0d57600080fd5b610c198782880161091e565b9350506040610c2a8782880161073b565b9250506060610c3b8782880161099c565b91505092959194509250565b600080600060608486031215610c5c57600080fd5b600084013567ffffffffffffffff811115610c7657600080fd5b610c828682870161091e565b9350506020610c9386828701610987565b925050604084013567ffffffffffffffff811115610cb057600080fd5b610cbc8682870161091e565b9150509250925092565b6000610cd182610f0d565b610cdb8185610f18565b9350610ceb818560208601610f9c565b610cf481610fcf565b840191505092915050565b6000610d0a82610f0d565b610d148185610f29565b9350610d24818560208601610f9c565b80840191505092915050565b6000610d3b82610f02565b610d458185610f29565b9350610d55818560208601610f9c565b80840191505092915050565b610d6a81610f70565b82525050565b610d7981610f80565b82525050565b6000610d8b8284610d30565b915081905092915050565b6000610da28284610cff565b915081905092915050565b60006020820190508181036000830152610dc78184610cc6565b905092915050565b6000602082019050610de46000830184610d61565b92915050565b6000602082019050610dff6000830184610d70565b92915050565b6000604051905081810181811067ffffffffffffffff82111715610e2857600080fd5b8060405250919050565b600067ffffffffffffffff821115610e4957600080fd5b602082029050602081019050919050565b600067ffffffffffffffff821115610e7157600080fd5b602082029050602081019050919050565b600067ffffffffffffffff821115610e9957600080fd5b602082029050602081019050919050565b600067ffffffffffffffff821115610ec157600080fd5b601f19601f8301169050602081019050919050565b600067ffffffffffffffff821115610eed57600080fd5b601f19601f8301169050602081019050919050565b600081519050919050565b600081519050919050565b600082825260208201905092915050565b600081905092915050565b6000610f3f82610f46565b9050919050565b600073ffffffffffffffffffffffffffffffffffffffff82169050919050565b6000819050919050565b600063ffffffff82169050919050565b600060ff82169050919050565b82818337600083830152505050565b60005b83811015610fba578082015181840152602081019050610f9f565b83811115610fc9576000848401525b50505050565b6000601f19601f8301169050919050565b610fe981610f34565b8114610ff457600080fd5b50565b61100081610f66565b811461100b57600080fd5b50565b61101781610f70565b811461102257600080fd5b50565b61102e81610f80565b811461103957600080fd5b5056fea365627a7a72315820c89697e520d874d15a2c87a58803dbb188c347d238c3b0cf0d5d57dc0312e7b96c6578706572696d656e74616cf564736f6c63430005110040",
					"opcodes": "PUSH1 0x80 PUSH1 0x40 MSTORE CALLVALUE DUP1 ISZERO PUSH2 0x10 JUMPI PUSH1 0x0 DUP1 REVERT JUMPDEST POP PUSH2 0x107F DUP1 PUSH2 0x20 PUSH1 0x0 CODECOPY PUSH1 0x0 RETURN INVALID PUSH1 0x80 PUSH1 0x40 MSTORE CALLVALUE DUP1 ISZERO PUSH2 0x10 JUMPI PUSH1 0x0 DUP1 REVERT JUMPDEST POP PUSH1 0x4 CALLDATASIZE LT PUSH2 0x88 JUMPI PUSH1 0x0 CALLDATALOAD PUSH1 0xE0 SHR DUP1 PUSH4 0x6877473E GT PUSH2 0x5B JUMPI DUP1 PUSH4 0x6877473E EQ PUSH2 0x125 JUMPI DUP1 PUSH4 0x6CB1F394 EQ PUSH2 0x155 JUMPI DUP1 PUSH4 0xB8F88AAD EQ PUSH2 0x171 JUMPI DUP1 PUSH4 0xD6DD2A2B EQ PUSH2 0x18D JUMPI PUSH2 0x88 JUMP JUMPDEST DUP1 PUSH4 0x21D3473B EQ PUSH2 0x8D JUMPI DUP1 PUSH4 0x23EAB7FF EQ PUSH2 0xBD JUMPI DUP1 PUSH4 0x26E1A9E7 EQ PUSH2 0xED JUMPI DUP1 PUSH4 0x34A12CF8 EQ PUSH2 0x109 JUMPI JUMPDEST PUSH1 0x0 DUP1 REVERT JUMPDEST PUSH2 0xA7 PUSH1 0x4 DUP1 CALLDATASIZE SUB PUSH2 0xA2 SWAP2 SWAP1 DUP2 ADD SWAP1 PUSH2 0xB35 JUMP JUMPDEST PUSH2 0x1A9 JUMP JUMPDEST PUSH1 0x40 MLOAD PUSH2 0xB4 SWAP2 SWAP1 PUSH2 0xDEA JUMP JUMPDEST PUSH1 0x40 MLOAD DUP1 SWAP2 SUB SWAP1 RETURN JUMPDEST PUSH2 0xD7 PUSH1 0x4 DUP1 CALLDATASIZE SUB PUSH2 0xD2 SWAP2 SWAP1 DUP2 ADD SWAP1 PUSH2 0x9B1 JUMP JUMPDEST PUSH2 0x23B JUMP JUMPDEST PUSH1 0x40 MLOAD PUSH2 0xE4 SWAP2 SWAP1 PUSH2 0xDAD JUMP JUMPDEST PUSH1 0x40 MLOAD DUP1 SWAP2 SUB SWAP1 RETURN JUMPDEST PUSH2 0x107 PUSH1 0x4 DUP1 CALLDATASIZE SUB PUSH2 0x102 SWAP2 SWAP1 DUP2 ADD SWAP1 PUSH2 0xAC9 JUMP JUMPDEST PUSH2 0x2FE JUMP JUMPDEST STOP JUMPDEST PUSH2 0x123 PUSH1 0x4 DUP1 CALLDATASIZE SUB PUSH2 0x11E SWAP2 SWAP1 DUP2 ADD SWAP1 PUSH2 0xAC9 JUMP JUMPDEST PUSH2 0x3B2 JUMP JUMPDEST STOP JUMPDEST PUSH2 0x13F PUSH1 0x4 DUP1 CALLDATASIZE SUB PUSH2 0x13A SWAP2 SWAP1 DUP2 ADD SWAP1 PUSH2 0x9B1 JUMP JUMPDEST PUSH2 0x3EC JUMP JUMPDEST PUSH1 0x40 MLOAD PUSH2 0x14C SWAP2 SWAP1 PUSH2 0xDCF JUMP JUMPDEST PUSH1 0x40 MLOAD DUP1 SWAP2 SUB SWAP1 RETURN JUMPDEST PUSH2 0x16F PUSH1 0x4 DUP1 CALLDATASIZE SUB PUSH2 0x16A SWAP2 SWAP1 DUP2 ADD SWAP1 PUSH2 0xC47 JUMP JUMPDEST PUSH2 0x426 JUMP JUMPDEST STOP JUMPDEST PUSH2 0x18B PUSH1 0x4 DUP1 CALLDATASIZE SUB PUSH2 0x186 SWAP2 SWAP1 DUP2 ADD SWAP1 PUSH2 0x9F2 JUMP JUMPDEST PUSH2 0x50E JUMP JUMPDEST STOP JUMPDEST PUSH2 0x1A7 PUSH1 0x4 DUP1 CALLDATASIZE SUB PUSH2 0x1A2 SWAP2 SWAP1 DUP2 ADD SWAP1 PUSH2 0xBB4 JUMP JUMPDEST PUSH2 0x5FD JUMP JUMPDEST STOP JUMPDEST PUSH1 0x0 DUP1 DUP5 PUSH1 0x40 MLOAD PUSH2 0x1BA SWAP2 SWAP1 PUSH2 0xD96 JUMP JUMPDEST SWAP1 DUP2 MSTORE PUSH1 0x20 ADD PUSH1 0x40 MLOAD DUP1 SWAP2 SUB SWAP1 KECCAK256 PUSH1 0x0 ADD DUP4 PUSH1 0x40 MLOAD PUSH2 0x1D9 SWAP2 SWAP1 PUSH2 0xD96 JUMP JUMPDEST SWAP1 DUP2 MSTORE PUSH1 0x20 ADD PUSH1 0x40 MLOAD DUP1 SWAP2 SUB SWAP1 KECCAK256 PUSH1 0x0 DUP4 PUSH20 0xFFFFFFFFFFFFFFFFFFFFFFFFFFFFFFFFFFFFFFFF AND PUSH20 0xFFFFFFFFFFFFFFFFFFFFFFFFFFFFFFFFFFFFFFFF AND DUP2 MSTORE PUSH1 0x20 ADD SWAP1 DUP2 MSTORE PUSH1 0x20 ADD PUSH1 0x0 KECCAK256 PUSH1 0x0 SWAP1 SLOAD SWAP1 PUSH2 0x100 EXP SWAP1 DIV PUSH1 0xFF AND SWAP1 POP SWAP4 SWAP3 POP POP POP JUMP JUMPDEST PUSH1 0x60 PUSH1 0x0 DUP3 PUSH1 0x40 MLOAD PUSH2 0x24D SWAP2 SWAP1 PUSH2 0xD96 JUMP JUMPDEST SWAP1 DUP2 MSTORE PUSH1 0x20 ADD PUSH1 0x40 MLOAD DUP1 SWAP2 SUB SWAP1 KECCAK256 PUSH1 0x2 ADD DUP1 SLOAD PUSH1 0x1 DUP2 PUSH1 0x1 AND ISZERO PUSH2 0x100 MUL SUB AND PUSH1 0x2 SWAP1 DIV DUP1 PUSH1 0x1F ADD PUSH1 0x20 DUP1 SWAP2 DIV MUL PUSH1 0x20 ADD PUSH1 0x40 MLOAD SWAP1 DUP2 ADD PUSH1 0x40 MSTORE DUP1 SWAP3 SWAP2 SWAP1 DUP2 DUP2 MSTORE PUSH1 0x20 ADD DUP3 DUP1 SLOAD PUSH1 0x1 DUP2 PUSH1 0x1 AND ISZERO PUSH2 0x100 MUL SUB AND PUSH1 0x2 SWAP1 DIV DUP1 ISZERO PUSH2 0x2F2 JUMPI DUP1 PUSH1 0x1F LT PUSH2 0x2C7 JUMPI PUSH2 0x100 DUP1 DUP4 SLOAD DIV MUL DUP4 MSTORE SWAP2 PUSH1 0x20 ADD SWAP2 PUSH2 0x2F2 JUMP JUMPDEST DUP3 ADD SWAP2 SWAP1 PUSH1 0x0 MSTORE PUSH1 0x20 PUSH1 0x0 KECCAK256 SWAP1 JUMPDEST DUP2 SLOAD DUP2 MSTORE SWAP1 PUSH1 0x1 ADD SWAP1 PUSH1 0x20 ADD DUP1 DUP4 GT PUSH2 0x2D5 JUMPI DUP3 SWAP1 SUB PUSH1 0x1F AND DUP3 ADD SWAP2 JUMPDEST POP POP POP POP POP SWAP1 POP SWAP2 SWAP1 POP JUMP JUMPDEST PUSH1 0x0 PUSH1 0x1 DUP1 PUSH1 0x0 DUP6 PUSH1 0x40 MLOAD PUSH2 0x313 SWAP2 SWAP1 PUSH2 0xD96 JUMP JUMPDEST SWAP1 DUP2 MSTORE PUSH1 0x20 ADD PUSH1 0x40 MLOAD DUP1 SWAP2 SUB SWAP1 KECCAK256 PUSH1 0x0 ADD DUP5 PUSH1 0x40 MLOAD PUSH2 0x332 SWAP2 SWAP1 PUSH2 0xD96 JUMP JUMPDEST SWAP1 DUP2 MSTORE PUSH1 0x20 ADD PUSH1 0x40 MLOAD DUP1 SWAP2 SUB SWAP1 KECCAK256 PUSH1 0x0 CALLER PUSH20 0xFFFFFFFFFFFFFFFFFFFFFFFFFFFFFFFFFFFFFFFF AND PUSH20 0xFFFFFFFFFFFFFFFFFFFFFFFFFFFFFFFFFFFFFFFF AND DUP2 MSTORE PUSH1 0x20 ADD SWAP1 DUP2 MSTORE PUSH1 0x20 ADD PUSH1 0x0 KECCAK256 PUSH1 0x0 SWAP1 SLOAD SWAP1 PUSH2 0x100 EXP SWAP1 DIV PUSH1 0xFF AND AND PUSH1 0xFF AND EQ SWAP1 POP DUP1 PUSH2 0x399 JUMPI INVALID JUMPDEST CALLER PUSH20 0xFFFFFFFFFFFFFFFFFFFFFFFFFFFFFFFFFFFFFFFF AND SELFDESTRUCT JUMPDEST DUP1 PUSH1 0x0 DUP4 PUSH1 0x40 MLOAD PUSH2 0x3C3 SWAP2 SWAP1 PUSH2 0xD96 JUMP JUMPDEST SWAP1 DUP2 MSTORE PUSH1 0x20 ADD PUSH1 0x40 MLOAD DUP1 SWAP2 SUB SWAP1 KECCAK256 PUSH1 0x2 ADD SWAP1 DUP1 MLOAD SWAP1 PUSH1 0x20 ADD SWAP1 PUSH2 0x3E7 SWAP3 SWAP2 SWAP1 PUSH2 0x696 JUMP JUMPDEST POP POP POP JUMP JUMPDEST PUSH1 0x0 DUP1 DUP3 PUSH1 0x40 MLOAD PUSH2 0x3FD SWAP2 SWAP1 PUSH2 0xD96 JUMP JUMPDEST SWAP1 DUP2 MSTORE PUSH1 0x20 ADD PUSH1 0x40 MLOAD DUP1 SWAP2 SUB SWAP1 KECCAK256 PUSH1 0x1 ADD PUSH1 0x0 SWAP1 SLOAD SWAP1 PUSH2 0x100 EXP SWAP1 DIV PUSH4 0xFFFFFFFF AND SWAP1 POP SWAP2 SWAP1 POP JUMP JUMPDEST PUSH1 0x0 PUSH1 0x1 DUP1 PUSH1 0x3 PUSH1 0x0 DUP8 PUSH1 0x40 MLOAD PUSH2 0x43D SWAP2 SWAP1 PUSH2 0xD96 JUMP JUMPDEST SWAP1 DUP2 MSTORE PUSH1 0x20 ADD PUSH1 0x40 MLOAD DUP1 SWAP2 SUB SWAP1 KECCAK256 PUSH1 0x0 ADD DUP6 PUSH1 0x40 MLOAD PUSH2 0x45C SWAP2 SWAP1 PUSH2 0xD96 JUMP JUMPDEST SWAP1 DUP2 MSTORE PUSH1 0x20 ADD PUSH1 0x40 MLOAD DUP1 SWAP2 SUB SWAP1 KECCAK256 PUSH1 0x0 CALLER PUSH20 0xFFFFFFFFFFFFFFFFFFFFFFFFFFFFFFFFFFFFFFFF AND PUSH20 0xFFFFFFFFFFFFFFFFFFFFFFFFFFFFFFFFFFFFFFFF AND DUP2 MSTORE PUSH1 0x20 ADD SWAP1 DUP2 MSTORE PUSH1 0x20 ADD PUSH1 0x0 KECCAK256 PUSH1 0x0 SWAP1 SLOAD SWAP1 PUSH2 0x100 EXP SWAP1 DIV PUSH1 0xFF AND PUSH1 0xFF AND SWAP1 SHR AND PUSH1 0xFF AND EQ SWAP1 POP DUP1 PUSH2 0x4C8 JUMPI INVALID JUMPDEST DUP3 PUSH1 0x0 DUP6 PUSH1 0x40 MLOAD PUSH2 0x4D9 SWAP2 SWAP1 PUSH2 0xD96 JUMP JUMPDEST SWAP1 DUP2 MSTORE PUSH1 0x20 ADD PUSH1 0x40 MLOAD DUP1 SWAP2 SUB SWAP1 KECCAK256 PUSH1 0x1 ADD PUSH1 0x0 PUSH2 0x100 EXP DUP2 SLOAD DUP2 PUSH4 0xFFFFFFFF MUL NOT AND SWAP1 DUP4 PUSH4 0xFFFFFFFF AND MUL OR SWAP1 SSTORE POP POP POP POP POP JUMP JUMPDEST PUSH1 0x0 DUP1 SWAP1 POP JUMPDEST DUP2 DUP2 LT ISZERO PUSH2 0x5F5 JUMPI DUP3 DUP2 DUP2 MLOAD DUP2 LT PUSH2 0x528 JUMPI INVALID JUMPDEST PUSH1 0x20 MUL PUSH1 0x20 ADD ADD MLOAD PUSH1 0x0 DUP8 PUSH1 0x40 MLOAD PUSH2 0x540 SWAP2 SWAP1 PUSH2 0xD96 JUMP JUMPDEST SWAP1 DUP2 MSTORE PUSH1 0x20 ADD PUSH1 0x40 MLOAD DUP1 SWAP2 SUB SWAP1 KECCAK256 PUSH1 0x0 ADD DUP7 DUP4 DUP2 MLOAD DUP2 LT PUSH2 0x55D JUMPI INVALID JUMPDEST PUSH1 0x20 MUL PUSH1 0x20 ADD ADD MLOAD PUSH1 0x40 MLOAD PUSH2 0x572 SWAP2 SWAP1 PUSH2 0xD7F JUMP JUMPDEST SWAP1 DUP2 MSTORE PUSH1 0x20 ADD PUSH1 0x40 MLOAD DUP1 SWAP2 SUB SWAP1 KECCAK256 PUSH1 0x0 DUP7 DUP5 DUP2 MLOAD DUP2 LT PUSH2 0x58E JUMPI INVALID JUMPDEST PUSH1 0x20 MUL PUSH1 0x20 ADD ADD MLOAD PUSH20 0xFFFFFFFFFFFFFFFFFFFFFFFFFFFFFFFFFFFFFFFF AND PUSH20 0xFFFFFFFFFFFFFFFFFFFFFFFFFFFFFFFFFFFFFFFF AND DUP2 MSTORE PUSH1 0x20 ADD SWAP1 DUP2 MSTORE PUSH1 0x20 ADD PUSH1 0x0 KECCAK256 PUSH1 0x0 PUSH2 0x100 EXP DUP2 SLOAD DUP2 PUSH1 0xFF MUL NOT AND SWAP1 DUP4 PUSH1 0xFF AND MUL OR SWAP1 SSTORE POP DUP1 DUP1 PUSH1 0x1 ADD SWAP2 POP POP PUSH2 0x514 JUMP JUMPDEST POP POP POP POP POP POP JUMP JUMPDEST DUP1 PUSH1 0x0 DUP6 PUSH1 0x40 MLOAD PUSH2 0x60E SWAP2 SWAP1 PUSH2 0xD96 JUMP JUMPDEST SWAP1 DUP2 MSTORE PUSH1 0x20 ADD PUSH1 0x40 MLOAD DUP1 SWAP2 SUB SWAP1 KECCAK256 PUSH1 0x0 ADD DUP5 PUSH1 0x40 MLOAD PUSH2 0x62D SWAP2 SWAP1 PUSH2 0xD96 JUMP JUMPDEST SWAP1 DUP2 MSTORE PUSH1 0x20 ADD PUSH1 0x40 MLOAD DUP1 SWAP2 SUB SWAP1 KECCAK256 PUSH1 0x0 DUP5 PUSH20 0xFFFFFFFFFFFFFFFFFFFFFFFFFFFFFFFFFFFFFFFF AND PUSH20 0xFFFFFFFFFFFFFFFFFFFFFFFFFFFFFFFFFFFFFFFF AND DUP2 MSTORE PUSH1 0x20 ADD SWAP1 DUP2 MSTORE PUSH1 0x20 ADD PUSH1 0x0 KECCAK256 PUSH1 0x0 PUSH2 0x100 EXP DUP2 SLOAD DUP2 PUSH1 0xFF MUL NOT AND SWAP1 DUP4 PUSH1 0xFF AND MUL OR SWAP1 SSTORE POP POP POP POP POP JUMP JUMPDEST DUP3 DUP1 SLOAD PUSH1 0x1 DUP2 PUSH1 0x1 AND ISZERO PUSH2 0x100 MUL SUB AND PUSH1 0x2 SWAP1 DIV SWAP1 PUSH1 0x0 MSTORE PUSH1 0x20 PUSH1 0x0 KECCAK256 SWAP1 PUSH1 0x1F ADD PUSH1 0x20 SWAP1 DIV DUP2 ADD SWAP3 DUP3 PUSH1 0x1F LT PUSH2 0x6D7 JUMPI DUP1 MLOAD PUSH1 0xFF NOT AND DUP4 DUP1 ADD OR DUP6 SSTORE PUSH2 0x705 JUMP JUMPDEST DUP3 DUP1 ADD PUSH1 0x1 ADD DUP6 SSTORE DUP3 ISZERO PUSH2 0x705 JUMPI SWAP2 DUP3 ADD JUMPDEST DUP3 DUP2 GT ISZERO PUSH2 0x704 JUMPI DUP3 MLOAD DUP3 SSTORE SWAP2 PUSH1 0x20 ADD SWAP2 SWAP1 PUSH1 0x1 ADD SWAP1 PUSH2 0x6E9 JUMP JUMPDEST JUMPDEST POP SWAP1 POP PUSH2 0x712 SWAP2 SWAP1 PUSH2 0x716 JUMP JUMPDEST POP SWAP1 JUMP JUMPDEST PUSH2 0x738 SWAP2 SWAP1 JUMPDEST DUP1 DUP3 GT ISZERO PUSH2 0x734 JUMPI PUSH1 0x0 DUP2 PUSH1 0x0 SWAP1 SSTORE POP PUSH1 0x1 ADD PUSH2 0x71C JUMP JUMPDEST POP SWAP1 JUMP JUMPDEST SWAP1 JUMP JUMPDEST PUSH1 0x0 DUP2 CALLDATALOAD SWAP1 POP PUSH2 0x74A DUP2 PUSH2 0xFE0 JUMP JUMPDEST SWAP3 SWAP2 POP POP JUMP JUMPDEST PUSH1 0x0 DUP3 PUSH1 0x1F DUP4 ADD SLT PUSH2 0x761 JUMPI PUSH1 0x0 DUP1 REVERT JUMPDEST DUP2 CALLDATALOAD PUSH2 0x774 PUSH2 0x76F DUP3 PUSH2 0xE32 JUMP JUMPDEST PUSH2 0xE05 JUMP JUMPDEST SWAP2 POP DUP2 DUP2 DUP4 MSTORE PUSH1 0x20 DUP5 ADD SWAP4 POP PUSH1 0x20 DUP2 ADD SWAP1 POP DUP4 DUP6 PUSH1 0x20 DUP5 MUL DUP3 ADD GT ISZERO PUSH2 0x799 JUMPI PUSH1 0x0 DUP1 REVERT JUMPDEST PUSH1 0x0 JUMPDEST DUP4 DUP2 LT ISZERO PUSH2 0x7C9 JUMPI DUP2 PUSH2 0x7AF DUP9 DUP3 PUSH2 0x73B JUMP JUMPDEST DUP5 MSTORE PUSH1 0x20 DUP5 ADD SWAP4 POP PUSH1 0x20 DUP4 ADD SWAP3 POP POP PUSH1 0x1 DUP2 ADD SWAP1 POP PUSH2 0x79C JUMP JUMPDEST POP POP POP POP SWAP3 SWAP2 POP POP JUMP JUMPDEST PUSH1 0x0 DUP3 PUSH1 0x1F DUP4 ADD SLT PUSH2 0x7E4 JUMPI PUSH1 0x0 DUP1 REVERT JUMPDEST DUP2 CALLDATALOAD PUSH2 0x7F7 PUSH2 0x7F2 DUP3 PUSH2 0xE5A JUMP JUMPDEST PUSH2 0xE05 JUMP JUMPDEST SWAP2 POP DUP2 DUP2 DUP4 MSTORE PUSH1 0x20 DUP5 ADD SWAP4 POP PUSH1 0x20 DUP2 ADD SWAP1 POP DUP4 PUSH1 0x0 JUMPDEST DUP4 DUP2 LT ISZERO PUSH2 0x83D JUMPI DUP2 CALLDATALOAD DUP7 ADD PUSH2 0x823 DUP9 DUP3 PUSH2 0x8CA JUMP JUMPDEST DUP5 MSTORE PUSH1 0x20 DUP5 ADD SWAP4 POP PUSH1 0x20 DUP4 ADD SWAP3 POP POP PUSH1 0x1 DUP2 ADD SWAP1 POP PUSH2 0x80D JUMP JUMPDEST POP POP POP POP SWAP3 SWAP2 POP POP JUMP JUMPDEST PUSH1 0x0 DUP3 PUSH1 0x1F DUP4 ADD SLT PUSH2 0x858 JUMPI PUSH1 0x0 DUP1 REVERT JUMPDEST DUP2 CALLDATALOAD PUSH2 0x86B PUSH2 0x866 DUP3 PUSH2 0xE82 JUMP JUMPDEST PUSH2 0xE05 JUMP JUMPDEST SWAP2 POP DUP2 DUP2 DUP4 MSTORE PUSH1 0x20 DUP5 ADD SWAP4 POP PUSH1 0x20 DUP2 ADD SWAP1 POP DUP4 DUP6 PUSH1 0x20 DUP5 MUL DUP3 ADD GT ISZERO PUSH2 0x890 JUMPI PUSH1 0x0 DUP1 REVERT JUMPDEST PUSH1 0x0 JUMPDEST DUP4 DUP2 LT ISZERO PUSH2 0x8C0 JUMPI DUP2 PUSH2 0x8A6 DUP9 DUP3 PUSH2 0x99C JUMP JUMPDEST DUP5 MSTORE PUSH1 0x20 DUP5 ADD SWAP4 POP PUSH1 0x20 DUP4 ADD SWAP3 POP POP PUSH1 0x1 DUP2 ADD SWAP1 POP PUSH2 0x893 JUMP JUMPDEST POP POP POP POP SWAP3 SWAP2 POP POP JUMP JUMPDEST PUSH1 0x0 DUP3 PUSH1 0x1F DUP4 ADD SLT PUSH2 0x8DB JUMPI PUSH1 0x0 DUP1 REVERT JUMPDEST DUP2 CALLDATALOAD PUSH2 0x8EE PUSH2 0x8E9 DUP3 PUSH2 0xEAA JUMP JUMPDEST PUSH2 0xE05 JUMP JUMPDEST SWAP2 POP DUP1 DUP3 MSTORE PUSH1 0x20 DUP4 ADD PUSH1 0x20 DUP4 ADD DUP6 DUP4 DUP4 ADD GT ISZERO PUSH2 0x90A JUMPI PUSH1 0x0 DUP1 REVERT JUMPDEST PUSH2 0x915 DUP4 DUP3 DUP5 PUSH2 0xF8D JUMP JUMPDEST POP POP POP SWAP3 SWAP2 POP POP JUMP JUMPDEST PUSH1 0x0 DUP3 PUSH1 0x1F DUP4 ADD SLT PUSH2 0x92F JUMPI PUSH1 0x0 DUP1 REVERT JUMPDEST DUP2 CALLDATALOAD PUSH2 0x942 PUSH2 0x93D DUP3 PUSH2 0xED6 JUMP JUMPDEST PUSH2 0xE05 JUMP JUMPDEST SWAP2 POP DUP1 DUP3 MSTORE PUSH1 0x20 DUP4 ADD PUSH1 0x20 DUP4 ADD DUP6 DUP4 DUP4 ADD GT ISZERO PUSH2 0x95E JUMPI PUSH1 0x0 DUP1 REVERT JUMPDEST PUSH2 0x969 DUP4 DUP3 DUP5 PUSH2 0xF8D JUMP JUMPDEST POP POP POP SWAP3 SWAP2 POP POP JUMP JUMPDEST PUSH1 0x0 DUP2 CALLDATALOAD SWAP1 POP PUSH2 0x981 DUP2 PUSH2 0xFF7 JUMP JUMPDEST SWAP3 SWAP2 POP POP JUMP JUMPDEST PUSH1 0x0 DUP2 CALLDATALOAD SWAP1 POP PUSH2 0x996 DUP2 PUSH2 0x100E JUMP JUMPDEST SWAP3 SWAP2 POP POP JUMP JUMPDEST PUSH1 0x0 DUP2 CALLDATALOAD SWAP1 POP PUSH2 0x9AB DUP2 PUSH2 0x1025 JUMP JUMPDEST SWAP3 SWAP2 POP POP JUMP JUMPDEST PUSH1 0x0 PUSH1 0x20 DUP3 DUP5 SUB SLT ISZERO PUSH2 0x9C3 JUMPI PUSH1 0x0 DUP1 REVERT JUMPDEST PUSH1 0x0 DUP3 ADD CALLDATALOAD PUSH8 0xFFFFFFFFFFFFFFFF DUP2 GT ISZERO PUSH2 0x9DD JUMPI PUSH1 0x0 DUP1 REVERT JUMPDEST PUSH2 0x9E9 DUP5 DUP3 DUP6 ADD PUSH2 0x91E JUMP JUMPDEST SWAP2 POP POP SWAP3 SWAP2 POP POP JUMP JUMPDEST PUSH1 0x0 DUP1 PUSH1 0x0 DUP1 PUSH1 0x0 PUSH1 0xA0 DUP7 DUP9 SUB SLT ISZERO PUSH2 0xA0A JUMPI PUSH1 0x0 DUP1 REVERT JUMPDEST PUSH1 0x0 DUP7 ADD CALLDATALOAD PUSH8 0xFFFFFFFFFFFFFFFF DUP2 GT ISZERO PUSH2 0xA24 JUMPI PUSH1 0x0 DUP1 REVERT JUMPDEST PUSH2 0xA30 DUP9 DUP3 DUP10 ADD PUSH2 0x91E JUMP JUMPDEST SWAP6 POP POP PUSH1 0x20 DUP7 ADD CALLDATALOAD PUSH8 0xFFFFFFFFFFFFFFFF DUP2 GT ISZERO PUSH2 0xA4D JUMPI PUSH1 0x0 DUP1 REVERT JUMPDEST PUSH2 0xA59 DUP9 DUP3 DUP10 ADD PUSH2 0x7D3 JUMP JUMPDEST SWAP5 POP POP PUSH1 0x40 DUP7 ADD CALLDATALOAD PUSH8 0xFFFFFFFFFFFFFFFF DUP2 GT ISZERO PUSH2 0xA76 JUMPI PUSH1 0x0 DUP1 REVERT JUMPDEST PUSH2 0xA82 DUP9 DUP3 DUP10 ADD PUSH2 0x750 JUMP JUMPDEST SWAP4 POP POP PUSH1 0x60 DUP7 ADD CALLDATALOAD PUSH8 0xFFFFFFFFFFFFFFFF DUP2 GT ISZERO PUSH2 0xA9F JUMPI PUSH1 0x0 DUP1 REVERT JUMPDEST PUSH2 0xAAB DUP9 DUP3 DUP10 ADD PUSH2 0x847 JUMP JUMPDEST SWAP3 POP POP PUSH1 0x80 PUSH2 0xABC DUP9 DUP3 DUP10 ADD PUSH2 0x972 JUMP JUMPDEST SWAP2 POP POP SWAP3 SWAP6 POP SWAP3 SWAP6 SWAP1 SWAP4 POP JUMP JUMPDEST PUSH1 0x0 DUP1 PUSH1 0x40 DUP4 DUP6 SUB SLT ISZERO PUSH2 0xADC JUMPI PUSH1 0x0 DUP1 REVERT JUMPDEST PUSH1 0x0 DUP4 ADD CALLDATALOAD PUSH8 0xFFFFFFFFFFFFFFFF DUP2 GT ISZERO PUSH2 0xAF6 JUMPI PUSH1 0x0 DUP1 REVERT JUMPDEST PUSH2 0xB02 DUP6 DUP3 DUP7 ADD PUSH2 0x91E JUMP JUMPDEST SWAP3 POP POP PUSH1 0x20 DUP4 ADD CALLDATALOAD PUSH8 0xFFFFFFFFFFFFFFFF DUP2 GT ISZERO PUSH2 0xB1F JUMPI PUSH1 0x0 DUP1 REVERT JUMPDEST PUSH2 0xB2B DUP6 DUP3 DUP7 ADD PUSH2 0x91E JUMP JUMPDEST SWAP2 POP POP SWAP3 POP SWAP3 SWAP1 POP JUMP JUMPDEST PUSH1 0x0 DUP1 PUSH1 0x0 PUSH1 0x60 DUP5 DUP7 SUB SLT ISZERO PUSH2 0xB4A JUMPI PUSH1 0x0 DUP1 REVERT JUMPDEST PUSH1 0x0 DUP5 ADD CALLDATALOAD PUSH8 0xFFFFFFFFFFFFFFFF DUP2 GT ISZERO PUSH2 0xB64 JUMPI PUSH1 0x0 DUP1 REVERT JUMPDEST PUSH2 0xB70 DUP7 DUP3 DUP8 ADD PUSH2 0x91E JUMP JUMPDEST SWAP4 POP POP PUSH1 0x20 DUP5 ADD CALLDATALOAD PUSH8 0xFFFFFFFFFFFFFFFF DUP2 GT ISZERO PUSH2 0xB8D JUMPI PUSH1 0x0 DUP1 REVERT JUMPDEST PUSH2 0xB99 DUP7 DUP3 DUP8 ADD PUSH2 0x91E JUMP JUMPDEST SWAP3 POP POP PUSH1 0x40 PUSH2 0xBAA DUP7 DUP3 DUP8 ADD PUSH2 0x73B JUMP JUMPDEST SWAP2 POP POP SWAP3 POP SWAP3 POP SWAP3 JUMP JUMPDEST PUSH1 0x0 DUP1 PUSH1 0x0 DUP1 PUSH1 0x80 DUP6 DUP8 SUB SLT ISZERO PUSH2 0xBCA JUMPI PUSH1 0x0 DUP1 REVERT JUMPDEST PUSH1 0x0 DUP6 ADD CALLDATALOAD PUSH8 0xFFFFFFFFFFFFFFFF DUP2 GT ISZERO PUSH2 0xBE4 JUMPI PUSH1 0x0 DUP1 REVERT JUMPDEST PUSH2 0xBF0 DUP8 DUP3 DUP9 ADD PUSH2 0x91E JUMP JUMPDEST SWAP5 POP POP PUSH1 0x20 DUP6 ADD CALLDATALOAD PUSH8 0xFFFFFFFFFFFFFFFF DUP2 GT ISZERO PUSH2 0xC0D JUMPI PUSH1 0x0 DUP1 REVERT JUMPDEST PUSH2 0xC19 DUP8 DUP3 DUP9 ADD PUSH2 0x91E JUMP JUMPDEST SWAP4 POP POP PUSH1 0x40 PUSH2 0xC2A DUP8 DUP3 DUP9 ADD PUSH2 0x73B JUMP JUMPDEST SWAP3 POP POP PUSH1 0x60 PUSH2 0xC3B DUP8 DUP3 DUP9 ADD PUSH2 0x99C JUMP JUMPDEST SWAP2 POP POP SWAP3 SWAP6 SWAP2 SWAP5 POP SWAP3 POP JUMP JUMPDEST PUSH1 0x0 DUP1 PUSH1 0x0 PUSH1 0x60 DUP5 DUP7 SUB SLT ISZERO PUSH2 0xC5C JUMPI PUSH1 0x0 DUP1 REVERT JUMPDEST PUSH1 0x0 DUP5 ADD CALLDATALOAD PUSH8 0xFFFFFFFFFFFFFFFF DUP2 GT ISZERO PUSH2 0xC76 JUMPI PUSH1 0x0 DUP1 REVERT JUMPDEST PUSH2 0xC82 DUP7 DUP3 DUP8 ADD PUSH2 0x91E JUMP JUMPDEST SWAP4 POP POP PUSH1 0x20 PUSH2 0xC93 DUP7 DUP3 DUP8 ADD PUSH2 0x987 JUMP JUMPDEST SWAP3 POP POP PUSH1 0x40 DUP5 ADD CALLDATALOAD PUSH8 0xFFFFFFFFFFFFFFFF DUP2 GT ISZERO PUSH2 0xCB0 JUMPI PUSH1 0x0 DUP1 REVERT JUMPDEST PUSH2 0xCBC DUP7 DUP3 DUP8 ADD PUSH2 0x91E JUMP JUMPDEST SWAP2 POP POP SWAP3 POP SWAP3 POP SWAP3 JUMP JUMPDEST PUSH1 0x0 PUSH2 0xCD1 DUP3 PUSH2 0xF0D JUMP JUMPDEST PUSH2 0xCDB DUP2 DUP6 PUSH2 0xF18 JUMP JUMPDEST SWAP4 POP PUSH2 0xCEB DUP2 DUP6 PUSH1 0x20 DUP7 ADD PUSH2 0xF9C JUMP JUMPDEST PUSH2 0xCF4 DUP2 PUSH2 0xFCF JUMP JUMPDEST DUP5 ADD SWAP2 POP POP SWAP3 SWAP2 POP POP JUMP JUMPDEST PUSH1 0x0 PUSH2 0xD0A DUP3 PUSH2 0xF0D JUMP JUMPDEST PUSH2 0xD14 DUP2 DUP6 PUSH2 0xF29 JUMP JUMPDEST SWAP4 POP PUSH2 0xD24 DUP2 DUP6 PUSH1 0x20 DUP7 ADD PUSH2 0xF9C JUMP JUMPDEST DUP1 DUP5 ADD SWAP2 POP POP SWAP3 SWAP2 POP POP JUMP JUMPDEST PUSH1 0x0 PUSH2 0xD3B DUP3 PUSH2 0xF02 JUMP JUMPDEST PUSH2 0xD45 DUP2 DUP6 PUSH2 0xF29 JUMP JUMPDEST SWAP4 POP PUSH2 0xD55 DUP2 DUP6 PUSH1 0x20 DUP7 ADD PUSH2 0xF9C JUMP JUMPDEST DUP1 DUP5 ADD SWAP2 POP POP SWAP3 SWAP2 POP POP JUMP JUMPDEST PUSH2 0xD6A DUP2 PUSH2 0xF70 JUMP JUMPDEST DUP3 MSTORE POP POP JUMP JUMPDEST PUSH2 0xD79 DUP2 PUSH2 0xF80 JUMP JUMPDEST DUP3 MSTORE POP POP JUMP JUMPDEST PUSH1 0x0 PUSH2 0xD8B DUP3 DUP5 PUSH2 0xD30 JUMP JUMPDEST SWAP2 POP DUP2 SWAP1 POP SWAP3 SWAP2 POP POP JUMP JUMPDEST PUSH1 0x0 PUSH2 0xDA2 DUP3 DUP5 PUSH2 0xCFF JUMP JUMPDEST SWAP2 POP DUP2 SWAP1 POP SWAP3 SWAP2 POP POP JUMP JUMPDEST PUSH1 0x0 PUSH1 0x20 DUP3 ADD SWAP1 POP DUP2 DUP2 SUB PUSH1 0x0 DUP4 ADD MSTORE PUSH2 0xDC7 DUP2 DUP5 PUSH2 0xCC6 JUMP JUMPDEST SWAP1 POP SWAP3 SWAP2 POP POP JUMP JUMPDEST PUSH1 0x0 PUSH1 0x20 DUP3 ADD SWAP1 POP PUSH2 0xDE4 PUSH1 0x0 DUP4 ADD DUP5 PUSH2 0xD61 JUMP JUMPDEST SWAP3 SWAP2 POP POP JUMP JUMPDEST PUSH1 0x0 PUSH1 0x20 DUP3 ADD SWAP1 POP PUSH2 0xDFF PUSH1 0x0 DUP4 ADD DUP5 PUSH2 0xD70 JUMP JUMPDEST SWAP3 SWAP2 POP POP JUMP JUMPDEST PUSH1 0x0 PUSH1 0x40 MLOAD SWAP1 POP DUP2 DUP2 ADD DUP2 DUP2 LT PUSH8 0xFFFFFFFFFFFFFFFF DUP3 GT OR ISZERO PUSH2 0xE28 JUMPI PUSH1 0x0 DUP1 REVERT JUMPDEST DUP1 PUSH1 0x40 MSTORE POP SWAP2 SWAP1 POP JUMP JUMPDEST PUSH1 0x0 PUSH8 0xFFFFFFFFFFFFFFFF DUP3 GT ISZERO PUSH2 0xE49 JUMPI PUSH1 0x0 DUP1 REVERT JUMPDEST PUSH1 0x20 DUP3 MUL SWAP1 POP PUSH1 0x20 DUP2 ADD SWAP1 POP SWAP2 SWAP1 POP JUMP JUMPDEST PUSH1 0x0 PUSH8 0xFFFFFFFFFFFFFFFF DUP3 GT ISZERO PUSH2 0xE71 JUMPI PUSH1 0x0 DUP1 REVERT JUMPDEST PUSH1 0x20 DUP3 MUL SWAP1 POP PUSH1 0x20 DUP2 ADD SWAP1 POP SWAP2 SWAP1 POP JUMP JUMPDEST PUSH1 0x0 PUSH8 0xFFFFFFFFFFFFFFFF DUP3 GT ISZERO PUSH2 0xE99 JUMPI PUSH1 0x0 DUP1 REVERT JUMPDEST PUSH1 0x20 DUP3 MUL SWAP1 POP PUSH1 0x20 DUP2 ADD SWAP1 POP SWAP2 SWAP1 POP JUMP JUMPDEST PUSH1 0x0 PUSH8 0xFFFFFFFFFFFFFFFF DUP3 GT ISZERO PUSH2 0xEC1 JUMPI PUSH1 0x0 DUP1 REVERT JUMPDEST PUSH1 0x1F NOT PUSH1 0x1F DUP4 ADD AND SWAP1 POP PUSH1 0x20 DUP2 ADD SWAP1 POP SWAP2 SWAP1 POP JUMP JUMPDEST PUSH1 0x0 PUSH8 0xFFFFFFFFFFFFFFFF DUP3 GT ISZERO PUSH2 0xEED JUMPI PUSH1 0x0 DUP1 REVERT JUMPDEST PUSH1 0x1F NOT PUSH1 0x1F DUP4 ADD AND SWAP1 POP PUSH1 0x20 DUP2 ADD SWAP1 POP SWAP2 SWAP1 POP JUMP JUMPDEST PUSH1 0x0 DUP2 MLOAD SWAP1 POP SWAP2 SWAP1 POP JUMP JUMPDEST PUSH1 0x0 DUP2 MLOAD SWAP1 POP SWAP2 SWAP1 POP JUMP JUMPDEST PUSH1 0x0 DUP3 DUP3 MSTORE PUSH1 0x20 DUP3 ADD SWAP1 POP SWAP3 SWAP2 POP POP JUMP JUMPDEST PUSH1 0x0 DUP2 SWAP1 POP SWAP3 SWAP2 POP POP JUMP JUMPDEST PUSH1 0x0 PUSH2 0xF3F DUP3 PUSH2 0xF46 JUMP JUMPDEST SWAP1 POP SWAP2 SWAP1 POP JUMP JUMPDEST PUSH1 0x0 PUSH20 0xFFFFFFFFFFFFFFFFFFFFFFFFFFFFFFFFFFFFFFFF DUP3 AND SWAP1 POP SWAP2 SWAP1 POP JUMP JUMPDEST PUSH1 0x0 DUP2 SWAP1 POP SWAP2 SWAP1 POP JUMP JUMPDEST PUSH1 0x0 PUSH4 0xFFFFFFFF DUP3 AND SWAP1 POP SWAP2 SWAP1 POP JUMP JUMPDEST PUSH1 0x0 PUSH1 0xFF DUP3 AND SWAP1 POP SWAP2 SWAP1 POP JUMP JUMPDEST DUP3 DUP2 DUP4 CALLDATACOPY PUSH1 0x0 DUP4 DUP4 ADD MSTORE POP POP POP JUMP JUMPDEST PUSH1 0x0 JUMPDEST DUP4 DUP2 LT ISZERO PUSH2 0xFBA JUMPI DUP1 DUP3 ADD MLOAD DUP2 DUP5 ADD MSTORE PUSH1 0x20 DUP2 ADD SWAP1 POP PUSH2 0xF9F JUMP JUMPDEST DUP4 DUP2 GT ISZERO PUSH2 0xFC9 JUMPI PUSH1 0x0 DUP5 DUP5 ADD MSTORE JUMPDEST POP POP POP POP JUMP JUMPDEST PUSH1 0x0 PUSH1 0x1F NOT PUSH1 0x1F DUP4 ADD AND SWAP1 POP SWAP2 SWAP1 POP JUMP JUMPDEST PUSH2 0xFE9 DUP2 PUSH2 0xF34 JUMP JUMPDEST DUP2 EQ PUSH2 0xFF4 JUMPI PUSH1 0x0 DUP1 REVERT JUMPDEST POP JUMP JUMPDEST PUSH2 0x1000 DUP2 PUSH2 0xF66 JUMP JUMPDEST DUP2 EQ PUSH2 0x100B JUMPI PUSH1 0x0 DUP1 REVERT JUMPDEST POP JUMP JUMPDEST PUSH2 0x1017 DUP2 PUSH2 0xF70 JUMP JUMPDEST DUP2 EQ PUSH2 0x1022 JUMPI PUSH1 0x0 DUP1 REVERT JUMPDEST POP JUMP JUMPDEST PUSH2 0x102E DUP2 PUSH2 0xF80 JUMP JUMPDEST DUP2 EQ PUSH2 0x1039 JUMPI PUSH1 0x0 DUP1 REVERT JUMPDEST POP JUMP INVALID LOG3 PUSH6 0x627A7A723158 KECCAK256 0xC8 SWAP7 SWAP8 0xE5 KECCAK256 0xD8 PUSH21 0xD15A2C87A58803DBB188C347D238C3B0CF0D5D57DC SUB SLT 0xE7 0xB9 PUSH13 0x6578706572696D656E74616CF5 PUSH5 0x736F6C6343 STOP SDIV GT STOP BLOCKHASH "
				},
				"gasEstimates": {
					"creation": {
						"codeDepositCost": "844600",
						"executionCost": "877",
						"totalCost": "845477"
					},
					"external": {
						"deleteVariable(string,string)": "infinite",
						"getAccess(string,string,address)": "infinite",
						"getVariableName(string)": "infinite",
						"getVariableValue(string)": "infinite",
						"setVariableName(string,string)": "infinite",
						"updateMatrix(string,string,address,uint8)": "infinite",
						"updateValue(string,uint32,string)": "infinite",
						"uploadMatrix(string,string[],address[],uint8[],uint256)": "infinite"
					}
				},
				"methodIdentifiers": {
					"deleteVariable(string,string)": "26e1a9e7",
					"getAccess(string,string,address)": "21d3473b",
					"getVariableName(string)": "23eab7ff",
					"getVariableValue(string)": "6877473e",
					"setVariableName(string,string)": "34a12cf8",
					"updateMatrix(string,string,address,uint8)": "d6dd2a2b",
					"updateValue(string,uint32,string)": "6cb1f394",
					"uploadMatrix(string,string[],address[],uint8[],uint256)": "b8f88aad"
				}
			},
			"storageLayout": {
				"storage": [
					{
						"astId": 17,
						"contract": "Access_Matrix.sol:Access_matrix",
						"label": "variables",
						"offset": 0,
						"slot": "0",
						"type": "t_mapping(t_string_memory,t_struct(Variable)13_storage)"
					}
				],
				"types": {
					"t_address": {
						"encoding": "inplace",
						"label": "address",
						"numberOfBytes": "20"
					},
					"t_mapping(t_address,t_uint8)": {
						"encoding": "mapping",
						"key": "t_address",
						"label": "mapping(address => uint8)",
						"numberOfBytes": "32",
						"value": "t_uint8"
					},
					"t_mapping(t_string_memory,t_mapping(t_address,t_uint8))": {
						"encoding": "mapping",
						"key": "t_string_memory",
						"label": "mapping(string => mapping(address => uint8))",
						"numberOfBytes": "32",
						"value": "t_mapping(t_address,t_uint8)"
					},
					"t_mapping(t_string_memory,t_struct(Variable)13_storage)": {
						"encoding": "mapping",
						"key": "t_string_memory",
						"label": "mapping(string => struct Access_matrix.Variable)",
						"numberOfBytes": "32",
						"value": "t_struct(Variable)13_storage"
					},
					"t_string_memory": {
						"encoding": "bytes",
						"label": "string",
						"numberOfBytes": "32"
					},
					"t_string_storage": {
						"encoding": "bytes",
						"label": "string",
						"numberOfBytes": "32"
					},
					"t_struct(Variable)13_storage": {
						"encoding": "inplace",
						"label": "struct Access_matrix.Variable",
						"members": [
							{
								"astId": 8,
								"contract": "Access_Matrix.sol:Access_matrix",
								"label": "matrix",
								"offset": 0,
								"slot": "0",
								"type": "t_mapping(t_string_memory,t_mapping(t_address,t_uint8))"
							},
							{
								"astId": 10,
								"contract": "Access_Matrix.sol:Access_matrix",
								"label": "value",
								"offset": 0,
								"slot": "1",
								"type": "t_uint32"
							},
							{
								"astId": 12,
								"contract": "Access_Matrix.sol:Access_matrix",
								"label": "name",
								"offset": 0,
								"slot": "2",
								"type": "t_string_storage"
							}
						],
						"numberOfBytes": "96"
					},
					"t_uint32": {
						"encoding": "inplace",
						"label": "uint32",
						"numberOfBytes": "4"
					},
					"t_uint8": {
						"encoding": "inplace",
						"label": "uint8",
						"numberOfBytes": "1"
					}
				}
			},
			"userdoc": {
				"methods": {}
			}
		}
	}
}