{
	"ProvableAPI_0.5.sol": {
		"usingProvable": {
			"abi": [
				{
					"constant": false,
					"inputs": [
						{
							"internalType": "bytes32",
							"name": "_myid",
							"type": "bytes32"
						},
						{
							"internalType": "string",
							"name": "_result",
							"type": "string"
						}
					],
					"name": "__callback",
					"outputs": [],
					"payable": false,
					"stateMutability": "nonpayable",
					"type": "function"
				},
				{
					"constant": false,
					"inputs": [
						{
							"internalType": "bytes32",
							"name": "_myid",
							"type": "bytes32"
						},
						{
							"internalType": "string",
							"name": "_result",
							"type": "string"
						},
						{
							"internalType": "bytes",
							"name": "_proof",
							"type": "bytes"
						}
					],
					"name": "__callback",
					"outputs": [],
					"payable": false,
					"stateMutability": "nonpayable",
					"type": "function"
				}
			],
			"devdoc": {
				"methods": {
					"__callback(bytes32,string)": {
						"details": "The following `__callback` functions are just placeholders ideally     meant to be defined in child contract when proofs are used.     The function bodies simply silence compiler warnings."
					}
				}
			},
			"evm": {
				"assembly": "    /* \"ProvableAPI_0.5.sol\":10934:58063  contract usingProvable {... */\n  mstore(0x40, 0x80)\n  callvalue\n    /* \"--CODEGEN--\":8:17   */\n  dup1\n    /* \"--CODEGEN--\":5:7   */\n  iszero\n  tag_1\n  jumpi\n    /* \"--CODEGEN--\":30:31   */\n  0x00\n    /* \"--CODEGEN--\":27:28   */\n  dup1\n    /* \"--CODEGEN--\":20:32   */\n  revert\n    /* \"--CODEGEN--\":5:7   */\ntag_1:\n    /* \"ProvableAPI_0.5.sol\":10934:58063  contract usingProvable {... */\n  pop\n  dataSize(sub_0)\n  dup1\n  dataOffset(sub_0)\n  0x00\n  codecopy\n  0x00\n  return\nstop\n\nsub_0: assembly {\n        /* \"ProvableAPI_0.5.sol\":10934:58063  contract usingProvable {... */\n      mstore(0x40, 0x80)\n      callvalue\n        /* \"--CODEGEN--\":8:17   */\n      dup1\n        /* \"--CODEGEN--\":5:7   */\n      iszero\n      tag_1\n      jumpi\n        /* \"--CODEGEN--\":30:31   */\n      0x00\n        /* \"--CODEGEN--\":27:28   */\n      dup1\n        /* \"--CODEGEN--\":20:32   */\n      revert\n        /* \"--CODEGEN--\":5:7   */\n    tag_1:\n        /* \"ProvableAPI_0.5.sol\":10934:58063  contract usingProvable {... */\n      pop\n      jumpi(tag_2, lt(calldatasize, 0x04))\n      shr(0xe0, calldataload(0x00))\n      dup1\n      0x27dc297e\n      eq\n      tag_3\n      jumpi\n      dup1\n      0x38bbfa50\n      eq\n      tag_4\n      jumpi\n    tag_2:\n      0x00\n      dup1\n      revert\n        /* \"ProvableAPI_0.5.sol\":15332:15454  function __callback(bytes32 _myid, string memory _result) public {... */\n    tag_3:\n      tag_5\n      0x04\n      dup1\n      calldatasize\n      sub\n        /* \"--CODEGEN--\":13:15   */\n      0x40\n        /* \"--CODEGEN--\":8:11   */\n      dup2\n        /* \"--CODEGEN--\":5:16   */\n      lt\n        /* \"--CODEGEN--\":2:4   */\n      iszero\n      tag_6\n      jumpi\n        /* \"--CODEGEN--\":29:30   */\n      0x00\n        /* \"--CODEGEN--\":26:27   */\n      dup1\n        /* \"--CODEGEN--\":19:31   */\n      revert\n        /* \"--CODEGEN--\":2:4   */\n    tag_6:\n        /* \"ProvableAPI_0.5.sol\":15332:15454  function __callback(bytes32 _myid, string memory _result) public {... */\n      dup2\n      add\n      swap1\n      dup1\n      dup1\n      calldataload\n      swap1\n      0x20\n      add\n      swap1\n      swap3\n      swap2\n      swap1\n      dup1\n      calldataload\n      swap1\n      0x20\n      add\n      swap1\n        /* \"--CODEGEN--\":21:32   */\n      0x0100000000\n        /* \"--CODEGEN--\":8:19   */\n      dup2\n        /* \"--CODEGEN--\":5:33   */\n      gt\n        /* \"--CODEGEN--\":2:4   */\n      iszero\n      tag_7\n      jumpi\n        /* \"--CODEGEN--\":46:47   */\n      0x00\n        /* \"--CODEGEN--\":43:44   */\n      dup1\n        /* \"--CODEGEN--\":36:48   */\n      revert\n        /* \"--CODEGEN--\":2:4   */\n    tag_7:\n        /* \"ProvableAPI_0.5.sol\":15332:15454  function __callback(bytes32 _myid, string memory _result) public {... */\n      dup3\n      add\n        /* \"--CODEGEN--\":35:44   */\n      dup4\n        /* \"--CODEGEN--\":28:32   */\n      0x20\n        /* \"--CODEGEN--\":12:26   */\n      dup3\n        /* \"--CODEGEN--\":8:33   */\n      add\n        /* \"--CODEGEN--\":5:45   */\n      gt\n        /* \"--CODEGEN--\":2:4   */\n      iszero\n      tag_8\n      jumpi\n        /* \"--CODEGEN--\":58:59   */\n      0x00\n        /* \"--CODEGEN--\":55:56   */\n      dup1\n        /* \"--CODEGEN--\":48:60   */\n      revert\n        /* \"--CODEGEN--\":2:4   */\n    tag_8:\n        /* \"ProvableAPI_0.5.sol\":15332:15454  function __callback(bytes32 _myid, string memory _result) public {... */\n      dup1\n      calldataload\n      swap1\n      0x20\n      add\n      swap2\n        /* \"--CODEGEN--\":100:109   */\n      dup5\n        /* \"--CODEGEN--\":95:96   */\n      0x01\n        /* \"--CODEGEN--\":81:93   */\n      dup4\n        /* \"--CODEGEN--\":77:97   */\n      mul\n        /* \"--CODEGEN--\":67:75   */\n      dup5\n        /* \"--CODEGEN--\":63:98   */\n      add\n        /* \"--CODEGEN--\":60:110   */\n      gt\n        /* \"--CODEGEN--\":39:50   */\n      0x0100000000\n        /* \"--CODEGEN--\":25:37   */\n      dup4\n        /* \"--CODEGEN--\":22:51   */\n      gt\n        /* \"--CODEGEN--\":11:118   */\n      or\n        /* \"--CODEGEN--\":8:10   */\n      iszero\n      tag_9\n      jumpi\n        /* \"--CODEGEN--\":131:132   */\n      0x00\n        /* \"--CODEGEN--\":128:129   */\n      dup1\n        /* \"--CODEGEN--\":121:133   */\n      revert\n        /* \"--CODEGEN--\":8:10   */\n    tag_9:\n        /* \"ProvableAPI_0.5.sol\":15332:15454  function __callback(bytes32 _myid, string memory _result) public {... */\n      swap2\n      swap1\n      dup1\n      dup1\n      0x1f\n      add\n      0x20\n      dup1\n      swap2\n      div\n      mul\n      0x20\n      add\n      mload(0x40)\n      swap1\n      dup2\n      add\n      0x40\n      mstore\n      dup1\n      swap4\n      swap3\n      swap2\n      swap1\n      dup2\n      dup2\n      mstore\n      0x20\n      add\n      dup4\n      dup4\n        /* \"--CODEGEN--\":30:33   */\n      dup1\n        /* \"--CODEGEN--\":22:28   */\n      dup3\n        /* \"--CODEGEN--\":14:20   */\n      dup5\n        /* \"--CODEGEN--\":1:34   */\n      calldatacopy\n        /* \"--CODEGEN--\":99:100   */\n      0x00\n        /* \"--CODEGEN--\":93:96   */\n      dup2\n        /* \"--CODEGEN--\":85:91   */\n      dup5\n        /* \"--CODEGEN--\":81:97   */\n      add\n        /* \"--CODEGEN--\":74:101   */\n      mstore\n        /* \"--CODEGEN--\":137:141   */\n      0x1f\n        /* \"--CODEGEN--\":133:142   */\n      not\n        /* \"--CODEGEN--\":126:130   */\n      0x1f\n        /* \"--CODEGEN--\":121:124   */\n      dup3\n        /* \"--CODEGEN--\":117:131   */\n      add\n        /* \"--CODEGEN--\":113:143   */\n      and\n        /* \"--CODEGEN--\":106:143   */\n      swap1\n      pop\n        /* \"--CODEGEN--\":169:172   */\n      dup1\n        /* \"--CODEGEN--\":161:167   */\n      dup4\n        /* \"--CODEGEN--\":157:173   */\n      add\n        /* \"--CODEGEN--\":147:173   */\n      swap3\n      pop\n        /* \"ProvableAPI_0.5.sol\":15332:15454  function __callback(bytes32 _myid, string memory _result) public {... */\n      pop\n      pop\n      pop\n      pop\n      pop\n      pop\n      swap2\n      swap3\n      swap2\n      swap3\n      swap1\n      pop\n      pop\n      pop\n      tag_10\n      jump\t// in\n    tag_5:\n      stop\n        /* \"ProvableAPI_0.5.sol\":15460:15638  function __callback(bytes32 _myid, string memory _result, bytes memory _proof) public {... */\n    tag_4:\n      tag_11\n      0x04\n      dup1\n      calldatasize\n      sub\n        /* \"--CODEGEN--\":13:15   */\n      0x60\n        /* \"--CODEGEN--\":8:11   */\n      dup2\n        /* \"--CODEGEN--\":5:16   */\n      lt\n        /* \"--CODEGEN--\":2:4   */\n      iszero\n      tag_12\n      jumpi\n        /* \"--CODEGEN--\":29:30   */\n      0x00\n        /* \"--CODEGEN--\":26:27   */\n      dup1\n        /* \"--CODEGEN--\":19:31   */\n      revert\n        /* \"--CODEGEN--\":2:4   */\n    tag_12:\n        /* \"ProvableAPI_0.5.sol\":15460:15638  function __callback(bytes32 _myid, string memory _result, bytes memory _proof) public {... */\n      dup2\n      add\n      swap1\n      dup1\n      dup1\n      calldataload\n      swap1\n      0x20\n      add\n      swap1\n      swap3\n      swap2\n      swap1\n      dup1\n      calldataload\n      swap1\n      0x20\n      add\n      swap1\n        /* \"--CODEGEN--\":21:32   */\n      0x0100000000\n        /* \"--CODEGEN--\":8:19   */\n      dup2\n        /* \"--CODEGEN--\":5:33   */\n      gt\n        /* \"--CODEGEN--\":2:4   */\n      iszero\n      tag_13\n      jumpi\n        /* \"--CODEGEN--\":46:47   */\n      0x00\n        /* \"--CODEGEN--\":43:44   */\n      dup1\n        /* \"--CODEGEN--\":36:48   */\n      revert\n        /* \"--CODEGEN--\":2:4   */\n    tag_13:\n        /* \"ProvableAPI_0.5.sol\":15460:15638  function __callback(bytes32 _myid, string memory _result, bytes memory _proof) public {... */\n      dup3\n      add\n        /* \"--CODEGEN--\":35:44   */\n      dup4\n        /* \"--CODEGEN--\":28:32   */\n      0x20\n        /* \"--CODEGEN--\":12:26   */\n      dup3\n        /* \"--CODEGEN--\":8:33   */\n      add\n        /* \"--CODEGEN--\":5:45   */\n      gt\n        /* \"--CODEGEN--\":2:4   */\n      iszero\n      tag_14\n      jumpi\n        /* \"--CODEGEN--\":58:59   */\n      0x00\n        /* \"--CODEGEN--\":55:56   */\n      dup1\n        /* \"--CODEGEN--\":48:60   */\n      revert\n        /* \"--CODEGEN--\":2:4   */\n    tag_14:\n        /* \"ProvableAPI_0.5.sol\":15460:15638  function __callback(bytes32 _myid, string memory _result, bytes memory _proof) public {... */\n      dup1\n      calldataload\n      swap1\n      0x20\n      add\n      swap2\n        /* \"--CODEGEN--\":100:109   */\n      dup5\n        /* \"--CODEGEN--\":95:96   */\n      0x01\n        /* \"--CODEGEN--\":81:93   */\n      dup4\n        /* \"--CODEGEN--\":77:97   */\n      mul\n        /* \"--CODEGEN--\":67:75   */\n      dup5\n        /* \"--CODEGEN--\":63:98   */\n      add\n        /* \"--CODEGEN--\":60:110   */\n      gt\n        /* \"--CODEGEN--\":39:50   */\n      0x0100000000\n        /* \"--CODEGEN--\":25:37   */\n      dup4\n        /* \"--CODEGEN--\":22:51   */\n      gt\n        /* \"--CODEGEN--\":11:118   */\n      or\n        /* \"--CODEGEN--\":8:10   */\n      iszero\n      tag_15\n      jumpi\n        /* \"--CODEGEN--\":131:132   */\n      0x00\n        /* \"--CODEGEN--\":128:129   */\n      dup1\n        /* \"--CODEGEN--\":121:133   */\n      revert\n        /* \"--CODEGEN--\":8:10   */\n    tag_15:\n        /* \"ProvableAPI_0.5.sol\":15460:15638  function __callback(bytes32 _myid, string memory _result, bytes memory _proof) public {... */\n      swap2\n      swap1\n      dup1\n      dup1\n      0x1f\n      add\n      0x20\n      dup1\n      swap2\n      div\n      mul\n      0x20\n      add\n      mload(0x40)\n      swap1\n      dup2\n      add\n      0x40\n      mstore\n      dup1\n      swap4\n      swap3\n      swap2\n      swap1\n      dup2\n      dup2\n      mstore\n      0x20\n      add\n      dup4\n      dup4\n        /* \"--CODEGEN--\":30:33   */\n      dup1\n        /* \"--CODEGEN--\":22:28   */\n      dup3\n        /* \"--CODEGEN--\":14:20   */\n      dup5\n        /* \"--CODEGEN--\":1:34   */\n      calldatacopy\n        /* \"--CODEGEN--\":99:100   */\n      0x00\n        /* \"--CODEGEN--\":93:96   */\n      dup2\n        /* \"--CODEGEN--\":85:91   */\n      dup5\n        /* \"--CODEGEN--\":81:97   */\n      add\n        /* \"--CODEGEN--\":74:101   */\n      mstore\n        /* \"--CODEGEN--\":137:141   */\n      0x1f\n        /* \"--CODEGEN--\":133:142   */\n      not\n        /* \"--CODEGEN--\":126:130   */\n      0x1f\n        /* \"--CODEGEN--\":121:124   */\n      dup3\n        /* \"--CODEGEN--\":117:131   */\n      add\n        /* \"--CODEGEN--\":113:143   */\n      and\n        /* \"--CODEGEN--\":106:143   */\n      swap1\n      pop\n        /* \"--CODEGEN--\":169:172   */\n      dup1\n        /* \"--CODEGEN--\":161:167   */\n      dup4\n        /* \"--CODEGEN--\":157:173   */\n      add\n        /* \"--CODEGEN--\":147:173   */\n      swap3\n      pop\n        /* \"ProvableAPI_0.5.sol\":15460:15638  function __callback(bytes32 _myid, string memory _result, bytes memory _proof) public {... */\n      pop\n      pop\n      pop\n      pop\n      pop\n      pop\n      swap2\n      swap3\n      swap2\n      swap3\n      swap1\n      dup1\n      calldataload\n      swap1\n      0x20\n      add\n      swap1\n        /* \"--CODEGEN--\":21:32   */\n      0x0100000000\n        /* \"--CODEGEN--\":8:19   */\n      dup2\n        /* \"--CODEGEN--\":5:33   */\n      gt\n        /* \"--CODEGEN--\":2:4   */\n      iszero\n      tag_16\n      jumpi\n        /* \"--CODEGEN--\":46:47   */\n      0x00\n        /* \"--CODEGEN--\":43:44   */\n      dup1\n        /* \"--CODEGEN--\":36:48   */\n      revert\n        /* \"--CODEGEN--\":2:4   */\n    tag_16:\n        /* \"ProvableAPI_0.5.sol\":15460:15638  function __callback(bytes32 _myid, string memory _result, bytes memory _proof) public {... */\n      dup3\n      add\n        /* \"--CODEGEN--\":35:44   */\n      dup4\n        /* \"--CODEGEN--\":28:32   */\n      0x20\n        /* \"--CODEGEN--\":12:26   */\n      dup3\n        /* \"--CODEGEN--\":8:33   */\n      add\n        /* \"--CODEGEN--\":5:45   */\n      gt\n        /* \"--CODEGEN--\":2:4   */\n      iszero\n      tag_17\n      jumpi\n        /* \"--CODEGEN--\":58:59   */\n      0x00\n        /* \"--CODEGEN--\":55:56   */\n      dup1\n        /* \"--CODEGEN--\":48:60   */\n      revert\n        /* \"--CODEGEN--\":2:4   */\n    tag_17:\n        /* \"ProvableAPI_0.5.sol\":15460:15638  function __callback(bytes32 _myid, string memory _result, bytes memory _proof) public {... */\n      dup1\n      calldataload\n      swap1\n      0x20\n      add\n      swap2\n        /* \"--CODEGEN--\":100:109   */\n      dup5\n        /* \"--CODEGEN--\":95:96   */\n      0x01\n        /* \"--CODEGEN--\":81:93   */\n      dup4\n        /* \"--CODEGEN--\":77:97   */\n      mul\n        /* \"--CODEGEN--\":67:75   */\n      dup5\n        /* \"--CODEGEN--\":63:98   */\n      add\n        /* \"--CODEGEN--\":60:110   */\n      gt\n        /* \"--CODEGEN--\":39:50   */\n      0x0100000000\n        /* \"--CODEGEN--\":25:37   */\n      dup4\n        /* \"--CODEGEN--\":22:51   */\n      gt\n        /* \"--CODEGEN--\":11:118   */\n      or\n        /* \"--CODEGEN--\":8:10   */\n      iszero\n      tag_18\n      jumpi\n        /* \"--CODEGEN--\":131:132   */\n      0x00\n        /* \"--CODEGEN--\":128:129   */\n      dup1\n        /* \"--CODEGEN--\":121:133   */\n      revert\n        /* \"--CODEGEN--\":8:10   */\n    tag_18:\n        /* \"ProvableAPI_0.5.sol\":15460:15638  function __callback(bytes32 _myid, string memory _result, bytes memory _proof) public {... */\n      swap2\n      swap1\n      dup1\n      dup1\n      0x1f\n      add\n      0x20\n      dup1\n      swap2\n      div\n      mul\n      0x20\n      add\n      mload(0x40)\n      swap1\n      dup2\n      add\n      0x40\n      mstore\n      dup1\n      swap4\n      swap3\n      swap2\n      swap1\n      dup2\n      dup2\n      mstore\n      0x20\n      add\n      dup4\n      dup4\n        /* \"--CODEGEN--\":30:33   */\n      dup1\n        /* \"--CODEGEN--\":22:28   */\n      dup3\n        /* \"--CODEGEN--\":14:20   */\n      dup5\n        /* \"--CODEGEN--\":1:34   */\n      calldatacopy\n        /* \"--CODEGEN--\":99:100   */\n      0x00\n        /* \"--CODEGEN--\":93:96   */\n      dup2\n        /* \"--CODEGEN--\":85:91   */\n      dup5\n        /* \"--CODEGEN--\":81:97   */\n      add\n        /* \"--CODEGEN--\":74:101   */\n      mstore\n        /* \"--CODEGEN--\":137:141   */\n      0x1f\n        /* \"--CODEGEN--\":133:142   */\n      not\n        /* \"--CODEGEN--\":126:130   */\n      0x1f\n        /* \"--CODEGEN--\":121:124   */\n      dup3\n        /* \"--CODEGEN--\":117:131   */\n      add\n        /* \"--CODEGEN--\":113:143   */\n      and\n        /* \"--CODEGEN--\":106:143   */\n      swap1\n      pop\n        /* \"--CODEGEN--\":169:172   */\n      dup1\n        /* \"--CODEGEN--\":161:167   */\n      dup4\n        /* \"--CODEGEN--\":157:173   */\n      add\n        /* \"--CODEGEN--\":147:173   */\n      swap3\n      pop\n        /* \"ProvableAPI_0.5.sol\":15460:15638  function __callback(bytes32 _myid, string memory _result, bytes memory _proof) public {... */\n      pop\n      pop\n      pop\n      pop\n      pop\n      pop\n      swap2\n      swap3\n      swap2\n      swap3\n      swap1\n      pop\n      pop\n      pop\n      tag_19\n      jump\t// in\n    tag_11:\n      stop\n        /* \"ProvableAPI_0.5.sol\":15332:15454  function __callback(bytes32 _myid, string memory _result) public {... */\n    tag_10:\n        /* \"ProvableAPI_0.5.sol\":15407:15447  __callback(_myid, _result, new bytes(0)) */\n      tag_21\n        /* \"ProvableAPI_0.5.sol\":15418:15423  _myid */\n      dup3\n        /* \"ProvableAPI_0.5.sol\":15425:15432  _result */\n      dup3\n        /* \"ProvableAPI_0.5.sol\":15444:15445  0 */\n      0x00\n        /* \"ProvableAPI_0.5.sol\":15434:15446  new bytes(0) */\n      mload(0x40)\n      swap1\n      dup1\n      dup3\n      mstore\n      dup1\n      0x1f\n      add\n      not(0x1f)\n      and\n      0x20\n      add\n      dup3\n      add\n      0x40\n      mstore\n      dup1\n      iszero\n      tag_22\n      jumpi\n      dup2\n      0x20\n      add\n        /* \"--CODEGEN--\":29:30   */\n      0x01\n        /* \"--CODEGEN--\":21:27   */\n      dup3\n        /* \"--CODEGEN--\":17:31   */\n      mul\n        /* \"--CODEGEN--\":116:120   */\n      dup1\n        /* \"--CODEGEN--\":104:114   */\n      codesize\n        /* \"--CODEGEN--\":96:102   */\n      dup4\n        /* \"--CODEGEN--\":87:121   */\n      codecopy\n        /* \"--CODEGEN--\":147:151   */\n      dup1\n        /* \"--CODEGEN--\":139:145   */\n      dup3\n        /* \"--CODEGEN--\":135:152   */\n      add\n        /* \"--CODEGEN--\":125:152   */\n      swap2\n      pop\n        /* \"--CODEGEN--\":0:156   */\n      pop\n        /* \"ProvableAPI_0.5.sol\":15434:15446  new bytes(0) */\n      swap1\n      pop\n    tag_22:\n      pop\n        /* \"ProvableAPI_0.5.sol\":15407:15417  __callback */\n      tag_19\n        /* \"ProvableAPI_0.5.sol\":15407:15447  __callback(_myid, _result, new bytes(0)) */\n      jump\t// in\n    tag_21:\n        /* \"ProvableAPI_0.5.sol\":15332:15454  function __callback(bytes32 _myid, string memory _result) public {... */\n      pop\n      pop\n      jump\t// out\n        /* \"ProvableAPI_0.5.sol\":15460:15638  function __callback(bytes32 _myid, string memory _result, bytes memory _proof) public {... */\n    tag_19:\n        /* \"ProvableAPI_0.5.sol\":15629:15630  0 */\n      0x00\n        /* \"ProvableAPI_0.5.sol\":15621:15631  bytes32(0) */\n      dup1\n      shl\n        /* \"ProvableAPI_0.5.sol\":15584:15606  provable_randomDS_args */\n      0x03\n        /* \"ProvableAPI_0.5.sol\":15584:15618  provable_randomDS_args[bytes32(0)] */\n      0x00\n        /* \"ProvableAPI_0.5.sol\":15615:15616  0 */\n      dup1\n        /* \"ProvableAPI_0.5.sol\":15607:15617  bytes32(0) */\n      0x00\n      shl\n        /* \"ProvableAPI_0.5.sol\":15584:15618  provable_randomDS_args[bytes32(0)] */\n      dup2\n      mstore\n      0x20\n      add\n      swap1\n      dup2\n      mstore\n      0x20\n      add\n      0x00\n      keccak256\n        /* \"ProvableAPI_0.5.sol\":15584:15631  provable_randomDS_args[bytes32(0)] = bytes32(0) */\n      dup2\n      swap1\n      sstore\n      pop\n        /* \"ProvableAPI_0.5.sol\":15460:15638  function __callback(bytes32 _myid, string memory _result, bytes memory _proof) public {... */\n      pop\n      pop\n      pop\n      jump\t// out\n\n    auxdata: 0xa265627a7a723158205a73b7d8bb34c898c0960248a5f1ba4388a06b4b5ac3cabce86d40d41f93414864736f6c63430005110032\n}\n",
				"bytecode": {
					"linkReferences": {},
					"object": "608060405234801561001057600080fd5b506102f7806100206000396000f3fe608060405234801561001057600080fd5b50600436106100365760003560e01c806327dc297e1461003b57806338bbfa5014610100575b600080fd5b6100fe6004803603604081101561005157600080fd5b81019080803590602001909291908035906020019064010000000081111561007857600080fd5b82018360208201111561008a57600080fd5b803590602001918460018302840111640100000000831117156100ac57600080fd5b91908080601f016020809104026020016040519081016040528093929190818152602001838380828437600081840152601f19601f82011690508083019250505050505050919291929050505061025c565b005b61025a6004803603606081101561011657600080fd5b81019080803590602001909291908035906020019064010000000081111561013d57600080fd5b82018360208201111561014f57600080fd5b8035906020019184600183028401116401000000008311171561017157600080fd5b91908080601f016020809104026020016040519081016040528093929190818152602001838380828437600081840152601f19601f820116905080830192505050505050509192919290803590602001906401000000008111156101d457600080fd5b8201836020820111156101e657600080fd5b8035906020019184600183028401116401000000008311171561020857600080fd5b91908080601f016020809104026020016040519081016040528093929190818152602001838380828437600081840152601f19601f82011690508083019250505050505050919291929050505061029f565b005b61029b828260006040519080825280601f01601f1916602001820160405280156102955781602001600182028038833980820191505090505b5061029f565b5050565b6000801b600360008060001b81526020019081526020016000208190555050505056fea265627a7a723158205a73b7d8bb34c898c0960248a5f1ba4388a06b4b5ac3cabce86d40d41f93414864736f6c63430005110032",
					"opcodes": "PUSH1 0x80 PUSH1 0x40 MSTORE CALLVALUE DUP1 ISZERO PUSH2 0x10 JUMPI PUSH1 0x0 DUP1 REVERT JUMPDEST POP PUSH2 0x2F7 DUP1 PUSH2 0x20 PUSH1 0x0 CODECOPY PUSH1 0x0 RETURN INVALID PUSH1 0x80 PUSH1 0x40 MSTORE CALLVALUE DUP1 ISZERO PUSH2 0x10 JUMPI PUSH1 0x0 DUP1 REVERT JUMPDEST POP PUSH1 0x4 CALLDATASIZE LT PUSH2 0x36 JUMPI PUSH1 0x0 CALLDATALOAD PUSH1 0xE0 SHR DUP1 PUSH4 0x27DC297E EQ PUSH2 0x3B JUMPI DUP1 PUSH4 0x38BBFA50 EQ PUSH2 0x100 JUMPI JUMPDEST PUSH1 0x0 DUP1 REVERT JUMPDEST PUSH2 0xFE PUSH1 0x4 DUP1 CALLDATASIZE SUB PUSH1 0x40 DUP2 LT ISZERO PUSH2 0x51 JUMPI PUSH1 0x0 DUP1 REVERT JUMPDEST DUP2 ADD SWAP1 DUP1 DUP1 CALLDATALOAD SWAP1 PUSH1 0x20 ADD SWAP1 SWAP3 SWAP2 SWAP1 DUP1 CALLDATALOAD SWAP1 PUSH1 0x20 ADD SWAP1 PUSH5 0x100000000 DUP2 GT ISZERO PUSH2 0x78 JUMPI PUSH1 0x0 DUP1 REVERT JUMPDEST DUP3 ADD DUP4 PUSH1 0x20 DUP3 ADD GT ISZERO PUSH2 0x8A JUMPI PUSH1 0x0 DUP1 REVERT JUMPDEST DUP1 CALLDATALOAD SWAP1 PUSH1 0x20 ADD SWAP2 DUP5 PUSH1 0x1 DUP4 MUL DUP5 ADD GT PUSH5 0x100000000 DUP4 GT OR ISZERO PUSH2 0xAC JUMPI PUSH1 0x0 DUP1 REVERT JUMPDEST SWAP2 SWAP1 DUP1 DUP1 PUSH1 0x1F ADD PUSH1 0x20 DUP1 SWAP2 DIV MUL PUSH1 0x20 ADD PUSH1 0x40 MLOAD SWAP1 DUP2 ADD PUSH1 0x40 MSTORE DUP1 SWAP4 SWAP3 SWAP2 SWAP1 DUP2 DUP2 MSTORE PUSH1 0x20 ADD DUP4 DUP4 DUP1 DUP3 DUP5 CALLDATACOPY PUSH1 0x0 DUP2 DUP5 ADD MSTORE PUSH1 0x1F NOT PUSH1 0x1F DUP3 ADD AND SWAP1 POP DUP1 DUP4 ADD SWAP3 POP POP POP POP POP POP POP SWAP2 SWAP3 SWAP2 SWAP3 SWAP1 POP POP POP PUSH2 0x25C JUMP JUMPDEST STOP JUMPDEST PUSH2 0x25A PUSH1 0x4 DUP1 CALLDATASIZE SUB PUSH1 0x60 DUP2 LT ISZERO PUSH2 0x116 JUMPI PUSH1 0x0 DUP1 REVERT JUMPDEST DUP2 ADD SWAP1 DUP1 DUP1 CALLDATALOAD SWAP1 PUSH1 0x20 ADD SWAP1 SWAP3 SWAP2 SWAP1 DUP1 CALLDATALOAD SWAP1 PUSH1 0x20 ADD SWAP1 PUSH5 0x100000000 DUP2 GT ISZERO PUSH2 0x13D JUMPI PUSH1 0x0 DUP1 REVERT JUMPDEST DUP3 ADD DUP4 PUSH1 0x20 DUP3 ADD GT ISZERO PUSH2 0x14F JUMPI PUSH1 0x0 DUP1 REVERT JUMPDEST DUP1 CALLDATALOAD SWAP1 PUSH1 0x20 ADD SWAP2 DUP5 PUSH1 0x1 DUP4 MUL DUP5 ADD GT PUSH5 0x100000000 DUP4 GT OR ISZERO PUSH2 0x171 JUMPI PUSH1 0x0 DUP1 REVERT JUMPDEST SWAP2 SWAP1 DUP1 DUP1 PUSH1 0x1F ADD PUSH1 0x20 DUP1 SWAP2 DIV MUL PUSH1 0x20 ADD PUSH1 0x40 MLOAD SWAP1 DUP2 ADD PUSH1 0x40 MSTORE DUP1 SWAP4 SWAP3 SWAP2 SWAP1 DUP2 DUP2 MSTORE PUSH1 0x20 ADD DUP4 DUP4 DUP1 DUP3 DUP5 CALLDATACOPY PUSH1 0x0 DUP2 DUP5 ADD MSTORE PUSH1 0x1F NOT PUSH1 0x1F DUP3 ADD AND SWAP1 POP DUP1 DUP4 ADD SWAP3 POP POP POP POP POP POP POP SWAP2 SWAP3 SWAP2 SWAP3 SWAP1 DUP1 CALLDATALOAD SWAP1 PUSH1 0x20 ADD SWAP1 PUSH5 0x100000000 DUP2 GT ISZERO PUSH2 0x1D4 JUMPI PUSH1 0x0 DUP1 REVERT JUMPDEST DUP3 ADD DUP4 PUSH1 0x20 DUP3 ADD GT ISZERO PUSH2 0x1E6 JUMPI PUSH1 0x0 DUP1 REVERT JUMPDEST DUP1 CALLDATALOAD SWAP1 PUSH1 0x20 ADD SWAP2 DUP5 PUSH1 0x1 DUP4 MUL DUP5 ADD GT PUSH5 0x100000000 DUP4 GT OR ISZERO PUSH2 0x208 JUMPI PUSH1 0x0 DUP1 REVERT JUMPDEST SWAP2 SWAP1 DUP1 DUP1 PUSH1 0x1F ADD PUSH1 0x20 DUP1 SWAP2 DIV MUL PUSH1 0x20 ADD PUSH1 0x40 MLOAD SWAP1 DUP2 ADD PUSH1 0x40 MSTORE DUP1 SWAP4 SWAP3 SWAP2 SWAP1 DUP2 DUP2 MSTORE PUSH1 0x20 ADD DUP4 DUP4 DUP1 DUP3 DUP5 CALLDATACOPY PUSH1 0x0 DUP2 DUP5 ADD MSTORE PUSH1 0x1F NOT PUSH1 0x1F DUP3 ADD AND SWAP1 POP DUP1 DUP4 ADD SWAP3 POP POP POP POP POP POP POP SWAP2 SWAP3 SWAP2 SWAP3 SWAP1 POP POP POP PUSH2 0x29F JUMP JUMPDEST STOP JUMPDEST PUSH2 0x29B DUP3 DUP3 PUSH1 0x0 PUSH1 0x40 MLOAD SWAP1 DUP1 DUP3 MSTORE DUP1 PUSH1 0x1F ADD PUSH1 0x1F NOT AND PUSH1 0x20 ADD DUP3 ADD PUSH1 0x40 MSTORE DUP1 ISZERO PUSH2 0x295 JUMPI DUP2 PUSH1 0x20 ADD PUSH1 0x1 DUP3 MUL DUP1 CODESIZE DUP4 CODECOPY DUP1 DUP3 ADD SWAP2 POP POP SWAP1 POP JUMPDEST POP PUSH2 0x29F JUMP JUMPDEST POP POP JUMP JUMPDEST PUSH1 0x0 DUP1 SHL PUSH1 0x3 PUSH1 0x0 DUP1 PUSH1 0x0 SHL DUP2 MSTORE PUSH1 0x20 ADD SWAP1 DUP2 MSTORE PUSH1 0x20 ADD PUSH1 0x0 KECCAK256 DUP2 SWAP1 SSTORE POP POP POP POP JUMP INVALID LOG2 PUSH6 0x627A7A723158 KECCAK256 GAS PUSH20 0xB7D8BB34C898C0960248A5F1BA4388A06B4B5AC3 0xCA 0xBC 0xE8 PUSH14 0x40D41F93414864736F6C63430005 GT STOP ORIGIN "
				},
				"gasEstimates": {
					"creation": {
						"codeDepositCost": "151800",
						"executionCost": "196",
						"totalCost": "151996"
					},
					"external": {
						"__callback(bytes32,string)": "infinite",
						"__callback(bytes32,string,bytes)": "infinite"
					},
					"internal": {
						"ba2cbor(bytes memory[] memory)": "infinite",
						"copyBytes(bytes memory,uint256,uint256,bytes memory,uint256)": "infinite",
						"ecrecovery(bytes32,bytes memory)": "infinite",
						"getCodeSize(address)": "infinite",
						"indexOf(string memory,string memory)": "infinite",
						"matchBytes32Prefix(bytes32,bytes memory,uint256)": "infinite",
						"parseAddr(string memory)": "infinite",
						"parseInt(string memory)": "infinite",
						"parseInt(string memory,uint256)": "infinite",
						"provable_cbAddress()": "infinite",
						"provable_getNetworkName()": "infinite",
						"provable_getPrice(string memory)": "infinite",
						"provable_getPrice(string memory,uint256)": "infinite",
						"provable_newRandomDSQuery(uint256,uint256,uint256)": "infinite",
						"provable_query(string memory,bytes memory[1] memory)": "infinite",
						"provable_query(string memory,bytes memory[1] memory,uint256)": "infinite",
						"provable_query(string memory,bytes memory[2] memory)": "infinite",
						"provable_query(string memory,bytes memory[2] memory,uint256)": "infinite",
						"provable_query(string memory,bytes memory[3] memory)": "infinite",
						"provable_query(string memory,bytes memory[3] memory,uint256)": "infinite",
						"provable_query(string memory,bytes memory[4] memory)": "infinite",
						"provable_query(string memory,bytes memory[4] memory,uint256)": "infinite",
						"provable_query(string memory,bytes memory[5] memory)": "infinite",
						"provable_query(string memory,bytes memory[5] memory,uint256)": "infinite",
						"provable_query(string memory,bytes memory[] memory)": "infinite",
						"provable_query(string memory,bytes memory[] memory,uint256)": "infinite",
						"provable_query(string memory,string memory)": "infinite",
						"provable_query(string memory,string memory,string memory)": "infinite",
						"provable_query(string memory,string memory,string memory,uint256)": "infinite",
						"provable_query(string memory,string memory,uint256)": "infinite",
						"provable_query(string memory,string memory[1] memory)": "infinite",
						"provable_query(string memory,string memory[1] memory,uint256)": "infinite",
						"provable_query(string memory,string memory[2] memory)": "infinite",
						"provable_query(string memory,string memory[2] memory,uint256)": "infinite",
						"provable_query(string memory,string memory[3] memory)": "infinite",
						"provable_query(string memory,string memory[3] memory,uint256)": "infinite",
						"provable_query(string memory,string memory[4] memory)": "infinite",
						"provable_query(string memory,string memory[4] memory,uint256)": "infinite",
						"provable_query(string memory,string memory[5] memory)": "infinite",
						"provable_query(string memory,string memory[5] memory,uint256)": "infinite",
						"provable_query(string memory,string memory[] memory)": "infinite",
						"provable_query(string memory,string memory[] memory,uint256)": "infinite",
						"provable_query(uint256,string memory,bytes memory[1] memory)": "infinite",
						"provable_query(uint256,string memory,bytes memory[1] memory,uint256)": "infinite",
						"provable_query(uint256,string memory,bytes memory[2] memory)": "infinite",
						"provable_query(uint256,string memory,bytes memory[2] memory,uint256)": "infinite",
						"provable_query(uint256,string memory,bytes memory[3] memory)": "infinite",
						"provable_query(uint256,string memory,bytes memory[3] memory,uint256)": "infinite",
						"provable_query(uint256,string memory,bytes memory[4] memory)": "infinite",
						"provable_query(uint256,string memory,bytes memory[4] memory,uint256)": "infinite",
						"provable_query(uint256,string memory,bytes memory[5] memory)": "infinite",
						"provable_query(uint256,string memory,bytes memory[5] memory,uint256)": "infinite",
						"provable_query(uint256,string memory,bytes memory[] memory)": "infinite",
						"provable_query(uint256,string memory,bytes memory[] memory,uint256)": "infinite",
						"provable_query(uint256,string memory,string memory)": "infinite",
						"provable_query(uint256,string memory,string memory,string memory)": "infinite",
						"provable_query(uint256,string memory,string memory,string memory,uint256)": "infinite",
						"provable_query(uint256,string memory,string memory,uint256)": "infinite",
						"provable_query(uint256,string memory,string memory[1] memory)": "infinite",
						"provable_query(uint256,string memory,string memory[1] memory,uint256)": "infinite",
						"provable_query(uint256,string memory,string memory[2] memory)": "infinite",
						"provable_query(uint256,string memory,string memory[2] memory,uint256)": "infinite",
						"provable_query(uint256,string memory,string memory[3] memory)": "infinite",
						"provable_query(uint256,string memory,string memory[3] memory,uint256)": "infinite",
						"provable_query(uint256,string memory,string memory[4] memory)": "infinite",
						"provable_query(uint256,string memory,string memory[4] memory,uint256)": "infinite",
						"provable_query(uint256,string memory,string memory[5] memory)": "infinite",
						"provable_query(uint256,string memory,string memory[5] memory,uint256)": "infinite",
						"provable_query(uint256,string memory,string memory[] memory)": "infinite",
						"provable_query(uint256,string memory,string memory[] memory,uint256)": "infinite",
						"provable_randomDS_getSessionPubKeyHash()": "infinite",
						"provable_randomDS_proofVerify__main(bytes memory,bytes32,bytes memory,string memory)": "infinite",
						"provable_randomDS_proofVerify__returnCode(bytes32,string memory,bytes memory)": "infinite",
						"provable_randomDS_proofVerify__sessionKeyValidity(bytes memory,uint256)": "infinite",
						"provable_randomDS_setCommitment(bytes32,bytes32)": "infinite",
						"provable_setCustomGasPrice(uint256)": "infinite",
						"provable_setNetwork()": "infinite",
						"provable_setNetwork(uint8)": "infinite",
						"provable_setNetworkName(string memory)": "infinite",
						"provable_setProof(bytes1)": "infinite",
						"safeMemoryCleaner()": "infinite",
						"safeParseInt(string memory)": "infinite",
						"safeParseInt(string memory,uint256)": "infinite",
						"safer_ecrecover(bytes32,uint8,bytes32,bytes32)": "infinite",
						"strCompare(string memory,string memory)": "infinite",
						"strConcat(string memory,string memory)": "infinite",
						"strConcat(string memory,string memory,string memory)": "infinite",
						"strConcat(string memory,string memory,string memory,string memory)": "infinite",
						"strConcat(string memory,string memory,string memory,string memory,string memory)": "infinite",
						"stra2cbor(string memory[] memory)": "infinite",
						"uint2str(uint256)": "infinite",
						"verifySig(bytes32,bytes memory,bytes memory)": "infinite"
					}
				},
				"methodIdentifiers": {
					"__callback(bytes32,string)": "27dc297e",
					"__callback(bytes32,string,bytes)": "38bbfa50"
				}
			},
			"storageLayout": {
				"storage": [
					{
						"astId": 659,
						"contract": "ProvableAPI_0.5.sol:usingProvable",
						"label": "provable",
						"offset": 0,
						"slot": "0",
						"type": "t_contract(ProvableI)117"
					},
					{
						"astId": 661,
						"contract": "ProvableAPI_0.5.sol:usingProvable",
						"label": "OAR",
						"offset": 0,
						"slot": "1",
						"type": "t_contract(OracleAddrResolverI)123"
					},
					{
						"astId": 706,
						"contract": "ProvableAPI_0.5.sol:usingProvable",
						"label": "provable_network_name",
						"offset": 0,
						"slot": "2",
						"type": "t_string_storage"
					},
					{
						"astId": 725,
						"contract": "ProvableAPI_0.5.sol:usingProvable",
						"label": "provable_randomDS_args",
						"offset": 0,
						"slot": "3",
						"type": "t_mapping(t_bytes32,t_bytes32)"
					},
					{
						"astId": 729,
						"contract": "ProvableAPI_0.5.sol:usingProvable",
						"label": "provable_randomDS_sessionKeysHashVerified",
						"offset": 0,
						"slot": "4",
						"type": "t_mapping(t_bytes32,t_bool)"
					}
				],
				"types": {
					"t_bool": {
						"encoding": "inplace",
						"label": "bool",
						"numberOfBytes": "1"
					},
					"t_bytes32": {
						"encoding": "inplace",
						"label": "bytes32",
						"numberOfBytes": "32"
					},
					"t_contract(OracleAddrResolverI)123": {
						"encoding": "inplace",
						"label": "contract OracleAddrResolverI",
						"numberOfBytes": "20"
					},
					"t_contract(ProvableI)117": {
						"encoding": "inplace",
						"label": "contract ProvableI",
						"numberOfBytes": "20"
					},
					"t_mapping(t_bytes32,t_bool)": {
						"encoding": "mapping",
						"key": "t_bytes32",
						"label": "mapping(bytes32 => bool)",
						"numberOfBytes": "32",
						"value": "t_bool"
					},
					"t_mapping(t_bytes32,t_bytes32)": {
						"encoding": "mapping",
						"key": "t_bytes32",
						"label": "mapping(bytes32 => bytes32)",
						"numberOfBytes": "32",
						"value": "t_bytes32"
					},
					"t_string_storage": {
						"encoding": "bytes",
						"label": "string",
						"numberOfBytes": "32"
					}
				}
			},
			"userdoc": {
				"methods": {}
			}
		}
	}
}