{
	"Access_Matrix.sol": {
		"Access_matrix": {
			"abi": [
				{
					"constant": false,
					"inputs": [
						{
							"internalType": "string",
							"name": "_hash",
							"type": "string"
						},
						{
							"internalType": "string",
							"name": "_activity",
							"type": "string"
						}
					],
					"name": "deleteVariable",
					"outputs": [],
					"payable": false,
					"stateMutability": "nonpayable",
					"type": "function"
				},
				{
					"constant": true,
					"inputs": [
						{
							"internalType": "string",
							"name": "_hash",
							"type": "string"
						},
						{
							"internalType": "string",
							"name": "_activity",
							"type": "string"
						},
						{
							"internalType": "address",
							"name": "_role",
							"type": "address"
						}
					],
					"name": "getAccess",
					"outputs": [
						{
							"internalType": "uint8",
							"name": "_access",
							"type": "uint8"
						}
					],
					"payable": false,
					"stateMutability": "view",
					"type": "function"
				},
				{
					"constant": true,
					"inputs": [
						{
							"internalType": "string",
							"name": "_hash",
							"type": "string"
						}
					],
					"name": "getVariableName",
					"outputs": [
						{
							"internalType": "string",
							"name": "_varName",
							"type": "string"
						}
					],
					"payable": false,
					"stateMutability": "view",
					"type": "function"
				},
				{
					"constant": true,
					"inputs": [
						{
							"internalType": "string",
							"name": "_hash",
							"type": "string"
						}
					],
					"name": "getVariableValue",
					"outputs": [
						{
							"internalType": "uint32",
							"name": "_var",
							"type": "uint32"
						}
					],
					"payable": false,
					"stateMutability": "view",
					"type": "function"
				},
				{
					"constant": false,
					"inputs": [
						{
							"internalType": "string",
							"name": "_hash",
							"type": "string"
						},
						{
							"internalType": "string",
							"name": "_newName",
							"type": "string"
						}
					],
					"name": "setVariableName",
					"outputs": [],
					"payable": false,
					"stateMutability": "nonpayable",
					"type": "function"
				},
				{
					"constant": false,
					"inputs": [
						{
							"internalType": "string",
							"name": "_hash",
							"type": "string"
						},
						{
							"internalType": "string",
							"name": "_activity",
							"type": "string"
						},
						{
							"internalType": "address",
							"name": "_role",
							"type": "address"
						},
						{
							"internalType": "uint8",
							"name": "_val",
							"type": "uint8"
						}
					],
					"name": "updateMatrix",
					"outputs": [],
					"payable": false,
					"stateMutability": "nonpayable",
					"type": "function"
				},
				{
					"constant": false,
					"inputs": [
						{
							"internalType": "string",
							"name": "_hash",
							"type": "string"
						},
						{
							"internalType": "uint32",
							"name": "_variable_value",
							"type": "uint32"
						},
						{
							"internalType": "string",
							"name": "_activity",
							"type": "string"
						}
					],
					"name": "updateValue",
					"outputs": [],
					"payable": false,
					"stateMutability": "nonpayable",
					"type": "function"
				},
				{
					"constant": false,
					"inputs": [
						{
							"internalType": "string",
							"name": "_hash",
							"type": "string"
						},
						{
							"internalType": "string",
							"name": "name",
							"type": "string"
						},
						{
							"internalType": "string[]",
							"name": "_activities",
							"type": "string[]"
						},
						{
							"internalType": "address[]",
							"name": "_roles",
							"type": "address[]"
						},
						{
							"internalType": "uint8[]",
							"name": "_vals",
							"type": "uint8[]"
						},
						{
							"internalType": "uint256",
							"name": "nbOfElements",
							"type": "uint256"
						}
					],
					"name": "uploadMatrix",
					"outputs": [],
					"payable": false,
					"stateMutability": "nonpayable",
					"type": "function"
				}
			],
			"devdoc": {
				"methods": {
					"deleteVariable(string,string)": {
						"details": "deletes the contract if the caller has the authorization (first bit starting from right).",
						"params": {
							"_activity": "that want to have access"
						}
					},
					"getVariableValue(string)": {
						"details": "Get the variable value",
						"return": "_var the variable value "
					},
					"updateMatrix(string,string,address,uint8)": {
						"details": "Update an entry of the access matrix",
						"params": {
							"_activity": "is the name of the activity ",
							"_role": "is the role",
							"_val": "is a 4 bit int that allows to find if a certain matrix entry has access or not to a vraiable (read,write,create,delete) are the four bits."
						}
					},
					"updateValue(string,uint32,string)": {
						"details": "Update the variable value if the caller has access",
						"params": {
							"_activity": "name of the activity that want to update the variable value",
							"_variable_value": "new variable value "
						}
					}
				}
			},
			"evm": {
				"assembly": "    /* \"Access_Matrix.sol\":94:2680  contract Access_matrix {... */\n  mstore(0x40, 0x80)\n  callvalue\n    /* \"--CODEGEN--\":8:17   */\n  dup1\n    /* \"--CODEGEN--\":5:7   */\n  iszero\n  tag_1\n  jumpi\n    /* \"--CODEGEN--\":30:31   */\n  0x00\n    /* \"--CODEGEN--\":27:28   */\n  dup1\n    /* \"--CODEGEN--\":20:32   */\n  revert\n    /* \"--CODEGEN--\":5:7   */\ntag_1:\n    /* \"Access_Matrix.sol\":94:2680  contract Access_matrix {... */\n  pop\n  dataSize(sub_0)\n  dup1\n  dataOffset(sub_0)\n  0x00\n  codecopy\n  0x00\n  return\nstop\n\nsub_0: assembly {\n        /* \"Access_Matrix.sol\":94:2680  contract Access_matrix {... */\n      mstore(0x40, 0x80)\n      callvalue\n        /* \"--CODEGEN--\":8:17   */\n      dup1\n        /* \"--CODEGEN--\":5:7   */\n      iszero\n      tag_1\n      jumpi\n        /* \"--CODEGEN--\":30:31   */\n      0x00\n        /* \"--CODEGEN--\":27:28   */\n      dup1\n        /* \"--CODEGEN--\":20:32   */\n      revert\n        /* \"--CODEGEN--\":5:7   */\n    tag_1:\n        /* \"Access_Matrix.sol\":94:2680  contract Access_matrix {... */\n      pop\n      jumpi(tag_2, lt(calldatasize, 0x04))\n      shr(0xe0, calldataload(0x00))\n      dup1\n      0x6877473e\n      gt\n      tag_11\n      jumpi\n      dup1\n      0x6877473e\n      eq\n      tag_7\n      jumpi\n      dup1\n      0x6cb1f394\n      eq\n      tag_8\n      jumpi\n      dup1\n      0xbd289582\n      eq\n      tag_9\n      jumpi\n      dup1\n      0xd6dd2a2b\n      eq\n      tag_10\n      jumpi\n      jump(tag_2)\n    tag_11:\n      dup1\n      0x21d3473b\n      eq\n      tag_3\n      jumpi\n      dup1\n      0x23eab7ff\n      eq\n      tag_4\n      jumpi\n      dup1\n      0x26e1a9e7\n      eq\n      tag_5\n      jumpi\n      dup1\n      0x34a12cf8\n      eq\n      tag_6\n      jumpi\n    tag_2:\n      0x00\n      dup1\n      revert\n        /* \"Access_Matrix.sol\":2082:2262  function getAccess(string memory _hash, string memory _activity, address _role) public view returns (uint8 _access) {... */\n    tag_3:\n      tag_12\n      0x04\n      dup1\n      calldatasize\n      sub\n      tag_13\n      swap2\n      swap1\n      dup2\n      add\n      swap1\n      jump(tag_14)\n    tag_13:\n      tag_15\n      jump\t// in\n    tag_12:\n      mload(0x40)\n      tag_16\n      swap2\n      swap1\n      jump(tag_17)\n    tag_16:\n      mload(0x40)\n      dup1\n      swap2\n      sub\n      swap1\n      return\n        /* \"Access_Matrix.sol\":906:1040  function getVariableName(string memory _hash) public view returns (string memory _varName) {... */\n    tag_4:\n      tag_18\n      0x04\n      dup1\n      calldatasize\n      sub\n      tag_19\n      swap2\n      swap1\n      dup2\n      add\n      swap1\n      jump(tag_20)\n    tag_19:\n      tag_21\n      jump\t// in\n    tag_18:\n      mload(0x40)\n      tag_22\n      swap2\n      swap1\n      jump(tag_23)\n    tag_22:\n      mload(0x40)\n      dup1\n      swap2\n      sub\n      swap1\n      return\n        /* \"Access_Matrix.sol\":2447:2678  function deleteVariable(string memory _hash, string memory _activity) public {... */\n    tag_5:\n      tag_24\n      0x04\n      dup1\n      calldatasize\n      sub\n      tag_25\n      swap2\n      swap1\n      dup2\n      add\n      swap1\n      jump(tag_26)\n    tag_25:\n      tag_27\n      jump\t// in\n    tag_24:\n      stop\n        /* \"Access_Matrix.sol\":776:900  function setVariableName(string memory _hash, string memory _newName) public {... */\n    tag_6:\n      tag_28\n      0x04\n      dup1\n      calldatasize\n      sub\n      tag_29\n      swap2\n      swap1\n      dup2\n      add\n      swap1\n      jump(tag_26)\n    tag_29:\n      tag_30\n      jump\t// in\n    tag_28:\n      stop\n        /* \"Access_Matrix.sol\":1950:2076  function getVariableValue(string memory _hash) public view returns (uint32 _var){... */\n    tag_7:\n      tag_31\n      0x04\n      dup1\n      calldatasize\n      sub\n      tag_32\n      swap2\n      swap1\n      dup2\n      add\n      swap1\n      jump(tag_20)\n    tag_32:\n      tag_33\n      jump\t// in\n    tag_31:\n      mload(0x40)\n      tag_34\n      swap2\n      swap1\n      jump(tag_35)\n    tag_34:\n      mload(0x40)\n      dup1\n      swap2\n      sub\n      swap1\n      return\n        /* \"Access_Matrix.sol\":1584:1858  function updateValue(string memory _hash, uint32 _variable_value, string memory _activity) public {... */\n    tag_8:\n      tag_36\n      0x04\n      dup1\n      calldatasize\n      sub\n      tag_37\n      swap2\n      swap1\n      dup2\n      add\n      swap1\n      jump(tag_38)\n    tag_37:\n      tag_39\n      jump\t// in\n    tag_36:\n      stop\n        /* \"Access_Matrix.sol\":1046:1352  function uploadMatrix(string memory _hash, string memory name, string[] memory _activities, address[] memory _roles, uint8[] memory _vals, uint nbOfElements) public {... */\n    tag_9:\n      tag_40\n      0x04\n      dup1\n      calldatasize\n      sub\n      tag_41\n      swap2\n      swap1\n      dup2\n      add\n      swap1\n      jump(tag_42)\n    tag_41:\n      tag_43\n      jump\t// in\n    tag_40:\n      stop\n        /* \"Access_Matrix.sol\":605:770  function updateMatrix(string memory _hash, string memory _activity, address _role, uint8 _val) public {... */\n    tag_10:\n      tag_44\n      0x04\n      dup1\n      calldatasize\n      sub\n      tag_45\n      swap2\n      swap1\n      dup2\n      add\n      swap1\n      jump(tag_46)\n    tag_45:\n      tag_47\n      jump\t// in\n    tag_44:\n      stop\n        /* \"Access_Matrix.sol\":2082:2262  function getAccess(string memory _hash, string memory _activity, address _role) public view returns (uint8 _access) {... */\n    tag_15:\n        /* \"Access_Matrix.sol\":2183:2196  uint8 _access */\n      0x00\n        /* \"Access_Matrix.sol\":2214:2223  variables */\n      dup1\n        /* \"Access_Matrix.sol\":2224:2229  _hash */\n      dup5\n        /* \"Access_Matrix.sol\":2214:2230  variables[_hash] */\n      mload(0x40)\n      tag_49\n      swap2\n      swap1\n      jump(tag_50)\n    tag_49:\n      swap1\n      dup2\n      mstore\n      0x20\n      add\n      mload(0x40)\n      dup1\n      swap2\n      sub\n      swap1\n      keccak256\n        /* \"Access_Matrix.sol\":2214:2237  variables[_hash].matrix */\n      0x00\n      add\n        /* \"Access_Matrix.sol\":2238:2247  _activity */\n      dup4\n        /* \"Access_Matrix.sol\":2214:2248  variables[_hash].matrix[_activity] */\n      mload(0x40)\n      tag_51\n      swap2\n      swap1\n      jump(tag_50)\n    tag_51:\n      swap1\n      dup2\n      mstore\n      0x20\n      add\n      mload(0x40)\n      dup1\n      swap2\n      sub\n      swap1\n      keccak256\n        /* \"Access_Matrix.sol\":2214:2255  variables[_hash].matrix[_activity][_role] */\n      0x00\n        /* \"Access_Matrix.sol\":2249:2254  _role */\n      dup4\n        /* \"Access_Matrix.sol\":2214:2255  variables[_hash].matrix[_activity][_role] */\n      0xffffffffffffffffffffffffffffffffffffffff\n      and\n      0xffffffffffffffffffffffffffffffffffffffff\n      and\n      dup2\n      mstore\n      0x20\n      add\n      swap1\n      dup2\n      mstore\n      0x20\n      add\n      0x00\n      keccak256\n      0x00\n      swap1\n      sload\n      swap1\n      0x0100\n      exp\n      swap1\n      div\n      0xff\n      and\n        /* \"Access_Matrix.sol\":2206:2255  return  variables[_hash].matrix[_activity][_role] */\n      swap1\n      pop\n        /* \"Access_Matrix.sol\":2082:2262  function getAccess(string memory _hash, string memory _activity, address _role) public view returns (uint8 _access) {... */\n      swap4\n      swap3\n      pop\n      pop\n      pop\n      jump\t// out\n        /* \"Access_Matrix.sol\":906:1040  function getVariableName(string memory _hash) public view returns (string memory _varName) {... */\n    tag_21:\n        /* \"Access_Matrix.sol\":973:995  string memory _varName */\n      0x60\n        /* \"Access_Matrix.sol\":1012:1021  variables */\n      0x00\n        /* \"Access_Matrix.sol\":1022:1027  _hash */\n      dup3\n        /* \"Access_Matrix.sol\":1012:1028  variables[_hash] */\n      mload(0x40)\n      tag_53\n      swap2\n      swap1\n      jump(tag_50)\n    tag_53:\n      swap1\n      dup2\n      mstore\n      0x20\n      add\n      mload(0x40)\n      dup1\n      swap2\n      sub\n      swap1\n      keccak256\n        /* \"Access_Matrix.sol\":1012:1033  variables[_hash].name */\n      0x02\n      add\n        /* \"Access_Matrix.sol\":1005:1033  return variables[_hash].name */\n      dup1\n      sload\n      0x01\n      dup2\n      0x01\n      and\n      iszero\n      0x0100\n      mul\n      sub\n      and\n      0x02\n      swap1\n      div\n      dup1\n      0x1f\n      add\n      0x20\n      dup1\n      swap2\n      div\n      mul\n      0x20\n      add\n      mload(0x40)\n      swap1\n      dup2\n      add\n      0x40\n      mstore\n      dup1\n      swap3\n      swap2\n      swap1\n      dup2\n      dup2\n      mstore\n      0x20\n      add\n      dup3\n      dup1\n      sload\n      0x01\n      dup2\n      0x01\n      and\n      iszero\n      0x0100\n      mul\n      sub\n      and\n      0x02\n      swap1\n      div\n      dup1\n      iszero\n      tag_54\n      jumpi\n      dup1\n      0x1f\n      lt\n      tag_55\n      jumpi\n      0x0100\n      dup1\n      dup4\n      sload\n      div\n      mul\n      dup4\n      mstore\n      swap2\n      0x20\n      add\n      swap2\n      jump(tag_54)\n    tag_55:\n      dup3\n      add\n      swap2\n      swap1\n      0x00\n      mstore\n      keccak256(0x00, 0x20)\n      swap1\n    tag_56:\n      dup2\n      sload\n      dup2\n      mstore\n      swap1\n      0x01\n      add\n      swap1\n      0x20\n      add\n      dup1\n      dup4\n      gt\n      tag_56\n      jumpi\n      dup3\n      swap1\n      sub\n      0x1f\n      and\n      dup3\n      add\n      swap2\n    tag_54:\n      pop\n      pop\n      pop\n      pop\n      pop\n      swap1\n      pop\n        /* \"Access_Matrix.sol\":906:1040  function getVariableName(string memory _hash) public view returns (string memory _varName) {... */\n      swap2\n      swap1\n      pop\n      jump\t// out\n        /* \"Access_Matrix.sol\":2447:2678  function deleteVariable(string memory _hash, string memory _activity) public {... */\n    tag_27:\n        /* \"Access_Matrix.sol\":2534:2549  bool has_access */\n      0x00\n        /* \"Access_Matrix.sol\":2608:2609  1 */\n      0x01\n        /* \"Access_Matrix.sol\":2603:2604  1 */\n      dup1\n        /* \"Access_Matrix.sol\":2553:2562  variables */\n      0x00\n        /* \"Access_Matrix.sol\":2563:2568  _hash */\n      dup6\n        /* \"Access_Matrix.sol\":2553:2569  variables[_hash] */\n      mload(0x40)\n      tag_58\n      swap2\n      swap1\n      jump(tag_50)\n    tag_58:\n      swap1\n      dup2\n      mstore\n      0x20\n      add\n      mload(0x40)\n      dup1\n      swap2\n      sub\n      swap1\n      keccak256\n        /* \"Access_Matrix.sol\":2553:2576  variables[_hash].matrix */\n      0x00\n      add\n        /* \"Access_Matrix.sol\":2577:2586  _activity */\n      dup5\n        /* \"Access_Matrix.sol\":2553:2587  variables[_hash].matrix[_activity] */\n      mload(0x40)\n      tag_59\n      swap2\n      swap1\n      jump(tag_50)\n    tag_59:\n      swap1\n      dup2\n      mstore\n      0x20\n      add\n      mload(0x40)\n      dup1\n      swap2\n      sub\n      swap1\n      keccak256\n        /* \"Access_Matrix.sol\":2553:2599  variables[_hash].matrix[_activity][msg.sender] */\n      0x00\n        /* \"Access_Matrix.sol\":2588:2598  msg.sender */\n      caller\n        /* \"Access_Matrix.sol\":2553:2599  variables[_hash].matrix[_activity][msg.sender] */\n      0xffffffffffffffffffffffffffffffffffffffff\n      and\n      0xffffffffffffffffffffffffffffffffffffffff\n      and\n      dup2\n      mstore\n      0x20\n      add\n      swap1\n      dup2\n      mstore\n      0x20\n      add\n      0x00\n      keccak256\n      0x00\n      swap1\n      sload\n      swap1\n      0x0100\n      exp\n      swap1\n      div\n      0xff\n      and\n        /* \"Access_Matrix.sol\":2552:2604  (variables[_hash].matrix[_activity][msg.sender]) & 1 */\n      and\n        /* \"Access_Matrix.sol\":2552:2609  (variables[_hash].matrix[_activity][msg.sender]) & 1 == 1 */\n      0xff\n      and\n      eq\n        /* \"Access_Matrix.sol\":2534:2609  bool has_access = (variables[_hash].matrix[_activity][msg.sender]) & 1 == 1 */\n      swap1\n      pop\n        /* \"Access_Matrix.sol\":2626:2636  has_access */\n      dup1\n        /* \"Access_Matrix.sol\":2619:2637  assert(has_access) */\n      tag_60\n      jumpi\n      invalid\n    tag_60:\n        /* \"Access_Matrix.sol\":2660:2670  msg.sender */\n      caller\n        /* \"Access_Matrix.sol\":2647:2671  selfdestruct(msg.sender) */\n      0xffffffffffffffffffffffffffffffffffffffff\n      and\n      selfdestruct\n        /* \"Access_Matrix.sol\":776:900  function setVariableName(string memory _hash, string memory _newName) public {... */\n    tag_30:\n        /* \"Access_Matrix.sol\":885:893  _newName */\n      dup1\n        /* \"Access_Matrix.sol\":861:870  variables */\n      0x00\n        /* \"Access_Matrix.sol\":871:876  _hash */\n      dup4\n        /* \"Access_Matrix.sol\":861:877  variables[_hash] */\n      mload(0x40)\n      tag_62\n      swap2\n      swap1\n      jump(tag_50)\n    tag_62:\n      swap1\n      dup2\n      mstore\n      0x20\n      add\n      mload(0x40)\n      dup1\n      swap2\n      sub\n      swap1\n      keccak256\n        /* \"Access_Matrix.sol\":861:882  variables[_hash].name */\n      0x02\n      add\n        /* \"Access_Matrix.sol\":861:893  variables[_hash].name = _newName */\n      swap1\n      dup1\n      mload\n      swap1\n      0x20\n      add\n      swap1\n      tag_63\n      swap3\n      swap2\n      swap1\n      tag_64\n      jump\t// in\n    tag_63:\n      pop\n        /* \"Access_Matrix.sol\":776:900  function setVariableName(string memory _hash, string memory _newName) public {... */\n      pop\n      pop\n      jump\t// out\n        /* \"Access_Matrix.sol\":1950:2076  function getVariableValue(string memory _hash) public view returns (uint32 _var){... */\n    tag_33:\n        /* \"Access_Matrix.sol\":2018:2029  uint32 _var */\n      0x00\n        /* \"Access_Matrix.sol\":2047:2056  variables */\n      dup1\n        /* \"Access_Matrix.sol\":2057:2062  _hash */\n      dup3\n        /* \"Access_Matrix.sol\":2047:2063  variables[_hash] */\n      mload(0x40)\n      tag_66\n      swap2\n      swap1\n      jump(tag_50)\n    tag_66:\n      swap1\n      dup2\n      mstore\n      0x20\n      add\n      mload(0x40)\n      dup1\n      swap2\n      sub\n      swap1\n      keccak256\n        /* \"Access_Matrix.sol\":2047:2069  variables[_hash].value */\n      0x01\n      add\n      0x00\n      swap1\n      sload\n      swap1\n      0x0100\n      exp\n      swap1\n      div\n      0xffffffff\n      and\n        /* \"Access_Matrix.sol\":2040:2069  return variables[_hash].value */\n      swap1\n      pop\n        /* \"Access_Matrix.sol\":1950:2076  function getVariableValue(string memory _hash) public view returns (uint32 _var){... */\n      swap2\n      swap1\n      pop\n      jump\t// out\n        /* \"Access_Matrix.sol\":1584:1858  function updateValue(string memory _hash, uint32 _variable_value, string memory _activity) public {... */\n    tag_39:\n        /* \"Access_Matrix.sol\":1692:1707  bool has_access */\n      0x00\n        /* \"Access_Matrix.sol\":1772:1773  1 */\n      0x01\n        /* \"Access_Matrix.sol\":1767:1768  1 */\n      dup1\n        /* \"Access_Matrix.sol\":1761:1762  3 */\n      0x03\n        /* \"Access_Matrix.sol\":1711:1720  variables */\n      0x00\n        /* \"Access_Matrix.sol\":1721:1726  _hash */\n      dup8\n        /* \"Access_Matrix.sol\":1711:1727  variables[_hash] */\n      mload(0x40)\n      tag_68\n      swap2\n      swap1\n      jump(tag_50)\n    tag_68:\n      swap1\n      dup2\n      mstore\n      0x20\n      add\n      mload(0x40)\n      dup1\n      swap2\n      sub\n      swap1\n      keccak256\n        /* \"Access_Matrix.sol\":1711:1734  variables[_hash].matrix */\n      0x00\n      add\n        /* \"Access_Matrix.sol\":1735:1744  _activity */\n      dup6\n        /* \"Access_Matrix.sol\":1711:1745  variables[_hash].matrix[_activity] */\n      mload(0x40)\n      tag_69\n      swap2\n      swap1\n      jump(tag_50)\n    tag_69:\n      swap1\n      dup2\n      mstore\n      0x20\n      add\n      mload(0x40)\n      dup1\n      swap2\n      sub\n      swap1\n      keccak256\n        /* \"Access_Matrix.sol\":1711:1757  variables[_hash].matrix[_activity][msg.sender] */\n      0x00\n        /* \"Access_Matrix.sol\":1746:1756  msg.sender */\n      caller\n        /* \"Access_Matrix.sol\":1711:1757  variables[_hash].matrix[_activity][msg.sender] */\n      0xffffffffffffffffffffffffffffffffffffffff\n      and\n      0xffffffffffffffffffffffffffffffffffffffff\n      and\n      dup2\n      mstore\n      0x20\n      add\n      swap1\n      dup2\n      mstore\n      0x20\n      add\n      0x00\n      keccak256\n      0x00\n      swap1\n      sload\n      swap1\n      0x0100\n      exp\n      swap1\n      div\n      0xff\n      and\n        /* \"Access_Matrix.sol\":1711:1762  variables[_hash].matrix[_activity][msg.sender] >> 3 */\n      0xff\n      and\n      swap1\n      shr\n        /* \"Access_Matrix.sol\":1710:1768  (variables[_hash].matrix[_activity][msg.sender] >> 3 ) & 1 */\n      and\n        /* \"Access_Matrix.sol\":1710:1773  (variables[_hash].matrix[_activity][msg.sender] >> 3 ) & 1 == 1 */\n      0xff\n      and\n      eq\n        /* \"Access_Matrix.sol\":1692:1773  bool has_access = (variables[_hash].matrix[_activity][msg.sender] >> 3 ) & 1 == 1 */\n      swap1\n      pop\n        /* \"Access_Matrix.sol\":1790:1800  has_access */\n      dup1\n        /* \"Access_Matrix.sol\":1783:1801  assert(has_access) */\n      tag_70\n      jumpi\n      invalid\n    tag_70:\n        /* \"Access_Matrix.sol\":1836:1851  _variable_value */\n      dup3\n        /* \"Access_Matrix.sol\":1811:1820  variables */\n      0x00\n        /* \"Access_Matrix.sol\":1821:1826  _hash */\n      dup6\n        /* \"Access_Matrix.sol\":1811:1827  variables[_hash] */\n      mload(0x40)\n      tag_71\n      swap2\n      swap1\n      jump(tag_50)\n    tag_71:\n      swap1\n      dup2\n      mstore\n      0x20\n      add\n      mload(0x40)\n      dup1\n      swap2\n      sub\n      swap1\n      keccak256\n        /* \"Access_Matrix.sol\":1811:1833  variables[_hash].value */\n      0x01\n      add\n      0x00\n        /* \"Access_Matrix.sol\":1811:1851  variables[_hash].value = _variable_value */\n      0x0100\n      exp\n      dup2\n      sload\n      dup2\n      0xffffffff\n      mul\n      not\n      and\n      swap1\n      dup4\n      0xffffffff\n      and\n      mul\n      or\n      swap1\n      sstore\n      pop\n        /* \"Access_Matrix.sol\":1584:1858  function updateValue(string memory _hash, uint32 _variable_value, string memory _activity) public {... */\n      pop\n      pop\n      pop\n      pop\n      jump\t// out\n        /* \"Access_Matrix.sol\":1046:1352  function uploadMatrix(string memory _hash, string memory name, string[] memory _activities, address[] memory _roles, uint8[] memory _vals, uint nbOfElements) public {... */\n    tag_43:\n        /* \"Access_Matrix.sol\":1230:1236  uint k */\n      0x00\n        /* \"Access_Matrix.sol\":1239:1240  0 */\n      dup1\n        /* \"Access_Matrix.sol\":1230:1240  uint k = 0 */\n      swap1\n      pop\n        /* \"Access_Matrix.sol\":1226:1346  for(uint k = 0; k < nbOfElements; k++) {... */\n    tag_73:\n        /* \"Access_Matrix.sol\":1246:1258  nbOfElements */\n      dup2\n        /* \"Access_Matrix.sol\":1242:1243  k */\n      dup2\n        /* \"Access_Matrix.sol\":1242:1258  k < nbOfElements */\n      lt\n        /* \"Access_Matrix.sol\":1226:1346  for(uint k = 0; k < nbOfElements; k++) {... */\n      iszero\n      tag_74\n      jumpi\n        /* \"Access_Matrix.sol\":1328:1333  _vals */\n      dup3\n        /* \"Access_Matrix.sol\":1334:1335  k */\n      dup2\n        /* \"Access_Matrix.sol\":1328:1336  _vals[k] */\n      dup2\n      mload\n      dup2\n      lt\n      tag_76\n      jumpi\n      invalid\n    tag_76:\n      0x20\n      mul\n      0x20\n      add\n      add\n      mload\n        /* \"Access_Matrix.sol\":1275:1284  variables */\n      0x00\n        /* \"Access_Matrix.sol\":1285:1290  _hash */\n      dup9\n        /* \"Access_Matrix.sol\":1275:1291  variables[_hash] */\n      mload(0x40)\n      tag_77\n      swap2\n      swap1\n      jump(tag_50)\n    tag_77:\n      swap1\n      dup2\n      mstore\n      0x20\n      add\n      mload(0x40)\n      dup1\n      swap2\n      sub\n      swap1\n      keccak256\n        /* \"Access_Matrix.sol\":1275:1298  variables[_hash].matrix */\n      0x00\n      add\n        /* \"Access_Matrix.sol\":1299:1310  _activities */\n      dup7\n        /* \"Access_Matrix.sol\":1311:1312  k */\n      dup4\n        /* \"Access_Matrix.sol\":1299:1313  _activities[k] */\n      dup2\n      mload\n      dup2\n      lt\n      tag_78\n      jumpi\n      invalid\n    tag_78:\n      0x20\n      mul\n      0x20\n      add\n      add\n      mload\n        /* \"Access_Matrix.sol\":1275:1314  variables[_hash].matrix[_activities[k]] */\n      mload(0x40)\n      tag_79\n      swap2\n      swap1\n      jump(tag_80)\n    tag_79:\n      swap1\n      dup2\n      mstore\n      0x20\n      add\n      mload(0x40)\n      dup1\n      swap2\n      sub\n      swap1\n      keccak256\n        /* \"Access_Matrix.sol\":1275:1325  variables[_hash].matrix[_activities[k]][_roles[k]] */\n      0x00\n        /* \"Access_Matrix.sol\":1315:1321  _roles */\n      dup7\n        /* \"Access_Matrix.sol\":1322:1323  k */\n      dup5\n        /* \"Access_Matrix.sol\":1315:1324  _roles[k] */\n      dup2\n      mload\n      dup2\n      lt\n      tag_81\n      jumpi\n      invalid\n    tag_81:\n      0x20\n      mul\n      0x20\n      add\n      add\n      mload\n        /* \"Access_Matrix.sol\":1275:1325  variables[_hash].matrix[_activities[k]][_roles[k]] */\n      0xffffffffffffffffffffffffffffffffffffffff\n      and\n      0xffffffffffffffffffffffffffffffffffffffff\n      and\n      dup2\n      mstore\n      0x20\n      add\n      swap1\n      dup2\n      mstore\n      0x20\n      add\n      0x00\n      keccak256\n      0x00\n        /* \"Access_Matrix.sol\":1275:1336  variables[_hash].matrix[_activities[k]][_roles[k]] = _vals[k] */\n      0x0100\n      exp\n      dup2\n      sload\n      dup2\n      0xff\n      mul\n      not\n      and\n      swap1\n      dup4\n      0xff\n      and\n      mul\n      or\n      swap1\n      sstore\n      pop\n        /* \"Access_Matrix.sol\":1260:1263  k++ */\n      dup1\n      dup1\n      0x01\n      add\n      swap2\n      pop\n      pop\n        /* \"Access_Matrix.sol\":1226:1346  for(uint k = 0; k < nbOfElements; k++) {... */\n      jump(tag_73)\n    tag_74:\n      pop\n        /* \"Access_Matrix.sol\":1046:1352  function uploadMatrix(string memory _hash, string memory name, string[] memory _activities, address[] memory _roles, uint8[] memory _vals, uint nbOfElements) public {... */\n      pop\n      pop\n      pop\n      pop\n      pop\n      pop\n      jump\t// out\n        /* \"Access_Matrix.sol\":605:770  function updateMatrix(string memory _hash, string memory _activity, address _role, uint8 _val) public {... */\n    tag_47:\n        /* \"Access_Matrix.sol\":759:763  _val */\n      dup1\n        /* \"Access_Matrix.sol\":715:724  variables */\n      0x00\n        /* \"Access_Matrix.sol\":725:730  _hash */\n      dup6\n        /* \"Access_Matrix.sol\":715:731  variables[_hash] */\n      mload(0x40)\n      tag_83\n      swap2\n      swap1\n      jump(tag_50)\n    tag_83:\n      swap1\n      dup2\n      mstore\n      0x20\n      add\n      mload(0x40)\n      dup1\n      swap2\n      sub\n      swap1\n      keccak256\n        /* \"Access_Matrix.sol\":715:738  variables[_hash].matrix */\n      0x00\n      add\n        /* \"Access_Matrix.sol\":739:748  _activity */\n      dup5\n        /* \"Access_Matrix.sol\":715:749  variables[_hash].matrix[_activity] */\n      mload(0x40)\n      tag_84\n      swap2\n      swap1\n      jump(tag_50)\n    tag_84:\n      swap1\n      dup2\n      mstore\n      0x20\n      add\n      mload(0x40)\n      dup1\n      swap2\n      sub\n      swap1\n      keccak256\n        /* \"Access_Matrix.sol\":715:756  variables[_hash].matrix[_activity][_role] */\n      0x00\n        /* \"Access_Matrix.sol\":750:755  _role */\n      dup5\n        /* \"Access_Matrix.sol\":715:756  variables[_hash].matrix[_activity][_role] */\n      0xffffffffffffffffffffffffffffffffffffffff\n      and\n      0xffffffffffffffffffffffffffffffffffffffff\n      and\n      dup2\n      mstore\n      0x20\n      add\n      swap1\n      dup2\n      mstore\n      0x20\n      add\n      0x00\n      keccak256\n      0x00\n        /* \"Access_Matrix.sol\":715:763  variables[_hash].matrix[_activity][_role] = _val */\n      0x0100\n      exp\n      dup2\n      sload\n      dup2\n      0xff\n      mul\n      not\n      and\n      swap1\n      dup4\n      0xff\n      and\n      mul\n      or\n      swap1\n      sstore\n      pop\n        /* \"Access_Matrix.sol\":605:770  function updateMatrix(string memory _hash, string memory _activity, address _role, uint8 _val) public {... */\n      pop\n      pop\n      pop\n      pop\n      jump\t// out\n        /* \"Access_Matrix.sol\":94:2680  contract Access_matrix {... */\n    tag_64:\n      dup3\n      dup1\n      sload\n      0x01\n      dup2\n      0x01\n      and\n      iszero\n      0x0100\n      mul\n      sub\n      and\n      0x02\n      swap1\n      div\n      swap1\n      0x00\n      mstore\n      keccak256(0x00, 0x20)\n      swap1\n      0x1f\n      add\n      0x20\n      swap1\n      div\n      dup2\n      add\n      swap3\n      dup3\n      0x1f\n      lt\n      tag_86\n      jumpi\n      dup1\n      mload\n      not(0xff)\n      and\n      dup4\n      dup1\n      add\n      or\n      dup6\n      sstore\n      jump(tag_85)\n    tag_86:\n      dup3\n      dup1\n      add\n      0x01\n      add\n      dup6\n      sstore\n      dup3\n      iszero\n      tag_85\n      jumpi\n      swap2\n      dup3\n      add\n    tag_87:\n      dup3\n      dup2\n      gt\n      iszero\n      tag_88\n      jumpi\n      dup3\n      mload\n      dup3\n      sstore\n      swap2\n      0x20\n      add\n      swap2\n      swap1\n      0x01\n      add\n      swap1\n      jump(tag_87)\n    tag_88:\n    tag_85:\n      pop\n      swap1\n      pop\n      tag_89\n      swap2\n      swap1\n      tag_90\n      jump\t// in\n    tag_89:\n      pop\n      swap1\n      jump\t// out\n    tag_90:\n      tag_91\n      swap2\n      swap1\n    tag_92:\n      dup1\n      dup3\n      gt\n      iszero\n      tag_93\n      jumpi\n      0x00\n      dup2\n      0x00\n      swap1\n      sstore\n      pop\n      0x01\n      add\n      jump(tag_92)\n    tag_93:\n      pop\n      swap1\n      jump\n    tag_91:\n      swap1\n      jump\t// out\n        /* \"--CODEGEN--\":5:135   */\n    tag_95:\n      0x00\n        /* \"--CODEGEN--\":85:91   */\n      dup2\n        /* \"--CODEGEN--\":72:92   */\n      calldataload\n        /* \"--CODEGEN--\":63:92   */\n      swap1\n      pop\n        /* \"--CODEGEN--\":97:130   */\n      tag_96\n        /* \"--CODEGEN--\":124:129   */\n      dup2\n        /* \"--CODEGEN--\":97:130   */\n      jump(tag_97)\n    tag_96:\n        /* \"--CODEGEN--\":57:135   */\n      swap3\n      swap2\n      pop\n      pop\n      jump\n        /* \"--CODEGEN--\":160:867   */\n    tag_98:\n      0x00\n        /* \"--CODEGEN--\":277:280   */\n      dup3\n        /* \"--CODEGEN--\":270:274   */\n      0x1f\n        /* \"--CODEGEN--\":262:268   */\n      dup4\n        /* \"--CODEGEN--\":258:275   */\n      add\n        /* \"--CODEGEN--\":254:281   */\n      slt\n        /* \"--CODEGEN--\":244:246   */\n      tag_99\n      jumpi\n        /* \"--CODEGEN--\":295:296   */\n      0x00\n        /* \"--CODEGEN--\":292:293   */\n      dup1\n        /* \"--CODEGEN--\":285:297   */\n      revert\n        /* \"--CODEGEN--\":244:246   */\n    tag_99:\n        /* \"--CODEGEN--\":332:338   */\n      dup2\n        /* \"--CODEGEN--\":319:339   */\n      calldataload\n        /* \"--CODEGEN--\":354:434   */\n      tag_100\n        /* \"--CODEGEN--\":369:433   */\n      tag_101\n        /* \"--CODEGEN--\":426:432   */\n      dup3\n        /* \"--CODEGEN--\":369:433   */\n      jump(tag_102)\n    tag_101:\n        /* \"--CODEGEN--\":354:434   */\n      jump(tag_103)\n    tag_100:\n        /* \"--CODEGEN--\":345:434   */\n      swap2\n      pop\n        /* \"--CODEGEN--\":451:456   */\n      dup2\n        /* \"--CODEGEN--\":476:482   */\n      dup2\n        /* \"--CODEGEN--\":469:474   */\n      dup4\n        /* \"--CODEGEN--\":462:483   */\n      mstore\n        /* \"--CODEGEN--\":506:510   */\n      0x20\n        /* \"--CODEGEN--\":498:504   */\n      dup5\n        /* \"--CODEGEN--\":494:511   */\n      add\n        /* \"--CODEGEN--\":484:511   */\n      swap4\n      pop\n        /* \"--CODEGEN--\":528:532   */\n      0x20\n        /* \"--CODEGEN--\":523:526   */\n      dup2\n        /* \"--CODEGEN--\":519:533   */\n      add\n        /* \"--CODEGEN--\":512:533   */\n      swap1\n      pop\n        /* \"--CODEGEN--\":581:587   */\n      dup4\n        /* \"--CODEGEN--\":628:631   */\n      dup6\n        /* \"--CODEGEN--\":620:624   */\n      0x20\n        /* \"--CODEGEN--\":612:618   */\n      dup5\n        /* \"--CODEGEN--\":608:625   */\n      mul\n        /* \"--CODEGEN--\":603:606   */\n      dup3\n        /* \"--CODEGEN--\":599:626   */\n      add\n        /* \"--CODEGEN--\":596:632   */\n      gt\n        /* \"--CODEGEN--\":593:595   */\n      iszero\n      tag_104\n      jumpi\n        /* \"--CODEGEN--\":645:646   */\n      0x00\n        /* \"--CODEGEN--\":642:643   */\n      dup1\n        /* \"--CODEGEN--\":635:647   */\n      revert\n        /* \"--CODEGEN--\":593:595   */\n    tag_104:\n        /* \"--CODEGEN--\":670:671   */\n      0x00\n        /* \"--CODEGEN--\":655:861   */\n    tag_105:\n        /* \"--CODEGEN--\":680:686   */\n      dup4\n        /* \"--CODEGEN--\":677:678   */\n      dup2\n        /* \"--CODEGEN--\":674:687   */\n      lt\n        /* \"--CODEGEN--\":655:861   */\n      iszero\n      tag_107\n      jumpi\n        /* \"--CODEGEN--\":738:741   */\n      dup2\n        /* \"--CODEGEN--\":760:797   */\n      tag_108\n        /* \"--CODEGEN--\":793:796   */\n      dup9\n        /* \"--CODEGEN--\":781:791   */\n      dup3\n        /* \"--CODEGEN--\":760:797   */\n      jump(tag_95)\n    tag_108:\n        /* \"--CODEGEN--\":755:758   */\n      dup5\n        /* \"--CODEGEN--\":748:798   */\n      mstore\n        /* \"--CODEGEN--\":821:825   */\n      0x20\n        /* \"--CODEGEN--\":816:819   */\n      dup5\n        /* \"--CODEGEN--\":812:826   */\n      add\n        /* \"--CODEGEN--\":805:826   */\n      swap4\n      pop\n        /* \"--CODEGEN--\":849:853   */\n      0x20\n        /* \"--CODEGEN--\":844:847   */\n      dup4\n        /* \"--CODEGEN--\":840:854   */\n      add\n        /* \"--CODEGEN--\":833:854   */\n      swap3\n      pop\n        /* \"--CODEGEN--\":712:861   */\n      pop\n        /* \"--CODEGEN--\":702:703   */\n      0x01\n        /* \"--CODEGEN--\":699:700   */\n      dup2\n        /* \"--CODEGEN--\":695:704   */\n      add\n        /* \"--CODEGEN--\":690:704   */\n      swap1\n      pop\n        /* \"--CODEGEN--\":655:861   */\n      jump(tag_105)\n    tag_107:\n        /* \"--CODEGEN--\":659:673   */\n      pop\n        /* \"--CODEGEN--\":237:867   */\n      pop\n      pop\n      pop\n      swap3\n      swap2\n      pop\n      pop\n      jump\n        /* \"--CODEGEN--\":892:1588   */\n    tag_109:\n      0x00\n        /* \"--CODEGEN--\":1015:1018   */\n      dup3\n        /* \"--CODEGEN--\":1008:1012   */\n      0x1f\n        /* \"--CODEGEN--\":1000:1006   */\n      dup4\n        /* \"--CODEGEN--\":996:1013   */\n      add\n        /* \"--CODEGEN--\":992:1019   */\n      slt\n        /* \"--CODEGEN--\":982:984   */\n      tag_110\n      jumpi\n        /* \"--CODEGEN--\":1033:1034   */\n      0x00\n        /* \"--CODEGEN--\":1030:1031   */\n      dup1\n        /* \"--CODEGEN--\":1023:1035   */\n      revert\n        /* \"--CODEGEN--\":982:984   */\n    tag_110:\n        /* \"--CODEGEN--\":1070:1076   */\n      dup2\n        /* \"--CODEGEN--\":1057:1077   */\n      calldataload\n        /* \"--CODEGEN--\":1092:1178   */\n      tag_111\n        /* \"--CODEGEN--\":1107:1177   */\n      tag_112\n        /* \"--CODEGEN--\":1170:1176   */\n      dup3\n        /* \"--CODEGEN--\":1107:1177   */\n      jump(tag_113)\n    tag_112:\n        /* \"--CODEGEN--\":1092:1178   */\n      jump(tag_103)\n    tag_111:\n        /* \"--CODEGEN--\":1083:1178   */\n      swap2\n      pop\n        /* \"--CODEGEN--\":1195:1200   */\n      dup2\n        /* \"--CODEGEN--\":1220:1226   */\n      dup2\n        /* \"--CODEGEN--\":1213:1218   */\n      dup4\n        /* \"--CODEGEN--\":1206:1227   */\n      mstore\n        /* \"--CODEGEN--\":1250:1254   */\n      0x20\n        /* \"--CODEGEN--\":1242:1248   */\n      dup5\n        /* \"--CODEGEN--\":1238:1255   */\n      add\n        /* \"--CODEGEN--\":1228:1255   */\n      swap4\n      pop\n        /* \"--CODEGEN--\":1272:1276   */\n      0x20\n        /* \"--CODEGEN--\":1267:1270   */\n      dup2\n        /* \"--CODEGEN--\":1263:1277   */\n      add\n        /* \"--CODEGEN--\":1256:1277   */\n      swap1\n      pop\n        /* \"--CODEGEN--\":1325:1331   */\n      dup4\n        /* \"--CODEGEN--\":1358:1359   */\n      0x00\n        /* \"--CODEGEN--\":1343:1582   */\n    tag_114:\n        /* \"--CODEGEN--\":1368:1374   */\n      dup4\n        /* \"--CODEGEN--\":1365:1366   */\n      dup2\n        /* \"--CODEGEN--\":1362:1375   */\n      lt\n        /* \"--CODEGEN--\":1343:1582   */\n      iszero\n      tag_116\n      jumpi\n        /* \"--CODEGEN--\":1451:1454   */\n      dup2\n        /* \"--CODEGEN--\":1438:1455   */\n      calldataload\n        /* \"--CODEGEN--\":1430:1436   */\n      dup7\n        /* \"--CODEGEN--\":1426:1456   */\n      add\n        /* \"--CODEGEN--\":1475:1518   */\n      tag_117\n        /* \"--CODEGEN--\":1514:1517   */\n      dup9\n        /* \"--CODEGEN--\":1502:1512   */\n      dup3\n        /* \"--CODEGEN--\":1475:1518   */\n      jump(tag_118)\n    tag_117:\n        /* \"--CODEGEN--\":1470:1473   */\n      dup5\n        /* \"--CODEGEN--\":1463:1519   */\n      mstore\n        /* \"--CODEGEN--\":1542:1546   */\n      0x20\n        /* \"--CODEGEN--\":1537:1540   */\n      dup5\n        /* \"--CODEGEN--\":1533:1547   */\n      add\n        /* \"--CODEGEN--\":1526:1547   */\n      swap4\n      pop\n        /* \"--CODEGEN--\":1570:1574   */\n      0x20\n        /* \"--CODEGEN--\":1565:1568   */\n      dup4\n        /* \"--CODEGEN--\":1561:1575   */\n      add\n        /* \"--CODEGEN--\":1554:1575   */\n      swap3\n      pop\n        /* \"--CODEGEN--\":1400:1582   */\n      pop\n        /* \"--CODEGEN--\":1390:1391   */\n      0x01\n        /* \"--CODEGEN--\":1387:1388   */\n      dup2\n        /* \"--CODEGEN--\":1383:1392   */\n      add\n        /* \"--CODEGEN--\":1378:1392   */\n      swap1\n      pop\n        /* \"--CODEGEN--\":1343:1582   */\n      jump(tag_114)\n    tag_116:\n        /* \"--CODEGEN--\":1347:1361   */\n      pop\n        /* \"--CODEGEN--\":975:1588   */\n      pop\n      pop\n      pop\n      swap3\n      swap2\n      pop\n      pop\n      jump\n        /* \"--CODEGEN--\":1612:2313   */\n    tag_119:\n      0x00\n        /* \"--CODEGEN--\":1727:1730   */\n      dup3\n        /* \"--CODEGEN--\":1720:1724   */\n      0x1f\n        /* \"--CODEGEN--\":1712:1718   */\n      dup4\n        /* \"--CODEGEN--\":1708:1725   */\n      add\n        /* \"--CODEGEN--\":1704:1731   */\n      slt\n        /* \"--CODEGEN--\":1694:1696   */\n      tag_120\n      jumpi\n        /* \"--CODEGEN--\":1745:1746   */\n      0x00\n        /* \"--CODEGEN--\":1742:1743   */\n      dup1\n        /* \"--CODEGEN--\":1735:1747   */\n      revert\n        /* \"--CODEGEN--\":1694:1696   */\n    tag_120:\n        /* \"--CODEGEN--\":1782:1788   */\n      dup2\n        /* \"--CODEGEN--\":1769:1789   */\n      calldataload\n        /* \"--CODEGEN--\":1804:1882   */\n      tag_121\n        /* \"--CODEGEN--\":1819:1881   */\n      tag_122\n        /* \"--CODEGEN--\":1874:1880   */\n      dup3\n        /* \"--CODEGEN--\":1819:1881   */\n      jump(tag_123)\n    tag_122:\n        /* \"--CODEGEN--\":1804:1882   */\n      jump(tag_103)\n    tag_121:\n        /* \"--CODEGEN--\":1795:1882   */\n      swap2\n      pop\n        /* \"--CODEGEN--\":1899:1904   */\n      dup2\n        /* \"--CODEGEN--\":1924:1930   */\n      dup2\n        /* \"--CODEGEN--\":1917:1922   */\n      dup4\n        /* \"--CODEGEN--\":1910:1931   */\n      mstore\n        /* \"--CODEGEN--\":1954:1958   */\n      0x20\n        /* \"--CODEGEN--\":1946:1952   */\n      dup5\n        /* \"--CODEGEN--\":1942:1959   */\n      add\n        /* \"--CODEGEN--\":1932:1959   */\n      swap4\n      pop\n        /* \"--CODEGEN--\":1976:1980   */\n      0x20\n        /* \"--CODEGEN--\":1971:1974   */\n      dup2\n        /* \"--CODEGEN--\":1967:1981   */\n      add\n        /* \"--CODEGEN--\":1960:1981   */\n      swap1\n      pop\n        /* \"--CODEGEN--\":2029:2035   */\n      dup4\n        /* \"--CODEGEN--\":2076:2079   */\n      dup6\n        /* \"--CODEGEN--\":2068:2072   */\n      0x20\n        /* \"--CODEGEN--\":2060:2066   */\n      dup5\n        /* \"--CODEGEN--\":2056:2073   */\n      mul\n        /* \"--CODEGEN--\":2051:2054   */\n      dup3\n        /* \"--CODEGEN--\":2047:2074   */\n      add\n        /* \"--CODEGEN--\":2044:2080   */\n      gt\n        /* \"--CODEGEN--\":2041:2043   */\n      iszero\n      tag_124\n      jumpi\n        /* \"--CODEGEN--\":2093:2094   */\n      0x00\n        /* \"--CODEGEN--\":2090:2091   */\n      dup1\n        /* \"--CODEGEN--\":2083:2095   */\n      revert\n        /* \"--CODEGEN--\":2041:2043   */\n    tag_124:\n        /* \"--CODEGEN--\":2118:2119   */\n      0x00\n        /* \"--CODEGEN--\":2103:2307   */\n    tag_125:\n        /* \"--CODEGEN--\":2128:2134   */\n      dup4\n        /* \"--CODEGEN--\":2125:2126   */\n      dup2\n        /* \"--CODEGEN--\":2122:2135   */\n      lt\n        /* \"--CODEGEN--\":2103:2307   */\n      iszero\n      tag_127\n      jumpi\n        /* \"--CODEGEN--\":2186:2189   */\n      dup2\n        /* \"--CODEGEN--\":2208:2243   */\n      tag_128\n        /* \"--CODEGEN--\":2239:2242   */\n      dup9\n        /* \"--CODEGEN--\":2227:2237   */\n      dup3\n        /* \"--CODEGEN--\":2208:2243   */\n      jump(tag_129)\n    tag_128:\n        /* \"--CODEGEN--\":2203:2206   */\n      dup5\n        /* \"--CODEGEN--\":2196:2244   */\n      mstore\n        /* \"--CODEGEN--\":2267:2271   */\n      0x20\n        /* \"--CODEGEN--\":2262:2265   */\n      dup5\n        /* \"--CODEGEN--\":2258:2272   */\n      add\n        /* \"--CODEGEN--\":2251:2272   */\n      swap4\n      pop\n        /* \"--CODEGEN--\":2295:2299   */\n      0x20\n        /* \"--CODEGEN--\":2290:2293   */\n      dup4\n        /* \"--CODEGEN--\":2286:2300   */\n      add\n        /* \"--CODEGEN--\":2279:2300   */\n      swap3\n      pop\n        /* \"--CODEGEN--\":2160:2307   */\n      pop\n        /* \"--CODEGEN--\":2150:2151   */\n      0x01\n        /* \"--CODEGEN--\":2147:2148   */\n      dup2\n        /* \"--CODEGEN--\":2143:2152   */\n      add\n        /* \"--CODEGEN--\":2138:2152   */\n      swap1\n      pop\n        /* \"--CODEGEN--\":2103:2307   */\n      jump(tag_125)\n    tag_127:\n        /* \"--CODEGEN--\":2107:2121   */\n      pop\n        /* \"--CODEGEN--\":1687:2313   */\n      pop\n      pop\n      pop\n      swap3\n      swap2\n      pop\n      pop\n      jump\n        /* \"--CODEGEN--\":2322:2756   */\n    tag_118:\n      0x00\n        /* \"--CODEGEN--\":2420:2423   */\n      dup3\n        /* \"--CODEGEN--\":2413:2417   */\n      0x1f\n        /* \"--CODEGEN--\":2405:2411   */\n      dup4\n        /* \"--CODEGEN--\":2401:2418   */\n      add\n        /* \"--CODEGEN--\":2397:2424   */\n      slt\n        /* \"--CODEGEN--\":2387:2389   */\n      tag_130\n      jumpi\n        /* \"--CODEGEN--\":2438:2439   */\n      0x00\n        /* \"--CODEGEN--\":2435:2436   */\n      dup1\n        /* \"--CODEGEN--\":2428:2440   */\n      revert\n        /* \"--CODEGEN--\":2387:2389   */\n    tag_130:\n        /* \"--CODEGEN--\":2475:2481   */\n      dup2\n        /* \"--CODEGEN--\":2462:2482   */\n      calldataload\n        /* \"--CODEGEN--\":2497:2558   */\n      tag_131\n        /* \"--CODEGEN--\":2512:2557   */\n      tag_132\n        /* \"--CODEGEN--\":2550:2556   */\n      dup3\n        /* \"--CODEGEN--\":2512:2557   */\n      jump(tag_133)\n    tag_132:\n        /* \"--CODEGEN--\":2497:2558   */\n      jump(tag_103)\n    tag_131:\n        /* \"--CODEGEN--\":2488:2558   */\n      swap2\n      pop\n        /* \"--CODEGEN--\":2578:2584   */\n      dup1\n        /* \"--CODEGEN--\":2571:2576   */\n      dup3\n        /* \"--CODEGEN--\":2564:2585   */\n      mstore\n        /* \"--CODEGEN--\":2614:2618   */\n      0x20\n        /* \"--CODEGEN--\":2606:2612   */\n      dup4\n        /* \"--CODEGEN--\":2602:2619   */\n      add\n        /* \"--CODEGEN--\":2647:2651   */\n      0x20\n        /* \"--CODEGEN--\":2640:2645   */\n      dup4\n        /* \"--CODEGEN--\":2636:2652   */\n      add\n        /* \"--CODEGEN--\":2682:2685   */\n      dup6\n        /* \"--CODEGEN--\":2673:2679   */\n      dup4\n        /* \"--CODEGEN--\":2668:2671   */\n      dup4\n        /* \"--CODEGEN--\":2664:2680   */\n      add\n        /* \"--CODEGEN--\":2661:2686   */\n      gt\n        /* \"--CODEGEN--\":2658:2660   */\n      iszero\n      tag_134\n      jumpi\n        /* \"--CODEGEN--\":2699:2700   */\n      0x00\n        /* \"--CODEGEN--\":2696:2697   */\n      dup1\n        /* \"--CODEGEN--\":2689:2701   */\n      revert\n        /* \"--CODEGEN--\":2658:2660   */\n    tag_134:\n        /* \"--CODEGEN--\":2709:2750   */\n      tag_135\n        /* \"--CODEGEN--\":2743:2749   */\n      dup4\n        /* \"--CODEGEN--\":2738:2741   */\n      dup3\n        /* \"--CODEGEN--\":2733:2736   */\n      dup5\n        /* \"--CODEGEN--\":2709:2750   */\n      jump(tag_136)\n    tag_135:\n        /* \"--CODEGEN--\":2380:2756   */\n      pop\n      pop\n      pop\n      swap3\n      swap2\n      pop\n      pop\n      jump\n        /* \"--CODEGEN--\":2765:3207   */\n    tag_137:\n      0x00\n        /* \"--CODEGEN--\":2867:2870   */\n      dup3\n        /* \"--CODEGEN--\":2860:2864   */\n      0x1f\n        /* \"--CODEGEN--\":2852:2858   */\n      dup4\n        /* \"--CODEGEN--\":2848:2865   */\n      add\n        /* \"--CODEGEN--\":2844:2871   */\n      slt\n        /* \"--CODEGEN--\":2834:2836   */\n      tag_138\n      jumpi\n        /* \"--CODEGEN--\":2885:2886   */\n      0x00\n        /* \"--CODEGEN--\":2882:2883   */\n      dup1\n        /* \"--CODEGEN--\":2875:2887   */\n      revert\n        /* \"--CODEGEN--\":2834:2836   */\n    tag_138:\n        /* \"--CODEGEN--\":2922:2928   */\n      dup2\n        /* \"--CODEGEN--\":2909:2929   */\n      calldataload\n        /* \"--CODEGEN--\":2944:3009   */\n      tag_139\n        /* \"--CODEGEN--\":2959:3008   */\n      tag_140\n        /* \"--CODEGEN--\":3001:3007   */\n      dup3\n        /* \"--CODEGEN--\":2959:3008   */\n      jump(tag_141)\n    tag_140:\n        /* \"--CODEGEN--\":2944:3009   */\n      jump(tag_103)\n    tag_139:\n        /* \"--CODEGEN--\":2935:3009   */\n      swap2\n      pop\n        /* \"--CODEGEN--\":3029:3035   */\n      dup1\n        /* \"--CODEGEN--\":3022:3027   */\n      dup3\n        /* \"--CODEGEN--\":3015:3036   */\n      mstore\n        /* \"--CODEGEN--\":3065:3069   */\n      0x20\n        /* \"--CODEGEN--\":3057:3063   */\n      dup4\n        /* \"--CODEGEN--\":3053:3070   */\n      add\n        /* \"--CODEGEN--\":3098:3102   */\n      0x20\n        /* \"--CODEGEN--\":3091:3096   */\n      dup4\n        /* \"--CODEGEN--\":3087:3103   */\n      add\n        /* \"--CODEGEN--\":3133:3136   */\n      dup6\n        /* \"--CODEGEN--\":3124:3130   */\n      dup4\n        /* \"--CODEGEN--\":3119:3122   */\n      dup4\n        /* \"--CODEGEN--\":3115:3131   */\n      add\n        /* \"--CODEGEN--\":3112:3137   */\n      gt\n        /* \"--CODEGEN--\":3109:3111   */\n      iszero\n      tag_142\n      jumpi\n        /* \"--CODEGEN--\":3150:3151   */\n      0x00\n        /* \"--CODEGEN--\":3147:3148   */\n      dup1\n        /* \"--CODEGEN--\":3140:3152   */\n      revert\n        /* \"--CODEGEN--\":3109:3111   */\n    tag_142:\n        /* \"--CODEGEN--\":3160:3201   */\n      tag_143\n        /* \"--CODEGEN--\":3194:3200   */\n      dup4\n        /* \"--CODEGEN--\":3189:3192   */\n      dup3\n        /* \"--CODEGEN--\":3184:3187   */\n      dup5\n        /* \"--CODEGEN--\":3160:3201   */\n      jump(tag_136)\n    tag_143:\n        /* \"--CODEGEN--\":2827:3207   */\n      pop\n      pop\n      pop\n      swap3\n      swap2\n      pop\n      pop\n      jump\n        /* \"--CODEGEN--\":3215:3345   */\n    tag_144:\n      0x00\n        /* \"--CODEGEN--\":3295:3301   */\n      dup2\n        /* \"--CODEGEN--\":3282:3302   */\n      calldataload\n        /* \"--CODEGEN--\":3273:3302   */\n      swap1\n      pop\n        /* \"--CODEGEN--\":3307:3340   */\n      tag_145\n        /* \"--CODEGEN--\":3334:3339   */\n      dup2\n        /* \"--CODEGEN--\":3307:3340   */\n      jump(tag_146)\n    tag_145:\n        /* \"--CODEGEN--\":3267:3345   */\n      swap3\n      swap2\n      pop\n      pop\n      jump\n        /* \"--CODEGEN--\":3352:3480   */\n    tag_147:\n      0x00\n        /* \"--CODEGEN--\":3431:3437   */\n      dup2\n        /* \"--CODEGEN--\":3418:3438   */\n      calldataload\n        /* \"--CODEGEN--\":3409:3438   */\n      swap1\n      pop\n        /* \"--CODEGEN--\":3443:3475   */\n      tag_148\n        /* \"--CODEGEN--\":3469:3474   */\n      dup2\n        /* \"--CODEGEN--\":3443:3475   */\n      jump(tag_149)\n    tag_148:\n        /* \"--CODEGEN--\":3403:3480   */\n      swap3\n      swap2\n      pop\n      pop\n      jump\n        /* \"--CODEGEN--\":3487:3613   */\n    tag_129:\n      0x00\n        /* \"--CODEGEN--\":3565:3571   */\n      dup2\n        /* \"--CODEGEN--\":3552:3572   */\n      calldataload\n        /* \"--CODEGEN--\":3543:3572   */\n      swap1\n      pop\n        /* \"--CODEGEN--\":3577:3608   */\n      tag_150\n        /* \"--CODEGEN--\":3602:3607   */\n      dup2\n        /* \"--CODEGEN--\":3577:3608   */\n      jump(tag_151)\n    tag_150:\n        /* \"--CODEGEN--\":3537:3613   */\n      swap3\n      swap2\n      pop\n      pop\n      jump\n        /* \"--CODEGEN--\":3620:3967   */\n    tag_20:\n      0x00\n        /* \"--CODEGEN--\":3734:3736   */\n      0x20\n        /* \"--CODEGEN--\":3722:3731   */\n      dup3\n        /* \"--CODEGEN--\":3713:3720   */\n      dup5\n        /* \"--CODEGEN--\":3709:3732   */\n      sub\n        /* \"--CODEGEN--\":3705:3737   */\n      slt\n        /* \"--CODEGEN--\":3702:3704   */\n      iszero\n      tag_152\n      jumpi\n        /* \"--CODEGEN--\":3750:3751   */\n      0x00\n        /* \"--CODEGEN--\":3747:3748   */\n      dup1\n        /* \"--CODEGEN--\":3740:3752   */\n      revert\n        /* \"--CODEGEN--\":3702:3704   */\n    tag_152:\n        /* \"--CODEGEN--\":3813:3814   */\n      0x00\n        /* \"--CODEGEN--\":3802:3811   */\n      dup3\n        /* \"--CODEGEN--\":3798:3815   */\n      add\n        /* \"--CODEGEN--\":3785:3816   */\n      calldataload\n        /* \"--CODEGEN--\":3836:3854   */\n      0xffffffffffffffff\n        /* \"--CODEGEN--\":3828:3834   */\n      dup2\n        /* \"--CODEGEN--\":3825:3855   */\n      gt\n        /* \"--CODEGEN--\":3822:3824   */\n      iszero\n      tag_153\n      jumpi\n        /* \"--CODEGEN--\":3868:3869   */\n      0x00\n        /* \"--CODEGEN--\":3865:3866   */\n      dup1\n        /* \"--CODEGEN--\":3858:3870   */\n      revert\n        /* \"--CODEGEN--\":3822:3824   */\n    tag_153:\n        /* \"--CODEGEN--\":3888:3951   */\n      tag_154\n        /* \"--CODEGEN--\":3943:3950   */\n      dup5\n        /* \"--CODEGEN--\":3934:3940   */\n      dup3\n        /* \"--CODEGEN--\":3923:3932   */\n      dup6\n        /* \"--CODEGEN--\":3919:3941   */\n      add\n        /* \"--CODEGEN--\":3888:3951   */\n      jump(tag_137)\n    tag_154:\n        /* \"--CODEGEN--\":3878:3951   */\n      swap2\n      pop\n        /* \"--CODEGEN--\":3764:3957   */\n      pop\n        /* \"--CODEGEN--\":3696:3967   */\n      swap3\n      swap2\n      pop\n      pop\n      jump\n        /* \"--CODEGEN--\":3974:4552   */\n    tag_26:\n      0x00\n      dup1\n        /* \"--CODEGEN--\":4115:4117   */\n      0x40\n        /* \"--CODEGEN--\":4103:4112   */\n      dup4\n        /* \"--CODEGEN--\":4094:4101   */\n      dup6\n        /* \"--CODEGEN--\":4090:4113   */\n      sub\n        /* \"--CODEGEN--\":4086:4118   */\n      slt\n        /* \"--CODEGEN--\":4083:4085   */\n      iszero\n      tag_155\n      jumpi\n        /* \"--CODEGEN--\":4131:4132   */\n      0x00\n        /* \"--CODEGEN--\":4128:4129   */\n      dup1\n        /* \"--CODEGEN--\":4121:4133   */\n      revert\n        /* \"--CODEGEN--\":4083:4085   */\n    tag_155:\n        /* \"--CODEGEN--\":4194:4195   */\n      0x00\n        /* \"--CODEGEN--\":4183:4192   */\n      dup4\n        /* \"--CODEGEN--\":4179:4196   */\n      add\n        /* \"--CODEGEN--\":4166:4197   */\n      calldataload\n        /* \"--CODEGEN--\":4217:4235   */\n      0xffffffffffffffff\n        /* \"--CODEGEN--\":4209:4215   */\n      dup2\n        /* \"--CODEGEN--\":4206:4236   */\n      gt\n        /* \"--CODEGEN--\":4203:4205   */\n      iszero\n      tag_156\n      jumpi\n        /* \"--CODEGEN--\":4249:4250   */\n      0x00\n        /* \"--CODEGEN--\":4246:4247   */\n      dup1\n        /* \"--CODEGEN--\":4239:4251   */\n      revert\n        /* \"--CODEGEN--\":4203:4205   */\n    tag_156:\n        /* \"--CODEGEN--\":4269:4332   */\n      tag_157\n        /* \"--CODEGEN--\":4324:4331   */\n      dup6\n        /* \"--CODEGEN--\":4315:4321   */\n      dup3\n        /* \"--CODEGEN--\":4304:4313   */\n      dup7\n        /* \"--CODEGEN--\":4300:4322   */\n      add\n        /* \"--CODEGEN--\":4269:4332   */\n      jump(tag_137)\n    tag_157:\n        /* \"--CODEGEN--\":4259:4332   */\n      swap3\n      pop\n        /* \"--CODEGEN--\":4145:4338   */\n      pop\n        /* \"--CODEGEN--\":4397:4399   */\n      0x20\n        /* \"--CODEGEN--\":4386:4395   */\n      dup4\n        /* \"--CODEGEN--\":4382:4400   */\n      add\n        /* \"--CODEGEN--\":4369:4401   */\n      calldataload\n        /* \"--CODEGEN--\":4421:4439   */\n      0xffffffffffffffff\n        /* \"--CODEGEN--\":4413:4419   */\n      dup2\n        /* \"--CODEGEN--\":4410:4440   */\n      gt\n        /* \"--CODEGEN--\":4407:4409   */\n      iszero\n      tag_158\n      jumpi\n        /* \"--CODEGEN--\":4453:4454   */\n      0x00\n        /* \"--CODEGEN--\":4450:4451   */\n      dup1\n        /* \"--CODEGEN--\":4443:4455   */\n      revert\n        /* \"--CODEGEN--\":4407:4409   */\n    tag_158:\n        /* \"--CODEGEN--\":4473:4536   */\n      tag_159\n        /* \"--CODEGEN--\":4528:4535   */\n      dup6\n        /* \"--CODEGEN--\":4519:4525   */\n      dup3\n        /* \"--CODEGEN--\":4508:4517   */\n      dup7\n        /* \"--CODEGEN--\":4504:4526   */\n      add\n        /* \"--CODEGEN--\":4473:4536   */\n      jump(tag_137)\n    tag_159:\n        /* \"--CODEGEN--\":4463:4536   */\n      swap2\n      pop\n        /* \"--CODEGEN--\":4348:4542   */\n      pop\n        /* \"--CODEGEN--\":4077:4552   */\n      swap3\n      pop\n      swap3\n      swap1\n      pop\n      jump\n        /* \"--CODEGEN--\":4559:5262   */\n    tag_14:\n      0x00\n      dup1\n      0x00\n        /* \"--CODEGEN--\":4717:4719   */\n      0x60\n        /* \"--CODEGEN--\":4705:4714   */\n      dup5\n        /* \"--CODEGEN--\":4696:4703   */\n      dup7\n        /* \"--CODEGEN--\":4692:4715   */\n      sub\n        /* \"--CODEGEN--\":4688:4720   */\n      slt\n        /* \"--CODEGEN--\":4685:4687   */\n      iszero\n      tag_160\n      jumpi\n        /* \"--CODEGEN--\":4733:4734   */\n      0x00\n        /* \"--CODEGEN--\":4730:4731   */\n      dup1\n        /* \"--CODEGEN--\":4723:4735   */\n      revert\n        /* \"--CODEGEN--\":4685:4687   */\n    tag_160:\n        /* \"--CODEGEN--\":4796:4797   */\n      0x00\n        /* \"--CODEGEN--\":4785:4794   */\n      dup5\n        /* \"--CODEGEN--\":4781:4798   */\n      add\n        /* \"--CODEGEN--\":4768:4799   */\n      calldataload\n        /* \"--CODEGEN--\":4819:4837   */\n      0xffffffffffffffff\n        /* \"--CODEGEN--\":4811:4817   */\n      dup2\n        /* \"--CODEGEN--\":4808:4838   */\n      gt\n        /* \"--CODEGEN--\":4805:4807   */\n      iszero\n      tag_161\n      jumpi\n        /* \"--CODEGEN--\":4851:4852   */\n      0x00\n        /* \"--CODEGEN--\":4848:4849   */\n      dup1\n        /* \"--CODEGEN--\":4841:4853   */\n      revert\n        /* \"--CODEGEN--\":4805:4807   */\n    tag_161:\n        /* \"--CODEGEN--\":4871:4934   */\n      tag_162\n        /* \"--CODEGEN--\":4926:4933   */\n      dup7\n        /* \"--CODEGEN--\":4917:4923   */\n      dup3\n        /* \"--CODEGEN--\":4906:4915   */\n      dup8\n        /* \"--CODEGEN--\":4902:4924   */\n      add\n        /* \"--CODEGEN--\":4871:4934   */\n      jump(tag_137)\n    tag_162:\n        /* \"--CODEGEN--\":4861:4934   */\n      swap4\n      pop\n        /* \"--CODEGEN--\":4747:4940   */\n      pop\n        /* \"--CODEGEN--\":4999:5001   */\n      0x20\n        /* \"--CODEGEN--\":4988:4997   */\n      dup5\n        /* \"--CODEGEN--\":4984:5002   */\n      add\n        /* \"--CODEGEN--\":4971:5003   */\n      calldataload\n        /* \"--CODEGEN--\":5023:5041   */\n      0xffffffffffffffff\n        /* \"--CODEGEN--\":5015:5021   */\n      dup2\n        /* \"--CODEGEN--\":5012:5042   */\n      gt\n        /* \"--CODEGEN--\":5009:5011   */\n      iszero\n      tag_163\n      jumpi\n        /* \"--CODEGEN--\":5055:5056   */\n      0x00\n        /* \"--CODEGEN--\":5052:5053   */\n      dup1\n        /* \"--CODEGEN--\":5045:5057   */\n      revert\n        /* \"--CODEGEN--\":5009:5011   */\n    tag_163:\n        /* \"--CODEGEN--\":5075:5138   */\n      tag_164\n        /* \"--CODEGEN--\":5130:5137   */\n      dup7\n        /* \"--CODEGEN--\":5121:5127   */\n      dup3\n        /* \"--CODEGEN--\":5110:5119   */\n      dup8\n        /* \"--CODEGEN--\":5106:5128   */\n      add\n        /* \"--CODEGEN--\":5075:5138   */\n      jump(tag_137)\n    tag_164:\n        /* \"--CODEGEN--\":5065:5138   */\n      swap3\n      pop\n        /* \"--CODEGEN--\":4950:5144   */\n      pop\n        /* \"--CODEGEN--\":5175:5177   */\n      0x40\n        /* \"--CODEGEN--\":5193:5246   */\n      tag_165\n        /* \"--CODEGEN--\":5238:5245   */\n      dup7\n        /* \"--CODEGEN--\":5229:5235   */\n      dup3\n        /* \"--CODEGEN--\":5218:5227   */\n      dup8\n        /* \"--CODEGEN--\":5214:5236   */\n      add\n        /* \"--CODEGEN--\":5193:5246   */\n      jump(tag_95)\n    tag_165:\n        /* \"--CODEGEN--\":5183:5246   */\n      swap2\n      pop\n        /* \"--CODEGEN--\":5154:5252   */\n      pop\n        /* \"--CODEGEN--\":4679:5262   */\n      swap3\n      pop\n      swap3\n      pop\n      swap3\n      jump\n        /* \"--CODEGEN--\":5269:6094   */\n    tag_46:\n      0x00\n      dup1\n      0x00\n      dup1\n        /* \"--CODEGEN--\":5442:5445   */\n      0x80\n        /* \"--CODEGEN--\":5430:5439   */\n      dup6\n        /* \"--CODEGEN--\":5421:5428   */\n      dup8\n        /* \"--CODEGEN--\":5417:5440   */\n      sub\n        /* \"--CODEGEN--\":5413:5446   */\n      slt\n        /* \"--CODEGEN--\":5410:5412   */\n      iszero\n      tag_166\n      jumpi\n        /* \"--CODEGEN--\":5459:5460   */\n      0x00\n        /* \"--CODEGEN--\":5456:5457   */\n      dup1\n        /* \"--CODEGEN--\":5449:5461   */\n      revert\n        /* \"--CODEGEN--\":5410:5412   */\n    tag_166:\n        /* \"--CODEGEN--\":5522:5523   */\n      0x00\n        /* \"--CODEGEN--\":5511:5520   */\n      dup6\n        /* \"--CODEGEN--\":5507:5524   */\n      add\n        /* \"--CODEGEN--\":5494:5525   */\n      calldataload\n        /* \"--CODEGEN--\":5545:5563   */\n      0xffffffffffffffff\n        /* \"--CODEGEN--\":5537:5543   */\n      dup2\n        /* \"--CODEGEN--\":5534:5564   */\n      gt\n        /* \"--CODEGEN--\":5531:5533   */\n      iszero\n      tag_167\n      jumpi\n        /* \"--CODEGEN--\":5577:5578   */\n      0x00\n        /* \"--CODEGEN--\":5574:5575   */\n      dup1\n        /* \"--CODEGEN--\":5567:5579   */\n      revert\n        /* \"--CODEGEN--\":5531:5533   */\n    tag_167:\n        /* \"--CODEGEN--\":5597:5660   */\n      tag_168\n        /* \"--CODEGEN--\":5652:5659   */\n      dup8\n        /* \"--CODEGEN--\":5643:5649   */\n      dup3\n        /* \"--CODEGEN--\":5632:5641   */\n      dup9\n        /* \"--CODEGEN--\":5628:5650   */\n      add\n        /* \"--CODEGEN--\":5597:5660   */\n      jump(tag_137)\n    tag_168:\n        /* \"--CODEGEN--\":5587:5660   */\n      swap5\n      pop\n        /* \"--CODEGEN--\":5473:5666   */\n      pop\n        /* \"--CODEGEN--\":5725:5727   */\n      0x20\n        /* \"--CODEGEN--\":5714:5723   */\n      dup6\n        /* \"--CODEGEN--\":5710:5728   */\n      add\n        /* \"--CODEGEN--\":5697:5729   */\n      calldataload\n        /* \"--CODEGEN--\":5749:5767   */\n      0xffffffffffffffff\n        /* \"--CODEGEN--\":5741:5747   */\n      dup2\n        /* \"--CODEGEN--\":5738:5768   */\n      gt\n        /* \"--CODEGEN--\":5735:5737   */\n      iszero\n      tag_169\n      jumpi\n        /* \"--CODEGEN--\":5781:5782   */\n      0x00\n        /* \"--CODEGEN--\":5778:5779   */\n      dup1\n        /* \"--CODEGEN--\":5771:5783   */\n      revert\n        /* \"--CODEGEN--\":5735:5737   */\n    tag_169:\n        /* \"--CODEGEN--\":5801:5864   */\n      tag_170\n        /* \"--CODEGEN--\":5856:5863   */\n      dup8\n        /* \"--CODEGEN--\":5847:5853   */\n      dup3\n        /* \"--CODEGEN--\":5836:5845   */\n      dup9\n        /* \"--CODEGEN--\":5832:5854   */\n      add\n        /* \"--CODEGEN--\":5801:5864   */\n      jump(tag_137)\n    tag_170:\n        /* \"--CODEGEN--\":5791:5864   */\n      swap4\n      pop\n        /* \"--CODEGEN--\":5676:5870   */\n      pop\n        /* \"--CODEGEN--\":5901:5903   */\n      0x40\n        /* \"--CODEGEN--\":5919:5972   */\n      tag_171\n        /* \"--CODEGEN--\":5964:5971   */\n      dup8\n        /* \"--CODEGEN--\":5955:5961   */\n      dup3\n        /* \"--CODEGEN--\":5944:5953   */\n      dup9\n        /* \"--CODEGEN--\":5940:5962   */\n      add\n        /* \"--CODEGEN--\":5919:5972   */\n      jump(tag_95)\n    tag_171:\n        /* \"--CODEGEN--\":5909:5972   */\n      swap3\n      pop\n        /* \"--CODEGEN--\":5880:5978   */\n      pop\n        /* \"--CODEGEN--\":6009:6011   */\n      0x60\n        /* \"--CODEGEN--\":6027:6078   */\n      tag_172\n        /* \"--CODEGEN--\":6070:6077   */\n      dup8\n        /* \"--CODEGEN--\":6061:6067   */\n      dup3\n        /* \"--CODEGEN--\":6050:6059   */\n      dup9\n        /* \"--CODEGEN--\":6046:6068   */\n      add\n        /* \"--CODEGEN--\":6027:6078   */\n      jump(tag_129)\n    tag_172:\n        /* \"--CODEGEN--\":6017:6078   */\n      swap2\n      pop\n        /* \"--CODEGEN--\":5988:6084   */\n      pop\n        /* \"--CODEGEN--\":5404:6094   */\n      swap3\n      swap6\n      swap2\n      swap5\n      pop\n      swap3\n      pop\n      jump\n        /* \"--CODEGEN--\":6101:7598   */\n    tag_42:\n      0x00\n      dup1\n      0x00\n      dup1\n      0x00\n      dup1\n        /* \"--CODEGEN--\":6389:6392   */\n      0xc0\n        /* \"--CODEGEN--\":6377:6386   */\n      dup8\n        /* \"--CODEGEN--\":6368:6375   */\n      dup10\n        /* \"--CODEGEN--\":6364:6387   */\n      sub\n        /* \"--CODEGEN--\":6360:6393   */\n      slt\n        /* \"--CODEGEN--\":6357:6359   */\n      iszero\n      tag_173\n      jumpi\n        /* \"--CODEGEN--\":6406:6407   */\n      0x00\n        /* \"--CODEGEN--\":6403:6404   */\n      dup1\n        /* \"--CODEGEN--\":6396:6408   */\n      revert\n        /* \"--CODEGEN--\":6357:6359   */\n    tag_173:\n        /* \"--CODEGEN--\":6469:6470   */\n      0x00\n        /* \"--CODEGEN--\":6458:6467   */\n      dup8\n        /* \"--CODEGEN--\":6454:6471   */\n      add\n        /* \"--CODEGEN--\":6441:6472   */\n      calldataload\n        /* \"--CODEGEN--\":6492:6510   */\n      0xffffffffffffffff\n        /* \"--CODEGEN--\":6484:6490   */\n      dup2\n        /* \"--CODEGEN--\":6481:6511   */\n      gt\n        /* \"--CODEGEN--\":6478:6480   */\n      iszero\n      tag_174\n      jumpi\n        /* \"--CODEGEN--\":6524:6525   */\n      0x00\n        /* \"--CODEGEN--\":6521:6522   */\n      dup1\n        /* \"--CODEGEN--\":6514:6526   */\n      revert\n        /* \"--CODEGEN--\":6478:6480   */\n    tag_174:\n        /* \"--CODEGEN--\":6544:6607   */\n      tag_175\n        /* \"--CODEGEN--\":6599:6606   */\n      dup10\n        /* \"--CODEGEN--\":6590:6596   */\n      dup3\n        /* \"--CODEGEN--\":6579:6588   */\n      dup11\n        /* \"--CODEGEN--\":6575:6597   */\n      add\n        /* \"--CODEGEN--\":6544:6607   */\n      jump(tag_137)\n    tag_175:\n        /* \"--CODEGEN--\":6534:6607   */\n      swap7\n      pop\n        /* \"--CODEGEN--\":6420:6613   */\n      pop\n        /* \"--CODEGEN--\":6672:6674   */\n      0x20\n        /* \"--CODEGEN--\":6661:6670   */\n      dup8\n        /* \"--CODEGEN--\":6657:6675   */\n      add\n        /* \"--CODEGEN--\":6644:6676   */\n      calldataload\n        /* \"--CODEGEN--\":6696:6714   */\n      0xffffffffffffffff\n        /* \"--CODEGEN--\":6688:6694   */\n      dup2\n        /* \"--CODEGEN--\":6685:6715   */\n      gt\n        /* \"--CODEGEN--\":6682:6684   */\n      iszero\n      tag_176\n      jumpi\n        /* \"--CODEGEN--\":6728:6729   */\n      0x00\n        /* \"--CODEGEN--\":6725:6726   */\n      dup1\n        /* \"--CODEGEN--\":6718:6730   */\n      revert\n        /* \"--CODEGEN--\":6682:6684   */\n    tag_176:\n        /* \"--CODEGEN--\":6748:6811   */\n      tag_177\n        /* \"--CODEGEN--\":6803:6810   */\n      dup10\n        /* \"--CODEGEN--\":6794:6800   */\n      dup3\n        /* \"--CODEGEN--\":6783:6792   */\n      dup11\n        /* \"--CODEGEN--\":6779:6801   */\n      add\n        /* \"--CODEGEN--\":6748:6811   */\n      jump(tag_137)\n    tag_177:\n        /* \"--CODEGEN--\":6738:6811   */\n      swap6\n      pop\n        /* \"--CODEGEN--\":6623:6817   */\n      pop\n        /* \"--CODEGEN--\":6876:6878   */\n      0x40\n        /* \"--CODEGEN--\":6865:6874   */\n      dup8\n        /* \"--CODEGEN--\":6861:6879   */\n      add\n        /* \"--CODEGEN--\":6848:6880   */\n      calldataload\n        /* \"--CODEGEN--\":6900:6918   */\n      0xffffffffffffffff\n        /* \"--CODEGEN--\":6892:6898   */\n      dup2\n        /* \"--CODEGEN--\":6889:6919   */\n      gt\n        /* \"--CODEGEN--\":6886:6888   */\n      iszero\n      tag_178\n      jumpi\n        /* \"--CODEGEN--\":6932:6933   */\n      0x00\n        /* \"--CODEGEN--\":6929:6930   */\n      dup1\n        /* \"--CODEGEN--\":6922:6934   */\n      revert\n        /* \"--CODEGEN--\":6886:6888   */\n    tag_178:\n        /* \"--CODEGEN--\":6952:7036   */\n      tag_179\n        /* \"--CODEGEN--\":7028:7035   */\n      dup10\n        /* \"--CODEGEN--\":7019:7025   */\n      dup3\n        /* \"--CODEGEN--\":7008:7017   */\n      dup11\n        /* \"--CODEGEN--\":7004:7026   */\n      add\n        /* \"--CODEGEN--\":6952:7036   */\n      jump(tag_109)\n    tag_179:\n        /* \"--CODEGEN--\":6942:7036   */\n      swap5\n      pop\n        /* \"--CODEGEN--\":6827:7042   */\n      pop\n        /* \"--CODEGEN--\":7101:7103   */\n      0x60\n        /* \"--CODEGEN--\":7090:7099   */\n      dup8\n        /* \"--CODEGEN--\":7086:7104   */\n      add\n        /* \"--CODEGEN--\":7073:7105   */\n      calldataload\n        /* \"--CODEGEN--\":7125:7143   */\n      0xffffffffffffffff\n        /* \"--CODEGEN--\":7117:7123   */\n      dup2\n        /* \"--CODEGEN--\":7114:7144   */\n      gt\n        /* \"--CODEGEN--\":7111:7113   */\n      iszero\n      tag_180\n      jumpi\n        /* \"--CODEGEN--\":7157:7158   */\n      0x00\n        /* \"--CODEGEN--\":7154:7155   */\n      dup1\n        /* \"--CODEGEN--\":7147:7159   */\n      revert\n        /* \"--CODEGEN--\":7111:7113   */\n    tag_180:\n        /* \"--CODEGEN--\":7177:7255   */\n      tag_181\n        /* \"--CODEGEN--\":7247:7254   */\n      dup10\n        /* \"--CODEGEN--\":7238:7244   */\n      dup3\n        /* \"--CODEGEN--\":7227:7236   */\n      dup11\n        /* \"--CODEGEN--\":7223:7245   */\n      add\n        /* \"--CODEGEN--\":7177:7255   */\n      jump(tag_98)\n    tag_181:\n        /* \"--CODEGEN--\":7167:7255   */\n      swap4\n      pop\n        /* \"--CODEGEN--\":7052:7261   */\n      pop\n        /* \"--CODEGEN--\":7320:7323   */\n      0x80\n        /* \"--CODEGEN--\":7309:7318   */\n      dup8\n        /* \"--CODEGEN--\":7305:7324   */\n      add\n        /* \"--CODEGEN--\":7292:7325   */\n      calldataload\n        /* \"--CODEGEN--\":7345:7363   */\n      0xffffffffffffffff\n        /* \"--CODEGEN--\":7337:7343   */\n      dup2\n        /* \"--CODEGEN--\":7334:7364   */\n      gt\n        /* \"--CODEGEN--\":7331:7333   */\n      iszero\n      tag_182\n      jumpi\n        /* \"--CODEGEN--\":7377:7378   */\n      0x00\n        /* \"--CODEGEN--\":7374:7375   */\n      dup1\n        /* \"--CODEGEN--\":7367:7379   */\n      revert\n        /* \"--CODEGEN--\":7331:7333   */\n    tag_182:\n        /* \"--CODEGEN--\":7397:7473   */\n      tag_183\n        /* \"--CODEGEN--\":7465:7472   */\n      dup10\n        /* \"--CODEGEN--\":7456:7462   */\n      dup3\n        /* \"--CODEGEN--\":7445:7454   */\n      dup11\n        /* \"--CODEGEN--\":7441:7463   */\n      add\n        /* \"--CODEGEN--\":7397:7473   */\n      jump(tag_119)\n    tag_183:\n        /* \"--CODEGEN--\":7387:7473   */\n      swap3\n      pop\n        /* \"--CODEGEN--\":7271:7479   */\n      pop\n        /* \"--CODEGEN--\":7510:7513   */\n      0xa0\n        /* \"--CODEGEN--\":7529:7582   */\n      tag_184\n        /* \"--CODEGEN--\":7574:7581   */\n      dup10\n        /* \"--CODEGEN--\":7565:7571   */\n      dup3\n        /* \"--CODEGEN--\":7554:7563   */\n      dup11\n        /* \"--CODEGEN--\":7550:7572   */\n      add\n        /* \"--CODEGEN--\":7529:7582   */\n      jump(tag_144)\n    tag_184:\n        /* \"--CODEGEN--\":7519:7582   */\n      swap2\n      pop\n        /* \"--CODEGEN--\":7489:7588   */\n      pop\n        /* \"--CODEGEN--\":6351:7598   */\n      swap3\n      swap6\n      pop\n      swap3\n      swap6\n      pop\n      swap3\n      swap6\n      jump\n        /* \"--CODEGEN--\":7605:8306   */\n    tag_38:\n      0x00\n      dup1\n      0x00\n        /* \"--CODEGEN--\":7762:7764   */\n      0x60\n        /* \"--CODEGEN--\":7750:7759   */\n      dup5\n        /* \"--CODEGEN--\":7741:7748   */\n      dup7\n        /* \"--CODEGEN--\":7737:7760   */\n      sub\n        /* \"--CODEGEN--\":7733:7765   */\n      slt\n        /* \"--CODEGEN--\":7730:7732   */\n      iszero\n      tag_185\n      jumpi\n        /* \"--CODEGEN--\":7778:7779   */\n      0x00\n        /* \"--CODEGEN--\":7775:7776   */\n      dup1\n        /* \"--CODEGEN--\":7768:7780   */\n      revert\n        /* \"--CODEGEN--\":7730:7732   */\n    tag_185:\n        /* \"--CODEGEN--\":7841:7842   */\n      0x00\n        /* \"--CODEGEN--\":7830:7839   */\n      dup5\n        /* \"--CODEGEN--\":7826:7843   */\n      add\n        /* \"--CODEGEN--\":7813:7844   */\n      calldataload\n        /* \"--CODEGEN--\":7864:7882   */\n      0xffffffffffffffff\n        /* \"--CODEGEN--\":7856:7862   */\n      dup2\n        /* \"--CODEGEN--\":7853:7883   */\n      gt\n        /* \"--CODEGEN--\":7850:7852   */\n      iszero\n      tag_186\n      jumpi\n        /* \"--CODEGEN--\":7896:7897   */\n      0x00\n        /* \"--CODEGEN--\":7893:7894   */\n      dup1\n        /* \"--CODEGEN--\":7886:7898   */\n      revert\n        /* \"--CODEGEN--\":7850:7852   */\n    tag_186:\n        /* \"--CODEGEN--\":7916:7979   */\n      tag_187\n        /* \"--CODEGEN--\":7971:7978   */\n      dup7\n        /* \"--CODEGEN--\":7962:7968   */\n      dup3\n        /* \"--CODEGEN--\":7951:7960   */\n      dup8\n        /* \"--CODEGEN--\":7947:7969   */\n      add\n        /* \"--CODEGEN--\":7916:7979   */\n      jump(tag_137)\n    tag_187:\n        /* \"--CODEGEN--\":7906:7979   */\n      swap4\n      pop\n        /* \"--CODEGEN--\":7792:7985   */\n      pop\n        /* \"--CODEGEN--\":8016:8018   */\n      0x20\n        /* \"--CODEGEN--\":8034:8086   */\n      tag_188\n        /* \"--CODEGEN--\":8078:8085   */\n      dup7\n        /* \"--CODEGEN--\":8069:8075   */\n      dup3\n        /* \"--CODEGEN--\":8058:8067   */\n      dup8\n        /* \"--CODEGEN--\":8054:8076   */\n      add\n        /* \"--CODEGEN--\":8034:8086   */\n      jump(tag_147)\n    tag_188:\n        /* \"--CODEGEN--\":8024:8086   */\n      swap3\n      pop\n        /* \"--CODEGEN--\":7995:8092   */\n      pop\n        /* \"--CODEGEN--\":8151:8153   */\n      0x40\n        /* \"--CODEGEN--\":8140:8149   */\n      dup5\n        /* \"--CODEGEN--\":8136:8154   */\n      add\n        /* \"--CODEGEN--\":8123:8155   */\n      calldataload\n        /* \"--CODEGEN--\":8175:8193   */\n      0xffffffffffffffff\n        /* \"--CODEGEN--\":8167:8173   */\n      dup2\n        /* \"--CODEGEN--\":8164:8194   */\n      gt\n        /* \"--CODEGEN--\":8161:8163   */\n      iszero\n      tag_189\n      jumpi\n        /* \"--CODEGEN--\":8207:8208   */\n      0x00\n        /* \"--CODEGEN--\":8204:8205   */\n      dup1\n        /* \"--CODEGEN--\":8197:8209   */\n      revert\n        /* \"--CODEGEN--\":8161:8163   */\n    tag_189:\n        /* \"--CODEGEN--\":8227:8290   */\n      tag_190\n        /* \"--CODEGEN--\":8282:8289   */\n      dup7\n        /* \"--CODEGEN--\":8273:8279   */\n      dup3\n        /* \"--CODEGEN--\":8262:8271   */\n      dup8\n        /* \"--CODEGEN--\":8258:8280   */\n      add\n        /* \"--CODEGEN--\":8227:8290   */\n      jump(tag_137)\n    tag_190:\n        /* \"--CODEGEN--\":8217:8290   */\n      swap2\n      pop\n        /* \"--CODEGEN--\":8102:8296   */\n      pop\n        /* \"--CODEGEN--\":7724:8306   */\n      swap3\n      pop\n      swap3\n      pop\n      swap3\n      jump\n        /* \"--CODEGEN--\":8313:8660   */\n    tag_191:\n      0x00\n        /* \"--CODEGEN--\":8425:8464   */\n      tag_192\n        /* \"--CODEGEN--\":8458:8463   */\n      dup3\n        /* \"--CODEGEN--\":8425:8464   */\n      jump(tag_193)\n    tag_192:\n        /* \"--CODEGEN--\":8476:8547   */\n      tag_194\n        /* \"--CODEGEN--\":8540:8546   */\n      dup2\n        /* \"--CODEGEN--\":8535:8538   */\n      dup6\n        /* \"--CODEGEN--\":8476:8547   */\n      jump(tag_195)\n    tag_194:\n        /* \"--CODEGEN--\":8469:8547   */\n      swap4\n      pop\n        /* \"--CODEGEN--\":8552:8604   */\n      tag_196\n        /* \"--CODEGEN--\":8597:8603   */\n      dup2\n        /* \"--CODEGEN--\":8592:8595   */\n      dup6\n        /* \"--CODEGEN--\":8585:8589   */\n      0x20\n        /* \"--CODEGEN--\":8578:8583   */\n      dup7\n        /* \"--CODEGEN--\":8574:8590   */\n      add\n        /* \"--CODEGEN--\":8552:8604   */\n      jump(tag_197)\n    tag_196:\n        /* \"--CODEGEN--\":8625:8654   */\n      tag_198\n        /* \"--CODEGEN--\":8647:8653   */\n      dup2\n        /* \"--CODEGEN--\":8625:8654   */\n      jump(tag_199)\n    tag_198:\n        /* \"--CODEGEN--\":8620:8623   */\n      dup5\n        /* \"--CODEGEN--\":8616:8655   */\n      add\n        /* \"--CODEGEN--\":8609:8655   */\n      swap2\n      pop\n        /* \"--CODEGEN--\":8405:8660   */\n      pop\n      swap3\n      swap2\n      pop\n      pop\n      jump\n        /* \"--CODEGEN--\":8667:9027   */\n    tag_200:\n      0x00\n        /* \"--CODEGEN--\":8797:8836   */\n      tag_201\n        /* \"--CODEGEN--\":8830:8835   */\n      dup3\n        /* \"--CODEGEN--\":8797:8836   */\n      jump(tag_193)\n    tag_201:\n        /* \"--CODEGEN--\":8848:8937   */\n      tag_202\n        /* \"--CODEGEN--\":8930:8936   */\n      dup2\n        /* \"--CODEGEN--\":8925:8928   */\n      dup6\n        /* \"--CODEGEN--\":8848:8937   */\n      jump(tag_203)\n    tag_202:\n        /* \"--CODEGEN--\":8841:8937   */\n      swap4\n      pop\n        /* \"--CODEGEN--\":8942:8994   */\n      tag_204\n        /* \"--CODEGEN--\":8987:8993   */\n      dup2\n        /* \"--CODEGEN--\":8982:8985   */\n      dup6\n        /* \"--CODEGEN--\":8975:8979   */\n      0x20\n        /* \"--CODEGEN--\":8968:8973   */\n      dup7\n        /* \"--CODEGEN--\":8964:8980   */\n      add\n        /* \"--CODEGEN--\":8942:8994   */\n      jump(tag_197)\n    tag_204:\n        /* \"--CODEGEN--\":9015:9021   */\n      dup1\n        /* \"--CODEGEN--\":9010:9013   */\n      dup5\n        /* \"--CODEGEN--\":9006:9022   */\n      add\n        /* \"--CODEGEN--\":8999:9022   */\n      swap2\n      pop\n        /* \"--CODEGEN--\":8777:9027   */\n      pop\n      swap3\n      swap2\n      pop\n      pop\n      jump\n        /* \"--CODEGEN--\":9034:9386   */\n    tag_205:\n      0x00\n        /* \"--CODEGEN--\":9160:9195   */\n      tag_206\n        /* \"--CODEGEN--\":9189:9194   */\n      dup3\n        /* \"--CODEGEN--\":9160:9195   */\n      jump(tag_207)\n    tag_206:\n        /* \"--CODEGEN--\":9207:9296   */\n      tag_208\n        /* \"--CODEGEN--\":9289:9295   */\n      dup2\n        /* \"--CODEGEN--\":9284:9287   */\n      dup6\n        /* \"--CODEGEN--\":9207:9296   */\n      jump(tag_203)\n    tag_208:\n        /* \"--CODEGEN--\":9200:9296   */\n      swap4\n      pop\n        /* \"--CODEGEN--\":9301:9353   */\n      tag_209\n        /* \"--CODEGEN--\":9346:9352   */\n      dup2\n        /* \"--CODEGEN--\":9341:9344   */\n      dup6\n        /* \"--CODEGEN--\":9334:9338   */\n      0x20\n        /* \"--CODEGEN--\":9327:9332   */\n      dup7\n        /* \"--CODEGEN--\":9323:9339   */\n      add\n        /* \"--CODEGEN--\":9301:9353   */\n      jump(tag_197)\n    tag_209:\n        /* \"--CODEGEN--\":9374:9380   */\n      dup1\n        /* \"--CODEGEN--\":9369:9372   */\n      dup5\n        /* \"--CODEGEN--\":9365:9381   */\n      add\n        /* \"--CODEGEN--\":9358:9381   */\n      swap2\n      pop\n        /* \"--CODEGEN--\":9140:9386   */\n      pop\n      swap3\n      swap2\n      pop\n      pop\n      jump\n        /* \"--CODEGEN--\":9393:9503   */\n    tag_210:\n        /* \"--CODEGEN--\":9474:9497   */\n      tag_211\n        /* \"--CODEGEN--\":9491:9496   */\n      dup2\n        /* \"--CODEGEN--\":9474:9497   */\n      jump(tag_212)\n    tag_211:\n        /* \"--CODEGEN--\":9469:9472   */\n      dup3\n        /* \"--CODEGEN--\":9462:9498   */\n      mstore\n        /* \"--CODEGEN--\":9456:9503   */\n      pop\n      pop\n      jump\n        /* \"--CODEGEN--\":9510:9617   */\n    tag_213:\n        /* \"--CODEGEN--\":9589:9611   */\n      tag_214\n        /* \"--CODEGEN--\":9605:9610   */\n      dup2\n        /* \"--CODEGEN--\":9589:9611   */\n      jump(tag_215)\n    tag_214:\n        /* \"--CODEGEN--\":9584:9587   */\n      dup3\n        /* \"--CODEGEN--\":9577:9612   */\n      mstore\n        /* \"--CODEGEN--\":9571:9617   */\n      pop\n      pop\n      jump\n        /* \"--CODEGEN--\":9624:9882   */\n    tag_80:\n      0x00\n        /* \"--CODEGEN--\":9766:9857   */\n      tag_216\n        /* \"--CODEGEN--\":9853:9856   */\n      dup3\n        /* \"--CODEGEN--\":9844:9850   */\n      dup5\n        /* \"--CODEGEN--\":9766:9857   */\n      jump(tag_205)\n    tag_216:\n        /* \"--CODEGEN--\":9759:9857   */\n      swap2\n      pop\n        /* \"--CODEGEN--\":9874:9877   */\n      dup2\n        /* \"--CODEGEN--\":9867:9877   */\n      swap1\n      pop\n        /* \"--CODEGEN--\":9747:9882   */\n      swap3\n      swap2\n      pop\n      pop\n      jump\n        /* \"--CODEGEN--\":9889:10155   */\n    tag_50:\n      0x00\n        /* \"--CODEGEN--\":10035:10130   */\n      tag_217\n        /* \"--CODEGEN--\":10126:10129   */\n      dup3\n        /* \"--CODEGEN--\":10117:10123   */\n      dup5\n        /* \"--CODEGEN--\":10035:10130   */\n      jump(tag_200)\n    tag_217:\n        /* \"--CODEGEN--\":10028:10130   */\n      swap2\n      pop\n        /* \"--CODEGEN--\":10147:10150   */\n      dup2\n        /* \"--CODEGEN--\":10140:10150   */\n      swap1\n      pop\n        /* \"--CODEGEN--\":10016:10155   */\n      swap3\n      swap2\n      pop\n      pop\n      jump\n        /* \"--CODEGEN--\":10162:10463   */\n    tag_23:\n      0x00\n        /* \"--CODEGEN--\":10300:10302   */\n      0x20\n        /* \"--CODEGEN--\":10289:10298   */\n      dup3\n        /* \"--CODEGEN--\":10285:10303   */\n      add\n        /* \"--CODEGEN--\":10277:10303   */\n      swap1\n      pop\n        /* \"--CODEGEN--\":10350:10359   */\n      dup2\n        /* \"--CODEGEN--\":10344:10348   */\n      dup2\n        /* \"--CODEGEN--\":10340:10360   */\n      sub\n        /* \"--CODEGEN--\":10336:10337   */\n      0x00\n        /* \"--CODEGEN--\":10325:10334   */\n      dup4\n        /* \"--CODEGEN--\":10321:10338   */\n      add\n        /* \"--CODEGEN--\":10314:10361   */\n      mstore\n        /* \"--CODEGEN--\":10375:10453   */\n      tag_218\n        /* \"--CODEGEN--\":10448:10452   */\n      dup2\n        /* \"--CODEGEN--\":10439:10445   */\n      dup5\n        /* \"--CODEGEN--\":10375:10453   */\n      jump(tag_191)\n    tag_218:\n        /* \"--CODEGEN--\":10367:10453   */\n      swap1\n      pop\n        /* \"--CODEGEN--\":10271:10463   */\n      swap3\n      swap2\n      pop\n      pop\n      jump\n        /* \"--CODEGEN--\":10470:10679   */\n    tag_35:\n      0x00\n        /* \"--CODEGEN--\":10586:10588   */\n      0x20\n        /* \"--CODEGEN--\":10575:10584   */\n      dup3\n        /* \"--CODEGEN--\":10571:10589   */\n      add\n        /* \"--CODEGEN--\":10563:10589   */\n      swap1\n      pop\n        /* \"--CODEGEN--\":10600:10669   */\n      tag_219\n        /* \"--CODEGEN--\":10666:10667   */\n      0x00\n        /* \"--CODEGEN--\":10655:10664   */\n      dup4\n        /* \"--CODEGEN--\":10651:10668   */\n      add\n        /* \"--CODEGEN--\":10642:10648   */\n      dup5\n        /* \"--CODEGEN--\":10600:10669   */\n      jump(tag_210)\n    tag_219:\n        /* \"--CODEGEN--\":10557:10679   */\n      swap3\n      swap2\n      pop\n      pop\n      jump\n        /* \"--CODEGEN--\":10686:10891   */\n    tag_17:\n      0x00\n        /* \"--CODEGEN--\":10800:10802   */\n      0x20\n        /* \"--CODEGEN--\":10789:10798   */\n      dup3\n        /* \"--CODEGEN--\":10785:10803   */\n      add\n        /* \"--CODEGEN--\":10777:10803   */\n      swap1\n      pop\n        /* \"--CODEGEN--\":10814:10881   */\n      tag_220\n        /* \"--CODEGEN--\":10878:10879   */\n      0x00\n        /* \"--CODEGEN--\":10867:10876   */\n      dup4\n        /* \"--CODEGEN--\":10863:10880   */\n      add\n        /* \"--CODEGEN--\":10854:10860   */\n      dup5\n        /* \"--CODEGEN--\":10814:10881   */\n      jump(tag_213)\n    tag_220:\n        /* \"--CODEGEN--\":10771:10891   */\n      swap3\n      swap2\n      pop\n      pop\n      jump\n        /* \"--CODEGEN--\":10898:11154   */\n    tag_103:\n      0x00\n        /* \"--CODEGEN--\":10960:10962   */\n      0x40\n        /* \"--CODEGEN--\":10954:10963   */\n      mload\n        /* \"--CODEGEN--\":10944:10963   */\n      swap1\n      pop\n        /* \"--CODEGEN--\":10998:11002   */\n      dup2\n        /* \"--CODEGEN--\":10990:10996   */\n      dup2\n        /* \"--CODEGEN--\":10986:11003   */\n      add\n        /* \"--CODEGEN--\":11097:11103   */\n      dup2\n        /* \"--CODEGEN--\":11085:11095   */\n      dup2\n        /* \"--CODEGEN--\":11082:11104   */\n      lt\n        /* \"--CODEGEN--\":11061:11079   */\n      0xffffffffffffffff\n        /* \"--CODEGEN--\":11049:11059   */\n      dup3\n        /* \"--CODEGEN--\":11046:11080   */\n      gt\n        /* \"--CODEGEN--\":11043:11105   */\n      or\n        /* \"--CODEGEN--\":11040:11042   */\n      iszero\n      tag_221\n      jumpi\n        /* \"--CODEGEN--\":11118:11119   */\n      0x00\n        /* \"--CODEGEN--\":11115:11116   */\n      dup1\n        /* \"--CODEGEN--\":11108:11120   */\n      revert\n        /* \"--CODEGEN--\":11040:11042   */\n    tag_221:\n        /* \"--CODEGEN--\":11138:11148   */\n      dup1\n        /* \"--CODEGEN--\":11134:11136   */\n      0x40\n        /* \"--CODEGEN--\":11127:11149   */\n      mstore\n        /* \"--CODEGEN--\":10938:11154   */\n      pop\n      swap2\n      swap1\n      pop\n      jump\n        /* \"--CODEGEN--\":11161:11465   */\n    tag_102:\n      0x00\n        /* \"--CODEGEN--\":11320:11338   */\n      0xffffffffffffffff\n        /* \"--CODEGEN--\":11312:11318   */\n      dup3\n        /* \"--CODEGEN--\":11309:11339   */\n      gt\n        /* \"--CODEGEN--\":11306:11308   */\n      iszero\n      tag_222\n      jumpi\n        /* \"--CODEGEN--\":11352:11353   */\n      0x00\n        /* \"--CODEGEN--\":11349:11350   */\n      dup1\n        /* \"--CODEGEN--\":11342:11354   */\n      revert\n        /* \"--CODEGEN--\":11306:11308   */\n    tag_222:\n        /* \"--CODEGEN--\":11387:11391   */\n      0x20\n        /* \"--CODEGEN--\":11379:11385   */\n      dup3\n        /* \"--CODEGEN--\":11375:11392   */\n      mul\n        /* \"--CODEGEN--\":11367:11392   */\n      swap1\n      pop\n        /* \"--CODEGEN--\":11450:11454   */\n      0x20\n        /* \"--CODEGEN--\":11444:11448   */\n      dup2\n        /* \"--CODEGEN--\":11440:11455   */\n      add\n        /* \"--CODEGEN--\":11432:11455   */\n      swap1\n      pop\n        /* \"--CODEGEN--\":11243:11465   */\n      swap2\n      swap1\n      pop\n      jump\n        /* \"--CODEGEN--\":11472:11782   */\n    tag_113:\n      0x00\n        /* \"--CODEGEN--\":11637:11655   */\n      0xffffffffffffffff\n        /* \"--CODEGEN--\":11629:11635   */\n      dup3\n        /* \"--CODEGEN--\":11626:11656   */\n      gt\n        /* \"--CODEGEN--\":11623:11625   */\n      iszero\n      tag_223\n      jumpi\n        /* \"--CODEGEN--\":11669:11670   */\n      0x00\n        /* \"--CODEGEN--\":11666:11667   */\n      dup1\n        /* \"--CODEGEN--\":11659:11671   */\n      revert\n        /* \"--CODEGEN--\":11623:11625   */\n    tag_223:\n        /* \"--CODEGEN--\":11704:11708   */\n      0x20\n        /* \"--CODEGEN--\":11696:11702   */\n      dup3\n        /* \"--CODEGEN--\":11692:11709   */\n      mul\n        /* \"--CODEGEN--\":11684:11709   */\n      swap1\n      pop\n        /* \"--CODEGEN--\":11767:11771   */\n      0x20\n        /* \"--CODEGEN--\":11761:11765   */\n      dup2\n        /* \"--CODEGEN--\":11757:11772   */\n      add\n        /* \"--CODEGEN--\":11749:11772   */\n      swap1\n      pop\n        /* \"--CODEGEN--\":11560:11782   */\n      swap2\n      swap1\n      pop\n      jump\n        /* \"--CODEGEN--\":11789:12091   */\n    tag_123:\n      0x00\n        /* \"--CODEGEN--\":11946:11964   */\n      0xffffffffffffffff\n        /* \"--CODEGEN--\":11938:11944   */\n      dup3\n        /* \"--CODEGEN--\":11935:11965   */\n      gt\n        /* \"--CODEGEN--\":11932:11934   */\n      iszero\n      tag_224\n      jumpi\n        /* \"--CODEGEN--\":11978:11979   */\n      0x00\n        /* \"--CODEGEN--\":11975:11976   */\n      dup1\n        /* \"--CODEGEN--\":11968:11980   */\n      revert\n        /* \"--CODEGEN--\":11932:11934   */\n    tag_224:\n        /* \"--CODEGEN--\":12013:12017   */\n      0x20\n        /* \"--CODEGEN--\":12005:12011   */\n      dup3\n        /* \"--CODEGEN--\":12001:12018   */\n      mul\n        /* \"--CODEGEN--\":11993:12018   */\n      swap1\n      pop\n        /* \"--CODEGEN--\":12076:12080   */\n      0x20\n        /* \"--CODEGEN--\":12070:12074   */\n      dup2\n        /* \"--CODEGEN--\":12066:12081   */\n      add\n        /* \"--CODEGEN--\":12058:12081   */\n      swap1\n      pop\n        /* \"--CODEGEN--\":11869:12091   */\n      swap2\n      swap1\n      pop\n      jump\n        /* \"--CODEGEN--\":12098:12416   */\n    tag_133:\n      0x00\n        /* \"--CODEGEN--\":12238:12256   */\n      0xffffffffffffffff\n        /* \"--CODEGEN--\":12230:12236   */\n      dup3\n        /* \"--CODEGEN--\":12227:12257   */\n      gt\n        /* \"--CODEGEN--\":12224:12226   */\n      iszero\n      tag_225\n      jumpi\n        /* \"--CODEGEN--\":12270:12271   */\n      0x00\n        /* \"--CODEGEN--\":12267:12268   */\n      dup1\n        /* \"--CODEGEN--\":12260:12272   */\n      revert\n        /* \"--CODEGEN--\":12224:12226   */\n    tag_225:\n        /* \"--CODEGEN--\":12337:12341   */\n      0x1f\n        /* \"--CODEGEN--\":12333:12342   */\n      not\n        /* \"--CODEGEN--\":12326:12330   */\n      0x1f\n        /* \"--CODEGEN--\":12318:12324   */\n      dup4\n        /* \"--CODEGEN--\":12314:12331   */\n      add\n        /* \"--CODEGEN--\":12310:12343   */\n      and\n        /* \"--CODEGEN--\":12302:12343   */\n      swap1\n      pop\n        /* \"--CODEGEN--\":12401:12405   */\n      0x20\n        /* \"--CODEGEN--\":12395:12399   */\n      dup2\n        /* \"--CODEGEN--\":12391:12406   */\n      add\n        /* \"--CODEGEN--\":12383:12406   */\n      swap1\n      pop\n        /* \"--CODEGEN--\":12161:12416   */\n      swap2\n      swap1\n      pop\n      jump\n        /* \"--CODEGEN--\":12423:12745   */\n    tag_141:\n      0x00\n        /* \"--CODEGEN--\":12567:12585   */\n      0xffffffffffffffff\n        /* \"--CODEGEN--\":12559:12565   */\n      dup3\n        /* \"--CODEGEN--\":12556:12586   */\n      gt\n        /* \"--CODEGEN--\":12553:12555   */\n      iszero\n      tag_226\n      jumpi\n        /* \"--CODEGEN--\":12599:12600   */\n      0x00\n        /* \"--CODEGEN--\":12596:12597   */\n      dup1\n        /* \"--CODEGEN--\":12589:12601   */\n      revert\n        /* \"--CODEGEN--\":12553:12555   */\n    tag_226:\n        /* \"--CODEGEN--\":12666:12670   */\n      0x1f\n        /* \"--CODEGEN--\":12662:12671   */\n      not\n        /* \"--CODEGEN--\":12655:12659   */\n      0x1f\n        /* \"--CODEGEN--\":12647:12653   */\n      dup4\n        /* \"--CODEGEN--\":12643:12660   */\n      add\n        /* \"--CODEGEN--\":12639:12672   */\n      and\n        /* \"--CODEGEN--\":12631:12672   */\n      swap1\n      pop\n        /* \"--CODEGEN--\":12730:12734   */\n      0x20\n        /* \"--CODEGEN--\":12724:12728   */\n      dup2\n        /* \"--CODEGEN--\":12720:12735   */\n      add\n        /* \"--CODEGEN--\":12712:12735   */\n      swap1\n      pop\n        /* \"--CODEGEN--\":12490:12745   */\n      swap2\n      swap1\n      pop\n      jump\n        /* \"--CODEGEN--\":12752:12870   */\n    tag_207:\n      0x00\n        /* \"--CODEGEN--\":12842:12847   */\n      dup2\n        /* \"--CODEGEN--\":12836:12848   */\n      mload\n        /* \"--CODEGEN--\":12826:12848   */\n      swap1\n      pop\n        /* \"--CODEGEN--\":12807:12870   */\n      swap2\n      swap1\n      pop\n      jump\n        /* \"--CODEGEN--\":12877:12999   */\n    tag_193:\n      0x00\n        /* \"--CODEGEN--\":12971:12976   */\n      dup2\n        /* \"--CODEGEN--\":12965:12977   */\n      mload\n        /* \"--CODEGEN--\":12955:12977   */\n      swap1\n      pop\n        /* \"--CODEGEN--\":12936:12999   */\n      swap2\n      swap1\n      pop\n      jump\n        /* \"--CODEGEN--\":13007:13170   */\n    tag_195:\n      0x00\n        /* \"--CODEGEN--\":13122:13128   */\n      dup3\n        /* \"--CODEGEN--\":13117:13120   */\n      dup3\n        /* \"--CODEGEN--\":13110:13129   */\n      mstore\n        /* \"--CODEGEN--\":13159:13163   */\n      0x20\n        /* \"--CODEGEN--\":13154:13157   */\n      dup3\n        /* \"--CODEGEN--\":13150:13164   */\n      add\n        /* \"--CODEGEN--\":13135:13164   */\n      swap1\n      pop\n        /* \"--CODEGEN--\":13103:13170   */\n      swap3\n      swap2\n      pop\n      pop\n      jump\n        /* \"--CODEGEN--\":13179:13324   */\n    tag_203:\n      0x00\n        /* \"--CODEGEN--\":13315:13318   */\n      dup2\n        /* \"--CODEGEN--\":13300:13318   */\n      swap1\n      pop\n        /* \"--CODEGEN--\":13293:13324   */\n      swap3\n      swap2\n      pop\n      pop\n      jump\n        /* \"--CODEGEN--\":13332:13423   */\n    tag_227:\n      0x00\n        /* \"--CODEGEN--\":13394:13418   */\n      tag_228\n        /* \"--CODEGEN--\":13412:13417   */\n      dup3\n        /* \"--CODEGEN--\":13394:13418   */\n      jump(tag_229)\n    tag_228:\n        /* \"--CODEGEN--\":13383:13418   */\n      swap1\n      pop\n        /* \"--CODEGEN--\":13377:13423   */\n      swap2\n      swap1\n      pop\n      jump\n        /* \"--CODEGEN--\":13430:13551   */\n    tag_229:\n      0x00\n        /* \"--CODEGEN--\":13503:13545   */\n      0xffffffffffffffffffffffffffffffffffffffff\n        /* \"--CODEGEN--\":13496:13501   */\n      dup3\n        /* \"--CODEGEN--\":13492:13546   */\n      and\n        /* \"--CODEGEN--\":13481:13546   */\n      swap1\n      pop\n        /* \"--CODEGEN--\":13475:13551   */\n      swap2\n      swap1\n      pop\n      jump\n        /* \"--CODEGEN--\":13558:13630   */\n    tag_230:\n      0x00\n        /* \"--CODEGEN--\":13620:13625   */\n      dup2\n        /* \"--CODEGEN--\":13609:13625   */\n      swap1\n      pop\n        /* \"--CODEGEN--\":13603:13630   */\n      swap2\n      swap1\n      pop\n      jump\n        /* \"--CODEGEN--\":13637:13725   */\n    tag_212:\n      0x00\n        /* \"--CODEGEN--\":13709:13719   */\n      0xffffffff\n        /* \"--CODEGEN--\":13702:13707   */\n      dup3\n        /* \"--CODEGEN--\":13698:13720   */\n      and\n        /* \"--CODEGEN--\":13687:13720   */\n      swap1\n      pop\n        /* \"--CODEGEN--\":13681:13725   */\n      swap2\n      swap1\n      pop\n      jump\n        /* \"--CODEGEN--\":13732:13813   */\n    tag_215:\n      0x00\n        /* \"--CODEGEN--\":13803:13807   */\n      0xff\n        /* \"--CODEGEN--\":13796:13801   */\n      dup3\n        /* \"--CODEGEN--\":13792:13808   */\n      and\n        /* \"--CODEGEN--\":13781:13808   */\n      swap1\n      pop\n        /* \"--CODEGEN--\":13775:13813   */\n      swap2\n      swap1\n      pop\n      jump\n        /* \"--CODEGEN--\":13821:13966   */\n    tag_136:\n        /* \"--CODEGEN--\":13902:13908   */\n      dup3\n        /* \"--CODEGEN--\":13897:13900   */\n      dup2\n        /* \"--CODEGEN--\":13892:13895   */\n      dup4\n        /* \"--CODEGEN--\":13879:13909   */\n      calldatacopy\n        /* \"--CODEGEN--\":13958:13959   */\n      0x00\n        /* \"--CODEGEN--\":13949:13955   */\n      dup4\n        /* \"--CODEGEN--\":13944:13947   */\n      dup4\n        /* \"--CODEGEN--\":13940:13956   */\n      add\n        /* \"--CODEGEN--\":13933:13960   */\n      mstore\n        /* \"--CODEGEN--\":13872:13966   */\n      pop\n      pop\n      pop\n      jump\n        /* \"--CODEGEN--\":13975:14243   */\n    tag_197:\n        /* \"--CODEGEN--\":14040:14041   */\n      0x00\n        /* \"--CODEGEN--\":14047:14148   */\n    tag_231:\n        /* \"--CODEGEN--\":14061:14067   */\n      dup4\n        /* \"--CODEGEN--\":14058:14059   */\n      dup2\n        /* \"--CODEGEN--\":14055:14068   */\n      lt\n        /* \"--CODEGEN--\":14047:14148   */\n      iszero\n      tag_233\n      jumpi\n        /* \"--CODEGEN--\":14137:14138   */\n      dup1\n        /* \"--CODEGEN--\":14132:14135   */\n      dup3\n        /* \"--CODEGEN--\":14128:14139   */\n      add\n        /* \"--CODEGEN--\":14122:14140   */\n      mload\n        /* \"--CODEGEN--\":14118:14119   */\n      dup2\n        /* \"--CODEGEN--\":14113:14116   */\n      dup5\n        /* \"--CODEGEN--\":14109:14120   */\n      add\n        /* \"--CODEGEN--\":14102:14141   */\n      mstore\n        /* \"--CODEGEN--\":14083:14085   */\n      0x20\n        /* \"--CODEGEN--\":14080:14081   */\n      dup2\n        /* \"--CODEGEN--\":14076:14086   */\n      add\n        /* \"--CODEGEN--\":14071:14086   */\n      swap1\n      pop\n        /* \"--CODEGEN--\":14047:14148   */\n      jump(tag_231)\n    tag_233:\n        /* \"--CODEGEN--\":14163:14169   */\n      dup4\n        /* \"--CODEGEN--\":14160:14161   */\n      dup2\n        /* \"--CODEGEN--\":14157:14170   */\n      gt\n        /* \"--CODEGEN--\":14154:14156   */\n      iszero\n      tag_234\n      jumpi\n        /* \"--CODEGEN--\":14228:14229   */\n      0x00\n        /* \"--CODEGEN--\":14219:14225   */\n      dup5\n        /* \"--CODEGEN--\":14214:14217   */\n      dup5\n        /* \"--CODEGEN--\":14210:14226   */\n      add\n        /* \"--CODEGEN--\":14203:14230   */\n      mstore\n        /* \"--CODEGEN--\":14154:14156   */\n    tag_234:\n        /* \"--CODEGEN--\":14024:14243   */\n      pop\n      pop\n      pop\n      pop\n      jump\n        /* \"--CODEGEN--\":14251:14348   */\n    tag_199:\n      0x00\n        /* \"--CODEGEN--\":14339:14341   */\n      0x1f\n        /* \"--CODEGEN--\":14335:14342   */\n      not\n        /* \"--CODEGEN--\":14330:14332   */\n      0x1f\n        /* \"--CODEGEN--\":14323:14328   */\n      dup4\n        /* \"--CODEGEN--\":14319:14333   */\n      add\n        /* \"--CODEGEN--\":14315:14343   */\n      and\n        /* \"--CODEGEN--\":14305:14343   */\n      swap1\n      pop\n        /* \"--CODEGEN--\":14299:14348   */\n      swap2\n      swap1\n      pop\n      jump\n        /* \"--CODEGEN--\":14356:14473   */\n    tag_97:\n        /* \"--CODEGEN--\":14425:14449   */\n      tag_235\n        /* \"--CODEGEN--\":14443:14448   */\n      dup2\n        /* \"--CODEGEN--\":14425:14449   */\n      jump(tag_227)\n    tag_235:\n        /* \"--CODEGEN--\":14418:14423   */\n      dup2\n        /* \"--CODEGEN--\":14415:14450   */\n      eq\n        /* \"--CODEGEN--\":14405:14407   */\n      tag_236\n      jumpi\n        /* \"--CODEGEN--\":14464:14465   */\n      0x00\n        /* \"--CODEGEN--\":14461:14462   */\n      dup1\n        /* \"--CODEGEN--\":14454:14466   */\n      revert\n        /* \"--CODEGEN--\":14405:14407   */\n    tag_236:\n        /* \"--CODEGEN--\":14399:14473   */\n      pop\n      jump\n        /* \"--CODEGEN--\":14480:14597   */\n    tag_146:\n        /* \"--CODEGEN--\":14549:14573   */\n      tag_237\n        /* \"--CODEGEN--\":14567:14572   */\n      dup2\n        /* \"--CODEGEN--\":14549:14573   */\n      jump(tag_230)\n    tag_237:\n        /* \"--CODEGEN--\":14542:14547   */\n      dup2\n        /* \"--CODEGEN--\":14539:14574   */\n      eq\n        /* \"--CODEGEN--\":14529:14531   */\n      tag_238\n      jumpi\n        /* \"--CODEGEN--\":14588:14589   */\n      0x00\n        /* \"--CODEGEN--\":14585:14586   */\n      dup1\n        /* \"--CODEGEN--\":14578:14590   */\n      revert\n        /* \"--CODEGEN--\":14529:14531   */\n    tag_238:\n        /* \"--CODEGEN--\":14523:14597   */\n      pop\n      jump\n        /* \"--CODEGEN--\":14604:14719   */\n    tag_149:\n        /* \"--CODEGEN--\":14672:14695   */\n      tag_239\n        /* \"--CODEGEN--\":14689:14694   */\n      dup2\n        /* \"--CODEGEN--\":14672:14695   */\n      jump(tag_212)\n    tag_239:\n        /* \"--CODEGEN--\":14665:14670   */\n      dup2\n        /* \"--CODEGEN--\":14662:14696   */\n      eq\n        /* \"--CODEGEN--\":14652:14654   */\n      tag_240\n      jumpi\n        /* \"--CODEGEN--\":14710:14711   */\n      0x00\n        /* \"--CODEGEN--\":14707:14708   */\n      dup1\n        /* \"--CODEGEN--\":14700:14712   */\n      revert\n        /* \"--CODEGEN--\":14652:14654   */\n    tag_240:\n        /* \"--CODEGEN--\":14646:14719   */\n      pop\n      jump\n        /* \"--CODEGEN--\":14726:14839   */\n    tag_151:\n        /* \"--CODEGEN--\":14793:14815   */\n      tag_241\n        /* \"--CODEGEN--\":14809:14814   */\n      dup2\n        /* \"--CODEGEN--\":14793:14815   */\n      jump(tag_215)\n    tag_241:\n        /* \"--CODEGEN--\":14786:14791   */\n      dup2\n        /* \"--CODEGEN--\":14783:14816   */\n      eq\n        /* \"--CODEGEN--\":14773:14775   */\n      tag_242\n      jumpi\n        /* \"--CODEGEN--\":14830:14831   */\n      0x00\n        /* \"--CODEGEN--\":14827:14828   */\n      dup1\n        /* \"--CODEGEN--\":14820:14832   */\n      revert\n        /* \"--CODEGEN--\":14773:14775   */\n    tag_242:\n        /* \"--CODEGEN--\":14767:14839   */\n      pop\n      jump\n\n    auxdata: 0xa365627a7a72315820a1f52acd9b736bee16cfef84a753be7342e4b30fcf1d642e07968c7290f004e96c6578706572696d656e74616cf564736f6c63430005110040\n}\n",
				"bytecode": {
					"linkReferences": {},
					"object": "608060405234801561001057600080fd5b506110aa806100206000396000f3fe608060405234801561001057600080fd5b50600436106100885760003560e01c80636877473e1161005b5780636877473e146101255780636cb1f39414610155578063bd28958214610171578063d6dd2a2b1461018d57610088565b806321d3473b1461008d57806323eab7ff146100bd57806326e1a9e7146100ed57806334a12cf814610109575b600080fd5b6100a760048036036100a29190810190610a5f565b6101a9565b6040516100b49190610e15565b60405180910390f35b6100d760048036036100d291908101906109b2565b61023b565b6040516100e49190610dd8565b60405180910390f35b610107600480360361010291908101906109f3565b6102fe565b005b610123600480360361011e91908101906109f3565b6103b2565b005b61013f600480360361013a91908101906109b2565b6103ec565b60405161014c9190610dfa565b60405180910390f35b61016f600480360361016a9190810190610c72565b610426565b005b61018b60048036036101869190810190610b71565b61050e565b005b6101a760048036036101a29190810190610ade565b6105fe565b005b600080846040516101ba9190610dc1565b9081526020016040518091039020600001836040516101d99190610dc1565b908152602001604051809103902060008373ffffffffffffffffffffffffffffffffffffffff1673ffffffffffffffffffffffffffffffffffffffff16815260200190815260200160002060009054906101000a900460ff1690509392505050565b606060008260405161024d9190610dc1565b90815260200160405180910390206002018054600181600116156101000203166002900480601f0160208091040260200160405190810160405280929190818152602001828054600181600116156101000203166002900480156102f25780601f106102c7576101008083540402835291602001916102f2565b820191906000526020600020905b8154815290600101906020018083116102d557829003601f168201915b50505050509050919050565b60006001806000856040516103139190610dc1565b9081526020016040518091039020600001846040516103329190610dc1565b908152602001604051809103902060003373ffffffffffffffffffffffffffffffffffffffff1673ffffffffffffffffffffffffffffffffffffffff16815260200190815260200160002060009054906101000a900460ff161660ff161490508061039957fe5b3373ffffffffffffffffffffffffffffffffffffffff16ff5b806000836040516103c39190610dc1565b908152602001604051809103902060020190805190602001906103e7929190610697565b505050565b600080826040516103fd9190610dc1565b908152602001604051809103902060010160009054906101000a900463ffffffff169050919050565b6000600180600360008760405161043d9190610dc1565b90815260200160405180910390206000018560405161045c9190610dc1565b908152602001604051809103902060003373ffffffffffffffffffffffffffffffffffffffff1673ffffffffffffffffffffffffffffffffffffffff16815260200190815260200160002060009054906101000a900460ff1660ff16901c1660ff16149050806104c857fe5b826000856040516104d99190610dc1565b908152602001604051809103902060010160006101000a81548163ffffffff021916908363ffffffff16021790555050505050565b60008090505b818110156105f55782818151811061052857fe5b60200260200101516000886040516105409190610dc1565b908152602001604051809103902060000186838151811061055d57fe5b60200260200101516040516105729190610daa565b9081526020016040518091039020600086848151811061058e57fe5b602002602001015173ffffffffffffffffffffffffffffffffffffffff1673ffffffffffffffffffffffffffffffffffffffff16815260200190815260200160002060006101000a81548160ff021916908360ff1602179055508080600101915050610514565b50505050505050565b8060008560405161060f9190610dc1565b90815260200160405180910390206000018460405161062e9190610dc1565b908152602001604051809103902060008473ffffffffffffffffffffffffffffffffffffffff1673ffffffffffffffffffffffffffffffffffffffff16815260200190815260200160002060006101000a81548160ff021916908360ff16021790555050505050565b828054600181600116156101000203166002900490600052602060002090601f016020900481019282601f106106d857805160ff1916838001178555610706565b82800160010185558215610706579182015b828111156107055782518255916020019190600101906106ea565b5b5090506107139190610717565b5090565b61073991905b8082111561073557600081600090555060010161071d565b5090565b90565b60008135905061074b8161100b565b92915050565b600082601f83011261076257600080fd5b813561077561077082610e5d565b610e30565b9150818183526020840193506020810190508385602084028201111561079a57600080fd5b60005b838110156107ca57816107b0888261073c565b84526020840193506020830192505060018101905061079d565b5050505092915050565b600082601f8301126107e557600080fd5b81356107f86107f382610e85565b610e30565b9150818183526020840193506020810190508360005b8381101561083e578135860161082488826108cb565b84526020840193506020830192505060018101905061080e565b5050505092915050565b600082601f83011261085957600080fd5b813561086c61086782610ead565b610e30565b9150818183526020840193506020810190508385602084028201111561089157600080fd5b60005b838110156108c157816108a7888261099d565b845260208401935060208301925050600181019050610894565b5050505092915050565b600082601f8301126108dc57600080fd5b81356108ef6108ea82610ed5565b610e30565b9150808252602083016020830185838301111561090b57600080fd5b610916838284610fb8565b50505092915050565b600082601f83011261093057600080fd5b813561094361093e82610f01565b610e30565b9150808252602083016020830185838301111561095f57600080fd5b61096a838284610fb8565b50505092915050565b60008135905061098281611022565b92915050565b60008135905061099781611039565b92915050565b6000813590506109ac81611050565b92915050565b6000602082840312156109c457600080fd5b600082013567ffffffffffffffff8111156109de57600080fd5b6109ea8482850161091f565b91505092915050565b60008060408385031215610a0657600080fd5b600083013567ffffffffffffffff811115610a2057600080fd5b610a2c8582860161091f565b925050602083013567ffffffffffffffff811115610a4957600080fd5b610a558582860161091f565b9150509250929050565b600080600060608486031215610a7457600080fd5b600084013567ffffffffffffffff811115610a8e57600080fd5b610a9a8682870161091f565b935050602084013567ffffffffffffffff811115610ab757600080fd5b610ac38682870161091f565b9250506040610ad48682870161073c565b9150509250925092565b60008060008060808587031215610af457600080fd5b600085013567ffffffffffffffff811115610b0e57600080fd5b610b1a8782880161091f565b945050602085013567ffffffffffffffff811115610b3757600080fd5b610b438782880161091f565b9350506040610b548782880161073c565b9250506060610b658782880161099d565b91505092959194509250565b60008060008060008060c08789031215610b8a57600080fd5b600087013567ffffffffffffffff811115610ba457600080fd5b610bb089828a0161091f565b965050602087013567ffffffffffffffff811115610bcd57600080fd5b610bd989828a0161091f565b955050604087013567ffffffffffffffff811115610bf657600080fd5b610c0289828a016107d4565b945050606087013567ffffffffffffffff811115610c1f57600080fd5b610c2b89828a01610751565b935050608087013567ffffffffffffffff811115610c4857600080fd5b610c5489828a01610848565b92505060a0610c6589828a01610973565b9150509295509295509295565b600080600060608486031215610c8757600080fd5b600084013567ffffffffffffffff811115610ca157600080fd5b610cad8682870161091f565b9350506020610cbe86828701610988565b925050604084013567ffffffffffffffff811115610cdb57600080fd5b610ce78682870161091f565b9150509250925092565b6000610cfc82610f38565b610d068185610f43565b9350610d16818560208601610fc7565b610d1f81610ffa565b840191505092915050565b6000610d3582610f38565b610d3f8185610f54565b9350610d4f818560208601610fc7565b80840191505092915050565b6000610d6682610f2d565b610d708185610f54565b9350610d80818560208601610fc7565b80840191505092915050565b610d9581610f9b565b82525050565b610da481610fab565b82525050565b6000610db68284610d5b565b915081905092915050565b6000610dcd8284610d2a565b915081905092915050565b60006020820190508181036000830152610df28184610cf1565b905092915050565b6000602082019050610e0f6000830184610d8c565b92915050565b6000602082019050610e2a6000830184610d9b565b92915050565b6000604051905081810181811067ffffffffffffffff82111715610e5357600080fd5b8060405250919050565b600067ffffffffffffffff821115610e7457600080fd5b602082029050602081019050919050565b600067ffffffffffffffff821115610e9c57600080fd5b602082029050602081019050919050565b600067ffffffffffffffff821115610ec457600080fd5b602082029050602081019050919050565b600067ffffffffffffffff821115610eec57600080fd5b601f19601f8301169050602081019050919050565b600067ffffffffffffffff821115610f1857600080fd5b601f19601f8301169050602081019050919050565b600081519050919050565b600081519050919050565b600082825260208201905092915050565b600081905092915050565b6000610f6a82610f71565b9050919050565b600073ffffffffffffffffffffffffffffffffffffffff82169050919050565b6000819050919050565b600063ffffffff82169050919050565b600060ff82169050919050565b82818337600083830152505050565b60005b83811015610fe5578082015181840152602081019050610fca565b83811115610ff4576000848401525b50505050565b6000601f19601f8301169050919050565b61101481610f5f565b811461101f57600080fd5b50565b61102b81610f91565b811461103657600080fd5b50565b61104281610f9b565b811461104d57600080fd5b50565b61105981610fab565b811461106457600080fd5b5056fea365627a7a72315820a1f52acd9b736bee16cfef84a753be7342e4b30fcf1d642e07968c7290f004e96c6578706572696d656e74616cf564736f6c63430005110040",
					"opcodes": "PUSH1 0x80 PUSH1 0x40 MSTORE CALLVALUE DUP1 ISZERO PUSH2 0x10 JUMPI PUSH1 0x0 DUP1 REVERT JUMPDEST POP PUSH2 0x10AA DUP1 PUSH2 0x20 PUSH1 0x0 CODECOPY PUSH1 0x0 RETURN INVALID PUSH1 0x80 PUSH1 0x40 MSTORE CALLVALUE DUP1 ISZERO PUSH2 0x10 JUMPI PUSH1 0x0 DUP1 REVERT JUMPDEST POP PUSH1 0x4 CALLDATASIZE LT PUSH2 0x88 JUMPI PUSH1 0x0 CALLDATALOAD PUSH1 0xE0 SHR DUP1 PUSH4 0x6877473E GT PUSH2 0x5B JUMPI DUP1 PUSH4 0x6877473E EQ PUSH2 0x125 JUMPI DUP1 PUSH4 0x6CB1F394 EQ PUSH2 0x155 JUMPI DUP1 PUSH4 0xBD289582 EQ PUSH2 0x171 JUMPI DUP1 PUSH4 0xD6DD2A2B EQ PUSH2 0x18D JUMPI PUSH2 0x88 JUMP JUMPDEST DUP1 PUSH4 0x21D3473B EQ PUSH2 0x8D JUMPI DUP1 PUSH4 0x23EAB7FF EQ PUSH2 0xBD JUMPI DUP1 PUSH4 0x26E1A9E7 EQ PUSH2 0xED JUMPI DUP1 PUSH4 0x34A12CF8 EQ PUSH2 0x109 JUMPI JUMPDEST PUSH1 0x0 DUP1 REVERT JUMPDEST PUSH2 0xA7 PUSH1 0x4 DUP1 CALLDATASIZE SUB PUSH2 0xA2 SWAP2 SWAP1 DUP2 ADD SWAP1 PUSH2 0xA5F JUMP JUMPDEST PUSH2 0x1A9 JUMP JUMPDEST PUSH1 0x40 MLOAD PUSH2 0xB4 SWAP2 SWAP1 PUSH2 0xE15 JUMP JUMPDEST PUSH1 0x40 MLOAD DUP1 SWAP2 SUB SWAP1 RETURN JUMPDEST PUSH2 0xD7 PUSH1 0x4 DUP1 CALLDATASIZE SUB PUSH2 0xD2 SWAP2 SWAP1 DUP2 ADD SWAP1 PUSH2 0x9B2 JUMP JUMPDEST PUSH2 0x23B JUMP JUMPDEST PUSH1 0x40 MLOAD PUSH2 0xE4 SWAP2 SWAP1 PUSH2 0xDD8 JUMP JUMPDEST PUSH1 0x40 MLOAD DUP1 SWAP2 SUB SWAP1 RETURN JUMPDEST PUSH2 0x107 PUSH1 0x4 DUP1 CALLDATASIZE SUB PUSH2 0x102 SWAP2 SWAP1 DUP2 ADD SWAP1 PUSH2 0x9F3 JUMP JUMPDEST PUSH2 0x2FE JUMP JUMPDEST STOP JUMPDEST PUSH2 0x123 PUSH1 0x4 DUP1 CALLDATASIZE SUB PUSH2 0x11E SWAP2 SWAP1 DUP2 ADD SWAP1 PUSH2 0x9F3 JUMP JUMPDEST PUSH2 0x3B2 JUMP JUMPDEST STOP JUMPDEST PUSH2 0x13F PUSH1 0x4 DUP1 CALLDATASIZE SUB PUSH2 0x13A SWAP2 SWAP1 DUP2 ADD SWAP1 PUSH2 0x9B2 JUMP JUMPDEST PUSH2 0x3EC JUMP JUMPDEST PUSH1 0x40 MLOAD PUSH2 0x14C SWAP2 SWAP1 PUSH2 0xDFA JUMP JUMPDEST PUSH1 0x40 MLOAD DUP1 SWAP2 SUB SWAP1 RETURN JUMPDEST PUSH2 0x16F PUSH1 0x4 DUP1 CALLDATASIZE SUB PUSH2 0x16A SWAP2 SWAP1 DUP2 ADD SWAP1 PUSH2 0xC72 JUMP JUMPDEST PUSH2 0x426 JUMP JUMPDEST STOP JUMPDEST PUSH2 0x18B PUSH1 0x4 DUP1 CALLDATASIZE SUB PUSH2 0x186 SWAP2 SWAP1 DUP2 ADD SWAP1 PUSH2 0xB71 JUMP JUMPDEST PUSH2 0x50E JUMP JUMPDEST STOP JUMPDEST PUSH2 0x1A7 PUSH1 0x4 DUP1 CALLDATASIZE SUB PUSH2 0x1A2 SWAP2 SWAP1 DUP2 ADD SWAP1 PUSH2 0xADE JUMP JUMPDEST PUSH2 0x5FE JUMP JUMPDEST STOP JUMPDEST PUSH1 0x0 DUP1 DUP5 PUSH1 0x40 MLOAD PUSH2 0x1BA SWAP2 SWAP1 PUSH2 0xDC1 JUMP JUMPDEST SWAP1 DUP2 MSTORE PUSH1 0x20 ADD PUSH1 0x40 MLOAD DUP1 SWAP2 SUB SWAP1 KECCAK256 PUSH1 0x0 ADD DUP4 PUSH1 0x40 MLOAD PUSH2 0x1D9 SWAP2 SWAP1 PUSH2 0xDC1 JUMP JUMPDEST SWAP1 DUP2 MSTORE PUSH1 0x20 ADD PUSH1 0x40 MLOAD DUP1 SWAP2 SUB SWAP1 KECCAK256 PUSH1 0x0 DUP4 PUSH20 0xFFFFFFFFFFFFFFFFFFFFFFFFFFFFFFFFFFFFFFFF AND PUSH20 0xFFFFFFFFFFFFFFFFFFFFFFFFFFFFFFFFFFFFFFFF AND DUP2 MSTORE PUSH1 0x20 ADD SWAP1 DUP2 MSTORE PUSH1 0x20 ADD PUSH1 0x0 KECCAK256 PUSH1 0x0 SWAP1 SLOAD SWAP1 PUSH2 0x100 EXP SWAP1 DIV PUSH1 0xFF AND SWAP1 POP SWAP4 SWAP3 POP POP POP JUMP JUMPDEST PUSH1 0x60 PUSH1 0x0 DUP3 PUSH1 0x40 MLOAD PUSH2 0x24D SWAP2 SWAP1 PUSH2 0xDC1 JUMP JUMPDEST SWAP1 DUP2 MSTORE PUSH1 0x20 ADD PUSH1 0x40 MLOAD DUP1 SWAP2 SUB SWAP1 KECCAK256 PUSH1 0x2 ADD DUP1 SLOAD PUSH1 0x1 DUP2 PUSH1 0x1 AND ISZERO PUSH2 0x100 MUL SUB AND PUSH1 0x2 SWAP1 DIV DUP1 PUSH1 0x1F ADD PUSH1 0x20 DUP1 SWAP2 DIV MUL PUSH1 0x20 ADD PUSH1 0x40 MLOAD SWAP1 DUP2 ADD PUSH1 0x40 MSTORE DUP1 SWAP3 SWAP2 SWAP1 DUP2 DUP2 MSTORE PUSH1 0x20 ADD DUP3 DUP1 SLOAD PUSH1 0x1 DUP2 PUSH1 0x1 AND ISZERO PUSH2 0x100 MUL SUB AND PUSH1 0x2 SWAP1 DIV DUP1 ISZERO PUSH2 0x2F2 JUMPI DUP1 PUSH1 0x1F LT PUSH2 0x2C7 JUMPI PUSH2 0x100 DUP1 DUP4 SLOAD DIV MUL DUP4 MSTORE SWAP2 PUSH1 0x20 ADD SWAP2 PUSH2 0x2F2 JUMP JUMPDEST DUP3 ADD SWAP2 SWAP1 PUSH1 0x0 MSTORE PUSH1 0x20 PUSH1 0x0 KECCAK256 SWAP1 JUMPDEST DUP2 SLOAD DUP2 MSTORE SWAP1 PUSH1 0x1 ADD SWAP1 PUSH1 0x20 ADD DUP1 DUP4 GT PUSH2 0x2D5 JUMPI DUP3 SWAP1 SUB PUSH1 0x1F AND DUP3 ADD SWAP2 JUMPDEST POP POP POP POP POP SWAP1 POP SWAP2 SWAP1 POP JUMP JUMPDEST PUSH1 0x0 PUSH1 0x1 DUP1 PUSH1 0x0 DUP6 PUSH1 0x40 MLOAD PUSH2 0x313 SWAP2 SWAP1 PUSH2 0xDC1 JUMP JUMPDEST SWAP1 DUP2 MSTORE PUSH1 0x20 ADD PUSH1 0x40 MLOAD DUP1 SWAP2 SUB SWAP1 KECCAK256 PUSH1 0x0 ADD DUP5 PUSH1 0x40 MLOAD PUSH2 0x332 SWAP2 SWAP1 PUSH2 0xDC1 JUMP JUMPDEST SWAP1 DUP2 MSTORE PUSH1 0x20 ADD PUSH1 0x40 MLOAD DUP1 SWAP2 SUB SWAP1 KECCAK256 PUSH1 0x0 CALLER PUSH20 0xFFFFFFFFFFFFFFFFFFFFFFFFFFFFFFFFFFFFFFFF AND PUSH20 0xFFFFFFFFFFFFFFFFFFFFFFFFFFFFFFFFFFFFFFFF AND DUP2 MSTORE PUSH1 0x20 ADD SWAP1 DUP2 MSTORE PUSH1 0x20 ADD PUSH1 0x0 KECCAK256 PUSH1 0x0 SWAP1 SLOAD SWAP1 PUSH2 0x100 EXP SWAP1 DIV PUSH1 0xFF AND AND PUSH1 0xFF AND EQ SWAP1 POP DUP1 PUSH2 0x399 JUMPI INVALID JUMPDEST CALLER PUSH20 0xFFFFFFFFFFFFFFFFFFFFFFFFFFFFFFFFFFFFFFFF AND SELFDESTRUCT JUMPDEST DUP1 PUSH1 0x0 DUP4 PUSH1 0x40 MLOAD PUSH2 0x3C3 SWAP2 SWAP1 PUSH2 0xDC1 JUMP JUMPDEST SWAP1 DUP2 MSTORE PUSH1 0x20 ADD PUSH1 0x40 MLOAD DUP1 SWAP2 SUB SWAP1 KECCAK256 PUSH1 0x2 ADD SWAP1 DUP1 MLOAD SWAP1 PUSH1 0x20 ADD SWAP1 PUSH2 0x3E7 SWAP3 SWAP2 SWAP1 PUSH2 0x697 JUMP JUMPDEST POP POP POP JUMP JUMPDEST PUSH1 0x0 DUP1 DUP3 PUSH1 0x40 MLOAD PUSH2 0x3FD SWAP2 SWAP1 PUSH2 0xDC1 JUMP JUMPDEST SWAP1 DUP2 MSTORE PUSH1 0x20 ADD PUSH1 0x40 MLOAD DUP1 SWAP2 SUB SWAP1 KECCAK256 PUSH1 0x1 ADD PUSH1 0x0 SWAP1 SLOAD SWAP1 PUSH2 0x100 EXP SWAP1 DIV PUSH4 0xFFFFFFFF AND SWAP1 POP SWAP2 SWAP1 POP JUMP JUMPDEST PUSH1 0x0 PUSH1 0x1 DUP1 PUSH1 0x3 PUSH1 0x0 DUP8 PUSH1 0x40 MLOAD PUSH2 0x43D SWAP2 SWAP1 PUSH2 0xDC1 JUMP JUMPDEST SWAP1 DUP2 MSTORE PUSH1 0x20 ADD PUSH1 0x40 MLOAD DUP1 SWAP2 SUB SWAP1 KECCAK256 PUSH1 0x0 ADD DUP6 PUSH1 0x40 MLOAD PUSH2 0x45C SWAP2 SWAP1 PUSH2 0xDC1 JUMP JUMPDEST SWAP1 DUP2 MSTORE PUSH1 0x20 ADD PUSH1 0x40 MLOAD DUP1 SWAP2 SUB SWAP1 KECCAK256 PUSH1 0x0 CALLER PUSH20 0xFFFFFFFFFFFFFFFFFFFFFFFFFFFFFFFFFFFFFFFF AND PUSH20 0xFFFFFFFFFFFFFFFFFFFFFFFFFFFFFFFFFFFFFFFF AND DUP2 MSTORE PUSH1 0x20 ADD SWAP1 DUP2 MSTORE PUSH1 0x20 ADD PUSH1 0x0 KECCAK256 PUSH1 0x0 SWAP1 SLOAD SWAP1 PUSH2 0x100 EXP SWAP1 DIV PUSH1 0xFF AND PUSH1 0xFF AND SWAP1 SHR AND PUSH1 0xFF AND EQ SWAP1 POP DUP1 PUSH2 0x4C8 JUMPI INVALID JUMPDEST DUP3 PUSH1 0x0 DUP6 PUSH1 0x40 MLOAD PUSH2 0x4D9 SWAP2 SWAP1 PUSH2 0xDC1 JUMP JUMPDEST SWAP1 DUP2 MSTORE PUSH1 0x20 ADD PUSH1 0x40 MLOAD DUP1 SWAP2 SUB SWAP1 KECCAK256 PUSH1 0x1 ADD PUSH1 0x0 PUSH2 0x100 EXP DUP2 SLOAD DUP2 PUSH4 0xFFFFFFFF MUL NOT AND SWAP1 DUP4 PUSH4 0xFFFFFFFF AND MUL OR SWAP1 SSTORE POP POP POP POP POP JUMP JUMPDEST PUSH1 0x0 DUP1 SWAP1 POP JUMPDEST DUP2 DUP2 LT ISZERO PUSH2 0x5F5 JUMPI DUP3 DUP2 DUP2 MLOAD DUP2 LT PUSH2 0x528 JUMPI INVALID JUMPDEST PUSH1 0x20 MUL PUSH1 0x20 ADD ADD MLOAD PUSH1 0x0 DUP9 PUSH1 0x40 MLOAD PUSH2 0x540 SWAP2 SWAP1 PUSH2 0xDC1 JUMP JUMPDEST SWAP1 DUP2 MSTORE PUSH1 0x20 ADD PUSH1 0x40 MLOAD DUP1 SWAP2 SUB SWAP1 KECCAK256 PUSH1 0x0 ADD DUP7 DUP4 DUP2 MLOAD DUP2 LT PUSH2 0x55D JUMPI INVALID JUMPDEST PUSH1 0x20 MUL PUSH1 0x20 ADD ADD MLOAD PUSH1 0x40 MLOAD PUSH2 0x572 SWAP2 SWAP1 PUSH2 0xDAA JUMP JUMPDEST SWAP1 DUP2 MSTORE PUSH1 0x20 ADD PUSH1 0x40 MLOAD DUP1 SWAP2 SUB SWAP1 KECCAK256 PUSH1 0x0 DUP7 DUP5 DUP2 MLOAD DUP2 LT PUSH2 0x58E JUMPI INVALID JUMPDEST PUSH1 0x20 MUL PUSH1 0x20 ADD ADD MLOAD PUSH20 0xFFFFFFFFFFFFFFFFFFFFFFFFFFFFFFFFFFFFFFFF AND PUSH20 0xFFFFFFFFFFFFFFFFFFFFFFFFFFFFFFFFFFFFFFFF AND DUP2 MSTORE PUSH1 0x20 ADD SWAP1 DUP2 MSTORE PUSH1 0x20 ADD PUSH1 0x0 KECCAK256 PUSH1 0x0 PUSH2 0x100 EXP DUP2 SLOAD DUP2 PUSH1 0xFF MUL NOT AND SWAP1 DUP4 PUSH1 0xFF AND MUL OR SWAP1 SSTORE POP DUP1 DUP1 PUSH1 0x1 ADD SWAP2 POP POP PUSH2 0x514 JUMP JUMPDEST POP POP POP POP POP POP POP JUMP JUMPDEST DUP1 PUSH1 0x0 DUP6 PUSH1 0x40 MLOAD PUSH2 0x60F SWAP2 SWAP1 PUSH2 0xDC1 JUMP JUMPDEST SWAP1 DUP2 MSTORE PUSH1 0x20 ADD PUSH1 0x40 MLOAD DUP1 SWAP2 SUB SWAP1 KECCAK256 PUSH1 0x0 ADD DUP5 PUSH1 0x40 MLOAD PUSH2 0x62E SWAP2 SWAP1 PUSH2 0xDC1 JUMP JUMPDEST SWAP1 DUP2 MSTORE PUSH1 0x20 ADD PUSH1 0x40 MLOAD DUP1 SWAP2 SUB SWAP1 KECCAK256 PUSH1 0x0 DUP5 PUSH20 0xFFFFFFFFFFFFFFFFFFFFFFFFFFFFFFFFFFFFFFFF AND PUSH20 0xFFFFFFFFFFFFFFFFFFFFFFFFFFFFFFFFFFFFFFFF AND DUP2 MSTORE PUSH1 0x20 ADD SWAP1 DUP2 MSTORE PUSH1 0x20 ADD PUSH1 0x0 KECCAK256 PUSH1 0x0 PUSH2 0x100 EXP DUP2 SLOAD DUP2 PUSH1 0xFF MUL NOT AND SWAP1 DUP4 PUSH1 0xFF AND MUL OR SWAP1 SSTORE POP POP POP POP POP JUMP JUMPDEST DUP3 DUP1 SLOAD PUSH1 0x1 DUP2 PUSH1 0x1 AND ISZERO PUSH2 0x100 MUL SUB AND PUSH1 0x2 SWAP1 DIV SWAP1 PUSH1 0x0 MSTORE PUSH1 0x20 PUSH1 0x0 KECCAK256 SWAP1 PUSH1 0x1F ADD PUSH1 0x20 SWAP1 DIV DUP2 ADD SWAP3 DUP3 PUSH1 0x1F LT PUSH2 0x6D8 JUMPI DUP1 MLOAD PUSH1 0xFF NOT AND DUP4 DUP1 ADD OR DUP6 SSTORE PUSH2 0x706 JUMP JUMPDEST DUP3 DUP1 ADD PUSH1 0x1 ADD DUP6 SSTORE DUP3 ISZERO PUSH2 0x706 JUMPI SWAP2 DUP3 ADD JUMPDEST DUP3 DUP2 GT ISZERO PUSH2 0x705 JUMPI DUP3 MLOAD DUP3 SSTORE SWAP2 PUSH1 0x20 ADD SWAP2 SWAP1 PUSH1 0x1 ADD SWAP1 PUSH2 0x6EA JUMP JUMPDEST JUMPDEST POP SWAP1 POP PUSH2 0x713 SWAP2 SWAP1 PUSH2 0x717 JUMP JUMPDEST POP SWAP1 JUMP JUMPDEST PUSH2 0x739 SWAP2 SWAP1 JUMPDEST DUP1 DUP3 GT ISZERO PUSH2 0x735 JUMPI PUSH1 0x0 DUP2 PUSH1 0x0 SWAP1 SSTORE POP PUSH1 0x1 ADD PUSH2 0x71D JUMP JUMPDEST POP SWAP1 JUMP JUMPDEST SWAP1 JUMP JUMPDEST PUSH1 0x0 DUP2 CALLDATALOAD SWAP1 POP PUSH2 0x74B DUP2 PUSH2 0x100B JUMP JUMPDEST SWAP3 SWAP2 POP POP JUMP JUMPDEST PUSH1 0x0 DUP3 PUSH1 0x1F DUP4 ADD SLT PUSH2 0x762 JUMPI PUSH1 0x0 DUP1 REVERT JUMPDEST DUP2 CALLDATALOAD PUSH2 0x775 PUSH2 0x770 DUP3 PUSH2 0xE5D JUMP JUMPDEST PUSH2 0xE30 JUMP JUMPDEST SWAP2 POP DUP2 DUP2 DUP4 MSTORE PUSH1 0x20 DUP5 ADD SWAP4 POP PUSH1 0x20 DUP2 ADD SWAP1 POP DUP4 DUP6 PUSH1 0x20 DUP5 MUL DUP3 ADD GT ISZERO PUSH2 0x79A JUMPI PUSH1 0x0 DUP1 REVERT JUMPDEST PUSH1 0x0 JUMPDEST DUP4 DUP2 LT ISZERO PUSH2 0x7CA JUMPI DUP2 PUSH2 0x7B0 DUP9 DUP3 PUSH2 0x73C JUMP JUMPDEST DUP5 MSTORE PUSH1 0x20 DUP5 ADD SWAP4 POP PUSH1 0x20 DUP4 ADD SWAP3 POP POP PUSH1 0x1 DUP2 ADD SWAP1 POP PUSH2 0x79D JUMP JUMPDEST POP POP POP POP SWAP3 SWAP2 POP POP JUMP JUMPDEST PUSH1 0x0 DUP3 PUSH1 0x1F DUP4 ADD SLT PUSH2 0x7E5 JUMPI PUSH1 0x0 DUP1 REVERT JUMPDEST DUP2 CALLDATALOAD PUSH2 0x7F8 PUSH2 0x7F3 DUP3 PUSH2 0xE85 JUMP JUMPDEST PUSH2 0xE30 JUMP JUMPDEST SWAP2 POP DUP2 DUP2 DUP4 MSTORE PUSH1 0x20 DUP5 ADD SWAP4 POP PUSH1 0x20 DUP2 ADD SWAP1 POP DUP4 PUSH1 0x0 JUMPDEST DUP4 DUP2 LT ISZERO PUSH2 0x83E JUMPI DUP2 CALLDATALOAD DUP7 ADD PUSH2 0x824 DUP9 DUP3 PUSH2 0x8CB JUMP JUMPDEST DUP5 MSTORE PUSH1 0x20 DUP5 ADD SWAP4 POP PUSH1 0x20 DUP4 ADD SWAP3 POP POP PUSH1 0x1 DUP2 ADD SWAP1 POP PUSH2 0x80E JUMP JUMPDEST POP POP POP POP SWAP3 SWAP2 POP POP JUMP JUMPDEST PUSH1 0x0 DUP3 PUSH1 0x1F DUP4 ADD SLT PUSH2 0x859 JUMPI PUSH1 0x0 DUP1 REVERT JUMPDEST DUP2 CALLDATALOAD PUSH2 0x86C PUSH2 0x867 DUP3 PUSH2 0xEAD JUMP JUMPDEST PUSH2 0xE30 JUMP JUMPDEST SWAP2 POP DUP2 DUP2 DUP4 MSTORE PUSH1 0x20 DUP5 ADD SWAP4 POP PUSH1 0x20 DUP2 ADD SWAP1 POP DUP4 DUP6 PUSH1 0x20 DUP5 MUL DUP3 ADD GT ISZERO PUSH2 0x891 JUMPI PUSH1 0x0 DUP1 REVERT JUMPDEST PUSH1 0x0 JUMPDEST DUP4 DUP2 LT ISZERO PUSH2 0x8C1 JUMPI DUP2 PUSH2 0x8A7 DUP9 DUP3 PUSH2 0x99D JUMP JUMPDEST DUP5 MSTORE PUSH1 0x20 DUP5 ADD SWAP4 POP PUSH1 0x20 DUP4 ADD SWAP3 POP POP PUSH1 0x1 DUP2 ADD SWAP1 POP PUSH2 0x894 JUMP JUMPDEST POP POP POP POP SWAP3 SWAP2 POP POP JUMP JUMPDEST PUSH1 0x0 DUP3 PUSH1 0x1F DUP4 ADD SLT PUSH2 0x8DC JUMPI PUSH1 0x0 DUP1 REVERT JUMPDEST DUP2 CALLDATALOAD PUSH2 0x8EF PUSH2 0x8EA DUP3 PUSH2 0xED5 JUMP JUMPDEST PUSH2 0xE30 JUMP JUMPDEST SWAP2 POP DUP1 DUP3 MSTORE PUSH1 0x20 DUP4 ADD PUSH1 0x20 DUP4 ADD DUP6 DUP4 DUP4 ADD GT ISZERO PUSH2 0x90B JUMPI PUSH1 0x0 DUP1 REVERT JUMPDEST PUSH2 0x916 DUP4 DUP3 DUP5 PUSH2 0xFB8 JUMP JUMPDEST POP POP POP SWAP3 SWAP2 POP POP JUMP JUMPDEST PUSH1 0x0 DUP3 PUSH1 0x1F DUP4 ADD SLT PUSH2 0x930 JUMPI PUSH1 0x0 DUP1 REVERT JUMPDEST DUP2 CALLDATALOAD PUSH2 0x943 PUSH2 0x93E DUP3 PUSH2 0xF01 JUMP JUMPDEST PUSH2 0xE30 JUMP JUMPDEST SWAP2 POP DUP1 DUP3 MSTORE PUSH1 0x20 DUP4 ADD PUSH1 0x20 DUP4 ADD DUP6 DUP4 DUP4 ADD GT ISZERO PUSH2 0x95F JUMPI PUSH1 0x0 DUP1 REVERT JUMPDEST PUSH2 0x96A DUP4 DUP3 DUP5 PUSH2 0xFB8 JUMP JUMPDEST POP POP POP SWAP3 SWAP2 POP POP JUMP JUMPDEST PUSH1 0x0 DUP2 CALLDATALOAD SWAP1 POP PUSH2 0x982 DUP2 PUSH2 0x1022 JUMP JUMPDEST SWAP3 SWAP2 POP POP JUMP JUMPDEST PUSH1 0x0 DUP2 CALLDATALOAD SWAP1 POP PUSH2 0x997 DUP2 PUSH2 0x1039 JUMP JUMPDEST SWAP3 SWAP2 POP POP JUMP JUMPDEST PUSH1 0x0 DUP2 CALLDATALOAD SWAP1 POP PUSH2 0x9AC DUP2 PUSH2 0x1050 JUMP JUMPDEST SWAP3 SWAP2 POP POP JUMP JUMPDEST PUSH1 0x0 PUSH1 0x20 DUP3 DUP5 SUB SLT ISZERO PUSH2 0x9C4 JUMPI PUSH1 0x0 DUP1 REVERT JUMPDEST PUSH1 0x0 DUP3 ADD CALLDATALOAD PUSH8 0xFFFFFFFFFFFFFFFF DUP2 GT ISZERO PUSH2 0x9DE JUMPI PUSH1 0x0 DUP1 REVERT JUMPDEST PUSH2 0x9EA DUP5 DUP3 DUP6 ADD PUSH2 0x91F JUMP JUMPDEST SWAP2 POP POP SWAP3 SWAP2 POP POP JUMP JUMPDEST PUSH1 0x0 DUP1 PUSH1 0x40 DUP4 DUP6 SUB SLT ISZERO PUSH2 0xA06 JUMPI PUSH1 0x0 DUP1 REVERT JUMPDEST PUSH1 0x0 DUP4 ADD CALLDATALOAD PUSH8 0xFFFFFFFFFFFFFFFF DUP2 GT ISZERO PUSH2 0xA20 JUMPI PUSH1 0x0 DUP1 REVERT JUMPDEST PUSH2 0xA2C DUP6 DUP3 DUP7 ADD PUSH2 0x91F JUMP JUMPDEST SWAP3 POP POP PUSH1 0x20 DUP4 ADD CALLDATALOAD PUSH8 0xFFFFFFFFFFFFFFFF DUP2 GT ISZERO PUSH2 0xA49 JUMPI PUSH1 0x0 DUP1 REVERT JUMPDEST PUSH2 0xA55 DUP6 DUP3 DUP7 ADD PUSH2 0x91F JUMP JUMPDEST SWAP2 POP POP SWAP3 POP SWAP3 SWAP1 POP JUMP JUMPDEST PUSH1 0x0 DUP1 PUSH1 0x0 PUSH1 0x60 DUP5 DUP7 SUB SLT ISZERO PUSH2 0xA74 JUMPI PUSH1 0x0 DUP1 REVERT JUMPDEST PUSH1 0x0 DUP5 ADD CALLDATALOAD PUSH8 0xFFFFFFFFFFFFFFFF DUP2 GT ISZERO PUSH2 0xA8E JUMPI PUSH1 0x0 DUP1 REVERT JUMPDEST PUSH2 0xA9A DUP7 DUP3 DUP8 ADD PUSH2 0x91F JUMP JUMPDEST SWAP4 POP POP PUSH1 0x20 DUP5 ADD CALLDATALOAD PUSH8 0xFFFFFFFFFFFFFFFF DUP2 GT ISZERO PUSH2 0xAB7 JUMPI PUSH1 0x0 DUP1 REVERT JUMPDEST PUSH2 0xAC3 DUP7 DUP3 DUP8 ADD PUSH2 0x91F JUMP JUMPDEST SWAP3 POP POP PUSH1 0x40 PUSH2 0xAD4 DUP7 DUP3 DUP8 ADD PUSH2 0x73C JUMP JUMPDEST SWAP2 POP POP SWAP3 POP SWAP3 POP SWAP3 JUMP JUMPDEST PUSH1 0x0 DUP1 PUSH1 0x0 DUP1 PUSH1 0x80 DUP6 DUP8 SUB SLT ISZERO PUSH2 0xAF4 JUMPI PUSH1 0x0 DUP1 REVERT JUMPDEST PUSH1 0x0 DUP6 ADD CALLDATALOAD PUSH8 0xFFFFFFFFFFFFFFFF DUP2 GT ISZERO PUSH2 0xB0E JUMPI PUSH1 0x0 DUP1 REVERT JUMPDEST PUSH2 0xB1A DUP8 DUP3 DUP9 ADD PUSH2 0x91F JUMP JUMPDEST SWAP5 POP POP PUSH1 0x20 DUP6 ADD CALLDATALOAD PUSH8 0xFFFFFFFFFFFFFFFF DUP2 GT ISZERO PUSH2 0xB37 JUMPI PUSH1 0x0 DUP1 REVERT JUMPDEST PUSH2 0xB43 DUP8 DUP3 DUP9 ADD PUSH2 0x91F JUMP JUMPDEST SWAP4 POP POP PUSH1 0x40 PUSH2 0xB54 DUP8 DUP3 DUP9 ADD PUSH2 0x73C JUMP JUMPDEST SWAP3 POP POP PUSH1 0x60 PUSH2 0xB65 DUP8 DUP3 DUP9 ADD PUSH2 0x99D JUMP JUMPDEST SWAP2 POP POP SWAP3 SWAP6 SWAP2 SWAP5 POP SWAP3 POP JUMP JUMPDEST PUSH1 0x0 DUP1 PUSH1 0x0 DUP1 PUSH1 0x0 DUP1 PUSH1 0xC0 DUP8 DUP10 SUB SLT ISZERO PUSH2 0xB8A JUMPI PUSH1 0x0 DUP1 REVERT JUMPDEST PUSH1 0x0 DUP8 ADD CALLDATALOAD PUSH8 0xFFFFFFFFFFFFFFFF DUP2 GT ISZERO PUSH2 0xBA4 JUMPI PUSH1 0x0 DUP1 REVERT JUMPDEST PUSH2 0xBB0 DUP10 DUP3 DUP11 ADD PUSH2 0x91F JUMP JUMPDEST SWAP7 POP POP PUSH1 0x20 DUP8 ADD CALLDATALOAD PUSH8 0xFFFFFFFFFFFFFFFF DUP2 GT ISZERO PUSH2 0xBCD JUMPI PUSH1 0x0 DUP1 REVERT JUMPDEST PUSH2 0xBD9 DUP10 DUP3 DUP11 ADD PUSH2 0x91F JUMP JUMPDEST SWAP6 POP POP PUSH1 0x40 DUP8 ADD CALLDATALOAD PUSH8 0xFFFFFFFFFFFFFFFF DUP2 GT ISZERO PUSH2 0xBF6 JUMPI PUSH1 0x0 DUP1 REVERT JUMPDEST PUSH2 0xC02 DUP10 DUP3 DUP11 ADD PUSH2 0x7D4 JUMP JUMPDEST SWAP5 POP POP PUSH1 0x60 DUP8 ADD CALLDATALOAD PUSH8 0xFFFFFFFFFFFFFFFF DUP2 GT ISZERO PUSH2 0xC1F JUMPI PUSH1 0x0 DUP1 REVERT JUMPDEST PUSH2 0xC2B DUP10 DUP3 DUP11 ADD PUSH2 0x751 JUMP JUMPDEST SWAP4 POP POP PUSH1 0x80 DUP8 ADD CALLDATALOAD PUSH8 0xFFFFFFFFFFFFFFFF DUP2 GT ISZERO PUSH2 0xC48 JUMPI PUSH1 0x0 DUP1 REVERT JUMPDEST PUSH2 0xC54 DUP10 DUP3 DUP11 ADD PUSH2 0x848 JUMP JUMPDEST SWAP3 POP POP PUSH1 0xA0 PUSH2 0xC65 DUP10 DUP3 DUP11 ADD PUSH2 0x973 JUMP JUMPDEST SWAP2 POP POP SWAP3 SWAP6 POP SWAP3 SWAP6 POP SWAP3 SWAP6 JUMP JUMPDEST PUSH1 0x0 DUP1 PUSH1 0x0 PUSH1 0x60 DUP5 DUP7 SUB SLT ISZERO PUSH2 0xC87 JUMPI PUSH1 0x0 DUP1 REVERT JUMPDEST PUSH1 0x0 DUP5 ADD CALLDATALOAD PUSH8 0xFFFFFFFFFFFFFFFF DUP2 GT ISZERO PUSH2 0xCA1 JUMPI PUSH1 0x0 DUP1 REVERT JUMPDEST PUSH2 0xCAD DUP7 DUP3 DUP8 ADD PUSH2 0x91F JUMP JUMPDEST SWAP4 POP POP PUSH1 0x20 PUSH2 0xCBE DUP7 DUP3 DUP8 ADD PUSH2 0x988 JUMP JUMPDEST SWAP3 POP POP PUSH1 0x40 DUP5 ADD CALLDATALOAD PUSH8 0xFFFFFFFFFFFFFFFF DUP2 GT ISZERO PUSH2 0xCDB JUMPI PUSH1 0x0 DUP1 REVERT JUMPDEST PUSH2 0xCE7 DUP7 DUP3 DUP8 ADD PUSH2 0x91F JUMP JUMPDEST SWAP2 POP POP SWAP3 POP SWAP3 POP SWAP3 JUMP JUMPDEST PUSH1 0x0 PUSH2 0xCFC DUP3 PUSH2 0xF38 JUMP JUMPDEST PUSH2 0xD06 DUP2 DUP6 PUSH2 0xF43 JUMP JUMPDEST SWAP4 POP PUSH2 0xD16 DUP2 DUP6 PUSH1 0x20 DUP7 ADD PUSH2 0xFC7 JUMP JUMPDEST PUSH2 0xD1F DUP2 PUSH2 0xFFA JUMP JUMPDEST DUP5 ADD SWAP2 POP POP SWAP3 SWAP2 POP POP JUMP JUMPDEST PUSH1 0x0 PUSH2 0xD35 DUP3 PUSH2 0xF38 JUMP JUMPDEST PUSH2 0xD3F DUP2 DUP6 PUSH2 0xF54 JUMP JUMPDEST SWAP4 POP PUSH2 0xD4F DUP2 DUP6 PUSH1 0x20 DUP7 ADD PUSH2 0xFC7 JUMP JUMPDEST DUP1 DUP5 ADD SWAP2 POP POP SWAP3 SWAP2 POP POP JUMP JUMPDEST PUSH1 0x0 PUSH2 0xD66 DUP3 PUSH2 0xF2D JUMP JUMPDEST PUSH2 0xD70 DUP2 DUP6 PUSH2 0xF54 JUMP JUMPDEST SWAP4 POP PUSH2 0xD80 DUP2 DUP6 PUSH1 0x20 DUP7 ADD PUSH2 0xFC7 JUMP JUMPDEST DUP1 DUP5 ADD SWAP2 POP POP SWAP3 SWAP2 POP POP JUMP JUMPDEST PUSH2 0xD95 DUP2 PUSH2 0xF9B JUMP JUMPDEST DUP3 MSTORE POP POP JUMP JUMPDEST PUSH2 0xDA4 DUP2 PUSH2 0xFAB JUMP JUMPDEST DUP3 MSTORE POP POP JUMP JUMPDEST PUSH1 0x0 PUSH2 0xDB6 DUP3 DUP5 PUSH2 0xD5B JUMP JUMPDEST SWAP2 POP DUP2 SWAP1 POP SWAP3 SWAP2 POP POP JUMP JUMPDEST PUSH1 0x0 PUSH2 0xDCD DUP3 DUP5 PUSH2 0xD2A JUMP JUMPDEST SWAP2 POP DUP2 SWAP1 POP SWAP3 SWAP2 POP POP JUMP JUMPDEST PUSH1 0x0 PUSH1 0x20 DUP3 ADD SWAP1 POP DUP2 DUP2 SUB PUSH1 0x0 DUP4 ADD MSTORE PUSH2 0xDF2 DUP2 DUP5 PUSH2 0xCF1 JUMP JUMPDEST SWAP1 POP SWAP3 SWAP2 POP POP JUMP JUMPDEST PUSH1 0x0 PUSH1 0x20 DUP3 ADD SWAP1 POP PUSH2 0xE0F PUSH1 0x0 DUP4 ADD DUP5 PUSH2 0xD8C JUMP JUMPDEST SWAP3 SWAP2 POP POP JUMP JUMPDEST PUSH1 0x0 PUSH1 0x20 DUP3 ADD SWAP1 POP PUSH2 0xE2A PUSH1 0x0 DUP4 ADD DUP5 PUSH2 0xD9B JUMP JUMPDEST SWAP3 SWAP2 POP POP JUMP JUMPDEST PUSH1 0x0 PUSH1 0x40 MLOAD SWAP1 POP DUP2 DUP2 ADD DUP2 DUP2 LT PUSH8 0xFFFFFFFFFFFFFFFF DUP3 GT OR ISZERO PUSH2 0xE53 JUMPI PUSH1 0x0 DUP1 REVERT JUMPDEST DUP1 PUSH1 0x40 MSTORE POP SWAP2 SWAP1 POP JUMP JUMPDEST PUSH1 0x0 PUSH8 0xFFFFFFFFFFFFFFFF DUP3 GT ISZERO PUSH2 0xE74 JUMPI PUSH1 0x0 DUP1 REVERT JUMPDEST PUSH1 0x20 DUP3 MUL SWAP1 POP PUSH1 0x20 DUP2 ADD SWAP1 POP SWAP2 SWAP1 POP JUMP JUMPDEST PUSH1 0x0 PUSH8 0xFFFFFFFFFFFFFFFF DUP3 GT ISZERO PUSH2 0xE9C JUMPI PUSH1 0x0 DUP1 REVERT JUMPDEST PUSH1 0x20 DUP3 MUL SWAP1 POP PUSH1 0x20 DUP2 ADD SWAP1 POP SWAP2 SWAP1 POP JUMP JUMPDEST PUSH1 0x0 PUSH8 0xFFFFFFFFFFFFFFFF DUP3 GT ISZERO PUSH2 0xEC4 JUMPI PUSH1 0x0 DUP1 REVERT JUMPDEST PUSH1 0x20 DUP3 MUL SWAP1 POP PUSH1 0x20 DUP2 ADD SWAP1 POP SWAP2 SWAP1 POP JUMP JUMPDEST PUSH1 0x0 PUSH8 0xFFFFFFFFFFFFFFFF DUP3 GT ISZERO PUSH2 0xEEC JUMPI PUSH1 0x0 DUP1 REVERT JUMPDEST PUSH1 0x1F NOT PUSH1 0x1F DUP4 ADD AND SWAP1 POP PUSH1 0x20 DUP2 ADD SWAP1 POP SWAP2 SWAP1 POP JUMP JUMPDEST PUSH1 0x0 PUSH8 0xFFFFFFFFFFFFFFFF DUP3 GT ISZERO PUSH2 0xF18 JUMPI PUSH1 0x0 DUP1 REVERT JUMPDEST PUSH1 0x1F NOT PUSH1 0x1F DUP4 ADD AND SWAP1 POP PUSH1 0x20 DUP2 ADD SWAP1 POP SWAP2 SWAP1 POP JUMP JUMPDEST PUSH1 0x0 DUP2 MLOAD SWAP1 POP SWAP2 SWAP1 POP JUMP JUMPDEST PUSH1 0x0 DUP2 MLOAD SWAP1 POP SWAP2 SWAP1 POP JUMP JUMPDEST PUSH1 0x0 DUP3 DUP3 MSTORE PUSH1 0x20 DUP3 ADD SWAP1 POP SWAP3 SWAP2 POP POP JUMP JUMPDEST PUSH1 0x0 DUP2 SWAP1 POP SWAP3 SWAP2 POP POP JUMP JUMPDEST PUSH1 0x0 PUSH2 0xF6A DUP3 PUSH2 0xF71 JUMP JUMPDEST SWAP1 POP SWAP2 SWAP1 POP JUMP JUMPDEST PUSH1 0x0 PUSH20 0xFFFFFFFFFFFFFFFFFFFFFFFFFFFFFFFFFFFFFFFF DUP3 AND SWAP1 POP SWAP2 SWAP1 POP JUMP JUMPDEST PUSH1 0x0 DUP2 SWAP1 POP SWAP2 SWAP1 POP JUMP JUMPDEST PUSH1 0x0 PUSH4 0xFFFFFFFF DUP3 AND SWAP1 POP SWAP2 SWAP1 POP JUMP JUMPDEST PUSH1 0x0 PUSH1 0xFF DUP3 AND SWAP1 POP SWAP2 SWAP1 POP JUMP JUMPDEST DUP3 DUP2 DUP4 CALLDATACOPY PUSH1 0x0 DUP4 DUP4 ADD MSTORE POP POP POP JUMP JUMPDEST PUSH1 0x0 JUMPDEST DUP4 DUP2 LT ISZERO PUSH2 0xFE5 JUMPI DUP1 DUP3 ADD MLOAD DUP2 DUP5 ADD MSTORE PUSH1 0x20 DUP2 ADD SWAP1 POP PUSH2 0xFCA JUMP JUMPDEST DUP4 DUP2 GT ISZERO PUSH2 0xFF4 JUMPI PUSH1 0x0 DUP5 DUP5 ADD MSTORE JUMPDEST POP POP POP POP JUMP JUMPDEST PUSH1 0x0 PUSH1 0x1F NOT PUSH1 0x1F DUP4 ADD AND SWAP1 POP SWAP2 SWAP1 POP JUMP JUMPDEST PUSH2 0x1014 DUP2 PUSH2 0xF5F JUMP JUMPDEST DUP2 EQ PUSH2 0x101F JUMPI PUSH1 0x0 DUP1 REVERT JUMPDEST POP JUMP JUMPDEST PUSH2 0x102B DUP2 PUSH2 0xF91 JUMP JUMPDEST DUP2 EQ PUSH2 0x1036 JUMPI PUSH1 0x0 DUP1 REVERT JUMPDEST POP JUMP JUMPDEST PUSH2 0x1042 DUP2 PUSH2 0xF9B JUMP JUMPDEST DUP2 EQ PUSH2 0x104D JUMPI PUSH1 0x0 DUP1 REVERT JUMPDEST POP JUMP JUMPDEST PUSH2 0x1059 DUP2 PUSH2 0xFAB JUMP JUMPDEST DUP2 EQ PUSH2 0x1064 JUMPI PUSH1 0x0 DUP1 REVERT JUMPDEST POP JUMP INVALID LOG3 PUSH6 0x627A7A723158 KECCAK256 LOG1 CREATE2 0x2A 0xCD SWAP12 PUSH20 0x6BEE16CFEF84A753BE7342E4B30FCF1D642E0796 DUP13 PUSH19 0x90F004E96C6578706572696D656E74616CF564 PUSH20 0x6F6C634300051100400000000000000000000000 "
				},
				"gasEstimates": {
					"creation": {
						"codeDepositCost": "853200",
						"executionCost": "890",
						"totalCost": "854090"
					},
					"external": {
						"deleteVariable(string,string)": "infinite",
						"getAccess(string,string,address)": "infinite",
						"getVariableName(string)": "infinite",
						"getVariableValue(string)": "infinite",
						"setVariableName(string,string)": "infinite",
						"updateMatrix(string,string,address,uint8)": "infinite",
						"updateValue(string,uint32,string)": "infinite",
						"uploadMatrix(string,string,string[],address[],uint8[],uint256)": "infinite"
					}
				},
				"methodIdentifiers": {
					"deleteVariable(string,string)": "26e1a9e7",
					"getAccess(string,string,address)": "21d3473b",
					"getVariableName(string)": "23eab7ff",
					"getVariableValue(string)": "6877473e",
					"setVariableName(string,string)": "34a12cf8",
					"updateMatrix(string,string,address,uint8)": "d6dd2a2b",
					"updateValue(string,uint32,string)": "6cb1f394",
					"uploadMatrix(string,string,string[],address[],uint8[],uint256)": "bd289582"
				}
			},
			"storageLayout": {
				"storage": [
					{
						"astId": 17,
						"contract": "Access_Matrix.sol:Access_matrix",
						"label": "variables",
						"offset": 0,
						"slot": "0",
						"type": "t_mapping(t_string_memory,t_struct(Variable)13_storage)"
					}
				],
				"types": {
					"t_address": {
						"encoding": "inplace",
						"label": "address",
						"numberOfBytes": "20"
					},
					"t_mapping(t_address,t_uint8)": {
						"encoding": "mapping",
						"key": "t_address",
						"label": "mapping(address => uint8)",
						"numberOfBytes": "32",
						"value": "t_uint8"
					},
					"t_mapping(t_string_memory,t_mapping(t_address,t_uint8))": {
						"encoding": "mapping",
						"key": "t_string_memory",
						"label": "mapping(string => mapping(address => uint8))",
						"numberOfBytes": "32",
						"value": "t_mapping(t_address,t_uint8)"
					},
					"t_mapping(t_string_memory,t_struct(Variable)13_storage)": {
						"encoding": "mapping",
						"key": "t_string_memory",
						"label": "mapping(string => struct Access_matrix.Variable)",
						"numberOfBytes": "32",
						"value": "t_struct(Variable)13_storage"
					},
					"t_string_memory": {
						"encoding": "bytes",
						"label": "string",
						"numberOfBytes": "32"
					},
					"t_string_storage": {
						"encoding": "bytes",
						"label": "string",
						"numberOfBytes": "32"
					},
					"t_struct(Variable)13_storage": {
						"encoding": "inplace",
						"label": "struct Access_matrix.Variable",
						"members": [
							{
								"astId": 8,
								"contract": "Access_Matrix.sol:Access_matrix",
								"label": "matrix",
								"offset": 0,
								"slot": "0",
								"type": "t_mapping(t_string_memory,t_mapping(t_address,t_uint8))"
							},
							{
								"astId": 10,
								"contract": "Access_Matrix.sol:Access_matrix",
								"label": "value",
								"offset": 0,
								"slot": "1",
								"type": "t_uint32"
							},
							{
								"astId": 12,
								"contract": "Access_Matrix.sol:Access_matrix",
								"label": "name",
								"offset": 0,
								"slot": "2",
								"type": "t_string_storage"
							}
						],
						"numberOfBytes": "96"
					},
					"t_uint32": {
						"encoding": "inplace",
						"label": "uint32",
						"numberOfBytes": "4"
					},
					"t_uint8": {
						"encoding": "inplace",
						"label": "uint8",
						"numberOfBytes": "1"
					}
				}
			},
			"userdoc": {
				"methods": {}
			}
		}
	}
}