{
	"AdminRoleManager.sol": {
		"AdminRoleManager": {
			"abi": [
				{
					"inputs": [],
					"payable": false,
					"stateMutability": "nonpayable",
					"type": "constructor"
				},
				{
					"constant": false,
					"inputs": [
						{
							"internalType": "address",
							"name": "add",
							"type": "address"
						},
						{
							"internalType": "string",
							"name": "newRole",
							"type": "string"
						}
					],
					"name": "AddElemRole",
					"outputs": [],
					"payable": false,
					"stateMutability": "nonpayable",
					"type": "function"
				},
				{
					"constant": false,
					"inputs": [
						{
							"internalType": "address",
							"name": "add",
							"type": "address"
						},
						{
							"internalType": "uint256",
							"name": "i",
							"type": "uint256"
						}
					],
					"name": "RemoveElemRole",
					"outputs": [],
					"payable": false,
					"stateMutability": "nonpayable",
					"type": "function"
				},
				{
					"constant": true,
					"inputs": [
						{
							"internalType": "address",
							"name": "",
							"type": "address"
						}
					],
					"name": "Roles",
					"outputs": [
						{
							"internalType": "string",
							"name": "name",
							"type": "string"
						},
						{
							"internalType": "bool",
							"name": "isRole",
							"type": "bool"
						},
						{
							"internalType": "bool",
							"name": "isAdmin",
							"type": "bool"
						}
					],
					"payable": false,
					"stateMutability": "view",
					"type": "function"
				},
				{
					"constant": true,
					"inputs": [
						{
							"internalType": "string",
							"name": "s1",
							"type": "string"
						},
						{
							"internalType": "string",
							"name": "s2",
							"type": "string"
						}
					],
					"name": "compareStringsbyBytes",
					"outputs": [
						{
							"internalType": "bool",
							"name": "",
							"type": "bool"
						}
					],
					"payable": false,
					"stateMutability": "view",
					"type": "function"
				},
				{
					"constant": true,
					"inputs": [],
					"name": "getAccountRoles",
					"outputs": [
						{
							"internalType": "string[]",
							"name": "list",
							"type": "string[]"
						}
					],
					"payable": false,
					"stateMutability": "view",
					"type": "function"
				},
				{
					"constant": true,
					"inputs": [
						{
							"internalType": "address",
							"name": "add",
							"type": "address"
						}
					],
					"name": "getElemRoles",
					"outputs": [
						{
							"internalType": "string[]",
							"name": "list",
							"type": "string[]"
						}
					],
					"payable": false,
					"stateMutability": "view",
					"type": "function"
				},
				{
					"constant": true,
					"inputs": [
						{
							"internalType": "address",
							"name": "add",
							"type": "address"
						}
					],
					"name": "getName",
					"outputs": [
						{
							"internalType": "string",
							"name": "aze",
							"type": "string"
						}
					],
					"payable": false,
					"stateMutability": "view",
					"type": "function"
				},
				{
					"constant": true,
					"inputs": [],
					"name": "getRoleCount",
					"outputs": [
						{
							"internalType": "uint256",
							"name": "RoleCount",
							"type": "uint256"
						}
					],
					"payable": false,
					"stateMutability": "view",
					"type": "function"
				},
				{
					"constant": true,
					"inputs": [],
					"name": "getRoles",
					"outputs": [
						{
							"internalType": "string[]",
							"name": "list",
							"type": "string[]"
						}
					],
					"payable": false,
					"stateMutability": "view",
					"type": "function"
				},
				{
					"constant": true,
					"inputs": [],
					"name": "imRole",
					"outputs": [
						{
							"internalType": "string[]",
							"name": "role",
							"type": "string[]"
						}
					],
					"payable": false,
					"stateMutability": "view",
					"type": "function"
				},
				{
					"constant": false,
					"inputs": [
						{
							"internalType": "address[]",
							"name": "add",
							"type": "address[]"
						},
						{
							"internalType": "string[]",
							"name": "roles",
							"type": "string[]"
						}
					],
					"name": "importAccount",
					"outputs": [],
					"payable": false,
					"stateMutability": "nonpayable",
					"type": "function"
				},
				{
					"constant": true,
					"inputs": [
						{
							"internalType": "address",
							"name": "RoleAddress",
							"type": "address"
						}
					],
					"name": "isRole",
					"outputs": [
						{
							"internalType": "bool",
							"name": "isIndeed",
							"type": "bool"
						}
					],
					"payable": false,
					"stateMutability": "view",
					"type": "function"
				},
				{
					"constant": false,
					"inputs": [
						{
							"internalType": "address",
							"name": "RoleAddress",
							"type": "address"
						},
						{
							"internalType": "string",
							"name": "name",
							"type": "string"
						},
						{
							"internalType": "bool",
							"name": "isAdmin",
							"type": "bool"
						}
					],
					"name": "newRole",
					"outputs": [
						{
							"internalType": "string",
							"name": "rowNumber",
							"type": "string"
						}
					],
					"payable": false,
					"stateMutability": "nonpayable",
					"type": "function"
				},
				{
					"constant": false,
					"inputs": [
						{
							"internalType": "address",
							"name": "RoleAddress",
							"type": "address"
						},
						{
							"internalType": "string",
							"name": "name",
							"type": "string"
						},
						{
							"internalType": "bool",
							"name": "Admin",
							"type": "bool"
						}
					],
					"name": "updateRole",
					"outputs": [
						{
							"internalType": "bool",
							"name": "success",
							"type": "bool"
						}
					],
					"payable": false,
					"stateMutability": "nonpayable",
					"type": "function"
				}
			],
			"devdoc": {
				"methods": {}
			},
			"evm": {
				"assembly": "    /* \"AdminRoleManager.sol\":60:6850  contract AdminRoleManager {... */\n  mstore(0x40, 0x80)\n    /* \"AdminRoleManager.sol\":315:1221  constructor() public {... */\n  callvalue\n    /* \"--CODEGEN--\":8:17   */\n  dup1\n    /* \"--CODEGEN--\":5:7   */\n  iszero\n  tag_1\n  jumpi\n    /* \"--CODEGEN--\":30:31   */\n  0x00\n    /* \"--CODEGEN--\":27:28   */\n  dup1\n    /* \"--CODEGEN--\":20:32   */\n  revert\n    /* \"--CODEGEN--\":5:7   */\ntag_1:\n    /* \"AdminRoleManager.sol\":315:1221  constructor() public {... */\n  pop\n    /* \"AdminRoleManager.sol\":346:364  address modAddress */\n  0x00\n    /* \"AdminRoleManager.sol\":367:409  0x4936762f3C1B553748851900E60d9DBbcF278d1c */\n  0x4936762f3c1b553748851900e60d9dbbcf278d1c\n    /* \"AdminRoleManager.sol\":346:409  address modAddress = 0x4936762f3C1B553748851900E60d9DBbcF278d1c */\n  swap1\n  pop\n    /* \"AdminRoleManager.sol\":419:453  newRole(modAddress, \"Alice\", true) */\n  tag_4\n    /* \"AdminRoleManager.sol\":427:437  modAddress */\n  dup2\n    /* \"AdminRoleManager.sol\":419:453  newRole(modAddress, \"Alice\", true) */\n  mload(0x40)\n  dup1\n  0x40\n  add\n  0x40\n  mstore\n  dup1\n  0x05\n  dup2\n  mstore\n  0x20\n  add\n  0x416c696365000000000000000000000000000000000000000000000000000000\n  dup2\n  mstore\n  pop\n    /* \"AdminRoleManager.sol\":448:452  true */\n  0x01\n    /* \"AdminRoleManager.sol\":419:426  newRole */\n  shl(0x20, tag_5)\n    /* \"AdminRoleManager.sol\":419:453  newRole(modAddress, \"Alice\", true) */\n  0x20\n  shr\n  jump\t// in\ntag_4:\n  pop\n    /* \"AdminRoleManager.sol\":463:497  AddElemRole(modAddress, \"Florist\") */\n  tag_6\n    /* \"AdminRoleManager.sol\":475:485  modAddress */\n  dup2\n    /* \"AdminRoleManager.sol\":463:497  AddElemRole(modAddress, \"Florist\") */\n  mload(0x40)\n  dup1\n  0x40\n  add\n  0x40\n  mstore\n  dup1\n  0x07\n  dup2\n  mstore\n  0x20\n  add\n  0x466c6f7269737400000000000000000000000000000000000000000000000000\n  dup2\n  mstore\n  pop\n    /* \"AdminRoleManager.sol\":463:474  AddElemRole */\n  shl(0x20, tag_7)\n    /* \"AdminRoleManager.sol\":463:497  AddElemRole(modAddress, \"Florist\") */\n  0x20\n  shr\n  jump\t// in\ntag_6:\n    /* \"AdminRoleManager.sol\":507:541  AddElemRole(modAddress, \"Tourist\") */\n  tag_8\n    /* \"AdminRoleManager.sol\":519:529  modAddress */\n  dup2\n    /* \"AdminRoleManager.sol\":507:541  AddElemRole(modAddress, \"Tourist\") */\n  mload(0x40)\n  dup1\n  0x40\n  add\n  0x40\n  mstore\n  dup1\n  0x07\n  dup2\n  mstore\n  0x20\n  add\n  0x546f757269737400000000000000000000000000000000000000000000000000\n  dup2\n  mstore\n  pop\n    /* \"AdminRoleManager.sol\":507:518  AddElemRole */\n  shl(0x20, tag_7)\n    /* \"AdminRoleManager.sol\":507:541  AddElemRole(modAddress, \"Tourist\") */\n  0x20\n  shr\n  jump\t// in\ntag_8:\n    /* \"AdminRoleManager.sol\":552:572  address peonAddress1 */\n  0x00\n    /* \"AdminRoleManager.sol\":575:617  0x1ED034135e576A6c1bf3ee8E05aaDEEF24D4A819 */\n  0x1ed034135e576a6c1bf3ee8e05aadeef24d4a819\n    /* \"AdminRoleManager.sol\":552:617  address peonAddress1 = 0x1ED034135e576A6c1bf3ee8E05aaDEEF24D4A819 */\n  swap1\n  pop\n    /* \"AdminRoleManager.sol\":627:662  newRole(peonAddress1, \"Bob\", false) */\n  tag_9\n    /* \"AdminRoleManager.sol\":635:647  peonAddress1 */\n  dup2\n    /* \"AdminRoleManager.sol\":627:662  newRole(peonAddress1, \"Bob\", false) */\n  mload(0x40)\n  dup1\n  0x40\n  add\n  0x40\n  mstore\n  dup1\n  0x03\n  dup2\n  mstore\n  0x20\n  add\n  0x426f620000000000000000000000000000000000000000000000000000000000\n  dup2\n  mstore\n  pop\n    /* \"AdminRoleManager.sol\":656:661  false */\n  0x00\n    /* \"AdminRoleManager.sol\":627:634  newRole */\n  shl(0x20, tag_5)\n    /* \"AdminRoleManager.sol\":627:662  newRole(peonAddress1, \"Bob\", false) */\n  0x20\n  shr\n  jump\t// in\ntag_9:\n  pop\n    /* \"AdminRoleManager.sol\":672:707  AddElemRole(peonAddress1, \"Driver\") */\n  tag_10\n    /* \"AdminRoleManager.sol\":684:696  peonAddress1 */\n  dup2\n    /* \"AdminRoleManager.sol\":672:707  AddElemRole(peonAddress1, \"Driver\") */\n  mload(0x40)\n  dup1\n  0x40\n  add\n  0x40\n  mstore\n  dup1\n  0x06\n  dup2\n  mstore\n  0x20\n  add\n  0x4472697665720000000000000000000000000000000000000000000000000000\n  dup2\n  mstore\n  pop\n    /* \"AdminRoleManager.sol\":672:683  AddElemRole */\n  shl(0x20, tag_7)\n    /* \"AdminRoleManager.sol\":672:707  AddElemRole(peonAddress1, \"Driver\") */\n  0x20\n  shr\n  jump\t// in\ntag_10:\n    /* \"AdminRoleManager.sol\":717:760  AddElemRole(peonAddress1, \"TouristOfficer\") */\n  tag_11\n    /* \"AdminRoleManager.sol\":729:741  peonAddress1 */\n  dup2\n    /* \"AdminRoleManager.sol\":717:760  AddElemRole(peonAddress1, \"TouristOfficer\") */\n  mload(0x40)\n  dup1\n  0x40\n  add\n  0x40\n  mstore\n  dup1\n  0x0e\n  dup2\n  mstore\n  0x20\n  add\n  0x546f75726973744f666669636572000000000000000000000000000000000000\n  dup2\n  mstore\n  pop\n    /* \"AdminRoleManager.sol\":717:728  AddElemRole */\n  shl(0x20, tag_7)\n    /* \"AdminRoleManager.sol\":717:760  AddElemRole(peonAddress1, \"TouristOfficer\") */\n  0x20\n  shr\n  jump\t// in\ntag_11:\n    /* \"AdminRoleManager.sol\":771:790  address modAddress1 */\n  0x00\n    /* \"AdminRoleManager.sol\":793:835  0x5AfBDd0e5DE3315a96504C06ac49bF34B5ECACB5 */\n  0x5afbdd0e5de3315a96504c06ac49bf34b5ecacb5\n    /* \"AdminRoleManager.sol\":771:835  address modAddress1 = 0x5AfBDd0e5DE3315a96504C06ac49bF34B5ECACB5 */\n  swap1\n  pop\n    /* \"AdminRoleManager.sol\":845:880  newRole(modAddress1, \"Carol\", true) */\n  tag_12\n    /* \"AdminRoleManager.sol\":853:864  modAddress1 */\n  dup2\n    /* \"AdminRoleManager.sol\":845:880  newRole(modAddress1, \"Carol\", true) */\n  mload(0x40)\n  dup1\n  0x40\n  add\n  0x40\n  mstore\n  dup1\n  0x05\n  dup2\n  mstore\n  0x20\n  add\n  0x4361726f6c000000000000000000000000000000000000000000000000000000\n  dup2\n  mstore\n  pop\n    /* \"AdminRoleManager.sol\":875:879  true */\n  0x01\n    /* \"AdminRoleManager.sol\":845:852  newRole */\n  shl(0x20, tag_5)\n    /* \"AdminRoleManager.sol\":845:880  newRole(modAddress1, \"Carol\", true) */\n  0x20\n  shr\n  jump\t// in\ntag_12:\n  pop\n    /* \"AdminRoleManager.sol\":890:926  AddElemRole(modAddress1, \"Customer\") */\n  tag_13\n    /* \"AdminRoleManager.sol\":902:913  modAddress1 */\n  dup2\n    /* \"AdminRoleManager.sol\":890:926  AddElemRole(modAddress1, \"Customer\") */\n  mload(0x40)\n  dup1\n  0x40\n  add\n  0x40\n  mstore\n  dup1\n  0x08\n  dup2\n  mstore\n  0x20\n  add\n  0x437573746f6d6572000000000000000000000000000000000000000000000000\n  dup2\n  mstore\n  pop\n    /* \"AdminRoleManager.sol\":890:901  AddElemRole */\n  shl(0x20, tag_7)\n    /* \"AdminRoleManager.sol\":890:926  AddElemRole(modAddress1, \"Customer\") */\n  0x20\n  shr\n  jump\t// in\ntag_13:\n    /* \"AdminRoleManager.sol\":936:974  AddElemRole(modAddress1, \"Restaurant\") */\n  tag_14\n    /* \"AdminRoleManager.sol\":948:959  modAddress1 */\n  dup2\n    /* \"AdminRoleManager.sol\":936:974  AddElemRole(modAddress1, \"Restaurant\") */\n  mload(0x40)\n  dup1\n  0x40\n  add\n  0x40\n  mstore\n  dup1\n  0x0a\n  dup2\n  mstore\n  0x20\n  add\n  0x52657374617572616e7400000000000000000000000000000000000000000000\n  dup2\n  mstore\n  pop\n    /* \"AdminRoleManager.sol\":936:947  AddElemRole */\n  shl(0x20, tag_7)\n    /* \"AdminRoleManager.sol\":936:974  AddElemRole(modAddress1, \"Restaurant\") */\n  0x20\n  shr\n  jump\t// in\ntag_14:\n    /* \"AdminRoleManager.sol\":985:1004  address modAddress2 */\n  0x00\n    /* \"AdminRoleManager.sol\":1007:1049  0xC9f167B5056B03eB29963aB8e6F78bB12Cf5BA17 */\n  0xc9f167b5056b03eb29963ab8e6f78bb12cf5ba17\n    /* \"AdminRoleManager.sol\":985:1049  address modAddress2 = 0xC9f167B5056B03eB29963aB8e6F78bB12Cf5BA17 */\n  swap1\n  pop\n    /* \"AdminRoleManager.sol\":1059:1093  newRole(modAddress2, \"Dave\", true) */\n  tag_15\n    /* \"AdminRoleManager.sol\":1067:1078  modAddress2 */\n  dup2\n    /* \"AdminRoleManager.sol\":1059:1093  newRole(modAddress2, \"Dave\", true) */\n  mload(0x40)\n  dup1\n  0x40\n  add\n  0x40\n  mstore\n  dup1\n  0x04\n  dup2\n  mstore\n  0x20\n  add\n  0x4461766500000000000000000000000000000000000000000000000000000000\n  dup2\n  mstore\n  pop\n    /* \"AdminRoleManager.sol\":1088:1092  true */\n  0x01\n    /* \"AdminRoleManager.sol\":1059:1066  newRole */\n  shl(0x20, tag_5)\n    /* \"AdminRoleManager.sol\":1059:1093  newRole(modAddress2, \"Dave\", true) */\n  0x20\n  shr\n  jump\t// in\ntag_15:\n  pop\n    /* \"AdminRoleManager.sol\":1104:1123  address modAddress3 */\n  0x00\n    /* \"AdminRoleManager.sol\":1126:1168  0x2a706c6006e33610D92ea2a440Cc99d5b58353E1 */\n  0x2a706c6006e33610d92ea2a440cc99d5b58353e1\n    /* \"AdminRoleManager.sol\":1104:1168  address modAddress3 = 0x2a706c6006e33610D92ea2a440Cc99d5b58353E1 */\n  swap1\n  pop\n    /* \"AdminRoleManager.sol\":1178:1213  newRole(modAddress3, \"Trent\", true) */\n  tag_16\n    /* \"AdminRoleManager.sol\":1186:1197  modAddress3 */\n  dup2\n    /* \"AdminRoleManager.sol\":1178:1213  newRole(modAddress3, \"Trent\", true) */\n  mload(0x40)\n  dup1\n  0x40\n  add\n  0x40\n  mstore\n  dup1\n  0x05\n  dup2\n  mstore\n  0x20\n  add\n  0x5472656e74000000000000000000000000000000000000000000000000000000\n  dup2\n  mstore\n  pop\n    /* \"AdminRoleManager.sol\":1208:1212  true */\n  0x01\n    /* \"AdminRoleManager.sol\":1178:1185  newRole */\n  shl(0x20, tag_5)\n    /* \"AdminRoleManager.sol\":1178:1213  newRole(modAddress3, \"Trent\", true) */\n  0x20\n  shr\n  jump\t// in\ntag_16:\n  pop\n    /* \"AdminRoleManager.sol\":315:1221  constructor() public {... */\n  pop\n  pop\n  pop\n  pop\n  pop\n    /* \"AdminRoleManager.sol\":60:6850  contract AdminRoleManager {... */\n  jump(tag_17)\n    /* \"AdminRoleManager.sol\":6123:6553  function newRole(... */\ntag_5:\n    /* \"AdminRoleManager.sol\":6241:6264  string memory rowNumber */\n  0x60\n    /* \"AdminRoleManager.sol\":6280:6299  isRole(RoleAddress) */\n  tag_19\n    /* \"AdminRoleManager.sol\":6287:6298  RoleAddress */\n  dup5\n    /* \"AdminRoleManager.sol\":6280:6286  isRole */\n  shl(0x20, tag_20)\n    /* \"AdminRoleManager.sol\":6280:6299  isRole(RoleAddress) */\n  0x20\n  shr\n  jump\t// in\ntag_19:\n    /* \"AdminRoleManager.sol\":6276:6309  if (isRole(RoleAddress)) revert() */\n  iszero\n  tag_21\n  jumpi\n    /* \"AdminRoleManager.sol\":6301:6309  revert() */\n  0x00\n  dup1\n  revert\n    /* \"AdminRoleManager.sol\":6276:6309  if (isRole(RoleAddress)) revert() */\ntag_21:\n    /* \"AdminRoleManager.sol\":6319:6342  string[] memory tmpList */\n  0x60\n    /* \"AdminRoleManager.sol\":6358:6359  0 */\n  0x00\n    /* \"AdminRoleManager.sol\":6345:6360  new string[](0) */\n  mload(0x40)\n  swap1\n  dup1\n  dup3\n  mstore\n  dup1\n  0x20\n  mul\n  0x20\n  add\n  dup3\n  add\n  0x40\n  mstore\n  dup1\n  iszero\n  tag_22\n  jumpi\n  dup2\n  0x20\n  add\ntag_23:\n  0x60\n  dup2\n  mstore\n  0x20\n  add\n  swap1\n  0x01\n  swap1\n  sub\n  swap1\n  dup2\n  tag_23\n  jumpi\n  swap1\n  pop\ntag_22:\n  pop\n    /* \"AdminRoleManager.sol\":6319:6360  string[] memory tmpList = new string[](0) */\n  swap1\n  pop\n    /* \"AdminRoleManager.sol\":6370:6392  Role memory tempStruct */\n  tag_24\n  tag_25\n  jump\t// in\ntag_24:\n    /* \"AdminRoleManager.sol\":6395:6429  Role(name, true, isAdmin, tmpList) */\n  mload(0x40)\n  dup1\n  0x80\n  add\n  0x40\n  mstore\n  dup1\n    /* \"AdminRoleManager.sol\":6400:6404  name */\n  dup7\n    /* \"AdminRoleManager.sol\":6395:6429  Role(name, true, isAdmin, tmpList) */\n  dup2\n  mstore\n  0x20\n  add\n    /* \"AdminRoleManager.sol\":6406:6410  true */\n  0x01\n    /* \"AdminRoleManager.sol\":6395:6429  Role(name, true, isAdmin, tmpList) */\n  iszero\n  iszero\n  dup2\n  mstore\n  0x20\n  add\n    /* \"AdminRoleManager.sol\":6412:6419  isAdmin */\n  dup6\n    /* \"AdminRoleManager.sol\":6395:6429  Role(name, true, isAdmin, tmpList) */\n  iszero\n  iszero\n  dup2\n  mstore\n  0x20\n  add\n    /* \"AdminRoleManager.sol\":6421:6428  tmpList */\n  dup4\n    /* \"AdminRoleManager.sol\":6395:6429  Role(name, true, isAdmin, tmpList) */\n  dup2\n  mstore\n  pop\n    /* \"AdminRoleManager.sol\":6370:6429  Role memory tempStruct = Role(name, true, isAdmin, tmpList) */\n  swap1\n  pop\n    /* \"AdminRoleManager.sol\":6460:6470  tempStruct */\n  dup1\n    /* \"AdminRoleManager.sol\":6439:6444  Roles */\n  0x00\n    /* \"AdminRoleManager.sol\":6439:6457  Roles[RoleAddress] */\n  dup1\n    /* \"AdminRoleManager.sol\":6445:6456  RoleAddress */\n  dup9\n    /* \"AdminRoleManager.sol\":6439:6457  Roles[RoleAddress] */\n  0xffffffffffffffffffffffffffffffffffffffff\n  and\n  0xffffffffffffffffffffffffffffffffffffffff\n  and\n  dup2\n  mstore\n  0x20\n  add\n  swap1\n  dup2\n  mstore\n  0x20\n  add\n  0x00\n  keccak256\n    /* \"AdminRoleManager.sol\":6439:6470  Roles[RoleAddress] = tempStruct */\n  0x00\n  dup3\n  add\n  mload\n  dup2\n  0x00\n  add\n  swap1\n  dup1\n  mload\n  swap1\n  0x20\n  add\n  swap1\n  tag_26\n  swap3\n  swap2\n  swap1\n  tag_27\n  jump\t// in\ntag_26:\n  pop\n  0x20\n  dup3\n  add\n  mload\n  dup2\n  0x01\n  add\n  exp(0x0100, 0x00)\n  dup2\n  sload\n  dup2\n  0xff\n  mul\n  not\n  and\n  swap1\n  dup4\n  iszero\n  iszero\n  mul\n  or\n  swap1\n  sstore\n  pop\n  0x40\n  dup3\n  add\n  mload\n  dup2\n  0x01\n  add\n  exp(0x0100, 0x01)\n  dup2\n  sload\n  dup2\n  0xff\n  mul\n  not\n  and\n  swap1\n  dup4\n  iszero\n  iszero\n  mul\n  or\n  swap1\n  sstore\n  pop\n  0x60\n  dup3\n  add\n  mload\n  dup2\n  0x02\n  add\n  swap1\n  dup1\n  mload\n  swap1\n  0x20\n  add\n  swap1\n  tag_28\n  swap3\n  swap2\n  swap1\n  tag_29\n  jump\t// in\ntag_28:\n  pop\n  swap1\n  pop\n  pop\n    /* \"AdminRoleManager.sol\":6480:6488  roleList */\n  0x01\n    /* \"AdminRoleManager.sol\":6494:6505  RoleAddress */\n  dup7\n    /* \"AdminRoleManager.sol\":6480:6506  roleList.push(RoleAddress) */\n  swap1\n  dup1\n    /* \"--CODEGEN--\":39:40   */\n  0x01\n    /* \"--CODEGEN--\":33:36   */\n  dup2\n    /* \"--CODEGEN--\":27:37   */\n  sload\n    /* \"--CODEGEN--\":23:41   */\n  add\n    /* \"--CODEGEN--\":57:67   */\n  dup1\n    /* \"--CODEGEN--\":52:55   */\n  dup3\n    /* \"--CODEGEN--\":45:68   */\n  sstore\n    /* \"--CODEGEN--\":79:89   */\n  dup1\n    /* \"--CODEGEN--\":72:89   */\n  swap2\n  pop\n    /* \"--CODEGEN--\":0:93   */\n  pop\n    /* \"AdminRoleManager.sol\":6480:6506  roleList.push(RoleAddress) */\n  swap1\n  0x01\n  dup3\n  sub\n  swap1\n  0x00\n  mstore\n  keccak256(0x00, 0x20)\n  add\n  0x00\n  swap1\n  swap2\n  swap3\n  swap1\n  swap2\n  swap1\n  swap2\n  0x0100\n  exp\n  dup2\n  sload\n  dup2\n  0xffffffffffffffffffffffffffffffffffffffff\n  mul\n  not\n  and\n  swap1\n  dup4\n  0xffffffffffffffffffffffffffffffffffffffff\n  and\n  mul\n  or\n  swap1\n  sstore\n  pop\n  pop\n    /* \"AdminRoleManager.sol\":6523:6528  Roles */\n  0x00\n    /* \"AdminRoleManager.sol\":6523:6541  Roles[RoleAddress] */\n  dup1\n    /* \"AdminRoleManager.sol\":6529:6540  RoleAddress */\n  dup8\n    /* \"AdminRoleManager.sol\":6523:6541  Roles[RoleAddress] */\n  0xffffffffffffffffffffffffffffffffffffffff\n  and\n  0xffffffffffffffffffffffffffffffffffffffff\n  and\n  dup2\n  mstore\n  0x20\n  add\n  swap1\n  dup2\n  mstore\n  0x20\n  add\n  0x00\n  keccak256\n    /* \"AdminRoleManager.sol\":6523:6546  Roles[RoleAddress].name */\n  0x00\n  add\n    /* \"AdminRoleManager.sol\":6516:6546  return Roles[RoleAddress].name */\n  dup1\n  sload\n  0x01\n  dup2\n  0x01\n  and\n  iszero\n  0x0100\n  mul\n  sub\n  and\n  0x02\n  swap1\n  div\n  dup1\n  0x1f\n  add\n  0x20\n  dup1\n  swap2\n  div\n  mul\n  0x20\n  add\n  mload(0x40)\n  swap1\n  dup2\n  add\n  0x40\n  mstore\n  dup1\n  swap3\n  swap2\n  swap1\n  dup2\n  dup2\n  mstore\n  0x20\n  add\n  dup3\n  dup1\n  sload\n  0x01\n  dup2\n  0x01\n  and\n  iszero\n  0x0100\n  mul\n  sub\n  and\n  0x02\n  swap1\n  div\n  dup1\n  iszero\n  tag_31\n  jumpi\n  dup1\n  0x1f\n  lt\n  tag_32\n  jumpi\n  0x0100\n  dup1\n  dup4\n  sload\n  div\n  mul\n  dup4\n  mstore\n  swap2\n  0x20\n  add\n  swap2\n  jump(tag_31)\ntag_32:\n  dup3\n  add\n  swap2\n  swap1\n  0x00\n  mstore\n  keccak256(0x00, 0x20)\n  swap1\ntag_33:\n  dup2\n  sload\n  dup2\n  mstore\n  swap1\n  0x01\n  add\n  swap1\n  0x20\n  add\n  dup1\n  dup4\n  gt\n  tag_33\n  jumpi\n  dup3\n  swap1\n  sub\n  0x1f\n  and\n  dup3\n  add\n  swap2\ntag_31:\n  pop\n  pop\n  pop\n  pop\n  pop\n  swap3\n  pop\n  pop\n  pop\n    /* \"AdminRoleManager.sol\":6123:6553  function newRole(... */\n  swap4\n  swap3\n  pop\n  pop\n  pop\n  jump\t// out\n    /* \"AdminRoleManager.sol\":5003:5159  function AddElemRole(address add, string memory newRole) public {... */\ntag_7:\n    /* \"AdminRoleManager.sol\":5077:5082  Roles */\n  0x00\n    /* \"AdminRoleManager.sol\":5077:5087  Roles[add] */\n  dup1\n    /* \"AdminRoleManager.sol\":5083:5086  add */\n  dup4\n    /* \"AdminRoleManager.sol\":5077:5087  Roles[add] */\n  0xffffffffffffffffffffffffffffffffffffffff\n  and\n  0xffffffffffffffffffffffffffffffffffffffff\n  and\n  dup2\n  mstore\n  0x20\n  add\n  swap1\n  dup2\n  mstore\n  0x20\n  add\n  0x00\n  keccak256\n    /* \"AdminRoleManager.sol\":5077:5093  Roles[add].roles */\n  0x02\n  add\n    /* \"AdminRoleManager.sol\":5099:5106  newRole */\n  dup2\n    /* \"AdminRoleManager.sol\":5077:5107  Roles[add].roles.push(newRole) */\n  swap1\n  dup1\n    /* \"--CODEGEN--\":39:40   */\n  0x01\n    /* \"--CODEGEN--\":33:36   */\n  dup2\n    /* \"--CODEGEN--\":27:37   */\n  sload\n    /* \"--CODEGEN--\":23:41   */\n  add\n    /* \"--CODEGEN--\":57:67   */\n  dup1\n    /* \"--CODEGEN--\":52:55   */\n  dup3\n    /* \"--CODEGEN--\":45:68   */\n  sstore\n    /* \"--CODEGEN--\":79:89   */\n  dup1\n    /* \"--CODEGEN--\":72:89   */\n  swap2\n  pop\n    /* \"--CODEGEN--\":0:93   */\n  pop\n    /* \"AdminRoleManager.sol\":5077:5107  Roles[add].roles.push(newRole) */\n  swap1\n  0x01\n  dup3\n  sub\n  swap1\n  0x00\n  mstore\n  keccak256(0x00, 0x20)\n  add\n  0x00\n  swap1\n  swap2\n  swap3\n  swap1\n  swap2\n  swap1\n  swap2\n  pop\n  swap1\n  dup1\n  mload\n  swap1\n  0x20\n  add\n  swap1\n  tag_36\n  swap3\n  swap2\n  swap1\n  tag_37\n  jump\t// in\ntag_36:\n  pop\n  pop\n    /* \"AdminRoleManager.sol\":5148:5152  true */\n  0x01\n    /* \"AdminRoleManager.sol\":5117:5122  Roles */\n  0x00\n    /* \"AdminRoleManager.sol\":5117:5127  Roles[add] */\n  dup1\n    /* \"AdminRoleManager.sol\":5123:5126  add */\n  dup5\n    /* \"AdminRoleManager.sol\":5117:5127  Roles[add] */\n  0xffffffffffffffffffffffffffffffffffffffff\n  and\n  0xffffffffffffffffffffffffffffffffffffffff\n  and\n  dup2\n  mstore\n  0x20\n  add\n  swap1\n  dup2\n  mstore\n  0x20\n  add\n  0x00\n  keccak256\n    /* \"AdminRoleManager.sol\":5117:5136  Roles[add].rolesMap */\n  0x03\n  add\n    /* \"AdminRoleManager.sol\":5137:5144  newRole */\n  dup3\n    /* \"AdminRoleManager.sol\":5117:5145  Roles[add].rolesMap[newRole] */\n  mload(0x40)\n  tag_38\n  swap2\n  swap1\n  jump(tag_39)\ntag_38:\n  swap1\n  dup2\n  mstore\n  0x20\n  add\n  mload(0x40)\n  dup1\n  swap2\n  sub\n  swap1\n  keccak256\n  0x00\n    /* \"AdminRoleManager.sol\":5117:5152  Roles[add].rolesMap[newRole] = true */\n  0x0100\n  exp\n  dup2\n  sload\n  dup2\n  0xff\n  mul\n  not\n  and\n  swap1\n  dup4\n  iszero\n  iszero\n  mul\n  or\n  swap1\n  sstore\n  pop\n    /* \"AdminRoleManager.sol\":5003:5159  function AddElemRole(address add, string memory newRole) public {... */\n  pop\n  pop\n  jump\t// out\n    /* \"AdminRoleManager.sol\":1227:1349  function isRole(address RoleAddress) public view returns (bool isIndeed) {... */\ntag_20:\n    /* \"AdminRoleManager.sol\":1285:1298  bool isIndeed */\n  0x00\n    /* \"AdminRoleManager.sol\":1317:1322  Roles */\n  dup1\n    /* \"AdminRoleManager.sol\":1317:1335  Roles[RoleAddress] */\n  0x00\n    /* \"AdminRoleManager.sol\":1323:1334  RoleAddress */\n  dup4\n    /* \"AdminRoleManager.sol\":1317:1335  Roles[RoleAddress] */\n  0xffffffffffffffffffffffffffffffffffffffff\n  and\n  0xffffffffffffffffffffffffffffffffffffffff\n  and\n  dup2\n  mstore\n  0x20\n  add\n  swap1\n  dup2\n  mstore\n  0x20\n  add\n  0x00\n  keccak256\n    /* \"AdminRoleManager.sol\":1317:1342  Roles[RoleAddress].isRole */\n  0x01\n  add\n  0x00\n  swap1\n  sload\n  swap1\n  0x0100\n  exp\n  swap1\n  div\n  0xff\n  and\n    /* \"AdminRoleManager.sol\":1310:1342  return Roles[RoleAddress].isRole */\n  swap1\n  pop\n    /* \"AdminRoleManager.sol\":1227:1349  function isRole(address RoleAddress) public view returns (bool isIndeed) {... */\n  swap2\n  swap1\n  pop\n  jump\t// out\n    /* \"AdminRoleManager.sol\":60:6850  contract AdminRoleManager {... */\ntag_25:\n  mload(0x40)\n  dup1\n  0x80\n  add\n  0x40\n  mstore\n  dup1\n  0x60\n  dup2\n  mstore\n  0x20\n  add\n  iszero(iszero(0x00))\n  dup2\n  mstore\n  0x20\n  add\n  iszero(iszero(0x00))\n  dup2\n  mstore\n  0x20\n  add\n  0x60\n  dup2\n  mstore\n  pop\n  swap1\n  jump\t// out\ntag_27:\n  dup3\n  dup1\n  sload\n  0x01\n  dup2\n  0x01\n  and\n  iszero\n  0x0100\n  mul\n  sub\n  and\n  0x02\n  swap1\n  div\n  swap1\n  0x00\n  mstore\n  keccak256(0x00, 0x20)\n  swap1\n  0x1f\n  add\n  0x20\n  swap1\n  div\n  dup2\n  add\n  swap3\n  dup3\n  0x1f\n  lt\n  tag_42\n  jumpi\n  dup1\n  mload\n  not(0xff)\n  and\n  dup4\n  dup1\n  add\n  or\n  dup6\n  sstore\n  jump(tag_41)\ntag_42:\n  dup3\n  dup1\n  add\n  0x01\n  add\n  dup6\n  sstore\n  dup3\n  iszero\n  tag_41\n  jumpi\n  swap2\n  dup3\n  add\ntag_43:\n  dup3\n  dup2\n  gt\n  iszero\n  tag_44\n  jumpi\n  dup3\n  mload\n  dup3\n  sstore\n  swap2\n  0x20\n  add\n  swap2\n  swap1\n  0x01\n  add\n  swap1\n  jump(tag_43)\ntag_44:\ntag_41:\n  pop\n  swap1\n  pop\n  tag_45\n  swap2\n  swap1\n  tag_46\n  jump\t// in\ntag_45:\n  pop\n  swap1\n  jump\t// out\ntag_29:\n  dup3\n  dup1\n  sload\n  dup3\n  dup3\n  sstore\n  swap1\n  0x00\n  mstore\n  keccak256(0x00, 0x20)\n  swap1\n  dup2\n  add\n  swap3\n  dup3\n  iszero\n  tag_47\n  jumpi\n  swap2\n  0x20\n  mul\n  dup3\n  add\ntag_48:\n  dup3\n  dup2\n  gt\n  iszero\n  tag_49\n  jumpi\n  dup3\n  mload\n  dup3\n  swap1\n  dup1\n  mload\n  swap1\n  0x20\n  add\n  swap1\n  tag_50\n  swap3\n  swap2\n  swap1\n  tag_27\n  jump\t// in\ntag_50:\n  pop\n  swap2\n  0x20\n  add\n  swap2\n  swap1\n  0x01\n  add\n  swap1\n  jump(tag_48)\ntag_49:\ntag_47:\n  pop\n  swap1\n  pop\n  tag_51\n  swap2\n  swap1\n  tag_52\n  jump\t// in\ntag_51:\n  pop\n  swap1\n  jump\t// out\ntag_37:\n  dup3\n  dup1\n  sload\n  0x01\n  dup2\n  0x01\n  and\n  iszero\n  0x0100\n  mul\n  sub\n  and\n  0x02\n  swap1\n  div\n  swap1\n  0x00\n  mstore\n  keccak256(0x00, 0x20)\n  swap1\n  0x1f\n  add\n  0x20\n  swap1\n  div\n  dup2\n  add\n  swap3\n  dup3\n  0x1f\n  lt\n  tag_54\n  jumpi\n  dup1\n  mload\n  not(0xff)\n  and\n  dup4\n  dup1\n  add\n  or\n  dup6\n  sstore\n  jump(tag_53)\ntag_54:\n  dup3\n  dup1\n  add\n  0x01\n  add\n  dup6\n  sstore\n  dup3\n  iszero\n  tag_53\n  jumpi\n  swap2\n  dup3\n  add\ntag_55:\n  dup3\n  dup2\n  gt\n  iszero\n  tag_56\n  jumpi\n  dup3\n  mload\n  dup3\n  sstore\n  swap2\n  0x20\n  add\n  swap2\n  swap1\n  0x01\n  add\n  swap1\n  jump(tag_55)\ntag_56:\ntag_53:\n  pop\n  swap1\n  pop\n  tag_57\n  swap2\n  swap1\n  tag_46\n  jump\t// in\ntag_57:\n  pop\n  swap1\n  jump\t// out\ntag_46:\n  tag_58\n  swap2\n  swap1\ntag_59:\n  dup1\n  dup3\n  gt\n  iszero\n  tag_60\n  jumpi\n  0x00\n  dup2\n  0x00\n  swap1\n  sstore\n  pop\n  0x01\n  add\n  jump(tag_59)\ntag_60:\n  pop\n  swap1\n  jump\ntag_58:\n  swap1\n  jump\t// out\ntag_52:\n  tag_61\n  swap2\n  swap1\ntag_62:\n  dup1\n  dup3\n  gt\n  iszero\n  tag_63\n  jumpi\n  0x00\n  dup2\n  dup2\n  tag_64\n  swap2\n  swap1\n  tag_65\n  jump\t// in\ntag_64:\n  pop\n  0x01\n  add\n  jump(tag_62)\ntag_63:\n  pop\n  swap1\n  jump\ntag_61:\n  swap1\n  jump\t// out\ntag_65:\n  pop\n  dup1\n  sload\n  0x01\n  dup2\n  0x01\n  and\n  iszero\n  0x0100\n  mul\n  sub\n  and\n  0x02\n  swap1\n  div\n  0x00\n  dup3\n  sstore\n  dup1\n  0x1f\n  lt\n  tag_67\n  jumpi\n  pop\n  jump(tag_66)\ntag_67:\n  0x1f\n  add\n  0x20\n  swap1\n  div\n  swap1\n  0x00\n  mstore\n  keccak256(0x00, 0x20)\n  swap1\n  dup2\n  add\n  swap1\n  tag_68\n  swap2\n  swap1\n  tag_46\n  jump\t// in\ntag_68:\ntag_66:\n  pop\n  jump\t// out\n    /* \"--CODEGEN--\":5:365   */\ntag_70:\n  0x00\n    /* \"--CODEGEN--\":135:174   */\n  tag_71\n    /* \"--CODEGEN--\":168:173   */\n  dup3\n    /* \"--CODEGEN--\":135:174   */\n  jump(tag_72)\ntag_71:\n    /* \"--CODEGEN--\":186:275   */\n  tag_73\n    /* \"--CODEGEN--\":268:274   */\n  dup2\n    /* \"--CODEGEN--\":263:266   */\n  dup6\n    /* \"--CODEGEN--\":186:275   */\n  jump(tag_74)\ntag_73:\n    /* \"--CODEGEN--\":179:275   */\n  swap4\n  pop\n    /* \"--CODEGEN--\":280:332   */\n  tag_75\n    /* \"--CODEGEN--\":325:331   */\n  dup2\n    /* \"--CODEGEN--\":320:323   */\n  dup6\n    /* \"--CODEGEN--\":313:317   */\n  0x20\n    /* \"--CODEGEN--\":306:311   */\n  dup7\n    /* \"--CODEGEN--\":302:318   */\n  add\n    /* \"--CODEGEN--\":280:332   */\n  jump(tag_76)\ntag_75:\n    /* \"--CODEGEN--\":353:359   */\n  dup1\n    /* \"--CODEGEN--\":348:351   */\n  dup5\n    /* \"--CODEGEN--\":344:360   */\n  add\n    /* \"--CODEGEN--\":337:360   */\n  swap2\n  pop\n    /* \"--CODEGEN--\":115:365   */\n  pop\n  swap3\n  swap2\n  pop\n  pop\n  jump\n    /* \"--CODEGEN--\":372:638   */\ntag_39:\n  0x00\n    /* \"--CODEGEN--\":518:613   */\n  tag_77\n    /* \"--CODEGEN--\":609:612   */\n  dup3\n    /* \"--CODEGEN--\":600:606   */\n  dup5\n    /* \"--CODEGEN--\":518:613   */\n  jump(tag_70)\ntag_77:\n    /* \"--CODEGEN--\":511:613   */\n  swap2\n  pop\n    /* \"--CODEGEN--\":630:633   */\n  dup2\n    /* \"--CODEGEN--\":623:633   */\n  swap1\n  pop\n    /* \"--CODEGEN--\":499:638   */\n  swap3\n  swap2\n  pop\n  pop\n  jump\n    /* \"--CODEGEN--\":645:767   */\ntag_72:\n  0x00\n    /* \"--CODEGEN--\":739:744   */\n  dup2\n    /* \"--CODEGEN--\":733:745   */\n  mload\n    /* \"--CODEGEN--\":723:745   */\n  swap1\n  pop\n    /* \"--CODEGEN--\":704:767   */\n  swap2\n  swap1\n  pop\n  jump\n    /* \"--CODEGEN--\":775:920   */\ntag_74:\n  0x00\n    /* \"--CODEGEN--\":911:914   */\n  dup2\n    /* \"--CODEGEN--\":896:914   */\n  swap1\n  pop\n    /* \"--CODEGEN--\":889:920   */\n  swap3\n  swap2\n  pop\n  pop\n  jump\n    /* \"--CODEGEN--\":929:1197   */\ntag_76:\n    /* \"--CODEGEN--\":994:995   */\n  0x00\n    /* \"--CODEGEN--\":1001:1102   */\ntag_78:\n    /* \"--CODEGEN--\":1015:1021   */\n  dup4\n    /* \"--CODEGEN--\":1012:1013   */\n  dup2\n    /* \"--CODEGEN--\":1009:1022   */\n  lt\n    /* \"--CODEGEN--\":1001:1102   */\n  iszero\n  tag_80\n  jumpi\n    /* \"--CODEGEN--\":1091:1092   */\n  dup1\n    /* \"--CODEGEN--\":1086:1089   */\n  dup3\n    /* \"--CODEGEN--\":1082:1093   */\n  add\n    /* \"--CODEGEN--\":1076:1094   */\n  mload\n    /* \"--CODEGEN--\":1072:1073   */\n  dup2\n    /* \"--CODEGEN--\":1067:1070   */\n  dup5\n    /* \"--CODEGEN--\":1063:1074   */\n  add\n    /* \"--CODEGEN--\":1056:1095   */\n  mstore\n    /* \"--CODEGEN--\":1037:1039   */\n  0x20\n    /* \"--CODEGEN--\":1034:1035   */\n  dup2\n    /* \"--CODEGEN--\":1030:1040   */\n  add\n    /* \"--CODEGEN--\":1025:1040   */\n  swap1\n  pop\n    /* \"--CODEGEN--\":1001:1102   */\n  jump(tag_78)\ntag_80:\n    /* \"--CODEGEN--\":1117:1123   */\n  dup4\n    /* \"--CODEGEN--\":1114:1115   */\n  dup2\n    /* \"--CODEGEN--\":1111:1124   */\n  gt\n    /* \"--CODEGEN--\":1108:1110   */\n  iszero\n  tag_81\n  jumpi\n    /* \"--CODEGEN--\":1182:1183   */\n  0x00\n    /* \"--CODEGEN--\":1173:1179   */\n  dup5\n    /* \"--CODEGEN--\":1168:1171   */\n  dup5\n    /* \"--CODEGEN--\":1164:1180   */\n  add\n    /* \"--CODEGEN--\":1157:1184   */\n  mstore\n    /* \"--CODEGEN--\":1108:1110   */\ntag_81:\n    /* \"--CODEGEN--\":978:1197   */\n  pop\n  pop\n  pop\n  pop\n  jump\n    /* \"AdminRoleManager.sol\":60:6850  contract AdminRoleManager {... */\ntag_17:\n  dataSize(sub_0)\n  dup1\n  dataOffset(sub_0)\n  0x00\n  codecopy\n  0x00\n  return\nstop\n\nsub_0: assembly {\n        /* \"AdminRoleManager.sol\":60:6850  contract AdminRoleManager {... */\n      mstore(0x40, 0x80)\n      callvalue\n        /* \"--CODEGEN--\":8:17   */\n      dup1\n        /* \"--CODEGEN--\":5:7   */\n      iszero\n      tag_1\n      jumpi\n        /* \"--CODEGEN--\":30:31   */\n      0x00\n        /* \"--CODEGEN--\":27:28   */\n      dup1\n        /* \"--CODEGEN--\":20:32   */\n      revert\n        /* \"--CODEGEN--\":5:7   */\n    tag_1:\n        /* \"AdminRoleManager.sol\":60:6850  contract AdminRoleManager {... */\n      pop\n      jumpi(tag_2, lt(calldatasize, 0x04))\n      shr(0xe0, calldataload(0x00))\n      dup1\n      0x7beeb945\n      gt\n      tag_17\n      jumpi\n      dup1\n      0x98d173ff\n      gt\n      tag_18\n      jumpi\n      dup1\n      0x98d173ff\n      eq\n      tag_13\n      jumpi\n      dup1\n      0xb607fce5\n      eq\n      tag_14\n      jumpi\n      dup1\n      0xd6e59bea\n      eq\n      tag_15\n      jumpi\n      dup1\n      0xe9a734ff\n      eq\n      tag_16\n      jumpi\n      jump(tag_2)\n    tag_18:\n      dup1\n      0x7beeb945\n      eq\n      tag_10\n      jumpi\n      dup1\n      0x7c08c80c\n      eq\n      tag_11\n      jumpi\n      dup1\n      0x83d33319\n      eq\n      tag_12\n      jumpi\n      jump(tag_2)\n    tag_17:\n      dup1\n      0x59162240\n      gt\n      tag_19\n      jumpi\n      dup1\n      0x59162240\n      eq\n      tag_6\n      jumpi\n      dup1\n      0x5fd4b08a\n      eq\n      tag_7\n      jumpi\n      dup1\n      0x71061398\n      eq\n      tag_8\n      jumpi\n      dup1\n      0x7323fd31\n      eq\n      tag_9\n      jumpi\n      jump(tag_2)\n    tag_19:\n      dup1\n      0x2de82135\n      eq\n      tag_3\n      jumpi\n      dup1\n      0x35e8acfb\n      eq\n      tag_4\n      jumpi\n      dup1\n      0x56339287\n      eq\n      tag_5\n      jumpi\n    tag_2:\n      0x00\n      dup1\n      revert\n        /* \"AdminRoleManager.sol\":6559:6848  function updateRole(... */\n    tag_3:\n      tag_20\n      0x04\n      dup1\n      calldatasize\n      sub\n      tag_21\n      swap2\n      swap1\n      dup2\n      add\n      swap1\n      jump(tag_22)\n    tag_21:\n      tag_23\n      jump\t// in\n    tag_20:\n      mload(0x40)\n      tag_24\n      swap2\n      swap1\n      jump(tag_25)\n    tag_24:\n      mload(0x40)\n      dup1\n      swap2\n      sub\n      swap1\n      return\n        /* \"AdminRoleManager.sol\":247:284  mapping(address => Role) public Roles */\n    tag_4:\n      tag_26\n      0x04\n      dup1\n      calldatasize\n      sub\n      tag_27\n      swap2\n      swap1\n      dup2\n      add\n      swap1\n      jump(tag_28)\n    tag_27:\n      tag_29\n      jump\t// in\n    tag_26:\n      mload(0x40)\n      tag_30\n      swap4\n      swap3\n      swap2\n      swap1\n      jump(tag_31)\n    tag_30:\n      mload(0x40)\n      dup1\n      swap2\n      sub\n      swap1\n      return\n        /* \"AdminRoleManager.sol\":4815:4997  function getElemRoles(address add)... */\n    tag_5:\n      tag_32\n      0x04\n      dup1\n      calldatasize\n      sub\n      tag_33\n      swap2\n      swap1\n      dup2\n      add\n      swap1\n      jump(tag_28)\n    tag_33:\n      tag_34\n      jump\t// in\n    tag_32:\n      mload(0x40)\n      tag_35\n      swap2\n      swap1\n      jump(tag_36)\n    tag_35:\n      mload(0x40)\n      dup1\n      swap2\n      sub\n      swap1\n      return\n        /* \"AdminRoleManager.sol\":1355:1756  function imRole() public view returns (string[] memory role) {... */\n    tag_6:\n      tag_37\n      tag_38\n      jump\t// in\n    tag_37:\n      mload(0x40)\n      tag_39\n      swap2\n      swap1\n      jump(tag_36)\n    tag_39:\n      mload(0x40)\n      dup1\n      swap2\n      sub\n      swap1\n      return\n        /* \"AdminRoleManager.sol\":3552:3661  function getName(address add) public view returns (string memory aze) {... */\n    tag_7:\n      tag_40\n      0x04\n      dup1\n      calldatasize\n      sub\n      tag_41\n      swap2\n      swap1\n      dup2\n      add\n      swap1\n      jump(tag_28)\n    tag_41:\n      tag_42\n      jump\t// in\n    tag_40:\n      mload(0x40)\n      tag_43\n      swap2\n      swap1\n      jump(tag_44)\n    tag_43:\n      mload(0x40)\n      dup1\n      swap2\n      sub\n      swap1\n      return\n        /* \"AdminRoleManager.sol\":3667:4219  function getRoles() public view returns (string[] memory list) {... */\n    tag_8:\n      tag_45\n      tag_46\n      jump\t// in\n    tag_45:\n      mload(0x40)\n      tag_47\n      swap2\n      swap1\n      jump(tag_36)\n    tag_47:\n      mload(0x40)\n      dup1\n      swap2\n      sub\n      swap1\n      return\n        /* \"AdminRoleManager.sol\":5165:5482  function RemoveElemRole(address add, uint256 i) public {... */\n    tag_9:\n      tag_48\n      0x04\n      dup1\n      calldatasize\n      sub\n      tag_49\n      swap2\n      swap1\n      dup2\n      add\n      swap1\n      jump(tag_50)\n    tag_49:\n      tag_51\n      jump\t// in\n    tag_48:\n      stop\n        /* \"AdminRoleManager.sol\":1227:1349  function isRole(address RoleAddress) public view returns (bool isIndeed) {... */\n    tag_10:\n      tag_52\n      0x04\n      dup1\n      calldatasize\n      sub\n      tag_53\n      swap2\n      swap1\n      dup2\n      add\n      swap1\n      jump(tag_28)\n    tag_53:\n      tag_54\n      jump\t// in\n    tag_52:\n      mload(0x40)\n      tag_55\n      swap2\n      swap1\n      jump(tag_25)\n    tag_55:\n      mload(0x40)\n      dup1\n      swap2\n      sub\n      swap1\n      return\n        /* \"AdminRoleManager.sol\":6123:6553  function newRole(... */\n    tag_11:\n      tag_56\n      0x04\n      dup1\n      calldatasize\n      sub\n      tag_57\n      swap2\n      swap1\n      dup2\n      add\n      swap1\n      jump(tag_22)\n    tag_57:\n      tag_58\n      jump\t// in\n    tag_56:\n      mload(0x40)\n      tag_59\n      swap2\n      swap1\n      jump(tag_44)\n    tag_59:\n      mload(0x40)\n      dup1\n      swap2\n      sub\n      swap1\n      return\n        /* \"AdminRoleManager.sol\":3443:3546  function getRoleCount() public view returns (uint256 RoleCount) {... */\n    tag_12:\n      tag_60\n      tag_61\n      jump\t// in\n    tag_60:\n      mload(0x40)\n      tag_62\n      swap2\n      swap1\n      jump(tag_63)\n    tag_62:\n      mload(0x40)\n      dup1\n      swap2\n      sub\n      swap1\n      return\n        /* \"AdminRoleManager.sol\":1762:2694  function importAccount(address[] memory add, string[] memory roles) public {... */\n    tag_13:\n      tag_64\n      0x04\n      dup1\n      calldatasize\n      sub\n      tag_65\n      swap2\n      swap1\n      dup2\n      add\n      swap1\n      jump(tag_66)\n    tag_65:\n      tag_67\n      jump\t// in\n    tag_64:\n      stop\n        /* \"AdminRoleManager.sol\":5003:5159  function AddElemRole(address add, string memory newRole) public {... */\n    tag_14:\n      tag_68\n      0x04\n      dup1\n      calldatasize\n      sub\n      tag_69\n      swap2\n      swap1\n      dup2\n      add\n      swap1\n      jump(tag_70)\n    tag_69:\n      tag_71\n      jump\t// in\n    tag_68:\n      stop\n        /* \"AdminRoleManager.sol\":4226:4809  function getAccountRoles() public view returns (string[] memory list) {... */\n    tag_15:\n      tag_72\n      tag_73\n      jump\t// in\n    tag_72:\n      mload(0x40)\n      tag_74\n      swap2\n      swap1\n      jump(tag_36)\n    tag_74:\n      mload(0x40)\n      dup1\n      swap2\n      sub\n      swap1\n      return\n        /* \"AdminRoleManager.sol\":2700:2924  function compareStringsbyBytes(string memory s1, string memory s2)... */\n    tag_16:\n      tag_75\n      0x04\n      dup1\n      calldatasize\n      sub\n      tag_76\n      swap2\n      swap1\n      dup2\n      add\n      swap1\n      jump(tag_77)\n    tag_76:\n      tag_78\n      jump\t// in\n    tag_75:\n      mload(0x40)\n      tag_79\n      swap2\n      swap1\n      jump(tag_25)\n    tag_79:\n      mload(0x40)\n      dup1\n      swap2\n      sub\n      swap1\n      return\n        /* \"AdminRoleManager.sol\":6559:6848  function updateRole(... */\n    tag_23:\n        /* \"AdminRoleManager.sol\":6678:6690  bool success */\n      0x00\n        /* \"AdminRoleManager.sol\":6707:6726  isRole(RoleAddress) */\n      tag_81\n        /* \"AdminRoleManager.sol\":6714:6725  RoleAddress */\n      dup5\n        /* \"AdminRoleManager.sol\":6707:6713  isRole */\n      tag_54\n        /* \"AdminRoleManager.sol\":6707:6726  isRole(RoleAddress) */\n      jump\t// in\n    tag_81:\n        /* \"AdminRoleManager.sol\":6702:6736  if (!isRole(RoleAddress)) revert() */\n      tag_82\n      jumpi\n        /* \"AdminRoleManager.sol\":6728:6736  revert() */\n      0x00\n      dup1\n      revert\n        /* \"AdminRoleManager.sol\":6702:6736  if (!isRole(RoleAddress)) revert() */\n    tag_82:\n        /* \"AdminRoleManager.sol\":6772:6776  name */\n      dup3\n        /* \"AdminRoleManager.sol\":6746:6751  Roles */\n      0x00\n        /* \"AdminRoleManager.sol\":6746:6764  Roles[RoleAddress] */\n      dup1\n        /* \"AdminRoleManager.sol\":6752:6763  RoleAddress */\n      dup7\n        /* \"AdminRoleManager.sol\":6746:6764  Roles[RoleAddress] */\n      0xffffffffffffffffffffffffffffffffffffffff\n      and\n      0xffffffffffffffffffffffffffffffffffffffff\n      and\n      dup2\n      mstore\n      0x20\n      add\n      swap1\n      dup2\n      mstore\n      0x20\n      add\n      0x00\n      keccak256\n        /* \"AdminRoleManager.sol\":6746:6769  Roles[RoleAddress].name */\n      0x00\n      add\n        /* \"AdminRoleManager.sol\":6746:6776  Roles[RoleAddress].name = name */\n      swap1\n      dup1\n      mload\n      swap1\n      0x20\n      add\n      swap1\n      tag_83\n      swap3\n      swap2\n      swap1\n      tag_84\n      jump\t// in\n    tag_83:\n      pop\n        /* \"AdminRoleManager.sol\":6815:6820  Admin */\n      dup2\n        /* \"AdminRoleManager.sol\":6786:6791  Roles */\n      0x00\n        /* \"AdminRoleManager.sol\":6786:6804  Roles[RoleAddress] */\n      dup1\n        /* \"AdminRoleManager.sol\":6792:6803  RoleAddress */\n      dup7\n        /* \"AdminRoleManager.sol\":6786:6804  Roles[RoleAddress] */\n      0xffffffffffffffffffffffffffffffffffffffff\n      and\n      0xffffffffffffffffffffffffffffffffffffffff\n      and\n      dup2\n      mstore\n      0x20\n      add\n      swap1\n      dup2\n      mstore\n      0x20\n      add\n      0x00\n      keccak256\n        /* \"AdminRoleManager.sol\":6786:6812  Roles[RoleAddress].isAdmin */\n      0x01\n      add\n      0x01\n        /* \"AdminRoleManager.sol\":6786:6820  Roles[RoleAddress].isAdmin = Admin */\n      0x0100\n      exp\n      dup2\n      sload\n      dup2\n      0xff\n      mul\n      not\n      and\n      swap1\n      dup4\n      iszero\n      iszero\n      mul\n      or\n      swap1\n      sstore\n      pop\n        /* \"AdminRoleManager.sol\":6837:6841  true */\n      0x01\n        /* \"AdminRoleManager.sol\":6830:6841  return true */\n      swap1\n      pop\n        /* \"AdminRoleManager.sol\":6559:6848  function updateRole(... */\n      swap4\n      swap3\n      pop\n      pop\n      pop\n      jump\t// out\n        /* \"AdminRoleManager.sol\":247:284  mapping(address => Role) public Roles */\n    tag_29:\n      mstore(0x20, 0x00)\n      dup1\n      0x00\n      mstore\n      keccak256(0x00, 0x40)\n      0x00\n      swap2\n      pop\n      swap1\n      pop\n      dup1\n      0x00\n      add\n      dup1\n      sload\n      0x01\n      dup2\n      0x01\n      and\n      iszero\n      0x0100\n      mul\n      sub\n      and\n      0x02\n      swap1\n      div\n      dup1\n      0x1f\n      add\n      0x20\n      dup1\n      swap2\n      div\n      mul\n      0x20\n      add\n      mload(0x40)\n      swap1\n      dup2\n      add\n      0x40\n      mstore\n      dup1\n      swap3\n      swap2\n      swap1\n      dup2\n      dup2\n      mstore\n      0x20\n      add\n      dup3\n      dup1\n      sload\n      0x01\n      dup2\n      0x01\n      and\n      iszero\n      0x0100\n      mul\n      sub\n      and\n      0x02\n      swap1\n      div\n      dup1\n      iszero\n      tag_85\n      jumpi\n      dup1\n      0x1f\n      lt\n      tag_86\n      jumpi\n      0x0100\n      dup1\n      dup4\n      sload\n      div\n      mul\n      dup4\n      mstore\n      swap2\n      0x20\n      add\n      swap2\n      jump(tag_85)\n    tag_86:\n      dup3\n      add\n      swap2\n      swap1\n      0x00\n      mstore\n      keccak256(0x00, 0x20)\n      swap1\n    tag_87:\n      dup2\n      sload\n      dup2\n      mstore\n      swap1\n      0x01\n      add\n      swap1\n      0x20\n      add\n      dup1\n      dup4\n      gt\n      tag_87\n      jumpi\n      dup3\n      swap1\n      sub\n      0x1f\n      and\n      dup3\n      add\n      swap2\n    tag_85:\n      pop\n      pop\n      pop\n      pop\n      pop\n      swap1\n      dup1\n      0x01\n      add\n      0x00\n      swap1\n      sload\n      swap1\n      0x0100\n      exp\n      swap1\n      div\n      0xff\n      and\n      swap1\n      dup1\n      0x01\n      add\n      0x01\n      swap1\n      sload\n      swap1\n      0x0100\n      exp\n      swap1\n      div\n      0xff\n      and\n      swap1\n      pop\n      dup4\n      jump\t// out\n        /* \"AdminRoleManager.sol\":4815:4997  function getElemRoles(address add)... */\n    tag_34:\n        /* \"AdminRoleManager.sol\":4895:4915  string[] memory list */\n      0x60\n        /* \"AdminRoleManager.sol\":4936:4947  isRole(add) */\n      tag_89\n        /* \"AdminRoleManager.sol\":4943:4946  add */\n      dup3\n        /* \"AdminRoleManager.sol\":4936:4942  isRole */\n      tag_54\n        /* \"AdminRoleManager.sol\":4936:4947  isRole(add) */\n      jump\t// in\n    tag_89:\n        /* \"AdminRoleManager.sol\":4931:4957  if (!isRole(add)) revert() */\n      tag_90\n      jumpi\n        /* \"AdminRoleManager.sol\":4949:4957  revert() */\n      0x00\n      dup1\n      revert\n        /* \"AdminRoleManager.sol\":4931:4957  if (!isRole(add)) revert() */\n    tag_90:\n        /* \"AdminRoleManager.sol\":4974:4979  Roles */\n      0x00\n        /* \"AdminRoleManager.sol\":4974:4984  Roles[add] */\n      dup1\n        /* \"AdminRoleManager.sol\":4980:4983  add */\n      dup4\n        /* \"AdminRoleManager.sol\":4974:4984  Roles[add] */\n      0xffffffffffffffffffffffffffffffffffffffff\n      and\n      0xffffffffffffffffffffffffffffffffffffffff\n      and\n      dup2\n      mstore\n      0x20\n      add\n      swap1\n      dup2\n      mstore\n      0x20\n      add\n      0x00\n      keccak256\n        /* \"AdminRoleManager.sol\":4974:4990  Roles[add].roles */\n      0x02\n      add\n        /* \"AdminRoleManager.sol\":4967:4990  return Roles[add].roles */\n      dup1\n      sload\n      dup1\n      0x20\n      mul\n      0x20\n      add\n      mload(0x40)\n      swap1\n      dup2\n      add\n      0x40\n      mstore\n      dup1\n      swap3\n      swap2\n      swap1\n      dup2\n      dup2\n      mstore\n      0x20\n      add\n      0x00\n      swap1\n    tag_91:\n      dup3\n      dup3\n      lt\n      iszero\n      tag_92\n      jumpi\n      dup4\n      dup3\n      swap1\n      0x00\n      mstore\n      keccak256(0x00, 0x20)\n      add\n      dup1\n      sload\n      0x01\n      dup2\n      0x01\n      and\n      iszero\n      0x0100\n      mul\n      sub\n      and\n      0x02\n      swap1\n      div\n      dup1\n      0x1f\n      add\n      0x20\n      dup1\n      swap2\n      div\n      mul\n      0x20\n      add\n      mload(0x40)\n      swap1\n      dup2\n      add\n      0x40\n      mstore\n      dup1\n      swap3\n      swap2\n      swap1\n      dup2\n      dup2\n      mstore\n      0x20\n      add\n      dup3\n      dup1\n      sload\n      0x01\n      dup2\n      0x01\n      and\n      iszero\n      0x0100\n      mul\n      sub\n      and\n      0x02\n      swap1\n      div\n      dup1\n      iszero\n      tag_94\n      jumpi\n      dup1\n      0x1f\n      lt\n      tag_95\n      jumpi\n      0x0100\n      dup1\n      dup4\n      sload\n      div\n      mul\n      dup4\n      mstore\n      swap2\n      0x20\n      add\n      swap2\n      jump(tag_94)\n    tag_95:\n      dup3\n      add\n      swap2\n      swap1\n      0x00\n      mstore\n      keccak256(0x00, 0x20)\n      swap1\n    tag_96:\n      dup2\n      sload\n      dup2\n      mstore\n      swap1\n      0x01\n      add\n      swap1\n      0x20\n      add\n      dup1\n      dup4\n      gt\n      tag_96\n      jumpi\n      dup3\n      swap1\n      sub\n      0x1f\n      and\n      dup3\n      add\n      swap2\n    tag_94:\n      pop\n      pop\n      pop\n      pop\n      pop\n      dup2\n      mstore\n      0x20\n      add\n      swap1\n      0x01\n      add\n      swap1\n      jump(tag_91)\n    tag_92:\n      pop\n      pop\n      pop\n      pop\n      swap1\n      pop\n        /* \"AdminRoleManager.sol\":4815:4997  function getElemRoles(address add)... */\n      swap2\n      swap1\n      pop\n      jump\t// out\n        /* \"AdminRoleManager.sol\":1355:1756  function imRole() public view returns (string[] memory role) {... */\n    tag_38:\n        /* \"AdminRoleManager.sol\":1394:1414  string[] memory role */\n      0x60\n        /* \"AdminRoleManager.sol\":1426:1446  string[] memory role */\n      dup1\n        /* \"AdminRoleManager.sol\":1462:1463  2 */\n      0x02\n        /* \"AdminRoleManager.sol\":1449:1464  new string[](2) */\n      mload(0x40)\n      swap1\n      dup1\n      dup3\n      mstore\n      dup1\n      0x20\n      mul\n      0x20\n      add\n      dup3\n      add\n      0x40\n      mstore\n      dup1\n      iszero\n      tag_98\n      jumpi\n      dup2\n      0x20\n      add\n    tag_99:\n      0x60\n      dup2\n      mstore\n      0x20\n      add\n      swap1\n      0x01\n      swap1\n      sub\n      swap1\n      dup2\n      tag_99\n      jumpi\n      swap1\n      pop\n    tag_98:\n      pop\n        /* \"AdminRoleManager.sol\":1426:1464  string[] memory role = new string[](2) */\n      swap1\n      pop\n        /* \"AdminRoleManager.sol\":1478:1496  isRole(msg.sender) */\n      tag_100\n        /* \"AdminRoleManager.sol\":1485:1495  msg.sender */\n      caller\n        /* \"AdminRoleManager.sol\":1478:1484  isRole */\n      tag_54\n        /* \"AdminRoleManager.sol\":1478:1496  isRole(msg.sender) */\n      jump\t// in\n    tag_100:\n        /* \"AdminRoleManager.sol\":1474:1729  if (isRole(msg.sender)) {... */\n      iszero\n      tag_101\n      jumpi\n        /* \"AdminRoleManager.sol\":1522:1527  Roles */\n      0x00\n        /* \"AdminRoleManager.sol\":1522:1539  Roles[msg.sender] */\n      dup1\n        /* \"AdminRoleManager.sol\":1528:1538  msg.sender */\n      caller\n        /* \"AdminRoleManager.sol\":1522:1539  Roles[msg.sender] */\n      0xffffffffffffffffffffffffffffffffffffffff\n      and\n      0xffffffffffffffffffffffffffffffffffffffff\n      and\n      dup2\n      mstore\n      0x20\n      add\n      swap1\n      dup2\n      mstore\n      0x20\n      add\n      0x00\n      keccak256\n        /* \"AdminRoleManager.sol\":1522:1544  Roles[msg.sender].name */\n      0x00\n      add\n        /* \"AdminRoleManager.sol\":1512:1544  role[0] = Roles[msg.sender].name */\n      dup1\n      sload\n      0x01\n      dup2\n      0x01\n      and\n      iszero\n      0x0100\n      mul\n      sub\n      and\n      0x02\n      swap1\n      div\n      dup1\n      0x1f\n      add\n      0x20\n      dup1\n      swap2\n      div\n      mul\n      0x20\n      add\n      mload(0x40)\n      swap1\n      dup2\n      add\n      0x40\n      mstore\n      dup1\n      swap3\n      swap2\n      swap1\n      dup2\n      dup2\n      mstore\n      0x20\n      add\n      dup3\n      dup1\n      sload\n      0x01\n      dup2\n      0x01\n      and\n      iszero\n      0x0100\n      mul\n      sub\n      and\n      0x02\n      swap1\n      div\n      dup1\n      iszero\n      tag_102\n      jumpi\n      dup1\n      0x1f\n      lt\n      tag_103\n      jumpi\n      0x0100\n      dup1\n      dup4\n      sload\n      div\n      mul\n      dup4\n      mstore\n      swap2\n      0x20\n      add\n      swap2\n      jump(tag_102)\n    tag_103:\n      dup3\n      add\n      swap2\n      swap1\n      0x00\n      mstore\n      keccak256(0x00, 0x20)\n      swap1\n    tag_104:\n      dup2\n      sload\n      dup2\n      mstore\n      swap1\n      0x01\n      add\n      swap1\n      0x20\n      add\n      dup1\n      dup4\n      gt\n      tag_104\n      jumpi\n      dup3\n      swap1\n      sub\n      0x1f\n      and\n      dup3\n      add\n      swap2\n    tag_102:\n      pop\n      pop\n      pop\n      pop\n      pop\n        /* \"AdminRoleManager.sol\":1512:1516  role */\n      dup2\n        /* \"AdminRoleManager.sol\":1517:1518  0 */\n      0x00\n        /* \"AdminRoleManager.sol\":1512:1519  role[0] */\n      dup2\n      mload\n      dup2\n      lt\n      tag_105\n      jumpi\n      invalid\n    tag_105:\n      0x20\n      mul\n      0x20\n      add\n      add\n        /* \"AdminRoleManager.sol\":1512:1544  role[0] = Roles[msg.sender].name */\n      dup2\n      swap1\n      mstore\n      pop\n        /* \"AdminRoleManager.sol\":1568:1573  Roles */\n      0x00\n        /* \"AdminRoleManager.sol\":1568:1585  Roles[msg.sender] */\n      dup1\n        /* \"AdminRoleManager.sol\":1574:1584  msg.sender */\n      caller\n        /* \"AdminRoleManager.sol\":1568:1585  Roles[msg.sender] */\n      0xffffffffffffffffffffffffffffffffffffffff\n      and\n      0xffffffffffffffffffffffffffffffffffffffff\n      and\n      dup2\n      mstore\n      0x20\n      add\n      swap1\n      dup2\n      mstore\n      0x20\n      add\n      0x00\n      keccak256\n        /* \"AdminRoleManager.sol\":1568:1593  Roles[msg.sender].isAdmin */\n      0x01\n      add\n      0x01\n      swap1\n      sload\n      swap1\n      0x0100\n      exp\n      swap1\n      div\n      0xff\n      and\n        /* \"AdminRoleManager.sol\":1568:1612  Roles[msg.sender].isAdmin ? \"true\" : \"false\" */\n      tag_106\n      jumpi\n      mload(0x40)\n      dup1\n      0x40\n      add\n      0x40\n      mstore\n      dup1\n      0x05\n      dup2\n      mstore\n      0x20\n      add\n      0x66616c7365000000000000000000000000000000000000000000000000000000\n      dup2\n      mstore\n      pop\n      jump(tag_107)\n    tag_106:\n      mload(0x40)\n      dup1\n      0x40\n      add\n      0x40\n      mstore\n      dup1\n      0x04\n      dup2\n      mstore\n      0x20\n      add\n      0x7472756500000000000000000000000000000000000000000000000000000000\n      dup2\n      mstore\n      pop\n    tag_107:\n        /* \"AdminRoleManager.sol\":1558:1562  role */\n      dup2\n        /* \"AdminRoleManager.sol\":1563:1564  1 */\n      0x01\n        /* \"AdminRoleManager.sol\":1558:1565  role[1] */\n      dup2\n      mload\n      dup2\n      lt\n      tag_108\n      jumpi\n      invalid\n    tag_108:\n      0x20\n      mul\n      0x20\n      add\n      add\n        /* \"AdminRoleManager.sol\":1558:1612  role[1] = Roles[msg.sender].isAdmin ? \"true\" : \"false\" */\n      dup2\n      swap1\n      mstore\n      pop\n        /* \"AdminRoleManager.sol\":1474:1729  if (isRole(msg.sender)) {... */\n      jump(tag_109)\n    tag_101:\n        /* \"AdminRoleManager.sol\":1643:1669  role[0] = \"Not registered\" */\n      mload(0x40)\n      dup1\n      0x40\n      add\n      0x40\n      mstore\n      dup1\n      0x0e\n      dup2\n      mstore\n      0x20\n      add\n      0x4e6f742072656769737465726564000000000000000000000000000000000000\n      dup2\n      mstore\n      pop\n        /* \"AdminRoleManager.sol\":1643:1647  role */\n      dup2\n        /* \"AdminRoleManager.sol\":1648:1649  0 */\n      0x00\n        /* \"AdminRoleManager.sol\":1643:1650  role[0] */\n      dup2\n      mload\n      dup2\n      lt\n      tag_110\n      jumpi\n      invalid\n    tag_110:\n      0x20\n      mul\n      0x20\n      add\n      add\n        /* \"AdminRoleManager.sol\":1643:1669  role[0] = \"Not registered\" */\n      dup2\n      swap1\n      mstore\n      pop\n        /* \"AdminRoleManager.sol\":1693:1718  toAsciiString(msg.sender) */\n      tag_111\n        /* \"AdminRoleManager.sol\":1707:1717  msg.sender */\n      caller\n        /* \"AdminRoleManager.sol\":1693:1706  toAsciiString */\n      tag_112\n        /* \"AdminRoleManager.sol\":1693:1718  toAsciiString(msg.sender) */\n      jump\t// in\n    tag_111:\n        /* \"AdminRoleManager.sol\":1683:1687  role */\n      dup2\n        /* \"AdminRoleManager.sol\":1688:1689  1 */\n      0x01\n        /* \"AdminRoleManager.sol\":1683:1690  role[1] */\n      dup2\n      mload\n      dup2\n      lt\n      tag_113\n      jumpi\n      invalid\n    tag_113:\n      0x20\n      mul\n      0x20\n      add\n      add\n        /* \"AdminRoleManager.sol\":1683:1718  role[1] = toAsciiString(msg.sender) */\n      dup2\n      swap1\n      mstore\n      pop\n        /* \"AdminRoleManager.sol\":1474:1729  if (isRole(msg.sender)) {... */\n    tag_109:\n        /* \"AdminRoleManager.sol\":1745:1749  role */\n      dup1\n        /* \"AdminRoleManager.sol\":1738:1749  return role */\n      swap2\n      pop\n      pop\n        /* \"AdminRoleManager.sol\":1355:1756  function imRole() public view returns (string[] memory role) {... */\n      swap1\n      jump\t// out\n        /* \"AdminRoleManager.sol\":3552:3661  function getName(address add) public view returns (string memory aze) {... */\n    tag_42:\n        /* \"AdminRoleManager.sol\":3603:3620  string memory aze */\n      0x60\n        /* \"AdminRoleManager.sol\":3639:3644  Roles */\n      0x00\n        /* \"AdminRoleManager.sol\":3639:3649  Roles[add] */\n      dup1\n        /* \"AdminRoleManager.sol\":3645:3648  add */\n      dup4\n        /* \"AdminRoleManager.sol\":3639:3649  Roles[add] */\n      0xffffffffffffffffffffffffffffffffffffffff\n      and\n      0xffffffffffffffffffffffffffffffffffffffff\n      and\n      dup2\n      mstore\n      0x20\n      add\n      swap1\n      dup2\n      mstore\n      0x20\n      add\n      0x00\n      keccak256\n        /* \"AdminRoleManager.sol\":3639:3654  Roles[add].name */\n      0x00\n      add\n        /* \"AdminRoleManager.sol\":3632:3654  return Roles[add].name */\n      dup1\n      sload\n      0x01\n      dup2\n      0x01\n      and\n      iszero\n      0x0100\n      mul\n      sub\n      and\n      0x02\n      swap1\n      div\n      dup1\n      0x1f\n      add\n      0x20\n      dup1\n      swap2\n      div\n      mul\n      0x20\n      add\n      mload(0x40)\n      swap1\n      dup2\n      add\n      0x40\n      mstore\n      dup1\n      swap3\n      swap2\n      swap1\n      dup2\n      dup2\n      mstore\n      0x20\n      add\n      dup3\n      dup1\n      sload\n      0x01\n      dup2\n      0x01\n      and\n      iszero\n      0x0100\n      mul\n      sub\n      and\n      0x02\n      swap1\n      div\n      dup1\n      iszero\n      tag_115\n      jumpi\n      dup1\n      0x1f\n      lt\n      tag_116\n      jumpi\n      0x0100\n      dup1\n      dup4\n      sload\n      div\n      mul\n      dup4\n      mstore\n      swap2\n      0x20\n      add\n      swap2\n      jump(tag_115)\n    tag_116:\n      dup3\n      add\n      swap2\n      swap1\n      0x00\n      mstore\n      keccak256(0x00, 0x20)\n      swap1\n    tag_117:\n      dup2\n      sload\n      dup2\n      mstore\n      swap1\n      0x01\n      add\n      swap1\n      0x20\n      add\n      dup1\n      dup4\n      gt\n      tag_117\n      jumpi\n      dup3\n      swap1\n      sub\n      0x1f\n      and\n      dup3\n      add\n      swap2\n    tag_115:\n      pop\n      pop\n      pop\n      pop\n      pop\n      swap1\n      pop\n        /* \"AdminRoleManager.sol\":3552:3661  function getName(address add) public view returns (string memory aze) {... */\n      swap2\n      swap1\n      pop\n      jump\t// out\n        /* \"AdminRoleManager.sol\":3667:4219  function getRoles() public view returns (string[] memory list) {... */\n    tag_46:\n        /* \"AdminRoleManager.sol\":3708:3728  string[] memory list */\n      0x60\n        /* \"AdminRoleManager.sol\":3740:3767  string[] memory listofRoles */\n      dup1\n        /* \"AdminRoleManager.sol\":3783:3791  roleList */\n      0x01\n        /* \"AdminRoleManager.sol\":3783:3798  roleList.length */\n      dup1\n      sload\n      swap1\n      pop\n        /* \"AdminRoleManager.sol\":3770:3799  new string[](roleList.length) */\n      mload(0x40)\n      swap1\n      dup1\n      dup3\n      mstore\n      dup1\n      0x20\n      mul\n      0x20\n      add\n      dup3\n      add\n      0x40\n      mstore\n      dup1\n      iszero\n      tag_119\n      jumpi\n      dup2\n      0x20\n      add\n    tag_120:\n      0x60\n      dup2\n      mstore\n      0x20\n      add\n      swap1\n      0x01\n      swap1\n      sub\n      swap1\n      dup2\n      tag_120\n      jumpi\n      swap1\n      pop\n    tag_119:\n      pop\n        /* \"AdminRoleManager.sol\":3740:3799  string[] memory listofRoles = new string[](roleList.length) */\n      swap1\n      pop\n        /* \"AdminRoleManager.sol\":3814:3823  uint256 i */\n      0x00\n        /* \"AdminRoleManager.sol\":3826:3827  0 */\n      dup1\n        /* \"AdminRoleManager.sol\":3814:3827  uint256 i = 0 */\n      swap1\n      pop\n        /* \"AdminRoleManager.sol\":3809:4185  for (uint256 i = 0; i < roleList.length; i++) {... */\n    tag_121:\n        /* \"AdminRoleManager.sol\":3833:3841  roleList */\n      0x01\n        /* \"AdminRoleManager.sol\":3833:3848  roleList.length */\n      dup1\n      sload\n      swap1\n      pop\n        /* \"AdminRoleManager.sol\":3829:3830  i */\n      dup2\n        /* \"AdminRoleManager.sol\":3829:3848  i < roleList.length */\n      lt\n        /* \"AdminRoleManager.sol\":3809:4185  for (uint256 i = 0; i < roleList.length; i++) {... */\n      iszero\n      tag_122\n      jumpi\n        /* \"AdminRoleManager.sol\":3948:3953  Roles */\n      0x00\n        /* \"AdminRoleManager.sol\":3948:3966  Roles[roleList[i]] */\n      dup1\n        /* \"AdminRoleManager.sol\":3954:3962  roleList */\n      0x01\n        /* \"AdminRoleManager.sol\":3963:3964  i */\n      dup4\n        /* \"AdminRoleManager.sol\":3954:3965  roleList[i] */\n      dup2\n      sload\n      dup2\n      lt\n      tag_124\n      jumpi\n      invalid\n    tag_124:\n      swap1\n      0x00\n      mstore\n      keccak256(0x00, 0x20)\n      add\n      0x00\n      swap1\n      sload\n      swap1\n      0x0100\n      exp\n      swap1\n      div\n      0xffffffffffffffffffffffffffffffffffffffff\n      and\n        /* \"AdminRoleManager.sol\":3948:3966  Roles[roleList[i]] */\n      0xffffffffffffffffffffffffffffffffffffffff\n      and\n      0xffffffffffffffffffffffffffffffffffffffff\n      and\n      dup2\n      mstore\n      0x20\n      add\n      swap1\n      dup2\n      mstore\n      0x20\n      add\n      0x00\n      keccak256\n        /* \"AdminRoleManager.sol\":3948:3971  Roles[roleList[i]].name */\n      0x00\n      add\n        /* \"AdminRoleManager.sol\":4020:4046  toAsciiString(roleList[i]) */\n      tag_126\n        /* \"AdminRoleManager.sol\":4034:4042  roleList */\n      0x01\n        /* \"AdminRoleManager.sol\":4043:4044  i */\n      dup4\n        /* \"AdminRoleManager.sol\":4034:4045  roleList[i] */\n      dup2\n      sload\n      dup2\n      lt\n      tag_127\n      jumpi\n      invalid\n    tag_127:\n      swap1\n      0x00\n      mstore\n      keccak256(0x00, 0x20)\n      add\n      0x00\n      swap1\n      sload\n      swap1\n      0x0100\n      exp\n      swap1\n      div\n      0xffffffffffffffffffffffffffffffffffffffff\n      and\n        /* \"AdminRoleManager.sol\":4020:4033  toAsciiString */\n      tag_112\n        /* \"AdminRoleManager.sol\":4020:4046  toAsciiString(roleList[i]) */\n      jump\t// in\n    tag_126:\n        /* \"AdminRoleManager.sol\":4096:4101  Roles */\n      0x00\n        /* \"AdminRoleManager.sol\":4096:4114  Roles[roleList[i]] */\n      dup1\n        /* \"AdminRoleManager.sol\":4102:4110  roleList */\n      0x01\n        /* \"AdminRoleManager.sol\":4111:4112  i */\n      dup6\n        /* \"AdminRoleManager.sol\":4102:4113  roleList[i] */\n      dup2\n      sload\n      dup2\n      lt\n      tag_129\n      jumpi\n      invalid\n    tag_129:\n      swap1\n      0x00\n      mstore\n      keccak256(0x00, 0x20)\n      add\n      0x00\n      swap1\n      sload\n      swap1\n      0x0100\n      exp\n      swap1\n      div\n      0xffffffffffffffffffffffffffffffffffffffff\n      and\n        /* \"AdminRoleManager.sol\":4096:4114  Roles[roleList[i]] */\n      0xffffffffffffffffffffffffffffffffffffffff\n      and\n      0xffffffffffffffffffffffffffffffffffffffff\n      and\n      dup2\n      mstore\n      0x20\n      add\n      swap1\n      dup2\n      mstore\n      0x20\n      add\n      0x00\n      keccak256\n        /* \"AdminRoleManager.sol\":4096:4122  Roles[roleList[i]].isAdmin */\n      0x01\n      add\n      0x01\n      swap1\n      sload\n      swap1\n      0x0100\n      exp\n      swap1\n      div\n      0xff\n      and\n        /* \"AdminRoleManager.sol\":4096:4141  Roles[roleList[i]].isAdmin ? \"true\" : \"false\" */\n      tag_131\n      jumpi\n      mload(0x40)\n      dup1\n      0x40\n      add\n      0x40\n      mstore\n      dup1\n      0x05\n      dup2\n      mstore\n      0x20\n      add\n      0x66616c7365000000000000000000000000000000000000000000000000000000\n      dup2\n      mstore\n      pop\n      jump(tag_132)\n    tag_131:\n      mload(0x40)\n      dup1\n      0x40\n      add\n      0x40\n      mstore\n      dup1\n      0x04\n      dup2\n      mstore\n      0x20\n      add\n      0x7472756500000000000000000000000000000000000000000000000000000000\n      dup2\n      mstore\n      pop\n    tag_132:\n        /* \"AdminRoleManager.sol\":3910:4160  abi.encodePacked(... */\n      add(0x20, mload(0x40))\n      tag_133\n      swap4\n      swap3\n      swap2\n      swap1\n      jump(tag_134)\n    tag_133:\n      mload(0x40)\n        /* \"--CODEGEN--\":49:53   */\n      0x20\n        /* \"--CODEGEN--\":39:46   */\n      dup2\n        /* \"--CODEGEN--\":30:37   */\n      dup4\n        /* \"--CODEGEN--\":26:47   */\n      sub\n        /* \"--CODEGEN--\":22:54   */\n      sub\n        /* \"--CODEGEN--\":13:20   */\n      dup2\n        /* \"--CODEGEN--\":6:55   */\n      mstore\n        /* \"AdminRoleManager.sol\":3910:4160  abi.encodePacked(... */\n      swap1\n      0x40\n      mstore\n        /* \"AdminRoleManager.sol\":3869:3880  listofRoles */\n      dup3\n        /* \"AdminRoleManager.sol\":3881:3882  i */\n      dup3\n        /* \"AdminRoleManager.sol\":3869:3883  listofRoles[i] */\n      dup2\n      mload\n      dup2\n      lt\n      tag_135\n      jumpi\n      invalid\n    tag_135:\n      0x20\n      mul\n      0x20\n      add\n      add\n        /* \"AdminRoleManager.sol\":3869:4174  listofRoles[i] = string(... */\n      dup2\n      swap1\n      mstore\n      pop\n        /* \"AdminRoleManager.sol\":3850:3853  i++ */\n      dup1\n      dup1\n      0x01\n      add\n      swap2\n      pop\n      pop\n        /* \"AdminRoleManager.sol\":3809:4185  for (uint256 i = 0; i < roleList.length; i++) {... */\n      jump(tag_121)\n    tag_122:\n      pop\n        /* \"AdminRoleManager.sol\":4201:4212  listofRoles */\n      dup1\n        /* \"AdminRoleManager.sol\":4194:4212  return listofRoles */\n      swap2\n      pop\n      pop\n        /* \"AdminRoleManager.sol\":3667:4219  function getRoles() public view returns (string[] memory list) {... */\n      swap1\n      jump\t// out\n        /* \"AdminRoleManager.sol\":5165:5482  function RemoveElemRole(address add, uint256 i) public {... */\n    tag_51:\n        /* \"AdminRoleManager.sol\":5230:5241  uint256 lim */\n      0x00\n        /* \"AdminRoleManager.sol\":5270:5271  1 */\n      0x01\n        /* \"AdminRoleManager.sol\":5244:5249  Roles */\n      0x00\n        /* \"AdminRoleManager.sol\":5244:5254  Roles[add] */\n      dup1\n        /* \"AdminRoleManager.sol\":5250:5253  add */\n      dup6\n        /* \"AdminRoleManager.sol\":5244:5254  Roles[add] */\n      0xffffffffffffffffffffffffffffffffffffffff\n      and\n      0xffffffffffffffffffffffffffffffffffffffff\n      and\n      dup2\n      mstore\n      0x20\n      add\n      swap1\n      dup2\n      mstore\n      0x20\n      add\n      0x00\n      keccak256\n        /* \"AdminRoleManager.sol\":5244:5260  Roles[add].roles */\n      0x02\n      add\n        /* \"AdminRoleManager.sol\":5244:5267  Roles[add].roles.length */\n      dup1\n      sload\n      swap1\n      pop\n        /* \"AdminRoleManager.sol\":5244:5271  Roles[add].roles.length - 1 */\n      sub\n        /* \"AdminRoleManager.sol\":5230:5271  uint256 lim = Roles[add].roles.length - 1 */\n      swap1\n      pop\n        /* \"AdminRoleManager.sol\":5288:5293  Roles */\n      0x00\n        /* \"AdminRoleManager.sol\":5288:5298  Roles[add] */\n      dup1\n        /* \"AdminRoleManager.sol\":5294:5297  add */\n      dup5\n        /* \"AdminRoleManager.sol\":5288:5298  Roles[add] */\n      0xffffffffffffffffffffffffffffffffffffffff\n      and\n      0xffffffffffffffffffffffffffffffffffffffff\n      and\n      dup2\n      mstore\n      0x20\n      add\n      swap1\n      dup2\n      mstore\n      0x20\n      add\n      0x00\n      keccak256\n        /* \"AdminRoleManager.sol\":5288:5307  Roles[add].rolesMap */\n      0x03\n      add\n        /* \"AdminRoleManager.sol\":5308:5313  Roles */\n      0x00\n        /* \"AdminRoleManager.sol\":5308:5318  Roles[add] */\n      dup1\n        /* \"AdminRoleManager.sol\":5314:5317  add */\n      dup6\n        /* \"AdminRoleManager.sol\":5308:5318  Roles[add] */\n      0xffffffffffffffffffffffffffffffffffffffff\n      and\n      0xffffffffffffffffffffffffffffffffffffffff\n      and\n      dup2\n      mstore\n      0x20\n      add\n      swap1\n      dup2\n      mstore\n      0x20\n      add\n      0x00\n      keccak256\n        /* \"AdminRoleManager.sol\":5308:5324  Roles[add].roles */\n      0x02\n      add\n        /* \"AdminRoleManager.sol\":5325:5326  i */\n      dup4\n        /* \"AdminRoleManager.sol\":5308:5327  Roles[add].roles[i] */\n      dup2\n      sload\n      dup2\n      lt\n      tag_137\n      jumpi\n      invalid\n    tag_137:\n      swap1\n      0x00\n      mstore\n      keccak256(0x00, 0x20)\n      add\n        /* \"AdminRoleManager.sol\":5288:5328  Roles[add].rolesMap[Roles[add].roles[i]] */\n      mload(0x40)\n      tag_139\n      swap2\n      swap1\n      jump(tag_140)\n    tag_139:\n      swap1\n      dup2\n      mstore\n      0x20\n      add\n      mload(0x40)\n      dup1\n      swap2\n      sub\n      swap1\n      keccak256\n      0x00\n        /* \"AdminRoleManager.sol\":5281:5328  delete Roles[add].rolesMap[Roles[add].roles[i]] */\n      0x0100\n      exp\n      dup2\n      sload\n      swap1\n      0xff\n      mul\n      not\n      and\n      swap1\n      sstore\n        /* \"AdminRoleManager.sol\":5338:5441  while (i < lim) {... */\n    tag_141:\n        /* \"AdminRoleManager.sol\":5349:5352  lim */\n      dup1\n        /* \"AdminRoleManager.sol\":5345:5346  i */\n      dup3\n        /* \"AdminRoleManager.sol\":5345:5352  i < lim */\n      lt\n        /* \"AdminRoleManager.sol\":5338:5441  while (i < lim) {... */\n      iszero\n      tag_142\n      jumpi\n        /* \"AdminRoleManager.sol\":5390:5395  Roles */\n      0x00\n        /* \"AdminRoleManager.sol\":5390:5400  Roles[add] */\n      dup1\n        /* \"AdminRoleManager.sol\":5396:5399  add */\n      dup5\n        /* \"AdminRoleManager.sol\":5390:5400  Roles[add] */\n      0xffffffffffffffffffffffffffffffffffffffff\n      and\n      0xffffffffffffffffffffffffffffffffffffffff\n      and\n      dup2\n      mstore\n      0x20\n      add\n      swap1\n      dup2\n      mstore\n      0x20\n      add\n      0x00\n      keccak256\n        /* \"AdminRoleManager.sol\":5390:5406  Roles[add].roles */\n      0x02\n      add\n        /* \"AdminRoleManager.sol\":5411:5412  1 */\n      0x01\n        /* \"AdminRoleManager.sol\":5407:5408  i */\n      dup4\n        /* \"AdminRoleManager.sol\":5407:5412  i + 1 */\n      add\n        /* \"AdminRoleManager.sol\":5390:5413  Roles[add].roles[i + 1] */\n      dup2\n      sload\n      dup2\n      lt\n      tag_143\n      jumpi\n      invalid\n    tag_143:\n      swap1\n      0x00\n      mstore\n      keccak256(0x00, 0x20)\n      add\n        /* \"AdminRoleManager.sol\":5368:5373  Roles */\n      0x00\n        /* \"AdminRoleManager.sol\":5368:5378  Roles[add] */\n      dup1\n        /* \"AdminRoleManager.sol\":5374:5377  add */\n      dup6\n        /* \"AdminRoleManager.sol\":5368:5378  Roles[add] */\n      0xffffffffffffffffffffffffffffffffffffffff\n      and\n      0xffffffffffffffffffffffffffffffffffffffff\n      and\n      dup2\n      mstore\n      0x20\n      add\n      swap1\n      dup2\n      mstore\n      0x20\n      add\n      0x00\n      keccak256\n        /* \"AdminRoleManager.sol\":5368:5384  Roles[add].roles */\n      0x02\n      add\n        /* \"AdminRoleManager.sol\":5385:5386  i */\n      dup4\n        /* \"AdminRoleManager.sol\":5368:5387  Roles[add].roles[i] */\n      dup2\n      sload\n      dup2\n      lt\n      tag_145\n      jumpi\n      invalid\n    tag_145:\n      swap1\n      0x00\n      mstore\n      keccak256(0x00, 0x20)\n      add\n        /* \"AdminRoleManager.sol\":5368:5413  Roles[add].roles[i] = Roles[add].roles[i + 1] */\n      swap1\n      dup1\n      sload\n      0x01\n      dup2\n      0x01\n      and\n      iszero\n      0x0100\n      mul\n      sub\n      and\n      0x02\n      swap1\n      div\n      tag_147\n      swap3\n      swap2\n      swap1\n      tag_148\n      jump\t// in\n    tag_147:\n      pop\n        /* \"AdminRoleManager.sol\":5427:5430  i++ */\n      dup2\n      dup1\n      0x01\n      add\n      swap3\n      pop\n      pop\n        /* \"AdminRoleManager.sol\":5338:5441  while (i < lim) {... */\n      jump(tag_141)\n    tag_142:\n        /* \"AdminRoleManager.sol\":5450:5455  Roles */\n      0x00\n        /* \"AdminRoleManager.sol\":5450:5460  Roles[add] */\n      dup1\n        /* \"AdminRoleManager.sol\":5456:5459  add */\n      dup5\n        /* \"AdminRoleManager.sol\":5450:5460  Roles[add] */\n      0xffffffffffffffffffffffffffffffffffffffff\n      and\n      0xffffffffffffffffffffffffffffffffffffffff\n      and\n      dup2\n      mstore\n      0x20\n      add\n      swap1\n      dup2\n      mstore\n      0x20\n      add\n      0x00\n      keccak256\n        /* \"AdminRoleManager.sol\":5450:5466  Roles[add].roles */\n      0x02\n      add\n        /* \"AdminRoleManager.sol\":5450:5475  Roles[add].roles.length-- */\n      dup1\n      sload\n      dup1\n      swap2\n      swap1\n      0x01\n      swap1\n      sub\n      tag_149\n      swap2\n      swap1\n      tag_150\n      jump\t// in\n    tag_149:\n      pop\n        /* \"AdminRoleManager.sol\":5165:5482  function RemoveElemRole(address add, uint256 i) public {... */\n      pop\n      pop\n      pop\n      jump\t// out\n        /* \"AdminRoleManager.sol\":1227:1349  function isRole(address RoleAddress) public view returns (bool isIndeed) {... */\n    tag_54:\n        /* \"AdminRoleManager.sol\":1285:1298  bool isIndeed */\n      0x00\n        /* \"AdminRoleManager.sol\":1317:1322  Roles */\n      dup1\n        /* \"AdminRoleManager.sol\":1317:1335  Roles[RoleAddress] */\n      0x00\n        /* \"AdminRoleManager.sol\":1323:1334  RoleAddress */\n      dup4\n        /* \"AdminRoleManager.sol\":1317:1335  Roles[RoleAddress] */\n      0xffffffffffffffffffffffffffffffffffffffff\n      and\n      0xffffffffffffffffffffffffffffffffffffffff\n      and\n      dup2\n      mstore\n      0x20\n      add\n      swap1\n      dup2\n      mstore\n      0x20\n      add\n      0x00\n      keccak256\n        /* \"AdminRoleManager.sol\":1317:1342  Roles[RoleAddress].isRole */\n      0x01\n      add\n      0x00\n      swap1\n      sload\n      swap1\n      0x0100\n      exp\n      swap1\n      div\n      0xff\n      and\n        /* \"AdminRoleManager.sol\":1310:1342  return Roles[RoleAddress].isRole */\n      swap1\n      pop\n        /* \"AdminRoleManager.sol\":1227:1349  function isRole(address RoleAddress) public view returns (bool isIndeed) {... */\n      swap2\n      swap1\n      pop\n      jump\t// out\n        /* \"AdminRoleManager.sol\":6123:6553  function newRole(... */\n    tag_58:\n        /* \"AdminRoleManager.sol\":6241:6264  string memory rowNumber */\n      0x60\n        /* \"AdminRoleManager.sol\":6280:6299  isRole(RoleAddress) */\n      tag_153\n        /* \"AdminRoleManager.sol\":6287:6298  RoleAddress */\n      dup5\n        /* \"AdminRoleManager.sol\":6280:6286  isRole */\n      tag_54\n        /* \"AdminRoleManager.sol\":6280:6299  isRole(RoleAddress) */\n      jump\t// in\n    tag_153:\n        /* \"AdminRoleManager.sol\":6276:6309  if (isRole(RoleAddress)) revert() */\n      iszero\n      tag_154\n      jumpi\n        /* \"AdminRoleManager.sol\":6301:6309  revert() */\n      0x00\n      dup1\n      revert\n        /* \"AdminRoleManager.sol\":6276:6309  if (isRole(RoleAddress)) revert() */\n    tag_154:\n        /* \"AdminRoleManager.sol\":6319:6342  string[] memory tmpList */\n      0x60\n        /* \"AdminRoleManager.sol\":6358:6359  0 */\n      0x00\n        /* \"AdminRoleManager.sol\":6345:6360  new string[](0) */\n      mload(0x40)\n      swap1\n      dup1\n      dup3\n      mstore\n      dup1\n      0x20\n      mul\n      0x20\n      add\n      dup3\n      add\n      0x40\n      mstore\n      dup1\n      iszero\n      tag_155\n      jumpi\n      dup2\n      0x20\n      add\n    tag_156:\n      0x60\n      dup2\n      mstore\n      0x20\n      add\n      swap1\n      0x01\n      swap1\n      sub\n      swap1\n      dup2\n      tag_156\n      jumpi\n      swap1\n      pop\n    tag_155:\n      pop\n        /* \"AdminRoleManager.sol\":6319:6360  string[] memory tmpList = new string[](0) */\n      swap1\n      pop\n        /* \"AdminRoleManager.sol\":6370:6392  Role memory tempStruct */\n      tag_157\n      tag_158\n      jump\t// in\n    tag_157:\n        /* \"AdminRoleManager.sol\":6395:6429  Role(name, true, isAdmin, tmpList) */\n      mload(0x40)\n      dup1\n      0x80\n      add\n      0x40\n      mstore\n      dup1\n        /* \"AdminRoleManager.sol\":6400:6404  name */\n      dup7\n        /* \"AdminRoleManager.sol\":6395:6429  Role(name, true, isAdmin, tmpList) */\n      dup2\n      mstore\n      0x20\n      add\n        /* \"AdminRoleManager.sol\":6406:6410  true */\n      0x01\n        /* \"AdminRoleManager.sol\":6395:6429  Role(name, true, isAdmin, tmpList) */\n      iszero\n      iszero\n      dup2\n      mstore\n      0x20\n      add\n        /* \"AdminRoleManager.sol\":6412:6419  isAdmin */\n      dup6\n        /* \"AdminRoleManager.sol\":6395:6429  Role(name, true, isAdmin, tmpList) */\n      iszero\n      iszero\n      dup2\n      mstore\n      0x20\n      add\n        /* \"AdminRoleManager.sol\":6421:6428  tmpList */\n      dup4\n        /* \"AdminRoleManager.sol\":6395:6429  Role(name, true, isAdmin, tmpList) */\n      dup2\n      mstore\n      pop\n        /* \"AdminRoleManager.sol\":6370:6429  Role memory tempStruct = Role(name, true, isAdmin, tmpList) */\n      swap1\n      pop\n        /* \"AdminRoleManager.sol\":6460:6470  tempStruct */\n      dup1\n        /* \"AdminRoleManager.sol\":6439:6444  Roles */\n      0x00\n        /* \"AdminRoleManager.sol\":6439:6457  Roles[RoleAddress] */\n      dup1\n        /* \"AdminRoleManager.sol\":6445:6456  RoleAddress */\n      dup9\n        /* \"AdminRoleManager.sol\":6439:6457  Roles[RoleAddress] */\n      0xffffffffffffffffffffffffffffffffffffffff\n      and\n      0xffffffffffffffffffffffffffffffffffffffff\n      and\n      dup2\n      mstore\n      0x20\n      add\n      swap1\n      dup2\n      mstore\n      0x20\n      add\n      0x00\n      keccak256\n        /* \"AdminRoleManager.sol\":6439:6470  Roles[RoleAddress] = tempStruct */\n      0x00\n      dup3\n      add\n      mload\n      dup2\n      0x00\n      add\n      swap1\n      dup1\n      mload\n      swap1\n      0x20\n      add\n      swap1\n      tag_159\n      swap3\n      swap2\n      swap1\n      tag_160\n      jump\t// in\n    tag_159:\n      pop\n      0x20\n      dup3\n      add\n      mload\n      dup2\n      0x01\n      add\n      exp(0x0100, 0x00)\n      dup2\n      sload\n      dup2\n      0xff\n      mul\n      not\n      and\n      swap1\n      dup4\n      iszero\n      iszero\n      mul\n      or\n      swap1\n      sstore\n      pop\n      0x40\n      dup3\n      add\n      mload\n      dup2\n      0x01\n      add\n      exp(0x0100, 0x01)\n      dup2\n      sload\n      dup2\n      0xff\n      mul\n      not\n      and\n      swap1\n      dup4\n      iszero\n      iszero\n      mul\n      or\n      swap1\n      sstore\n      pop\n      0x60\n      dup3\n      add\n      mload\n      dup2\n      0x02\n      add\n      swap1\n      dup1\n      mload\n      swap1\n      0x20\n      add\n      swap1\n      tag_161\n      swap3\n      swap2\n      swap1\n      tag_162\n      jump\t// in\n    tag_161:\n      pop\n      swap1\n      pop\n      pop\n        /* \"AdminRoleManager.sol\":6480:6488  roleList */\n      0x01\n        /* \"AdminRoleManager.sol\":6494:6505  RoleAddress */\n      dup7\n        /* \"AdminRoleManager.sol\":6480:6506  roleList.push(RoleAddress) */\n      swap1\n      dup1\n        /* \"--CODEGEN--\":39:40   */\n      0x01\n        /* \"--CODEGEN--\":33:36   */\n      dup2\n        /* \"--CODEGEN--\":27:37   */\n      sload\n        /* \"--CODEGEN--\":23:41   */\n      add\n        /* \"--CODEGEN--\":57:67   */\n      dup1\n        /* \"--CODEGEN--\":52:55   */\n      dup3\n        /* \"--CODEGEN--\":45:68   */\n      sstore\n        /* \"--CODEGEN--\":79:89   */\n      dup1\n        /* \"--CODEGEN--\":72:89   */\n      swap2\n      pop\n        /* \"--CODEGEN--\":0:93   */\n      pop\n        /* \"AdminRoleManager.sol\":6480:6506  roleList.push(RoleAddress) */\n      swap1\n      0x01\n      dup3\n      sub\n      swap1\n      0x00\n      mstore\n      keccak256(0x00, 0x20)\n      add\n      0x00\n      swap1\n      swap2\n      swap3\n      swap1\n      swap2\n      swap1\n      swap2\n      0x0100\n      exp\n      dup2\n      sload\n      dup2\n      0xffffffffffffffffffffffffffffffffffffffff\n      mul\n      not\n      and\n      swap1\n      dup4\n      0xffffffffffffffffffffffffffffffffffffffff\n      and\n      mul\n      or\n      swap1\n      sstore\n      pop\n      pop\n        /* \"AdminRoleManager.sol\":6523:6528  Roles */\n      0x00\n        /* \"AdminRoleManager.sol\":6523:6541  Roles[RoleAddress] */\n      dup1\n        /* \"AdminRoleManager.sol\":6529:6540  RoleAddress */\n      dup8\n        /* \"AdminRoleManager.sol\":6523:6541  Roles[RoleAddress] */\n      0xffffffffffffffffffffffffffffffffffffffff\n      and\n      0xffffffffffffffffffffffffffffffffffffffff\n      and\n      dup2\n      mstore\n      0x20\n      add\n      swap1\n      dup2\n      mstore\n      0x20\n      add\n      0x00\n      keccak256\n        /* \"AdminRoleManager.sol\":6523:6546  Roles[RoleAddress].name */\n      0x00\n      add\n        /* \"AdminRoleManager.sol\":6516:6546  return Roles[RoleAddress].name */\n      dup1\n      sload\n      0x01\n      dup2\n      0x01\n      and\n      iszero\n      0x0100\n      mul\n      sub\n      and\n      0x02\n      swap1\n      div\n      dup1\n      0x1f\n      add\n      0x20\n      dup1\n      swap2\n      div\n      mul\n      0x20\n      add\n      mload(0x40)\n      swap1\n      dup2\n      add\n      0x40\n      mstore\n      dup1\n      swap3\n      swap2\n      swap1\n      dup2\n      dup2\n      mstore\n      0x20\n      add\n      dup3\n      dup1\n      sload\n      0x01\n      dup2\n      0x01\n      and\n      iszero\n      0x0100\n      mul\n      sub\n      and\n      0x02\n      swap1\n      div\n      dup1\n      iszero\n      tag_164\n      jumpi\n      dup1\n      0x1f\n      lt\n      tag_165\n      jumpi\n      0x0100\n      dup1\n      dup4\n      sload\n      div\n      mul\n      dup4\n      mstore\n      swap2\n      0x20\n      add\n      swap2\n      jump(tag_164)\n    tag_165:\n      dup3\n      add\n      swap2\n      swap1\n      0x00\n      mstore\n      keccak256(0x00, 0x20)\n      swap1\n    tag_166:\n      dup2\n      sload\n      dup2\n      mstore\n      swap1\n      0x01\n      add\n      swap1\n      0x20\n      add\n      dup1\n      dup4\n      gt\n      tag_166\n      jumpi\n      dup3\n      swap1\n      sub\n      0x1f\n      and\n      dup3\n      add\n      swap2\n    tag_164:\n      pop\n      pop\n      pop\n      pop\n      pop\n      swap3\n      pop\n      pop\n      pop\n        /* \"AdminRoleManager.sol\":6123:6553  function newRole(... */\n      swap4\n      swap3\n      pop\n      pop\n      pop\n      jump\t// out\n        /* \"AdminRoleManager.sol\":3443:3546  function getRoleCount() public view returns (uint256 RoleCount) {... */\n    tag_61:\n        /* \"AdminRoleManager.sol\":3488:3505  uint256 RoleCount */\n      0x00\n        /* \"AdminRoleManager.sol\":3524:3532  roleList */\n      0x01\n        /* \"AdminRoleManager.sol\":3524:3539  roleList.length */\n      dup1\n      sload\n      swap1\n      pop\n        /* \"AdminRoleManager.sol\":3517:3539  return roleList.length */\n      swap1\n      pop\n        /* \"AdminRoleManager.sol\":3443:3546  function getRoleCount() public view returns (uint256 RoleCount) {... */\n      swap1\n      jump\t// out\n        /* \"AdminRoleManager.sol\":1762:2694  function importAccount(address[] memory add, string[] memory roles) public {... */\n    tag_67:\n        /* \"AdminRoleManager.sol\":1852:1861  uint256 i */\n      0x00\n        /* \"AdminRoleManager.sol\":1864:1865  0 */\n      dup1\n        /* \"AdminRoleManager.sol\":1852:1865  uint256 i = 0 */\n      swap1\n      pop\n        /* \"AdminRoleManager.sol\":1847:2688  for (uint256 i = 0; i < add.length; i++) {... */\n    tag_169:\n        /* \"AdminRoleManager.sol\":1871:1874  add */\n      dup3\n        /* \"AdminRoleManager.sol\":1871:1881  add.length */\n      mload\n        /* \"AdminRoleManager.sol\":1867:1868  i */\n      dup2\n        /* \"AdminRoleManager.sol\":1867:1881  i < add.length */\n      lt\n        /* \"AdminRoleManager.sol\":1847:2688  for (uint256 i = 0; i < add.length; i++) {... */\n      iszero\n      tag_170\n      jumpi\n        /* \"AdminRoleManager.sol\":1907:1921  isRole(add[i]) */\n      tag_172\n        /* \"AdminRoleManager.sol\":1914:1917  add */\n      dup4\n        /* \"AdminRoleManager.sol\":1918:1919  i */\n      dup3\n        /* \"AdminRoleManager.sol\":1914:1920  add[i] */\n      dup2\n      mload\n      dup2\n      lt\n      tag_173\n      jumpi\n      invalid\n    tag_173:\n      0x20\n      mul\n      0x20\n      add\n      add\n      mload\n        /* \"AdminRoleManager.sol\":1907:1913  isRole */\n      tag_54\n        /* \"AdminRoleManager.sol\":1907:1921  isRole(add[i]) */\n      jump\t// in\n    tag_172:\n        /* \"AdminRoleManager.sol\":1902:2678  if (!isRole(add[i])) {... */\n      tag_174\n      jumpi\n        /* \"AdminRoleManager.sol\":1941:2238  newRole(... */\n      tag_175\n        /* \"AdminRoleManager.sol\":1970:1973  add */\n      dup4\n        /* \"AdminRoleManager.sol\":1974:1975  i */\n      dup3\n        /* \"AdminRoleManager.sol\":1970:1976  add[i] */\n      dup2\n      mload\n      dup2\n      lt\n      tag_176\n      jumpi\n      invalid\n    tag_176:\n      0x20\n      mul\n      0x20\n      add\n      add\n      mload\n        /* \"AdminRoleManager.sol\":2120:2145  uint2str(roleList.length) */\n      tag_177\n        /* \"AdminRoleManager.sol\":2129:2137  roleList */\n      0x01\n        /* \"AdminRoleManager.sol\":2129:2144  roleList.length */\n      dup1\n      sload\n      swap1\n      pop\n        /* \"AdminRoleManager.sol\":2120:2128  uint2str */\n      tag_178\n        /* \"AdminRoleManager.sol\":2120:2145  uint2str(roleList.length) */\n      jump\t// in\n    tag_177:\n        /* \"AdminRoleManager.sol\":2030:2171  abi.encodePacked(... */\n      add(0x20, mload(0x40))\n      tag_179\n      swap2\n      swap1\n      jump(tag_180)\n    tag_179:\n      mload(0x40)\n        /* \"--CODEGEN--\":49:53   */\n      0x20\n        /* \"--CODEGEN--\":39:46   */\n      dup2\n        /* \"--CODEGEN--\":30:37   */\n      dup4\n        /* \"--CODEGEN--\":26:47   */\n      sub\n        /* \"--CODEGEN--\":22:54   */\n      sub\n        /* \"--CODEGEN--\":13:20   */\n      dup2\n        /* \"--CODEGEN--\":6:55   */\n      mstore\n        /* \"AdminRoleManager.sol\":2030:2171  abi.encodePacked(... */\n      swap1\n      0x40\n      mstore\n        /* \"AdminRoleManager.sol\":2215:2220  false */\n      0x00\n        /* \"AdminRoleManager.sol\":1941:1948  newRole */\n      tag_58\n        /* \"AdminRoleManager.sol\":1941:2238  newRole(... */\n      jump\t// in\n    tag_175:\n      pop\n        /* \"AdminRoleManager.sol\":2256:2285  AddElemRole(add[i], roles[i]) */\n      tag_181\n        /* \"AdminRoleManager.sol\":2268:2271  add */\n      dup4\n        /* \"AdminRoleManager.sol\":2272:2273  i */\n      dup3\n        /* \"AdminRoleManager.sol\":2268:2274  add[i] */\n      dup2\n      mload\n      dup2\n      lt\n      tag_182\n      jumpi\n      invalid\n    tag_182:\n      0x20\n      mul\n      0x20\n      add\n      add\n      mload\n        /* \"AdminRoleManager.sol\":2276:2281  roles */\n      dup4\n        /* \"AdminRoleManager.sol\":2282:2283  i */\n      dup4\n        /* \"AdminRoleManager.sol\":2276:2284  roles[i] */\n      dup2\n      mload\n      dup2\n      lt\n      tag_183\n      jumpi\n      invalid\n    tag_183:\n      0x20\n      mul\n      0x20\n      add\n      add\n      mload\n        /* \"AdminRoleManager.sol\":2256:2267  AddElemRole */\n      tag_71\n        /* \"AdminRoleManager.sol\":2256:2285  AddElemRole(add[i], roles[i]) */\n      jump\t// in\n    tag_181:\n        /* \"AdminRoleManager.sol\":1902:2678  if (!isRole(add[i])) {... */\n      jump(tag_184)\n    tag_174:\n        /* \"AdminRoleManager.sol\":2324:2338  uint256 isRole */\n      0x00\n        /* \"AdminRoleManager.sol\":2341:2342  0 */\n      dup1\n        /* \"AdminRoleManager.sol\":2324:2342  uint256 isRole = 0 */\n      swap1\n      pop\n        /* \"AdminRoleManager.sol\":2365:2374  uint256 j */\n      0x00\n        /* \"AdminRoleManager.sol\":2377:2378  0 */\n      dup1\n        /* \"AdminRoleManager.sol\":2365:2378  uint256 j = 0 */\n      swap1\n      pop\n        /* \"AdminRoleManager.sol\":2360:2560  for (uint256 j = 0; j < Roles[add[i]].roles.length; j++) {... */\n    tag_185:\n        /* \"AdminRoleManager.sol\":2384:2389  Roles */\n      0x00\n        /* \"AdminRoleManager.sol\":2384:2397  Roles[add[i]] */\n      dup1\n        /* \"AdminRoleManager.sol\":2390:2393  add */\n      dup7\n        /* \"AdminRoleManager.sol\":2394:2395  i */\n      dup6\n        /* \"AdminRoleManager.sol\":2390:2396  add[i] */\n      dup2\n      mload\n      dup2\n      lt\n      tag_188\n      jumpi\n      invalid\n    tag_188:\n      0x20\n      mul\n      0x20\n      add\n      add\n      mload\n        /* \"AdminRoleManager.sol\":2384:2397  Roles[add[i]] */\n      0xffffffffffffffffffffffffffffffffffffffff\n      and\n      0xffffffffffffffffffffffffffffffffffffffff\n      and\n      dup2\n      mstore\n      0x20\n      add\n      swap1\n      dup2\n      mstore\n      0x20\n      add\n      0x00\n      keccak256\n        /* \"AdminRoleManager.sol\":2384:2403  Roles[add[i]].roles */\n      0x02\n      add\n        /* \"AdminRoleManager.sol\":2384:2410  Roles[add[i]].roles.length */\n      dup1\n      sload\n      swap1\n      pop\n        /* \"AdminRoleManager.sol\":2380:2381  j */\n      dup2\n        /* \"AdminRoleManager.sol\":2380:2410  j < Roles[add[i]].roles.length */\n      lt\n        /* \"AdminRoleManager.sol\":2360:2560  for (uint256 j = 0; j < Roles[add[i]].roles.length; j++) {... */\n      iszero\n      tag_186\n      jumpi\n        /* \"AdminRoleManager.sol\":2479:2483  true */\n      0x01\n        /* \"AdminRoleManager.sol\":2443:2483  Roles[add[i]].rolesMap[roles[j]] == true */\n      iszero\n      iszero\n        /* \"AdminRoleManager.sol\":2443:2448  Roles */\n      0x00\n        /* \"AdminRoleManager.sol\":2443:2456  Roles[add[i]] */\n      dup1\n        /* \"AdminRoleManager.sol\":2449:2452  add */\n      dup8\n        /* \"AdminRoleManager.sol\":2453:2454  i */\n      dup7\n        /* \"AdminRoleManager.sol\":2449:2455  add[i] */\n      dup2\n      mload\n      dup2\n      lt\n      tag_189\n      jumpi\n      invalid\n    tag_189:\n      0x20\n      mul\n      0x20\n      add\n      add\n      mload\n        /* \"AdminRoleManager.sol\":2443:2456  Roles[add[i]] */\n      0xffffffffffffffffffffffffffffffffffffffff\n      and\n      0xffffffffffffffffffffffffffffffffffffffff\n      and\n      dup2\n      mstore\n      0x20\n      add\n      swap1\n      dup2\n      mstore\n      0x20\n      add\n      0x00\n      keccak256\n        /* \"AdminRoleManager.sol\":2443:2465  Roles[add[i]].rolesMap */\n      0x03\n      add\n        /* \"AdminRoleManager.sol\":2466:2471  roles */\n      dup6\n        /* \"AdminRoleManager.sol\":2472:2473  j */\n      dup4\n        /* \"AdminRoleManager.sol\":2466:2474  roles[j] */\n      dup2\n      mload\n      dup2\n      lt\n      tag_190\n      jumpi\n      invalid\n    tag_190:\n      0x20\n      mul\n      0x20\n      add\n      add\n      mload\n        /* \"AdminRoleManager.sol\":2443:2475  Roles[add[i]].rolesMap[roles[j]] */\n      mload(0x40)\n      tag_191\n      swap2\n      swap1\n      jump(tag_192)\n    tag_191:\n      swap1\n      dup2\n      mstore\n      0x20\n      add\n      mload(0x40)\n      dup1\n      swap2\n      sub\n      swap1\n      keccak256\n      0x00\n      swap1\n      sload\n      swap1\n      0x0100\n      exp\n      swap1\n      div\n      0xff\n      and\n        /* \"AdminRoleManager.sol\":2443:2483  Roles[add[i]].rolesMap[roles[j]] == true */\n      iszero\n      iszero\n      eq\n        /* \"AdminRoleManager.sol\":2439:2542  if (Roles[add[i]].rolesMap[roles[j]] == true) {... */\n      iszero\n      tag_193\n      jumpi\n        /* \"AdminRoleManager.sol\":2511:2519  isRole++ */\n      dup2\n      dup1\n      0x01\n      add\n      swap3\n      pop\n      pop\n        /* \"AdminRoleManager.sol\":2439:2542  if (Roles[add[i]].rolesMap[roles[j]] == true) {... */\n    tag_193:\n        /* \"AdminRoleManager.sol\":2412:2415  j++ */\n      dup1\n      dup1\n      0x01\n      add\n      swap2\n      pop\n      pop\n        /* \"AdminRoleManager.sol\":2360:2560  for (uint256 j = 0; j < Roles[add[i]].roles.length; j++) {... */\n      jump(tag_185)\n    tag_186:\n      pop\n        /* \"AdminRoleManager.sol\":2591:2592  0 */\n      0x00\n        /* \"AdminRoleManager.sol\":2581:2587  isRole */\n      dup2\n        /* \"AdminRoleManager.sol\":2581:2592  isRole == 0 */\n      eq\n        /* \"AdminRoleManager.sol\":2577:2664  if (isRole == 0) {... */\n      iszero\n      tag_194\n      jumpi\n        /* \"AdminRoleManager.sol\":2616:2645  AddElemRole(add[i], roles[i]) */\n      tag_195\n        /* \"AdminRoleManager.sol\":2628:2631  add */\n      dup5\n        /* \"AdminRoleManager.sol\":2632:2633  i */\n      dup4\n        /* \"AdminRoleManager.sol\":2628:2634  add[i] */\n      dup2\n      mload\n      dup2\n      lt\n      tag_196\n      jumpi\n      invalid\n    tag_196:\n      0x20\n      mul\n      0x20\n      add\n      add\n      mload\n        /* \"AdminRoleManager.sol\":2636:2641  roles */\n      dup5\n        /* \"AdminRoleManager.sol\":2642:2643  i */\n      dup5\n        /* \"AdminRoleManager.sol\":2636:2644  roles[i] */\n      dup2\n      mload\n      dup2\n      lt\n      tag_197\n      jumpi\n      invalid\n    tag_197:\n      0x20\n      mul\n      0x20\n      add\n      add\n      mload\n        /* \"AdminRoleManager.sol\":2616:2627  AddElemRole */\n      tag_71\n        /* \"AdminRoleManager.sol\":2616:2645  AddElemRole(add[i], roles[i]) */\n      jump\t// in\n    tag_195:\n        /* \"AdminRoleManager.sol\":2577:2664  if (isRole == 0) {... */\n    tag_194:\n        /* \"AdminRoleManager.sol\":1902:2678  if (!isRole(add[i])) {... */\n      pop\n    tag_184:\n        /* \"AdminRoleManager.sol\":1883:1886  i++ */\n      dup1\n      dup1\n      0x01\n      add\n      swap2\n      pop\n      pop\n        /* \"AdminRoleManager.sol\":1847:2688  for (uint256 i = 0; i < add.length; i++) {... */\n      jump(tag_169)\n    tag_170:\n      pop\n        /* \"AdminRoleManager.sol\":1762:2694  function importAccount(address[] memory add, string[] memory roles) public {... */\n      pop\n      pop\n      jump\t// out\n        /* \"AdminRoleManager.sol\":5003:5159  function AddElemRole(address add, string memory newRole) public {... */\n    tag_71:\n        /* \"AdminRoleManager.sol\":5077:5082  Roles */\n      0x00\n        /* \"AdminRoleManager.sol\":5077:5087  Roles[add] */\n      dup1\n        /* \"AdminRoleManager.sol\":5083:5086  add */\n      dup4\n        /* \"AdminRoleManager.sol\":5077:5087  Roles[add] */\n      0xffffffffffffffffffffffffffffffffffffffff\n      and\n      0xffffffffffffffffffffffffffffffffffffffff\n      and\n      dup2\n      mstore\n      0x20\n      add\n      swap1\n      dup2\n      mstore\n      0x20\n      add\n      0x00\n      keccak256\n        /* \"AdminRoleManager.sol\":5077:5093  Roles[add].roles */\n      0x02\n      add\n        /* \"AdminRoleManager.sol\":5099:5106  newRole */\n      dup2\n        /* \"AdminRoleManager.sol\":5077:5107  Roles[add].roles.push(newRole) */\n      swap1\n      dup1\n        /* \"--CODEGEN--\":39:40   */\n      0x01\n        /* \"--CODEGEN--\":33:36   */\n      dup2\n        /* \"--CODEGEN--\":27:37   */\n      sload\n        /* \"--CODEGEN--\":23:41   */\n      add\n        /* \"--CODEGEN--\":57:67   */\n      dup1\n        /* \"--CODEGEN--\":52:55   */\n      dup3\n        /* \"--CODEGEN--\":45:68   */\n      sstore\n        /* \"--CODEGEN--\":79:89   */\n      dup1\n        /* \"--CODEGEN--\":72:89   */\n      swap2\n      pop\n        /* \"--CODEGEN--\":0:93   */\n      pop\n        /* \"AdminRoleManager.sol\":5077:5107  Roles[add].roles.push(newRole) */\n      swap1\n      0x01\n      dup3\n      sub\n      swap1\n      0x00\n      mstore\n      keccak256(0x00, 0x20)\n      add\n      0x00\n      swap1\n      swap2\n      swap3\n      swap1\n      swap2\n      swap1\n      swap2\n      pop\n      swap1\n      dup1\n      mload\n      swap1\n      0x20\n      add\n      swap1\n      tag_200\n      swap3\n      swap2\n      swap1\n      tag_84\n      jump\t// in\n    tag_200:\n      pop\n      pop\n        /* \"AdminRoleManager.sol\":5148:5152  true */\n      0x01\n        /* \"AdminRoleManager.sol\":5117:5122  Roles */\n      0x00\n        /* \"AdminRoleManager.sol\":5117:5127  Roles[add] */\n      dup1\n        /* \"AdminRoleManager.sol\":5123:5126  add */\n      dup5\n        /* \"AdminRoleManager.sol\":5117:5127  Roles[add] */\n      0xffffffffffffffffffffffffffffffffffffffff\n      and\n      0xffffffffffffffffffffffffffffffffffffffff\n      and\n      dup2\n      mstore\n      0x20\n      add\n      swap1\n      dup2\n      mstore\n      0x20\n      add\n      0x00\n      keccak256\n        /* \"AdminRoleManager.sol\":5117:5136  Roles[add].rolesMap */\n      0x03\n      add\n        /* \"AdminRoleManager.sol\":5137:5144  newRole */\n      dup3\n        /* \"AdminRoleManager.sol\":5117:5145  Roles[add].rolesMap[newRole] */\n      mload(0x40)\n      tag_201\n      swap2\n      swap1\n      jump(tag_202)\n    tag_201:\n      swap1\n      dup2\n      mstore\n      0x20\n      add\n      mload(0x40)\n      dup1\n      swap2\n      sub\n      swap1\n      keccak256\n      0x00\n        /* \"AdminRoleManager.sol\":5117:5152  Roles[add].rolesMap[newRole] = true */\n      0x0100\n      exp\n      dup2\n      sload\n      dup2\n      0xff\n      mul\n      not\n      and\n      swap1\n      dup4\n      iszero\n      iszero\n      mul\n      or\n      swap1\n      sstore\n      pop\n        /* \"AdminRoleManager.sol\":5003:5159  function AddElemRole(address add, string memory newRole) public {... */\n      pop\n      pop\n      jump\t// out\n        /* \"AdminRoleManager.sol\":4226:4809  function getAccountRoles() public view returns (string[] memory list) {... */\n    tag_73:\n        /* \"AdminRoleManager.sol\":4274:4294  string[] memory list */\n      0x60\n        /* \"AdminRoleManager.sol\":4306:4333  string[] memory listofRoles */\n      dup1\n        /* \"AdminRoleManager.sol\":4349:4357  roleList */\n      0x01\n        /* \"AdminRoleManager.sol\":4349:4364  roleList.length */\n      dup1\n      sload\n      swap1\n      pop\n        /* \"AdminRoleManager.sol\":4336:4365  new string[](roleList.length) */\n      mload(0x40)\n      swap1\n      dup1\n      dup3\n      mstore\n      dup1\n      0x20\n      mul\n      0x20\n      add\n      dup3\n      add\n      0x40\n      mstore\n      dup1\n      iszero\n      tag_204\n      jumpi\n      dup2\n      0x20\n      add\n    tag_205:\n      0x60\n      dup2\n      mstore\n      0x20\n      add\n      swap1\n      0x01\n      swap1\n      sub\n      swap1\n      dup2\n      tag_205\n      jumpi\n      swap1\n      pop\n    tag_204:\n      pop\n        /* \"AdminRoleManager.sol\":4306:4365  string[] memory listofRoles = new string[](roleList.length) */\n      swap1\n      pop\n        /* \"AdminRoleManager.sol\":4380:4389  uint256 i */\n      0x00\n        /* \"AdminRoleManager.sol\":4392:4393  0 */\n      dup1\n        /* \"AdminRoleManager.sol\":4380:4393  uint256 i = 0 */\n      swap1\n      pop\n        /* \"AdminRoleManager.sol\":4375:4775  for (uint256 i = 0; i < roleList.length; i++) {... */\n    tag_206:\n        /* \"AdminRoleManager.sol\":4399:4407  roleList */\n      0x01\n        /* \"AdminRoleManager.sol\":4399:4414  roleList.length */\n      dup1\n      sload\n      swap1\n      pop\n        /* \"AdminRoleManager.sol\":4395:4396  i */\n      dup2\n        /* \"AdminRoleManager.sol\":4395:4414  i < roleList.length */\n      lt\n        /* \"AdminRoleManager.sol\":4375:4775  for (uint256 i = 0; i < roleList.length; i++) {... */\n      iszero\n      tag_207\n      jumpi\n        /* \"AdminRoleManager.sol\":4439:4448  uint256 j */\n      0x00\n        /* \"AdminRoleManager.sol\":4451:4452  0 */\n      dup1\n        /* \"AdminRoleManager.sol\":4439:4452  uint256 j = 0 */\n      swap1\n      pop\n        /* \"AdminRoleManager.sol\":4435:4765  for(uint256 j = 0; j < Roles[roleList[i]].roles.length; j++){... */\n    tag_209:\n        /* \"AdminRoleManager.sol\":4458:4463  Roles */\n      0x00\n        /* \"AdminRoleManager.sol\":4458:4476  Roles[roleList[i]] */\n      dup1\n        /* \"AdminRoleManager.sol\":4464:4472  roleList */\n      0x01\n        /* \"AdminRoleManager.sol\":4473:4474  i */\n      dup5\n        /* \"AdminRoleManager.sol\":4464:4475  roleList[i] */\n      dup2\n      sload\n      dup2\n      lt\n      tag_212\n      jumpi\n      invalid\n    tag_212:\n      swap1\n      0x00\n      mstore\n      keccak256(0x00, 0x20)\n      add\n      0x00\n      swap1\n      sload\n      swap1\n      0x0100\n      exp\n      swap1\n      div\n      0xffffffffffffffffffffffffffffffffffffffff\n      and\n        /* \"AdminRoleManager.sol\":4458:4476  Roles[roleList[i]] */\n      0xffffffffffffffffffffffffffffffffffffffff\n      and\n      0xffffffffffffffffffffffffffffffffffffffff\n      and\n      dup2\n      mstore\n      0x20\n      add\n      swap1\n      dup2\n      mstore\n      0x20\n      add\n      0x00\n      keccak256\n        /* \"AdminRoleManager.sol\":4458:4482  Roles[roleList[i]].roles */\n      0x02\n      add\n        /* \"AdminRoleManager.sol\":4458:4489  Roles[roleList[i]].roles.length */\n      dup1\n      sload\n      swap1\n      pop\n        /* \"AdminRoleManager.sol\":4454:4455  j */\n      dup2\n        /* \"AdminRoleManager.sol\":4454:4489  j < Roles[roleList[i]].roles.length */\n      lt\n        /* \"AdminRoleManager.sol\":4435:4765  for(uint256 j = 0; j < Roles[roleList[i]].roles.length; j++){... */\n      iszero\n      tag_210\n      jumpi\n        /* \"AdminRoleManager.sol\":4600:4605  Roles */\n      0x00\n        /* \"AdminRoleManager.sol\":4600:4618  Roles[roleList[i]] */\n      dup1\n        /* \"AdminRoleManager.sol\":4606:4614  roleList */\n      0x01\n        /* \"AdminRoleManager.sol\":4615:4616  i */\n      dup5\n        /* \"AdminRoleManager.sol\":4606:4617  roleList[i] */\n      dup2\n      sload\n      dup2\n      lt\n      tag_214\n      jumpi\n      invalid\n    tag_214:\n      swap1\n      0x00\n      mstore\n      keccak256(0x00, 0x20)\n      add\n      0x00\n      swap1\n      sload\n      swap1\n      0x0100\n      exp\n      swap1\n      div\n      0xffffffffffffffffffffffffffffffffffffffff\n      and\n        /* \"AdminRoleManager.sol\":4600:4618  Roles[roleList[i]] */\n      0xffffffffffffffffffffffffffffffffffffffff\n      and\n      0xffffffffffffffffffffffffffffffffffffffff\n      and\n      dup2\n      mstore\n      0x20\n      add\n      swap1\n      dup2\n      mstore\n      0x20\n      add\n      0x00\n      keccak256\n        /* \"AdminRoleManager.sol\":4600:4624  Roles[roleList[i]].roles */\n      0x02\n      add\n        /* \"AdminRoleManager.sol\":4625:4626  j */\n      dup2\n        /* \"AdminRoleManager.sol\":4600:4627  Roles[roleList[i]].roles[j] */\n      dup2\n      sload\n      dup2\n      lt\n      tag_216\n      jumpi\n      invalid\n    tag_216:\n      swap1\n      0x00\n      mstore\n      keccak256(0x00, 0x20)\n      add\n        /* \"AdminRoleManager.sol\":4684:4710  toAsciiString(roleList[i]) */\n      tag_218\n        /* \"AdminRoleManager.sol\":4698:4706  roleList */\n      0x01\n        /* \"AdminRoleManager.sol\":4707:4708  i */\n      dup5\n        /* \"AdminRoleManager.sol\":4698:4709  roleList[i] */\n      dup2\n      sload\n      dup2\n      lt\n      tag_219\n      jumpi\n      invalid\n    tag_219:\n      swap1\n      0x00\n      mstore\n      keccak256(0x00, 0x20)\n      add\n      0x00\n      swap1\n      sload\n      swap1\n      0x0100\n      exp\n      swap1\n      div\n      0xffffffffffffffffffffffffffffffffffffffff\n      and\n        /* \"AdminRoleManager.sol\":4684:4697  toAsciiString */\n      tag_112\n        /* \"AdminRoleManager.sol\":4684:4710  toAsciiString(roleList[i]) */\n      jump\t// in\n    tag_218:\n        /* \"AdminRoleManager.sol\":4558:4732  abi.encodePacked(... */\n      add(0x20, mload(0x40))\n      tag_221\n      swap3\n      swap2\n      swap1\n      jump(tag_222)\n    tag_221:\n      mload(0x40)\n        /* \"--CODEGEN--\":49:53   */\n      0x20\n        /* \"--CODEGEN--\":39:46   */\n      dup2\n        /* \"--CODEGEN--\":30:37   */\n      dup4\n        /* \"--CODEGEN--\":26:47   */\n      sub\n        /* \"--CODEGEN--\":22:54   */\n      sub\n        /* \"--CODEGEN--\":13:20   */\n      dup2\n        /* \"--CODEGEN--\":6:55   */\n      mstore\n        /* \"AdminRoleManager.sol\":4558:4732  abi.encodePacked(... */\n      swap1\n      0x40\n      mstore\n        /* \"AdminRoleManager.sol\":4513:4524  listofRoles */\n      dup4\n        /* \"AdminRoleManager.sol\":4525:4526  i */\n      dup4\n        /* \"AdminRoleManager.sol\":4513:4527  listofRoles[i] */\n      dup2\n      mload\n      dup2\n      lt\n      tag_223\n      jumpi\n      invalid\n    tag_223:\n      0x20\n      mul\n      0x20\n      add\n      add\n        /* \"AdminRoleManager.sol\":4513:4750  listofRoles[i] = string(... */\n      dup2\n      swap1\n      mstore\n      pop\n        /* \"AdminRoleManager.sol\":4491:4494  j++ */\n      dup1\n      dup1\n      0x01\n      add\n      swap2\n      pop\n      pop\n        /* \"AdminRoleManager.sol\":4435:4765  for(uint256 j = 0; j < Roles[roleList[i]].roles.length; j++){... */\n      jump(tag_209)\n    tag_210:\n      pop\n        /* \"AdminRoleManager.sol\":4416:4419  i++ */\n      dup1\n      dup1\n      0x01\n      add\n      swap2\n      pop\n      pop\n        /* \"AdminRoleManager.sol\":4375:4775  for (uint256 i = 0; i < roleList.length; i++) {... */\n      jump(tag_206)\n    tag_207:\n      pop\n        /* \"AdminRoleManager.sol\":4791:4802  listofRoles */\n      dup1\n        /* \"AdminRoleManager.sol\":4784:4802  return listofRoles */\n      swap2\n      pop\n      pop\n        /* \"AdminRoleManager.sol\":4226:4809  function getAccountRoles() public view returns (string[] memory list) {... */\n      swap1\n      jump\t// out\n        /* \"AdminRoleManager.sol\":2700:2924  function compareStringsbyBytes(string memory s1, string memory s2)... */\n    tag_78:\n        /* \"AdminRoleManager.sol\":2812:2816  bool */\n      0x00\n        /* \"AdminRoleManager.sol\":2913:2915  s2 */\n      dup2\n        /* \"AdminRoleManager.sol\":2896:2916  abi.encodePacked(s2) */\n      add(0x20, mload(0x40))\n      tag_225\n      swap2\n      swap1\n      jump(tag_202)\n    tag_225:\n      mload(0x40)\n        /* \"--CODEGEN--\":49:53   */\n      0x20\n        /* \"--CODEGEN--\":39:46   */\n      dup2\n        /* \"--CODEGEN--\":30:37   */\n      dup4\n        /* \"--CODEGEN--\":26:47   */\n      sub\n        /* \"--CODEGEN--\":22:54   */\n      sub\n        /* \"--CODEGEN--\":13:20   */\n      dup2\n        /* \"--CODEGEN--\":6:55   */\n      mstore\n        /* \"AdminRoleManager.sol\":2896:2916  abi.encodePacked(s2) */\n      swap1\n      0x40\n      mstore\n        /* \"AdminRoleManager.sol\":2886:2917  keccak256(abi.encodePacked(s2)) */\n      dup1\n      mload\n      swap1\n      0x20\n      add\n      keccak256\n        /* \"AdminRoleManager.sol\":2878:2880  s1 */\n      dup4\n        /* \"AdminRoleManager.sol\":2861:2881  abi.encodePacked(s1) */\n      add(0x20, mload(0x40))\n      tag_226\n      swap2\n      swap1\n      jump(tag_202)\n    tag_226:\n      mload(0x40)\n        /* \"--CODEGEN--\":49:53   */\n      0x20\n        /* \"--CODEGEN--\":39:46   */\n      dup2\n        /* \"--CODEGEN--\":30:37   */\n      dup4\n        /* \"--CODEGEN--\":26:47   */\n      sub\n        /* \"--CODEGEN--\":22:54   */\n      sub\n        /* \"--CODEGEN--\":13:20   */\n      dup2\n        /* \"--CODEGEN--\":6:55   */\n      mstore\n        /* \"AdminRoleManager.sol\":2861:2881  abi.encodePacked(s1) */\n      swap1\n      0x40\n      mstore\n        /* \"AdminRoleManager.sol\":2851:2882  keccak256(abi.encodePacked(s1)) */\n      dup1\n      mload\n      swap1\n      0x20\n      add\n      keccak256\n        /* \"AdminRoleManager.sol\":2851:2917  keccak256(abi.encodePacked(s1)) == keccak256(abi.encodePacked(s2)) */\n      eq\n        /* \"AdminRoleManager.sol\":2832:2917  return... */\n      swap1\n      pop\n        /* \"AdminRoleManager.sol\":2700:2924  function compareStringsbyBytes(string memory s1, string memory s2)... */\n      swap3\n      swap2\n      pop\n      pop\n      jump\t// out\n        /* \"AdminRoleManager.sol\":5488:5943  function toAsciiString(address x) internal view returns (string memory) {... */\n    tag_112:\n        /* \"AdminRoleManager.sol\":5545:5558  string memory */\n      0x60\n        /* \"AdminRoleManager.sol\":5570:5584  bytes memory s */\n      dup1\n        /* \"AdminRoleManager.sol\":5597:5599  40 */\n      0x28\n        /* \"AdminRoleManager.sol\":5587:5600  new bytes(40) */\n      mload(0x40)\n      swap1\n      dup1\n      dup3\n      mstore\n      dup1\n      0x1f\n      add\n      not(0x1f)\n      and\n      0x20\n      add\n      dup3\n      add\n      0x40\n      mstore\n      dup1\n      iszero\n      tag_228\n      jumpi\n      dup2\n      0x20\n      add\n        /* \"--CODEGEN--\":29:30   */\n      0x01\n        /* \"--CODEGEN--\":21:27   */\n      dup3\n        /* \"--CODEGEN--\":17:31   */\n      mul\n        /* \"--CODEGEN--\":116:120   */\n      dup1\n        /* \"--CODEGEN--\":104:114   */\n      codesize\n        /* \"--CODEGEN--\":96:102   */\n      dup4\n        /* \"--CODEGEN--\":87:121   */\n      codecopy\n        /* \"--CODEGEN--\":147:151   */\n      dup1\n        /* \"--CODEGEN--\":139:145   */\n      dup3\n        /* \"--CODEGEN--\":135:152   */\n      add\n        /* \"--CODEGEN--\":125:152   */\n      swap2\n      pop\n        /* \"--CODEGEN--\":0:156   */\n      pop\n        /* \"AdminRoleManager.sol\":5587:5600  new bytes(40) */\n      swap1\n      pop\n    tag_228:\n      pop\n        /* \"AdminRoleManager.sol\":5570:5600  bytes memory s = new bytes(40) */\n      swap1\n      pop\n        /* \"AdminRoleManager.sol\":5615:5624  uint256 i */\n      0x00\n        /* \"AdminRoleManager.sol\":5627:5628  0 */\n      dup1\n        /* \"AdminRoleManager.sol\":5615:5628  uint256 i = 0 */\n      swap1\n      pop\n        /* \"AdminRoleManager.sol\":5610:5911  for (uint256 i = 0; i < 20; i++) {... */\n    tag_229:\n        /* \"AdminRoleManager.sol\":5634:5636  20 */\n      0x14\n        /* \"AdminRoleManager.sol\":5630:5631  i */\n      dup2\n        /* \"AdminRoleManager.sol\":5630:5636  i < 20 */\n      lt\n        /* \"AdminRoleManager.sol\":5610:5911  for (uint256 i = 0; i < 20; i++) {... */\n      iszero\n      tag_230\n      jumpi\n        /* \"AdminRoleManager.sol\":5657:5665  bytes1 b */\n      0x00\n        /* \"AdminRoleManager.sol\":5718:5719  i */\n      dup2\n        /* \"AdminRoleManager.sol\":5713:5715  19 */\n      0x13\n        /* \"AdminRoleManager.sol\":5713:5719  19 - i */\n      sub\n        /* \"AdminRoleManager.sol\":5708:5709  8 */\n      0x08\n        /* \"AdminRoleManager.sol\":5708:5720  8 * (19 - i) */\n      mul\n        /* \"AdminRoleManager.sol\":5704:5705  2 */\n      0x02\n        /* \"AdminRoleManager.sol\":5704:5721  2**(8 * (19 - i)) */\n      exp\n        /* \"AdminRoleManager.sol\":5697:5698  x */\n      dup6\n        /* \"AdminRoleManager.sol\":5681:5700  uint256(uint160(x)) */\n      0xffffffffffffffffffffffffffffffffffffffff\n      and\n        /* \"AdminRoleManager.sol\":5681:5722  uint256(uint160(x)) / (2**(8 * (19 - i))) */\n      dup2\n      tag_232\n      jumpi\n      invalid\n    tag_232:\n      div\n        /* \"AdminRoleManager.sol\":5668:5724  bytes1(uint8(uint256(uint160(x)) / (2**(8 * (19 - i))))) */\n      0xf8\n      shl\n        /* \"AdminRoleManager.sol\":5657:5724  bytes1 b = bytes1(uint8(uint256(uint160(x)) / (2**(8 * (19 - i))))) */\n      swap1\n      pop\n        /* \"AdminRoleManager.sol\":5738:5747  bytes1 hi */\n      0x00\n        /* \"AdminRoleManager.sol\":5768:5770  16 */\n      0x10\n        /* \"AdminRoleManager.sol\":5763:5764  b */\n      dup3\n        /* \"AdminRoleManager.sol\":5757:5765  uint8(b) */\n      0xf8\n      shr\n        /* \"AdminRoleManager.sol\":5757:5770  uint8(b) / 16 */\n      0xff\n      and\n      dup2\n      tag_233\n      jumpi\n      invalid\n    tag_233:\n      div\n        /* \"AdminRoleManager.sol\":5750:5771  bytes1(uint8(b) / 16) */\n      0xf8\n      shl\n        /* \"AdminRoleManager.sol\":5738:5771  bytes1 hi = bytes1(uint8(b) / 16) */\n      swap1\n      pop\n        /* \"AdminRoleManager.sol\":5785:5794  bytes1 lo */\n      0x00\n        /* \"AdminRoleManager.sol\":5826:5828  hi */\n      dup2\n        /* \"AdminRoleManager.sol\":5820:5829  uint8(hi) */\n      0xf8\n      shr\n        /* \"AdminRoleManager.sol\":5815:5817  16 */\n      0x10\n        /* \"AdminRoleManager.sol\":5815:5829  16 * uint8(hi) */\n      mul\n        /* \"AdminRoleManager.sol\":5810:5811  b */\n      dup4\n        /* \"AdminRoleManager.sol\":5804:5812  uint8(b) */\n      0xf8\n      shr\n        /* \"AdminRoleManager.sol\":5804:5829  uint8(b) - 16 * uint8(hi) */\n      sub\n        /* \"AdminRoleManager.sol\":5797:5830  bytes1(uint8(b) - 16 * uint8(hi)) */\n      0xf8\n      shl\n        /* \"AdminRoleManager.sol\":5785:5830  bytes1 lo = bytes1(uint8(b) - 16 * uint8(hi)) */\n      swap1\n      pop\n        /* \"AdminRoleManager.sol\":5855:5863  char(hi) */\n      tag_234\n        /* \"AdminRoleManager.sol\":5860:5862  hi */\n      dup3\n        /* \"AdminRoleManager.sol\":5855:5859  char */\n      tag_235\n        /* \"AdminRoleManager.sol\":5855:5863  char(hi) */\n      jump\t// in\n    tag_234:\n        /* \"AdminRoleManager.sol\":5844:5845  s */\n      dup6\n        /* \"AdminRoleManager.sol\":5850:5851  i */\n      dup6\n        /* \"AdminRoleManager.sol\":5846:5847  2 */\n      0x02\n        /* \"AdminRoleManager.sol\":5846:5851  2 * i */\n      mul\n        /* \"AdminRoleManager.sol\":5844:5852  s[2 * i] */\n      dup2\n      mload\n      dup2\n      lt\n      tag_236\n      jumpi\n      invalid\n    tag_236:\n      0x20\n      add\n      add\n        /* \"AdminRoleManager.sol\":5844:5863  s[2 * i] = char(hi) */\n      swap1\n      not(0xffffffffffffffffffffffffffffffffffffffffffffffffffffffffffffff)\n      and\n      swap1\n      dup2\n      0x00\n      byte\n      swap1\n      mstore8\n      pop\n        /* \"AdminRoleManager.sol\":5892:5900  char(lo) */\n      tag_237\n        /* \"AdminRoleManager.sol\":5897:5899  lo */\n      dup2\n        /* \"AdminRoleManager.sol\":5892:5896  char */\n      tag_235\n        /* \"AdminRoleManager.sol\":5892:5900  char(lo) */\n      jump\t// in\n    tag_237:\n        /* \"AdminRoleManager.sol\":5877:5878  s */\n      dup6\n        /* \"AdminRoleManager.sol\":5887:5888  1 */\n      0x01\n        /* \"AdminRoleManager.sol\":5883:5884  i */\n      dup7\n        /* \"AdminRoleManager.sol\":5879:5880  2 */\n      0x02\n        /* \"AdminRoleManager.sol\":5879:5884  2 * i */\n      mul\n        /* \"AdminRoleManager.sol\":5879:5888  2 * i + 1 */\n      add\n        /* \"AdminRoleManager.sol\":5877:5889  s[2 * i + 1] */\n      dup2\n      mload\n      dup2\n      lt\n      tag_238\n      jumpi\n      invalid\n    tag_238:\n      0x20\n      add\n      add\n        /* \"AdminRoleManager.sol\":5877:5900  s[2 * i + 1] = char(lo) */\n      swap1\n      not(0xffffffffffffffffffffffffffffffffffffffffffffffffffffffffffffff)\n      and\n      swap1\n      dup2\n      0x00\n      byte\n      swap1\n      mstore8\n      pop\n        /* \"AdminRoleManager.sol\":5610:5911  for (uint256 i = 0; i < 20; i++) {... */\n      pop\n      pop\n      pop\n        /* \"AdminRoleManager.sol\":5638:5641  i++ */\n      dup1\n      dup1\n      0x01\n      add\n      swap2\n      pop\n      pop\n        /* \"AdminRoleManager.sol\":5610:5911  for (uint256 i = 0; i < 20; i++) {... */\n      jump(tag_229)\n    tag_230:\n      pop\n        /* \"AdminRoleManager.sol\":5934:5935  s */\n      dup1\n        /* \"AdminRoleManager.sol\":5920:5936  return string(s) */\n      swap2\n      pop\n      pop\n        /* \"AdminRoleManager.sol\":5488:5943  function toAsciiString(address x) internal view returns (string memory) {... */\n      swap2\n      swap1\n      pop\n      jump\t// out\n        /* \"AdminRoleManager.sol\":2930:3437  function uint2str(uint256 _i)... */\n    tag_178:\n        /* \"AdminRoleManager.sol\":3007:3034  string memory _uintAsString */\n      0x60\n        /* \"AdminRoleManager.sol\":3060:3061  0 */\n      0x00\n        /* \"AdminRoleManager.sol\":3054:3056  _i */\n      dup3\n        /* \"AdminRoleManager.sol\":3054:3061  _i == 0 */\n      eq\n        /* \"AdminRoleManager.sol\":3050:3098  if (_i == 0) {... */\n      iszero\n      tag_240\n      jumpi\n        /* \"AdminRoleManager.sol\":3077:3087  return \"0\" */\n      mload(0x40)\n      dup1\n      0x40\n      add\n      0x40\n      mstore\n      dup1\n      0x01\n      dup2\n      mstore\n      0x20\n      add\n      0x3000000000000000000000000000000000000000000000000000000000000000\n      dup2\n      mstore\n      pop\n      swap1\n      pop\n      jump(tag_239)\n        /* \"AdminRoleManager.sol\":3050:3098  if (_i == 0) {... */\n    tag_240:\n        /* \"AdminRoleManager.sol\":3107:3116  uint256 j */\n      0x00\n        /* \"AdminRoleManager.sol\":3119:3121  _i */\n      dup3\n        /* \"AdminRoleManager.sol\":3107:3121  uint256 j = _i */\n      swap1\n      pop\n        /* \"AdminRoleManager.sol\":3131:3142  uint256 len */\n      0x00\n        /* \"AdminRoleManager.sol\":3152:3218  while (j != 0) {... */\n    tag_241:\n        /* \"AdminRoleManager.sol\":3164:3165  0 */\n      0x00\n        /* \"AdminRoleManager.sol\":3159:3160  j */\n      dup3\n        /* \"AdminRoleManager.sol\":3159:3165  j != 0 */\n      eq\n        /* \"AdminRoleManager.sol\":3152:3218  while (j != 0) {... */\n      tag_242\n      jumpi\n        /* \"AdminRoleManager.sol\":3181:3186  len++ */\n      dup1\n      dup1\n      0x01\n      add\n      swap2\n      pop\n      pop\n        /* \"AdminRoleManager.sol\":3205:3207  10 */\n      0x0a\n        /* \"AdminRoleManager.sol\":3200:3207  j /= 10 */\n      dup3\n      dup2\n      tag_243\n      jumpi\n      invalid\n    tag_243:\n      div\n      swap2\n      pop\n        /* \"AdminRoleManager.sol\":3152:3218  while (j != 0) {... */\n      jump(tag_241)\n    tag_242:\n        /* \"AdminRoleManager.sol\":3227:3244  bytes memory bstr */\n      0x60\n        /* \"AdminRoleManager.sol\":3257:3260  len */\n      dup2\n        /* \"AdminRoleManager.sol\":3247:3261  new bytes(len) */\n      mload(0x40)\n      swap1\n      dup1\n      dup3\n      mstore\n      dup1\n      0x1f\n      add\n      not(0x1f)\n      and\n      0x20\n      add\n      dup3\n      add\n      0x40\n      mstore\n      dup1\n      iszero\n      tag_244\n      jumpi\n      dup2\n      0x20\n      add\n        /* \"--CODEGEN--\":29:30   */\n      0x01\n        /* \"--CODEGEN--\":21:27   */\n      dup3\n        /* \"--CODEGEN--\":17:31   */\n      mul\n        /* \"--CODEGEN--\":116:120   */\n      dup1\n        /* \"--CODEGEN--\":104:114   */\n      codesize\n        /* \"--CODEGEN--\":96:102   */\n      dup4\n        /* \"--CODEGEN--\":87:121   */\n      codecopy\n        /* \"--CODEGEN--\":147:151   */\n      dup1\n        /* \"--CODEGEN--\":139:145   */\n      dup3\n        /* \"--CODEGEN--\":135:152   */\n      add\n        /* \"--CODEGEN--\":125:152   */\n      swap2\n      pop\n        /* \"--CODEGEN--\":0:156   */\n      pop\n        /* \"AdminRoleManager.sol\":3247:3261  new bytes(len) */\n      swap1\n      pop\n    tag_244:\n      pop\n        /* \"AdminRoleManager.sol\":3227:3261  bytes memory bstr = new bytes(len) */\n      swap1\n      pop\n        /* \"AdminRoleManager.sol\":3271:3280  uint256 k */\n      0x00\n        /* \"AdminRoleManager.sol\":3289:3290  1 */\n      0x01\n        /* \"AdminRoleManager.sol\":3283:3286  len */\n      dup4\n        /* \"AdminRoleManager.sol\":3283:3290  len - 1 */\n      sub\n        /* \"AdminRoleManager.sol\":3271:3290  uint256 k = len - 1 */\n      swap1\n      pop\n        /* \"AdminRoleManager.sol\":3300:3402  while (_i != 0) {... */\n    tag_245:\n        /* \"AdminRoleManager.sol\":3313:3314  0 */\n      0x00\n        /* \"AdminRoleManager.sol\":3307:3309  _i */\n      dup7\n        /* \"AdminRoleManager.sol\":3307:3314  _i != 0 */\n      eq\n        /* \"AdminRoleManager.sol\":3300:3402  while (_i != 0) {... */\n      tag_246\n      jumpi\n        /* \"AdminRoleManager.sol\":3364:3366  10 */\n      0x0a\n        /* \"AdminRoleManager.sol\":3359:3361  _i */\n      dup7\n        /* \"AdminRoleManager.sol\":3359:3366  _i % 10 */\n      dup2\n      tag_247\n      jumpi\n      invalid\n    tag_247:\n      mod\n        /* \"AdminRoleManager.sol\":3353:3355  48 */\n      0x30\n        /* \"AdminRoleManager.sol\":3353:3367  48 + (_i % 10) */\n      add\n        /* \"AdminRoleManager.sol\":3342:3369  byte(uint8(48 + (_i % 10))) */\n      0xf8\n      shl\n        /* \"AdminRoleManager.sol\":3330:3334  bstr */\n      dup3\n        /* \"AdminRoleManager.sol\":3335:3338  k-- */\n      dup3\n      dup1\n      0x01\n      swap1\n      sub\n      swap4\n      pop\n        /* \"AdminRoleManager.sol\":3330:3339  bstr[k--] */\n      dup2\n      mload\n      dup2\n      lt\n      tag_248\n      jumpi\n      invalid\n    tag_248:\n      0x20\n      add\n      add\n        /* \"AdminRoleManager.sol\":3330:3369  bstr[k--] = byte(uint8(48 + (_i % 10))) */\n      swap1\n      not(0xffffffffffffffffffffffffffffffffffffffffffffffffffffffffffffff)\n      and\n      swap1\n      dup2\n      0x00\n      byte\n      swap1\n      mstore8\n      pop\n        /* \"AdminRoleManager.sol\":3389:3391  10 */\n      0x0a\n        /* \"AdminRoleManager.sol\":3383:3391  _i /= 10 */\n      dup7\n      dup2\n      tag_249\n      jumpi\n      invalid\n    tag_249:\n      div\n      swap6\n      pop\n        /* \"AdminRoleManager.sol\":3300:3402  while (_i != 0) {... */\n      jump(tag_245)\n    tag_246:\n        /* \"AdminRoleManager.sol\":3425:3429  bstr */\n      dup2\n        /* \"AdminRoleManager.sol\":3411:3430  return string(bstr) */\n      swap5\n      pop\n      pop\n      pop\n      pop\n      pop\n        /* \"AdminRoleManager.sol\":2930:3437  function uint2str(uint256 _i)... */\n    tag_239:\n      swap2\n      swap1\n      pop\n      jump\t// out\n        /* \"AdminRoleManager.sol\":5949:6117  function char(bytes1 b) internal view returns (bytes1 c) {... */\n    tag_235:\n        /* \"AdminRoleManager.sol\":5996:6004  bytes1 c */\n      0x00\n        /* \"AdminRoleManager.sol\":6031:6033  10 */\n      0x0a\n        /* \"AdminRoleManager.sol\":6026:6027  b */\n      dup3\n        /* \"AdminRoleManager.sol\":6020:6028  uint8(b) */\n      0xf8\n      shr\n        /* \"AdminRoleManager.sol\":6020:6033  uint8(b) < 10 */\n      0xff\n      and\n      lt\n        /* \"AdminRoleManager.sol\":6016:6110  if (uint8(b) < 10) return bytes1(uint8(b) + 0x30);... */\n      iszero\n      tag_251\n      jumpi\n        /* \"AdminRoleManager.sol\":6060:6064  0x30 */\n      0x30\n        /* \"AdminRoleManager.sol\":6055:6056  b */\n      dup3\n        /* \"AdminRoleManager.sol\":6049:6057  uint8(b) */\n      0xf8\n      shr\n        /* \"AdminRoleManager.sol\":6049:6064  uint8(b) + 0x30 */\n      add\n        /* \"AdminRoleManager.sol\":6042:6065  bytes1(uint8(b) + 0x30) */\n      0xf8\n      shl\n        /* \"AdminRoleManager.sol\":6035:6065  return bytes1(uint8(b) + 0x30) */\n      swap1\n      pop\n      jump(tag_250)\n        /* \"AdminRoleManager.sol\":6016:6110  if (uint8(b) < 10) return bytes1(uint8(b) + 0x30);... */\n    tag_251:\n        /* \"AdminRoleManager.sol\":6105:6109  0x57 */\n      0x57\n        /* \"AdminRoleManager.sol\":6100:6101  b */\n      dup3\n        /* \"AdminRoleManager.sol\":6094:6102  uint8(b) */\n      0xf8\n      shr\n        /* \"AdminRoleManager.sol\":6094:6109  uint8(b) + 0x57 */\n      add\n        /* \"AdminRoleManager.sol\":6087:6110  bytes1(uint8(b) + 0x57) */\n      0xf8\n      shl\n        /* \"AdminRoleManager.sol\":6080:6110  return bytes1(uint8(b) + 0x57) */\n      swap1\n      pop\n        /* \"AdminRoleManager.sol\":5949:6117  function char(bytes1 b) internal view returns (bytes1 c) {... */\n    tag_250:\n      swap2\n      swap1\n      pop\n      jump\t// out\n        /* \"AdminRoleManager.sol\":60:6850  contract AdminRoleManager {... */\n    tag_84:\n      dup3\n      dup1\n      sload\n      0x01\n      dup2\n      0x01\n      and\n      iszero\n      0x0100\n      mul\n      sub\n      and\n      0x02\n      swap1\n      div\n      swap1\n      0x00\n      mstore\n      keccak256(0x00, 0x20)\n      swap1\n      0x1f\n      add\n      0x20\n      swap1\n      div\n      dup2\n      add\n      swap3\n      dup3\n      0x1f\n      lt\n      tag_254\n      jumpi\n      dup1\n      mload\n      not(0xff)\n      and\n      dup4\n      dup1\n      add\n      or\n      dup6\n      sstore\n      jump(tag_253)\n    tag_254:\n      dup3\n      dup1\n      add\n      0x01\n      add\n      dup6\n      sstore\n      dup3\n      iszero\n      tag_253\n      jumpi\n      swap2\n      dup3\n      add\n    tag_255:\n      dup3\n      dup2\n      gt\n      iszero\n      tag_256\n      jumpi\n      dup3\n      mload\n      dup3\n      sstore\n      swap2\n      0x20\n      add\n      swap2\n      swap1\n      0x01\n      add\n      swap1\n      jump(tag_255)\n    tag_256:\n    tag_253:\n      pop\n      swap1\n      pop\n      tag_257\n      swap2\n      swap1\n      tag_258\n      jump\t// in\n    tag_257:\n      pop\n      swap1\n      jump\t// out\n    tag_148:\n      dup3\n      dup1\n      sload\n      0x01\n      dup2\n      0x01\n      and\n      iszero\n      0x0100\n      mul\n      sub\n      and\n      0x02\n      swap1\n      div\n      swap1\n      0x00\n      mstore\n      keccak256(0x00, 0x20)\n      swap1\n      0x1f\n      add\n      0x20\n      swap1\n      div\n      dup2\n      add\n      swap3\n      dup3\n      0x1f\n      lt\n      tag_260\n      jumpi\n      dup1\n      sload\n      dup6\n      sstore\n      jump(tag_259)\n    tag_260:\n      dup3\n      dup1\n      add\n      0x01\n      add\n      dup6\n      sstore\n      dup3\n      iszero\n      tag_259\n      jumpi\n      0x00\n      mstore\n      keccak256(0x00, 0x20)\n      swap2\n      0x1f\n      add\n      0x20\n      swap1\n      div\n      dup3\n      add\n    tag_261:\n      dup3\n      dup2\n      gt\n      iszero\n      tag_262\n      jumpi\n      dup3\n      sload\n      dup3\n      sstore\n      swap2\n      0x01\n      add\n      swap2\n      swap1\n      0x01\n      add\n      swap1\n      jump(tag_261)\n    tag_262:\n    tag_259:\n      pop\n      swap1\n      pop\n      tag_263\n      swap2\n      swap1\n      tag_258\n      jump\t// in\n    tag_263:\n      pop\n      swap1\n      jump\t// out\n    tag_150:\n      dup2\n      sload\n      dup2\n      dup4\n      sstore\n      dup2\n      dup2\n      gt\n      iszero\n      tag_264\n      jumpi\n      dup2\n      dup4\n      0x00\n      mstore\n      keccak256(0x00, 0x20)\n      swap2\n      dup3\n      add\n      swap2\n      add\n      tag_265\n      swap2\n      swap1\n      tag_266\n      jump\t// in\n    tag_265:\n    tag_264:\n      pop\n      pop\n      pop\n      jump\t// out\n    tag_158:\n      mload(0x40)\n      dup1\n      0x80\n      add\n      0x40\n      mstore\n      dup1\n      0x60\n      dup2\n      mstore\n      0x20\n      add\n      iszero(iszero(0x00))\n      dup2\n      mstore\n      0x20\n      add\n      iszero(iszero(0x00))\n      dup2\n      mstore\n      0x20\n      add\n      0x60\n      dup2\n      mstore\n      pop\n      swap1\n      jump\t// out\n    tag_160:\n      dup3\n      dup1\n      sload\n      0x01\n      dup2\n      0x01\n      and\n      iszero\n      0x0100\n      mul\n      sub\n      and\n      0x02\n      swap1\n      div\n      swap1\n      0x00\n      mstore\n      keccak256(0x00, 0x20)\n      swap1\n      0x1f\n      add\n      0x20\n      swap1\n      div\n      dup2\n      add\n      swap3\n      dup3\n      0x1f\n      lt\n      tag_268\n      jumpi\n      dup1\n      mload\n      not(0xff)\n      and\n      dup4\n      dup1\n      add\n      or\n      dup6\n      sstore\n      jump(tag_267)\n    tag_268:\n      dup3\n      dup1\n      add\n      0x01\n      add\n      dup6\n      sstore\n      dup3\n      iszero\n      tag_267\n      jumpi\n      swap2\n      dup3\n      add\n    tag_269:\n      dup3\n      dup2\n      gt\n      iszero\n      tag_270\n      jumpi\n      dup3\n      mload\n      dup3\n      sstore\n      swap2\n      0x20\n      add\n      swap2\n      swap1\n      0x01\n      add\n      swap1\n      jump(tag_269)\n    tag_270:\n    tag_267:\n      pop\n      swap1\n      pop\n      tag_271\n      swap2\n      swap1\n      tag_258\n      jump\t// in\n    tag_271:\n      pop\n      swap1\n      jump\t// out\n    tag_162:\n      dup3\n      dup1\n      sload\n      dup3\n      dup3\n      sstore\n      swap1\n      0x00\n      mstore\n      keccak256(0x00, 0x20)\n      swap1\n      dup2\n      add\n      swap3\n      dup3\n      iszero\n      tag_272\n      jumpi\n      swap2\n      0x20\n      mul\n      dup3\n      add\n    tag_273:\n      dup3\n      dup2\n      gt\n      iszero\n      tag_274\n      jumpi\n      dup3\n      mload\n      dup3\n      swap1\n      dup1\n      mload\n      swap1\n      0x20\n      add\n      swap1\n      tag_275\n      swap3\n      swap2\n      swap1\n      tag_160\n      jump\t// in\n    tag_275:\n      pop\n      swap2\n      0x20\n      add\n      swap2\n      swap1\n      0x01\n      add\n      swap1\n      jump(tag_273)\n    tag_274:\n    tag_272:\n      pop\n      swap1\n      pop\n      tag_276\n      swap2\n      swap1\n      tag_266\n      jump\t// in\n    tag_276:\n      pop\n      swap1\n      jump\t// out\n    tag_258:\n      tag_277\n      swap2\n      swap1\n    tag_278:\n      dup1\n      dup3\n      gt\n      iszero\n      tag_279\n      jumpi\n      0x00\n      dup2\n      0x00\n      swap1\n      sstore\n      pop\n      0x01\n      add\n      jump(tag_278)\n    tag_279:\n      pop\n      swap1\n      jump\n    tag_277:\n      swap1\n      jump\t// out\n    tag_266:\n      tag_280\n      swap2\n      swap1\n    tag_281:\n      dup1\n      dup3\n      gt\n      iszero\n      tag_282\n      jumpi\n      0x00\n      dup2\n      dup2\n      tag_283\n      swap2\n      swap1\n      tag_284\n      jump\t// in\n    tag_283:\n      pop\n      0x01\n      add\n      jump(tag_281)\n    tag_282:\n      pop\n      swap1\n      jump\n    tag_280:\n      swap1\n      jump\t// out\n    tag_284:\n      pop\n      dup1\n      sload\n      0x01\n      dup2\n      0x01\n      and\n      iszero\n      0x0100\n      mul\n      sub\n      and\n      0x02\n      swap1\n      div\n      0x00\n      dup3\n      sstore\n      dup1\n      0x1f\n      lt\n      tag_286\n      jumpi\n      pop\n      jump(tag_285)\n    tag_286:\n      0x1f\n      add\n      0x20\n      swap1\n      div\n      swap1\n      0x00\n      mstore\n      keccak256(0x00, 0x20)\n      swap1\n      dup2\n      add\n      swap1\n      tag_287\n      swap2\n      swap1\n      tag_258\n      jump\t// in\n    tag_287:\n    tag_285:\n      pop\n      jump\t// out\n        /* \"--CODEGEN--\":5:135   */\n    tag_289:\n      0x00\n        /* \"--CODEGEN--\":85:91   */\n      dup2\n        /* \"--CODEGEN--\":72:92   */\n      calldataload\n        /* \"--CODEGEN--\":63:92   */\n      swap1\n      pop\n        /* \"--CODEGEN--\":97:130   */\n      tag_290\n        /* \"--CODEGEN--\":124:129   */\n      dup2\n        /* \"--CODEGEN--\":97:130   */\n      jump(tag_291)\n    tag_290:\n        /* \"--CODEGEN--\":57:135   */\n      swap3\n      swap2\n      pop\n      pop\n      jump\n        /* \"--CODEGEN--\":160:867   */\n    tag_292:\n      0x00\n        /* \"--CODEGEN--\":277:280   */\n      dup3\n        /* \"--CODEGEN--\":270:274   */\n      0x1f\n        /* \"--CODEGEN--\":262:268   */\n      dup4\n        /* \"--CODEGEN--\":258:275   */\n      add\n        /* \"--CODEGEN--\":254:281   */\n      slt\n        /* \"--CODEGEN--\":244:246   */\n      tag_293\n      jumpi\n        /* \"--CODEGEN--\":295:296   */\n      0x00\n        /* \"--CODEGEN--\":292:293   */\n      dup1\n        /* \"--CODEGEN--\":285:297   */\n      revert\n        /* \"--CODEGEN--\":244:246   */\n    tag_293:\n        /* \"--CODEGEN--\":332:338   */\n      dup2\n        /* \"--CODEGEN--\":319:339   */\n      calldataload\n        /* \"--CODEGEN--\":354:434   */\n      tag_294\n        /* \"--CODEGEN--\":369:433   */\n      tag_295\n        /* \"--CODEGEN--\":426:432   */\n      dup3\n        /* \"--CODEGEN--\":369:433   */\n      jump(tag_296)\n    tag_295:\n        /* \"--CODEGEN--\":354:434   */\n      jump(tag_297)\n    tag_294:\n        /* \"--CODEGEN--\":345:434   */\n      swap2\n      pop\n        /* \"--CODEGEN--\":451:456   */\n      dup2\n        /* \"--CODEGEN--\":476:482   */\n      dup2\n        /* \"--CODEGEN--\":469:474   */\n      dup4\n        /* \"--CODEGEN--\":462:483   */\n      mstore\n        /* \"--CODEGEN--\":506:510   */\n      0x20\n        /* \"--CODEGEN--\":498:504   */\n      dup5\n        /* \"--CODEGEN--\":494:511   */\n      add\n        /* \"--CODEGEN--\":484:511   */\n      swap4\n      pop\n        /* \"--CODEGEN--\":528:532   */\n      0x20\n        /* \"--CODEGEN--\":523:526   */\n      dup2\n        /* \"--CODEGEN--\":519:533   */\n      add\n        /* \"--CODEGEN--\":512:533   */\n      swap1\n      pop\n        /* \"--CODEGEN--\":581:587   */\n      dup4\n        /* \"--CODEGEN--\":628:631   */\n      dup6\n        /* \"--CODEGEN--\":620:624   */\n      0x20\n        /* \"--CODEGEN--\":612:618   */\n      dup5\n        /* \"--CODEGEN--\":608:625   */\n      mul\n        /* \"--CODEGEN--\":603:606   */\n      dup3\n        /* \"--CODEGEN--\":599:626   */\n      add\n        /* \"--CODEGEN--\":596:632   */\n      gt\n        /* \"--CODEGEN--\":593:595   */\n      iszero\n      tag_298\n      jumpi\n        /* \"--CODEGEN--\":645:646   */\n      0x00\n        /* \"--CODEGEN--\":642:643   */\n      dup1\n        /* \"--CODEGEN--\":635:647   */\n      revert\n        /* \"--CODEGEN--\":593:595   */\n    tag_298:\n        /* \"--CODEGEN--\":670:671   */\n      0x00\n        /* \"--CODEGEN--\":655:861   */\n    tag_299:\n        /* \"--CODEGEN--\":680:686   */\n      dup4\n        /* \"--CODEGEN--\":677:678   */\n      dup2\n        /* \"--CODEGEN--\":674:687   */\n      lt\n        /* \"--CODEGEN--\":655:861   */\n      iszero\n      tag_301\n      jumpi\n        /* \"--CODEGEN--\":738:741   */\n      dup2\n        /* \"--CODEGEN--\":760:797   */\n      tag_302\n        /* \"--CODEGEN--\":793:796   */\n      dup9\n        /* \"--CODEGEN--\":781:791   */\n      dup3\n        /* \"--CODEGEN--\":760:797   */\n      jump(tag_289)\n    tag_302:\n        /* \"--CODEGEN--\":755:758   */\n      dup5\n        /* \"--CODEGEN--\":748:798   */\n      mstore\n        /* \"--CODEGEN--\":821:825   */\n      0x20\n        /* \"--CODEGEN--\":816:819   */\n      dup5\n        /* \"--CODEGEN--\":812:826   */\n      add\n        /* \"--CODEGEN--\":805:826   */\n      swap4\n      pop\n        /* \"--CODEGEN--\":849:853   */\n      0x20\n        /* \"--CODEGEN--\":844:847   */\n      dup4\n        /* \"--CODEGEN--\":840:854   */\n      add\n        /* \"--CODEGEN--\":833:854   */\n      swap3\n      pop\n        /* \"--CODEGEN--\":712:861   */\n      pop\n        /* \"--CODEGEN--\":702:703   */\n      0x01\n        /* \"--CODEGEN--\":699:700   */\n      dup2\n        /* \"--CODEGEN--\":695:704   */\n      add\n        /* \"--CODEGEN--\":690:704   */\n      swap1\n      pop\n        /* \"--CODEGEN--\":655:861   */\n      jump(tag_299)\n    tag_301:\n        /* \"--CODEGEN--\":659:673   */\n      pop\n        /* \"--CODEGEN--\":237:867   */\n      pop\n      pop\n      pop\n      swap3\n      swap2\n      pop\n      pop\n      jump\n        /* \"--CODEGEN--\":892:1588   */\n    tag_303:\n      0x00\n        /* \"--CODEGEN--\":1015:1018   */\n      dup3\n        /* \"--CODEGEN--\":1008:1012   */\n      0x1f\n        /* \"--CODEGEN--\":1000:1006   */\n      dup4\n        /* \"--CODEGEN--\":996:1013   */\n      add\n        /* \"--CODEGEN--\":992:1019   */\n      slt\n        /* \"--CODEGEN--\":982:984   */\n      tag_304\n      jumpi\n        /* \"--CODEGEN--\":1033:1034   */\n      0x00\n        /* \"--CODEGEN--\":1030:1031   */\n      dup1\n        /* \"--CODEGEN--\":1023:1035   */\n      revert\n        /* \"--CODEGEN--\":982:984   */\n    tag_304:\n        /* \"--CODEGEN--\":1070:1076   */\n      dup2\n        /* \"--CODEGEN--\":1057:1077   */\n      calldataload\n        /* \"--CODEGEN--\":1092:1178   */\n      tag_305\n        /* \"--CODEGEN--\":1107:1177   */\n      tag_306\n        /* \"--CODEGEN--\":1170:1176   */\n      dup3\n        /* \"--CODEGEN--\":1107:1177   */\n      jump(tag_307)\n    tag_306:\n        /* \"--CODEGEN--\":1092:1178   */\n      jump(tag_297)\n    tag_305:\n        /* \"--CODEGEN--\":1083:1178   */\n      swap2\n      pop\n        /* \"--CODEGEN--\":1195:1200   */\n      dup2\n        /* \"--CODEGEN--\":1220:1226   */\n      dup2\n        /* \"--CODEGEN--\":1213:1218   */\n      dup4\n        /* \"--CODEGEN--\":1206:1227   */\n      mstore\n        /* \"--CODEGEN--\":1250:1254   */\n      0x20\n        /* \"--CODEGEN--\":1242:1248   */\n      dup5\n        /* \"--CODEGEN--\":1238:1255   */\n      add\n        /* \"--CODEGEN--\":1228:1255   */\n      swap4\n      pop\n        /* \"--CODEGEN--\":1272:1276   */\n      0x20\n        /* \"--CODEGEN--\":1267:1270   */\n      dup2\n        /* \"--CODEGEN--\":1263:1277   */\n      add\n        /* \"--CODEGEN--\":1256:1277   */\n      swap1\n      pop\n        /* \"--CODEGEN--\":1325:1331   */\n      dup4\n        /* \"--CODEGEN--\":1358:1359   */\n      0x00\n        /* \"--CODEGEN--\":1343:1582   */\n    tag_308:\n        /* \"--CODEGEN--\":1368:1374   */\n      dup4\n        /* \"--CODEGEN--\":1365:1366   */\n      dup2\n        /* \"--CODEGEN--\":1362:1375   */\n      lt\n        /* \"--CODEGEN--\":1343:1582   */\n      iszero\n      tag_310\n      jumpi\n        /* \"--CODEGEN--\":1451:1454   */\n      dup2\n        /* \"--CODEGEN--\":1438:1455   */\n      calldataload\n        /* \"--CODEGEN--\":1430:1436   */\n      dup7\n        /* \"--CODEGEN--\":1426:1456   */\n      add\n        /* \"--CODEGEN--\":1475:1518   */\n      tag_311\n        /* \"--CODEGEN--\":1514:1517   */\n      dup9\n        /* \"--CODEGEN--\":1502:1512   */\n      dup3\n        /* \"--CODEGEN--\":1475:1518   */\n      jump(tag_312)\n    tag_311:\n        /* \"--CODEGEN--\":1470:1473   */\n      dup5\n        /* \"--CODEGEN--\":1463:1519   */\n      mstore\n        /* \"--CODEGEN--\":1542:1546   */\n      0x20\n        /* \"--CODEGEN--\":1537:1540   */\n      dup5\n        /* \"--CODEGEN--\":1533:1547   */\n      add\n        /* \"--CODEGEN--\":1526:1547   */\n      swap4\n      pop\n        /* \"--CODEGEN--\":1570:1574   */\n      0x20\n        /* \"--CODEGEN--\":1565:1568   */\n      dup4\n        /* \"--CODEGEN--\":1561:1575   */\n      add\n        /* \"--CODEGEN--\":1554:1575   */\n      swap3\n      pop\n        /* \"--CODEGEN--\":1400:1582   */\n      pop\n        /* \"--CODEGEN--\":1390:1391   */\n      0x01\n        /* \"--CODEGEN--\":1387:1388   */\n      dup2\n        /* \"--CODEGEN--\":1383:1392   */\n      add\n        /* \"--CODEGEN--\":1378:1392   */\n      swap1\n      pop\n        /* \"--CODEGEN--\":1343:1582   */\n      jump(tag_308)\n    tag_310:\n        /* \"--CODEGEN--\":1347:1361   */\n      pop\n        /* \"--CODEGEN--\":975:1588   */\n      pop\n      pop\n      pop\n      swap3\n      swap2\n      pop\n      pop\n      jump\n        /* \"--CODEGEN--\":1596:1720   */\n    tag_313:\n      0x00\n        /* \"--CODEGEN--\":1673:1679   */\n      dup2\n        /* \"--CODEGEN--\":1660:1680   */\n      calldataload\n        /* \"--CODEGEN--\":1651:1680   */\n      swap1\n      pop\n        /* \"--CODEGEN--\":1685:1715   */\n      tag_314\n        /* \"--CODEGEN--\":1709:1714   */\n      dup2\n        /* \"--CODEGEN--\":1685:1715   */\n      jump(tag_315)\n    tag_314:\n        /* \"--CODEGEN--\":1645:1720   */\n      swap3\n      swap2\n      pop\n      pop\n      jump\n        /* \"--CODEGEN--\":1728:2162   */\n    tag_312:\n      0x00\n        /* \"--CODEGEN--\":1826:1829   */\n      dup3\n        /* \"--CODEGEN--\":1819:1823   */\n      0x1f\n        /* \"--CODEGEN--\":1811:1817   */\n      dup4\n        /* \"--CODEGEN--\":1807:1824   */\n      add\n        /* \"--CODEGEN--\":1803:1830   */\n      slt\n        /* \"--CODEGEN--\":1793:1795   */\n      tag_316\n      jumpi\n        /* \"--CODEGEN--\":1844:1845   */\n      0x00\n        /* \"--CODEGEN--\":1841:1842   */\n      dup1\n        /* \"--CODEGEN--\":1834:1846   */\n      revert\n        /* \"--CODEGEN--\":1793:1795   */\n    tag_316:\n        /* \"--CODEGEN--\":1881:1887   */\n      dup2\n        /* \"--CODEGEN--\":1868:1888   */\n      calldataload\n        /* \"--CODEGEN--\":1903:1964   */\n      tag_317\n        /* \"--CODEGEN--\":1918:1963   */\n      tag_318\n        /* \"--CODEGEN--\":1956:1962   */\n      dup3\n        /* \"--CODEGEN--\":1918:1963   */\n      jump(tag_319)\n    tag_318:\n        /* \"--CODEGEN--\":1903:1964   */\n      jump(tag_297)\n    tag_317:\n        /* \"--CODEGEN--\":1894:1964   */\n      swap2\n      pop\n        /* \"--CODEGEN--\":1984:1990   */\n      dup1\n        /* \"--CODEGEN--\":1977:1982   */\n      dup3\n        /* \"--CODEGEN--\":1970:1991   */\n      mstore\n        /* \"--CODEGEN--\":2020:2024   */\n      0x20\n        /* \"--CODEGEN--\":2012:2018   */\n      dup4\n        /* \"--CODEGEN--\":2008:2025   */\n      add\n        /* \"--CODEGEN--\":2053:2057   */\n      0x20\n        /* \"--CODEGEN--\":2046:2051   */\n      dup4\n        /* \"--CODEGEN--\":2042:2058   */\n      add\n        /* \"--CODEGEN--\":2088:2091   */\n      dup6\n        /* \"--CODEGEN--\":2079:2085   */\n      dup4\n        /* \"--CODEGEN--\":2074:2077   */\n      dup4\n        /* \"--CODEGEN--\":2070:2086   */\n      add\n        /* \"--CODEGEN--\":2067:2092   */\n      gt\n        /* \"--CODEGEN--\":2064:2066   */\n      iszero\n      tag_320\n      jumpi\n        /* \"--CODEGEN--\":2105:2106   */\n      0x00\n        /* \"--CODEGEN--\":2102:2103   */\n      dup1\n        /* \"--CODEGEN--\":2095:2107   */\n      revert\n        /* \"--CODEGEN--\":2064:2066   */\n    tag_320:\n        /* \"--CODEGEN--\":2115:2156   */\n      tag_321\n        /* \"--CODEGEN--\":2149:2155   */\n      dup4\n        /* \"--CODEGEN--\":2144:2147   */\n      dup3\n        /* \"--CODEGEN--\":2139:2142   */\n      dup5\n        /* \"--CODEGEN--\":2115:2156   */\n      jump(tag_322)\n    tag_321:\n        /* \"--CODEGEN--\":1786:2162   */\n      pop\n      pop\n      pop\n      swap3\n      swap2\n      pop\n      pop\n      jump\n        /* \"--CODEGEN--\":2171:2613   */\n    tag_323:\n      0x00\n        /* \"--CODEGEN--\":2273:2276   */\n      dup3\n        /* \"--CODEGEN--\":2266:2270   */\n      0x1f\n        /* \"--CODEGEN--\":2258:2264   */\n      dup4\n        /* \"--CODEGEN--\":2254:2271   */\n      add\n        /* \"--CODEGEN--\":2250:2277   */\n      slt\n        /* \"--CODEGEN--\":2240:2242   */\n      tag_324\n      jumpi\n        /* \"--CODEGEN--\":2291:2292   */\n      0x00\n        /* \"--CODEGEN--\":2288:2289   */\n      dup1\n        /* \"--CODEGEN--\":2281:2293   */\n      revert\n        /* \"--CODEGEN--\":2240:2242   */\n    tag_324:\n        /* \"--CODEGEN--\":2328:2334   */\n      dup2\n        /* \"--CODEGEN--\":2315:2335   */\n      calldataload\n        /* \"--CODEGEN--\":2350:2415   */\n      tag_325\n        /* \"--CODEGEN--\":2365:2414   */\n      tag_326\n        /* \"--CODEGEN--\":2407:2413   */\n      dup3\n        /* \"--CODEGEN--\":2365:2414   */\n      jump(tag_327)\n    tag_326:\n        /* \"--CODEGEN--\":2350:2415   */\n      jump(tag_297)\n    tag_325:\n        /* \"--CODEGEN--\":2341:2415   */\n      swap2\n      pop\n        /* \"--CODEGEN--\":2435:2441   */\n      dup1\n        /* \"--CODEGEN--\":2428:2433   */\n      dup3\n        /* \"--CODEGEN--\":2421:2442   */\n      mstore\n        /* \"--CODEGEN--\":2471:2475   */\n      0x20\n        /* \"--CODEGEN--\":2463:2469   */\n      dup4\n        /* \"--CODEGEN--\":2459:2476   */\n      add\n        /* \"--CODEGEN--\":2504:2508   */\n      0x20\n        /* \"--CODEGEN--\":2497:2502   */\n      dup4\n        /* \"--CODEGEN--\":2493:2509   */\n      add\n        /* \"--CODEGEN--\":2539:2542   */\n      dup6\n        /* \"--CODEGEN--\":2530:2536   */\n      dup4\n        /* \"--CODEGEN--\":2525:2528   */\n      dup4\n        /* \"--CODEGEN--\":2521:2537   */\n      add\n        /* \"--CODEGEN--\":2518:2543   */\n      gt\n        /* \"--CODEGEN--\":2515:2517   */\n      iszero\n      tag_328\n      jumpi\n        /* \"--CODEGEN--\":2556:2557   */\n      0x00\n        /* \"--CODEGEN--\":2553:2554   */\n      dup1\n        /* \"--CODEGEN--\":2546:2558   */\n      revert\n        /* \"--CODEGEN--\":2515:2517   */\n    tag_328:\n        /* \"--CODEGEN--\":2566:2607   */\n      tag_329\n        /* \"--CODEGEN--\":2600:2606   */\n      dup4\n        /* \"--CODEGEN--\":2595:2598   */\n      dup3\n        /* \"--CODEGEN--\":2590:2593   */\n      dup5\n        /* \"--CODEGEN--\":2566:2607   */\n      jump(tag_322)\n    tag_329:\n        /* \"--CODEGEN--\":2233:2613   */\n      pop\n      pop\n      pop\n      swap3\n      swap2\n      pop\n      pop\n      jump\n        /* \"--CODEGEN--\":2621:2751   */\n    tag_330:\n      0x00\n        /* \"--CODEGEN--\":2701:2707   */\n      dup2\n        /* \"--CODEGEN--\":2688:2708   */\n      calldataload\n        /* \"--CODEGEN--\":2679:2708   */\n      swap1\n      pop\n        /* \"--CODEGEN--\":2713:2746   */\n      tag_331\n        /* \"--CODEGEN--\":2740:2745   */\n      dup2\n        /* \"--CODEGEN--\":2713:2746   */\n      jump(tag_332)\n    tag_331:\n        /* \"--CODEGEN--\":2673:2751   */\n      swap3\n      swap2\n      pop\n      pop\n      jump\n        /* \"--CODEGEN--\":2758:2999   */\n    tag_28:\n      0x00\n        /* \"--CODEGEN--\":2862:2864   */\n      0x20\n        /* \"--CODEGEN--\":2850:2859   */\n      dup3\n        /* \"--CODEGEN--\":2841:2848   */\n      dup5\n        /* \"--CODEGEN--\":2837:2860   */\n      sub\n        /* \"--CODEGEN--\":2833:2865   */\n      slt\n        /* \"--CODEGEN--\":2830:2832   */\n      iszero\n      tag_333\n      jumpi\n        /* \"--CODEGEN--\":2878:2879   */\n      0x00\n        /* \"--CODEGEN--\":2875:2876   */\n      dup1\n        /* \"--CODEGEN--\":2868:2880   */\n      revert\n        /* \"--CODEGEN--\":2830:2832   */\n    tag_333:\n        /* \"--CODEGEN--\":2913:2914   */\n      0x00\n        /* \"--CODEGEN--\":2930:2983   */\n      tag_334\n        /* \"--CODEGEN--\":2975:2982   */\n      dup5\n        /* \"--CODEGEN--\":2966:2972   */\n      dup3\n        /* \"--CODEGEN--\":2955:2964   */\n      dup6\n        /* \"--CODEGEN--\":2951:2973   */\n      add\n        /* \"--CODEGEN--\":2930:2983   */\n      jump(tag_289)\n    tag_334:\n        /* \"--CODEGEN--\":2920:2983   */\n      swap2\n      pop\n        /* \"--CODEGEN--\":2892:2989   */\n      pop\n        /* \"--CODEGEN--\":2824:2999   */\n      swap3\n      swap2\n      pop\n      pop\n      jump\n        /* \"--CODEGEN--\":3006:3478   */\n    tag_70:\n      0x00\n      dup1\n        /* \"--CODEGEN--\":3137:3139   */\n      0x40\n        /* \"--CODEGEN--\":3125:3134   */\n      dup4\n        /* \"--CODEGEN--\":3116:3123   */\n      dup6\n        /* \"--CODEGEN--\":3112:3135   */\n      sub\n        /* \"--CODEGEN--\":3108:3140   */\n      slt\n        /* \"--CODEGEN--\":3105:3107   */\n      iszero\n      tag_335\n      jumpi\n        /* \"--CODEGEN--\":3153:3154   */\n      0x00\n        /* \"--CODEGEN--\":3150:3151   */\n      dup1\n        /* \"--CODEGEN--\":3143:3155   */\n      revert\n        /* \"--CODEGEN--\":3105:3107   */\n    tag_335:\n        /* \"--CODEGEN--\":3188:3189   */\n      0x00\n        /* \"--CODEGEN--\":3205:3258   */\n      tag_336\n        /* \"--CODEGEN--\":3250:3257   */\n      dup6\n        /* \"--CODEGEN--\":3241:3247   */\n      dup3\n        /* \"--CODEGEN--\":3230:3239   */\n      dup7\n        /* \"--CODEGEN--\":3226:3248   */\n      add\n        /* \"--CODEGEN--\":3205:3258   */\n      jump(tag_289)\n    tag_336:\n        /* \"--CODEGEN--\":3195:3258   */\n      swap3\n      pop\n        /* \"--CODEGEN--\":3167:3264   */\n      pop\n        /* \"--CODEGEN--\":3323:3325   */\n      0x20\n        /* \"--CODEGEN--\":3312:3321   */\n      dup4\n        /* \"--CODEGEN--\":3308:3326   */\n      add\n        /* \"--CODEGEN--\":3295:3327   */\n      calldataload\n        /* \"--CODEGEN--\":3347:3365   */\n      0xffffffffffffffff\n        /* \"--CODEGEN--\":3339:3345   */\n      dup2\n        /* \"--CODEGEN--\":3336:3366   */\n      gt\n        /* \"--CODEGEN--\":3333:3335   */\n      iszero\n      tag_337\n      jumpi\n        /* \"--CODEGEN--\":3379:3380   */\n      0x00\n        /* \"--CODEGEN--\":3376:3377   */\n      dup1\n        /* \"--CODEGEN--\":3369:3381   */\n      revert\n        /* \"--CODEGEN--\":3333:3335   */\n    tag_337:\n        /* \"--CODEGEN--\":3399:3462   */\n      tag_338\n        /* \"--CODEGEN--\":3454:3461   */\n      dup6\n        /* \"--CODEGEN--\":3445:3451   */\n      dup3\n        /* \"--CODEGEN--\":3434:3443   */\n      dup7\n        /* \"--CODEGEN--\":3430:3452   */\n      add\n        /* \"--CODEGEN--\":3399:3462   */\n      jump(tag_323)\n    tag_338:\n        /* \"--CODEGEN--\":3389:3462   */\n      swap2\n      pop\n        /* \"--CODEGEN--\":3274:3468   */\n      pop\n        /* \"--CODEGEN--\":3099:3478   */\n      swap3\n      pop\n      swap3\n      swap1\n      pop\n      jump\n        /* \"--CODEGEN--\":3485:4076   */\n    tag_22:\n      0x00\n      dup1\n      0x00\n        /* \"--CODEGEN--\":3630:3632   */\n      0x60\n        /* \"--CODEGEN--\":3618:3627   */\n      dup5\n        /* \"--CODEGEN--\":3609:3616   */\n      dup7\n        /* \"--CODEGEN--\":3605:3628   */\n      sub\n        /* \"--CODEGEN--\":3601:3633   */\n      slt\n        /* \"--CODEGEN--\":3598:3600   */\n      iszero\n      tag_339\n      jumpi\n        /* \"--CODEGEN--\":3646:3647   */\n      0x00\n        /* \"--CODEGEN--\":3643:3644   */\n      dup1\n        /* \"--CODEGEN--\":3636:3648   */\n      revert\n        /* \"--CODEGEN--\":3598:3600   */\n    tag_339:\n        /* \"--CODEGEN--\":3681:3682   */\n      0x00\n        /* \"--CODEGEN--\":3698:3751   */\n      tag_340\n        /* \"--CODEGEN--\":3743:3750   */\n      dup7\n        /* \"--CODEGEN--\":3734:3740   */\n      dup3\n        /* \"--CODEGEN--\":3723:3732   */\n      dup8\n        /* \"--CODEGEN--\":3719:3741   */\n      add\n        /* \"--CODEGEN--\":3698:3751   */\n      jump(tag_289)\n    tag_340:\n        /* \"--CODEGEN--\":3688:3751   */\n      swap4\n      pop\n        /* \"--CODEGEN--\":3660:3757   */\n      pop\n        /* \"--CODEGEN--\":3816:3818   */\n      0x20\n        /* \"--CODEGEN--\":3805:3814   */\n      dup5\n        /* \"--CODEGEN--\":3801:3819   */\n      add\n        /* \"--CODEGEN--\":3788:3820   */\n      calldataload\n        /* \"--CODEGEN--\":3840:3858   */\n      0xffffffffffffffff\n        /* \"--CODEGEN--\":3832:3838   */\n      dup2\n        /* \"--CODEGEN--\":3829:3859   */\n      gt\n        /* \"--CODEGEN--\":3826:3828   */\n      iszero\n      tag_341\n      jumpi\n        /* \"--CODEGEN--\":3872:3873   */\n      0x00\n        /* \"--CODEGEN--\":3869:3870   */\n      dup1\n        /* \"--CODEGEN--\":3862:3874   */\n      revert\n        /* \"--CODEGEN--\":3826:3828   */\n    tag_341:\n        /* \"--CODEGEN--\":3892:3955   */\n      tag_342\n        /* \"--CODEGEN--\":3947:3954   */\n      dup7\n        /* \"--CODEGEN--\":3938:3944   */\n      dup3\n        /* \"--CODEGEN--\":3927:3936   */\n      dup8\n        /* \"--CODEGEN--\":3923:3945   */\n      add\n        /* \"--CODEGEN--\":3892:3955   */\n      jump(tag_323)\n    tag_342:\n        /* \"--CODEGEN--\":3882:3955   */\n      swap3\n      pop\n        /* \"--CODEGEN--\":3767:3961   */\n      pop\n        /* \"--CODEGEN--\":3992:3994   */\n      0x40\n        /* \"--CODEGEN--\":4010:4060   */\n      tag_343\n        /* \"--CODEGEN--\":4052:4059   */\n      dup7\n        /* \"--CODEGEN--\":4043:4049   */\n      dup3\n        /* \"--CODEGEN--\":4032:4041   */\n      dup8\n        /* \"--CODEGEN--\":4028:4050   */\n      add\n        /* \"--CODEGEN--\":4010:4060   */\n      jump(tag_313)\n    tag_343:\n        /* \"--CODEGEN--\":4000:4060   */\n      swap2\n      pop\n        /* \"--CODEGEN--\":3971:4066   */\n      pop\n        /* \"--CODEGEN--\":3592:4076   */\n      swap3\n      pop\n      swap3\n      pop\n      swap3\n      jump\n        /* \"--CODEGEN--\":4083:4449   */\n    tag_50:\n      0x00\n      dup1\n        /* \"--CODEGEN--\":4204:4206   */\n      0x40\n        /* \"--CODEGEN--\":4192:4201   */\n      dup4\n        /* \"--CODEGEN--\":4183:4190   */\n      dup6\n        /* \"--CODEGEN--\":4179:4202   */\n      sub\n        /* \"--CODEGEN--\":4175:4207   */\n      slt\n        /* \"--CODEGEN--\":4172:4174   */\n      iszero\n      tag_344\n      jumpi\n        /* \"--CODEGEN--\":4220:4221   */\n      0x00\n        /* \"--CODEGEN--\":4217:4218   */\n      dup1\n        /* \"--CODEGEN--\":4210:4222   */\n      revert\n        /* \"--CODEGEN--\":4172:4174   */\n    tag_344:\n        /* \"--CODEGEN--\":4255:4256   */\n      0x00\n        /* \"--CODEGEN--\":4272:4325   */\n      tag_345\n        /* \"--CODEGEN--\":4317:4324   */\n      dup6\n        /* \"--CODEGEN--\":4308:4314   */\n      dup3\n        /* \"--CODEGEN--\":4297:4306   */\n      dup7\n        /* \"--CODEGEN--\":4293:4315   */\n      add\n        /* \"--CODEGEN--\":4272:4325   */\n      jump(tag_289)\n    tag_345:\n        /* \"--CODEGEN--\":4262:4325   */\n      swap3\n      pop\n        /* \"--CODEGEN--\":4234:4331   */\n      pop\n        /* \"--CODEGEN--\":4362:4364   */\n      0x20\n        /* \"--CODEGEN--\":4380:4433   */\n      tag_346\n        /* \"--CODEGEN--\":4425:4432   */\n      dup6\n        /* \"--CODEGEN--\":4416:4422   */\n      dup3\n        /* \"--CODEGEN--\":4405:4414   */\n      dup7\n        /* \"--CODEGEN--\":4401:4423   */\n      add\n        /* \"--CODEGEN--\":4380:4433   */\n      jump(tag_330)\n    tag_346:\n        /* \"--CODEGEN--\":4370:4433   */\n      swap2\n      pop\n        /* \"--CODEGEN--\":4341:4439   */\n      pop\n        /* \"--CODEGEN--\":4166:4449   */\n      swap3\n      pop\n      swap3\n      swap1\n      pop\n      jump\n        /* \"--CODEGEN--\":4456:5106   */\n    tag_66:\n      0x00\n      dup1\n        /* \"--CODEGEN--\":4633:4635   */\n      0x40\n        /* \"--CODEGEN--\":4621:4630   */\n      dup4\n        /* \"--CODEGEN--\":4612:4619   */\n      dup6\n        /* \"--CODEGEN--\":4608:4631   */\n      sub\n        /* \"--CODEGEN--\":4604:4636   */\n      slt\n        /* \"--CODEGEN--\":4601:4603   */\n      iszero\n      tag_347\n      jumpi\n        /* \"--CODEGEN--\":4649:4650   */\n      0x00\n        /* \"--CODEGEN--\":4646:4647   */\n      dup1\n        /* \"--CODEGEN--\":4639:4651   */\n      revert\n        /* \"--CODEGEN--\":4601:4603   */\n    tag_347:\n        /* \"--CODEGEN--\":4712:4713   */\n      0x00\n        /* \"--CODEGEN--\":4701:4710   */\n      dup4\n        /* \"--CODEGEN--\":4697:4714   */\n      add\n        /* \"--CODEGEN--\":4684:4715   */\n      calldataload\n        /* \"--CODEGEN--\":4735:4753   */\n      0xffffffffffffffff\n        /* \"--CODEGEN--\":4727:4733   */\n      dup2\n        /* \"--CODEGEN--\":4724:4754   */\n      gt\n        /* \"--CODEGEN--\":4721:4723   */\n      iszero\n      tag_348\n      jumpi\n        /* \"--CODEGEN--\":4767:4768   */\n      0x00\n        /* \"--CODEGEN--\":4764:4765   */\n      dup1\n        /* \"--CODEGEN--\":4757:4769   */\n      revert\n        /* \"--CODEGEN--\":4721:4723   */\n    tag_348:\n        /* \"--CODEGEN--\":4787:4865   */\n      tag_349\n        /* \"--CODEGEN--\":4857:4864   */\n      dup6\n        /* \"--CODEGEN--\":4848:4854   */\n      dup3\n        /* \"--CODEGEN--\":4837:4846   */\n      dup7\n        /* \"--CODEGEN--\":4833:4855   */\n      add\n        /* \"--CODEGEN--\":4787:4865   */\n      jump(tag_292)\n    tag_349:\n        /* \"--CODEGEN--\":4777:4865   */\n      swap3\n      pop\n        /* \"--CODEGEN--\":4663:4871   */\n      pop\n        /* \"--CODEGEN--\":4930:4932   */\n      0x20\n        /* \"--CODEGEN--\":4919:4928   */\n      dup4\n        /* \"--CODEGEN--\":4915:4933   */\n      add\n        /* \"--CODEGEN--\":4902:4934   */\n      calldataload\n        /* \"--CODEGEN--\":4954:4972   */\n      0xffffffffffffffff\n        /* \"--CODEGEN--\":4946:4952   */\n      dup2\n        /* \"--CODEGEN--\":4943:4973   */\n      gt\n        /* \"--CODEGEN--\":4940:4942   */\n      iszero\n      tag_350\n      jumpi\n        /* \"--CODEGEN--\":4986:4987   */\n      0x00\n        /* \"--CODEGEN--\":4983:4984   */\n      dup1\n        /* \"--CODEGEN--\":4976:4988   */\n      revert\n        /* \"--CODEGEN--\":4940:4942   */\n    tag_350:\n        /* \"--CODEGEN--\":5006:5090   */\n      tag_351\n        /* \"--CODEGEN--\":5082:5089   */\n      dup6\n        /* \"--CODEGEN--\":5073:5079   */\n      dup3\n        /* \"--CODEGEN--\":5062:5071   */\n      dup7\n        /* \"--CODEGEN--\":5058:5080   */\n      add\n        /* \"--CODEGEN--\":5006:5090   */\n      jump(tag_303)\n    tag_351:\n        /* \"--CODEGEN--\":4996:5090   */\n      swap2\n      pop\n        /* \"--CODEGEN--\":4881:5096   */\n      pop\n        /* \"--CODEGEN--\":4595:5106   */\n      swap3\n      pop\n      swap3\n      swap1\n      pop\n      jump\n        /* \"--CODEGEN--\":5113:5691   */\n    tag_77:\n      0x00\n      dup1\n        /* \"--CODEGEN--\":5254:5256   */\n      0x40\n        /* \"--CODEGEN--\":5242:5251   */\n      dup4\n        /* \"--CODEGEN--\":5233:5240   */\n      dup6\n        /* \"--CODEGEN--\":5229:5252   */\n      sub\n        /* \"--CODEGEN--\":5225:5257   */\n      slt\n        /* \"--CODEGEN--\":5222:5224   */\n      iszero\n      tag_352\n      jumpi\n        /* \"--CODEGEN--\":5270:5271   */\n      0x00\n        /* \"--CODEGEN--\":5267:5268   */\n      dup1\n        /* \"--CODEGEN--\":5260:5272   */\n      revert\n        /* \"--CODEGEN--\":5222:5224   */\n    tag_352:\n        /* \"--CODEGEN--\":5333:5334   */\n      0x00\n        /* \"--CODEGEN--\":5322:5331   */\n      dup4\n        /* \"--CODEGEN--\":5318:5335   */\n      add\n        /* \"--CODEGEN--\":5305:5336   */\n      calldataload\n        /* \"--CODEGEN--\":5356:5374   */\n      0xffffffffffffffff\n        /* \"--CODEGEN--\":5348:5354   */\n      dup2\n        /* \"--CODEGEN--\":5345:5375   */\n      gt\n        /* \"--CODEGEN--\":5342:5344   */\n      iszero\n      tag_353\n      jumpi\n        /* \"--CODEGEN--\":5388:5389   */\n      0x00\n        /* \"--CODEGEN--\":5385:5386   */\n      dup1\n        /* \"--CODEGEN--\":5378:5390   */\n      revert\n        /* \"--CODEGEN--\":5342:5344   */\n    tag_353:\n        /* \"--CODEGEN--\":5408:5471   */\n      tag_354\n        /* \"--CODEGEN--\":5463:5470   */\n      dup6\n        /* \"--CODEGEN--\":5454:5460   */\n      dup3\n        /* \"--CODEGEN--\":5443:5452   */\n      dup7\n        /* \"--CODEGEN--\":5439:5461   */\n      add\n        /* \"--CODEGEN--\":5408:5471   */\n      jump(tag_323)\n    tag_354:\n        /* \"--CODEGEN--\":5398:5471   */\n      swap3\n      pop\n        /* \"--CODEGEN--\":5284:5477   */\n      pop\n        /* \"--CODEGEN--\":5536:5538   */\n      0x20\n        /* \"--CODEGEN--\":5525:5534   */\n      dup4\n        /* \"--CODEGEN--\":5521:5539   */\n      add\n        /* \"--CODEGEN--\":5508:5540   */\n      calldataload\n        /* \"--CODEGEN--\":5560:5578   */\n      0xffffffffffffffff\n        /* \"--CODEGEN--\":5552:5558   */\n      dup2\n        /* \"--CODEGEN--\":5549:5579   */\n      gt\n        /* \"--CODEGEN--\":5546:5548   */\n      iszero\n      tag_355\n      jumpi\n        /* \"--CODEGEN--\":5592:5593   */\n      0x00\n        /* \"--CODEGEN--\":5589:5590   */\n      dup1\n        /* \"--CODEGEN--\":5582:5594   */\n      revert\n        /* \"--CODEGEN--\":5546:5548   */\n    tag_355:\n        /* \"--CODEGEN--\":5612:5675   */\n      tag_356\n        /* \"--CODEGEN--\":5667:5674   */\n      dup6\n        /* \"--CODEGEN--\":5658:5664   */\n      dup3\n        /* \"--CODEGEN--\":5647:5656   */\n      dup7\n        /* \"--CODEGEN--\":5643:5665   */\n      add\n        /* \"--CODEGEN--\":5612:5675   */\n      jump(tag_323)\n    tag_356:\n        /* \"--CODEGEN--\":5602:5675   */\n      swap2\n      pop\n        /* \"--CODEGEN--\":5487:5681   */\n      pop\n        /* \"--CODEGEN--\":5216:5691   */\n      swap3\n      pop\n      swap3\n      swap1\n      pop\n      jump\n        /* \"--CODEGEN--\":5699:5880   */\n    tag_357:\n      0x00\n        /* \"--CODEGEN--\":5812:5874   */\n      tag_358\n        /* \"--CODEGEN--\":5870:5873   */\n      dup4\n        /* \"--CODEGEN--\":5862:5868   */\n      dup4\n        /* \"--CODEGEN--\":5812:5874   */\n      jump(tag_359)\n    tag_358:\n        /* \"--CODEGEN--\":5798:5874   */\n      swap1\n      pop\n        /* \"--CODEGEN--\":5791:5880   */\n      swap3\n      swap2\n      pop\n      pop\n      jump\n        /* \"--CODEGEN--\":5917:6813   */\n    tag_360:\n      0x00\n        /* \"--CODEGEN--\":6074:6134   */\n      tag_361\n        /* \"--CODEGEN--\":6128:6133   */\n      dup3\n        /* \"--CODEGEN--\":6074:6134   */\n      jump(tag_362)\n    tag_361:\n        /* \"--CODEGEN--\":6147:6239   */\n      tag_363\n        /* \"--CODEGEN--\":6232:6238   */\n      dup2\n        /* \"--CODEGEN--\":6227:6230   */\n      dup6\n        /* \"--CODEGEN--\":6147:6239   */\n      jump(tag_364)\n    tag_363:\n        /* \"--CODEGEN--\":6140:6239   */\n      swap4\n      pop\n        /* \"--CODEGEN--\":6262:6265   */\n      dup4\n        /* \"--CODEGEN--\":6304:6308   */\n      0x20\n        /* \"--CODEGEN--\":6296:6302   */\n      dup3\n        /* \"--CODEGEN--\":6292:6309   */\n      mul\n        /* \"--CODEGEN--\":6287:6290   */\n      dup6\n        /* \"--CODEGEN--\":6283:6310   */\n      add\n        /* \"--CODEGEN--\":6331:6393   */\n      tag_365\n        /* \"--CODEGEN--\":6387:6392   */\n      dup6\n        /* \"--CODEGEN--\":6331:6393   */\n      jump(tag_366)\n    tag_365:\n        /* \"--CODEGEN--\":6413:6420   */\n      dup1\n        /* \"--CODEGEN--\":6441:6442   */\n      0x00\n        /* \"--CODEGEN--\":6426:6774   */\n    tag_367:\n        /* \"--CODEGEN--\":6451:6457   */\n      dup6\n        /* \"--CODEGEN--\":6448:6449   */\n      dup2\n        /* \"--CODEGEN--\":6445:6458   */\n      lt\n        /* \"--CODEGEN--\":6426:6774   */\n      iszero\n      tag_369\n      jumpi\n        /* \"--CODEGEN--\":6513:6522   */\n      dup5\n        /* \"--CODEGEN--\":6507:6511   */\n      dup5\n        /* \"--CODEGEN--\":6503:6523   */\n      sub\n        /* \"--CODEGEN--\":6498:6501   */\n      dup10\n        /* \"--CODEGEN--\":6491:6524   */\n      mstore\n        /* \"--CODEGEN--\":6558:6564   */\n      dup2\n        /* \"--CODEGEN--\":6552:6565   */\n      mload\n        /* \"--CODEGEN--\":6580:6656   */\n      tag_370\n        /* \"--CODEGEN--\":6651:6655   */\n      dup6\n        /* \"--CODEGEN--\":6636:6649   */\n      dup3\n        /* \"--CODEGEN--\":6580:6656   */\n      jump(tag_357)\n    tag_370:\n        /* \"--CODEGEN--\":6572:6656   */\n      swap5\n      pop\n        /* \"--CODEGEN--\":6673:6739   */\n      tag_371\n        /* \"--CODEGEN--\":6732:6738   */\n      dup4\n        /* \"--CODEGEN--\":6673:6739   */\n      jump(tag_372)\n    tag_371:\n        /* \"--CODEGEN--\":6663:6739   */\n      swap3\n      pop\n        /* \"--CODEGEN--\":6762:6766   */\n      0x20\n        /* \"--CODEGEN--\":6757:6760   */\n      dup11\n        /* \"--CODEGEN--\":6753:6767   */\n      add\n        /* \"--CODEGEN--\":6746:6767   */\n      swap10\n      pop\n        /* \"--CODEGEN--\":6483:6774   */\n      pop\n        /* \"--CODEGEN--\":6473:6474   */\n      0x01\n        /* \"--CODEGEN--\":6470:6471   */\n      dup2\n        /* \"--CODEGEN--\":6466:6475   */\n      add\n        /* \"--CODEGEN--\":6461:6475   */\n      swap1\n      pop\n        /* \"--CODEGEN--\":6426:6774   */\n      jump(tag_367)\n    tag_369:\n        /* \"--CODEGEN--\":6430:6444   */\n      pop\n        /* \"--CODEGEN--\":6787:6791   */\n      dup3\n        /* \"--CODEGEN--\":6780:6791   */\n      swap8\n      pop\n        /* \"--CODEGEN--\":6804:6807   */\n      dup8\n        /* \"--CODEGEN--\":6797:6807   */\n      swap6\n      pop\n        /* \"--CODEGEN--\":6053:6813   */\n      pop\n      pop\n      pop\n      pop\n      pop\n      swap3\n      swap2\n      pop\n      pop\n      jump\n        /* \"--CODEGEN--\":6821:6925   */\n    tag_373:\n        /* \"--CODEGEN--\":6898:6919   */\n      tag_374\n        /* \"--CODEGEN--\":6913:6918   */\n      dup2\n        /* \"--CODEGEN--\":6898:6919   */\n      jump(tag_375)\n    tag_374:\n        /* \"--CODEGEN--\":6893:6896   */\n      dup3\n        /* \"--CODEGEN--\":6886:6920   */\n      mstore\n        /* \"--CODEGEN--\":6880:6925   */\n      pop\n      pop\n      jump\n        /* \"--CODEGEN--\":6932:7279   */\n    tag_376:\n      0x00\n        /* \"--CODEGEN--\":7044:7083   */\n      tag_377\n        /* \"--CODEGEN--\":7077:7082   */\n      dup3\n        /* \"--CODEGEN--\":7044:7083   */\n      jump(tag_378)\n    tag_377:\n        /* \"--CODEGEN--\":7095:7166   */\n      tag_379\n        /* \"--CODEGEN--\":7159:7165   */\n      dup2\n        /* \"--CODEGEN--\":7154:7157   */\n      dup6\n        /* \"--CODEGEN--\":7095:7166   */\n      jump(tag_380)\n    tag_379:\n        /* \"--CODEGEN--\":7088:7166   */\n      swap4\n      pop\n        /* \"--CODEGEN--\":7171:7223   */\n      tag_381\n        /* \"--CODEGEN--\":7216:7222   */\n      dup2\n        /* \"--CODEGEN--\":7211:7214   */\n      dup6\n        /* \"--CODEGEN--\":7204:7208   */\n      0x20\n        /* \"--CODEGEN--\":7197:7202   */\n      dup7\n        /* \"--CODEGEN--\":7193:7209   */\n      add\n        /* \"--CODEGEN--\":7171:7223   */\n      jump(tag_382)\n    tag_381:\n        /* \"--CODEGEN--\":7244:7273   */\n      tag_383\n        /* \"--CODEGEN--\":7266:7272   */\n      dup2\n        /* \"--CODEGEN--\":7244:7273   */\n      jump(tag_384)\n    tag_383:\n        /* \"--CODEGEN--\":7239:7242   */\n      dup5\n        /* \"--CODEGEN--\":7235:7274   */\n      add\n        /* \"--CODEGEN--\":7228:7274   */\n      swap2\n      pop\n        /* \"--CODEGEN--\":7024:7279   */\n      pop\n      swap3\n      swap2\n      pop\n      pop\n      jump\n        /* \"--CODEGEN--\":7286:7646   */\n    tag_385:\n      0x00\n        /* \"--CODEGEN--\":7416:7455   */\n      tag_386\n        /* \"--CODEGEN--\":7449:7454   */\n      dup3\n        /* \"--CODEGEN--\":7416:7455   */\n      jump(tag_378)\n    tag_386:\n        /* \"--CODEGEN--\":7467:7556   */\n      tag_387\n        /* \"--CODEGEN--\":7549:7555   */\n      dup2\n        /* \"--CODEGEN--\":7544:7547   */\n      dup6\n        /* \"--CODEGEN--\":7467:7556   */\n      jump(tag_388)\n    tag_387:\n        /* \"--CODEGEN--\":7460:7556   */\n      swap4\n      pop\n        /* \"--CODEGEN--\":7561:7613   */\n      tag_389\n        /* \"--CODEGEN--\":7606:7612   */\n      dup2\n        /* \"--CODEGEN--\":7601:7604   */\n      dup6\n        /* \"--CODEGEN--\":7594:7598   */\n      0x20\n        /* \"--CODEGEN--\":7587:7592   */\n      dup7\n        /* \"--CODEGEN--\":7583:7599   */\n      add\n        /* \"--CODEGEN--\":7561:7613   */\n      jump(tag_382)\n    tag_389:\n        /* \"--CODEGEN--\":7634:7640   */\n      dup1\n        /* \"--CODEGEN--\":7629:7632   */\n      dup5\n        /* \"--CODEGEN--\":7625:7641   */\n      add\n        /* \"--CODEGEN--\":7618:7641   */\n      swap2\n      pop\n        /* \"--CODEGEN--\":7396:7646   */\n      pop\n      swap3\n      swap2\n      pop\n      pop\n      jump\n        /* \"--CODEGEN--\":7653:7972   */\n    tag_359:\n      0x00\n        /* \"--CODEGEN--\":7751:7786   */\n      tag_390\n        /* \"--CODEGEN--\":7780:7785   */\n      dup3\n        /* \"--CODEGEN--\":7751:7786   */\n      jump(tag_391)\n    tag_390:\n        /* \"--CODEGEN--\":7798:7859   */\n      tag_392\n        /* \"--CODEGEN--\":7852:7858   */\n      dup2\n        /* \"--CODEGEN--\":7847:7850   */\n      dup6\n        /* \"--CODEGEN--\":7798:7859   */\n      jump(tag_393)\n    tag_392:\n        /* \"--CODEGEN--\":7791:7859   */\n      swap4\n      pop\n        /* \"--CODEGEN--\":7864:7916   */\n      tag_394\n        /* \"--CODEGEN--\":7909:7915   */\n      dup2\n        /* \"--CODEGEN--\":7904:7907   */\n      dup6\n        /* \"--CODEGEN--\":7897:7901   */\n      0x20\n        /* \"--CODEGEN--\":7890:7895   */\n      dup7\n        /* \"--CODEGEN--\":7886:7902   */\n      add\n        /* \"--CODEGEN--\":7864:7916   */\n      jump(tag_382)\n    tag_394:\n        /* \"--CODEGEN--\":7937:7966   */\n      tag_395\n        /* \"--CODEGEN--\":7959:7965   */\n      dup2\n        /* \"--CODEGEN--\":7937:7966   */\n      jump(tag_384)\n    tag_395:\n        /* \"--CODEGEN--\":7932:7935   */\n      dup5\n        /* \"--CODEGEN--\":7928:7967   */\n      add\n        /* \"--CODEGEN--\":7921:7967   */\n      swap2\n      pop\n        /* \"--CODEGEN--\":7731:7972   */\n      pop\n      swap3\n      swap2\n      pop\n      pop\n      jump\n        /* \"--CODEGEN--\":7979:8318   */\n    tag_396:\n      0x00\n        /* \"--CODEGEN--\":8087:8122   */\n      tag_397\n        /* \"--CODEGEN--\":8116:8121   */\n      dup3\n        /* \"--CODEGEN--\":8087:8122   */\n      jump(tag_391)\n    tag_397:\n        /* \"--CODEGEN--\":8134:8205   */\n      tag_398\n        /* \"--CODEGEN--\":8198:8204   */\n      dup2\n        /* \"--CODEGEN--\":8193:8196   */\n      dup6\n        /* \"--CODEGEN--\":8134:8205   */\n      jump(tag_380)\n    tag_398:\n        /* \"--CODEGEN--\":8127:8205   */\n      swap4\n      pop\n        /* \"--CODEGEN--\":8210:8262   */\n      tag_399\n        /* \"--CODEGEN--\":8255:8261   */\n      dup2\n        /* \"--CODEGEN--\":8250:8253   */\n      dup6\n        /* \"--CODEGEN--\":8243:8247   */\n      0x20\n        /* \"--CODEGEN--\":8236:8241   */\n      dup7\n        /* \"--CODEGEN--\":8232:8248   */\n      add\n        /* \"--CODEGEN--\":8210:8262   */\n      jump(tag_382)\n    tag_399:\n        /* \"--CODEGEN--\":8283:8312   */\n      tag_400\n        /* \"--CODEGEN--\":8305:8311   */\n      dup2\n        /* \"--CODEGEN--\":8283:8312   */\n      jump(tag_384)\n    tag_400:\n        /* \"--CODEGEN--\":8278:8281   */\n      dup5\n        /* \"--CODEGEN--\":8274:8313   */\n      add\n        /* \"--CODEGEN--\":8267:8313   */\n      swap2\n      pop\n        /* \"--CODEGEN--\":8067:8318   */\n      pop\n      swap3\n      swap2\n      pop\n      pop\n      jump\n        /* \"--CODEGEN--\":8325:8677   */\n    tag_401:\n      0x00\n        /* \"--CODEGEN--\":8451:8486   */\n      tag_402\n        /* \"--CODEGEN--\":8480:8485   */\n      dup3\n        /* \"--CODEGEN--\":8451:8486   */\n      jump(tag_391)\n    tag_402:\n        /* \"--CODEGEN--\":8498:8587   */\n      tag_403\n        /* \"--CODEGEN--\":8580:8586   */\n      dup2\n        /* \"--CODEGEN--\":8575:8578   */\n      dup6\n        /* \"--CODEGEN--\":8498:8587   */\n      jump(tag_388)\n    tag_403:\n        /* \"--CODEGEN--\":8491:8587   */\n      swap4\n      pop\n        /* \"--CODEGEN--\":8592:8644   */\n      tag_404\n        /* \"--CODEGEN--\":8637:8643   */\n      dup2\n        /* \"--CODEGEN--\":8632:8635   */\n      dup6\n        /* \"--CODEGEN--\":8625:8629   */\n      0x20\n        /* \"--CODEGEN--\":8618:8623   */\n      dup7\n        /* \"--CODEGEN--\":8614:8630   */\n      add\n        /* \"--CODEGEN--\":8592:8644   */\n      jump(tag_382)\n    tag_404:\n        /* \"--CODEGEN--\":8665:8671   */\n      dup1\n        /* \"--CODEGEN--\":8660:8663   */\n      dup5\n        /* \"--CODEGEN--\":8656:8672   */\n      add\n        /* \"--CODEGEN--\":8649:8672   */\n      swap2\n      pop\n        /* \"--CODEGEN--\":8431:8677   */\n      pop\n      swap3\n      swap2\n      pop\n      pop\n      jump\n        /* \"--CODEGEN--\":8709:9593   */\n    tag_405:\n      0x00\n        /* \"--CODEGEN--\":8846:8851   */\n      dup2\n        /* \"--CODEGEN--\":8840:8852   */\n      sload\n        /* \"--CODEGEN--\":8880:8881   */\n      0x01\n        /* \"--CODEGEN--\":8869:8878   */\n      dup2\n        /* \"--CODEGEN--\":8865:8882   */\n      and\n        /* \"--CODEGEN--\":8893:8894   */\n      0x00\n        /* \"--CODEGEN--\":8888:9156   */\n      dup2\n      eq\n      tag_407\n      jumpi\n        /* \"--CODEGEN--\":9167:9168   */\n      0x01\n        /* \"--CODEGEN--\":9162:9587   */\n      dup2\n      eq\n      tag_408\n      jumpi\n        /* \"--CODEGEN--\":8858:9587   */\n      jump(tag_406)\n        /* \"--CODEGEN--\":8888:9156   */\n    tag_407:\n        /* \"--CODEGEN--\":8966:8970   */\n      0x7f\n        /* \"--CODEGEN--\":8962:8963   */\n      0x02\n        /* \"--CODEGEN--\":8951:8960   */\n      dup4\n        /* \"--CODEGEN--\":8947:8964   */\n      div\n        /* \"--CODEGEN--\":8943:8971   */\n      and\n        /* \"--CODEGEN--\":8985:9074   */\n      tag_409\n        /* \"--CODEGEN--\":9067:9073   */\n      dup2\n        /* \"--CODEGEN--\":9062:9065   */\n      dup8\n        /* \"--CODEGEN--\":8985:9074   */\n      jump(tag_388)\n    tag_409:\n        /* \"--CODEGEN--\":8978:9074   */\n      swap6\n      pop\n        /* \"--CODEGEN--\":9112:9116   */\n      0xff\n        /* \"--CODEGEN--\":9108:9117   */\n      not\n        /* \"--CODEGEN--\":9097:9106   */\n      dup4\n        /* \"--CODEGEN--\":9093:9118   */\n      and\n        /* \"--CODEGEN--\":9088:9091   */\n      dup7\n        /* \"--CODEGEN--\":9081:9119   */\n      mstore\n        /* \"--CODEGEN--\":9142:9148   */\n      dup1\n        /* \"--CODEGEN--\":9137:9140   */\n      dup7\n        /* \"--CODEGEN--\":9133:9149   */\n      add\n        /* \"--CODEGEN--\":9126:9149   */\n      swap4\n      pop\n        /* \"--CODEGEN--\":8895:9156   */\n      pop\n        /* \"--CODEGEN--\":8888:9156   */\n      jump(tag_406)\n        /* \"--CODEGEN--\":9162:9587   */\n    tag_408:\n        /* \"--CODEGEN--\":9231:9232   */\n      0x02\n        /* \"--CODEGEN--\":9220:9229   */\n      dup3\n        /* \"--CODEGEN--\":9216:9233   */\n      div\n        /* \"--CODEGEN--\":9247:9336   */\n      tag_410\n        /* \"--CODEGEN--\":9329:9335   */\n      dup2\n        /* \"--CODEGEN--\":9324:9327   */\n      dup8\n        /* \"--CODEGEN--\":9247:9336   */\n      jump(tag_388)\n    tag_410:\n        /* \"--CODEGEN--\":9240:9336   */\n      swap6\n      pop\n        /* \"--CODEGEN--\":9358:9396   */\n      tag_411\n        /* \"--CODEGEN--\":9390:9395   */\n      dup6\n        /* \"--CODEGEN--\":9358:9396   */\n      jump(tag_412)\n    tag_411:\n        /* \"--CODEGEN--\":9412:9413   */\n      0x00\n        /* \"--CODEGEN--\":9420:9550   */\n    tag_413:\n        /* \"--CODEGEN--\":9434:9440   */\n      dup3\n        /* \"--CODEGEN--\":9431:9432   */\n      dup2\n        /* \"--CODEGEN--\":9428:9441   */\n      lt\n        /* \"--CODEGEN--\":9420:9550   */\n      iszero\n      tag_415\n      jumpi\n        /* \"--CODEGEN--\":9499:9506   */\n      dup2\n        /* \"--CODEGEN--\":9493:9507   */\n      sload\n        /* \"--CODEGEN--\":9489:9490   */\n      dup2\n        /* \"--CODEGEN--\":9484:9487   */\n      dup10\n        /* \"--CODEGEN--\":9480:9491   */\n      add\n        /* \"--CODEGEN--\":9473:9508   */\n      mstore\n        /* \"--CODEGEN--\":9540:9541   */\n      0x01\n        /* \"--CODEGEN--\":9531:9538   */\n      dup3\n        /* \"--CODEGEN--\":9527:9542   */\n      add\n        /* \"--CODEGEN--\":9516:9542   */\n      swap2\n      pop\n        /* \"--CODEGEN--\":9456:9460   */\n      0x20\n        /* \"--CODEGEN--\":9453:9454   */\n      dup2\n        /* \"--CODEGEN--\":9449:9461   */\n      add\n        /* \"--CODEGEN--\":9444:9461   */\n      swap1\n      pop\n        /* \"--CODEGEN--\":9420:9550   */\n      jump(tag_413)\n    tag_415:\n        /* \"--CODEGEN--\":9573:9579   */\n      dup3\n        /* \"--CODEGEN--\":9568:9571   */\n      dup9\n        /* \"--CODEGEN--\":9564:9580   */\n      add\n        /* \"--CODEGEN--\":9557:9580   */\n      swap6\n      pop\n        /* \"--CODEGEN--\":9169:9587   */\n      pop\n      pop\n      pop\n        /* \"--CODEGEN--\":8858:9587   */\n    tag_406:\n      pop\n        /* \"--CODEGEN--\":8816:9593   */\n      pop\n      swap3\n      swap2\n      pop\n      pop\n      jump\n        /* \"--CODEGEN--\":9602:9939   */\n    tag_416:\n      0x00\n        /* \"--CODEGEN--\":9780:9864   */\n      tag_417\n        /* \"--CODEGEN--\":9862:9863   */\n      0x03\n        /* \"--CODEGEN--\":9857:9860   */\n      dup4\n        /* \"--CODEGEN--\":9780:9864   */\n      jump(tag_388)\n    tag_417:\n        /* \"--CODEGEN--\":9773:9864   */\n      swap2\n      pop\n        /* \"--CODEGEN--\":9897:9902   */\n      0x2f2f2f0000000000000000000000000000000000000000000000000000000000\n        /* \"--CODEGEN--\":9893:9894   */\n      0x00\n        /* \"--CODEGEN--\":9888:9891   */\n      dup4\n        /* \"--CODEGEN--\":9884:9895   */\n      add\n        /* \"--CODEGEN--\":9877:9903   */\n      mstore\n        /* \"--CODEGEN--\":9931:9932   */\n      0x03\n        /* \"--CODEGEN--\":9926:9929   */\n      dup3\n        /* \"--CODEGEN--\":9922:9933   */\n      add\n        /* \"--CODEGEN--\":9915:9933   */\n      swap1\n      pop\n        /* \"--CODEGEN--\":9766:9939   */\n      swap2\n      swap1\n      pop\n      jump\n        /* \"--CODEGEN--\":9948:10296   */\n    tag_418:\n      0x00\n        /* \"--CODEGEN--\":10126:10211   */\n      tag_419\n        /* \"--CODEGEN--\":10208:10210   */\n      0x0c\n        /* \"--CODEGEN--\":10203:10206   */\n      dup4\n        /* \"--CODEGEN--\":10126:10211   */\n      jump(tag_388)\n    tag_419:\n        /* \"--CODEGEN--\":10119:10211   */\n      swap2\n      pop\n        /* \"--CODEGEN--\":10244:10258   */\n      0x4163636f756e74206e62723a0000000000000000000000000000000000000000\n        /* \"--CODEGEN--\":10240:10241   */\n      0x00\n        /* \"--CODEGEN--\":10235:10238   */\n      dup4\n        /* \"--CODEGEN--\":10231:10242   */\n      add\n        /* \"--CODEGEN--\":10224:10259   */\n      mstore\n        /* \"--CODEGEN--\":10287:10289   */\n      0x0c\n        /* \"--CODEGEN--\":10282:10285   */\n      dup3\n        /* \"--CODEGEN--\":10278:10290   */\n      add\n        /* \"--CODEGEN--\":10271:10290   */\n      swap1\n      pop\n        /* \"--CODEGEN--\":10112:10296   */\n      swap2\n      swap1\n      pop\n      jump\n        /* \"--CODEGEN--\":10304:10417   */\n    tag_420:\n        /* \"--CODEGEN--\":10387:10411   */\n      tag_421\n        /* \"--CODEGEN--\":10405:10410   */\n      dup2\n        /* \"--CODEGEN--\":10387:10411   */\n      jump(tag_422)\n    tag_421:\n        /* \"--CODEGEN--\":10382:10385   */\n      dup3\n        /* \"--CODEGEN--\":10375:10412   */\n      mstore\n        /* \"--CODEGEN--\":10369:10417   */\n      pop\n      pop\n      jump\n        /* \"--CODEGEN--\":10424:10682   */\n    tag_192:\n      0x00\n        /* \"--CODEGEN--\":10566:10657   */\n      tag_423\n        /* \"--CODEGEN--\":10653:10656   */\n      dup3\n        /* \"--CODEGEN--\":10644:10650   */\n      dup5\n        /* \"--CODEGEN--\":10566:10657   */\n      jump(tag_401)\n    tag_423:\n        /* \"--CODEGEN--\":10559:10657   */\n      swap2\n      pop\n        /* \"--CODEGEN--\":10674:10677   */\n      dup2\n        /* \"--CODEGEN--\":10667:10677   */\n      swap1\n      pop\n        /* \"--CODEGEN--\":10547:10682   */\n      swap3\n      swap2\n      pop\n      pop\n      jump\n        /* \"--CODEGEN--\":10689:10955   */\n    tag_202:\n      0x00\n        /* \"--CODEGEN--\":10835:10930   */\n      tag_424\n        /* \"--CODEGEN--\":10926:10929   */\n      dup3\n        /* \"--CODEGEN--\":10917:10923   */\n      dup5\n        /* \"--CODEGEN--\":10835:10930   */\n      jump(tag_385)\n    tag_424:\n        /* \"--CODEGEN--\":10828:10930   */\n      swap2\n      pop\n        /* \"--CODEGEN--\":10947:10950   */\n      dup2\n        /* \"--CODEGEN--\":10940:10950   */\n      swap1\n      pop\n        /* \"--CODEGEN--\":10816:10955   */\n      swap3\n      swap2\n      pop\n      pop\n      jump\n        /* \"--CODEGEN--\":10962:11222   */\n    tag_140:\n      0x00\n        /* \"--CODEGEN--\":11105:11197   */\n      tag_425\n        /* \"--CODEGEN--\":11193:11196   */\n      dup3\n        /* \"--CODEGEN--\":11184:11190   */\n      dup5\n        /* \"--CODEGEN--\":11105:11197   */\n      jump(tag_405)\n    tag_425:\n        /* \"--CODEGEN--\":11098:11197   */\n      swap2\n      pop\n        /* \"--CODEGEN--\":11214:11217   */\n      dup2\n        /* \"--CODEGEN--\":11207:11217   */\n      swap1\n      pop\n        /* \"--CODEGEN--\":11086:11222   */\n      swap3\n      swap2\n      pop\n      pop\n      jump\n        /* \"--CODEGEN--\":11229:11917   */\n    tag_222:\n      0x00\n        /* \"--CODEGEN--\":11521:11613   */\n      tag_426\n        /* \"--CODEGEN--\":11609:11612   */\n      dup3\n        /* \"--CODEGEN--\":11600:11606   */\n      dup6\n        /* \"--CODEGEN--\":11521:11613   */\n      jump(tag_405)\n    tag_426:\n        /* \"--CODEGEN--\":11514:11613   */\n      swap2\n      pop\n        /* \"--CODEGEN--\":11631:11779   */\n      tag_427\n        /* \"--CODEGEN--\":11775:11778   */\n      dup3\n        /* \"--CODEGEN--\":11631:11779   */\n      jump(tag_416)\n    tag_427:\n        /* \"--CODEGEN--\":11624:11779   */\n      swap2\n      pop\n        /* \"--CODEGEN--\":11797:11892   */\n      tag_428\n        /* \"--CODEGEN--\":11888:11891   */\n      dup3\n        /* \"--CODEGEN--\":11879:11885   */\n      dup5\n        /* \"--CODEGEN--\":11797:11892   */\n      jump(tag_385)\n    tag_428:\n        /* \"--CODEGEN--\":11790:11892   */\n      swap2\n      pop\n        /* \"--CODEGEN--\":11909:11912   */\n      dup2\n        /* \"--CODEGEN--\":11902:11912   */\n      swap1\n      pop\n        /* \"--CODEGEN--\":11502:11917   */\n      swap4\n      swap3\n      pop\n      pop\n      pop\n      jump\n        /* \"--CODEGEN--\":11924:13040   */\n    tag_134:\n      0x00\n        /* \"--CODEGEN--\":12365:12457   */\n      tag_429\n        /* \"--CODEGEN--\":12453:12456   */\n      dup3\n        /* \"--CODEGEN--\":12444:12450   */\n      dup7\n        /* \"--CODEGEN--\":12365:12457   */\n      jump(tag_405)\n    tag_429:\n        /* \"--CODEGEN--\":12358:12457   */\n      swap2\n      pop\n        /* \"--CODEGEN--\":12475:12623   */\n      tag_430\n        /* \"--CODEGEN--\":12619:12622   */\n      dup3\n        /* \"--CODEGEN--\":12475:12623   */\n      jump(tag_416)\n    tag_430:\n        /* \"--CODEGEN--\":12468:12623   */\n      swap2\n      pop\n        /* \"--CODEGEN--\":12641:12736   */\n      tag_431\n        /* \"--CODEGEN--\":12732:12735   */\n      dup3\n        /* \"--CODEGEN--\":12723:12729   */\n      dup6\n        /* \"--CODEGEN--\":12641:12736   */\n      jump(tag_385)\n    tag_431:\n        /* \"--CODEGEN--\":12634:12736   */\n      swap2\n      pop\n        /* \"--CODEGEN--\":12754:12902   */\n      tag_432\n        /* \"--CODEGEN--\":12898:12901   */\n      dup3\n        /* \"--CODEGEN--\":12754:12902   */\n      jump(tag_416)\n    tag_432:\n        /* \"--CODEGEN--\":12747:12902   */\n      swap2\n      pop\n        /* \"--CODEGEN--\":12920:13015   */\n      tag_433\n        /* \"--CODEGEN--\":13011:13014   */\n      dup3\n        /* \"--CODEGEN--\":13002:13008   */\n      dup5\n        /* \"--CODEGEN--\":12920:13015   */\n      jump(tag_385)\n    tag_433:\n        /* \"--CODEGEN--\":12913:13015   */\n      swap2\n      pop\n        /* \"--CODEGEN--\":13032:13035   */\n      dup2\n        /* \"--CODEGEN--\":13025:13035   */\n      swap1\n      pop\n        /* \"--CODEGEN--\":12346:13040   */\n      swap5\n      swap4\n      pop\n      pop\n      pop\n      pop\n      jump\n        /* \"--CODEGEN--\":13047:13580   */\n    tag_180:\n      0x00\n        /* \"--CODEGEN--\":13294:13442   */\n      tag_434\n        /* \"--CODEGEN--\":13438:13441   */\n      dup3\n        /* \"--CODEGEN--\":13294:13442   */\n      jump(tag_418)\n    tag_434:\n        /* \"--CODEGEN--\":13287:13442   */\n      swap2\n      pop\n        /* \"--CODEGEN--\":13460:13555   */\n      tag_435\n        /* \"--CODEGEN--\":13551:13554   */\n      dup3\n        /* \"--CODEGEN--\":13542:13548   */\n      dup5\n        /* \"--CODEGEN--\":13460:13555   */\n      jump(tag_385)\n    tag_435:\n        /* \"--CODEGEN--\":13453:13555   */\n      swap2\n      pop\n        /* \"--CODEGEN--\":13572:13575   */\n      dup2\n        /* \"--CODEGEN--\":13565:13575   */\n      swap1\n      pop\n        /* \"--CODEGEN--\":13275:13580   */\n      swap3\n      swap2\n      pop\n      pop\n      jump\n        /* \"--CODEGEN--\":13587:13972   */\n    tag_36:\n      0x00\n        /* \"--CODEGEN--\":13767:13769   */\n      0x20\n        /* \"--CODEGEN--\":13756:13765   */\n      dup3\n        /* \"--CODEGEN--\":13752:13770   */\n      add\n        /* \"--CODEGEN--\":13744:13770   */\n      swap1\n      pop\n        /* \"--CODEGEN--\":13817:13826   */\n      dup2\n        /* \"--CODEGEN--\":13811:13815   */\n      dup2\n        /* \"--CODEGEN--\":13807:13827   */\n      sub\n        /* \"--CODEGEN--\":13803:13804   */\n      0x00\n        /* \"--CODEGEN--\":13792:13801   */\n      dup4\n        /* \"--CODEGEN--\":13788:13805   */\n      add\n        /* \"--CODEGEN--\":13781:13828   */\n      mstore\n        /* \"--CODEGEN--\":13842:13962   */\n      tag_436\n        /* \"--CODEGEN--\":13957:13961   */\n      dup2\n        /* \"--CODEGEN--\":13948:13954   */\n      dup5\n        /* \"--CODEGEN--\":13842:13962   */\n      jump(tag_360)\n    tag_436:\n        /* \"--CODEGEN--\":13834:13962   */\n      swap1\n      pop\n        /* \"--CODEGEN--\":13738:13972   */\n      swap3\n      swap2\n      pop\n      pop\n      jump\n        /* \"--CODEGEN--\":13979:14180   */\n    tag_25:\n      0x00\n        /* \"--CODEGEN--\":14091:14093   */\n      0x20\n        /* \"--CODEGEN--\":14080:14089   */\n      dup3\n        /* \"--CODEGEN--\":14076:14094   */\n      add\n        /* \"--CODEGEN--\":14068:14094   */\n      swap1\n      pop\n        /* \"--CODEGEN--\":14105:14170   */\n      tag_437\n        /* \"--CODEGEN--\":14167:14168   */\n      0x00\n        /* \"--CODEGEN--\":14156:14165   */\n      dup4\n        /* \"--CODEGEN--\":14152:14169   */\n      add\n        /* \"--CODEGEN--\":14143:14149   */\n      dup5\n        /* \"--CODEGEN--\":14105:14170   */\n      jump(tag_373)\n    tag_437:\n        /* \"--CODEGEN--\":14062:14180   */\n      swap3\n      swap2\n      pop\n      pop\n      jump\n        /* \"--CODEGEN--\":14187:14488   */\n    tag_44:\n      0x00\n        /* \"--CODEGEN--\":14325:14327   */\n      0x20\n        /* \"--CODEGEN--\":14314:14323   */\n      dup3\n        /* \"--CODEGEN--\":14310:14328   */\n      add\n        /* \"--CODEGEN--\":14302:14328   */\n      swap1\n      pop\n        /* \"--CODEGEN--\":14375:14384   */\n      dup2\n        /* \"--CODEGEN--\":14369:14373   */\n      dup2\n        /* \"--CODEGEN--\":14365:14385   */\n      sub\n        /* \"--CODEGEN--\":14361:14362   */\n      0x00\n        /* \"--CODEGEN--\":14350:14359   */\n      dup4\n        /* \"--CODEGEN--\":14346:14363   */\n      add\n        /* \"--CODEGEN--\":14339:14386   */\n      mstore\n        /* \"--CODEGEN--\":14400:14478   */\n      tag_438\n        /* \"--CODEGEN--\":14473:14477   */\n      dup2\n        /* \"--CODEGEN--\":14464:14470   */\n      dup5\n        /* \"--CODEGEN--\":14400:14478   */\n      jump(tag_376)\n    tag_438:\n        /* \"--CODEGEN--\":14392:14478   */\n      swap1\n      pop\n        /* \"--CODEGEN--\":14296:14488   */\n      swap3\n      swap2\n      pop\n      pop\n      jump\n        /* \"--CODEGEN--\":14495:14986   */\n    tag_31:\n      0x00\n        /* \"--CODEGEN--\":14673:14675   */\n      0x60\n        /* \"--CODEGEN--\":14662:14671   */\n      dup3\n        /* \"--CODEGEN--\":14658:14676   */\n      add\n        /* \"--CODEGEN--\":14650:14676   */\n      swap1\n      pop\n        /* \"--CODEGEN--\":14723:14732   */\n      dup2\n        /* \"--CODEGEN--\":14717:14721   */\n      dup2\n        /* \"--CODEGEN--\":14713:14733   */\n      sub\n        /* \"--CODEGEN--\":14709:14710   */\n      0x00\n        /* \"--CODEGEN--\":14698:14707   */\n      dup4\n        /* \"--CODEGEN--\":14694:14711   */\n      add\n        /* \"--CODEGEN--\":14687:14734   */\n      mstore\n        /* \"--CODEGEN--\":14748:14822   */\n      tag_439\n        /* \"--CODEGEN--\":14817:14821   */\n      dup2\n        /* \"--CODEGEN--\":14808:14814   */\n      dup7\n        /* \"--CODEGEN--\":14748:14822   */\n      jump(tag_396)\n    tag_439:\n        /* \"--CODEGEN--\":14740:14822   */\n      swap1\n      pop\n        /* \"--CODEGEN--\":14833:14899   */\n      tag_440\n        /* \"--CODEGEN--\":14895:14897   */\n      0x20\n        /* \"--CODEGEN--\":14884:14893   */\n      dup4\n        /* \"--CODEGEN--\":14880:14898   */\n      add\n        /* \"--CODEGEN--\":14871:14877   */\n      dup6\n        /* \"--CODEGEN--\":14833:14899   */\n      jump(tag_373)\n    tag_440:\n        /* \"--CODEGEN--\":14910:14976   */\n      tag_441\n        /* \"--CODEGEN--\":14972:14974   */\n      0x40\n        /* \"--CODEGEN--\":14961:14970   */\n      dup4\n        /* \"--CODEGEN--\":14957:14975   */\n      add\n        /* \"--CODEGEN--\":14948:14954   */\n      dup5\n        /* \"--CODEGEN--\":14910:14976   */\n      jump(tag_373)\n    tag_441:\n        /* \"--CODEGEN--\":14644:14986   */\n      swap5\n      swap4\n      pop\n      pop\n      pop\n      pop\n      jump\n        /* \"--CODEGEN--\":14993:15206   */\n    tag_63:\n      0x00\n        /* \"--CODEGEN--\":15111:15113   */\n      0x20\n        /* \"--CODEGEN--\":15100:15109   */\n      dup3\n        /* \"--CODEGEN--\":15096:15114   */\n      add\n        /* \"--CODEGEN--\":15088:15114   */\n      swap1\n      pop\n        /* \"--CODEGEN--\":15125:15196   */\n      tag_442\n        /* \"--CODEGEN--\":15193:15194   */\n      0x00\n        /* \"--CODEGEN--\":15182:15191   */\n      dup4\n        /* \"--CODEGEN--\":15178:15195   */\n      add\n        /* \"--CODEGEN--\":15169:15175   */\n      dup5\n        /* \"--CODEGEN--\":15125:15196   */\n      jump(tag_420)\n    tag_442:\n        /* \"--CODEGEN--\":15082:15206   */\n      swap3\n      swap2\n      pop\n      pop\n      jump\n        /* \"--CODEGEN--\":15213:15469   */\n    tag_297:\n      0x00\n        /* \"--CODEGEN--\":15275:15277   */\n      0x40\n        /* \"--CODEGEN--\":15269:15278   */\n      mload\n        /* \"--CODEGEN--\":15259:15278   */\n      swap1\n      pop\n        /* \"--CODEGEN--\":15313:15317   */\n      dup2\n        /* \"--CODEGEN--\":15305:15311   */\n      dup2\n        /* \"--CODEGEN--\":15301:15318   */\n      add\n        /* \"--CODEGEN--\":15412:15418   */\n      dup2\n        /* \"--CODEGEN--\":15400:15410   */\n      dup2\n        /* \"--CODEGEN--\":15397:15419   */\n      lt\n        /* \"--CODEGEN--\":15376:15394   */\n      0xffffffffffffffff\n        /* \"--CODEGEN--\":15364:15374   */\n      dup3\n        /* \"--CODEGEN--\":15361:15395   */\n      gt\n        /* \"--CODEGEN--\":15358:15420   */\n      or\n        /* \"--CODEGEN--\":15355:15357   */\n      iszero\n      tag_443\n      jumpi\n        /* \"--CODEGEN--\":15433:15434   */\n      0x00\n        /* \"--CODEGEN--\":15430:15431   */\n      dup1\n        /* \"--CODEGEN--\":15423:15435   */\n      revert\n        /* \"--CODEGEN--\":15355:15357   */\n    tag_443:\n        /* \"--CODEGEN--\":15453:15463   */\n      dup1\n        /* \"--CODEGEN--\":15449:15451   */\n      0x40\n        /* \"--CODEGEN--\":15442:15464   */\n      mstore\n        /* \"--CODEGEN--\":15253:15469   */\n      pop\n      swap2\n      swap1\n      pop\n      jump\n        /* \"--CODEGEN--\":15476:15780   */\n    tag_296:\n      0x00\n        /* \"--CODEGEN--\":15635:15653   */\n      0xffffffffffffffff\n        /* \"--CODEGEN--\":15627:15633   */\n      dup3\n        /* \"--CODEGEN--\":15624:15654   */\n      gt\n        /* \"--CODEGEN--\":15621:15623   */\n      iszero\n      tag_444\n      jumpi\n        /* \"--CODEGEN--\":15667:15668   */\n      0x00\n        /* \"--CODEGEN--\":15664:15665   */\n      dup1\n        /* \"--CODEGEN--\":15657:15669   */\n      revert\n        /* \"--CODEGEN--\":15621:15623   */\n    tag_444:\n        /* \"--CODEGEN--\":15702:15706   */\n      0x20\n        /* \"--CODEGEN--\":15694:15700   */\n      dup3\n        /* \"--CODEGEN--\":15690:15707   */\n      mul\n        /* \"--CODEGEN--\":15682:15707   */\n      swap1\n      pop\n        /* \"--CODEGEN--\":15765:15769   */\n      0x20\n        /* \"--CODEGEN--\":15759:15763   */\n      dup2\n        /* \"--CODEGEN--\":15755:15770   */\n      add\n        /* \"--CODEGEN--\":15747:15770   */\n      swap1\n      pop\n        /* \"--CODEGEN--\":15558:15780   */\n      swap2\n      swap1\n      pop\n      jump\n        /* \"--CODEGEN--\":15787:16097   */\n    tag_307:\n      0x00\n        /* \"--CODEGEN--\":15952:15970   */\n      0xffffffffffffffff\n        /* \"--CODEGEN--\":15944:15950   */\n      dup3\n        /* \"--CODEGEN--\":15941:15971   */\n      gt\n        /* \"--CODEGEN--\":15938:15940   */\n      iszero\n      tag_445\n      jumpi\n        /* \"--CODEGEN--\":15984:15985   */\n      0x00\n        /* \"--CODEGEN--\":15981:15982   */\n      dup1\n        /* \"--CODEGEN--\":15974:15986   */\n      revert\n        /* \"--CODEGEN--\":15938:15940   */\n    tag_445:\n        /* \"--CODEGEN--\":16019:16023   */\n      0x20\n        /* \"--CODEGEN--\":16011:16017   */\n      dup3\n        /* \"--CODEGEN--\":16007:16024   */\n      mul\n        /* \"--CODEGEN--\":15999:16024   */\n      swap1\n      pop\n        /* \"--CODEGEN--\":16082:16086   */\n      0x20\n        /* \"--CODEGEN--\":16076:16080   */\n      dup2\n        /* \"--CODEGEN--\":16072:16087   */\n      add\n        /* \"--CODEGEN--\":16064:16087   */\n      swap1\n      pop\n        /* \"--CODEGEN--\":15875:16097   */\n      swap2\n      swap1\n      pop\n      jump\n        /* \"--CODEGEN--\":16104:16422   */\n    tag_319:\n      0x00\n        /* \"--CODEGEN--\":16244:16262   */\n      0xffffffffffffffff\n        /* \"--CODEGEN--\":16236:16242   */\n      dup3\n        /* \"--CODEGEN--\":16233:16263   */\n      gt\n        /* \"--CODEGEN--\":16230:16232   */\n      iszero\n      tag_446\n      jumpi\n        /* \"--CODEGEN--\":16276:16277   */\n      0x00\n        /* \"--CODEGEN--\":16273:16274   */\n      dup1\n        /* \"--CODEGEN--\":16266:16278   */\n      revert\n        /* \"--CODEGEN--\":16230:16232   */\n    tag_446:\n        /* \"--CODEGEN--\":16343:16347   */\n      0x1f\n        /* \"--CODEGEN--\":16339:16348   */\n      not\n        /* \"--CODEGEN--\":16332:16336   */\n      0x1f\n        /* \"--CODEGEN--\":16324:16330   */\n      dup4\n        /* \"--CODEGEN--\":16320:16337   */\n      add\n        /* \"--CODEGEN--\":16316:16349   */\n      and\n        /* \"--CODEGEN--\":16308:16349   */\n      swap1\n      pop\n        /* \"--CODEGEN--\":16407:16411   */\n      0x20\n        /* \"--CODEGEN--\":16401:16405   */\n      dup2\n        /* \"--CODEGEN--\":16397:16412   */\n      add\n        /* \"--CODEGEN--\":16389:16412   */\n      swap1\n      pop\n        /* \"--CODEGEN--\":16167:16422   */\n      swap2\n      swap1\n      pop\n      jump\n        /* \"--CODEGEN--\":16429:16751   */\n    tag_327:\n      0x00\n        /* \"--CODEGEN--\":16573:16591   */\n      0xffffffffffffffff\n        /* \"--CODEGEN--\":16565:16571   */\n      dup3\n        /* \"--CODEGEN--\":16562:16592   */\n      gt\n        /* \"--CODEGEN--\":16559:16561   */\n      iszero\n      tag_447\n      jumpi\n        /* \"--CODEGEN--\":16605:16606   */\n      0x00\n        /* \"--CODEGEN--\":16602:16603   */\n      dup1\n        /* \"--CODEGEN--\":16595:16607   */\n      revert\n        /* \"--CODEGEN--\":16559:16561   */\n    tag_447:\n        /* \"--CODEGEN--\":16672:16676   */\n      0x1f\n        /* \"--CODEGEN--\":16668:16677   */\n      not\n        /* \"--CODEGEN--\":16661:16665   */\n      0x1f\n        /* \"--CODEGEN--\":16653:16659   */\n      dup4\n        /* \"--CODEGEN--\":16649:16666   */\n      add\n        /* \"--CODEGEN--\":16645:16678   */\n      and\n        /* \"--CODEGEN--\":16637:16678   */\n      swap1\n      pop\n        /* \"--CODEGEN--\":16736:16740   */\n      0x20\n        /* \"--CODEGEN--\":16730:16734   */\n      dup2\n        /* \"--CODEGEN--\":16726:16741   */\n      add\n        /* \"--CODEGEN--\":16718:16741   */\n      swap1\n      pop\n        /* \"--CODEGEN--\":16496:16751   */\n      swap2\n      swap1\n      pop\n      jump\n        /* \"--CODEGEN--\":16758:16915   */\n    tag_366:\n      0x00\n        /* \"--CODEGEN--\":16850:16853   */\n      dup2\n        /* \"--CODEGEN--\":16842:16853   */\n      swap1\n      pop\n        /* \"--CODEGEN--\":16888:16892   */\n      0x20\n        /* \"--CODEGEN--\":16883:16886   */\n      dup3\n        /* \"--CODEGEN--\":16879:16893   */\n      add\n        /* \"--CODEGEN--\":16871:16893   */\n      swap1\n      pop\n        /* \"--CODEGEN--\":16836:16915   */\n      swap2\n      swap1\n      pop\n      jump\n        /* \"--CODEGEN--\":16922:17080   */\n    tag_412:\n      0x00\n        /* \"--CODEGEN--\":16990:16993   */\n      dup2\n        /* \"--CODEGEN--\":16982:16993   */\n      swap1\n      pop\n        /* \"--CODEGEN--\":17027:17030   */\n      dup2\n        /* \"--CODEGEN--\":17024:17025   */\n      0x00\n        /* \"--CODEGEN--\":17017:17031   */\n      mstore\n        /* \"--CODEGEN--\":17059:17063   */\n      0x20\n        /* \"--CODEGEN--\":17056:17057   */\n      0x00\n        /* \"--CODEGEN--\":17046:17064   */\n      keccak256\n        /* \"--CODEGEN--\":17038:17064   */\n      swap1\n      pop\n        /* \"--CODEGEN--\":16976:17080   */\n      swap2\n      swap1\n      pop\n      jump\n        /* \"--CODEGEN--\":17087:17230   */\n    tag_362:\n      0x00\n        /* \"--CODEGEN--\":17202:17207   */\n      dup2\n        /* \"--CODEGEN--\":17196:17208   */\n      mload\n        /* \"--CODEGEN--\":17186:17208   */\n      swap1\n      pop\n        /* \"--CODEGEN--\":17167:17230   */\n      swap2\n      swap1\n      pop\n      jump\n        /* \"--CODEGEN--\":17237:17355   */\n    tag_391:\n      0x00\n        /* \"--CODEGEN--\":17327:17332   */\n      dup2\n        /* \"--CODEGEN--\":17321:17333   */\n      mload\n        /* \"--CODEGEN--\":17311:17333   */\n      swap1\n      pop\n        /* \"--CODEGEN--\":17292:17355   */\n      swap2\n      swap1\n      pop\n      jump\n        /* \"--CODEGEN--\":17362:17484   */\n    tag_378:\n      0x00\n        /* \"--CODEGEN--\":17456:17461   */\n      dup2\n        /* \"--CODEGEN--\":17450:17462   */\n      mload\n        /* \"--CODEGEN--\":17440:17462   */\n      swap1\n      pop\n        /* \"--CODEGEN--\":17421:17484   */\n      swap2\n      swap1\n      pop\n      jump\n        /* \"--CODEGEN--\":17491:17605   */\n    tag_372:\n      0x00\n        /* \"--CODEGEN--\":17595:17599   */\n      0x20\n        /* \"--CODEGEN--\":17590:17593   */\n      dup3\n        /* \"--CODEGEN--\":17586:17600   */\n      add\n        /* \"--CODEGEN--\":17578:17600   */\n      swap1\n      pop\n        /* \"--CODEGEN--\":17572:17605   */\n      swap2\n      swap1\n      pop\n      jump\n        /* \"--CODEGEN--\":17613:17797   */\n    tag_364:\n      0x00\n        /* \"--CODEGEN--\":17749:17755   */\n      dup3\n        /* \"--CODEGEN--\":17744:17747   */\n      dup3\n        /* \"--CODEGEN--\":17737:17756   */\n      mstore\n        /* \"--CODEGEN--\":17786:17790   */\n      0x20\n        /* \"--CODEGEN--\":17781:17784   */\n      dup3\n        /* \"--CODEGEN--\":17777:17791   */\n      add\n        /* \"--CODEGEN--\":17762:17791   */\n      swap1\n      pop\n        /* \"--CODEGEN--\":17730:17797   */\n      swap3\n      swap2\n      pop\n      pop\n      jump\n        /* \"--CODEGEN--\":17806:17959   */\n    tag_393:\n      0x00\n        /* \"--CODEGEN--\":17911:17917   */\n      dup3\n        /* \"--CODEGEN--\":17906:17909   */\n      dup3\n        /* \"--CODEGEN--\":17899:17918   */\n      mstore\n        /* \"--CODEGEN--\":17948:17952   */\n      0x20\n        /* \"--CODEGEN--\":17943:17946   */\n      dup3\n        /* \"--CODEGEN--\":17939:17953   */\n      add\n        /* \"--CODEGEN--\":17924:17953   */\n      swap1\n      pop\n        /* \"--CODEGEN--\":17892:17959   */\n      swap3\n      swap2\n      pop\n      pop\n      jump\n        /* \"--CODEGEN--\":17968:18131   */\n    tag_380:\n      0x00\n        /* \"--CODEGEN--\":18083:18089   */\n      dup3\n        /* \"--CODEGEN--\":18078:18081   */\n      dup3\n        /* \"--CODEGEN--\":18071:18090   */\n      mstore\n        /* \"--CODEGEN--\":18120:18124   */\n      0x20\n        /* \"--CODEGEN--\":18115:18118   */\n      dup3\n        /* \"--CODEGEN--\":18111:18125   */\n      add\n        /* \"--CODEGEN--\":18096:18125   */\n      swap1\n      pop\n        /* \"--CODEGEN--\":18064:18131   */\n      swap3\n      swap2\n      pop\n      pop\n      jump\n        /* \"--CODEGEN--\":18140:18285   */\n    tag_388:\n      0x00\n        /* \"--CODEGEN--\":18276:18279   */\n      dup2\n        /* \"--CODEGEN--\":18261:18279   */\n      swap1\n      pop\n        /* \"--CODEGEN--\":18254:18285   */\n      swap3\n      swap2\n      pop\n      pop\n      jump\n        /* \"--CODEGEN--\":18293:18384   */\n    tag_448:\n      0x00\n        /* \"--CODEGEN--\":18355:18379   */\n      tag_449\n        /* \"--CODEGEN--\":18373:18378   */\n      dup3\n        /* \"--CODEGEN--\":18355:18379   */\n      jump(tag_450)\n    tag_449:\n        /* \"--CODEGEN--\":18344:18379   */\n      swap1\n      pop\n        /* \"--CODEGEN--\":18338:18384   */\n      swap2\n      swap1\n      pop\n      jump\n        /* \"--CODEGEN--\":18391:18476   */\n    tag_375:\n      0x00\n        /* \"--CODEGEN--\":18464:18469   */\n      dup2\n        /* \"--CODEGEN--\":18457:18470   */\n      iszero\n        /* \"--CODEGEN--\":18450:18471   */\n      iszero\n        /* \"--CODEGEN--\":18439:18471   */\n      swap1\n      pop\n        /* \"--CODEGEN--\":18433:18476   */\n      swap2\n      swap1\n      pop\n      jump\n        /* \"--CODEGEN--\":18483:18604   */\n    tag_450:\n      0x00\n        /* \"--CODEGEN--\":18556:18598   */\n      0xffffffffffffffffffffffffffffffffffffffff\n        /* \"--CODEGEN--\":18549:18554   */\n      dup3\n        /* \"--CODEGEN--\":18545:18599   */\n      and\n        /* \"--CODEGEN--\":18534:18599   */\n      swap1\n      pop\n        /* \"--CODEGEN--\":18528:18604   */\n      swap2\n      swap1\n      pop\n      jump\n        /* \"--CODEGEN--\":18611:18683   */\n    tag_422:\n      0x00\n        /* \"--CODEGEN--\":18673:18678   */\n      dup2\n        /* \"--CODEGEN--\":18662:18678   */\n      swap1\n      pop\n        /* \"--CODEGEN--\":18656:18683   */\n      swap2\n      swap1\n      pop\n      jump\n        /* \"--CODEGEN--\":18691:18836   */\n    tag_322:\n        /* \"--CODEGEN--\":18772:18778   */\n      dup3\n        /* \"--CODEGEN--\":18767:18770   */\n      dup2\n        /* \"--CODEGEN--\":18762:18765   */\n      dup4\n        /* \"--CODEGEN--\":18749:18779   */\n      calldatacopy\n        /* \"--CODEGEN--\":18828:18829   */\n      0x00\n        /* \"--CODEGEN--\":18819:18825   */\n      dup4\n        /* \"--CODEGEN--\":18814:18817   */\n      dup4\n        /* \"--CODEGEN--\":18810:18826   */\n      add\n        /* \"--CODEGEN--\":18803:18830   */\n      mstore\n        /* \"--CODEGEN--\":18742:18836   */\n      pop\n      pop\n      pop\n      jump\n        /* \"--CODEGEN--\":18845:19113   */\n    tag_382:\n        /* \"--CODEGEN--\":18910:18911   */\n      0x00\n        /* \"--CODEGEN--\":18917:19018   */\n    tag_451:\n        /* \"--CODEGEN--\":18931:18937   */\n      dup4\n        /* \"--CODEGEN--\":18928:18929   */\n      dup2\n        /* \"--CODEGEN--\":18925:18938   */\n      lt\n        /* \"--CODEGEN--\":18917:19018   */\n      iszero\n      tag_453\n      jumpi\n        /* \"--CODEGEN--\":19007:19008   */\n      dup1\n        /* \"--CODEGEN--\":19002:19005   */\n      dup3\n        /* \"--CODEGEN--\":18998:19009   */\n      add\n        /* \"--CODEGEN--\":18992:19010   */\n      mload\n        /* \"--CODEGEN--\":18988:18989   */\n      dup2\n        /* \"--CODEGEN--\":18983:18986   */\n      dup5\n        /* \"--CODEGEN--\":18979:18990   */\n      add\n        /* \"--CODEGEN--\":18972:19011   */\n      mstore\n        /* \"--CODEGEN--\":18953:18955   */\n      0x20\n        /* \"--CODEGEN--\":18950:18951   */\n      dup2\n        /* \"--CODEGEN--\":18946:18956   */\n      add\n        /* \"--CODEGEN--\":18941:18956   */\n      swap1\n      pop\n        /* \"--CODEGEN--\":18917:19018   */\n      jump(tag_451)\n    tag_453:\n        /* \"--CODEGEN--\":19033:19039   */\n      dup4\n        /* \"--CODEGEN--\":19030:19031   */\n      dup2\n        /* \"--CODEGEN--\":19027:19040   */\n      gt\n        /* \"--CODEGEN--\":19024:19026   */\n      iszero\n      tag_454\n      jumpi\n        /* \"--CODEGEN--\":19098:19099   */\n      0x00\n        /* \"--CODEGEN--\":19089:19095   */\n      dup5\n        /* \"--CODEGEN--\":19084:19087   */\n      dup5\n        /* \"--CODEGEN--\":19080:19096   */\n      add\n        /* \"--CODEGEN--\":19073:19100   */\n      mstore\n        /* \"--CODEGEN--\":19024:19026   */\n    tag_454:\n        /* \"--CODEGEN--\":18894:19113   */\n      pop\n      pop\n      pop\n      pop\n      jump\n        /* \"--CODEGEN--\":19121:19218   */\n    tag_384:\n      0x00\n        /* \"--CODEGEN--\":19209:19211   */\n      0x1f\n        /* \"--CODEGEN--\":19205:19212   */\n      not\n        /* \"--CODEGEN--\":19200:19202   */\n      0x1f\n        /* \"--CODEGEN--\":19193:19198   */\n      dup4\n        /* \"--CODEGEN--\":19189:19203   */\n      add\n        /* \"--CODEGEN--\":19185:19213   */\n      and\n        /* \"--CODEGEN--\":19175:19213   */\n      swap1\n      pop\n        /* \"--CODEGEN--\":19169:19218   */\n      swap2\n      swap1\n      pop\n      jump\n        /* \"--CODEGEN--\":19226:19343   */\n    tag_291:\n        /* \"--CODEGEN--\":19295:19319   */\n      tag_455\n        /* \"--CODEGEN--\":19313:19318   */\n      dup2\n        /* \"--CODEGEN--\":19295:19319   */\n      jump(tag_448)\n    tag_455:\n        /* \"--CODEGEN--\":19288:19293   */\n      dup2\n        /* \"--CODEGEN--\":19285:19320   */\n      eq\n        /* \"--CODEGEN--\":19275:19277   */\n      tag_456\n      jumpi\n        /* \"--CODEGEN--\":19334:19335   */\n      0x00\n        /* \"--CODEGEN--\":19331:19332   */\n      dup1\n        /* \"--CODEGEN--\":19324:19336   */\n      revert\n        /* \"--CODEGEN--\":19275:19277   */\n    tag_456:\n        /* \"--CODEGEN--\":19269:19343   */\n      pop\n      jump\n        /* \"--CODEGEN--\":19350:19461   */\n    tag_315:\n        /* \"--CODEGEN--\":19416:19437   */\n      tag_457\n        /* \"--CODEGEN--\":19431:19436   */\n      dup2\n        /* \"--CODEGEN--\":19416:19437   */\n      jump(tag_375)\n    tag_457:\n        /* \"--CODEGEN--\":19409:19414   */\n      dup2\n        /* \"--CODEGEN--\":19406:19438   */\n      eq\n        /* \"--CODEGEN--\":19396:19398   */\n      tag_458\n      jumpi\n        /* \"--CODEGEN--\":19452:19453   */\n      0x00\n        /* \"--CODEGEN--\":19449:19450   */\n      dup1\n        /* \"--CODEGEN--\":19442:19454   */\n      revert\n        /* \"--CODEGEN--\":19396:19398   */\n    tag_458:\n        /* \"--CODEGEN--\":19390:19461   */\n      pop\n      jump\n        /* \"--CODEGEN--\":19468:19585   */\n    tag_332:\n        /* \"--CODEGEN--\":19537:19561   */\n      tag_459\n        /* \"--CODEGEN--\":19555:19560   */\n      dup2\n        /* \"--CODEGEN--\":19537:19561   */\n      jump(tag_422)\n    tag_459:\n        /* \"--CODEGEN--\":19530:19535   */\n      dup2\n        /* \"--CODEGEN--\":19527:19562   */\n      eq\n        /* \"--CODEGEN--\":19517:19519   */\n      tag_460\n      jumpi\n        /* \"--CODEGEN--\":19576:19577   */\n      0x00\n        /* \"--CODEGEN--\":19573:19574   */\n      dup1\n        /* \"--CODEGEN--\":19566:19578   */\n      revert\n        /* \"--CODEGEN--\":19517:19519   */\n    tag_460:\n        /* \"--CODEGEN--\":19511:19585   */\n      pop\n      jump\n\n    auxdata: 0xa365627a7a723158208d72b719d49c2f4f49a2ee5a0969f7b122f15211ab6bfb2af67463090d3b5f5c6c6578706572696d656e74616cf564736f6c63430005110040\n}\n",
				"bytecode": {
					"linkReferences": {},
					"object": "60806040523480156200001157600080fd5b506000734936762f3c1b553748851900e60d9dbbcf278d1c905062000074816040518060400160405280600581526020017f416c6963650000000000000000000000000000000000000000000000000000008152506001620003b660201b60201c565b50620000bc816040518060400160405280600781526020017f466c6f72697374000000000000000000000000000000000000000000000000008152506200065160201b60201c565b62000103816040518060400160405280600781526020017f546f7572697374000000000000000000000000000000000000000000000000008152506200065160201b60201c565b6000731ed034135e576a6c1bf3ee8e05aadeef24d4a819905062000165816040518060400160405280600381526020017f426f6200000000000000000000000000000000000000000000000000000000008152506000620003b660201b60201c565b50620001ad816040518060400160405280600681526020017f44726976657200000000000000000000000000000000000000000000000000008152506200065160201b60201c565b620001f4816040518060400160405280600e81526020017f546f75726973744f6666696365720000000000000000000000000000000000008152506200065160201b60201c565b6000735afbdd0e5de3315a96504c06ac49bf34b5ecacb5905062000256816040518060400160405280600581526020017f4361726f6c0000000000000000000000000000000000000000000000000000008152506001620003b660201b60201c565b506200029e816040518060400160405280600881526020017f437573746f6d65720000000000000000000000000000000000000000000000008152506200065160201b60201c565b620002e5816040518060400160405280600a81526020017f52657374617572616e74000000000000000000000000000000000000000000008152506200065160201b60201c565b600073c9f167b5056b03eb29963ab8e6f78bb12cf5ba17905062000347816040518060400160405280600481526020017f44617665000000000000000000000000000000000000000000000000000000008152506001620003b660201b60201c565b506000732a706c6006e33610d92ea2a440cc99d5b58353e19050620003aa816040518060400160405280600581526020017f5472656e740000000000000000000000000000000000000000000000000000008152506001620003b660201b60201c565b50505050505062000a87565b6060620003c9846200074d60201b60201c565b15620003d457600080fd5b606060006040519080825280602002602001820160405280156200040d57816020015b6060815260200190600190039081620003f75790505b5090506200041a620007a5565b60405180608001604052808681526020016001151581526020018515158152602001838152509050806000808873ffffffffffffffffffffffffffffffffffffffff1673ffffffffffffffffffffffffffffffffffffffff16815260200190815260200160002060008201518160000190805190602001906200049f929190620007d1565b5060208201518160010160006101000a81548160ff02191690831515021790555060408201518160010160016101000a81548160ff0219169083151502179055506060820151816002019080519060200190620004fe92919062000858565b5090505060018690806001815401808255809150509060018203906000526020600020016000909192909190916101000a81548173ffffffffffffffffffffffffffffffffffffffff021916908373ffffffffffffffffffffffffffffffffffffffff160217905550506000808773ffffffffffffffffffffffffffffffffffffffff1673ffffffffffffffffffffffffffffffffffffffff1681526020019081526020016000206000018054600181600116156101000203166002900480601f016020809104026020016040519081016040528092919081815260200182805460018160011615610100020316600290048015620006415780601f10620006155761010080835404028352916020019162000641565b820191906000526020600020905b8154815290600101906020018083116200062357829003601f168201915b5050505050925050509392505050565b6000808373ffffffffffffffffffffffffffffffffffffffff1673ffffffffffffffffffffffffffffffffffffffff168152602001908152602001600020600201819080600181540180825580915050906001820390600052602060002001600090919290919091509080519060200190620006cf929190620008bf565b505060016000808473ffffffffffffffffffffffffffffffffffffffff1673ffffffffffffffffffffffffffffffffffffffff1681526020019081526020016000206003018260405162000724919062000a22565b908152602001604051809103902060006101000a81548160ff0219169083151502179055505050565b60008060008373ffffffffffffffffffffffffffffffffffffffff1673ffffffffffffffffffffffffffffffffffffffff16815260200190815260200160002060010160009054906101000a900460ff169050919050565b604051806080016040528060608152602001600015158152602001600015158152602001606081525090565b828054600181600116156101000203166002900490600052602060002090601f016020900481019282601f106200081457805160ff191683800117855562000845565b8280016001018555821562000845579182015b828111156200084457825182559160200191906001019062000827565b5b50905062000854919062000946565b5090565b828054828255906000526020600020908101928215620008ac579160200282015b82811115620008ab5782518290805190602001906200089a929190620007d1565b509160200191906001019062000879565b5b509050620008bb91906200096e565b5090565b828054600181600116156101000203166002900490600052602060002090601f016020900481019282601f106200090257805160ff191683800117855562000933565b8280016001018555821562000933579182015b828111156200093257825182559160200191906001019062000915565b5b50905062000942919062000946565b5090565b6200096b91905b80821115620009675760008160009055506001016200094d565b5090565b90565b6200099c91905b808211156200099857600081816200098e91906200099f565b5060010162000975565b5090565b90565b50805460018160011615610100020316600290046000825580601f10620009c75750620009e8565b601f016020900490600052602060002090810190620009e7919062000946565b5b50565b6000620009f88262000a3b565b62000a04818562000a46565b935062000a1681856020860162000a51565b80840191505092915050565b600062000a308284620009eb565b915081905092915050565b600081519050919050565b600081905092915050565b60005b8381101562000a7157808201518184015260208101905062000a54565b8381111562000a81576000848401525b50505050565b6126a28062000a976000396000f3fe608060405234801561001057600080fd5b50600436106100ea5760003560e01c80637beeb9451161008c57806398d173ff1161006657806398d173ff14610287578063b607fce5146102a3578063d6e59bea146102bf578063e9a734ff146102dd576100ea565b80637beeb945146102095780637c08c80c1461023957806383d3331914610269576100ea565b806359162240116100c857806359162240146101815780635fd4b08a1461019f57806371061398146101cf5780637323fd31146101ed576100ea565b80632de82135146100ef57806335e8acfb1461011f5780635633928714610151575b600080fd5b61010960048036036101049190810190611e47565b61030d565b6040516101169190612383565b60405180910390f35b61013960048036036101349190810190611dca565b6103db565b604051610148939291906123c0565b60405180910390f35b61016b60048036036101669190810190611dca565b6104b7565b6040516101789190612361565b60405180910390f35b6101896105f3565b6040516101969190612361565b60405180910390f35b6101b960048036036101b49190810190611dca565b610887565b6040516101c6919061239e565b60405180910390f35b6101d761096a565b6040516101e49190612361565b60405180910390f35b61020760048036036102029190810190611eae565b610bbd565b005b610223600480360361021e9190810190611dca565b610e0a565b6040516102309190612383565b60405180910390f35b610253600480360361024e9190810190611e47565b610e62565b604051610260919061239e565b60405180910390f35b6102716110e8565b60405161027e91906123fe565b60405180910390f35b6102a1600480360361029c9190810190611eea565b6110f5565b005b6102bd60048036036102b89190810190611df3565b611311565b005b6102c7611409565b6040516102d49190612361565b60405180910390f35b6102f760048036036102f29190810190611f56565b61160b565b6040516103049190612383565b60405180910390f35b600061031884610e0a565b61032157600080fd5b826000808673ffffffffffffffffffffffffffffffffffffffff1673ffffffffffffffffffffffffffffffffffffffff1681526020019081526020016000206000019080519060200190610376929190611914565b50816000808673ffffffffffffffffffffffffffffffffffffffff1673ffffffffffffffffffffffffffffffffffffffff16815260200190815260200160002060010160016101000a81548160ff021916908315150217905550600190509392505050565b6000602052806000526040600020600091509050806000018054600181600116156101000203166002900480601f0160208091040260200160405190810160405280929190818152602001828054600181600116156101000203166002900480156104875780601f1061045c57610100808354040283529160200191610487565b820191906000526020600020905b81548152906001019060200180831161046a57829003601f168201915b5050505050908060010160009054906101000a900460ff16908060010160019054906101000a900460ff16905083565b60606104c282610e0a565b6104cb57600080fd5b6000808373ffffffffffffffffffffffffffffffffffffffff1673ffffffffffffffffffffffffffffffffffffffff168152602001908152602001600020600201805480602002602001604051908101604052809291908181526020016000905b828210156105e8578382906000526020600020018054600181600116156101000203166002900480601f0160208091040260200160405190810160405280929190818152602001828054600181600116156101000203166002900480156105d45780601f106105a9576101008083540402835291602001916105d4565b820191906000526020600020905b8154815290600101906020018083116105b757829003601f168201915b50505050508152602001906001019061052c565b505050509050919050565b606080600260405190808252806020026020018201604052801561062b57816020015b60608152602001906001900390816106165790505b50905061063733610e0a565b15610810576000803373ffffffffffffffffffffffffffffffffffffffff1673ffffffffffffffffffffffffffffffffffffffff1681526020019081526020016000206000018054600181600116156101000203166002900480601f0160208091040260200160405190810160405280929190818152602001828054600181600116156101000203166002900480156107115780601f106106e657610100808354040283529160200191610711565b820191906000526020600020905b8154815290600101906020018083116106f457829003601f168201915b50505050508160008151811061072357fe5b60200260200101819052506000803373ffffffffffffffffffffffffffffffffffffffff1673ffffffffffffffffffffffffffffffffffffffff16815260200190815260200160002060010160019054906101000a900460ff166107bc576040518060400160405280600581526020017f66616c73650000000000000000000000000000000000000000000000000000008152506107f3565b6040518060400160405280600481526020017f74727565000000000000000000000000000000000000000000000000000000008152505b8160018151811061080057fe5b6020026020010181905250610880565b6040518060400160405280600e81526020017f4e6f7420726567697374657265640000000000000000000000000000000000008152508160008151811061085357fe5b602002602001018190525061086733611664565b8160018151811061087457fe5b60200260200101819052505b8091505090565b60606000808373ffffffffffffffffffffffffffffffffffffffff1673ffffffffffffffffffffffffffffffffffffffff1681526020019081526020016000206000018054600181600116156101000203166002900480601f01602080910402602001604051908101604052809291908181526020018280546001816001161561010002031660029004801561095e5780601f106109335761010080835404028352916020019161095e565b820191906000526020600020905b81548152906001019060200180831161094157829003601f168201915b50505050509050919050565b6060806001805490506040519080825280602002602001820160405280156109a657816020015b60608152602001906001900390816109915790505b50905060008090505b600180549050811015610bb557600080600183815481106109cc57fe5b9060005260206000200160009054906101000a900473ffffffffffffffffffffffffffffffffffffffff1673ffffffffffffffffffffffffffffffffffffffff1673ffffffffffffffffffffffffffffffffffffffff168152602001908152602001600020600001610a7460018381548110610a4457fe5b9060005260206000200160009054906101000a900473ffffffffffffffffffffffffffffffffffffffff16611664565b60008060018581548110610a8457fe5b9060005260206000200160009054906101000a900473ffffffffffffffffffffffffffffffffffffffff1673ffffffffffffffffffffffffffffffffffffffff1673ffffffffffffffffffffffffffffffffffffffff16815260200190815260200160002060010160019054906101000a900460ff16610b39576040518060400160405280600581526020017f66616c7365000000000000000000000000000000000000000000000000000000815250610b70565b6040518060400160405280600481526020017f74727565000000000000000000000000000000000000000000000000000000008152505b604051602001610b82939291906122f8565b604051602081830303815290604052828281518110610b9d57fe5b602002602001018190525080806001019150506109af565b508091505090565b600060016000808573ffffffffffffffffffffffffffffffffffffffff1673ffffffffffffffffffffffffffffffffffffffff168152602001908152602001600020600201805490500390506000808473ffffffffffffffffffffffffffffffffffffffff1673ffffffffffffffffffffffffffffffffffffffff1681526020019081526020016000206003016000808573ffffffffffffffffffffffffffffffffffffffff1673ffffffffffffffffffffffffffffffffffffffff1681526020019081526020016000206002018381548110610c9657fe5b90600052602060002001604051610cad91906122b2565b908152602001604051809103902060006101000a81549060ff02191690555b80821015610db0576000808473ffffffffffffffffffffffffffffffffffffffff1673ffffffffffffffffffffffffffffffffffffffff1681526020019081526020016000206002016001830181548110610d2357fe5b906000526020600020016000808573ffffffffffffffffffffffffffffffffffffffff1673ffffffffffffffffffffffffffffffffffffffff1681526020019081526020016000206002018381548110610d7957fe5b906000526020600020019080546001816001161561010002031660029004610da2929190611994565b508180600101925050610ccc565b6000808473ffffffffffffffffffffffffffffffffffffffff1673ffffffffffffffffffffffffffffffffffffffff168152602001908152602001600020600201805480919060019003610e049190611a1b565b50505050565b60008060008373ffffffffffffffffffffffffffffffffffffffff1673ffffffffffffffffffffffffffffffffffffffff16815260200190815260200160002060010160009054906101000a900460ff169050919050565b6060610e6d84610e0a565b15610e7757600080fd5b60606000604051908082528060200260200182016040528015610eae57816020015b6060815260200190600190039081610e995790505b509050610eb9611a47565b60405180608001604052808681526020016001151581526020018515158152602001838152509050806000808873ffffffffffffffffffffffffffffffffffffffff1673ffffffffffffffffffffffffffffffffffffffff1681526020019081526020016000206000820151816000019080519060200190610f3c929190611a73565b5060208201518160010160006101000a81548160ff02191690831515021790555060408201518160010160016101000a81548160ff0219169083151502179055506060820151816002019080519060200190610f99929190611af3565b5090505060018690806001815401808255809150509060018203906000526020600020016000909192909190916101000a81548173ffffffffffffffffffffffffffffffffffffffff021916908373ffffffffffffffffffffffffffffffffffffffff160217905550506000808773ffffffffffffffffffffffffffffffffffffffff1673ffffffffffffffffffffffffffffffffffffffff1681526020019081526020016000206000018054600181600116156101000203166002900480601f0160208091040260200160405190810160405280929190818152602001828054600181600116156101000203166002900480156110d85780601f106110ad576101008083540402835291602001916110d8565b820191906000526020600020905b8154815290600101906020018083116110bb57829003601f168201915b5050505050925050509392505050565b6000600180549050905090565b60008090505b825181101561130c5761112083828151811061111357fe5b6020026020010151610e0a565b6111a55761116f83828151811061113357fe5b60200260200101516111496001805490506117b3565b604051602001611159919061233f565b6040516020818303038152906040526000610e62565b506111a083828151811061117f57fe5b602002602001015183838151811061119357fe5b6020026020010151611311565b6112ff565b600080905060008090505b6000808685815181106111bf57fe5b602002602001015173ffffffffffffffffffffffffffffffffffffffff1673ffffffffffffffffffffffffffffffffffffffff168152602001908152602001600020600201805490508110156112c2576001151560008087868151811061122257fe5b602002602001015173ffffffffffffffffffffffffffffffffffffffff1673ffffffffffffffffffffffffffffffffffffffff16815260200190815260200160002060030185838151811061127357fe5b60200260200101516040516112889190612284565b908152602001604051809103902060009054906101000a900460ff16151514156112b55781806001019250505b80806001019150506111b0565b5060008114156112fd576112fc8483815181106112db57fe5b60200260200101518484815181106112ef57fe5b6020026020010151611311565b5b505b80806001019150506110fb565b505050565b6000808373ffffffffffffffffffffffffffffffffffffffff1673ffffffffffffffffffffffffffffffffffffffff16815260200190815260200160002060020181908060018154018082558091505090600182039060005260206000200160009091929091909150908051906020019061138d929190611914565b505060016000808473ffffffffffffffffffffffffffffffffffffffff1673ffffffffffffffffffffffffffffffffffffffff168152602001908152602001600020600301826040516113e0919061229b565b908152602001604051809103902060006101000a81548160ff0219169083151502179055505050565b60608060018054905060405190808252806020026020018201604052801561144557816020015b60608152602001906001900390816114305790505b50905060008090505b6001805490508110156116035760008090505b6000806001848154811061147157fe5b9060005260206000200160009054906101000a900473ffffffffffffffffffffffffffffffffffffffff1673ffffffffffffffffffffffffffffffffffffffff1673ffffffffffffffffffffffffffffffffffffffff168152602001908152602001600020600201805490508110156115f557600080600184815481106114f457fe5b9060005260206000200160009054906101000a900473ffffffffffffffffffffffffffffffffffffffff1673ffffffffffffffffffffffffffffffffffffffff1673ffffffffffffffffffffffffffffffffffffffff168152602001908152602001600020600201818154811061156757fe5b906000526020600020016115b16001848154811061158157fe5b9060005260206000200160009054906101000a900473ffffffffffffffffffffffffffffffffffffffff16611664565b6040516020016115c29291906122c9565b6040516020818303038152906040528383815181106115dd57fe5b60200260200101819052508080600101915050611461565b50808060010191505061144e565b508091505090565b60008160405160200161161e919061229b565b6040516020818303038152906040528051906020012083604051602001611645919061229b565b6040516020818303038152906040528051906020012014905092915050565b60608060286040519080825280601f01601f19166020018201604052801561169b5781602001600182028038833980820191505090505b50905060008090505b60148110156117a95760008160130360080260020a8573ffffffffffffffffffffffffffffffffffffffff16816116d757fe5b0460f81b9050600060108260f81c60ff16816116ef57fe5b0460f81b905060008160f81c6010028360f81c0360f81b9050611711826118e0565b85856002028151811061172057fe5b60200101907effffffffffffffffffffffffffffffffffffffffffffffffffffffffffffff1916908160001a905350611758816118e0565b85600186600202018151811061176a57fe5b60200101907effffffffffffffffffffffffffffffffffffffffffffffffffffffffffffff1916908160001a90535050505080806001019150506116a4565b5080915050919050565b606060008214156117fb576040518060400160405280600181526020017f300000000000000000000000000000000000000000000000000000000000000081525090506118db565b600082905060005b60008214611825578080600101915050600a828161181d57fe5b049150611803565b6060816040519080825280601f01601f19166020018201604052801561185a5781602001600182028038833980820191505090505b50905060006001830390505b600086146118d357600a868161187857fe5b0660300160f81b8282806001900393508151811061189257fe5b60200101907effffffffffffffffffffffffffffffffffffffffffffffffffffffffffffff1916908160001a905350600a86816118cb57fe5b049550611866565b819450505050505b919050565b6000600a8260f81c60ff1610156119025760308260f81c0160f81b905061190f565b60578260f81c0160f81b90505b919050565b828054600181600116156101000203166002900490600052602060002090601f016020900481019282601f1061195557805160ff1916838001178555611983565b82800160010185558215611983579182015b82811115611982578251825591602001919060010190611967565b5b5090506119909190611b53565b5090565b828054600181600116156101000203166002900490600052602060002090601f016020900481019282601f106119cd5780548555611a0a565b82800160010185558215611a0a57600052602060002091601f016020900482015b82811115611a095782548255916001019190600101906119ee565b5b509050611a179190611b53565b5090565b815481835581811115611a4257818360005260206000209182019101611a419190611b78565b5b505050565b604051806080016040528060608152602001600015158152602001600015158152602001606081525090565b828054600181600116156101000203166002900490600052602060002090601f016020900481019282601f10611ab457805160ff1916838001178555611ae2565b82800160010185558215611ae2579182015b82811115611ae1578251825591602001919060010190611ac6565b5b509050611aef9190611b53565b5090565b828054828255906000526020600020908101928215611b42579160200282015b82811115611b41578251829080519060200190611b31929190611a73565b5091602001919060010190611b13565b5b509050611b4f9190611b78565b5090565b611b7591905b80821115611b71576000816000905550600101611b59565b5090565b90565b611ba191905b80821115611b9d5760008181611b949190611ba4565b50600101611b7e565b5090565b90565b50805460018160011615610100020316600290046000825580601f10611bca5750611be9565b601f016020900490600052602060002090810190611be89190611b53565b5b50565b600081359050611bfb8161261a565b92915050565b600082601f830112611c1257600080fd5b8135611c25611c2082612446565b612419565b91508181835260208401935060208101905083856020840282011115611c4a57600080fd5b60005b83811015611c7a5781611c608882611bec565b845260208401935060208301925050600181019050611c4d565b5050505092915050565b600082601f830112611c9557600080fd5b8135611ca8611ca38261246e565b612419565b9150818183526020840193506020810190508360005b83811015611cee5781358601611cd48882611d0d565b845260208401935060208301925050600181019050611cbe565b5050505092915050565b600081359050611d0781612631565b92915050565b600082601f830112611d1e57600080fd5b8135611d31611d2c82612496565b612419565b91508082526020830160208301858383011115611d4d57600080fd5b611d588382846125c7565b50505092915050565b600082601f830112611d7257600080fd5b8135611d85611d80826124c2565b612419565b91508082526020830160208301858383011115611da157600080fd5b611dac8382846125c7565b50505092915050565b600081359050611dc481612648565b92915050565b600060208284031215611ddc57600080fd5b6000611dea84828501611bec565b91505092915050565b60008060408385031215611e0657600080fd5b6000611e1485828601611bec565b925050602083013567ffffffffffffffff811115611e3157600080fd5b611e3d85828601611d61565b9150509250929050565b600080600060608486031215611e5c57600080fd5b6000611e6a86828701611bec565b935050602084013567ffffffffffffffff811115611e8757600080fd5b611e9386828701611d61565b9250506040611ea486828701611cf8565b9150509250925092565b60008060408385031215611ec157600080fd5b6000611ecf85828601611bec565b9250506020611ee085828601611db5565b9150509250929050565b60008060408385031215611efd57600080fd5b600083013567ffffffffffffffff811115611f1757600080fd5b611f2385828601611c01565b925050602083013567ffffffffffffffff811115611f4057600080fd5b611f4c85828601611c84565b9150509250929050565b60008060408385031215611f6957600080fd5b600083013567ffffffffffffffff811115611f8357600080fd5b611f8f85828601611d61565b925050602083013567ffffffffffffffff811115611fac57600080fd5b611fb885828601611d61565b9150509250929050565b6000611fce83836120c4565b905092915050565b6000611fe182612513565b611feb8185612541565b935083602082028501611ffd856124ee565b8060005b85811015612039578484038952815161201a8582611fc2565b945061202583612534565b925060208a01995050600181019050612001565b50829750879550505050505092915050565b61205481612591565b82525050565b600061206582612529565b61206f8185612563565b935061207f8185602086016125d6565b61208881612609565b840191505092915050565b600061209e82612529565b6120a88185612574565b93506120b88185602086016125d6565b80840191505092915050565b60006120cf8261251e565b6120d98185612552565b93506120e98185602086016125d6565b6120f281612609565b840191505092915050565b60006121088261251e565b6121128185612563565b93506121228185602086016125d6565b61212b81612609565b840191505092915050565b60006121418261251e565b61214b8185612574565b935061215b8185602086016125d6565b80840191505092915050565b60008154600181166000811461218457600181146121a9576121ed565b607f60028304166121958187612574565b955060ff19831686528086019350506121ed565b600282046121b78187612574565b95506121c2856124fe565b60005b828110156121e4578154818901526001820191506020810190506121c5565b82880195505050505b505092915050565b6000612202600383612574565b91507f2f2f2f00000000000000000000000000000000000000000000000000000000006000830152600382019050919050565b6000612242600c83612574565b91507f4163636f756e74206e62723a00000000000000000000000000000000000000006000830152600c82019050919050565b61227e816125bd565b82525050565b60006122908284612136565b915081905092915050565b60006122a78284612093565b915081905092915050565b60006122be8284612167565b915081905092915050565b60006122d58285612167565b91506122e0826121f5565b91506122ec8284612093565b91508190509392505050565b60006123048286612167565b915061230f826121f5565b915061231b8285612093565b9150612326826121f5565b91506123328284612093565b9150819050949350505050565b600061234a82612235565b91506123568284612093565b915081905092915050565b6000602082019050818103600083015261237b8184611fd6565b905092915050565b6000602082019050612398600083018461204b565b92915050565b600060208201905081810360008301526123b8818461205a565b905092915050565b600060608201905081810360008301526123da81866120fd565b90506123e9602083018561204b565b6123f6604083018461204b565b949350505050565b60006020820190506124136000830184612275565b92915050565b6000604051905081810181811067ffffffffffffffff8211171561243c57600080fd5b8060405250919050565b600067ffffffffffffffff82111561245d57600080fd5b602082029050602081019050919050565b600067ffffffffffffffff82111561248557600080fd5b602082029050602081019050919050565b600067ffffffffffffffff8211156124ad57600080fd5b601f19601f8301169050602081019050919050565b600067ffffffffffffffff8211156124d957600080fd5b601f19601f8301169050602081019050919050565b6000819050602082019050919050565b60008190508160005260206000209050919050565b600081519050919050565b600081519050919050565b600081519050919050565b6000602082019050919050565b600082825260208201905092915050565b600082825260208201905092915050565b600082825260208201905092915050565b600081905092915050565b600061258a8261259d565b9050919050565b60008115159050919050565b600073ffffffffffffffffffffffffffffffffffffffff82169050919050565b6000819050919050565b82818337600083830152505050565b60005b838110156125f45780820151818401526020810190506125d9565b83811115612603576000848401525b50505050565b6000601f19601f8301169050919050565b6126238161257f565b811461262e57600080fd5b50565b61263a81612591565b811461264557600080fd5b50565b612651816125bd565b811461265c57600080fd5b5056fea365627a7a723158208d72b719d49c2f4f49a2ee5a0969f7b122f15211ab6bfb2af67463090d3b5f5c6c6578706572696d656e74616cf564736f6c63430005110040",
					"opcodes": "PUSH1 0x80 PUSH1 0x40 MSTORE CALLVALUE DUP1 ISZERO PUSH3 0x11 JUMPI PUSH1 0x0 DUP1 REVERT JUMPDEST POP PUSH1 0x0 PUSH20 0x4936762F3C1B553748851900E60D9DBBCF278D1C SWAP1 POP PUSH3 0x74 DUP2 PUSH1 0x40 MLOAD DUP1 PUSH1 0x40 ADD PUSH1 0x40 MSTORE DUP1 PUSH1 0x5 DUP2 MSTORE PUSH1 0x20 ADD PUSH32 0x416C696365000000000000000000000000000000000000000000000000000000 DUP2 MSTORE POP PUSH1 0x1 PUSH3 0x3B6 PUSH1 0x20 SHL PUSH1 0x20 SHR JUMP JUMPDEST POP PUSH3 0xBC DUP2 PUSH1 0x40 MLOAD DUP1 PUSH1 0x40 ADD PUSH1 0x40 MSTORE DUP1 PUSH1 0x7 DUP2 MSTORE PUSH1 0x20 ADD PUSH32 0x466C6F7269737400000000000000000000000000000000000000000000000000 DUP2 MSTORE POP PUSH3 0x651 PUSH1 0x20 SHL PUSH1 0x20 SHR JUMP JUMPDEST PUSH3 0x103 DUP2 PUSH1 0x40 MLOAD DUP1 PUSH1 0x40 ADD PUSH1 0x40 MSTORE DUP1 PUSH1 0x7 DUP2 MSTORE PUSH1 0x20 ADD PUSH32 0x546F757269737400000000000000000000000000000000000000000000000000 DUP2 MSTORE POP PUSH3 0x651 PUSH1 0x20 SHL PUSH1 0x20 SHR JUMP JUMPDEST PUSH1 0x0 PUSH20 0x1ED034135E576A6C1BF3EE8E05AADEEF24D4A819 SWAP1 POP PUSH3 0x165 DUP2 PUSH1 0x40 MLOAD DUP1 PUSH1 0x40 ADD PUSH1 0x40 MSTORE DUP1 PUSH1 0x3 DUP2 MSTORE PUSH1 0x20 ADD PUSH32 0x426F620000000000000000000000000000000000000000000000000000000000 DUP2 MSTORE POP PUSH1 0x0 PUSH3 0x3B6 PUSH1 0x20 SHL PUSH1 0x20 SHR JUMP JUMPDEST POP PUSH3 0x1AD DUP2 PUSH1 0x40 MLOAD DUP1 PUSH1 0x40 ADD PUSH1 0x40 MSTORE DUP1 PUSH1 0x6 DUP2 MSTORE PUSH1 0x20 ADD PUSH32 0x4472697665720000000000000000000000000000000000000000000000000000 DUP2 MSTORE POP PUSH3 0x651 PUSH1 0x20 SHL PUSH1 0x20 SHR JUMP JUMPDEST PUSH3 0x1F4 DUP2 PUSH1 0x40 MLOAD DUP1 PUSH1 0x40 ADD PUSH1 0x40 MSTORE DUP1 PUSH1 0xE DUP2 MSTORE PUSH1 0x20 ADD PUSH32 0x546F75726973744F666669636572000000000000000000000000000000000000 DUP2 MSTORE POP PUSH3 0x651 PUSH1 0x20 SHL PUSH1 0x20 SHR JUMP JUMPDEST PUSH1 0x0 PUSH20 0x5AFBDD0E5DE3315A96504C06AC49BF34B5ECACB5 SWAP1 POP PUSH3 0x256 DUP2 PUSH1 0x40 MLOAD DUP1 PUSH1 0x40 ADD PUSH1 0x40 MSTORE DUP1 PUSH1 0x5 DUP2 MSTORE PUSH1 0x20 ADD PUSH32 0x4361726F6C000000000000000000000000000000000000000000000000000000 DUP2 MSTORE POP PUSH1 0x1 PUSH3 0x3B6 PUSH1 0x20 SHL PUSH1 0x20 SHR JUMP JUMPDEST POP PUSH3 0x29E DUP2 PUSH1 0x40 MLOAD DUP1 PUSH1 0x40 ADD PUSH1 0x40 MSTORE DUP1 PUSH1 0x8 DUP2 MSTORE PUSH1 0x20 ADD PUSH32 0x437573746F6D6572000000000000000000000000000000000000000000000000 DUP2 MSTORE POP PUSH3 0x651 PUSH1 0x20 SHL PUSH1 0x20 SHR JUMP JUMPDEST PUSH3 0x2E5 DUP2 PUSH1 0x40 MLOAD DUP1 PUSH1 0x40 ADD PUSH1 0x40 MSTORE DUP1 PUSH1 0xA DUP2 MSTORE PUSH1 0x20 ADD PUSH32 0x52657374617572616E7400000000000000000000000000000000000000000000 DUP2 MSTORE POP PUSH3 0x651 PUSH1 0x20 SHL PUSH1 0x20 SHR JUMP JUMPDEST PUSH1 0x0 PUSH20 0xC9F167B5056B03EB29963AB8E6F78BB12CF5BA17 SWAP1 POP PUSH3 0x347 DUP2 PUSH1 0x40 MLOAD DUP1 PUSH1 0x40 ADD PUSH1 0x40 MSTORE DUP1 PUSH1 0x4 DUP2 MSTORE PUSH1 0x20 ADD PUSH32 0x4461766500000000000000000000000000000000000000000000000000000000 DUP2 MSTORE POP PUSH1 0x1 PUSH3 0x3B6 PUSH1 0x20 SHL PUSH1 0x20 SHR JUMP JUMPDEST POP PUSH1 0x0 PUSH20 0x2A706C6006E33610D92EA2A440CC99D5B58353E1 SWAP1 POP PUSH3 0x3AA DUP2 PUSH1 0x40 MLOAD DUP1 PUSH1 0x40 ADD PUSH1 0x40 MSTORE DUP1 PUSH1 0x5 DUP2 MSTORE PUSH1 0x20 ADD PUSH32 0x5472656E74000000000000000000000000000000000000000000000000000000 DUP2 MSTORE POP PUSH1 0x1 PUSH3 0x3B6 PUSH1 0x20 SHL PUSH1 0x20 SHR JUMP JUMPDEST POP POP POP POP POP POP PUSH3 0xA87 JUMP JUMPDEST PUSH1 0x60 PUSH3 0x3C9 DUP5 PUSH3 0x74D PUSH1 0x20 SHL PUSH1 0x20 SHR JUMP JUMPDEST ISZERO PUSH3 0x3D4 JUMPI PUSH1 0x0 DUP1 REVERT JUMPDEST PUSH1 0x60 PUSH1 0x0 PUSH1 0x40 MLOAD SWAP1 DUP1 DUP3 MSTORE DUP1 PUSH1 0x20 MUL PUSH1 0x20 ADD DUP3 ADD PUSH1 0x40 MSTORE DUP1 ISZERO PUSH3 0x40D JUMPI DUP2 PUSH1 0x20 ADD JUMPDEST PUSH1 0x60 DUP2 MSTORE PUSH1 0x20 ADD SWAP1 PUSH1 0x1 SWAP1 SUB SWAP1 DUP2 PUSH3 0x3F7 JUMPI SWAP1 POP JUMPDEST POP SWAP1 POP PUSH3 0x41A PUSH3 0x7A5 JUMP JUMPDEST PUSH1 0x40 MLOAD DUP1 PUSH1 0x80 ADD PUSH1 0x40 MSTORE DUP1 DUP7 DUP2 MSTORE PUSH1 0x20 ADD PUSH1 0x1 ISZERO ISZERO DUP2 MSTORE PUSH1 0x20 ADD DUP6 ISZERO ISZERO DUP2 MSTORE PUSH1 0x20 ADD DUP4 DUP2 MSTORE POP SWAP1 POP DUP1 PUSH1 0x0 DUP1 DUP9 PUSH20 0xFFFFFFFFFFFFFFFFFFFFFFFFFFFFFFFFFFFFFFFF AND PUSH20 0xFFFFFFFFFFFFFFFFFFFFFFFFFFFFFFFFFFFFFFFF AND DUP2 MSTORE PUSH1 0x20 ADD SWAP1 DUP2 MSTORE PUSH1 0x20 ADD PUSH1 0x0 KECCAK256 PUSH1 0x0 DUP3 ADD MLOAD DUP2 PUSH1 0x0 ADD SWAP1 DUP1 MLOAD SWAP1 PUSH1 0x20 ADD SWAP1 PUSH3 0x49F SWAP3 SWAP2 SWAP1 PUSH3 0x7D1 JUMP JUMPDEST POP PUSH1 0x20 DUP3 ADD MLOAD DUP2 PUSH1 0x1 ADD PUSH1 0x0 PUSH2 0x100 EXP DUP2 SLOAD DUP2 PUSH1 0xFF MUL NOT AND SWAP1 DUP4 ISZERO ISZERO MUL OR SWAP1 SSTORE POP PUSH1 0x40 DUP3 ADD MLOAD DUP2 PUSH1 0x1 ADD PUSH1 0x1 PUSH2 0x100 EXP DUP2 SLOAD DUP2 PUSH1 0xFF MUL NOT AND SWAP1 DUP4 ISZERO ISZERO MUL OR SWAP1 SSTORE POP PUSH1 0x60 DUP3 ADD MLOAD DUP2 PUSH1 0x2 ADD SWAP1 DUP1 MLOAD SWAP1 PUSH1 0x20 ADD SWAP1 PUSH3 0x4FE SWAP3 SWAP2 SWAP1 PUSH3 0x858 JUMP JUMPDEST POP SWAP1 POP POP PUSH1 0x1 DUP7 SWAP1 DUP1 PUSH1 0x1 DUP2 SLOAD ADD DUP1 DUP3 SSTORE DUP1 SWAP2 POP POP SWAP1 PUSH1 0x1 DUP3 SUB SWAP1 PUSH1 0x0 MSTORE PUSH1 0x20 PUSH1 0x0 KECCAK256 ADD PUSH1 0x0 SWAP1 SWAP2 SWAP3 SWAP1 SWAP2 SWAP1 SWAP2 PUSH2 0x100 EXP DUP2 SLOAD DUP2 PUSH20 0xFFFFFFFFFFFFFFFFFFFFFFFFFFFFFFFFFFFFFFFF MUL NOT AND SWAP1 DUP4 PUSH20 0xFFFFFFFFFFFFFFFFFFFFFFFFFFFFFFFFFFFFFFFF AND MUL OR SWAP1 SSTORE POP POP PUSH1 0x0 DUP1 DUP8 PUSH20 0xFFFFFFFFFFFFFFFFFFFFFFFFFFFFFFFFFFFFFFFF AND PUSH20 0xFFFFFFFFFFFFFFFFFFFFFFFFFFFFFFFFFFFFFFFF AND DUP2 MSTORE PUSH1 0x20 ADD SWAP1 DUP2 MSTORE PUSH1 0x20 ADD PUSH1 0x0 KECCAK256 PUSH1 0x0 ADD DUP1 SLOAD PUSH1 0x1 DUP2 PUSH1 0x1 AND ISZERO PUSH2 0x100 MUL SUB AND PUSH1 0x2 SWAP1 DIV DUP1 PUSH1 0x1F ADD PUSH1 0x20 DUP1 SWAP2 DIV MUL PUSH1 0x20 ADD PUSH1 0x40 MLOAD SWAP1 DUP2 ADD PUSH1 0x40 MSTORE DUP1 SWAP3 SWAP2 SWAP1 DUP2 DUP2 MSTORE PUSH1 0x20 ADD DUP3 DUP1 SLOAD PUSH1 0x1 DUP2 PUSH1 0x1 AND ISZERO PUSH2 0x100 MUL SUB AND PUSH1 0x2 SWAP1 DIV DUP1 ISZERO PUSH3 0x641 JUMPI DUP1 PUSH1 0x1F LT PUSH3 0x615 JUMPI PUSH2 0x100 DUP1 DUP4 SLOAD DIV MUL DUP4 MSTORE SWAP2 PUSH1 0x20 ADD SWAP2 PUSH3 0x641 JUMP JUMPDEST DUP3 ADD SWAP2 SWAP1 PUSH1 0x0 MSTORE PUSH1 0x20 PUSH1 0x0 KECCAK256 SWAP1 JUMPDEST DUP2 SLOAD DUP2 MSTORE SWAP1 PUSH1 0x1 ADD SWAP1 PUSH1 0x20 ADD DUP1 DUP4 GT PUSH3 0x623 JUMPI DUP3 SWAP1 SUB PUSH1 0x1F AND DUP3 ADD SWAP2 JUMPDEST POP POP POP POP POP SWAP3 POP POP POP SWAP4 SWAP3 POP POP POP JUMP JUMPDEST PUSH1 0x0 DUP1 DUP4 PUSH20 0xFFFFFFFFFFFFFFFFFFFFFFFFFFFFFFFFFFFFFFFF AND PUSH20 0xFFFFFFFFFFFFFFFFFFFFFFFFFFFFFFFFFFFFFFFF AND DUP2 MSTORE PUSH1 0x20 ADD SWAP1 DUP2 MSTORE PUSH1 0x20 ADD PUSH1 0x0 KECCAK256 PUSH1 0x2 ADD DUP2 SWAP1 DUP1 PUSH1 0x1 DUP2 SLOAD ADD DUP1 DUP3 SSTORE DUP1 SWAP2 POP POP SWAP1 PUSH1 0x1 DUP3 SUB SWAP1 PUSH1 0x0 MSTORE PUSH1 0x20 PUSH1 0x0 KECCAK256 ADD PUSH1 0x0 SWAP1 SWAP2 SWAP3 SWAP1 SWAP2 SWAP1 SWAP2 POP SWAP1 DUP1 MLOAD SWAP1 PUSH1 0x20 ADD SWAP1 PUSH3 0x6CF SWAP3 SWAP2 SWAP1 PUSH3 0x8BF JUMP JUMPDEST POP POP PUSH1 0x1 PUSH1 0x0 DUP1 DUP5 PUSH20 0xFFFFFFFFFFFFFFFFFFFFFFFFFFFFFFFFFFFFFFFF AND PUSH20 0xFFFFFFFFFFFFFFFFFFFFFFFFFFFFFFFFFFFFFFFF AND DUP2 MSTORE PUSH1 0x20 ADD SWAP1 DUP2 MSTORE PUSH1 0x20 ADD PUSH1 0x0 KECCAK256 PUSH1 0x3 ADD DUP3 PUSH1 0x40 MLOAD PUSH3 0x724 SWAP2 SWAP1 PUSH3 0xA22 JUMP JUMPDEST SWAP1 DUP2 MSTORE PUSH1 0x20 ADD PUSH1 0x40 MLOAD DUP1 SWAP2 SUB SWAP1 KECCAK256 PUSH1 0x0 PUSH2 0x100 EXP DUP2 SLOAD DUP2 PUSH1 0xFF MUL NOT AND SWAP1 DUP4 ISZERO ISZERO MUL OR SWAP1 SSTORE POP POP POP JUMP JUMPDEST PUSH1 0x0 DUP1 PUSH1 0x0 DUP4 PUSH20 0xFFFFFFFFFFFFFFFFFFFFFFFFFFFFFFFFFFFFFFFF AND PUSH20 0xFFFFFFFFFFFFFFFFFFFFFFFFFFFFFFFFFFFFFFFF AND DUP2 MSTORE PUSH1 0x20 ADD SWAP1 DUP2 MSTORE PUSH1 0x20 ADD PUSH1 0x0 KECCAK256 PUSH1 0x1 ADD PUSH1 0x0 SWAP1 SLOAD SWAP1 PUSH2 0x100 EXP SWAP1 DIV PUSH1 0xFF AND SWAP1 POP SWAP2 SWAP1 POP JUMP JUMPDEST PUSH1 0x40 MLOAD DUP1 PUSH1 0x80 ADD PUSH1 0x40 MSTORE DUP1 PUSH1 0x60 DUP2 MSTORE PUSH1 0x20 ADD PUSH1 0x0 ISZERO ISZERO DUP2 MSTORE PUSH1 0x20 ADD PUSH1 0x0 ISZERO ISZERO DUP2 MSTORE PUSH1 0x20 ADD PUSH1 0x60 DUP2 MSTORE POP SWAP1 JUMP JUMPDEST DUP3 DUP1 SLOAD PUSH1 0x1 DUP2 PUSH1 0x1 AND ISZERO PUSH2 0x100 MUL SUB AND PUSH1 0x2 SWAP1 DIV SWAP1 PUSH1 0x0 MSTORE PUSH1 0x20 PUSH1 0x0 KECCAK256 SWAP1 PUSH1 0x1F ADD PUSH1 0x20 SWAP1 DIV DUP2 ADD SWAP3 DUP3 PUSH1 0x1F LT PUSH3 0x814 JUMPI DUP1 MLOAD PUSH1 0xFF NOT AND DUP4 DUP1 ADD OR DUP6 SSTORE PUSH3 0x845 JUMP JUMPDEST DUP3 DUP1 ADD PUSH1 0x1 ADD DUP6 SSTORE DUP3 ISZERO PUSH3 0x845 JUMPI SWAP2 DUP3 ADD JUMPDEST DUP3 DUP2 GT ISZERO PUSH3 0x844 JUMPI DUP3 MLOAD DUP3 SSTORE SWAP2 PUSH1 0x20 ADD SWAP2 SWAP1 PUSH1 0x1 ADD SWAP1 PUSH3 0x827 JUMP JUMPDEST JUMPDEST POP SWAP1 POP PUSH3 0x854 SWAP2 SWAP1 PUSH3 0x946 JUMP JUMPDEST POP SWAP1 JUMP JUMPDEST DUP3 DUP1 SLOAD DUP3 DUP3 SSTORE SWAP1 PUSH1 0x0 MSTORE PUSH1 0x20 PUSH1 0x0 KECCAK256 SWAP1 DUP2 ADD SWAP3 DUP3 ISZERO PUSH3 0x8AC JUMPI SWAP2 PUSH1 0x20 MUL DUP3 ADD JUMPDEST DUP3 DUP2 GT ISZERO PUSH3 0x8AB JUMPI DUP3 MLOAD DUP3 SWAP1 DUP1 MLOAD SWAP1 PUSH1 0x20 ADD SWAP1 PUSH3 0x89A SWAP3 SWAP2 SWAP1 PUSH3 0x7D1 JUMP JUMPDEST POP SWAP2 PUSH1 0x20 ADD SWAP2 SWAP1 PUSH1 0x1 ADD SWAP1 PUSH3 0x879 JUMP JUMPDEST JUMPDEST POP SWAP1 POP PUSH3 0x8BB SWAP2 SWAP1 PUSH3 0x96E JUMP JUMPDEST POP SWAP1 JUMP JUMPDEST DUP3 DUP1 SLOAD PUSH1 0x1 DUP2 PUSH1 0x1 AND ISZERO PUSH2 0x100 MUL SUB AND PUSH1 0x2 SWAP1 DIV SWAP1 PUSH1 0x0 MSTORE PUSH1 0x20 PUSH1 0x0 KECCAK256 SWAP1 PUSH1 0x1F ADD PUSH1 0x20 SWAP1 DIV DUP2 ADD SWAP3 DUP3 PUSH1 0x1F LT PUSH3 0x902 JUMPI DUP1 MLOAD PUSH1 0xFF NOT AND DUP4 DUP1 ADD OR DUP6 SSTORE PUSH3 0x933 JUMP JUMPDEST DUP3 DUP1 ADD PUSH1 0x1 ADD DUP6 SSTORE DUP3 ISZERO PUSH3 0x933 JUMPI SWAP2 DUP3 ADD JUMPDEST DUP3 DUP2 GT ISZERO PUSH3 0x932 JUMPI DUP3 MLOAD DUP3 SSTORE SWAP2 PUSH1 0x20 ADD SWAP2 SWAP1 PUSH1 0x1 ADD SWAP1 PUSH3 0x915 JUMP JUMPDEST JUMPDEST POP SWAP1 POP PUSH3 0x942 SWAP2 SWAP1 PUSH3 0x946 JUMP JUMPDEST POP SWAP1 JUMP JUMPDEST PUSH3 0x96B SWAP2 SWAP1 JUMPDEST DUP1 DUP3 GT ISZERO PUSH3 0x967 JUMPI PUSH1 0x0 DUP2 PUSH1 0x0 SWAP1 SSTORE POP PUSH1 0x1 ADD PUSH3 0x94D JUMP JUMPDEST POP SWAP1 JUMP JUMPDEST SWAP1 JUMP JUMPDEST PUSH3 0x99C SWAP2 SWAP1 JUMPDEST DUP1 DUP3 GT ISZERO PUSH3 0x998 JUMPI PUSH1 0x0 DUP2 DUP2 PUSH3 0x98E SWAP2 SWAP1 PUSH3 0x99F JUMP JUMPDEST POP PUSH1 0x1 ADD PUSH3 0x975 JUMP JUMPDEST POP SWAP1 JUMP JUMPDEST SWAP1 JUMP JUMPDEST POP DUP1 SLOAD PUSH1 0x1 DUP2 PUSH1 0x1 AND ISZERO PUSH2 0x100 MUL SUB AND PUSH1 0x2 SWAP1 DIV PUSH1 0x0 DUP3 SSTORE DUP1 PUSH1 0x1F LT PUSH3 0x9C7 JUMPI POP PUSH3 0x9E8 JUMP JUMPDEST PUSH1 0x1F ADD PUSH1 0x20 SWAP1 DIV SWAP1 PUSH1 0x0 MSTORE PUSH1 0x20 PUSH1 0x0 KECCAK256 SWAP1 DUP2 ADD SWAP1 PUSH3 0x9E7 SWAP2 SWAP1 PUSH3 0x946 JUMP JUMPDEST JUMPDEST POP JUMP JUMPDEST PUSH1 0x0 PUSH3 0x9F8 DUP3 PUSH3 0xA3B JUMP JUMPDEST PUSH3 0xA04 DUP2 DUP6 PUSH3 0xA46 JUMP JUMPDEST SWAP4 POP PUSH3 0xA16 DUP2 DUP6 PUSH1 0x20 DUP7 ADD PUSH3 0xA51 JUMP JUMPDEST DUP1 DUP5 ADD SWAP2 POP POP SWAP3 SWAP2 POP POP JUMP JUMPDEST PUSH1 0x0 PUSH3 0xA30 DUP3 DUP5 PUSH3 0x9EB JUMP JUMPDEST SWAP2 POP DUP2 SWAP1 POP SWAP3 SWAP2 POP POP JUMP JUMPDEST PUSH1 0x0 DUP2 MLOAD SWAP1 POP SWAP2 SWAP1 POP JUMP JUMPDEST PUSH1 0x0 DUP2 SWAP1 POP SWAP3 SWAP2 POP POP JUMP JUMPDEST PUSH1 0x0 JUMPDEST DUP4 DUP2 LT ISZERO PUSH3 0xA71 JUMPI DUP1 DUP3 ADD MLOAD DUP2 DUP5 ADD MSTORE PUSH1 0x20 DUP2 ADD SWAP1 POP PUSH3 0xA54 JUMP JUMPDEST DUP4 DUP2 GT ISZERO PUSH3 0xA81 JUMPI PUSH1 0x0 DUP5 DUP5 ADD MSTORE JUMPDEST POP POP POP POP JUMP JUMPDEST PUSH2 0x26A2 DUP1 PUSH3 0xA97 PUSH1 0x0 CODECOPY PUSH1 0x0 RETURN INVALID PUSH1 0x80 PUSH1 0x40 MSTORE CALLVALUE DUP1 ISZERO PUSH2 0x10 JUMPI PUSH1 0x0 DUP1 REVERT JUMPDEST POP PUSH1 0x4 CALLDATASIZE LT PUSH2 0xEA JUMPI PUSH1 0x0 CALLDATALOAD PUSH1 0xE0 SHR DUP1 PUSH4 0x7BEEB945 GT PUSH2 0x8C JUMPI DUP1 PUSH4 0x98D173FF GT PUSH2 0x66 JUMPI DUP1 PUSH4 0x98D173FF EQ PUSH2 0x287 JUMPI DUP1 PUSH4 0xB607FCE5 EQ PUSH2 0x2A3 JUMPI DUP1 PUSH4 0xD6E59BEA EQ PUSH2 0x2BF JUMPI DUP1 PUSH4 0xE9A734FF EQ PUSH2 0x2DD JUMPI PUSH2 0xEA JUMP JUMPDEST DUP1 PUSH4 0x7BEEB945 EQ PUSH2 0x209 JUMPI DUP1 PUSH4 0x7C08C80C EQ PUSH2 0x239 JUMPI DUP1 PUSH4 0x83D33319 EQ PUSH2 0x269 JUMPI PUSH2 0xEA JUMP JUMPDEST DUP1 PUSH4 0x59162240 GT PUSH2 0xC8 JUMPI DUP1 PUSH4 0x59162240 EQ PUSH2 0x181 JUMPI DUP1 PUSH4 0x5FD4B08A EQ PUSH2 0x19F JUMPI DUP1 PUSH4 0x71061398 EQ PUSH2 0x1CF JUMPI DUP1 PUSH4 0x7323FD31 EQ PUSH2 0x1ED JUMPI PUSH2 0xEA JUMP JUMPDEST DUP1 PUSH4 0x2DE82135 EQ PUSH2 0xEF JUMPI DUP1 PUSH4 0x35E8ACFB EQ PUSH2 0x11F JUMPI DUP1 PUSH4 0x56339287 EQ PUSH2 0x151 JUMPI JUMPDEST PUSH1 0x0 DUP1 REVERT JUMPDEST PUSH2 0x109 PUSH1 0x4 DUP1 CALLDATASIZE SUB PUSH2 0x104 SWAP2 SWAP1 DUP2 ADD SWAP1 PUSH2 0x1E47 JUMP JUMPDEST PUSH2 0x30D JUMP JUMPDEST PUSH1 0x40 MLOAD PUSH2 0x116 SWAP2 SWAP1 PUSH2 0x2383 JUMP JUMPDEST PUSH1 0x40 MLOAD DUP1 SWAP2 SUB SWAP1 RETURN JUMPDEST PUSH2 0x139 PUSH1 0x4 DUP1 CALLDATASIZE SUB PUSH2 0x134 SWAP2 SWAP1 DUP2 ADD SWAP1 PUSH2 0x1DCA JUMP JUMPDEST PUSH2 0x3DB JUMP JUMPDEST PUSH1 0x40 MLOAD PUSH2 0x148 SWAP4 SWAP3 SWAP2 SWAP1 PUSH2 0x23C0 JUMP JUMPDEST PUSH1 0x40 MLOAD DUP1 SWAP2 SUB SWAP1 RETURN JUMPDEST PUSH2 0x16B PUSH1 0x4 DUP1 CALLDATASIZE SUB PUSH2 0x166 SWAP2 SWAP1 DUP2 ADD SWAP1 PUSH2 0x1DCA JUMP JUMPDEST PUSH2 0x4B7 JUMP JUMPDEST PUSH1 0x40 MLOAD PUSH2 0x178 SWAP2 SWAP1 PUSH2 0x2361 JUMP JUMPDEST PUSH1 0x40 MLOAD DUP1 SWAP2 SUB SWAP1 RETURN JUMPDEST PUSH2 0x189 PUSH2 0x5F3 JUMP JUMPDEST PUSH1 0x40 MLOAD PUSH2 0x196 SWAP2 SWAP1 PUSH2 0x2361 JUMP JUMPDEST PUSH1 0x40 MLOAD DUP1 SWAP2 SUB SWAP1 RETURN JUMPDEST PUSH2 0x1B9 PUSH1 0x4 DUP1 CALLDATASIZE SUB PUSH2 0x1B4 SWAP2 SWAP1 DUP2 ADD SWAP1 PUSH2 0x1DCA JUMP JUMPDEST PUSH2 0x887 JUMP JUMPDEST PUSH1 0x40 MLOAD PUSH2 0x1C6 SWAP2 SWAP1 PUSH2 0x239E JUMP JUMPDEST PUSH1 0x40 MLOAD DUP1 SWAP2 SUB SWAP1 RETURN JUMPDEST PUSH2 0x1D7 PUSH2 0x96A JUMP JUMPDEST PUSH1 0x40 MLOAD PUSH2 0x1E4 SWAP2 SWAP1 PUSH2 0x2361 JUMP JUMPDEST PUSH1 0x40 MLOAD DUP1 SWAP2 SUB SWAP1 RETURN JUMPDEST PUSH2 0x207 PUSH1 0x4 DUP1 CALLDATASIZE SUB PUSH2 0x202 SWAP2 SWAP1 DUP2 ADD SWAP1 PUSH2 0x1EAE JUMP JUMPDEST PUSH2 0xBBD JUMP JUMPDEST STOP JUMPDEST PUSH2 0x223 PUSH1 0x4 DUP1 CALLDATASIZE SUB PUSH2 0x21E SWAP2 SWAP1 DUP2 ADD SWAP1 PUSH2 0x1DCA JUMP JUMPDEST PUSH2 0xE0A JUMP JUMPDEST PUSH1 0x40 MLOAD PUSH2 0x230 SWAP2 SWAP1 PUSH2 0x2383 JUMP JUMPDEST PUSH1 0x40 MLOAD DUP1 SWAP2 SUB SWAP1 RETURN JUMPDEST PUSH2 0x253 PUSH1 0x4 DUP1 CALLDATASIZE SUB PUSH2 0x24E SWAP2 SWAP1 DUP2 ADD SWAP1 PUSH2 0x1E47 JUMP JUMPDEST PUSH2 0xE62 JUMP JUMPDEST PUSH1 0x40 MLOAD PUSH2 0x260 SWAP2 SWAP1 PUSH2 0x239E JUMP JUMPDEST PUSH1 0x40 MLOAD DUP1 SWAP2 SUB SWAP1 RETURN JUMPDEST PUSH2 0x271 PUSH2 0x10E8 JUMP JUMPDEST PUSH1 0x40 MLOAD PUSH2 0x27E SWAP2 SWAP1 PUSH2 0x23FE JUMP JUMPDEST PUSH1 0x40 MLOAD DUP1 SWAP2 SUB SWAP1 RETURN JUMPDEST PUSH2 0x2A1 PUSH1 0x4 DUP1 CALLDATASIZE SUB PUSH2 0x29C SWAP2 SWAP1 DUP2 ADD SWAP1 PUSH2 0x1EEA JUMP JUMPDEST PUSH2 0x10F5 JUMP JUMPDEST STOP JUMPDEST PUSH2 0x2BD PUSH1 0x4 DUP1 CALLDATASIZE SUB PUSH2 0x2B8 SWAP2 SWAP1 DUP2 ADD SWAP1 PUSH2 0x1DF3 JUMP JUMPDEST PUSH2 0x1311 JUMP JUMPDEST STOP JUMPDEST PUSH2 0x2C7 PUSH2 0x1409 JUMP JUMPDEST PUSH1 0x40 MLOAD PUSH2 0x2D4 SWAP2 SWAP1 PUSH2 0x2361 JUMP JUMPDEST PUSH1 0x40 MLOAD DUP1 SWAP2 SUB SWAP1 RETURN JUMPDEST PUSH2 0x2F7 PUSH1 0x4 DUP1 CALLDATASIZE SUB PUSH2 0x2F2 SWAP2 SWAP1 DUP2 ADD SWAP1 PUSH2 0x1F56 JUMP JUMPDEST PUSH2 0x160B JUMP JUMPDEST PUSH1 0x40 MLOAD PUSH2 0x304 SWAP2 SWAP1 PUSH2 0x2383 JUMP JUMPDEST PUSH1 0x40 MLOAD DUP1 SWAP2 SUB SWAP1 RETURN JUMPDEST PUSH1 0x0 PUSH2 0x318 DUP5 PUSH2 0xE0A JUMP JUMPDEST PUSH2 0x321 JUMPI PUSH1 0x0 DUP1 REVERT JUMPDEST DUP3 PUSH1 0x0 DUP1 DUP7 PUSH20 0xFFFFFFFFFFFFFFFFFFFFFFFFFFFFFFFFFFFFFFFF AND PUSH20 0xFFFFFFFFFFFFFFFFFFFFFFFFFFFFFFFFFFFFFFFF AND DUP2 MSTORE PUSH1 0x20 ADD SWAP1 DUP2 MSTORE PUSH1 0x20 ADD PUSH1 0x0 KECCAK256 PUSH1 0x0 ADD SWAP1 DUP1 MLOAD SWAP1 PUSH1 0x20 ADD SWAP1 PUSH2 0x376 SWAP3 SWAP2 SWAP1 PUSH2 0x1914 JUMP JUMPDEST POP DUP2 PUSH1 0x0 DUP1 DUP7 PUSH20 0xFFFFFFFFFFFFFFFFFFFFFFFFFFFFFFFFFFFFFFFF AND PUSH20 0xFFFFFFFFFFFFFFFFFFFFFFFFFFFFFFFFFFFFFFFF AND DUP2 MSTORE PUSH1 0x20 ADD SWAP1 DUP2 MSTORE PUSH1 0x20 ADD PUSH1 0x0 KECCAK256 PUSH1 0x1 ADD PUSH1 0x1 PUSH2 0x100 EXP DUP2 SLOAD DUP2 PUSH1 0xFF MUL NOT AND SWAP1 DUP4 ISZERO ISZERO MUL OR SWAP1 SSTORE POP PUSH1 0x1 SWAP1 POP SWAP4 SWAP3 POP POP POP JUMP JUMPDEST PUSH1 0x0 PUSH1 0x20 MSTORE DUP1 PUSH1 0x0 MSTORE PUSH1 0x40 PUSH1 0x0 KECCAK256 PUSH1 0x0 SWAP2 POP SWAP1 POP DUP1 PUSH1 0x0 ADD DUP1 SLOAD PUSH1 0x1 DUP2 PUSH1 0x1 AND ISZERO PUSH2 0x100 MUL SUB AND PUSH1 0x2 SWAP1 DIV DUP1 PUSH1 0x1F ADD PUSH1 0x20 DUP1 SWAP2 DIV MUL PUSH1 0x20 ADD PUSH1 0x40 MLOAD SWAP1 DUP2 ADD PUSH1 0x40 MSTORE DUP1 SWAP3 SWAP2 SWAP1 DUP2 DUP2 MSTORE PUSH1 0x20 ADD DUP3 DUP1 SLOAD PUSH1 0x1 DUP2 PUSH1 0x1 AND ISZERO PUSH2 0x100 MUL SUB AND PUSH1 0x2 SWAP1 DIV DUP1 ISZERO PUSH2 0x487 JUMPI DUP1 PUSH1 0x1F LT PUSH2 0x45C JUMPI PUSH2 0x100 DUP1 DUP4 SLOAD DIV MUL DUP4 MSTORE SWAP2 PUSH1 0x20 ADD SWAP2 PUSH2 0x487 JUMP JUMPDEST DUP3 ADD SWAP2 SWAP1 PUSH1 0x0 MSTORE PUSH1 0x20 PUSH1 0x0 KECCAK256 SWAP1 JUMPDEST DUP2 SLOAD DUP2 MSTORE SWAP1 PUSH1 0x1 ADD SWAP1 PUSH1 0x20 ADD DUP1 DUP4 GT PUSH2 0x46A JUMPI DUP3 SWAP1 SUB PUSH1 0x1F AND DUP3 ADD SWAP2 JUMPDEST POP POP POP POP POP SWAP1 DUP1 PUSH1 0x1 ADD PUSH1 0x0 SWAP1 SLOAD SWAP1 PUSH2 0x100 EXP SWAP1 DIV PUSH1 0xFF AND SWAP1 DUP1 PUSH1 0x1 ADD PUSH1 0x1 SWAP1 SLOAD SWAP1 PUSH2 0x100 EXP SWAP1 DIV PUSH1 0xFF AND SWAP1 POP DUP4 JUMP JUMPDEST PUSH1 0x60 PUSH2 0x4C2 DUP3 PUSH2 0xE0A JUMP JUMPDEST PUSH2 0x4CB JUMPI PUSH1 0x0 DUP1 REVERT JUMPDEST PUSH1 0x0 DUP1 DUP4 PUSH20 0xFFFFFFFFFFFFFFFFFFFFFFFFFFFFFFFFFFFFFFFF AND PUSH20 0xFFFFFFFFFFFFFFFFFFFFFFFFFFFFFFFFFFFFFFFF AND DUP2 MSTORE PUSH1 0x20 ADD SWAP1 DUP2 MSTORE PUSH1 0x20 ADD PUSH1 0x0 KECCAK256 PUSH1 0x2 ADD DUP1 SLOAD DUP1 PUSH1 0x20 MUL PUSH1 0x20 ADD PUSH1 0x40 MLOAD SWAP1 DUP2 ADD PUSH1 0x40 MSTORE DUP1 SWAP3 SWAP2 SWAP1 DUP2 DUP2 MSTORE PUSH1 0x20 ADD PUSH1 0x0 SWAP1 JUMPDEST DUP3 DUP3 LT ISZERO PUSH2 0x5E8 JUMPI DUP4 DUP3 SWAP1 PUSH1 0x0 MSTORE PUSH1 0x20 PUSH1 0x0 KECCAK256 ADD DUP1 SLOAD PUSH1 0x1 DUP2 PUSH1 0x1 AND ISZERO PUSH2 0x100 MUL SUB AND PUSH1 0x2 SWAP1 DIV DUP1 PUSH1 0x1F ADD PUSH1 0x20 DUP1 SWAP2 DIV MUL PUSH1 0x20 ADD PUSH1 0x40 MLOAD SWAP1 DUP2 ADD PUSH1 0x40 MSTORE DUP1 SWAP3 SWAP2 SWAP1 DUP2 DUP2 MSTORE PUSH1 0x20 ADD DUP3 DUP1 SLOAD PUSH1 0x1 DUP2 PUSH1 0x1 AND ISZERO PUSH2 0x100 MUL SUB AND PUSH1 0x2 SWAP1 DIV DUP1 ISZERO PUSH2 0x5D4 JUMPI DUP1 PUSH1 0x1F LT PUSH2 0x5A9 JUMPI PUSH2 0x100 DUP1 DUP4 SLOAD DIV MUL DUP4 MSTORE SWAP2 PUSH1 0x20 ADD SWAP2 PUSH2 0x5D4 JUMP JUMPDEST DUP3 ADD SWAP2 SWAP1 PUSH1 0x0 MSTORE PUSH1 0x20 PUSH1 0x0 KECCAK256 SWAP1 JUMPDEST DUP2 SLOAD DUP2 MSTORE SWAP1 PUSH1 0x1 ADD SWAP1 PUSH1 0x20 ADD DUP1 DUP4 GT PUSH2 0x5B7 JUMPI DUP3 SWAP1 SUB PUSH1 0x1F AND DUP3 ADD SWAP2 JUMPDEST POP POP POP POP POP DUP2 MSTORE PUSH1 0x20 ADD SWAP1 PUSH1 0x1 ADD SWAP1 PUSH2 0x52C JUMP JUMPDEST POP POP POP POP SWAP1 POP SWAP2 SWAP1 POP JUMP JUMPDEST PUSH1 0x60 DUP1 PUSH1 0x2 PUSH1 0x40 MLOAD SWAP1 DUP1 DUP3 MSTORE DUP1 PUSH1 0x20 MUL PUSH1 0x20 ADD DUP3 ADD PUSH1 0x40 MSTORE DUP1 ISZERO PUSH2 0x62B JUMPI DUP2 PUSH1 0x20 ADD JUMPDEST PUSH1 0x60 DUP2 MSTORE PUSH1 0x20 ADD SWAP1 PUSH1 0x1 SWAP1 SUB SWAP1 DUP2 PUSH2 0x616 JUMPI SWAP1 POP JUMPDEST POP SWAP1 POP PUSH2 0x637 CALLER PUSH2 0xE0A JUMP JUMPDEST ISZERO PUSH2 0x810 JUMPI PUSH1 0x0 DUP1 CALLER PUSH20 0xFFFFFFFFFFFFFFFFFFFFFFFFFFFFFFFFFFFFFFFF AND PUSH20 0xFFFFFFFFFFFFFFFFFFFFFFFFFFFFFFFFFFFFFFFF AND DUP2 MSTORE PUSH1 0x20 ADD SWAP1 DUP2 MSTORE PUSH1 0x20 ADD PUSH1 0x0 KECCAK256 PUSH1 0x0 ADD DUP1 SLOAD PUSH1 0x1 DUP2 PUSH1 0x1 AND ISZERO PUSH2 0x100 MUL SUB AND PUSH1 0x2 SWAP1 DIV DUP1 PUSH1 0x1F ADD PUSH1 0x20 DUP1 SWAP2 DIV MUL PUSH1 0x20 ADD PUSH1 0x40 MLOAD SWAP1 DUP2 ADD PUSH1 0x40 MSTORE DUP1 SWAP3 SWAP2 SWAP1 DUP2 DUP2 MSTORE PUSH1 0x20 ADD DUP3 DUP1 SLOAD PUSH1 0x1 DUP2 PUSH1 0x1 AND ISZERO PUSH2 0x100 MUL SUB AND PUSH1 0x2 SWAP1 DIV DUP1 ISZERO PUSH2 0x711 JUMPI DUP1 PUSH1 0x1F LT PUSH2 0x6E6 JUMPI PUSH2 0x100 DUP1 DUP4 SLOAD DIV MUL DUP4 MSTORE SWAP2 PUSH1 0x20 ADD SWAP2 PUSH2 0x711 JUMP JUMPDEST DUP3 ADD SWAP2 SWAP1 PUSH1 0x0 MSTORE PUSH1 0x20 PUSH1 0x0 KECCAK256 SWAP1 JUMPDEST DUP2 SLOAD DUP2 MSTORE SWAP1 PUSH1 0x1 ADD SWAP1 PUSH1 0x20 ADD DUP1 DUP4 GT PUSH2 0x6F4 JUMPI DUP3 SWAP1 SUB PUSH1 0x1F AND DUP3 ADD SWAP2 JUMPDEST POP POP POP POP POP DUP2 PUSH1 0x0 DUP2 MLOAD DUP2 LT PUSH2 0x723 JUMPI INVALID JUMPDEST PUSH1 0x20 MUL PUSH1 0x20 ADD ADD DUP2 SWAP1 MSTORE POP PUSH1 0x0 DUP1 CALLER PUSH20 0xFFFFFFFFFFFFFFFFFFFFFFFFFFFFFFFFFFFFFFFF AND PUSH20 0xFFFFFFFFFFFFFFFFFFFFFFFFFFFFFFFFFFFFFFFF AND DUP2 MSTORE PUSH1 0x20 ADD SWAP1 DUP2 MSTORE PUSH1 0x20 ADD PUSH1 0x0 KECCAK256 PUSH1 0x1 ADD PUSH1 0x1 SWAP1 SLOAD SWAP1 PUSH2 0x100 EXP SWAP1 DIV PUSH1 0xFF AND PUSH2 0x7BC JUMPI PUSH1 0x40 MLOAD DUP1 PUSH1 0x40 ADD PUSH1 0x40 MSTORE DUP1 PUSH1 0x5 DUP2 MSTORE PUSH1 0x20 ADD PUSH32 0x66616C7365000000000000000000000000000000000000000000000000000000 DUP2 MSTORE POP PUSH2 0x7F3 JUMP JUMPDEST PUSH1 0x40 MLOAD DUP1 PUSH1 0x40 ADD PUSH1 0x40 MSTORE DUP1 PUSH1 0x4 DUP2 MSTORE PUSH1 0x20 ADD PUSH32 0x7472756500000000000000000000000000000000000000000000000000000000 DUP2 MSTORE POP JUMPDEST DUP2 PUSH1 0x1 DUP2 MLOAD DUP2 LT PUSH2 0x800 JUMPI INVALID JUMPDEST PUSH1 0x20 MUL PUSH1 0x20 ADD ADD DUP2 SWAP1 MSTORE POP PUSH2 0x880 JUMP JUMPDEST PUSH1 0x40 MLOAD DUP1 PUSH1 0x40 ADD PUSH1 0x40 MSTORE DUP1 PUSH1 0xE DUP2 MSTORE PUSH1 0x20 ADD PUSH32 0x4E6F742072656769737465726564000000000000000000000000000000000000 DUP2 MSTORE POP DUP2 PUSH1 0x0 DUP2 MLOAD DUP2 LT PUSH2 0x853 JUMPI INVALID JUMPDEST PUSH1 0x20 MUL PUSH1 0x20 ADD ADD DUP2 SWAP1 MSTORE POP PUSH2 0x867 CALLER PUSH2 0x1664 JUMP JUMPDEST DUP2 PUSH1 0x1 DUP2 MLOAD DUP2 LT PUSH2 0x874 JUMPI INVALID JUMPDEST PUSH1 0x20 MUL PUSH1 0x20 ADD ADD DUP2 SWAP1 MSTORE POP JUMPDEST DUP1 SWAP2 POP POP SWAP1 JUMP JUMPDEST PUSH1 0x60 PUSH1 0x0 DUP1 DUP4 PUSH20 0xFFFFFFFFFFFFFFFFFFFFFFFFFFFFFFFFFFFFFFFF AND PUSH20 0xFFFFFFFFFFFFFFFFFFFFFFFFFFFFFFFFFFFFFFFF AND DUP2 MSTORE PUSH1 0x20 ADD SWAP1 DUP2 MSTORE PUSH1 0x20 ADD PUSH1 0x0 KECCAK256 PUSH1 0x0 ADD DUP1 SLOAD PUSH1 0x1 DUP2 PUSH1 0x1 AND ISZERO PUSH2 0x100 MUL SUB AND PUSH1 0x2 SWAP1 DIV DUP1 PUSH1 0x1F ADD PUSH1 0x20 DUP1 SWAP2 DIV MUL PUSH1 0x20 ADD PUSH1 0x40 MLOAD SWAP1 DUP2 ADD PUSH1 0x40 MSTORE DUP1 SWAP3 SWAP2 SWAP1 DUP2 DUP2 MSTORE PUSH1 0x20 ADD DUP3 DUP1 SLOAD PUSH1 0x1 DUP2 PUSH1 0x1 AND ISZERO PUSH2 0x100 MUL SUB AND PUSH1 0x2 SWAP1 DIV DUP1 ISZERO PUSH2 0x95E JUMPI DUP1 PUSH1 0x1F LT PUSH2 0x933 JUMPI PUSH2 0x100 DUP1 DUP4 SLOAD DIV MUL DUP4 MSTORE SWAP2 PUSH1 0x20 ADD SWAP2 PUSH2 0x95E JUMP JUMPDEST DUP3 ADD SWAP2 SWAP1 PUSH1 0x0 MSTORE PUSH1 0x20 PUSH1 0x0 KECCAK256 SWAP1 JUMPDEST DUP2 SLOAD DUP2 MSTORE SWAP1 PUSH1 0x1 ADD SWAP1 PUSH1 0x20 ADD DUP1 DUP4 GT PUSH2 0x941 JUMPI DUP3 SWAP1 SUB PUSH1 0x1F AND DUP3 ADD SWAP2 JUMPDEST POP POP POP POP POP SWAP1 POP SWAP2 SWAP1 POP JUMP JUMPDEST PUSH1 0x60 DUP1 PUSH1 0x1 DUP1 SLOAD SWAP1 POP PUSH1 0x40 MLOAD SWAP1 DUP1 DUP3 MSTORE DUP1 PUSH1 0x20 MUL PUSH1 0x20 ADD DUP3 ADD PUSH1 0x40 MSTORE DUP1 ISZERO PUSH2 0x9A6 JUMPI DUP2 PUSH1 0x20 ADD JUMPDEST PUSH1 0x60 DUP2 MSTORE PUSH1 0x20 ADD SWAP1 PUSH1 0x1 SWAP1 SUB SWAP1 DUP2 PUSH2 0x991 JUMPI SWAP1 POP JUMPDEST POP SWAP1 POP PUSH1 0x0 DUP1 SWAP1 POP JUMPDEST PUSH1 0x1 DUP1 SLOAD SWAP1 POP DUP2 LT ISZERO PUSH2 0xBB5 JUMPI PUSH1 0x0 DUP1 PUSH1 0x1 DUP4 DUP2 SLOAD DUP2 LT PUSH2 0x9CC JUMPI INVALID JUMPDEST SWAP1 PUSH1 0x0 MSTORE PUSH1 0x20 PUSH1 0x0 KECCAK256 ADD PUSH1 0x0 SWAP1 SLOAD SWAP1 PUSH2 0x100 EXP SWAP1 DIV PUSH20 0xFFFFFFFFFFFFFFFFFFFFFFFFFFFFFFFFFFFFFFFF AND PUSH20 0xFFFFFFFFFFFFFFFFFFFFFFFFFFFFFFFFFFFFFFFF AND PUSH20 0xFFFFFFFFFFFFFFFFFFFFFFFFFFFFFFFFFFFFFFFF AND DUP2 MSTORE PUSH1 0x20 ADD SWAP1 DUP2 MSTORE PUSH1 0x20 ADD PUSH1 0x0 KECCAK256 PUSH1 0x0 ADD PUSH2 0xA74 PUSH1 0x1 DUP4 DUP2 SLOAD DUP2 LT PUSH2 0xA44 JUMPI INVALID JUMPDEST SWAP1 PUSH1 0x0 MSTORE PUSH1 0x20 PUSH1 0x0 KECCAK256 ADD PUSH1 0x0 SWAP1 SLOAD SWAP1 PUSH2 0x100 EXP SWAP1 DIV PUSH20 0xFFFFFFFFFFFFFFFFFFFFFFFFFFFFFFFFFFFFFFFF AND PUSH2 0x1664 JUMP JUMPDEST PUSH1 0x0 DUP1 PUSH1 0x1 DUP6 DUP2 SLOAD DUP2 LT PUSH2 0xA84 JUMPI INVALID JUMPDEST SWAP1 PUSH1 0x0 MSTORE PUSH1 0x20 PUSH1 0x0 KECCAK256 ADD PUSH1 0x0 SWAP1 SLOAD SWAP1 PUSH2 0x100 EXP SWAP1 DIV PUSH20 0xFFFFFFFFFFFFFFFFFFFFFFFFFFFFFFFFFFFFFFFF AND PUSH20 0xFFFFFFFFFFFFFFFFFFFFFFFFFFFFFFFFFFFFFFFF AND PUSH20 0xFFFFFFFFFFFFFFFFFFFFFFFFFFFFFFFFFFFFFFFF AND DUP2 MSTORE PUSH1 0x20 ADD SWAP1 DUP2 MSTORE PUSH1 0x20 ADD PUSH1 0x0 KECCAK256 PUSH1 0x1 ADD PUSH1 0x1 SWAP1 SLOAD SWAP1 PUSH2 0x100 EXP SWAP1 DIV PUSH1 0xFF AND PUSH2 0xB39 JUMPI PUSH1 0x40 MLOAD DUP1 PUSH1 0x40 ADD PUSH1 0x40 MSTORE DUP1 PUSH1 0x5 DUP2 MSTORE PUSH1 0x20 ADD PUSH32 0x66616C7365000000000000000000000000000000000000000000000000000000 DUP2 MSTORE POP PUSH2 0xB70 JUMP JUMPDEST PUSH1 0x40 MLOAD DUP1 PUSH1 0x40 ADD PUSH1 0x40 MSTORE DUP1 PUSH1 0x4 DUP2 MSTORE PUSH1 0x20 ADD PUSH32 0x7472756500000000000000000000000000000000000000000000000000000000 DUP2 MSTORE POP JUMPDEST PUSH1 0x40 MLOAD PUSH1 0x20 ADD PUSH2 0xB82 SWAP4 SWAP3 SWAP2 SWAP1 PUSH2 0x22F8 JUMP JUMPDEST PUSH1 0x40 MLOAD PUSH1 0x20 DUP2 DUP4 SUB SUB DUP2 MSTORE SWAP1 PUSH1 0x40 MSTORE DUP3 DUP3 DUP2 MLOAD DUP2 LT PUSH2 0xB9D JUMPI INVALID JUMPDEST PUSH1 0x20 MUL PUSH1 0x20 ADD ADD DUP2 SWAP1 MSTORE POP DUP1 DUP1 PUSH1 0x1 ADD SWAP2 POP POP PUSH2 0x9AF JUMP JUMPDEST POP DUP1 SWAP2 POP POP SWAP1 JUMP JUMPDEST PUSH1 0x0 PUSH1 0x1 PUSH1 0x0 DUP1 DUP6 PUSH20 0xFFFFFFFFFFFFFFFFFFFFFFFFFFFFFFFFFFFFFFFF AND PUSH20 0xFFFFFFFFFFFFFFFFFFFFFFFFFFFFFFFFFFFFFFFF AND DUP2 MSTORE PUSH1 0x20 ADD SWAP1 DUP2 MSTORE PUSH1 0x20 ADD PUSH1 0x0 KECCAK256 PUSH1 0x2 ADD DUP1 SLOAD SWAP1 POP SUB SWAP1 POP PUSH1 0x0 DUP1 DUP5 PUSH20 0xFFFFFFFFFFFFFFFFFFFFFFFFFFFFFFFFFFFFFFFF AND PUSH20 0xFFFFFFFFFFFFFFFFFFFFFFFFFFFFFFFFFFFFFFFF AND DUP2 MSTORE PUSH1 0x20 ADD SWAP1 DUP2 MSTORE PUSH1 0x20 ADD PUSH1 0x0 KECCAK256 PUSH1 0x3 ADD PUSH1 0x0 DUP1 DUP6 PUSH20 0xFFFFFFFFFFFFFFFFFFFFFFFFFFFFFFFFFFFFFFFF AND PUSH20 0xFFFFFFFFFFFFFFFFFFFFFFFFFFFFFFFFFFFFFFFF AND DUP2 MSTORE PUSH1 0x20 ADD SWAP1 DUP2 MSTORE PUSH1 0x20 ADD PUSH1 0x0 KECCAK256 PUSH1 0x2 ADD DUP4 DUP2 SLOAD DUP2 LT PUSH2 0xC96 JUMPI INVALID JUMPDEST SWAP1 PUSH1 0x0 MSTORE PUSH1 0x20 PUSH1 0x0 KECCAK256 ADD PUSH1 0x40 MLOAD PUSH2 0xCAD SWAP2 SWAP1 PUSH2 0x22B2 JUMP JUMPDEST SWAP1 DUP2 MSTORE PUSH1 0x20 ADD PUSH1 0x40 MLOAD DUP1 SWAP2 SUB SWAP1 KECCAK256 PUSH1 0x0 PUSH2 0x100 EXP DUP2 SLOAD SWAP1 PUSH1 0xFF MUL NOT AND SWAP1 SSTORE JUMPDEST DUP1 DUP3 LT ISZERO PUSH2 0xDB0 JUMPI PUSH1 0x0 DUP1 DUP5 PUSH20 0xFFFFFFFFFFFFFFFFFFFFFFFFFFFFFFFFFFFFFFFF AND PUSH20 0xFFFFFFFFFFFFFFFFFFFFFFFFFFFFFFFFFFFFFFFF AND DUP2 MSTORE PUSH1 0x20 ADD SWAP1 DUP2 MSTORE PUSH1 0x20 ADD PUSH1 0x0 KECCAK256 PUSH1 0x2 ADD PUSH1 0x1 DUP4 ADD DUP2 SLOAD DUP2 LT PUSH2 0xD23 JUMPI INVALID JUMPDEST SWAP1 PUSH1 0x0 MSTORE PUSH1 0x20 PUSH1 0x0 KECCAK256 ADD PUSH1 0x0 DUP1 DUP6 PUSH20 0xFFFFFFFFFFFFFFFFFFFFFFFFFFFFFFFFFFFFFFFF AND PUSH20 0xFFFFFFFFFFFFFFFFFFFFFFFFFFFFFFFFFFFFFFFF AND DUP2 MSTORE PUSH1 0x20 ADD SWAP1 DUP2 MSTORE PUSH1 0x20 ADD PUSH1 0x0 KECCAK256 PUSH1 0x2 ADD DUP4 DUP2 SLOAD DUP2 LT PUSH2 0xD79 JUMPI INVALID JUMPDEST SWAP1 PUSH1 0x0 MSTORE PUSH1 0x20 PUSH1 0x0 KECCAK256 ADD SWAP1 DUP1 SLOAD PUSH1 0x1 DUP2 PUSH1 0x1 AND ISZERO PUSH2 0x100 MUL SUB AND PUSH1 0x2 SWAP1 DIV PUSH2 0xDA2 SWAP3 SWAP2 SWAP1 PUSH2 0x1994 JUMP JUMPDEST POP DUP2 DUP1 PUSH1 0x1 ADD SWAP3 POP POP PUSH2 0xCCC JUMP JUMPDEST PUSH1 0x0 DUP1 DUP5 PUSH20 0xFFFFFFFFFFFFFFFFFFFFFFFFFFFFFFFFFFFFFFFF AND PUSH20 0xFFFFFFFFFFFFFFFFFFFFFFFFFFFFFFFFFFFFFFFF AND DUP2 MSTORE PUSH1 0x20 ADD SWAP1 DUP2 MSTORE PUSH1 0x20 ADD PUSH1 0x0 KECCAK256 PUSH1 0x2 ADD DUP1 SLOAD DUP1 SWAP2 SWAP1 PUSH1 0x1 SWAP1 SUB PUSH2 0xE04 SWAP2 SWAP1 PUSH2 0x1A1B JUMP JUMPDEST POP POP POP POP JUMP JUMPDEST PUSH1 0x0 DUP1 PUSH1 0x0 DUP4 PUSH20 0xFFFFFFFFFFFFFFFFFFFFFFFFFFFFFFFFFFFFFFFF AND PUSH20 0xFFFFFFFFFFFFFFFFFFFFFFFFFFFFFFFFFFFFFFFF AND DUP2 MSTORE PUSH1 0x20 ADD SWAP1 DUP2 MSTORE PUSH1 0x20 ADD PUSH1 0x0 KECCAK256 PUSH1 0x1 ADD PUSH1 0x0 SWAP1 SLOAD SWAP1 PUSH2 0x100 EXP SWAP1 DIV PUSH1 0xFF AND SWAP1 POP SWAP2 SWAP1 POP JUMP JUMPDEST PUSH1 0x60 PUSH2 0xE6D DUP5 PUSH2 0xE0A JUMP JUMPDEST ISZERO PUSH2 0xE77 JUMPI PUSH1 0x0 DUP1 REVERT JUMPDEST PUSH1 0x60 PUSH1 0x0 PUSH1 0x40 MLOAD SWAP1 DUP1 DUP3 MSTORE DUP1 PUSH1 0x20 MUL PUSH1 0x20 ADD DUP3 ADD PUSH1 0x40 MSTORE DUP1 ISZERO PUSH2 0xEAE JUMPI DUP2 PUSH1 0x20 ADD JUMPDEST PUSH1 0x60 DUP2 MSTORE PUSH1 0x20 ADD SWAP1 PUSH1 0x1 SWAP1 SUB SWAP1 DUP2 PUSH2 0xE99 JUMPI SWAP1 POP JUMPDEST POP SWAP1 POP PUSH2 0xEB9 PUSH2 0x1A47 JUMP JUMPDEST PUSH1 0x40 MLOAD DUP1 PUSH1 0x80 ADD PUSH1 0x40 MSTORE DUP1 DUP7 DUP2 MSTORE PUSH1 0x20 ADD PUSH1 0x1 ISZERO ISZERO DUP2 MSTORE PUSH1 0x20 ADD DUP6 ISZERO ISZERO DUP2 MSTORE PUSH1 0x20 ADD DUP4 DUP2 MSTORE POP SWAP1 POP DUP1 PUSH1 0x0 DUP1 DUP9 PUSH20 0xFFFFFFFFFFFFFFFFFFFFFFFFFFFFFFFFFFFFFFFF AND PUSH20 0xFFFFFFFFFFFFFFFFFFFFFFFFFFFFFFFFFFFFFFFF AND DUP2 MSTORE PUSH1 0x20 ADD SWAP1 DUP2 MSTORE PUSH1 0x20 ADD PUSH1 0x0 KECCAK256 PUSH1 0x0 DUP3 ADD MLOAD DUP2 PUSH1 0x0 ADD SWAP1 DUP1 MLOAD SWAP1 PUSH1 0x20 ADD SWAP1 PUSH2 0xF3C SWAP3 SWAP2 SWAP1 PUSH2 0x1A73 JUMP JUMPDEST POP PUSH1 0x20 DUP3 ADD MLOAD DUP2 PUSH1 0x1 ADD PUSH1 0x0 PUSH2 0x100 EXP DUP2 SLOAD DUP2 PUSH1 0xFF MUL NOT AND SWAP1 DUP4 ISZERO ISZERO MUL OR SWAP1 SSTORE POP PUSH1 0x40 DUP3 ADD MLOAD DUP2 PUSH1 0x1 ADD PUSH1 0x1 PUSH2 0x100 EXP DUP2 SLOAD DUP2 PUSH1 0xFF MUL NOT AND SWAP1 DUP4 ISZERO ISZERO MUL OR SWAP1 SSTORE POP PUSH1 0x60 DUP3 ADD MLOAD DUP2 PUSH1 0x2 ADD SWAP1 DUP1 MLOAD SWAP1 PUSH1 0x20 ADD SWAP1 PUSH2 0xF99 SWAP3 SWAP2 SWAP1 PUSH2 0x1AF3 JUMP JUMPDEST POP SWAP1 POP POP PUSH1 0x1 DUP7 SWAP1 DUP1 PUSH1 0x1 DUP2 SLOAD ADD DUP1 DUP3 SSTORE DUP1 SWAP2 POP POP SWAP1 PUSH1 0x1 DUP3 SUB SWAP1 PUSH1 0x0 MSTORE PUSH1 0x20 PUSH1 0x0 KECCAK256 ADD PUSH1 0x0 SWAP1 SWAP2 SWAP3 SWAP1 SWAP2 SWAP1 SWAP2 PUSH2 0x100 EXP DUP2 SLOAD DUP2 PUSH20 0xFFFFFFFFFFFFFFFFFFFFFFFFFFFFFFFFFFFFFFFF MUL NOT AND SWAP1 DUP4 PUSH20 0xFFFFFFFFFFFFFFFFFFFFFFFFFFFFFFFFFFFFFFFF AND MUL OR SWAP1 SSTORE POP POP PUSH1 0x0 DUP1 DUP8 PUSH20 0xFFFFFFFFFFFFFFFFFFFFFFFFFFFFFFFFFFFFFFFF AND PUSH20 0xFFFFFFFFFFFFFFFFFFFFFFFFFFFFFFFFFFFFFFFF AND DUP2 MSTORE PUSH1 0x20 ADD SWAP1 DUP2 MSTORE PUSH1 0x20 ADD PUSH1 0x0 KECCAK256 PUSH1 0x0 ADD DUP1 SLOAD PUSH1 0x1 DUP2 PUSH1 0x1 AND ISZERO PUSH2 0x100 MUL SUB AND PUSH1 0x2 SWAP1 DIV DUP1 PUSH1 0x1F ADD PUSH1 0x20 DUP1 SWAP2 DIV MUL PUSH1 0x20 ADD PUSH1 0x40 MLOAD SWAP1 DUP2 ADD PUSH1 0x40 MSTORE DUP1 SWAP3 SWAP2 SWAP1 DUP2 DUP2 MSTORE PUSH1 0x20 ADD DUP3 DUP1 SLOAD PUSH1 0x1 DUP2 PUSH1 0x1 AND ISZERO PUSH2 0x100 MUL SUB AND PUSH1 0x2 SWAP1 DIV DUP1 ISZERO PUSH2 0x10D8 JUMPI DUP1 PUSH1 0x1F LT PUSH2 0x10AD JUMPI PUSH2 0x100 DUP1 DUP4 SLOAD DIV MUL DUP4 MSTORE SWAP2 PUSH1 0x20 ADD SWAP2 PUSH2 0x10D8 JUMP JUMPDEST DUP3 ADD SWAP2 SWAP1 PUSH1 0x0 MSTORE PUSH1 0x20 PUSH1 0x0 KECCAK256 SWAP1 JUMPDEST DUP2 SLOAD DUP2 MSTORE SWAP1 PUSH1 0x1 ADD SWAP1 PUSH1 0x20 ADD DUP1 DUP4 GT PUSH2 0x10BB JUMPI DUP3 SWAP1 SUB PUSH1 0x1F AND DUP3 ADD SWAP2 JUMPDEST POP POP POP POP POP SWAP3 POP POP POP SWAP4 SWAP3 POP POP POP JUMP JUMPDEST PUSH1 0x0 PUSH1 0x1 DUP1 SLOAD SWAP1 POP SWAP1 POP SWAP1 JUMP JUMPDEST PUSH1 0x0 DUP1 SWAP1 POP JUMPDEST DUP3 MLOAD DUP2 LT ISZERO PUSH2 0x130C JUMPI PUSH2 0x1120 DUP4 DUP3 DUP2 MLOAD DUP2 LT PUSH2 0x1113 JUMPI INVALID JUMPDEST PUSH1 0x20 MUL PUSH1 0x20 ADD ADD MLOAD PUSH2 0xE0A JUMP JUMPDEST PUSH2 0x11A5 JUMPI PUSH2 0x116F DUP4 DUP3 DUP2 MLOAD DUP2 LT PUSH2 0x1133 JUMPI INVALID JUMPDEST PUSH1 0x20 MUL PUSH1 0x20 ADD ADD MLOAD PUSH2 0x1149 PUSH1 0x1 DUP1 SLOAD SWAP1 POP PUSH2 0x17B3 JUMP JUMPDEST PUSH1 0x40 MLOAD PUSH1 0x20 ADD PUSH2 0x1159 SWAP2 SWAP1 PUSH2 0x233F JUMP JUMPDEST PUSH1 0x40 MLOAD PUSH1 0x20 DUP2 DUP4 SUB SUB DUP2 MSTORE SWAP1 PUSH1 0x40 MSTORE PUSH1 0x0 PUSH2 0xE62 JUMP JUMPDEST POP PUSH2 0x11A0 DUP4 DUP3 DUP2 MLOAD DUP2 LT PUSH2 0x117F JUMPI INVALID JUMPDEST PUSH1 0x20 MUL PUSH1 0x20 ADD ADD MLOAD DUP4 DUP4 DUP2 MLOAD DUP2 LT PUSH2 0x1193 JUMPI INVALID JUMPDEST PUSH1 0x20 MUL PUSH1 0x20 ADD ADD MLOAD PUSH2 0x1311 JUMP JUMPDEST PUSH2 0x12FF JUMP JUMPDEST PUSH1 0x0 DUP1 SWAP1 POP PUSH1 0x0 DUP1 SWAP1 POP JUMPDEST PUSH1 0x0 DUP1 DUP7 DUP6 DUP2 MLOAD DUP2 LT PUSH2 0x11BF JUMPI INVALID JUMPDEST PUSH1 0x20 MUL PUSH1 0x20 ADD ADD MLOAD PUSH20 0xFFFFFFFFFFFFFFFFFFFFFFFFFFFFFFFFFFFFFFFF AND PUSH20 0xFFFFFFFFFFFFFFFFFFFFFFFFFFFFFFFFFFFFFFFF AND DUP2 MSTORE PUSH1 0x20 ADD SWAP1 DUP2 MSTORE PUSH1 0x20 ADD PUSH1 0x0 KECCAK256 PUSH1 0x2 ADD DUP1 SLOAD SWAP1 POP DUP2 LT ISZERO PUSH2 0x12C2 JUMPI PUSH1 0x1 ISZERO ISZERO PUSH1 0x0 DUP1 DUP8 DUP7 DUP2 MLOAD DUP2 LT PUSH2 0x1222 JUMPI INVALID JUMPDEST PUSH1 0x20 MUL PUSH1 0x20 ADD ADD MLOAD PUSH20 0xFFFFFFFFFFFFFFFFFFFFFFFFFFFFFFFFFFFFFFFF AND PUSH20 0xFFFFFFFFFFFFFFFFFFFFFFFFFFFFFFFFFFFFFFFF AND DUP2 MSTORE PUSH1 0x20 ADD SWAP1 DUP2 MSTORE PUSH1 0x20 ADD PUSH1 0x0 KECCAK256 PUSH1 0x3 ADD DUP6 DUP4 DUP2 MLOAD DUP2 LT PUSH2 0x1273 JUMPI INVALID JUMPDEST PUSH1 0x20 MUL PUSH1 0x20 ADD ADD MLOAD PUSH1 0x40 MLOAD PUSH2 0x1288 SWAP2 SWAP1 PUSH2 0x2284 JUMP JUMPDEST SWAP1 DUP2 MSTORE PUSH1 0x20 ADD PUSH1 0x40 MLOAD DUP1 SWAP2 SUB SWAP1 KECCAK256 PUSH1 0x0 SWAP1 SLOAD SWAP1 PUSH2 0x100 EXP SWAP1 DIV PUSH1 0xFF AND ISZERO ISZERO EQ ISZERO PUSH2 0x12B5 JUMPI DUP2 DUP1 PUSH1 0x1 ADD SWAP3 POP POP JUMPDEST DUP1 DUP1 PUSH1 0x1 ADD SWAP2 POP POP PUSH2 0x11B0 JUMP JUMPDEST POP PUSH1 0x0 DUP2 EQ ISZERO PUSH2 0x12FD JUMPI PUSH2 0x12FC DUP5 DUP4 DUP2 MLOAD DUP2 LT PUSH2 0x12DB JUMPI INVALID JUMPDEST PUSH1 0x20 MUL PUSH1 0x20 ADD ADD MLOAD DUP5 DUP5 DUP2 MLOAD DUP2 LT PUSH2 0x12EF JUMPI INVALID JUMPDEST PUSH1 0x20 MUL PUSH1 0x20 ADD ADD MLOAD PUSH2 0x1311 JUMP JUMPDEST JUMPDEST POP JUMPDEST DUP1 DUP1 PUSH1 0x1 ADD SWAP2 POP POP PUSH2 0x10FB JUMP JUMPDEST POP POP POP JUMP JUMPDEST PUSH1 0x0 DUP1 DUP4 PUSH20 0xFFFFFFFFFFFFFFFFFFFFFFFFFFFFFFFFFFFFFFFF AND PUSH20 0xFFFFFFFFFFFFFFFFFFFFFFFFFFFFFFFFFFFFFFFF AND DUP2 MSTORE PUSH1 0x20 ADD SWAP1 DUP2 MSTORE PUSH1 0x20 ADD PUSH1 0x0 KECCAK256 PUSH1 0x2 ADD DUP2 SWAP1 DUP1 PUSH1 0x1 DUP2 SLOAD ADD DUP1 DUP3 SSTORE DUP1 SWAP2 POP POP SWAP1 PUSH1 0x1 DUP3 SUB SWAP1 PUSH1 0x0 MSTORE PUSH1 0x20 PUSH1 0x0 KECCAK256 ADD PUSH1 0x0 SWAP1 SWAP2 SWAP3 SWAP1 SWAP2 SWAP1 SWAP2 POP SWAP1 DUP1 MLOAD SWAP1 PUSH1 0x20 ADD SWAP1 PUSH2 0x138D SWAP3 SWAP2 SWAP1 PUSH2 0x1914 JUMP JUMPDEST POP POP PUSH1 0x1 PUSH1 0x0 DUP1 DUP5 PUSH20 0xFFFFFFFFFFFFFFFFFFFFFFFFFFFFFFFFFFFFFFFF AND PUSH20 0xFFFFFFFFFFFFFFFFFFFFFFFFFFFFFFFFFFFFFFFF AND DUP2 MSTORE PUSH1 0x20 ADD SWAP1 DUP2 MSTORE PUSH1 0x20 ADD PUSH1 0x0 KECCAK256 PUSH1 0x3 ADD DUP3 PUSH1 0x40 MLOAD PUSH2 0x13E0 SWAP2 SWAP1 PUSH2 0x229B JUMP JUMPDEST SWAP1 DUP2 MSTORE PUSH1 0x20 ADD PUSH1 0x40 MLOAD DUP1 SWAP2 SUB SWAP1 KECCAK256 PUSH1 0x0 PUSH2 0x100 EXP DUP2 SLOAD DUP2 PUSH1 0xFF MUL NOT AND SWAP1 DUP4 ISZERO ISZERO MUL OR SWAP1 SSTORE POP POP POP JUMP JUMPDEST PUSH1 0x60 DUP1 PUSH1 0x1 DUP1 SLOAD SWAP1 POP PUSH1 0x40 MLOAD SWAP1 DUP1 DUP3 MSTORE DUP1 PUSH1 0x20 MUL PUSH1 0x20 ADD DUP3 ADD PUSH1 0x40 MSTORE DUP1 ISZERO PUSH2 0x1445 JUMPI DUP2 PUSH1 0x20 ADD JUMPDEST PUSH1 0x60 DUP2 MSTORE PUSH1 0x20 ADD SWAP1 PUSH1 0x1 SWAP1 SUB SWAP1 DUP2 PUSH2 0x1430 JUMPI SWAP1 POP JUMPDEST POP SWAP1 POP PUSH1 0x0 DUP1 SWAP1 POP JUMPDEST PUSH1 0x1 DUP1 SLOAD SWAP1 POP DUP2 LT ISZERO PUSH2 0x1603 JUMPI PUSH1 0x0 DUP1 SWAP1 POP JUMPDEST PUSH1 0x0 DUP1 PUSH1 0x1 DUP5 DUP2 SLOAD DUP2 LT PUSH2 0x1471 JUMPI INVALID JUMPDEST SWAP1 PUSH1 0x0 MSTORE PUSH1 0x20 PUSH1 0x0 KECCAK256 ADD PUSH1 0x0 SWAP1 SLOAD SWAP1 PUSH2 0x100 EXP SWAP1 DIV PUSH20 0xFFFFFFFFFFFFFFFFFFFFFFFFFFFFFFFFFFFFFFFF AND PUSH20 0xFFFFFFFFFFFFFFFFFFFFFFFFFFFFFFFFFFFFFFFF AND PUSH20 0xFFFFFFFFFFFFFFFFFFFFFFFFFFFFFFFFFFFFFFFF AND DUP2 MSTORE PUSH1 0x20 ADD SWAP1 DUP2 MSTORE PUSH1 0x20 ADD PUSH1 0x0 KECCAK256 PUSH1 0x2 ADD DUP1 SLOAD SWAP1 POP DUP2 LT ISZERO PUSH2 0x15F5 JUMPI PUSH1 0x0 DUP1 PUSH1 0x1 DUP5 DUP2 SLOAD DUP2 LT PUSH2 0x14F4 JUMPI INVALID JUMPDEST SWAP1 PUSH1 0x0 MSTORE PUSH1 0x20 PUSH1 0x0 KECCAK256 ADD PUSH1 0x0 SWAP1 SLOAD SWAP1 PUSH2 0x100 EXP SWAP1 DIV PUSH20 0xFFFFFFFFFFFFFFFFFFFFFFFFFFFFFFFFFFFFFFFF AND PUSH20 0xFFFFFFFFFFFFFFFFFFFFFFFFFFFFFFFFFFFFFFFF AND PUSH20 0xFFFFFFFFFFFFFFFFFFFFFFFFFFFFFFFFFFFFFFFF AND DUP2 MSTORE PUSH1 0x20 ADD SWAP1 DUP2 MSTORE PUSH1 0x20 ADD PUSH1 0x0 KECCAK256 PUSH1 0x2 ADD DUP2 DUP2 SLOAD DUP2 LT PUSH2 0x1567 JUMPI INVALID JUMPDEST SWAP1 PUSH1 0x0 MSTORE PUSH1 0x20 PUSH1 0x0 KECCAK256 ADD PUSH2 0x15B1 PUSH1 0x1 DUP5 DUP2 SLOAD DUP2 LT PUSH2 0x1581 JUMPI INVALID JUMPDEST SWAP1 PUSH1 0x0 MSTORE PUSH1 0x20 PUSH1 0x0 KECCAK256 ADD PUSH1 0x0 SWAP1 SLOAD SWAP1 PUSH2 0x100 EXP SWAP1 DIV PUSH20 0xFFFFFFFFFFFFFFFFFFFFFFFFFFFFFFFFFFFFFFFF AND PUSH2 0x1664 JUMP JUMPDEST PUSH1 0x40 MLOAD PUSH1 0x20 ADD PUSH2 0x15C2 SWAP3 SWAP2 SWAP1 PUSH2 0x22C9 JUMP JUMPDEST PUSH1 0x40 MLOAD PUSH1 0x20 DUP2 DUP4 SUB SUB DUP2 MSTORE SWAP1 PUSH1 0x40 MSTORE DUP4 DUP4 DUP2 MLOAD DUP2 LT PUSH2 0x15DD JUMPI INVALID JUMPDEST PUSH1 0x20 MUL PUSH1 0x20 ADD ADD DUP2 SWAP1 MSTORE POP DUP1 DUP1 PUSH1 0x1 ADD SWAP2 POP POP PUSH2 0x1461 JUMP JUMPDEST POP DUP1 DUP1 PUSH1 0x1 ADD SWAP2 POP POP PUSH2 0x144E JUMP JUMPDEST POP DUP1 SWAP2 POP POP SWAP1 JUMP JUMPDEST PUSH1 0x0 DUP2 PUSH1 0x40 MLOAD PUSH1 0x20 ADD PUSH2 0x161E SWAP2 SWAP1 PUSH2 0x229B JUMP JUMPDEST PUSH1 0x40 MLOAD PUSH1 0x20 DUP2 DUP4 SUB SUB DUP2 MSTORE SWAP1 PUSH1 0x40 MSTORE DUP1 MLOAD SWAP1 PUSH1 0x20 ADD KECCAK256 DUP4 PUSH1 0x40 MLOAD PUSH1 0x20 ADD PUSH2 0x1645 SWAP2 SWAP1 PUSH2 0x229B JUMP JUMPDEST PUSH1 0x40 MLOAD PUSH1 0x20 DUP2 DUP4 SUB SUB DUP2 MSTORE SWAP1 PUSH1 0x40 MSTORE DUP1 MLOAD SWAP1 PUSH1 0x20 ADD KECCAK256 EQ SWAP1 POP SWAP3 SWAP2 POP POP JUMP JUMPDEST PUSH1 0x60 DUP1 PUSH1 0x28 PUSH1 0x40 MLOAD SWAP1 DUP1 DUP3 MSTORE DUP1 PUSH1 0x1F ADD PUSH1 0x1F NOT AND PUSH1 0x20 ADD DUP3 ADD PUSH1 0x40 MSTORE DUP1 ISZERO PUSH2 0x169B JUMPI DUP2 PUSH1 0x20 ADD PUSH1 0x1 DUP3 MUL DUP1 CODESIZE DUP4 CODECOPY DUP1 DUP3 ADD SWAP2 POP POP SWAP1 POP JUMPDEST POP SWAP1 POP PUSH1 0x0 DUP1 SWAP1 POP JUMPDEST PUSH1 0x14 DUP2 LT ISZERO PUSH2 0x17A9 JUMPI PUSH1 0x0 DUP2 PUSH1 0x13 SUB PUSH1 0x8 MUL PUSH1 0x2 EXP DUP6 PUSH20 0xFFFFFFFFFFFFFFFFFFFFFFFFFFFFFFFFFFFFFFFF AND DUP2 PUSH2 0x16D7 JUMPI INVALID JUMPDEST DIV PUSH1 0xF8 SHL SWAP1 POP PUSH1 0x0 PUSH1 0x10 DUP3 PUSH1 0xF8 SHR PUSH1 0xFF AND DUP2 PUSH2 0x16EF JUMPI INVALID JUMPDEST DIV PUSH1 0xF8 SHL SWAP1 POP PUSH1 0x0 DUP2 PUSH1 0xF8 SHR PUSH1 0x10 MUL DUP4 PUSH1 0xF8 SHR SUB PUSH1 0xF8 SHL SWAP1 POP PUSH2 0x1711 DUP3 PUSH2 0x18E0 JUMP JUMPDEST DUP6 DUP6 PUSH1 0x2 MUL DUP2 MLOAD DUP2 LT PUSH2 0x1720 JUMPI INVALID JUMPDEST PUSH1 0x20 ADD ADD SWAP1 PUSH31 0xFFFFFFFFFFFFFFFFFFFFFFFFFFFFFFFFFFFFFFFFFFFFFFFFFFFFFFFFFFFFFF NOT AND SWAP1 DUP2 PUSH1 0x0 BYTE SWAP1 MSTORE8 POP PUSH2 0x1758 DUP2 PUSH2 0x18E0 JUMP JUMPDEST DUP6 PUSH1 0x1 DUP7 PUSH1 0x2 MUL ADD DUP2 MLOAD DUP2 LT PUSH2 0x176A JUMPI INVALID JUMPDEST PUSH1 0x20 ADD ADD SWAP1 PUSH31 0xFFFFFFFFFFFFFFFFFFFFFFFFFFFFFFFFFFFFFFFFFFFFFFFFFFFFFFFFFFFFFF NOT AND SWAP1 DUP2 PUSH1 0x0 BYTE SWAP1 MSTORE8 POP POP POP POP DUP1 DUP1 PUSH1 0x1 ADD SWAP2 POP POP PUSH2 0x16A4 JUMP JUMPDEST POP DUP1 SWAP2 POP POP SWAP2 SWAP1 POP JUMP JUMPDEST PUSH1 0x60 PUSH1 0x0 DUP3 EQ ISZERO PUSH2 0x17FB JUMPI PUSH1 0x40 MLOAD DUP1 PUSH1 0x40 ADD PUSH1 0x40 MSTORE DUP1 PUSH1 0x1 DUP2 MSTORE PUSH1 0x20 ADD PUSH32 0x3000000000000000000000000000000000000000000000000000000000000000 DUP2 MSTORE POP SWAP1 POP PUSH2 0x18DB JUMP JUMPDEST PUSH1 0x0 DUP3 SWAP1 POP PUSH1 0x0 JUMPDEST PUSH1 0x0 DUP3 EQ PUSH2 0x1825 JUMPI DUP1 DUP1 PUSH1 0x1 ADD SWAP2 POP POP PUSH1 0xA DUP3 DUP2 PUSH2 0x181D JUMPI INVALID JUMPDEST DIV SWAP2 POP PUSH2 0x1803 JUMP JUMPDEST PUSH1 0x60 DUP2 PUSH1 0x40 MLOAD SWAP1 DUP1 DUP3 MSTORE DUP1 PUSH1 0x1F ADD PUSH1 0x1F NOT AND PUSH1 0x20 ADD DUP3 ADD PUSH1 0x40 MSTORE DUP1 ISZERO PUSH2 0x185A JUMPI DUP2 PUSH1 0x20 ADD PUSH1 0x1 DUP3 MUL DUP1 CODESIZE DUP4 CODECOPY DUP1 DUP3 ADD SWAP2 POP POP SWAP1 POP JUMPDEST POP SWAP1 POP PUSH1 0x0 PUSH1 0x1 DUP4 SUB SWAP1 POP JUMPDEST PUSH1 0x0 DUP7 EQ PUSH2 0x18D3 JUMPI PUSH1 0xA DUP7 DUP2 PUSH2 0x1878 JUMPI INVALID JUMPDEST MOD PUSH1 0x30 ADD PUSH1 0xF8 SHL DUP3 DUP3 DUP1 PUSH1 0x1 SWAP1 SUB SWAP4 POP DUP2 MLOAD DUP2 LT PUSH2 0x1892 JUMPI INVALID JUMPDEST PUSH1 0x20 ADD ADD SWAP1 PUSH31 0xFFFFFFFFFFFFFFFFFFFFFFFFFFFFFFFFFFFFFFFFFFFFFFFFFFFFFFFFFFFFFF NOT AND SWAP1 DUP2 PUSH1 0x0 BYTE SWAP1 MSTORE8 POP PUSH1 0xA DUP7 DUP2 PUSH2 0x18CB JUMPI INVALID JUMPDEST DIV SWAP6 POP PUSH2 0x1866 JUMP JUMPDEST DUP2 SWAP5 POP POP POP POP POP JUMPDEST SWAP2 SWAP1 POP JUMP JUMPDEST PUSH1 0x0 PUSH1 0xA DUP3 PUSH1 0xF8 SHR PUSH1 0xFF AND LT ISZERO PUSH2 0x1902 JUMPI PUSH1 0x30 DUP3 PUSH1 0xF8 SHR ADD PUSH1 0xF8 SHL SWAP1 POP PUSH2 0x190F JUMP JUMPDEST PUSH1 0x57 DUP3 PUSH1 0xF8 SHR ADD PUSH1 0xF8 SHL SWAP1 POP JUMPDEST SWAP2 SWAP1 POP JUMP JUMPDEST DUP3 DUP1 SLOAD PUSH1 0x1 DUP2 PUSH1 0x1 AND ISZERO PUSH2 0x100 MUL SUB AND PUSH1 0x2 SWAP1 DIV SWAP1 PUSH1 0x0 MSTORE PUSH1 0x20 PUSH1 0x0 KECCAK256 SWAP1 PUSH1 0x1F ADD PUSH1 0x20 SWAP1 DIV DUP2 ADD SWAP3 DUP3 PUSH1 0x1F LT PUSH2 0x1955 JUMPI DUP1 MLOAD PUSH1 0xFF NOT AND DUP4 DUP1 ADD OR DUP6 SSTORE PUSH2 0x1983 JUMP JUMPDEST DUP3 DUP1 ADD PUSH1 0x1 ADD DUP6 SSTORE DUP3 ISZERO PUSH2 0x1983 JUMPI SWAP2 DUP3 ADD JUMPDEST DUP3 DUP2 GT ISZERO PUSH2 0x1982 JUMPI DUP3 MLOAD DUP3 SSTORE SWAP2 PUSH1 0x20 ADD SWAP2 SWAP1 PUSH1 0x1 ADD SWAP1 PUSH2 0x1967 JUMP JUMPDEST JUMPDEST POP SWAP1 POP PUSH2 0x1990 SWAP2 SWAP1 PUSH2 0x1B53 JUMP JUMPDEST POP SWAP1 JUMP JUMPDEST DUP3 DUP1 SLOAD PUSH1 0x1 DUP2 PUSH1 0x1 AND ISZERO PUSH2 0x100 MUL SUB AND PUSH1 0x2 SWAP1 DIV SWAP1 PUSH1 0x0 MSTORE PUSH1 0x20 PUSH1 0x0 KECCAK256 SWAP1 PUSH1 0x1F ADD PUSH1 0x20 SWAP1 DIV DUP2 ADD SWAP3 DUP3 PUSH1 0x1F LT PUSH2 0x19CD JUMPI DUP1 SLOAD DUP6 SSTORE PUSH2 0x1A0A JUMP JUMPDEST DUP3 DUP1 ADD PUSH1 0x1 ADD DUP6 SSTORE DUP3 ISZERO PUSH2 0x1A0A JUMPI PUSH1 0x0 MSTORE PUSH1 0x20 PUSH1 0x0 KECCAK256 SWAP2 PUSH1 0x1F ADD PUSH1 0x20 SWAP1 DIV DUP3 ADD JUMPDEST DUP3 DUP2 GT ISZERO PUSH2 0x1A09 JUMPI DUP3 SLOAD DUP3 SSTORE SWAP2 PUSH1 0x1 ADD SWAP2 SWAP1 PUSH1 0x1 ADD SWAP1 PUSH2 0x19EE JUMP JUMPDEST JUMPDEST POP SWAP1 POP PUSH2 0x1A17 SWAP2 SWAP1 PUSH2 0x1B53 JUMP JUMPDEST POP SWAP1 JUMP JUMPDEST DUP2 SLOAD DUP2 DUP4 SSTORE DUP2 DUP2 GT ISZERO PUSH2 0x1A42 JUMPI DUP2 DUP4 PUSH1 0x0 MSTORE PUSH1 0x20 PUSH1 0x0 KECCAK256 SWAP2 DUP3 ADD SWAP2 ADD PUSH2 0x1A41 SWAP2 SWAP1 PUSH2 0x1B78 JUMP JUMPDEST JUMPDEST POP POP POP JUMP JUMPDEST PUSH1 0x40 MLOAD DUP1 PUSH1 0x80 ADD PUSH1 0x40 MSTORE DUP1 PUSH1 0x60 DUP2 MSTORE PUSH1 0x20 ADD PUSH1 0x0 ISZERO ISZERO DUP2 MSTORE PUSH1 0x20 ADD PUSH1 0x0 ISZERO ISZERO DUP2 MSTORE PUSH1 0x20 ADD PUSH1 0x60 DUP2 MSTORE POP SWAP1 JUMP JUMPDEST DUP3 DUP1 SLOAD PUSH1 0x1 DUP2 PUSH1 0x1 AND ISZERO PUSH2 0x100 MUL SUB AND PUSH1 0x2 SWAP1 DIV SWAP1 PUSH1 0x0 MSTORE PUSH1 0x20 PUSH1 0x0 KECCAK256 SWAP1 PUSH1 0x1F ADD PUSH1 0x20 SWAP1 DIV DUP2 ADD SWAP3 DUP3 PUSH1 0x1F LT PUSH2 0x1AB4 JUMPI DUP1 MLOAD PUSH1 0xFF NOT AND DUP4 DUP1 ADD OR DUP6 SSTORE PUSH2 0x1AE2 JUMP JUMPDEST DUP3 DUP1 ADD PUSH1 0x1 ADD DUP6 SSTORE DUP3 ISZERO PUSH2 0x1AE2 JUMPI SWAP2 DUP3 ADD JUMPDEST DUP3 DUP2 GT ISZERO PUSH2 0x1AE1 JUMPI DUP3 MLOAD DUP3 SSTORE SWAP2 PUSH1 0x20 ADD SWAP2 SWAP1 PUSH1 0x1 ADD SWAP1 PUSH2 0x1AC6 JUMP JUMPDEST JUMPDEST POP SWAP1 POP PUSH2 0x1AEF SWAP2 SWAP1 PUSH2 0x1B53 JUMP JUMPDEST POP SWAP1 JUMP JUMPDEST DUP3 DUP1 SLOAD DUP3 DUP3 SSTORE SWAP1 PUSH1 0x0 MSTORE PUSH1 0x20 PUSH1 0x0 KECCAK256 SWAP1 DUP2 ADD SWAP3 DUP3 ISZERO PUSH2 0x1B42 JUMPI SWAP2 PUSH1 0x20 MUL DUP3 ADD JUMPDEST DUP3 DUP2 GT ISZERO PUSH2 0x1B41 JUMPI DUP3 MLOAD DUP3 SWAP1 DUP1 MLOAD SWAP1 PUSH1 0x20 ADD SWAP1 PUSH2 0x1B31 SWAP3 SWAP2 SWAP1 PUSH2 0x1A73 JUMP JUMPDEST POP SWAP2 PUSH1 0x20 ADD SWAP2 SWAP1 PUSH1 0x1 ADD SWAP1 PUSH2 0x1B13 JUMP JUMPDEST JUMPDEST POP SWAP1 POP PUSH2 0x1B4F SWAP2 SWAP1 PUSH2 0x1B78 JUMP JUMPDEST POP SWAP1 JUMP JUMPDEST PUSH2 0x1B75 SWAP2 SWAP1 JUMPDEST DUP1 DUP3 GT ISZERO PUSH2 0x1B71 JUMPI PUSH1 0x0 DUP2 PUSH1 0x0 SWAP1 SSTORE POP PUSH1 0x1 ADD PUSH2 0x1B59 JUMP JUMPDEST POP SWAP1 JUMP JUMPDEST SWAP1 JUMP JUMPDEST PUSH2 0x1BA1 SWAP2 SWAP1 JUMPDEST DUP1 DUP3 GT ISZERO PUSH2 0x1B9D JUMPI PUSH1 0x0 DUP2 DUP2 PUSH2 0x1B94 SWAP2 SWAP1 PUSH2 0x1BA4 JUMP JUMPDEST POP PUSH1 0x1 ADD PUSH2 0x1B7E JUMP JUMPDEST POP SWAP1 JUMP JUMPDEST SWAP1 JUMP JUMPDEST POP DUP1 SLOAD PUSH1 0x1 DUP2 PUSH1 0x1 AND ISZERO PUSH2 0x100 MUL SUB AND PUSH1 0x2 SWAP1 DIV PUSH1 0x0 DUP3 SSTORE DUP1 PUSH1 0x1F LT PUSH2 0x1BCA JUMPI POP PUSH2 0x1BE9 JUMP JUMPDEST PUSH1 0x1F ADD PUSH1 0x20 SWAP1 DIV SWAP1 PUSH1 0x0 MSTORE PUSH1 0x20 PUSH1 0x0 KECCAK256 SWAP1 DUP2 ADD SWAP1 PUSH2 0x1BE8 SWAP2 SWAP1 PUSH2 0x1B53 JUMP JUMPDEST JUMPDEST POP JUMP JUMPDEST PUSH1 0x0 DUP2 CALLDATALOAD SWAP1 POP PUSH2 0x1BFB DUP2 PUSH2 0x261A JUMP JUMPDEST SWAP3 SWAP2 POP POP JUMP JUMPDEST PUSH1 0x0 DUP3 PUSH1 0x1F DUP4 ADD SLT PUSH2 0x1C12 JUMPI PUSH1 0x0 DUP1 REVERT JUMPDEST DUP2 CALLDATALOAD PUSH2 0x1C25 PUSH2 0x1C20 DUP3 PUSH2 0x2446 JUMP JUMPDEST PUSH2 0x2419 JUMP JUMPDEST SWAP2 POP DUP2 DUP2 DUP4 MSTORE PUSH1 0x20 DUP5 ADD SWAP4 POP PUSH1 0x20 DUP2 ADD SWAP1 POP DUP4 DUP6 PUSH1 0x20 DUP5 MUL DUP3 ADD GT ISZERO PUSH2 0x1C4A JUMPI PUSH1 0x0 DUP1 REVERT JUMPDEST PUSH1 0x0 JUMPDEST DUP4 DUP2 LT ISZERO PUSH2 0x1C7A JUMPI DUP2 PUSH2 0x1C60 DUP9 DUP3 PUSH2 0x1BEC JUMP JUMPDEST DUP5 MSTORE PUSH1 0x20 DUP5 ADD SWAP4 POP PUSH1 0x20 DUP4 ADD SWAP3 POP POP PUSH1 0x1 DUP2 ADD SWAP1 POP PUSH2 0x1C4D JUMP JUMPDEST POP POP POP POP SWAP3 SWAP2 POP POP JUMP JUMPDEST PUSH1 0x0 DUP3 PUSH1 0x1F DUP4 ADD SLT PUSH2 0x1C95 JUMPI PUSH1 0x0 DUP1 REVERT JUMPDEST DUP2 CALLDATALOAD PUSH2 0x1CA8 PUSH2 0x1CA3 DUP3 PUSH2 0x246E JUMP JUMPDEST PUSH2 0x2419 JUMP JUMPDEST SWAP2 POP DUP2 DUP2 DUP4 MSTORE PUSH1 0x20 DUP5 ADD SWAP4 POP PUSH1 0x20 DUP2 ADD SWAP1 POP DUP4 PUSH1 0x0 JUMPDEST DUP4 DUP2 LT ISZERO PUSH2 0x1CEE JUMPI DUP2 CALLDATALOAD DUP7 ADD PUSH2 0x1CD4 DUP9 DUP3 PUSH2 0x1D0D JUMP JUMPDEST DUP5 MSTORE PUSH1 0x20 DUP5 ADD SWAP4 POP PUSH1 0x20 DUP4 ADD SWAP3 POP POP PUSH1 0x1 DUP2 ADD SWAP1 POP PUSH2 0x1CBE JUMP JUMPDEST POP POP POP POP SWAP3 SWAP2 POP POP JUMP JUMPDEST PUSH1 0x0 DUP2 CALLDATALOAD SWAP1 POP PUSH2 0x1D07 DUP2 PUSH2 0x2631 JUMP JUMPDEST SWAP3 SWAP2 POP POP JUMP JUMPDEST PUSH1 0x0 DUP3 PUSH1 0x1F DUP4 ADD SLT PUSH2 0x1D1E JUMPI PUSH1 0x0 DUP1 REVERT JUMPDEST DUP2 CALLDATALOAD PUSH2 0x1D31 PUSH2 0x1D2C DUP3 PUSH2 0x2496 JUMP JUMPDEST PUSH2 0x2419 JUMP JUMPDEST SWAP2 POP DUP1 DUP3 MSTORE PUSH1 0x20 DUP4 ADD PUSH1 0x20 DUP4 ADD DUP6 DUP4 DUP4 ADD GT ISZERO PUSH2 0x1D4D JUMPI PUSH1 0x0 DUP1 REVERT JUMPDEST PUSH2 0x1D58 DUP4 DUP3 DUP5 PUSH2 0x25C7 JUMP JUMPDEST POP POP POP SWAP3 SWAP2 POP POP JUMP JUMPDEST PUSH1 0x0 DUP3 PUSH1 0x1F DUP4 ADD SLT PUSH2 0x1D72 JUMPI PUSH1 0x0 DUP1 REVERT JUMPDEST DUP2 CALLDATALOAD PUSH2 0x1D85 PUSH2 0x1D80 DUP3 PUSH2 0x24C2 JUMP JUMPDEST PUSH2 0x2419 JUMP JUMPDEST SWAP2 POP DUP1 DUP3 MSTORE PUSH1 0x20 DUP4 ADD PUSH1 0x20 DUP4 ADD DUP6 DUP4 DUP4 ADD GT ISZERO PUSH2 0x1DA1 JUMPI PUSH1 0x0 DUP1 REVERT JUMPDEST PUSH2 0x1DAC DUP4 DUP3 DUP5 PUSH2 0x25C7 JUMP JUMPDEST POP POP POP SWAP3 SWAP2 POP POP JUMP JUMPDEST PUSH1 0x0 DUP2 CALLDATALOAD SWAP1 POP PUSH2 0x1DC4 DUP2 PUSH2 0x2648 JUMP JUMPDEST SWAP3 SWAP2 POP POP JUMP JUMPDEST PUSH1 0x0 PUSH1 0x20 DUP3 DUP5 SUB SLT ISZERO PUSH2 0x1DDC JUMPI PUSH1 0x0 DUP1 REVERT JUMPDEST PUSH1 0x0 PUSH2 0x1DEA DUP5 DUP3 DUP6 ADD PUSH2 0x1BEC JUMP JUMPDEST SWAP2 POP POP SWAP3 SWAP2 POP POP JUMP JUMPDEST PUSH1 0x0 DUP1 PUSH1 0x40 DUP4 DUP6 SUB SLT ISZERO PUSH2 0x1E06 JUMPI PUSH1 0x0 DUP1 REVERT JUMPDEST PUSH1 0x0 PUSH2 0x1E14 DUP6 DUP3 DUP7 ADD PUSH2 0x1BEC JUMP JUMPDEST SWAP3 POP POP PUSH1 0x20 DUP4 ADD CALLDATALOAD PUSH8 0xFFFFFFFFFFFFFFFF DUP2 GT ISZERO PUSH2 0x1E31 JUMPI PUSH1 0x0 DUP1 REVERT JUMPDEST PUSH2 0x1E3D DUP6 DUP3 DUP7 ADD PUSH2 0x1D61 JUMP JUMPDEST SWAP2 POP POP SWAP3 POP SWAP3 SWAP1 POP JUMP JUMPDEST PUSH1 0x0 DUP1 PUSH1 0x0 PUSH1 0x60 DUP5 DUP7 SUB SLT ISZERO PUSH2 0x1E5C JUMPI PUSH1 0x0 DUP1 REVERT JUMPDEST PUSH1 0x0 PUSH2 0x1E6A DUP7 DUP3 DUP8 ADD PUSH2 0x1BEC JUMP JUMPDEST SWAP4 POP POP PUSH1 0x20 DUP5 ADD CALLDATALOAD PUSH8 0xFFFFFFFFFFFFFFFF DUP2 GT ISZERO PUSH2 0x1E87 JUMPI PUSH1 0x0 DUP1 REVERT JUMPDEST PUSH2 0x1E93 DUP7 DUP3 DUP8 ADD PUSH2 0x1D61 JUMP JUMPDEST SWAP3 POP POP PUSH1 0x40 PUSH2 0x1EA4 DUP7 DUP3 DUP8 ADD PUSH2 0x1CF8 JUMP JUMPDEST SWAP2 POP POP SWAP3 POP SWAP3 POP SWAP3 JUMP JUMPDEST PUSH1 0x0 DUP1 PUSH1 0x40 DUP4 DUP6 SUB SLT ISZERO PUSH2 0x1EC1 JUMPI PUSH1 0x0 DUP1 REVERT JUMPDEST PUSH1 0x0 PUSH2 0x1ECF DUP6 DUP3 DUP7 ADD PUSH2 0x1BEC JUMP JUMPDEST SWAP3 POP POP PUSH1 0x20 PUSH2 0x1EE0 DUP6 DUP3 DUP7 ADD PUSH2 0x1DB5 JUMP JUMPDEST SWAP2 POP POP SWAP3 POP SWAP3 SWAP1 POP JUMP JUMPDEST PUSH1 0x0 DUP1 PUSH1 0x40 DUP4 DUP6 SUB SLT ISZERO PUSH2 0x1EFD JUMPI PUSH1 0x0 DUP1 REVERT JUMPDEST PUSH1 0x0 DUP4 ADD CALLDATALOAD PUSH8 0xFFFFFFFFFFFFFFFF DUP2 GT ISZERO PUSH2 0x1F17 JUMPI PUSH1 0x0 DUP1 REVERT JUMPDEST PUSH2 0x1F23 DUP6 DUP3 DUP7 ADD PUSH2 0x1C01 JUMP JUMPDEST SWAP3 POP POP PUSH1 0x20 DUP4 ADD CALLDATALOAD PUSH8 0xFFFFFFFFFFFFFFFF DUP2 GT ISZERO PUSH2 0x1F40 JUMPI PUSH1 0x0 DUP1 REVERT JUMPDEST PUSH2 0x1F4C DUP6 DUP3 DUP7 ADD PUSH2 0x1C84 JUMP JUMPDEST SWAP2 POP POP SWAP3 POP SWAP3 SWAP1 POP JUMP JUMPDEST PUSH1 0x0 DUP1 PUSH1 0x40 DUP4 DUP6 SUB SLT ISZERO PUSH2 0x1F69 JUMPI PUSH1 0x0 DUP1 REVERT JUMPDEST PUSH1 0x0 DUP4 ADD CALLDATALOAD PUSH8 0xFFFFFFFFFFFFFFFF DUP2 GT ISZERO PUSH2 0x1F83 JUMPI PUSH1 0x0 DUP1 REVERT JUMPDEST PUSH2 0x1F8F DUP6 DUP3 DUP7 ADD PUSH2 0x1D61 JUMP JUMPDEST SWAP3 POP POP PUSH1 0x20 DUP4 ADD CALLDATALOAD PUSH8 0xFFFFFFFFFFFFFFFF DUP2 GT ISZERO PUSH2 0x1FAC JUMPI PUSH1 0x0 DUP1 REVERT JUMPDEST PUSH2 0x1FB8 DUP6 DUP3 DUP7 ADD PUSH2 0x1D61 JUMP JUMPDEST SWAP2 POP POP SWAP3 POP SWAP3 SWAP1 POP JUMP JUMPDEST PUSH1 0x0 PUSH2 0x1FCE DUP4 DUP4 PUSH2 0x20C4 JUMP JUMPDEST SWAP1 POP SWAP3 SWAP2 POP POP JUMP JUMPDEST PUSH1 0x0 PUSH2 0x1FE1 DUP3 PUSH2 0x2513 JUMP JUMPDEST PUSH2 0x1FEB DUP2 DUP6 PUSH2 0x2541 JUMP JUMPDEST SWAP4 POP DUP4 PUSH1 0x20 DUP3 MUL DUP6 ADD PUSH2 0x1FFD DUP6 PUSH2 0x24EE JUMP JUMPDEST DUP1 PUSH1 0x0 JUMPDEST DUP6 DUP2 LT ISZERO PUSH2 0x2039 JUMPI DUP5 DUP5 SUB DUP10 MSTORE DUP2 MLOAD PUSH2 0x201A DUP6 DUP3 PUSH2 0x1FC2 JUMP JUMPDEST SWAP5 POP PUSH2 0x2025 DUP4 PUSH2 0x2534 JUMP JUMPDEST SWAP3 POP PUSH1 0x20 DUP11 ADD SWAP10 POP POP PUSH1 0x1 DUP2 ADD SWAP1 POP PUSH2 0x2001 JUMP JUMPDEST POP DUP3 SWAP8 POP DUP8 SWAP6 POP POP POP POP POP POP SWAP3 SWAP2 POP POP JUMP JUMPDEST PUSH2 0x2054 DUP2 PUSH2 0x2591 JUMP JUMPDEST DUP3 MSTORE POP POP JUMP JUMPDEST PUSH1 0x0 PUSH2 0x2065 DUP3 PUSH2 0x2529 JUMP JUMPDEST PUSH2 0x206F DUP2 DUP6 PUSH2 0x2563 JUMP JUMPDEST SWAP4 POP PUSH2 0x207F DUP2 DUP6 PUSH1 0x20 DUP7 ADD PUSH2 0x25D6 JUMP JUMPDEST PUSH2 0x2088 DUP2 PUSH2 0x2609 JUMP JUMPDEST DUP5 ADD SWAP2 POP POP SWAP3 SWAP2 POP POP JUMP JUMPDEST PUSH1 0x0 PUSH2 0x209E DUP3 PUSH2 0x2529 JUMP JUMPDEST PUSH2 0x20A8 DUP2 DUP6 PUSH2 0x2574 JUMP JUMPDEST SWAP4 POP PUSH2 0x20B8 DUP2 DUP6 PUSH1 0x20 DUP7 ADD PUSH2 0x25D6 JUMP JUMPDEST DUP1 DUP5 ADD SWAP2 POP POP SWAP3 SWAP2 POP POP JUMP JUMPDEST PUSH1 0x0 PUSH2 0x20CF DUP3 PUSH2 0x251E JUMP JUMPDEST PUSH2 0x20D9 DUP2 DUP6 PUSH2 0x2552 JUMP JUMPDEST SWAP4 POP PUSH2 0x20E9 DUP2 DUP6 PUSH1 0x20 DUP7 ADD PUSH2 0x25D6 JUMP JUMPDEST PUSH2 0x20F2 DUP2 PUSH2 0x2609 JUMP JUMPDEST DUP5 ADD SWAP2 POP POP SWAP3 SWAP2 POP POP JUMP JUMPDEST PUSH1 0x0 PUSH2 0x2108 DUP3 PUSH2 0x251E JUMP JUMPDEST PUSH2 0x2112 DUP2 DUP6 PUSH2 0x2563 JUMP JUMPDEST SWAP4 POP PUSH2 0x2122 DUP2 DUP6 PUSH1 0x20 DUP7 ADD PUSH2 0x25D6 JUMP JUMPDEST PUSH2 0x212B DUP2 PUSH2 0x2609 JUMP JUMPDEST DUP5 ADD SWAP2 POP POP SWAP3 SWAP2 POP POP JUMP JUMPDEST PUSH1 0x0 PUSH2 0x2141 DUP3 PUSH2 0x251E JUMP JUMPDEST PUSH2 0x214B DUP2 DUP6 PUSH2 0x2574 JUMP JUMPDEST SWAP4 POP PUSH2 0x215B DUP2 DUP6 PUSH1 0x20 DUP7 ADD PUSH2 0x25D6 JUMP JUMPDEST DUP1 DUP5 ADD SWAP2 POP POP SWAP3 SWAP2 POP POP JUMP JUMPDEST PUSH1 0x0 DUP2 SLOAD PUSH1 0x1 DUP2 AND PUSH1 0x0 DUP2 EQ PUSH2 0x2184 JUMPI PUSH1 0x1 DUP2 EQ PUSH2 0x21A9 JUMPI PUSH2 0x21ED JUMP JUMPDEST PUSH1 0x7F PUSH1 0x2 DUP4 DIV AND PUSH2 0x2195 DUP2 DUP8 PUSH2 0x2574 JUMP JUMPDEST SWAP6 POP PUSH1 0xFF NOT DUP4 AND DUP7 MSTORE DUP1 DUP7 ADD SWAP4 POP POP PUSH2 0x21ED JUMP JUMPDEST PUSH1 0x2 DUP3 DIV PUSH2 0x21B7 DUP2 DUP8 PUSH2 0x2574 JUMP JUMPDEST SWAP6 POP PUSH2 0x21C2 DUP6 PUSH2 0x24FE JUMP JUMPDEST PUSH1 0x0 JUMPDEST DUP3 DUP2 LT ISZERO PUSH2 0x21E4 JUMPI DUP2 SLOAD DUP2 DUP10 ADD MSTORE PUSH1 0x1 DUP3 ADD SWAP2 POP PUSH1 0x20 DUP2 ADD SWAP1 POP PUSH2 0x21C5 JUMP JUMPDEST DUP3 DUP9 ADD SWAP6 POP POP POP POP JUMPDEST POP POP SWAP3 SWAP2 POP POP JUMP JUMPDEST PUSH1 0x0 PUSH2 0x2202 PUSH1 0x3 DUP4 PUSH2 0x2574 JUMP JUMPDEST SWAP2 POP PUSH32 0x2F2F2F0000000000000000000000000000000000000000000000000000000000 PUSH1 0x0 DUP4 ADD MSTORE PUSH1 0x3 DUP3 ADD SWAP1 POP SWAP2 SWAP1 POP JUMP JUMPDEST PUSH1 0x0 PUSH2 0x2242 PUSH1 0xC DUP4 PUSH2 0x2574 JUMP JUMPDEST SWAP2 POP PUSH32 0x4163636F756E74206E62723A0000000000000000000000000000000000000000 PUSH1 0x0 DUP4 ADD MSTORE PUSH1 0xC DUP3 ADD SWAP1 POP SWAP2 SWAP1 POP JUMP JUMPDEST PUSH2 0x227E DUP2 PUSH2 0x25BD JUMP JUMPDEST DUP3 MSTORE POP POP JUMP JUMPDEST PUSH1 0x0 PUSH2 0x2290 DUP3 DUP5 PUSH2 0x2136 JUMP JUMPDEST SWAP2 POP DUP2 SWAP1 POP SWAP3 SWAP2 POP POP JUMP JUMPDEST PUSH1 0x0 PUSH2 0x22A7 DUP3 DUP5 PUSH2 0x2093 JUMP JUMPDEST SWAP2 POP DUP2 SWAP1 POP SWAP3 SWAP2 POP POP JUMP JUMPDEST PUSH1 0x0 PUSH2 0x22BE DUP3 DUP5 PUSH2 0x2167 JUMP JUMPDEST SWAP2 POP DUP2 SWAP1 POP SWAP3 SWAP2 POP POP JUMP JUMPDEST PUSH1 0x0 PUSH2 0x22D5 DUP3 DUP6 PUSH2 0x2167 JUMP JUMPDEST SWAP2 POP PUSH2 0x22E0 DUP3 PUSH2 0x21F5 JUMP JUMPDEST SWAP2 POP PUSH2 0x22EC DUP3 DUP5 PUSH2 0x2093 JUMP JUMPDEST SWAP2 POP DUP2 SWAP1 POP SWAP4 SWAP3 POP POP POP JUMP JUMPDEST PUSH1 0x0 PUSH2 0x2304 DUP3 DUP7 PUSH2 0x2167 JUMP JUMPDEST SWAP2 POP PUSH2 0x230F DUP3 PUSH2 0x21F5 JUMP JUMPDEST SWAP2 POP PUSH2 0x231B DUP3 DUP6 PUSH2 0x2093 JUMP JUMPDEST SWAP2 POP PUSH2 0x2326 DUP3 PUSH2 0x21F5 JUMP JUMPDEST SWAP2 POP PUSH2 0x2332 DUP3 DUP5 PUSH2 0x2093 JUMP JUMPDEST SWAP2 POP DUP2 SWAP1 POP SWAP5 SWAP4 POP POP POP POP JUMP JUMPDEST PUSH1 0x0 PUSH2 0x234A DUP3 PUSH2 0x2235 JUMP JUMPDEST SWAP2 POP PUSH2 0x2356 DUP3 DUP5 PUSH2 0x2093 JUMP JUMPDEST SWAP2 POP DUP2 SWAP1 POP SWAP3 SWAP2 POP POP JUMP JUMPDEST PUSH1 0x0 PUSH1 0x20 DUP3 ADD SWAP1 POP DUP2 DUP2 SUB PUSH1 0x0 DUP4 ADD MSTORE PUSH2 0x237B DUP2 DUP5 PUSH2 0x1FD6 JUMP JUMPDEST SWAP1 POP SWAP3 SWAP2 POP POP JUMP JUMPDEST PUSH1 0x0 PUSH1 0x20 DUP3 ADD SWAP1 POP PUSH2 0x2398 PUSH1 0x0 DUP4 ADD DUP5 PUSH2 0x204B JUMP JUMPDEST SWAP3 SWAP2 POP POP JUMP JUMPDEST PUSH1 0x0 PUSH1 0x20 DUP3 ADD SWAP1 POP DUP2 DUP2 SUB PUSH1 0x0 DUP4 ADD MSTORE PUSH2 0x23B8 DUP2 DUP5 PUSH2 0x205A JUMP JUMPDEST SWAP1 POP SWAP3 SWAP2 POP POP JUMP JUMPDEST PUSH1 0x0 PUSH1 0x60 DUP3 ADD SWAP1 POP DUP2 DUP2 SUB PUSH1 0x0 DUP4 ADD MSTORE PUSH2 0x23DA DUP2 DUP7 PUSH2 0x20FD JUMP JUMPDEST SWAP1 POP PUSH2 0x23E9 PUSH1 0x20 DUP4 ADD DUP6 PUSH2 0x204B JUMP JUMPDEST PUSH2 0x23F6 PUSH1 0x40 DUP4 ADD DUP5 PUSH2 0x204B JUMP JUMPDEST SWAP5 SWAP4 POP POP POP POP JUMP JUMPDEST PUSH1 0x0 PUSH1 0x20 DUP3 ADD SWAP1 POP PUSH2 0x2413 PUSH1 0x0 DUP4 ADD DUP5 PUSH2 0x2275 JUMP JUMPDEST SWAP3 SWAP2 POP POP JUMP JUMPDEST PUSH1 0x0 PUSH1 0x40 MLOAD SWAP1 POP DUP2 DUP2 ADD DUP2 DUP2 LT PUSH8 0xFFFFFFFFFFFFFFFF DUP3 GT OR ISZERO PUSH2 0x243C JUMPI PUSH1 0x0 DUP1 REVERT JUMPDEST DUP1 PUSH1 0x40 MSTORE POP SWAP2 SWAP1 POP JUMP JUMPDEST PUSH1 0x0 PUSH8 0xFFFFFFFFFFFFFFFF DUP3 GT ISZERO PUSH2 0x245D JUMPI PUSH1 0x0 DUP1 REVERT JUMPDEST PUSH1 0x20 DUP3 MUL SWAP1 POP PUSH1 0x20 DUP2 ADD SWAP1 POP SWAP2 SWAP1 POP JUMP JUMPDEST PUSH1 0x0 PUSH8 0xFFFFFFFFFFFFFFFF DUP3 GT ISZERO PUSH2 0x2485 JUMPI PUSH1 0x0 DUP1 REVERT JUMPDEST PUSH1 0x20 DUP3 MUL SWAP1 POP PUSH1 0x20 DUP2 ADD SWAP1 POP SWAP2 SWAP1 POP JUMP JUMPDEST PUSH1 0x0 PUSH8 0xFFFFFFFFFFFFFFFF DUP3 GT ISZERO PUSH2 0x24AD JUMPI PUSH1 0x0 DUP1 REVERT JUMPDEST PUSH1 0x1F NOT PUSH1 0x1F DUP4 ADD AND SWAP1 POP PUSH1 0x20 DUP2 ADD SWAP1 POP SWAP2 SWAP1 POP JUMP JUMPDEST PUSH1 0x0 PUSH8 0xFFFFFFFFFFFFFFFF DUP3 GT ISZERO PUSH2 0x24D9 JUMPI PUSH1 0x0 DUP1 REVERT JUMPDEST PUSH1 0x1F NOT PUSH1 0x1F DUP4 ADD AND SWAP1 POP PUSH1 0x20 DUP2 ADD SWAP1 POP SWAP2 SWAP1 POP JUMP JUMPDEST PUSH1 0x0 DUP2 SWAP1 POP PUSH1 0x20 DUP3 ADD SWAP1 POP SWAP2 SWAP1 POP JUMP JUMPDEST PUSH1 0x0 DUP2 SWAP1 POP DUP2 PUSH1 0x0 MSTORE PUSH1 0x20 PUSH1 0x0 KECCAK256 SWAP1 POP SWAP2 SWAP1 POP JUMP JUMPDEST PUSH1 0x0 DUP2 MLOAD SWAP1 POP SWAP2 SWAP1 POP JUMP JUMPDEST PUSH1 0x0 DUP2 MLOAD SWAP1 POP SWAP2 SWAP1 POP JUMP JUMPDEST PUSH1 0x0 DUP2 MLOAD SWAP1 POP SWAP2 SWAP1 POP JUMP JUMPDEST PUSH1 0x0 PUSH1 0x20 DUP3 ADD SWAP1 POP SWAP2 SWAP1 POP JUMP JUMPDEST PUSH1 0x0 DUP3 DUP3 MSTORE PUSH1 0x20 DUP3 ADD SWAP1 POP SWAP3 SWAP2 POP POP JUMP JUMPDEST PUSH1 0x0 DUP3 DUP3 MSTORE PUSH1 0x20 DUP3 ADD SWAP1 POP SWAP3 SWAP2 POP POP JUMP JUMPDEST PUSH1 0x0 DUP3 DUP3 MSTORE PUSH1 0x20 DUP3 ADD SWAP1 POP SWAP3 SWAP2 POP POP JUMP JUMPDEST PUSH1 0x0 DUP2 SWAP1 POP SWAP3 SWAP2 POP POP JUMP JUMPDEST PUSH1 0x0 PUSH2 0x258A DUP3 PUSH2 0x259D JUMP JUMPDEST SWAP1 POP SWAP2 SWAP1 POP JUMP JUMPDEST PUSH1 0x0 DUP2 ISZERO ISZERO SWAP1 POP SWAP2 SWAP1 POP JUMP JUMPDEST PUSH1 0x0 PUSH20 0xFFFFFFFFFFFFFFFFFFFFFFFFFFFFFFFFFFFFFFFF DUP3 AND SWAP1 POP SWAP2 SWAP1 POP JUMP JUMPDEST PUSH1 0x0 DUP2 SWAP1 POP SWAP2 SWAP1 POP JUMP JUMPDEST DUP3 DUP2 DUP4 CALLDATACOPY PUSH1 0x0 DUP4 DUP4 ADD MSTORE POP POP POP JUMP JUMPDEST PUSH1 0x0 JUMPDEST DUP4 DUP2 LT ISZERO PUSH2 0x25F4 JUMPI DUP1 DUP3 ADD MLOAD DUP2 DUP5 ADD MSTORE PUSH1 0x20 DUP2 ADD SWAP1 POP PUSH2 0x25D9 JUMP JUMPDEST DUP4 DUP2 GT ISZERO PUSH2 0x2603 JUMPI PUSH1 0x0 DUP5 DUP5 ADD MSTORE JUMPDEST POP POP POP POP JUMP JUMPDEST PUSH1 0x0 PUSH1 0x1F NOT PUSH1 0x1F DUP4 ADD AND SWAP1 POP SWAP2 SWAP1 POP JUMP JUMPDEST PUSH2 0x2623 DUP2 PUSH2 0x257F JUMP JUMPDEST DUP2 EQ PUSH2 0x262E JUMPI PUSH1 0x0 DUP1 REVERT JUMPDEST POP JUMP JUMPDEST PUSH2 0x263A DUP2 PUSH2 0x2591 JUMP JUMPDEST DUP2 EQ PUSH2 0x2645 JUMPI PUSH1 0x0 DUP1 REVERT JUMPDEST POP JUMP JUMPDEST PUSH2 0x2651 DUP2 PUSH2 0x25BD JUMP JUMPDEST DUP2 EQ PUSH2 0x265C JUMPI PUSH1 0x0 DUP1 REVERT JUMPDEST POP JUMP INVALID LOG3 PUSH6 0x627A7A723158 KECCAK256 DUP14 PUSH19 0xB719D49C2F4F49A2EE5A0969F7B122F15211AB PUSH12 0xFB2AF67463090D3B5F5C6C65 PUSH25 0x706572696D656E74616CF564736F6C63430005110040000000 "
				},
				"gasEstimates": {
					"creation": {
						"codeDepositCost": "1978000",
						"executionCost": "infinite",
						"totalCost": "infinite"
					},
					"external": {
						"AddElemRole(address,string)": "infinite",
						"RemoveElemRole(address,uint256)": "infinite",
						"Roles(address)": "infinite",
						"compareStringsbyBytes(string,string)": "infinite",
						"getAccountRoles()": "infinite",
						"getElemRoles(address)": "infinite",
						"getName(address)": "infinite",
						"getRoleCount()": "1212",
						"getRoles()": "infinite",
						"imRole()": "infinite",
						"importAccount(address[],string[])": "infinite",
						"isRole(address)": "1612",
						"newRole(address,string,bool)": "infinite",
						"updateRole(address,string,bool)": "infinite"
					},
					"internal": {
						"char(bytes1)": "95",
						"toAsciiString(address)": "infinite",
						"uint2str(uint256)": "infinite"
					}
				},
				"methodIdentifiers": {
					"AddElemRole(address,string)": "b607fce5",
					"RemoveElemRole(address,uint256)": "7323fd31",
					"Roles(address)": "35e8acfb",
					"compareStringsbyBytes(string,string)": "e9a734ff",
					"getAccountRoles()": "d6e59bea",
					"getElemRoles(address)": "56339287",
					"getName(address)": "5fd4b08a",
					"getRoleCount()": "83d33319",
					"getRoles()": "71061398",
					"imRole()": "59162240",
					"importAccount(address[],string[])": "98d173ff",
					"isRole(address)": "7beeb945",
					"newRole(address,string,bool)": "7c08c80c",
					"updateRole(address,string,bool)": "2de82135"
				}
			},
			"storageLayout": {
				"storage": [
					{
						"astId": 20,
						"contract": "AdminRoleManager.sol:AdminRoleManager",
						"label": "Roles",
						"offset": 0,
						"slot": "0",
						"type": "t_mapping(t_address,t_struct(Role)16_storage)"
					},
					{
						"astId": 23,
						"contract": "AdminRoleManager.sol:AdminRoleManager",
						"label": "roleList",
						"offset": 0,
						"slot": "1",
						"type": "t_array(t_address)dyn_storage"
					}
				],
				"types": {
					"t_address": {
						"encoding": "inplace",
						"label": "address",
						"numberOfBytes": "20"
					},
					"t_array(t_address)dyn_storage": {
						"base": "t_address",
						"encoding": "dynamic_array",
						"label": "address[]",
						"numberOfBytes": "32"
					},
					"t_array(t_string_storage)dyn_storage": {
						"base": "t_string_storage",
						"encoding": "dynamic_array",
						"label": "string[]",
						"numberOfBytes": "32"
					},
					"t_bool": {
						"encoding": "inplace",
						"label": "bool",
						"numberOfBytes": "1"
					},
					"t_mapping(t_address,t_struct(Role)16_storage)": {
						"encoding": "mapping",
						"key": "t_address",
						"label": "mapping(address => struct AdminRoleManager.Role)",
						"numberOfBytes": "32",
						"value": "t_struct(Role)16_storage"
					},
					"t_mapping(t_string_memory,t_bool)": {
						"encoding": "mapping",
						"key": "t_string_memory",
						"label": "mapping(string => bool)",
						"numberOfBytes": "32",
						"value": "t_bool"
					},
					"t_string_memory": {
						"encoding": "bytes",
						"label": "string",
						"numberOfBytes": "32"
					},
					"t_string_storage": {
						"encoding": "bytes",
						"label": "string",
						"numberOfBytes": "32"
					},
					"t_struct(Role)16_storage": {
						"encoding": "inplace",
						"label": "struct AdminRoleManager.Role",
						"members": [
							{
								"astId": 4,
								"contract": "AdminRoleManager.sol:AdminRoleManager",
								"label": "name",
								"offset": 0,
								"slot": "0",
								"type": "t_string_storage"
							},
							{
								"astId": 6,
								"contract": "AdminRoleManager.sol:AdminRoleManager",
								"label": "isRole",
								"offset": 0,
								"slot": "1",
								"type": "t_bool"
							},
							{
								"astId": 8,
								"contract": "AdminRoleManager.sol:AdminRoleManager",
								"label": "isAdmin",
								"offset": 1,
								"slot": "1",
								"type": "t_bool"
							},
							{
								"astId": 11,
								"contract": "AdminRoleManager.sol:AdminRoleManager",
								"label": "roles",
								"offset": 0,
								"slot": "2",
								"type": "t_array(t_string_storage)dyn_storage"
							},
							{
								"astId": 15,
								"contract": "AdminRoleManager.sol:AdminRoleManager",
								"label": "rolesMap",
								"offset": 0,
								"slot": "3",
								"type": "t_mapping(t_string_memory,t_bool)"
							}
						],
						"numberOfBytes": "128"
					}
				}
			},
			"userdoc": {
				"methods": {}
			}
		}
	}
}