{
	"data": {
		"bytecode": {
			"linkReferences": {
				"LibPublicDCRM.sol": {
					"LibPublicDCRM": [
						{
							"length": 20,
							"start": 11596
						}
					]
				}
			},
			"object": "608060405260405180604001604052806040518060400160405280600481526020017f696e69740000000000000000000000000000000000000000000000000000000081525081526020016040518060400160405280600481526020017f696e697400000000000000000000000000000000000000000000000000000000815250815250600080820151816000019080519060200190620000a2929190620000d8565b506020820151816001019080519060200190620000c1929190620000d8565b505050348015620000d157600080fd5b5062000187565b828054600181600116156101000203166002900490600052602060002090601f016020900481019282601f106200011b57805160ff19168380011785556200014c565b828001600101855582156200014c579182015b828111156200014b5782518255916020019190600101906200012e565b5b5090506200015b91906200015f565b5090565b6200018491905b808211156200018057600081600090555060010162000166565b5090565b90565b61636b80620001976000396000f3fe6080604052600436106101815760003560e01c80639694f9fb116100d1578063cb2c95141161008a578063e7cf96e711610064578063e7cf96e71461060e578063e9b2b8861461064b578063ee69739d14610688578063f89a3b10146106a457610181565b8063cb2c951414610565578063cb89cdfd1461058e578063d2fbf948146105cb57610181565b80639694f9fb146104575780639930767114610494578063a158e4b0146104d1578063a8cd0a80146104ed578063b4dade9214610519578063b872384d1461053557610181565b806342c59b281161013e57806365c6865b1161011857806365c6865b146103915780636cb4e345146103c1578063827f9511146103fe57806385e0efc01461043b57610181565b806342c59b28146102da5780634e894b32146103175780636342b1c21461035457610181565b806302413fd4146101865780630ce36024146101c357806318008e57146101f3578063290930a2146102235780632c3c0f9c1461026057806339b64c301461029d575b600080fd5b34801561019257600080fd5b506101ad60048036036101a89190810190614c6e565b6106cf565b6040516101ba919061559c565b60405180910390f35b6101dd60048036036101d89190810190614caf565b61074b565b6040516101ea919061559c565b60405180910390f35b61020d60048036036102089190810190614caf565b610a8c565b60405161021a9190615609565b60405180910390f35b34801561022f57600080fd5b5061024a60048036036102459190810190614c6e565b610d08565b604051610257919061580b565b60405180910390f35b34801561026c57600080fd5b5061028760048036036102829190810190614d57565b610d46565b60405161029491906155ee565b60405180910390f35b3480156102a957600080fd5b506102c460048036036102bf9190810190614c6e565b6112ce565b6040516102d19190615514565b60405180910390f35b3480156102e657600080fd5b5061030160048036036102fc9190810190614c6e565b61137d565b60405161030e9190615514565b60405180910390f35b34801561032357600080fd5b5061033e60048036036103399190810190614c6e565b61142c565b60405161034b9190615536565b60405180910390f35b34801561036057600080fd5b5061037b60048036036103769190810190614c6e565b611502565b604051610388919061559c565b60405180910390f35b6103ab60048036036103a69190810190614a69565b61157e565b6040516103b89190615609565b60405180910390f35b3480156103cd57600080fd5b506103e860048036036103e39190810190614caf565b61191e565b6040516103f591906157f0565b60405180910390f35b34801561040a57600080fd5b5061042560048036036104209190810190614d03565b611a41565b60405161043291906154f9565b60405180910390f35b610455600480360361045091908101906149d6565b611aa2565b005b34801561046357600080fd5b5061047e60048036036104799190810190614c6e565b611b48565b60405161048b9190615558565b60405180910390f35b3480156104a057600080fd5b506104bb60048036036104b69190810190614c6e565b611c52565b6040516104c8919061559c565b60405180910390f35b6104eb60048036036104e69190810190614c6e565b611ccb565b005b3480156104f957600080fd5b50610502611e73565b60405161051092919061562b565b60405180910390f35b610533600480360361052e9190810190614afc565b611fbf565b005b61054f600480360361054a9190810190614caf565b612827565b60405161055c919061559c565b60405180910390f35b34801561057157600080fd5b5061058c60048036036105879190810190614d03565b612dc7565b005b34801561059a57600080fd5b506105b560048036036105b09190810190614c6e565b61337d565b6040516105c2919061559c565b60405180910390f35b3480156105d757600080fd5b506105f260048036036105ed9190810190614c6e565b6133f9565b60405161060597969594939291906156cc565b60405180910390f35b34801561061a57600080fd5b5061063560048036036106309190810190614caf565b6136c5565b60405161064291906157f0565b60405180910390f35b34801561065757600080fd5b50610672600480360361066d9190810190614c6e565b6137e8565b60405161067f919061559c565b60405180910390f35b6106a2600480360361069d91908101906148ff565b613861565b005b3480156106b057600080fd5b506106b9613bde565b6040516106c6919061557a565b60405180910390f35b60606003826040516106e191906154e2565b908152602001604051809103902060030160000180548060200260200160405190810160405280929190818152602001828054801561073f57602002820191906000526020600020905b81548152602001906001019080831161072b575b50505050509050919050565b60603373ffffffffffffffffffffffffffffffffffffffff168273ffffffffffffffffffffffffffffffffffffffff16146107bb576040517f08c379a00000000000000000000000000000000000000000000000000000000081526004016107b2906157b0565b60405180910390fd5b60008090505b6003846040516107d191906154e2565b9081526020016040518091039020600b0180549050811015610a12576003846040516107fd91906154e2565b9081526020016040518091039020600b01818154811061081957fe5b9060005260206000200160009054906101000a900473ffffffffffffffffffffffffffffffffffffffff1673ffffffffffffffffffffffffffffffffffffffff168373ffffffffffffffffffffffffffffffffffffffff161480156108b45750600160038560405161088b91906154e2565b9081526020016040518091039020600d0182815481106108a757fe5b9060005260206000200154145b15610a055760016003856040516108cb91906154e2565b9081526020016040518091039020600c0182815481106108e757fe5b906000526020600020015414610a0457600160038560405161090991906154e2565b9081526020016040518091039020600c01828154811061092557fe5b90600052602060002001819055508273ffffffffffffffffffffffffffffffffffffffff168460405161095891906154e2565b60405180910390207fef93748ef353323feced9a53b1f9433297bf50235a9d5aa97783d3f30d4682e460405160405180910390a360038460405161099c91906154e2565b9081526020016040518091039020600c018054806020026020016040519081016040528092919081815260200182805480156109f757602002820191906000526020600020905b8154815260200190600101908083116109e3575b5050505050915050610a86565b5b80806001019150506107c1565b50600383604051610a2391906154e2565b9081526020016040518091039020600c01805480602002602001604051908101604052809291908181526020018280548015610a7e57602002820191906000526020600020905b815481526020019060010190808311610a6a575b505050505090505b92915050565b60608173ffffffffffffffffffffffffffffffffffffffff163373ffffffffffffffffffffffffffffffffffffffff1614610afc576040517f08c379a0000000000000000000000000000000000000000000000000000000008152600401610af3906157d0565b60405180910390fd5b60008090505b600384604051610b1291906154e2565b9081526020016040518091039020600b0180549050811015610c4557600384604051610b3e91906154e2565b9081526020016040518091039020600b018181548110610b5a57fe5b9060005260206000200160009054906101000a900473ffffffffffffffffffffffffffffffffffffffff1673ffffffffffffffffffffffffffffffffffffffff168373ffffffffffffffffffffffffffffffffffffffff16148015610bf657506001600385604051610bcc91906154e2565b9081526020016040518091039020600d018281548110610be857fe5b906000526020600020015414155b15610c38576001600385604051610c0d91906154e2565b9081526020016040518091039020600d018281548110610c2957fe5b90600052602060002001819055505b8080600101915050610b02565b50600383604051610c5691906154e2565b90815260200160405180910390206002018054600181600116156101000203166002900480601f016020809104026020016040519081016040528092919081815260200182805460018160011615610100020316600290048015610cfb5780601f10610cd057610100808354040283529160200191610cfb565b820191906000526020600020905b815481529060010190602001808311610cde57829003601f168201915b5050505050905092915050565b6000600382604051610d1a91906154e2565b9081526020016040518091039020600e0160000160009054906101000a900463ffffffff169050919050565b6000600384604051610d5891906154e2565b90815260200160405180910390206006018381548110610d7457fe5b9060005260206000200160009054906101000a900473ffffffffffffffffffffffffffffffffffffffff1673ffffffffffffffffffffffffffffffffffffffff168273ffffffffffffffffffffffffffffffffffffffff1614610e1e576004600385604051610de391906154e2565b9081526020016040518091039020600e0160000160006101000a81548163ffffffff021916908363ffffffff160217905550600090506112c7565b6000600385604051610e3091906154e2565b90815260200160405180910390206003016000018481548110610e4f57fe5b90600052602060002001541415610ead576001600385604051610e7291906154e2565b9081526020016040518091039020600e0160000160006101000a81548163ffffffff021916908363ffffffff160217905550600090506112c7565b60008090505b600385604051610ec391906154e2565b9081526020016040518091039020600a01600381548110610ee057fe5b9060005260206000200180549050811015611095576060600386604051610f0791906154e2565b9081526020016040518091039020600a01600381548110610f2457fe5b906000526020600020018281548110610f3957fe5b90600052602060002001805480602002602001604051908101604052809291908181526020018280548015610f8d57602002820191906000526020600020905b815481526020019060010190808311610f79575b505050505090506001818681518110610fa257fe5b60200260200101511415611087576000600387604051610fc291906154e2565b90815260200160405180910390206003016001018381548110610fe157fe5b90600052602060002001541480156110325750600160038760405161100691906154e2565b9081526020016040518091039020600301600001838154811061102557fe5b9060005260206000200154145b1561108657600260038760405161104991906154e2565b9081526020016040518091039020600e0160000160006101000a81548163ffffffff021916908363ffffffff1602179055506000925050506112c7565b5b508080600101915050610eb3565b5060008090505b6003856040516110ac91906154e2565b9081526020016040518091039020600a016004815481106110c957fe5b906000526020600020018054905081101561127d5760606003866040516110f091906154e2565b9081526020016040518091039020600a0160048154811061110d57fe5b90600052602060002001828154811061112257fe5b9060005260206000200180548060200260200160405190810160405280929190818152602001828054801561117657602002820191906000526020600020905b815481526020019060010190808311611162575b50505050509050600181868151811061118b57fe5b6020026020010151141561126f5760016003876040516111ab91906154e2565b908152602001604051809103902060030160020183815481106111ca57fe5b906000526020600020015414801561121b575060016003876040516111ef91906154e2565b9081526020016040518091039020600301600001838154811061120e57fe5b9060005260206000200154145b1561126e576003808760405161123191906154e2565b9081526020016040518091039020600e0160000160006101000a81548163ffffffff021916908363ffffffff1602179055506000925050506112c7565b5b50808060010191505061109c565b50600060038560405161129091906154e2565b9081526020016040518091039020600e0160000160006101000a81548163ffffffff021916908363ffffffff160217905550600190505b9392505050565b60606003826040516112e091906154e2565b9081526020016040518091039020600b0180548060200260200160405190810160405280929190818152602001828054801561137157602002820191906000526020600020905b8160009054906101000a900473ffffffffffffffffffffffffffffffffffffffff1673ffffffffffffffffffffffffffffffffffffffff1681526020019060010190808311611327575b50505050509050919050565b606060048260405161138f91906154e2565b908152602001604051809103902060040180548060200260200160405190810160405280929190818152602001828054801561142057602002820191906000526020600020905b8160009054906101000a900473ffffffffffffffffffffffffffffffffffffffff1673ffffffffffffffffffffffffffffffffffffffff16815260200190600101908083116113d6575b50505050509050919050565b606060038260405161143e91906154e2565b9081526020016040518091039020600a0160038154811061145b57fe5b90600052602060002001805480602002602001604051908101604052809291908181526020016000905b828210156114f7578382906000526020600020018054806020026020016040519081016040528092919081815260200182805480156114e357602002820191906000526020600020905b8154815260200190600101908083116114cf575b505050505081526020019060010190611485565b505050509050919050565b606060038260405161151491906154e2565b908152602001604051809103902060030160010180548060200260200160405190810160405280929190818152602001828054801561157257602002820191906000526020600020905b81548152602001906001019080831161155e575b50505050509050919050565b60606002600481111561158d57fe5b60048560405161159d91906154e2565b908152602001604051809103902060020160009054906101000a900460ff1660048111156115c757fe5b14156118fa576040518060400160405280600c81526020017f656e746572696e674e6f6465000000000000000000000000000000000000000081525060008001908051906020019061161a929190613cc7565b506001821415611780576116d68560048660405161163891906154e2565b90815260200160405180910390206004018054806020026020016040519081016040528092919081815260200182805480156116c957602002820191906000526020600020905b8160009054906101000a900473ffffffffffffffffffffffffffffffffffffffff1673ffffffffffffffffffffffffffffffffffffffff168152602001906001019080831161167f575b5050505050866001611aa2565b6040518060400160405280601681526020017f617070726f766564206279206f6e6520706572736f6e00000000000000000000815250600080019080519060200190611723929190613cc7565b508473ffffffffffffffffffffffffffffffffffffffff167fe9c7cbf4a3feb2b50db16225158a7170e01af4e7a4b2d243eeec352242dffdfd8460405161176a9190615609565b60405180910390a261177b84611ccb565b6118bd565b600282141561186d576040518060400160405280600881526020017f6465636c696e65640000000000000000000000000000000000000000000000008152506000800190805190602001906117d6929190613cc7565b5060036004856040516117e991906154e2565b908152602001604051809103902060020160006101000a81548160ff0219169083600481111561181557fe5b02179055508473ffffffffffffffffffffffffffffffffffffffff167f1592b7870c0c0627d9de8a8794012705b34a6640c1456b714a685eb5cc987c33846040516118609190615609565b60405180910390a26118bc565b8473ffffffffffffffffffffffffffffffffffffffff167fc4f2afae15f3e7da4e4f139081d67f69ef9f4c3736a6649eb2fa185377130315846040516118b39190615697565b60405180910390a25b5b6040518060400160405280600d81526020017f5253502070726f636573736564000000000000000000000000000000000000008152509050611916565b6040518060600160405280602c81526020016162fd602c913990505b949350505050565b600080600090505b60038460405161193691906154e2565b9081526020016040518091039020600b0180549050811015611a355760038460405161196291906154e2565b9081526020016040518091039020600b01818154811061197e57fe5b9060005260206000200160009054906101000a900473ffffffffffffffffffffffffffffffffffffffff1673ffffffffffffffffffffffffffffffffffffffff168373ffffffffffffffffffffffffffffffffffffffff16148015611a19575060016003856040516119f091906154e2565b9081526020016040518091039020600c018281548110611a0c57fe5b9060005260206000200154145b15611a28576001915050611a3b565b8080600101915050611926565b50600090505b92915050565b6000600383604051611a5391906154e2565b90815260200160405180910390206006018281548110611a6f57fe5b9060005260206000200160009054906101000a900473ffffffffffffffffffffffffffffffffffffffff16905092915050565b60008090505b8351811015611b4157838181518110611abd57fe5b602002602001015173ffffffffffffffffffffffffffffffffffffffff168573ffffffffffffffffffffffffffffffffffffffff161415611b345781600484604051611b0991906154e2565b90815260200160405180910390206005018281548110611b2557fe5b90600052602060002001819055505b8080600101915050611aa8565b5050505050565b6060600382604051611b5a91906154e2565b9081526020016040518091039020600801805480602002602001604051908101604052809291908181526020016000905b82821015611c47578382906000526020600020018054600181600116156101000203166002900480601f016020809104026020016040519081016040528092919081815260200182805460018160011615610100020316600290048015611c335780601f10611c0857610100808354040283529160200191611c33565b820191906000526020600020905b815481529060010190602001808311611c1657829003601f168201915b505050505081526020019060010190611b8b565b505050509050919050565b6060600482604051611c6491906154e2565b9081526020016040518091039020600601805480602002602001604051908101604052809291908181526020018280548015611cbf57602002820191906000526020600020905b815481526020019060010190808311611cab575b50505050509050919050565b60006001905060008090505b600483604051611ce791906154e2565b908152602001604051809103902060040180549050811015611d56576001600484604051611d1591906154e2565b90815260200160405180910390206005018281548110611d3157fe5b90600052602060002001541415611d49576001820191505b8080600101915050611cd7565b50600482604051611d6791906154e2565b908152602001604051809103902060030154811415611e6f576040518060400160405280601981526020017f617070726f76656420627920616c6c20656e646f727365727300000000000000815250600080019080519060200190611dcd929190613cc7565b5060036004811115611ddb57fe5b600483604051611deb91906154e2565b908152602001604051809103902060020160009054906101000a900460ff166004811115611e1557fe5b50507fd2a535afc7065ca5ca78e1cbe51c4ab92413202d78b070b01df38363ac20363d600483604051611e4891906154e2565b9081526020016040518091039020600101604051611e66919061578e565b60405180910390a15b5050565b606080600080016000600101818054600181600116156101000203166002900480601f016020809104026020016040519081016040528092919081815260200182805460018160011615610100020316600290048015611f145780601f10611ee957610100808354040283529160200191611f14565b820191906000526020600020905b815481529060010190602001808311611ef757829003601f168201915b50505050509150808054600181600116156101000203166002900480601f016020809104026020016040519081016040528092919081815260200182805460018160011615610100020316600290048015611fb05780601f10611f8557610100808354040283529160200191611fb0565b820191906000526020600020905b815481529060010190602001808311611f9357829003601f168201915b50505050509050915091509091565b6000604051611fcd90613d47565b604051809103906000f080158015611fe9573d6000803e3d6000fd5b50905060008751905060008090505b88518110156120dd5760008090505b86518110156120cf576000818385020190508473ffffffffffffffffffffffffffffffffffffffff166334b9eb7d89848151811061204157fe5b60200260200101518d868151811061205557fe5b60200260200101518c858151811061206957fe5b60200260200101516040518463ffffffff1660e01b815260040161208f93929190615750565b600060405180830381600087803b1580156120a957600080fd5b505af11580156120bd573d6000803e3d6000fd5b50505050508080600101915050612007565b508080600101915050611ff8565b506120e6613d54565b6040518060400160405280600063ffffffff1681526020016000815250905061210d613d74565b60405180606001604052808d60008151811061212557fe5b602002602001015181526020018d60018151811061213f57fe5b602002602001015181526020018d60028151811061215957fe5b6020026020010151815250905061216e613d95565b604051806101c001604052808881526020016003600481111561218d57fe5b81526020018d81526020018381526020018c81526020018981526020018e6000815181106121b757fe5b6020026020010151516040519080825280602002602001820160405280156121f357816020015b60608152602001906001900390816121de5790505b5081526020018e60008151811061220657fe5b60200260200101515181526020018781526020018b81526020018b516040519080825280602002602001820160405280156122505781602001602082028038833980820191505090505b5081526020018b516040519080825280602002602001820160405280156122865781602001602082028038833980820191505090505b5081526020018481526020018673ffffffffffffffffffffffffffffffffffffffff1681525090508060038d6040516122bf91906154e2565b908152602001604051809103902060008201518160000190805190602001906122e9929190613e31565b5060208201518160010160006101000a81548160ff0219169083600481111561230e57fe5b0217905550604082015181600201908051906020019061232f929190613e31565b506060820151816003016000820151816000019080519060200190612355929190613eb1565b506020820151816001019080519060200190612372929190613eb1565b50604082015181600201908051906020019061238f929190613eb1565b50505060808201518160060190805190602001906123ae929190613efe565b5060a08201518160070190805190602001906123cb929190613f88565b5060c08201518160080190805190602001906123e8929190613fe8565b5060e0820151816009015561010082015181600a019080519060200190612410929190614048565b5061012082015181600b01908051906020019061242e929190613efe565b5061014082015181600c01908051906020019061244c929190613eb1565b5061016082015181600d01908051906020019061246a929190613eb1565b5061018082015181600e0160008201518160000160006101000a81548163ffffffff021916908363ffffffff1602179055506020820151816001015550506101a08201518160100160006101000a81548173ffffffffffffffffffffffffffffffffffffffff021916908373ffffffffffffffffffffffffffffffffffffffff16021790555090505060028c9080600181540180825580915050906001820390600052602060002001600090919290919091509080519060200190612530929190613cc7565b505061253a6140a8565b6040518061012001604052808e81526020016040518060200160405280600081525081526020016003600481111561256e57fe5b8152602001600073ffffffffffffffffffffffffffffffffffffffff168152602001600081526020018c516040519080825280602002602001820160405280156125c75781602001602082028038833980820191505090505b5081526020018c516040519080825280602002602001820160405280156125fd5781602001602082028038833980820191505090505b5081526020018c516040519080825280602002602001820160405280156126335781602001602082028038833980820191505090505b5081526020018c516040519080825280602002602001820160405280156126695781602001602082028038833980820191505090505b5081525090508060048e60405161268091906154e2565b908152602001604051809103902060008201518160000190805190602001906126aa929190613e31565b5060208201518160010190805190602001906126c7929190613e31565b5060408201518160020160006101000a81548160ff021916908360048111156126ec57fe5b021790555060608201518160020160016101000a81548173ffffffffffffffffffffffffffffffffffffffff021916908373ffffffffffffffffffffffffffffffffffffffff1602179055506080820151816003015560a082015181600401908051906020019061275e929190613efe565b5060c082015181600501908051906020019061277b929190613eb1565b5060e0820151816006019080519060200190612798929190613eb1565b506101008201518160070190805190602001906127b6929190613eb1565b509050503373ffffffffffffffffffffffffffffffffffffffff1682604001516040516127e391906154cb565b60405180910390207fc42dc8c6712875975b09ece703779e4ed83179500da5c8776b1eab681e04c7fa60405160405180910390a35050505050505050505050505050565b60606040518060400160405280600181526020017f410000000000000000000000000000000000000000000000000000000000000081525060006001019080519060200190612877929190613cc7565b503373ffffffffffffffffffffffffffffffffffffffff168273ffffffffffffffffffffffffffffffffffffffff16146128e6576040517f08c379a00000000000000000000000000000000000000000000000000000000081526004016128dd906157b0565b60405180910390fd5b6040518060400160405280600181526020017f420000000000000000000000000000000000000000000000000000000000000081525060006001019080519060200190612934929190613cc7565b5060008090505b60048460405161294b91906154e2565b908152602001604051809103902060040180549050811015612d4d576040518060400160405280600181526020017f4300000000000000000000000000000000000000000000000000000000000000815250600060010190805190602001906129b5929190613cc7565b506004846040516129c691906154e2565b908152602001604051809103902060040181815481106129e257fe5b9060005260206000200160009054906101000a900473ffffffffffffffffffffffffffffffffffffffff1673ffffffffffffffffffffffffffffffffffffffff168373ffffffffffffffffffffffffffffffffffffffff161415612d40576040518060400160405280601081526020017f617070726f76616c20737461676520310000000000000000000000000000000081525060006001019080519060200190612a8e929190613cc7565b506001600485604051612aa191906154e2565b90815260200160405180910390206006018281548110612abd57fe5b906000526020600020015414612d3f576001600485604051612adf91906154e2565b90815260200160405180910390206006018281548110612afb57fe5b90600052602060002001819055508273ffffffffffffffffffffffffffffffffffffffff1684604051612b2e91906154e2565b60405180910390207fef93748ef353323feced9a53b1f9433297bf50235a9d5aa97783d3f30d4682e460405160405180910390a36040518060400160405280601081526020017f617070726f76616c20737461676520320000000000000000000000000000000081525060006001019080519060200190612bb0929190613cc7565b50600173__$3e9ed081f2049f1ebfdd56a00d8768fd1c$__631bb97528600487604051612bdd91906154e2565b9081526020016040518091039020600601600488604051612bfe91906154e2565b9081526020016040518091039020600301546040518363ffffffff1660e01b8152600401612c2d9291906155be565b60206040518083038186803b158015612c4557600080fd5b505af4158015612c59573d6000803e3d6000fd5b505050506040513d601f19601f82011682018060405250612c7d9190810190614dbe565b1415612cc7576000600485604051612c9591906154e2565b908152602001604051809103902060020160006101000a81548160ff02191690836004811115612cc157fe5b02179055505b600484604051612cd791906154e2565b9081526020016040518091039020600601805480602002602001604051908101604052809291908181526020018280548015612d3257602002820191906000526020600020905b815481526020019060010190808311612d1e575b5050505050915050612dc1565b5b808060010191505061293b565b50600483604051612d5e91906154e2565b9081526020016040518091039020600601805480602002602001604051908101604052809291908181526020018280548015612db957602002820191906000526020600020905b815481526020019060010190808311612da5575b505050505090505b92915050565b612dd2828233610d46565b612e4a576001600383604051612de891906154e2565b9081526020016040518091039020600e016001018190555060018183604051612e1191906154e2565b60405180910390207fa59297fb38de255753588982fd21223eab1e18d3151668c80b2ddeb15d7897b160405160405180910390a4613379565b6001600383604051612e5c91906154e2565b90815260200160405180910390206003016001018281548110612e7b57fe5b90600052602060002001819055506000600383604051612e9b91906154e2565b90815260200160405180910390206003016002018281548110612eba57fe5b90600052602060002001819055506060600383604051612eda91906154e2565b9081526020016040518091039020600a01600181548110612ef757fe5b906000526020600020018281548110612f0c57fe5b90600052602060002001805480602002602001604051908101604052809291908181526020018280548015612f6057602002820191906000526020600020905b815481526020019060010190808311612f4c575b505050505090506060600384604051612f7991906154e2565b9081526020016040518091039020600a01600281548110612f9657fe5b906000526020600020018381548110612fab57fe5b90600052602060002001805480602002602001604051908101604052809291908181526020018280548015612fff57602002820191906000526020600020905b815481526020019060010190808311612feb575b50505050509050606060038560405161301891906154e2565b9081526020016040518091039020600a0160008154811061303557fe5b90600052602060002001848154811061304a57fe5b9060005260206000200180548060200260200160405190810160405280929190818152602001828054801561309e57602002820191906000526020600020905b81548152602001906001019080831161308a575b5050505050905060606003866040516130b791906154e2565b9081526020016040518091039020600a016003815481106130d457fe5b9060005260206000200185815481106130e957fe5b9060005260206000200180548060200260200160405190810160405280929190818152602001828054801561313d57602002820191906000526020600020905b815481526020019060010190808311613129575b5050505050905060008090505b815181101561319757600182828151811061316157fe5b6020026020010151141561318a57600183828151811061317d57fe5b6020026020010181815250505b808060010191505061314a565b5060008090505b6003876040516131ae91906154e2565b9081526020016040518091039020600a016001815481106131cb57fe5b90600052602060002001805490508110156133045760018582815181106131ee57fe5b6020026020010151141580156132175750600183828151811061320d57fe5b6020026020010151145b1561325c57600160038860405161322e91906154e2565b9081526020016040518091039020600301600001828154811061324d57fe5b90600052602060002001819055505b600184828151811061326a57fe5b602002602001015114156132f757600160038860405161328a91906154e2565b908152602001604051809103902060030160020182815481106132a957fe5b906000526020600020018190555060016003886040516132c991906154e2565b908152602001604051809103902060030160000182815481106132e857fe5b90600052602060002001819055505b808060010191505061319e565b506000858760405161331691906154e2565b60405180910390207fa59297fb38de255753588982fd21223eab1e18d3151668c80b2ddeb15d7897b160405160405180910390a4600160038760405161335c91906154e2565b9081526020016040518091039020600e0160010181905550505050505b5050565b606060038260405161338f91906154e2565b90815260200160405180910390206003016002018054806020026020016040519081016040528092919081815260200182805480156133ed57602002820191906000526020600020905b8154815260200190600101908083116133d9575b50505050509050919050565b606060008060608060008060048860405161341491906154e2565b908152602001604051809103902060010160048960405161343591906154e2565b908152602001604051809103902060020160009054906101000a900460ff16600481111561345f57fe5b60038a60405161346f91906154e2565b908152602001604051809103902060010160009054906101000a900460ff16600481111561349957fe5b6000800160048c6040516134ad91906154e2565b908152602001604051809103902060050160048d6040516134ce91906154e2565b90815260200160405180910390206003015460048e6040516134f091906154e2565b908152602001604051809103902060020160019054906101000a900473ffffffffffffffffffffffffffffffffffffffff16868054600181600116156101000203166002900480601f0160208091040260200160405190810160405280929190818152602001828054600181600116156101000203166002900480156135b75780601f1061358c576101008083540402835291602001916135b7565b820191906000526020600020905b81548152906001019060200180831161359a57829003601f168201915b50505050509650838054600181600116156101000203166002900480601f0160208091040260200160405190810160405280929190818152602001828054600181600116156101000203166002900480156136535780601f1061362857610100808354040283529160200191613653565b820191906000526020600020905b81548152906001019060200180831161363657829003601f168201915b50505050509350828054806020026020016040519081016040528092919081815260200182805480156136a557602002820191906000526020600020905b815481526020019060010190808311613691575b505050505092509650965096509650965096509650919395979092949650565b600080600090505b6004846040516136dd91906154e2565b9081526020016040518091039020600401805490508110156137dc5760048460405161370991906154e2565b9081526020016040518091039020600401818154811061372557fe5b9060005260206000200160009054906101000a900473ffffffffffffffffffffffffffffffffffffffff1673ffffffffffffffffffffffffffffffffffffffff168373ffffffffffffffffffffffffffffffffffffffff161480156137c05750600160048560405161379791906154e2565b908152602001604051809103902060060182815481106137b357fe5b9060005260206000200154145b156137cf5760019150506137e2565b80806001019150506136cd565b50600090505b92915050565b60606003826040516137fa91906154e2565b9081526020016040518091039020600c0180548060200260200160405190810160405280929190818152602001828054801561385557602002820191906000526020600020905b815481526020019060010190808311613841575b50505050509050919050565b3373ffffffffffffffffffffffffffffffffffffffff168573ffffffffffffffffffffffffffffffffffffffff16146138cf576040517f08c379a00000000000000000000000000000000000000000000000000000000081526004016138c6906157b0565b60405180910390fd5b6040518060400160405280601b81526020017f6368672072657175657374206265696e672070726f636573736564000000000081525060008001908051906020019061391c929190613cc7565b506003600481111561392a57fe5b60048360405161393a91906154e2565b908152602001604051809103902060020160009054906101000a900460ff16600481111561396457fe5b1415613b88576040518060400160405280601581526020017f63686720726571756573742076616c69646174656400000000000000000000008152506000800190805190602001906139b7929190613cc7565b5060026004836040516139ca91906154e2565b908152602001604051809103902060020160006101000a81548160ff021916908360048111156139f657fe5b021790555080600483604051613a0c91906154e2565b90815260200160405180910390206001019080519060200190613a30929190613cc7565b5084600483604051613a4291906154e2565b908152602001604051809103902060020160016101000a81548173ffffffffffffffffffffffffffffffffffffffff021916908373ffffffffffffffffffffffffffffffffffffffff1602179055508351600483604051613aa391906154e2565b90815260200160405180910390206003018190555083600483604051613ac991906154e2565b90815260200160405180910390206004019080519060200190613aed929190614115565b5060008090505b8451811015613b82578573ffffffffffffffffffffffffffffffffffffffff16858281518110613b2057fe5b602002602001015173ffffffffffffffffffffffffffffffffffffffff167f8dae525cabdde2b20f26998f05e6c504721ba1cea6f7229604cbee3a7267a01586604051613b6d9190615609565b60405180910390a38080600101915050613af4565b50613bd7565b8473ffffffffffffffffffffffffffffffffffffffff167fc4f2afae15f3e7da4e4f139081d67f69ef9f4c3736a6649eb2fa18537713031582604051613bce9190615662565b60405180910390a25b5050505050565b60606002805480602002602001604051908101604052809291908181526020016000905b82821015613cbe578382906000526020600020018054600181600116156101000203166002900480601f016020809104026020016040519081016040528092919081815260200182805460018160011615610100020316600290048015613caa5780601f10613c7f57610100808354040283529160200191613caa565b820191906000526020600020905b815481529060010190602001808311613c8d57829003601f168201915b505050505081526020019060010190613c02565b50505050905090565b828054600181600116156101000203166002900490600052602060002090601f016020900481019282601f10613d0857805160ff1916838001178555613d36565b82800160010185558215613d36579182015b82811115613d35578251825591602001919060010190613d1a565b5b509050613d43919061419f565b5090565b6105f080615d0d83390190565b6040518060400160405280600063ffffffff168152602001600081525090565b60405180606001604052806060815260200160608152602001606081525090565b604051806101c001604052806060815260200160006004811115613db557fe5b815260200160608152602001613dc96141c4565b81526020016060815260200160608152602001606081526020016000815260200160608152602001606081526020016060815260200160608152602001613e0e6141e5565b8152602001600073ffffffffffffffffffffffffffffffffffffffff1681525090565b828054600181600116156101000203166002900490600052602060002090601f016020900481019282601f10613e7257805160ff1916838001178555613ea0565b82800160010185558215613ea0579182015b82811115613e9f578251825591602001919060010190613e84565b5b509050613ead919061419f565b5090565b828054828255906000526020600020908101928215613eed579160200282015b82811115613eec578251825591602001919060010190613ed1565b5b509050613efa919061419f565b5090565b828054828255906000526020600020908101928215613f77579160200282015b82811115613f765782518260006101000a81548173ffffffffffffffffffffffffffffffffffffffff021916908373ffffffffffffffffffffffffffffffffffffffff16021790555091602001919060010190613f1e565b5b509050613f849190614205565b5090565b828054828255906000526020600020908101928215613fd7579160200282015b82811115613fd6578251829080519060200190613fc6929190613e31565b5091602001919060010190613fa8565b5b509050613fe49190614248565b5090565b828054828255906000526020600020908101928215614037579160200282015b82811115614036578251829080519060200190614026929190614274565b5091602001919060010190614008565b5b50905061404491906142f4565b5090565b828054828255906000526020600020908101928215614097579160200282015b82811115614096578251829080519060200190614086929190614320565b5091602001919060010190614068565b5b5090506140a49190614380565b5090565b6040518061012001604052806060815260200160608152602001600060048111156140cf57fe5b8152602001600073ffffffffffffffffffffffffffffffffffffffff16815260200160008152602001606081526020016060815260200160608152602001606081525090565b82805482825590600052602060002090810192821561418e579160200282015b8281111561418d5782518260006101000a81548173ffffffffffffffffffffffffffffffffffffffff021916908373ffffffffffffffffffffffffffffffffffffffff16021790555091602001919060010190614135565b5b50905061419b9190614205565b5090565b6141c191905b808211156141bd5760008160009055506001016141a5565b5090565b90565b60405180606001604052806060815260200160608152602001606081525090565b6040518060400160405280600063ffffffff168152602001600081525090565b61424591905b8082111561424157600081816101000a81549073ffffffffffffffffffffffffffffffffffffffff02191690555060010161420b565b5090565b90565b61427191905b8082111561426d576000818161426491906143ac565b5060010161424e565b5090565b90565b828054600181600116156101000203166002900490600052602060002090601f016020900481019282601f106142b557805160ff19168380011785556142e3565b828001600101855582156142e3579182015b828111156142e25782518255916020019190600101906142c7565b5b5090506142f0919061419f565b5090565b61431d91905b80821115614319576000818161431091906143f4565b506001016142fa565b5090565b90565b82805482825590600052602060002090810192821561436f579160200282015b8281111561436e57825182908051906020019061435e929190613eb1565b5091602001919060010190614340565b5b50905061437c919061443c565b5090565b6143a991905b808211156143a5576000818161439c9190614468565b50600101614386565b5090565b90565b50805460018160011615610100020316600290046000825580601f106143d257506143f1565b601f0160209004906000526020600020908101906143f0919061419f565b5b50565b50805460018160011615610100020316600290046000825580601f1061441a5750614439565b601f016020900490600052602060002090810190614438919061419f565b5b50565b61446591905b8082111561446157600081816144589190614489565b50600101614442565b5090565b90565b5080546000825590600052602060002090810190614486919061443c565b50565b50805460008255906000526020600020908101906144a7919061419f565b50565b6000813590506144b981615cc7565b92915050565b600082601f8301126144d057600080fd5b81356144e36144de82615853565b615826565b9150818183526020840193506020810190508385602084028201111561450857600080fd5b60005b83811015614538578161451e88826144aa565b84526020840193506020830192505060018101905061450b565b5050505092915050565b600082601f83011261455357600080fd5b81356145666145618261587b565b615826565b9150818183526020840193506020810190508360005b838110156145ac578135860161459288826145b6565b84526020840193506020830192505060018101905061457c565b5050505092915050565b600082601f8301126145c757600080fd5b81356145da6145d5826158a3565b615826565b9150818183526020840193506020810190508360005b8381101561462057813586016146068882614712565b8452602084019350602083019250506001810190506145f0565b5050505092915050565b600082601f83011261463b57600080fd5b813561464e614649826158cb565b615826565b9150818183526020840193506020810190508360005b83811015614694578135860161467a8882614712565b845260208401935060208301925050600181019050614664565b5050505092915050565b600082601f8301126146af57600080fd5b81356146c26146bd826158f3565b615826565b9150818183526020840193506020810190508360005b8381101561470857813586016146ee8882614818565b8452602084019350602083019250506001810190506146d8565b5050505092915050565b600082601f83011261472357600080fd5b81356147366147318261591b565b615826565b9150818183526020840193506020810190508385602084028201111561475b57600080fd5b60005b8381101561478b578161477188826148c0565b84526020840193506020830192505060018101905061475e565b5050505092915050565b600082601f8301126147a657600080fd5b81356147b96147b482615943565b615826565b915081818352602084019350602081019050838560208402820111156147de57600080fd5b60005b8381101561480e57816147f488826148ea565b8452602084019350602083019250506001810190506147e1565b5050505092915050565b600082601f83011261482957600080fd5b813561483c6148378261596b565b615826565b9150808252602083016020830185838301111561485857600080fd5b614863838284615c3a565b50505092915050565b600082601f83011261487d57600080fd5b813561489061488b82615997565b615826565b915080825260208301602083018583830111156148ac57600080fd5b6148b7838284615c3a565b50505092915050565b6000813590506148cf81615cde565b92915050565b6000815190506148e481615cde565b92915050565b6000813590506148f981615cf5565b92915050565b600080600080600060a0868803121561491757600080fd5b6000614925888289016144aa565b955050602086013567ffffffffffffffff81111561494257600080fd5b61494e888289016144bf565b945050604086013567ffffffffffffffff81111561496b57600080fd5b6149778882890161486c565b935050606086013567ffffffffffffffff81111561499457600080fd5b6149a08882890161486c565b925050608086013567ffffffffffffffff8111156149bd57600080fd5b6149c98882890161486c565b9150509295509295909350565b600080600080608085870312156149ec57600080fd5b60006149fa878288016144aa565b945050602085013567ffffffffffffffff811115614a1757600080fd5b614a23878288016144bf565b935050604085013567ffffffffffffffff811115614a4057600080fd5b614a4c8782880161486c565b9250506060614a5d878288016148c0565b91505092959194509250565b60008060008060808587031215614a7f57600080fd5b6000614a8d878288016144aa565b945050602085013567ffffffffffffffff811115614aaa57600080fd5b614ab68782880161486c565b935050604085013567ffffffffffffffff811115614ad357600080fd5b614adf8782880161486c565b9250506060614af0878288016148c0565b91505092959194509250565b600080600080600080600080610100898b031215614b1957600080fd5b600089013567ffffffffffffffff811115614b3357600080fd5b614b3f8b828c0161462a565b985050602089013567ffffffffffffffff811115614b5c57600080fd5b614b688b828c0161486c565b975050604089013567ffffffffffffffff811115614b8557600080fd5b614b918b828c016144bf565b965050606089013567ffffffffffffffff811115614bae57600080fd5b614bba8b828c016144bf565b955050608089013567ffffffffffffffff811115614bd757600080fd5b614be38b828c01614795565b94505060a089013567ffffffffffffffff811115614c0057600080fd5b614c0c8b828c0161469e565b93505060c089013567ffffffffffffffff811115614c2957600080fd5b614c358b828c0161486c565b92505060e089013567ffffffffffffffff811115614c5257600080fd5b614c5e8b828c01614542565b9150509295985092959890939650565b600060208284031215614c8057600080fd5b600082013567ffffffffffffffff811115614c9a57600080fd5b614ca68482850161486c565b91505092915050565b60008060408385031215614cc257600080fd5b600083013567ffffffffffffffff811115614cdc57600080fd5b614ce88582860161486c565b9250506020614cf9858286016144aa565b9150509250929050565b60008060408385031215614d1657600080fd5b600083013567ffffffffffffffff811115614d3057600080fd5b614d3c8582860161486c565b9250506020614d4d858286016148c0565b9150509250929050565b600080600060608486031215614d6c57600080fd5b600084013567ffffffffffffffff811115614d8657600080fd5b614d928682870161486c565b9350506020614da3868287016148c0565b9250506040614db4868287016144aa565b9150509250925092565b600060208284031215614dd057600080fd5b6000614dde848285016148d5565b91505092915050565b6000614df38383614e6b565b60208301905092915050565b6000614e0b83836150a4565b905092915050565b6000614e1f8383615176565b905092915050565b6000614e338383615219565b905092915050565b6000614e478383615471565b60208301905092915050565b6000614e5f838361549e565b60208301905092915050565b614e7481615bd5565b82525050565b614e8381615bd5565b82525050565b6000614e9482615a4d565b614e9e8185615b16565b9350614ea9836159c3565b8060005b83811015614eda578151614ec18882614de7565b9750614ecc83615abb565b925050600181019050614ead565b5085935050505092915050565b6000614ef282615a58565b614efc8185615b27565b935083602082028501614f0e856159d3565b8060005b85811015614f4a5784840389528151614f2b8582614dff565b9450614f3683615ac8565b925060208a01995050600181019050614f12565b50829750879550505050505092915050565b6000614f6782615a63565b614f718185615b38565b935083602082028501614f83856159e3565b8060005b85811015614fbf5784840389528151614fa08582614e13565b9450614fab83615ad5565b925060208a01995050600181019050614f87565b50829750879550505050505092915050565b6000614fdc82615a6e565b614fe68185615b49565b935083602082028501614ff8856159f3565b8060005b8581101561503457848403895281516150158582614e27565b945061502083615ae2565b925060208a01995050600181019050614ffc565b50829750879550505050505092915050565b600061505182615a84565b61505b8185615b6b565b935061506683615a13565b8060005b8381101561509757815161507e8882614e3b565b975061508983615afc565b92505060018101905061506a565b5085935050505092915050565b60006150af82615a79565b6150b98185615b5a565b93506150c483615a03565b8060005b838110156150f55781516150dc8882614e3b565b97506150e783615aef565b9250506001810190506150c8565b5085935050505092915050565b600061510d82615a8f565b6151178185615b7c565b935061512283615a23565b8060005b8381101561515a5761513782615c96565b6151418882614e53565b975061514c83615b09565b925050600181019050615126565b5085935050505092915050565b61517081615be7565b82525050565b600061518182615a9a565b61518b8185615b8d565b935061519b818560208601615c49565b6151a481615ca9565b840191505092915050565b60006151ba82615ab0565b6151c48185615baf565b93506151d4818560208601615c49565b6151dd81615ca9565b840191505092915050565b60006151f382615ab0565b6151fd8185615bc0565b935061520d818560208601615c49565b80840191505092915050565b600061522482615aa5565b61522e8185615b9e565b935061523e818560208601615c49565b61524781615ca9565b840191505092915050565b600061525d82615aa5565b6152678185615baf565b9350615277818560208601615c49565b61528081615ca9565b840191505092915050565b600061529682615aa5565b6152a08185615bc0565b93506152b0818560208601615c49565b80840191505092915050565b6000815460018116600081146152d957600181146152ff57615343565b607f60028304166152ea8187615baf565b955060ff198316865260208601935050615343565b6002820461530d8187615baf565b955061531885615a38565b60005b8281101561533a5781548189015260018201915060208101905061531b565b80880195505050505b505092915050565b6000615358601383615baf565b91507f4d75737420626520726f6c65206f776e65722e000000000000000000000000006000830152602082019050919050565b6000615398603d83615baf565b91507f616e6f74686572206368616e6765207265717565737420697320616c7265616460008301527f792070726f63657373656420666f72207468697320776f726b666c6f770000006020830152604082019050919050565b60006153fe601083615baf565b91507f77726f6e672072737020616e73776572000000000000000000000000000000006000830152602082019050919050565b600061543e600c83615baf565b91507f77726f6e674164647265737300000000000000000000000000000000000000006000830152602082019050919050565b61547a81615c13565b82525050565b61548981615c13565b82525050565b61549881615c13565b82525050565b6154a781615c13565b82525050565b6154b681615c1d565b82525050565b6154c581615c2d565b82525050565b60006154d7828461528b565b915081905092915050565b60006154ee82846151e8565b915081905092915050565b600060208201905061550e6000830184614e7a565b92915050565b6000602082019050818103600083015261552e8184614e89565b905092915050565b600060208201905081810360008301526155508184614ee7565b905092915050565b600060208201905081810360008301526155728184614f5c565b905092915050565b600060208201905081810360008301526155948184614fd1565b905092915050565b600060208201905081810360008301526155b68184615046565b905092915050565b600060408201905081810360008301526155d88185615102565b90506155e7602083018461548f565b9392505050565b60006020820190506156036000830184615167565b92915050565b6000602082019050818103600083015261562381846151af565b905092915050565b6000604082019050818103600083015261564581856151af565b9050818103602083015261565981846151af565b90509392505050565b6000604082019050818103600083015261567c81846151af565b9050818103602083015261568f8161538b565b905092915050565b600060408201905081810360008301526156b181846151af565b905081810360208301526156c4816153f1565b905092915050565b600060e08201905081810360008301526156e6818a6151af565b90506156f56020830189615480565b6157026040830188615480565b818103606083015261571481876151af565b905081810360808301526157288186615046565b905061573760a0830185615480565b61574460c0830184614e7a565b98975050505050505050565b6000606082019050818103600083015261576a8186615252565b90506157796020830185614e7a565b61578660408301846154bc565b949350505050565b600060208201905081810360008301526157a881846152bc565b905092915050565b600060208201905081810360008301526157c98161534b565b9050919050565b600060208201905081810360008301526157e981615431565b9050919050565b60006020820190506158056000830184615480565b92915050565b600060208201905061582060008301846154ad565b92915050565b6000604051905081810181811067ffffffffffffffff8211171561584957600080fd5b8060405250919050565b600067ffffffffffffffff82111561586a57600080fd5b602082029050602081019050919050565b600067ffffffffffffffff82111561589257600080fd5b602082029050602081019050919050565b600067ffffffffffffffff8211156158ba57600080fd5b602082029050602081019050919050565b600067ffffffffffffffff8211156158e257600080fd5b602082029050602081019050919050565b600067ffffffffffffffff82111561590a57600080fd5b602082029050602081019050919050565b600067ffffffffffffffff82111561593257600080fd5b602082029050602081019050919050565b600067ffffffffffffffff82111561595a57600080fd5b602082029050602081019050919050565b600067ffffffffffffffff82111561598257600080fd5b601f19601f8301169050602081019050919050565b600067ffffffffffffffff8211156159ae57600080fd5b601f19601f8301169050602081019050919050565b6000819050602082019050919050565b6000819050602082019050919050565b6000819050602082019050919050565b6000819050602082019050919050565b6000819050602082019050919050565b6000819050602082019050919050565b60008190508160005260206000209050919050565b60008190508160005260206000209050919050565b600081519050919050565b600081519050919050565b600081519050919050565b600081519050919050565b600081519050919050565b600081519050919050565b600081549050919050565b600081519050919050565b600081519050919050565b600081519050919050565b6000602082019050919050565b6000602082019050919050565b6000602082019050919050565b6000602082019050919050565b6000602082019050919050565b6000602082019050919050565b6000600182019050919050565b600082825260208201905092915050565b600082825260208201905092915050565b600082825260208201905092915050565b600082825260208201905092915050565b600082825260208201905092915050565b600082825260208201905092915050565b600082825260208201905092915050565b600082825260208201905092915050565b600082825260208201905092915050565b600082825260208201905092915050565b600081905092915050565b6000819050919050565b6000615be082615bf3565b9050919050565b60008115159050919050565b600073ffffffffffffffffffffffffffffffffffffffff82169050919050565b6000819050919050565b600063ffffffff82169050919050565b600060ff82169050919050565b82818337600083830152505050565b60005b83811015615c67578082015181840152602081019050615c4c565b83811115615c76576000848401525b50505050565b6000615c8f615c8a83615cba565b615bcb565b9050919050565b6000615ca28254615c7c565b9050919050565b6000601f19601f8301169050919050565b60008160001c9050919050565b615cd081615bd5565b8114615cdb57600080fd5b50565b615ce781615c13565b8114615cf257600080fd5b50565b615cfe81615c2d565b8114615d0957600080fd5b5056fe608060405234801561001057600080fd5b506105d0806100206000396000f3fe608060405234801561001057600080fd5b506004361061004c5760003560e01c80630da08fe71461005157806311f554241461011c57806334b9eb7d14610146578063f472c3861461022e575b600080fd5b61011a6004803603604081101561006757600080fd5b81019080803563ffffffff1690602001909291908035906020019064010000000081111561009457600080fd5b8201836020820111156100a657600080fd5b803590602001918460018302840111640100000000831117156100c857600080fd5b91908080601f016020809104026020016040519081016040528093929190818152602001838380828437600081840152601f19601f8201169050808301925050505050505091929192905050506102e9565b005b6101246103dd565b604051808263ffffffff1663ffffffff16815260200191505060405180910390f35b61022c6004803603606081101561015c57600080fd5b810190808035906020019064010000000081111561017957600080fd5b82018360208201111561018b57600080fd5b803590602001918460018302840111640100000000831117156101ad57600080fd5b91908080601f016020809104026020016040519081016040528093929190818152602001838380828437600081840152601f19601f820116905080830192505050505050509192919290803573ffffffffffffffffffffffffffffffffffffffff169060200190929190803560ff1690602001909291905050506103f7565b005b6102e76004803603602081101561024457600080fd5b810190808035906020019064010000000081111561026157600080fd5b82018360208201111561027357600080fd5b8035906020019184600183028401116401000000008311171561029557600080fd5b91908080601f016020809104026020016040519081016040528093929190818152602001838380828437600081840152601f19601f8201169050808301925050505050505091929192905050506104bb565b005b600060018060036000856040518082805190602001908083835b602083106103265780518252602082019150602081019050602083039250610303565b6001836020036101000a038019825116818451168082178552505050505050905001915050908152602001604051809103902060003373ffffffffffffffffffffffffffffffffffffffff1673ffffffffffffffffffffffffffffffffffffffff16815260200190815260200160002060009054906101000a900460ff1660ff16901c1660ff16149050806103b757fe5b82600160006101000a81548163ffffffff021916908363ffffffff160217905550505050565b6000600160009054906101000a900463ffffffff16905090565b806000846040518082805190602001908083835b6020831061042e578051825260208201915060208101905060208303925061040b565b6001836020036101000a038019825116818451168082178552505050505050905001915050908152602001604051809103902060008473ffffffffffffffffffffffffffffffffffffffff1673ffffffffffffffffffffffffffffffffffffffff16815260200190815260200160002060006101000a81548160ff021916908360ff160217905550505050565b60006001806000846040518082805190602001908083835b602083106104f657805182526020820191506020810190506020830392506104d3565b6001836020036101000a038019825116818451168082178552505050505050905001915050908152602001604051809103902060003373ffffffffffffffffffffffffffffffffffffffff1673ffffffffffffffffffffffffffffffffffffffff16815260200190815260200160002060009054906101000a900460ff161660ff161490508061058257fe5b3373ffffffffffffffffffffffffffffffffffffffff16fffea265627a7a72315820c0ae768778a5c749b2cec7dbd91f5fa835f45ad988eb1d9847138faf4ccb6be764736f6c63430005110032525350206e6f74206170706c696361626c6520686572652028616c72656164792070726f6365737365643f29a365627a7a7231582044eabf8809b0b67f9208f51d5f9fd5186591b8655f1438d74d04ac61027855be6c6578706572696d656e74616cf564736f6c63430005110040",
			"opcodes": "PUSH1 0x80 PUSH1 0x40 MSTORE PUSH1 0x40 MLOAD DUP1 PUSH1 0x40 ADD PUSH1 0x40 MSTORE DUP1 PUSH1 0x40 MLOAD DUP1 PUSH1 0x40 ADD PUSH1 0x40 MSTORE DUP1 PUSH1 0x4 DUP2 MSTORE PUSH1 0x20 ADD PUSH32 0x696E697400000000000000000000000000000000000000000000000000000000 DUP2 MSTORE POP DUP2 MSTORE PUSH1 0x20 ADD PUSH1 0x40 MLOAD DUP1 PUSH1 0x40 ADD PUSH1 0x40 MSTORE DUP1 PUSH1 0x4 DUP2 MSTORE PUSH1 0x20 ADD PUSH32 0x696E697400000000000000000000000000000000000000000000000000000000 DUP2 MSTORE POP DUP2 MSTORE POP PUSH1 0x0 DUP1 DUP3 ADD MLOAD DUP2 PUSH1 0x0 ADD SWAP1 DUP1 MLOAD SWAP1 PUSH1 0x20 ADD SWAP1 PUSH3 0xA2 SWAP3 SWAP2 SWAP1 PUSH3 0xD8 JUMP JUMPDEST POP PUSH1 0x20 DUP3 ADD MLOAD DUP2 PUSH1 0x1 ADD SWAP1 DUP1 MLOAD SWAP1 PUSH1 0x20 ADD SWAP1 PUSH3 0xC1 SWAP3 SWAP2 SWAP1 PUSH3 0xD8 JUMP JUMPDEST POP POP POP CALLVALUE DUP1 ISZERO PUSH3 0xD1 JUMPI PUSH1 0x0 DUP1 REVERT JUMPDEST POP PUSH3 0x187 JUMP JUMPDEST DUP3 DUP1 SLOAD PUSH1 0x1 DUP2 PUSH1 0x1 AND ISZERO PUSH2 0x100 MUL SUB AND PUSH1 0x2 SWAP1 DIV SWAP1 PUSH1 0x0 MSTORE PUSH1 0x20 PUSH1 0x0 KECCAK256 SWAP1 PUSH1 0x1F ADD PUSH1 0x20 SWAP1 DIV DUP2 ADD SWAP3 DUP3 PUSH1 0x1F LT PUSH3 0x11B JUMPI DUP1 MLOAD PUSH1 0xFF NOT AND DUP4 DUP1 ADD OR DUP6 SSTORE PUSH3 0x14C JUMP JUMPDEST DUP3 DUP1 ADD PUSH1 0x1 ADD DUP6 SSTORE DUP3 ISZERO PUSH3 0x14C JUMPI SWAP2 DUP3 ADD JUMPDEST DUP3 DUP2 GT ISZERO PUSH3 0x14B JUMPI DUP3 MLOAD DUP3 SSTORE SWAP2 PUSH1 0x20 ADD SWAP2 SWAP1 PUSH1 0x1 ADD SWAP1 PUSH3 0x12E JUMP JUMPDEST JUMPDEST POP SWAP1 POP PUSH3 0x15B SWAP2 SWAP1 PUSH3 0x15F JUMP JUMPDEST POP SWAP1 JUMP JUMPDEST PUSH3 0x184 SWAP2 SWAP1 JUMPDEST DUP1 DUP3 GT ISZERO PUSH3 0x180 JUMPI PUSH1 0x0 DUP2 PUSH1 0x0 SWAP1 SSTORE POP PUSH1 0x1 ADD PUSH3 0x166 JUMP JUMPDEST POP SWAP1 JUMP JUMPDEST SWAP1 JUMP JUMPDEST PUSH2 0x636B DUP1 PUSH3 0x197 PUSH1 0x0 CODECOPY PUSH1 0x0 RETURN INVALID PUSH1 0x80 PUSH1 0x40 MSTORE PUSH1 0x4 CALLDATASIZE LT PUSH2 0x181 JUMPI PUSH1 0x0 CALLDATALOAD PUSH1 0xE0 SHR DUP1 PUSH4 0x9694F9FB GT PUSH2 0xD1 JUMPI DUP1 PUSH4 0xCB2C9514 GT PUSH2 0x8A JUMPI DUP1 PUSH4 0xE7CF96E7 GT PUSH2 0x64 JUMPI DUP1 PUSH4 0xE7CF96E7 EQ PUSH2 0x60E JUMPI DUP1 PUSH4 0xE9B2B886 EQ PUSH2 0x64B JUMPI DUP1 PUSH4 0xEE69739D EQ PUSH2 0x688 JUMPI DUP1 PUSH4 0xF89A3B10 EQ PUSH2 0x6A4 JUMPI PUSH2 0x181 JUMP JUMPDEST DUP1 PUSH4 0xCB2C9514 EQ PUSH2 0x565 JUMPI DUP1 PUSH4 0xCB89CDFD EQ PUSH2 0x58E JUMPI DUP1 PUSH4 0xD2FBF948 EQ PUSH2 0x5CB JUMPI PUSH2 0x181 JUMP JUMPDEST DUP1 PUSH4 0x9694F9FB EQ PUSH2 0x457 JUMPI DUP1 PUSH4 0x99307671 EQ PUSH2 0x494 JUMPI DUP1 PUSH4 0xA158E4B0 EQ PUSH2 0x4D1 JUMPI DUP1 PUSH4 0xA8CD0A80 EQ PUSH2 0x4ED JUMPI DUP1 PUSH4 0xB4DADE92 EQ PUSH2 0x519 JUMPI DUP1 PUSH4 0xB872384D EQ PUSH2 0x535 JUMPI PUSH2 0x181 JUMP JUMPDEST DUP1 PUSH4 0x42C59B28 GT PUSH2 0x13E JUMPI DUP1 PUSH4 0x65C6865B GT PUSH2 0x118 JUMPI DUP1 PUSH4 0x65C6865B EQ PUSH2 0x391 JUMPI DUP1 PUSH4 0x6CB4E345 EQ PUSH2 0x3C1 JUMPI DUP1 PUSH4 0x827F9511 EQ PUSH2 0x3FE JUMPI DUP1 PUSH4 0x85E0EFC0 EQ PUSH2 0x43B JUMPI PUSH2 0x181 JUMP JUMPDEST DUP1 PUSH4 0x42C59B28 EQ PUSH2 0x2DA JUMPI DUP1 PUSH4 0x4E894B32 EQ PUSH2 0x317 JUMPI DUP1 PUSH4 0x6342B1C2 EQ PUSH2 0x354 JUMPI PUSH2 0x181 JUMP JUMPDEST DUP1 PUSH4 0x2413FD4 EQ PUSH2 0x186 JUMPI DUP1 PUSH4 0xCE36024 EQ PUSH2 0x1C3 JUMPI DUP1 PUSH4 0x18008E57 EQ PUSH2 0x1F3 JUMPI DUP1 PUSH4 0x290930A2 EQ PUSH2 0x223 JUMPI DUP1 PUSH4 0x2C3C0F9C EQ PUSH2 0x260 JUMPI DUP1 PUSH4 0x39B64C30 EQ PUSH2 0x29D JUMPI JUMPDEST PUSH1 0x0 DUP1 REVERT JUMPDEST CALLVALUE DUP1 ISZERO PUSH2 0x192 JUMPI PUSH1 0x0 DUP1 REVERT JUMPDEST POP PUSH2 0x1AD PUSH1 0x4 DUP1 CALLDATASIZE SUB PUSH2 0x1A8 SWAP2 SWAP1 DUP2 ADD SWAP1 PUSH2 0x4C6E JUMP JUMPDEST PUSH2 0x6CF JUMP JUMPDEST PUSH1 0x40 MLOAD PUSH2 0x1BA SWAP2 SWAP1 PUSH2 0x559C JUMP JUMPDEST PUSH1 0x40 MLOAD DUP1 SWAP2 SUB SWAP1 RETURN JUMPDEST PUSH2 0x1DD PUSH1 0x4 DUP1 CALLDATASIZE SUB PUSH2 0x1D8 SWAP2 SWAP1 DUP2 ADD SWAP1 PUSH2 0x4CAF JUMP JUMPDEST PUSH2 0x74B JUMP JUMPDEST PUSH1 0x40 MLOAD PUSH2 0x1EA SWAP2 SWAP1 PUSH2 0x559C JUMP JUMPDEST PUSH1 0x40 MLOAD DUP1 SWAP2 SUB SWAP1 RETURN JUMPDEST PUSH2 0x20D PUSH1 0x4 DUP1 CALLDATASIZE SUB PUSH2 0x208 SWAP2 SWAP1 DUP2 ADD SWAP1 PUSH2 0x4CAF JUMP JUMPDEST PUSH2 0xA8C JUMP JUMPDEST PUSH1 0x40 MLOAD PUSH2 0x21A SWAP2 SWAP1 PUSH2 0x5609 JUMP JUMPDEST PUSH1 0x40 MLOAD DUP1 SWAP2 SUB SWAP1 RETURN JUMPDEST CALLVALUE DUP1 ISZERO PUSH2 0x22F JUMPI PUSH1 0x0 DUP1 REVERT JUMPDEST POP PUSH2 0x24A PUSH1 0x4 DUP1 CALLDATASIZE SUB PUSH2 0x245 SWAP2 SWAP1 DUP2 ADD SWAP1 PUSH2 0x4C6E JUMP JUMPDEST PUSH2 0xD08 JUMP JUMPDEST PUSH1 0x40 MLOAD PUSH2 0x257 SWAP2 SWAP1 PUSH2 0x580B JUMP JUMPDEST PUSH1 0x40 MLOAD DUP1 SWAP2 SUB SWAP1 RETURN JUMPDEST CALLVALUE DUP1 ISZERO PUSH2 0x26C JUMPI PUSH1 0x0 DUP1 REVERT JUMPDEST POP PUSH2 0x287 PUSH1 0x4 DUP1 CALLDATASIZE SUB PUSH2 0x282 SWAP2 SWAP1 DUP2 ADD SWAP1 PUSH2 0x4D57 JUMP JUMPDEST PUSH2 0xD46 JUMP JUMPDEST PUSH1 0x40 MLOAD PUSH2 0x294 SWAP2 SWAP1 PUSH2 0x55EE JUMP JUMPDEST PUSH1 0x40 MLOAD DUP1 SWAP2 SUB SWAP1 RETURN JUMPDEST CALLVALUE DUP1 ISZERO PUSH2 0x2A9 JUMPI PUSH1 0x0 DUP1 REVERT JUMPDEST POP PUSH2 0x2C4 PUSH1 0x4 DUP1 CALLDATASIZE SUB PUSH2 0x2BF SWAP2 SWAP1 DUP2 ADD SWAP1 PUSH2 0x4C6E JUMP JUMPDEST PUSH2 0x12CE JUMP JUMPDEST PUSH1 0x40 MLOAD PUSH2 0x2D1 SWAP2 SWAP1 PUSH2 0x5514 JUMP JUMPDEST PUSH1 0x40 MLOAD DUP1 SWAP2 SUB SWAP1 RETURN JUMPDEST CALLVALUE DUP1 ISZERO PUSH2 0x2E6 JUMPI PUSH1 0x0 DUP1 REVERT JUMPDEST POP PUSH2 0x301 PUSH1 0x4 DUP1 CALLDATASIZE SUB PUSH2 0x2FC SWAP2 SWAP1 DUP2 ADD SWAP1 PUSH2 0x4C6E JUMP JUMPDEST PUSH2 0x137D JUMP JUMPDEST PUSH1 0x40 MLOAD PUSH2 0x30E SWAP2 SWAP1 PUSH2 0x5514 JUMP JUMPDEST PUSH1 0x40 MLOAD DUP1 SWAP2 SUB SWAP1 RETURN JUMPDEST CALLVALUE DUP1 ISZERO PUSH2 0x323 JUMPI PUSH1 0x0 DUP1 REVERT JUMPDEST POP PUSH2 0x33E PUSH1 0x4 DUP1 CALLDATASIZE SUB PUSH2 0x339 SWAP2 SWAP1 DUP2 ADD SWAP1 PUSH2 0x4C6E JUMP JUMPDEST PUSH2 0x142C JUMP JUMPDEST PUSH1 0x40 MLOAD PUSH2 0x34B SWAP2 SWAP1 PUSH2 0x5536 JUMP JUMPDEST PUSH1 0x40 MLOAD DUP1 SWAP2 SUB SWAP1 RETURN JUMPDEST CALLVALUE DUP1 ISZERO PUSH2 0x360 JUMPI PUSH1 0x0 DUP1 REVERT JUMPDEST POP PUSH2 0x37B PUSH1 0x4 DUP1 CALLDATASIZE SUB PUSH2 0x376 SWAP2 SWAP1 DUP2 ADD SWAP1 PUSH2 0x4C6E JUMP JUMPDEST PUSH2 0x1502 JUMP JUMPDEST PUSH1 0x40 MLOAD PUSH2 0x388 SWAP2 SWAP1 PUSH2 0x559C JUMP JUMPDEST PUSH1 0x40 MLOAD DUP1 SWAP2 SUB SWAP1 RETURN JUMPDEST PUSH2 0x3AB PUSH1 0x4 DUP1 CALLDATASIZE SUB PUSH2 0x3A6 SWAP2 SWAP1 DUP2 ADD SWAP1 PUSH2 0x4A69 JUMP JUMPDEST PUSH2 0x157E JUMP JUMPDEST PUSH1 0x40 MLOAD PUSH2 0x3B8 SWAP2 SWAP1 PUSH2 0x5609 JUMP JUMPDEST PUSH1 0x40 MLOAD DUP1 SWAP2 SUB SWAP1 RETURN JUMPDEST CALLVALUE DUP1 ISZERO PUSH2 0x3CD JUMPI PUSH1 0x0 DUP1 REVERT JUMPDEST POP PUSH2 0x3E8 PUSH1 0x4 DUP1 CALLDATASIZE SUB PUSH2 0x3E3 SWAP2 SWAP1 DUP2 ADD SWAP1 PUSH2 0x4CAF JUMP JUMPDEST PUSH2 0x191E JUMP JUMPDEST PUSH1 0x40 MLOAD PUSH2 0x3F5 SWAP2 SWAP1 PUSH2 0x57F0 JUMP JUMPDEST PUSH1 0x40 MLOAD DUP1 SWAP2 SUB SWAP1 RETURN JUMPDEST CALLVALUE DUP1 ISZERO PUSH2 0x40A JUMPI PUSH1 0x0 DUP1 REVERT JUMPDEST POP PUSH2 0x425 PUSH1 0x4 DUP1 CALLDATASIZE SUB PUSH2 0x420 SWAP2 SWAP1 DUP2 ADD SWAP1 PUSH2 0x4D03 JUMP JUMPDEST PUSH2 0x1A41 JUMP JUMPDEST PUSH1 0x40 MLOAD PUSH2 0x432 SWAP2 SWAP1 PUSH2 0x54F9 JUMP JUMPDEST PUSH1 0x40 MLOAD DUP1 SWAP2 SUB SWAP1 RETURN JUMPDEST PUSH2 0x455 PUSH1 0x4 DUP1 CALLDATASIZE SUB PUSH2 0x450 SWAP2 SWAP1 DUP2 ADD SWAP1 PUSH2 0x49D6 JUMP JUMPDEST PUSH2 0x1AA2 JUMP JUMPDEST STOP JUMPDEST CALLVALUE DUP1 ISZERO PUSH2 0x463 JUMPI PUSH1 0x0 DUP1 REVERT JUMPDEST POP PUSH2 0x47E PUSH1 0x4 DUP1 CALLDATASIZE SUB PUSH2 0x479 SWAP2 SWAP1 DUP2 ADD SWAP1 PUSH2 0x4C6E JUMP JUMPDEST PUSH2 0x1B48 JUMP JUMPDEST PUSH1 0x40 MLOAD PUSH2 0x48B SWAP2 SWAP1 PUSH2 0x5558 JUMP JUMPDEST PUSH1 0x40 MLOAD DUP1 SWAP2 SUB SWAP1 RETURN JUMPDEST CALLVALUE DUP1 ISZERO PUSH2 0x4A0 JUMPI PUSH1 0x0 DUP1 REVERT JUMPDEST POP PUSH2 0x4BB PUSH1 0x4 DUP1 CALLDATASIZE SUB PUSH2 0x4B6 SWAP2 SWAP1 DUP2 ADD SWAP1 PUSH2 0x4C6E JUMP JUMPDEST PUSH2 0x1C52 JUMP JUMPDEST PUSH1 0x40 MLOAD PUSH2 0x4C8 SWAP2 SWAP1 PUSH2 0x559C JUMP JUMPDEST PUSH1 0x40 MLOAD DUP1 SWAP2 SUB SWAP1 RETURN JUMPDEST PUSH2 0x4EB PUSH1 0x4 DUP1 CALLDATASIZE SUB PUSH2 0x4E6 SWAP2 SWAP1 DUP2 ADD SWAP1 PUSH2 0x4C6E JUMP JUMPDEST PUSH2 0x1CCB JUMP JUMPDEST STOP JUMPDEST CALLVALUE DUP1 ISZERO PUSH2 0x4F9 JUMPI PUSH1 0x0 DUP1 REVERT JUMPDEST POP PUSH2 0x502 PUSH2 0x1E73 JUMP JUMPDEST PUSH1 0x40 MLOAD PUSH2 0x510 SWAP3 SWAP2 SWAP1 PUSH2 0x562B JUMP JUMPDEST PUSH1 0x40 MLOAD DUP1 SWAP2 SUB SWAP1 RETURN JUMPDEST PUSH2 0x533 PUSH1 0x4 DUP1 CALLDATASIZE SUB PUSH2 0x52E SWAP2 SWAP1 DUP2 ADD SWAP1 PUSH2 0x4AFC JUMP JUMPDEST PUSH2 0x1FBF JUMP JUMPDEST STOP JUMPDEST PUSH2 0x54F PUSH1 0x4 DUP1 CALLDATASIZE SUB PUSH2 0x54A SWAP2 SWAP1 DUP2 ADD SWAP1 PUSH2 0x4CAF JUMP JUMPDEST PUSH2 0x2827 JUMP JUMPDEST PUSH1 0x40 MLOAD PUSH2 0x55C SWAP2 SWAP1 PUSH2 0x559C JUMP JUMPDEST PUSH1 0x40 MLOAD DUP1 SWAP2 SUB SWAP1 RETURN JUMPDEST CALLVALUE DUP1 ISZERO PUSH2 0x571 JUMPI PUSH1 0x0 DUP1 REVERT JUMPDEST POP PUSH2 0x58C PUSH1 0x4 DUP1 CALLDATASIZE SUB PUSH2 0x587 SWAP2 SWAP1 DUP2 ADD SWAP1 PUSH2 0x4D03 JUMP JUMPDEST PUSH2 0x2DC7 JUMP JUMPDEST STOP JUMPDEST CALLVALUE DUP1 ISZERO PUSH2 0x59A JUMPI PUSH1 0x0 DUP1 REVERT JUMPDEST POP PUSH2 0x5B5 PUSH1 0x4 DUP1 CALLDATASIZE SUB PUSH2 0x5B0 SWAP2 SWAP1 DUP2 ADD SWAP1 PUSH2 0x4C6E JUMP JUMPDEST PUSH2 0x337D JUMP JUMPDEST PUSH1 0x40 MLOAD PUSH2 0x5C2 SWAP2 SWAP1 PUSH2 0x559C JUMP JUMPDEST PUSH1 0x40 MLOAD DUP1 SWAP2 SUB SWAP1 RETURN JUMPDEST CALLVALUE DUP1 ISZERO PUSH2 0x5D7 JUMPI PUSH1 0x0 DUP1 REVERT JUMPDEST POP PUSH2 0x5F2 PUSH1 0x4 DUP1 CALLDATASIZE SUB PUSH2 0x5ED SWAP2 SWAP1 DUP2 ADD SWAP1 PUSH2 0x4C6E JUMP JUMPDEST PUSH2 0x33F9 JUMP JUMPDEST PUSH1 0x40 MLOAD PUSH2 0x605 SWAP8 SWAP7 SWAP6 SWAP5 SWAP4 SWAP3 SWAP2 SWAP1 PUSH2 0x56CC JUMP JUMPDEST PUSH1 0x40 MLOAD DUP1 SWAP2 SUB SWAP1 RETURN JUMPDEST CALLVALUE DUP1 ISZERO PUSH2 0x61A JUMPI PUSH1 0x0 DUP1 REVERT JUMPDEST POP PUSH2 0x635 PUSH1 0x4 DUP1 CALLDATASIZE SUB PUSH2 0x630 SWAP2 SWAP1 DUP2 ADD SWAP1 PUSH2 0x4CAF JUMP JUMPDEST PUSH2 0x36C5 JUMP JUMPDEST PUSH1 0x40 MLOAD PUSH2 0x642 SWAP2 SWAP1 PUSH2 0x57F0 JUMP JUMPDEST PUSH1 0x40 MLOAD DUP1 SWAP2 SUB SWAP1 RETURN JUMPDEST CALLVALUE DUP1 ISZERO PUSH2 0x657 JUMPI PUSH1 0x0 DUP1 REVERT JUMPDEST POP PUSH2 0x672 PUSH1 0x4 DUP1 CALLDATASIZE SUB PUSH2 0x66D SWAP2 SWAP1 DUP2 ADD SWAP1 PUSH2 0x4C6E JUMP JUMPDEST PUSH2 0x37E8 JUMP JUMPDEST PUSH1 0x40 MLOAD PUSH2 0x67F SWAP2 SWAP1 PUSH2 0x559C JUMP JUMPDEST PUSH1 0x40 MLOAD DUP1 SWAP2 SUB SWAP1 RETURN JUMPDEST PUSH2 0x6A2 PUSH1 0x4 DUP1 CALLDATASIZE SUB PUSH2 0x69D SWAP2 SWAP1 DUP2 ADD SWAP1 PUSH2 0x48FF JUMP JUMPDEST PUSH2 0x3861 JUMP JUMPDEST STOP JUMPDEST CALLVALUE DUP1 ISZERO PUSH2 0x6B0 JUMPI PUSH1 0x0 DUP1 REVERT JUMPDEST POP PUSH2 0x6B9 PUSH2 0x3BDE JUMP JUMPDEST PUSH1 0x40 MLOAD PUSH2 0x6C6 SWAP2 SWAP1 PUSH2 0x557A JUMP JUMPDEST PUSH1 0x40 MLOAD DUP1 SWAP2 SUB SWAP1 RETURN JUMPDEST PUSH1 0x60 PUSH1 0x3 DUP3 PUSH1 0x40 MLOAD PUSH2 0x6E1 SWAP2 SWAP1 PUSH2 0x54E2 JUMP JUMPDEST SWAP1 DUP2 MSTORE PUSH1 0x20 ADD PUSH1 0x40 MLOAD DUP1 SWAP2 SUB SWAP1 KECCAK256 PUSH1 0x3 ADD PUSH1 0x0 ADD DUP1 SLOAD DUP1 PUSH1 0x20 MUL PUSH1 0x20 ADD PUSH1 0x40 MLOAD SWAP1 DUP2 ADD PUSH1 0x40 MSTORE DUP1 SWAP3 SWAP2 SWAP1 DUP2 DUP2 MSTORE PUSH1 0x20 ADD DUP3 DUP1 SLOAD DUP1 ISZERO PUSH2 0x73F JUMPI PUSH1 0x20 MUL DUP3 ADD SWAP2 SWAP1 PUSH1 0x0 MSTORE PUSH1 0x20 PUSH1 0x0 KECCAK256 SWAP1 JUMPDEST DUP2 SLOAD DUP2 MSTORE PUSH1 0x20 ADD SWAP1 PUSH1 0x1 ADD SWAP1 DUP1 DUP4 GT PUSH2 0x72B JUMPI JUMPDEST POP POP POP POP POP SWAP1 POP SWAP2 SWAP1 POP JUMP JUMPDEST PUSH1 0x60 CALLER PUSH20 0xFFFFFFFFFFFFFFFFFFFFFFFFFFFFFFFFFFFFFFFF AND DUP3 PUSH20 0xFFFFFFFFFFFFFFFFFFFFFFFFFFFFFFFFFFFFFFFF AND EQ PUSH2 0x7BB JUMPI PUSH1 0x40 MLOAD PUSH32 0x8C379A000000000000000000000000000000000000000000000000000000000 DUP2 MSTORE PUSH1 0x4 ADD PUSH2 0x7B2 SWAP1 PUSH2 0x57B0 JUMP JUMPDEST PUSH1 0x40 MLOAD DUP1 SWAP2 SUB SWAP1 REVERT JUMPDEST PUSH1 0x0 DUP1 SWAP1 POP JUMPDEST PUSH1 0x3 DUP5 PUSH1 0x40 MLOAD PUSH2 0x7D1 SWAP2 SWAP1 PUSH2 0x54E2 JUMP JUMPDEST SWAP1 DUP2 MSTORE PUSH1 0x20 ADD PUSH1 0x40 MLOAD DUP1 SWAP2 SUB SWAP1 KECCAK256 PUSH1 0xB ADD DUP1 SLOAD SWAP1 POP DUP2 LT ISZERO PUSH2 0xA12 JUMPI PUSH1 0x3 DUP5 PUSH1 0x40 MLOAD PUSH2 0x7FD SWAP2 SWAP1 PUSH2 0x54E2 JUMP JUMPDEST SWAP1 DUP2 MSTORE PUSH1 0x20 ADD PUSH1 0x40 MLOAD DUP1 SWAP2 SUB SWAP1 KECCAK256 PUSH1 0xB ADD DUP2 DUP2 SLOAD DUP2 LT PUSH2 0x819 JUMPI INVALID JUMPDEST SWAP1 PUSH1 0x0 MSTORE PUSH1 0x20 PUSH1 0x0 KECCAK256 ADD PUSH1 0x0 SWAP1 SLOAD SWAP1 PUSH2 0x100 EXP SWAP1 DIV PUSH20 0xFFFFFFFFFFFFFFFFFFFFFFFFFFFFFFFFFFFFFFFF AND PUSH20 0xFFFFFFFFFFFFFFFFFFFFFFFFFFFFFFFFFFFFFFFF AND DUP4 PUSH20 0xFFFFFFFFFFFFFFFFFFFFFFFFFFFFFFFFFFFFFFFF AND EQ DUP1 ISZERO PUSH2 0x8B4 JUMPI POP PUSH1 0x1 PUSH1 0x3 DUP6 PUSH1 0x40 MLOAD PUSH2 0x88B SWAP2 SWAP1 PUSH2 0x54E2 JUMP JUMPDEST SWAP1 DUP2 MSTORE PUSH1 0x20 ADD PUSH1 0x40 MLOAD DUP1 SWAP2 SUB SWAP1 KECCAK256 PUSH1 0xD ADD DUP3 DUP2 SLOAD DUP2 LT PUSH2 0x8A7 JUMPI INVALID JUMPDEST SWAP1 PUSH1 0x0 MSTORE PUSH1 0x20 PUSH1 0x0 KECCAK256 ADD SLOAD EQ JUMPDEST ISZERO PUSH2 0xA05 JUMPI PUSH1 0x1 PUSH1 0x3 DUP6 PUSH1 0x40 MLOAD PUSH2 0x8CB SWAP2 SWAP1 PUSH2 0x54E2 JUMP JUMPDEST SWAP1 DUP2 MSTORE PUSH1 0x20 ADD PUSH1 0x40 MLOAD DUP1 SWAP2 SUB SWAP1 KECCAK256 PUSH1 0xC ADD DUP3 DUP2 SLOAD DUP2 LT PUSH2 0x8E7 JUMPI INVALID JUMPDEST SWAP1 PUSH1 0x0 MSTORE PUSH1 0x20 PUSH1 0x0 KECCAK256 ADD SLOAD EQ PUSH2 0xA04 JUMPI PUSH1 0x1 PUSH1 0x3 DUP6 PUSH1 0x40 MLOAD PUSH2 0x909 SWAP2 SWAP1 PUSH2 0x54E2 JUMP JUMPDEST SWAP1 DUP2 MSTORE PUSH1 0x20 ADD PUSH1 0x40 MLOAD DUP1 SWAP2 SUB SWAP1 KECCAK256 PUSH1 0xC ADD DUP3 DUP2 SLOAD DUP2 LT PUSH2 0x925 JUMPI INVALID JUMPDEST SWAP1 PUSH1 0x0 MSTORE PUSH1 0x20 PUSH1 0x0 KECCAK256 ADD DUP2 SWAP1 SSTORE POP DUP3 PUSH20 0xFFFFFFFFFFFFFFFFFFFFFFFFFFFFFFFFFFFFFFFF AND DUP5 PUSH1 0x40 MLOAD PUSH2 0x958 SWAP2 SWAP1 PUSH2 0x54E2 JUMP JUMPDEST PUSH1 0x40 MLOAD DUP1 SWAP2 SUB SWAP1 KECCAK256 PUSH32 0xEF93748EF353323FECED9A53B1F9433297BF50235A9D5AA97783D3F30D4682E4 PUSH1 0x40 MLOAD PUSH1 0x40 MLOAD DUP1 SWAP2 SUB SWAP1 LOG3 PUSH1 0x3 DUP5 PUSH1 0x40 MLOAD PUSH2 0x99C SWAP2 SWAP1 PUSH2 0x54E2 JUMP JUMPDEST SWAP1 DUP2 MSTORE PUSH1 0x20 ADD PUSH1 0x40 MLOAD DUP1 SWAP2 SUB SWAP1 KECCAK256 PUSH1 0xC ADD DUP1 SLOAD DUP1 PUSH1 0x20 MUL PUSH1 0x20 ADD PUSH1 0x40 MLOAD SWAP1 DUP2 ADD PUSH1 0x40 MSTORE DUP1 SWAP3 SWAP2 SWAP1 DUP2 DUP2 MSTORE PUSH1 0x20 ADD DUP3 DUP1 SLOAD DUP1 ISZERO PUSH2 0x9F7 JUMPI PUSH1 0x20 MUL DUP3 ADD SWAP2 SWAP1 PUSH1 0x0 MSTORE PUSH1 0x20 PUSH1 0x0 KECCAK256 SWAP1 JUMPDEST DUP2 SLOAD DUP2 MSTORE PUSH1 0x20 ADD SWAP1 PUSH1 0x1 ADD SWAP1 DUP1 DUP4 GT PUSH2 0x9E3 JUMPI JUMPDEST POP POP POP POP POP SWAP2 POP POP PUSH2 0xA86 JUMP JUMPDEST JUMPDEST DUP1 DUP1 PUSH1 0x1 ADD SWAP2 POP POP PUSH2 0x7C1 JUMP JUMPDEST POP PUSH1 0x3 DUP4 PUSH1 0x40 MLOAD PUSH2 0xA23 SWAP2 SWAP1 PUSH2 0x54E2 JUMP JUMPDEST SWAP1 DUP2 MSTORE PUSH1 0x20 ADD PUSH1 0x40 MLOAD DUP1 SWAP2 SUB SWAP1 KECCAK256 PUSH1 0xC ADD DUP1 SLOAD DUP1 PUSH1 0x20 MUL PUSH1 0x20 ADD PUSH1 0x40 MLOAD SWAP1 DUP2 ADD PUSH1 0x40 MSTORE DUP1 SWAP3 SWAP2 SWAP1 DUP2 DUP2 MSTORE PUSH1 0x20 ADD DUP3 DUP1 SLOAD DUP1 ISZERO PUSH2 0xA7E JUMPI PUSH1 0x20 MUL DUP3 ADD SWAP2 SWAP1 PUSH1 0x0 MSTORE PUSH1 0x20 PUSH1 0x0 KECCAK256 SWAP1 JUMPDEST DUP2 SLOAD DUP2 MSTORE PUSH1 0x20 ADD SWAP1 PUSH1 0x1 ADD SWAP1 DUP1 DUP4 GT PUSH2 0xA6A JUMPI JUMPDEST POP POP POP POP POP SWAP1 POP JUMPDEST SWAP3 SWAP2 POP POP JUMP JUMPDEST PUSH1 0x60 DUP2 PUSH20 0xFFFFFFFFFFFFFFFFFFFFFFFFFFFFFFFFFFFFFFFF AND CALLER PUSH20 0xFFFFFFFFFFFFFFFFFFFFFFFFFFFFFFFFFFFFFFFF AND EQ PUSH2 0xAFC JUMPI PUSH1 0x40 MLOAD PUSH32 0x8C379A000000000000000000000000000000000000000000000000000000000 DUP2 MSTORE PUSH1 0x4 ADD PUSH2 0xAF3 SWAP1 PUSH2 0x57D0 JUMP JUMPDEST PUSH1 0x40 MLOAD DUP1 SWAP2 SUB SWAP1 REVERT JUMPDEST PUSH1 0x0 DUP1 SWAP1 POP JUMPDEST PUSH1 0x3 DUP5 PUSH1 0x40 MLOAD PUSH2 0xB12 SWAP2 SWAP1 PUSH2 0x54E2 JUMP JUMPDEST SWAP1 DUP2 MSTORE PUSH1 0x20 ADD PUSH1 0x40 MLOAD DUP1 SWAP2 SUB SWAP1 KECCAK256 PUSH1 0xB ADD DUP1 SLOAD SWAP1 POP DUP2 LT ISZERO PUSH2 0xC45 JUMPI PUSH1 0x3 DUP5 PUSH1 0x40 MLOAD PUSH2 0xB3E SWAP2 SWAP1 PUSH2 0x54E2 JUMP JUMPDEST SWAP1 DUP2 MSTORE PUSH1 0x20 ADD PUSH1 0x40 MLOAD DUP1 SWAP2 SUB SWAP1 KECCAK256 PUSH1 0xB ADD DUP2 DUP2 SLOAD DUP2 LT PUSH2 0xB5A JUMPI INVALID JUMPDEST SWAP1 PUSH1 0x0 MSTORE PUSH1 0x20 PUSH1 0x0 KECCAK256 ADD PUSH1 0x0 SWAP1 SLOAD SWAP1 PUSH2 0x100 EXP SWAP1 DIV PUSH20 0xFFFFFFFFFFFFFFFFFFFFFFFFFFFFFFFFFFFFFFFF AND PUSH20 0xFFFFFFFFFFFFFFFFFFFFFFFFFFFFFFFFFFFFFFFF AND DUP4 PUSH20 0xFFFFFFFFFFFFFFFFFFFFFFFFFFFFFFFFFFFFFFFF AND EQ DUP1 ISZERO PUSH2 0xBF6 JUMPI POP PUSH1 0x1 PUSH1 0x3 DUP6 PUSH1 0x40 MLOAD PUSH2 0xBCC SWAP2 SWAP1 PUSH2 0x54E2 JUMP JUMPDEST SWAP1 DUP2 MSTORE PUSH1 0x20 ADD PUSH1 0x40 MLOAD DUP1 SWAP2 SUB SWAP1 KECCAK256 PUSH1 0xD ADD DUP3 DUP2 SLOAD DUP2 LT PUSH2 0xBE8 JUMPI INVALID JUMPDEST SWAP1 PUSH1 0x0 MSTORE PUSH1 0x20 PUSH1 0x0 KECCAK256 ADD SLOAD EQ ISZERO JUMPDEST ISZERO PUSH2 0xC38 JUMPI PUSH1 0x1 PUSH1 0x3 DUP6 PUSH1 0x40 MLOAD PUSH2 0xC0D SWAP2 SWAP1 PUSH2 0x54E2 JUMP JUMPDEST SWAP1 DUP2 MSTORE PUSH1 0x20 ADD PUSH1 0x40 MLOAD DUP1 SWAP2 SUB SWAP1 KECCAK256 PUSH1 0xD ADD DUP3 DUP2 SLOAD DUP2 LT PUSH2 0xC29 JUMPI INVALID JUMPDEST SWAP1 PUSH1 0x0 MSTORE PUSH1 0x20 PUSH1 0x0 KECCAK256 ADD DUP2 SWAP1 SSTORE POP JUMPDEST DUP1 DUP1 PUSH1 0x1 ADD SWAP2 POP POP PUSH2 0xB02 JUMP JUMPDEST POP PUSH1 0x3 DUP4 PUSH1 0x40 MLOAD PUSH2 0xC56 SWAP2 SWAP1 PUSH2 0x54E2 JUMP JUMPDEST SWAP1 DUP2 MSTORE PUSH1 0x20 ADD PUSH1 0x40 MLOAD DUP1 SWAP2 SUB SWAP1 KECCAK256 PUSH1 0x2 ADD DUP1 SLOAD PUSH1 0x1 DUP2 PUSH1 0x1 AND ISZERO PUSH2 0x100 MUL SUB AND PUSH1 0x2 SWAP1 DIV DUP1 PUSH1 0x1F ADD PUSH1 0x20 DUP1 SWAP2 DIV MUL PUSH1 0x20 ADD PUSH1 0x40 MLOAD SWAP1 DUP2 ADD PUSH1 0x40 MSTORE DUP1 SWAP3 SWAP2 SWAP1 DUP2 DUP2 MSTORE PUSH1 0x20 ADD DUP3 DUP1 SLOAD PUSH1 0x1 DUP2 PUSH1 0x1 AND ISZERO PUSH2 0x100 MUL SUB AND PUSH1 0x2 SWAP1 DIV DUP1 ISZERO PUSH2 0xCFB JUMPI DUP1 PUSH1 0x1F LT PUSH2 0xCD0 JUMPI PUSH2 0x100 DUP1 DUP4 SLOAD DIV MUL DUP4 MSTORE SWAP2 PUSH1 0x20 ADD SWAP2 PUSH2 0xCFB JUMP JUMPDEST DUP3 ADD SWAP2 SWAP1 PUSH1 0x0 MSTORE PUSH1 0x20 PUSH1 0x0 KECCAK256 SWAP1 JUMPDEST DUP2 SLOAD DUP2 MSTORE SWAP1 PUSH1 0x1 ADD SWAP1 PUSH1 0x20 ADD DUP1 DUP4 GT PUSH2 0xCDE JUMPI DUP3 SWAP1 SUB PUSH1 0x1F AND DUP3 ADD SWAP2 JUMPDEST POP POP POP POP POP SWAP1 POP SWAP3 SWAP2 POP POP JUMP JUMPDEST PUSH1 0x0 PUSH1 0x3 DUP3 PUSH1 0x40 MLOAD PUSH2 0xD1A SWAP2 SWAP1 PUSH2 0x54E2 JUMP JUMPDEST SWAP1 DUP2 MSTORE PUSH1 0x20 ADD PUSH1 0x40 MLOAD DUP1 SWAP2 SUB SWAP1 KECCAK256 PUSH1 0xE ADD PUSH1 0x0 ADD PUSH1 0x0 SWAP1 SLOAD SWAP1 PUSH2 0x100 EXP SWAP1 DIV PUSH4 0xFFFFFFFF AND SWAP1 POP SWAP2 SWAP1 POP JUMP JUMPDEST PUSH1 0x0 PUSH1 0x3 DUP5 PUSH1 0x40 MLOAD PUSH2 0xD58 SWAP2 SWAP1 PUSH2 0x54E2 JUMP JUMPDEST SWAP1 DUP2 MSTORE PUSH1 0x20 ADD PUSH1 0x40 MLOAD DUP1 SWAP2 SUB SWAP1 KECCAK256 PUSH1 0x6 ADD DUP4 DUP2 SLOAD DUP2 LT PUSH2 0xD74 JUMPI INVALID JUMPDEST SWAP1 PUSH1 0x0 MSTORE PUSH1 0x20 PUSH1 0x0 KECCAK256 ADD PUSH1 0x0 SWAP1 SLOAD SWAP1 PUSH2 0x100 EXP SWAP1 DIV PUSH20 0xFFFFFFFFFFFFFFFFFFFFFFFFFFFFFFFFFFFFFFFF AND PUSH20 0xFFFFFFFFFFFFFFFFFFFFFFFFFFFFFFFFFFFFFFFF AND DUP3 PUSH20 0xFFFFFFFFFFFFFFFFFFFFFFFFFFFFFFFFFFFFFFFF AND EQ PUSH2 0xE1E JUMPI PUSH1 0x4 PUSH1 0x3 DUP6 PUSH1 0x40 MLOAD PUSH2 0xDE3 SWAP2 SWAP1 PUSH2 0x54E2 JUMP JUMPDEST SWAP1 DUP2 MSTORE PUSH1 0x20 ADD PUSH1 0x40 MLOAD DUP1 SWAP2 SUB SWAP1 KECCAK256 PUSH1 0xE ADD PUSH1 0x0 ADD PUSH1 0x0 PUSH2 0x100 EXP DUP2 SLOAD DUP2 PUSH4 0xFFFFFFFF MUL NOT AND SWAP1 DUP4 PUSH4 0xFFFFFFFF AND MUL OR SWAP1 SSTORE POP PUSH1 0x0 SWAP1 POP PUSH2 0x12C7 JUMP JUMPDEST PUSH1 0x0 PUSH1 0x3 DUP6 PUSH1 0x40 MLOAD PUSH2 0xE30 SWAP2 SWAP1 PUSH2 0x54E2 JUMP JUMPDEST SWAP1 DUP2 MSTORE PUSH1 0x20 ADD PUSH1 0x40 MLOAD DUP1 SWAP2 SUB SWAP1 KECCAK256 PUSH1 0x3 ADD PUSH1 0x0 ADD DUP5 DUP2 SLOAD DUP2 LT PUSH2 0xE4F JUMPI INVALID JUMPDEST SWAP1 PUSH1 0x0 MSTORE PUSH1 0x20 PUSH1 0x0 KECCAK256 ADD SLOAD EQ ISZERO PUSH2 0xEAD JUMPI PUSH1 0x1 PUSH1 0x3 DUP6 PUSH1 0x40 MLOAD PUSH2 0xE72 SWAP2 SWAP1 PUSH2 0x54E2 JUMP JUMPDEST SWAP1 DUP2 MSTORE PUSH1 0x20 ADD PUSH1 0x40 MLOAD DUP1 SWAP2 SUB SWAP1 KECCAK256 PUSH1 0xE ADD PUSH1 0x0 ADD PUSH1 0x0 PUSH2 0x100 EXP DUP2 SLOAD DUP2 PUSH4 0xFFFFFFFF MUL NOT AND SWAP1 DUP4 PUSH4 0xFFFFFFFF AND MUL OR SWAP1 SSTORE POP PUSH1 0x0 SWAP1 POP PUSH2 0x12C7 JUMP JUMPDEST PUSH1 0x0 DUP1 SWAP1 POP JUMPDEST PUSH1 0x3 DUP6 PUSH1 0x40 MLOAD PUSH2 0xEC3 SWAP2 SWAP1 PUSH2 0x54E2 JUMP JUMPDEST SWAP1 DUP2 MSTORE PUSH1 0x20 ADD PUSH1 0x40 MLOAD DUP1 SWAP2 SUB SWAP1 KECCAK256 PUSH1 0xA ADD PUSH1 0x3 DUP2 SLOAD DUP2 LT PUSH2 0xEE0 JUMPI INVALID JUMPDEST SWAP1 PUSH1 0x0 MSTORE PUSH1 0x20 PUSH1 0x0 KECCAK256 ADD DUP1 SLOAD SWAP1 POP DUP2 LT ISZERO PUSH2 0x1095 JUMPI PUSH1 0x60 PUSH1 0x3 DUP7 PUSH1 0x40 MLOAD PUSH2 0xF07 SWAP2 SWAP1 PUSH2 0x54E2 JUMP JUMPDEST SWAP1 DUP2 MSTORE PUSH1 0x20 ADD PUSH1 0x40 MLOAD DUP1 SWAP2 SUB SWAP1 KECCAK256 PUSH1 0xA ADD PUSH1 0x3 DUP2 SLOAD DUP2 LT PUSH2 0xF24 JUMPI INVALID JUMPDEST SWAP1 PUSH1 0x0 MSTORE PUSH1 0x20 PUSH1 0x0 KECCAK256 ADD DUP3 DUP2 SLOAD DUP2 LT PUSH2 0xF39 JUMPI INVALID JUMPDEST SWAP1 PUSH1 0x0 MSTORE PUSH1 0x20 PUSH1 0x0 KECCAK256 ADD DUP1 SLOAD DUP1 PUSH1 0x20 MUL PUSH1 0x20 ADD PUSH1 0x40 MLOAD SWAP1 DUP2 ADD PUSH1 0x40 MSTORE DUP1 SWAP3 SWAP2 SWAP1 DUP2 DUP2 MSTORE PUSH1 0x20 ADD DUP3 DUP1 SLOAD DUP1 ISZERO PUSH2 0xF8D JUMPI PUSH1 0x20 MUL DUP3 ADD SWAP2 SWAP1 PUSH1 0x0 MSTORE PUSH1 0x20 PUSH1 0x0 KECCAK256 SWAP1 JUMPDEST DUP2 SLOAD DUP2 MSTORE PUSH1 0x20 ADD SWAP1 PUSH1 0x1 ADD SWAP1 DUP1 DUP4 GT PUSH2 0xF79 JUMPI JUMPDEST POP POP POP POP POP SWAP1 POP PUSH1 0x1 DUP2 DUP7 DUP2 MLOAD DUP2 LT PUSH2 0xFA2 JUMPI INVALID JUMPDEST PUSH1 0x20 MUL PUSH1 0x20 ADD ADD MLOAD EQ ISZERO PUSH2 0x1087 JUMPI PUSH1 0x0 PUSH1 0x3 DUP8 PUSH1 0x40 MLOAD PUSH2 0xFC2 SWAP2 SWAP1 PUSH2 0x54E2 JUMP JUMPDEST SWAP1 DUP2 MSTORE PUSH1 0x20 ADD PUSH1 0x40 MLOAD DUP1 SWAP2 SUB SWAP1 KECCAK256 PUSH1 0x3 ADD PUSH1 0x1 ADD DUP4 DUP2 SLOAD DUP2 LT PUSH2 0xFE1 JUMPI INVALID JUMPDEST SWAP1 PUSH1 0x0 MSTORE PUSH1 0x20 PUSH1 0x0 KECCAK256 ADD SLOAD EQ DUP1 ISZERO PUSH2 0x1032 JUMPI POP PUSH1 0x1 PUSH1 0x3 DUP8 PUSH1 0x40 MLOAD PUSH2 0x1006 SWAP2 SWAP1 PUSH2 0x54E2 JUMP JUMPDEST SWAP1 DUP2 MSTORE PUSH1 0x20 ADD PUSH1 0x40 MLOAD DUP1 SWAP2 SUB SWAP1 KECCAK256 PUSH1 0x3 ADD PUSH1 0x0 ADD DUP4 DUP2 SLOAD DUP2 LT PUSH2 0x1025 JUMPI INVALID JUMPDEST SWAP1 PUSH1 0x0 MSTORE PUSH1 0x20 PUSH1 0x0 KECCAK256 ADD SLOAD EQ JUMPDEST ISZERO PUSH2 0x1086 JUMPI PUSH1 0x2 PUSH1 0x3 DUP8 PUSH1 0x40 MLOAD PUSH2 0x1049 SWAP2 SWAP1 PUSH2 0x54E2 JUMP JUMPDEST SWAP1 DUP2 MSTORE PUSH1 0x20 ADD PUSH1 0x40 MLOAD DUP1 SWAP2 SUB SWAP1 KECCAK256 PUSH1 0xE ADD PUSH1 0x0 ADD PUSH1 0x0 PUSH2 0x100 EXP DUP2 SLOAD DUP2 PUSH4 0xFFFFFFFF MUL NOT AND SWAP1 DUP4 PUSH4 0xFFFFFFFF AND MUL OR SWAP1 SSTORE POP PUSH1 0x0 SWAP3 POP POP POP PUSH2 0x12C7 JUMP JUMPDEST JUMPDEST POP DUP1 DUP1 PUSH1 0x1 ADD SWAP2 POP POP PUSH2 0xEB3 JUMP JUMPDEST POP PUSH1 0x0 DUP1 SWAP1 POP JUMPDEST PUSH1 0x3 DUP6 PUSH1 0x40 MLOAD PUSH2 0x10AC SWAP2 SWAP1 PUSH2 0x54E2 JUMP JUMPDEST SWAP1 DUP2 MSTORE PUSH1 0x20 ADD PUSH1 0x40 MLOAD DUP1 SWAP2 SUB SWAP1 KECCAK256 PUSH1 0xA ADD PUSH1 0x4 DUP2 SLOAD DUP2 LT PUSH2 0x10C9 JUMPI INVALID JUMPDEST SWAP1 PUSH1 0x0 MSTORE PUSH1 0x20 PUSH1 0x0 KECCAK256 ADD DUP1 SLOAD SWAP1 POP DUP2 LT ISZERO PUSH2 0x127D JUMPI PUSH1 0x60 PUSH1 0x3 DUP7 PUSH1 0x40 MLOAD PUSH2 0x10F0 SWAP2 SWAP1 PUSH2 0x54E2 JUMP JUMPDEST SWAP1 DUP2 MSTORE PUSH1 0x20 ADD PUSH1 0x40 MLOAD DUP1 SWAP2 SUB SWAP1 KECCAK256 PUSH1 0xA ADD PUSH1 0x4 DUP2 SLOAD DUP2 LT PUSH2 0x110D JUMPI INVALID JUMPDEST SWAP1 PUSH1 0x0 MSTORE PUSH1 0x20 PUSH1 0x0 KECCAK256 ADD DUP3 DUP2 SLOAD DUP2 LT PUSH2 0x1122 JUMPI INVALID JUMPDEST SWAP1 PUSH1 0x0 MSTORE PUSH1 0x20 PUSH1 0x0 KECCAK256 ADD DUP1 SLOAD DUP1 PUSH1 0x20 MUL PUSH1 0x20 ADD PUSH1 0x40 MLOAD SWAP1 DUP2 ADD PUSH1 0x40 MSTORE DUP1 SWAP3 SWAP2 SWAP1 DUP2 DUP2 MSTORE PUSH1 0x20 ADD DUP3 DUP1 SLOAD DUP1 ISZERO PUSH2 0x1176 JUMPI PUSH1 0x20 MUL DUP3 ADD SWAP2 SWAP1 PUSH1 0x0 MSTORE PUSH1 0x20 PUSH1 0x0 KECCAK256 SWAP1 JUMPDEST DUP2 SLOAD DUP2 MSTORE PUSH1 0x20 ADD SWAP1 PUSH1 0x1 ADD SWAP1 DUP1 DUP4 GT PUSH2 0x1162 JUMPI JUMPDEST POP POP POP POP POP SWAP1 POP PUSH1 0x1 DUP2 DUP7 DUP2 MLOAD DUP2 LT PUSH2 0x118B JUMPI INVALID JUMPDEST PUSH1 0x20 MUL PUSH1 0x20 ADD ADD MLOAD EQ ISZERO PUSH2 0x126F JUMPI PUSH1 0x1 PUSH1 0x3 DUP8 PUSH1 0x40 MLOAD PUSH2 0x11AB SWAP2 SWAP1 PUSH2 0x54E2 JUMP JUMPDEST SWAP1 DUP2 MSTORE PUSH1 0x20 ADD PUSH1 0x40 MLOAD DUP1 SWAP2 SUB SWAP1 KECCAK256 PUSH1 0x3 ADD PUSH1 0x2 ADD DUP4 DUP2 SLOAD DUP2 LT PUSH2 0x11CA JUMPI INVALID JUMPDEST SWAP1 PUSH1 0x0 MSTORE PUSH1 0x20 PUSH1 0x0 KECCAK256 ADD SLOAD EQ DUP1 ISZERO PUSH2 0x121B JUMPI POP PUSH1 0x1 PUSH1 0x3 DUP8 PUSH1 0x40 MLOAD PUSH2 0x11EF SWAP2 SWAP1 PUSH2 0x54E2 JUMP JUMPDEST SWAP1 DUP2 MSTORE PUSH1 0x20 ADD PUSH1 0x40 MLOAD DUP1 SWAP2 SUB SWAP1 KECCAK256 PUSH1 0x3 ADD PUSH1 0x0 ADD DUP4 DUP2 SLOAD DUP2 LT PUSH2 0x120E JUMPI INVALID JUMPDEST SWAP1 PUSH1 0x0 MSTORE PUSH1 0x20 PUSH1 0x0 KECCAK256 ADD SLOAD EQ JUMPDEST ISZERO PUSH2 0x126E JUMPI PUSH1 0x3 DUP1 DUP8 PUSH1 0x40 MLOAD PUSH2 0x1231 SWAP2 SWAP1 PUSH2 0x54E2 JUMP JUMPDEST SWAP1 DUP2 MSTORE PUSH1 0x20 ADD PUSH1 0x40 MLOAD DUP1 SWAP2 SUB SWAP1 KECCAK256 PUSH1 0xE ADD PUSH1 0x0 ADD PUSH1 0x0 PUSH2 0x100 EXP DUP2 SLOAD DUP2 PUSH4 0xFFFFFFFF MUL NOT AND SWAP1 DUP4 PUSH4 0xFFFFFFFF AND MUL OR SWAP1 SSTORE POP PUSH1 0x0 SWAP3 POP POP POP PUSH2 0x12C7 JUMP JUMPDEST JUMPDEST POP DUP1 DUP1 PUSH1 0x1 ADD SWAP2 POP POP PUSH2 0x109C JUMP JUMPDEST POP PUSH1 0x0 PUSH1 0x3 DUP6 PUSH1 0x40 MLOAD PUSH2 0x1290 SWAP2 SWAP1 PUSH2 0x54E2 JUMP JUMPDEST SWAP1 DUP2 MSTORE PUSH1 0x20 ADD PUSH1 0x40 MLOAD DUP1 SWAP2 SUB SWAP1 KECCAK256 PUSH1 0xE ADD PUSH1 0x0 ADD PUSH1 0x0 PUSH2 0x100 EXP DUP2 SLOAD DUP2 PUSH4 0xFFFFFFFF MUL NOT AND SWAP1 DUP4 PUSH4 0xFFFFFFFF AND MUL OR SWAP1 SSTORE POP PUSH1 0x1 SWAP1 POP JUMPDEST SWAP4 SWAP3 POP POP POP JUMP JUMPDEST PUSH1 0x60 PUSH1 0x3 DUP3 PUSH1 0x40 MLOAD PUSH2 0x12E0 SWAP2 SWAP1 PUSH2 0x54E2 JUMP JUMPDEST SWAP1 DUP2 MSTORE PUSH1 0x20 ADD PUSH1 0x40 MLOAD DUP1 SWAP2 SUB SWAP1 KECCAK256 PUSH1 0xB ADD DUP1 SLOAD DUP1 PUSH1 0x20 MUL PUSH1 0x20 ADD PUSH1 0x40 MLOAD SWAP1 DUP2 ADD PUSH1 0x40 MSTORE DUP1 SWAP3 SWAP2 SWAP1 DUP2 DUP2 MSTORE PUSH1 0x20 ADD DUP3 DUP1 SLOAD DUP1 ISZERO PUSH2 0x1371 JUMPI PUSH1 0x20 MUL DUP3 ADD SWAP2 SWAP1 PUSH1 0x0 MSTORE PUSH1 0x20 PUSH1 0x0 KECCAK256 SWAP1 JUMPDEST DUP2 PUSH1 0x0 SWAP1 SLOAD SWAP1 PUSH2 0x100 EXP SWAP1 DIV PUSH20 0xFFFFFFFFFFFFFFFFFFFFFFFFFFFFFFFFFFFFFFFF AND PUSH20 0xFFFFFFFFFFFFFFFFFFFFFFFFFFFFFFFFFFFFFFFF AND DUP2 MSTORE PUSH1 0x20 ADD SWAP1 PUSH1 0x1 ADD SWAP1 DUP1 DUP4 GT PUSH2 0x1327 JUMPI JUMPDEST POP POP POP POP POP SWAP1 POP SWAP2 SWAP1 POP JUMP JUMPDEST PUSH1 0x60 PUSH1 0x4 DUP3 PUSH1 0x40 MLOAD PUSH2 0x138F SWAP2 SWAP1 PUSH2 0x54E2 JUMP JUMPDEST SWAP1 DUP2 MSTORE PUSH1 0x20 ADD PUSH1 0x40 MLOAD DUP1 SWAP2 SUB SWAP1 KECCAK256 PUSH1 0x4 ADD DUP1 SLOAD DUP1 PUSH1 0x20 MUL PUSH1 0x20 ADD PUSH1 0x40 MLOAD SWAP1 DUP2 ADD PUSH1 0x40 MSTORE DUP1 SWAP3 SWAP2 SWAP1 DUP2 DUP2 MSTORE PUSH1 0x20 ADD DUP3 DUP1 SLOAD DUP1 ISZERO PUSH2 0x1420 JUMPI PUSH1 0x20 MUL DUP3 ADD SWAP2 SWAP1 PUSH1 0x0 MSTORE PUSH1 0x20 PUSH1 0x0 KECCAK256 SWAP1 JUMPDEST DUP2 PUSH1 0x0 SWAP1 SLOAD SWAP1 PUSH2 0x100 EXP SWAP1 DIV PUSH20 0xFFFFFFFFFFFFFFFFFFFFFFFFFFFFFFFFFFFFFFFF AND PUSH20 0xFFFFFFFFFFFFFFFFFFFFFFFFFFFFFFFFFFFFFFFF AND DUP2 MSTORE PUSH1 0x20 ADD SWAP1 PUSH1 0x1 ADD SWAP1 DUP1 DUP4 GT PUSH2 0x13D6 JUMPI JUMPDEST POP POP POP POP POP SWAP1 POP SWAP2 SWAP1 POP JUMP JUMPDEST PUSH1 0x60 PUSH1 0x3 DUP3 PUSH1 0x40 MLOAD PUSH2 0x143E SWAP2 SWAP1 PUSH2 0x54E2 JUMP JUMPDEST SWAP1 DUP2 MSTORE PUSH1 0x20 ADD PUSH1 0x40 MLOAD DUP1 SWAP2 SUB SWAP1 KECCAK256 PUSH1 0xA ADD PUSH1 0x3 DUP2 SLOAD DUP2 LT PUSH2 0x145B JUMPI INVALID JUMPDEST SWAP1 PUSH1 0x0 MSTORE PUSH1 0x20 PUSH1 0x0 KECCAK256 ADD DUP1 SLOAD DUP1 PUSH1 0x20 MUL PUSH1 0x20 ADD PUSH1 0x40 MLOAD SWAP1 DUP2 ADD PUSH1 0x40 MSTORE DUP1 SWAP3 SWAP2 SWAP1 DUP2 DUP2 MSTORE PUSH1 0x20 ADD PUSH1 0x0 SWAP1 JUMPDEST DUP3 DUP3 LT ISZERO PUSH2 0x14F7 JUMPI DUP4 DUP3 SWAP1 PUSH1 0x0 MSTORE PUSH1 0x20 PUSH1 0x0 KECCAK256 ADD DUP1 SLOAD DUP1 PUSH1 0x20 MUL PUSH1 0x20 ADD PUSH1 0x40 MLOAD SWAP1 DUP2 ADD PUSH1 0x40 MSTORE DUP1 SWAP3 SWAP2 SWAP1 DUP2 DUP2 MSTORE PUSH1 0x20 ADD DUP3 DUP1 SLOAD DUP1 ISZERO PUSH2 0x14E3 JUMPI PUSH1 0x20 MUL DUP3 ADD SWAP2 SWAP1 PUSH1 0x0 MSTORE PUSH1 0x20 PUSH1 0x0 KECCAK256 SWAP1 JUMPDEST DUP2 SLOAD DUP2 MSTORE PUSH1 0x20 ADD SWAP1 PUSH1 0x1 ADD SWAP1 DUP1 DUP4 GT PUSH2 0x14CF JUMPI JUMPDEST POP POP POP POP POP DUP2 MSTORE PUSH1 0x20 ADD SWAP1 PUSH1 0x1 ADD SWAP1 PUSH2 0x1485 JUMP JUMPDEST POP POP POP POP SWAP1 POP SWAP2 SWAP1 POP JUMP JUMPDEST PUSH1 0x60 PUSH1 0x3 DUP3 PUSH1 0x40 MLOAD PUSH2 0x1514 SWAP2 SWAP1 PUSH2 0x54E2 JUMP JUMPDEST SWAP1 DUP2 MSTORE PUSH1 0x20 ADD PUSH1 0x40 MLOAD DUP1 SWAP2 SUB SWAP1 KECCAK256 PUSH1 0x3 ADD PUSH1 0x1 ADD DUP1 SLOAD DUP1 PUSH1 0x20 MUL PUSH1 0x20 ADD PUSH1 0x40 MLOAD SWAP1 DUP2 ADD PUSH1 0x40 MSTORE DUP1 SWAP3 SWAP2 SWAP1 DUP2 DUP2 MSTORE PUSH1 0x20 ADD DUP3 DUP1 SLOAD DUP1 ISZERO PUSH2 0x1572 JUMPI PUSH1 0x20 MUL DUP3 ADD SWAP2 SWAP1 PUSH1 0x0 MSTORE PUSH1 0x20 PUSH1 0x0 KECCAK256 SWAP1 JUMPDEST DUP2 SLOAD DUP2 MSTORE PUSH1 0x20 ADD SWAP1 PUSH1 0x1 ADD SWAP1 DUP1 DUP4 GT PUSH2 0x155E JUMPI JUMPDEST POP POP POP POP POP SWAP1 POP SWAP2 SWAP1 POP JUMP JUMPDEST PUSH1 0x60 PUSH1 0x2 PUSH1 0x4 DUP2 GT ISZERO PUSH2 0x158D JUMPI INVALID JUMPDEST PUSH1 0x4 DUP6 PUSH1 0x40 MLOAD PUSH2 0x159D SWAP2 SWAP1 PUSH2 0x54E2 JUMP JUMPDEST SWAP1 DUP2 MSTORE PUSH1 0x20 ADD PUSH1 0x40 MLOAD DUP1 SWAP2 SUB SWAP1 KECCAK256 PUSH1 0x2 ADD PUSH1 0x0 SWAP1 SLOAD SWAP1 PUSH2 0x100 EXP SWAP1 DIV PUSH1 0xFF AND PUSH1 0x4 DUP2 GT ISZERO PUSH2 0x15C7 JUMPI INVALID JUMPDEST EQ ISZERO PUSH2 0x18FA JUMPI PUSH1 0x40 MLOAD DUP1 PUSH1 0x40 ADD PUSH1 0x40 MSTORE DUP1 PUSH1 0xC DUP2 MSTORE PUSH1 0x20 ADD PUSH32 0x656E746572696E674E6F64650000000000000000000000000000000000000000 DUP2 MSTORE POP PUSH1 0x0 DUP1 ADD SWAP1 DUP1 MLOAD SWAP1 PUSH1 0x20 ADD SWAP1 PUSH2 0x161A SWAP3 SWAP2 SWAP1 PUSH2 0x3CC7 JUMP JUMPDEST POP PUSH1 0x1 DUP3 EQ ISZERO PUSH2 0x1780 JUMPI PUSH2 0x16D6 DUP6 PUSH1 0x4 DUP7 PUSH1 0x40 MLOAD PUSH2 0x1638 SWAP2 SWAP1 PUSH2 0x54E2 JUMP JUMPDEST SWAP1 DUP2 MSTORE PUSH1 0x20 ADD PUSH1 0x40 MLOAD DUP1 SWAP2 SUB SWAP1 KECCAK256 PUSH1 0x4 ADD DUP1 SLOAD DUP1 PUSH1 0x20 MUL PUSH1 0x20 ADD PUSH1 0x40 MLOAD SWAP1 DUP2 ADD PUSH1 0x40 MSTORE DUP1 SWAP3 SWAP2 SWAP1 DUP2 DUP2 MSTORE PUSH1 0x20 ADD DUP3 DUP1 SLOAD DUP1 ISZERO PUSH2 0x16C9 JUMPI PUSH1 0x20 MUL DUP3 ADD SWAP2 SWAP1 PUSH1 0x0 MSTORE PUSH1 0x20 PUSH1 0x0 KECCAK256 SWAP1 JUMPDEST DUP2 PUSH1 0x0 SWAP1 SLOAD SWAP1 PUSH2 0x100 EXP SWAP1 DIV PUSH20 0xFFFFFFFFFFFFFFFFFFFFFFFFFFFFFFFFFFFFFFFF AND PUSH20 0xFFFFFFFFFFFFFFFFFFFFFFFFFFFFFFFFFFFFFFFF AND DUP2 MSTORE PUSH1 0x20 ADD SWAP1 PUSH1 0x1 ADD SWAP1 DUP1 DUP4 GT PUSH2 0x167F JUMPI JUMPDEST POP POP POP POP POP DUP7 PUSH1 0x1 PUSH2 0x1AA2 JUMP JUMPDEST PUSH1 0x40 MLOAD DUP1 PUSH1 0x40 ADD PUSH1 0x40 MSTORE DUP1 PUSH1 0x16 DUP2 MSTORE PUSH1 0x20 ADD PUSH32 0x617070726F766564206279206F6E6520706572736F6E00000000000000000000 DUP2 MSTORE POP PUSH1 0x0 DUP1 ADD SWAP1 DUP1 MLOAD SWAP1 PUSH1 0x20 ADD SWAP1 PUSH2 0x1723 SWAP3 SWAP2 SWAP1 PUSH2 0x3CC7 JUMP JUMPDEST POP DUP5 PUSH20 0xFFFFFFFFFFFFFFFFFFFFFFFFFFFFFFFFFFFFFFFF AND PUSH32 0xE9C7CBF4A3FEB2B50DB16225158A7170E01AF4E7A4B2D243EEEC352242DFFDFD DUP5 PUSH1 0x40 MLOAD PUSH2 0x176A SWAP2 SWAP1 PUSH2 0x5609 JUMP JUMPDEST PUSH1 0x40 MLOAD DUP1 SWAP2 SUB SWAP1 LOG2 PUSH2 0x177B DUP5 PUSH2 0x1CCB JUMP JUMPDEST PUSH2 0x18BD JUMP JUMPDEST PUSH1 0x2 DUP3 EQ ISZERO PUSH2 0x186D JUMPI PUSH1 0x40 MLOAD DUP1 PUSH1 0x40 ADD PUSH1 0x40 MSTORE DUP1 PUSH1 0x8 DUP2 MSTORE PUSH1 0x20 ADD PUSH32 0x6465636C696E6564000000000000000000000000000000000000000000000000 DUP2 MSTORE POP PUSH1 0x0 DUP1 ADD SWAP1 DUP1 MLOAD SWAP1 PUSH1 0x20 ADD SWAP1 PUSH2 0x17D6 SWAP3 SWAP2 SWAP1 PUSH2 0x3CC7 JUMP JUMPDEST POP PUSH1 0x3 PUSH1 0x4 DUP6 PUSH1 0x40 MLOAD PUSH2 0x17E9 SWAP2 SWAP1 PUSH2 0x54E2 JUMP JUMPDEST SWAP1 DUP2 MSTORE PUSH1 0x20 ADD PUSH1 0x40 MLOAD DUP1 SWAP2 SUB SWAP1 KECCAK256 PUSH1 0x2 ADD PUSH1 0x0 PUSH2 0x100 EXP DUP2 SLOAD DUP2 PUSH1 0xFF MUL NOT AND SWAP1 DUP4 PUSH1 0x4 DUP2 GT ISZERO PUSH2 0x1815 JUMPI INVALID JUMPDEST MUL OR SWAP1 SSTORE POP DUP5 PUSH20 0xFFFFFFFFFFFFFFFFFFFFFFFFFFFFFFFFFFFFFFFF AND PUSH32 0x1592B7870C0C0627D9DE8A8794012705B34A6640C1456B714A685EB5CC987C33 DUP5 PUSH1 0x40 MLOAD PUSH2 0x1860 SWAP2 SWAP1 PUSH2 0x5609 JUMP JUMPDEST PUSH1 0x40 MLOAD DUP1 SWAP2 SUB SWAP1 LOG2 PUSH2 0x18BC JUMP JUMPDEST DUP5 PUSH20 0xFFFFFFFFFFFFFFFFFFFFFFFFFFFFFFFFFFFFFFFF AND PUSH32 0xC4F2AFAE15F3E7DA4E4F139081D67F69EF9F4C3736A6649EB2FA185377130315 DUP5 PUSH1 0x40 MLOAD PUSH2 0x18B3 SWAP2 SWAP1 PUSH2 0x5697 JUMP JUMPDEST PUSH1 0x40 MLOAD DUP1 SWAP2 SUB SWAP1 LOG2 JUMPDEST JUMPDEST PUSH1 0x40 MLOAD DUP1 PUSH1 0x40 ADD PUSH1 0x40 MSTORE DUP1 PUSH1 0xD DUP2 MSTORE PUSH1 0x20 ADD PUSH32 0x5253502070726F63657373656400000000000000000000000000000000000000 DUP2 MSTORE POP SWAP1 POP PUSH2 0x1916 JUMP JUMPDEST PUSH1 0x40 MLOAD DUP1 PUSH1 0x60 ADD PUSH1 0x40 MSTORE DUP1 PUSH1 0x2C DUP2 MSTORE PUSH1 0x20 ADD PUSH2 0x62FD PUSH1 0x2C SWAP2 CODECOPY SWAP1 POP JUMPDEST SWAP5 SWAP4 POP POP POP POP JUMP JUMPDEST PUSH1 0x0 DUP1 PUSH1 0x0 SWAP1 POP JUMPDEST PUSH1 0x3 DUP5 PUSH1 0x40 MLOAD PUSH2 0x1936 SWAP2 SWAP1 PUSH2 0x54E2 JUMP JUMPDEST SWAP1 DUP2 MSTORE PUSH1 0x20 ADD PUSH1 0x40 MLOAD DUP1 SWAP2 SUB SWAP1 KECCAK256 PUSH1 0xB ADD DUP1 SLOAD SWAP1 POP DUP2 LT ISZERO PUSH2 0x1A35 JUMPI PUSH1 0x3 DUP5 PUSH1 0x40 MLOAD PUSH2 0x1962 SWAP2 SWAP1 PUSH2 0x54E2 JUMP JUMPDEST SWAP1 DUP2 MSTORE PUSH1 0x20 ADD PUSH1 0x40 MLOAD DUP1 SWAP2 SUB SWAP1 KECCAK256 PUSH1 0xB ADD DUP2 DUP2 SLOAD DUP2 LT PUSH2 0x197E JUMPI INVALID JUMPDEST SWAP1 PUSH1 0x0 MSTORE PUSH1 0x20 PUSH1 0x0 KECCAK256 ADD PUSH1 0x0 SWAP1 SLOAD SWAP1 PUSH2 0x100 EXP SWAP1 DIV PUSH20 0xFFFFFFFFFFFFFFFFFFFFFFFFFFFFFFFFFFFFFFFF AND PUSH20 0xFFFFFFFFFFFFFFFFFFFFFFFFFFFFFFFFFFFFFFFF AND DUP4 PUSH20 0xFFFFFFFFFFFFFFFFFFFFFFFFFFFFFFFFFFFFFFFF AND EQ DUP1 ISZERO PUSH2 0x1A19 JUMPI POP PUSH1 0x1 PUSH1 0x3 DUP6 PUSH1 0x40 MLOAD PUSH2 0x19F0 SWAP2 SWAP1 PUSH2 0x54E2 JUMP JUMPDEST SWAP1 DUP2 MSTORE PUSH1 0x20 ADD PUSH1 0x40 MLOAD DUP1 SWAP2 SUB SWAP1 KECCAK256 PUSH1 0xC ADD DUP3 DUP2 SLOAD DUP2 LT PUSH2 0x1A0C JUMPI INVALID JUMPDEST SWAP1 PUSH1 0x0 MSTORE PUSH1 0x20 PUSH1 0x0 KECCAK256 ADD SLOAD EQ JUMPDEST ISZERO PUSH2 0x1A28 JUMPI PUSH1 0x1 SWAP2 POP POP PUSH2 0x1A3B JUMP JUMPDEST DUP1 DUP1 PUSH1 0x1 ADD SWAP2 POP POP PUSH2 0x1926 JUMP JUMPDEST POP PUSH1 0x0 SWAP1 POP JUMPDEST SWAP3 SWAP2 POP POP JUMP JUMPDEST PUSH1 0x0 PUSH1 0x3 DUP4 PUSH1 0x40 MLOAD PUSH2 0x1A53 SWAP2 SWAP1 PUSH2 0x54E2 JUMP JUMPDEST SWAP1 DUP2 MSTORE PUSH1 0x20 ADD PUSH1 0x40 MLOAD DUP1 SWAP2 SUB SWAP1 KECCAK256 PUSH1 0x6 ADD DUP3 DUP2 SLOAD DUP2 LT PUSH2 0x1A6F JUMPI INVALID JUMPDEST SWAP1 PUSH1 0x0 MSTORE PUSH1 0x20 PUSH1 0x0 KECCAK256 ADD PUSH1 0x0 SWAP1 SLOAD SWAP1 PUSH2 0x100 EXP SWAP1 DIV PUSH20 0xFFFFFFFFFFFFFFFFFFFFFFFFFFFFFFFFFFFFFFFF AND SWAP1 POP SWAP3 SWAP2 POP POP JUMP JUMPDEST PUSH1 0x0 DUP1 SWAP1 POP JUMPDEST DUP4 MLOAD DUP2 LT ISZERO PUSH2 0x1B41 JUMPI DUP4 DUP2 DUP2 MLOAD DUP2 LT PUSH2 0x1ABD JUMPI INVALID JUMPDEST PUSH1 0x20 MUL PUSH1 0x20 ADD ADD MLOAD PUSH20 0xFFFFFFFFFFFFFFFFFFFFFFFFFFFFFFFFFFFFFFFF AND DUP6 PUSH20 0xFFFFFFFFFFFFFFFFFFFFFFFFFFFFFFFFFFFFFFFF AND EQ ISZERO PUSH2 0x1B34 JUMPI DUP2 PUSH1 0x4 DUP5 PUSH1 0x40 MLOAD PUSH2 0x1B09 SWAP2 SWAP1 PUSH2 0x54E2 JUMP JUMPDEST SWAP1 DUP2 MSTORE PUSH1 0x20 ADD PUSH1 0x40 MLOAD DUP1 SWAP2 SUB SWAP1 KECCAK256 PUSH1 0x5 ADD DUP3 DUP2 SLOAD DUP2 LT PUSH2 0x1B25 JUMPI INVALID JUMPDEST SWAP1 PUSH1 0x0 MSTORE PUSH1 0x20 PUSH1 0x0 KECCAK256 ADD DUP2 SWAP1 SSTORE POP JUMPDEST DUP1 DUP1 PUSH1 0x1 ADD SWAP2 POP POP PUSH2 0x1AA8 JUMP JUMPDEST POP POP POP POP POP JUMP JUMPDEST PUSH1 0x60 PUSH1 0x3 DUP3 PUSH1 0x40 MLOAD PUSH2 0x1B5A SWAP2 SWAP1 PUSH2 0x54E2 JUMP JUMPDEST SWAP1 DUP2 MSTORE PUSH1 0x20 ADD PUSH1 0x40 MLOAD DUP1 SWAP2 SUB SWAP1 KECCAK256 PUSH1 0x8 ADD DUP1 SLOAD DUP1 PUSH1 0x20 MUL PUSH1 0x20 ADD PUSH1 0x40 MLOAD SWAP1 DUP2 ADD PUSH1 0x40 MSTORE DUP1 SWAP3 SWAP2 SWAP1 DUP2 DUP2 MSTORE PUSH1 0x20 ADD PUSH1 0x0 SWAP1 JUMPDEST DUP3 DUP3 LT ISZERO PUSH2 0x1C47 JUMPI DUP4 DUP3 SWAP1 PUSH1 0x0 MSTORE PUSH1 0x20 PUSH1 0x0 KECCAK256 ADD DUP1 SLOAD PUSH1 0x1 DUP2 PUSH1 0x1 AND ISZERO PUSH2 0x100 MUL SUB AND PUSH1 0x2 SWAP1 DIV DUP1 PUSH1 0x1F ADD PUSH1 0x20 DUP1 SWAP2 DIV MUL PUSH1 0x20 ADD PUSH1 0x40 MLOAD SWAP1 DUP2 ADD PUSH1 0x40 MSTORE DUP1 SWAP3 SWAP2 SWAP1 DUP2 DUP2 MSTORE PUSH1 0x20 ADD DUP3 DUP1 SLOAD PUSH1 0x1 DUP2 PUSH1 0x1 AND ISZERO PUSH2 0x100 MUL SUB AND PUSH1 0x2 SWAP1 DIV DUP1 ISZERO PUSH2 0x1C33 JUMPI DUP1 PUSH1 0x1F LT PUSH2 0x1C08 JUMPI PUSH2 0x100 DUP1 DUP4 SLOAD DIV MUL DUP4 MSTORE SWAP2 PUSH1 0x20 ADD SWAP2 PUSH2 0x1C33 JUMP JUMPDEST DUP3 ADD SWAP2 SWAP1 PUSH1 0x0 MSTORE PUSH1 0x20 PUSH1 0x0 KECCAK256 SWAP1 JUMPDEST DUP2 SLOAD DUP2 MSTORE SWAP1 PUSH1 0x1 ADD SWAP1 PUSH1 0x20 ADD DUP1 DUP4 GT PUSH2 0x1C16 JUMPI DUP3 SWAP1 SUB PUSH1 0x1F AND DUP3 ADD SWAP2 JUMPDEST POP POP POP POP POP DUP2 MSTORE PUSH1 0x20 ADD SWAP1 PUSH1 0x1 ADD SWAP1 PUSH2 0x1B8B JUMP JUMPDEST POP POP POP POP SWAP1 POP SWAP2 SWAP1 POP JUMP JUMPDEST PUSH1 0x60 PUSH1 0x4 DUP3 PUSH1 0x40 MLOAD PUSH2 0x1C64 SWAP2 SWAP1 PUSH2 0x54E2 JUMP JUMPDEST SWAP1 DUP2 MSTORE PUSH1 0x20 ADD PUSH1 0x40 MLOAD DUP1 SWAP2 SUB SWAP1 KECCAK256 PUSH1 0x6 ADD DUP1 SLOAD DUP1 PUSH1 0x20 MUL PUSH1 0x20 ADD PUSH1 0x40 MLOAD SWAP1 DUP2 ADD PUSH1 0x40 MSTORE DUP1 SWAP3 SWAP2 SWAP1 DUP2 DUP2 MSTORE PUSH1 0x20 ADD DUP3 DUP1 SLOAD DUP1 ISZERO PUSH2 0x1CBF JUMPI PUSH1 0x20 MUL DUP3 ADD SWAP2 SWAP1 PUSH1 0x0 MSTORE PUSH1 0x20 PUSH1 0x0 KECCAK256 SWAP1 JUMPDEST DUP2 SLOAD DUP2 MSTORE PUSH1 0x20 ADD SWAP1 PUSH1 0x1 ADD SWAP1 DUP1 DUP4 GT PUSH2 0x1CAB JUMPI JUMPDEST POP POP POP POP POP SWAP1 POP SWAP2 SWAP1 POP JUMP JUMPDEST PUSH1 0x0 PUSH1 0x1 SWAP1 POP PUSH1 0x0 DUP1 SWAP1 POP JUMPDEST PUSH1 0x4 DUP4 PUSH1 0x40 MLOAD PUSH2 0x1CE7 SWAP2 SWAP1 PUSH2 0x54E2 JUMP JUMPDEST SWAP1 DUP2 MSTORE PUSH1 0x20 ADD PUSH1 0x40 MLOAD DUP1 SWAP2 SUB SWAP1 KECCAK256 PUSH1 0x4 ADD DUP1 SLOAD SWAP1 POP DUP2 LT ISZERO PUSH2 0x1D56 JUMPI PUSH1 0x1 PUSH1 0x4 DUP5 PUSH1 0x40 MLOAD PUSH2 0x1D15 SWAP2 SWAP1 PUSH2 0x54E2 JUMP JUMPDEST SWAP1 DUP2 MSTORE PUSH1 0x20 ADD PUSH1 0x40 MLOAD DUP1 SWAP2 SUB SWAP1 KECCAK256 PUSH1 0x5 ADD DUP3 DUP2 SLOAD DUP2 LT PUSH2 0x1D31 JUMPI INVALID JUMPDEST SWAP1 PUSH1 0x0 MSTORE PUSH1 0x20 PUSH1 0x0 KECCAK256 ADD SLOAD EQ ISZERO PUSH2 0x1D49 JUMPI PUSH1 0x1 DUP3 ADD SWAP2 POP JUMPDEST DUP1 DUP1 PUSH1 0x1 ADD SWAP2 POP POP PUSH2 0x1CD7 JUMP JUMPDEST POP PUSH1 0x4 DUP3 PUSH1 0x40 MLOAD PUSH2 0x1D67 SWAP2 SWAP1 PUSH2 0x54E2 JUMP JUMPDEST SWAP1 DUP2 MSTORE PUSH1 0x20 ADD PUSH1 0x40 MLOAD DUP1 SWAP2 SUB SWAP1 KECCAK256 PUSH1 0x3 ADD SLOAD DUP2 EQ ISZERO PUSH2 0x1E6F JUMPI PUSH1 0x40 MLOAD DUP1 PUSH1 0x40 ADD PUSH1 0x40 MSTORE DUP1 PUSH1 0x19 DUP2 MSTORE PUSH1 0x20 ADD PUSH32 0x617070726F76656420627920616C6C20656E646F727365727300000000000000 DUP2 MSTORE POP PUSH1 0x0 DUP1 ADD SWAP1 DUP1 MLOAD SWAP1 PUSH1 0x20 ADD SWAP1 PUSH2 0x1DCD SWAP3 SWAP2 SWAP1 PUSH2 0x3CC7 JUMP JUMPDEST POP PUSH1 0x3 PUSH1 0x4 DUP2 GT ISZERO PUSH2 0x1DDB JUMPI INVALID JUMPDEST PUSH1 0x4 DUP4 PUSH1 0x40 MLOAD PUSH2 0x1DEB SWAP2 SWAP1 PUSH2 0x54E2 JUMP JUMPDEST SWAP1 DUP2 MSTORE PUSH1 0x20 ADD PUSH1 0x40 MLOAD DUP1 SWAP2 SUB SWAP1 KECCAK256 PUSH1 0x2 ADD PUSH1 0x0 SWAP1 SLOAD SWAP1 PUSH2 0x100 EXP SWAP1 DIV PUSH1 0xFF AND PUSH1 0x4 DUP2 GT ISZERO PUSH2 0x1E15 JUMPI INVALID JUMPDEST POP POP PUSH32 0xD2A535AFC7065CA5CA78E1CBE51C4AB92413202D78B070B01DF38363AC20363D PUSH1 0x4 DUP4 PUSH1 0x40 MLOAD PUSH2 0x1E48 SWAP2 SWAP1 PUSH2 0x54E2 JUMP JUMPDEST SWAP1 DUP2 MSTORE PUSH1 0x20 ADD PUSH1 0x40 MLOAD DUP1 SWAP2 SUB SWAP1 KECCAK256 PUSH1 0x1 ADD PUSH1 0x40 MLOAD PUSH2 0x1E66 SWAP2 SWAP1 PUSH2 0x578E JUMP JUMPDEST PUSH1 0x40 MLOAD DUP1 SWAP2 SUB SWAP1 LOG1 JUMPDEST POP POP JUMP JUMPDEST PUSH1 0x60 DUP1 PUSH1 0x0 DUP1 ADD PUSH1 0x0 PUSH1 0x1 ADD DUP2 DUP1 SLOAD PUSH1 0x1 DUP2 PUSH1 0x1 AND ISZERO PUSH2 0x100 MUL SUB AND PUSH1 0x2 SWAP1 DIV DUP1 PUSH1 0x1F ADD PUSH1 0x20 DUP1 SWAP2 DIV MUL PUSH1 0x20 ADD PUSH1 0x40 MLOAD SWAP1 DUP2 ADD PUSH1 0x40 MSTORE DUP1 SWAP3 SWAP2 SWAP1 DUP2 DUP2 MSTORE PUSH1 0x20 ADD DUP3 DUP1 SLOAD PUSH1 0x1 DUP2 PUSH1 0x1 AND ISZERO PUSH2 0x100 MUL SUB AND PUSH1 0x2 SWAP1 DIV DUP1 ISZERO PUSH2 0x1F14 JUMPI DUP1 PUSH1 0x1F LT PUSH2 0x1EE9 JUMPI PUSH2 0x100 DUP1 DUP4 SLOAD DIV MUL DUP4 MSTORE SWAP2 PUSH1 0x20 ADD SWAP2 PUSH2 0x1F14 JUMP JUMPDEST DUP3 ADD SWAP2 SWAP1 PUSH1 0x0 MSTORE PUSH1 0x20 PUSH1 0x0 KECCAK256 SWAP1 JUMPDEST DUP2 SLOAD DUP2 MSTORE SWAP1 PUSH1 0x1 ADD SWAP1 PUSH1 0x20 ADD DUP1 DUP4 GT PUSH2 0x1EF7 JUMPI DUP3 SWAP1 SUB PUSH1 0x1F AND DUP3 ADD SWAP2 JUMPDEST POP POP POP POP POP SWAP2 POP DUP1 DUP1 SLOAD PUSH1 0x1 DUP2 PUSH1 0x1 AND ISZERO PUSH2 0x100 MUL SUB AND PUSH1 0x2 SWAP1 DIV DUP1 PUSH1 0x1F ADD PUSH1 0x20 DUP1 SWAP2 DIV MUL PUSH1 0x20 ADD PUSH1 0x40 MLOAD SWAP1 DUP2 ADD PUSH1 0x40 MSTORE DUP1 SWAP3 SWAP2 SWAP1 DUP2 DUP2 MSTORE PUSH1 0x20 ADD DUP3 DUP1 SLOAD PUSH1 0x1 DUP2 PUSH1 0x1 AND ISZERO PUSH2 0x100 MUL SUB AND PUSH1 0x2 SWAP1 DIV DUP1 ISZERO PUSH2 0x1FB0 JUMPI DUP1 PUSH1 0x1F LT PUSH2 0x1F85 JUMPI PUSH2 0x100 DUP1 DUP4 SLOAD DIV MUL DUP4 MSTORE SWAP2 PUSH1 0x20 ADD SWAP2 PUSH2 0x1FB0 JUMP JUMPDEST DUP3 ADD SWAP2 SWAP1 PUSH1 0x0 MSTORE PUSH1 0x20 PUSH1 0x0 KECCAK256 SWAP1 JUMPDEST DUP2 SLOAD DUP2 MSTORE SWAP1 PUSH1 0x1 ADD SWAP1 PUSH1 0x20 ADD DUP1 DUP4 GT PUSH2 0x1F93 JUMPI DUP3 SWAP1 SUB PUSH1 0x1F AND DUP3 ADD SWAP2 JUMPDEST POP POP POP POP POP SWAP1 POP SWAP2 POP SWAP2 POP SWAP1 SWAP2 JUMP JUMPDEST PUSH1 0x0 PUSH1 0x40 MLOAD PUSH2 0x1FCD SWAP1 PUSH2 0x3D47 JUMP JUMPDEST PUSH1 0x40 MLOAD DUP1 SWAP2 SUB SWAP1 PUSH1 0x0 CREATE DUP1 ISZERO DUP1 ISZERO PUSH2 0x1FE9 JUMPI RETURNDATASIZE PUSH1 0x0 DUP1 RETURNDATACOPY RETURNDATASIZE PUSH1 0x0 REVERT JUMPDEST POP SWAP1 POP PUSH1 0x0 DUP8 MLOAD SWAP1 POP PUSH1 0x0 DUP1 SWAP1 POP JUMPDEST DUP9 MLOAD DUP2 LT ISZERO PUSH2 0x20DD JUMPI PUSH1 0x0 DUP1 SWAP1 POP JUMPDEST DUP7 MLOAD DUP2 LT ISZERO PUSH2 0x20CF JUMPI PUSH1 0x0 DUP2 DUP4 DUP6 MUL ADD SWAP1 POP DUP5 PUSH20 0xFFFFFFFFFFFFFFFFFFFFFFFFFFFFFFFFFFFFFFFF AND PUSH4 0x34B9EB7D DUP10 DUP5 DUP2 MLOAD DUP2 LT PUSH2 0x2041 JUMPI INVALID JUMPDEST PUSH1 0x20 MUL PUSH1 0x20 ADD ADD MLOAD DUP14 DUP7 DUP2 MLOAD DUP2 LT PUSH2 0x2055 JUMPI INVALID JUMPDEST PUSH1 0x20 MUL PUSH1 0x20 ADD ADD MLOAD DUP13 DUP6 DUP2 MLOAD DUP2 LT PUSH2 0x2069 JUMPI INVALID JUMPDEST PUSH1 0x20 MUL PUSH1 0x20 ADD ADD MLOAD PUSH1 0x40 MLOAD DUP5 PUSH4 0xFFFFFFFF AND PUSH1 0xE0 SHL DUP2 MSTORE PUSH1 0x4 ADD PUSH2 0x208F SWAP4 SWAP3 SWAP2 SWAP1 PUSH2 0x5750 JUMP JUMPDEST PUSH1 0x0 PUSH1 0x40 MLOAD DUP1 DUP4 SUB DUP2 PUSH1 0x0 DUP8 DUP1 EXTCODESIZE ISZERO DUP1 ISZERO PUSH2 0x20A9 JUMPI PUSH1 0x0 DUP1 REVERT JUMPDEST POP GAS CALL ISZERO DUP1 ISZERO PUSH2 0x20BD JUMPI RETURNDATASIZE PUSH1 0x0 DUP1 RETURNDATACOPY RETURNDATASIZE PUSH1 0x0 REVERT JUMPDEST POP POP POP POP POP DUP1 DUP1 PUSH1 0x1 ADD SWAP2 POP POP PUSH2 0x2007 JUMP JUMPDEST POP DUP1 DUP1 PUSH1 0x1 ADD SWAP2 POP POP PUSH2 0x1FF8 JUMP JUMPDEST POP PUSH2 0x20E6 PUSH2 0x3D54 JUMP JUMPDEST PUSH1 0x40 MLOAD DUP1 PUSH1 0x40 ADD PUSH1 0x40 MSTORE DUP1 PUSH1 0x0 PUSH4 0xFFFFFFFF AND DUP2 MSTORE PUSH1 0x20 ADD PUSH1 0x0 DUP2 MSTORE POP SWAP1 POP PUSH2 0x210D PUSH2 0x3D74 JUMP JUMPDEST PUSH1 0x40 MLOAD DUP1 PUSH1 0x60 ADD PUSH1 0x40 MSTORE DUP1 DUP14 PUSH1 0x0 DUP2 MLOAD DUP2 LT PUSH2 0x2125 JUMPI INVALID JUMPDEST PUSH1 0x20 MUL PUSH1 0x20 ADD ADD MLOAD DUP2 MSTORE PUSH1 0x20 ADD DUP14 PUSH1 0x1 DUP2 MLOAD DUP2 LT PUSH2 0x213F JUMPI INVALID JUMPDEST PUSH1 0x20 MUL PUSH1 0x20 ADD ADD MLOAD DUP2 MSTORE PUSH1 0x20 ADD DUP14 PUSH1 0x2 DUP2 MLOAD DUP2 LT PUSH2 0x2159 JUMPI INVALID JUMPDEST PUSH1 0x20 MUL PUSH1 0x20 ADD ADD MLOAD DUP2 MSTORE POP SWAP1 POP PUSH2 0x216E PUSH2 0x3D95 JUMP JUMPDEST PUSH1 0x40 MLOAD DUP1 PUSH2 0x1C0 ADD PUSH1 0x40 MSTORE DUP1 DUP9 DUP2 MSTORE PUSH1 0x20 ADD PUSH1 0x3 PUSH1 0x4 DUP2 GT ISZERO PUSH2 0x218D JUMPI INVALID JUMPDEST DUP2 MSTORE PUSH1 0x20 ADD DUP14 DUP2 MSTORE PUSH1 0x20 ADD DUP4 DUP2 MSTORE PUSH1 0x20 ADD DUP13 DUP2 MSTORE PUSH1 0x20 ADD DUP10 DUP2 MSTORE PUSH1 0x20 ADD DUP15 PUSH1 0x0 DUP2 MLOAD DUP2 LT PUSH2 0x21B7 JUMPI INVALID JUMPDEST PUSH1 0x20 MUL PUSH1 0x20 ADD ADD MLOAD MLOAD PUSH1 0x40 MLOAD SWAP1 DUP1 DUP3 MSTORE DUP1 PUSH1 0x20 MUL PUSH1 0x20 ADD DUP3 ADD PUSH1 0x40 MSTORE DUP1 ISZERO PUSH2 0x21F3 JUMPI DUP2 PUSH1 0x20 ADD JUMPDEST PUSH1 0x60 DUP2 MSTORE PUSH1 0x20 ADD SWAP1 PUSH1 0x1 SWAP1 SUB SWAP1 DUP2 PUSH2 0x21DE JUMPI SWAP1 POP JUMPDEST POP DUP2 MSTORE PUSH1 0x20 ADD DUP15 PUSH1 0x0 DUP2 MLOAD DUP2 LT PUSH2 0x2206 JUMPI INVALID JUMPDEST PUSH1 0x20 MUL PUSH1 0x20 ADD ADD MLOAD MLOAD DUP2 MSTORE PUSH1 0x20 ADD DUP8 DUP2 MSTORE PUSH1 0x20 ADD DUP12 DUP2 MSTORE PUSH1 0x20 ADD DUP12 MLOAD PUSH1 0x40 MLOAD SWAP1 DUP1 DUP3 MSTORE DUP1 PUSH1 0x20 MUL PUSH1 0x20 ADD DUP3 ADD PUSH1 0x40 MSTORE DUP1 ISZERO PUSH2 0x2250 JUMPI DUP2 PUSH1 0x20 ADD PUSH1 0x20 DUP3 MUL DUP1 CODESIZE DUP4 CODECOPY DUP1 DUP3 ADD SWAP2 POP POP SWAP1 POP JUMPDEST POP DUP2 MSTORE PUSH1 0x20 ADD DUP12 MLOAD PUSH1 0x40 MLOAD SWAP1 DUP1 DUP3 MSTORE DUP1 PUSH1 0x20 MUL PUSH1 0x20 ADD DUP3 ADD PUSH1 0x40 MSTORE DUP1 ISZERO PUSH2 0x2286 JUMPI DUP2 PUSH1 0x20 ADD PUSH1 0x20 DUP3 MUL DUP1 CODESIZE DUP4 CODECOPY DUP1 DUP3 ADD SWAP2 POP POP SWAP1 POP JUMPDEST POP DUP2 MSTORE PUSH1 0x20 ADD DUP5 DUP2 MSTORE PUSH1 0x20 ADD DUP7 PUSH20 0xFFFFFFFFFFFFFFFFFFFFFFFFFFFFFFFFFFFFFFFF AND DUP2 MSTORE POP SWAP1 POP DUP1 PUSH1 0x3 DUP14 PUSH1 0x40 MLOAD PUSH2 0x22BF SWAP2 SWAP1 PUSH2 0x54E2 JUMP JUMPDEST SWAP1 DUP2 MSTORE PUSH1 0x20 ADD PUSH1 0x40 MLOAD DUP1 SWAP2 SUB SWAP1 KECCAK256 PUSH1 0x0 DUP3 ADD MLOAD DUP2 PUSH1 0x0 ADD SWAP1 DUP1 MLOAD SWAP1 PUSH1 0x20 ADD SWAP1 PUSH2 0x22E9 SWAP3 SWAP2 SWAP1 PUSH2 0x3E31 JUMP JUMPDEST POP PUSH1 0x20 DUP3 ADD MLOAD DUP2 PUSH1 0x1 ADD PUSH1 0x0 PUSH2 0x100 EXP DUP2 SLOAD DUP2 PUSH1 0xFF MUL NOT AND SWAP1 DUP4 PUSH1 0x4 DUP2 GT ISZERO PUSH2 0x230E JUMPI INVALID JUMPDEST MUL OR SWAP1 SSTORE POP PUSH1 0x40 DUP3 ADD MLOAD DUP2 PUSH1 0x2 ADD SWAP1 DUP1 MLOAD SWAP1 PUSH1 0x20 ADD SWAP1 PUSH2 0x232F SWAP3 SWAP2 SWAP1 PUSH2 0x3E31 JUMP JUMPDEST POP PUSH1 0x60 DUP3 ADD MLOAD DUP2 PUSH1 0x3 ADD PUSH1 0x0 DUP3 ADD MLOAD DUP2 PUSH1 0x0 ADD SWAP1 DUP1 MLOAD SWAP1 PUSH1 0x20 ADD SWAP1 PUSH2 0x2355 SWAP3 SWAP2 SWAP1 PUSH2 0x3EB1 JUMP JUMPDEST POP PUSH1 0x20 DUP3 ADD MLOAD DUP2 PUSH1 0x1 ADD SWAP1 DUP1 MLOAD SWAP1 PUSH1 0x20 ADD SWAP1 PUSH2 0x2372 SWAP3 SWAP2 SWAP1 PUSH2 0x3EB1 JUMP JUMPDEST POP PUSH1 0x40 DUP3 ADD MLOAD DUP2 PUSH1 0x2 ADD SWAP1 DUP1 MLOAD SWAP1 PUSH1 0x20 ADD SWAP1 PUSH2 0x238F SWAP3 SWAP2 SWAP1 PUSH2 0x3EB1 JUMP JUMPDEST POP POP POP PUSH1 0x80 DUP3 ADD MLOAD DUP2 PUSH1 0x6 ADD SWAP1 DUP1 MLOAD SWAP1 PUSH1 0x20 ADD SWAP1 PUSH2 0x23AE SWAP3 SWAP2 SWAP1 PUSH2 0x3EFE JUMP JUMPDEST POP PUSH1 0xA0 DUP3 ADD MLOAD DUP2 PUSH1 0x7 ADD SWAP1 DUP1 MLOAD SWAP1 PUSH1 0x20 ADD SWAP1 PUSH2 0x23CB SWAP3 SWAP2 SWAP1 PUSH2 0x3F88 JUMP JUMPDEST POP PUSH1 0xC0 DUP3 ADD MLOAD DUP2 PUSH1 0x8 ADD SWAP1 DUP1 MLOAD SWAP1 PUSH1 0x20 ADD SWAP1 PUSH2 0x23E8 SWAP3 SWAP2 SWAP1 PUSH2 0x3FE8 JUMP JUMPDEST POP PUSH1 0xE0 DUP3 ADD MLOAD DUP2 PUSH1 0x9 ADD SSTORE PUSH2 0x100 DUP3 ADD MLOAD DUP2 PUSH1 0xA ADD SWAP1 DUP1 MLOAD SWAP1 PUSH1 0x20 ADD SWAP1 PUSH2 0x2410 SWAP3 SWAP2 SWAP1 PUSH2 0x4048 JUMP JUMPDEST POP PUSH2 0x120 DUP3 ADD MLOAD DUP2 PUSH1 0xB ADD SWAP1 DUP1 MLOAD SWAP1 PUSH1 0x20 ADD SWAP1 PUSH2 0x242E SWAP3 SWAP2 SWAP1 PUSH2 0x3EFE JUMP JUMPDEST POP PUSH2 0x140 DUP3 ADD MLOAD DUP2 PUSH1 0xC ADD SWAP1 DUP1 MLOAD SWAP1 PUSH1 0x20 ADD SWAP1 PUSH2 0x244C SWAP3 SWAP2 SWAP1 PUSH2 0x3EB1 JUMP JUMPDEST POP PUSH2 0x160 DUP3 ADD MLOAD DUP2 PUSH1 0xD ADD SWAP1 DUP1 MLOAD SWAP1 PUSH1 0x20 ADD SWAP1 PUSH2 0x246A SWAP3 SWAP2 SWAP1 PUSH2 0x3EB1 JUMP JUMPDEST POP PUSH2 0x180 DUP3 ADD MLOAD DUP2 PUSH1 0xE ADD PUSH1 0x0 DUP3 ADD MLOAD DUP2 PUSH1 0x0 ADD PUSH1 0x0 PUSH2 0x100 EXP DUP2 SLOAD DUP2 PUSH4 0xFFFFFFFF MUL NOT AND SWAP1 DUP4 PUSH4 0xFFFFFFFF AND MUL OR SWAP1 SSTORE POP PUSH1 0x20 DUP3 ADD MLOAD DUP2 PUSH1 0x1 ADD SSTORE POP POP PUSH2 0x1A0 DUP3 ADD MLOAD DUP2 PUSH1 0x10 ADD PUSH1 0x0 PUSH2 0x100 EXP DUP2 SLOAD DUP2 PUSH20 0xFFFFFFFFFFFFFFFFFFFFFFFFFFFFFFFFFFFFFFFF MUL NOT AND SWAP1 DUP4 PUSH20 0xFFFFFFFFFFFFFFFFFFFFFFFFFFFFFFFFFFFFFFFF AND MUL OR SWAP1 SSTORE POP SWAP1 POP POP PUSH1 0x2 DUP13 SWAP1 DUP1 PUSH1 0x1 DUP2 SLOAD ADD DUP1 DUP3 SSTORE DUP1 SWAP2 POP POP SWAP1 PUSH1 0x1 DUP3 SUB SWAP1 PUSH1 0x0 MSTORE PUSH1 0x20 PUSH1 0x0 KECCAK256 ADD PUSH1 0x0 SWAP1 SWAP2 SWAP3 SWAP1 SWAP2 SWAP1 SWAP2 POP SWAP1 DUP1 MLOAD SWAP1 PUSH1 0x20 ADD SWAP1 PUSH2 0x2530 SWAP3 SWAP2 SWAP1 PUSH2 0x3CC7 JUMP JUMPDEST POP POP PUSH2 0x253A PUSH2 0x40A8 JUMP JUMPDEST PUSH1 0x40 MLOAD DUP1 PUSH2 0x120 ADD PUSH1 0x40 MSTORE DUP1 DUP15 DUP2 MSTORE PUSH1 0x20 ADD PUSH1 0x40 MLOAD DUP1 PUSH1 0x20 ADD PUSH1 0x40 MSTORE DUP1 PUSH1 0x0 DUP2 MSTORE POP DUP2 MSTORE PUSH1 0x20 ADD PUSH1 0x3 PUSH1 0x4 DUP2 GT ISZERO PUSH2 0x256E JUMPI INVALID JUMPDEST DUP2 MSTORE PUSH1 0x20 ADD PUSH1 0x0 PUSH20 0xFFFFFFFFFFFFFFFFFFFFFFFFFFFFFFFFFFFFFFFF AND DUP2 MSTORE PUSH1 0x20 ADD PUSH1 0x0 DUP2 MSTORE PUSH1 0x20 ADD DUP13 MLOAD PUSH1 0x40 MLOAD SWAP1 DUP1 DUP3 MSTORE DUP1 PUSH1 0x20 MUL PUSH1 0x20 ADD DUP3 ADD PUSH1 0x40 MSTORE DUP1 ISZERO PUSH2 0x25C7 JUMPI DUP2 PUSH1 0x20 ADD PUSH1 0x20 DUP3 MUL DUP1 CODESIZE DUP4 CODECOPY DUP1 DUP3 ADD SWAP2 POP POP SWAP1 POP JUMPDEST POP DUP2 MSTORE PUSH1 0x20 ADD DUP13 MLOAD PUSH1 0x40 MLOAD SWAP1 DUP1 DUP3 MSTORE DUP1 PUSH1 0x20 MUL PUSH1 0x20 ADD DUP3 ADD PUSH1 0x40 MSTORE DUP1 ISZERO PUSH2 0x25FD JUMPI DUP2 PUSH1 0x20 ADD PUSH1 0x20 DUP3 MUL DUP1 CODESIZE DUP4 CODECOPY DUP1 DUP3 ADD SWAP2 POP POP SWAP1 POP JUMPDEST POP DUP2 MSTORE PUSH1 0x20 ADD DUP13 MLOAD PUSH1 0x40 MLOAD SWAP1 DUP1 DUP3 MSTORE DUP1 PUSH1 0x20 MUL PUSH1 0x20 ADD DUP3 ADD PUSH1 0x40 MSTORE DUP1 ISZERO PUSH2 0x2633 JUMPI DUP2 PUSH1 0x20 ADD PUSH1 0x20 DUP3 MUL DUP1 CODESIZE DUP4 CODECOPY DUP1 DUP3 ADD SWAP2 POP POP SWAP1 POP JUMPDEST POP DUP2 MSTORE PUSH1 0x20 ADD DUP13 MLOAD PUSH1 0x40 MLOAD SWAP1 DUP1 DUP3 MSTORE DUP1 PUSH1 0x20 MUL PUSH1 0x20 ADD DUP3 ADD PUSH1 0x40 MSTORE DUP1 ISZERO PUSH2 0x2669 JUMPI DUP2 PUSH1 0x20 ADD PUSH1 0x20 DUP3 MUL DUP1 CODESIZE DUP4 CODECOPY DUP1 DUP3 ADD SWAP2 POP POP SWAP1 POP JUMPDEST POP DUP2 MSTORE POP SWAP1 POP DUP1 PUSH1 0x4 DUP15 PUSH1 0x40 MLOAD PUSH2 0x2680 SWAP2 SWAP1 PUSH2 0x54E2 JUMP JUMPDEST SWAP1 DUP2 MSTORE PUSH1 0x20 ADD PUSH1 0x40 MLOAD DUP1 SWAP2 SUB SWAP1 KECCAK256 PUSH1 0x0 DUP3 ADD MLOAD DUP2 PUSH1 0x0 ADD SWAP1 DUP1 MLOAD SWAP1 PUSH1 0x20 ADD SWAP1 PUSH2 0x26AA SWAP3 SWAP2 SWAP1 PUSH2 0x3E31 JUMP JUMPDEST POP PUSH1 0x20 DUP3 ADD MLOAD DUP2 PUSH1 0x1 ADD SWAP1 DUP1 MLOAD SWAP1 PUSH1 0x20 ADD SWAP1 PUSH2 0x26C7 SWAP3 SWAP2 SWAP1 PUSH2 0x3E31 JUMP JUMPDEST POP PUSH1 0x40 DUP3 ADD MLOAD DUP2 PUSH1 0x2 ADD PUSH1 0x0 PUSH2 0x100 EXP DUP2 SLOAD DUP2 PUSH1 0xFF MUL NOT AND SWAP1 DUP4 PUSH1 0x4 DUP2 GT ISZERO PUSH2 0x26EC JUMPI INVALID JUMPDEST MUL OR SWAP1 SSTORE POP PUSH1 0x60 DUP3 ADD MLOAD DUP2 PUSH1 0x2 ADD PUSH1 0x1 PUSH2 0x100 EXP DUP2 SLOAD DUP2 PUSH20 0xFFFFFFFFFFFFFFFFFFFFFFFFFFFFFFFFFFFFFFFF MUL NOT AND SWAP1 DUP4 PUSH20 0xFFFFFFFFFFFFFFFFFFFFFFFFFFFFFFFFFFFFFFFF AND MUL OR SWAP1 SSTORE POP PUSH1 0x80 DUP3 ADD MLOAD DUP2 PUSH1 0x3 ADD SSTORE PUSH1 0xA0 DUP3 ADD MLOAD DUP2 PUSH1 0x4 ADD SWAP1 DUP1 MLOAD SWAP1 PUSH1 0x20 ADD SWAP1 PUSH2 0x275E SWAP3 SWAP2 SWAP1 PUSH2 0x3EFE JUMP JUMPDEST POP PUSH1 0xC0 DUP3 ADD MLOAD DUP2 PUSH1 0x5 ADD SWAP1 DUP1 MLOAD SWAP1 PUSH1 0x20 ADD SWAP1 PUSH2 0x277B SWAP3 SWAP2 SWAP1 PUSH2 0x3EB1 JUMP JUMPDEST POP PUSH1 0xE0 DUP3 ADD MLOAD DUP2 PUSH1 0x6 ADD SWAP1 DUP1 MLOAD SWAP1 PUSH1 0x20 ADD SWAP1 PUSH2 0x2798 SWAP3 SWAP2 SWAP1 PUSH2 0x3EB1 JUMP JUMPDEST POP PUSH2 0x100 DUP3 ADD MLOAD DUP2 PUSH1 0x7 ADD SWAP1 DUP1 MLOAD SWAP1 PUSH1 0x20 ADD SWAP1 PUSH2 0x27B6 SWAP3 SWAP2 SWAP1 PUSH2 0x3EB1 JUMP JUMPDEST POP SWAP1 POP POP CALLER PUSH20 0xFFFFFFFFFFFFFFFFFFFFFFFFFFFFFFFFFFFFFFFF AND DUP3 PUSH1 0x40 ADD MLOAD PUSH1 0x40 MLOAD PUSH2 0x27E3 SWAP2 SWAP1 PUSH2 0x54CB JUMP JUMPDEST PUSH1 0x40 MLOAD DUP1 SWAP2 SUB SWAP1 KECCAK256 PUSH32 0xC42DC8C6712875975B09ECE703779E4ED83179500DA5C8776B1EAB681E04C7FA PUSH1 0x40 MLOAD PUSH1 0x40 MLOAD DUP1 SWAP2 SUB SWAP1 LOG3 POP POP POP POP POP POP POP POP POP POP POP POP POP POP JUMP JUMPDEST PUSH1 0x60 PUSH1 0x40 MLOAD DUP1 PUSH1 0x40 ADD PUSH1 0x40 MSTORE DUP1 PUSH1 0x1 DUP2 MSTORE PUSH1 0x20 ADD PUSH32 0x4100000000000000000000000000000000000000000000000000000000000000 DUP2 MSTORE POP PUSH1 0x0 PUSH1 0x1 ADD SWAP1 DUP1 MLOAD SWAP1 PUSH1 0x20 ADD SWAP1 PUSH2 0x2877 SWAP3 SWAP2 SWAP1 PUSH2 0x3CC7 JUMP JUMPDEST POP CALLER PUSH20 0xFFFFFFFFFFFFFFFFFFFFFFFFFFFFFFFFFFFFFFFF AND DUP3 PUSH20 0xFFFFFFFFFFFFFFFFFFFFFFFFFFFFFFFFFFFFFFFF AND EQ PUSH2 0x28E6 JUMPI PUSH1 0x40 MLOAD PUSH32 0x8C379A000000000000000000000000000000000000000000000000000000000 DUP2 MSTORE PUSH1 0x4 ADD PUSH2 0x28DD SWAP1 PUSH2 0x57B0 JUMP JUMPDEST PUSH1 0x40 MLOAD DUP1 SWAP2 SUB SWAP1 REVERT JUMPDEST PUSH1 0x40 MLOAD DUP1 PUSH1 0x40 ADD PUSH1 0x40 MSTORE DUP1 PUSH1 0x1 DUP2 MSTORE PUSH1 0x20 ADD PUSH32 0x4200000000000000000000000000000000000000000000000000000000000000 DUP2 MSTORE POP PUSH1 0x0 PUSH1 0x1 ADD SWAP1 DUP1 MLOAD SWAP1 PUSH1 0x20 ADD SWAP1 PUSH2 0x2934 SWAP3 SWAP2 SWAP1 PUSH2 0x3CC7 JUMP JUMPDEST POP PUSH1 0x0 DUP1 SWAP1 POP JUMPDEST PUSH1 0x4 DUP5 PUSH1 0x40 MLOAD PUSH2 0x294B SWAP2 SWAP1 PUSH2 0x54E2 JUMP JUMPDEST SWAP1 DUP2 MSTORE PUSH1 0x20 ADD PUSH1 0x40 MLOAD DUP1 SWAP2 SUB SWAP1 KECCAK256 PUSH1 0x4 ADD DUP1 SLOAD SWAP1 POP DUP2 LT ISZERO PUSH2 0x2D4D JUMPI PUSH1 0x40 MLOAD DUP1 PUSH1 0x40 ADD PUSH1 0x40 MSTORE DUP1 PUSH1 0x1 DUP2 MSTORE PUSH1 0x20 ADD PUSH32 0x4300000000000000000000000000000000000000000000000000000000000000 DUP2 MSTORE POP PUSH1 0x0 PUSH1 0x1 ADD SWAP1 DUP1 MLOAD SWAP1 PUSH1 0x20 ADD SWAP1 PUSH2 0x29B5 SWAP3 SWAP2 SWAP1 PUSH2 0x3CC7 JUMP JUMPDEST POP PUSH1 0x4 DUP5 PUSH1 0x40 MLOAD PUSH2 0x29C6 SWAP2 SWAP1 PUSH2 0x54E2 JUMP JUMPDEST SWAP1 DUP2 MSTORE PUSH1 0x20 ADD PUSH1 0x40 MLOAD DUP1 SWAP2 SUB SWAP1 KECCAK256 PUSH1 0x4 ADD DUP2 DUP2 SLOAD DUP2 LT PUSH2 0x29E2 JUMPI INVALID JUMPDEST SWAP1 PUSH1 0x0 MSTORE PUSH1 0x20 PUSH1 0x0 KECCAK256 ADD PUSH1 0x0 SWAP1 SLOAD SWAP1 PUSH2 0x100 EXP SWAP1 DIV PUSH20 0xFFFFFFFFFFFFFFFFFFFFFFFFFFFFFFFFFFFFFFFF AND PUSH20 0xFFFFFFFFFFFFFFFFFFFFFFFFFFFFFFFFFFFFFFFF AND DUP4 PUSH20 0xFFFFFFFFFFFFFFFFFFFFFFFFFFFFFFFFFFFFFFFF AND EQ ISZERO PUSH2 0x2D40 JUMPI PUSH1 0x40 MLOAD DUP1 PUSH1 0x40 ADD PUSH1 0x40 MSTORE DUP1 PUSH1 0x10 DUP2 MSTORE PUSH1 0x20 ADD PUSH32 0x617070726F76616C207374616765203100000000000000000000000000000000 DUP2 MSTORE POP PUSH1 0x0 PUSH1 0x1 ADD SWAP1 DUP1 MLOAD SWAP1 PUSH1 0x20 ADD SWAP1 PUSH2 0x2A8E SWAP3 SWAP2 SWAP1 PUSH2 0x3CC7 JUMP JUMPDEST POP PUSH1 0x1 PUSH1 0x4 DUP6 PUSH1 0x40 MLOAD PUSH2 0x2AA1 SWAP2 SWAP1 PUSH2 0x54E2 JUMP JUMPDEST SWAP1 DUP2 MSTORE PUSH1 0x20 ADD PUSH1 0x40 MLOAD DUP1 SWAP2 SUB SWAP1 KECCAK256 PUSH1 0x6 ADD DUP3 DUP2 SLOAD DUP2 LT PUSH2 0x2ABD JUMPI INVALID JUMPDEST SWAP1 PUSH1 0x0 MSTORE PUSH1 0x20 PUSH1 0x0 KECCAK256 ADD SLOAD EQ PUSH2 0x2D3F JUMPI PUSH1 0x1 PUSH1 0x4 DUP6 PUSH1 0x40 MLOAD PUSH2 0x2ADF SWAP2 SWAP1 PUSH2 0x54E2 JUMP JUMPDEST SWAP1 DUP2 MSTORE PUSH1 0x20 ADD PUSH1 0x40 MLOAD DUP1 SWAP2 SUB SWAP1 KECCAK256 PUSH1 0x6 ADD DUP3 DUP2 SLOAD DUP2 LT PUSH2 0x2AFB JUMPI INVALID JUMPDEST SWAP1 PUSH1 0x0 MSTORE PUSH1 0x20 PUSH1 0x0 KECCAK256 ADD DUP2 SWAP1 SSTORE POP DUP3 PUSH20 0xFFFFFFFFFFFFFFFFFFFFFFFFFFFFFFFFFFFFFFFF AND DUP5 PUSH1 0x40 MLOAD PUSH2 0x2B2E SWAP2 SWAP1 PUSH2 0x54E2 JUMP JUMPDEST PUSH1 0x40 MLOAD DUP1 SWAP2 SUB SWAP1 KECCAK256 PUSH32 0xEF93748EF353323FECED9A53B1F9433297BF50235A9D5AA97783D3F30D4682E4 PUSH1 0x40 MLOAD PUSH1 0x40 MLOAD DUP1 SWAP2 SUB SWAP1 LOG3 PUSH1 0x40 MLOAD DUP1 PUSH1 0x40 ADD PUSH1 0x40 MSTORE DUP1 PUSH1 0x10 DUP2 MSTORE PUSH1 0x20 ADD PUSH32 0x617070726F76616C207374616765203200000000000000000000000000000000 DUP2 MSTORE POP PUSH1 0x0 PUSH1 0x1 ADD SWAP1 DUP1 MLOAD SWAP1 PUSH1 0x20 ADD SWAP1 PUSH2 0x2BB0 SWAP3 SWAP2 SWAP1 PUSH2 0x3CC7 JUMP JUMPDEST POP PUSH1 0x1 PUSH20 0x0 PUSH4 0x1BB97528 PUSH1 0x4 DUP8 PUSH1 0x40 MLOAD PUSH2 0x2BDD SWAP2 SWAP1 PUSH2 0x54E2 JUMP JUMPDEST SWAP1 DUP2 MSTORE PUSH1 0x20 ADD PUSH1 0x40 MLOAD DUP1 SWAP2 SUB SWAP1 KECCAK256 PUSH1 0x6 ADD PUSH1 0x4 DUP9 PUSH1 0x40 MLOAD PUSH2 0x2BFE SWAP2 SWAP1 PUSH2 0x54E2 JUMP JUMPDEST SWAP1 DUP2 MSTORE PUSH1 0x20 ADD PUSH1 0x40 MLOAD DUP1 SWAP2 SUB SWAP1 KECCAK256 PUSH1 0x3 ADD SLOAD PUSH1 0x40 MLOAD DUP4 PUSH4 0xFFFFFFFF AND PUSH1 0xE0 SHL DUP2 MSTORE PUSH1 0x4 ADD PUSH2 0x2C2D SWAP3 SWAP2 SWAP1 PUSH2 0x55BE JUMP JUMPDEST PUSH1 0x20 PUSH1 0x40 MLOAD DUP1 DUP4 SUB DUP2 DUP7 DUP1 EXTCODESIZE ISZERO DUP1 ISZERO PUSH2 0x2C45 JUMPI PUSH1 0x0 DUP1 REVERT JUMPDEST POP GAS DELEGATECALL ISZERO DUP1 ISZERO PUSH2 0x2C59 JUMPI RETURNDATASIZE PUSH1 0x0 DUP1 RETURNDATACOPY RETURNDATASIZE PUSH1 0x0 REVERT JUMPDEST POP POP POP POP PUSH1 0x40 MLOAD RETURNDATASIZE PUSH1 0x1F NOT PUSH1 0x1F DUP3 ADD AND DUP3 ADD DUP1 PUSH1 0x40 MSTORE POP PUSH2 0x2C7D SWAP2 SWAP1 DUP2 ADD SWAP1 PUSH2 0x4DBE JUMP JUMPDEST EQ ISZERO PUSH2 0x2CC7 JUMPI PUSH1 0x0 PUSH1 0x4 DUP6 PUSH1 0x40 MLOAD PUSH2 0x2C95 SWAP2 SWAP1 PUSH2 0x54E2 JUMP JUMPDEST SWAP1 DUP2 MSTORE PUSH1 0x20 ADD PUSH1 0x40 MLOAD DUP1 SWAP2 SUB SWAP1 KECCAK256 PUSH1 0x2 ADD PUSH1 0x0 PUSH2 0x100 EXP DUP2 SLOAD DUP2 PUSH1 0xFF MUL NOT AND SWAP1 DUP4 PUSH1 0x4 DUP2 GT ISZERO PUSH2 0x2CC1 JUMPI INVALID JUMPDEST MUL OR SWAP1 SSTORE POP JUMPDEST PUSH1 0x4 DUP5 PUSH1 0x40 MLOAD PUSH2 0x2CD7 SWAP2 SWAP1 PUSH2 0x54E2 JUMP JUMPDEST SWAP1 DUP2 MSTORE PUSH1 0x20 ADD PUSH1 0x40 MLOAD DUP1 SWAP2 SUB SWAP1 KECCAK256 PUSH1 0x6 ADD DUP1 SLOAD DUP1 PUSH1 0x20 MUL PUSH1 0x20 ADD PUSH1 0x40 MLOAD SWAP1 DUP2 ADD PUSH1 0x40 MSTORE DUP1 SWAP3 SWAP2 SWAP1 DUP2 DUP2 MSTORE PUSH1 0x20 ADD DUP3 DUP1 SLOAD DUP1 ISZERO PUSH2 0x2D32 JUMPI PUSH1 0x20 MUL DUP3 ADD SWAP2 SWAP1 PUSH1 0x0 MSTORE PUSH1 0x20 PUSH1 0x0 KECCAK256 SWAP1 JUMPDEST DUP2 SLOAD DUP2 MSTORE PUSH1 0x20 ADD SWAP1 PUSH1 0x1 ADD SWAP1 DUP1 DUP4 GT PUSH2 0x2D1E JUMPI JUMPDEST POP POP POP POP POP SWAP2 POP POP PUSH2 0x2DC1 JUMP JUMPDEST JUMPDEST DUP1 DUP1 PUSH1 0x1 ADD SWAP2 POP POP PUSH2 0x293B JUMP JUMPDEST POP PUSH1 0x4 DUP4 PUSH1 0x40 MLOAD PUSH2 0x2D5E SWAP2 SWAP1 PUSH2 0x54E2 JUMP JUMPDEST SWAP1 DUP2 MSTORE PUSH1 0x20 ADD PUSH1 0x40 MLOAD DUP1 SWAP2 SUB SWAP1 KECCAK256 PUSH1 0x6 ADD DUP1 SLOAD DUP1 PUSH1 0x20 MUL PUSH1 0x20 ADD PUSH1 0x40 MLOAD SWAP1 DUP2 ADD PUSH1 0x40 MSTORE DUP1 SWAP3 SWAP2 SWAP1 DUP2 DUP2 MSTORE PUSH1 0x20 ADD DUP3 DUP1 SLOAD DUP1 ISZERO PUSH2 0x2DB9 JUMPI PUSH1 0x20 MUL DUP3 ADD SWAP2 SWAP1 PUSH1 0x0 MSTORE PUSH1 0x20 PUSH1 0x0 KECCAK256 SWAP1 JUMPDEST DUP2 SLOAD DUP2 MSTORE PUSH1 0x20 ADD SWAP1 PUSH1 0x1 ADD SWAP1 DUP1 DUP4 GT PUSH2 0x2DA5 JUMPI JUMPDEST POP POP POP POP POP SWAP1 POP JUMPDEST SWAP3 SWAP2 POP POP JUMP JUMPDEST PUSH2 0x2DD2 DUP3 DUP3 CALLER PUSH2 0xD46 JUMP JUMPDEST PUSH2 0x2E4A JUMPI PUSH1 0x1 PUSH1 0x3 DUP4 PUSH1 0x40 MLOAD PUSH2 0x2DE8 SWAP2 SWAP1 PUSH2 0x54E2 JUMP JUMPDEST SWAP1 DUP2 MSTORE PUSH1 0x20 ADD PUSH1 0x40 MLOAD DUP1 SWAP2 SUB SWAP1 KECCAK256 PUSH1 0xE ADD PUSH1 0x1 ADD DUP2 SWAP1 SSTORE POP PUSH1 0x1 DUP2 DUP4 PUSH1 0x40 MLOAD PUSH2 0x2E11 SWAP2 SWAP1 PUSH2 0x54E2 JUMP JUMPDEST PUSH1 0x40 MLOAD DUP1 SWAP2 SUB SWAP1 KECCAK256 PUSH32 0xA59297FB38DE255753588982FD21223EAB1E18D3151668C80B2DDEB15D7897B1 PUSH1 0x40 MLOAD PUSH1 0x40 MLOAD DUP1 SWAP2 SUB SWAP1 LOG4 PUSH2 0x3379 JUMP JUMPDEST PUSH1 0x1 PUSH1 0x3 DUP4 PUSH1 0x40 MLOAD PUSH2 0x2E5C SWAP2 SWAP1 PUSH2 0x54E2 JUMP JUMPDEST SWAP1 DUP2 MSTORE PUSH1 0x20 ADD PUSH1 0x40 MLOAD DUP1 SWAP2 SUB SWAP1 KECCAK256 PUSH1 0x3 ADD PUSH1 0x1 ADD DUP3 DUP2 SLOAD DUP2 LT PUSH2 0x2E7B JUMPI INVALID JUMPDEST SWAP1 PUSH1 0x0 MSTORE PUSH1 0x20 PUSH1 0x0 KECCAK256 ADD DUP2 SWAP1 SSTORE POP PUSH1 0x0 PUSH1 0x3 DUP4 PUSH1 0x40 MLOAD PUSH2 0x2E9B SWAP2 SWAP1 PUSH2 0x54E2 JUMP JUMPDEST SWAP1 DUP2 MSTORE PUSH1 0x20 ADD PUSH1 0x40 MLOAD DUP1 SWAP2 SUB SWAP1 KECCAK256 PUSH1 0x3 ADD PUSH1 0x2 ADD DUP3 DUP2 SLOAD DUP2 LT PUSH2 0x2EBA JUMPI INVALID JUMPDEST SWAP1 PUSH1 0x0 MSTORE PUSH1 0x20 PUSH1 0x0 KECCAK256 ADD DUP2 SWAP1 SSTORE POP PUSH1 0x60 PUSH1 0x3 DUP4 PUSH1 0x40 MLOAD PUSH2 0x2EDA SWAP2 SWAP1 PUSH2 0x54E2 JUMP JUMPDEST SWAP1 DUP2 MSTORE PUSH1 0x20 ADD PUSH1 0x40 MLOAD DUP1 SWAP2 SUB SWAP1 KECCAK256 PUSH1 0xA ADD PUSH1 0x1 DUP2 SLOAD DUP2 LT PUSH2 0x2EF7 JUMPI INVALID JUMPDEST SWAP1 PUSH1 0x0 MSTORE PUSH1 0x20 PUSH1 0x0 KECCAK256 ADD DUP3 DUP2 SLOAD DUP2 LT PUSH2 0x2F0C JUMPI INVALID JUMPDEST SWAP1 PUSH1 0x0 MSTORE PUSH1 0x20 PUSH1 0x0 KECCAK256 ADD DUP1 SLOAD DUP1 PUSH1 0x20 MUL PUSH1 0x20 ADD PUSH1 0x40 MLOAD SWAP1 DUP2 ADD PUSH1 0x40 MSTORE DUP1 SWAP3 SWAP2 SWAP1 DUP2 DUP2 MSTORE PUSH1 0x20 ADD DUP3 DUP1 SLOAD DUP1 ISZERO PUSH2 0x2F60 JUMPI PUSH1 0x20 MUL DUP3 ADD SWAP2 SWAP1 PUSH1 0x0 MSTORE PUSH1 0x20 PUSH1 0x0 KECCAK256 SWAP1 JUMPDEST DUP2 SLOAD DUP2 MSTORE PUSH1 0x20 ADD SWAP1 PUSH1 0x1 ADD SWAP1 DUP1 DUP4 GT PUSH2 0x2F4C JUMPI JUMPDEST POP POP POP POP POP SWAP1 POP PUSH1 0x60 PUSH1 0x3 DUP5 PUSH1 0x40 MLOAD PUSH2 0x2F79 SWAP2 SWAP1 PUSH2 0x54E2 JUMP JUMPDEST SWAP1 DUP2 MSTORE PUSH1 0x20 ADD PUSH1 0x40 MLOAD DUP1 SWAP2 SUB SWAP1 KECCAK256 PUSH1 0xA ADD PUSH1 0x2 DUP2 SLOAD DUP2 LT PUSH2 0x2F96 JUMPI INVALID JUMPDEST SWAP1 PUSH1 0x0 MSTORE PUSH1 0x20 PUSH1 0x0 KECCAK256 ADD DUP4 DUP2 SLOAD DUP2 LT PUSH2 0x2FAB JUMPI INVALID JUMPDEST SWAP1 PUSH1 0x0 MSTORE PUSH1 0x20 PUSH1 0x0 KECCAK256 ADD DUP1 SLOAD DUP1 PUSH1 0x20 MUL PUSH1 0x20 ADD PUSH1 0x40 MLOAD SWAP1 DUP2 ADD PUSH1 0x40 MSTORE DUP1 SWAP3 SWAP2 SWAP1 DUP2 DUP2 MSTORE PUSH1 0x20 ADD DUP3 DUP1 SLOAD DUP1 ISZERO PUSH2 0x2FFF JUMPI PUSH1 0x20 MUL DUP3 ADD SWAP2 SWAP1 PUSH1 0x0 MSTORE PUSH1 0x20 PUSH1 0x0 KECCAK256 SWAP1 JUMPDEST DUP2 SLOAD DUP2 MSTORE PUSH1 0x20 ADD SWAP1 PUSH1 0x1 ADD SWAP1 DUP1 DUP4 GT PUSH2 0x2FEB JUMPI JUMPDEST POP POP POP POP POP SWAP1 POP PUSH1 0x60 PUSH1 0x3 DUP6 PUSH1 0x40 MLOAD PUSH2 0x3018 SWAP2 SWAP1 PUSH2 0x54E2 JUMP JUMPDEST SWAP1 DUP2 MSTORE PUSH1 0x20 ADD PUSH1 0x40 MLOAD DUP1 SWAP2 SUB SWAP1 KECCAK256 PUSH1 0xA ADD PUSH1 0x0 DUP2 SLOAD DUP2 LT PUSH2 0x3035 JUMPI INVALID JUMPDEST SWAP1 PUSH1 0x0 MSTORE PUSH1 0x20 PUSH1 0x0 KECCAK256 ADD DUP5 DUP2 SLOAD DUP2 LT PUSH2 0x304A JUMPI INVALID JUMPDEST SWAP1 PUSH1 0x0 MSTORE PUSH1 0x20 PUSH1 0x0 KECCAK256 ADD DUP1 SLOAD DUP1 PUSH1 0x20 MUL PUSH1 0x20 ADD PUSH1 0x40 MLOAD SWAP1 DUP2 ADD PUSH1 0x40 MSTORE DUP1 SWAP3 SWAP2 SWAP1 DUP2 DUP2 MSTORE PUSH1 0x20 ADD DUP3 DUP1 SLOAD DUP1 ISZERO PUSH2 0x309E JUMPI PUSH1 0x20 MUL DUP3 ADD SWAP2 SWAP1 PUSH1 0x0 MSTORE PUSH1 0x20 PUSH1 0x0 KECCAK256 SWAP1 JUMPDEST DUP2 SLOAD DUP2 MSTORE PUSH1 0x20 ADD SWAP1 PUSH1 0x1 ADD SWAP1 DUP1 DUP4 GT PUSH2 0x308A JUMPI JUMPDEST POP POP POP POP POP SWAP1 POP PUSH1 0x60 PUSH1 0x3 DUP7 PUSH1 0x40 MLOAD PUSH2 0x30B7 SWAP2 SWAP1 PUSH2 0x54E2 JUMP JUMPDEST SWAP1 DUP2 MSTORE PUSH1 0x20 ADD PUSH1 0x40 MLOAD DUP1 SWAP2 SUB SWAP1 KECCAK256 PUSH1 0xA ADD PUSH1 0x3 DUP2 SLOAD DUP2 LT PUSH2 0x30D4 JUMPI INVALID JUMPDEST SWAP1 PUSH1 0x0 MSTORE PUSH1 0x20 PUSH1 0x0 KECCAK256 ADD DUP6 DUP2 SLOAD DUP2 LT PUSH2 0x30E9 JUMPI INVALID JUMPDEST SWAP1 PUSH1 0x0 MSTORE PUSH1 0x20 PUSH1 0x0 KECCAK256 ADD DUP1 SLOAD DUP1 PUSH1 0x20 MUL PUSH1 0x20 ADD PUSH1 0x40 MLOAD SWAP1 DUP2 ADD PUSH1 0x40 MSTORE DUP1 SWAP3 SWAP2 SWAP1 DUP2 DUP2 MSTORE PUSH1 0x20 ADD DUP3 DUP1 SLOAD DUP1 ISZERO PUSH2 0x313D JUMPI PUSH1 0x20 MUL DUP3 ADD SWAP2 SWAP1 PUSH1 0x0 MSTORE PUSH1 0x20 PUSH1 0x0 KECCAK256 SWAP1 JUMPDEST DUP2 SLOAD DUP2 MSTORE PUSH1 0x20 ADD SWAP1 PUSH1 0x1 ADD SWAP1 DUP1 DUP4 GT PUSH2 0x3129 JUMPI JUMPDEST POP POP POP POP POP SWAP1 POP PUSH1 0x0 DUP1 SWAP1 POP JUMPDEST DUP2 MLOAD DUP2 LT ISZERO PUSH2 0x3197 JUMPI PUSH1 0x1 DUP3 DUP3 DUP2 MLOAD DUP2 LT PUSH2 0x3161 JUMPI INVALID JUMPDEST PUSH1 0x20 MUL PUSH1 0x20 ADD ADD MLOAD EQ ISZERO PUSH2 0x318A JUMPI PUSH1 0x1 DUP4 DUP3 DUP2 MLOAD DUP2 LT PUSH2 0x317D JUMPI INVALID JUMPDEST PUSH1 0x20 MUL PUSH1 0x20 ADD ADD DUP2 DUP2 MSTORE POP POP JUMPDEST DUP1 DUP1 PUSH1 0x1 ADD SWAP2 POP POP PUSH2 0x314A JUMP JUMPDEST POP PUSH1 0x0 DUP1 SWAP1 POP JUMPDEST PUSH1 0x3 DUP8 PUSH1 0x40 MLOAD PUSH2 0x31AE SWAP2 SWAP1 PUSH2 0x54E2 JUMP JUMPDEST SWAP1 DUP2 MSTORE PUSH1 0x20 ADD PUSH1 0x40 MLOAD DUP1 SWAP2 SUB SWAP1 KECCAK256 PUSH1 0xA ADD PUSH1 0x1 DUP2 SLOAD DUP2 LT PUSH2 0x31CB JUMPI INVALID JUMPDEST SWAP1 PUSH1 0x0 MSTORE PUSH1 0x20 PUSH1 0x0 KECCAK256 ADD DUP1 SLOAD SWAP1 POP DUP2 LT ISZERO PUSH2 0x3304 JUMPI PUSH1 0x1 DUP6 DUP3 DUP2 MLOAD DUP2 LT PUSH2 0x31EE JUMPI INVALID JUMPDEST PUSH1 0x20 MUL PUSH1 0x20 ADD ADD MLOAD EQ ISZERO DUP1 ISZERO PUSH2 0x3217 JUMPI POP PUSH1 0x1 DUP4 DUP3 DUP2 MLOAD DUP2 LT PUSH2 0x320D JUMPI INVALID JUMPDEST PUSH1 0x20 MUL PUSH1 0x20 ADD ADD MLOAD EQ JUMPDEST ISZERO PUSH2 0x325C JUMPI PUSH1 0x1 PUSH1 0x3 DUP9 PUSH1 0x40 MLOAD PUSH2 0x322E SWAP2 SWAP1 PUSH2 0x54E2 JUMP JUMPDEST SWAP1 DUP2 MSTORE PUSH1 0x20 ADD PUSH1 0x40 MLOAD DUP1 SWAP2 SUB SWAP1 KECCAK256 PUSH1 0x3 ADD PUSH1 0x0 ADD DUP3 DUP2 SLOAD DUP2 LT PUSH2 0x324D JUMPI INVALID JUMPDEST SWAP1 PUSH1 0x0 MSTORE PUSH1 0x20 PUSH1 0x0 KECCAK256 ADD DUP2 SWAP1 SSTORE POP JUMPDEST PUSH1 0x1 DUP5 DUP3 DUP2 MLOAD DUP2 LT PUSH2 0x326A JUMPI INVALID JUMPDEST PUSH1 0x20 MUL PUSH1 0x20 ADD ADD MLOAD EQ ISZERO PUSH2 0x32F7 JUMPI PUSH1 0x1 PUSH1 0x3 DUP9 PUSH1 0x40 MLOAD PUSH2 0x328A SWAP2 SWAP1 PUSH2 0x54E2 JUMP JUMPDEST SWAP1 DUP2 MSTORE PUSH1 0x20 ADD PUSH1 0x40 MLOAD DUP1 SWAP2 SUB SWAP1 KECCAK256 PUSH1 0x3 ADD PUSH1 0x2 ADD DUP3 DUP2 SLOAD DUP2 LT PUSH2 0x32A9 JUMPI INVALID JUMPDEST SWAP1 PUSH1 0x0 MSTORE PUSH1 0x20 PUSH1 0x0 KECCAK256 ADD DUP2 SWAP1 SSTORE POP PUSH1 0x1 PUSH1 0x3 DUP9 PUSH1 0x40 MLOAD PUSH2 0x32C9 SWAP2 SWAP1 PUSH2 0x54E2 JUMP JUMPDEST SWAP1 DUP2 MSTORE PUSH1 0x20 ADD PUSH1 0x40 MLOAD DUP1 SWAP2 SUB SWAP1 KECCAK256 PUSH1 0x3 ADD PUSH1 0x0 ADD DUP3 DUP2 SLOAD DUP2 LT PUSH2 0x32E8 JUMPI INVALID JUMPDEST SWAP1 PUSH1 0x0 MSTORE PUSH1 0x20 PUSH1 0x0 KECCAK256 ADD DUP2 SWAP1 SSTORE POP JUMPDEST DUP1 DUP1 PUSH1 0x1 ADD SWAP2 POP POP PUSH2 0x319E JUMP JUMPDEST POP PUSH1 0x0 DUP6 DUP8 PUSH1 0x40 MLOAD PUSH2 0x3316 SWAP2 SWAP1 PUSH2 0x54E2 JUMP JUMPDEST PUSH1 0x40 MLOAD DUP1 SWAP2 SUB SWAP1 KECCAK256 PUSH32 0xA59297FB38DE255753588982FD21223EAB1E18D3151668C80B2DDEB15D7897B1 PUSH1 0x40 MLOAD PUSH1 0x40 MLOAD DUP1 SWAP2 SUB SWAP1 LOG4 PUSH1 0x1 PUSH1 0x3 DUP8 PUSH1 0x40 MLOAD PUSH2 0x335C SWAP2 SWAP1 PUSH2 0x54E2 JUMP JUMPDEST SWAP1 DUP2 MSTORE PUSH1 0x20 ADD PUSH1 0x40 MLOAD DUP1 SWAP2 SUB SWAP1 KECCAK256 PUSH1 0xE ADD PUSH1 0x1 ADD DUP2 SWAP1 SSTORE POP POP POP POP POP JUMPDEST POP POP JUMP JUMPDEST PUSH1 0x60 PUSH1 0x3 DUP3 PUSH1 0x40 MLOAD PUSH2 0x338F SWAP2 SWAP1 PUSH2 0x54E2 JUMP JUMPDEST SWAP1 DUP2 MSTORE PUSH1 0x20 ADD PUSH1 0x40 MLOAD DUP1 SWAP2 SUB SWAP1 KECCAK256 PUSH1 0x3 ADD PUSH1 0x2 ADD DUP1 SLOAD DUP1 PUSH1 0x20 MUL PUSH1 0x20 ADD PUSH1 0x40 MLOAD SWAP1 DUP2 ADD PUSH1 0x40 MSTORE DUP1 SWAP3 SWAP2 SWAP1 DUP2 DUP2 MSTORE PUSH1 0x20 ADD DUP3 DUP1 SLOAD DUP1 ISZERO PUSH2 0x33ED JUMPI PUSH1 0x20 MUL DUP3 ADD SWAP2 SWAP1 PUSH1 0x0 MSTORE PUSH1 0x20 PUSH1 0x0 KECCAK256 SWAP1 JUMPDEST DUP2 SLOAD DUP2 MSTORE PUSH1 0x20 ADD SWAP1 PUSH1 0x1 ADD SWAP1 DUP1 DUP4 GT PUSH2 0x33D9 JUMPI JUMPDEST POP POP POP POP POP SWAP1 POP SWAP2 SWAP1 POP JUMP JUMPDEST PUSH1 0x60 PUSH1 0x0 DUP1 PUSH1 0x60 DUP1 PUSH1 0x0 DUP1 PUSH1 0x4 DUP9 PUSH1 0x40 MLOAD PUSH2 0x3414 SWAP2 SWAP1 PUSH2 0x54E2 JUMP JUMPDEST SWAP1 DUP2 MSTORE PUSH1 0x20 ADD PUSH1 0x40 MLOAD DUP1 SWAP2 SUB SWAP1 KECCAK256 PUSH1 0x1 ADD PUSH1 0x4 DUP10 PUSH1 0x40 MLOAD PUSH2 0x3435 SWAP2 SWAP1 PUSH2 0x54E2 JUMP JUMPDEST SWAP1 DUP2 MSTORE PUSH1 0x20 ADD PUSH1 0x40 MLOAD DUP1 SWAP2 SUB SWAP1 KECCAK256 PUSH1 0x2 ADD PUSH1 0x0 SWAP1 SLOAD SWAP1 PUSH2 0x100 EXP SWAP1 DIV PUSH1 0xFF AND PUSH1 0x4 DUP2 GT ISZERO PUSH2 0x345F JUMPI INVALID JUMPDEST PUSH1 0x3 DUP11 PUSH1 0x40 MLOAD PUSH2 0x346F SWAP2 SWAP1 PUSH2 0x54E2 JUMP JUMPDEST SWAP1 DUP2 MSTORE PUSH1 0x20 ADD PUSH1 0x40 MLOAD DUP1 SWAP2 SUB SWAP1 KECCAK256 PUSH1 0x1 ADD PUSH1 0x0 SWAP1 SLOAD SWAP1 PUSH2 0x100 EXP SWAP1 DIV PUSH1 0xFF AND PUSH1 0x4 DUP2 GT ISZERO PUSH2 0x3499 JUMPI INVALID JUMPDEST PUSH1 0x0 DUP1 ADD PUSH1 0x4 DUP13 PUSH1 0x40 MLOAD PUSH2 0x34AD SWAP2 SWAP1 PUSH2 0x54E2 JUMP JUMPDEST SWAP1 DUP2 MSTORE PUSH1 0x20 ADD PUSH1 0x40 MLOAD DUP1 SWAP2 SUB SWAP1 KECCAK256 PUSH1 0x5 ADD PUSH1 0x4 DUP14 PUSH1 0x40 MLOAD PUSH2 0x34CE SWAP2 SWAP1 PUSH2 0x54E2 JUMP JUMPDEST SWAP1 DUP2 MSTORE PUSH1 0x20 ADD PUSH1 0x40 MLOAD DUP1 SWAP2 SUB SWAP1 KECCAK256 PUSH1 0x3 ADD SLOAD PUSH1 0x4 DUP15 PUSH1 0x40 MLOAD PUSH2 0x34F0 SWAP2 SWAP1 PUSH2 0x54E2 JUMP JUMPDEST SWAP1 DUP2 MSTORE PUSH1 0x20 ADD PUSH1 0x40 MLOAD DUP1 SWAP2 SUB SWAP1 KECCAK256 PUSH1 0x2 ADD PUSH1 0x1 SWAP1 SLOAD SWAP1 PUSH2 0x100 EXP SWAP1 DIV PUSH20 0xFFFFFFFFFFFFFFFFFFFFFFFFFFFFFFFFFFFFFFFF AND DUP7 DUP1 SLOAD PUSH1 0x1 DUP2 PUSH1 0x1 AND ISZERO PUSH2 0x100 MUL SUB AND PUSH1 0x2 SWAP1 DIV DUP1 PUSH1 0x1F ADD PUSH1 0x20 DUP1 SWAP2 DIV MUL PUSH1 0x20 ADD PUSH1 0x40 MLOAD SWAP1 DUP2 ADD PUSH1 0x40 MSTORE DUP1 SWAP3 SWAP2 SWAP1 DUP2 DUP2 MSTORE PUSH1 0x20 ADD DUP3 DUP1 SLOAD PUSH1 0x1 DUP2 PUSH1 0x1 AND ISZERO PUSH2 0x100 MUL SUB AND PUSH1 0x2 SWAP1 DIV DUP1 ISZERO PUSH2 0x35B7 JUMPI DUP1 PUSH1 0x1F LT PUSH2 0x358C JUMPI PUSH2 0x100 DUP1 DUP4 SLOAD DIV MUL DUP4 MSTORE SWAP2 PUSH1 0x20 ADD SWAP2 PUSH2 0x35B7 JUMP JUMPDEST DUP3 ADD SWAP2 SWAP1 PUSH1 0x0 MSTORE PUSH1 0x20 PUSH1 0x0 KECCAK256 SWAP1 JUMPDEST DUP2 SLOAD DUP2 MSTORE SWAP1 PUSH1 0x1 ADD SWAP1 PUSH1 0x20 ADD DUP1 DUP4 GT PUSH2 0x359A JUMPI DUP3 SWAP1 SUB PUSH1 0x1F AND DUP3 ADD SWAP2 JUMPDEST POP POP POP POP POP SWAP7 POP DUP4 DUP1 SLOAD PUSH1 0x1 DUP2 PUSH1 0x1 AND ISZERO PUSH2 0x100 MUL SUB AND PUSH1 0x2 SWAP1 DIV DUP1 PUSH1 0x1F ADD PUSH1 0x20 DUP1 SWAP2 DIV MUL PUSH1 0x20 ADD PUSH1 0x40 MLOAD SWAP1 DUP2 ADD PUSH1 0x40 MSTORE DUP1 SWAP3 SWAP2 SWAP1 DUP2 DUP2 MSTORE PUSH1 0x20 ADD DUP3 DUP1 SLOAD PUSH1 0x1 DUP2 PUSH1 0x1 AND ISZERO PUSH2 0x100 MUL SUB AND PUSH1 0x2 SWAP1 DIV DUP1 ISZERO PUSH2 0x3653 JUMPI DUP1 PUSH1 0x1F LT PUSH2 0x3628 JUMPI PUSH2 0x100 DUP1 DUP4 SLOAD DIV MUL DUP4 MSTORE SWAP2 PUSH1 0x20 ADD SWAP2 PUSH2 0x3653 JUMP JUMPDEST DUP3 ADD SWAP2 SWAP1 PUSH1 0x0 MSTORE PUSH1 0x20 PUSH1 0x0 KECCAK256 SWAP1 JUMPDEST DUP2 SLOAD DUP2 MSTORE SWAP1 PUSH1 0x1 ADD SWAP1 PUSH1 0x20 ADD DUP1 DUP4 GT PUSH2 0x3636 JUMPI DUP3 SWAP1 SUB PUSH1 0x1F AND DUP3 ADD SWAP2 JUMPDEST POP POP POP POP POP SWAP4 POP DUP3 DUP1 SLOAD DUP1 PUSH1 0x20 MUL PUSH1 0x20 ADD PUSH1 0x40 MLOAD SWAP1 DUP2 ADD PUSH1 0x40 MSTORE DUP1 SWAP3 SWAP2 SWAP1 DUP2 DUP2 MSTORE PUSH1 0x20 ADD DUP3 DUP1 SLOAD DUP1 ISZERO PUSH2 0x36A5 JUMPI PUSH1 0x20 MUL DUP3 ADD SWAP2 SWAP1 PUSH1 0x0 MSTORE PUSH1 0x20 PUSH1 0x0 KECCAK256 SWAP1 JUMPDEST DUP2 SLOAD DUP2 MSTORE PUSH1 0x20 ADD SWAP1 PUSH1 0x1 ADD SWAP1 DUP1 DUP4 GT PUSH2 0x3691 JUMPI JUMPDEST POP POP POP POP POP SWAP3 POP SWAP7 POP SWAP7 POP SWAP7 POP SWAP7 POP SWAP7 POP SWAP7 POP SWAP7 POP SWAP2 SWAP4 SWAP6 SWAP8 SWAP1 SWAP3 SWAP5 SWAP7 POP JUMP JUMPDEST PUSH1 0x0 DUP1 PUSH1 0x0 SWAP1 POP JUMPDEST PUSH1 0x4 DUP5 PUSH1 0x40 MLOAD PUSH2 0x36DD SWAP2 SWAP1 PUSH2 0x54E2 JUMP JUMPDEST SWAP1 DUP2 MSTORE PUSH1 0x20 ADD PUSH1 0x40 MLOAD DUP1 SWAP2 SUB SWAP1 KECCAK256 PUSH1 0x4 ADD DUP1 SLOAD SWAP1 POP DUP2 LT ISZERO PUSH2 0x37DC JUMPI PUSH1 0x4 DUP5 PUSH1 0x40 MLOAD PUSH2 0x3709 SWAP2 SWAP1 PUSH2 0x54E2 JUMP JUMPDEST SWAP1 DUP2 MSTORE PUSH1 0x20 ADD PUSH1 0x40 MLOAD DUP1 SWAP2 SUB SWAP1 KECCAK256 PUSH1 0x4 ADD DUP2 DUP2 SLOAD DUP2 LT PUSH2 0x3725 JUMPI INVALID JUMPDEST SWAP1 PUSH1 0x0 MSTORE PUSH1 0x20 PUSH1 0x0 KECCAK256 ADD PUSH1 0x0 SWAP1 SLOAD SWAP1 PUSH2 0x100 EXP SWAP1 DIV PUSH20 0xFFFFFFFFFFFFFFFFFFFFFFFFFFFFFFFFFFFFFFFF AND PUSH20 0xFFFFFFFFFFFFFFFFFFFFFFFFFFFFFFFFFFFFFFFF AND DUP4 PUSH20 0xFFFFFFFFFFFFFFFFFFFFFFFFFFFFFFFFFFFFFFFF AND EQ DUP1 ISZERO PUSH2 0x37C0 JUMPI POP PUSH1 0x1 PUSH1 0x4 DUP6 PUSH1 0x40 MLOAD PUSH2 0x3797 SWAP2 SWAP1 PUSH2 0x54E2 JUMP JUMPDEST SWAP1 DUP2 MSTORE PUSH1 0x20 ADD PUSH1 0x40 MLOAD DUP1 SWAP2 SUB SWAP1 KECCAK256 PUSH1 0x6 ADD DUP3 DUP2 SLOAD DUP2 LT PUSH2 0x37B3 JUMPI INVALID JUMPDEST SWAP1 PUSH1 0x0 MSTORE PUSH1 0x20 PUSH1 0x0 KECCAK256 ADD SLOAD EQ JUMPDEST ISZERO PUSH2 0x37CF JUMPI PUSH1 0x1 SWAP2 POP POP PUSH2 0x37E2 JUMP JUMPDEST DUP1 DUP1 PUSH1 0x1 ADD SWAP2 POP POP PUSH2 0x36CD JUMP JUMPDEST POP PUSH1 0x0 SWAP1 POP JUMPDEST SWAP3 SWAP2 POP POP JUMP JUMPDEST PUSH1 0x60 PUSH1 0x3 DUP3 PUSH1 0x40 MLOAD PUSH2 0x37FA SWAP2 SWAP1 PUSH2 0x54E2 JUMP JUMPDEST SWAP1 DUP2 MSTORE PUSH1 0x20 ADD PUSH1 0x40 MLOAD DUP1 SWAP2 SUB SWAP1 KECCAK256 PUSH1 0xC ADD DUP1 SLOAD DUP1 PUSH1 0x20 MUL PUSH1 0x20 ADD PUSH1 0x40 MLOAD SWAP1 DUP2 ADD PUSH1 0x40 MSTORE DUP1 SWAP3 SWAP2 SWAP1 DUP2 DUP2 MSTORE PUSH1 0x20 ADD DUP3 DUP1 SLOAD DUP1 ISZERO PUSH2 0x3855 JUMPI PUSH1 0x20 MUL DUP3 ADD SWAP2 SWAP1 PUSH1 0x0 MSTORE PUSH1 0x20 PUSH1 0x0 KECCAK256 SWAP1 JUMPDEST DUP2 SLOAD DUP2 MSTORE PUSH1 0x20 ADD SWAP1 PUSH1 0x1 ADD SWAP1 DUP1 DUP4 GT PUSH2 0x3841 JUMPI JUMPDEST POP POP POP POP POP SWAP1 POP SWAP2 SWAP1 POP JUMP JUMPDEST CALLER PUSH20 0xFFFFFFFFFFFFFFFFFFFFFFFFFFFFFFFFFFFFFFFF AND DUP6 PUSH20 0xFFFFFFFFFFFFFFFFFFFFFFFFFFFFFFFFFFFFFFFF AND EQ PUSH2 0x38CF JUMPI PUSH1 0x40 MLOAD PUSH32 0x8C379A000000000000000000000000000000000000000000000000000000000 DUP2 MSTORE PUSH1 0x4 ADD PUSH2 0x38C6 SWAP1 PUSH2 0x57B0 JUMP JUMPDEST PUSH1 0x40 MLOAD DUP1 SWAP2 SUB SWAP1 REVERT JUMPDEST PUSH1 0x40 MLOAD DUP1 PUSH1 0x40 ADD PUSH1 0x40 MSTORE DUP1 PUSH1 0x1B DUP2 MSTORE PUSH1 0x20 ADD PUSH32 0x6368672072657175657374206265696E672070726F6365737365640000000000 DUP2 MSTORE POP PUSH1 0x0 DUP1 ADD SWAP1 DUP1 MLOAD SWAP1 PUSH1 0x20 ADD SWAP1 PUSH2 0x391C SWAP3 SWAP2 SWAP1 PUSH2 0x3CC7 JUMP JUMPDEST POP PUSH1 0x3 PUSH1 0x4 DUP2 GT ISZERO PUSH2 0x392A JUMPI INVALID JUMPDEST PUSH1 0x4 DUP4 PUSH1 0x40 MLOAD PUSH2 0x393A SWAP2 SWAP1 PUSH2 0x54E2 JUMP JUMPDEST SWAP1 DUP2 MSTORE PUSH1 0x20 ADD PUSH1 0x40 MLOAD DUP1 SWAP2 SUB SWAP1 KECCAK256 PUSH1 0x2 ADD PUSH1 0x0 SWAP1 SLOAD SWAP1 PUSH2 0x100 EXP SWAP1 DIV PUSH1 0xFF AND PUSH1 0x4 DUP2 GT ISZERO PUSH2 0x3964 JUMPI INVALID JUMPDEST EQ ISZERO PUSH2 0x3B88 JUMPI PUSH1 0x40 MLOAD DUP1 PUSH1 0x40 ADD PUSH1 0x40 MSTORE DUP1 PUSH1 0x15 DUP2 MSTORE PUSH1 0x20 ADD PUSH32 0x63686720726571756573742076616C6964617465640000000000000000000000 DUP2 MSTORE POP PUSH1 0x0 DUP1 ADD SWAP1 DUP1 MLOAD SWAP1 PUSH1 0x20 ADD SWAP1 PUSH2 0x39B7 SWAP3 SWAP2 SWAP1 PUSH2 0x3CC7 JUMP JUMPDEST POP PUSH1 0x2 PUSH1 0x4 DUP4 PUSH1 0x40 MLOAD PUSH2 0x39CA SWAP2 SWAP1 PUSH2 0x54E2 JUMP JUMPDEST SWAP1 DUP2 MSTORE PUSH1 0x20 ADD PUSH1 0x40 MLOAD DUP1 SWAP2 SUB SWAP1 KECCAK256 PUSH1 0x2 ADD PUSH1 0x0 PUSH2 0x100 EXP DUP2 SLOAD DUP2 PUSH1 0xFF MUL NOT AND SWAP1 DUP4 PUSH1 0x4 DUP2 GT ISZERO PUSH2 0x39F6 JUMPI INVALID JUMPDEST MUL OR SWAP1 SSTORE POP DUP1 PUSH1 0x4 DUP4 PUSH1 0x40 MLOAD PUSH2 0x3A0C SWAP2 SWAP1 PUSH2 0x54E2 JUMP JUMPDEST SWAP1 DUP2 MSTORE PUSH1 0x20 ADD PUSH1 0x40 MLOAD DUP1 SWAP2 SUB SWAP1 KECCAK256 PUSH1 0x1 ADD SWAP1 DUP1 MLOAD SWAP1 PUSH1 0x20 ADD SWAP1 PUSH2 0x3A30 SWAP3 SWAP2 SWAP1 PUSH2 0x3CC7 JUMP JUMPDEST POP DUP5 PUSH1 0x4 DUP4 PUSH1 0x40 MLOAD PUSH2 0x3A42 SWAP2 SWAP1 PUSH2 0x54E2 JUMP JUMPDEST SWAP1 DUP2 MSTORE PUSH1 0x20 ADD PUSH1 0x40 MLOAD DUP1 SWAP2 SUB SWAP1 KECCAK256 PUSH1 0x2 ADD PUSH1 0x1 PUSH2 0x100 EXP DUP2 SLOAD DUP2 PUSH20 0xFFFFFFFFFFFFFFFFFFFFFFFFFFFFFFFFFFFFFFFF MUL NOT AND SWAP1 DUP4 PUSH20 0xFFFFFFFFFFFFFFFFFFFFFFFFFFFFFFFFFFFFFFFF AND MUL OR SWAP1 SSTORE POP DUP4 MLOAD PUSH1 0x4 DUP4 PUSH1 0x40 MLOAD PUSH2 0x3AA3 SWAP2 SWAP1 PUSH2 0x54E2 JUMP JUMPDEST SWAP1 DUP2 MSTORE PUSH1 0x20 ADD PUSH1 0x40 MLOAD DUP1 SWAP2 SUB SWAP1 KECCAK256 PUSH1 0x3 ADD DUP2 SWAP1 SSTORE POP DUP4 PUSH1 0x4 DUP4 PUSH1 0x40 MLOAD PUSH2 0x3AC9 SWAP2 SWAP1 PUSH2 0x54E2 JUMP JUMPDEST SWAP1 DUP2 MSTORE PUSH1 0x20 ADD PUSH1 0x40 MLOAD DUP1 SWAP2 SUB SWAP1 KECCAK256 PUSH1 0x4 ADD SWAP1 DUP1 MLOAD SWAP1 PUSH1 0x20 ADD SWAP1 PUSH2 0x3AED SWAP3 SWAP2 SWAP1 PUSH2 0x4115 JUMP JUMPDEST POP PUSH1 0x0 DUP1 SWAP1 POP JUMPDEST DUP5 MLOAD DUP2 LT ISZERO PUSH2 0x3B82 JUMPI DUP6 PUSH20 0xFFFFFFFFFFFFFFFFFFFFFFFFFFFFFFFFFFFFFFFF AND DUP6 DUP3 DUP2 MLOAD DUP2 LT PUSH2 0x3B20 JUMPI INVALID JUMPDEST PUSH1 0x20 MUL PUSH1 0x20 ADD ADD MLOAD PUSH20 0xFFFFFFFFFFFFFFFFFFFFFFFFFFFFFFFFFFFFFFFF AND PUSH32 0x8DAE525CABDDE2B20F26998F05E6C504721BA1CEA6F7229604CBEE3A7267A015 DUP7 PUSH1 0x40 MLOAD PUSH2 0x3B6D SWAP2 SWAP1 PUSH2 0x5609 JUMP JUMPDEST PUSH1 0x40 MLOAD DUP1 SWAP2 SUB SWAP1 LOG3 DUP1 DUP1 PUSH1 0x1 ADD SWAP2 POP POP PUSH2 0x3AF4 JUMP JUMPDEST POP PUSH2 0x3BD7 JUMP JUMPDEST DUP5 PUSH20 0xFFFFFFFFFFFFFFFFFFFFFFFFFFFFFFFFFFFFFFFF AND PUSH32 0xC4F2AFAE15F3E7DA4E4F139081D67F69EF9F4C3736A6649EB2FA185377130315 DUP3 PUSH1 0x40 MLOAD PUSH2 0x3BCE SWAP2 SWAP1 PUSH2 0x5662 JUMP JUMPDEST PUSH1 0x40 MLOAD DUP1 SWAP2 SUB SWAP1 LOG2 JUMPDEST POP POP POP POP POP JUMP JUMPDEST PUSH1 0x60 PUSH1 0x2 DUP1 SLOAD DUP1 PUSH1 0x20 MUL PUSH1 0x20 ADD PUSH1 0x40 MLOAD SWAP1 DUP2 ADD PUSH1 0x40 MSTORE DUP1 SWAP3 SWAP2 SWAP1 DUP2 DUP2 MSTORE PUSH1 0x20 ADD PUSH1 0x0 SWAP1 JUMPDEST DUP3 DUP3 LT ISZERO PUSH2 0x3CBE JUMPI DUP4 DUP3 SWAP1 PUSH1 0x0 MSTORE PUSH1 0x20 PUSH1 0x0 KECCAK256 ADD DUP1 SLOAD PUSH1 0x1 DUP2 PUSH1 0x1 AND ISZERO PUSH2 0x100 MUL SUB AND PUSH1 0x2 SWAP1 DIV DUP1 PUSH1 0x1F ADD PUSH1 0x20 DUP1 SWAP2 DIV MUL PUSH1 0x20 ADD PUSH1 0x40 MLOAD SWAP1 DUP2 ADD PUSH1 0x40 MSTORE DUP1 SWAP3 SWAP2 SWAP1 DUP2 DUP2 MSTORE PUSH1 0x20 ADD DUP3 DUP1 SLOAD PUSH1 0x1 DUP2 PUSH1 0x1 AND ISZERO PUSH2 0x100 MUL SUB AND PUSH1 0x2 SWAP1 DIV DUP1 ISZERO PUSH2 0x3CAA JUMPI DUP1 PUSH1 0x1F LT PUSH2 0x3C7F JUMPI PUSH2 0x100 DUP1 DUP4 SLOAD DIV MUL DUP4 MSTORE SWAP2 PUSH1 0x20 ADD SWAP2 PUSH2 0x3CAA JUMP JUMPDEST DUP3 ADD SWAP2 SWAP1 PUSH1 0x0 MSTORE PUSH1 0x20 PUSH1 0x0 KECCAK256 SWAP1 JUMPDEST DUP2 SLOAD DUP2 MSTORE SWAP1 PUSH1 0x1 ADD SWAP1 PUSH1 0x20 ADD DUP1 DUP4 GT PUSH2 0x3C8D JUMPI DUP3 SWAP1 SUB PUSH1 0x1F AND DUP3 ADD SWAP2 JUMPDEST POP POP POP POP POP DUP2 MSTORE PUSH1 0x20 ADD SWAP1 PUSH1 0x1 ADD SWAP1 PUSH2 0x3C02 JUMP JUMPDEST POP POP POP POP SWAP1 POP SWAP1 JUMP JUMPDEST DUP3 DUP1 SLOAD PUSH1 0x1 DUP2 PUSH1 0x1 AND ISZERO PUSH2 0x100 MUL SUB AND PUSH1 0x2 SWAP1 DIV SWAP1 PUSH1 0x0 MSTORE PUSH1 0x20 PUSH1 0x0 KECCAK256 SWAP1 PUSH1 0x1F ADD PUSH1 0x20 SWAP1 DIV DUP2 ADD SWAP3 DUP3 PUSH1 0x1F LT PUSH2 0x3D08 JUMPI DUP1 MLOAD PUSH1 0xFF NOT AND DUP4 DUP1 ADD OR DUP6 SSTORE PUSH2 0x3D36 JUMP JUMPDEST DUP3 DUP1 ADD PUSH1 0x1 ADD DUP6 SSTORE DUP3 ISZERO PUSH2 0x3D36 JUMPI SWAP2 DUP3 ADD JUMPDEST DUP3 DUP2 GT ISZERO PUSH2 0x3D35 JUMPI DUP3 MLOAD DUP3 SSTORE SWAP2 PUSH1 0x20 ADD SWAP2 SWAP1 PUSH1 0x1 ADD SWAP1 PUSH2 0x3D1A JUMP JUMPDEST JUMPDEST POP SWAP1 POP PUSH2 0x3D43 SWAP2 SWAP1 PUSH2 0x419F JUMP JUMPDEST POP SWAP1 JUMP JUMPDEST PUSH2 0x5F0 DUP1 PUSH2 0x5D0D DUP4 CODECOPY ADD SWAP1 JUMP JUMPDEST PUSH1 0x40 MLOAD DUP1 PUSH1 0x40 ADD PUSH1 0x40 MSTORE DUP1 PUSH1 0x0 PUSH4 0xFFFFFFFF AND DUP2 MSTORE PUSH1 0x20 ADD PUSH1 0x0 DUP2 MSTORE POP SWAP1 JUMP JUMPDEST PUSH1 0x40 MLOAD DUP1 PUSH1 0x60 ADD PUSH1 0x40 MSTORE DUP1 PUSH1 0x60 DUP2 MSTORE PUSH1 0x20 ADD PUSH1 0x60 DUP2 MSTORE PUSH1 0x20 ADD PUSH1 0x60 DUP2 MSTORE POP SWAP1 JUMP JUMPDEST PUSH1 0x40 MLOAD DUP1 PUSH2 0x1C0 ADD PUSH1 0x40 MSTORE DUP1 PUSH1 0x60 DUP2 MSTORE PUSH1 0x20 ADD PUSH1 0x0 PUSH1 0x4 DUP2 GT ISZERO PUSH2 0x3DB5 JUMPI INVALID JUMPDEST DUP2 MSTORE PUSH1 0x20 ADD PUSH1 0x60 DUP2 MSTORE PUSH1 0x20 ADD PUSH2 0x3DC9 PUSH2 0x41C4 JUMP JUMPDEST DUP2 MSTORE PUSH1 0x20 ADD PUSH1 0x60 DUP2 MSTORE PUSH1 0x20 ADD PUSH1 0x60 DUP2 MSTORE PUSH1 0x20 ADD PUSH1 0x60 DUP2 MSTORE PUSH1 0x20 ADD PUSH1 0x0 DUP2 MSTORE PUSH1 0x20 ADD PUSH1 0x60 DUP2 MSTORE PUSH1 0x20 ADD PUSH1 0x60 DUP2 MSTORE PUSH1 0x20 ADD PUSH1 0x60 DUP2 MSTORE PUSH1 0x20 ADD PUSH1 0x60 DUP2 MSTORE PUSH1 0x20 ADD PUSH2 0x3E0E PUSH2 0x41E5 JUMP JUMPDEST DUP2 MSTORE PUSH1 0x20 ADD PUSH1 0x0 PUSH20 0xFFFFFFFFFFFFFFFFFFFFFFFFFFFFFFFFFFFFFFFF AND DUP2 MSTORE POP SWAP1 JUMP JUMPDEST DUP3 DUP1 SLOAD PUSH1 0x1 DUP2 PUSH1 0x1 AND ISZERO PUSH2 0x100 MUL SUB AND PUSH1 0x2 SWAP1 DIV SWAP1 PUSH1 0x0 MSTORE PUSH1 0x20 PUSH1 0x0 KECCAK256 SWAP1 PUSH1 0x1F ADD PUSH1 0x20 SWAP1 DIV DUP2 ADD SWAP3 DUP3 PUSH1 0x1F LT PUSH2 0x3E72 JUMPI DUP1 MLOAD PUSH1 0xFF NOT AND DUP4 DUP1 ADD OR DUP6 SSTORE PUSH2 0x3EA0 JUMP JUMPDEST DUP3 DUP1 ADD PUSH1 0x1 ADD DUP6 SSTORE DUP3 ISZERO PUSH2 0x3EA0 JUMPI SWAP2 DUP3 ADD JUMPDEST DUP3 DUP2 GT ISZERO PUSH2 0x3E9F JUMPI DUP3 MLOAD DUP3 SSTORE SWAP2 PUSH1 0x20 ADD SWAP2 SWAP1 PUSH1 0x1 ADD SWAP1 PUSH2 0x3E84 JUMP JUMPDEST JUMPDEST POP SWAP1 POP PUSH2 0x3EAD SWAP2 SWAP1 PUSH2 0x419F JUMP JUMPDEST POP SWAP1 JUMP JUMPDEST DUP3 DUP1 SLOAD DUP3 DUP3 SSTORE SWAP1 PUSH1 0x0 MSTORE PUSH1 0x20 PUSH1 0x0 KECCAK256 SWAP1 DUP2 ADD SWAP3 DUP3 ISZERO PUSH2 0x3EED JUMPI SWAP2 PUSH1 0x20 MUL DUP3 ADD JUMPDEST DUP3 DUP2 GT ISZERO PUSH2 0x3EEC JUMPI DUP3 MLOAD DUP3 SSTORE SWAP2 PUSH1 0x20 ADD SWAP2 SWAP1 PUSH1 0x1 ADD SWAP1 PUSH2 0x3ED1 JUMP JUMPDEST JUMPDEST POP SWAP1 POP PUSH2 0x3EFA SWAP2 SWAP1 PUSH2 0x419F JUMP JUMPDEST POP SWAP1 JUMP JUMPDEST DUP3 DUP1 SLOAD DUP3 DUP3 SSTORE SWAP1 PUSH1 0x0 MSTORE PUSH1 0x20 PUSH1 0x0 KECCAK256 SWAP1 DUP2 ADD SWAP3 DUP3 ISZERO PUSH2 0x3F77 JUMPI SWAP2 PUSH1 0x20 MUL DUP3 ADD JUMPDEST DUP3 DUP2 GT ISZERO PUSH2 0x3F76 JUMPI DUP3 MLOAD DUP3 PUSH1 0x0 PUSH2 0x100 EXP DUP2 SLOAD DUP2 PUSH20 0xFFFFFFFFFFFFFFFFFFFFFFFFFFFFFFFFFFFFFFFF MUL NOT AND SWAP1 DUP4 PUSH20 0xFFFFFFFFFFFFFFFFFFFFFFFFFFFFFFFFFFFFFFFF AND MUL OR SWAP1 SSTORE POP SWAP2 PUSH1 0x20 ADD SWAP2 SWAP1 PUSH1 0x1 ADD SWAP1 PUSH2 0x3F1E JUMP JUMPDEST JUMPDEST POP SWAP1 POP PUSH2 0x3F84 SWAP2 SWAP1 PUSH2 0x4205 JUMP JUMPDEST POP SWAP1 JUMP JUMPDEST DUP3 DUP1 SLOAD DUP3 DUP3 SSTORE SWAP1 PUSH1 0x0 MSTORE PUSH1 0x20 PUSH1 0x0 KECCAK256 SWAP1 DUP2 ADD SWAP3 DUP3 ISZERO PUSH2 0x3FD7 JUMPI SWAP2 PUSH1 0x20 MUL DUP3 ADD JUMPDEST DUP3 DUP2 GT ISZERO PUSH2 0x3FD6 JUMPI DUP3 MLOAD DUP3 SWAP1 DUP1 MLOAD SWAP1 PUSH1 0x20 ADD SWAP1 PUSH2 0x3FC6 SWAP3 SWAP2 SWAP1 PUSH2 0x3E31 JUMP JUMPDEST POP SWAP2 PUSH1 0x20 ADD SWAP2 SWAP1 PUSH1 0x1 ADD SWAP1 PUSH2 0x3FA8 JUMP JUMPDEST JUMPDEST POP SWAP1 POP PUSH2 0x3FE4 SWAP2 SWAP1 PUSH2 0x4248 JUMP JUMPDEST POP SWAP1 JUMP JUMPDEST DUP3 DUP1 SLOAD DUP3 DUP3 SSTORE SWAP1 PUSH1 0x0 MSTORE PUSH1 0x20 PUSH1 0x0 KECCAK256 SWAP1 DUP2 ADD SWAP3 DUP3 ISZERO PUSH2 0x4037 JUMPI SWAP2 PUSH1 0x20 MUL DUP3 ADD JUMPDEST DUP3 DUP2 GT ISZERO PUSH2 0x4036 JUMPI DUP3 MLOAD DUP3 SWAP1 DUP1 MLOAD SWAP1 PUSH1 0x20 ADD SWAP1 PUSH2 0x4026 SWAP3 SWAP2 SWAP1 PUSH2 0x4274 JUMP JUMPDEST POP SWAP2 PUSH1 0x20 ADD SWAP2 SWAP1 PUSH1 0x1 ADD SWAP1 PUSH2 0x4008 JUMP JUMPDEST JUMPDEST POP SWAP1 POP PUSH2 0x4044 SWAP2 SWAP1 PUSH2 0x42F4 JUMP JUMPDEST POP SWAP1 JUMP JUMPDEST DUP3 DUP1 SLOAD DUP3 DUP3 SSTORE SWAP1 PUSH1 0x0 MSTORE PUSH1 0x20 PUSH1 0x0 KECCAK256 SWAP1 DUP2 ADD SWAP3 DUP3 ISZERO PUSH2 0x4097 JUMPI SWAP2 PUSH1 0x20 MUL DUP3 ADD JUMPDEST DUP3 DUP2 GT ISZERO PUSH2 0x4096 JUMPI DUP3 MLOAD DUP3 SWAP1 DUP1 MLOAD SWAP1 PUSH1 0x20 ADD SWAP1 PUSH2 0x4086 SWAP3 SWAP2 SWAP1 PUSH2 0x4320 JUMP JUMPDEST POP SWAP2 PUSH1 0x20 ADD SWAP2 SWAP1 PUSH1 0x1 ADD SWAP1 PUSH2 0x4068 JUMP JUMPDEST JUMPDEST POP SWAP1 POP PUSH2 0x40A4 SWAP2 SWAP1 PUSH2 0x4380 JUMP JUMPDEST POP SWAP1 JUMP JUMPDEST PUSH1 0x40 MLOAD DUP1 PUSH2 0x120 ADD PUSH1 0x40 MSTORE DUP1 PUSH1 0x60 DUP2 MSTORE PUSH1 0x20 ADD PUSH1 0x60 DUP2 MSTORE PUSH1 0x20 ADD PUSH1 0x0 PUSH1 0x4 DUP2 GT ISZERO PUSH2 0x40CF JUMPI INVALID JUMPDEST DUP2 MSTORE PUSH1 0x20 ADD PUSH1 0x0 PUSH20 0xFFFFFFFFFFFFFFFFFFFFFFFFFFFFFFFFFFFFFFFF AND DUP2 MSTORE PUSH1 0x20 ADD PUSH1 0x0 DUP2 MSTORE PUSH1 0x20 ADD PUSH1 0x60 DUP2 MSTORE PUSH1 0x20 ADD PUSH1 0x60 DUP2 MSTORE PUSH1 0x20 ADD PUSH1 0x60 DUP2 MSTORE PUSH1 0x20 ADD PUSH1 0x60 DUP2 MSTORE POP SWAP1 JUMP JUMPDEST DUP3 DUP1 SLOAD DUP3 DUP3 SSTORE SWAP1 PUSH1 0x0 MSTORE PUSH1 0x20 PUSH1 0x0 KECCAK256 SWAP1 DUP2 ADD SWAP3 DUP3 ISZERO PUSH2 0x418E JUMPI SWAP2 PUSH1 0x20 MUL DUP3 ADD JUMPDEST DUP3 DUP2 GT ISZERO PUSH2 0x418D JUMPI DUP3 MLOAD DUP3 PUSH1 0x0 PUSH2 0x100 EXP DUP2 SLOAD DUP2 PUSH20 0xFFFFFFFFFFFFFFFFFFFFFFFFFFFFFFFFFFFFFFFF MUL NOT AND SWAP1 DUP4 PUSH20 0xFFFFFFFFFFFFFFFFFFFFFFFFFFFFFFFFFFFFFFFF AND MUL OR SWAP1 SSTORE POP SWAP2 PUSH1 0x20 ADD SWAP2 SWAP1 PUSH1 0x1 ADD SWAP1 PUSH2 0x4135 JUMP JUMPDEST JUMPDEST POP SWAP1 POP PUSH2 0x419B SWAP2 SWAP1 PUSH2 0x4205 JUMP JUMPDEST POP SWAP1 JUMP JUMPDEST PUSH2 0x41C1 SWAP2 SWAP1 JUMPDEST DUP1 DUP3 GT ISZERO PUSH2 0x41BD JUMPI PUSH1 0x0 DUP2 PUSH1 0x0 SWAP1 SSTORE POP PUSH1 0x1 ADD PUSH2 0x41A5 JUMP JUMPDEST POP SWAP1 JUMP JUMPDEST SWAP1 JUMP JUMPDEST PUSH1 0x40 MLOAD DUP1 PUSH1 0x60 ADD PUSH1 0x40 MSTORE DUP1 PUSH1 0x60 DUP2 MSTORE PUSH1 0x20 ADD PUSH1 0x60 DUP2 MSTORE PUSH1 0x20 ADD PUSH1 0x60 DUP2 MSTORE POP SWAP1 JUMP JUMPDEST PUSH1 0x40 MLOAD DUP1 PUSH1 0x40 ADD PUSH1 0x40 MSTORE DUP1 PUSH1 0x0 PUSH4 0xFFFFFFFF AND DUP2 MSTORE PUSH1 0x20 ADD PUSH1 0x0 DUP2 MSTORE POP SWAP1 JUMP JUMPDEST PUSH2 0x4245 SWAP2 SWAP1 JUMPDEST DUP1 DUP3 GT ISZERO PUSH2 0x4241 JUMPI PUSH1 0x0 DUP2 DUP2 PUSH2 0x100 EXP DUP2 SLOAD SWAP1 PUSH20 0xFFFFFFFFFFFFFFFFFFFFFFFFFFFFFFFFFFFFFFFF MUL NOT AND SWAP1 SSTORE POP PUSH1 0x1 ADD PUSH2 0x420B JUMP JUMPDEST POP SWAP1 JUMP JUMPDEST SWAP1 JUMP JUMPDEST PUSH2 0x4271 SWAP2 SWAP1 JUMPDEST DUP1 DUP3 GT ISZERO PUSH2 0x426D JUMPI PUSH1 0x0 DUP2 DUP2 PUSH2 0x4264 SWAP2 SWAP1 PUSH2 0x43AC JUMP JUMPDEST POP PUSH1 0x1 ADD PUSH2 0x424E JUMP JUMPDEST POP SWAP1 JUMP JUMPDEST SWAP1 JUMP JUMPDEST DUP3 DUP1 SLOAD PUSH1 0x1 DUP2 PUSH1 0x1 AND ISZERO PUSH2 0x100 MUL SUB AND PUSH1 0x2 SWAP1 DIV SWAP1 PUSH1 0x0 MSTORE PUSH1 0x20 PUSH1 0x0 KECCAK256 SWAP1 PUSH1 0x1F ADD PUSH1 0x20 SWAP1 DIV DUP2 ADD SWAP3 DUP3 PUSH1 0x1F LT PUSH2 0x42B5 JUMPI DUP1 MLOAD PUSH1 0xFF NOT AND DUP4 DUP1 ADD OR DUP6 SSTORE PUSH2 0x42E3 JUMP JUMPDEST DUP3 DUP1 ADD PUSH1 0x1 ADD DUP6 SSTORE DUP3 ISZERO PUSH2 0x42E3 JUMPI SWAP2 DUP3 ADD JUMPDEST DUP3 DUP2 GT ISZERO PUSH2 0x42E2 JUMPI DUP3 MLOAD DUP3 SSTORE SWAP2 PUSH1 0x20 ADD SWAP2 SWAP1 PUSH1 0x1 ADD SWAP1 PUSH2 0x42C7 JUMP JUMPDEST JUMPDEST POP SWAP1 POP PUSH2 0x42F0 SWAP2 SWAP1 PUSH2 0x419F JUMP JUMPDEST POP SWAP1 JUMP JUMPDEST PUSH2 0x431D SWAP2 SWAP1 JUMPDEST DUP1 DUP3 GT ISZERO PUSH2 0x4319 JUMPI PUSH1 0x0 DUP2 DUP2 PUSH2 0x4310 SWAP2 SWAP1 PUSH2 0x43F4 JUMP JUMPDEST POP PUSH1 0x1 ADD PUSH2 0x42FA JUMP JUMPDEST POP SWAP1 JUMP JUMPDEST SWAP1 JUMP JUMPDEST DUP3 DUP1 SLOAD DUP3 DUP3 SSTORE SWAP1 PUSH1 0x0 MSTORE PUSH1 0x20 PUSH1 0x0 KECCAK256 SWAP1 DUP2 ADD SWAP3 DUP3 ISZERO PUSH2 0x436F JUMPI SWAP2 PUSH1 0x20 MUL DUP3 ADD JUMPDEST DUP3 DUP2 GT ISZERO PUSH2 0x436E JUMPI DUP3 MLOAD DUP3 SWAP1 DUP1 MLOAD SWAP1 PUSH1 0x20 ADD SWAP1 PUSH2 0x435E SWAP3 SWAP2 SWAP1 PUSH2 0x3EB1 JUMP JUMPDEST POP SWAP2 PUSH1 0x20 ADD SWAP2 SWAP1 PUSH1 0x1 ADD SWAP1 PUSH2 0x4340 JUMP JUMPDEST JUMPDEST POP SWAP1 POP PUSH2 0x437C SWAP2 SWAP1 PUSH2 0x443C JUMP JUMPDEST POP SWAP1 JUMP JUMPDEST PUSH2 0x43A9 SWAP2 SWAP1 JUMPDEST DUP1 DUP3 GT ISZERO PUSH2 0x43A5 JUMPI PUSH1 0x0 DUP2 DUP2 PUSH2 0x439C SWAP2 SWAP1 PUSH2 0x4468 JUMP JUMPDEST POP PUSH1 0x1 ADD PUSH2 0x4386 JUMP JUMPDEST POP SWAP1 JUMP JUMPDEST SWAP1 JUMP JUMPDEST POP DUP1 SLOAD PUSH1 0x1 DUP2 PUSH1 0x1 AND ISZERO PUSH2 0x100 MUL SUB AND PUSH1 0x2 SWAP1 DIV PUSH1 0x0 DUP3 SSTORE DUP1 PUSH1 0x1F LT PUSH2 0x43D2 JUMPI POP PUSH2 0x43F1 JUMP JUMPDEST PUSH1 0x1F ADD PUSH1 0x20 SWAP1 DIV SWAP1 PUSH1 0x0 MSTORE PUSH1 0x20 PUSH1 0x0 KECCAK256 SWAP1 DUP2 ADD SWAP1 PUSH2 0x43F0 SWAP2 SWAP1 PUSH2 0x419F JUMP JUMPDEST JUMPDEST POP JUMP JUMPDEST POP DUP1 SLOAD PUSH1 0x1 DUP2 PUSH1 0x1 AND ISZERO PUSH2 0x100 MUL SUB AND PUSH1 0x2 SWAP1 DIV PUSH1 0x0 DUP3 SSTORE DUP1 PUSH1 0x1F LT PUSH2 0x441A JUMPI POP PUSH2 0x4439 JUMP JUMPDEST PUSH1 0x1F ADD PUSH1 0x20 SWAP1 DIV SWAP1 PUSH1 0x0 MSTORE PUSH1 0x20 PUSH1 0x0 KECCAK256 SWAP1 DUP2 ADD SWAP1 PUSH2 0x4438 SWAP2 SWAP1 PUSH2 0x419F JUMP JUMPDEST JUMPDEST POP JUMP JUMPDEST PUSH2 0x4465 SWAP2 SWAP1 JUMPDEST DUP1 DUP3 GT ISZERO PUSH2 0x4461 JUMPI PUSH1 0x0 DUP2 DUP2 PUSH2 0x4458 SWAP2 SWAP1 PUSH2 0x4489 JUMP JUMPDEST POP PUSH1 0x1 ADD PUSH2 0x4442 JUMP JUMPDEST POP SWAP1 JUMP JUMPDEST SWAP1 JUMP JUMPDEST POP DUP1 SLOAD PUSH1 0x0 DUP3 SSTORE SWAP1 PUSH1 0x0 MSTORE PUSH1 0x20 PUSH1 0x0 KECCAK256 SWAP1 DUP2 ADD SWAP1 PUSH2 0x4486 SWAP2 SWAP1 PUSH2 0x443C JUMP JUMPDEST POP JUMP JUMPDEST POP DUP1 SLOAD PUSH1 0x0 DUP3 SSTORE SWAP1 PUSH1 0x0 MSTORE PUSH1 0x20 PUSH1 0x0 KECCAK256 SWAP1 DUP2 ADD SWAP1 PUSH2 0x44A7 SWAP2 SWAP1 PUSH2 0x419F JUMP JUMPDEST POP JUMP JUMPDEST PUSH1 0x0 DUP2 CALLDATALOAD SWAP1 POP PUSH2 0x44B9 DUP2 PUSH2 0x5CC7 JUMP JUMPDEST SWAP3 SWAP2 POP POP JUMP JUMPDEST PUSH1 0x0 DUP3 PUSH1 0x1F DUP4 ADD SLT PUSH2 0x44D0 JUMPI PUSH1 0x0 DUP1 REVERT JUMPDEST DUP2 CALLDATALOAD PUSH2 0x44E3 PUSH2 0x44DE DUP3 PUSH2 0x5853 JUMP JUMPDEST PUSH2 0x5826 JUMP JUMPDEST SWAP2 POP DUP2 DUP2 DUP4 MSTORE PUSH1 0x20 DUP5 ADD SWAP4 POP PUSH1 0x20 DUP2 ADD SWAP1 POP DUP4 DUP6 PUSH1 0x20 DUP5 MUL DUP3 ADD GT ISZERO PUSH2 0x4508 JUMPI PUSH1 0x0 DUP1 REVERT JUMPDEST PUSH1 0x0 JUMPDEST DUP4 DUP2 LT ISZERO PUSH2 0x4538 JUMPI DUP2 PUSH2 0x451E DUP9 DUP3 PUSH2 0x44AA JUMP JUMPDEST DUP5 MSTORE PUSH1 0x20 DUP5 ADD SWAP4 POP PUSH1 0x20 DUP4 ADD SWAP3 POP POP PUSH1 0x1 DUP2 ADD SWAP1 POP PUSH2 0x450B JUMP JUMPDEST POP POP POP POP SWAP3 SWAP2 POP POP JUMP JUMPDEST PUSH1 0x0 DUP3 PUSH1 0x1F DUP4 ADD SLT PUSH2 0x4553 JUMPI PUSH1 0x0 DUP1 REVERT JUMPDEST DUP2 CALLDATALOAD PUSH2 0x4566 PUSH2 0x4561 DUP3 PUSH2 0x587B JUMP JUMPDEST PUSH2 0x5826 JUMP JUMPDEST SWAP2 POP DUP2 DUP2 DUP4 MSTORE PUSH1 0x20 DUP5 ADD SWAP4 POP PUSH1 0x20 DUP2 ADD SWAP1 POP DUP4 PUSH1 0x0 JUMPDEST DUP4 DUP2 LT ISZERO PUSH2 0x45AC JUMPI DUP2 CALLDATALOAD DUP7 ADD PUSH2 0x4592 DUP9 DUP3 PUSH2 0x45B6 JUMP JUMPDEST DUP5 MSTORE PUSH1 0x20 DUP5 ADD SWAP4 POP PUSH1 0x20 DUP4 ADD SWAP3 POP POP PUSH1 0x1 DUP2 ADD SWAP1 POP PUSH2 0x457C JUMP JUMPDEST POP POP POP POP SWAP3 SWAP2 POP POP JUMP JUMPDEST PUSH1 0x0 DUP3 PUSH1 0x1F DUP4 ADD SLT PUSH2 0x45C7 JUMPI PUSH1 0x0 DUP1 REVERT JUMPDEST DUP2 CALLDATALOAD PUSH2 0x45DA PUSH2 0x45D5 DUP3 PUSH2 0x58A3 JUMP JUMPDEST PUSH2 0x5826 JUMP JUMPDEST SWAP2 POP DUP2 DUP2 DUP4 MSTORE PUSH1 0x20 DUP5 ADD SWAP4 POP PUSH1 0x20 DUP2 ADD SWAP1 POP DUP4 PUSH1 0x0 JUMPDEST DUP4 DUP2 LT ISZERO PUSH2 0x4620 JUMPI DUP2 CALLDATALOAD DUP7 ADD PUSH2 0x4606 DUP9 DUP3 PUSH2 0x4712 JUMP JUMPDEST DUP5 MSTORE PUSH1 0x20 DUP5 ADD SWAP4 POP PUSH1 0x20 DUP4 ADD SWAP3 POP POP PUSH1 0x1 DUP2 ADD SWAP1 POP PUSH2 0x45F0 JUMP JUMPDEST POP POP POP POP SWAP3 SWAP2 POP POP JUMP JUMPDEST PUSH1 0x0 DUP3 PUSH1 0x1F DUP4 ADD SLT PUSH2 0x463B JUMPI PUSH1 0x0 DUP1 REVERT JUMPDEST DUP2 CALLDATALOAD PUSH2 0x464E PUSH2 0x4649 DUP3 PUSH2 0x58CB JUMP JUMPDEST PUSH2 0x5826 JUMP JUMPDEST SWAP2 POP DUP2 DUP2 DUP4 MSTORE PUSH1 0x20 DUP5 ADD SWAP4 POP PUSH1 0x20 DUP2 ADD SWAP1 POP DUP4 PUSH1 0x0 JUMPDEST DUP4 DUP2 LT ISZERO PUSH2 0x4694 JUMPI DUP2 CALLDATALOAD DUP7 ADD PUSH2 0x467A DUP9 DUP3 PUSH2 0x4712 JUMP JUMPDEST DUP5 MSTORE PUSH1 0x20 DUP5 ADD SWAP4 POP PUSH1 0x20 DUP4 ADD SWAP3 POP POP PUSH1 0x1 DUP2 ADD SWAP1 POP PUSH2 0x4664 JUMP JUMPDEST POP POP POP POP SWAP3 SWAP2 POP POP JUMP JUMPDEST PUSH1 0x0 DUP3 PUSH1 0x1F DUP4 ADD SLT PUSH2 0x46AF JUMPI PUSH1 0x0 DUP1 REVERT JUMPDEST DUP2 CALLDATALOAD PUSH2 0x46C2 PUSH2 0x46BD DUP3 PUSH2 0x58F3 JUMP JUMPDEST PUSH2 0x5826 JUMP JUMPDEST SWAP2 POP DUP2 DUP2 DUP4 MSTORE PUSH1 0x20 DUP5 ADD SWAP4 POP PUSH1 0x20 DUP2 ADD SWAP1 POP DUP4 PUSH1 0x0 JUMPDEST DUP4 DUP2 LT ISZERO PUSH2 0x4708 JUMPI DUP2 CALLDATALOAD DUP7 ADD PUSH2 0x46EE DUP9 DUP3 PUSH2 0x4818 JUMP JUMPDEST DUP5 MSTORE PUSH1 0x20 DUP5 ADD SWAP4 POP PUSH1 0x20 DUP4 ADD SWAP3 POP POP PUSH1 0x1 DUP2 ADD SWAP1 POP PUSH2 0x46D8 JUMP JUMPDEST POP POP POP POP SWAP3 SWAP2 POP POP JUMP JUMPDEST PUSH1 0x0 DUP3 PUSH1 0x1F DUP4 ADD SLT PUSH2 0x4723 JUMPI PUSH1 0x0 DUP1 REVERT JUMPDEST DUP2 CALLDATALOAD PUSH2 0x4736 PUSH2 0x4731 DUP3 PUSH2 0x591B JUMP JUMPDEST PUSH2 0x5826 JUMP JUMPDEST SWAP2 POP DUP2 DUP2 DUP4 MSTORE PUSH1 0x20 DUP5 ADD SWAP4 POP PUSH1 0x20 DUP2 ADD SWAP1 POP DUP4 DUP6 PUSH1 0x20 DUP5 MUL DUP3 ADD GT ISZERO PUSH2 0x475B JUMPI PUSH1 0x0 DUP1 REVERT JUMPDEST PUSH1 0x0 JUMPDEST DUP4 DUP2 LT ISZERO PUSH2 0x478B JUMPI DUP2 PUSH2 0x4771 DUP9 DUP3 PUSH2 0x48C0 JUMP JUMPDEST DUP5 MSTORE PUSH1 0x20 DUP5 ADD SWAP4 POP PUSH1 0x20 DUP4 ADD SWAP3 POP POP PUSH1 0x1 DUP2 ADD SWAP1 POP PUSH2 0x475E JUMP JUMPDEST POP POP POP POP SWAP3 SWAP2 POP POP JUMP JUMPDEST PUSH1 0x0 DUP3 PUSH1 0x1F DUP4 ADD SLT PUSH2 0x47A6 JUMPI PUSH1 0x0 DUP1 REVERT JUMPDEST DUP2 CALLDATALOAD PUSH2 0x47B9 PUSH2 0x47B4 DUP3 PUSH2 0x5943 JUMP JUMPDEST PUSH2 0x5826 JUMP JUMPDEST SWAP2 POP DUP2 DUP2 DUP4 MSTORE PUSH1 0x20 DUP5 ADD SWAP4 POP PUSH1 0x20 DUP2 ADD SWAP1 POP DUP4 DUP6 PUSH1 0x20 DUP5 MUL DUP3 ADD GT ISZERO PUSH2 0x47DE JUMPI PUSH1 0x0 DUP1 REVERT JUMPDEST PUSH1 0x0 JUMPDEST DUP4 DUP2 LT ISZERO PUSH2 0x480E JUMPI DUP2 PUSH2 0x47F4 DUP9 DUP3 PUSH2 0x48EA JUMP JUMPDEST DUP5 MSTORE PUSH1 0x20 DUP5 ADD SWAP4 POP PUSH1 0x20 DUP4 ADD SWAP3 POP POP PUSH1 0x1 DUP2 ADD SWAP1 POP PUSH2 0x47E1 JUMP JUMPDEST POP POP POP POP SWAP3 SWAP2 POP POP JUMP JUMPDEST PUSH1 0x0 DUP3 PUSH1 0x1F DUP4 ADD SLT PUSH2 0x4829 JUMPI PUSH1 0x0 DUP1 REVERT JUMPDEST DUP2 CALLDATALOAD PUSH2 0x483C PUSH2 0x4837 DUP3 PUSH2 0x596B JUMP JUMPDEST PUSH2 0x5826 JUMP JUMPDEST SWAP2 POP DUP1 DUP3 MSTORE PUSH1 0x20 DUP4 ADD PUSH1 0x20 DUP4 ADD DUP6 DUP4 DUP4 ADD GT ISZERO PUSH2 0x4858 JUMPI PUSH1 0x0 DUP1 REVERT JUMPDEST PUSH2 0x4863 DUP4 DUP3 DUP5 PUSH2 0x5C3A JUMP JUMPDEST POP POP POP SWAP3 SWAP2 POP POP JUMP JUMPDEST PUSH1 0x0 DUP3 PUSH1 0x1F DUP4 ADD SLT PUSH2 0x487D JUMPI PUSH1 0x0 DUP1 REVERT JUMPDEST DUP2 CALLDATALOAD PUSH2 0x4890 PUSH2 0x488B DUP3 PUSH2 0x5997 JUMP JUMPDEST PUSH2 0x5826 JUMP JUMPDEST SWAP2 POP DUP1 DUP3 MSTORE PUSH1 0x20 DUP4 ADD PUSH1 0x20 DUP4 ADD DUP6 DUP4 DUP4 ADD GT ISZERO PUSH2 0x48AC JUMPI PUSH1 0x0 DUP1 REVERT JUMPDEST PUSH2 0x48B7 DUP4 DUP3 DUP5 PUSH2 0x5C3A JUMP JUMPDEST POP POP POP SWAP3 SWAP2 POP POP JUMP JUMPDEST PUSH1 0x0 DUP2 CALLDATALOAD SWAP1 POP PUSH2 0x48CF DUP2 PUSH2 0x5CDE JUMP JUMPDEST SWAP3 SWAP2 POP POP JUMP JUMPDEST PUSH1 0x0 DUP2 MLOAD SWAP1 POP PUSH2 0x48E4 DUP2 PUSH2 0x5CDE JUMP JUMPDEST SWAP3 SWAP2 POP POP JUMP JUMPDEST PUSH1 0x0 DUP2 CALLDATALOAD SWAP1 POP PUSH2 0x48F9 DUP2 PUSH2 0x5CF5 JUMP JUMPDEST SWAP3 SWAP2 POP POP JUMP JUMPDEST PUSH1 0x0 DUP1 PUSH1 0x0 DUP1 PUSH1 0x0 PUSH1 0xA0 DUP7 DUP9 SUB SLT ISZERO PUSH2 0x4917 JUMPI PUSH1 0x0 DUP1 REVERT JUMPDEST PUSH1 0x0 PUSH2 0x4925 DUP9 DUP3 DUP10 ADD PUSH2 0x44AA JUMP JUMPDEST SWAP6 POP POP PUSH1 0x20 DUP7 ADD CALLDATALOAD PUSH8 0xFFFFFFFFFFFFFFFF DUP2 GT ISZERO PUSH2 0x4942 JUMPI PUSH1 0x0 DUP1 REVERT JUMPDEST PUSH2 0x494E DUP9 DUP3 DUP10 ADD PUSH2 0x44BF JUMP JUMPDEST SWAP5 POP POP PUSH1 0x40 DUP7 ADD CALLDATALOAD PUSH8 0xFFFFFFFFFFFFFFFF DUP2 GT ISZERO PUSH2 0x496B JUMPI PUSH1 0x0 DUP1 REVERT JUMPDEST PUSH2 0x4977 DUP9 DUP3 DUP10 ADD PUSH2 0x486C JUMP JUMPDEST SWAP4 POP POP PUSH1 0x60 DUP7 ADD CALLDATALOAD PUSH8 0xFFFFFFFFFFFFFFFF DUP2 GT ISZERO PUSH2 0x4994 JUMPI PUSH1 0x0 DUP1 REVERT JUMPDEST PUSH2 0x49A0 DUP9 DUP3 DUP10 ADD PUSH2 0x486C JUMP JUMPDEST SWAP3 POP POP PUSH1 0x80 DUP7 ADD CALLDATALOAD PUSH8 0xFFFFFFFFFFFFFFFF DUP2 GT ISZERO PUSH2 0x49BD JUMPI PUSH1 0x0 DUP1 REVERT JUMPDEST PUSH2 0x49C9 DUP9 DUP3 DUP10 ADD PUSH2 0x486C JUMP JUMPDEST SWAP2 POP POP SWAP3 SWAP6 POP SWAP3 SWAP6 SWAP1 SWAP4 POP JUMP JUMPDEST PUSH1 0x0 DUP1 PUSH1 0x0 DUP1 PUSH1 0x80 DUP6 DUP8 SUB SLT ISZERO PUSH2 0x49EC JUMPI PUSH1 0x0 DUP1 REVERT JUMPDEST PUSH1 0x0 PUSH2 0x49FA DUP8 DUP3 DUP9 ADD PUSH2 0x44AA JUMP JUMPDEST SWAP5 POP POP PUSH1 0x20 DUP6 ADD CALLDATALOAD PUSH8 0xFFFFFFFFFFFFFFFF DUP2 GT ISZERO PUSH2 0x4A17 JUMPI PUSH1 0x0 DUP1 REVERT JUMPDEST PUSH2 0x4A23 DUP8 DUP3 DUP9 ADD PUSH2 0x44BF JUMP JUMPDEST SWAP4 POP POP PUSH1 0x40 DUP6 ADD CALLDATALOAD PUSH8 0xFFFFFFFFFFFFFFFF DUP2 GT ISZERO PUSH2 0x4A40 JUMPI PUSH1 0x0 DUP1 REVERT JUMPDEST PUSH2 0x4A4C DUP8 DUP3 DUP9 ADD PUSH2 0x486C JUMP JUMPDEST SWAP3 POP POP PUSH1 0x60 PUSH2 0x4A5D DUP8 DUP3 DUP9 ADD PUSH2 0x48C0 JUMP JUMPDEST SWAP2 POP POP SWAP3 SWAP6 SWAP2 SWAP5 POP SWAP3 POP JUMP JUMPDEST PUSH1 0x0 DUP1 PUSH1 0x0 DUP1 PUSH1 0x80 DUP6 DUP8 SUB SLT ISZERO PUSH2 0x4A7F JUMPI PUSH1 0x0 DUP1 REVERT JUMPDEST PUSH1 0x0 PUSH2 0x4A8D DUP8 DUP3 DUP9 ADD PUSH2 0x44AA JUMP JUMPDEST SWAP5 POP POP PUSH1 0x20 DUP6 ADD CALLDATALOAD PUSH8 0xFFFFFFFFFFFFFFFF DUP2 GT ISZERO PUSH2 0x4AAA JUMPI PUSH1 0x0 DUP1 REVERT JUMPDEST PUSH2 0x4AB6 DUP8 DUP3 DUP9 ADD PUSH2 0x486C JUMP JUMPDEST SWAP4 POP POP PUSH1 0x40 DUP6 ADD CALLDATALOAD PUSH8 0xFFFFFFFFFFFFFFFF DUP2 GT ISZERO PUSH2 0x4AD3 JUMPI PUSH1 0x0 DUP1 REVERT JUMPDEST PUSH2 0x4ADF DUP8 DUP3 DUP9 ADD PUSH2 0x486C JUMP JUMPDEST SWAP3 POP POP PUSH1 0x60 PUSH2 0x4AF0 DUP8 DUP3 DUP9 ADD PUSH2 0x48C0 JUMP JUMPDEST SWAP2 POP POP SWAP3 SWAP6 SWAP2 SWAP5 POP SWAP3 POP JUMP JUMPDEST PUSH1 0x0 DUP1 PUSH1 0x0 DUP1 PUSH1 0x0 DUP1 PUSH1 0x0 DUP1 PUSH2 0x100 DUP10 DUP12 SUB SLT ISZERO PUSH2 0x4B19 JUMPI PUSH1 0x0 DUP1 REVERT JUMPDEST PUSH1 0x0 DUP10 ADD CALLDATALOAD PUSH8 0xFFFFFFFFFFFFFFFF DUP2 GT ISZERO PUSH2 0x4B33 JUMPI PUSH1 0x0 DUP1 REVERT JUMPDEST PUSH2 0x4B3F DUP12 DUP3 DUP13 ADD PUSH2 0x462A JUMP JUMPDEST SWAP9 POP POP PUSH1 0x20 DUP10 ADD CALLDATALOAD PUSH8 0xFFFFFFFFFFFFFFFF DUP2 GT ISZERO PUSH2 0x4B5C JUMPI PUSH1 0x0 DUP1 REVERT JUMPDEST PUSH2 0x4B68 DUP12 DUP3 DUP13 ADD PUSH2 0x486C JUMP JUMPDEST SWAP8 POP POP PUSH1 0x40 DUP10 ADD CALLDATALOAD PUSH8 0xFFFFFFFFFFFFFFFF DUP2 GT ISZERO PUSH2 0x4B85 JUMPI PUSH1 0x0 DUP1 REVERT JUMPDEST PUSH2 0x4B91 DUP12 DUP3 DUP13 ADD PUSH2 0x44BF JUMP JUMPDEST SWAP7 POP POP PUSH1 0x60 DUP10 ADD CALLDATALOAD PUSH8 0xFFFFFFFFFFFFFFFF DUP2 GT ISZERO PUSH2 0x4BAE JUMPI PUSH1 0x0 DUP1 REVERT JUMPDEST PUSH2 0x4BBA DUP12 DUP3 DUP13 ADD PUSH2 0x44BF JUMP JUMPDEST SWAP6 POP POP PUSH1 0x80 DUP10 ADD CALLDATALOAD PUSH8 0xFFFFFFFFFFFFFFFF DUP2 GT ISZERO PUSH2 0x4BD7 JUMPI PUSH1 0x0 DUP1 REVERT JUMPDEST PUSH2 0x4BE3 DUP12 DUP3 DUP13 ADD PUSH2 0x4795 JUMP JUMPDEST SWAP5 POP POP PUSH1 0xA0 DUP10 ADD CALLDATALOAD PUSH8 0xFFFFFFFFFFFFFFFF DUP2 GT ISZERO PUSH2 0x4C00 JUMPI PUSH1 0x0 DUP1 REVERT JUMPDEST PUSH2 0x4C0C DUP12 DUP3 DUP13 ADD PUSH2 0x469E JUMP JUMPDEST SWAP4 POP POP PUSH1 0xC0 DUP10 ADD CALLDATALOAD PUSH8 0xFFFFFFFFFFFFFFFF DUP2 GT ISZERO PUSH2 0x4C29 JUMPI PUSH1 0x0 DUP1 REVERT JUMPDEST PUSH2 0x4C35 DUP12 DUP3 DUP13 ADD PUSH2 0x486C JUMP JUMPDEST SWAP3 POP POP PUSH1 0xE0 DUP10 ADD CALLDATALOAD PUSH8 0xFFFFFFFFFFFFFFFF DUP2 GT ISZERO PUSH2 0x4C52 JUMPI PUSH1 0x0 DUP1 REVERT JUMPDEST PUSH2 0x4C5E DUP12 DUP3 DUP13 ADD PUSH2 0x4542 JUMP JUMPDEST SWAP2 POP POP SWAP3 SWAP6 SWAP9 POP SWAP3 SWAP6 SWAP9 SWAP1 SWAP4 SWAP7 POP JUMP JUMPDEST PUSH1 0x0 PUSH1 0x20 DUP3 DUP5 SUB SLT ISZERO PUSH2 0x4C80 JUMPI PUSH1 0x0 DUP1 REVERT JUMPDEST PUSH1 0x0 DUP3 ADD CALLDATALOAD PUSH8 0xFFFFFFFFFFFFFFFF DUP2 GT ISZERO PUSH2 0x4C9A JUMPI PUSH1 0x0 DUP1 REVERT JUMPDEST PUSH2 0x4CA6 DUP5 DUP3 DUP6 ADD PUSH2 0x486C JUMP JUMPDEST SWAP2 POP POP SWAP3 SWAP2 POP POP JUMP JUMPDEST PUSH1 0x0 DUP1 PUSH1 0x40 DUP4 DUP6 SUB SLT ISZERO PUSH2 0x4CC2 JUMPI PUSH1 0x0 DUP1 REVERT JUMPDEST PUSH1 0x0 DUP4 ADD CALLDATALOAD PUSH8 0xFFFFFFFFFFFFFFFF DUP2 GT ISZERO PUSH2 0x4CDC JUMPI PUSH1 0x0 DUP1 REVERT JUMPDEST PUSH2 0x4CE8 DUP6 DUP3 DUP7 ADD PUSH2 0x486C JUMP JUMPDEST SWAP3 POP POP PUSH1 0x20 PUSH2 0x4CF9 DUP6 DUP3 DUP7 ADD PUSH2 0x44AA JUMP JUMPDEST SWAP2 POP POP SWAP3 POP SWAP3 SWAP1 POP JUMP JUMPDEST PUSH1 0x0 DUP1 PUSH1 0x40 DUP4 DUP6 SUB SLT ISZERO PUSH2 0x4D16 JUMPI PUSH1 0x0 DUP1 REVERT JUMPDEST PUSH1 0x0 DUP4 ADD CALLDATALOAD PUSH8 0xFFFFFFFFFFFFFFFF DUP2 GT ISZERO PUSH2 0x4D30 JUMPI PUSH1 0x0 DUP1 REVERT JUMPDEST PUSH2 0x4D3C DUP6 DUP3 DUP7 ADD PUSH2 0x486C JUMP JUMPDEST SWAP3 POP POP PUSH1 0x20 PUSH2 0x4D4D DUP6 DUP3 DUP7 ADD PUSH2 0x48C0 JUMP JUMPDEST SWAP2 POP POP SWAP3 POP SWAP3 SWAP1 POP JUMP JUMPDEST PUSH1 0x0 DUP1 PUSH1 0x0 PUSH1 0x60 DUP5 DUP7 SUB SLT ISZERO PUSH2 0x4D6C JUMPI PUSH1 0x0 DUP1 REVERT JUMPDEST PUSH1 0x0 DUP5 ADD CALLDATALOAD PUSH8 0xFFFFFFFFFFFFFFFF DUP2 GT ISZERO PUSH2 0x4D86 JUMPI PUSH1 0x0 DUP1 REVERT JUMPDEST PUSH2 0x4D92 DUP7 DUP3 DUP8 ADD PUSH2 0x486C JUMP JUMPDEST SWAP4 POP POP PUSH1 0x20 PUSH2 0x4DA3 DUP7 DUP3 DUP8 ADD PUSH2 0x48C0 JUMP JUMPDEST SWAP3 POP POP PUSH1 0x40 PUSH2 0x4DB4 DUP7 DUP3 DUP8 ADD PUSH2 0x44AA JUMP JUMPDEST SWAP2 POP POP SWAP3 POP SWAP3 POP SWAP3 JUMP JUMPDEST PUSH1 0x0 PUSH1 0x20 DUP3 DUP5 SUB SLT ISZERO PUSH2 0x4DD0 JUMPI PUSH1 0x0 DUP1 REVERT JUMPDEST PUSH1 0x0 PUSH2 0x4DDE DUP5 DUP3 DUP6 ADD PUSH2 0x48D5 JUMP JUMPDEST SWAP2 POP POP SWAP3 SWAP2 POP POP JUMP JUMPDEST PUSH1 0x0 PUSH2 0x4DF3 DUP4 DUP4 PUSH2 0x4E6B JUMP JUMPDEST PUSH1 0x20 DUP4 ADD SWAP1 POP SWAP3 SWAP2 POP POP JUMP JUMPDEST PUSH1 0x0 PUSH2 0x4E0B DUP4 DUP4 PUSH2 0x50A4 JUMP JUMPDEST SWAP1 POP SWAP3 SWAP2 POP POP JUMP JUMPDEST PUSH1 0x0 PUSH2 0x4E1F DUP4 DUP4 PUSH2 0x5176 JUMP JUMPDEST SWAP1 POP SWAP3 SWAP2 POP POP JUMP JUMPDEST PUSH1 0x0 PUSH2 0x4E33 DUP4 DUP4 PUSH2 0x5219 JUMP JUMPDEST SWAP1 POP SWAP3 SWAP2 POP POP JUMP JUMPDEST PUSH1 0x0 PUSH2 0x4E47 DUP4 DUP4 PUSH2 0x5471 JUMP JUMPDEST PUSH1 0x20 DUP4 ADD SWAP1 POP SWAP3 SWAP2 POP POP JUMP JUMPDEST PUSH1 0x0 PUSH2 0x4E5F DUP4 DUP4 PUSH2 0x549E JUMP JUMPDEST PUSH1 0x20 DUP4 ADD SWAP1 POP SWAP3 SWAP2 POP POP JUMP JUMPDEST PUSH2 0x4E74 DUP2 PUSH2 0x5BD5 JUMP JUMPDEST DUP3 MSTORE POP POP JUMP JUMPDEST PUSH2 0x4E83 DUP2 PUSH2 0x5BD5 JUMP JUMPDEST DUP3 MSTORE POP POP JUMP JUMPDEST PUSH1 0x0 PUSH2 0x4E94 DUP3 PUSH2 0x5A4D JUMP JUMPDEST PUSH2 0x4E9E DUP2 DUP6 PUSH2 0x5B16 JUMP JUMPDEST SWAP4 POP PUSH2 0x4EA9 DUP4 PUSH2 0x59C3 JUMP JUMPDEST DUP1 PUSH1 0x0 JUMPDEST DUP4 DUP2 LT ISZERO PUSH2 0x4EDA JUMPI DUP2 MLOAD PUSH2 0x4EC1 DUP9 DUP3 PUSH2 0x4DE7 JUMP JUMPDEST SWAP8 POP PUSH2 0x4ECC DUP4 PUSH2 0x5ABB JUMP JUMPDEST SWAP3 POP POP PUSH1 0x1 DUP2 ADD SWAP1 POP PUSH2 0x4EAD JUMP JUMPDEST POP DUP6 SWAP4 POP POP POP POP SWAP3 SWAP2 POP POP JUMP JUMPDEST PUSH1 0x0 PUSH2 0x4EF2 DUP3 PUSH2 0x5A58 JUMP JUMPDEST PUSH2 0x4EFC DUP2 DUP6 PUSH2 0x5B27 JUMP JUMPDEST SWAP4 POP DUP4 PUSH1 0x20 DUP3 MUL DUP6 ADD PUSH2 0x4F0E DUP6 PUSH2 0x59D3 JUMP JUMPDEST DUP1 PUSH1 0x0 JUMPDEST DUP6 DUP2 LT ISZERO PUSH2 0x4F4A JUMPI DUP5 DUP5 SUB DUP10 MSTORE DUP2 MLOAD PUSH2 0x4F2B DUP6 DUP3 PUSH2 0x4DFF JUMP JUMPDEST SWAP5 POP PUSH2 0x4F36 DUP4 PUSH2 0x5AC8 JUMP JUMPDEST SWAP3 POP PUSH1 0x20 DUP11 ADD SWAP10 POP POP PUSH1 0x1 DUP2 ADD SWAP1 POP PUSH2 0x4F12 JUMP JUMPDEST POP DUP3 SWAP8 POP DUP8 SWAP6 POP POP POP POP POP POP SWAP3 SWAP2 POP POP JUMP JUMPDEST PUSH1 0x0 PUSH2 0x4F67 DUP3 PUSH2 0x5A63 JUMP JUMPDEST PUSH2 0x4F71 DUP2 DUP6 PUSH2 0x5B38 JUMP JUMPDEST SWAP4 POP DUP4 PUSH1 0x20 DUP3 MUL DUP6 ADD PUSH2 0x4F83 DUP6 PUSH2 0x59E3 JUMP JUMPDEST DUP1 PUSH1 0x0 JUMPDEST DUP6 DUP2 LT ISZERO PUSH2 0x4FBF JUMPI DUP5 DUP5 SUB DUP10 MSTORE DUP2 MLOAD PUSH2 0x4FA0 DUP6 DUP3 PUSH2 0x4E13 JUMP JUMPDEST SWAP5 POP PUSH2 0x4FAB DUP4 PUSH2 0x5AD5 JUMP JUMPDEST SWAP3 POP PUSH1 0x20 DUP11 ADD SWAP10 POP POP PUSH1 0x1 DUP2 ADD SWAP1 POP PUSH2 0x4F87 JUMP JUMPDEST POP DUP3 SWAP8 POP DUP8 SWAP6 POP POP POP POP POP POP SWAP3 SWAP2 POP POP JUMP JUMPDEST PUSH1 0x0 PUSH2 0x4FDC DUP3 PUSH2 0x5A6E JUMP JUMPDEST PUSH2 0x4FE6 DUP2 DUP6 PUSH2 0x5B49 JUMP JUMPDEST SWAP4 POP DUP4 PUSH1 0x20 DUP3 MUL DUP6 ADD PUSH2 0x4FF8 DUP6 PUSH2 0x59F3 JUMP JUMPDEST DUP1 PUSH1 0x0 JUMPDEST DUP6 DUP2 LT ISZERO PUSH2 0x5034 JUMPI DUP5 DUP5 SUB DUP10 MSTORE DUP2 MLOAD PUSH2 0x5015 DUP6 DUP3 PUSH2 0x4E27 JUMP JUMPDEST SWAP5 POP PUSH2 0x5020 DUP4 PUSH2 0x5AE2 JUMP JUMPDEST SWAP3 POP PUSH1 0x20 DUP11 ADD SWAP10 POP POP PUSH1 0x1 DUP2 ADD SWAP1 POP PUSH2 0x4FFC JUMP JUMPDEST POP DUP3 SWAP8 POP DUP8 SWAP6 POP POP POP POP POP POP SWAP3 SWAP2 POP POP JUMP JUMPDEST PUSH1 0x0 PUSH2 0x5051 DUP3 PUSH2 0x5A84 JUMP JUMPDEST PUSH2 0x505B DUP2 DUP6 PUSH2 0x5B6B JUMP JUMPDEST SWAP4 POP PUSH2 0x5066 DUP4 PUSH2 0x5A13 JUMP JUMPDEST DUP1 PUSH1 0x0 JUMPDEST DUP4 DUP2 LT ISZERO PUSH2 0x5097 JUMPI DUP2 MLOAD PUSH2 0x507E DUP9 DUP3 PUSH2 0x4E3B JUMP JUMPDEST SWAP8 POP PUSH2 0x5089 DUP4 PUSH2 0x5AFC JUMP JUMPDEST SWAP3 POP POP PUSH1 0x1 DUP2 ADD SWAP1 POP PUSH2 0x506A JUMP JUMPDEST POP DUP6 SWAP4 POP POP POP POP SWAP3 SWAP2 POP POP JUMP JUMPDEST PUSH1 0x0 PUSH2 0x50AF DUP3 PUSH2 0x5A79 JUMP JUMPDEST PUSH2 0x50B9 DUP2 DUP6 PUSH2 0x5B5A JUMP JUMPDEST SWAP4 POP PUSH2 0x50C4 DUP4 PUSH2 0x5A03 JUMP JUMPDEST DUP1 PUSH1 0x0 JUMPDEST DUP4 DUP2 LT ISZERO PUSH2 0x50F5 JUMPI DUP2 MLOAD PUSH2 0x50DC DUP9 DUP3 PUSH2 0x4E3B JUMP JUMPDEST SWAP8 POP PUSH2 0x50E7 DUP4 PUSH2 0x5AEF JUMP JUMPDEST SWAP3 POP POP PUSH1 0x1 DUP2 ADD SWAP1 POP PUSH2 0x50C8 JUMP JUMPDEST POP DUP6 SWAP4 POP POP POP POP SWAP3 SWAP2 POP POP JUMP JUMPDEST PUSH1 0x0 PUSH2 0x510D DUP3 PUSH2 0x5A8F JUMP JUMPDEST PUSH2 0x5117 DUP2 DUP6 PUSH2 0x5B7C JUMP JUMPDEST SWAP4 POP PUSH2 0x5122 DUP4 PUSH2 0x5A23 JUMP JUMPDEST DUP1 PUSH1 0x0 JUMPDEST DUP4 DUP2 LT ISZERO PUSH2 0x515A JUMPI PUSH2 0x5137 DUP3 PUSH2 0x5C96 JUMP JUMPDEST PUSH2 0x5141 DUP9 DUP3 PUSH2 0x4E53 JUMP JUMPDEST SWAP8 POP PUSH2 0x514C DUP4 PUSH2 0x5B09 JUMP JUMPDEST SWAP3 POP POP PUSH1 0x1 DUP2 ADD SWAP1 POP PUSH2 0x5126 JUMP JUMPDEST POP DUP6 SWAP4 POP POP POP POP SWAP3 SWAP2 POP POP JUMP JUMPDEST PUSH2 0x5170 DUP2 PUSH2 0x5BE7 JUMP JUMPDEST DUP3 MSTORE POP POP JUMP JUMPDEST PUSH1 0x0 PUSH2 0x5181 DUP3 PUSH2 0x5A9A JUMP JUMPDEST PUSH2 0x518B DUP2 DUP6 PUSH2 0x5B8D JUMP JUMPDEST SWAP4 POP PUSH2 0x519B DUP2 DUP6 PUSH1 0x20 DUP7 ADD PUSH2 0x5C49 JUMP JUMPDEST PUSH2 0x51A4 DUP2 PUSH2 0x5CA9 JUMP JUMPDEST DUP5 ADD SWAP2 POP POP SWAP3 SWAP2 POP POP JUMP JUMPDEST PUSH1 0x0 PUSH2 0x51BA DUP3 PUSH2 0x5AB0 JUMP JUMPDEST PUSH2 0x51C4 DUP2 DUP6 PUSH2 0x5BAF JUMP JUMPDEST SWAP4 POP PUSH2 0x51D4 DUP2 DUP6 PUSH1 0x20 DUP7 ADD PUSH2 0x5C49 JUMP JUMPDEST PUSH2 0x51DD DUP2 PUSH2 0x5CA9 JUMP JUMPDEST DUP5 ADD SWAP2 POP POP SWAP3 SWAP2 POP POP JUMP JUMPDEST PUSH1 0x0 PUSH2 0x51F3 DUP3 PUSH2 0x5AB0 JUMP JUMPDEST PUSH2 0x51FD DUP2 DUP6 PUSH2 0x5BC0 JUMP JUMPDEST SWAP4 POP PUSH2 0x520D DUP2 DUP6 PUSH1 0x20 DUP7 ADD PUSH2 0x5C49 JUMP JUMPDEST DUP1 DUP5 ADD SWAP2 POP POP SWAP3 SWAP2 POP POP JUMP JUMPDEST PUSH1 0x0 PUSH2 0x5224 DUP3 PUSH2 0x5AA5 JUMP JUMPDEST PUSH2 0x522E DUP2 DUP6 PUSH2 0x5B9E JUMP JUMPDEST SWAP4 POP PUSH2 0x523E DUP2 DUP6 PUSH1 0x20 DUP7 ADD PUSH2 0x5C49 JUMP JUMPDEST PUSH2 0x5247 DUP2 PUSH2 0x5CA9 JUMP JUMPDEST DUP5 ADD SWAP2 POP POP SWAP3 SWAP2 POP POP JUMP JUMPDEST PUSH1 0x0 PUSH2 0x525D DUP3 PUSH2 0x5AA5 JUMP JUMPDEST PUSH2 0x5267 DUP2 DUP6 PUSH2 0x5BAF JUMP JUMPDEST SWAP4 POP PUSH2 0x5277 DUP2 DUP6 PUSH1 0x20 DUP7 ADD PUSH2 0x5C49 JUMP JUMPDEST PUSH2 0x5280 DUP2 PUSH2 0x5CA9 JUMP JUMPDEST DUP5 ADD SWAP2 POP POP SWAP3 SWAP2 POP POP JUMP JUMPDEST PUSH1 0x0 PUSH2 0x5296 DUP3 PUSH2 0x5AA5 JUMP JUMPDEST PUSH2 0x52A0 DUP2 DUP6 PUSH2 0x5BC0 JUMP JUMPDEST SWAP4 POP PUSH2 0x52B0 DUP2 DUP6 PUSH1 0x20 DUP7 ADD PUSH2 0x5C49 JUMP JUMPDEST DUP1 DUP5 ADD SWAP2 POP POP SWAP3 SWAP2 POP POP JUMP JUMPDEST PUSH1 0x0 DUP2 SLOAD PUSH1 0x1 DUP2 AND PUSH1 0x0 DUP2 EQ PUSH2 0x52D9 JUMPI PUSH1 0x1 DUP2 EQ PUSH2 0x52FF JUMPI PUSH2 0x5343 JUMP JUMPDEST PUSH1 0x7F PUSH1 0x2 DUP4 DIV AND PUSH2 0x52EA DUP2 DUP8 PUSH2 0x5BAF JUMP JUMPDEST SWAP6 POP PUSH1 0xFF NOT DUP4 AND DUP7 MSTORE PUSH1 0x20 DUP7 ADD SWAP4 POP POP PUSH2 0x5343 JUMP JUMPDEST PUSH1 0x2 DUP3 DIV PUSH2 0x530D DUP2 DUP8 PUSH2 0x5BAF JUMP JUMPDEST SWAP6 POP PUSH2 0x5318 DUP6 PUSH2 0x5A38 JUMP JUMPDEST PUSH1 0x0 JUMPDEST DUP3 DUP2 LT ISZERO PUSH2 0x533A JUMPI DUP2 SLOAD DUP2 DUP10 ADD MSTORE PUSH1 0x1 DUP3 ADD SWAP2 POP PUSH1 0x20 DUP2 ADD SWAP1 POP PUSH2 0x531B JUMP JUMPDEST DUP1 DUP9 ADD SWAP6 POP POP POP POP JUMPDEST POP POP SWAP3 SWAP2 POP POP JUMP JUMPDEST PUSH1 0x0 PUSH2 0x5358 PUSH1 0x13 DUP4 PUSH2 0x5BAF JUMP JUMPDEST SWAP2 POP PUSH32 0x4D75737420626520726F6C65206F776E65722E00000000000000000000000000 PUSH1 0x0 DUP4 ADD MSTORE PUSH1 0x20 DUP3 ADD SWAP1 POP SWAP2 SWAP1 POP JUMP JUMPDEST PUSH1 0x0 PUSH2 0x5398 PUSH1 0x3D DUP4 PUSH2 0x5BAF JUMP JUMPDEST SWAP2 POP PUSH32 0x616E6F74686572206368616E6765207265717565737420697320616C72656164 PUSH1 0x0 DUP4 ADD MSTORE PUSH32 0x792070726F63657373656420666F72207468697320776F726B666C6F77000000 PUSH1 0x20 DUP4 ADD MSTORE PUSH1 0x40 DUP3 ADD SWAP1 POP SWAP2 SWAP1 POP JUMP JUMPDEST PUSH1 0x0 PUSH2 0x53FE PUSH1 0x10 DUP4 PUSH2 0x5BAF JUMP JUMPDEST SWAP2 POP PUSH32 0x77726F6E672072737020616E7377657200000000000000000000000000000000 PUSH1 0x0 DUP4 ADD MSTORE PUSH1 0x20 DUP3 ADD SWAP1 POP SWAP2 SWAP1 POP JUMP JUMPDEST PUSH1 0x0 PUSH2 0x543E PUSH1 0xC DUP4 PUSH2 0x5BAF JUMP JUMPDEST SWAP2 POP PUSH32 0x77726F6E67416464726573730000000000000000000000000000000000000000 PUSH1 0x0 DUP4 ADD MSTORE PUSH1 0x20 DUP3 ADD SWAP1 POP SWAP2 SWAP1 POP JUMP JUMPDEST PUSH2 0x547A DUP2 PUSH2 0x5C13 JUMP JUMPDEST DUP3 MSTORE POP POP JUMP JUMPDEST PUSH2 0x5489 DUP2 PUSH2 0x5C13 JUMP JUMPDEST DUP3 MSTORE POP POP JUMP JUMPDEST PUSH2 0x5498 DUP2 PUSH2 0x5C13 JUMP JUMPDEST DUP3 MSTORE POP POP JUMP JUMPDEST PUSH2 0x54A7 DUP2 PUSH2 0x5C13 JUMP JUMPDEST DUP3 MSTORE POP POP JUMP JUMPDEST PUSH2 0x54B6 DUP2 PUSH2 0x5C1D JUMP JUMPDEST DUP3 MSTORE POP POP JUMP JUMPDEST PUSH2 0x54C5 DUP2 PUSH2 0x5C2D JUMP JUMPDEST DUP3 MSTORE POP POP JUMP JUMPDEST PUSH1 0x0 PUSH2 0x54D7 DUP3 DUP5 PUSH2 0x528B JUMP JUMPDEST SWAP2 POP DUP2 SWAP1 POP SWAP3 SWAP2 POP POP JUMP JUMPDEST PUSH1 0x0 PUSH2 0x54EE DUP3 DUP5 PUSH2 0x51E8 JUMP JUMPDEST SWAP2 POP DUP2 SWAP1 POP SWAP3 SWAP2 POP POP JUMP JUMPDEST PUSH1 0x0 PUSH1 0x20 DUP3 ADD SWAP1 POP PUSH2 0x550E PUSH1 0x0 DUP4 ADD DUP5 PUSH2 0x4E7A JUMP JUMPDEST SWAP3 SWAP2 POP POP JUMP JUMPDEST PUSH1 0x0 PUSH1 0x20 DUP3 ADD SWAP1 POP DUP2 DUP2 SUB PUSH1 0x0 DUP4 ADD MSTORE PUSH2 0x552E DUP2 DUP5 PUSH2 0x4E89 JUMP JUMPDEST SWAP1 POP SWAP3 SWAP2 POP POP JUMP JUMPDEST PUSH1 0x0 PUSH1 0x20 DUP3 ADD SWAP1 POP DUP2 DUP2 SUB PUSH1 0x0 DUP4 ADD MSTORE PUSH2 0x5550 DUP2 DUP5 PUSH2 0x4EE7 JUMP JUMPDEST SWAP1 POP SWAP3 SWAP2 POP POP JUMP JUMPDEST PUSH1 0x0 PUSH1 0x20 DUP3 ADD SWAP1 POP DUP2 DUP2 SUB PUSH1 0x0 DUP4 ADD MSTORE PUSH2 0x5572 DUP2 DUP5 PUSH2 0x4F5C JUMP JUMPDEST SWAP1 POP SWAP3 SWAP2 POP POP JUMP JUMPDEST PUSH1 0x0 PUSH1 0x20 DUP3 ADD SWAP1 POP DUP2 DUP2 SUB PUSH1 0x0 DUP4 ADD MSTORE PUSH2 0x5594 DUP2 DUP5 PUSH2 0x4FD1 JUMP JUMPDEST SWAP1 POP SWAP3 SWAP2 POP POP JUMP JUMPDEST PUSH1 0x0 PUSH1 0x20 DUP3 ADD SWAP1 POP DUP2 DUP2 SUB PUSH1 0x0 DUP4 ADD MSTORE PUSH2 0x55B6 DUP2 DUP5 PUSH2 0x5046 JUMP JUMPDEST SWAP1 POP SWAP3 SWAP2 POP POP JUMP JUMPDEST PUSH1 0x0 PUSH1 0x40 DUP3 ADD SWAP1 POP DUP2 DUP2 SUB PUSH1 0x0 DUP4 ADD MSTORE PUSH2 0x55D8 DUP2 DUP6 PUSH2 0x5102 JUMP JUMPDEST SWAP1 POP PUSH2 0x55E7 PUSH1 0x20 DUP4 ADD DUP5 PUSH2 0x548F JUMP JUMPDEST SWAP4 SWAP3 POP POP POP JUMP JUMPDEST PUSH1 0x0 PUSH1 0x20 DUP3 ADD SWAP1 POP PUSH2 0x5603 PUSH1 0x0 DUP4 ADD DUP5 PUSH2 0x5167 JUMP JUMPDEST SWAP3 SWAP2 POP POP JUMP JUMPDEST PUSH1 0x0 PUSH1 0x20 DUP3 ADD SWAP1 POP DUP2 DUP2 SUB PUSH1 0x0 DUP4 ADD MSTORE PUSH2 0x5623 DUP2 DUP5 PUSH2 0x51AF JUMP JUMPDEST SWAP1 POP SWAP3 SWAP2 POP POP JUMP JUMPDEST PUSH1 0x0 PUSH1 0x40 DUP3 ADD SWAP1 POP DUP2 DUP2 SUB PUSH1 0x0 DUP4 ADD MSTORE PUSH2 0x5645 DUP2 DUP6 PUSH2 0x51AF JUMP JUMPDEST SWAP1 POP DUP2 DUP2 SUB PUSH1 0x20 DUP4 ADD MSTORE PUSH2 0x5659 DUP2 DUP5 PUSH2 0x51AF JUMP JUMPDEST SWAP1 POP SWAP4 SWAP3 POP POP POP JUMP JUMPDEST PUSH1 0x0 PUSH1 0x40 DUP3 ADD SWAP1 POP DUP2 DUP2 SUB PUSH1 0x0 DUP4 ADD MSTORE PUSH2 0x567C DUP2 DUP5 PUSH2 0x51AF JUMP JUMPDEST SWAP1 POP DUP2 DUP2 SUB PUSH1 0x20 DUP4 ADD MSTORE PUSH2 0x568F DUP2 PUSH2 0x538B JUMP JUMPDEST SWAP1 POP SWAP3 SWAP2 POP POP JUMP JUMPDEST PUSH1 0x0 PUSH1 0x40 DUP3 ADD SWAP1 POP DUP2 DUP2 SUB PUSH1 0x0 DUP4 ADD MSTORE PUSH2 0x56B1 DUP2 DUP5 PUSH2 0x51AF JUMP JUMPDEST SWAP1 POP DUP2 DUP2 SUB PUSH1 0x20 DUP4 ADD MSTORE PUSH2 0x56C4 DUP2 PUSH2 0x53F1 JUMP JUMPDEST SWAP1 POP SWAP3 SWAP2 POP POP JUMP JUMPDEST PUSH1 0x0 PUSH1 0xE0 DUP3 ADD SWAP1 POP DUP2 DUP2 SUB PUSH1 0x0 DUP4 ADD MSTORE PUSH2 0x56E6 DUP2 DUP11 PUSH2 0x51AF JUMP JUMPDEST SWAP1 POP PUSH2 0x56F5 PUSH1 0x20 DUP4 ADD DUP10 PUSH2 0x5480 JUMP JUMPDEST PUSH2 0x5702 PUSH1 0x40 DUP4 ADD DUP9 PUSH2 0x5480 JUMP JUMPDEST DUP2 DUP2 SUB PUSH1 0x60 DUP4 ADD MSTORE PUSH2 0x5714 DUP2 DUP8 PUSH2 0x51AF JUMP JUMPDEST SWAP1 POP DUP2 DUP2 SUB PUSH1 0x80 DUP4 ADD MSTORE PUSH2 0x5728 DUP2 DUP7 PUSH2 0x5046 JUMP JUMPDEST SWAP1 POP PUSH2 0x5737 PUSH1 0xA0 DUP4 ADD DUP6 PUSH2 0x5480 JUMP JUMPDEST PUSH2 0x5744 PUSH1 0xC0 DUP4 ADD DUP5 PUSH2 0x4E7A JUMP JUMPDEST SWAP9 SWAP8 POP POP POP POP POP POP POP POP JUMP JUMPDEST PUSH1 0x0 PUSH1 0x60 DUP3 ADD SWAP1 POP DUP2 DUP2 SUB PUSH1 0x0 DUP4 ADD MSTORE PUSH2 0x576A DUP2 DUP7 PUSH2 0x5252 JUMP JUMPDEST SWAP1 POP PUSH2 0x5779 PUSH1 0x20 DUP4 ADD DUP6 PUSH2 0x4E7A JUMP JUMPDEST PUSH2 0x5786 PUSH1 0x40 DUP4 ADD DUP5 PUSH2 0x54BC JUMP JUMPDEST SWAP5 SWAP4 POP POP POP POP JUMP JUMPDEST PUSH1 0x0 PUSH1 0x20 DUP3 ADD SWAP1 POP DUP2 DUP2 SUB PUSH1 0x0 DUP4 ADD MSTORE PUSH2 0x57A8 DUP2 DUP5 PUSH2 0x52BC JUMP JUMPDEST SWAP1 POP SWAP3 SWAP2 POP POP JUMP JUMPDEST PUSH1 0x0 PUSH1 0x20 DUP3 ADD SWAP1 POP DUP2 DUP2 SUB PUSH1 0x0 DUP4 ADD MSTORE PUSH2 0x57C9 DUP2 PUSH2 0x534B JUMP JUMPDEST SWAP1 POP SWAP2 SWAP1 POP JUMP JUMPDEST PUSH1 0x0 PUSH1 0x20 DUP3 ADD SWAP1 POP DUP2 DUP2 SUB PUSH1 0x0 DUP4 ADD MSTORE PUSH2 0x57E9 DUP2 PUSH2 0x5431 JUMP JUMPDEST SWAP1 POP SWAP2 SWAP1 POP JUMP JUMPDEST PUSH1 0x0 PUSH1 0x20 DUP3 ADD SWAP1 POP PUSH2 0x5805 PUSH1 0x0 DUP4 ADD DUP5 PUSH2 0x5480 JUMP JUMPDEST SWAP3 SWAP2 POP POP JUMP JUMPDEST PUSH1 0x0 PUSH1 0x20 DUP3 ADD SWAP1 POP PUSH2 0x5820 PUSH1 0x0 DUP4 ADD DUP5 PUSH2 0x54AD JUMP JUMPDEST SWAP3 SWAP2 POP POP JUMP JUMPDEST PUSH1 0x0 PUSH1 0x40 MLOAD SWAP1 POP DUP2 DUP2 ADD DUP2 DUP2 LT PUSH8 0xFFFFFFFFFFFFFFFF DUP3 GT OR ISZERO PUSH2 0x5849 JUMPI PUSH1 0x0 DUP1 REVERT JUMPDEST DUP1 PUSH1 0x40 MSTORE POP SWAP2 SWAP1 POP JUMP JUMPDEST PUSH1 0x0 PUSH8 0xFFFFFFFFFFFFFFFF DUP3 GT ISZERO PUSH2 0x586A JUMPI PUSH1 0x0 DUP1 REVERT JUMPDEST PUSH1 0x20 DUP3 MUL SWAP1 POP PUSH1 0x20 DUP2 ADD SWAP1 POP SWAP2 SWAP1 POP JUMP JUMPDEST PUSH1 0x0 PUSH8 0xFFFFFFFFFFFFFFFF DUP3 GT ISZERO PUSH2 0x5892 JUMPI PUSH1 0x0 DUP1 REVERT JUMPDEST PUSH1 0x20 DUP3 MUL SWAP1 POP PUSH1 0x20 DUP2 ADD SWAP1 POP SWAP2 SWAP1 POP JUMP JUMPDEST PUSH1 0x0 PUSH8 0xFFFFFFFFFFFFFFFF DUP3 GT ISZERO PUSH2 0x58BA JUMPI PUSH1 0x0 DUP1 REVERT JUMPDEST PUSH1 0x20 DUP3 MUL SWAP1 POP PUSH1 0x20 DUP2 ADD SWAP1 POP SWAP2 SWAP1 POP JUMP JUMPDEST PUSH1 0x0 PUSH8 0xFFFFFFFFFFFFFFFF DUP3 GT ISZERO PUSH2 0x58E2 JUMPI PUSH1 0x0 DUP1 REVERT JUMPDEST PUSH1 0x20 DUP3 MUL SWAP1 POP PUSH1 0x20 DUP2 ADD SWAP1 POP SWAP2 SWAP1 POP JUMP JUMPDEST PUSH1 0x0 PUSH8 0xFFFFFFFFFFFFFFFF DUP3 GT ISZERO PUSH2 0x590A JUMPI PUSH1 0x0 DUP1 REVERT JUMPDEST PUSH1 0x20 DUP3 MUL SWAP1 POP PUSH1 0x20 DUP2 ADD SWAP1 POP SWAP2 SWAP1 POP JUMP JUMPDEST PUSH1 0x0 PUSH8 0xFFFFFFFFFFFFFFFF DUP3 GT ISZERO PUSH2 0x5932 JUMPI PUSH1 0x0 DUP1 REVERT JUMPDEST PUSH1 0x20 DUP3 MUL SWAP1 POP PUSH1 0x20 DUP2 ADD SWAP1 POP SWAP2 SWAP1 POP JUMP JUMPDEST PUSH1 0x0 PUSH8 0xFFFFFFFFFFFFFFFF DUP3 GT ISZERO PUSH2 0x595A JUMPI PUSH1 0x0 DUP1 REVERT JUMPDEST PUSH1 0x20 DUP3 MUL SWAP1 POP PUSH1 0x20 DUP2 ADD SWAP1 POP SWAP2 SWAP1 POP JUMP JUMPDEST PUSH1 0x0 PUSH8 0xFFFFFFFFFFFFFFFF DUP3 GT ISZERO PUSH2 0x5982 JUMPI PUSH1 0x0 DUP1 REVERT JUMPDEST PUSH1 0x1F NOT PUSH1 0x1F DUP4 ADD AND SWAP1 POP PUSH1 0x20 DUP2 ADD SWAP1 POP SWAP2 SWAP1 POP JUMP JUMPDEST PUSH1 0x0 PUSH8 0xFFFFFFFFFFFFFFFF DUP3 GT ISZERO PUSH2 0x59AE JUMPI PUSH1 0x0 DUP1 REVERT JUMPDEST PUSH1 0x1F NOT PUSH1 0x1F DUP4 ADD AND SWAP1 POP PUSH1 0x20 DUP2 ADD SWAP1 POP SWAP2 SWAP1 POP JUMP JUMPDEST PUSH1 0x0 DUP2 SWAP1 POP PUSH1 0x20 DUP3 ADD SWAP1 POP SWAP2 SWAP1 POP JUMP JUMPDEST PUSH1 0x0 DUP2 SWAP1 POP PUSH1 0x20 DUP3 ADD SWAP1 POP SWAP2 SWAP1 POP JUMP JUMPDEST PUSH1 0x0 DUP2 SWAP1 POP PUSH1 0x20 DUP3 ADD SWAP1 POP SWAP2 SWAP1 POP JUMP JUMPDEST PUSH1 0x0 DUP2 SWAP1 POP PUSH1 0x20 DUP3 ADD SWAP1 POP SWAP2 SWAP1 POP JUMP JUMPDEST PUSH1 0x0 DUP2 SWAP1 POP PUSH1 0x20 DUP3 ADD SWAP1 POP SWAP2 SWAP1 POP JUMP JUMPDEST PUSH1 0x0 DUP2 SWAP1 POP PUSH1 0x20 DUP3 ADD SWAP1 POP SWAP2 SWAP1 POP JUMP JUMPDEST PUSH1 0x0 DUP2 SWAP1 POP DUP2 PUSH1 0x0 MSTORE PUSH1 0x20 PUSH1 0x0 KECCAK256 SWAP1 POP SWAP2 SWAP1 POP JUMP JUMPDEST PUSH1 0x0 DUP2 SWAP1 POP DUP2 PUSH1 0x0 MSTORE PUSH1 0x20 PUSH1 0x0 KECCAK256 SWAP1 POP SWAP2 SWAP1 POP JUMP JUMPDEST PUSH1 0x0 DUP2 MLOAD SWAP1 POP SWAP2 SWAP1 POP JUMP JUMPDEST PUSH1 0x0 DUP2 MLOAD SWAP1 POP SWAP2 SWAP1 POP JUMP JUMPDEST PUSH1 0x0 DUP2 MLOAD SWAP1 POP SWAP2 SWAP1 POP JUMP JUMPDEST PUSH1 0x0 DUP2 MLOAD SWAP1 POP SWAP2 SWAP1 POP JUMP JUMPDEST PUSH1 0x0 DUP2 MLOAD SWAP1 POP SWAP2 SWAP1 POP JUMP JUMPDEST PUSH1 0x0 DUP2 MLOAD SWAP1 POP SWAP2 SWAP1 POP JUMP JUMPDEST PUSH1 0x0 DUP2 SLOAD SWAP1 POP SWAP2 SWAP1 POP JUMP JUMPDEST PUSH1 0x0 DUP2 MLOAD SWAP1 POP SWAP2 SWAP1 POP JUMP JUMPDEST PUSH1 0x0 DUP2 MLOAD SWAP1 POP SWAP2 SWAP1 POP JUMP JUMPDEST PUSH1 0x0 DUP2 MLOAD SWAP1 POP SWAP2 SWAP1 POP JUMP JUMPDEST PUSH1 0x0 PUSH1 0x20 DUP3 ADD SWAP1 POP SWAP2 SWAP1 POP JUMP JUMPDEST PUSH1 0x0 PUSH1 0x20 DUP3 ADD SWAP1 POP SWAP2 SWAP1 POP JUMP JUMPDEST PUSH1 0x0 PUSH1 0x20 DUP3 ADD SWAP1 POP SWAP2 SWAP1 POP JUMP JUMPDEST PUSH1 0x0 PUSH1 0x20 DUP3 ADD SWAP1 POP SWAP2 SWAP1 POP JUMP JUMPDEST PUSH1 0x0 PUSH1 0x20 DUP3 ADD SWAP1 POP SWAP2 SWAP1 POP JUMP JUMPDEST PUSH1 0x0 PUSH1 0x20 DUP3 ADD SWAP1 POP SWAP2 SWAP1 POP JUMP JUMPDEST PUSH1 0x0 PUSH1 0x1 DUP3 ADD SWAP1 POP SWAP2 SWAP1 POP JUMP JUMPDEST PUSH1 0x0 DUP3 DUP3 MSTORE PUSH1 0x20 DUP3 ADD SWAP1 POP SWAP3 SWAP2 POP POP JUMP JUMPDEST PUSH1 0x0 DUP3 DUP3 MSTORE PUSH1 0x20 DUP3 ADD SWAP1 POP SWAP3 SWAP2 POP POP JUMP JUMPDEST PUSH1 0x0 DUP3 DUP3 MSTORE PUSH1 0x20 DUP3 ADD SWAP1 POP SWAP3 SWAP2 POP POP JUMP JUMPDEST PUSH1 0x0 DUP3 DUP3 MSTORE PUSH1 0x20 DUP3 ADD SWAP1 POP SWAP3 SWAP2 POP POP JUMP JUMPDEST PUSH1 0x0 DUP3 DUP3 MSTORE PUSH1 0x20 DUP3 ADD SWAP1 POP SWAP3 SWAP2 POP POP JUMP JUMPDEST PUSH1 0x0 DUP3 DUP3 MSTORE PUSH1 0x20 DUP3 ADD SWAP1 POP SWAP3 SWAP2 POP POP JUMP JUMPDEST PUSH1 0x0 DUP3 DUP3 MSTORE PUSH1 0x20 DUP3 ADD SWAP1 POP SWAP3 SWAP2 POP POP JUMP JUMPDEST PUSH1 0x0 DUP3 DUP3 MSTORE PUSH1 0x20 DUP3 ADD SWAP1 POP SWAP3 SWAP2 POP POP JUMP JUMPDEST PUSH1 0x0 DUP3 DUP3 MSTORE PUSH1 0x20 DUP3 ADD SWAP1 POP SWAP3 SWAP2 POP POP JUMP JUMPDEST PUSH1 0x0 DUP3 DUP3 MSTORE PUSH1 0x20 DUP3 ADD SWAP1 POP SWAP3 SWAP2 POP POP JUMP JUMPDEST PUSH1 0x0 DUP2 SWAP1 POP SWAP3 SWAP2 POP POP JUMP JUMPDEST PUSH1 0x0 DUP2 SWAP1 POP SWAP2 SWAP1 POP JUMP JUMPDEST PUSH1 0x0 PUSH2 0x5BE0 DUP3 PUSH2 0x5BF3 JUMP JUMPDEST SWAP1 POP SWAP2 SWAP1 POP JUMP JUMPDEST PUSH1 0x0 DUP2 ISZERO ISZERO SWAP1 POP SWAP2 SWAP1 POP JUMP JUMPDEST PUSH1 0x0 PUSH20 0xFFFFFFFFFFFFFFFFFFFFFFFFFFFFFFFFFFFFFFFF DUP3 AND SWAP1 POP SWAP2 SWAP1 POP JUMP JUMPDEST PUSH1 0x0 DUP2 SWAP1 POP SWAP2 SWAP1 POP JUMP JUMPDEST PUSH1 0x0 PUSH4 0xFFFFFFFF DUP3 AND SWAP1 POP SWAP2 SWAP1 POP JUMP JUMPDEST PUSH1 0x0 PUSH1 0xFF DUP3 AND SWAP1 POP SWAP2 SWAP1 POP JUMP JUMPDEST DUP3 DUP2 DUP4 CALLDATACOPY PUSH1 0x0 DUP4 DUP4 ADD MSTORE POP POP POP JUMP JUMPDEST PUSH1 0x0 JUMPDEST DUP4 DUP2 LT ISZERO PUSH2 0x5C67 JUMPI DUP1 DUP3 ADD MLOAD DUP2 DUP5 ADD MSTORE PUSH1 0x20 DUP2 ADD SWAP1 POP PUSH2 0x5C4C JUMP JUMPDEST DUP4 DUP2 GT ISZERO PUSH2 0x5C76 JUMPI PUSH1 0x0 DUP5 DUP5 ADD MSTORE JUMPDEST POP POP POP POP JUMP JUMPDEST PUSH1 0x0 PUSH2 0x5C8F PUSH2 0x5C8A DUP4 PUSH2 0x5CBA JUMP JUMPDEST PUSH2 0x5BCB JUMP JUMPDEST SWAP1 POP SWAP2 SWAP1 POP JUMP JUMPDEST PUSH1 0x0 PUSH2 0x5CA2 DUP3 SLOAD PUSH2 0x5C7C JUMP JUMPDEST SWAP1 POP SWAP2 SWAP1 POP JUMP JUMPDEST PUSH1 0x0 PUSH1 0x1F NOT PUSH1 0x1F DUP4 ADD AND SWAP1 POP SWAP2 SWAP1 POP JUMP JUMPDEST PUSH1 0x0 DUP2 PUSH1 0x0 SHR SWAP1 POP SWAP2 SWAP1 POP JUMP JUMPDEST PUSH2 0x5CD0 DUP2 PUSH2 0x5BD5 JUMP JUMPDEST DUP2 EQ PUSH2 0x5CDB JUMPI PUSH1 0x0 DUP1 REVERT JUMPDEST POP JUMP JUMPDEST PUSH2 0x5CE7 DUP2 PUSH2 0x5C13 JUMP JUMPDEST DUP2 EQ PUSH2 0x5CF2 JUMPI PUSH1 0x0 DUP1 REVERT JUMPDEST POP JUMP JUMPDEST PUSH2 0x5CFE DUP2 PUSH2 0x5C2D JUMP JUMPDEST DUP2 EQ PUSH2 0x5D09 JUMPI PUSH1 0x0 DUP1 REVERT JUMPDEST POP JUMP INVALID PUSH1 0x80 PUSH1 0x40 MSTORE CALLVALUE DUP1 ISZERO PUSH2 0x10 JUMPI PUSH1 0x0 DUP1 REVERT JUMPDEST POP PUSH2 0x5D0 DUP1 PUSH2 0x20 PUSH1 0x0 CODECOPY PUSH1 0x0 RETURN INVALID PUSH1 0x80 PUSH1 0x40 MSTORE CALLVALUE DUP1 ISZERO PUSH2 0x10 JUMPI PUSH1 0x0 DUP1 REVERT JUMPDEST POP PUSH1 0x4 CALLDATASIZE LT PUSH2 0x4C JUMPI PUSH1 0x0 CALLDATALOAD PUSH1 0xE0 SHR DUP1 PUSH4 0xDA08FE7 EQ PUSH2 0x51 JUMPI DUP1 PUSH4 0x11F55424 EQ PUSH2 0x11C JUMPI DUP1 PUSH4 0x34B9EB7D EQ PUSH2 0x146 JUMPI DUP1 PUSH4 0xF472C386 EQ PUSH2 0x22E JUMPI JUMPDEST PUSH1 0x0 DUP1 REVERT JUMPDEST PUSH2 0x11A PUSH1 0x4 DUP1 CALLDATASIZE SUB PUSH1 0x40 DUP2 LT ISZERO PUSH2 0x67 JUMPI PUSH1 0x0 DUP1 REVERT JUMPDEST DUP2 ADD SWAP1 DUP1 DUP1 CALLDATALOAD PUSH4 0xFFFFFFFF AND SWAP1 PUSH1 0x20 ADD SWAP1 SWAP3 SWAP2 SWAP1 DUP1 CALLDATALOAD SWAP1 PUSH1 0x20 ADD SWAP1 PUSH5 0x100000000 DUP2 GT ISZERO PUSH2 0x94 JUMPI PUSH1 0x0 DUP1 REVERT JUMPDEST DUP3 ADD DUP4 PUSH1 0x20 DUP3 ADD GT ISZERO PUSH2 0xA6 JUMPI PUSH1 0x0 DUP1 REVERT JUMPDEST DUP1 CALLDATALOAD SWAP1 PUSH1 0x20 ADD SWAP2 DUP5 PUSH1 0x1 DUP4 MUL DUP5 ADD GT PUSH5 0x100000000 DUP4 GT OR ISZERO PUSH2 0xC8 JUMPI PUSH1 0x0 DUP1 REVERT JUMPDEST SWAP2 SWAP1 DUP1 DUP1 PUSH1 0x1F ADD PUSH1 0x20 DUP1 SWAP2 DIV MUL PUSH1 0x20 ADD PUSH1 0x40 MLOAD SWAP1 DUP2 ADD PUSH1 0x40 MSTORE DUP1 SWAP4 SWAP3 SWAP2 SWAP1 DUP2 DUP2 MSTORE PUSH1 0x20 ADD DUP4 DUP4 DUP1 DUP3 DUP5 CALLDATACOPY PUSH1 0x0 DUP2 DUP5 ADD MSTORE PUSH1 0x1F NOT PUSH1 0x1F DUP3 ADD AND SWAP1 POP DUP1 DUP4 ADD SWAP3 POP POP POP POP POP POP POP SWAP2 SWAP3 SWAP2 SWAP3 SWAP1 POP POP POP PUSH2 0x2E9 JUMP JUMPDEST STOP JUMPDEST PUSH2 0x124 PUSH2 0x3DD JUMP JUMPDEST PUSH1 0x40 MLOAD DUP1 DUP3 PUSH4 0xFFFFFFFF AND PUSH4 0xFFFFFFFF AND DUP2 MSTORE PUSH1 0x20 ADD SWAP2 POP POP PUSH1 0x40 MLOAD DUP1 SWAP2 SUB SWAP1 RETURN JUMPDEST PUSH2 0x22C PUSH1 0x4 DUP1 CALLDATASIZE SUB PUSH1 0x60 DUP2 LT ISZERO PUSH2 0x15C JUMPI PUSH1 0x0 DUP1 REVERT JUMPDEST DUP2 ADD SWAP1 DUP1 DUP1 CALLDATALOAD SWAP1 PUSH1 0x20 ADD SWAP1 PUSH5 0x100000000 DUP2 GT ISZERO PUSH2 0x179 JUMPI PUSH1 0x0 DUP1 REVERT JUMPDEST DUP3 ADD DUP4 PUSH1 0x20 DUP3 ADD GT ISZERO PUSH2 0x18B JUMPI PUSH1 0x0 DUP1 REVERT JUMPDEST DUP1 CALLDATALOAD SWAP1 PUSH1 0x20 ADD SWAP2 DUP5 PUSH1 0x1 DUP4 MUL DUP5 ADD GT PUSH5 0x100000000 DUP4 GT OR ISZERO PUSH2 0x1AD JUMPI PUSH1 0x0 DUP1 REVERT JUMPDEST SWAP2 SWAP1 DUP1 DUP1 PUSH1 0x1F ADD PUSH1 0x20 DUP1 SWAP2 DIV MUL PUSH1 0x20 ADD PUSH1 0x40 MLOAD SWAP1 DUP2 ADD PUSH1 0x40 MSTORE DUP1 SWAP4 SWAP3 SWAP2 SWAP1 DUP2 DUP2 MSTORE PUSH1 0x20 ADD DUP4 DUP4 DUP1 DUP3 DUP5 CALLDATACOPY PUSH1 0x0 DUP2 DUP5 ADD MSTORE PUSH1 0x1F NOT PUSH1 0x1F DUP3 ADD AND SWAP1 POP DUP1 DUP4 ADD SWAP3 POP POP POP POP POP POP POP SWAP2 SWAP3 SWAP2 SWAP3 SWAP1 DUP1 CALLDATALOAD PUSH20 0xFFFFFFFFFFFFFFFFFFFFFFFFFFFFFFFFFFFFFFFF AND SWAP1 PUSH1 0x20 ADD SWAP1 SWAP3 SWAP2 SWAP1 DUP1 CALLDATALOAD PUSH1 0xFF AND SWAP1 PUSH1 0x20 ADD SWAP1 SWAP3 SWAP2 SWAP1 POP POP POP PUSH2 0x3F7 JUMP JUMPDEST STOP JUMPDEST PUSH2 0x2E7 PUSH1 0x4 DUP1 CALLDATASIZE SUB PUSH1 0x20 DUP2 LT ISZERO PUSH2 0x244 JUMPI PUSH1 0x0 DUP1 REVERT JUMPDEST DUP2 ADD SWAP1 DUP1 DUP1 CALLDATALOAD SWAP1 PUSH1 0x20 ADD SWAP1 PUSH5 0x100000000 DUP2 GT ISZERO PUSH2 0x261 JUMPI PUSH1 0x0 DUP1 REVERT JUMPDEST DUP3 ADD DUP4 PUSH1 0x20 DUP3 ADD GT ISZERO PUSH2 0x273 JUMPI PUSH1 0x0 DUP1 REVERT JUMPDEST DUP1 CALLDATALOAD SWAP1 PUSH1 0x20 ADD SWAP2 DUP5 PUSH1 0x1 DUP4 MUL DUP5 ADD GT PUSH5 0x100000000 DUP4 GT OR ISZERO PUSH2 0x295 JUMPI PUSH1 0x0 DUP1 REVERT JUMPDEST SWAP2 SWAP1 DUP1 DUP1 PUSH1 0x1F ADD PUSH1 0x20 DUP1 SWAP2 DIV MUL PUSH1 0x20 ADD PUSH1 0x40 MLOAD SWAP1 DUP2 ADD PUSH1 0x40 MSTORE DUP1 SWAP4 SWAP3 SWAP2 SWAP1 DUP2 DUP2 MSTORE PUSH1 0x20 ADD DUP4 DUP4 DUP1 DUP3 DUP5 CALLDATACOPY PUSH1 0x0 DUP2 DUP5 ADD MSTORE PUSH1 0x1F NOT PUSH1 0x1F DUP3 ADD AND SWAP1 POP DUP1 DUP4 ADD SWAP3 POP POP POP POP POP POP POP SWAP2 SWAP3 SWAP2 SWAP3 SWAP1 POP POP POP PUSH2 0x4BB JUMP JUMPDEST STOP JUMPDEST PUSH1 0x0 PUSH1 0x1 DUP1 PUSH1 0x3 PUSH1 0x0 DUP6 PUSH1 0x40 MLOAD DUP1 DUP3 DUP1 MLOAD SWAP1 PUSH1 0x20 ADD SWAP1 DUP1 DUP4 DUP4 JUMPDEST PUSH1 0x20 DUP4 LT PUSH2 0x326 JUMPI DUP1 MLOAD DUP3 MSTORE PUSH1 0x20 DUP3 ADD SWAP2 POP PUSH1 0x20 DUP2 ADD SWAP1 POP PUSH1 0x20 DUP4 SUB SWAP3 POP PUSH2 0x303 JUMP JUMPDEST PUSH1 0x1 DUP4 PUSH1 0x20 SUB PUSH2 0x100 EXP SUB DUP1 NOT DUP3 MLOAD AND DUP2 DUP5 MLOAD AND DUP1 DUP3 OR DUP6 MSTORE POP POP POP POP POP POP SWAP1 POP ADD SWAP2 POP POP SWAP1 DUP2 MSTORE PUSH1 0x20 ADD PUSH1 0x40 MLOAD DUP1 SWAP2 SUB SWAP1 KECCAK256 PUSH1 0x0 CALLER PUSH20 0xFFFFFFFFFFFFFFFFFFFFFFFFFFFFFFFFFFFFFFFF AND PUSH20 0xFFFFFFFFFFFFFFFFFFFFFFFFFFFFFFFFFFFFFFFF AND DUP2 MSTORE PUSH1 0x20 ADD SWAP1 DUP2 MSTORE PUSH1 0x20 ADD PUSH1 0x0 KECCAK256 PUSH1 0x0 SWAP1 SLOAD SWAP1 PUSH2 0x100 EXP SWAP1 DIV PUSH1 0xFF AND PUSH1 0xFF AND SWAP1 SHR AND PUSH1 0xFF AND EQ SWAP1 POP DUP1 PUSH2 0x3B7 JUMPI INVALID JUMPDEST DUP3 PUSH1 0x1 PUSH1 0x0 PUSH2 0x100 EXP DUP2 SLOAD DUP2 PUSH4 0xFFFFFFFF MUL NOT AND SWAP1 DUP4 PUSH4 0xFFFFFFFF AND MUL OR SWAP1 SSTORE POP POP POP POP JUMP JUMPDEST PUSH1 0x0 PUSH1 0x1 PUSH1 0x0 SWAP1 SLOAD SWAP1 PUSH2 0x100 EXP SWAP1 DIV PUSH4 0xFFFFFFFF AND SWAP1 POP SWAP1 JUMP JUMPDEST DUP1 PUSH1 0x0 DUP5 PUSH1 0x40 MLOAD DUP1 DUP3 DUP1 MLOAD SWAP1 PUSH1 0x20 ADD SWAP1 DUP1 DUP4 DUP4 JUMPDEST PUSH1 0x20 DUP4 LT PUSH2 0x42E JUMPI DUP1 MLOAD DUP3 MSTORE PUSH1 0x20 DUP3 ADD SWAP2 POP PUSH1 0x20 DUP2 ADD SWAP1 POP PUSH1 0x20 DUP4 SUB SWAP3 POP PUSH2 0x40B JUMP JUMPDEST PUSH1 0x1 DUP4 PUSH1 0x20 SUB PUSH2 0x100 EXP SUB DUP1 NOT DUP3 MLOAD AND DUP2 DUP5 MLOAD AND DUP1 DUP3 OR DUP6 MSTORE POP POP POP POP POP POP SWAP1 POP ADD SWAP2 POP POP SWAP1 DUP2 MSTORE PUSH1 0x20 ADD PUSH1 0x40 MLOAD DUP1 SWAP2 SUB SWAP1 KECCAK256 PUSH1 0x0 DUP5 PUSH20 0xFFFFFFFFFFFFFFFFFFFFFFFFFFFFFFFFFFFFFFFF AND PUSH20 0xFFFFFFFFFFFFFFFFFFFFFFFFFFFFFFFFFFFFFFFF AND DUP2 MSTORE PUSH1 0x20 ADD SWAP1 DUP2 MSTORE PUSH1 0x20 ADD PUSH1 0x0 KECCAK256 PUSH1 0x0 PUSH2 0x100 EXP DUP2 SLOAD DUP2 PUSH1 0xFF MUL NOT AND SWAP1 DUP4 PUSH1 0xFF AND MUL OR SWAP1 SSTORE POP POP POP POP JUMP JUMPDEST PUSH1 0x0 PUSH1 0x1 DUP1 PUSH1 0x0 DUP5 PUSH1 0x40 MLOAD DUP1 DUP3 DUP1 MLOAD SWAP1 PUSH1 0x20 ADD SWAP1 DUP1 DUP4 DUP4 JUMPDEST PUSH1 0x20 DUP4 LT PUSH2 0x4F6 JUMPI DUP1 MLOAD DUP3 MSTORE PUSH1 0x20 DUP3 ADD SWAP2 POP PUSH1 0x20 DUP2 ADD SWAP1 POP PUSH1 0x20 DUP4 SUB SWAP3 POP PUSH2 0x4D3 JUMP JUMPDEST PUSH1 0x1 DUP4 PUSH1 0x20 SUB PUSH2 0x100 EXP SUB DUP1 NOT DUP3 MLOAD AND DUP2 DUP5 MLOAD AND DUP1 DUP3 OR DUP6 MSTORE POP POP POP POP POP POP SWAP1 POP ADD SWAP2 POP POP SWAP1 DUP2 MSTORE PUSH1 0x20 ADD PUSH1 0x40 MLOAD DUP1 SWAP2 SUB SWAP1 KECCAK256 PUSH1 0x0 CALLER PUSH20 0xFFFFFFFFFFFFFFFFFFFFFFFFFFFFFFFFFFFFFFFF AND PUSH20 0xFFFFFFFFFFFFFFFFFFFFFFFFFFFFFFFFFFFFFFFF AND DUP2 MSTORE PUSH1 0x20 ADD SWAP1 DUP2 MSTORE PUSH1 0x20 ADD PUSH1 0x0 KECCAK256 PUSH1 0x0 SWAP1 SLOAD SWAP1 PUSH2 0x100 EXP SWAP1 DIV PUSH1 0xFF AND AND PUSH1 0xFF AND EQ SWAP1 POP DUP1 PUSH2 0x582 JUMPI INVALID JUMPDEST CALLER PUSH20 0xFFFFFFFFFFFFFFFFFFFFFFFFFFFFFFFFFFFFFFFF AND SELFDESTRUCT INVALID LOG2 PUSH6 0x627A7A723158 KECCAK256 0xC0 0xAE PUSH23 0x8778A5C749B2CEC7DBD91F5FA835F45AD988EB1D984713 DUP16 0xAF 0x4C 0xCB PUSH12 0xE764736F6C63430005110032 MSTORE MSTORE8 POP KECCAK256 PUSH15 0x6F74206170706C696361626C652068 PUSH6 0x72652028616C PUSH19 0x656164792070726F6365737365643F29A36562 PUSH27 0x7A7231582044EABF8809B0B67F9208F51D5F9FD5186591B8655F14 CODESIZE 0xD7 0x4D DIV 0xAC PUSH2 0x278 SSTORE 0xBE PUSH13 0x6578706572696D656E74616CF5 PUSH5 0x736F6C6343 STOP SDIV GT STOP BLOCKHASH "
		},
		"gasEstimates": {
			"creation": {
				"codeDepositCost": "5090200",
				"executionCost": "infinite",
				"totalCost": "infinite"
			},
			"external": {
				"canExecute(string,uint256,address)": "infinite",
				"checkCliquedIndex(string,uint256)": "infinite",
				"confirmChangeProjection(string,address)": "infinite",
				"confirmProjection(string,address)": "infinite",
				"endorserRSP(address,string,string,uint256)": "infinite",
				"fetchPublicView(string,address)": "infinite",
				"finalApprovalManager(string)": "infinite",
				"getAddresses(string)": "infinite",
				"getAllWKHashes()": "infinite",
				"getApprovalsOutcome(string)": "infinite",
				"getCanExecuteCheck(string)": "infinite",
				"getChangeApprovalsOutcome(string)": "infinite",
				"getChangeArgs(string)": "infinite",
				"getConditionsFrom(string)": "infinite",
				"getEndorserAddresses(string)": "infinite",
				"getExecuted(string)": "infinite",
				"getHashes(string)": "infinite",
				"getIncluded(string)": "infinite",
				"getPending(string)": "infinite",
				"getRoleAddresses(string,uint256)": "infinite",
				"getTest()": "infinite",
				"hasApproved(string,address)": "infinite",
				"hasApprovedProjection(string,address)": "infinite",
				"requestChange(address,address[],string,string,string)": "infinite",
				"updateTableOnAddress(address,address[],string,uint256)": "infinite",
				"uploadPublicView(uint256[][],string,address[],address[],uint8[],string[],string,uint256[][][])": "infinite"
			}
		},
		"methodIdentifiers": {
			"canExecute(string,uint256,address)": "2c3c0f9c",
			"checkCliquedIndex(string,uint256)": "cb2c9514",
			"confirmChangeProjection(string,address)": "b872384d",
			"confirmProjection(string,address)": "0ce36024",
			"endorserRSP(address,string,string,uint256)": "65c6865b",
			"fetchPublicView(string,address)": "18008e57",
			"finalApprovalManager(string)": "a158e4b0",
			"getAddresses(string)": "39b64c30",
			"getAllWKHashes()": "f89a3b10",
			"getApprovalsOutcome(string)": "e9b2b886",
			"getCanExecuteCheck(string)": "290930a2",
			"getChangeApprovalsOutcome(string)": "99307671",
			"getChangeArgs(string)": "d2fbf948",
			"getConditionsFrom(string)": "4e894b32",
			"getEndorserAddresses(string)": "42c59b28",
			"getExecuted(string)": "6342b1c2",
			"getHashes(string)": "9694f9fb",
			"getIncluded(string)": "02413fd4",
			"getPending(string)": "cb89cdfd",
			"getRoleAddresses(string,uint256)": "827f9511",
			"getTest()": "a8cd0a80",
			"hasApproved(string,address)": "6cb4e345",
			"hasApprovedProjection(string,address)": "e7cf96e7",
			"requestChange(address,address[],string,string,string)": "ee69739d",
			"updateTableOnAddress(address,address[],string,uint256)": "85e0efc0",
			"uploadPublicView(uint256[][],string,address[],address[],uint8[],string[],string,uint256[][][])": "b4dade92"
		}
	},
	"abi": [
		{
			"anonymous": false,
			"inputs": [
				{
					"indexed": false,
					"internalType": "string",
					"name": "reqWkfHash",
					"type": "string"
				},
				{
					"indexed": true,
					"internalType": "address",
					"name": "endorser",
					"type": "address"
				}
			],
			"name": "AcceptChange",
			"type": "event"
		},
		{
			"anonymous": false,
			"inputs": [
				{
					"indexed": false,
					"internalType": "string",
					"name": "reqWkfHash",
					"type": "string"
				}
			],
			"name": "AcceptChangeAll",
			"type": "event"
		},
		{
			"anonymous": false,
			"inputs": [
				{
					"indexed": false,
					"internalType": "string",
					"name": "reqWkfHash",
					"type": "string"
				},
				{
					"indexed": true,
					"internalType": "address",
					"name": "endorser",
					"type": "address"
				}
			],
			"name": "DeclineChange",
			"type": "event"
		},
		{
			"anonymous": false,
			"inputs": [
				{
					"indexed": true,
					"internalType": "string",
					"name": "workflowHash",
					"type": "string"
				},
				{
					"indexed": true,
					"internalType": "uint256",
					"name": "activityId",
					"type": "uint256"
				},
				{
					"indexed": true,
					"internalType": "uint256",
					"name": "status",
					"type": "uint256"
				}
			],
			"name": "LogExecution",
			"type": "event"
		},
		{
			"anonymous": false,
			"inputs": [
				{
					"indexed": true,
					"internalType": "string",
					"name": "workflowHash",
					"type": "string"
				},
				{
					"indexed": true,
					"internalType": "address",
					"name": "creator",
					"type": "address"
				}
			],
			"name": "LogWorkflowCreation",
			"type": "event"
		},
		{
			"anonymous": false,
			"inputs": [
				{
					"indexed": true,
					"internalType": "string",
					"name": "workflowHash",
					"type": "string"
				},
				{
					"indexed": true,
					"internalType": "address",
					"name": "creator",
					"type": "address"
				}
			],
			"name": "LogWorkflowProjection",
			"type": "event"
		},
		{
			"anonymous": false,
			"inputs": [
				{
					"indexed": false,
					"internalType": "string",
					"name": "reqWkfHash",
					"type": "string"
				},
				{
					"indexed": true,
					"internalType": "address",
					"name": "endorser",
					"type": "address"
				},
				{
					"indexed": false,
					"internalType": "string",
					"name": "comment",
					"type": "string"
				}
			],
			"name": "RSPErrorChange",
			"type": "event"
		},
		{
			"anonymous": false,
			"inputs": [
				{
					"indexed": false,
					"internalType": "string",
					"name": "workflowHashes",
					"type": "string"
				},
				{
					"indexed": true,
					"internalType": "address",
					"name": "endorser",
					"type": "address"
				},
				{
					"indexed": true,
					"internalType": "address",
					"name": "initiator",
					"type": "address"
				}
			],
			"name": "RequestChange",
			"type": "event"
		},
		{
			"constant": false,
			"inputs": [
				{
					"internalType": "string",
					"name": "_hash",
					"type": "string"
				},
				{
					"internalType": "uint256",
					"name": "activityId",
					"type": "uint256"
				},
				{
					"internalType": "address",
					"name": "msgSender",
					"type": "address"
				}
			],
			"name": "canExecute",
			"outputs": [
				{
					"internalType": "bool",
					"name": "",
					"type": "bool"
				}
			],
			"payable": false,
			"stateMutability": "nonpayable",
			"type": "function"
		},
		{
			"constant": false,
			"inputs": [
				{
					"internalType": "string",
					"name": "_hash",
					"type": "string"
				},
				{
					"internalType": "uint256",
					"name": "activityId",
					"type": "uint256"
				}
			],
			"name": "checkCliquedIndex",
			"outputs": [],
			"payable": false,
			"stateMutability": "nonpayable",
			"type": "function"
		},
		{
			"constant": false,
			"inputs": [
				{
					"internalType": "string",
					"name": "_hash",
					"type": "string"
				},
				{
					"internalType": "address",
					"name": "myAddress",
					"type": "address"
				}
			],
			"name": "confirmChangeProjection",
			"outputs": [
				{
					"internalType": "uint256[]",
					"name": "",
					"type": "uint256[]"
				}
			],
			"payable": true,
			"stateMutability": "payable",
			"type": "function"
		},
		{
			"constant": false,
			"inputs": [
				{
					"internalType": "string",
					"name": "_hash",
					"type": "string"
				},
				{
					"internalType": "address",
					"name": "myAddress",
					"type": "address"
				}
			],
			"name": "confirmProjection",
			"outputs": [
				{
					"internalType": "uint256[]",
					"name": "",
					"type": "uint256[]"
				}
			],
			"payable": true,
			"stateMutability": "payable",
			"type": "function"
		},
		{
			"constant": false,
			"inputs": [
				{
					"internalType": "address",
					"name": "myAddress",
					"type": "address"
				},
				{
					"internalType": "string",
					"name": "curr_hash",
					"type": "string"
				},
				{
					"internalType": "string",
					"name": "req_hash",
					"type": "string"
				},
				{
					"internalType": "uint256",
					"name": "rsp",
					"type": "uint256"
				}
			],
			"name": "endorserRSP",
			"outputs": [
				{
					"internalType": "string",
					"name": "",
					"type": "string"
				}
			],
			"payable": true,
			"stateMutability": "payable",
			"type": "function"
		},
		{
			"constant": false,
			"inputs": [
				{
					"internalType": "string",
					"name": "_hash",
					"type": "string"
				},
				{
					"internalType": "address",
					"name": "myAddress",
					"type": "address"
				}
			],
			"name": "fetchPublicView",
			"outputs": [
				{
					"internalType": "string",
					"name": "",
					"type": "string"
				}
			],
			"payable": true,
			"stateMutability": "payable",
			"type": "function"
		},
		{
			"constant": false,
			"inputs": [
				{
					"internalType": "string",
					"name": "myHash",
					"type": "string"
				}
			],
			"name": "finalApprovalManager",
			"outputs": [],
			"payable": true,
			"stateMutability": "payable",
			"type": "function"
		},
		{
			"constant": true,
			"inputs": [
				{
					"internalType": "string",
					"name": "_hash",
					"type": "string"
				}
			],
			"name": "getAddresses",
			"outputs": [
				{
					"internalType": "address[]",
					"name": "",
					"type": "address[]"
				}
			],
			"payable": false,
			"stateMutability": "view",
			"type": "function"
		},
		{
			"constant": true,
			"inputs": [],
			"name": "getAllWKHashes",
			"outputs": [
				{
					"internalType": "string[]",
					"name": "",
					"type": "string[]"
				}
			],
			"payable": false,
			"stateMutability": "view",
			"type": "function"
		},
		{
			"constant": true,
			"inputs": [
				{
					"internalType": "string",
					"name": "_hash",
					"type": "string"
				}
			],
			"name": "getApprovalsOutcome",
			"outputs": [
				{
					"internalType": "uint256[]",
					"name": "",
					"type": "uint256[]"
				}
			],
			"payable": false,
			"stateMutability": "view",
			"type": "function"
		},
		{
			"constant": true,
			"inputs": [
				{
					"internalType": "string",
					"name": "_hash",
					"type": "string"
				}
			],
			"name": "getCanExecuteCheck",
			"outputs": [
				{
					"internalType": "uint32",
					"name": "",
					"type": "uint32"
				}
			],
			"payable": false,
			"stateMutability": "view",
			"type": "function"
		},
		{
			"constant": true,
			"inputs": [
				{
					"internalType": "string",
					"name": "_hash",
					"type": "string"
				}
			],
			"name": "getChangeApprovalsOutcome",
			"outputs": [
				{
					"internalType": "uint256[]",
					"name": "",
					"type": "uint256[]"
				}
			],
			"payable": false,
			"stateMutability": "view",
			"type": "function"
		},
		{
			"constant": true,
			"inputs": [
				{
					"internalType": "string",
					"name": "_hash",
					"type": "string"
				}
			],
			"name": "getChangeArgs",
			"outputs": [
				{
					"internalType": "string",
					"name": "reqHash",
					"type": "string"
				},
				{
					"internalType": "uint256",
					"name": "ChangeValue",
					"type": "uint256"
				},
				{
					"internalType": "uint256",
					"name": "WKFValue",
					"type": "uint256"
				},
				{
					"internalType": "string",
					"name": "_Test",
					"type": "string"
				},
				{
					"internalType": "uint256[]",
					"name": "ChangeEndorsement",
					"type": "uint256[]"
				},
				{
					"internalType": "uint256",
					"name": "numEndorsers",
					"type": "uint256"
				},
				{
					"internalType": "address",
					"name": "initiator",
					"type": "address"
				}
			],
			"payable": false,
			"stateMutability": "view",
			"type": "function"
		},
		{
			"constant": true,
			"inputs": [
				{
					"internalType": "string",
					"name": "_hash",
					"type": "string"
				}
			],
			"name": "getConditionsFrom",
			"outputs": [
				{
					"internalType": "uint256[][]",
					"name": "",
					"type": "uint256[][]"
				}
			],
			"payable": false,
			"stateMutability": "view",
			"type": "function"
		},
		{
			"constant": true,
			"inputs": [
				{
					"internalType": "string",
					"name": "_hash",
					"type": "string"
				}
			],
			"name": "getEndorserAddresses",
			"outputs": [
				{
					"internalType": "address[]",
					"name": "",
					"type": "address[]"
				}
			],
			"payable": false,
			"stateMutability": "view",
			"type": "function"
		},
		{
			"constant": true,
			"inputs": [
				{
					"internalType": "string",
					"name": "_hash",
					"type": "string"
				}
			],
			"name": "getExecuted",
			"outputs": [
				{
					"internalType": "uint256[]",
					"name": "",
					"type": "uint256[]"
				}
			],
			"payable": false,
			"stateMutability": "view",
			"type": "function"
		},
		{
			"constant": true,
			"inputs": [
				{
					"internalType": "string",
					"name": "_hash",
					"type": "string"
				}
			],
			"name": "getHashes",
			"outputs": [
				{
					"internalType": "bytes[]",
					"name": "",
					"type": "bytes[]"
				}
			],
			"payable": false,
			"stateMutability": "view",
			"type": "function"
		},
		{
			"constant": true,
			"inputs": [
				{
					"internalType": "string",
					"name": "_hash",
					"type": "string"
				}
			],
			"name": "getIncluded",
			"outputs": [
				{
					"internalType": "uint256[]",
					"name": "",
					"type": "uint256[]"
				}
			],
			"payable": false,
			"stateMutability": "view",
			"type": "function"
		},
		{
			"constant": true,
			"inputs": [
				{
					"internalType": "string",
					"name": "_hash",
					"type": "string"
				}
			],
			"name": "getPending",
			"outputs": [
				{
					"internalType": "uint256[]",
					"name": "",
					"type": "uint256[]"
				}
			],
			"payable": false,
			"stateMutability": "view",
			"type": "function"
		},
		{
			"constant": true,
			"inputs": [
				{
					"internalType": "string",
					"name": "_hash",
					"type": "string"
				},
				{
					"internalType": "uint256",
					"name": "activityId",
					"type": "uint256"
				}
			],
			"name": "getRoleAddresses",
			"outputs": [
				{
					"internalType": "address",
					"name": "",
					"type": "address"
				}
			],
			"payable": false,
			"stateMutability": "view",
			"type": "function"
		},
		{
			"constant": true,
			"inputs": [],
			"name": "getTest",
			"outputs": [
				{
					"internalType": "string",
					"name": "",
					"type": "string"
				},
				{
					"internalType": "string",
					"name": "",
					"type": "string"
				}
			],
			"payable": false,
			"stateMutability": "view",
			"type": "function"
		},
		{
			"constant": true,
			"inputs": [
				{
					"internalType": "string",
					"name": "_hash",
					"type": "string"
				},
				{
					"internalType": "address",
					"name": "myAddress",
					"type": "address"
				}
			],
			"name": "hasApproved",
			"outputs": [
				{
					"internalType": "uint256",
					"name": "",
					"type": "uint256"
				}
			],
			"payable": false,
			"stateMutability": "view",
			"type": "function"
		},
		{
			"constant": true,
			"inputs": [
				{
					"internalType": "string",
					"name": "_hash",
					"type": "string"
				},
				{
					"internalType": "address",
					"name": "myAddress",
					"type": "address"
				}
			],
			"name": "hasApprovedProjection",
			"outputs": [
				{
					"internalType": "uint256",
					"name": "",
					"type": "uint256"
				}
			],
			"payable": false,
			"stateMutability": "view",
			"type": "function"
		},
		{
			"constant": false,
			"inputs": [
				{
					"internalType": "address",
					"name": "myAddress",
					"type": "address"
				},
				{
					"internalType": "address[]",
					"name": "toNotify",
					"type": "address[]"
				},
				{
					"internalType": "string",
					"name": "_hashes",
					"type": "string"
				},
				{
					"internalType": "string",
					"name": "curr_hash",
					"type": "string"
				},
				{
					"internalType": "string",
					"name": "req_hash",
					"type": "string"
				}
			],
			"name": "requestChange",
			"outputs": [],
			"payable": true,
			"stateMutability": "payable",
			"type": "function"
		},
		{
			"constant": false,
			"inputs": [
				{
					"internalType": "address",
					"name": "myAddress",
					"type": "address"
				},
				{
					"internalType": "address[]",
					"name": "myAddresses",
					"type": "address[]"
				},
				{
					"internalType": "string",
					"name": "myHash",
					"type": "string"
				},
				{
					"internalType": "uint256",
					"name": "myDecision",
					"type": "uint256"
				}
			],
			"name": "updateTableOnAddress",
			"outputs": [],
			"payable": true,
			"stateMutability": "payable",
			"type": "function"
		},
		{
			"constant": false,
			"inputs": [
				{
					"internalType": "uint256[][]",
					"name": "markingStates",
					"type": "uint256[][]"
				},
				{
					"internalType": "string",
					"name": "_ipfsViewHash",
					"type": "string"
				},
				{
					"internalType": "address[]",
					"name": "_roleAddresses",
					"type": "address[]"
				},
				{
					"internalType": "address[]",
					"name": "_approvalAddresses",
					"type": "address[]"
				},
				{
					"internalType": "uint8[]",
					"name": "_access_matrix_raw",
					"type": "uint8[]"
				},
				{
					"internalType": "string[]",
					"name": "_activityNames",
					"type": "string[]"
				},
				{
					"internalType": "string",
					"name": "_name",
					"type": "string"
				},
				{
					"internalType": "uint256[][][]",
					"name": "_relations",
					"type": "uint256[][][]"
				}
			],
			"name": "uploadPublicView",
			"outputs": [],
			"payable": true,
			"stateMutability": "payable",
			"type": "function"
		}
	]
}