{
  "contractName": "AdminRoleManager",
  "abi": [
    {
      "inputs": [],
      "payable": false,
      "stateMutability": "nonpayable",
      "type": "constructor"
    },
    {
      "constant": true,
      "inputs": [
        {
          "internalType": "address",
          "name": "",
          "type": "address"
        }
      ],
      "name": "Roles",
      "outputs": [
        {
          "internalType": "string",
          "name": "name",
          "type": "string"
        },
        {
          "internalType": "bool",
          "name": "isRole",
          "type": "bool"
        },
        {
          "internalType": "bool",
          "name": "isAdmin",
          "type": "bool"
        }
      ],
      "payable": false,
      "stateMutability": "view",
      "type": "function"
    },
    {
      "constant": true,
      "inputs": [
        {
          "internalType": "address",
          "name": "RoleAddress",
          "type": "address"
        }
      ],
      "name": "isRole",
      "outputs": [
        {
          "internalType": "bool",
          "name": "isIndeed",
          "type": "bool"
        }
      ],
      "payable": false,
      "stateMutability": "view",
      "type": "function"
    },
    {
      "constant": true,
      "inputs": [],
      "name": "imRole",
      "outputs": [
        {
          "internalType": "string[]",
          "name": "role",
          "type": "string[]"
        }
      ],
      "payable": false,
      "stateMutability": "view",
      "type": "function"
    },
    {
      "constant": true,
      "inputs": [],
      "name": "getRoleCount",
      "outputs": [
        {
          "internalType": "uint256",
          "name": "RoleCount",
          "type": "uint256"
        }
      ],
      "payable": false,
      "stateMutability": "view",
      "type": "function"
    },
    {
      "constant": true,
      "inputs": [
        {
          "internalType": "address",
          "name": "add",
          "type": "address"
        }
      ],
      "name": "getName",
      "outputs": [
        {
          "internalType": "string",
          "name": "aze",
          "type": "string"
        }
      ],
      "payable": false,
      "stateMutability": "view",
      "type": "function"
    },
    {
      "constant": true,
      "inputs": [],
      "name": "getRoles",
      "outputs": [
        {
          "internalType": "string[]",
          "name": "list",
          "type": "string[]"
        }
      ],
      "payable": false,
      "stateMutability": "view",
      "type": "function"
    },
    {
      "constant": true,
      "inputs": [
        {
          "internalType": "address",
          "name": "add",
          "type": "address"
        }
      ],
      "name": "getElemRoles",
      "outputs": [
        {
          "internalType": "string[]",
          "name": "list",
          "type": "string[]"
        }
      ],
      "payable": false,
      "stateMutability": "view",
      "type": "function"
    },
    {
      "constant": false,
      "inputs": [
        {
          "internalType": "address",
          "name": "add",
          "type": "address"
        },
        {
          "internalType": "string",
          "name": "newRole",
          "type": "string"
        }
      ],
      "name": "AddElemRole",
      "outputs": [],
      "payable": false,
      "stateMutability": "nonpayable",
      "type": "function"
    },
    {
      "constant": false,
      "inputs": [
        {
          "internalType": "address",
          "name": "add",
          "type": "address"
        },
        {
          "internalType": "uint256",
          "name": "i",
          "type": "uint256"
        }
      ],
      "name": "RemoveElemRole",
      "outputs": [],
      "payable": false,
      "stateMutability": "nonpayable",
      "type": "function"
    },
    {
      "constant": false,
      "inputs": [
        {
          "internalType": "address",
          "name": "RoleAddress",
          "type": "address"
        },
        {
          "internalType": "string",
          "name": "name",
          "type": "string"
        },
        {
          "internalType": "bool",
          "name": "isAdmin",
          "type": "bool"
        }
      ],
      "name": "newRole",
      "outputs": [
        {
          "internalType": "string",
          "name": "rowNumber",
          "type": "string"
        }
      ],
      "payable": false,
      "stateMutability": "nonpayable",
      "type": "function"
    },
    {
      "constant": false,
      "inputs": [
        {
          "internalType": "address",
          "name": "RoleAddress",
          "type": "address"
        },
        {
          "internalType": "string",
          "name": "name",
          "type": "string"
        },
        {
          "internalType": "bool",
          "name": "Admin",
          "type": "bool"
        }
      ],
      "name": "updateRole",
      "outputs": [
        {
          "internalType": "bool",
          "name": "success",
          "type": "bool"
        }
      ],
      "payable": false,
      "stateMutability": "nonpayable",
      "type": "function"
    }
  ],
  "bytecode": "0x60806040523480156200001157600080fd5b506000731d27b15febf8dce6fe0fd5b45a4784c4dd3e11e1905062000074816040518060400160405280600d81526020017f6669727374206163636f756e740000000000000000000000000000000000000081525060016200027d60201b60201c565b50620000bc816040518060400160405280600581526020017f526f6c65310000000000000000000000000000000000000000000000000000008152506200051860201b60201c565b62000103816040518060400160405280600581526020017f526f6c65320000000000000000000000000000000000000000000000000000008152506200051860201b60201c565b6200014a816040518060400160405280600581526020017f526f6c65330000000000000000000000000000000000000000000000000000008152506200051860201b60201c565b60007378f7c9953d321fb9864af3b86782759bc32d49689050620001ac816040518060400160405280600581526020017f50656f6e3100000000000000000000000000000000000000000000000000000081525060006200027d60201b60201c565b50600073705acb9996338094b6e16c5319e85132e978b3b690506200020f816040518060400160405280600c81526020017f66697273744163636f756e74000000000000000000000000000000000000000081525060016200027d60201b60201c565b5060007389033bc8f73ef5b46ccb013f6f948b00954a06bb905062000272816040518060400160405280600a81526020017f7365634163636f756e740000000000000000000000000000000000000000000081525060016200027d60201b60201c565b50505050506200083a565b606062000290846200059c60201b60201c565b156200029b57600080fd5b60606000604051908082528060200260200182016040528015620002d457816020015b6060815260200190600190039081620002be5790505b509050620002e1620005f4565b60405180608001604052808681526020016001151581526020018515158152602001838152509050806000808873ffffffffffffffffffffffffffffffffffffffff1673ffffffffffffffffffffffffffffffffffffffff16815260200190815260200160002060008201518160000190805190602001906200036692919062000620565b5060208201518160010160006101000a81548160ff02191690831515021790555060408201518160010160016101000a81548160ff0219169083151502179055506060820151816002019080519060200190620003c5929190620006a7565b5090505060018690806001815401808255809150509060018203906000526020600020016000909192909190916101000a81548173ffffffffffffffffffffffffffffffffffffffff021916908373ffffffffffffffffffffffffffffffffffffffff160217905550506000808773ffffffffffffffffffffffffffffffffffffffff1673ffffffffffffffffffffffffffffffffffffffff1681526020019081526020016000206000018054600181600116156101000203166002900480601f016020809104026020016040519081016040528092919081815260200182805460018160011615610100020316600290048015620005085780601f10620004dc5761010080835404028352916020019162000508565b820191906000526020600020905b815481529060010190602001808311620004ea57829003601f168201915b5050505050925050509392505050565b6000808373ffffffffffffffffffffffffffffffffffffffff1673ffffffffffffffffffffffffffffffffffffffff168152602001908152602001600020600201819080600181540180825580915050906001820390600052602060002001600090919290919091509080519060200190620005969291906200070e565b50505050565b60008060008373ffffffffffffffffffffffffffffffffffffffff1673ffffffffffffffffffffffffffffffffffffffff16815260200190815260200160002060010160009054906101000a900460ff169050919050565b604051806080016040528060608152602001600015158152602001600015158152602001606081525090565b828054600181600116156101000203166002900490600052602060002090601f016020900481019282601f106200066357805160ff191683800117855562000694565b8280016001018555821562000694579182015b828111156200069357825182559160200191906001019062000676565b5b509050620006a3919062000795565b5090565b828054828255906000526020600020908101928215620006fb579160200282015b82811115620006fa578251829080519060200190620006e992919062000620565b5091602001919060010190620006c8565b5b5090506200070a9190620007bd565b5090565b828054600181600116156101000203166002900490600052602060002090601f016020900481019282601f106200075157805160ff191683800117855562000782565b8280016001018555821562000782579182015b828111156200078157825182559160200191906001019062000764565b5b50905062000791919062000795565b5090565b620007ba91905b80821115620007b65760008160009055506001016200079c565b5090565b90565b620007eb91905b80821115620007e75760008181620007dd9190620007ee565b50600101620007c4565b5090565b90565b50805460018160011615610100020316600290046000825580601f1062000816575062000837565b601f01602090049060005260206000209081019062000836919062000795565b5b50565b611b75806200084a6000396000f3fe608060405234801561001057600080fd5b50600436106100a95760003560e01c80637106139811610071578063710613981461018e5780637323fd31146101ac5780637beeb945146101c85780637c08c80c146101f857806383d3331914610228578063b607fce514610246576100a9565b80632de82135146100ae57806335e8acfb146100de578063563392871461011057806359162240146101405780635fd4b08a1461015e575b600080fd5b6100c860048036036100c39190810190611575565b610262565b6040516100d591906118d2565b60405180910390f35b6100f860048036036100f391908101906114f8565b610330565b6040516101079392919061190f565b60405180910390f35b61012a600480360361012591908101906114f8565b61040c565b60405161013791906118b0565b60405180910390f35b610148610548565b60405161015591906118b0565b60405180910390f35b610178600480360361017391908101906114f8565b6107dc565b60405161018591906118ed565b60405180910390f35b6101966108bf565b6040516101a391906118b0565b60405180910390f35b6101c660048036036101c191908101906115dc565b610b12565b005b6101e260048036036101dd91908101906114f8565b610c9d565b6040516101ef91906118d2565b60405180910390f35b610212600480360361020d9190810190611575565b610cf5565b60405161021f91906118ed565b60405180910390f35b610230610f7b565b60405161023d919061194d565b60405180910390f35b610260600480360361025b9190810190611521565b610f88565b005b600061026d84610c9d565b61027657600080fd5b826000808673ffffffffffffffffffffffffffffffffffffffff1673ffffffffffffffffffffffffffffffffffffffff16815260200190815260200160002060000190805190602001906102cb92919061118d565b50816000808673ffffffffffffffffffffffffffffffffffffffff1673ffffffffffffffffffffffffffffffffffffffff16815260200190815260200160002060010160016101000a81548160ff021916908315150217905550600190509392505050565b6000602052806000526040600020600091509050806000018054600181600116156101000203166002900480601f0160208091040260200160405190810160405280929190818152602001828054600181600116156101000203166002900480156103dc5780601f106103b1576101008083540402835291602001916103dc565b820191906000526020600020905b8154815290600101906020018083116103bf57829003601f168201915b5050505050908060010160009054906101000a900460ff16908060010160019054906101000a900460ff16905083565b606061041782610c9d565b61042057600080fd5b6000808373ffffffffffffffffffffffffffffffffffffffff1673ffffffffffffffffffffffffffffffffffffffff168152602001908152602001600020600201805480602002602001604051908101604052809291908181526020016000905b8282101561053d578382906000526020600020018054600181600116156101000203166002900480601f0160208091040260200160405190810160405280929190818152602001828054600181600116156101000203166002900480156105295780601f106104fe57610100808354040283529160200191610529565b820191906000526020600020905b81548152906001019060200180831161050c57829003601f168201915b505050505081526020019060010190610481565b505050509050919050565b606080600260405190808252806020026020018201604052801561058057816020015b606081526020019060019003908161056b5790505b50905061058c33610c9d565b15610765576000803373ffffffffffffffffffffffffffffffffffffffff1673ffffffffffffffffffffffffffffffffffffffff1681526020019081526020016000206000018054600181600116156101000203166002900480601f0160208091040260200160405190810160405280929190818152602001828054600181600116156101000203166002900480156106665780601f1061063b57610100808354040283529160200191610666565b820191906000526020600020905b81548152906001019060200180831161064957829003601f168201915b50505050508160008151811061067857fe5b60200260200101819052506000803373ffffffffffffffffffffffffffffffffffffffff1673ffffffffffffffffffffffffffffffffffffffff16815260200190815260200160002060010160019054906101000a900460ff16610711576040518060400160405280600581526020017f66616c7365000000000000000000000000000000000000000000000000000000815250610748565b6040518060400160405280600481526020017f74727565000000000000000000000000000000000000000000000000000000008152505b8160018151811061075557fe5b60200260200101819052506107d5565b6040518060400160405280600e81526020017f4e6f742072656769737465726564000000000000000000000000000000000000815250816000815181106107a857fe5b60200260200101819052506107bc3361100a565b816001815181106107c957fe5b60200260200101819052505b8091505090565b60606000808373ffffffffffffffffffffffffffffffffffffffff1673ffffffffffffffffffffffffffffffffffffffff1681526020019081526020016000206000018054600181600116156101000203166002900480601f0160208091040260200160405190810160405280929190818152602001828054600181600116156101000203166002900480156108b35780601f10610888576101008083540402835291602001916108b3565b820191906000526020600020905b81548152906001019060200180831161089657829003601f168201915b50505050509050919050565b6060806001805490506040519080825280602002602001820160405280156108fb57816020015b60608152602001906001900390816108e65790505b50905060008090505b600180549050811015610b0a576000806001838154811061092157fe5b9060005260206000200160009054906101000a900473ffffffffffffffffffffffffffffffffffffffff1673ffffffffffffffffffffffffffffffffffffffff1673ffffffffffffffffffffffffffffffffffffffff1681526020019081526020016000206000016109c96001838154811061099957fe5b9060005260206000200160009054906101000a900473ffffffffffffffffffffffffffffffffffffffff1661100a565b600080600185815481106109d957fe5b9060005260206000200160009054906101000a900473ffffffffffffffffffffffffffffffffffffffff1673ffffffffffffffffffffffffffffffffffffffff1673ffffffffffffffffffffffffffffffffffffffff16815260200190815260200160002060010160019054906101000a900460ff16610a8e576040518060400160405280600581526020017f66616c7365000000000000000000000000000000000000000000000000000000815250610ac5565b6040518060400160405280600481526020017f74727565000000000000000000000000000000000000000000000000000000008152505b604051602001610ad793929190611869565b604051602081830303815290604052828281518110610af257fe5b60200260200101819052508080600101915050610904565b508091505090565b600060016000808573ffffffffffffffffffffffffffffffffffffffff1673ffffffffffffffffffffffffffffffffffffffff168152602001908152602001600020600201805490500390505b80821015610c43576000808473ffffffffffffffffffffffffffffffffffffffff1673ffffffffffffffffffffffffffffffffffffffff1681526020019081526020016000206002016001830181548110610bb657fe5b906000526020600020016000808573ffffffffffffffffffffffffffffffffffffffff1673ffffffffffffffffffffffffffffffffffffffff1681526020019081526020016000206002018381548110610c0c57fe5b906000526020600020019080546001816001161561010002031660029004610c3592919061120d565b508180600101925050610b5f565b6000808473ffffffffffffffffffffffffffffffffffffffff1673ffffffffffffffffffffffffffffffffffffffff168152602001908152602001600020600201805480919060019003610c979190611294565b50505050565b60008060008373ffffffffffffffffffffffffffffffffffffffff1673ffffffffffffffffffffffffffffffffffffffff16815260200190815260200160002060010160009054906101000a900460ff169050919050565b6060610d0084610c9d565b15610d0a57600080fd5b60606000604051908082528060200260200182016040528015610d4157816020015b6060815260200190600190039081610d2c5790505b509050610d4c6112c0565b60405180608001604052808681526020016001151581526020018515158152602001838152509050806000808873ffffffffffffffffffffffffffffffffffffffff1673ffffffffffffffffffffffffffffffffffffffff1681526020019081526020016000206000820151816000019080519060200190610dcf9291906112ec565b5060208201518160010160006101000a81548160ff02191690831515021790555060408201518160010160016101000a81548160ff0219169083151502179055506060820151816002019080519060200190610e2c92919061136c565b5090505060018690806001815401808255809150509060018203906000526020600020016000909192909190916101000a81548173ffffffffffffffffffffffffffffffffffffffff021916908373ffffffffffffffffffffffffffffffffffffffff160217905550506000808773ffffffffffffffffffffffffffffffffffffffff1673ffffffffffffffffffffffffffffffffffffffff1681526020019081526020016000206000018054600181600116156101000203166002900480601f016020809104026020016040519081016040528092919081815260200182805460018160011615610100020316600290048015610f6b5780601f10610f4057610100808354040283529160200191610f6b565b820191906000526020600020905b815481529060010190602001808311610f4e57829003601f168201915b5050505050925050509392505050565b6000600180549050905090565b6000808373ffffffffffffffffffffffffffffffffffffffff1673ffffffffffffffffffffffffffffffffffffffff16815260200190815260200160002060020181908060018154018082558091505090600182039060005260206000200160009091929091909150908051906020019061100492919061118d565b50505050565b60608060286040519080825280601f01601f1916602001820160405280156110415781602001600182028038833980820191505090505b50905060008090505b601481101561114f5760008160130360080260020a8573ffffffffffffffffffffffffffffffffffffffff168161107d57fe5b0460f81b9050600060108260f81c60ff168161109557fe5b0460f81b905060008160f81c6010028360f81c0360f81b90506110b782611159565b8585600202815181106110c657fe5b60200101907effffffffffffffffffffffffffffffffffffffffffffffffffffffffffffff1916908160001a9053506110fe81611159565b85600186600202018151811061111057fe5b60200101907effffffffffffffffffffffffffffffffffffffffffffffffffffffffffffff1916908160001a905350505050808060010191505061104a565b5080915050919050565b6000600a8260f81c60ff16101561117b5760308260f81c0160f81b9050611188565b60578260f81c0160f81b90505b919050565b828054600181600116156101000203166002900490600052602060002090601f016020900481019282601f106111ce57805160ff19168380011785556111fc565b828001600101855582156111fc579182015b828111156111fb5782518255916020019190600101906111e0565b5b50905061120991906113cc565b5090565b828054600181600116156101000203166002900490600052602060002090601f016020900481019282601f106112465780548555611283565b8280016001018555821561128357600052602060002091601f016020900482015b82811115611282578254825591600101919060010190611267565b5b50905061129091906113cc565b5090565b8154818355818111156112bb578183600052602060002091820191016112ba91906113f1565b5b505050565b604051806080016040528060608152602001600015158152602001600015158152602001606081525090565b828054600181600116156101000203166002900490600052602060002090601f016020900481019282601f1061132d57805160ff191683800117855561135b565b8280016001018555821561135b579182015b8281111561135a57825182559160200191906001019061133f565b5b50905061136891906113cc565b5090565b8280548282559060005260206000209081019282156113bb579160200282015b828111156113ba5782518290805190602001906113aa9291906112ec565b509160200191906001019061138c565b5b5090506113c891906113f1565b5090565b6113ee91905b808211156113ea5760008160009055506001016113d2565b5090565b90565b61141a91905b80821115611416576000818161140d919061141d565b506001016113f7565b5090565b90565b50805460018160011615610100020316600290046000825580601f106114435750611462565b601f01602090049060005260206000209081019061146191906113cc565b5b50565b60008135905061147481611aed565b92915050565b60008135905061148981611b04565b92915050565b600082601f8301126114a057600080fd5b81356114b36114ae82611995565b611968565b915080825260208301602083018583830111156114cf57600080fd5b6114da838284611a9a565b50505092915050565b6000813590506114f281611b1b565b92915050565b60006020828403121561150a57600080fd5b600061151884828501611465565b91505092915050565b6000806040838503121561153457600080fd5b600061154285828601611465565b925050602083013567ffffffffffffffff81111561155f57600080fd5b61156b8582860161148f565b9150509250929050565b60008060006060848603121561158a57600080fd5b600061159886828701611465565b935050602084013567ffffffffffffffff8111156115b557600080fd5b6115c18682870161148f565b92505060406115d28682870161147a565b9150509250925092565b600080604083850312156115ef57600080fd5b60006115fd85828601611465565b925050602061160e858286016114e3565b9150509250929050565b6000611624838361171a565b905092915050565b6000611637826119e6565b6116418185611a14565b935083602082028501611653856119c1565b8060005b8581101561168f57848403895281516116708582611618565b945061167b83611a07565b925060208a01995050600181019050611657565b50829750879550505050505092915050565b6116aa81611a64565b82525050565b60006116bb826119fc565b6116c58185611a36565b93506116d5818560208601611aa9565b6116de81611adc565b840191505092915050565b60006116f4826119fc565b6116fe8185611a47565b935061170e818560208601611aa9565b80840191505092915050565b6000611725826119f1565b61172f8185611a25565b935061173f818560208601611aa9565b61174881611adc565b840191505092915050565b600061175e826119f1565b6117688185611a36565b9350611778818560208601611aa9565b61178181611adc565b840191505092915050565b6000815460018116600081146117a957600181146117ce57611812565b607f60028304166117ba8187611a47565b955060ff1983168652808601935050611812565b600282046117dc8187611a47565b95506117e7856119d1565b60005b82811015611809578154818901526001820191506020810190506117ea565b82880195505050505b505092915050565b6000611827600383611a47565b91507f2f2f2f00000000000000000000000000000000000000000000000000000000006000830152600382019050919050565b61186381611a90565b82525050565b6000611875828661178c565b91506118808261181a565b915061188c82856116e9565b91506118978261181a565b91506118a382846116e9565b9150819050949350505050565b600060208201905081810360008301526118ca818461162c565b905092915050565b60006020820190506118e760008301846116a1565b92915050565b6000602082019050818103600083015261190781846116b0565b905092915050565b600060608201905081810360008301526119298186611753565b905061193860208301856116a1565b61194560408301846116a1565b949350505050565b6000602082019050611962600083018461185a565b92915050565b6000604051905081810181811067ffffffffffffffff8211171561198b57600080fd5b8060405250919050565b600067ffffffffffffffff8211156119ac57600080fd5b601f19601f8301169050602081019050919050565b6000819050602082019050919050565b60008190508160005260206000209050919050565b600081519050919050565b600081519050919050565b600081519050919050565b6000602082019050919050565b600082825260208201905092915050565b600082825260208201905092915050565b600082825260208201905092915050565b600081905092915050565b6000611a5d82611a70565b9050919050565b60008115159050919050565b600073ffffffffffffffffffffffffffffffffffffffff82169050919050565b6000819050919050565b82818337600083830152505050565b60005b83811015611ac7578082015181840152602081019050611aac565b83811115611ad6576000848401525b50505050565b6000601f19601f8301169050919050565b611af681611a52565b8114611b0157600080fd5b50565b611b0d81611a64565b8114611b1857600080fd5b50565b611b2481611a90565b8114611b2f57600080fd5b5056fea365627a7a7231582021a8e303da285b46f7cc8207abbae2346e70f7b4cb4e2baa51b46a15fe02acdd6c6578706572696d656e74616cf564736f6c63430005100040",
  "source": "pragma solidity ^0.5.16;\npragma experimental ABIEncoderV2;\n\ncontract AdminRoleManager {\n    struct Role {\n        string name;\n        bool isRole;\n        bool isAdmin;\n        string[] roles;\n    }\n\n    mapping(address => Role) public Roles;\n    address[] roleList;\n\n    constructor() public {\n        address modAddress = 0x1D27B15fEbF8dce6fe0Fd5B45A4784C4dD3e11e1;\n        newRole(modAddress, \"first account\", true);\n        AddElemRole(modAddress, \"Role1\");\n        AddElemRole(modAddress, \"Role2\");\n        AddElemRole(modAddress, \"Role3\");\n\n        address peonAddress1 = 0x78F7c9953D321Fb9864Af3B86782759bC32d4968;\n        newRole(peonAddress1, \"Peon1\", false);\n\n        address modAddress1 = 0x705aCb9996338094b6E16C5319e85132E978B3B6;\n        newRole(modAddress1, \"firstAccount\", true);\n\n        address modAddress2 = 0x89033bC8f73Ef5b46CCb013f6F948b00954a06BB;\n        newRole(modAddress2, \"secAccount\", true);\n    }\n\n    function isRole(address RoleAddress) public view returns (bool isIndeed) {\n        return Roles[RoleAddress].isRole;\n    }\n\n    function imRole() public view returns (string[] memory role) {\n        string[] memory role = new string[](2);\n        if (isRole(msg.sender)) {\n            role[0] = Roles[msg.sender].name;\n            role[1] = Roles[msg.sender].isAdmin ? \"true\" : \"false\";\n        } else {\n            role[0] = \"Not registered\";\n            role[1] = toAsciiString(msg.sender);\n        }\n        return role;\n    }\n\n    function getRoleCount() public view returns (uint256 RoleCount) {\n        return roleList.length;\n    }\n\n    function getName(address add) public view returns (string memory aze) {\n        return Roles[add].name;\n    }\n\n    function getRoles() public view returns (string[] memory list) {\n        string[] memory listofRoles = new string[](roleList.length);\n        for (uint256 i = 0; i < roleList.length; i++) {\n            listofRoles[i] = string(\n                abi.encodePacked(\n                    Roles[roleList[i]].name,\n                    \"///\",\n                    toAsciiString(roleList[i]),\n                    \"///\",\n                    (Roles[roleList[i]].isAdmin ? \"true\" : \"false\")\n                )\n            );\n        }\n        return listofRoles;\n    }\n\n    function getElemRoles(address add)\n        public\n        view\n        returns (string[] memory list)\n    {\n        if (!isRole(add)) revert();\n        return Roles[add].roles;\n    }\n\n    function AddElemRole(address add, string memory newRole) public {\n        Roles[add].roles.push(newRole);\n    }\n\n    function RemoveElemRole(address add, uint256 i) public {\n        uint256 lim = Roles[add].roles.length - 1;\n        while (i < lim) {\n            Roles[add].roles[i] = Roles[add].roles[i + 1];\n            i++;\n        }\n        Roles[add].roles.length--;\n    }\n\n    function toAsciiString(address x) internal view returns (string memory) {\n        bytes memory s = new bytes(40);\n        for (uint256 i = 0; i < 20; i++) {\n            bytes1 b = bytes1(uint8(uint256(uint160(x)) / (2**(8 * (19 - i)))));\n            bytes1 hi = bytes1(uint8(b) / 16);\n            bytes1 lo = bytes1(uint8(b) - 16 * uint8(hi));\n            s[2 * i] = char(hi);\n            s[2 * i + 1] = char(lo);\n        }\n        return string(s);\n    }\n\n    function char(bytes1 b) internal view returns (bytes1 c) {\n        if (uint8(b) < 10) return bytes1(uint8(b) + 0x30);\n        else return bytes1(uint8(b) + 0x57);\n    }\n\n    function newRole(\n        address RoleAddress,\n        string memory name,\n        bool isAdmin\n    ) public returns (string memory rowNumber) {\n        if (isRole(RoleAddress)) revert();\n        string[] memory tmpList = new string[](0);\n        Role memory tempStruct = Role(name, true, isAdmin, tmpList);\n        Roles[RoleAddress] = tempStruct;\n        roleList.push(RoleAddress);\n        return Roles[RoleAddress].name;\n    }\n\n    function updateRole(\n        address RoleAddress,\n        string memory name,\n        bool Admin\n    ) public returns (bool success) {\n        if (!isRole(RoleAddress)) revert();\n        Roles[RoleAddress].name = name;\n        Roles[RoleAddress].isAdmin = Admin;\n        return true;\n    }\n}\n",
  "sourcePath": "/home/hhdf8435/code/masterPlatform/contracts/AdminRoleManager.sol",
  "compiler": {
    "name": "solc",
    "version": "0.5.16+commit.9c3226ce.Emscripten.clang"
  },
  "schemaVersion": "3.4.1",
  "updatedAt": "2021-06-10T13:13:39.255Z",
  "networkType": "ethereum",
  "devdoc": {
    "methods": {}
  },
  "userdoc": {
    "methods": {}
  }
}