{
  "contractName": "AdminRoleManager",
  "abi": [
    {
      "inputs": [],
      "payable": false,
      "stateMutability": "nonpayable",
      "type": "constructor"
    },
    {
      "constant": true,
      "inputs": [
        {
          "internalType": "address",
          "name": "",
          "type": "address"
        }
      ],
      "name": "Roles",
      "outputs": [
        {
          "internalType": "string",
          "name": "name",
          "type": "string"
        },
        {
          "internalType": "bool",
          "name": "isRole",
          "type": "bool"
        },
        {
          "internalType": "bool",
          "name": "isAdmin",
          "type": "bool"
        }
      ],
      "payable": false,
      "stateMutability": "view",
      "type": "function"
    },
    {
      "constant": true,
      "inputs": [
        {
          "internalType": "address",
          "name": "RoleAddress",
          "type": "address"
        }
      ],
      "name": "isRole",
      "outputs": [
        {
          "internalType": "bool",
          "name": "isIndeed",
          "type": "bool"
        }
      ],
      "payable": false,
      "stateMutability": "view",
      "type": "function"
    },
    {
      "constant": true,
      "inputs": [],
      "name": "imRole",
      "outputs": [
        {
          "internalType": "string[]",
          "name": "role",
          "type": "string[]"
        }
      ],
      "payable": false,
      "stateMutability": "view",
      "type": "function"
    },
    {
      "constant": true,
      "inputs": [],
      "name": "getRoleCount",
      "outputs": [
        {
          "internalType": "uint256",
          "name": "RoleCount",
          "type": "uint256"
        }
      ],
      "payable": false,
      "stateMutability": "view",
      "type": "function"
    },
    {
      "constant": true,
      "inputs": [
        {
          "internalType": "address",
          "name": "add",
          "type": "address"
        }
      ],
      "name": "getName",
      "outputs": [
        {
          "internalType": "string",
          "name": "aze",
          "type": "string"
        }
      ],
      "payable": false,
      "stateMutability": "view",
      "type": "function"
    },
    {
      "constant": true,
      "inputs": [],
      "name": "getRoles",
      "outputs": [
        {
          "internalType": "string[]",
          "name": "list",
          "type": "string[]"
        }
      ],
      "payable": false,
      "stateMutability": "view",
      "type": "function"
    },
    {
      "constant": false,
      "inputs": [
        {
          "internalType": "address",
          "name": "RoleAddress",
          "type": "address"
        },
        {
          "internalType": "string",
          "name": "name",
          "type": "string"
        },
        {
          "internalType": "bool",
          "name": "isAdmin",
          "type": "bool"
        }
      ],
      "name": "newRole",
      "outputs": [
        {
          "internalType": "string",
          "name": "rowNumber",
          "type": "string"
        }
      ],
      "payable": false,
      "stateMutability": "nonpayable",
      "type": "function"
    },
    {
      "constant": false,
      "inputs": [
        {
          "internalType": "address",
          "name": "RoleAddress",
          "type": "address"
        },
        {
          "internalType": "string",
          "name": "name",
          "type": "string"
        },
        {
          "internalType": "bool",
          "name": "Admin",
          "type": "bool"
        }
      ],
      "name": "updateRole",
      "outputs": [
        {
          "internalType": "bool",
          "name": "success",
          "type": "bool"
        }
      ],
      "payable": false,
      "stateMutability": "nonpayable",
      "type": "function"
    }
  ],
  "bytecode": "0x60806040523480156200001157600080fd5b506000731d27b15febf8dce6fe0fd5b45a4784c4dd3e11e1905062000074816040518060400160405280600d81526020017f6669727374206163636f756e740000000000000000000000000000000000000081525060016200014460201b60201c565b50600073705acb9996338094b6e16c5319e85132e978b3b69050620000d7816040518060400160405280600c81526020017f66697273744163636f756e74000000000000000000000000000000000000000081525060016200014460201b60201c565b5060007389033bc8f73ef5b46ccb013f6f948b00954a06bb90506200013a816040518060400160405280600a81526020017f7365634163636f756e740000000000000000000000000000000000000000000081525060016200014460201b60201c565b50505050620004a9565b606062000157846200037d60201b60201c565b156200016257600080fd5b6200016c620003d5565b60405180606001604052808581526020016001151581526020018415158152509050806000808773ffffffffffffffffffffffffffffffffffffffff1673ffffffffffffffffffffffffffffffffffffffff1681526020019081526020016000206000820151816000019080519060200190620001eb929190620003fa565b5060208201518160010160006101000a81548160ff02191690831515021790555060408201518160010160016101000a81548160ff02191690831515021790555090505060018590806001815401808255809150509060018203906000526020600020016000909192909190916101000a81548173ffffffffffffffffffffffffffffffffffffffff021916908373ffffffffffffffffffffffffffffffffffffffff160217905550506000808673ffffffffffffffffffffffffffffffffffffffff1673ffffffffffffffffffffffffffffffffffffffff1681526020019081526020016000206000018054600181600116156101000203166002900480601f0160208091040260200160405190810160405280929190818152602001828054600181600116156101000203166002900480156200036e5780601f1062000342576101008083540402835291602001916200036e565b820191906000526020600020905b8154815290600101906020018083116200035057829003601f168201915b50505050509150509392505050565b60008060008373ffffffffffffffffffffffffffffffffffffffff1673ffffffffffffffffffffffffffffffffffffffff16815260200190815260200160002060010160009054906101000a900460ff169050919050565b6040518060600160405280606081526020016000151581526020016000151581525090565b828054600181600116156101000203166002900490600052602060002090601f016020900481019282601f106200043d57805160ff19168380011785556200046e565b828001600101855582156200046e579182015b828111156200046d57825182559160200191906001019062000450565b5b5090506200047d919062000481565b5090565b620004a691905b80821115620004a257600081600090555060010162000488565b5090565b90565b6114fb80620004b96000396000f3fe608060405234801561001057600080fd5b50600436106100885760003560e01c8063710613981161005b578063710613981461013d5780637beeb9451461015b5780637c08c80c1461018b57806383d33319146101bb57610088565b80632de821351461008d57806335e8acfb146100bd57806359162240146100ef5780635fd4b08a1461010d575b600080fd5b6100a760048036036100a29190810190610f4e565b6101d9565b6040516100b4919061126f565b60405180910390f35b6100d760048036036100d29190810190610f25565b6102a7565b6040516100e6939291906112ac565b60405180910390f35b6100f7610383565b604051610104919061124d565b60405180910390f35b61012760048036036101229190810190610f25565b610617565b604051610134919061128a565b60405180910390f35b6101456106fa565b604051610152919061124d565b60405180910390f35b61017560048036036101709190810190610f25565b61094d565b604051610182919061126f565b60405180910390f35b6101a560048036036101a09190810190610f4e565b6109a5565b6040516101b2919061128a565b60405180910390f35b6101c3610bcd565b6040516101d091906112ea565b60405180910390f35b60006101e48461094d565b6101ed57600080fd5b826000808673ffffffffffffffffffffffffffffffffffffffff1673ffffffffffffffffffffffffffffffffffffffff1681526020019081526020016000206000019080519060200190610242929190610d5d565b50816000808673ffffffffffffffffffffffffffffffffffffffff1673ffffffffffffffffffffffffffffffffffffffff16815260200190815260200160002060010160016101000a81548160ff021916908315150217905550600190509392505050565b6000602052806000526040600020600091509050806000018054600181600116156101000203166002900480601f0160208091040260200160405190810160405280929190818152602001828054600181600116156101000203166002900480156103535780601f1061032857610100808354040283529160200191610353565b820191906000526020600020905b81548152906001019060200180831161033657829003601f168201915b5050505050908060010160009054906101000a900460ff16908060010160019054906101000a900460ff16905083565b60608060026040519080825280602002602001820160405280156103bb57816020015b60608152602001906001900390816103a65790505b5090506103c73361094d565b156105a0576000803373ffffffffffffffffffffffffffffffffffffffff1673ffffffffffffffffffffffffffffffffffffffff1681526020019081526020016000206000018054600181600116156101000203166002900480601f0160208091040260200160405190810160405280929190818152602001828054600181600116156101000203166002900480156104a15780601f10610476576101008083540402835291602001916104a1565b820191906000526020600020905b81548152906001019060200180831161048457829003601f168201915b5050505050816000815181106104b357fe5b60200260200101819052506000803373ffffffffffffffffffffffffffffffffffffffff1673ffffffffffffffffffffffffffffffffffffffff16815260200190815260200160002060010160019054906101000a900460ff1661054c576040518060400160405280600581526020017f66616c7365000000000000000000000000000000000000000000000000000000815250610583565b6040518060400160405280600481526020017f74727565000000000000000000000000000000000000000000000000000000008152505b8160018151811061059057fe5b6020026020010181905250610610565b6040518060400160405280600e81526020017f4e6f742072656769737465726564000000000000000000000000000000000000815250816000815181106105e357fe5b60200260200101819052506105f733610bda565b8160018151811061060457fe5b60200260200101819052505b8091505090565b60606000808373ffffffffffffffffffffffffffffffffffffffff1673ffffffffffffffffffffffffffffffffffffffff1681526020019081526020016000206000018054600181600116156101000203166002900480601f0160208091040260200160405190810160405280929190818152602001828054600181600116156101000203166002900480156106ee5780601f106106c3576101008083540402835291602001916106ee565b820191906000526020600020905b8154815290600101906020018083116106d157829003601f168201915b50505050509050919050565b60608060018054905060405190808252806020026020018201604052801561073657816020015b60608152602001906001900390816107215790505b50905060008090505b600180549050811015610945576000806001838154811061075c57fe5b9060005260206000200160009054906101000a900473ffffffffffffffffffffffffffffffffffffffff1673ffffffffffffffffffffffffffffffffffffffff1673ffffffffffffffffffffffffffffffffffffffff168152602001908152602001600020600001610804600183815481106107d457fe5b9060005260206000200160009054906101000a900473ffffffffffffffffffffffffffffffffffffffff16610bda565b6000806001858154811061081457fe5b9060005260206000200160009054906101000a900473ffffffffffffffffffffffffffffffffffffffff1673ffffffffffffffffffffffffffffffffffffffff1673ffffffffffffffffffffffffffffffffffffffff16815260200190815260200160002060010160019054906101000a900460ff166108c9576040518060400160405280600581526020017f66616c7365000000000000000000000000000000000000000000000000000000815250610900565b6040518060400160405280600481526020017f74727565000000000000000000000000000000000000000000000000000000008152505b60405160200161091293929190611206565b60405160208183030381529060405282828151811061092d57fe5b6020026020010181905250808060010191505061073f565b508091505090565b60008060008373ffffffffffffffffffffffffffffffffffffffff1673ffffffffffffffffffffffffffffffffffffffff16815260200190815260200160002060010160009054906101000a900460ff169050919050565b60606109b08461094d565b156109ba57600080fd5b6109c2610ddd565b60405180606001604052808581526020016001151581526020018415158152509050806000808773ffffffffffffffffffffffffffffffffffffffff1673ffffffffffffffffffffffffffffffffffffffff1681526020019081526020016000206000820151816000019080519060200190610a3f929190610e02565b5060208201518160010160006101000a81548160ff02191690831515021790555060408201518160010160016101000a81548160ff02191690831515021790555090505060018590806001815401808255809150509060018203906000526020600020016000909192909190916101000a81548173ffffffffffffffffffffffffffffffffffffffff021916908373ffffffffffffffffffffffffffffffffffffffff160217905550506000808673ffffffffffffffffffffffffffffffffffffffff1673ffffffffffffffffffffffffffffffffffffffff1681526020019081526020016000206000018054600181600116156101000203166002900480601f016020809104026020016040519081016040528092919081815260200182805460018160011615610100020316600290048015610bbe5780601f10610b9357610100808354040283529160200191610bbe565b820191906000526020600020905b815481529060010190602001808311610ba157829003601f168201915b50505050509150509392505050565b6000600180549050905090565b60608060286040519080825280601f01601f191660200182016040528015610c115781602001600182028038833980820191505090505b50905060008090505b6014811015610d1f5760008160130360080260020a8573ffffffffffffffffffffffffffffffffffffffff1681610c4d57fe5b0460f81b9050600060108260f81c60ff1681610c6557fe5b0460f81b905060008160f81c6010028360f81c0360f81b9050610c8782610d29565b858560020281518110610c9657fe5b60200101907effffffffffffffffffffffffffffffffffffffffffffffffffffffffffffff1916908160001a905350610cce81610d29565b856001866002020181518110610ce057fe5b60200101907effffffffffffffffffffffffffffffffffffffffffffffffffffffffffffff1916908160001a9053505050508080600101915050610c1a565b5080915050919050565b6000600a8260f81c60ff161015610d4b5760308260f81c0160f81b9050610d58565b60578260f81c0160f81b90505b919050565b828054600181600116156101000203166002900490600052602060002090601f016020900481019282601f10610d9e57805160ff1916838001178555610dcc565b82800160010185558215610dcc579182015b82811115610dcb578251825591602001919060010190610db0565b5b509050610dd99190610e82565b5090565b6040518060600160405280606081526020016000151581526020016000151581525090565b828054600181600116156101000203166002900490600052602060002090601f016020900481019282601f10610e4357805160ff1916838001178555610e71565b82800160010185558215610e71579182015b82811115610e70578251825591602001919060010190610e55565b5b509050610e7e9190610e82565b5090565b610ea491905b80821115610ea0576000816000905550600101610e88565b5090565b90565b600081359050610eb68161148a565b92915050565b600081359050610ecb816114a1565b92915050565b600082601f830112610ee257600080fd5b8135610ef5610ef082611332565b611305565b91508082526020830160208301858383011115610f1157600080fd5b610f1c838284611437565b50505092915050565b600060208284031215610f3757600080fd5b6000610f4584828501610ea7565b91505092915050565b600080600060608486031215610f6357600080fd5b6000610f7186828701610ea7565b935050602084013567ffffffffffffffff811115610f8e57600080fd5b610f9a86828701610ed1565b9250506040610fab86828701610ebc565b9150509250925092565b6000610fc183836110b7565b905092915050565b6000610fd482611383565b610fde81856113b1565b935083602082028501610ff08561135e565b8060005b8581101561102c578484038952815161100d8582610fb5565b9450611018836113a4565b925060208a01995050600181019050610ff4565b50829750879550505050505092915050565b61104781611401565b82525050565b600061105882611399565b61106281856113d3565b9350611072818560208601611446565b61107b81611479565b840191505092915050565b600061109182611399565b61109b81856113e4565b93506110ab818560208601611446565b80840191505092915050565b60006110c28261138e565b6110cc81856113c2565b93506110dc818560208601611446565b6110e581611479565b840191505092915050565b60006110fb8261138e565b61110581856113d3565b9350611115818560208601611446565b61111e81611479565b840191505092915050565b600081546001811660008114611146576001811461116b576111af565b607f600283041661115781876113e4565b955060ff19831686528086019350506111af565b6002820461117981876113e4565b95506111848561136e565b60005b828110156111a657815481890152600182019150602081019050611187565b82880195505050505b505092915050565b60006111c46003836113e4565b91507f2f2f2f00000000000000000000000000000000000000000000000000000000006000830152600382019050919050565b6112008161142d565b82525050565b60006112128286611129565b915061121d826111b7565b91506112298285611086565b9150611234826111b7565b91506112408284611086565b9150819050949350505050565b600060208201905081810360008301526112678184610fc9565b905092915050565b6000602082019050611284600083018461103e565b92915050565b600060208201905081810360008301526112a4818461104d565b905092915050565b600060608201905081810360008301526112c681866110f0565b90506112d5602083018561103e565b6112e2604083018461103e565b949350505050565b60006020820190506112ff60008301846111f7565b92915050565b6000604051905081810181811067ffffffffffffffff8211171561132857600080fd5b8060405250919050565b600067ffffffffffffffff82111561134957600080fd5b601f19601f8301169050602081019050919050565b6000819050602082019050919050565b60008190508160005260206000209050919050565b600081519050919050565b600081519050919050565b600081519050919050565b6000602082019050919050565b600082825260208201905092915050565b600082825260208201905092915050565b600082825260208201905092915050565b600081905092915050565b60006113fa8261140d565b9050919050565b60008115159050919050565b600073ffffffffffffffffffffffffffffffffffffffff82169050919050565b6000819050919050565b82818337600083830152505050565b60005b83811015611464578082015181840152602081019050611449565b83811115611473576000848401525b50505050565b6000601f19601f8301169050919050565b611493816113ef565b811461149e57600080fd5b50565b6114aa81611401565b81146114b557600080fd5b5056fea365627a7a72315820db5da63a68a78f8db037a7fd8f3eaf12b64b3c2aac5d124ae55206df2a3fe3606c6578706572696d656e74616cf564736f6c63430005100040",
  "source": "pragma solidity ^0.5.16;\npragma experimental ABIEncoderV2;\n\ncontract AdminRoleManager {\n    struct Role {\n        string name;\n        bool isRole;\n        bool isAdmin;\n    }\n\n    mapping(address => Role) public Roles;\n    address[] roleList;\n\n    constructor() public {\n        address modAddress = 0x1D27B15fEbF8dce6fe0Fd5B45A4784C4dD3e11e1;\n        newRole(modAddress, \"first account\", true);\n\n        address modAddress1 = 0x705aCb9996338094b6E16C5319e85132E978B3B6;\n        newRole(modAddress1, \"firstAccount\", true);\n\n        address modAddress2 = 0x89033bC8f73Ef5b46CCb013f6F948b00954a06BB;\n        newRole(modAddress2, \"secAccount\", true);\n    }\n\n    function isRole(address RoleAddress) public view returns (bool isIndeed) {\n        return Roles[RoleAddress].isRole;\n    }\n\n    function imRole() public view returns (string[] memory role) {\n        string[] memory role = new string[](2);\n        if (isRole(msg.sender)) {\n            role[0] = Roles[msg.sender].name;\n            role[1] = Roles[msg.sender].isAdmin ? \"true\" : \"false\";\n        } else {\n            role[0] = \"Not registered\";\n            role[1] = toAsciiString(msg.sender);\n        }\n        return role;\n    }\n\n    function getRoleCount() public view returns (uint256 RoleCount) {\n        return roleList.length;\n    }\n\n    function getName(address add) public view returns (string memory aze) {\n        return Roles[add].name;\n    }\n\n    function getRoles() public view returns (string[] memory list) {\n        string[] memory listofRoles = new string[](roleList.length);\n        for (uint256 i = 0; i < roleList.length; i++) {\n            listofRoles[i] = string(\n                abi.encodePacked(\n                    Roles[roleList[i]].name,\n                    \"///\",\n                    toAsciiString(roleList[i]),\n                    \"///\",\n                    (Roles[roleList[i]].isAdmin ? \"true\" : \"false\")\n                )\n            );\n        }\n        return listofRoles;\n    }\n\n    function toAsciiString(address x) internal view returns (string memory) {\n        bytes memory s = new bytes(40);\n        for (uint256 i = 0; i < 20; i++) {\n            bytes1 b = bytes1(uint8(uint256(uint160(x)) / (2**(8 * (19 - i)))));\n            bytes1 hi = bytes1(uint8(b) / 16);\n            bytes1 lo = bytes1(uint8(b) - 16 * uint8(hi));\n            s[2 * i] = char(hi);\n            s[2 * i + 1] = char(lo);\n        }\n        return string(s);\n    }\n\n    function char(bytes1 b) internal view returns (bytes1 c) {\n        if (uint8(b) < 10) return bytes1(uint8(b) + 0x30);\n        else return bytes1(uint8(b) + 0x57);\n    }\n\n    function newRole(\n        address RoleAddress,\n        string memory name,\n        bool isAdmin\n    ) public returns (string memory rowNumber) {\n        if (isRole(RoleAddress)) revert();\n        Role memory tempStruct = Role(name, true, isAdmin);\n        Roles[RoleAddress] = tempStruct;\n        roleList.push(RoleAddress);\n        return Roles[RoleAddress].name;\n    }\n\n    function updateRole(\n        address RoleAddress,\n        string memory name,\n        bool Admin\n    ) public returns (bool success) {\n        if (!isRole(RoleAddress)) revert();\n        Roles[RoleAddress].name = name;\n        Roles[RoleAddress].isAdmin = Admin;\n        return true;\n    }\n}\n",
  "sourcePath": "/home/hhdf8435/code/masterPlatform/contracts/AdminRoleManager.sol",
  "compiler": {
    "name": "solc",
    "version": "0.5.16+commit.9c3226ce.Emscripten.clang"
  },
  "schemaVersion": "3.4.1",
  "updatedAt": "2021-06-08T08:50:18.834Z",
  "networkType": "ethereum",
  "devdoc": {
    "methods": {}
  },
  "userdoc": {
    "methods": {}
  }
}