{
  "contractName": "AdminRoleManager",
  "abi": [
    {
      "inputs": [],
      "payable": false,
      "stateMutability": "nonpayable",
      "type": "constructor"
    },
    {
      "constant": true,
      "inputs": [
        {
          "internalType": "address",
          "name": "",
          "type": "address"
        }
      ],
      "name": "Roles",
      "outputs": [
        {
          "internalType": "string",
          "name": "name",
          "type": "string"
        },
        {
          "internalType": "bool",
          "name": "isRole",
          "type": "bool"
        },
        {
          "internalType": "bool",
          "name": "isAdmin",
          "type": "bool"
        }
      ],
      "payable": false,
      "stateMutability": "view",
      "type": "function"
    },
    {
      "constant": true,
      "inputs": [
        {
          "internalType": "address",
          "name": "RoleAddress",
          "type": "address"
        }
      ],
      "name": "isRole",
      "outputs": [
        {
          "internalType": "bool",
          "name": "isIndeed",
          "type": "bool"
        }
      ],
      "payable": false,
      "stateMutability": "view",
      "type": "function"
    },
    {
      "constant": true,
      "inputs": [],
      "name": "imRole",
      "outputs": [
        {
          "internalType": "string[]",
          "name": "role",
          "type": "string[]"
        }
      ],
      "payable": false,
      "stateMutability": "view",
      "type": "function"
    },
    {
      "constant": false,
      "inputs": [
        {
          "internalType": "address[]",
          "name": "add",
          "type": "address[]"
        },
        {
          "internalType": "string[]",
          "name": "roles",
          "type": "string[]"
        }
      ],
      "name": "importAccount",
      "outputs": [],
      "payable": false,
      "stateMutability": "nonpayable",
      "type": "function"
    },
    {
      "constant": true,
      "inputs": [
        {
          "internalType": "string",
          "name": "s1",
          "type": "string"
        },
        {
          "internalType": "string",
          "name": "s2",
          "type": "string"
        }
      ],
      "name": "compareStringsbyBytes",
      "outputs": [
        {
          "internalType": "bool",
          "name": "",
          "type": "bool"
        }
      ],
      "payable": false,
      "stateMutability": "pure",
      "type": "function"
    },
    {
      "constant": true,
      "inputs": [],
      "name": "getRoleCount",
      "outputs": [
        {
          "internalType": "uint256",
          "name": "RoleCount",
          "type": "uint256"
        }
      ],
      "payable": false,
      "stateMutability": "view",
      "type": "function"
    },
    {
      "constant": true,
      "inputs": [
        {
          "internalType": "address",
          "name": "add",
          "type": "address"
        }
      ],
      "name": "getName",
      "outputs": [
        {
          "internalType": "string",
          "name": "aze",
          "type": "string"
        }
      ],
      "payable": false,
      "stateMutability": "view",
      "type": "function"
    },
    {
      "constant": true,
      "inputs": [],
      "name": "getRoles",
      "outputs": [
        {
          "internalType": "string[]",
          "name": "list",
          "type": "string[]"
        }
      ],
      "payable": false,
      "stateMutability": "view",
      "type": "function"
    },
    {
      "constant": true,
      "inputs": [
        {
          "internalType": "address",
          "name": "add",
          "type": "address"
        }
      ],
      "name": "getElemRoles",
      "outputs": [
        {
          "internalType": "string[]",
          "name": "list",
          "type": "string[]"
        }
      ],
      "payable": false,
      "stateMutability": "view",
      "type": "function"
    },
    {
      "constant": false,
      "inputs": [
        {
          "internalType": "address",
          "name": "add",
          "type": "address"
        },
        {
          "internalType": "string",
          "name": "newRole",
          "type": "string"
        }
      ],
      "name": "AddElemRole",
      "outputs": [],
      "payable": false,
      "stateMutability": "nonpayable",
      "type": "function"
    },
    {
      "constant": false,
      "inputs": [
        {
          "internalType": "address",
          "name": "add",
          "type": "address"
        },
        {
          "internalType": "uint256",
          "name": "i",
          "type": "uint256"
        }
      ],
      "name": "RemoveElemRole",
      "outputs": [],
      "payable": false,
      "stateMutability": "nonpayable",
      "type": "function"
    },
    {
      "constant": false,
      "inputs": [
        {
          "internalType": "address",
          "name": "RoleAddress",
          "type": "address"
        },
        {
          "internalType": "string",
          "name": "name",
          "type": "string"
        },
        {
          "internalType": "bool",
          "name": "isAdmin",
          "type": "bool"
        }
      ],
      "name": "newRole",
      "outputs": [
        {
          "internalType": "string",
          "name": "rowNumber",
          "type": "string"
        }
      ],
      "payable": false,
      "stateMutability": "nonpayable",
      "type": "function"
    },
    {
      "constant": false,
      "inputs": [
        {
          "internalType": "address",
          "name": "RoleAddress",
          "type": "address"
        },
        {
          "internalType": "string",
          "name": "name",
          "type": "string"
        },
        {
          "internalType": "bool",
          "name": "Admin",
          "type": "bool"
        }
      ],
      "name": "updateRole",
      "outputs": [
        {
          "internalType": "bool",
          "name": "success",
          "type": "bool"
        }
      ],
      "payable": false,
      "stateMutability": "nonpayable",
      "type": "function"
    }
  ],
  "bytecode": "0x60806040523480156200001157600080fd5b506000731d27b15febf8dce6fe0fd5b45a4784c4dd3e11e1905062000074816040518060400160405280600d81526020017f6669727374206163636f756e740000000000000000000000000000000000000081525060016200027d60201b60201c565b50620000bc816040518060400160405280600581526020017f526f6c65310000000000000000000000000000000000000000000000000000008152506200051860201b60201c565b62000103816040518060400160405280600581526020017f526f6c65320000000000000000000000000000000000000000000000000000008152506200051860201b60201c565b6200014a816040518060400160405280600581526020017f526f6c65330000000000000000000000000000000000000000000000000000008152506200051860201b60201c565b60007378f7c9953d321fb9864af3b86782759bc32d49689050620001ac816040518060400160405280600581526020017f50656f6e3100000000000000000000000000000000000000000000000000000081525060006200027d60201b60201c565b50600073705acb9996338094b6e16c5319e85132e978b3b690506200020f816040518060400160405280600c81526020017f66697273744163636f756e74000000000000000000000000000000000000000081525060016200027d60201b60201c565b5060007389033bc8f73ef5b46ccb013f6f948b00954a06bb905062000272816040518060400160405280600a81526020017f7365634163636f756e740000000000000000000000000000000000000000000081525060016200027d60201b60201c565b50505050506200094e565b606062000290846200061460201b60201c565b156200029b57600080fd5b60606000604051908082528060200260200182016040528015620002d457816020015b6060815260200190600190039081620002be5790505b509050620002e16200066c565b60405180608001604052808681526020016001151581526020018515158152602001838152509050806000808873ffffffffffffffffffffffffffffffffffffffff1673ffffffffffffffffffffffffffffffffffffffff16815260200190815260200160002060008201518160000190805190602001906200036692919062000698565b5060208201518160010160006101000a81548160ff02191690831515021790555060408201518160010160016101000a81548160ff0219169083151502179055506060820151816002019080519060200190620003c59291906200071f565b5090505060018690806001815401808255809150509060018203906000526020600020016000909192909190916101000a81548173ffffffffffffffffffffffffffffffffffffffff021916908373ffffffffffffffffffffffffffffffffffffffff160217905550506000808773ffffffffffffffffffffffffffffffffffffffff1673ffffffffffffffffffffffffffffffffffffffff1681526020019081526020016000206000018054600181600116156101000203166002900480601f016020809104026020016040519081016040528092919081815260200182805460018160011615610100020316600290048015620005085780601f10620004dc5761010080835404028352916020019162000508565b820191906000526020600020905b815481529060010190602001808311620004ea57829003601f168201915b5050505050925050509392505050565b6000808373ffffffffffffffffffffffffffffffffffffffff1673ffffffffffffffffffffffffffffffffffffffff1681526020019081526020016000206002018190806001815401808255809150509060018203906000526020600020016000909192909190915090805190602001906200059692919062000786565b505060016000808473ffffffffffffffffffffffffffffffffffffffff1673ffffffffffffffffffffffffffffffffffffffff16815260200190815260200160002060030182604051620005eb9190620008e9565b908152602001604051809103902060006101000a81548160ff0219169083151502179055505050565b60008060008373ffffffffffffffffffffffffffffffffffffffff1673ffffffffffffffffffffffffffffffffffffffff16815260200190815260200160002060010160009054906101000a900460ff169050919050565b604051806080016040528060608152602001600015158152602001600015158152602001606081525090565b828054600181600116156101000203166002900490600052602060002090601f016020900481019282601f10620006db57805160ff19168380011785556200070c565b828001600101855582156200070c579182015b828111156200070b578251825591602001919060010190620006ee565b5b5090506200071b91906200080d565b5090565b82805482825590600052602060002090810192821562000773579160200282015b82811115620007725782518290805190602001906200076192919062000698565b509160200191906001019062000740565b5b50905062000782919062000835565b5090565b828054600181600116156101000203166002900490600052602060002090601f016020900481019282601f10620007c957805160ff1916838001178555620007fa565b82800160010185558215620007fa579182015b82811115620007f9578251825591602001919060010190620007dc565b5b5090506200080991906200080d565b5090565b6200083291905b808211156200082e57600081600090555060010162000814565b5090565b90565b6200086391905b808211156200085f576000818162000855919062000866565b506001016200083c565b5090565b90565b50805460018160011615610100020316600290046000825580601f106200088e5750620008af565b601f016020900490600052602060002090810190620008ae91906200080d565b5b50565b6000620008bf8262000902565b620008cb81856200090d565b9350620008dd81856020860162000918565b80840191505092915050565b6000620008f78284620008b2565b915081905092915050565b600081519050919050565b600081905092915050565b60005b83811015620009385780820151818401526020810190506200091b565b8381111562000948576000848401525b50505050565b612438806200095e6000396000f3fe608060405234801561001057600080fd5b50600436106100cf5760003560e01c80637323fd311161008c57806383d333191161006657806383d333191461024e57806398d173ff1461026c578063b607fce514610288578063e9a734ff146102a4576100cf565b80637323fd31146101d25780637beeb945146101ee5780637c08c80c1461021e576100cf565b80632de82135146100d457806335e8acfb14610104578063563392871461013657806359162240146101665780635fd4b08a1461018457806371061398146101b4575b600080fd5b6100ee60048036036100e99190810190611c0c565b6102d4565b6040516100fb9190612119565b60405180910390f35b61011e60048036036101199190810190611b8f565b6103a2565b60405161012d93929190612156565b60405180910390f35b610150600480360361014b9190810190611b8f565b61047e565b60405161015d91906120f7565b60405180910390f35b61016e6105ba565b60405161017b91906120f7565b60405180910390f35b61019e60048036036101999190810190611b8f565b61084e565b6040516101ab9190612134565b60405180910390f35b6101bc610931565b6040516101c991906120f7565b60405180910390f35b6101ec60048036036101e79190810190611c73565b610b84565b005b61020860048036036102039190810190611b8f565b610dd1565b6040516102159190612119565b60405180910390f35b61023860048036036102339190810190611c0c565b610e29565b6040516102459190612134565b60405180910390f35b6102566110af565b6040516102639190612194565b60405180910390f35b61028660048036036102819190810190611caf565b6110bc565b005b6102a2600480360361029d9190810190611bb8565b6112d8565b005b6102be60048036036102b99190810190611d1b565b6113d0565b6040516102cb9190612119565b60405180910390f35b60006102df84610dd1565b6102e857600080fd5b826000808673ffffffffffffffffffffffffffffffffffffffff1673ffffffffffffffffffffffffffffffffffffffff168152602001908152602001600020600001908051906020019061033d9291906116d9565b50816000808673ffffffffffffffffffffffffffffffffffffffff1673ffffffffffffffffffffffffffffffffffffffff16815260200190815260200160002060010160016101000a81548160ff021916908315150217905550600190509392505050565b6000602052806000526040600020600091509050806000018054600181600116156101000203166002900480601f01602080910402602001604051908101604052809291908181526020018280546001816001161561010002031660029004801561044e5780601f106104235761010080835404028352916020019161044e565b820191906000526020600020905b81548152906001019060200180831161043157829003601f168201915b5050505050908060010160009054906101000a900460ff16908060010160019054906101000a900460ff16905083565b606061048982610dd1565b61049257600080fd5b6000808373ffffffffffffffffffffffffffffffffffffffff1673ffffffffffffffffffffffffffffffffffffffff168152602001908152602001600020600201805480602002602001604051908101604052809291908181526020016000905b828210156105af578382906000526020600020018054600181600116156101000203166002900480601f01602080910402602001604051908101604052809291908181526020018280546001816001161561010002031660029004801561059b5780601f106105705761010080835404028352916020019161059b565b820191906000526020600020905b81548152906001019060200180831161057e57829003601f168201915b5050505050815260200190600101906104f3565b505050509050919050565b60608060026040519080825280602002602001820160405280156105f257816020015b60608152602001906001900390816105dd5790505b5090506105fe33610dd1565b156107d7576000803373ffffffffffffffffffffffffffffffffffffffff1673ffffffffffffffffffffffffffffffffffffffff1681526020019081526020016000206000018054600181600116156101000203166002900480601f0160208091040260200160405190810160405280929190818152602001828054600181600116156101000203166002900480156106d85780601f106106ad576101008083540402835291602001916106d8565b820191906000526020600020905b8154815290600101906020018083116106bb57829003601f168201915b5050505050816000815181106106ea57fe5b60200260200101819052506000803373ffffffffffffffffffffffffffffffffffffffff1673ffffffffffffffffffffffffffffffffffffffff16815260200190815260200160002060010160019054906101000a900460ff16610783576040518060400160405280600581526020017f66616c73650000000000000000000000000000000000000000000000000000008152506107ba565b6040518060400160405280600481526020017f74727565000000000000000000000000000000000000000000000000000000008152505b816001815181106107c757fe5b6020026020010181905250610847565b6040518060400160405280600e81526020017f4e6f7420726567697374657265640000000000000000000000000000000000008152508160008151811061081a57fe5b602002602001018190525061082e33611429565b8160018151811061083b57fe5b60200260200101819052505b8091505090565b60606000808373ffffffffffffffffffffffffffffffffffffffff1673ffffffffffffffffffffffffffffffffffffffff1681526020019081526020016000206000018054600181600116156101000203166002900480601f0160208091040260200160405190810160405280929190818152602001828054600181600116156101000203166002900480156109255780601f106108fa57610100808354040283529160200191610925565b820191906000526020600020905b81548152906001019060200180831161090857829003601f168201915b50505050509050919050565b60608060018054905060405190808252806020026020018201604052801561096d57816020015b60608152602001906001900390816109585790505b50905060008090505b600180549050811015610b7c576000806001838154811061099357fe5b9060005260206000200160009054906101000a900473ffffffffffffffffffffffffffffffffffffffff1673ffffffffffffffffffffffffffffffffffffffff1673ffffffffffffffffffffffffffffffffffffffff168152602001908152602001600020600001610a3b60018381548110610a0b57fe5b9060005260206000200160009054906101000a900473ffffffffffffffffffffffffffffffffffffffff16611429565b60008060018581548110610a4b57fe5b9060005260206000200160009054906101000a900473ffffffffffffffffffffffffffffffffffffffff1673ffffffffffffffffffffffffffffffffffffffff1673ffffffffffffffffffffffffffffffffffffffff16815260200190815260200160002060010160019054906101000a900460ff16610b00576040518060400160405280600581526020017f66616c7365000000000000000000000000000000000000000000000000000000815250610b37565b6040518060400160405280600481526020017f74727565000000000000000000000000000000000000000000000000000000008152505b604051602001610b499392919061208e565b604051602081830303815290604052828281518110610b6457fe5b60200260200101819052508080600101915050610976565b508091505090565b600060016000808573ffffffffffffffffffffffffffffffffffffffff1673ffffffffffffffffffffffffffffffffffffffff168152602001908152602001600020600201805490500390506000808473ffffffffffffffffffffffffffffffffffffffff1673ffffffffffffffffffffffffffffffffffffffff1681526020019081526020016000206003016000808573ffffffffffffffffffffffffffffffffffffffff1673ffffffffffffffffffffffffffffffffffffffff1681526020019081526020016000206002018381548110610c5d57fe5b90600052602060002001604051610c749190612077565b908152602001604051809103902060006101000a81549060ff02191690555b80821015610d77576000808473ffffffffffffffffffffffffffffffffffffffff1673ffffffffffffffffffffffffffffffffffffffff1681526020019081526020016000206002016001830181548110610cea57fe5b906000526020600020016000808573ffffffffffffffffffffffffffffffffffffffff1673ffffffffffffffffffffffffffffffffffffffff1681526020019081526020016000206002018381548110610d4057fe5b906000526020600020019080546001816001161561010002031660029004610d69929190611759565b508180600101925050610c93565b6000808473ffffffffffffffffffffffffffffffffffffffff1673ffffffffffffffffffffffffffffffffffffffff168152602001908152602001600020600201805480919060019003610dcb91906117e0565b50505050565b60008060008373ffffffffffffffffffffffffffffffffffffffff1673ffffffffffffffffffffffffffffffffffffffff16815260200190815260200160002060010160009054906101000a900460ff169050919050565b6060610e3484610dd1565b15610e3e57600080fd5b60606000604051908082528060200260200182016040528015610e7557816020015b6060815260200190600190039081610e605790505b509050610e8061180c565b60405180608001604052808681526020016001151581526020018515158152602001838152509050806000808873ffffffffffffffffffffffffffffffffffffffff1673ffffffffffffffffffffffffffffffffffffffff1681526020019081526020016000206000820151816000019080519060200190610f03929190611838565b5060208201518160010160006101000a81548160ff02191690831515021790555060408201518160010160016101000a81548160ff0219169083151502179055506060820151816002019080519060200190610f609291906118b8565b5090505060018690806001815401808255809150509060018203906000526020600020016000909192909190916101000a81548173ffffffffffffffffffffffffffffffffffffffff021916908373ffffffffffffffffffffffffffffffffffffffff160217905550506000808773ffffffffffffffffffffffffffffffffffffffff1673ffffffffffffffffffffffffffffffffffffffff1681526020019081526020016000206000018054600181600116156101000203166002900480601f01602080910402602001604051908101604052809291908181526020018280546001816001161561010002031660029004801561109f5780601f106110745761010080835404028352916020019161109f565b820191906000526020600020905b81548152906001019060200180831161108257829003601f168201915b5050505050925050509392505050565b6000600180549050905090565b60008090505b82518110156112d3576110e78382815181106110da57fe5b6020026020010151610dd1565b61116c576111368382815181106110fa57fe5b6020026020010151611110600180549050611578565b60405160200161112091906120d5565b6040516020818303038152906040526000610e29565b5061116783828151811061114657fe5b602002602001015183838151811061115a57fe5b60200260200101516112d8565b6112c6565b600080905060008090505b60008086858151811061118657fe5b602002602001015173ffffffffffffffffffffffffffffffffffffffff1673ffffffffffffffffffffffffffffffffffffffff1681526020019081526020016000206002018054905081101561128957600115156000808786815181106111e957fe5b602002602001015173ffffffffffffffffffffffffffffffffffffffff1673ffffffffffffffffffffffffffffffffffffffff16815260200190815260200160002060030185838151811061123a57fe5b602002602001015160405161124f9190612049565b908152602001604051809103902060009054906101000a900460ff161515141561127c5781806001019250505b8080600101915050611177565b5060008114156112c4576112c38483815181106112a257fe5b60200260200101518484815181106112b657fe5b60200260200101516112d8565b5b505b80806001019150506110c2565b505050565b6000808373ffffffffffffffffffffffffffffffffffffffff1673ffffffffffffffffffffffffffffffffffffffff1681526020019081526020016000206002018190806001815401808255809150509060018203906000526020600020016000909192909190915090805190602001906113549291906116d9565b505060016000808473ffffffffffffffffffffffffffffffffffffffff1673ffffffffffffffffffffffffffffffffffffffff168152602001908152602001600020600301826040516113a79190612060565b908152602001604051809103902060006101000a81548160ff0219169083151502179055505050565b6000816040516020016113e39190612060565b604051602081830303815290604052805190602001208360405160200161140a9190612060565b6040516020818303038152906040528051906020012014905092915050565b60608060286040519080825280601f01601f1916602001820160405280156114605781602001600182028038833980820191505090505b50905060008090505b601481101561156e5760008160130360080260020a8573ffffffffffffffffffffffffffffffffffffffff168161149c57fe5b0460f81b9050600060108260f81c60ff16816114b457fe5b0460f81b905060008160f81c6010028360f81c0360f81b90506114d6826116a5565b8585600202815181106114e557fe5b60200101907effffffffffffffffffffffffffffffffffffffffffffffffffffffffffffff1916908160001a90535061151d816116a5565b85600186600202018151811061152f57fe5b60200101907effffffffffffffffffffffffffffffffffffffffffffffffffffffffffffff1916908160001a9053505050508080600101915050611469565b5080915050919050565b606060008214156115c0576040518060400160405280600181526020017f300000000000000000000000000000000000000000000000000000000000000081525090506116a0565b600082905060005b600082146115ea578080600101915050600a82816115e257fe5b0491506115c8565b6060816040519080825280601f01601f19166020018201604052801561161f5781602001600182028038833980820191505090505b50905060006001830390505b6000861461169857600a868161163d57fe5b0660300160f81b8282806001900393508151811061165757fe5b60200101907effffffffffffffffffffffffffffffffffffffffffffffffffffffffffffff1916908160001a905350600a868161169057fe5b04955061162b565b819450505050505b919050565b6000600a8260f81c60ff1610156116c75760308260f81c0160f81b90506116d4565b60578260f81c0160f81b90505b919050565b828054600181600116156101000203166002900490600052602060002090601f016020900481019282601f1061171a57805160ff1916838001178555611748565b82800160010185558215611748579182015b8281111561174757825182559160200191906001019061172c565b5b5090506117559190611918565b5090565b828054600181600116156101000203166002900490600052602060002090601f016020900481019282601f1061179257805485556117cf565b828001600101855582156117cf57600052602060002091601f016020900482015b828111156117ce5782548255916001019190600101906117b3565b5b5090506117dc9190611918565b5090565b81548183558181111561180757818360005260206000209182019101611806919061193d565b5b505050565b604051806080016040528060608152602001600015158152602001600015158152602001606081525090565b828054600181600116156101000203166002900490600052602060002090601f016020900481019282601f1061187957805160ff19168380011785556118a7565b828001600101855582156118a7579182015b828111156118a657825182559160200191906001019061188b565b5b5090506118b49190611918565b5090565b828054828255906000526020600020908101928215611907579160200282015b828111156119065782518290805190602001906118f6929190611838565b50916020019190600101906118d8565b5b509050611914919061193d565b5090565b61193a91905b8082111561193657600081600090555060010161191e565b5090565b90565b61196691905b8082111561196257600081816119599190611969565b50600101611943565b5090565b90565b50805460018160011615610100020316600290046000825580601f1061198f57506119ae565b601f0160209004906000526020600020908101906119ad9190611918565b5b50565b6000813590506119c0816123b0565b92915050565b600082601f8301126119d757600080fd5b81356119ea6119e5826121dc565b6121af565b91508181835260208401935060208101905083856020840282011115611a0f57600080fd5b60005b83811015611a3f5781611a2588826119b1565b845260208401935060208301925050600181019050611a12565b5050505092915050565b600082601f830112611a5a57600080fd5b8135611a6d611a6882612204565b6121af565b9150818183526020840193506020810190508360005b83811015611ab35781358601611a998882611ad2565b845260208401935060208301925050600181019050611a83565b5050505092915050565b600081359050611acc816123c7565b92915050565b600082601f830112611ae357600080fd5b8135611af6611af18261222c565b6121af565b91508082526020830160208301858383011115611b1257600080fd5b611b1d83828461235d565b50505092915050565b600082601f830112611b3757600080fd5b8135611b4a611b4582612258565b6121af565b91508082526020830160208301858383011115611b6657600080fd5b611b7183828461235d565b50505092915050565b600081359050611b89816123de565b92915050565b600060208284031215611ba157600080fd5b6000611baf848285016119b1565b91505092915050565b60008060408385031215611bcb57600080fd5b6000611bd9858286016119b1565b925050602083013567ffffffffffffffff811115611bf657600080fd5b611c0285828601611b26565b9150509250929050565b600080600060608486031215611c2157600080fd5b6000611c2f868287016119b1565b935050602084013567ffffffffffffffff811115611c4c57600080fd5b611c5886828701611b26565b9250506040611c6986828701611abd565b9150509250925092565b60008060408385031215611c8657600080fd5b6000611c94858286016119b1565b9250506020611ca585828601611b7a565b9150509250929050565b60008060408385031215611cc257600080fd5b600083013567ffffffffffffffff811115611cdc57600080fd5b611ce8858286016119c6565b925050602083013567ffffffffffffffff811115611d0557600080fd5b611d1185828601611a49565b9150509250929050565b60008060408385031215611d2e57600080fd5b600083013567ffffffffffffffff811115611d4857600080fd5b611d5485828601611b26565b925050602083013567ffffffffffffffff811115611d7157600080fd5b611d7d85828601611b26565b9150509250929050565b6000611d938383611e89565b905092915050565b6000611da6826122a9565b611db081856122d7565b935083602082028501611dc285612284565b8060005b85811015611dfe5784840389528151611ddf8582611d87565b9450611dea836122ca565b925060208a01995050600181019050611dc6565b50829750879550505050505092915050565b611e1981612327565b82525050565b6000611e2a826122bf565b611e3481856122f9565b9350611e4481856020860161236c565b611e4d8161239f565b840191505092915050565b6000611e63826122bf565b611e6d818561230a565b9350611e7d81856020860161236c565b80840191505092915050565b6000611e94826122b4565b611e9e81856122e8565b9350611eae81856020860161236c565b611eb78161239f565b840191505092915050565b6000611ecd826122b4565b611ed781856122f9565b9350611ee781856020860161236c565b611ef08161239f565b840191505092915050565b6000611f06826122b4565b611f10818561230a565b9350611f2081856020860161236c565b80840191505092915050565b600081546001811660008114611f495760018114611f6e57611fb2565b607f6002830416611f5a818761230a565b955060ff1983168652808601935050611fb2565b60028204611f7c818761230a565b9550611f8785612294565b60005b82811015611fa957815481890152600182019150602081019050611f8a565b82880195505050505b505092915050565b6000611fc760038361230a565b91507f2f2f2f00000000000000000000000000000000000000000000000000000000006000830152600382019050919050565b6000612007600c8361230a565b91507f4163636f756e74206e62723a00000000000000000000000000000000000000006000830152600c82019050919050565b61204381612353565b82525050565b60006120558284611efb565b915081905092915050565b600061206c8284611e58565b915081905092915050565b60006120838284611f2c565b915081905092915050565b600061209a8286611f2c565b91506120a582611fba565b91506120b18285611e58565b91506120bc82611fba565b91506120c88284611e58565b9150819050949350505050565b60006120e082611ffa565b91506120ec8284611e58565b915081905092915050565b600060208201905081810360008301526121118184611d9b565b905092915050565b600060208201905061212e6000830184611e10565b92915050565b6000602082019050818103600083015261214e8184611e1f565b905092915050565b600060608201905081810360008301526121708186611ec2565b905061217f6020830185611e10565b61218c6040830184611e10565b949350505050565b60006020820190506121a9600083018461203a565b92915050565b6000604051905081810181811067ffffffffffffffff821117156121d257600080fd5b8060405250919050565b600067ffffffffffffffff8211156121f357600080fd5b602082029050602081019050919050565b600067ffffffffffffffff82111561221b57600080fd5b602082029050602081019050919050565b600067ffffffffffffffff82111561224357600080fd5b601f19601f8301169050602081019050919050565b600067ffffffffffffffff82111561226f57600080fd5b601f19601f8301169050602081019050919050565b6000819050602082019050919050565b60008190508160005260206000209050919050565b600081519050919050565b600081519050919050565b600081519050919050565b6000602082019050919050565b600082825260208201905092915050565b600082825260208201905092915050565b600082825260208201905092915050565b600081905092915050565b600061232082612333565b9050919050565b60008115159050919050565b600073ffffffffffffffffffffffffffffffffffffffff82169050919050565b6000819050919050565b82818337600083830152505050565b60005b8381101561238a57808201518184015260208101905061236f565b83811115612399576000848401525b50505050565b6000601f19601f8301169050919050565b6123b981612315565b81146123c457600080fd5b50565b6123d081612327565b81146123db57600080fd5b50565b6123e781612353565b81146123f257600080fd5b5056fea365627a7a723158203327350fd875c5efd82e3f81d28d64aa2bde1dbbdc6448ab0714599b7867de8d6c6578706572696d656e74616cf564736f6c63430005100040",
  "source": "pragma solidity ^0.5.16;\npragma experimental ABIEncoderV2;\n\ncontract AdminRoleManager {\n    struct Role {\n        string name;\n        bool isRole;\n        bool isAdmin;\n        string[] roles;\n        mapping(string => bool) rolesMap;\n    }\n\n    mapping(address => Role) public Roles;\n    address[] roleList;\n\n    constructor() public {\n        address modAddress = 0x1D27B15fEbF8dce6fe0Fd5B45A4784C4dD3e11e1;\n        newRole(modAddress, \"first account\", true);\n        AddElemRole(modAddress, \"Role1\");\n        AddElemRole(modAddress, \"Role2\");\n        AddElemRole(modAddress, \"Role3\");\n\n        address peonAddress1 = 0x78F7c9953D321Fb9864Af3B86782759bC32d4968;\n        newRole(peonAddress1, \"Peon1\", false);\n\n        address modAddress1 = 0x705aCb9996338094b6E16C5319e85132E978B3B6;\n        newRole(modAddress1, \"firstAccount\", true);\n\n        address modAddress2 = 0x89033bC8f73Ef5b46CCb013f6F948b00954a06BB;\n        newRole(modAddress2, \"secAccount\", true);\n    }\n\n    function isRole(address RoleAddress) public view returns (bool isIndeed) {\n        return Roles[RoleAddress].isRole;\n    }\n\n    function imRole() public view returns (string[] memory role) {\n        string[] memory role = new string[](2);\n        if (isRole(msg.sender)) {\n            role[0] = Roles[msg.sender].name;\n            role[1] = Roles[msg.sender].isAdmin ? \"true\" : \"false\";\n        } else {\n            role[0] = \"Not registered\";\n            role[1] = toAsciiString(msg.sender);\n        }\n        return role;\n    }\n\n    function importAccount(address[] memory add, string[] memory roles) public {\n        for (uint256 i = 0; i < add.length; i++) {\n            if (!isRole(add[i])) {\n                newRole(\n                    add[i],\n                    string(\n                        abi.encodePacked(\n                            \"Account nbr:\",\n                            uint2str(roleList.length)\n                        )\n                    ),\n                    false\n                );\n                AddElemRole(add[i], roles[i]);\n            } else {\n                uint256 isRole = 0;\n                for (uint256 j = 0; j < Roles[add[i]].roles.length; j++) {\n                    if (Roles[add[i]].rolesMap[roles[j]] == true) {\n                        isRole++;\n                    }\n                }\n                if (isRole == 0) {\n                    AddElemRole(add[i], roles[i]);\n                }\n            }\n        }\n    }\n\n    function compareStringsbyBytes(string memory s1, string memory s2)\n        public\n        pure\n        returns (bool)\n    {\n        return\n            keccak256(abi.encodePacked(s1)) == keccak256(abi.encodePacked(s2));\n    }\n\n    function uint2str(uint256 _i)\n        internal\n        pure\n        returns (string memory _uintAsString)\n    {\n        if (_i == 0) {\n            return \"0\";\n        }\n        uint256 j = _i;\n        uint256 len;\n        while (j != 0) {\n            len++;\n            j /= 10;\n        }\n        bytes memory bstr = new bytes(len);\n        uint256 k = len - 1;\n        while (_i != 0) {\n            bstr[k--] = byte(uint8(48 + (_i % 10)));\n            _i /= 10;\n        }\n        return string(bstr);\n    }\n\n    function getRoleCount() public view returns (uint256 RoleCount) {\n        return roleList.length;\n    }\n\n    function getName(address add) public view returns (string memory aze) {\n        return Roles[add].name;\n    }\n\n    function getRoles() public view returns (string[] memory list) {\n        string[] memory listofRoles = new string[](roleList.length);\n        for (uint256 i = 0; i < roleList.length; i++) {\n            listofRoles[i] = string(\n                abi.encodePacked(\n                    Roles[roleList[i]].name,\n                    \"///\",\n                    toAsciiString(roleList[i]),\n                    \"///\",\n                    (Roles[roleList[i]].isAdmin ? \"true\" : \"false\")\n                )\n            );\n        }\n        return listofRoles;\n    }\n\n    function getElemRoles(address add)\n        public\n        view\n        returns (string[] memory list)\n    {\n        if (!isRole(add)) revert();\n        return Roles[add].roles;\n    }\n\n    function AddElemRole(address add, string memory newRole) public {\n        Roles[add].roles.push(newRole);\n        Roles[add].rolesMap[newRole] = true;\n    }\n\n    function RemoveElemRole(address add, uint256 i) public {\n        uint256 lim = Roles[add].roles.length - 1;\n        delete Roles[add].rolesMap[Roles[add].roles[i]];\n        while (i < lim) {\n            Roles[add].roles[i] = Roles[add].roles[i + 1];\n            i++;\n        }\n        Roles[add].roles.length--;\n    }\n\n    function toAsciiString(address x) internal view returns (string memory) {\n        bytes memory s = new bytes(40);\n        for (uint256 i = 0; i < 20; i++) {\n            bytes1 b = bytes1(uint8(uint256(uint160(x)) / (2**(8 * (19 - i)))));\n            bytes1 hi = bytes1(uint8(b) / 16);\n            bytes1 lo = bytes1(uint8(b) - 16 * uint8(hi));\n            s[2 * i] = char(hi);\n            s[2 * i + 1] = char(lo);\n        }\n        return string(s);\n    }\n\n    function char(bytes1 b) internal view returns (bytes1 c) {\n        if (uint8(b) < 10) return bytes1(uint8(b) + 0x30);\n        else return bytes1(uint8(b) + 0x57);\n    }\n\n    function newRole(\n        address RoleAddress,\n        string memory name,\n        bool isAdmin\n    ) public returns (string memory rowNumber) {\n        if (isRole(RoleAddress)) revert();\n        string[] memory tmpList = new string[](0);\n        Role memory tempStruct = Role(name, true, isAdmin, tmpList);\n        Roles[RoleAddress] = tempStruct;\n        roleList.push(RoleAddress);\n        return Roles[RoleAddress].name;\n    }\n\n    function updateRole(\n        address RoleAddress,\n        string memory name,\n        bool Admin\n    ) public returns (bool success) {\n        if (!isRole(RoleAddress)) revert();\n        Roles[RoleAddress].name = name;\n        Roles[RoleAddress].isAdmin = Admin;\n        return true;\n    }\n}\n",
  "sourcePath": "/home/hhdf8435/code/masterPlatform/contracts/AdminRoleManager.sol",
  "compiler": {
    "name": "solc",
    "version": "0.5.16+commit.9c3226ce.Emscripten.clang"
  },
  "schemaVersion": "3.4.1",
  "updatedAt": "2021-06-17T09:02:31.115Z",
  "networkType": "ethereum",
  "devdoc": {
    "methods": {}
  },
  "userdoc": {
    "methods": {}
  }
}