{
  "contractName": "AdminRoleManager",
  "abi": [
    {
      "constant": true,
      "inputs": [
        {
          "internalType": "address",
          "name": "",
          "type": "address"
        }
      ],
      "name": "Roles",
      "outputs": [
        {
          "internalType": "string",
          "name": "name",
          "type": "string"
        },
        {
          "internalType": "bool",
          "name": "isRole",
          "type": "bool"
        },
        {
          "internalType": "bool",
          "name": "isAdmin",
          "type": "bool"
        }
      ],
      "payable": false,
      "stateMutability": "view",
      "type": "function"
    },
    {
      "constant": true,
      "inputs": [
        {
          "internalType": "address",
          "name": "RoleAddress",
          "type": "address"
        }
      ],
      "name": "isRole",
      "outputs": [
        {
          "internalType": "bool",
          "name": "isIndeed",
          "type": "bool"
        }
      ],
      "payable": false,
      "stateMutability": "view",
      "type": "function"
    },
    {
      "constant": true,
      "inputs": [],
      "name": "imRole",
      "outputs": [
        {
          "internalType": "string[]",
          "name": "role",
          "type": "string[]"
        }
      ],
      "payable": false,
      "stateMutability": "view",
      "type": "function"
    },
    {
      "constant": true,
      "inputs": [],
      "name": "getRoleCount",
      "outputs": [
        {
          "internalType": "uint256",
          "name": "RoleCount",
          "type": "uint256"
        }
      ],
      "payable": false,
      "stateMutability": "view",
      "type": "function"
    },
    {
      "constant": true,
      "inputs": [
        {
          "internalType": "address",
          "name": "add",
          "type": "address"
        }
      ],
      "name": "getName",
      "outputs": [
        {
          "internalType": "string",
          "name": "aze",
          "type": "string"
        }
      ],
      "payable": false,
      "stateMutability": "view",
      "type": "function"
    },
    {
      "constant": true,
      "inputs": [],
      "name": "getRoles",
      "outputs": [
        {
          "internalType": "string[]",
          "name": "list",
          "type": "string[]"
        }
      ],
      "payable": false,
      "stateMutability": "view",
      "type": "function"
    },
    {
      "constant": false,
      "inputs": [
        {
          "internalType": "address",
          "name": "RoleAddress",
          "type": "address"
        },
        {
          "internalType": "string",
          "name": "name",
          "type": "string"
        }
      ],
      "name": "newRole",
      "outputs": [
        {
          "internalType": "string",
          "name": "rowNumber",
          "type": "string"
        }
      ],
      "payable": false,
      "stateMutability": "nonpayable",
      "type": "function"
    },
    {
      "constant": false,
      "inputs": [
        {
          "internalType": "address",
          "name": "RoleAddress",
          "type": "address"
        },
        {
          "internalType": "string",
          "name": "name",
          "type": "string"
        }
      ],
      "name": "updateRole",
      "outputs": [
        {
          "internalType": "bool",
          "name": "success",
          "type": "bool"
        }
      ],
      "payable": false,
      "stateMutability": "nonpayable",
      "type": "function"
    }
  ],
  "bytecode": "0x608060405234801561001057600080fd5b5061134d806100206000396000f3fe608060405234801561001057600080fd5b50600436106100885760003560e01c8063710613981161005b578063710613981461013d578063775c6f401461015b5780637beeb9451461018b57806383d33319146101bb57610088565b806335e8acfb1461008d5780633ca3e773146100bf57806359162240146100ef5780635fd4b08a1461010d575b600080fd5b6100a760048036036100a29190810190610db9565b6101d9565b6040516100b693929190611115565b60405180910390f35b6100d960048036036100d49190810190610de2565b6102b5565b6040516100e691906110f3565b60405180910390f35b6100f76104dd565b60405161010491906110b6565b60405180910390f35b61012760048036036101229190810190610db9565b610771565b60405161013491906110f3565b60405180910390f35b610145610854565b60405161015291906110b6565b60405180910390f35b61017560048036036101709190810190610de2565b6109aa565b60405161018291906110d8565b60405180910390f35b6101a560048036036101a09190810190610db9565b610a1e565b6040516101b291906110d8565b60405180910390f35b6101c3610a76565b6040516101d09190611153565b60405180910390f35b6000602052806000526040600020600091509050806000018054600181600116156101000203166002900480601f0160208091040260200160405190810160405280929190818152602001828054600181600116156101000203166002900480156102855780601f1061025a57610100808354040283529160200191610285565b820191906000526020600020905b81548152906001019060200180831161026857829003601f168201915b5050505050908060010160009054906101000a900460ff16908060010160019054906101000a900460ff16905083565b60606102c083610a1e565b156102ca57600080fd5b6102d2610c06565b6040518060600160405280848152602001600115158152602001600015158152509050806000808673ffffffffffffffffffffffffffffffffffffffff1673ffffffffffffffffffffffffffffffffffffffff1681526020019081526020016000206000820151816000019080519060200190610350929190610c2b565b5060208201518160010160006101000a81548160ff02191690831515021790555060408201518160010160016101000a81548160ff02191690831515021790555090505060018490806001815401808255809150509060018203906000526020600020016000909192909190916101000a81548173ffffffffffffffffffffffffffffffffffffffff021916908373ffffffffffffffffffffffffffffffffffffffff160217905550506000808573ffffffffffffffffffffffffffffffffffffffff1673ffffffffffffffffffffffffffffffffffffffff1681526020019081526020016000206000018054600181600116156101000203166002900480601f0160208091040260200160405190810160405280929190818152602001828054600181600116156101000203166002900480156104cf5780601f106104a4576101008083540402835291602001916104cf565b820191906000526020600020905b8154815290600101906020018083116104b257829003601f168201915b505050505091505092915050565b606080600260405190808252806020026020018201604052801561051557816020015b60608152602001906001900390816105005790505b50905061052133610a1e565b156106fa576000803373ffffffffffffffffffffffffffffffffffffffff1673ffffffffffffffffffffffffffffffffffffffff1681526020019081526020016000206000018054600181600116156101000203166002900480601f0160208091040260200160405190810160405280929190818152602001828054600181600116156101000203166002900480156105fb5780601f106105d0576101008083540402835291602001916105fb565b820191906000526020600020905b8154815290600101906020018083116105de57829003601f168201915b50505050508160008151811061060d57fe5b60200260200101819052506000803373ffffffffffffffffffffffffffffffffffffffff1673ffffffffffffffffffffffffffffffffffffffff16815260200190815260200160002060010160019054906101000a900460ff166106a6576040518060400160405280600581526020017f66616c73650000000000000000000000000000000000000000000000000000008152506106dd565b6040518060400160405280600481526020017f74727565000000000000000000000000000000000000000000000000000000008152505b816001815181106106ea57fe5b602002602001018190525061076a565b6040518060400160405280600e81526020017f4e6f7420726567697374657265640000000000000000000000000000000000008152508160008151811061073d57fe5b602002602001018190525061075133610a83565b8160018151811061075e57fe5b60200260200101819052505b8091505090565b60606000808373ffffffffffffffffffffffffffffffffffffffff1673ffffffffffffffffffffffffffffffffffffffff1681526020019081526020016000206000018054600181600116156101000203166002900480601f0160208091040260200160405190810160405280929190818152602001828054600181600116156101000203166002900480156108485780601f1061081d57610100808354040283529160200191610848565b820191906000526020600020905b81548152906001019060200180831161082b57829003601f168201915b50505050509050919050565b60608060018054905060405190808252806020026020018201604052801561089057816020015b606081526020019060019003908161087b5790505b50905060008090505b6001805490508110156109a257600080600183815481106108b657fe5b9060005260206000200160009054906101000a900473ffffffffffffffffffffffffffffffffffffffff1673ffffffffffffffffffffffffffffffffffffffff1673ffffffffffffffffffffffffffffffffffffffff16815260200190815260200160002060000161095e6001838154811061092e57fe5b9060005260206000200160009054906101000a900473ffffffffffffffffffffffffffffffffffffffff16610a83565b60405160200161096f929190611087565b60405160208183030381529060405282828151811061098a57fe5b60200260200101819052508080600101915050610899565b508091505090565b60006109b583610a1e565b6109be57600080fd5b816000808573ffffffffffffffffffffffffffffffffffffffff1673ffffffffffffffffffffffffffffffffffffffff1681526020019081526020016000206000019080519060200190610a13929190610cab565b506001905092915050565b60008060008373ffffffffffffffffffffffffffffffffffffffff1673ffffffffffffffffffffffffffffffffffffffff16815260200190815260200160002060010160009054906101000a900460ff169050919050565b6000600180549050905090565b60608060286040519080825280601f01601f191660200182016040528015610aba5781602001600182028038833980820191505090505b50905060008090505b6014811015610bc85760008160130360080260020a8573ffffffffffffffffffffffffffffffffffffffff1681610af657fe5b0460f81b9050600060108260f81c60ff1681610b0e57fe5b0460f81b905060008160f81c6010028360f81c0360f81b9050610b3082610bd2565b858560020281518110610b3f57fe5b60200101907effffffffffffffffffffffffffffffffffffffffffffffffffffffffffffff1916908160001a905350610b7781610bd2565b856001866002020181518110610b8957fe5b60200101907effffffffffffffffffffffffffffffffffffffffffffffffffffffffffffff1916908160001a9053505050508080600101915050610ac3565b5080915050919050565b6000600a8260f81c60ff161015610bf45760308260f81c0160f81b9050610c01565b60578260f81c0160f81b90505b919050565b6040518060600160405280606081526020016000151581526020016000151581525090565b828054600181600116156101000203166002900490600052602060002090601f016020900481019282601f10610c6c57805160ff1916838001178555610c9a565b82800160010185558215610c9a579182015b82811115610c99578251825591602001919060010190610c7e565b5b509050610ca79190610d2b565b5090565b828054600181600116156101000203166002900490600052602060002090601f016020900481019282601f10610cec57805160ff1916838001178555610d1a565b82800160010185558215610d1a579182015b82811115610d19578251825591602001919060010190610cfe565b5b509050610d279190610d2b565b5090565b610d4d91905b80821115610d49576000816000905550600101610d31565b5090565b90565b600081359050610d5f816112f3565b92915050565b600082601f830112610d7657600080fd5b8135610d89610d848261119b565b61116e565b91508082526020830160208301858383011115610da557600080fd5b610db08382846112a0565b50505092915050565b600060208284031215610dcb57600080fd5b6000610dd984828501610d50565b91505092915050565b60008060408385031215610df557600080fd5b6000610e0385828601610d50565b925050602083013567ffffffffffffffff811115610e2057600080fd5b610e2c85828601610d65565b9150509250929050565b6000610e428383610f38565b905092915050565b6000610e55826111ec565b610e5f818561121a565b935083602082028501610e71856111c7565b8060005b85811015610ead5784840389528151610e8e8582610e36565b9450610e998361120d565b925060208a01995050600181019050610e75565b50829750879550505050505092915050565b610ec88161126a565b82525050565b6000610ed982611202565b610ee3818561123c565b9350610ef38185602086016112af565b610efc816112e2565b840191505092915050565b6000610f1282611202565b610f1c818561124d565b9350610f2c8185602086016112af565b80840191505092915050565b6000610f43826111f7565b610f4d818561122b565b9350610f5d8185602086016112af565b610f66816112e2565b840191505092915050565b6000610f7c826111f7565b610f86818561123c565b9350610f968185602086016112af565b610f9f816112e2565b840191505092915050565b600081546001811660008114610fc75760018114610fec57611030565b607f6002830416610fd8818761124d565b955060ff1983168652808601935050611030565b60028204610ffa818761124d565b9550611005856111d7565b60005b8281101561102757815481890152600182019150602081019050611008565b82880195505050505b505092915050565b600061104560038361124d565b91507f2f2f2f00000000000000000000000000000000000000000000000000000000006000830152600382019050919050565b61108181611296565b82525050565b60006110938285610faa565b915061109e82611038565b91506110aa8284610f07565b91508190509392505050565b600060208201905081810360008301526110d08184610e4a565b905092915050565b60006020820190506110ed6000830184610ebf565b92915050565b6000602082019050818103600083015261110d8184610ece565b905092915050565b6000606082019050818103600083015261112f8186610f71565b905061113e6020830185610ebf565b61114b6040830184610ebf565b949350505050565b60006020820190506111686000830184611078565b92915050565b6000604051905081810181811067ffffffffffffffff8211171561119157600080fd5b8060405250919050565b600067ffffffffffffffff8211156111b257600080fd5b601f19601f8301169050602081019050919050565b6000819050602082019050919050565b60008190508160005260206000209050919050565b600081519050919050565b600081519050919050565b600081519050919050565b6000602082019050919050565b600082825260208201905092915050565b600082825260208201905092915050565b600082825260208201905092915050565b600081905092915050565b600061126382611276565b9050919050565b60008115159050919050565b600073ffffffffffffffffffffffffffffffffffffffff82169050919050565b6000819050919050565b82818337600083830152505050565b60005b838110156112cd5780820151818401526020810190506112b2565b838111156112dc576000848401525b50505050565b6000601f19601f8301169050919050565b6112fc81611258565b811461130757600080fd5b5056fea365627a7a7231582002f0159deea1cfd0e4bf548be82561def9de139b29148af0f012808c468661cc6c6578706572696d656e74616cf564736f6c63430005100040",
  "source": "pragma solidity ^0.5.16;\npragma experimental ABIEncoderV2;\n\ncontract AdminRoleManager {\n    struct Role {\n        string name;\n        bool isRole;\n        bool isAdmin;\n    }\n\n    mapping(address => Role) public Roles;\n    address[] roleList;\n\n    function isRole(address RoleAddress) public view returns (bool isIndeed) {\n        return Roles[RoleAddress].isRole;\n    }\n\n    function imRole() public view returns (string[] memory role) {\n        string[] memory role = new string[](2);\n        if (isRole(msg.sender)) {\n            role[0] = Roles[msg.sender].name;\n            role[1] = Roles[msg.sender].isAdmin ? \"true\" : \"false\";\n        } else {\n            role[0] = \"Not registered\";\n            role[1] = toAsciiString(msg.sender);\n        }\n        return role;\n    }\n\n    function getRoleCount() public view returns (uint256 RoleCount) {\n        return roleList.length;\n    }\n\n    function getName(address add) public view returns (string memory aze) {\n        return Roles[add].name;\n    }\n\n    function getRoles() public view returns (string[] memory list) {\n        string[] memory listofRoles = new string[](roleList.length);\n        for (uint256 i = 0; i < roleList.length; i++) {\n            listofRoles[i] = string(\n                abi.encodePacked(Roles[roleList[i]].name, \"///\", toAsciiString(roleList[i]))\n            );\n        }\n        return listofRoles;\n    }\n\n    function toAsciiString(address x) internal view returns (string memory) {\n        bytes memory s = new bytes(40);\n        for (uint256 i = 0; i < 20; i++) {\n            bytes1 b = bytes1(uint8(uint256(uint160(x)) / (2**(8 * (19 - i)))));\n            bytes1 hi = bytes1(uint8(b) / 16);\n            bytes1 lo = bytes1(uint8(b) - 16 * uint8(hi));\n            s[2 * i] = char(hi);\n            s[2 * i + 1] = char(lo);\n        }\n        return string(s);\n    }\n\n    function char(bytes1 b) internal view returns (bytes1 c) {\n        if (uint8(b) < 10) return bytes1(uint8(b) + 0x30);\n        else return bytes1(uint8(b) + 0x57);\n    }\n\n    function newRole(address RoleAddress, string memory name)\n        public\n        returns (string memory rowNumber)\n    {\n        if (isRole(RoleAddress)) revert();\n        Role memory tempStruct = Role(name, true, false);\n        Roles[RoleAddress] = tempStruct;\n        roleList.push(RoleAddress);\n        return Roles[RoleAddress].name;\n    }\n\n    function updateRole(address RoleAddress, string memory name)\n        public\n        returns (bool success)\n    {\n        if (!isRole(RoleAddress)) revert();\n        Roles[RoleAddress].name = name;\n        return true;\n    }\n}\n",
  "sourcePath": "/home/hhdf8435/code/masterPlatform/contracts/AdminRoleManager.sol",
  "compiler": {
    "name": "solc",
    "version": "0.5.16+commit.9c3226ce.Emscripten.clang"
  },
  "schemaVersion": "3.3.4",
  "updatedAt": "2021-05-26T14:25:30.184Z",
  "networkType": "ethereum",
  "devdoc": {
    "methods": {}
  },
  "userdoc": {
    "methods": {}
  }
}