{
  "contractName": "AdminRoleManager",
  "abi": [
    {
      "inputs": [],
      "payable": false,
      "stateMutability": "nonpayable",
      "type": "constructor"
    },
    {
      "constant": true,
      "inputs": [
        {
          "internalType": "address",
          "name": "",
          "type": "address"
        }
      ],
      "name": "Roles",
      "outputs": [
        {
          "internalType": "string",
          "name": "name",
          "type": "string"
        },
        {
          "internalType": "bool",
          "name": "isRole",
          "type": "bool"
        },
        {
          "internalType": "bool",
          "name": "isAdmin",
          "type": "bool"
        }
      ],
      "payable": false,
      "stateMutability": "view",
      "type": "function"
    },
    {
      "constant": true,
      "inputs": [
        {
          "internalType": "address",
          "name": "RoleAddress",
          "type": "address"
        }
      ],
      "name": "isRole",
      "outputs": [
        {
          "internalType": "bool",
          "name": "isIndeed",
          "type": "bool"
        }
      ],
      "payable": false,
      "stateMutability": "view",
      "type": "function"
    },
    {
      "constant": true,
      "inputs": [],
      "name": "imRole",
      "outputs": [
        {
          "internalType": "string[]",
          "name": "role",
          "type": "string[]"
        }
      ],
      "payable": false,
      "stateMutability": "view",
      "type": "function"
    },
    {
      "constant": false,
      "inputs": [
        {
          "internalType": "address[]",
          "name": "add",
          "type": "address[]"
        },
        {
          "internalType": "string[]",
          "name": "roles",
          "type": "string[]"
        }
      ],
      "name": "importAccount",
      "outputs": [],
      "payable": false,
      "stateMutability": "nonpayable",
      "type": "function"
    },
    {
      "constant": true,
      "inputs": [
        {
          "internalType": "string",
          "name": "s1",
          "type": "string"
        },
        {
          "internalType": "string",
          "name": "s2",
          "type": "string"
        }
      ],
      "name": "compareStringsbyBytes",
      "outputs": [
        {
          "internalType": "bool",
          "name": "",
          "type": "bool"
        }
      ],
      "payable": false,
      "stateMutability": "pure",
      "type": "function"
    },
    {
      "constant": true,
      "inputs": [],
      "name": "getRoleCount",
      "outputs": [
        {
          "internalType": "uint256",
          "name": "RoleCount",
          "type": "uint256"
        }
      ],
      "payable": false,
      "stateMutability": "view",
      "type": "function"
    },
    {
      "constant": true,
      "inputs": [
        {
          "internalType": "address",
          "name": "add",
          "type": "address"
        }
      ],
      "name": "getName",
      "outputs": [
        {
          "internalType": "string",
          "name": "aze",
          "type": "string"
        }
      ],
      "payable": false,
      "stateMutability": "view",
      "type": "function"
    },
    {
      "constant": true,
      "inputs": [],
      "name": "getRoles",
      "outputs": [
        {
          "internalType": "string[]",
          "name": "list",
          "type": "string[]"
        }
      ],
      "payable": false,
      "stateMutability": "view",
      "type": "function"
    },
    {
      "constant": true,
      "inputs": [],
      "name": "getAccountRoles",
      "outputs": [
        {
          "internalType": "string[]",
          "name": "list",
          "type": "string[]"
        }
      ],
      "payable": false,
      "stateMutability": "view",
      "type": "function"
    },
    {
      "constant": true,
      "inputs": [
        {
          "internalType": "address",
          "name": "add",
          "type": "address"
        }
      ],
      "name": "getElemRoles",
      "outputs": [
        {
          "internalType": "string[]",
          "name": "list",
          "type": "string[]"
        }
      ],
      "payable": false,
      "stateMutability": "view",
      "type": "function"
    },
    {
      "constant": false,
      "inputs": [
        {
          "internalType": "address",
          "name": "add",
          "type": "address"
        },
        {
          "internalType": "string",
          "name": "newRole",
          "type": "string"
        }
      ],
      "name": "AddElemRole",
      "outputs": [],
      "payable": false,
      "stateMutability": "nonpayable",
      "type": "function"
    },
    {
      "constant": false,
      "inputs": [
        {
          "internalType": "address",
          "name": "add",
          "type": "address"
        },
        {
          "internalType": "uint256",
          "name": "i",
          "type": "uint256"
        }
      ],
      "name": "RemoveElemRole",
      "outputs": [],
      "payable": false,
      "stateMutability": "nonpayable",
      "type": "function"
    },
    {
      "constant": false,
      "inputs": [
        {
          "internalType": "address",
          "name": "RoleAddress",
          "type": "address"
        },
        {
          "internalType": "string",
          "name": "name",
          "type": "string"
        },
        {
          "internalType": "bool",
          "name": "isAdmin",
          "type": "bool"
        }
      ],
      "name": "newRole",
      "outputs": [
        {
          "internalType": "string",
          "name": "rowNumber",
          "type": "string"
        }
      ],
      "payable": false,
      "stateMutability": "nonpayable",
      "type": "function"
    },
    {
      "constant": false,
      "inputs": [
        {
          "internalType": "address",
          "name": "RoleAddress",
          "type": "address"
        },
        {
          "internalType": "string",
          "name": "name",
          "type": "string"
        },
        {
          "internalType": "bool",
          "name": "Admin",
          "type": "bool"
        }
      ],
      "name": "updateRole",
      "outputs": [
        {
          "internalType": "bool",
          "name": "success",
          "type": "bool"
        }
      ],
      "payable": false,
      "stateMutability": "nonpayable",
      "type": "function"
    }
  ],
  "bytecode": "0x60806040523480156200001157600080fd5b506000734936762f3c1b553748851900e60d9dbbcf278d1c905062000074816040518060400160405280600581526020017f416c6963650000000000000000000000000000000000000000000000000000008152506001620003b660201b60201c565b50620000bc816040518060400160405280600781526020017f466c6f72697374000000000000000000000000000000000000000000000000008152506200065160201b60201c565b62000103816040518060400160405280600781526020017f546f7572697374000000000000000000000000000000000000000000000000008152506200065160201b60201c565b6000731ed034135e576a6c1bf3ee8e05aadeef24d4a819905062000165816040518060400160405280600381526020017f426f6200000000000000000000000000000000000000000000000000000000008152506000620003b660201b60201c565b50620001ad816040518060400160405280600681526020017f44726976657200000000000000000000000000000000000000000000000000008152506200065160201b60201c565b620001f4816040518060400160405280600e81526020017f546f75726973744f6666696365720000000000000000000000000000000000008152506200065160201b60201c565b6000735afbdd0e5de3315a96504c06ac49bf34b5ecacb5905062000256816040518060400160405280600581526020017f4361726f6c0000000000000000000000000000000000000000000000000000008152506001620003b660201b60201c565b506200029e816040518060400160405280600881526020017f437573746f6d65720000000000000000000000000000000000000000000000008152506200065160201b60201c565b620002e5816040518060400160405280600a81526020017f52657374617572616e74000000000000000000000000000000000000000000008152506200065160201b60201c565b600073c9f167b5056b03eb29963ab8e6f78bb12cf5ba17905062000347816040518060400160405280600481526020017f44617665000000000000000000000000000000000000000000000000000000008152506001620003b660201b60201c565b506000732a706c6006e33610d92ea2a440cc99d5b58353e19050620003aa816040518060400160405280600581526020017f5472656e740000000000000000000000000000000000000000000000000000008152506001620003b660201b60201c565b50505050505062000a87565b6060620003c9846200074d60201b60201c565b15620003d457600080fd5b606060006040519080825280602002602001820160405280156200040d57816020015b6060815260200190600190039081620003f75790505b5090506200041a620007a5565b60405180608001604052808681526020016001151581526020018515158152602001838152509050806000808873ffffffffffffffffffffffffffffffffffffffff1673ffffffffffffffffffffffffffffffffffffffff16815260200190815260200160002060008201518160000190805190602001906200049f929190620007d1565b5060208201518160010160006101000a81548160ff02191690831515021790555060408201518160010160016101000a81548160ff0219169083151502179055506060820151816002019080519060200190620004fe92919062000858565b5090505060018690806001815401808255809150509060018203906000526020600020016000909192909190916101000a81548173ffffffffffffffffffffffffffffffffffffffff021916908373ffffffffffffffffffffffffffffffffffffffff160217905550506000808773ffffffffffffffffffffffffffffffffffffffff1673ffffffffffffffffffffffffffffffffffffffff1681526020019081526020016000206000018054600181600116156101000203166002900480601f016020809104026020016040519081016040528092919081815260200182805460018160011615610100020316600290048015620006415780601f10620006155761010080835404028352916020019162000641565b820191906000526020600020905b8154815290600101906020018083116200062357829003601f168201915b5050505050925050509392505050565b6000808373ffffffffffffffffffffffffffffffffffffffff1673ffffffffffffffffffffffffffffffffffffffff168152602001908152602001600020600201819080600181540180825580915050906001820390600052602060002001600090919290919091509080519060200190620006cf929190620008bf565b505060016000808473ffffffffffffffffffffffffffffffffffffffff1673ffffffffffffffffffffffffffffffffffffffff1681526020019081526020016000206003018260405162000724919062000a22565b908152602001604051809103902060006101000a81548160ff0219169083151502179055505050565b60008060008373ffffffffffffffffffffffffffffffffffffffff1673ffffffffffffffffffffffffffffffffffffffff16815260200190815260200160002060010160009054906101000a900460ff169050919050565b604051806080016040528060608152602001600015158152602001600015158152602001606081525090565b828054600181600116156101000203166002900490600052602060002090601f016020900481019282601f106200081457805160ff191683800117855562000845565b8280016001018555821562000845579182015b828111156200084457825182559160200191906001019062000827565b5b50905062000854919062000946565b5090565b828054828255906000526020600020908101928215620008ac579160200282015b82811115620008ab5782518290805190602001906200089a929190620007d1565b509160200191906001019062000879565b5b509050620008bb91906200096e565b5090565b828054600181600116156101000203166002900490600052602060002090601f016020900481019282601f106200090257805160ff191683800117855562000933565b8280016001018555821562000933579182015b828111156200093257825182559160200191906001019062000915565b5b50905062000942919062000946565b5090565b6200096b91905b80821115620009675760008160009055506001016200094d565b5090565b90565b6200099c91905b808211156200099857600081816200098e91906200099f565b5060010162000975565b5090565b90565b50805460018160011615610100020316600290046000825580601f10620009c75750620009e8565b601f016020900490600052602060002090810190620009e7919062000946565b5b50565b6000620009f88262000a3b565b62000a04818562000a46565b935062000a1681856020860162000a51565b80840191505092915050565b600062000a308284620009eb565b915081905092915050565b600081519050919050565b600081905092915050565b60005b8381101562000a7157808201518184015260208101905062000a54565b8381111562000a81576000848401525b50505050565b6126a28062000a976000396000f3fe608060405234801561001057600080fd5b50600436106100ea5760003560e01c80637beeb9451161008c57806398d173ff1161006657806398d173ff14610287578063b607fce5146102a3578063d6e59bea146102bf578063e9a734ff146102dd576100ea565b80637beeb945146102095780637c08c80c1461023957806383d3331914610269576100ea565b806359162240116100c857806359162240146101815780635fd4b08a1461019f57806371061398146101cf5780637323fd31146101ed576100ea565b80632de82135146100ef57806335e8acfb1461011f5780635633928714610151575b600080fd5b61010960048036036101049190810190611e47565b61030d565b6040516101169190612383565b60405180910390f35b61013960048036036101349190810190611dca565b6103db565b604051610148939291906123c0565b60405180910390f35b61016b60048036036101669190810190611dca565b6104b7565b6040516101789190612361565b60405180910390f35b6101896105f3565b6040516101969190612361565b60405180910390f35b6101b960048036036101b49190810190611dca565b610887565b6040516101c6919061239e565b60405180910390f35b6101d761096a565b6040516101e49190612361565b60405180910390f35b61020760048036036102029190810190611eae565b610bbd565b005b610223600480360361021e9190810190611dca565b610e0a565b6040516102309190612383565b60405180910390f35b610253600480360361024e9190810190611e47565b610e62565b604051610260919061239e565b60405180910390f35b6102716110e8565b60405161027e91906123fe565b60405180910390f35b6102a1600480360361029c9190810190611eea565b6110f5565b005b6102bd60048036036102b89190810190611df3565b611311565b005b6102c7611409565b6040516102d49190612361565b60405180910390f35b6102f760048036036102f29190810190611f56565b61160b565b6040516103049190612383565b60405180910390f35b600061031884610e0a565b61032157600080fd5b826000808673ffffffffffffffffffffffffffffffffffffffff1673ffffffffffffffffffffffffffffffffffffffff1681526020019081526020016000206000019080519060200190610376929190611914565b50816000808673ffffffffffffffffffffffffffffffffffffffff1673ffffffffffffffffffffffffffffffffffffffff16815260200190815260200160002060010160016101000a81548160ff021916908315150217905550600190509392505050565b6000602052806000526040600020600091509050806000018054600181600116156101000203166002900480601f0160208091040260200160405190810160405280929190818152602001828054600181600116156101000203166002900480156104875780601f1061045c57610100808354040283529160200191610487565b820191906000526020600020905b81548152906001019060200180831161046a57829003601f168201915b5050505050908060010160009054906101000a900460ff16908060010160019054906101000a900460ff16905083565b60606104c282610e0a565b6104cb57600080fd5b6000808373ffffffffffffffffffffffffffffffffffffffff1673ffffffffffffffffffffffffffffffffffffffff168152602001908152602001600020600201805480602002602001604051908101604052809291908181526020016000905b828210156105e8578382906000526020600020018054600181600116156101000203166002900480601f0160208091040260200160405190810160405280929190818152602001828054600181600116156101000203166002900480156105d45780601f106105a9576101008083540402835291602001916105d4565b820191906000526020600020905b8154815290600101906020018083116105b757829003601f168201915b50505050508152602001906001019061052c565b505050509050919050565b606080600260405190808252806020026020018201604052801561062b57816020015b60608152602001906001900390816106165790505b50905061063733610e0a565b15610810576000803373ffffffffffffffffffffffffffffffffffffffff1673ffffffffffffffffffffffffffffffffffffffff1681526020019081526020016000206000018054600181600116156101000203166002900480601f0160208091040260200160405190810160405280929190818152602001828054600181600116156101000203166002900480156107115780601f106106e657610100808354040283529160200191610711565b820191906000526020600020905b8154815290600101906020018083116106f457829003601f168201915b50505050508160008151811061072357fe5b60200260200101819052506000803373ffffffffffffffffffffffffffffffffffffffff1673ffffffffffffffffffffffffffffffffffffffff16815260200190815260200160002060010160019054906101000a900460ff166107bc576040518060400160405280600581526020017f66616c73650000000000000000000000000000000000000000000000000000008152506107f3565b6040518060400160405280600481526020017f74727565000000000000000000000000000000000000000000000000000000008152505b8160018151811061080057fe5b6020026020010181905250610880565b6040518060400160405280600e81526020017f4e6f7420726567697374657265640000000000000000000000000000000000008152508160008151811061085357fe5b602002602001018190525061086733611664565b8160018151811061087457fe5b60200260200101819052505b8091505090565b60606000808373ffffffffffffffffffffffffffffffffffffffff1673ffffffffffffffffffffffffffffffffffffffff1681526020019081526020016000206000018054600181600116156101000203166002900480601f01602080910402602001604051908101604052809291908181526020018280546001816001161561010002031660029004801561095e5780601f106109335761010080835404028352916020019161095e565b820191906000526020600020905b81548152906001019060200180831161094157829003601f168201915b50505050509050919050565b6060806001805490506040519080825280602002602001820160405280156109a657816020015b60608152602001906001900390816109915790505b50905060008090505b600180549050811015610bb557600080600183815481106109cc57fe5b9060005260206000200160009054906101000a900473ffffffffffffffffffffffffffffffffffffffff1673ffffffffffffffffffffffffffffffffffffffff1673ffffffffffffffffffffffffffffffffffffffff168152602001908152602001600020600001610a7460018381548110610a4457fe5b9060005260206000200160009054906101000a900473ffffffffffffffffffffffffffffffffffffffff16611664565b60008060018581548110610a8457fe5b9060005260206000200160009054906101000a900473ffffffffffffffffffffffffffffffffffffffff1673ffffffffffffffffffffffffffffffffffffffff1673ffffffffffffffffffffffffffffffffffffffff16815260200190815260200160002060010160019054906101000a900460ff16610b39576040518060400160405280600581526020017f66616c7365000000000000000000000000000000000000000000000000000000815250610b70565b6040518060400160405280600481526020017f74727565000000000000000000000000000000000000000000000000000000008152505b604051602001610b82939291906122f8565b604051602081830303815290604052828281518110610b9d57fe5b602002602001018190525080806001019150506109af565b508091505090565b600060016000808573ffffffffffffffffffffffffffffffffffffffff1673ffffffffffffffffffffffffffffffffffffffff168152602001908152602001600020600201805490500390506000808473ffffffffffffffffffffffffffffffffffffffff1673ffffffffffffffffffffffffffffffffffffffff1681526020019081526020016000206003016000808573ffffffffffffffffffffffffffffffffffffffff1673ffffffffffffffffffffffffffffffffffffffff1681526020019081526020016000206002018381548110610c9657fe5b90600052602060002001604051610cad91906122b2565b908152602001604051809103902060006101000a81549060ff02191690555b80821015610db0576000808473ffffffffffffffffffffffffffffffffffffffff1673ffffffffffffffffffffffffffffffffffffffff1681526020019081526020016000206002016001830181548110610d2357fe5b906000526020600020016000808573ffffffffffffffffffffffffffffffffffffffff1673ffffffffffffffffffffffffffffffffffffffff1681526020019081526020016000206002018381548110610d7957fe5b906000526020600020019080546001816001161561010002031660029004610da2929190611994565b508180600101925050610ccc565b6000808473ffffffffffffffffffffffffffffffffffffffff1673ffffffffffffffffffffffffffffffffffffffff168152602001908152602001600020600201805480919060019003610e049190611a1b565b50505050565b60008060008373ffffffffffffffffffffffffffffffffffffffff1673ffffffffffffffffffffffffffffffffffffffff16815260200190815260200160002060010160009054906101000a900460ff169050919050565b6060610e6d84610e0a565b15610e7757600080fd5b60606000604051908082528060200260200182016040528015610eae57816020015b6060815260200190600190039081610e995790505b509050610eb9611a47565b60405180608001604052808681526020016001151581526020018515158152602001838152509050806000808873ffffffffffffffffffffffffffffffffffffffff1673ffffffffffffffffffffffffffffffffffffffff1681526020019081526020016000206000820151816000019080519060200190610f3c929190611a73565b5060208201518160010160006101000a81548160ff02191690831515021790555060408201518160010160016101000a81548160ff0219169083151502179055506060820151816002019080519060200190610f99929190611af3565b5090505060018690806001815401808255809150509060018203906000526020600020016000909192909190916101000a81548173ffffffffffffffffffffffffffffffffffffffff021916908373ffffffffffffffffffffffffffffffffffffffff160217905550506000808773ffffffffffffffffffffffffffffffffffffffff1673ffffffffffffffffffffffffffffffffffffffff1681526020019081526020016000206000018054600181600116156101000203166002900480601f0160208091040260200160405190810160405280929190818152602001828054600181600116156101000203166002900480156110d85780601f106110ad576101008083540402835291602001916110d8565b820191906000526020600020905b8154815290600101906020018083116110bb57829003601f168201915b5050505050925050509392505050565b6000600180549050905090565b60008090505b825181101561130c5761112083828151811061111357fe5b6020026020010151610e0a565b6111a55761116f83828151811061113357fe5b60200260200101516111496001805490506117b3565b604051602001611159919061233f565b6040516020818303038152906040526000610e62565b506111a083828151811061117f57fe5b602002602001015183838151811061119357fe5b6020026020010151611311565b6112ff565b600080905060008090505b6000808685815181106111bf57fe5b602002602001015173ffffffffffffffffffffffffffffffffffffffff1673ffffffffffffffffffffffffffffffffffffffff168152602001908152602001600020600201805490508110156112c2576001151560008087868151811061122257fe5b602002602001015173ffffffffffffffffffffffffffffffffffffffff1673ffffffffffffffffffffffffffffffffffffffff16815260200190815260200160002060030185838151811061127357fe5b60200260200101516040516112889190612284565b908152602001604051809103902060009054906101000a900460ff16151514156112b55781806001019250505b80806001019150506111b0565b5060008114156112fd576112fc8483815181106112db57fe5b60200260200101518484815181106112ef57fe5b6020026020010151611311565b5b505b80806001019150506110fb565b505050565b6000808373ffffffffffffffffffffffffffffffffffffffff1673ffffffffffffffffffffffffffffffffffffffff16815260200190815260200160002060020181908060018154018082558091505090600182039060005260206000200160009091929091909150908051906020019061138d929190611914565b505060016000808473ffffffffffffffffffffffffffffffffffffffff1673ffffffffffffffffffffffffffffffffffffffff168152602001908152602001600020600301826040516113e0919061229b565b908152602001604051809103902060006101000a81548160ff0219169083151502179055505050565b60608060018054905060405190808252806020026020018201604052801561144557816020015b60608152602001906001900390816114305790505b50905060008090505b6001805490508110156116035760008090505b6000806001848154811061147157fe5b9060005260206000200160009054906101000a900473ffffffffffffffffffffffffffffffffffffffff1673ffffffffffffffffffffffffffffffffffffffff1673ffffffffffffffffffffffffffffffffffffffff168152602001908152602001600020600201805490508110156115f557600080600184815481106114f457fe5b9060005260206000200160009054906101000a900473ffffffffffffffffffffffffffffffffffffffff1673ffffffffffffffffffffffffffffffffffffffff1673ffffffffffffffffffffffffffffffffffffffff168152602001908152602001600020600201818154811061156757fe5b906000526020600020016115b16001848154811061158157fe5b9060005260206000200160009054906101000a900473ffffffffffffffffffffffffffffffffffffffff16611664565b6040516020016115c29291906122c9565b6040516020818303038152906040528383815181106115dd57fe5b60200260200101819052508080600101915050611461565b50808060010191505061144e565b508091505090565b60008160405160200161161e919061229b565b6040516020818303038152906040528051906020012083604051602001611645919061229b565b6040516020818303038152906040528051906020012014905092915050565b60608060286040519080825280601f01601f19166020018201604052801561169b5781602001600182028038833980820191505090505b50905060008090505b60148110156117a95760008160130360080260020a8573ffffffffffffffffffffffffffffffffffffffff16816116d757fe5b0460f81b9050600060108260f81c60ff16816116ef57fe5b0460f81b905060008160f81c6010028360f81c0360f81b9050611711826118e0565b85856002028151811061172057fe5b60200101907effffffffffffffffffffffffffffffffffffffffffffffffffffffffffffff1916908160001a905350611758816118e0565b85600186600202018151811061176a57fe5b60200101907effffffffffffffffffffffffffffffffffffffffffffffffffffffffffffff1916908160001a90535050505080806001019150506116a4565b5080915050919050565b606060008214156117fb576040518060400160405280600181526020017f300000000000000000000000000000000000000000000000000000000000000081525090506118db565b600082905060005b60008214611825578080600101915050600a828161181d57fe5b049150611803565b6060816040519080825280601f01601f19166020018201604052801561185a5781602001600182028038833980820191505090505b50905060006001830390505b600086146118d357600a868161187857fe5b0660300160f81b8282806001900393508151811061189257fe5b60200101907effffffffffffffffffffffffffffffffffffffffffffffffffffffffffffff1916908160001a905350600a86816118cb57fe5b049550611866565b819450505050505b919050565b6000600a8260f81c60ff1610156119025760308260f81c0160f81b905061190f565b60578260f81c0160f81b90505b919050565b828054600181600116156101000203166002900490600052602060002090601f016020900481019282601f1061195557805160ff1916838001178555611983565b82800160010185558215611983579182015b82811115611982578251825591602001919060010190611967565b5b5090506119909190611b53565b5090565b828054600181600116156101000203166002900490600052602060002090601f016020900481019282601f106119cd5780548555611a0a565b82800160010185558215611a0a57600052602060002091601f016020900482015b82811115611a095782548255916001019190600101906119ee565b5b509050611a179190611b53565b5090565b815481835581811115611a4257818360005260206000209182019101611a419190611b78565b5b505050565b604051806080016040528060608152602001600015158152602001600015158152602001606081525090565b828054600181600116156101000203166002900490600052602060002090601f016020900481019282601f10611ab457805160ff1916838001178555611ae2565b82800160010185558215611ae2579182015b82811115611ae1578251825591602001919060010190611ac6565b5b509050611aef9190611b53565b5090565b828054828255906000526020600020908101928215611b42579160200282015b82811115611b41578251829080519060200190611b31929190611a73565b5091602001919060010190611b13565b5b509050611b4f9190611b78565b5090565b611b7591905b80821115611b71576000816000905550600101611b59565b5090565b90565b611ba191905b80821115611b9d5760008181611b949190611ba4565b50600101611b7e565b5090565b90565b50805460018160011615610100020316600290046000825580601f10611bca5750611be9565b601f016020900490600052602060002090810190611be89190611b53565b5b50565b600081359050611bfb8161261a565b92915050565b600082601f830112611c1257600080fd5b8135611c25611c2082612446565b612419565b91508181835260208401935060208101905083856020840282011115611c4a57600080fd5b60005b83811015611c7a5781611c608882611bec565b845260208401935060208301925050600181019050611c4d565b5050505092915050565b600082601f830112611c9557600080fd5b8135611ca8611ca38261246e565b612419565b9150818183526020840193506020810190508360005b83811015611cee5781358601611cd48882611d0d565b845260208401935060208301925050600181019050611cbe565b5050505092915050565b600081359050611d0781612631565b92915050565b600082601f830112611d1e57600080fd5b8135611d31611d2c82612496565b612419565b91508082526020830160208301858383011115611d4d57600080fd5b611d588382846125c7565b50505092915050565b600082601f830112611d7257600080fd5b8135611d85611d80826124c2565b612419565b91508082526020830160208301858383011115611da157600080fd5b611dac8382846125c7565b50505092915050565b600081359050611dc481612648565b92915050565b600060208284031215611ddc57600080fd5b6000611dea84828501611bec565b91505092915050565b60008060408385031215611e0657600080fd5b6000611e1485828601611bec565b925050602083013567ffffffffffffffff811115611e3157600080fd5b611e3d85828601611d61565b9150509250929050565b600080600060608486031215611e5c57600080fd5b6000611e6a86828701611bec565b935050602084013567ffffffffffffffff811115611e8757600080fd5b611e9386828701611d61565b9250506040611ea486828701611cf8565b9150509250925092565b60008060408385031215611ec157600080fd5b6000611ecf85828601611bec565b9250506020611ee085828601611db5565b9150509250929050565b60008060408385031215611efd57600080fd5b600083013567ffffffffffffffff811115611f1757600080fd5b611f2385828601611c01565b925050602083013567ffffffffffffffff811115611f4057600080fd5b611f4c85828601611c84565b9150509250929050565b60008060408385031215611f6957600080fd5b600083013567ffffffffffffffff811115611f8357600080fd5b611f8f85828601611d61565b925050602083013567ffffffffffffffff811115611fac57600080fd5b611fb885828601611d61565b9150509250929050565b6000611fce83836120c4565b905092915050565b6000611fe182612513565b611feb8185612541565b935083602082028501611ffd856124ee565b8060005b85811015612039578484038952815161201a8582611fc2565b945061202583612534565b925060208a01995050600181019050612001565b50829750879550505050505092915050565b61205481612591565b82525050565b600061206582612529565b61206f8185612563565b935061207f8185602086016125d6565b61208881612609565b840191505092915050565b600061209e82612529565b6120a88185612574565b93506120b88185602086016125d6565b80840191505092915050565b60006120cf8261251e565b6120d98185612552565b93506120e98185602086016125d6565b6120f281612609565b840191505092915050565b60006121088261251e565b6121128185612563565b93506121228185602086016125d6565b61212b81612609565b840191505092915050565b60006121418261251e565b61214b8185612574565b935061215b8185602086016125d6565b80840191505092915050565b60008154600181166000811461218457600181146121a9576121ed565b607f60028304166121958187612574565b955060ff19831686528086019350506121ed565b600282046121b78187612574565b95506121c2856124fe565b60005b828110156121e4578154818901526001820191506020810190506121c5565b82880195505050505b505092915050565b6000612202600383612574565b91507f2f2f2f00000000000000000000000000000000000000000000000000000000006000830152600382019050919050565b6000612242600c83612574565b91507f4163636f756e74206e62723a00000000000000000000000000000000000000006000830152600c82019050919050565b61227e816125bd565b82525050565b60006122908284612136565b915081905092915050565b60006122a78284612093565b915081905092915050565b60006122be8284612167565b915081905092915050565b60006122d58285612167565b91506122e0826121f5565b91506122ec8284612093565b91508190509392505050565b60006123048286612167565b915061230f826121f5565b915061231b8285612093565b9150612326826121f5565b91506123328284612093565b9150819050949350505050565b600061234a82612235565b91506123568284612093565b915081905092915050565b6000602082019050818103600083015261237b8184611fd6565b905092915050565b6000602082019050612398600083018461204b565b92915050565b600060208201905081810360008301526123b8818461205a565b905092915050565b600060608201905081810360008301526123da81866120fd565b90506123e9602083018561204b565b6123f6604083018461204b565b949350505050565b60006020820190506124136000830184612275565b92915050565b6000604051905081810181811067ffffffffffffffff8211171561243c57600080fd5b8060405250919050565b600067ffffffffffffffff82111561245d57600080fd5b602082029050602081019050919050565b600067ffffffffffffffff82111561248557600080fd5b602082029050602081019050919050565b600067ffffffffffffffff8211156124ad57600080fd5b601f19601f8301169050602081019050919050565b600067ffffffffffffffff8211156124d957600080fd5b601f19601f8301169050602081019050919050565b6000819050602082019050919050565b60008190508160005260206000209050919050565b600081519050919050565b600081519050919050565b600081519050919050565b6000602082019050919050565b600082825260208201905092915050565b600082825260208201905092915050565b600082825260208201905092915050565b600081905092915050565b600061258a8261259d565b9050919050565b60008115159050919050565b600073ffffffffffffffffffffffffffffffffffffffff82169050919050565b6000819050919050565b82818337600083830152505050565b60005b838110156125f45780820151818401526020810190506125d9565b83811115612603576000848401525b50505050565b6000601f19601f8301169050919050565b6126238161257f565b811461262e57600080fd5b50565b61263a81612591565b811461264557600080fd5b50565b612651816125bd565b811461265c57600080fd5b5056fea365627a7a723158206d0199f4a3cfbcab91783870f4562151efc1bc7143c6120f4fb0c89824aeb5e26c6578706572696d656e74616cf564736f6c63430005100040",
  "source": "pragma solidity >=0.5.16;\npragma experimental ABIEncoderV2;\n\ncontract AdminRoleManager {\n    struct Role {\n        string name;\n        bool isRole;\n        bool isAdmin;\n        string[] roles;\n        mapping(string => bool) rolesMap;\n    }\n\n    mapping(address => Role) public Roles;\n    address[] roleList;\n\n    constructor() public {\n        address modAddress = 0x4936762f3C1B553748851900E60d9DBbcF278d1c;\n        newRole(modAddress, \"Alice\", true);\n        AddElemRole(modAddress, \"Florist\");\n        AddElemRole(modAddress, \"Tourist\");\n\n        address peonAddress1 = 0x1ED034135e576A6c1bf3ee8E05aaDEEF24D4A819;\n        newRole(peonAddress1, \"Bob\", false);\n        AddElemRole(peonAddress1, \"Driver\");\n        AddElemRole(peonAddress1, \"TouristOfficer\");\n\n        address modAddress1 = 0x5AfBDd0e5DE3315a96504C06ac49bF34B5ECACB5;\n        newRole(modAddress1, \"Carol\", true);\n        AddElemRole(modAddress1, \"Customer\");\n        AddElemRole(modAddress1, \"Restaurant\");\n\n        address modAddress2 = 0xC9f167B5056B03eB29963aB8e6F78bB12Cf5BA17;\n        newRole(modAddress2, \"Dave\", true);\n\n        address modAddress3 = 0x2a706c6006e33610D92ea2a440Cc99d5b58353E1;\n        newRole(modAddress3, \"Trent\", true);\n\n    }\n\n    function isRole(address RoleAddress) public view returns (bool isIndeed) {\n        return Roles[RoleAddress].isRole;\n    }\n\n    function imRole() public view returns (string[] memory role) {\n        string[] memory role = new string[](2);\n        if (isRole(msg.sender)) {\n            role[0] = Roles[msg.sender].name;\n            role[1] = Roles[msg.sender].isAdmin ? \"true\" : \"false\";\n        } else {\n            role[0] = \"Not registered\";\n            role[1] = toAsciiString(msg.sender);\n        }\n        return role;\n    }\n\n    function importAccount(address[] memory add, string[] memory roles) public {\n        for (uint256 i = 0; i < add.length; i++) {\n            if (!isRole(add[i])) {\n                newRole(\n                    add[i],\n                    string(\n                        abi.encodePacked(\n                            \"Account nbr:\",\n                            uint2str(roleList.length)\n                        )\n                    ),\n                    false\n                );\n                AddElemRole(add[i], roles[i]);\n            } else {\n                uint256 isRole = 0;\n                for (uint256 j = 0; j < Roles[add[i]].roles.length; j++) {\n                    if (Roles[add[i]].rolesMap[roles[j]] == true) {\n                        isRole++;\n                    }\n                }\n                if (isRole == 0) {\n                    AddElemRole(add[i], roles[i]);\n                }\n            }\n        }\n    }\n\n    function compareStringsbyBytes(string memory s1, string memory s2)\n        public\n        pure\n        returns (bool)\n    {\n        return\n            keccak256(abi.encodePacked(s1)) == keccak256(abi.encodePacked(s2));\n    }\n\n    function uint2str(uint256 _i)\n        internal\n        pure\n        returns (string memory _uintAsString)\n    {\n        if (_i == 0) {\n            return \"0\";\n        }\n        uint256 j = _i;\n        uint256 len;\n        while (j != 0) {\n            len++;\n            j /= 10;\n        }\n        bytes memory bstr = new bytes(len);\n        uint256 k = len - 1;\n        while (_i != 0) {\n            bstr[k--] = byte(uint8(48 + (_i % 10)));\n            _i /= 10;\n        }\n        return string(bstr);\n    }\n\n    function getRoleCount() public view returns (uint256 RoleCount) {\n        return roleList.length;\n    }\n\n    function getName(address add) public view returns (string memory aze) {\n        return Roles[add].name;\n    }\n\n    function getRoles() public view returns (string[] memory list) {\n        string[] memory listofRoles = new string[](roleList.length);\n        for (uint256 i = 0; i < roleList.length; i++) {\n            listofRoles[i] = string(\n                abi.encodePacked(\n                    Roles[roleList[i]].name,\n                    \"///\",\n                    toAsciiString(roleList[i]),\n                    \"///\",\n                    (Roles[roleList[i]].isAdmin ? \"true\" : \"false\")\n                )\n            );\n        }\n        return listofRoles;\n    }\n\n\n    function getAccountRoles() public view returns (string[] memory list) {\n        string[] memory listofRoles = new string[](roleList.length);\n        for (uint256 i = 0; i < roleList.length; i++) {\n            for(uint256 j = 0; j < Roles[roleList[i]].roles.length; j++){\n                listofRoles[i] = string(\n                    abi.encodePacked(\n                        Roles[roleList[i]].roles[j],\n                        \"///\",\n                        toAsciiString(roleList[i])\n                    )\n                );\n            }\n        }\n        return listofRoles;\n    }\n\n    function getElemRoles(address add)\n        public\n        view\n        returns (string[] memory list)\n    {\n        if (!isRole(add)) revert();\n        return Roles[add].roles;\n    }\n\n    function AddElemRole(address add, string memory newRole) public {\n        Roles[add].roles.push(newRole);\n        Roles[add].rolesMap[newRole] = true;\n    }\n\n    function RemoveElemRole(address add, uint256 i) public {\n        uint256 lim = Roles[add].roles.length - 1;\n        delete Roles[add].rolesMap[Roles[add].roles[i]];\n        while (i < lim) {\n            Roles[add].roles[i] = Roles[add].roles[i + 1];\n            i++;\n        }\n        Roles[add].roles.length--;\n    }\n\n    function toAsciiString(address x) internal view returns (string memory) {\n        bytes memory s = new bytes(40);\n        for (uint256 i = 0; i < 20; i++) {\n            bytes1 b = bytes1(uint8(uint256(uint160(x)) / (2**(8 * (19 - i)))));\n            bytes1 hi = bytes1(uint8(b) / 16);\n            bytes1 lo = bytes1(uint8(b) - 16 * uint8(hi));\n            s[2 * i] = char(hi);\n            s[2 * i + 1] = char(lo);\n        }\n        return string(s);\n    }\n\n    function char(bytes1 b) internal view returns (bytes1 c) {\n        if (uint8(b) < 10) return bytes1(uint8(b) + 0x30);\n        else return bytes1(uint8(b) + 0x57);\n    }\n\n    function newRole(\n        address RoleAddress,\n        string memory name,\n        bool isAdmin\n    ) public returns (string memory rowNumber) {\n        if (isRole(RoleAddress)) revert();\n        string[] memory tmpList = new string[](0);\n        Role memory tempStruct = Role(name, true, isAdmin, tmpList);\n        Roles[RoleAddress] = tempStruct;\n        roleList.push(RoleAddress);\n        return Roles[RoleAddress].name;\n    }\n\n    function updateRole(\n        address RoleAddress,\n        string memory name,\n        bool Admin\n    ) public returns (bool success) {\n        if (!isRole(RoleAddress)) revert();\n        Roles[RoleAddress].name = name;\n        Roles[RoleAddress].isAdmin = Admin;\n        return true;\n    }\n}\n",
  "sourcePath": "/home/qlwf4652/Downloads/project/adaptiveChangeDCR/contracts/AdminRoleManager.sol",
  "compiler": {
    "name": "solc",
    "version": "0.5.16+commit.9c3226ce.Emscripten.clang"
  },
  "schemaVersion": "3.4.8",
  "updatedAt": "2022-08-09T15:04:14.376Z",
  "networkType": "ethereum",
  "devdoc": {
    "methods": {}
  },
  "userdoc": {
    "methods": {}
  }
}