{
  "contractName": "AdminRoleManager",
  "abi": [
    {
      "constant": true,
      "inputs": [
        {
          "internalType": "address",
          "name": "",
          "type": "address"
        }
      ],
      "name": "Roles",
      "outputs": [
        {
          "internalType": "string",
          "name": "name",
          "type": "string"
        },
        {
          "internalType": "bool",
          "name": "isRole",
          "type": "bool"
        }
      ],
      "payable": false,
      "stateMutability": "view",
      "type": "function"
    },
    {
      "constant": true,
      "inputs": [
        {
          "internalType": "uint256",
          "name": "",
          "type": "uint256"
        }
      ],
      "name": "roleList",
      "outputs": [
        {
          "internalType": "address",
          "name": "",
          "type": "address"
        }
      ],
      "payable": false,
      "stateMutability": "view",
      "type": "function"
    },
    {
      "constant": true,
      "inputs": [
        {
          "internalType": "address",
          "name": "RoleAddress",
          "type": "address"
        }
      ],
      "name": "isRole",
      "outputs": [
        {
          "internalType": "bool",
          "name": "isIndeed",
          "type": "bool"
        }
      ],
      "payable": false,
      "stateMutability": "view",
      "type": "function"
    },
    {
      "constant": true,
      "inputs": [],
      "name": "getRoleCount",
      "outputs": [
        {
          "internalType": "uint256",
          "name": "RoleCount",
          "type": "uint256"
        }
      ],
      "payable": false,
      "stateMutability": "view",
      "type": "function"
    },
    {
      "constant": false,
      "inputs": [
        {
          "internalType": "address",
          "name": "RoleAddress",
          "type": "address"
        },
        {
          "internalType": "string",
          "name": "name",
          "type": "string"
        }
      ],
      "name": "newRole",
      "outputs": [
        {
          "internalType": "uint256",
          "name": "rowNumber",
          "type": "uint256"
        }
      ],
      "payable": false,
      "stateMutability": "nonpayable",
      "type": "function"
    },
    {
      "constant": false,
      "inputs": [
        {
          "internalType": "address",
          "name": "RoleAddress",
          "type": "address"
        },
        {
          "internalType": "string",
          "name": "name",
          "type": "string"
        }
      ],
      "name": "updateRole",
      "outputs": [
        {
          "internalType": "bool",
          "name": "success",
          "type": "bool"
        }
      ],
      "payable": false,
      "stateMutability": "nonpayable",
      "type": "function"
    }
  ],
  "bytecode": "0x608060405234801561001057600080fd5b5061085f806100206000396000f3fe608060405234801561001057600080fd5b50600436106100625760003560e01c806335e8acfb146100675780633ca3e77314610098578063775c6f40146100c85780637beeb945146100f857806383d3331914610128578063f4558ef914610146575b600080fd5b610081600480360361007c9190810190610551565b610176565b60405161008f929190610693565b60405180910390f35b6100b260048036036100ad919081019061057a565b61023f565b6040516100bf91906106c3565b60405180910390f35b6100e260048036036100dd919081019061057a565b610319565b6040516100ef9190610678565b60405180910390f35b610112600480360361010d9190810190610551565b61038d565b60405161011f9190610678565b60405180910390f35b6101306103e5565b60405161013d91906106c3565b60405180910390f35b610160600480360361015b91908101906105ce565b6103f2565b60405161016d919061065d565b60405180910390f35b6000602052806000526040600020600091509050806000018054600181600116156101000203166002900480601f0160208091040260200160405190810160405280929190818152602001828054600181600116156101000203166002900480156102225780601f106101f757610100808354040283529160200191610222565b820191906000526020600020905b81548152906001019060200180831161020557829003601f168201915b5050505050908060010160009054906101000a900460ff16905082565b600061024a8361038d565b1561025457600080fd5b816000808573ffffffffffffffffffffffffffffffffffffffff1673ffffffffffffffffffffffffffffffffffffffff16815260200190815260200160002060000190805190602001906102a992919061042e565b506001808490806001815401808255809150509060018203906000526020600020016000909192909190916101000a81548173ffffffffffffffffffffffffffffffffffffffff021916908373ffffffffffffffffffffffffffffffffffffffff16021790555003905092915050565b60006103248361038d565b61032d57600080fd5b816000808573ffffffffffffffffffffffffffffffffffffffff1673ffffffffffffffffffffffffffffffffffffffff168152602001908152602001600020600001908051906020019061038292919061042e565b506001905092915050565b60008060008373ffffffffffffffffffffffffffffffffffffffff1673ffffffffffffffffffffffffffffffffffffffff16815260200190815260200160002060010160009054906101000a900460ff169050919050565b6000600180549050905090565b600181815481106103ff57fe5b906000526020600020016000915054906101000a900473ffffffffffffffffffffffffffffffffffffffff1681565b828054600181600116156101000203166002900490600052602060002090601f016020900481019282601f1061046f57805160ff191683800117855561049d565b8280016001018555821561049d579182015b8281111561049c578251825591602001919060010190610481565b5b5090506104aa91906104ae565b5090565b6104d091905b808211156104cc5760008160009055506001016104b4565b5090565b90565b6000813590506104e2816107ee565b92915050565b600082601f8301126104f957600080fd5b813561050c6105078261070b565b6106de565b9150808252602083016020830185838301111561052857600080fd5b61053383828461079b565b50505092915050565b60008135905061054b81610805565b92915050565b60006020828403121561056357600080fd5b6000610571848285016104d3565b91505092915050565b6000806040838503121561058d57600080fd5b600061059b858286016104d3565b925050602083013567ffffffffffffffff8111156105b857600080fd5b6105c4858286016104e8565b9150509250929050565b6000602082840312156105e057600080fd5b60006105ee8482850161053c565b91505092915050565b61060081610753565b82525050565b61060f81610765565b82525050565b600061062082610737565b61062a8185610742565b935061063a8185602086016107aa565b610643816107dd565b840191505092915050565b61065781610791565b82525050565b600060208201905061067260008301846105f7565b92915050565b600060208201905061068d6000830184610606565b92915050565b600060408201905081810360008301526106ad8185610615565b90506106bc6020830184610606565b9392505050565b60006020820190506106d8600083018461064e565b92915050565b6000604051905081810181811067ffffffffffffffff8211171561070157600080fd5b8060405250919050565b600067ffffffffffffffff82111561072257600080fd5b601f19601f8301169050602081019050919050565b600081519050919050565b600082825260208201905092915050565b600061075e82610771565b9050919050565b60008115159050919050565b600073ffffffffffffffffffffffffffffffffffffffff82169050919050565b6000819050919050565b82818337600083830152505050565b60005b838110156107c85780820151818401526020810190506107ad565b838111156107d7576000848401525b50505050565b6000601f19601f8301169050919050565b6107f781610753565b811461080257600080fd5b50565b61080e81610791565b811461081957600080fd5b5056fea365627a7a723158207fc69d3e2a6fc4e1458b8d2bd6f41d0b9cde30d74858a8c2bb19c7c0469828646c6578706572696d656e74616cf564736f6c63430005100040",
  "source": "pragma solidity ^0.5.16;\npragma experimental ABIEncoderV2;\n\ncontract AdminRoleManager {\n    struct Role {\n    string name;\n    bool isRole;\n  }\n\n  mapping(address => Role) public Roles;\n  address[] public roleList;\n\n  function isRole(address RoleAddress) public view returns(bool isIndeed) {\n      return Roles[RoleAddress].isRole;\n  }\n\n  function getRoleCount() public view returns(uint RoleCount) {\n    return roleList.length;\n  }\n\n  function newRole(address RoleAddress, string memory name) public returns(uint rowNumber) {\n    if(isRole(RoleAddress)) revert();\n    Roles[RoleAddress].name = name;\n    return roleList.push(RoleAddress) - 1;\n  }\n\n  function updateRole(address RoleAddress, string memory name) public returns(bool success) {\n    if(!isRole(RoleAddress)) revert();\n    Roles[RoleAddress].name  = name;\n    return true;\n  }\n}",
  "sourcePath": "/home/hhdf8435/code/masterPlatform/contracts/AdminRoleManager.sol",
  "compiler": {
    "name": "solc",
    "version": "0.5.16+commit.9c3226ce.Emscripten.clang"
  },
  "schemaVersion": "3.3.4",
  "updatedAt": "2021-05-12T11:10:33.851Z",
  "devdoc": {
    "methods": {}
  },
  "userdoc": {
    "methods": {}
  }
}