{
  "contractName": "AdminRoleManager",
  "abi": [
    {
      "constant": true,
      "inputs": [
        {
          "internalType": "address",
          "name": "",
          "type": "address"
        }
      ],
      "name": "Roles",
      "outputs": [
        {
          "internalType": "string",
          "name": "name",
          "type": "string"
        },
        {
          "internalType": "bool",
          "name": "isRole",
          "type": "bool"
        }
      ],
      "payable": false,
      "stateMutability": "view",
      "type": "function"
    },
    {
      "constant": true,
      "inputs": [
        {
          "internalType": "uint256",
          "name": "",
          "type": "uint256"
        }
      ],
      "name": "roleList",
      "outputs": [
        {
          "internalType": "address",
          "name": "",
          "type": "address"
        }
      ],
      "payable": false,
      "stateMutability": "view",
      "type": "function"
    },
    {
      "constant": true,
      "inputs": [
        {
          "internalType": "address",
          "name": "RoleAddress",
          "type": "address"
        }
      ],
      "name": "isRole",
      "outputs": [
        {
          "internalType": "bool",
          "name": "isIndeed",
          "type": "bool"
        }
      ],
      "payable": false,
      "stateMutability": "view",
      "type": "function"
    },
    {
      "constant": true,
      "inputs": [],
      "name": "getRoleCount",
      "outputs": [
        {
          "internalType": "uint256",
          "name": "RoleCount",
          "type": "uint256"
        }
      ],
      "payable": false,
      "stateMutability": "view",
      "type": "function"
    },
    {
      "constant": true,
      "inputs": [
        {
          "internalType": "address",
          "name": "add",
          "type": "address"
        }
      ],
      "name": "getName",
      "outputs": [
        {
          "internalType": "string",
          "name": "aze",
          "type": "string"
        }
      ],
      "payable": false,
      "stateMutability": "view",
      "type": "function"
    },
    {
      "constant": true,
      "inputs": [],
      "name": "getRoles",
      "outputs": [
        {
          "internalType": "string[]",
          "name": "list",
          "type": "string[]"
        }
      ],
      "payable": false,
      "stateMutability": "view",
      "type": "function"
    },
    {
      "constant": false,
      "inputs": [
        {
          "internalType": "address",
          "name": "RoleAddress",
          "type": "address"
        },
        {
          "internalType": "string",
          "name": "name",
          "type": "string"
        }
      ],
      "name": "newRole",
      "outputs": [
        {
          "internalType": "uint256",
          "name": "rowNumber",
          "type": "uint256"
        }
      ],
      "payable": false,
      "stateMutability": "nonpayable",
      "type": "function"
    },
    {
      "constant": false,
      "inputs": [
        {
          "internalType": "address",
          "name": "RoleAddress",
          "type": "address"
        },
        {
          "internalType": "string",
          "name": "name",
          "type": "string"
        }
      ],
      "name": "updateRole",
      "outputs": [
        {
          "internalType": "bool",
          "name": "success",
          "type": "bool"
        }
      ],
      "payable": false,
      "stateMutability": "nonpayable",
      "type": "function"
    }
  ],
  "bytecode": "0x608060405234801561001057600080fd5b50610dce806100206000396000f3fe608060405234801561001057600080fd5b50600436106100885760003560e01c8063775c6f401161005b578063775c6f401461013c5780637beeb9451461016c57806383d333191461019c578063f4558ef9146101ba57610088565b806335e8acfb1461008d5780633ca3e773146100be5780635fd4b08a146100ee578063710613981461011e575b600080fd5b6100a760048036036100a2919081019061092c565b6101ea565b6040516100b5929190610bad565b60405180910390f35b6100d860048036036100d39190810190610955565b6102b3565b6040516100e59190610bdd565b60405180910390f35b6101086004803603610103919081019061092c565b6103e1565b6040516101159190610b8b565b60405180910390f35b6101266104c9565b6040516101339190610b4e565b60405180910390f35b61015660048036036101519190810190610955565b610658565b6040516101639190610b70565b60405180910390f35b6101866004803603610181919081019061092c565b6106cc565b6040516101939190610b70565b60405180910390f35b6101a4610724565b6040516101b19190610bdd565b60405180910390f35b6101d460048036036101cf91908101906109a9565b610731565b6040516101e19190610b33565b60405180910390f35b6000602052806000526040600020600091509050806000018054600181600116156101000203166002900480601f0160208091040260200160405190810160405280929190818152602001828054600181600116156101000203166002900480156102965780601f1061026b57610100808354040283529160200191610296565b820191906000526020600020905b81548152906001019060200180831161027957829003601f168201915b5050505050908060010160009054906101000a900460ff16905082565b60006102be836106cc565b156102c857600080fd5b6102d061076d565b6040518060400160405280848152602001600115158152509050806000808673ffffffffffffffffffffffffffffffffffffffff1673ffffffffffffffffffffffffffffffffffffffff1681526020019081526020016000206000820151816000019080519060200190610345929190610789565b5060208201518160010160006101000a81548160ff02191690831515021790555090505060018490806001815401808255809150509060018203906000526020600020016000909192909190916101000a81548173ffffffffffffffffffffffffffffffffffffffff021916908373ffffffffffffffffffffffffffffffffffffffff1602179055505060646001805490500191505092915050565b6060806000808473ffffffffffffffffffffffffffffffffffffffff1673ffffffffffffffffffffffffffffffffffffffff1681526020019081526020016000206000018054600181600116156101000203166002900480601f0160208091040260200160405190810160405280929190818152602001828054600181600116156101000203166002900480156104b95780601f1061048e576101008083540402835291602001916104b9565b820191906000526020600020905b81548152906001019060200180831161049c57829003601f168201915b5050505050905080915050919050565b60608060018054905060405190808252806020026020018201604052801561050557816020015b60608152602001906001900390816104f05790505b50905060008090505b600180549050811015610650576000806001838154811061052b57fe5b9060005260206000200160009054906101000a900473ffffffffffffffffffffffffffffffffffffffff1673ffffffffffffffffffffffffffffffffffffffff1673ffffffffffffffffffffffffffffffffffffffff1681526020019081526020016000206000018054600181600116156101000203166002900480601f0160208091040260200160405190810160405280929190818152602001828054600181600116156101000203166002900480156106275780601f106105fc57610100808354040283529160200191610627565b820191906000526020600020905b81548152906001019060200180831161060a57829003601f168201915b505050505082828151811061063857fe5b6020026020010181905250808060010191505061050e565b508091505090565b6000610663836106cc565b61066c57600080fd5b816000808573ffffffffffffffffffffffffffffffffffffffff1673ffffffffffffffffffffffffffffffffffffffff16815260200190815260200160002060000190805190602001906106c1929190610809565b506001905092915050565b60008060008373ffffffffffffffffffffffffffffffffffffffff1673ffffffffffffffffffffffffffffffffffffffff16815260200190815260200160002060010160009054906101000a900460ff169050919050565b6000600180549050905090565b6001818154811061073e57fe5b906000526020600020016000915054906101000a900473ffffffffffffffffffffffffffffffffffffffff1681565b6040518060400160405280606081526020016000151581525090565b828054600181600116156101000203166002900490600052602060002090601f016020900481019282601f106107ca57805160ff19168380011785556107f8565b828001600101855582156107f8579182015b828111156107f75782518255916020019190600101906107dc565b5b5090506108059190610889565b5090565b828054600181600116156101000203166002900490600052602060002090601f016020900481019282601f1061084a57805160ff1916838001178555610878565b82800160010185558215610878579182015b8281111561087757825182559160200191906001019061085c565b5b5090506108859190610889565b5090565b6108ab91905b808211156108a757600081600090555060010161088f565b5090565b90565b6000813590506108bd81610d5d565b92915050565b600082601f8301126108d457600080fd5b81356108e76108e282610c25565b610bf8565b9150808252602083016020830185838301111561090357600080fd5b61090e838284610d0a565b50505092915050565b60008135905061092681610d74565b92915050565b60006020828403121561093e57600080fd5b600061094c848285016108ae565b91505092915050565b6000806040838503121561096857600080fd5b6000610976858286016108ae565b925050602083013567ffffffffffffffff81111561099357600080fd5b61099f858286016108c3565b9150509250929050565b6000602082840312156109bb57600080fd5b60006109c984828501610917565b91505092915050565b60006109de8383610ab2565b905092915050565b6109ef81610cc2565b82525050565b6000610a0082610c61565b610a0a8185610c8f565b935083602082028501610a1c85610c51565b8060005b85811015610a585784840389528151610a3985826109d2565b9450610a4483610c82565b925060208a01995050600181019050610a20565b50829750879550505050505092915050565b610a7381610cd4565b82525050565b6000610a8482610c77565b610a8e8185610cb1565b9350610a9e818560208601610d19565b610aa781610d4c565b840191505092915050565b6000610abd82610c6c565b610ac78185610ca0565b9350610ad7818560208601610d19565b610ae081610d4c565b840191505092915050565b6000610af682610c6c565b610b008185610cb1565b9350610b10818560208601610d19565b610b1981610d4c565b840191505092915050565b610b2d81610d00565b82525050565b6000602082019050610b4860008301846109e6565b92915050565b60006020820190508181036000830152610b6881846109f5565b905092915050565b6000602082019050610b856000830184610a6a565b92915050565b60006020820190508181036000830152610ba58184610a79565b905092915050565b60006040820190508181036000830152610bc78185610aeb565b9050610bd66020830184610a6a565b9392505050565b6000602082019050610bf26000830184610b24565b92915050565b6000604051905081810181811067ffffffffffffffff82111715610c1b57600080fd5b8060405250919050565b600067ffffffffffffffff821115610c3c57600080fd5b601f19601f8301169050602081019050919050565b6000819050602082019050919050565b600081519050919050565b600081519050919050565b600081519050919050565b6000602082019050919050565b600082825260208201905092915050565b600082825260208201905092915050565b600082825260208201905092915050565b6000610ccd82610ce0565b9050919050565b60008115159050919050565b600073ffffffffffffffffffffffffffffffffffffffff82169050919050565b6000819050919050565b82818337600083830152505050565b60005b83811015610d37578082015181840152602081019050610d1c565b83811115610d46576000848401525b50505050565b6000601f19601f8301169050919050565b610d6681610cc2565b8114610d7157600080fd5b50565b610d7d81610d00565b8114610d8857600080fd5b5056fea365627a7a723158205ebef09fc1dcc05eaa7c0bb741ca5f272c8c9446f9d733e8b6bb6d3f89d0efed6c6578706572696d656e74616cf564736f6c63430005100040",
  "source": "pragma solidity ^0.5.16;\npragma experimental ABIEncoderV2;\n\ncontract AdminRoleManager {\n    struct Role {\n        string name;\n        bool isRole;\n    }\n\n    mapping(address => Role) public Roles;\n    address[] public roleList;\n\n    function isRole(address RoleAddress) public view returns (bool isIndeed) {\n        return Roles[RoleAddress].isRole;\n    }\n\n    function getRoleCount() public view returns (uint256 RoleCount) {\n        return roleList.length;\n    }\n\n\n    function getName(address add) public view returns (string memory aze) {\n        string memory aze = Roles[add].name;\n        return aze;\n    }\n\n    function getRoles() public view returns (string[] memory list) {\n        string[] memory listofRoles = new string[](roleList.length);\n        for (uint256 i = 0; i < roleList.length; i++) {\n            listofRoles[i] = Roles[roleList[i]].name;\n        }\n        return listofRoles;\n    }\n\n    function newRole(address RoleAddress, string memory name)\n        public\n        returns (uint256 rowNumber)\n    {\n        if (isRole(RoleAddress)) revert();\n        // if (isRole(RoleAddress))\n        //     return 1;\n        // else\n        //     return 2;\n        Role memory tempStruct = Role(name, true);\n        Roles[RoleAddress] = tempStruct;\n        roleList.push(RoleAddress);\n        return roleList.length + 100;\n    }\n\n    function updateRole(address RoleAddress, string memory name)\n        public\n        returns (bool success)\n    {\n        if (!isRole(RoleAddress)) revert();\n        Roles[RoleAddress].name = name;\n        return true;\n    }\n}\n",
  "sourcePath": "/home/hhdf8435/code/masterPlatform/contracts/AdminRoleManager.sol",
  "compiler": {
    "name": "solc",
    "version": "0.5.16+commit.9c3226ce.Emscripten.clang"
  },
  "schemaVersion": "3.3.4",
  "updatedAt": "2021-05-14T15:37:03.101Z",
  "networkType": "ethereum",
  "devdoc": {
    "methods": {}
  },
  "userdoc": {
    "methods": {}
  }
}