{
  "contractName": "AdminRoleManager",
  "abi": [
    {
      "constant": true,
      "inputs": [
        {
          "internalType": "address",
          "name": "",
          "type": "address"
        }
      ],
      "name": "Roles",
      "outputs": [
        {
          "internalType": "string",
          "name": "name",
          "type": "string"
        },
        {
          "internalType": "bool",
          "name": "isRole",
          "type": "bool"
        },
        {
          "internalType": "bool",
          "name": "isAdmin",
          "type": "bool"
        }
      ],
      "payable": false,
      "stateMutability": "view",
      "type": "function"
    },
    {
      "constant": true,
      "inputs": [
        {
          "internalType": "address",
          "name": "RoleAddress",
          "type": "address"
        }
      ],
      "name": "isRole",
      "outputs": [
        {
          "internalType": "bool",
          "name": "isIndeed",
          "type": "bool"
        }
      ],
      "payable": false,
      "stateMutability": "view",
      "type": "function"
    },
    {
      "constant": true,
      "inputs": [],
      "name": "imRole",
      "outputs": [
        {
          "internalType": "string[]",
          "name": "role",
          "type": "string[]"
        }
      ],
      "payable": false,
      "stateMutability": "view",
      "type": "function"
    },
    {
      "constant": true,
      "inputs": [],
      "name": "getRoleCount",
      "outputs": [
        {
          "internalType": "uint256",
          "name": "RoleCount",
          "type": "uint256"
        }
      ],
      "payable": false,
      "stateMutability": "view",
      "type": "function"
    },
    {
      "constant": true,
      "inputs": [
        {
          "internalType": "address",
          "name": "add",
          "type": "address"
        }
      ],
      "name": "getName",
      "outputs": [
        {
          "internalType": "string",
          "name": "aze",
          "type": "string"
        }
      ],
      "payable": false,
      "stateMutability": "view",
      "type": "function"
    },
    {
      "constant": true,
      "inputs": [],
      "name": "getRoles",
      "outputs": [
        {
          "internalType": "string[]",
          "name": "list",
          "type": "string[]"
        }
      ],
      "payable": false,
      "stateMutability": "view",
      "type": "function"
    },
    {
      "constant": false,
      "inputs": [
        {
          "internalType": "address",
          "name": "RoleAddress",
          "type": "address"
        },
        {
          "internalType": "string",
          "name": "name",
          "type": "string"
        }
      ],
      "name": "newRole",
      "outputs": [
        {
          "internalType": "string",
          "name": "rowNumber",
          "type": "string"
        }
      ],
      "payable": false,
      "stateMutability": "nonpayable",
      "type": "function"
    },
    {
      "constant": false,
      "inputs": [
        {
          "internalType": "address",
          "name": "RoleAddress",
          "type": "address"
        },
        {
          "internalType": "string",
          "name": "name",
          "type": "string"
        }
      ],
      "name": "updateRole",
      "outputs": [
        {
          "internalType": "bool",
          "name": "success",
          "type": "bool"
        }
      ],
      "payable": false,
      "stateMutability": "nonpayable",
      "type": "function"
    }
  ],
  "bytecode": "0x608060405234801561001057600080fd5b5061132c806100206000396000f3fe608060405234801561001057600080fd5b50600436106100885760003560e01c8063710613981161005b578063710613981461013d578063775c6f401461015b5780637beeb9451461018b57806383d33319146101bb57610088565b806335e8acfb1461008d5780633ca3e773146100bf57806359162240146100ef5780635fd4b08a1461010d575b600080fd5b6100a760048036036100a29190810190610d98565b6101d9565b6040516100b6939291906110f4565b60405180910390f35b6100d960048036036100d49190810190610dc1565b6102b5565b6040516100e691906110d2565b60405180910390f35b6100f76104dd565b6040516101049190611095565b60405180910390f35b61012760048036036101229190810190610d98565b610750565b60405161013491906110d2565b60405180910390f35b610145610833565b6040516101529190611095565b60405180910390f35b61017560048036036101709190810190610dc1565b610989565b60405161018291906110b7565b60405180910390f35b6101a560048036036101a09190810190610d98565b6109fd565b6040516101b291906110b7565b60405180910390f35b6101c3610a55565b6040516101d09190611132565b60405180910390f35b6000602052806000526040600020600091509050806000018054600181600116156101000203166002900480601f0160208091040260200160405190810160405280929190818152602001828054600181600116156101000203166002900480156102855780601f1061025a57610100808354040283529160200191610285565b820191906000526020600020905b81548152906001019060200180831161026857829003601f168201915b5050505050908060010160009054906101000a900460ff16908060010160019054906101000a900460ff16905083565b60606102c0836109fd565b156102ca57600080fd5b6102d2610be5565b6040518060600160405280848152602001600115158152602001600015158152509050806000808673ffffffffffffffffffffffffffffffffffffffff1673ffffffffffffffffffffffffffffffffffffffff1681526020019081526020016000206000820151816000019080519060200190610350929190610c0a565b5060208201518160010160006101000a81548160ff02191690831515021790555060408201518160010160016101000a81548160ff02191690831515021790555090505060018490806001815401808255809150509060018203906000526020600020016000909192909190916101000a81548173ffffffffffffffffffffffffffffffffffffffff021916908373ffffffffffffffffffffffffffffffffffffffff160217905550506000808573ffffffffffffffffffffffffffffffffffffffff1673ffffffffffffffffffffffffffffffffffffffff1681526020019081526020016000206000018054600181600116156101000203166002900480601f0160208091040260200160405190810160405280929190818152602001828054600181600116156101000203166002900480156104cf5780601f106104a4576101008083540402835291602001916104cf565b820191906000526020600020905b8154815290600101906020018083116104b257829003601f168201915b505050505091505092915050565b606080600260405190808252806020026020018201604052801561051557816020015b60608152602001906001900390816105005790505b509050610521336109fd565b156106fa576000803373ffffffffffffffffffffffffffffffffffffffff1673ffffffffffffffffffffffffffffffffffffffff1681526020019081526020016000206000018054600181600116156101000203166002900480601f0160208091040260200160405190810160405280929190818152602001828054600181600116156101000203166002900480156105fb5780601f106105d0576101008083540402835291602001916105fb565b820191906000526020600020905b8154815290600101906020018083116105de57829003601f168201915b50505050508160008151811061060d57fe5b60200260200101819052506000803373ffffffffffffffffffffffffffffffffffffffff1673ffffffffffffffffffffffffffffffffffffffff16815260200190815260200160002060010160019054906101000a900460ff166106a6576040518060400160405280600581526020017f66616c73650000000000000000000000000000000000000000000000000000008152506106dd565b6040518060400160405280600481526020017f74727565000000000000000000000000000000000000000000000000000000008152505b816001815181106106ea57fe5b6020026020010181905250610749565b6040518060400160405280600e81526020017f4e6f7420726567697374657265640000000000000000000000000000000000008152508160008151811061073d57fe5b60200260200101819052505b8091505090565b60606000808373ffffffffffffffffffffffffffffffffffffffff1673ffffffffffffffffffffffffffffffffffffffff1681526020019081526020016000206000018054600181600116156101000203166002900480601f0160208091040260200160405190810160405280929190818152602001828054600181600116156101000203166002900480156108275780601f106107fc57610100808354040283529160200191610827565b820191906000526020600020905b81548152906001019060200180831161080a57829003601f168201915b50505050509050919050565b60608060018054905060405190808252806020026020018201604052801561086f57816020015b606081526020019060019003908161085a5790505b50905060008090505b600180549050811015610981576000806001838154811061089557fe5b9060005260206000200160009054906101000a900473ffffffffffffffffffffffffffffffffffffffff1673ffffffffffffffffffffffffffffffffffffffff1673ffffffffffffffffffffffffffffffffffffffff16815260200190815260200160002060000161093d6001838154811061090d57fe5b9060005260206000200160009054906101000a900473ffffffffffffffffffffffffffffffffffffffff16610a62565b60405160200161094e929190611066565b60405160208183030381529060405282828151811061096957fe5b60200260200101819052508080600101915050610878565b508091505090565b6000610994836109fd565b61099d57600080fd5b816000808573ffffffffffffffffffffffffffffffffffffffff1673ffffffffffffffffffffffffffffffffffffffff16815260200190815260200160002060000190805190602001906109f2929190610c8a565b506001905092915050565b60008060008373ffffffffffffffffffffffffffffffffffffffff1673ffffffffffffffffffffffffffffffffffffffff16815260200190815260200160002060010160009054906101000a900460ff169050919050565b6000600180549050905090565b60608060286040519080825280601f01601f191660200182016040528015610a995781602001600182028038833980820191505090505b50905060008090505b6014811015610ba75760008160130360080260020a8573ffffffffffffffffffffffffffffffffffffffff1681610ad557fe5b0460f81b9050600060108260f81c60ff1681610aed57fe5b0460f81b905060008160f81c6010028360f81c0360f81b9050610b0f82610bb1565b858560020281518110610b1e57fe5b60200101907effffffffffffffffffffffffffffffffffffffffffffffffffffffffffffff1916908160001a905350610b5681610bb1565b856001866002020181518110610b6857fe5b60200101907effffffffffffffffffffffffffffffffffffffffffffffffffffffffffffff1916908160001a9053505050508080600101915050610aa2565b5080915050919050565b6000600a8260f81c60ff161015610bd35760308260f81c0160f81b9050610be0565b60578260f81c0160f81b90505b919050565b6040518060600160405280606081526020016000151581526020016000151581525090565b828054600181600116156101000203166002900490600052602060002090601f016020900481019282601f10610c4b57805160ff1916838001178555610c79565b82800160010185558215610c79579182015b82811115610c78578251825591602001919060010190610c5d565b5b509050610c869190610d0a565b5090565b828054600181600116156101000203166002900490600052602060002090601f016020900481019282601f10610ccb57805160ff1916838001178555610cf9565b82800160010185558215610cf9579182015b82811115610cf8578251825591602001919060010190610cdd565b5b509050610d069190610d0a565b5090565b610d2c91905b80821115610d28576000816000905550600101610d10565b5090565b90565b600081359050610d3e816112d2565b92915050565b600082601f830112610d5557600080fd5b8135610d68610d638261117a565b61114d565b91508082526020830160208301858383011115610d8457600080fd5b610d8f83828461127f565b50505092915050565b600060208284031215610daa57600080fd5b6000610db884828501610d2f565b91505092915050565b60008060408385031215610dd457600080fd5b6000610de285828601610d2f565b925050602083013567ffffffffffffffff811115610dff57600080fd5b610e0b85828601610d44565b9150509250929050565b6000610e218383610f17565b905092915050565b6000610e34826111cb565b610e3e81856111f9565b935083602082028501610e50856111a6565b8060005b85811015610e8c5784840389528151610e6d8582610e15565b9450610e78836111ec565b925060208a01995050600181019050610e54565b50829750879550505050505092915050565b610ea781611249565b82525050565b6000610eb8826111e1565b610ec2818561121b565b9350610ed281856020860161128e565b610edb816112c1565b840191505092915050565b6000610ef1826111e1565b610efb818561122c565b9350610f0b81856020860161128e565b80840191505092915050565b6000610f22826111d6565b610f2c818561120a565b9350610f3c81856020860161128e565b610f45816112c1565b840191505092915050565b6000610f5b826111d6565b610f65818561121b565b9350610f7581856020860161128e565b610f7e816112c1565b840191505092915050565b600081546001811660008114610fa65760018114610fcb5761100f565b607f6002830416610fb7818761122c565b955060ff198316865280860193505061100f565b60028204610fd9818761122c565b9550610fe4856111b6565b60005b8281101561100657815481890152600182019150602081019050610fe7565b82880195505050505b505092915050565b600061102460038361122c565b91507f2f2f2f00000000000000000000000000000000000000000000000000000000006000830152600382019050919050565b61106081611275565b82525050565b60006110728285610f89565b915061107d82611017565b91506110898284610ee6565b91508190509392505050565b600060208201905081810360008301526110af8184610e29565b905092915050565b60006020820190506110cc6000830184610e9e565b92915050565b600060208201905081810360008301526110ec8184610ead565b905092915050565b6000606082019050818103600083015261110e8186610f50565b905061111d6020830185610e9e565b61112a6040830184610e9e565b949350505050565b60006020820190506111476000830184611057565b92915050565b6000604051905081810181811067ffffffffffffffff8211171561117057600080fd5b8060405250919050565b600067ffffffffffffffff82111561119157600080fd5b601f19601f8301169050602081019050919050565b6000819050602082019050919050565b60008190508160005260206000209050919050565b600081519050919050565b600081519050919050565b600081519050919050565b6000602082019050919050565b600082825260208201905092915050565b600082825260208201905092915050565b600082825260208201905092915050565b600081905092915050565b600061124282611255565b9050919050565b60008115159050919050565b600073ffffffffffffffffffffffffffffffffffffffff82169050919050565b6000819050919050565b82818337600083830152505050565b60005b838110156112ac578082015181840152602081019050611291565b838111156112bb576000848401525b50505050565b6000601f19601f8301169050919050565b6112db81611237565b81146112e657600080fd5b5056fea365627a7a72315820d1bcef2b77f9b43e01f767d28495da3fd7d748b008999d3d48ceb9e4f7820ea46c6578706572696d656e74616cf564736f6c63430005100040",
  "source": "pragma solidity ^0.5.16;\npragma experimental ABIEncoderV2;\n\ncontract AdminRoleManager {\n    struct Role {\n        string name;\n        bool isRole;\n        bool isAdmin;\n    }\n\n    mapping(address => Role) public Roles;\n    address[] roleList;\n\n    function isRole(address RoleAddress) public view returns (bool isIndeed) {\n        return Roles[RoleAddress].isRole;\n    }\n\n    function imRole() public view returns (string[] memory role) {\n        string[] memory role = new string[](2);\n        if (isRole(msg.sender)) {\n            role[0] = Roles[msg.sender].name;\n            role[1] = Roles[msg.sender].isAdmin ? \"true\" : \"false\";\n        } else {\n            role[0] = \"Not registered\";\n        }\n        return role;\n    }\n\n    function getRoleCount() public view returns (uint256 RoleCount) {\n        return roleList.length;\n    }\n\n    function getName(address add) public view returns (string memory aze) {\n        return Roles[add].name;\n    }\n\n    function getRoles() public view returns (string[] memory list) {\n        string[] memory listofRoles = new string[](roleList.length);\n        for (uint256 i = 0; i < roleList.length; i++) {\n            listofRoles[i] = string(\n                abi.encodePacked(Roles[roleList[i]].name, \"///\", toAsciiString(roleList[i]))\n            );\n        }\n        return listofRoles;\n    }\n\n    function toAsciiString(address x) internal view returns (string memory) {\n        bytes memory s = new bytes(40);\n        for (uint256 i = 0; i < 20; i++) {\n            bytes1 b = bytes1(uint8(uint256(uint160(x)) / (2**(8 * (19 - i)))));\n            bytes1 hi = bytes1(uint8(b) / 16);\n            bytes1 lo = bytes1(uint8(b) - 16 * uint8(hi));\n            s[2 * i] = char(hi);\n            s[2 * i + 1] = char(lo);\n        }\n        return string(s);\n    }\n\n    function char(bytes1 b) internal view returns (bytes1 c) {\n        if (uint8(b) < 10) return bytes1(uint8(b) + 0x30);\n        else return bytes1(uint8(b) + 0x57);\n    }\n\n    function newRole(address RoleAddress, string memory name)\n        public\n        returns (string memory rowNumber)\n    {\n        if (isRole(RoleAddress)) revert();\n        Role memory tempStruct = Role(name, true, false);\n        Roles[RoleAddress] = tempStruct;\n        roleList.push(RoleAddress);\n        return Roles[RoleAddress].name;\n    }\n\n    function updateRole(address RoleAddress, string memory name)\n        public\n        returns (bool success)\n    {\n        if (!isRole(RoleAddress)) revert();\n        Roles[RoleAddress].name = name;\n        return true;\n    }\n}\n",
  "sourcePath": "/home/hhdf8435/code/masterPlatform/contracts/AdminRoleManager.sol",
  "compiler": {
    "name": "solc",
    "version": "0.5.16+commit.9c3226ce.Emscripten.clang"
  },
  "schemaVersion": "3.3.4",
  "updatedAt": "2021-05-20T12:39:48.459Z",
  "networkType": "ethereum",
  "devdoc": {
    "methods": {}
  },
  "userdoc": {
    "methods": {}
  }
}