{
  "contractName": "PublicDCRManager",
  "abi": [
    {
      "anonymous": false,
      "inputs": [
        {
          "indexed": true,
          "internalType": "uint256",
          "name": "workflowId",
          "type": "uint256"
        },
        {
          "indexed": true,
          "internalType": "uint256",
          "name": "activityId",
          "type": "uint256"
        },
        {
          "indexed": true,
          "internalType": "address",
          "name": "executor",
          "type": "address"
        }
      ],
      "name": "LogExecution",
      "type": "event"
    },
    {
      "anonymous": false,
      "inputs": [
        {
          "indexed": true,
          "internalType": "uint256",
          "name": "workflowId",
          "type": "uint256"
        },
        {
          "indexed": true,
          "internalType": "string",
          "name": "workflowName",
          "type": "string"
        },
        {
          "indexed": true,
          "internalType": "address",
          "name": "creator",
          "type": "address"
        }
      ],
      "name": "LogWorkflowCreation",
      "type": "event"
    },
    {
      "constant": true,
      "inputs": [
        {
          "internalType": "uint256",
          "name": "workflowId",
          "type": "uint256"
        }
      ],
      "name": "getWorflowName",
      "outputs": [
        {
          "internalType": "string",
          "name": "",
          "type": "string"
        }
      ],
      "payable": false,
      "stateMutability": "view",
      "type": "function"
    },
    {
      "constant": true,
      "inputs": [
        {
          "internalType": "uint256",
          "name": "workflowId",
          "type": "uint256"
        },
        {
          "internalType": "uint256",
          "name": "activityId",
          "type": "uint256"
        }
      ],
      "name": "getCanExecuteCheck",
      "outputs": [
        {
          "internalType": "uint32",
          "name": "",
          "type": "uint32"
        }
      ],
      "payable": false,
      "stateMutability": "view",
      "type": "function"
    },
    {
      "constant": true,
      "inputs": [
        {
          "internalType": "uint256",
          "name": "workflowId",
          "type": "uint256"
        },
        {
          "internalType": "uint256",
          "name": "activityId",
          "type": "uint256"
        }
      ],
      "name": "getStatus",
      "outputs": [
        {
          "internalType": "uint256",
          "name": "",
          "type": "uint256"
        }
      ],
      "payable": false,
      "stateMutability": "view",
      "type": "function"
    },
    {
      "constant": true,
      "inputs": [
        {
          "internalType": "uint256",
          "name": "workflowId",
          "type": "uint256"
        }
      ],
      "name": "getWkfLength",
      "outputs": [
        {
          "internalType": "uint256",
          "name": "",
          "type": "uint256"
        }
      ],
      "payable": false,
      "stateMutability": "view",
      "type": "function"
    },
    {
      "constant": true,
      "inputs": [
        {
          "internalType": "uint256",
          "name": "workflowId",
          "type": "uint256"
        }
      ],
      "name": "getIncluded",
      "outputs": [
        {
          "internalType": "uint256[]",
          "name": "",
          "type": "uint256[]"
        }
      ],
      "payable": false,
      "stateMutability": "view",
      "type": "function"
    },
    {
      "constant": true,
      "inputs": [
        {
          "internalType": "uint256",
          "name": "workflowId",
          "type": "uint256"
        }
      ],
      "name": "getExecuted",
      "outputs": [
        {
          "internalType": "uint256[]",
          "name": "",
          "type": "uint256[]"
        }
      ],
      "payable": false,
      "stateMutability": "view",
      "type": "function"
    },
    {
      "constant": true,
      "inputs": [
        {
          "internalType": "uint256",
          "name": "workflowId",
          "type": "uint256"
        }
      ],
      "name": "getPending",
      "outputs": [
        {
          "internalType": "uint256[]",
          "name": "",
          "type": "uint256[]"
        }
      ],
      "payable": false,
      "stateMutability": "view",
      "type": "function"
    },
    {
      "constant": true,
      "inputs": [
        {
          "internalType": "uint256",
          "name": "workflowId",
          "type": "uint256"
        }
      ],
      "name": "getConditionsFrom",
      "outputs": [
        {
          "internalType": "uint256[][]",
          "name": "",
          "type": "uint256[][]"
        }
      ],
      "payable": false,
      "stateMutability": "view",
      "type": "function"
    },
    {
      "constant": true,
      "inputs": [
        {
          "internalType": "uint256",
          "name": "workflowId",
          "type": "uint256"
        }
      ],
      "name": "getHashes",
      "outputs": [
        {
          "internalType": "bytes[]",
          "name": "",
          "type": "bytes[]"
        }
      ],
      "payable": false,
      "stateMutability": "view",
      "type": "function"
    },
    {
      "constant": true,
      "inputs": [
        {
          "internalType": "uint256",
          "name": "workflowId",
          "type": "uint256"
        },
        {
          "internalType": "uint256",
          "name": "activityId",
          "type": "uint256"
        }
      ],
      "name": "getActivityName",
      "outputs": [
        {
          "internalType": "string",
          "name": "",
          "type": "string"
        }
      ],
      "payable": false,
      "stateMutability": "view",
      "type": "function"
    },
    {
      "constant": true,
      "inputs": [
        {
          "internalType": "uint256",
          "name": "workflowId",
          "type": "uint256"
        },
        {
          "internalType": "uint256",
          "name": "activityId",
          "type": "uint256"
        }
      ],
      "name": "getRoleAddresses",
      "outputs": [
        {
          "internalType": "address",
          "name": "",
          "type": "address"
        }
      ],
      "payable": false,
      "stateMutability": "view",
      "type": "function"
    },
    {
      "constant": false,
      "inputs": [
        {
          "internalType": "uint256",
          "name": "workflowId",
          "type": "uint256"
        },
        {
          "internalType": "uint256",
          "name": "activityId",
          "type": "uint256"
        },
        {
          "internalType": "address",
          "name": "msgSender",
          "type": "address"
        }
      ],
      "name": "canExecute",
      "outputs": [
        {
          "internalType": "bool",
          "name": "",
          "type": "bool"
        }
      ],
      "payable": false,
      "stateMutability": "nonpayable",
      "type": "function"
    },
    {
      "constant": false,
      "inputs": [
        {
          "internalType": "uint256[]",
          "name": "_includedStates",
          "type": "uint256[]"
        },
        {
          "internalType": "uint256[]",
          "name": "_executedStates",
          "type": "uint256[]"
        },
        {
          "internalType": "uint256[]",
          "name": "_pendingStates",
          "type": "uint256[]"
        },
        {
          "internalType": "address[]",
          "name": "_roleAddresses",
          "type": "address[]"
        },
        {
          "internalType": "string[]",
          "name": "_activityNames",
          "type": "string[]"
        },
        {
          "internalType": "string",
          "name": "_name",
          "type": "string"
        },
        {
          "internalType": "uint256[][]",
          "name": "_includesTo",
          "type": "uint256[][]"
        },
        {
          "internalType": "uint256[][]",
          "name": "_excludesTo",
          "type": "uint256[][]"
        },
        {
          "internalType": "uint256[][]",
          "name": "_responsesTo",
          "type": "uint256[][]"
        },
        {
          "internalType": "uint256[][]",
          "name": "_conditionsFrom",
          "type": "uint256[][]"
        },
        {
          "internalType": "uint256[][]",
          "name": "_milestonesFrom",
          "type": "uint256[][]"
        }
      ],
      "name": "createWorkflow",
      "outputs": [],
      "payable": true,
      "stateMutability": "payable",
      "type": "function"
    },
    {
      "constant": false,
      "inputs": [
        {
          "internalType": "uint256",
          "name": "workflowId",
          "type": "uint256"
        },
        {
          "internalType": "uint256",
          "name": "activityId",
          "type": "uint256"
        }
      ],
      "name": "checkCliquedIndex",
      "outputs": [],
      "payable": false,
      "stateMutability": "nonpayable",
      "type": "function"
    }
  ],
  "bytecode": "0x608060405234801561001057600080fd5b50612930806100206000396000f3fe6080604052600436106100dd5760003560e01c80639beaa5241161007f578063a745da6511610059578063a745da651461030f578063abca84a11461034c578063d5ae538b14610389578063fffdc059146103c6576100dd565b80639beaa52414610258578063a2b5ad1514610295578063a70ef506146102d2576100dd565b806352f4ba75116100bb57806352f4ba751461019957806376d2af65146101d657806384f89a93146101f25780639611e4591461022f576100dd565b806302a8ca10146100e2578063219475071461011f578063279dd03f1461015c575b600080fd5b3480156100ee57600080fd5b5061010960048036036101049190810190612102565b610403565b60405161011691906124de565b60405180910390f35b34801561012b57600080fd5b5061014660048036036101419190810190612102565b61050a565b6040516101539190612500565b60405180910390f35b34801561016857600080fd5b50610183600480360361017e9190810190612102565b610580565b60405161019091906124bc565b60405180910390f35b3480156101a557600080fd5b506101c060048036036101bb919081019061212b565b61063d565b6040516101cd91906124a1565b60405180910390f35b6101f060048036036101eb9190810190611f0a565b61069a565b005b3480156101fe57600080fd5b5061021960048036036102149190810190612102565b6109ac565b6040516102269190612500565b60405180910390f35b34801561023b57600080fd5b506102566004803603610251919081019061212b565b610a22565b005b34801561026457600080fd5b5061027f600480360361027a919081019061212b565b610ef1565b60405161028c919061253d565b60405180910390f35b3480156102a157600080fd5b506102bc60048036036102b79190810190612167565b610fc7565b6040516102c99190612522565b60405180910390f35b3480156102de57600080fd5b506102f960048036036102f49190810190612102565b6114b8565b604051610306919061253d565b60405180910390f35b34801561031b57600080fd5b506103366004803603610331919081019061212b565b611578565b604051610343919061255f565b60405180910390f35b34801561035857600080fd5b50610373600480360361036e919081019061212b565b6115a3565b604051610380919061257a565b60405180910390f35b34801561039557600080fd5b506103b060048036036103ab9190810190612102565b6115de565b6040516103bd9190612500565b60405180910390f35b3480156103d257600080fd5b506103ed60048036036103e89190810190612102565b611654565b6040516103fa919061255f565b60405180910390f35b60606000828154811061041257fe5b90600052602060002090600f0201600601805480602002602001604051908101604052809291908181526020016000905b828210156104ff578382906000526020600020018054600181600116156101000203166002900480601f0160208091040260200160405190810160405280929190818152602001828054600181600116156101000203166002900480156104eb5780601f106104c0576101008083540402835291602001916104eb565b820191906000526020600020905b8154815290600101906020018083116104ce57829003601f168201915b505050505081526020019060010190610443565b505050509050919050565b60606000828154811061051957fe5b90600052602060002090600f020160020180548060200260200160405190810160405280929190818152602001828054801561057457602002820191906000526020600020905b815481526020019060010190808311610560575b50505050509050919050565b60606000828154811061058f57fe5b90600052602060002090600f0201600b01805480602002602001604051908101604052809291908181526020016000905b828210156106325783829060005260206000200180548060200260200160405190810160405280929190818152602001828054801561061e57602002820191906000526020600020905b81548152602001906001019080831161060a575b5050505050815260200190600101906105c0565b505050509050919050565b600080838154811061064b57fe5b90600052602060002090600f0201600401828154811061066757fe5b9060005260206000200160009054906101000a900473ffffffffffffffffffffffffffffffffffffffff16905092915050565b6106a261167e565b6040518060400160405280600063ffffffff168152602001600081525090506106c961169e565b604051806101c001604052808981526020018e81526020018d81526020018c81526020018b81526020018a81526020018e5160405190808252806020026020018201604052801561072e57816020015b60608152602001906001900390816107195790505b5081526020018e5181526020018881526020018781526020018681526020018581526020018481526020018381525090506000819080600181540180825580915050906001820390600052602060002090600f02016000909192909190915060008201518160000190805190602001906107a9929190611713565b5060208201518160010190805190602001906107c6929190611793565b5060408201518160020190805190602001906107e3929190611793565b506060820151816003019080519060200190610800929190611793565b50608082015181600401908051906020019061081d9291906117e0565b5060a082015181600501908051906020019061083a92919061186a565b5060c08201518160060190805190602001906108579291906118ca565b5060e0820151816007015561010082015181600801908051906020019061087f92919061192a565b5061012082015181600901908051906020019061089d92919061192a565b5061014082015181600a0190805190602001906108bb92919061192a565b5061016082015181600b0190805190602001906108d992919061192a565b5061018082015181600c0190805190602001906108f792919061192a565b506101a082015181600d0160008201518160000160006101000a81548163ffffffff021916908363ffffffff1602179055506020820151816001015550505050503373ffffffffffffffffffffffffffffffffffffffff168160000151604051610961919061248a565b60405180910390206001600080549050037e580e796805b82dd041d9cc2b779ba3dd8b2d71dd1d3a5922e6b4c32cadf19960405160405180910390a450505050505050505050505050565b6060600082815481106109bb57fe5b90600052602060002090600f0201600301805480602002602001604051908101604052809291908181526020018280548015610a1657602002820191906000526020600020905b815481526020019060010190808311610a02575b50505050509050919050565b610a2d828233610fc7565b610a5d57600160008381548110610a4057fe5b90600052602060002090600f0201600d0160010181905550610eed565b600160008381548110610a6c57fe5b90600052602060002090600f02016002018281548110610a8857fe5b90600052602060002001819055506000808381548110610aa457fe5b90600052602060002090600f02016003018281548110610ac057fe5b9060005260206000200181905550606060008381548110610add57fe5b90600052602060002090600f02016009018281548110610af957fe5b90600052602060002001805480602002602001604051908101604052809291908181526020018280548015610b4d57602002820191906000526020600020905b815481526020019060010190808311610b39575b50505050509050606060008481548110610b6357fe5b90600052602060002090600f0201600a018381548110610b7f57fe5b90600052602060002001805480602002602001604051908101604052809291908181526020018280548015610bd357602002820191906000526020600020905b815481526020019060010190808311610bbf575b50505050509050606060008581548110610be957fe5b90600052602060002090600f02016008018481548110610c0557fe5b90600052602060002001805480602002602001604051908101604052809291908181526020018280548015610c5957602002820191906000526020600020905b815481526020019060010190808311610c45575b50505050509050606060008681548110610c6f57fe5b90600052602060002090600f0201600b018581548110610c8b57fe5b90600052602060002001805480602002602001604051908101604052809291908181526020018280548015610cdf57602002820191906000526020600020905b815481526020019060010190808311610ccb575b5050505050905060008090505b8151811015610d39576001828281518110610d0357fe5b60200260200101511415610d2c576001838281518110610d1f57fe5b6020026020010181815250505b8080600101915050610cec565b5060008090505b60008781548110610d4d57fe5b90600052602060002090600f020160090180549050811015610e7b576001858281518110610d7757fe5b602002602001015114158015610da057506001838281518110610d9657fe5b6020026020010151145b15610ddf57600160008881548110610db457fe5b90600052602060002090600f02016001018281548110610dd057fe5b90600052602060002001819055505b6001848281518110610ded57fe5b60200260200101511415610e6e57600160008881548110610e0a57fe5b90600052602060002090600f02016003018281548110610e2657fe5b9060005260206000200181905550600160008881548110610e4357fe5b90600052602060002090600f02016001018281548110610e5f57fe5b90600052602060002001819055505b8080600101915050610d40565b503373ffffffffffffffffffffffffffffffffffffffff1685877fd853302052b9b346cf4b175b34d36663cb511da3c0c7f221f21ec256fc7f625160405160405180910390a4600160008781548110610ed057fe5b90600052602060002090600f0201600d0160010181905550505050505b5050565b606060008381548110610f0057fe5b90600052602060002090600f02016005018281548110610f1c57fe5b906000526020600020018054600181600116156101000203166002900480601f016020809104026020016040519081016040528092919081815260200182805460018160011615610100020316600290048015610fba5780601f10610f8f57610100808354040283529160200191610fba565b820191906000526020600020905b815481529060010190602001808311610f9d57829003601f168201915b5050505050905092915050565b6000808481548110610fd557fe5b90600052602060002090600f02016004018381548110610ff157fe5b9060005260206000200160009054906101000a900473ffffffffffffffffffffffffffffffffffffffff1673ffffffffffffffffffffffffffffffffffffffff168273ffffffffffffffffffffffffffffffffffffffff16146110985760046000858154811061105d57fe5b90600052602060002090600f0201600d0160000160006101000a81548163ffffffff021916908363ffffffff160217905550600090506114b1565b60008085815481106110a657fe5b90600052602060002090600f020160010184815481106110c257fe5b9060005260206000200154141561111d576001600085815481106110e257fe5b90600052602060002090600f0201600d0160000160006101000a81548163ffffffff021916908363ffffffff160217905550600090506114b1565b60008090505b6000858154811061113057fe5b90600052602060002090600f0201600b01805490508110156112c35760606000868154811061115b57fe5b90600052602060002090600f0201600b01828154811061117757fe5b906000526020600020018054806020026020016040519081016040528092919081815260200182805480156111cb57602002820191906000526020600020905b8154815260200190600101908083116111b7575b5050505050905060018186815181106111e057fe5b602002602001015114156112b55760008087815481106111fc57fe5b90600052602060002090600f0201600201838154811061121857fe5b9060005260206000200154148015611263575060016000878154811061123a57fe5b90600052602060002090600f0201600101838154811061125657fe5b9060005260206000200154145b156112b45760026000878154811061127757fe5b90600052602060002090600f0201600d0160000160006101000a81548163ffffffff021916908363ffffffff1602179055506000925050506114b1565b5b508080600101915050611123565b5060008090505b600085815481106112d757fe5b90600052602060002090600f0201600c018054905081101561146b5760606000868154811061130257fe5b90600052602060002090600f0201600c01828154811061131e57fe5b9060005260206000200180548060200260200160405190810160405280929190818152602001828054801561137257602002820191906000526020600020905b81548152602001906001019080831161135e575b50505050509050600181868151811061138757fe5b6020026020010151141561145d576001600087815481106113a457fe5b90600052602060002090600f020160030183815481106113c057fe5b906000526020600020015414801561140b57506001600087815481106113e257fe5b90600052602060002090600f020160010183815481106113fe57fe5b9060005260206000200154145b1561145c5760036000878154811061141f57fe5b90600052602060002090600f0201600d0160000160006101000a81548163ffffffff021916908363ffffffff1602179055506000925050506114b1565b5b5080806001019150506112ca565b50600080858154811061147a57fe5b90600052602060002090600f0201600d0160000160006101000a81548163ffffffff021916908363ffffffff160217905550600190505b9392505050565b6060600082815481106114c757fe5b90600052602060002090600f02016000018054600181600116156101000203166002900480601f01602080910402602001604051908101604052809291908181526020018280546001816001161561010002031660029004801561156c5780601f106115415761010080835404028352916020019161156c565b820191906000526020600020905b81548152906001019060200180831161154f57829003601f168201915b50505050509050919050565b600080838154811061158657fe5b90600052602060002090600f0201600d0160010154905092915050565b60008083815481106115b157fe5b90600052602060002090600f0201600d0160000160009054906101000a900463ffffffff16905092915050565b6060600082815481106115ed57fe5b90600052602060002090600f020160010180548060200260200160405190810160405280929190818152602001828054801561164857602002820191906000526020600020905b815481526020019060010190808311611634575b50505050509050919050565b600080828154811061166257fe5b90600052602060002090600f0201600801805490509050919050565b6040518060400160405280600063ffffffff168152602001600081525090565b604051806101c001604052806060815260200160608152602001606081526020016060815260200160608152602001606081526020016060815260200160008152602001606081526020016060815260200160608152602001606081526020016060815260200161170d61198a565b81525090565b828054600181600116156101000203166002900490600052602060002090601f016020900481019282601f1061175457805160ff1916838001178555611782565b82800160010185558215611782579182015b82811115611781578251825591602001919060010190611766565b5b50905061178f91906119aa565b5090565b8280548282559060005260206000209081019282156117cf579160200282015b828111156117ce5782518255916020019190600101906117b3565b5b5090506117dc91906119aa565b5090565b828054828255906000526020600020908101928215611859579160200282015b828111156118585782518260006101000a81548173ffffffffffffffffffffffffffffffffffffffff021916908373ffffffffffffffffffffffffffffffffffffffff16021790555091602001919060010190611800565b5b50905061186691906119cf565b5090565b8280548282559060005260206000209081019282156118b9579160200282015b828111156118b85782518290805190602001906118a8929190611713565b509160200191906001019061188a565b5b5090506118c69190611a12565b5090565b828054828255906000526020600020908101928215611919579160200282015b82811115611918578251829080519060200190611908929190611a3e565b50916020019190600101906118ea565b5b5090506119269190611abe565b5090565b828054828255906000526020600020908101928215611979579160200282015b82811115611978578251829080519060200190611968929190611793565b509160200191906001019061194a565b5b5090506119869190611aea565b5090565b6040518060400160405280600063ffffffff168152602001600081525090565b6119cc91905b808211156119c85760008160009055506001016119b0565b5090565b90565b611a0f91905b80821115611a0b57600081816101000a81549073ffffffffffffffffffffffffffffffffffffffff0219169055506001016119d5565b5090565b90565b611a3b91905b80821115611a375760008181611a2e9190611b16565b50600101611a18565b5090565b90565b828054600181600116156101000203166002900490600052602060002090601f016020900481019282601f10611a7f57805160ff1916838001178555611aad565b82800160010185558215611aad579182015b82811115611aac578251825591602001919060010190611a91565b5b509050611aba91906119aa565b5090565b611ae791905b80821115611ae35760008181611ada9190611b5e565b50600101611ac4565b5090565b90565b611b1391905b80821115611b0f5760008181611b069190611ba6565b50600101611af0565b5090565b90565b50805460018160011615610100020316600290046000825580601f10611b3c5750611b5b565b601f016020900490600052602060002090810190611b5a91906119aa565b5b50565b50805460018160011615610100020316600290046000825580601f10611b845750611ba3565b601f016020900490600052602060002090810190611ba291906119aa565b5b50565b5080546000825590600052602060002090810190611bc491906119aa565b50565b600081359050611bd6816128bf565b92915050565b600082601f830112611bed57600080fd5b8135611c00611bfb826125c2565b612595565b91508181835260208401935060208101905083856020840282011115611c2557600080fd5b60005b83811015611c555781611c3b8882611bc7565b845260208401935060208301925050600181019050611c28565b5050505092915050565b600082601f830112611c7057600080fd5b8135611c83611c7e826125ea565b612595565b9150818183526020840193506020810190508360005b83811015611cc95781358601611caf8882611d47565b845260208401935060208301925050600181019050611c99565b5050505092915050565b600082601f830112611ce457600080fd5b8135611cf7611cf282612612565b612595565b9150818183526020840193506020810190508360005b83811015611d3d5781358601611d238882611e4d565b845260208401935060208301925050600181019050611d0d565b5050505092915050565b600082601f830112611d5857600080fd5b8135611d6b611d668261263a565b612595565b91508181835260208401935060208101905083856020840282011115611d9057600080fd5b60005b83811015611dc05781611da68882611ef5565b845260208401935060208301925050600181019050611d93565b5050505092915050565b600082601f830112611ddb57600080fd5b8135611dee611de982612662565b612595565b91508181835260208401935060208101905083856020840282011115611e1357600080fd5b60005b83811015611e435781611e298882611ef5565b845260208401935060208301925050600181019050611e16565b5050505092915050565b600082601f830112611e5e57600080fd5b8135611e71611e6c8261268a565b612595565b91508082526020830160208301858383011115611e8d57600080fd5b611e9883828461286c565b50505092915050565b600082601f830112611eb257600080fd5b8135611ec5611ec0826126b6565b612595565b91508082526020830160208301858383011115611ee157600080fd5b611eec83828461286c565b50505092915050565b600081359050611f04816128d6565b92915050565b60008060008060008060008060008060006101608c8e031215611f2c57600080fd5b60008c013567ffffffffffffffff811115611f4657600080fd5b611f528e828f01611dca565b9b505060208c013567ffffffffffffffff811115611f6f57600080fd5b611f7b8e828f01611dca565b9a505060408c013567ffffffffffffffff811115611f9857600080fd5b611fa48e828f01611dca565b99505060608c013567ffffffffffffffff811115611fc157600080fd5b611fcd8e828f01611bdc565b98505060808c013567ffffffffffffffff811115611fea57600080fd5b611ff68e828f01611cd3565b97505060a08c013567ffffffffffffffff81111561201357600080fd5b61201f8e828f01611ea1565b96505060c08c013567ffffffffffffffff81111561203c57600080fd5b6120488e828f01611c5f565b95505060e08c013567ffffffffffffffff81111561206557600080fd5b6120718e828f01611c5f565b9450506101008c013567ffffffffffffffff81111561208f57600080fd5b61209b8e828f01611c5f565b9350506101208c013567ffffffffffffffff8111156120b957600080fd5b6120c58e828f01611c5f565b9250506101408c013567ffffffffffffffff8111156120e357600080fd5b6120ef8e828f01611c5f565b9150509295989b509295989b9093969950565b60006020828403121561211457600080fd5b600061212284828501611ef5565b91505092915050565b6000806040838503121561213e57600080fd5b600061214c85828601611ef5565b925050602061215d85828601611ef5565b9150509250929050565b60008060006060848603121561217c57600080fd5b600061218a86828701611ef5565b935050602061219b86828701611ef5565b92505060406121ac86828701611bc7565b9150509250925092565b60006121c2838361234d565b905092915050565b60006121d683836123ba565b905092915050565b60006121ea838361245d565b60208301905092915050565b6121ff81612814565b82525050565b600061221082612722565b61221a81856127a3565b93508360208202850161222c856126e2565b8060005b85811015612268578484038952815161224985826121b6565b94506122548361276f565b925060208a01995050600181019050612230565b50829750879550505050505092915050565b60006122858261272d565b61228f81856127b4565b9350836020820285016122a1856126f2565b8060005b858110156122dd57848403895281516122be85826121ca565b94506122c98361277c565b925060208a019950506001810190506122a5565b50829750879550505050505092915050565b60006122fa82612743565b61230481856127d6565b935061230f83612712565b8060005b8381101561234057815161232788826121de565b975061233283612796565b925050600181019050612313565b5085935050505092915050565b600061235882612738565b61236281856127c5565b935061236d83612702565b8060005b8381101561239e57815161238588826121de565b975061239083612789565b925050600181019050612371565b5085935050505092915050565b6123b481612826565b82525050565b60006123c58261274e565b6123cf81856127e7565b93506123df81856020860161287b565b6123e8816128ae565b840191505092915050565b60006123fe82612764565b61240881856127f8565b935061241881856020860161287b565b612421816128ae565b840191505092915050565b600061243782612759565b6124418185612809565b935061245181856020860161287b565b80840191505092915050565b61246681612852565b82525050565b61247581612852565b82525050565b6124848161285c565b82525050565b6000612496828461242c565b915081905092915050565b60006020820190506124b660008301846121f6565b92915050565b600060208201905081810360008301526124d68184612205565b905092915050565b600060208201905081810360008301526124f8818461227a565b905092915050565b6000602082019050818103600083015261251a81846122ef565b905092915050565b600060208201905061253760008301846123ab565b92915050565b6000602082019050818103600083015261255781846123f3565b905092915050565b6000602082019050612574600083018461246c565b92915050565b600060208201905061258f600083018461247b565b92915050565b6000604051905081810181811067ffffffffffffffff821117156125b857600080fd5b8060405250919050565b600067ffffffffffffffff8211156125d957600080fd5b602082029050602081019050919050565b600067ffffffffffffffff82111561260157600080fd5b602082029050602081019050919050565b600067ffffffffffffffff82111561262957600080fd5b602082029050602081019050919050565b600067ffffffffffffffff82111561265157600080fd5b602082029050602081019050919050565b600067ffffffffffffffff82111561267957600080fd5b602082029050602081019050919050565b600067ffffffffffffffff8211156126a157600080fd5b601f19601f8301169050602081019050919050565b600067ffffffffffffffff8211156126cd57600080fd5b601f19601f8301169050602081019050919050565b6000819050602082019050919050565b6000819050602082019050919050565b6000819050602082019050919050565b6000819050602082019050919050565b600081519050919050565b600081519050919050565b600081519050919050565b600081519050919050565b600081519050919050565b600081519050919050565b600081519050919050565b6000602082019050919050565b6000602082019050919050565b6000602082019050919050565b6000602082019050919050565b600082825260208201905092915050565b600082825260208201905092915050565b600082825260208201905092915050565b600082825260208201905092915050565b600082825260208201905092915050565b600082825260208201905092915050565b600081905092915050565b600061281f82612832565b9050919050565b60008115159050919050565b600073ffffffffffffffffffffffffffffffffffffffff82169050919050565b6000819050919050565b600063ffffffff82169050919050565b82818337600083830152505050565b60005b8381101561289957808201518184015260208101905061287e565b838111156128a8576000848401525b50505050565b6000601f19601f8301169050919050565b6128c881612814565b81146128d357600080fd5b50565b6128df81612852565b81146128ea57600080fd5b5056fea365627a7a7231582095b42e78bad09c6995f70a4f2cf84a62f772dac8415cf3d22dd6bcc98cc09b2f6c6578706572696d656e74616cf564736f6c63430005100040",
  "source": "//pragma solidity 0.5.10;\npragma solidity ^0.5.16;\npragma experimental ABIEncoderV2;\n\ncontract PublicDCRManager {\n    // event declaration\n    event LogWorkflowCreation(\n        uint256 indexed workflowId,\n        string indexed workflowName,\n        address indexed creator\n    );\n    event LogExecution(\n        uint256 indexed workflowId,\n        uint256 indexed activityId,\n        address indexed executor\n    );\n\n    // variable declarations.\n    struct Workflow {\n        string name;\n        uint256[] included;\n        uint256[] executed;\n        uint256[] pending;\n        address[] roleAddresses;\n        string[] activityNames;\n        bytes[] ipfsActivityHashes;\n        uint256 numActivities; //number of included activities\n        uint256[][] includesTo;\n        uint256[][] excludesTo;\n        uint256[][] responsesTo;\n        uint256[][] conditionsFrom;\n        uint256[][] milestonesFrom;\n        Activity execStatus;\n    }\n\n    struct Activity {\n        uint32 canExecuteCheck;\n        uint256 status; //0=no, 1=yes\n    }\n\n    Workflow[] workflows;\n\n    ///////////////// Misc ////////////////////////\n\n    /** @dev Getter for workflow name.\n      * @param workflowId index of the workflow (eg 0 for the first workflow).\n      * @return workflow name.\n      */\n    function getWorflowName(uint256 workflowId)\n        public\n        view\n        returns (string memory)\n    {\n        return workflows[workflowId].name;\n    }\n\n    /** @dev Getter for workflow execution status.\n      * @param workflowId index of the workflow (eg 0 for the first workflow).\n      * @return execution status of the task: 0=ok, 1= \n      */\n    function getCanExecuteCheck(uint256 workflowId, uint256 activityId)\n        public\n        view\n        returns (uint32)\n    {\n        return workflows[workflowId].execStatus.canExecuteCheck;\n    }\n\n    function getStatus(uint256 workflowId, uint256 activityId)\n        public\n        view\n        returns (uint256)\n    {\n        return workflows[workflowId].execStatus.status;\n    }\n\n    function getWkfLength(uint256 workflowId) public view returns (uint256) {\n        return workflows[workflowId].includesTo.length;\n    }\n\n    function getIncluded(uint256 workflowId)\n        public\n        view\n        returns (uint256[] memory)\n    {\n        return workflows[workflowId].included;\n    }\n\n    function getExecuted(uint256 workflowId)\n        public\n        view\n        returns (uint256[] memory)\n    {\n        return workflows[workflowId].executed;\n    }\n\n    function getPending(uint256 workflowId)\n        public\n        view\n        returns (uint256[] memory)\n    {\n        return workflows[workflowId].pending;\n    }\n\n    function getConditionsFrom(uint256 workflowId)\n        public\n        view\n        returns (uint256[][] memory)\n    {\n        return workflows[workflowId].conditionsFrom;\n    }\n\n    function getHashes(uint256 workflowId)\n        public\n        view\n        returns (bytes[] memory)\n    {\n        return workflows[workflowId].ipfsActivityHashes;\n    }\n\n    function getActivityName(uint256 workflowId, uint256 activityId)\n        public\n        view\n        returns (string memory)\n    {\n        return workflows[workflowId].activityNames[activityId];\n    }\n\n    function getRoleAddresses(uint256 workflowId, uint256 activityId)\n        public\n        view\n        returns (address)\n    {\n        return workflows[workflowId].roleAddresses[activityId];\n    }\n\n    ///////////////// Utils /////////////////////////\n\n    function canExecute(uint256 workflowId, uint256 activityId, address msgSender)\n        public\n        returns (bool)\n    {\n        // check if msg.sender address is correct\n        if (msgSender != workflows[workflowId].roleAddresses[activityId]) {\n            workflows[workflowId].execStatus.canExecuteCheck = 4;\n            return false;\n        }\n        \n        // activity must be included\n        if (workflows[workflowId].included[activityId] == 0) {\n            workflows[workflowId].execStatus.canExecuteCheck = 1;\n            return false;\n        }\n\n        // all conditions executed\n        for (\n            uint256 id = 0;\n            id < workflows[workflowId].conditionsFrom.length;\n            id++\n        ) {\n            uint256[] memory conditionsRow =\n                workflows[workflowId].conditionsFrom[id];\n            if (conditionsRow[activityId] == 1) {\n                if (\n                    (workflows[workflowId].executed[id] == 0) &&\n                    (workflows[workflowId].included[id] == 1)\n                ) {\n                    workflows[workflowId].execStatus.canExecuteCheck = 2;\n                    return false;\n                }\n            }\n        }\n\n        // no milestones pending\n        for (\n            uint256 id = 0;\n            id < workflows[workflowId].milestonesFrom.length;\n            id++\n        ) {\n            uint256[] memory milestonesRow =\n                workflows[workflowId].milestonesFrom[id];\n            if (milestonesRow[activityId] == 1) {\n                if (\n                    (workflows[workflowId].pending[id] == 1) &&\n                    (workflows[workflowId].included[id] == 1)\n                ) {\n                    workflows[workflowId].execStatus.canExecuteCheck = 3;\n                    return false;\n                }\n            }\n        }\n\n        workflows[workflowId].execStatus.canExecuteCheck = 0;\n        return true;\n    }\n\n    ///////////////// Main functions /////////////////////////\n\n    function createWorkflow(\n        // packed state variables\n        uint256[] memory _includedStates,\n        uint256[] memory _executedStates,\n        uint256[] memory _pendingStates,\n        \n        //process information\n        address[] memory _roleAddresses,\n        string[] memory _activityNames,\n        string memory _name,\n        \n        // relations\n        uint256[][] memory _includesTo,\n        uint256[][] memory _excludesTo,\n        uint256[][] memory _responsesTo,\n        uint256[][] memory _conditionsFrom,\n        uint256[][] memory _milestonesFrom\n    ) public payable {\n        Activity memory execStatus = Activity(0, 0);\n        Workflow memory wf =\n            Workflow(\n                _name,\n                _includedStates,\n                _executedStates,\n                _pendingStates,\n                _roleAddresses,\n                _activityNames,\n                new bytes[](_includedStates.length),\n                _includedStates.length,\n                _includesTo,\n                _excludesTo,\n                _responsesTo,\n                _conditionsFrom,\n                _milestonesFrom,\n                execStatus\n            );\n        workflows.push(wf);\n\n        emit LogWorkflowCreation(workflows.length - 1, wf.name, msg.sender);\n    }\n\n    function checkCliquedIndex(uint256 workflowId, uint256 activityId)\n        public\n    //        bytes memory ipfsHash\n    {\n        if (!canExecute(workflowId, activityId, msg.sender)) {\n            workflows[workflowId].execStatus.status = 1;\n            //revert();\n        } else {\n            // executed activity\n            workflows[workflowId].executed[activityId] = 1;\n            workflows[workflowId].pending[activityId] = 0;\n            //            workflows[workflowId].ipfsActivityHashes[activityId] = ipfsHash;\n\n            uint256[] memory exclude_vect_check =\n                workflows[workflowId].excludesTo[activityId];\n            uint256[] memory response_vect_check =\n                workflows[workflowId].responsesTo[activityId];\n\n            // add include relations\n            uint256[] memory include_vect_check =\n                workflows[workflowId].includesTo[activityId];\n\n            // update with condition relations ok\n            uint256[] memory conditionsTo =\n                workflows[workflowId].conditionsFrom[activityId]; //extract row condition\n            for (uint256 id = 0; id < conditionsTo.length; id++) {\n                if (conditionsTo[id] == 1) {\n                    include_vect_check[id] = 1;\n                }\n            }\n\n            for (\n                uint256 id = 0;\n                id < workflows[workflowId].excludesTo.length;\n                id++\n            ) {\n                // exclude and include relations pass\n                // note includes happens after the exclude pass\n                // included = (included & ~excludesTo[activityId]) | includesTo[activityId];\n                if (\n                    (exclude_vect_check[id] != 1) &&\n                    (include_vect_check[id] == 1)\n                ) {\n                    workflows[workflowId].included[id] = 1;\n                }\n\n                // response relations pass\n                // pending = (pending | responsesTo[activityId]);\n                if (response_vect_check[id] == 1) {\n                    workflows[workflowId].pending[id] = 1;\n                    workflows[workflowId].included[id] = 1;\n                }\n            }\n\n            emit LogExecution(workflowId, activityId, msg.sender);\n\n            workflows[workflowId].execStatus.status = 1;\n        }\n    }\n}\n",
  "sourcePath": "/home/hhdf8435/code/masterPlatform/contracts/PublicDCRManager.sol",
  "compiler": {
    "name": "solc",
    "version": "0.5.16+commit.9c3226ce.Emscripten.clang"
  },
  "schemaVersion": "3.3.4",
  "updatedAt": "2021-05-27T13:21:33.174Z",
  "networkType": "ethereum",
  "devdoc": {
    "methods": {
      "getCanExecuteCheck(uint256,uint256)": {
        "details": "Getter for workflow execution status.",
        "params": {
          "workflowId": "index of the workflow (eg 0 for the first workflow)."
        },
        "return": "execution status of the task: 0=ok, 1= "
      },
      "getWorflowName(uint256)": {
        "details": "Getter for workflow name.",
        "params": {
          "workflowId": "index of the workflow (eg 0 for the first workflow)."
        },
        "return": "workflow name."
      }
    }
  },
  "userdoc": {
    "methods": {
      "canExecute(uint256,uint256,address)": {
        "notice": "////////////// Utils /////////////////////////"
      },
      "createWorkflow(uint256[],uint256[],uint256[],address[],string[],string,uint256[][],uint256[][],uint256[][],uint256[][],uint256[][])": {
        "notice": "////////////// Main functions /////////////////////////"
      }
    }
  }
}