{
  "contractName": "PublicDCRManager",
  "abi": [
    {
      "anonymous": false,
      "inputs": [
        {
          "indexed": false,
          "internalType": "string",
          "name": "reqWkfHash",
          "type": "string"
        },
        {
          "indexed": true,
          "internalType": "address",
          "name": "endorser",
          "type": "address"
        }
      ],
      "name": "AcceptChange",
      "type": "event"
    },
    {
      "anonymous": false,
      "inputs": [
        {
          "indexed": false,
          "internalType": "string",
          "name": "reqWkfHash",
          "type": "string"
        }
      ],
      "name": "AcceptChangeAll",
      "type": "event"
    },
    {
      "anonymous": false,
      "inputs": [
        {
          "indexed": false,
          "internalType": "string",
          "name": "reqWkfHash",
          "type": "string"
        },
        {
          "indexed": true,
          "internalType": "address",
          "name": "endorser",
          "type": "address"
        }
      ],
      "name": "DeclineChange",
      "type": "event"
    },
    {
      "anonymous": false,
      "inputs": [
        {
          "indexed": true,
          "internalType": "string",
          "name": "workflowHash",
          "type": "string"
        },
        {
          "indexed": true,
          "internalType": "uint256",
          "name": "activityId",
          "type": "uint256"
        },
        {
          "indexed": true,
          "internalType": "address",
          "name": "executor",
          "type": "address"
        }
      ],
      "name": "LogExecution",
      "type": "event"
    },
    {
      "anonymous": false,
      "inputs": [
        {
          "indexed": true,
          "internalType": "string",
          "name": "workflowHash",
          "type": "string"
        },
        {
          "indexed": true,
          "internalType": "address",
          "name": "creator",
          "type": "address"
        }
      ],
      "name": "LogWorkflowCreation",
      "type": "event"
    },
    {
      "anonymous": false,
      "inputs": [
        {
          "indexed": true,
          "internalType": "string",
          "name": "workflowHash",
          "type": "string"
        },
        {
          "indexed": true,
          "internalType": "address",
          "name": "creator",
          "type": "address"
        }
      ],
      "name": "LogWorkflowProjection",
      "type": "event"
    },
    {
      "anonymous": false,
      "inputs": [
        {
          "indexed": false,
          "internalType": "string",
          "name": "reqWkfHash",
          "type": "string"
        },
        {
          "indexed": true,
          "internalType": "address",
          "name": "endorser",
          "type": "address"
        },
        {
          "indexed": false,
          "internalType": "string",
          "name": "comment",
          "type": "string"
        }
      ],
      "name": "RSPErrorChange",
      "type": "event"
    },
    {
      "anonymous": false,
      "inputs": [
        {
          "indexed": false,
          "internalType": "string",
          "name": "workflowHashes",
          "type": "string"
        },
        {
          "indexed": true,
          "internalType": "address",
          "name": "endorser",
          "type": "address"
        },
        {
          "indexed": true,
          "internalType": "address",
          "name": "initiator",
          "type": "address"
        }
      ],
      "name": "RequestChange",
      "type": "event"
    },
    {
      "constant": true,
      "inputs": [],
      "name": "getAllWKHashes",
      "outputs": [
        {
          "internalType": "string[]",
          "name": "",
          "type": "string[]"
        }
      ],
      "payable": false,
      "stateMutability": "view",
      "type": "function"
    },
    {
      "constant": false,
      "inputs": [
        {
          "internalType": "string",
          "name": "_hash",
          "type": "string"
        },
        {
          "internalType": "string",
          "name": "x",
          "type": "string"
        }
      ],
      "name": "sendHash",
      "outputs": [],
      "payable": false,
      "stateMutability": "nonpayable",
      "type": "function"
    },
    {
      "constant": true,
      "inputs": [
        {
          "internalType": "string",
          "name": "_hash",
          "type": "string"
        }
      ],
      "name": "getHash",
      "outputs": [
        {
          "internalType": "string",
          "name": "x",
          "type": "string"
        }
      ],
      "payable": false,
      "stateMutability": "view",
      "type": "function"
    },
    {
      "constant": true,
      "inputs": [
        {
          "internalType": "string",
          "name": "_hash",
          "type": "string"
        }
      ],
      "name": "getChangeArgs",
      "outputs": [
        {
          "internalType": "string",
          "name": "reqHash",
          "type": "string"
        },
        {
          "internalType": "uint256",
          "name": "ChangeValue",
          "type": "uint256"
        },
        {
          "internalType": "uint256",
          "name": "WKFValue",
          "type": "uint256"
        },
        {
          "internalType": "string",
          "name": "Test",
          "type": "string"
        },
        {
          "internalType": "uint256[]",
          "name": "ChangeEndorsement",
          "type": "uint256[]"
        }
      ],
      "payable": false,
      "stateMutability": "view",
      "type": "function"
    },
    {
      "constant": true,
      "inputs": [
        {
          "internalType": "string",
          "name": "_hash",
          "type": "string"
        }
      ],
      "name": "getChangeValue",
      "outputs": [
        {
          "internalType": "uint256",
          "name": "",
          "type": "uint256"
        }
      ],
      "payable": false,
      "stateMutability": "view",
      "type": "function"
    },
    {
      "constant": true,
      "inputs": [
        {
          "internalType": "string",
          "name": "_hash",
          "type": "string"
        }
      ],
      "name": "getWKFValue",
      "outputs": [
        {
          "internalType": "uint256",
          "name": "",
          "type": "uint256"
        }
      ],
      "payable": false,
      "stateMutability": "view",
      "type": "function"
    },
    {
      "constant": true,
      "inputs": [
        {
          "internalType": "string",
          "name": "_hash",
          "type": "string"
        }
      ],
      "name": "getChangeEndorsement",
      "outputs": [
        {
          "internalType": "uint256[]",
          "name": "",
          "type": "uint256[]"
        }
      ],
      "payable": false,
      "stateMutability": "view",
      "type": "function"
    },
    {
      "constant": true,
      "inputs": [],
      "name": "getTest",
      "outputs": [
        {
          "internalType": "string",
          "name": "",
          "type": "string"
        }
      ],
      "payable": false,
      "stateMutability": "view",
      "type": "function"
    },
    {
      "constant": true,
      "inputs": [
        {
          "internalType": "string",
          "name": "_hash",
          "type": "string"
        }
      ],
      "name": "getWorkflowName",
      "outputs": [
        {
          "internalType": "string",
          "name": "",
          "type": "string"
        }
      ],
      "payable": false,
      "stateMutability": "view",
      "type": "function"
    },
    {
      "constant": true,
      "inputs": [
        {
          "internalType": "string",
          "name": "_hash",
          "type": "string"
        },
        {
          "internalType": "uint256",
          "name": "activityId",
          "type": "uint256"
        }
      ],
      "name": "getCanExecuteCheck",
      "outputs": [
        {
          "internalType": "uint32",
          "name": "",
          "type": "uint32"
        }
      ],
      "payable": false,
      "stateMutability": "view",
      "type": "function"
    },
    {
      "constant": true,
      "inputs": [
        {
          "internalType": "string",
          "name": "_hash",
          "type": "string"
        },
        {
          "internalType": "uint256",
          "name": "activityId",
          "type": "uint256"
        }
      ],
      "name": "getStatus",
      "outputs": [
        {
          "internalType": "uint256",
          "name": "",
          "type": "uint256"
        }
      ],
      "payable": false,
      "stateMutability": "view",
      "type": "function"
    },
    {
      "constant": true,
      "inputs": [
        {
          "internalType": "string",
          "name": "_hash",
          "type": "string"
        }
      ],
      "name": "getWkfLength",
      "outputs": [
        {
          "internalType": "uint256",
          "name": "",
          "type": "uint256"
        }
      ],
      "payable": false,
      "stateMutability": "view",
      "type": "function"
    },
    {
      "constant": true,
      "inputs": [
        {
          "internalType": "string",
          "name": "_hash",
          "type": "string"
        }
      ],
      "name": "getIncluded",
      "outputs": [
        {
          "internalType": "uint256[]",
          "name": "",
          "type": "uint256[]"
        }
      ],
      "payable": false,
      "stateMutability": "view",
      "type": "function"
    },
    {
      "constant": true,
      "inputs": [
        {
          "internalType": "string",
          "name": "_hash",
          "type": "string"
        }
      ],
      "name": "getExecuted",
      "outputs": [
        {
          "internalType": "uint256[]",
          "name": "",
          "type": "uint256[]"
        }
      ],
      "payable": false,
      "stateMutability": "view",
      "type": "function"
    },
    {
      "constant": true,
      "inputs": [
        {
          "internalType": "string",
          "name": "_hash",
          "type": "string"
        }
      ],
      "name": "getPending",
      "outputs": [
        {
          "internalType": "uint256[]",
          "name": "",
          "type": "uint256[]"
        }
      ],
      "payable": false,
      "stateMutability": "view",
      "type": "function"
    },
    {
      "constant": true,
      "inputs": [
        {
          "internalType": "string",
          "name": "_hash",
          "type": "string"
        }
      ],
      "name": "getConditionsFrom",
      "outputs": [
        {
          "internalType": "uint256[][]",
          "name": "",
          "type": "uint256[][]"
        }
      ],
      "payable": false,
      "stateMutability": "view",
      "type": "function"
    },
    {
      "constant": true,
      "inputs": [
        {
          "internalType": "string",
          "name": "_hash",
          "type": "string"
        }
      ],
      "name": "getHashes",
      "outputs": [
        {
          "internalType": "bytes[]",
          "name": "",
          "type": "bytes[]"
        }
      ],
      "payable": false,
      "stateMutability": "view",
      "type": "function"
    },
    {
      "constant": true,
      "inputs": [
        {
          "internalType": "string",
          "name": "_hash",
          "type": "string"
        },
        {
          "internalType": "uint256",
          "name": "activityId",
          "type": "uint256"
        }
      ],
      "name": "getActivityName",
      "outputs": [
        {
          "internalType": "string",
          "name": "",
          "type": "string"
        }
      ],
      "payable": false,
      "stateMutability": "view",
      "type": "function"
    },
    {
      "constant": true,
      "inputs": [
        {
          "internalType": "string",
          "name": "_hash",
          "type": "string"
        },
        {
          "internalType": "uint256",
          "name": "activityId",
          "type": "uint256"
        }
      ],
      "name": "getRoleAddresses",
      "outputs": [
        {
          "internalType": "address",
          "name": "",
          "type": "address"
        }
      ],
      "payable": false,
      "stateMutability": "view",
      "type": "function"
    },
    {
      "constant": true,
      "inputs": [
        {
          "internalType": "string",
          "name": "_hash",
          "type": "string"
        }
      ],
      "name": "getAddresses",
      "outputs": [
        {
          "internalType": "address[]",
          "name": "",
          "type": "address[]"
        }
      ],
      "payable": false,
      "stateMutability": "view",
      "type": "function"
    },
    {
      "constant": false,
      "inputs": [
        {
          "internalType": "address",
          "name": "myAddress",
          "type": "address"
        },
        {
          "internalType": "address[]",
          "name": "toNotify",
          "type": "address[]"
        },
        {
          "internalType": "string",
          "name": "_hashes",
          "type": "string"
        },
        {
          "internalType": "string",
          "name": "curr_hash",
          "type": "string"
        },
        {
          "internalType": "string",
          "name": "req_hash",
          "type": "string"
        }
      ],
      "name": "requestChange",
      "outputs": [],
      "payable": true,
      "stateMutability": "payable",
      "type": "function"
    },
    {
      "constant": false,
      "inputs": [
        {
          "internalType": "address",
          "name": "myAddress",
          "type": "address"
        },
        {
          "internalType": "address[]",
          "name": "myAddresses",
          "type": "address[]"
        },
        {
          "internalType": "string",
          "name": "myHash",
          "type": "string"
        },
        {
          "internalType": "uint256",
          "name": "myDecision",
          "type": "uint256"
        }
      ],
      "name": "updateTableOnAddress",
      "outputs": [],
      "payable": true,
      "stateMutability": "payable",
      "type": "function"
    },
    {
      "constant": false,
      "inputs": [
        {
          "internalType": "string",
          "name": "myHash",
          "type": "string"
        }
      ],
      "name": "finalApprovalManager",
      "outputs": [],
      "payable": true,
      "stateMutability": "payable",
      "type": "function"
    },
    {
      "constant": false,
      "inputs": [
        {
          "internalType": "string",
          "name": "curr_hash",
          "type": "string"
        },
        {
          "internalType": "string",
          "name": "req_hash",
          "type": "string"
        },
        {
          "internalType": "uint256",
          "name": "rsp",
          "type": "uint256"
        }
      ],
      "name": "endorserRSP",
      "outputs": [
        {
          "internalType": "string",
          "name": "",
          "type": "string"
        }
      ],
      "payable": true,
      "stateMutability": "payable",
      "type": "function"
    },
    {
      "constant": false,
      "inputs": [
        {
          "internalType": "string",
          "name": "_hash",
          "type": "string"
        },
        {
          "internalType": "address",
          "name": "myAddress",
          "type": "address"
        }
      ],
      "name": "fetchPublicView",
      "outputs": [
        {
          "internalType": "string",
          "name": "",
          "type": "string"
        }
      ],
      "payable": true,
      "stateMutability": "payable",
      "type": "function"
    },
    {
      "constant": true,
      "inputs": [
        {
          "internalType": "string",
          "name": "_hash",
          "type": "string"
        }
      ],
      "name": "getApprovalsOutcome",
      "outputs": [
        {
          "internalType": "uint256[]",
          "name": "",
          "type": "uint256[]"
        }
      ],
      "payable": false,
      "stateMutability": "view",
      "type": "function"
    },
    {
      "constant": true,
      "inputs": [
        {
          "internalType": "string",
          "name": "_hash",
          "type": "string"
        },
        {
          "internalType": "address",
          "name": "myAddress",
          "type": "address"
        }
      ],
      "name": "hasApproved",
      "outputs": [
        {
          "internalType": "uint256",
          "name": "",
          "type": "uint256"
        }
      ],
      "payable": false,
      "stateMutability": "view",
      "type": "function"
    },
    {
      "constant": false,
      "inputs": [
        {
          "internalType": "string",
          "name": "_hash",
          "type": "string"
        },
        {
          "internalType": "address",
          "name": "myAddress",
          "type": "address"
        }
      ],
      "name": "confirmProjection",
      "outputs": [
        {
          "internalType": "uint256[]",
          "name": "",
          "type": "uint256[]"
        }
      ],
      "payable": true,
      "stateMutability": "payable",
      "type": "function"
    },
    {
      "constant": false,
      "inputs": [
        {
          "internalType": "string",
          "name": "_hash",
          "type": "string"
        },
        {
          "internalType": "uint256",
          "name": "activityId",
          "type": "uint256"
        },
        {
          "internalType": "address",
          "name": "msgSender",
          "type": "address"
        }
      ],
      "name": "canExecute",
      "outputs": [
        {
          "internalType": "bool",
          "name": "",
          "type": "bool"
        }
      ],
      "payable": false,
      "stateMutability": "nonpayable",
      "type": "function"
    },
    {
      "constant": false,
      "inputs": [
        {
          "internalType": "string",
          "name": "_hash",
          "type": "string"
        },
        {
          "internalType": "uint256",
          "name": "activityId",
          "type": "uint256"
        }
      ],
      "name": "checkCliquedIndex",
      "outputs": [],
      "payable": false,
      "stateMutability": "nonpayable",
      "type": "function"
    },
    {
      "constant": false,
      "inputs": [
        {
          "internalType": "uint256[][]",
          "name": "markingStates",
          "type": "uint256[][]"
        },
        {
          "internalType": "string",
          "name": "_ipfsViewHash",
          "type": "string"
        },
        {
          "internalType": "address[]",
          "name": "_roleAddresses",
          "type": "address[]"
        },
        {
          "internalType": "address[]",
          "name": "_approvalAddresses",
          "type": "address[]"
        },
        {
          "internalType": "string[]",
          "name": "_activityNames",
          "type": "string[]"
        },
        {
          "internalType": "string",
          "name": "_name",
          "type": "string"
        },
        {
          "internalType": "uint256[][][]",
          "name": "_relations",
          "type": "uint256[][][]"
        }
      ],
      "name": "uploadPublicView",
      "outputs": [],
      "payable": true,
      "stateMutability": "payable",
      "type": "function"
    }
  ],
  "bytecode": "0x60806040526040518060400160405280600481526020017f696e697400000000000000000000000000000000000000000000000000000000815250600090805190602001906200005192919062000066565b503480156200005f57600080fd5b5062000115565b828054600181600116156101000203166002900490600052602060002090601f016020900481019282601f10620000a957805160ff1916838001178555620000da565b82800160010185558215620000da579182015b82811115620000d9578251825591602001919060010190620000bc565b5b509050620000e99190620000ed565b5090565b6200011291905b808211156200010e576000816000905550600101620000f4565b5090565b90565b61543c80620001256000396000f3fe6080604052600436106101d85760003560e01c80636cb4e34511610102578063a158e4b011610095578063d2fbf94811610064578063d2fbf94814610788578063e9b2b886146107c9578063ee69739d14610806578063f89a3b1014610822576101d8565b8063a158e4b0146106db578063a8cd0a80146106f7578063cb2c951414610722578063cb89cdfd1461074b576101d8565b806385e0efc0116100d157806385e0efc014610615578063895d7d64146106315780638dce7dde146106615780639694f9fb1461069e576101d8565b80636cb4e345146105425780636d1beb8f1461057f5780636f384bfc146105bc578063827f9511146105d8576101d8565b806339b64c301161017a5780636342b1c2116101495780636342b1c21461044e578063671ef9a61461048b5780636a554342146104c85780636b9884dc14610505576101d8565b806339b64c301461035a57806342b759fc146103975780634e894b32146103d45780635b6beeb914610411576101d8565b806318008e57116101b657806318008e57146102735780631fe1317b146102a35780632c3c0f9c146102e057806336a0c0851461031d576101d8565b806302413fd4146101dd5780630c48ae991461021a5780630ce3602414610243575b600080fd5b3480156101e957600080fd5b5061020460048036036101ff91908101906144df565b61084d565b6040516102119190614dec565b60405180910390f35b34801561022657600080fd5b50610241600480360361023c9190810190614574565b6108c9565b005b61025d60048036036102589190810190614520565b610903565b60405161026a9190614dec565b60405180910390f35b61028d60048036036102889190810190614520565b610c44565b60405161029a9190614e29565b60405180910390f35b3480156102af57600080fd5b506102ca60048036036102c591908101906144df565b610ec0565b6040516102d79190614f7f565b60405180910390f35b3480156102ec57600080fd5b50610307600480360361030291908101906146b3565b610f04565b6040516103149190614e0e565b60405180910390f35b34801561032957600080fd5b50610344600480360361033f91908101906144df565b61148c565b6040516103519190614f7f565b60405180910390f35b34801561036657600080fd5b50610381600480360361037c91908101906144df565b6114cf565b60405161038e9190614d64565b60405180910390f35b3480156103a357600080fd5b506103be60048036036103b9919081019061465f565b61157e565b6040516103cb9190614f7f565b60405180910390f35b3480156103e057600080fd5b506103fb60048036036103f691908101906144df565b6115ad565b6040516104089190614d86565b60405180910390f35b34801561041d57600080fd5b50610438600480360361043391908101906144df565b611683565b6040516104459190614e29565b60405180910390f35b34801561045a57600080fd5b50610475600480360361047091908101906144df565b611746565b6040516104829190614dec565b60405180910390f35b34801561049757600080fd5b506104b260048036036104ad91908101906144df565b6117c2565b6040516104bf9190614dec565b60405180910390f35b3480156104d457600080fd5b506104ef60048036036104ea919081019061465f565b61183b565b6040516104fc9190614e29565b60405180910390f35b34801561051157600080fd5b5061052c6004803603610527919081019061465f565b611914565b6040516105399190614f9a565b60405180910390f35b34801561054e57600080fd5b5061056960048036036105649190810190614520565b611953565b6040516105769190614f7f565b60405180910390f35b34801561058b57600080fd5b506105a660048036036105a191908101906144df565b611a76565b6040516105b39190614f7f565b60405180910390f35b6105d660048036036105d19190810190614399565b611ab9565b005b3480156105e457600080fd5b506105ff60048036036105fa919081019061465f565b6120f1565b60405161060c9190614d49565b60405180910390f35b61062f600480360361062a9190810190614306565b612152565b005b61064b600480360361064691908101906145e0565b6121f8565b6040516106589190614e29565b60405180910390f35b34801561066d57600080fd5b50610688600480360361068391908101906144df565b612590565b6040516106959190614e29565b60405180910390f35b3480156106aa57600080fd5b506106c560048036036106c091908101906144df565b612653565b6040516106d29190614da8565b60405180910390f35b6106f560048036036106f091908101906144df565b61275d565b005b34801561070357600080fd5b5061070c612902565b6040516107199190614e29565b60405180910390f35b34801561072e57600080fd5b506107496004803603610744919081019061465f565b6129a4565b005b34801561075757600080fd5b50610772600480360361076d91908101906144df565b612f2a565b60405161077f9190614dec565b60405180910390f35b34801561079457600080fd5b506107af60048036036107aa91908101906144df565b612fa6565b6040516107c0959493929190614eb5565b60405180910390f35b3480156107d557600080fd5b506107f060048036036107eb91908101906144df565b613203565b6040516107fd9190614dec565b60405180910390f35b610820600480360361081b919081019061422f565b61327c565b005b34801561082e57600080fd5b506108376135f4565b6040516108449190614dca565b60405180910390f35b606060028260405161085f9190614d32565b90815260200160405180910390206003016000018054806020026020016040519081016040528092919081815260200182805480156108bd57602002820191906000526020600020905b8154815260200190600101908083116108a9575b50505050509050919050565b806002836040516108da9190614d32565b908152602001604051809103902060020190805190602001906108fe9291906136dd565b505050565b60603373ffffffffffffffffffffffffffffffffffffffff168273ffffffffffffffffffffffffffffffffffffffff1614610973576040517f08c379a000000000000000000000000000000000000000000000000000000000815260040161096a90614f3f565b60405180910390fd5b60008090505b6002846040516109899190614d32565b9081526020016040518091039020600b0180549050811015610bca576002846040516109b59190614d32565b9081526020016040518091039020600b0181815481106109d157fe5b9060005260206000200160009054906101000a900473ffffffffffffffffffffffffffffffffffffffff1673ffffffffffffffffffffffffffffffffffffffff168373ffffffffffffffffffffffffffffffffffffffff16148015610a6c57506001600285604051610a439190614d32565b9081526020016040518091039020600d018281548110610a5f57fe5b9060005260206000200154145b15610bbd576001600285604051610a839190614d32565b9081526020016040518091039020600c018281548110610a9f57fe5b906000526020600020015414610bbc576001600285604051610ac19190614d32565b9081526020016040518091039020600c018281548110610add57fe5b90600052602060002001819055508273ffffffffffffffffffffffffffffffffffffffff1684604051610b109190614d32565b60405180910390207fef93748ef353323feced9a53b1f9433297bf50235a9d5aa97783d3f30d4682e460405160405180910390a3600284604051610b549190614d32565b9081526020016040518091039020600c01805480602002602001604051908101604052809291908181526020018280548015610baf57602002820191906000526020600020905b815481526020019060010190808311610b9b575b5050505050915050610c3e565b5b8080600101915050610979565b50600283604051610bdb9190614d32565b9081526020016040518091039020600c01805480602002602001604051908101604052809291908181526020018280548015610c3657602002820191906000526020600020905b815481526020019060010190808311610c22575b505050505090505b92915050565b60608173ffffffffffffffffffffffffffffffffffffffff163373ffffffffffffffffffffffffffffffffffffffff1614610cb4576040517f08c379a0000000000000000000000000000000000000000000000000000000008152600401610cab90614f5f565b60405180910390fd5b60008090505b600284604051610cca9190614d32565b9081526020016040518091039020600b0180549050811015610dfd57600284604051610cf69190614d32565b9081526020016040518091039020600b018181548110610d1257fe5b9060005260206000200160009054906101000a900473ffffffffffffffffffffffffffffffffffffffff1673ffffffffffffffffffffffffffffffffffffffff168373ffffffffffffffffffffffffffffffffffffffff16148015610dae57506001600285604051610d849190614d32565b9081526020016040518091039020600d018281548110610da057fe5b906000526020600020015414155b15610df0576001600285604051610dc59190614d32565b9081526020016040518091039020600d018281548110610de157fe5b90600052602060002001819055505b8080600101915050610cba565b50600283604051610e0e9190614d32565b90815260200160405180910390206002018054600181600116156101000203166002900480601f016020809104026020016040519081016040528092919081815260200182805460018160011615610100020316600290048015610eb35780601f10610e8857610100808354040283529160200191610eb3565b820191906000526020600020905b815481529060010190602001808311610e9657829003601f168201915b5050505050905092915050565b6000600282604051610ed29190614d32565b9081526020016040518091039020600a01600081548110610eef57fe5b90600052602060002001805490509050919050565b6000600284604051610f169190614d32565b90815260200160405180910390206006018381548110610f3257fe5b9060005260206000200160009054906101000a900473ffffffffffffffffffffffffffffffffffffffff1673ffffffffffffffffffffffffffffffffffffffff168273ffffffffffffffffffffffffffffffffffffffff1614610fdc576004600285604051610fa19190614d32565b9081526020016040518091039020600e0160000160006101000a81548163ffffffff021916908363ffffffff16021790555060009050611485565b6000600285604051610fee9190614d32565b9081526020016040518091039020600301600001848154811061100d57fe5b9060005260206000200154141561106b5760016002856040516110309190614d32565b9081526020016040518091039020600e0160000160006101000a81548163ffffffff021916908363ffffffff16021790555060009050611485565b60008090505b6002856040516110819190614d32565b9081526020016040518091039020600a0160038154811061109e57fe5b90600052602060002001805490508110156112525760606002866040516110c59190614d32565b9081526020016040518091039020600a016003815481106110e257fe5b9060005260206000200182815481106110f757fe5b9060005260206000200180548060200260200160405190810160405280929190818152602001828054801561114b57602002820191906000526020600020905b815481526020019060010190808311611137575b50505050509050600181868151811061116057fe5b602002602001015114156112445760006002876040516111809190614d32565b9081526020016040518091039020600301600101838154811061119f57fe5b90600052602060002001541480156111f0575060016002876040516111c49190614d32565b908152602001604051809103902060030160000183815481106111e357fe5b9060005260206000200154145b1561124357600280876040516112069190614d32565b9081526020016040518091039020600e0160000160006101000a81548163ffffffff021916908363ffffffff160217905550600092505050611485565b5b508080600101915050611071565b5060008090505b6002856040516112699190614d32565b9081526020016040518091039020600a0160048154811061128657fe5b906000526020600020018054905081101561143b5760606002866040516112ad9190614d32565b9081526020016040518091039020600a016004815481106112ca57fe5b9060005260206000200182815481106112df57fe5b9060005260206000200180548060200260200160405190810160405280929190818152602001828054801561133357602002820191906000526020600020905b81548152602001906001019080831161131f575b50505050509050600181868151811061134857fe5b6020026020010151141561142d5760016002876040516113689190614d32565b9081526020016040518091039020600301600201838154811061138757fe5b90600052602060002001541480156113d8575060016002876040516113ac9190614d32565b908152602001604051809103902060030160000183815481106113cb57fe5b9060005260206000200154145b1561142c5760036002876040516113ef9190614d32565b9081526020016040518091039020600e0160000160006101000a81548163ffffffff021916908363ffffffff160217905550600092505050611485565b5b508080600101915050611259565b50600060028560405161144e9190614d32565b9081526020016040518091039020600e0160000160006101000a81548163ffffffff021916908363ffffffff160217905550600190505b9392505050565b600060028260405161149e9190614d32565b908152602001604051809103902060010160009054906101000a900460ff1660038111156114c857fe5b9050919050565b60606002826040516114e19190614d32565b9081526020016040518091039020600b0180548060200260200160405190810160405280929190818152602001828054801561157257602002820191906000526020600020905b8160009054906101000a900473ffffffffffffffffffffffffffffffffffffffff1673ffffffffffffffffffffffffffffffffffffffff1681526020019060010190808311611528575b50505050509050919050565b60006002836040516115909190614d32565b9081526020016040518091039020600e0160010154905092915050565b60606002826040516115bf9190614d32565b9081526020016040518091039020600a016003815481106115dc57fe5b90600052602060002001805480602002602001604051908101604052809291908181526020016000905b828210156116785783829060005260206000200180548060200260200160405190810160405280929190818152602001828054801561166457602002820191906000526020600020905b815481526020019060010190808311611650575b505050505081526020019060010190611606565b505050509050919050565b60606002826040516116959190614d32565b90815260200160405180910390206002018054600181600116156101000203166002900480601f01602080910402602001604051908101604052809291908181526020018280546001816001161561010002031660029004801561173a5780601f1061170f5761010080835404028352916020019161173a565b820191906000526020600020905b81548152906001019060200180831161171d57829003601f168201915b50505050509050919050565b60606002826040516117589190614d32565b90815260200160405180910390206003016001018054806020026020016040519081016040528092919081815260200182805480156117b657602002820191906000526020600020905b8154815260200190600101908083116117a2575b50505050509050919050565b60606003826040516117d49190614d32565b908152602001604051809103902060050180548060200260200160405190810160405280929190818152602001828054801561182f57602002820191906000526020600020905b81548152602001906001019080831161181b575b50505050509050919050565b606060028360405161184d9190614d32565b9081526020016040518091039020600701828154811061186957fe5b906000526020600020018054600181600116156101000203166002900480601f0160208091040260200160405190810160405280929190818152602001828054600181600116156101000203166002900480156119075780601f106118dc57610100808354040283529160200191611907565b820191906000526020600020905b8154815290600101906020018083116118ea57829003601f168201915b5050505050905092915050565b60006002836040516119269190614d32565b9081526020016040518091039020600e0160000160009054906101000a900463ffffffff16905092915050565b600080600090505b60028460405161196b9190614d32565b9081526020016040518091039020600b0180549050811015611a6a576002846040516119979190614d32565b9081526020016040518091039020600b0181815481106119b357fe5b9060005260206000200160009054906101000a900473ffffffffffffffffffffffffffffffffffffffff1673ffffffffffffffffffffffffffffffffffffffff168373ffffffffffffffffffffffffffffffffffffffff16148015611a4e57506001600285604051611a259190614d32565b9081526020016040518091039020600c018281548110611a4157fe5b9060005260206000200154145b15611a5d576001915050611a70565b808060010191505061195b565b50600090505b92915050565b6000600382604051611a889190614d32565b908152602001604051809103902060020160009054906101000a900460ff166003811115611ab257fe5b9050919050565b611ac161375d565b6040518060400160405280600063ffffffff16815260200160008152509050611ae861377d565b60405180606001604052808a600081518110611b0057fe5b602002602001015181526020018a600181518110611b1a57fe5b602002602001015181526020018a600281518110611b3457fe5b60200260200101518152509050611b4961379e565b604051806101a00160405280868152602001600380811115611b6757fe5b81526020018a81526020018381526020018981526020018781526020018b600081518110611b9157fe5b602002602001015151604051908082528060200260200182016040528015611bcd57816020015b6060815260200190600190039081611bb85790505b5081526020018b600081518110611be057fe5b60200260200101515181526020018581526020018881526020018851604051908082528060200260200182016040528015611c2a5781602001602082028038833980820191505090505b5081526020018851604051908082528060200260200182016040528015611c605781602001602082028038833980820191505090505b5081526020018481525090508060028a604051611c7d9190614d32565b90815260200160405180910390206000820151816000019080519060200190611ca792919061381d565b5060208201518160010160006101000a81548160ff02191690836003811115611ccc57fe5b02179055506040820151816002019080519060200190611ced92919061381d565b506060820151816003016000820151816000019080519060200190611d1392919061389d565b506020820151816001019080519060200190611d3092919061389d565b506040820151816002019080519060200190611d4d92919061389d565b5050506080820151816006019080519060200190611d6c9291906138ea565b5060a0820151816007019080519060200190611d89929190613974565b5060c0820151816008019080519060200190611da69291906139d4565b5060e0820151816009015561010082015181600a019080519060200190611dce929190613a34565b5061012082015181600b019080519060200190611dec9291906138ea565b5061014082015181600c019080519060200190611e0a92919061389d565b5061016082015181600d019080519060200190611e2892919061389d565b5061018082015181600e0160008201518160000160006101000a81548163ffffffff021916908363ffffffff1602179055506020820151816001015550509050506001899080600181540180825580915050906001820390600052602060002001600090919290919091509080519060200190611ea69291906136dd565b5050611eb0613a94565b6040518060e001604052808b8152602001604051806020016040528060008152508152602001600380811115611ee257fe5b8152602001600073ffffffffffffffffffffffffffffffffffffffff168152602001600081526020018951604051908082528060200260200182016040528015611f3b5781602001602082028038833980820191505090505b5081526020018951604051908082528060200260200182016040528015611f715781602001602082028038833980820191505090505b5081525090508060038b604051611f889190614d32565b90815260200160405180910390206000820151816000019080519060200190611fb292919061381d565b506020820151816001019080519060200190611fcf92919061381d565b5060408201518160020160006101000a81548160ff02191690836003811115611ff457fe5b021790555060608201518160020160016101000a81548173ffffffffffffffffffffffffffffffffffffffff021916908373ffffffffffffffffffffffffffffffffffffffff1602179055506080820151816003015560a08201518160040190805190602001906120669291906138ea565b5060c082015181600501908051906020019061208392919061389d565b509050503373ffffffffffffffffffffffffffffffffffffffff1682604001516040516120b09190614d1b565b60405180910390207fc42dc8c6712875975b09ece703779e4ed83179500da5c8776b1eab681e04c7fa60405160405180910390a35050505050505050505050565b60006002836040516121039190614d32565b9081526020016040518091039020600601828154811061211f57fe5b9060005260206000200160009054906101000a900473ffffffffffffffffffffffffffffffffffffffff16905092915050565b60008090505b83518110156121f15783818151811061216d57fe5b602002602001015173ffffffffffffffffffffffffffffffffffffffff168573ffffffffffffffffffffffffffffffffffffffff1614156121e457816003846040516121b99190614d32565b908152602001604051809103902060050182815481106121d557fe5b90600052602060002001819055505b8080600101915050612158565b5050505050565b60606002600381111561220757fe5b6003856040516122179190614d32565b908152602001604051809103902060020160009054906101000a900460ff16600381111561224157fe5b141561256d576040518060400160405280600c81526020017f656e746572696e674e6f64650000000000000000000000000000000000000000815250600090805190602001906122929291906136dd565b5060018214156123f65761234e336003866040516122b09190614d32565b908152602001604051809103902060040180548060200260200160405190810160405280929190818152602001828054801561234157602002820191906000526020600020905b8160009054906101000a900473ffffffffffffffffffffffffffffffffffffffff1673ffffffffffffffffffffffffffffffffffffffff16815260200190600101908083116122f7575b5050505050866001612152565b6040518060400160405280601681526020017f617070726f766564206279206f6e6520706572736f6e00000000000000000000815250600090805190602001906123999291906136dd565b503373ffffffffffffffffffffffffffffffffffffffff167fe9c7cbf4a3feb2b50db16225158a7170e01af4e7a4b2d243eeec352242dffdfd846040516123e09190614e29565b60405180910390a26123f18461275d565b612530565b60028214156124e0576040518060400160405280600881526020017f6465636c696e65640000000000000000000000000000000000000000000000008152506000908051906020019061244a9291906136dd565b506003808560405161245c9190614d32565b908152602001604051809103902060020160006101000a81548160ff0219169083600381111561248857fe5b02179055503373ffffffffffffffffffffffffffffffffffffffff167f1592b7870c0c0627d9de8a8794012705b34a6640c1456b714a685eb5cc987c33846040516124d39190614e29565b60405180910390a261252f565b3373ffffffffffffffffffffffffffffffffffffffff167fc4f2afae15f3e7da4e4f139081d67f69ef9f4c3736a6649eb2fa185377130315846040516125269190614e80565b60405180910390a25b5b6040518060400160405280600d81526020017f5253502070726f636573736564000000000000000000000000000000000000008152509050612589565b6040518060600160405280602c81526020016153ce602c913990505b9392505050565b60606002826040516125a29190614d32565b90815260200160405180910390206000018054600181600116156101000203166002900480601f0160208091040260200160405190810160405280929190818152602001828054600181600116156101000203166002900480156126475780601f1061261c57610100808354040283529160200191612647565b820191906000526020600020905b81548152906001019060200180831161262a57829003601f168201915b50505050509050919050565b60606002826040516126659190614d32565b9081526020016040518091039020600801805480602002602001604051908101604052809291908181526020016000905b82821015612752578382906000526020600020018054600181600116156101000203166002900480601f01602080910402602001604051908101604052809291908181526020018280546001816001161561010002031660029004801561273e5780601f106127135761010080835404028352916020019161273e565b820191906000526020600020905b81548152906001019060200180831161272157829003601f168201915b505050505081526020019060010190612696565b505050509050919050565b60006001905060008090505b6003836040516127799190614d32565b9081526020016040518091039020600401805490508110156127e85760016003846040516127a79190614d32565b908152602001604051809103902060050182815481106127c357fe5b906000526020600020015414156127db576001820191505b8080600101915050612769565b506003826040516127f99190614d32565b9081526020016040518091039020600301548114156128fe576040518060400160405280601981526020017f617070726f76656420627920616c6c20656e646f7273657273000000000000008152506000908051906020019061285d9291906136dd565b5060038081111561286a57fe5b60038360405161287a9190614d32565b908152602001604051809103902060020160009054906101000a900460ff1660038111156128a457fe5b50507fd2a535afc7065ca5ca78e1cbe51c4ab92413202d78b070b01df38363ac20363d6003836040516128d79190614d32565b90815260200160405180910390206001016040516128f59190614f1d565b60405180910390a15b5050565b606060008054600181600116156101000203166002900480601f01602080910402602001604051908101604052809291908181526020018280546001816001161561010002031660029004801561299a5780601f1061296f5761010080835404028352916020019161299a565b820191906000526020600020905b81548152906001019060200180831161297d57829003601f168201915b5050505050905090565b6129af828233610f04565b6129e25760016002836040516129c59190614d32565b9081526020016040518091039020600e0160010181905550612f26565b60016002836040516129f49190614d32565b90815260200160405180910390206003016001018281548110612a1357fe5b90600052602060002001819055506000600283604051612a339190614d32565b90815260200160405180910390206003016002018281548110612a5257fe5b90600052602060002001819055506060600283604051612a729190614d32565b9081526020016040518091039020600a01600181548110612a8f57fe5b906000526020600020018281548110612aa457fe5b90600052602060002001805480602002602001604051908101604052809291908181526020018280548015612af857602002820191906000526020600020905b815481526020019060010190808311612ae4575b505050505090506060600284604051612b119190614d32565b9081526020016040518091039020600a01600281548110612b2e57fe5b906000526020600020018381548110612b4357fe5b90600052602060002001805480602002602001604051908101604052809291908181526020018280548015612b9757602002820191906000526020600020905b815481526020019060010190808311612b83575b505050505090506060600285604051612bb09190614d32565b9081526020016040518091039020600a01600081548110612bcd57fe5b906000526020600020018481548110612be257fe5b90600052602060002001805480602002602001604051908101604052809291908181526020018280548015612c3657602002820191906000526020600020905b815481526020019060010190808311612c22575b505050505090506060600286604051612c4f9190614d32565b9081526020016040518091039020600a01600381548110612c6c57fe5b906000526020600020018581548110612c8157fe5b90600052602060002001805480602002602001604051908101604052809291908181526020018280548015612cd557602002820191906000526020600020905b815481526020019060010190808311612cc1575b5050505050905060008090505b8151811015612d2f576001828281518110612cf957fe5b60200260200101511415612d22576001838281518110612d1557fe5b6020026020010181815250505b8080600101915050612ce2565b5060008090505b600287604051612d469190614d32565b9081526020016040518091039020600a01600181548110612d6357fe5b9060005260206000200180549050811015612e9c576001858281518110612d8657fe5b602002602001015114158015612daf57506001838281518110612da557fe5b6020026020010151145b15612df4576001600288604051612dc69190614d32565b90815260200160405180910390206003016000018281548110612de557fe5b90600052602060002001819055505b6001848281518110612e0257fe5b60200260200101511415612e8f576001600288604051612e229190614d32565b90815260200160405180910390206003016002018281548110612e4157fe5b90600052602060002001819055506001600288604051612e619190614d32565b90815260200160405180910390206003016000018281548110612e8057fe5b90600052602060002001819055505b8080600101915050612d36565b503373ffffffffffffffffffffffffffffffffffffffff168587604051612ec39190614d32565b60405180910390207fdcc419af849b47f6b77090192f4d45ebaef7057509a466bbbce51f396b898c0360405160405180910390a46001600287604051612f099190614d32565b9081526020016040518091039020600e0160010181905550505050505b5050565b6060600282604051612f3c9190614d32565b9081526020016040518091039020600301600201805480602002602001604051908101604052809291908181526020018280548015612f9a57602002820191906000526020600020905b815481526020019060010190808311612f86575b50505050509050919050565b6060600080606080600386604051612fbe9190614d32565b9081526020016040518091039020600101600387604051612fdf9190614d32565b908152602001604051809103902060020160009054906101000a900460ff16600381111561300957fe5b6002886040516130199190614d32565b908152602001604051809103902060010160009054906101000a900460ff16600381111561304357fe5b600060038a6040516130559190614d32565b9081526020016040518091039020600501848054600181600116156101000203166002900480601f0160208091040260200160405190810160405280929190818152602001828054600181600116156101000203166002900480156130fb5780601f106130d0576101008083540402835291602001916130fb565b820191906000526020600020905b8154815290600101906020018083116130de57829003601f168201915b50505050509450818054600181600116156101000203166002900480601f0160208091040260200160405190810160405280929190818152602001828054600181600116156101000203166002900480156131975780601f1061316c57610100808354040283529160200191613197565b820191906000526020600020905b81548152906001019060200180831161317a57829003601f168201915b50505050509150808054806020026020016040519081016040528092919081815260200182805480156131e957602002820191906000526020600020905b8154815260200190600101908083116131d5575b505050505090509450945094509450945091939590929450565b60606002826040516132159190614d32565b9081526020016040518091039020600c0180548060200260200160405190810160405280929190818152602001828054801561327057602002820191906000526020600020905b81548152602001906001019080831161325c575b50505050509050919050565b3373ffffffffffffffffffffffffffffffffffffffff168573ffffffffffffffffffffffffffffffffffffffff16146132ea576040517f08c379a00000000000000000000000000000000000000000000000000000000081526004016132e190614f3f565b60405180910390fd5b6040518060400160405280601b81526020017f6368672072657175657374206265696e672070726f6365737365640000000000815250600090805190602001906133359291906136dd565b5060038081111561334257fe5b6003836040516133529190614d32565b908152602001604051809103902060020160009054906101000a900460ff16600381111561337c57fe5b141561359e576040518060400160405280601581526020017f63686720726571756573742076616c6964617465640000000000000000000000815250600090805190602001906133cd9291906136dd565b5060026003836040516133e09190614d32565b908152602001604051809103902060020160006101000a81548160ff0219169083600381111561340c57fe5b0217905550806003836040516134229190614d32565b908152602001604051809103902060010190805190602001906134469291906136dd565b50846003836040516134589190614d32565b908152602001604051809103902060020160016101000a81548173ffffffffffffffffffffffffffffffffffffffff021916908373ffffffffffffffffffffffffffffffffffffffff16021790555083516003836040516134b99190614d32565b908152602001604051809103902060030181905550836003836040516134df9190614d32565b90815260200160405180910390206004019080519060200190613503929190613af2565b5060008090505b8451811015613598578573ffffffffffffffffffffffffffffffffffffffff1685828151811061353657fe5b602002602001015173ffffffffffffffffffffffffffffffffffffffff167f8dae525cabdde2b20f26998f05e6c504721ba1cea6f7229604cbee3a7267a015866040516135839190614e29565b60405180910390a3808060010191505061350a565b506135ed565b8473ffffffffffffffffffffffffffffffffffffffff167fc4f2afae15f3e7da4e4f139081d67f69ef9f4c3736a6649eb2fa185377130315826040516135e49190614e4b565b60405180910390a25b5050505050565b60606001805480602002602001604051908101604052809291908181526020016000905b828210156136d4578382906000526020600020018054600181600116156101000203166002900480601f0160208091040260200160405190810160405280929190818152602001828054600181600116156101000203166002900480156136c05780601f10613695576101008083540402835291602001916136c0565b820191906000526020600020905b8154815290600101906020018083116136a357829003601f168201915b505050505081526020019060010190613618565b50505050905090565b828054600181600116156101000203166002900490600052602060002090601f016020900481019282601f1061371e57805160ff191683800117855561374c565b8280016001018555821561374c579182015b8281111561374b578251825591602001919060010190613730565b5b5090506137599190613b7c565b5090565b6040518060400160405280600063ffffffff168152602001600081525090565b60405180606001604052806060815260200160608152602001606081525090565b604051806101a0016040528060608152602001600060038111156137be57fe5b8152602001606081526020016137d2613ba1565b81526020016060815260200160608152602001606081526020016000815260200160608152602001606081526020016060815260200160608152602001613817613bc2565b81525090565b828054600181600116156101000203166002900490600052602060002090601f016020900481019282601f1061385e57805160ff191683800117855561388c565b8280016001018555821561388c579182015b8281111561388b578251825591602001919060010190613870565b5b5090506138999190613b7c565b5090565b8280548282559060005260206000209081019282156138d9579160200282015b828111156138d85782518255916020019190600101906138bd565b5b5090506138e69190613b7c565b5090565b828054828255906000526020600020908101928215613963579160200282015b828111156139625782518260006101000a81548173ffffffffffffffffffffffffffffffffffffffff021916908373ffffffffffffffffffffffffffffffffffffffff1602179055509160200191906001019061390a565b5b5090506139709190613be2565b5090565b8280548282559060005260206000209081019282156139c3579160200282015b828111156139c25782518290805190602001906139b292919061381d565b5091602001919060010190613994565b5b5090506139d09190613c25565b5090565b828054828255906000526020600020908101928215613a23579160200282015b82811115613a22578251829080519060200190613a12929190613c51565b50916020019190600101906139f4565b5b509050613a309190613cd1565b5090565b828054828255906000526020600020908101928215613a83579160200282015b82811115613a82578251829080519060200190613a72929190613cfd565b5091602001919060010190613a54565b5b509050613a909190613d5d565b5090565b6040518060e00160405280606081526020016060815260200160006003811115613aba57fe5b8152602001600073ffffffffffffffffffffffffffffffffffffffff1681526020016000815260200160608152602001606081525090565b828054828255906000526020600020908101928215613b6b579160200282015b82811115613b6a5782518260006101000a81548173ffffffffffffffffffffffffffffffffffffffff021916908373ffffffffffffffffffffffffffffffffffffffff16021790555091602001919060010190613b12565b5b509050613b789190613be2565b5090565b613b9e91905b80821115613b9a576000816000905550600101613b82565b5090565b90565b60405180606001604052806060815260200160608152602001606081525090565b6040518060400160405280600063ffffffff168152602001600081525090565b613c2291905b80821115613c1e57600081816101000a81549073ffffffffffffffffffffffffffffffffffffffff021916905550600101613be8565b5090565b90565b613c4e91905b80821115613c4a5760008181613c419190613d89565b50600101613c2b565b5090565b90565b828054600181600116156101000203166002900490600052602060002090601f016020900481019282601f10613c9257805160ff1916838001178555613cc0565b82800160010185558215613cc0579182015b82811115613cbf578251825591602001919060010190613ca4565b5b509050613ccd9190613b7c565b5090565b613cfa91905b80821115613cf65760008181613ced9190613dd1565b50600101613cd7565b5090565b90565b828054828255906000526020600020908101928215613d4c579160200282015b82811115613d4b578251829080519060200190613d3b92919061389d565b5091602001919060010190613d1d565b5b509050613d599190613e19565b5090565b613d8691905b80821115613d825760008181613d799190613e45565b50600101613d63565b5090565b90565b50805460018160011615610100020316600290046000825580601f10613daf5750613dce565b601f016020900490600052602060002090810190613dcd9190613b7c565b5b50565b50805460018160011615610100020316600290046000825580601f10613df75750613e16565b601f016020900490600052602060002090810190613e159190613b7c565b5b50565b613e4291905b80821115613e3e5760008181613e359190613e66565b50600101613e1f565b5090565b90565b5080546000825590600052602060002090810190613e639190613e19565b50565b5080546000825590600052602060002090810190613e849190613b7c565b50565b600081359050613e968161539f565b92915050565b600082601f830112613ead57600080fd5b8135613ec0613ebb82614fe2565b614fb5565b91508181835260208401935060208101905083856020840282011115613ee557600080fd5b60005b83811015613f155781613efb8882613e87565b845260208401935060208301925050600181019050613ee8565b5050505092915050565b600082601f830112613f3057600080fd5b8135613f43613f3e8261500a565b614fb5565b9150818183526020840193506020810190508360005b83811015613f895781358601613f6f8882613f93565b845260208401935060208301925050600181019050613f59565b5050505092915050565b600082601f830112613fa457600080fd5b8135613fb7613fb282615032565b614fb5565b9150818183526020840193506020810190508360005b83811015613ffd5781358601613fe388826140ef565b845260208401935060208301925050600181019050613fcd565b5050505092915050565b600082601f83011261401857600080fd5b813561402b6140268261505a565b614fb5565b9150818183526020840193506020810190508360005b83811015614071578135860161405788826140ef565b845260208401935060208301925050600181019050614041565b5050505092915050565b600082601f83011261408c57600080fd5b813561409f61409a82615082565b614fb5565b9150818183526020840193506020810190508360005b838110156140e557813586016140cb8882614172565b8452602084019350602083019250506001810190506140b5565b5050505092915050565b600082601f83011261410057600080fd5b813561411361410e826150aa565b614fb5565b9150818183526020840193506020810190508385602084028201111561413857600080fd5b60005b83811015614168578161414e888261421a565b84526020840193506020830192505060018101905061413b565b5050505092915050565b600082601f83011261418357600080fd5b8135614196614191826150d2565b614fb5565b915080825260208301602083018583830111156141b257600080fd5b6141bd83828461534c565b50505092915050565b600082601f8301126141d757600080fd5b81356141ea6141e5826150fe565b614fb5565b9150808252602083016020830185838301111561420657600080fd5b61421183828461534c565b50505092915050565b600081359050614229816153b6565b92915050565b600080600080600060a0868803121561424757600080fd5b600061425588828901613e87565b955050602086013567ffffffffffffffff81111561427257600080fd5b61427e88828901613e9c565b945050604086013567ffffffffffffffff81111561429b57600080fd5b6142a7888289016141c6565b935050606086013567ffffffffffffffff8111156142c457600080fd5b6142d0888289016141c6565b925050608086013567ffffffffffffffff8111156142ed57600080fd5b6142f9888289016141c6565b9150509295509295909350565b6000806000806080858703121561431c57600080fd5b600061432a87828801613e87565b945050602085013567ffffffffffffffff81111561434757600080fd5b61435387828801613e9c565b935050604085013567ffffffffffffffff81111561437057600080fd5b61437c878288016141c6565b925050606061438d8782880161421a565b91505092959194509250565b600080600080600080600060e0888a0312156143b457600080fd5b600088013567ffffffffffffffff8111156143ce57600080fd5b6143da8a828b01614007565b975050602088013567ffffffffffffffff8111156143f757600080fd5b6144038a828b016141c6565b965050604088013567ffffffffffffffff81111561442057600080fd5b61442c8a828b01613e9c565b955050606088013567ffffffffffffffff81111561444957600080fd5b6144558a828b01613e9c565b945050608088013567ffffffffffffffff81111561447257600080fd5b61447e8a828b0161407b565b93505060a088013567ffffffffffffffff81111561449b57600080fd5b6144a78a828b016141c6565b92505060c088013567ffffffffffffffff8111156144c457600080fd5b6144d08a828b01613f1f565b91505092959891949750929550565b6000602082840312156144f157600080fd5b600082013567ffffffffffffffff81111561450b57600080fd5b614517848285016141c6565b91505092915050565b6000806040838503121561453357600080fd5b600083013567ffffffffffffffff81111561454d57600080fd5b614559858286016141c6565b925050602061456a85828601613e87565b9150509250929050565b6000806040838503121561458757600080fd5b600083013567ffffffffffffffff8111156145a157600080fd5b6145ad858286016141c6565b925050602083013567ffffffffffffffff8111156145ca57600080fd5b6145d6858286016141c6565b9150509250929050565b6000806000606084860312156145f557600080fd5b600084013567ffffffffffffffff81111561460f57600080fd5b61461b868287016141c6565b935050602084013567ffffffffffffffff81111561463857600080fd5b614644868287016141c6565b92505060406146558682870161421a565b9150509250925092565b6000806040838503121561467257600080fd5b600083013567ffffffffffffffff81111561468c57600080fd5b614698858286016141c6565b92505060206146a98582860161421a565b9150509250929050565b6000806000606084860312156146c857600080fd5b600084013567ffffffffffffffff8111156146e257600080fd5b6146ee868287016141c6565b93505060206146ff8682870161421a565b925050604061471086828701613e87565b9150509250925092565b60006147268383614786565b60208301905092915050565b600061473e83836149bf565b905092915050565b60006147528383614a2c565b905092915050565b60006147668383614acf565b905092915050565b600061477a8383614cee565b60208301905092915050565b61478f816152f4565b82525050565b61479e816152f4565b82525050565b60006147af8261519f565b6147b98185615250565b93506147c48361512a565b8060005b838110156147f55781516147dc888261471a565b97506147e783615202565b9250506001810190506147c8565b5085935050505092915050565b600061480d826151aa565b6148178185615261565b9350836020820285016148298561513a565b8060005b8581101561486557848403895281516148468582614732565b94506148518361520f565b925060208a0199505060018101905061482d565b50829750879550505050505092915050565b6000614882826151b5565b61488c8185615272565b93508360208202850161489e8561514a565b8060005b858110156148da57848403895281516148bb8582614746565b94506148c68361521c565b925060208a019950506001810190506148a2565b50829750879550505050505092915050565b60006148f7826151c0565b6149018185615283565b9350836020820285016149138561515a565b8060005b8581101561494f5784840389528151614930858261475a565b945061493b83615229565b925060208a01995050600181019050614917565b50829750879550505050505092915050565b600061496c826151d6565b61497681856152a5565b93506149818361517a565b8060005b838110156149b2578151614999888261476e565b97506149a483615243565b925050600181019050614985565b5085935050505092915050565b60006149ca826151cb565b6149d48185615294565b93506149df8361516a565b8060005b83811015614a105781516149f7888261476e565b9750614a0283615236565b9250506001810190506149e3565b5085935050505092915050565b614a2681615306565b82525050565b6000614a37826151e1565b614a4181856152b6565b9350614a5181856020860161535b565b614a5a8161538e565b840191505092915050565b6000614a70826151f7565b614a7a81856152d8565b9350614a8a81856020860161535b565b614a938161538e565b840191505092915050565b6000614aa9826151f7565b614ab381856152e9565b9350614ac381856020860161535b565b80840191505092915050565b6000614ada826151ec565b614ae481856152c7565b9350614af481856020860161535b565b614afd8161538e565b840191505092915050565b6000614b13826151ec565b614b1d81856152e9565b9350614b2d81856020860161535b565b80840191505092915050565b600081546001811660008114614b565760018114614b7c57614bc0565b607f6002830416614b6781876152d8565b955060ff198316865260208601935050614bc0565b60028204614b8a81876152d8565b9550614b958561518a565b60005b82811015614bb757815481890152600182019150602081019050614b98565b80880195505050505b505092915050565b6000614bd56013836152d8565b91507f4d75737420626520726f6c65206f776e65722e000000000000000000000000006000830152602082019050919050565b6000614c15603d836152d8565b91507f616e6f74686572206368616e6765207265717565737420697320616c7265616460008301527f792070726f63657373656420666f72207468697320776f726b666c6f770000006020830152604082019050919050565b6000614c7b6010836152d8565b91507f77726f6e672072737020616e73776572000000000000000000000000000000006000830152602082019050919050565b6000614cbb600c836152d8565b91507f77726f6e674164647265737300000000000000000000000000000000000000006000830152602082019050919050565b614cf781615332565b82525050565b614d0681615332565b82525050565b614d158161533c565b82525050565b6000614d278284614b08565b915081905092915050565b6000614d3e8284614a9e565b915081905092915050565b6000602082019050614d5e6000830184614795565b92915050565b60006020820190508181036000830152614d7e81846147a4565b905092915050565b60006020820190508181036000830152614da08184614802565b905092915050565b60006020820190508181036000830152614dc28184614877565b905092915050565b60006020820190508181036000830152614de481846148ec565b905092915050565b60006020820190508181036000830152614e068184614961565b905092915050565b6000602082019050614e236000830184614a1d565b92915050565b60006020820190508181036000830152614e438184614a65565b905092915050565b60006040820190508181036000830152614e658184614a65565b90508181036020830152614e7881614c08565b905092915050565b60006040820190508181036000830152614e9a8184614a65565b90508181036020830152614ead81614c6e565b905092915050565b600060a0820190508181036000830152614ecf8188614a65565b9050614ede6020830187614cfd565b614eeb6040830186614cfd565b8181036060830152614efd8185614a65565b90508181036080830152614f118184614961565b90509695505050505050565b60006020820190508181036000830152614f378184614b39565b905092915050565b60006020820190508181036000830152614f5881614bc8565b9050919050565b60006020820190508181036000830152614f7881614cae565b9050919050565b6000602082019050614f946000830184614cfd565b92915050565b6000602082019050614faf6000830184614d0c565b92915050565b6000604051905081810181811067ffffffffffffffff82111715614fd857600080fd5b8060405250919050565b600067ffffffffffffffff821115614ff957600080fd5b602082029050602081019050919050565b600067ffffffffffffffff82111561502157600080fd5b602082029050602081019050919050565b600067ffffffffffffffff82111561504957600080fd5b602082029050602081019050919050565b600067ffffffffffffffff82111561507157600080fd5b602082029050602081019050919050565b600067ffffffffffffffff82111561509957600080fd5b602082029050602081019050919050565b600067ffffffffffffffff8211156150c157600080fd5b602082029050602081019050919050565b600067ffffffffffffffff8211156150e957600080fd5b601f19601f8301169050602081019050919050565b600067ffffffffffffffff82111561511557600080fd5b601f19601f8301169050602081019050919050565b6000819050602082019050919050565b6000819050602082019050919050565b6000819050602082019050919050565b6000819050602082019050919050565b6000819050602082019050919050565b6000819050602082019050919050565b60008190508160005260206000209050919050565b600081519050919050565b600081519050919050565b600081519050919050565b600081519050919050565b600081519050919050565b600081519050919050565b600081519050919050565b600081519050919050565b600081519050919050565b6000602082019050919050565b6000602082019050919050565b6000602082019050919050565b6000602082019050919050565b6000602082019050919050565b6000602082019050919050565b600082825260208201905092915050565b600082825260208201905092915050565b600082825260208201905092915050565b600082825260208201905092915050565b600082825260208201905092915050565b600082825260208201905092915050565b600082825260208201905092915050565b600082825260208201905092915050565b600082825260208201905092915050565b600081905092915050565b60006152ff82615312565b9050919050565b60008115159050919050565b600073ffffffffffffffffffffffffffffffffffffffff82169050919050565b6000819050919050565b600063ffffffff82169050919050565b82818337600083830152505050565b60005b8381101561537957808201518184015260208101905061535e565b83811115615388576000848401525b50505050565b6000601f19601f8301169050919050565b6153a8816152f4565b81146153b357600080fd5b50565b6153bf81615332565b81146153ca57600080fd5b5056fe525350206e6f74206170706c696361626c6520686572652028616c72656164792070726f6365737365643f29a365627a7a723158206ea5a3e191d64d4f70d4753f2dc89285033f3ad2e315a8ee55d48cf226a6b8eb6c6578706572696d656e74616cf564736f6c63430005100040",
  "source": "//pragma solidity 0.5.10;\npragma solidity ^0.5.16;\npragma experimental ABIEncoderV2;\n\ncontract PublicDCRManager {\n    // event declaration\n    event LogWorkflowCreation(\n        string indexed workflowHash,\n        address indexed creator\n    );\n\n    event LogExecution(\n        string indexed workflowHash,\n        uint256 indexed activityId,\n        address indexed executor\n    );\n\n    event LogWorkflowProjection(\n        string indexed workflowHash,\n        address indexed creator\n    );\n    \n    // CHANGE NEGOCIATION EVENTS\n    event RequestChange(\n        string workflowHashes,\n        address indexed endorser,\n        address indexed initiator\n    );\n    event DeclineChange(\n        string reqWkfHash,\n        address indexed endorser\n    );\n    event AcceptChange(\n        string reqWkfHash,\n        address indexed endorser\n    );\n    event AcceptChangeAll(\n        string reqWkfHash\n    );\n\n    event RSPErrorChange(\n        string reqWkfHash,\n        address indexed endorser,\n        string comment\n    );\n\n    // variable declarations.\n\n    struct Workflow {\n        string name;\n        ChgStatus wkfStatus;\n\n        string ipfsViewHash;\n\n        Marking markings;\n        address[] roleAddresses;\n        string[] activityNames;\n        bytes[] ipfsActivityHashes;\n        uint256 numActivities; //number of included activities\n        uint256[][][] relations; //includesTo, excludesTo, responsesTo, conditionsFrom, milestonesFrom\n        \n        address[] approvalAddresses;\n        uint[] approvalOutcomes;\n        uint[] didFetch;\n        Activity execStatus;\n    }\n    \n    enum ChgStatus { Approved, Declined, BeingProcessed, Init }\n   // enum EndorserDecision { Approve, Decline, NA}\n\n    string test='init';\n    struct ChangeRequest {\n        string currHash; \n        string reqHash;\n        ChgStatus status;\n        address initiator;\n        uint numEndorsers;\n        address[] endorsers;\n        uint[] changeEndorsement;\n    }\n    \n    struct Marking {\n        uint256[] included;\n        uint256[] executed;\n        uint256[] pending;\n    }\n\n    struct Activity {\n        uint32 canExecuteCheck;\n        uint256 status; //0=no, 1=yes\n    }\n    \n    string[] registeredViewHashes;\n\n    mapping(string => Workflow) workflows;\n    mapping(string => ChangeRequest) changeRequests;\n\n\n\n    ///////////////// Getters ////////////////////////\n\n    function getAllWKHashes() public view returns (string[] memory){\n        return registeredViewHashes;\n    }\n\n    function sendHash(string memory _hash, string memory x) public {\n        workflows[_hash].ipfsViewHash = x;\n    }\n\n    function getHash(string memory _hash) public view returns (string memory x) {\n        return workflows[_hash].ipfsViewHash;\n    }\n\n    function  getChangeArgs(string memory _hash) public view returns (string memory reqHash, uint ChangeValue, uint WKFValue, string memory Test, uint[] memory ChangeEndorsement){\n        \n        return (    \n                    changeRequests[_hash].reqHash,\n                    uint(changeRequests[_hash].status), \n                    uint(workflows[_hash].wkfStatus),\n                    test,\n                    changeRequests[_hash].changeEndorsement\n                    );\n\n    }\n\n    \n    function  getChangeValue(string memory _hash) public view returns (uint){\n        return uint(changeRequests[_hash].status);\n    }\n\n    function  getWKFValue(string memory _hash) public view returns (uint){\n        return uint(workflows[_hash].wkfStatus);\n    }\n\n    function getChangeEndorsement(string memory _hash) public view returns (uint[] memory){\n            return changeRequests[_hash].changeEndorsement;\n    }\n\n    function  getTest() public view returns (string memory){\n        return test;\n    }\n\n    /** @dev Getter for workflow name.\n      * @param _hash index of the workflow (eg 0 for the first workflow).\n      * @return workflow name.\n      */\n    function getWorkflowName(string memory _hash)\n        public\n        view\n        returns (string memory)\n    {\n        return workflows[_hash].name;\n    }\n\n    /** @dev Getter for workflow execution status.\n      * @param _hash index of the workflow (eg 0 for the first workflow).\n      * @return execution status of the task: 0=ok, 1= \n      */\n    function getCanExecuteCheck(string memory _hash, uint256 activityId)\n        public\n        view\n        returns (uint32)\n    {\n        return workflows[_hash].execStatus.canExecuteCheck;\n    }\n\n    function getStatus(string memory _hash, uint256 activityId)\n        public\n        view\n        returns (uint256)\n    {\n        return workflows[_hash].execStatus.status;\n    }\n\n    function getWkfLength(string memory _hash) public view returns (uint256) {\n        return workflows[_hash].relations[0].length;\n    }\n\n    function getIncluded(string memory _hash)\n        public\n        view\n        returns (uint256[] memory)\n    {\n        return workflows[_hash].markings.included;\n    }\n\n    function getExecuted(string memory _hash)\n        public\n        view\n        returns (uint256[] memory)\n    {\n        return workflows[_hash].markings.executed;\n    }\n\n    function getPending(string memory _hash)\n        public\n        view\n        returns (uint256[] memory)\n    {\n        return workflows[_hash].markings.pending;\n    }\n\n    function getConditionsFrom(string memory _hash)\n        public\n        view\n        returns (uint256[][] memory)\n    {\n        return workflows[_hash].relations[3];\n    }\n\n    function getHashes(string memory _hash)\n        public\n        view\n        returns (bytes[] memory)\n    {\n        return workflows[_hash].ipfsActivityHashes;\n    }\n\n    function getActivityName(string memory _hash, uint256 activityId)\n        public\n        view\n        returns (string memory)\n    {\n        return workflows[_hash].activityNames[activityId];\n    }\n\n    function getRoleAddresses(string memory _hash, uint256 activityId)\n        public\n        view\n        returns (address)\n    {\n        return workflows[_hash].roleAddresses[activityId];\n    }\n\n    function getAddresses(string memory _hash)\n        public\n        view\n        returns (address[] memory)\n    {\n        return workflows[_hash].approvalAddresses;\n    }\n\n\n    ///////////////// Change requests ////////////////////////\n\n    /** @dev manages change requests: if a request is already ongoing, cancel. Else, create a new change request and notify endorsers.\n      * @param toNotify list\n      * of endorser addreses.\n      * @param _hashes concatenated string of current wkf and request wkf ipfs hashes (ref to the public view)\n      * @param curr_hash current ipfs wkf hash\n      * @param req_hash  ipfs hash of requested change description\n      * @return processing decision.\n      */\n    function requestChange(address myAddress, address[] memory toNotify, string memory _hashes, string memory curr_hash, string memory req_hash) public payable {\n        \n        require(myAddress==msg.sender, \"Must be role owner.\"); //web3js bug carefew \n\n        test = 'chg request being processed';\n\n        if(changeRequests[curr_hash].status == ChgStatus.Init){\n            test = 'chg request validated';\n            //workflows[curr_hash].wkfStatus = ChgStatus.BeingProcessed;\n\n            changeRequests[curr_hash].status = ChgStatus.BeingProcessed;\n            changeRequests[curr_hash].reqHash = req_hash;\n            changeRequests[curr_hash].initiator = myAddress;\n            changeRequests[curr_hash].numEndorsers = toNotify.length;\n            changeRequests[curr_hash].endorsers = toNotify;\n            \n            for (\n                uint256 id = 0;\n                id < toNotify.length;\n                id++\n                ) {\n                    emit RequestChange(_hashes, toNotify[id], myAddress);\n                    //changeRequests[curr_hash].changeEndorsement[id] = 0; //// @TIPHAINE: ISSUE HERE --> DO A GETTER FOR THE ARRAY AND WATCH BEHAVIOR \n                }\n\n            // emit RequestChange(_hashes, toNotify, myAddress);\n            // 'request has been successfully registered';\n        }\n\n        else{\n            emit RSPErrorChange(req_hash, myAddress, 'another change request is already processed for this workflow');\n        }    \n    }\n\n\n    function updateTableOnAddress(address myAddress, address[] memory myAddresses, string memory myHash, uint myDecision) public payable{\n        for (\n                uint256 id = 0;\n                id < myAddresses.length;\n                id++\n            ) {\n                if((myAddress == myAddresses[id])){\n                    changeRequests[myHash].changeEndorsement[id] = myDecision;\n                }\n            }   \n    }\n\n\n    function finalApprovalManager(string memory myHash) public payable {\n        // check if required endorsers have answered --> if yes: unlock (set status to ChgStatus.Approved, update process markings and graph, )\n        uint totalRsp =1; //message sender is already ok \n        \n        for ( \n                uint256 id = 0;\n                id < changeRequests[myHash].endorsers.length;\n                id++\n            ) {\n                if((changeRequests[myHash].changeEndorsement[id] == 1)){\n                     totalRsp = totalRsp+1;\n                }\n            }\n            \n        if (totalRsp == changeRequests[myHash].numEndorsers){\n            test  = 'approved by all endorsers';\n            changeRequests[myHash].status == ChgStatus.Init;\n            emit AcceptChangeAll(changeRequests[myHash].reqHash);\n            \n            // reinit chgEndorsement (?)\n            // TODO Add graph locker/unlocker (update process markings and graph)\n\n        }\n    }\n\n    function endorserRSP(string memory curr_hash, string memory req_hash, uint rsp) public payable returns (string memory) {\n        \n        if(changeRequests[curr_hash].status == ChgStatus.BeingProcessed){\n            test  = 'enteringNode';\n            // accept: emit decision and update change memory\n            if (rsp==1){\n                updateTableOnAddress(msg.sender,changeRequests[curr_hash].endorsers, curr_hash,1);\n                test  = 'approved by one person';\n                emit AcceptChange(req_hash, msg.sender);\n                finalApprovalManager(curr_hash);\n            }         \n            \n            // decline\n            else if (rsp == 2){\n                test  = 'declined';\n                changeRequests[curr_hash].status = ChgStatus.Init;\n                emit DeclineChange(req_hash, msg.sender);\n            }\n            \n            else {\n                emit RSPErrorChange(req_hash, msg.sender, 'wrong rsp answer');\n            }\n\n            return 'RSP processed';\n        }\n\n        else{\n            return 'RSP not applicable here (already processed?)';\n        }    \n    }\n\n    ///////////////// Public-to-local Projections ////////////////////////\n\n\n    /** @dev Getter for workflow.\n      * @param _hash index of the workflow (eg 0 for the first workflow).\n      * @param myAddress sender adddress (must be registered to fetch the workflow).\n      * @return workflow, update didFetch variable to one.\n      */\n    function fetchPublicView(string memory _hash, address myAddress)\n        public\n        payable\n        returns (string memory)\n    {\n        \n        require(msg.sender == myAddress, 'wrongAddress');\n        \n        // update the didFetch variable\n        for (\n            uint256 id = 0;\n            id < workflows[_hash].approvalAddresses.length;\n            id++\n        ) {\n            if((myAddress == workflows[_hash].approvalAddresses[id]) && workflows[_hash].didFetch[id] != 1){\n                workflows[_hash].didFetch[id] = 1;\n                }\n        }\n        \n        return workflows[_hash].ipfsViewHash;\n    }\n\n    function getApprovalsOutcome(string memory _hash)\n        public\n        view\n        returns (uint[] memory)\n    {\n        return (workflows[_hash].approvalOutcomes);\n    }\n\n    function hasApproved(string memory _hash, address myAddress)\n        public\n        view\n        returns (uint)\n    {\n        //uint res = 0;\n        for (\n            uint256 id = 0;\n            id < workflows[_hash].approvalAddresses.length;\n            id++\n        ) {\n            if((myAddress == workflows[_hash].approvalAddresses[id]) && workflows[_hash].approvalOutcomes[id] == 1){\n                return 1;\n            }\n        }\n        return 0;\n    }\n\n    /** @dev post private projection approval function.\n      * @param _hash index of the workflow (eg 0 for the first workflow).\n      * @param myAddress address of the sender (necessary for web3js dev).\n      * @return list of approval outcomes.\n      */\n    function confirmProjection(string memory _hash, address myAddress) public payable returns (uint[] memory){\n        // get id of approvalList.addresses corresponding to msgSender. If (approval[id]==0): set to one;\n        \n        require(myAddress==msg.sender, \"Must be role owner.\");\n\n        for (\n            uint256 id = 0;\n            id < workflows[_hash].approvalAddresses.length;\n            id++\n        ) {\n            if((myAddress == workflows[_hash].approvalAddresses[id]) && workflows[_hash].didFetch[id] == 1){ // must have fetched public view\n                if(workflows[_hash].approvalOutcomes[id] != 1){ // must not have approved before\n                    workflows[_hash].approvalOutcomes[id] = 1;\n                    emit LogWorkflowProjection(_hash, myAddress);\n                    return workflows[_hash].approvalOutcomes;\n                }\n            }\n\n        }\n        \n        return workflows[_hash].approvalOutcomes;\n        \n    }  \n\n    ///////////////// Execution functions /////////////////////////\n\n    function canExecute(string memory _hash, uint256 activityId, address msgSender)\n        public\n        returns (bool)\n    {\n        // check if msg.sender address is correct\n        if (msgSender != workflows[_hash].roleAddresses[activityId]) {\n            workflows[_hash].execStatus.canExecuteCheck = 4;\n            return false;\n        }\n        \n        // activity must be included\n        if (workflows[_hash].markings.included[activityId] == 0) {\n            workflows[_hash].execStatus.canExecuteCheck = 1;\n            return false;\n        }\n\n        // all conditions executed\n        for (\n            uint256 id = 0;\n            id < workflows[_hash].relations[3].length;\n            id++\n        ) {\n            uint256[] memory conditionsRow =\n                workflows[_hash].relations[3][id];\n            if (conditionsRow[activityId] == 1) {\n                if (\n                    (workflows[_hash].markings.executed[id] == 0) &&\n                    (workflows[_hash].markings.included[id] == 1)\n                ) {\n                    workflows[_hash].execStatus.canExecuteCheck = 2;\n                    return false;\n                }\n            }\n        }\n\n        // no milestones pending\n        for (\n            uint256 id = 0;\n            id < workflows[_hash].relations[4].length; // milestonesFrom\n            id++\n        ) {\n            uint256[] memory milestonesRow =\n                workflows[_hash].relations[4][id];\n            if (milestonesRow[activityId] == 1) {\n                if (\n                    (workflows[_hash].markings.pending[id] == 1) &&\n                    (workflows[_hash].markings.included[id] == 1)\n                ) {\n                    workflows[_hash].execStatus.canExecuteCheck = 3;\n                    return false;\n                }\n            }\n        }\n\n        workflows[_hash].execStatus.canExecuteCheck = 0;\n        return true;\n    }\n\n    function checkCliquedIndex(string memory _hash, uint256 activityId)\n        public\n    //        bytes memory ipfsHash\n    {\n        if (!canExecute(_hash, activityId, msg.sender)) {\n            workflows[_hash].execStatus.status = 1;\n            //revert();\n        } else {\n            // executed activity\n            workflows[_hash].markings.executed[activityId] = 1;\n            workflows[_hash].markings.pending[activityId] = 0;\n            //            workflows[workflowId].ipfsActivityHashes[activityId] = ipfsHash;\n\n            uint256[] memory exclude_vect_check =\n                workflows[_hash].relations[1][activityId]; // excludes\n            uint256[] memory response_vect_check =\n                workflows[_hash].relations[2][activityId]; // responsesTo\n\n            // add include relations\n            uint256[] memory include_vect_check =\n                workflows[_hash].relations[0][activityId]; // includes\n\n            // update with condition relations ok\n            uint256[] memory conditionsTo =\n                workflows[_hash].relations[3][activityId]; //extract row condition\n            for (uint256 id = 0; id < conditionsTo.length; id++) {\n                if (conditionsTo[id] == 1) {\n                    include_vect_check[id] = 1;\n                }\n            }\n\n            for (\n                uint256 id = 0;\n                id < workflows[_hash].relations[1].length; // excludesTo\n                id++\n            ) {\n                // exclude and include relations pass\n                // note includes happens after the exclude pass\n                // included = (included & ~excludesTo[activityId]) | includesTo[activityId];\n                if (\n                    (exclude_vect_check[id] != 1) &&\n                    (include_vect_check[id] == 1)\n                ) {\n                    workflows[_hash].markings.included[id] = 1;\n                }\n\n                // response relations pass\n                // pending = (pending | responsesTo[activityId]);\n                if (response_vect_check[id] == 1) {\n                    workflows[_hash].markings.pending[id] = 1;\n                    workflows[_hash].markings.included[id] = 1;\n                }\n            }\n\n            emit LogExecution(_hash, activityId, msg.sender);\n\n            workflows[_hash].execStatus.status = 1;\n        }\n    }\n\n\n    ///////////////// Workflow creation /////////////////////////\n\n    function uploadPublicView(\n        // packed state variables\n        uint256[][] memory markingStates, // included, executed, pending\n\n        string memory _ipfsViewHash,\n\n        //process information\n        address[] memory _roleAddresses,\n        address[] memory _approvalAddresses,\n\n        string[] memory _activityNames,\n        string memory _name,\n\n        // relations\n        uint256[][][] memory _relations // includesto, excludesto, responsesto, conditionsfrom, milestonesFrom\n    ) public payable {\n        \n        Activity memory execStatus = Activity(0, 0);\n        Marking memory markings = Marking(markingStates[0],markingStates[1],markingStates[2]);\n        Workflow memory wf =\n            Workflow(\n                _name,\n                ChgStatus.Init,\n                _ipfsViewHash,\n                markings,\n                _roleAddresses,\n                _activityNames,\n                new bytes[](markingStates[0].length),\n                markingStates[0].length,\n                _relations,\n                _approvalAddresses,\n                new uint[](_approvalAddresses.length),\n                new uint[](_approvalAddresses.length),\n                execStatus\n            );\n        workflows[_ipfsViewHash]=wf;\n        registeredViewHashes.push(_ipfsViewHash);\n\n\n        ChangeRequest memory chgReq = ChangeRequest(\n            _ipfsViewHash,\n            '', \n            ChgStatus.Init,\n            address(0), \n            0, \n            new address[](_approvalAddresses.length),\n            new uint[](_approvalAddresses.length)\n        );       \n\n        changeRequests[_ipfsViewHash]=chgReq;\n\n        emit LogWorkflowCreation(wf.ipfsViewHash, msg.sender);\n\n    }\n\n\n\n}\n",
  "sourcePath": "/home/vtlr2002/source/masterPlatform/contracts/PublicDCRManager.sol",
  "compiler": {
    "name": "solc",
    "version": "0.5.16+commit.9c3226ce.Emscripten.clang"
  },
  "schemaVersion": "3.2.4",
  "updatedAt": "2021-09-15T08:08:34.018Z",
  "networkType": "ethereum",
  "devdoc": {
    "methods": {
      "confirmProjection(string,address)": {
        "details": "post private projection approval function.",
        "params": {
          "_hash": "index of the workflow (eg 0 for the first workflow).",
          "myAddress": "address of the sender (necessary for web3js dev)."
        },
        "return": "list of approval outcomes."
      },
      "fetchPublicView(string,address)": {
        "details": "Getter for workflow.",
        "params": {
          "_hash": "index of the workflow (eg 0 for the first workflow).",
          "myAddress": "sender adddress (must be registered to fetch the workflow)."
        },
        "return": "workflow, update didFetch variable to one."
      },
      "getCanExecuteCheck(string,uint256)": {
        "details": "Getter for workflow execution status.",
        "params": {
          "_hash": "index of the workflow (eg 0 for the first workflow)."
        },
        "return": "execution status of the task: 0=ok, 1= "
      },
      "getWorkflowName(string)": {
        "details": "Getter for workflow name.",
        "params": {
          "_hash": "index of the workflow (eg 0 for the first workflow)."
        },
        "return": "workflow name."
      },
      "requestChange(address,address[],string,string,string)": {
        "details": "manages change requests: if a request is already ongoing, cancel. Else, create a new change request and notify endorsers.",
        "params": {
          "_hashes": "concatenated string of current wkf and request wkf ipfs hashes (ref to the public view)",
          "curr_hash": "current ipfs wkf hash",
          "req_hash": "ipfs hash of requested change description",
          "toNotify": "list of endorser addreses."
        },
        "return": "processing decision."
      }
    }
  },
  "userdoc": {
    "methods": {
      "canExecute(string,uint256,address)": {
        "notice": "////////////// Execution functions /////////////////////////"
      },
      "getAllWKHashes()": {
        "notice": "////////////// Getters ////////////////////////"
      },
      "uploadPublicView(uint256[][],string,address[],address[],string[],string,uint256[][][])": {
        "notice": "////////////// Workflow creation /////////////////////////"
      }
    }
  }
}