{
  "contractName": "PublicDCRManager",
  "abi": [
    {
      "anonymous": false,
      "inputs": [
        {
          "indexed": false,
          "internalType": "string",
          "name": "reqWkfHash",
          "type": "string"
        },
        {
          "indexed": true,
          "internalType": "address",
          "name": "endorser",
          "type": "address"
        }
      ],
      "name": "AcceptChange",
      "type": "event"
    },
    {
      "anonymous": false,
      "inputs": [
        {
          "indexed": false,
          "internalType": "string",
          "name": "reqWkfHash",
          "type": "string"
        }
      ],
      "name": "AcceptChangeAll",
      "type": "event"
    },
    {
      "anonymous": false,
      "inputs": [
        {
          "indexed": false,
          "internalType": "string",
          "name": "reqWkfHash",
          "type": "string"
        },
        {
          "indexed": true,
          "internalType": "address",
          "name": "endorser",
          "type": "address"
        }
      ],
      "name": "DeclineChange",
      "type": "event"
    },
    {
      "anonymous": false,
      "inputs": [
        {
          "indexed": true,
          "internalType": "string",
          "name": "workflowHash",
          "type": "string"
        },
        {
          "indexed": true,
          "internalType": "uint256",
          "name": "activityId",
          "type": "uint256"
        },
        {
          "indexed": true,
          "internalType": "uint256",
          "name": "status",
          "type": "uint256"
        }
      ],
      "name": "LogExecution",
      "type": "event"
    },
    {
      "anonymous": false,
      "inputs": [
        {
          "indexed": true,
          "internalType": "string",
          "name": "workflowHash",
          "type": "string"
        },
        {
          "indexed": true,
          "internalType": "address",
          "name": "creator",
          "type": "address"
        }
      ],
      "name": "LogWorkflowCreation",
      "type": "event"
    },
    {
      "anonymous": false,
      "inputs": [
        {
          "indexed": true,
          "internalType": "string",
          "name": "workflowHash",
          "type": "string"
        },
        {
          "indexed": true,
          "internalType": "address",
          "name": "creator",
          "type": "address"
        }
      ],
      "name": "LogWorkflowProjection",
      "type": "event"
    },
    {
      "anonymous": false,
      "inputs": [
        {
          "indexed": false,
          "internalType": "string",
          "name": "reqWkfHash",
          "type": "string"
        },
        {
          "indexed": true,
          "internalType": "address",
          "name": "endorser",
          "type": "address"
        },
        {
          "indexed": false,
          "internalType": "string",
          "name": "comment",
          "type": "string"
        }
      ],
      "name": "RSPErrorChange",
      "type": "event"
    },
    {
      "anonymous": false,
      "inputs": [
        {
          "indexed": false,
          "internalType": "string",
          "name": "workflowHashes",
          "type": "string"
        },
        {
          "indexed": true,
          "internalType": "address",
          "name": "endorser",
          "type": "address"
        },
        {
          "indexed": true,
          "internalType": "address",
          "name": "initiator",
          "type": "address"
        }
      ],
      "name": "RequestChange",
      "type": "event"
    },
    {
      "constant": true,
      "inputs": [],
      "name": "getAllWKHashes",
      "outputs": [
        {
          "internalType": "string[]",
          "name": "",
          "type": "string[]"
        }
      ],
      "payable": false,
      "stateMutability": "view",
      "type": "function"
    },
    {
      "constant": true,
      "inputs": [
        {
          "internalType": "string",
          "name": "_hash",
          "type": "string"
        }
      ],
      "name": "getChangeArgs",
      "outputs": [
        {
          "internalType": "string",
          "name": "reqHash",
          "type": "string"
        },
        {
          "internalType": "uint256",
          "name": "ChangeValue",
          "type": "uint256"
        },
        {
          "internalType": "uint256",
          "name": "WKFValue",
          "type": "uint256"
        },
        {
          "internalType": "string",
          "name": "_Test",
          "type": "string"
        },
        {
          "internalType": "uint256[]",
          "name": "ChangeEndorsement",
          "type": "uint256[]"
        },
        {
          "internalType": "uint256",
          "name": "numEndorsers",
          "type": "uint256"
        },
        {
          "internalType": "address",
          "name": "initiator",
          "type": "address"
        }
      ],
      "payable": false,
      "stateMutability": "view",
      "type": "function"
    },
    {
      "constant": true,
      "inputs": [],
      "name": "getTest",
      "outputs": [
        {
          "internalType": "string",
          "name": "",
          "type": "string"
        },
        {
          "internalType": "string",
          "name": "",
          "type": "string"
        }
      ],
      "payable": false,
      "stateMutability": "view",
      "type": "function"
    },
    {
      "constant": true,
      "inputs": [
        {
          "internalType": "string",
          "name": "_hash",
          "type": "string"
        }
      ],
      "name": "getCanExecuteCheck",
      "outputs": [
        {
          "internalType": "uint32",
          "name": "",
          "type": "uint32"
        }
      ],
      "payable": false,
      "stateMutability": "view",
      "type": "function"
    },
    {
      "constant": true,
      "inputs": [
        {
          "internalType": "string",
          "name": "_hash",
          "type": "string"
        }
      ],
      "name": "getIncluded",
      "outputs": [
        {
          "internalType": "uint256[]",
          "name": "",
          "type": "uint256[]"
        }
      ],
      "payable": false,
      "stateMutability": "view",
      "type": "function"
    },
    {
      "constant": true,
      "inputs": [
        {
          "internalType": "string",
          "name": "_hash",
          "type": "string"
        }
      ],
      "name": "getExecuted",
      "outputs": [
        {
          "internalType": "uint256[]",
          "name": "",
          "type": "uint256[]"
        }
      ],
      "payable": false,
      "stateMutability": "view",
      "type": "function"
    },
    {
      "constant": true,
      "inputs": [
        {
          "internalType": "string",
          "name": "_hash",
          "type": "string"
        }
      ],
      "name": "getPending",
      "outputs": [
        {
          "internalType": "uint256[]",
          "name": "",
          "type": "uint256[]"
        }
      ],
      "payable": false,
      "stateMutability": "view",
      "type": "function"
    },
    {
      "constant": true,
      "inputs": [
        {
          "internalType": "string",
          "name": "_hash",
          "type": "string"
        }
      ],
      "name": "getConditionsFrom",
      "outputs": [
        {
          "internalType": "uint256[][]",
          "name": "",
          "type": "uint256[][]"
        }
      ],
      "payable": false,
      "stateMutability": "view",
      "type": "function"
    },
    {
      "constant": true,
      "inputs": [
        {
          "internalType": "string",
          "name": "_hash",
          "type": "string"
        }
      ],
      "name": "getHashes",
      "outputs": [
        {
          "internalType": "bytes[]",
          "name": "",
          "type": "bytes[]"
        }
      ],
      "payable": false,
      "stateMutability": "view",
      "type": "function"
    },
    {
      "constant": true,
      "inputs": [
        {
          "internalType": "string",
          "name": "_hash",
          "type": "string"
        },
        {
          "internalType": "uint256",
          "name": "activityId",
          "type": "uint256"
        }
      ],
      "name": "getRoleAddresses",
      "outputs": [
        {
          "internalType": "address",
          "name": "",
          "type": "address"
        }
      ],
      "payable": false,
      "stateMutability": "view",
      "type": "function"
    },
    {
      "constant": true,
      "inputs": [
        {
          "internalType": "string",
          "name": "_hash",
          "type": "string"
        }
      ],
      "name": "getAddresses",
      "outputs": [
        {
          "internalType": "address[]",
          "name": "",
          "type": "address[]"
        }
      ],
      "payable": false,
      "stateMutability": "view",
      "type": "function"
    },
    {
      "constant": true,
      "inputs": [
        {
          "internalType": "string",
          "name": "_hash",
          "type": "string"
        }
      ],
      "name": "getEndorserAddresses",
      "outputs": [
        {
          "internalType": "address[]",
          "name": "",
          "type": "address[]"
        }
      ],
      "payable": false,
      "stateMutability": "view",
      "type": "function"
    },
    {
      "constant": false,
      "inputs": [
        {
          "internalType": "address",
          "name": "myAddress",
          "type": "address"
        },
        {
          "internalType": "address[]",
          "name": "toNotify",
          "type": "address[]"
        },
        {
          "internalType": "string",
          "name": "_hashes",
          "type": "string"
        },
        {
          "internalType": "string",
          "name": "curr_hash",
          "type": "string"
        },
        {
          "internalType": "string",
          "name": "req_hash",
          "type": "string"
        }
      ],
      "name": "requestChange",
      "outputs": [],
      "payable": true,
      "stateMutability": "payable",
      "type": "function"
    },
    {
      "constant": false,
      "inputs": [
        {
          "internalType": "string",
          "name": "myHash",
          "type": "string"
        }
      ],
      "name": "finalApprovalManager",
      "outputs": [],
      "payable": true,
      "stateMutability": "payable",
      "type": "function"
    },
    {
      "constant": false,
      "inputs": [
        {
          "internalType": "address",
          "name": "myAddress",
          "type": "address"
        },
        {
          "internalType": "address[]",
          "name": "myAddresses",
          "type": "address[]"
        },
        {
          "internalType": "string",
          "name": "myHash",
          "type": "string"
        },
        {
          "internalType": "uint256",
          "name": "myDecision",
          "type": "uint256"
        }
      ],
      "name": "updateTableOnAddress",
      "outputs": [],
      "payable": true,
      "stateMutability": "payable",
      "type": "function"
    },
    {
      "constant": false,
      "inputs": [
        {
          "internalType": "address",
          "name": "myAddress",
          "type": "address"
        },
        {
          "internalType": "string",
          "name": "curr_hash",
          "type": "string"
        },
        {
          "internalType": "string",
          "name": "req_hash",
          "type": "string"
        },
        {
          "internalType": "uint256",
          "name": "rsp",
          "type": "uint256"
        }
      ],
      "name": "endorserRSP",
      "outputs": [
        {
          "internalType": "string",
          "name": "",
          "type": "string"
        }
      ],
      "payable": true,
      "stateMutability": "payable",
      "type": "function"
    },
    {
      "constant": true,
      "inputs": [
        {
          "internalType": "string",
          "name": "_hash",
          "type": "string"
        }
      ],
      "name": "getChangeApprovalsOutcome",
      "outputs": [
        {
          "internalType": "uint256[]",
          "name": "",
          "type": "uint256[]"
        }
      ],
      "payable": false,
      "stateMutability": "view",
      "type": "function"
    },
    {
      "constant": true,
      "inputs": [
        {
          "internalType": "string",
          "name": "_hash",
          "type": "string"
        },
        {
          "internalType": "address",
          "name": "myAddress",
          "type": "address"
        }
      ],
      "name": "hasApprovedProjection",
      "outputs": [
        {
          "internalType": "uint256",
          "name": "",
          "type": "uint256"
        }
      ],
      "payable": false,
      "stateMutability": "view",
      "type": "function"
    },
    {
      "constant": false,
      "inputs": [
        {
          "internalType": "string",
          "name": "_hash",
          "type": "string"
        },
        {
          "internalType": "address",
          "name": "myAddress",
          "type": "address"
        }
      ],
      "name": "confirmChangeProjection",
      "outputs": [
        {
          "internalType": "uint256[]",
          "name": "",
          "type": "uint256[]"
        }
      ],
      "payable": true,
      "stateMutability": "payable",
      "type": "function"
    },
    {
      "constant": false,
      "inputs": [
        {
          "internalType": "string",
          "name": "_hash",
          "type": "string"
        },
        {
          "internalType": "uint256[][]",
          "name": "_markingStates",
          "type": "uint256[][]"
        },
        {
          "internalType": "uint256[][][]",
          "name": "_relations",
          "type": "uint256[][][]"
        },
        {
          "internalType": "string[]",
          "name": "_activityNames",
          "type": "string[]"
        },
        {
          "internalType": "address[]",
          "name": "_roleAddresses",
          "type": "address[]"
        }
      ],
      "name": "switchWorkflows",
      "outputs": [
        {
          "internalType": "string",
          "name": "",
          "type": "string"
        }
      ],
      "payable": true,
      "stateMutability": "payable",
      "type": "function"
    },
    {
      "constant": false,
      "inputs": [
        {
          "internalType": "string",
          "name": "_hash",
          "type": "string"
        },
        {
          "internalType": "address",
          "name": "myAddress",
          "type": "address"
        }
      ],
      "name": "fetchPublicView",
      "outputs": [
        {
          "internalType": "string",
          "name": "",
          "type": "string"
        }
      ],
      "payable": true,
      "stateMutability": "payable",
      "type": "function"
    },
    {
      "constant": true,
      "inputs": [
        {
          "internalType": "string",
          "name": "_hash",
          "type": "string"
        }
      ],
      "name": "getApprovalsOutcome",
      "outputs": [
        {
          "internalType": "uint256[]",
          "name": "",
          "type": "uint256[]"
        }
      ],
      "payable": false,
      "stateMutability": "view",
      "type": "function"
    },
    {
      "constant": true,
      "inputs": [
        {
          "internalType": "string",
          "name": "_hash",
          "type": "string"
        },
        {
          "internalType": "address",
          "name": "myAddress",
          "type": "address"
        }
      ],
      "name": "hasApproved",
      "outputs": [
        {
          "internalType": "uint256",
          "name": "",
          "type": "uint256"
        }
      ],
      "payable": false,
      "stateMutability": "view",
      "type": "function"
    },
    {
      "constant": false,
      "inputs": [
        {
          "internalType": "string",
          "name": "_hash",
          "type": "string"
        },
        {
          "internalType": "address",
          "name": "myAddress",
          "type": "address"
        }
      ],
      "name": "confirmProjection",
      "outputs": [
        {
          "internalType": "uint256[]",
          "name": "",
          "type": "uint256[]"
        }
      ],
      "payable": true,
      "stateMutability": "payable",
      "type": "function"
    },
    {
      "constant": false,
      "inputs": [
        {
          "internalType": "string",
          "name": "_hash",
          "type": "string"
        },
        {
          "internalType": "uint256",
          "name": "activityId",
          "type": "uint256"
        },
        {
          "internalType": "address",
          "name": "msgSender",
          "type": "address"
        }
      ],
      "name": "canExecute",
      "outputs": [
        {
          "internalType": "bool",
          "name": "",
          "type": "bool"
        }
      ],
      "payable": false,
      "stateMutability": "nonpayable",
      "type": "function"
    },
    {
      "constant": false,
      "inputs": [
        {
          "internalType": "string",
          "name": "_hash",
          "type": "string"
        },
        {
          "internalType": "uint256",
          "name": "activityId",
          "type": "uint256"
        }
      ],
      "name": "checkCliquedIndex",
      "outputs": [],
      "payable": false,
      "stateMutability": "nonpayable",
      "type": "function"
    },
    {
      "constant": false,
      "inputs": [
        {
          "internalType": "uint256[][]",
          "name": "markingStates",
          "type": "uint256[][]"
        },
        {
          "internalType": "string",
          "name": "_ipfsViewHash",
          "type": "string"
        },
        {
          "internalType": "address[]",
          "name": "_roleAddresses",
          "type": "address[]"
        },
        {
          "internalType": "address[]",
          "name": "_approvalAddresses",
          "type": "address[]"
        },
        {
          "internalType": "string[]",
          "name": "_activityNames",
          "type": "string[]"
        },
        {
          "internalType": "string",
          "name": "_name",
          "type": "string"
        },
        {
          "internalType": "uint256[][][]",
          "name": "_relations",
          "type": "uint256[][][]"
        }
      ],
      "name": "uploadPublicView",
      "outputs": [],
      "payable": true,
      "stateMutability": "payable",
      "type": "function"
    }
  ],
  "bytecode": "0x608060405260405180604001604052806040518060400160405280600481526020017f696e69740000000000000000000000000000000000000000000000000000000081525081526020016040518060400160405280600481526020017f696e697400000000000000000000000000000000000000000000000000000000815250815250600080820151816000019080519060200190620000a2929190620000d8565b506020820151816001019080519060200190620000c1929190620000d8565b505050348015620000d157600080fd5b5062000187565b828054600181600116156101000203166002900490600052602060002090601f016020900481019282601f106200011b57805160ff19168380011785556200014c565b828001600101855582156200014c579182015b828111156200014b5782518255916020019190600101906200012e565b5b5090506200015b91906200015f565b5090565b6200018491905b808211156200018057600081600090555060010162000166565b5090565b90565b615ec380620001976000396000f3fe60806040526004361061019c5760003560e01c8063827f9511116100ec578063cb2c95141161008a578063e7cf96e711610064578063e7cf96e714610659578063e9b2b88614610696578063ee69739d146106d3578063f89a3b10146106ef5761019c565b8063cb2c9514146105b0578063cb89cdfd146105d9578063d2fbf948146106165761019c565b806399307671116100c657806399307671146104fb578063a158e4b014610538578063a8cd0a8014610554578063b872384d146105805761019c565b8063827f95111461046557806385e0efc0146104a25780639694f9fb146104be5761019c565b806342c59b28116101595780636342b1c2116101335780636342b1c21461039f57806365c6865b146103dc5780636cb4e3451461040c5780636f384bfc146104495761019c565b806342c59b28146102f55780634c5f090d146103325780634e894b32146103625761019c565b806302413fd4146101a15780630ce36024146101de57806318008e571461020e578063290930a21461023e5780632c3c0f9c1461027b57806339b64c30146102b8575b600080fd5b3480156101ad57600080fd5b506101c860048036036101c39190810190614d99565b61071a565b6040516101d5919061576e565b60405180910390f35b6101f860048036036101f39190810190614dda565b610796565b604051610205919061576e565b60405180910390f35b61022860048036036102239190810190614dda565b610ad7565b60405161023591906157db565b60405180910390f35b34801561024a57600080fd5b5061026560048036036102609190810190614d99565b610d53565b604051610272919061599f565b60405180910390f35b34801561028757600080fd5b506102a2600480360361029d9190810190614f71565b610d91565b6040516102af91906157c0565b60405180910390f35b3480156102c457600080fd5b506102df60048036036102da9190810190614d99565b611319565b6040516102ec91906156e6565b60405180910390f35b34801561030157600080fd5b5061031c60048036036103179190810190614d99565b6113c8565b60405161032991906156e6565b60405180910390f35b61034c60048036036103479190810190614e2e565b611477565b60405161035991906157db565b60405180910390f35b34801561036e57600080fd5b5061038960048036036103849190810190614d99565b6117cb565b6040516103969190615708565b60405180910390f35b3480156103ab57600080fd5b506103c660048036036103c19190810190614d99565b6118a1565b6040516103d3919061576e565b60405180910390f35b6103f660048036036103f19190810190614bc0565b61191d565b60405161040391906157db565b60405180910390f35b34801561041857600080fd5b50610433600480360361042e9190810190614dda565b611cbd565b6040516104409190615984565b60405180910390f35b610463600480360361045e9190810190614c53565b611de0565b005b34801561047157600080fd5b5061048c60048036036104879190810190614f1d565b6124c2565b60405161049991906156cb565b60405180910390f35b6104bc60048036036104b79190810190614b2d565b612523565b005b3480156104ca57600080fd5b506104e560048036036104e09190810190614d99565b6125c9565b6040516104f2919061572a565b60405180910390f35b34801561050757600080fd5b50610522600480360361051d9190810190614d99565b6126d3565b60405161052f919061576e565b60405180910390f35b610552600480360361054d9190810190614d99565b61274c565b005b34801561056057600080fd5b506105696128f4565b6040516105779291906157fd565b60405180910390f35b61059a60048036036105959190810190614dda565b612a40565b6040516105a7919061576e565b60405180910390f35b3480156105bc57600080fd5b506105d760048036036105d29190810190614f1d565b612fe0565b005b3480156105e557600080fd5b5061060060048036036105fb9190810190614d99565b613596565b60405161060d919061576e565b60405180910390f35b34801561062257600080fd5b5061063d60048036036106389190810190614d99565b613612565b604051610650979695949392919061589e565b60405180910390f35b34801561066557600080fd5b50610680600480360361067b9190810190614dda565b6138de565b60405161068d9190615984565b60405180910390f35b3480156106a257600080fd5b506106bd60048036036106b89190810190614d99565b613a01565b6040516106ca919061576e565b60405180910390f35b6106ed60048036036106e89190810190614a56565b613a7a565b005b3480156106fb57600080fd5b50610704613df7565b604051610711919061574c565b60405180910390f35b606060038260405161072c91906156b4565b908152602001604051809103902060030160000180548060200260200160405190810160405280929190818152602001828054801561078a57602002820191906000526020600020905b815481526020019060010190808311610776575b50505050509050919050565b60603373ffffffffffffffffffffffffffffffffffffffff168273ffffffffffffffffffffffffffffffffffffffff1614610806576040517f08c379a00000000000000000000000000000000000000000000000000000000081526004016107fd90615944565b60405180910390fd5b60008090505b60038460405161081c91906156b4565b9081526020016040518091039020600b0180549050811015610a5d5760038460405161084891906156b4565b9081526020016040518091039020600b01818154811061086457fe5b9060005260206000200160009054906101000a900473ffffffffffffffffffffffffffffffffffffffff1673ffffffffffffffffffffffffffffffffffffffff168373ffffffffffffffffffffffffffffffffffffffff161480156108ff575060016003856040516108d691906156b4565b9081526020016040518091039020600d0182815481106108f257fe5b9060005260206000200154145b15610a5057600160038560405161091691906156b4565b9081526020016040518091039020600c01828154811061093257fe5b906000526020600020015414610a4f57600160038560405161095491906156b4565b9081526020016040518091039020600c01828154811061097057fe5b90600052602060002001819055508273ffffffffffffffffffffffffffffffffffffffff16846040516109a391906156b4565b60405180910390207fef93748ef353323feced9a53b1f9433297bf50235a9d5aa97783d3f30d4682e460405160405180910390a36003846040516109e791906156b4565b9081526020016040518091039020600c01805480602002602001604051908101604052809291908181526020018280548015610a4257602002820191906000526020600020905b815481526020019060010190808311610a2e575b5050505050915050610ad1565b5b808060010191505061080c565b50600383604051610a6e91906156b4565b9081526020016040518091039020600c01805480602002602001604051908101604052809291908181526020018280548015610ac957602002820191906000526020600020905b815481526020019060010190808311610ab5575b505050505090505b92915050565b60608173ffffffffffffffffffffffffffffffffffffffff163373ffffffffffffffffffffffffffffffffffffffff1614610b47576040517f08c379a0000000000000000000000000000000000000000000000000000000008152600401610b3e90615964565b60405180910390fd5b60008090505b600384604051610b5d91906156b4565b9081526020016040518091039020600b0180549050811015610c9057600384604051610b8991906156b4565b9081526020016040518091039020600b018181548110610ba557fe5b9060005260206000200160009054906101000a900473ffffffffffffffffffffffffffffffffffffffff1673ffffffffffffffffffffffffffffffffffffffff168373ffffffffffffffffffffffffffffffffffffffff16148015610c4157506001600385604051610c1791906156b4565b9081526020016040518091039020600d018281548110610c3357fe5b906000526020600020015414155b15610c83576001600385604051610c5891906156b4565b9081526020016040518091039020600d018281548110610c7457fe5b90600052602060002001819055505b8080600101915050610b4d565b50600383604051610ca191906156b4565b90815260200160405180910390206002018054600181600116156101000203166002900480601f016020809104026020016040519081016040528092919081815260200182805460018160011615610100020316600290048015610d465780601f10610d1b57610100808354040283529160200191610d46565b820191906000526020600020905b815481529060010190602001808311610d2957829003601f168201915b5050505050905092915050565b6000600382604051610d6591906156b4565b9081526020016040518091039020600e0160000160009054906101000a900463ffffffff169050919050565b6000600384604051610da391906156b4565b90815260200160405180910390206006018381548110610dbf57fe5b9060005260206000200160009054906101000a900473ffffffffffffffffffffffffffffffffffffffff1673ffffffffffffffffffffffffffffffffffffffff168273ffffffffffffffffffffffffffffffffffffffff1614610e69576004600385604051610e2e91906156b4565b9081526020016040518091039020600e0160000160006101000a81548163ffffffff021916908363ffffffff16021790555060009050611312565b6000600385604051610e7b91906156b4565b90815260200160405180910390206003016000018481548110610e9a57fe5b90600052602060002001541415610ef8576001600385604051610ebd91906156b4565b9081526020016040518091039020600e0160000160006101000a81548163ffffffff021916908363ffffffff16021790555060009050611312565b60008090505b600385604051610f0e91906156b4565b9081526020016040518091039020600a01600381548110610f2b57fe5b90600052602060002001805490508110156110e0576060600386604051610f5291906156b4565b9081526020016040518091039020600a01600381548110610f6f57fe5b906000526020600020018281548110610f8457fe5b90600052602060002001805480602002602001604051908101604052809291908181526020018280548015610fd857602002820191906000526020600020905b815481526020019060010190808311610fc4575b505050505090506001818681518110610fed57fe5b602002602001015114156110d257600060038760405161100d91906156b4565b9081526020016040518091039020600301600101838154811061102c57fe5b906000526020600020015414801561107d5750600160038760405161105191906156b4565b9081526020016040518091039020600301600001838154811061107057fe5b9060005260206000200154145b156110d157600260038760405161109491906156b4565b9081526020016040518091039020600e0160000160006101000a81548163ffffffff021916908363ffffffff160217905550600092505050611312565b5b508080600101915050610efe565b5060008090505b6003856040516110f791906156b4565b9081526020016040518091039020600a0160048154811061111457fe5b90600052602060002001805490508110156112c857606060038660405161113b91906156b4565b9081526020016040518091039020600a0160048154811061115857fe5b90600052602060002001828154811061116d57fe5b906000526020600020018054806020026020016040519081016040528092919081815260200182805480156111c157602002820191906000526020600020905b8154815260200190600101908083116111ad575b5050505050905060018186815181106111d657fe5b602002602001015114156112ba5760016003876040516111f691906156b4565b9081526020016040518091039020600301600201838154811061121557fe5b90600052602060002001541480156112665750600160038760405161123a91906156b4565b9081526020016040518091039020600301600001838154811061125957fe5b9060005260206000200154145b156112b9576003808760405161127c91906156b4565b9081526020016040518091039020600e0160000160006101000a81548163ffffffff021916908363ffffffff160217905550600092505050611312565b5b5080806001019150506110e7565b5060006003856040516112db91906156b4565b9081526020016040518091039020600e0160000160006101000a81548163ffffffff021916908363ffffffff160217905550600190505b9392505050565b606060038260405161132b91906156b4565b9081526020016040518091039020600b018054806020026020016040519081016040528092919081815260200182805480156113bc57602002820191906000526020600020905b8160009054906101000a900473ffffffffffffffffffffffffffffffffffffffff1673ffffffffffffffffffffffffffffffffffffffff1681526020019060010190808311611372575b50505050509050919050565b60606004826040516113da91906156b4565b908152602001604051809103902060040180548060200260200160405190810160405280929190818152602001828054801561146b57602002820191906000526020600020905b8160009054906101000a900473ffffffffffffffffffffffffffffffffffffffff1673ffffffffffffffffffffffffffffffffffffffff1681526020019060010190808311611421575b50505050509050919050565b606060048660405161148991906156b4565b908152602001604051809103902060020160019054906101000a900473ffffffffffffffffffffffffffffffffffffffff1673ffffffffffffffffffffffffffffffffffffffff163373ffffffffffffffffffffffffffffffffffffffff161480156115be5750600173__LibPublicDCRM_________________________631bb9752860048960405161151c91906156b4565b908152602001604051809103902060060160048a60405161153d91906156b4565b9081526020016040518091039020600301546040518363ffffffff1660e01b815260040161156c929190615790565b60206040518083038186803b15801561158457600080fd5b505af4158015611598573d6000803e3d6000fd5b505050506040513d601f19601f820116820180604052506115bc9190810190614fd8565b145b6115c757600080fd5b611748856004886040516115db91906156b4565b90815260200160405180910390206001018054600181600116156101000203166002900480601f0160208091040260200160405190810160405280929190818152602001828054600181600116156101000203166002900480156116805780601f1061165557610100808354040283529160200191611680565b820191906000526020600020905b81548152906001019060200180831161166357829003601f168201915b505050505084858760038c60405161169891906156b4565b90815260200160405180910390206000018054600181600116156101000203166002900480601f01602080910402602001604051908101604052809291908181526020018280546001816001161561010002031660029004801561173d5780601f106117125761010080835404028352916020019161173d565b820191906000526020600020905b81548152906001019060200180831161172057829003601f168201915b50505050508a611de0565b6004808760405161175991906156b4565b908152602001604051809103902060020160006101000a81548160ff0219169083600481111561178557fe5b02179055506040518060400160405280600b81526020017f73776974636820646f6e65000000000000000000000000000000000000000000815250905095945050505050565b60606003826040516117dd91906156b4565b9081526020016040518091039020600a016003815481106117fa57fe5b90600052602060002001805480602002602001604051908101604052809291908181526020016000905b828210156118965783829060005260206000200180548060200260200160405190810160405280929190818152602001828054801561188257602002820191906000526020600020905b81548152602001906001019080831161186e575b505050505081526020019060010190611824565b505050509050919050565b60606003826040516118b391906156b4565b908152602001604051809103902060030160010180548060200260200160405190810160405280929190818152602001828054801561191157602002820191906000526020600020905b8154815260200190600101908083116118fd575b50505050509050919050565b60606002600481111561192c57fe5b60048560405161193c91906156b4565b908152602001604051809103902060020160009054906101000a900460ff16600481111561196657fe5b1415611c99576040518060400160405280600c81526020017f656e746572696e674e6f646500000000000000000000000000000000000000008152506000800190805190602001906119b9929190613ee0565b506001821415611b1f57611a75856004866040516119d791906156b4565b9081526020016040518091039020600401805480602002602001604051908101604052809291908181526020018280548015611a6857602002820191906000526020600020905b8160009054906101000a900473ffffffffffffffffffffffffffffffffffffffff1673ffffffffffffffffffffffffffffffffffffffff1681526020019060010190808311611a1e575b5050505050866001612523565b6040518060400160405280601681526020017f617070726f766564206279206f6e6520706572736f6e00000000000000000000815250600080019080519060200190611ac2929190613ee0565b508473ffffffffffffffffffffffffffffffffffffffff167fe9c7cbf4a3feb2b50db16225158a7170e01af4e7a4b2d243eeec352242dffdfd84604051611b0991906157db565b60405180910390a2611b1a8461274c565b611c5c565b6002821415611c0c576040518060400160405280600881526020017f6465636c696e6564000000000000000000000000000000000000000000000000815250600080019080519060200190611b75929190613ee0565b506003600485604051611b8891906156b4565b908152602001604051809103902060020160006101000a81548160ff02191690836004811115611bb457fe5b02179055508473ffffffffffffffffffffffffffffffffffffffff167f1592b7870c0c0627d9de8a8794012705b34a6640c1456b714a685eb5cc987c3384604051611bff91906157db565b60405180910390a2611c5b565b8473ffffffffffffffffffffffffffffffffffffffff167fc4f2afae15f3e7da4e4f139081d67f69ef9f4c3736a6649eb2fa18537713031584604051611c529190615869565b60405180910390a25b5b6040518060400160405280600d81526020017f5253502070726f636573736564000000000000000000000000000000000000008152509050611cb5565b6040518060600160405280602c8152602001615e55602c913990505b949350505050565b600080600090505b600384604051611cd591906156b4565b9081526020016040518091039020600b0180549050811015611dd457600384604051611d0191906156b4565b9081526020016040518091039020600b018181548110611d1d57fe5b9060005260206000200160009054906101000a900473ffffffffffffffffffffffffffffffffffffffff1673ffffffffffffffffffffffffffffffffffffffff168373ffffffffffffffffffffffffffffffffffffffff16148015611db857506001600385604051611d8f91906156b4565b9081526020016040518091039020600c018281548110611dab57fe5b9060005260206000200154145b15611dc7576001915050611dda565b8080600101915050611cc5565b50600090505b92915050565b611de8613f60565b6040518060400160405280600063ffffffff16815260200160008152509050611e0f613f80565b60405180606001604052808a600081518110611e2757fe5b602002602001015181526020018a600181518110611e4157fe5b602002602001015181526020018a600281518110611e5b57fe5b60200260200101518152509050611e70613fa1565b604051806101a0016040528086815260200160036004811115611e8f57fe5b81526020018a81526020018381526020018981526020018781526020018b600081518110611eb957fe5b602002602001015151604051908082528060200260200182016040528015611ef557816020015b6060815260200190600190039081611ee05790505b5081526020018b600081518110611f0857fe5b60200260200101515181526020018581526020018881526020018851604051908082528060200260200182016040528015611f525781602001602082028038833980820191505090505b5081526020018851604051908082528060200260200182016040528015611f885781602001602082028038833980820191505090505b5081526020018481525090508060038a604051611fa591906156b4565b90815260200160405180910390206000820151816000019080519060200190611fcf929190614020565b5060208201518160010160006101000a81548160ff02191690836004811115611ff457fe5b02179055506040820151816002019080519060200190612015929190614020565b50606082015181600301600082015181600001908051906020019061203b9291906140a0565b5060208201518160010190805190602001906120589291906140a0565b5060408201518160020190805190602001906120759291906140a0565b50505060808201518160060190805190602001906120949291906140ed565b5060a08201518160070190805190602001906120b1929190614177565b5060c08201518160080190805190602001906120ce9291906141d7565b5060e0820151816009015561010082015181600a0190805190602001906120f6929190614237565b5061012082015181600b0190805190602001906121149291906140ed565b5061014082015181600c0190805190602001906121329291906140a0565b5061016082015181600d0190805190602001906121509291906140a0565b5061018082015181600e0160008201518160000160006101000a81548163ffffffff021916908363ffffffff16021790555060208201518160010155505090505060028990806001815401808255809150509060018203906000526020600020016000909192909190915090805190602001906121ce929190613ee0565b50506121d8614297565b6040518061012001604052808b81526020016040518060200160405280600081525081526020016003600481111561220c57fe5b8152602001600073ffffffffffffffffffffffffffffffffffffffff1681526020016000815260200189516040519080825280602002602001820160405280156122655781602001602082028038833980820191505090505b508152602001895160405190808252806020026020018201604052801561229b5781602001602082028038833980820191505090505b50815260200189516040519080825280602002602001820160405280156122d15781602001602082028038833980820191505090505b50815260200189516040519080825280602002602001820160405280156123075781602001602082028038833980820191505090505b5081525090508060048b60405161231e91906156b4565b90815260200160405180910390206000820151816000019080519060200190612348929190614020565b506020820151816001019080519060200190612365929190614020565b5060408201518160020160006101000a81548160ff0219169083600481111561238a57fe5b021790555060608201518160020160016101000a81548173ffffffffffffffffffffffffffffffffffffffff021916908373ffffffffffffffffffffffffffffffffffffffff1602179055506080820151816003015560a08201518160040190805190602001906123fc9291906140ed565b5060c08201518160050190805190602001906124199291906140a0565b5060e08201518160060190805190602001906124369291906140a0565b506101008201518160070190805190602001906124549291906140a0565b509050503373ffffffffffffffffffffffffffffffffffffffff168260400151604051612481919061569d565b60405180910390207fc42dc8c6712875975b09ece703779e4ed83179500da5c8776b1eab681e04c7fa60405160405180910390a35050505050505050505050565b60006003836040516124d491906156b4565b908152602001604051809103902060060182815481106124f057fe5b9060005260206000200160009054906101000a900473ffffffffffffffffffffffffffffffffffffffff16905092915050565b60008090505b83518110156125c25783818151811061253e57fe5b602002602001015173ffffffffffffffffffffffffffffffffffffffff168573ffffffffffffffffffffffffffffffffffffffff1614156125b5578160048460405161258a91906156b4565b908152602001604051809103902060050182815481106125a657fe5b90600052602060002001819055505b8080600101915050612529565b5050505050565b60606003826040516125db91906156b4565b9081526020016040518091039020600801805480602002602001604051908101604052809291908181526020016000905b828210156126c8578382906000526020600020018054600181600116156101000203166002900480601f0160208091040260200160405190810160405280929190818152602001828054600181600116156101000203166002900480156126b45780601f10612689576101008083540402835291602001916126b4565b820191906000526020600020905b81548152906001019060200180831161269757829003601f168201915b50505050508152602001906001019061260c565b505050509050919050565b60606004826040516126e591906156b4565b908152602001604051809103902060060180548060200260200160405190810160405280929190818152602001828054801561274057602002820191906000526020600020905b81548152602001906001019080831161272c575b50505050509050919050565b60006001905060008090505b60048360405161276891906156b4565b9081526020016040518091039020600401805490508110156127d757600160048460405161279691906156b4565b908152602001604051809103902060050182815481106127b257fe5b906000526020600020015414156127ca576001820191505b8080600101915050612758565b506004826040516127e891906156b4565b9081526020016040518091039020600301548114156128f0576040518060400160405280601981526020017f617070726f76656420627920616c6c20656e646f72736572730000000000000081525060008001908051906020019061284e929190613ee0565b506003600481111561285c57fe5b60048360405161286c91906156b4565b908152602001604051809103902060020160009054906101000a900460ff16600481111561289657fe5b50507fd2a535afc7065ca5ca78e1cbe51c4ab92413202d78b070b01df38363ac20363d6004836040516128c991906156b4565b90815260200160405180910390206001016040516128e79190615922565b60405180910390a15b5050565b606080600080016000600101818054600181600116156101000203166002900480601f0160208091040260200160405190810160405280929190818152602001828054600181600116156101000203166002900480156129955780601f1061296a57610100808354040283529160200191612995565b820191906000526020600020905b81548152906001019060200180831161297857829003601f168201915b50505050509150808054600181600116156101000203166002900480601f016020809104026020016040519081016040528092919081815260200182805460018160011615610100020316600290048015612a315780601f10612a0657610100808354040283529160200191612a31565b820191906000526020600020905b815481529060010190602001808311612a1457829003601f168201915b50505050509050915091509091565b60606040518060400160405280600181526020017f410000000000000000000000000000000000000000000000000000000000000081525060006001019080519060200190612a90929190613ee0565b503373ffffffffffffffffffffffffffffffffffffffff168273ffffffffffffffffffffffffffffffffffffffff1614612aff576040517f08c379a0000000000000000000000000000000000000000000000000000000008152600401612af690615944565b60405180910390fd5b6040518060400160405280600181526020017f420000000000000000000000000000000000000000000000000000000000000081525060006001019080519060200190612b4d929190613ee0565b5060008090505b600484604051612b6491906156b4565b908152602001604051809103902060040180549050811015612f66576040518060400160405280600181526020017f430000000000000000000000000000000000000000000000000000000000000081525060006001019080519060200190612bce929190613ee0565b50600484604051612bdf91906156b4565b90815260200160405180910390206004018181548110612bfb57fe5b9060005260206000200160009054906101000a900473ffffffffffffffffffffffffffffffffffffffff1673ffffffffffffffffffffffffffffffffffffffff168373ffffffffffffffffffffffffffffffffffffffff161415612f59576040518060400160405280601081526020017f617070726f76616c20737461676520310000000000000000000000000000000081525060006001019080519060200190612ca7929190613ee0565b506001600485604051612cba91906156b4565b90815260200160405180910390206006018281548110612cd657fe5b906000526020600020015414612f58576001600485604051612cf891906156b4565b90815260200160405180910390206006018281548110612d1457fe5b90600052602060002001819055508273ffffffffffffffffffffffffffffffffffffffff1684604051612d4791906156b4565b60405180910390207fef93748ef353323feced9a53b1f9433297bf50235a9d5aa97783d3f30d4682e460405160405180910390a36040518060400160405280601081526020017f617070726f76616c20737461676520320000000000000000000000000000000081525060006001019080519060200190612dc9929190613ee0565b50600173__LibPublicDCRM_________________________631bb97528600487604051612df691906156b4565b9081526020016040518091039020600601600488604051612e1791906156b4565b9081526020016040518091039020600301546040518363ffffffff1660e01b8152600401612e46929190615790565b60206040518083038186803b158015612e5e57600080fd5b505af4158015612e72573d6000803e3d6000fd5b505050506040513d601f19601f82011682018060405250612e969190810190614fd8565b1415612ee0576000600485604051612eae91906156b4565b908152602001604051809103902060020160006101000a81548160ff02191690836004811115612eda57fe5b02179055505b600484604051612ef091906156b4565b9081526020016040518091039020600601805480602002602001604051908101604052809291908181526020018280548015612f4b57602002820191906000526020600020905b815481526020019060010190808311612f37575b5050505050915050612fda565b5b8080600101915050612b54565b50600483604051612f7791906156b4565b9081526020016040518091039020600601805480602002602001604051908101604052809291908181526020018280548015612fd257602002820191906000526020600020905b815481526020019060010190808311612fbe575b505050505090505b92915050565b612feb828233610d91565b61306357600160038360405161300191906156b4565b9081526020016040518091039020600e01600101819055506001818360405161302a91906156b4565b60405180910390207fa59297fb38de255753588982fd21223eab1e18d3151668c80b2ddeb15d7897b160405160405180910390a4613592565b600160038360405161307591906156b4565b9081526020016040518091039020600301600101828154811061309457fe5b906000526020600020018190555060006003836040516130b491906156b4565b908152602001604051809103902060030160020182815481106130d357fe5b906000526020600020018190555060606003836040516130f391906156b4565b9081526020016040518091039020600a0160018154811061311057fe5b90600052602060002001828154811061312557fe5b9060005260206000200180548060200260200160405190810160405280929190818152602001828054801561317957602002820191906000526020600020905b815481526020019060010190808311613165575b50505050509050606060038460405161319291906156b4565b9081526020016040518091039020600a016002815481106131af57fe5b9060005260206000200183815481106131c457fe5b9060005260206000200180548060200260200160405190810160405280929190818152602001828054801561321857602002820191906000526020600020905b815481526020019060010190808311613204575b50505050509050606060038560405161323191906156b4565b9081526020016040518091039020600a0160008154811061324e57fe5b90600052602060002001848154811061326357fe5b906000526020600020018054806020026020016040519081016040528092919081815260200182805480156132b757602002820191906000526020600020905b8154815260200190600101908083116132a3575b5050505050905060606003866040516132d091906156b4565b9081526020016040518091039020600a016003815481106132ed57fe5b90600052602060002001858154811061330257fe5b9060005260206000200180548060200260200160405190810160405280929190818152602001828054801561335657602002820191906000526020600020905b815481526020019060010190808311613342575b5050505050905060008090505b81518110156133b057600182828151811061337a57fe5b602002602001015114156133a357600183828151811061339657fe5b6020026020010181815250505b8080600101915050613363565b5060008090505b6003876040516133c791906156b4565b9081526020016040518091039020600a016001815481106133e457fe5b906000526020600020018054905081101561351d57600185828151811061340757fe5b6020026020010151141580156134305750600183828151811061342657fe5b6020026020010151145b1561347557600160038860405161344791906156b4565b9081526020016040518091039020600301600001828154811061346657fe5b90600052602060002001819055505b600184828151811061348357fe5b602002602001015114156135105760016003886040516134a391906156b4565b908152602001604051809103902060030160020182815481106134c257fe5b906000526020600020018190555060016003886040516134e291906156b4565b9081526020016040518091039020600301600001828154811061350157fe5b90600052602060002001819055505b80806001019150506133b7565b506000858760405161352f91906156b4565b60405180910390207fa59297fb38de255753588982fd21223eab1e18d3151668c80b2ddeb15d7897b160405160405180910390a4600160038760405161357591906156b4565b9081526020016040518091039020600e0160010181905550505050505b5050565b60606003826040516135a891906156b4565b908152602001604051809103902060030160020180548060200260200160405190810160405280929190818152602001828054801561360657602002820191906000526020600020905b8154815260200190600101908083116135f2575b50505050509050919050565b606060008060608060008060048860405161362d91906156b4565b908152602001604051809103902060010160048960405161364e91906156b4565b908152602001604051809103902060020160009054906101000a900460ff16600481111561367857fe5b60038a60405161368891906156b4565b908152602001604051809103902060010160009054906101000a900460ff1660048111156136b257fe5b6000800160048c6040516136c691906156b4565b908152602001604051809103902060050160048d6040516136e791906156b4565b90815260200160405180910390206003015460048e60405161370991906156b4565b908152602001604051809103902060020160019054906101000a900473ffffffffffffffffffffffffffffffffffffffff16868054600181600116156101000203166002900480601f0160208091040260200160405190810160405280929190818152602001828054600181600116156101000203166002900480156137d05780601f106137a5576101008083540402835291602001916137d0565b820191906000526020600020905b8154815290600101906020018083116137b357829003601f168201915b50505050509650838054600181600116156101000203166002900480601f01602080910402602001604051908101604052809291908181526020018280546001816001161561010002031660029004801561386c5780601f106138415761010080835404028352916020019161386c565b820191906000526020600020905b81548152906001019060200180831161384f57829003601f168201915b50505050509350828054806020026020016040519081016040528092919081815260200182805480156138be57602002820191906000526020600020905b8154815260200190600101908083116138aa575b505050505092509650965096509650965096509650919395979092949650565b600080600090505b6004846040516138f691906156b4565b9081526020016040518091039020600401805490508110156139f55760048460405161392291906156b4565b9081526020016040518091039020600401818154811061393e57fe5b9060005260206000200160009054906101000a900473ffffffffffffffffffffffffffffffffffffffff1673ffffffffffffffffffffffffffffffffffffffff168373ffffffffffffffffffffffffffffffffffffffff161480156139d9575060016004856040516139b091906156b4565b908152602001604051809103902060060182815481106139cc57fe5b9060005260206000200154145b156139e85760019150506139fb565b80806001019150506138e6565b50600090505b92915050565b6060600382604051613a1391906156b4565b9081526020016040518091039020600c01805480602002602001604051908101604052809291908181526020018280548015613a6e57602002820191906000526020600020905b815481526020019060010190808311613a5a575b50505050509050919050565b3373ffffffffffffffffffffffffffffffffffffffff168573ffffffffffffffffffffffffffffffffffffffff1614613ae8576040517f08c379a0000000000000000000000000000000000000000000000000000000008152600401613adf90615944565b60405180910390fd5b6040518060400160405280601b81526020017f6368672072657175657374206265696e672070726f6365737365640000000000815250600080019080519060200190613b35929190613ee0565b5060036004811115613b4357fe5b600483604051613b5391906156b4565b908152602001604051809103902060020160009054906101000a900460ff166004811115613b7d57fe5b1415613da1576040518060400160405280601581526020017f63686720726571756573742076616c6964617465640000000000000000000000815250600080019080519060200190613bd0929190613ee0565b506002600483604051613be391906156b4565b908152602001604051809103902060020160006101000a81548160ff02191690836004811115613c0f57fe5b021790555080600483604051613c2591906156b4565b90815260200160405180910390206001019080519060200190613c49929190613ee0565b5084600483604051613c5b91906156b4565b908152602001604051809103902060020160016101000a81548173ffffffffffffffffffffffffffffffffffffffff021916908373ffffffffffffffffffffffffffffffffffffffff1602179055508351600483604051613cbc91906156b4565b90815260200160405180910390206003018190555083600483604051613ce291906156b4565b90815260200160405180910390206004019080519060200190613d06929190614304565b5060008090505b8451811015613d9b578573ffffffffffffffffffffffffffffffffffffffff16858281518110613d3957fe5b602002602001015173ffffffffffffffffffffffffffffffffffffffff167f8dae525cabdde2b20f26998f05e6c504721ba1cea6f7229604cbee3a7267a01586604051613d8691906157db565b60405180910390a38080600101915050613d0d565b50613df0565b8473ffffffffffffffffffffffffffffffffffffffff167fc4f2afae15f3e7da4e4f139081d67f69ef9f4c3736a6649eb2fa18537713031582604051613de79190615834565b60405180910390a25b5050505050565b60606002805480602002602001604051908101604052809291908181526020016000905b82821015613ed7578382906000526020600020018054600181600116156101000203166002900480601f016020809104026020016040519081016040528092919081815260200182805460018160011615610100020316600290048015613ec35780601f10613e9857610100808354040283529160200191613ec3565b820191906000526020600020905b815481529060010190602001808311613ea657829003601f168201915b505050505081526020019060010190613e1b565b50505050905090565b828054600181600116156101000203166002900490600052602060002090601f016020900481019282601f10613f2157805160ff1916838001178555613f4f565b82800160010185558215613f4f579182015b82811115613f4e578251825591602001919060010190613f33565b5b509050613f5c919061438e565b5090565b6040518060400160405280600063ffffffff168152602001600081525090565b60405180606001604052806060815260200160608152602001606081525090565b604051806101a001604052806060815260200160006004811115613fc157fe5b815260200160608152602001613fd56143b3565b8152602001606081526020016060815260200160608152602001600081526020016060815260200160608152602001606081526020016060815260200161401a6143d4565b81525090565b828054600181600116156101000203166002900490600052602060002090601f016020900481019282601f1061406157805160ff191683800117855561408f565b8280016001018555821561408f579182015b8281111561408e578251825591602001919060010190614073565b5b50905061409c919061438e565b5090565b8280548282559060005260206000209081019282156140dc579160200282015b828111156140db5782518255916020019190600101906140c0565b5b5090506140e9919061438e565b5090565b828054828255906000526020600020908101928215614166579160200282015b828111156141655782518260006101000a81548173ffffffffffffffffffffffffffffffffffffffff021916908373ffffffffffffffffffffffffffffffffffffffff1602179055509160200191906001019061410d565b5b50905061417391906143f4565b5090565b8280548282559060005260206000209081019282156141c6579160200282015b828111156141c55782518290805190602001906141b5929190614020565b5091602001919060010190614197565b5b5090506141d39190614437565b5090565b828054828255906000526020600020908101928215614226579160200282015b82811115614225578251829080519060200190614215929190614463565b50916020019190600101906141f7565b5b50905061423391906144e3565b5090565b828054828255906000526020600020908101928215614286579160200282015b8281111561428557825182908051906020019061427592919061450f565b5091602001919060010190614257565b5b509050614293919061456f565b5090565b6040518061012001604052806060815260200160608152602001600060048111156142be57fe5b8152602001600073ffffffffffffffffffffffffffffffffffffffff16815260200160008152602001606081526020016060815260200160608152602001606081525090565b82805482825590600052602060002090810192821561437d579160200282015b8281111561437c5782518260006101000a81548173ffffffffffffffffffffffffffffffffffffffff021916908373ffffffffffffffffffffffffffffffffffffffff16021790555091602001919060010190614324565b5b50905061438a91906143f4565b5090565b6143b091905b808211156143ac576000816000905550600101614394565b5090565b90565b60405180606001604052806060815260200160608152602001606081525090565b6040518060400160405280600063ffffffff168152602001600081525090565b61443491905b8082111561443057600081816101000a81549073ffffffffffffffffffffffffffffffffffffffff0219169055506001016143fa565b5090565b90565b61446091905b8082111561445c5760008181614453919061459b565b5060010161443d565b5090565b90565b828054600181600116156101000203166002900490600052602060002090601f016020900481019282601f106144a457805160ff19168380011785556144d2565b828001600101855582156144d2579182015b828111156144d15782518255916020019190600101906144b6565b5b5090506144df919061438e565b5090565b61450c91905b8082111561450857600081816144ff91906145e3565b506001016144e9565b5090565b90565b82805482825590600052602060002090810192821561455e579160200282015b8281111561455d57825182908051906020019061454d9291906140a0565b509160200191906001019061452f565b5b50905061456b919061462b565b5090565b61459891905b80821115614594576000818161458b9190614657565b50600101614575565b5090565b90565b50805460018160011615610100020316600290046000825580601f106145c157506145e0565b601f0160209004906000526020600020908101906145df919061438e565b5b50565b50805460018160011615610100020316600290046000825580601f106146095750614628565b601f016020900490600052602060002090810190614627919061438e565b5b50565b61465491905b8082111561465057600081816146479190614678565b50600101614631565b5090565b90565b5080546000825590600052602060002090810190614675919061462b565b50565b5080546000825590600052602060002090810190614696919061438e565b50565b6000813590506146a881615e26565b92915050565b600082601f8301126146bf57600080fd5b81356146d26146cd826159e7565b6159ba565b915081818352602084019350602081019050838560208402820111156146f757600080fd5b60005b83811015614727578161470d8882614699565b8452602084019350602083019250506001810190506146fa565b5050505092915050565b600082601f83011261474257600080fd5b813561475561475082615a0f565b6159ba565b9150818183526020840193506020810190508360005b8381101561479b578135860161478188826147a5565b84526020840193506020830192505060018101905061476b565b5050505092915050565b600082601f8301126147b657600080fd5b81356147c96147c482615a37565b6159ba565b9150818183526020840193506020810190508360005b8381101561480f57813586016147f58882614901565b8452602084019350602083019250506001810190506147df565b5050505092915050565b600082601f83011261482a57600080fd5b813561483d61483882615a5f565b6159ba565b9150818183526020840193506020810190508360005b8381101561488357813586016148698882614901565b845260208401935060208301925050600181019050614853565b5050505092915050565b600082601f83011261489e57600080fd5b81356148b16148ac82615a87565b6159ba565b9150818183526020840193506020810190508360005b838110156148f757813586016148dd8882614984565b8452602084019350602083019250506001810190506148c7565b5050505092915050565b600082601f83011261491257600080fd5b813561492561492082615aaf565b6159ba565b9150818183526020840193506020810190508385602084028201111561494a57600080fd5b60005b8381101561497a57816149608882614a2c565b84526020840193506020830192505060018101905061494d565b5050505092915050565b600082601f83011261499557600080fd5b81356149a86149a382615ad7565b6159ba565b915080825260208301602083018583830111156149c457600080fd5b6149cf838284615d99565b50505092915050565b600082601f8301126149e957600080fd5b81356149fc6149f782615b03565b6159ba565b91508082526020830160208301858383011115614a1857600080fd5b614a23838284615d99565b50505092915050565b600081359050614a3b81615e3d565b92915050565b600081519050614a5081615e3d565b92915050565b600080600080600060a08688031215614a6e57600080fd5b6000614a7c88828901614699565b955050602086013567ffffffffffffffff811115614a9957600080fd5b614aa5888289016146ae565b945050604086013567ffffffffffffffff811115614ac257600080fd5b614ace888289016149d8565b935050606086013567ffffffffffffffff811115614aeb57600080fd5b614af7888289016149d8565b925050608086013567ffffffffffffffff811115614b1457600080fd5b614b20888289016149d8565b9150509295509295909350565b60008060008060808587031215614b4357600080fd5b6000614b5187828801614699565b945050602085013567ffffffffffffffff811115614b6e57600080fd5b614b7a878288016146ae565b935050604085013567ffffffffffffffff811115614b9757600080fd5b614ba3878288016149d8565b9250506060614bb487828801614a2c565b91505092959194509250565b60008060008060808587031215614bd657600080fd5b6000614be487828801614699565b945050602085013567ffffffffffffffff811115614c0157600080fd5b614c0d878288016149d8565b935050604085013567ffffffffffffffff811115614c2a57600080fd5b614c36878288016149d8565b9250506060614c4787828801614a2c565b91505092959194509250565b600080600080600080600060e0888a031215614c6e57600080fd5b600088013567ffffffffffffffff811115614c8857600080fd5b614c948a828b01614819565b975050602088013567ffffffffffffffff811115614cb157600080fd5b614cbd8a828b016149d8565b965050604088013567ffffffffffffffff811115614cda57600080fd5b614ce68a828b016146ae565b955050606088013567ffffffffffffffff811115614d0357600080fd5b614d0f8a828b016146ae565b945050608088013567ffffffffffffffff811115614d2c57600080fd5b614d388a828b0161488d565b93505060a088013567ffffffffffffffff811115614d5557600080fd5b614d618a828b016149d8565b92505060c088013567ffffffffffffffff811115614d7e57600080fd5b614d8a8a828b01614731565b91505092959891949750929550565b600060208284031215614dab57600080fd5b600082013567ffffffffffffffff811115614dc557600080fd5b614dd1848285016149d8565b91505092915050565b60008060408385031215614ded57600080fd5b600083013567ffffffffffffffff811115614e0757600080fd5b614e13858286016149d8565b9250506020614e2485828601614699565b9150509250929050565b600080600080600060a08688031215614e4657600080fd5b600086013567ffffffffffffffff811115614e6057600080fd5b614e6c888289016149d8565b955050602086013567ffffffffffffffff811115614e8957600080fd5b614e9588828901614819565b945050604086013567ffffffffffffffff811115614eb257600080fd5b614ebe88828901614731565b935050606086013567ffffffffffffffff811115614edb57600080fd5b614ee78882890161488d565b925050608086013567ffffffffffffffff811115614f0457600080fd5b614f10888289016146ae565b9150509295509295909350565b60008060408385031215614f3057600080fd5b600083013567ffffffffffffffff811115614f4a57600080fd5b614f56858286016149d8565b9250506020614f6785828601614a2c565b9150509250929050565b600080600060608486031215614f8657600080fd5b600084013567ffffffffffffffff811115614fa057600080fd5b614fac868287016149d8565b9350506020614fbd86828701614a2c565b9250506040614fce86828701614699565b9150509250925092565b600060208284031215614fea57600080fd5b6000614ff884828501614a41565b91505092915050565b600061500d8383615085565b60208301905092915050565b600061502583836152be565b905092915050565b60006150398383615390565b905092915050565b600061504d8383615433565b905092915050565b60006150618383615652565b60208301905092915050565b6000615079838361567f565b60208301905092915050565b61508e81615d41565b82525050565b61509d81615d41565b82525050565b60006150ae82615bb9565b6150b88185615c82565b93506150c383615b2f565b8060005b838110156150f45781516150db8882615001565b97506150e683615c27565b9250506001810190506150c7565b5085935050505092915050565b600061510c82615bc4565b6151168185615c93565b93508360208202850161512885615b3f565b8060005b8581101561516457848403895281516151458582615019565b945061515083615c34565b925060208a0199505060018101905061512c565b50829750879550505050505092915050565b600061518182615bcf565b61518b8185615ca4565b93508360208202850161519d85615b4f565b8060005b858110156151d957848403895281516151ba858261502d565b94506151c583615c41565b925060208a019950506001810190506151a1565b50829750879550505050505092915050565b60006151f682615bda565b6152008185615cb5565b93508360208202850161521285615b5f565b8060005b8581101561524e578484038952815161522f8582615041565b945061523a83615c4e565b925060208a01995050600181019050615216565b50829750879550505050505092915050565b600061526b82615bf0565b6152758185615cd7565b935061528083615b7f565b8060005b838110156152b15781516152988882615055565b97506152a383615c68565b925050600181019050615284565b5085935050505092915050565b60006152c982615be5565b6152d38185615cc6565b93506152de83615b6f565b8060005b8381101561530f5781516152f68882615055565b975061530183615c5b565b9250506001810190506152e2565b5085935050505092915050565b600061532782615bfb565b6153318185615ce8565b935061533c83615b8f565b8060005b838110156153745761535182615df5565b61535b888261506d565b975061536683615c75565b925050600181019050615340565b5085935050505092915050565b61538a81615d53565b82525050565b600061539b82615c06565b6153a58185615cf9565b93506153b5818560208601615da8565b6153be81615e08565b840191505092915050565b60006153d482615c1c565b6153de8185615d1b565b93506153ee818560208601615da8565b6153f781615e08565b840191505092915050565b600061540d82615c1c565b6154178185615d2c565b9350615427818560208601615da8565b80840191505092915050565b600061543e82615c11565b6154488185615d0a565b9350615458818560208601615da8565b61546181615e08565b840191505092915050565b600061547782615c11565b6154818185615d2c565b9350615491818560208601615da8565b80840191505092915050565b6000815460018116600081146154ba57600181146154e057615524565b607f60028304166154cb8187615d1b565b955060ff198316865260208601935050615524565b600282046154ee8187615d1b565b95506154f985615ba4565b60005b8281101561551b578154818901526001820191506020810190506154fc565b80880195505050505b505092915050565b6000615539601383615d1b565b91507f4d75737420626520726f6c65206f776e65722e000000000000000000000000006000830152602082019050919050565b6000615579603d83615d1b565b91507f616e6f74686572206368616e6765207265717565737420697320616c7265616460008301527f792070726f63657373656420666f72207468697320776f726b666c6f770000006020830152604082019050919050565b60006155df601083615d1b565b91507f77726f6e672072737020616e73776572000000000000000000000000000000006000830152602082019050919050565b600061561f600c83615d1b565b91507f77726f6e674164647265737300000000000000000000000000000000000000006000830152602082019050919050565b61565b81615d7f565b82525050565b61566a81615d7f565b82525050565b61567981615d7f565b82525050565b61568881615d7f565b82525050565b61569781615d89565b82525050565b60006156a9828461546c565b915081905092915050565b60006156c08284615402565b915081905092915050565b60006020820190506156e06000830184615094565b92915050565b6000602082019050818103600083015261570081846150a3565b905092915050565b600060208201905081810360008301526157228184615101565b905092915050565b600060208201905081810360008301526157448184615176565b905092915050565b6000602082019050818103600083015261576681846151eb565b905092915050565b600060208201905081810360008301526157888184615260565b905092915050565b600060408201905081810360008301526157aa818561531c565b90506157b96020830184615670565b9392505050565b60006020820190506157d56000830184615381565b92915050565b600060208201905081810360008301526157f581846153c9565b905092915050565b6000604082019050818103600083015261581781856153c9565b9050818103602083015261582b81846153c9565b90509392505050565b6000604082019050818103600083015261584e81846153c9565b905081810360208301526158618161556c565b905092915050565b6000604082019050818103600083015261588381846153c9565b90508181036020830152615896816155d2565b905092915050565b600060e08201905081810360008301526158b8818a6153c9565b90506158c76020830189615661565b6158d46040830188615661565b81810360608301526158e681876153c9565b905081810360808301526158fa8186615260565b905061590960a0830185615661565b61591660c0830184615094565b98975050505050505050565b6000602082019050818103600083015261593c818461549d565b905092915050565b6000602082019050818103600083015261595d8161552c565b9050919050565b6000602082019050818103600083015261597d81615612565b9050919050565b60006020820190506159996000830184615661565b92915050565b60006020820190506159b4600083018461568e565b92915050565b6000604051905081810181811067ffffffffffffffff821117156159dd57600080fd5b8060405250919050565b600067ffffffffffffffff8211156159fe57600080fd5b602082029050602081019050919050565b600067ffffffffffffffff821115615a2657600080fd5b602082029050602081019050919050565b600067ffffffffffffffff821115615a4e57600080fd5b602082029050602081019050919050565b600067ffffffffffffffff821115615a7657600080fd5b602082029050602081019050919050565b600067ffffffffffffffff821115615a9e57600080fd5b602082029050602081019050919050565b600067ffffffffffffffff821115615ac657600080fd5b602082029050602081019050919050565b600067ffffffffffffffff821115615aee57600080fd5b601f19601f8301169050602081019050919050565b600067ffffffffffffffff821115615b1a57600080fd5b601f19601f8301169050602081019050919050565b6000819050602082019050919050565b6000819050602082019050919050565b6000819050602082019050919050565b6000819050602082019050919050565b6000819050602082019050919050565b6000819050602082019050919050565b60008190508160005260206000209050919050565b60008190508160005260206000209050919050565b600081519050919050565b600081519050919050565b600081519050919050565b600081519050919050565b600081519050919050565b600081519050919050565b600081549050919050565b600081519050919050565b600081519050919050565b600081519050919050565b6000602082019050919050565b6000602082019050919050565b6000602082019050919050565b6000602082019050919050565b6000602082019050919050565b6000602082019050919050565b6000600182019050919050565b600082825260208201905092915050565b600082825260208201905092915050565b600082825260208201905092915050565b600082825260208201905092915050565b600082825260208201905092915050565b600082825260208201905092915050565b600082825260208201905092915050565b600082825260208201905092915050565b600082825260208201905092915050565b600082825260208201905092915050565b600081905092915050565b6000819050919050565b6000615d4c82615d5f565b9050919050565b60008115159050919050565b600073ffffffffffffffffffffffffffffffffffffffff82169050919050565b6000819050919050565b600063ffffffff82169050919050565b82818337600083830152505050565b60005b83811015615dc6578082015181840152602081019050615dab565b83811115615dd5576000848401525b50505050565b6000615dee615de983615e19565b615d37565b9050919050565b6000615e018254615ddb565b9050919050565b6000601f19601f8301169050919050565b60008160001c9050919050565b615e2f81615d41565b8114615e3a57600080fd5b50565b615e4681615d7f565b8114615e5157600080fd5b5056fe525350206e6f74206170706c696361626c6520686572652028616c72656164792070726f6365737365643f29a365627a7a723158203abdb6277348ad99356b5620998ac364cec330157222c375730cdd429777f23f6c6578706572696d656e74616cf564736f6c63430005100040",
  "source": "//pragma solidity 0.5.10;\npragma solidity ^0.5.16;\npragma experimental ABIEncoderV2;\n\nimport \"./ProvableAPI_0.5.sol\";\n\nimport \"./LibPublicDCRM.sol\";\n\ncontract PublicDCRManager {\n    // event declaration\n    event LogWorkflowCreation(\n        string indexed workflowHash,\n        address indexed creator\n    );\n\n    event LogExecution(\n        string indexed workflowHash,\n        uint256 indexed activityId,\n        uint256 indexed status\n        //address indexed executor\n    );\n\n    event LogWorkflowProjection(\n        string indexed workflowHash,\n        address indexed creator\n    );\n    \n    // CHANGE NEGOCIATION EVENTS\n    event RequestChange(\n        string workflowHashes,\n        address indexed endorser,\n        address indexed initiator\n    );\n    event DeclineChange(\n        string reqWkfHash,\n        address indexed endorser\n    );\n    event AcceptChange(\n        string reqWkfHash,\n        address indexed endorser\n    );\n    event AcceptChangeAll(\n        string reqWkfHash\n    );\n\n    event RSPErrorChange(\n        string reqWkfHash,\n        address indexed endorser,\n        string comment\n    );\n\n    // variable declarations.\n\n    struct Workflow {\n        string name;\n        ChgStatus wkfStatus;\n\n        string ipfsViewHash;\n\n        Marking markings;\n        address[] roleAddresses;\n        string[] activityNames;\n        bytes[] ipfsActivityHashes;\n        uint256 numActivities; //number of included activities\n        uint256[][][] relations; //includesTo, excludesTo, responsesTo, conditionsFrom, milestonesFrom\n        \n        address[] approvalAddresses;\n        uint[] approvalOutcomes;\n        uint[] didFetch;\n        Activity execStatus;\n\n        //string publicData;\n    }\n    \n    enum ChgStatus { Approved, Declined, BeingProcessed, Init, Switched }\n   // enum EndorserDecision { Approve, Decline, NA}\n\n    struct fooTest{\n        string test;\n        string testBis;\n    }\n\n    fooTest Test = fooTest({test:'init', testBis:'init'});\n\n    struct ChangeRequest {\n        string currHash; \n        string reqHash;\n        ChgStatus status;\n        address initiator;\n        uint numEndorsers;\n        address[] endorsers;\n        uint[] changeEndorsement;\n\n        uint[] approvalOutcomes;\n        uint[] didFetch;\n    }\n    \n    struct Marking {\n        uint256[] included;\n        uint256[] executed;\n        uint256[] pending;\n    }\n\n    struct Activity {\n        uint32 canExecuteCheck;\n        uint256 status; //0=no, 1=yes\n    }\n    \n    string[] registeredViewHashes;\n\n    mapping(string => Workflow) workflows;\n    mapping(string => ChangeRequest) changeRequests;\n\n\n\n    ///////////////// Getters ////////////////////////\n\n    function getAllWKHashes() public view returns (string[] memory){\n        return registeredViewHashes;\n    }\n\n    function  getChangeArgs(string memory _hash) public view returns (string memory reqHash, uint ChangeValue, uint WKFValue, string memory _Test, uint[] memory ChangeEndorsement, uint numEndorsers, address initiator){\n        \n        return (    \n                    changeRequests[_hash].reqHash,\n                    uint(changeRequests[_hash].status), \n                    uint(workflows[_hash].wkfStatus),\n                    Test.test,\n                    changeRequests[_hash].changeEndorsement,\n                    changeRequests[_hash].numEndorsers,\n                    changeRequests[_hash].initiator\n                    );\n\n    }\n\n\n    function  getTest() public view returns (string memory,string memory){\n        return (Test.test,\n                Test.testBis);\n    }\n\n    /** @dev Getter for workflow execution status.\n      * @param _hash index of the workflow (eg 0 for the first workflow).\n      * @return execution status of the task: 0=ok, 1= \n      */\n    function getCanExecuteCheck(string memory _hash)\n        public\n        view\n        returns (uint32)\n    {\n        return workflows[_hash].execStatus.canExecuteCheck;\n    }\n\n    function getIncluded(string memory _hash)\n        public\n        view\n        returns (uint256[] memory)\n    {\n        return workflows[_hash].markings.included;\n    }\n\n    function getExecuted(string memory _hash)\n        public\n        view\n        returns (uint256[] memory)\n    {\n        return workflows[_hash].markings.executed;\n    }\n\n    function getPending(string memory _hash)\n        public\n        view\n        returns (uint256[] memory)\n    {\n        return workflows[_hash].markings.pending;\n    }\n\n    function getConditionsFrom(string memory _hash)\n        public\n        view\n        returns (uint256[][] memory)\n    {\n        return workflows[_hash].relations[3];\n    }\n\n    function getHashes(string memory _hash)\n        public\n        view\n        returns (bytes[] memory)\n    {\n        return workflows[_hash].ipfsActivityHashes;\n    }\n\n    function getRoleAddresses(string memory _hash, uint256 activityId)\n        public\n        view\n        returns (address)\n    {\n        return workflows[_hash].roleAddresses[activityId];\n    }\n\n    function getAddresses(string memory _hash)\n        public\n        view\n        returns (address[] memory)\n    {\n        return workflows[_hash].approvalAddresses;\n    }\n\n\n    function getEndorserAddresses(string memory _hash)\n        public\n        view\n        returns (address[] memory)\n    {\n        return changeRequests[_hash].endorsers;\n    }\n\n    ///////////////// Change requests ////////////////////////\n\n    /** @dev manages change requests: if a request is already ongoing, cancel. Else, create a new change request and notify endorsers.\n      * @param toNotify list\n      * of endorser addreses.\n      * @param _hashes concatenated string of current wkf and request wkf ipfs hashes (ref to the public view)\n      * @param curr_hash current ipfs wkf hash\n      * @param req_hash  ipfs hash of requested change description\n      * @return processing decision.\n      */\n    function requestChange(address myAddress, address[] memory toNotify, string memory _hashes, string memory curr_hash, string memory req_hash) public payable {\n        \n        require(myAddress==msg.sender, \"Must be role owner.\"); //web3js bug carefew \n\n        Test.test = 'chg request being processed';\n\n        if(changeRequests[curr_hash].status == ChgStatus.Init){\n            Test.test = 'chg request validated';\n            //workflows[curr_hash].wkfStatus = ChgStatus.BeingProcessed;\n\n            changeRequests[curr_hash].status = ChgStatus.BeingProcessed;\n            changeRequests[curr_hash].reqHash = req_hash;\n            changeRequests[curr_hash].initiator = myAddress;\n            changeRequests[curr_hash].numEndorsers = toNotify.length;\n            changeRequests[curr_hash].endorsers = toNotify;\n            \n            for (\n                uint256 id = 0;\n                id < toNotify.length;\n                id++\n                ) {\n                    emit RequestChange(_hashes, toNotify[id], myAddress);\n                    //changeRequests[curr_hash].changeEndorsement[id] = 0; //// @TIPHAINE: ISSUE HERE --> DO A GETTER FOR THE ARRAY AND WATCH BEHAVIOR \n                }\n\n            // emit RequestChange(_hashes, toNotify, myAddress);\n            // 'request has been successfully registered';\n        }\n\n        else{\n            emit RSPErrorChange(req_hash, myAddress, 'another change request is already processed for this workflow');\n        }    \n    }\n\n\n    function finalApprovalManager(string memory myHash) public payable {\n        // check if required endorsers have answered --> if yes: unlock (set status to ChgStatus.Approved, update process markings and graph, )\n        uint totalRsp =1; //message sender is already ok \n        \n        for ( \n                uint256 id = 0;\n                id < changeRequests[myHash].endorsers.length;\n                id++\n            ) {\n                if((changeRequests[myHash].changeEndorsement[id] == 1)){\n                     totalRsp = totalRsp+1;\n                }\n            }\n            \n        if (totalRsp == changeRequests[myHash].numEndorsers){\n            Test.test  = 'approved by all endorsers';\n            changeRequests[myHash].status == ChgStatus.Init;\n            emit AcceptChangeAll(changeRequests[myHash].reqHash);\n            \n            // reinit chgEndorsement (?)\n            // TODO update process markings and graph\n\n        }\n    }\n    function updateTableOnAddress(address myAddress, address[] memory myAddresses, string memory myHash, uint myDecision) public payable{\n        for (\n                uint256 id = 0;\n                id < myAddresses.length;\n                id++\n            ) {\n                if((myAddress == myAddresses[id])){\n                    changeRequests[myHash].changeEndorsement[id] = myDecision;\n                }\n            }   \n    }\n    function endorserRSP(address myAddress, string memory curr_hash, string memory req_hash, uint rsp) public payable returns (string memory) {\n        \n        if(changeRequests[curr_hash].status == ChgStatus.BeingProcessed){\n            Test.test  = 'enteringNode';\n            // accept: emit decision and update change memory\n            if (rsp==1){\n                updateTableOnAddress(myAddress,changeRequests[curr_hash].endorsers, curr_hash,1);\n                Test.test  = 'approved by one person';\n                emit AcceptChange(req_hash, myAddress);\n                finalApprovalManager(curr_hash);\n            }         \n            \n            // declineapprovalOutcomes\n            else if (rsp == 2){\n                Test.test  = 'declined';\n                changeRequests[curr_hash].status = ChgStatus.Init;\n                emit DeclineChange(req_hash, myAddress);\n            }\n            \n            else {\n                emit RSPErrorChange(req_hash, myAddress, 'wrong rsp answer');\n            }\n\n            return 'RSP processed';\n        }\n\n        else{\n            return 'RSP not applicable here (already processed?)';\n        }    \n    }\n\n    ////////////// Accepted Changes post treatment //////////////\n\n\n\n\n    function getChangeApprovalsOutcome(string memory _hash)\n        public\n        view\n        returns (uint[] memory)\n    {\n        return (changeRequests[_hash].approvalOutcomes);\n    }\n\n    function hasApprovedProjection(string memory _hash, address myAddress)\n        public\n        view\n        returns (uint)\n    {\n        //uint res = 0;\n        for (\n            uint256 id = 0;\n            id < changeRequests[_hash].endorsers.length;\n            id++\n        ) {\n            if((myAddress == changeRequests[_hash].endorsers[id]) && changeRequests[_hash].approvalOutcomes[id] == 1){\n                return 1;\n            }\n        }\n        return 0;\n    }\n\n    /** @dev post private projection approval function.\n      * @param _hash index of the workflow (eg 0 for the first workflow).\n      * @param myAddress address of the sender (necessary for web3js dev).\n      * @return list of approval outcomes.\n      */\n    function confirmChangeProjection(string memory _hash, address myAddress) public payable returns (uint[] memory){\n        // get id of approvalList.addresses corresponding to msgSender. If (approval[id]==0): set to one;\n\n        Test.testBis='A';\n\n        require(myAddress==msg.sender, \"Must be role owner.\");\n        Test.testBis='B';\n\n        for (\n            uint256 id = 0;\n            id < changeRequests[_hash].endorsers.length;\n            id++\n        ) {\n            Test.testBis='C';\n\n            if((myAddress == changeRequests[_hash].endorsers[id]) ){ \n\n                Test.testBis='approval stage 1';\n                if(changeRequests[_hash].approvalOutcomes[id] != 1){ // must not have approved before\n                    changeRequests[_hash].approvalOutcomes[id] = 1;\n                    emit LogWorkflowProjection(_hash, myAddress);\n                    Test.testBis='approval stage 2';\n                    if(LibPublicDCRM.evaluateChgApproval(changeRequests[_hash].approvalOutcomes, changeRequests[_hash].numEndorsers)==1){\n                        changeRequests[_hash].status = ChgStatus.Approved;\n                    }\n                    return changeRequests[_hash].approvalOutcomes;\n                }\n            }\n        }\n        \n        return changeRequests[_hash].approvalOutcomes;\n    }  \n\n    function switchWorkflows(string memory _hash, uint256[][] memory _markingStates,\n            uint256[][][] memory _relations,   \n            string[] memory _activityNames, \n            address[] memory _roleAddresses\n) public payable returns (string memory){\n\n        require((msg.sender==changeRequests[_hash].initiator) && \n        (LibPublicDCRM.evaluateChgApproval(changeRequests[_hash].approvalOutcomes, changeRequests[_hash].numEndorsers)==1));\n        \n        uploadPublicView(\n            // packed state variables\n            _markingStates,\n            changeRequests[_hash].reqHash,\n\n            //process information\n            _roleAddresses,\n            _roleAddresses,\n\n            _activityNames,         \n            workflows[_hash].name,                 \n\n            // relations\n            _relations\n\n            //changeRequests[_hash].publicData\n\n            );\n\n            changeRequests[_hash].status=ChgStatus.Switched;\n            \n\n            return 'switch done';\n    }\n\n    ///////////////// Public-to-local Projections ////////////////////////\n\n\n    /** @dev Getter for workflow.\n      * @param _hash index of the workflow (eg 0 for the first workflow).\n      * @param myAddress sender adddress (must be registered to fetch the workflow).\n      * @return workflow, update didFetch variable to one.\n      */\n    function fetchPublicView(string memory _hash, address myAddress)\n        public\n        payable\n        returns (string memory)\n    {\n        \n        require(msg.sender == myAddress, 'wrongAddress');\n        \n        // update the didFetch variable\n        for (\n            uint256 id = 0;\n            id < workflows[_hash].approvalAddresses.length;\n            id++\n        ) {\n            if((myAddress == workflows[_hash].approvalAddresses[id]) && workflows[_hash].didFetch[id] != 1){\n                workflows[_hash].didFetch[id] = 1;\n                }\n        }\n        \n        return workflows[_hash].ipfsViewHash;\n    }\n\n    function getApprovalsOutcome(string memory _hash)\n        public\n        view\n        returns (uint[] memory)\n    {\n        return (workflows[_hash].approvalOutcomes);\n    }\n\n    function hasApproved(string memory _hash, address myAddress)\n        public\n        view\n        returns (uint)\n    {\n        //uint res = 0;\n        for (\n            uint256 id = 0;\n            id < workflows[_hash].approvalAddresses.length;\n            id++\n        ) {\n            if((myAddress == workflows[_hash].approvalAddresses[id]) && workflows[_hash].approvalOutcomes[id] == 1){\n                return 1;\n            }\n        }\n        return 0;\n    }\n\n    /** @dev post private projection approval function.\n      * @param _hash index of the workflow (eg 0 for the first workflow).\n      * @param myAddress address of the sender (necessary for web3js dev).\n      * @return list of approval outcomes.\n      */\n    function confirmProjection(string memory _hash, address myAddress) public payable returns (uint[] memory){\n        // get id of approvalList.addresses corresponding to msgSender. If (approval[id]==0): set to one;\n        \n        require(myAddress==msg.sender, \"Must be role owner.\");\n\n        for (\n            uint256 id = 0;\n            id < workflows[_hash].approvalAddresses.length;\n            id++\n        ) {\n            if((myAddress == workflows[_hash].approvalAddresses[id]) && workflows[_hash].didFetch[id] == 1){ // must have fetched public view\n                if(workflows[_hash].approvalOutcomes[id] != 1){ // must not have approved before\n                    workflows[_hash].approvalOutcomes[id] = 1;\n                    emit LogWorkflowProjection(_hash, myAddress);\n                    return workflows[_hash].approvalOutcomes;\n                }\n            }\n        }\n        \n        return workflows[_hash].approvalOutcomes;\n    }  \n\n    ///////////////// Execution functions /////////////////////////\n\n    function canExecute(string memory _hash, uint256 activityId, address msgSender)\n        public\n        returns (bool)\n    {\n        // check if msg.sender address is correct\n        if (msgSender != workflows[_hash].roleAddresses[activityId]) {\n            workflows[_hash].execStatus.canExecuteCheck = 4;\n            return false;\n        }\n        \n        // activity must be included\n        if (workflows[_hash].markings.included[activityId] == 0) {\n            workflows[_hash].execStatus.canExecuteCheck = 1;\n            return false;\n        }\n\n        // all conditions executed\n        for (\n            uint256 id = 0;\n            id < workflows[_hash].relations[3].length;\n            id++\n        ) {\n            uint256[] memory conditionsRow =\n                workflows[_hash].relations[3][id];\n            if (conditionsRow[activityId] == 1) {\n                if (\n                    (workflows[_hash].markings.executed[id] == 0) &&\n                    (workflows[_hash].markings.included[id] == 1)\n                ) {\n                    workflows[_hash].execStatus.canExecuteCheck = 2;\n                    return false;\n                }\n            }\n        }\n\n        // no milestones pending\n        for (\n            uint256 id = 0;\n            id < workflows[_hash].relations[4].length; // milestonesFrom\n            id++\n        ) {\n            uint256[] memory milestonesRow =\n                workflows[_hash].relations[4][id];\n            if (milestonesRow[activityId] == 1) {\n                if (\n                    (workflows[_hash].markings.pending[id] == 1) &&\n                    (workflows[_hash].markings.included[id] == 1)\n                ) {\n                    workflows[_hash].execStatus.canExecuteCheck = 3;\n                    return false;\n                }\n            }\n        }\n\n        workflows[_hash].execStatus.canExecuteCheck = 0;\n        return true;\n    }\n\n    function checkCliquedIndex(string memory _hash, uint256 activityId)\n        public\n    //        bytes memory ipfsHash\n    {\n        if (!canExecute(_hash, activityId, msg.sender)) {\n            workflows[_hash].execStatus.status = 1;\n            emit LogExecution(_hash, activityId,1);\n\n            //revert();\n        } else {\n            // executed activity\n            workflows[_hash].markings.executed[activityId] = 1;\n            workflows[_hash].markings.pending[activityId] = 0;\n            //            workflows[workflowId].ipfsActivityHashes[activityId] = ipfsHash;\n\n            uint256[] memory exclude_vect_check =\n                workflows[_hash].relations[1][activityId]; // excludes\n            uint256[] memory response_vect_check =\n                workflows[_hash].relations[2][activityId]; // responsesTo\n\n            // add include relations\n            uint256[] memory include_vect_check =\n                workflows[_hash].relations[0][activityId]; // includes\n\n            // update with condition relations ok\n            uint256[] memory conditionsTo =\n                workflows[_hash].relations[3][activityId]; //extract row condition\n            for (uint256 id = 0; id < conditionsTo.length; id++) {\n                if (conditionsTo[id] == 1) {\n                    include_vect_check[id] = 1;\n                }\n            }\n\n            for (\n                uint256 id = 0;\n                id < workflows[_hash].relations[1].length; // excludesTo\n                id++\n            ) {\n                // exclude and include relations pass\n                // note includes happens after the exclude pass\n                // included = (included & ~excludesTo[activityId]) | includesTo[activityId];\n                if (\n                    (exclude_vect_check[id] != 1) &&\n                    (include_vect_check[id] == 1)\n                ) {\n                    workflows[_hash].markings.included[id] = 1;\n                }\n\n                // response relations pass\n                // pending = (pending | responsesTo[activityId]);\n                if (response_vect_check[id] == 1) {\n                    workflows[_hash].markings.pending[id] = 1;\n                    workflows[_hash].markings.included[id] = 1;\n                }\n            }\n\n            emit LogExecution(_hash, activityId,0);\n\n            workflows[_hash].execStatus.status = 1;\n        }\n    }\n\n\n    ///////////////// Workflow creation /////////////////////////\n\n    function uploadPublicView(\n        // packed state variables\n        uint256[][] memory markingStates, // included, executed, pending\n\n        string memory _ipfsViewHash,\n\n        //process information\n        address[] memory _roleAddresses,\n        address[] memory _approvalAddresses,\n\n        string[] memory _activityNames,\n        string memory _name,\n\n        // relations\n        uint256[][][] memory _relations // includesto, excludesto, responsesto, conditionsfrom, milestonesFrom,\n\n    ) public payable {\n        \n        \n        Activity memory execStatus = Activity(0, 0);\n        Marking memory markings = Marking(markingStates[0],markingStates[1],markingStates[2]);\n        Workflow memory wf =\n            Workflow(\n                _name,\n                ChgStatus.Init,\n                _ipfsViewHash,\n                markings,\n                _roleAddresses,\n                _activityNames,\n                new bytes[](markingStates[0].length),\n                markingStates[0].length,\n                _relations,\n                _approvalAddresses,\n                new uint[](_approvalAddresses.length),\n                new uint[](_approvalAddresses.length),\n                execStatus\n                //_publicData\n            );\n        workflows[_ipfsViewHash]=wf;\n        registeredViewHashes.push(_ipfsViewHash);\n\n        ChangeRequest memory chgReq = ChangeRequest(\n            _ipfsViewHash,\n            '', \n            ChgStatus.Init,\n            address(0), \n            0, \n            new address[](_approvalAddresses.length),\n            new uint[](_approvalAddresses.length),\n            new uint[](_approvalAddresses.length),\n            new uint[](_approvalAddresses.length)\n        );       \n\n        changeRequests[_ipfsViewHash]=chgReq;\n\n        emit LogWorkflowCreation(wf.ipfsViewHash, msg.sender);\n\n    }\n\n\n\n}\n",
  "sourcePath": "/home/qlwf4652/Downloads/project/adaptiveChangeDCR/contracts/PublicDCRManager.sol",
  "compiler": {
    "name": "solc",
    "version": "0.5.16+commit.9c3226ce.Emscripten.clang"
  },
  "schemaVersion": "3.4.5",
  "updatedAt": "2022-03-02T10:31:11.085Z",
  "networkType": "ethereum",
  "devdoc": {
    "methods": {
      "confirmChangeProjection(string,address)": {
        "details": "post private projection approval function.",
        "params": {
          "_hash": "index of the workflow (eg 0 for the first workflow).",
          "myAddress": "address of the sender (necessary for web3js dev)."
        },
        "return": "list of approval outcomes."
      },
      "confirmProjection(string,address)": {
        "details": "post private projection approval function.",
        "params": {
          "_hash": "index of the workflow (eg 0 for the first workflow).",
          "myAddress": "address of the sender (necessary for web3js dev)."
        },
        "return": "list of approval outcomes."
      },
      "fetchPublicView(string,address)": {
        "details": "Getter for workflow.",
        "params": {
          "_hash": "index of the workflow (eg 0 for the first workflow).",
          "myAddress": "sender adddress (must be registered to fetch the workflow)."
        },
        "return": "workflow, update didFetch variable to one."
      },
      "getCanExecuteCheck(string)": {
        "details": "Getter for workflow execution status.",
        "params": {
          "_hash": "index of the workflow (eg 0 for the first workflow)."
        },
        "return": "execution status of the task: 0=ok, 1= "
      },
      "requestChange(address,address[],string,string,string)": {
        "details": "manages change requests: if a request is already ongoing, cancel. Else, create a new change request and notify endorsers.",
        "params": {
          "_hashes": "concatenated string of current wkf and request wkf ipfs hashes (ref to the public view)",
          "curr_hash": "current ipfs wkf hash",
          "req_hash": "ipfs hash of requested change description",
          "toNotify": "list of endorser addreses."
        },
        "return": "processing decision."
      }
    }
  },
  "userdoc": {
    "methods": {
      "canExecute(string,uint256,address)": {
        "notice": "////////////// Execution functions /////////////////////////"
      },
      "getAllWKHashes()": {
        "notice": "////////////// Getters ////////////////////////"
      },
      "getChangeApprovalsOutcome(string)": {
        "notice": "/////////// Accepted Changes post treatment //////////////"
      },
      "uploadPublicView(uint256[][],string,address[],address[],string[],string,uint256[][][])": {
        "notice": "////////////// Workflow creation /////////////////////////"
      }
    }
  }
}