{
  "contractName": "PublicDCRManager",
  "abi": [
    {
      "anonymous": false,
      "inputs": [
        {
          "indexed": true,
          "internalType": "string",
          "name": "workflowHash",
          "type": "string"
        },
        {
          "indexed": true,
          "internalType": "uint256",
          "name": "activityId",
          "type": "uint256"
        },
        {
          "indexed": true,
          "internalType": "address",
          "name": "executor",
          "type": "address"
        }
      ],
      "name": "LogExecution",
      "type": "event"
    },
    {
      "anonymous": false,
      "inputs": [
        {
          "indexed": true,
          "internalType": "string",
          "name": "workflowHash",
          "type": "string"
        },
        {
          "indexed": true,
          "internalType": "address",
          "name": "creator",
          "type": "address"
        }
      ],
      "name": "LogWorkflowCreation",
      "type": "event"
    },
    {
      "anonymous": false,
      "inputs": [
        {
          "indexed": true,
          "internalType": "string",
          "name": "workflowHash",
          "type": "string"
        },
        {
          "indexed": true,
          "internalType": "address",
          "name": "creator",
          "type": "address"
        }
      ],
      "name": "LogWorkflowProjection",
      "type": "event"
    },
    {
      "constant": true,
      "inputs": [],
      "name": "getAllWKHashes",
      "outputs": [
        {
          "internalType": "string[]",
          "name": "",
          "type": "string[]"
        }
      ],
      "payable": false,
      "stateMutability": "view",
      "type": "function"
    },
    {
      "constant": false,
      "inputs": [
        {
          "internalType": "string",
          "name": "_hash",
          "type": "string"
        },
        {
          "internalType": "string",
          "name": "x",
          "type": "string"
        }
      ],
      "name": "sendHash",
      "outputs": [],
      "payable": false,
      "stateMutability": "nonpayable",
      "type": "function"
    },
    {
      "constant": true,
      "inputs": [
        {
          "internalType": "string",
          "name": "_hash",
          "type": "string"
        }
      ],
      "name": "getHash",
      "outputs": [
        {
          "internalType": "string",
          "name": "x",
          "type": "string"
        }
      ],
      "payable": false,
      "stateMutability": "view",
      "type": "function"
    },
    {
      "constant": false,
      "inputs": [
        {
          "internalType": "string",
          "name": "_hash",
          "type": "string"
        },
        {
          "internalType": "address",
          "name": "myAddress",
          "type": "address"
        }
      ],
      "name": "fetchPublicView",
      "outputs": [
        {
          "internalType": "string",
          "name": "",
          "type": "string"
        }
      ],
      "payable": true,
      "stateMutability": "payable",
      "type": "function"
    },
    {
      "constant": true,
      "inputs": [
        {
          "internalType": "string",
          "name": "_hash",
          "type": "string"
        }
      ],
      "name": "getWorkflowName",
      "outputs": [
        {
          "internalType": "string",
          "name": "",
          "type": "string"
        }
      ],
      "payable": false,
      "stateMutability": "view",
      "type": "function"
    },
    {
      "constant": true,
      "inputs": [
        {
          "internalType": "string",
          "name": "_hash",
          "type": "string"
        },
        {
          "internalType": "uint256",
          "name": "activityId",
          "type": "uint256"
        }
      ],
      "name": "getCanExecuteCheck",
      "outputs": [
        {
          "internalType": "uint32",
          "name": "",
          "type": "uint32"
        }
      ],
      "payable": false,
      "stateMutability": "view",
      "type": "function"
    },
    {
      "constant": true,
      "inputs": [
        {
          "internalType": "string",
          "name": "_hash",
          "type": "string"
        },
        {
          "internalType": "uint256",
          "name": "activityId",
          "type": "uint256"
        }
      ],
      "name": "getStatus",
      "outputs": [
        {
          "internalType": "uint256",
          "name": "",
          "type": "uint256"
        }
      ],
      "payable": false,
      "stateMutability": "view",
      "type": "function"
    },
    {
      "constant": true,
      "inputs": [
        {
          "internalType": "string",
          "name": "_hash",
          "type": "string"
        }
      ],
      "name": "getWkfLength",
      "outputs": [
        {
          "internalType": "uint256",
          "name": "",
          "type": "uint256"
        }
      ],
      "payable": false,
      "stateMutability": "view",
      "type": "function"
    },
    {
      "constant": true,
      "inputs": [
        {
          "internalType": "string",
          "name": "_hash",
          "type": "string"
        }
      ],
      "name": "getIncluded",
      "outputs": [
        {
          "internalType": "uint256[]",
          "name": "",
          "type": "uint256[]"
        }
      ],
      "payable": false,
      "stateMutability": "view",
      "type": "function"
    },
    {
      "constant": true,
      "inputs": [
        {
          "internalType": "string",
          "name": "_hash",
          "type": "string"
        }
      ],
      "name": "getExecuted",
      "outputs": [
        {
          "internalType": "uint256[]",
          "name": "",
          "type": "uint256[]"
        }
      ],
      "payable": false,
      "stateMutability": "view",
      "type": "function"
    },
    {
      "constant": true,
      "inputs": [
        {
          "internalType": "string",
          "name": "_hash",
          "type": "string"
        }
      ],
      "name": "getPending",
      "outputs": [
        {
          "internalType": "uint256[]",
          "name": "",
          "type": "uint256[]"
        }
      ],
      "payable": false,
      "stateMutability": "view",
      "type": "function"
    },
    {
      "constant": true,
      "inputs": [
        {
          "internalType": "string",
          "name": "_hash",
          "type": "string"
        }
      ],
      "name": "getConditionsFrom",
      "outputs": [
        {
          "internalType": "uint256[][]",
          "name": "",
          "type": "uint256[][]"
        }
      ],
      "payable": false,
      "stateMutability": "view",
      "type": "function"
    },
    {
      "constant": true,
      "inputs": [
        {
          "internalType": "string",
          "name": "_hash",
          "type": "string"
        }
      ],
      "name": "getHashes",
      "outputs": [
        {
          "internalType": "bytes[]",
          "name": "",
          "type": "bytes[]"
        }
      ],
      "payable": false,
      "stateMutability": "view",
      "type": "function"
    },
    {
      "constant": true,
      "inputs": [
        {
          "internalType": "string",
          "name": "_hash",
          "type": "string"
        },
        {
          "internalType": "uint256",
          "name": "activityId",
          "type": "uint256"
        }
      ],
      "name": "getActivityName",
      "outputs": [
        {
          "internalType": "string",
          "name": "",
          "type": "string"
        }
      ],
      "payable": false,
      "stateMutability": "view",
      "type": "function"
    },
    {
      "constant": true,
      "inputs": [
        {
          "internalType": "string",
          "name": "_hash",
          "type": "string"
        },
        {
          "internalType": "uint256",
          "name": "activityId",
          "type": "uint256"
        }
      ],
      "name": "getRoleAddresses",
      "outputs": [
        {
          "internalType": "address",
          "name": "",
          "type": "address"
        }
      ],
      "payable": false,
      "stateMutability": "view",
      "type": "function"
    },
    {
      "constant": true,
      "inputs": [
        {
          "internalType": "string",
          "name": "_hash",
          "type": "string"
        }
      ],
      "name": "getAddresses",
      "outputs": [
        {
          "internalType": "address[]",
          "name": "",
          "type": "address[]"
        }
      ],
      "payable": false,
      "stateMutability": "view",
      "type": "function"
    },
    {
      "constant": true,
      "inputs": [
        {
          "internalType": "string",
          "name": "_hash",
          "type": "string"
        }
      ],
      "name": "getApprovalsOutcome",
      "outputs": [
        {
          "internalType": "uint256[]",
          "name": "",
          "type": "uint256[]"
        }
      ],
      "payable": false,
      "stateMutability": "view",
      "type": "function"
    },
    {
      "constant": true,
      "inputs": [
        {
          "internalType": "string",
          "name": "_hash",
          "type": "string"
        },
        {
          "internalType": "address",
          "name": "myAddress",
          "type": "address"
        }
      ],
      "name": "hasApproved",
      "outputs": [
        {
          "internalType": "uint256",
          "name": "",
          "type": "uint256"
        }
      ],
      "payable": false,
      "stateMutability": "view",
      "type": "function"
    },
    {
      "constant": false,
      "inputs": [
        {
          "internalType": "string",
          "name": "_hash",
          "type": "string"
        },
        {
          "internalType": "uint256",
          "name": "activityId",
          "type": "uint256"
        },
        {
          "internalType": "address",
          "name": "msgSender",
          "type": "address"
        }
      ],
      "name": "canExecute",
      "outputs": [
        {
          "internalType": "bool",
          "name": "",
          "type": "bool"
        }
      ],
      "payable": false,
      "stateMutability": "nonpayable",
      "type": "function"
    },
    {
      "constant": false,
      "inputs": [
        {
          "internalType": "string",
          "name": "_hash",
          "type": "string"
        },
        {
          "internalType": "uint256",
          "name": "activityId",
          "type": "uint256"
        }
      ],
      "name": "checkCliquedIndex",
      "outputs": [],
      "payable": false,
      "stateMutability": "nonpayable",
      "type": "function"
    },
    {
      "constant": false,
      "inputs": [
        {
          "internalType": "uint256[][]",
          "name": "markingStates",
          "type": "uint256[][]"
        },
        {
          "internalType": "string",
          "name": "_ipfsViewHash",
          "type": "string"
        },
        {
          "internalType": "address[]",
          "name": "_roleAddresses",
          "type": "address[]"
        },
        {
          "internalType": "address[]",
          "name": "_approvalAddresses",
          "type": "address[]"
        },
        {
          "internalType": "string[]",
          "name": "_activityNames",
          "type": "string[]"
        },
        {
          "internalType": "string",
          "name": "_name",
          "type": "string"
        },
        {
          "internalType": "uint256[][][]",
          "name": "_relations",
          "type": "uint256[][][]"
        }
      ],
      "name": "uploadPublicView",
      "outputs": [],
      "payable": true,
      "stateMutability": "payable",
      "type": "function"
    },
    {
      "constant": false,
      "inputs": [
        {
          "internalType": "string",
          "name": "_hash",
          "type": "string"
        },
        {
          "internalType": "address",
          "name": "myAddress",
          "type": "address"
        }
      ],
      "name": "confirmProjection",
      "outputs": [
        {
          "internalType": "uint256[]",
          "name": "",
          "type": "uint256[]"
        }
      ],
      "payable": true,
      "stateMutability": "payable",
      "type": "function"
    }
  ],
  "bytecode": "0x608060405234801561001057600080fd5b50613d22806100206000396000f3fe6080604052600436106101355760003560e01c80636a554342116100ab5780638dce7dde1161006f5780638dce7dde146104bb5780639694f9fb146104f8578063cb2c951414610535578063cb89cdfd1461055e578063e9b2b8861461059b578063f89a3b10146105d857610135565b80636a554342146103ab5780636b9884dc146103e85780636cb4e345146104255780636f384bfc14610462578063827f95111461047e57610135565b80632c3c0f9c116100fd5780632c3c0f9c1461023d57806339b64c301461027a57806342b759fc146102b75780634e894b32146102f45780635b6beeb9146103315780636342b1c21461036e57610135565b806302413fd41461013a5780630c48ae99146101775780630ce36024146101a057806318008e57146101d05780631fe1317b14610200575b600080fd5b34801561014657600080fd5b50610161600480360361015c91908101906130ae565b610603565b60405161016e9190613807565b60405180910390f35b34801561018357600080fd5b5061019e60048036036101999190810190613143565b61067f565b005b6101ba60048036036101b591908101906130ef565b6106b9565b6040516101c79190613807565b60405180910390f35b6101ea60048036036101e591908101906130ef565b6109f7565b6040516101f79190613844565b60405180910390f35b34801561020c57600080fd5b50610227600480360361022291908101906130ae565b610c71565b60405161023491906138a6565b60405180910390f35b34801561024957600080fd5b50610264600480360361025f9190810190613203565b610cb5565b6040516102719190613829565b60405180910390f35b34801561028657600080fd5b506102a1600480360361029c91908101906130ae565b61123a565b6040516102ae919061377f565b60405180910390f35b3480156102c357600080fd5b506102de60048036036102d991908101906131af565b6112e9565b6040516102eb91906138a6565b60405180910390f35b34801561030057600080fd5b5061031b600480360361031691908101906130ae565b611318565b60405161032891906137a1565b60405180910390f35b34801561033d57600080fd5b50610358600480360361035391908101906130ae565b6113ee565b6040516103659190613844565b60405180910390f35b34801561037a57600080fd5b50610395600480360361039091908101906130ae565b6114b1565b6040516103a29190613807565b60405180910390f35b3480156103b757600080fd5b506103d260048036036103cd91908101906131af565b61152d565b6040516103df9190613844565b60405180910390f35b3480156103f457600080fd5b5061040f600480360361040a91908101906131af565b611606565b60405161041c91906138c1565b60405180910390f35b34801561043157600080fd5b5061044c600480360361044791908101906130ef565b611645565b60405161045991906138a6565b60405180910390f35b61047c60048036036104779190810190612f68565b611767565b005b34801561048a57600080fd5b506104a560048036036104a091908101906131af565b611b84565b6040516104b29190613764565b60405180910390f35b3480156104c757600080fd5b506104e260048036036104dd91908101906130ae565b611be5565b6040516104ef9190613844565b60405180910390f35b34801561050457600080fd5b5061051f600480360361051a91908101906130ae565b611ca8565b60405161052c91906137c3565b60405180910390f35b34801561054157600080fd5b5061055c600480360361055791908101906131af565b611db2565b005b34801561056a57600080fd5b50610585600480360361058091908101906130ae565b612332565b6040516105929190613807565b60405180910390f35b3480156105a757600080fd5b506105c260048036036105bd91908101906130ae565b6123ae565b6040516105cf9190613807565b60405180910390f35b3480156105e457600080fd5b506105ed612427565b6040516105fa91906137e5565b60405180910390f35b6060600182604051610615919061374d565b908152602001604051809103902060020160000180548060200260200160405190810160405280929190818152602001828054801561067357602002820191906000526020600020905b81548152602001906001019080831161065f575b50505050509050919050565b80600183604051610690919061374d565b908152602001604051809103902060010190805190602001906106b4929190612510565b505050565b60603373ffffffffffffffffffffffffffffffffffffffff168273ffffffffffffffffffffffffffffffffffffffff1614610729576040517f08c379a000000000000000000000000000000000000000000000000000000000815260040161072090613866565b60405180910390fd5b60008090505b60018460405161073f919061374d565b9081526020016040518091039020600a018054905081101561097d5760018460405161076b919061374d565b9081526020016040518091039020600a01818154811061078757fe5b9060005260206000200160009054906101000a900473ffffffffffffffffffffffffffffffffffffffff1673ffffffffffffffffffffffffffffffffffffffff168373ffffffffffffffffffffffffffffffffffffffff161480156108215750600180856040516107f8919061374d565b9081526020016040518091039020600c01828154811061081457fe5b9060005260206000200154145b156109705760018085604051610837919061374d565b9081526020016040518091039020600b01828154811061085357fe5b90600052602060002001541461096f5760018085604051610874919061374d565b9081526020016040518091039020600b01828154811061089057fe5b90600052602060002001819055508273ffffffffffffffffffffffffffffffffffffffff16846040516108c3919061374d565b60405180910390207fef93748ef353323feced9a53b1f9433297bf50235a9d5aa97783d3f30d4682e460405160405180910390a3600184604051610907919061374d565b9081526020016040518091039020600b0180548060200260200160405190810160405280929190818152602001828054801561096257602002820191906000526020600020905b81548152602001906001019080831161094e575b50505050509150506109f1565b5b808060010191505061072f565b5060018360405161098e919061374d565b9081526020016040518091039020600b018054806020026020016040519081016040528092919081815260200182805480156109e957602002820191906000526020600020905b8154815260200190600101908083116109d5575b505050505090505b92915050565b60608173ffffffffffffffffffffffffffffffffffffffff163373ffffffffffffffffffffffffffffffffffffffff1614610a67576040517f08c379a0000000000000000000000000000000000000000000000000000000008152600401610a5e90613886565b60405180910390fd5b60008090505b600184604051610a7d919061374d565b9081526020016040518091039020600a0180549050811015610bae57600184604051610aa9919061374d565b9081526020016040518091039020600a018181548110610ac557fe5b9060005260206000200160009054906101000a900473ffffffffffffffffffffffffffffffffffffffff1673ffffffffffffffffffffffffffffffffffffffff168373ffffffffffffffffffffffffffffffffffffffff16148015610b60575060018085604051610b36919061374d565b9081526020016040518091039020600c018281548110610b5257fe5b906000526020600020015414155b15610ba15760018085604051610b76919061374d565b9081526020016040518091039020600c018281548110610b9257fe5b90600052602060002001819055505b8080600101915050610a6d565b50600183604051610bbf919061374d565b90815260200160405180910390206001018054600181600116156101000203166002900480601f016020809104026020016040519081016040528092919081815260200182805460018160011615610100020316600290048015610c645780601f10610c3957610100808354040283529160200191610c64565b820191906000526020600020905b815481529060010190602001808311610c4757829003601f168201915b5050505050905092915050565b6000600182604051610c83919061374d565b9081526020016040518091039020600901600081548110610ca057fe5b90600052602060002001805490509050919050565b6000600184604051610cc7919061374d565b90815260200160405180910390206005018381548110610ce357fe5b9060005260206000200160009054906101000a900473ffffffffffffffffffffffffffffffffffffffff1673ffffffffffffffffffffffffffffffffffffffff168273ffffffffffffffffffffffffffffffffffffffff1614610d8d576004600185604051610d52919061374d565b9081526020016040518091039020600d0160000160006101000a81548163ffffffff021916908363ffffffff16021790555060009050611233565b6000600185604051610d9f919061374d565b90815260200160405180910390206002016000018481548110610dbe57fe5b90600052602060002001541415610e1b5760018085604051610de0919061374d565b9081526020016040518091039020600d0160000160006101000a81548163ffffffff021916908363ffffffff16021790555060009050611233565b60008090505b600185604051610e31919061374d565b9081526020016040518091039020600901600381548110610e4e57fe5b9060005260206000200180549050811015611002576060600186604051610e75919061374d565b9081526020016040518091039020600901600381548110610e9257fe5b906000526020600020018281548110610ea757fe5b90600052602060002001805480602002602001604051908101604052809291908181526020018280548015610efb57602002820191906000526020600020905b815481526020019060010190808311610ee7575b505050505090506001818681518110610f1057fe5b60200260200101511415610ff4576000600187604051610f30919061374d565b90815260200160405180910390206002016001018381548110610f4f57fe5b9060005260206000200154148015610f9f575060018087604051610f73919061374d565b90815260200160405180910390206002016000018381548110610f9257fe5b9060005260206000200154145b15610ff3576002600187604051610fb6919061374d565b9081526020016040518091039020600d0160000160006101000a81548163ffffffff021916908363ffffffff160217905550600092505050611233565b5b508080600101915050610e21565b5060008090505b600185604051611019919061374d565b908152602001604051809103902060090160048154811061103657fe5b90600052602060002001805490508110156111e957606060018660405161105d919061374d565b908152602001604051809103902060090160048154811061107a57fe5b90600052602060002001828154811061108f57fe5b906000526020600020018054806020026020016040519081016040528092919081815260200182805480156110e357602002820191906000526020600020905b8154815260200190600101908083116110cf575b5050505050905060018186815181106110f857fe5b602002602001015114156111db5760018087604051611117919061374d565b9081526020016040518091039020600201600201838154811061113657fe5b906000526020600020015414801561118657506001808760405161115a919061374d565b9081526020016040518091039020600201600001838154811061117957fe5b9060005260206000200154145b156111da57600360018760405161119d919061374d565b9081526020016040518091039020600d0160000160006101000a81548163ffffffff021916908363ffffffff160217905550600092505050611233565b5b508080600101915050611009565b5060006001856040516111fc919061374d565b9081526020016040518091039020600d0160000160006101000a81548163ffffffff021916908363ffffffff160217905550600190505b9392505050565b606060018260405161124c919061374d565b9081526020016040518091039020600a018054806020026020016040519081016040528092919081815260200182805480156112dd57602002820191906000526020600020905b8160009054906101000a900473ffffffffffffffffffffffffffffffffffffffff1673ffffffffffffffffffffffffffffffffffffffff1681526020019060010190808311611293575b50505050509050919050565b60006001836040516112fb919061374d565b9081526020016040518091039020600d0160010154905092915050565b606060018260405161132a919061374d565b908152602001604051809103902060090160038154811061134757fe5b90600052602060002001805480602002602001604051908101604052809291908181526020016000905b828210156113e3578382906000526020600020018054806020026020016040519081016040528092919081815260200182805480156113cf57602002820191906000526020600020905b8154815260200190600101908083116113bb575b505050505081526020019060010190611371565b505050509050919050565b6060600182604051611400919061374d565b90815260200160405180910390206001018054600181600116156101000203166002900480601f0160208091040260200160405190810160405280929190818152602001828054600181600116156101000203166002900480156114a55780601f1061147a576101008083540402835291602001916114a5565b820191906000526020600020905b81548152906001019060200180831161148857829003601f168201915b50505050509050919050565b60606001826040516114c3919061374d565b908152602001604051809103902060020160010180548060200260200160405190810160405280929190818152602001828054801561152157602002820191906000526020600020905b81548152602001906001019080831161150d575b50505050509050919050565b606060018360405161153f919061374d565b9081526020016040518091039020600601828154811061155b57fe5b906000526020600020018054600181600116156101000203166002900480601f0160208091040260200160405190810160405280929190818152602001828054600181600116156101000203166002900480156115f95780601f106115ce576101008083540402835291602001916115f9565b820191906000526020600020905b8154815290600101906020018083116115dc57829003601f168201915b5050505050905092915050565b6000600183604051611618919061374d565b9081526020016040518091039020600d0160000160009054906101000a900463ffffffff16905092915050565b600080600090505b60018460405161165d919061374d565b9081526020016040518091039020600a018054905081101561175b57600184604051611689919061374d565b9081526020016040518091039020600a0181815481106116a557fe5b9060005260206000200160009054906101000a900473ffffffffffffffffffffffffffffffffffffffff1673ffffffffffffffffffffffffffffffffffffffff168373ffffffffffffffffffffffffffffffffffffffff1614801561173f575060018085604051611716919061374d565b9081526020016040518091039020600b01828154811061173257fe5b9060005260206000200154145b1561174e576001915050611761565b808060010191505061164d565b50600090505b92915050565b61176f612590565b6040518060400160405280600063ffffffff168152602001600081525090506117966125b0565b60405180606001604052808a6000815181106117ae57fe5b602002602001015181526020018a6001815181106117c857fe5b602002602001015181526020018a6002815181106117e257fe5b602002602001015181525090506117f76125d1565b6040518061018001604052808681526020018a81526020018381526020018981526020018781526020018b60008151811061182e57fe5b60200260200101515160405190808252806020026020018201604052801561186a57816020015b60608152602001906001900390816118555790505b5081526020018b60008151811061187d57fe5b602002602001015151815260200185815260200188815260200188516040519080825280602002602001820160405280156118c75781602001602082028038833980820191505090505b50815260200188516040519080825280602002602001820160405280156118fd5781602001602082028038833980820191505090505b5081526020018481525090508060018a60405161191a919061374d565b9081526020016040518091039020600082015181600001908051906020019061194492919061263e565b50602082015181600101908051906020019061196192919061263e565b5060408201518160020160008201518160000190805190602001906119879291906126be565b5060208201518160010190805190602001906119a49291906126be565b5060408201518160020190805190602001906119c19291906126be565b50505060608201518160050190805190602001906119e092919061270b565b5060808201518160060190805190602001906119fd929190612795565b5060a0820151816007019080519060200190611a1a9291906127f5565b5060c0820151816008015560e0820151816009019080519060200190611a41929190612855565b5061010082015181600a019080519060200190611a5f92919061270b565b5061012082015181600b019080519060200190611a7d9291906126be565b5061014082015181600c019080519060200190611a9b9291906126be565b5061016082015181600d0160008201518160000160006101000a81548163ffffffff021916908363ffffffff1602179055506020820151816001015550509050506000899080600181540180825580915050906001820390600052602060002001600090919290919091509080519060200190611b19929190612510565b50503373ffffffffffffffffffffffffffffffffffffffff168160200151604051611b449190613736565b60405180910390207fc42dc8c6712875975b09ece703779e4ed83179500da5c8776b1eab681e04c7fa60405160405180910390a350505050505050505050565b6000600183604051611b96919061374d565b90815260200160405180910390206005018281548110611bb257fe5b9060005260206000200160009054906101000a900473ffffffffffffffffffffffffffffffffffffffff16905092915050565b6060600182604051611bf7919061374d565b90815260200160405180910390206000018054600181600116156101000203166002900480601f016020809104026020016040519081016040528092919081815260200182805460018160011615610100020316600290048015611c9c5780601f10611c7157610100808354040283529160200191611c9c565b820191906000526020600020905b815481529060010190602001808311611c7f57829003601f168201915b50505050509050919050565b6060600182604051611cba919061374d565b9081526020016040518091039020600701805480602002602001604051908101604052809291908181526020016000905b82821015611da7578382906000526020600020018054600181600116156101000203166002900480601f016020809104026020016040519081016040528092919081815260200182805460018160011615610100020316600290048015611d935780601f10611d6857610100808354040283529160200191611d93565b820191906000526020600020905b815481529060010190602001808311611d7657829003601f168201915b505050505081526020019060010190611ceb565b505050509050919050565b611dbd828233610cb5565b611def5760018083604051611dd2919061374d565b9081526020016040518091039020600d016001018190555061232e565b60018083604051611e00919061374d565b90815260200160405180910390206002016001018281548110611e1f57fe5b90600052602060002001819055506000600183604051611e3f919061374d565b90815260200160405180910390206002016002018281548110611e5e57fe5b90600052602060002001819055506060600183604051611e7e919061374d565b9081526020016040518091039020600901600181548110611e9b57fe5b906000526020600020018281548110611eb057fe5b90600052602060002001805480602002602001604051908101604052809291908181526020018280548015611f0457602002820191906000526020600020905b815481526020019060010190808311611ef0575b505050505090506060600184604051611f1d919061374d565b9081526020016040518091039020600901600281548110611f3a57fe5b906000526020600020018381548110611f4f57fe5b90600052602060002001805480602002602001604051908101604052809291908181526020018280548015611fa357602002820191906000526020600020905b815481526020019060010190808311611f8f575b505050505090506060600185604051611fbc919061374d565b9081526020016040518091039020600901600081548110611fd957fe5b906000526020600020018481548110611fee57fe5b9060005260206000200180548060200260200160405190810160405280929190818152602001828054801561204257602002820191906000526020600020905b81548152602001906001019080831161202e575b50505050509050606060018660405161205b919061374d565b908152602001604051809103902060090160038154811061207857fe5b90600052602060002001858154811061208d57fe5b906000526020600020018054806020026020016040519081016040528092919081815260200182805480156120e157602002820191906000526020600020905b8154815260200190600101908083116120cd575b5050505050905060008090505b815181101561213b57600182828151811061210557fe5b6020026020010151141561212e57600183828151811061212157fe5b6020026020010181815250505b80806001019150506120ee565b5060008090505b600187604051612152919061374d565b908152602001604051809103902060090160018154811061216f57fe5b90600052602060002001805490508110156122a557600185828151811061219257fe5b6020026020010151141580156121bb575060018382815181106121b157fe5b6020026020010151145b156121ff57600180886040516121d1919061374d565b908152602001604051809103902060020160000182815481106121f057fe5b90600052602060002001819055505b600184828151811061220d57fe5b60200260200101511415612298576001808860405161222c919061374d565b9081526020016040518091039020600201600201828154811061224b57fe5b90600052602060002001819055506001808860405161226a919061374d565b9081526020016040518091039020600201600001828154811061228957fe5b90600052602060002001819055505b8080600101915050612142565b503373ffffffffffffffffffffffffffffffffffffffff1685876040516122cc919061374d565b60405180910390207fdcc419af849b47f6b77090192f4d45ebaef7057509a466bbbce51f396b898c0360405160405180910390a460018087604051612311919061374d565b9081526020016040518091039020600d0160010181905550505050505b5050565b6060600182604051612344919061374d565b90815260200160405180910390206002016002018054806020026020016040519081016040528092919081815260200182805480156123a257602002820191906000526020600020905b81548152602001906001019080831161238e575b50505050509050919050565b60606001826040516123c0919061374d565b9081526020016040518091039020600b0180548060200260200160405190810160405280929190818152602001828054801561241b57602002820191906000526020600020905b815481526020019060010190808311612407575b50505050509050919050565b60606000805480602002602001604051908101604052809291908181526020016000905b82821015612507578382906000526020600020018054600181600116156101000203166002900480601f0160208091040260200160405190810160405280929190818152602001828054600181600116156101000203166002900480156124f35780601f106124c8576101008083540402835291602001916124f3565b820191906000526020600020905b8154815290600101906020018083116124d657829003601f168201915b50505050508152602001906001019061244b565b50505050905090565b828054600181600116156101000203166002900490600052602060002090601f016020900481019282601f1061255157805160ff191683800117855561257f565b8280016001018555821561257f579182015b8281111561257e578251825591602001919060010190612563565b5b50905061258c91906128b5565b5090565b6040518060400160405280600063ffffffff168152602001600081525090565b60405180606001604052806060815260200160608152602001606081525090565b60405180610180016040528060608152602001606081526020016125f36128da565b815260200160608152602001606081526020016060815260200160008152602001606081526020016060815260200160608152602001606081526020016126386128fb565b81525090565b828054600181600116156101000203166002900490600052602060002090601f016020900481019282601f1061267f57805160ff19168380011785556126ad565b828001600101855582156126ad579182015b828111156126ac578251825591602001919060010190612691565b5b5090506126ba91906128b5565b5090565b8280548282559060005260206000209081019282156126fa579160200282015b828111156126f95782518255916020019190600101906126de565b5b50905061270791906128b5565b5090565b828054828255906000526020600020908101928215612784579160200282015b828111156127835782518260006101000a81548173ffffffffffffffffffffffffffffffffffffffff021916908373ffffffffffffffffffffffffffffffffffffffff1602179055509160200191906001019061272b565b5b509050612791919061291b565b5090565b8280548282559060005260206000209081019282156127e4579160200282015b828111156127e35782518290805190602001906127d392919061263e565b50916020019190600101906127b5565b5b5090506127f1919061295e565b5090565b828054828255906000526020600020908101928215612844579160200282015b8281111561284357825182908051906020019061283392919061298a565b5091602001919060010190612815565b5b5090506128519190612a0a565b5090565b8280548282559060005260206000209081019282156128a4579160200282015b828111156128a3578251829080519060200190612893929190612a36565b5091602001919060010190612875565b5b5090506128b19190612a96565b5090565b6128d791905b808211156128d35760008160009055506001016128bb565b5090565b90565b60405180606001604052806060815260200160608152602001606081525090565b6040518060400160405280600063ffffffff168152602001600081525090565b61295b91905b8082111561295757600081816101000a81549073ffffffffffffffffffffffffffffffffffffffff021916905550600101612921565b5090565b90565b61298791905b80821115612983576000818161297a9190612ac2565b50600101612964565b5090565b90565b828054600181600116156101000203166002900490600052602060002090601f016020900481019282601f106129cb57805160ff19168380011785556129f9565b828001600101855582156129f9579182015b828111156129f85782518255916020019190600101906129dd565b5b509050612a0691906128b5565b5090565b612a3391905b80821115612a2f5760008181612a269190612b0a565b50600101612a10565b5090565b90565b828054828255906000526020600020908101928215612a85579160200282015b82811115612a84578251829080519060200190612a749291906126be565b5091602001919060010190612a56565b5b509050612a929190612b52565b5090565b612abf91905b80821115612abb5760008181612ab29190612b7e565b50600101612a9c565b5090565b90565b50805460018160011615610100020316600290046000825580601f10612ae85750612b07565b601f016020900490600052602060002090810190612b0691906128b5565b5b50565b50805460018160011615610100020316600290046000825580601f10612b305750612b4f565b601f016020900490600052602060002090810190612b4e91906128b5565b5b50565b612b7b91905b80821115612b775760008181612b6e9190612b9f565b50600101612b58565b5090565b90565b5080546000825590600052602060002090810190612b9c9190612b52565b50565b5080546000825590600052602060002090810190612bbd91906128b5565b50565b600081359050612bcf81613cb1565b92915050565b600082601f830112612be657600080fd5b8135612bf9612bf482613909565b6138dc565b91508181835260208401935060208101905083856020840282011115612c1e57600080fd5b60005b83811015612c4e5781612c348882612bc0565b845260208401935060208301925050600181019050612c21565b5050505092915050565b600082601f830112612c6957600080fd5b8135612c7c612c7782613931565b6138dc565b9150818183526020840193506020810190508360005b83811015612cc25781358601612ca88882612ccc565b845260208401935060208301925050600181019050612c92565b5050505092915050565b600082601f830112612cdd57600080fd5b8135612cf0612ceb82613959565b6138dc565b9150818183526020840193506020810190508360005b83811015612d365781358601612d1c8882612e28565b845260208401935060208301925050600181019050612d06565b5050505092915050565b600082601f830112612d5157600080fd5b8135612d64612d5f82613981565b6138dc565b9150818183526020840193506020810190508360005b83811015612daa5781358601612d908882612e28565b845260208401935060208301925050600181019050612d7a565b5050505092915050565b600082601f830112612dc557600080fd5b8135612dd8612dd3826139a9565b6138dc565b9150818183526020840193506020810190508360005b83811015612e1e5781358601612e048882612eab565b845260208401935060208301925050600181019050612dee565b5050505092915050565b600082601f830112612e3957600080fd5b8135612e4c612e47826139d1565b6138dc565b91508181835260208401935060208101905083856020840282011115612e7157600080fd5b60005b83811015612ea15781612e878882612f53565b845260208401935060208301925050600181019050612e74565b5050505092915050565b600082601f830112612ebc57600080fd5b8135612ecf612eca826139f9565b6138dc565b91508082526020830160208301858383011115612eeb57600080fd5b612ef6838284613c5e565b50505092915050565b600082601f830112612f1057600080fd5b8135612f23612f1e82613a25565b6138dc565b91508082526020830160208301858383011115612f3f57600080fd5b612f4a838284613c5e565b50505092915050565b600081359050612f6281613cc8565b92915050565b600080600080600080600060e0888a031215612f8357600080fd5b600088013567ffffffffffffffff811115612f9d57600080fd5b612fa98a828b01612d40565b975050602088013567ffffffffffffffff811115612fc657600080fd5b612fd28a828b01612eff565b965050604088013567ffffffffffffffff811115612fef57600080fd5b612ffb8a828b01612bd5565b955050606088013567ffffffffffffffff81111561301857600080fd5b6130248a828b01612bd5565b945050608088013567ffffffffffffffff81111561304157600080fd5b61304d8a828b01612db4565b93505060a088013567ffffffffffffffff81111561306a57600080fd5b6130768a828b01612eff565b92505060c088013567ffffffffffffffff81111561309357600080fd5b61309f8a828b01612c58565b91505092959891949750929550565b6000602082840312156130c057600080fd5b600082013567ffffffffffffffff8111156130da57600080fd5b6130e684828501612eff565b91505092915050565b6000806040838503121561310257600080fd5b600083013567ffffffffffffffff81111561311c57600080fd5b61312885828601612eff565b925050602061313985828601612bc0565b9150509250929050565b6000806040838503121561315657600080fd5b600083013567ffffffffffffffff81111561317057600080fd5b61317c85828601612eff565b925050602083013567ffffffffffffffff81111561319957600080fd5b6131a585828601612eff565b9150509250929050565b600080604083850312156131c257600080fd5b600083013567ffffffffffffffff8111156131dc57600080fd5b6131e885828601612eff565b92505060206131f985828601612f53565b9150509250929050565b60008060006060848603121561321857600080fd5b600084013567ffffffffffffffff81111561323257600080fd5b61323e86828701612eff565b935050602061324f86828701612f53565b925050604061326086828701612bc0565b9150509250925092565b600061327683836132d6565b60208301905092915050565b600061328e838361350f565b905092915050565b60006132a2838361357c565b905092915050565b60006132b6838361361f565b905092915050565b60006132ca8383613709565b60208301905092915050565b6132df81613c06565b82525050565b6132ee81613c06565b82525050565b60006132ff82613ab1565b6133098185613b62565b935061331483613a51565b8060005b8381101561334557815161332c888261326a565b975061333783613b14565b925050600181019050613318565b5085935050505092915050565b600061335d82613abc565b6133678185613b73565b93508360208202850161337985613a61565b8060005b858110156133b557848403895281516133968582613282565b94506133a183613b21565b925060208a0199505060018101905061337d565b50829750879550505050505092915050565b60006133d282613ac7565b6133dc8185613b84565b9350836020820285016133ee85613a71565b8060005b8581101561342a578484038952815161340b8582613296565b945061341683613b2e565b925060208a019950506001810190506133f2565b50829750879550505050505092915050565b600061344782613ad2565b6134518185613b95565b93508360208202850161346385613a81565b8060005b8581101561349f578484038952815161348085826132aa565b945061348b83613b3b565b925060208a01995050600181019050613467565b50829750879550505050505092915050565b60006134bc82613ae8565b6134c68185613bb7565b93506134d183613aa1565b8060005b838110156135025781516134e988826132be565b97506134f483613b55565b9250506001810190506134d5565b5085935050505092915050565b600061351a82613add565b6135248185613ba6565b935061352f83613a91565b8060005b8381101561356057815161354788826132be565b975061355283613b48565b925050600181019050613533565b5085935050505092915050565b61357681613c18565b82525050565b600061358782613af3565b6135918185613bc8565b93506135a1818560208601613c6d565b6135aa81613ca0565b840191505092915050565b60006135c082613b09565b6135ca8185613bea565b93506135da818560208601613c6d565b6135e381613ca0565b840191505092915050565b60006135f982613b09565b6136038185613bfb565b9350613613818560208601613c6d565b80840191505092915050565b600061362a82613afe565b6136348185613bd9565b9350613644818560208601613c6d565b61364d81613ca0565b840191505092915050565b600061366382613afe565b61366d8185613bfb565b935061367d818560208601613c6d565b80840191505092915050565b6000613696601383613bea565b91507f4d75737420626520726f6c65206f776e65722e000000000000000000000000006000830152602082019050919050565b60006136d6600c83613bea565b91507f77726f6e674164647265737300000000000000000000000000000000000000006000830152602082019050919050565b61371281613c44565b82525050565b61372181613c44565b82525050565b61373081613c4e565b82525050565b60006137428284613658565b915081905092915050565b600061375982846135ee565b915081905092915050565b600060208201905061377960008301846132e5565b92915050565b6000602082019050818103600083015261379981846132f4565b905092915050565b600060208201905081810360008301526137bb8184613352565b905092915050565b600060208201905081810360008301526137dd81846133c7565b905092915050565b600060208201905081810360008301526137ff818461343c565b905092915050565b6000602082019050818103600083015261382181846134b1565b905092915050565b600060208201905061383e600083018461356d565b92915050565b6000602082019050818103600083015261385e81846135b5565b905092915050565b6000602082019050818103600083015261387f81613689565b9050919050565b6000602082019050818103600083015261389f816136c9565b9050919050565b60006020820190506138bb6000830184613718565b92915050565b60006020820190506138d66000830184613727565b92915050565b6000604051905081810181811067ffffffffffffffff821117156138ff57600080fd5b8060405250919050565b600067ffffffffffffffff82111561392057600080fd5b602082029050602081019050919050565b600067ffffffffffffffff82111561394857600080fd5b602082029050602081019050919050565b600067ffffffffffffffff82111561397057600080fd5b602082029050602081019050919050565b600067ffffffffffffffff82111561399857600080fd5b602082029050602081019050919050565b600067ffffffffffffffff8211156139c057600080fd5b602082029050602081019050919050565b600067ffffffffffffffff8211156139e857600080fd5b602082029050602081019050919050565b600067ffffffffffffffff821115613a1057600080fd5b601f19601f8301169050602081019050919050565b600067ffffffffffffffff821115613a3c57600080fd5b601f19601f8301169050602081019050919050565b6000819050602082019050919050565b6000819050602082019050919050565b6000819050602082019050919050565b6000819050602082019050919050565b6000819050602082019050919050565b6000819050602082019050919050565b600081519050919050565b600081519050919050565b600081519050919050565b600081519050919050565b600081519050919050565b600081519050919050565b600081519050919050565b600081519050919050565b600081519050919050565b6000602082019050919050565b6000602082019050919050565b6000602082019050919050565b6000602082019050919050565b6000602082019050919050565b6000602082019050919050565b600082825260208201905092915050565b600082825260208201905092915050565b600082825260208201905092915050565b600082825260208201905092915050565b600082825260208201905092915050565b600082825260208201905092915050565b600082825260208201905092915050565b600082825260208201905092915050565b600082825260208201905092915050565b600081905092915050565b6000613c1182613c24565b9050919050565b60008115159050919050565b600073ffffffffffffffffffffffffffffffffffffffff82169050919050565b6000819050919050565b600063ffffffff82169050919050565b82818337600083830152505050565b60005b83811015613c8b578082015181840152602081019050613c70565b83811115613c9a576000848401525b50505050565b6000601f19601f8301169050919050565b613cba81613c06565b8114613cc557600080fd5b50565b613cd181613c44565b8114613cdc57600080fd5b5056fea365627a7a723158207a4ebb739364d9add4e6c9ef26378589e5ab6fdb868a4c0d1caaa1f0347e0e116c6578706572696d656e74616cf564736f6c63430005100040",
  "source": "//pragma solidity 0.5.10;\npragma solidity ^0.5.16;\npragma experimental ABIEncoderV2;\n\ncontract PublicDCRManager {\n    // event declaration\n    event LogWorkflowCreation(\n        string indexed workflowHash,\n        address indexed creator\n    );\n\n    event LogExecution(\n        string indexed workflowHash,\n        uint256 indexed activityId,\n        address indexed executor\n    );\n\n    event LogWorkflowProjection(\n        string indexed workflowHash,\n        address indexed creator\n    );\n\n    // variable declarations.\n\n    struct Workflow {\n        string name;\n        string ipfsViewHash;\n\n        Marking markings;\n        address[] roleAddresses;\n        string[] activityNames;\n        bytes[] ipfsActivityHashes;\n        uint256 numActivities; //number of included activities\n        uint256[][][] relations; //includesTo, excludesTo, responsesTo, conditionsFrom, milestonesFrom\n        \n        //uint256[][] excludesTo;\n        //uint256[][] responsesTo;\n        //uint256[][] conditionsFrom;\n        //uint256[][] milestonesFrom;\n        \n        //ApprovalList approvalList;\n        address[] approvalAddresses;\n        uint[] approvalOutcomes;\n        uint[] didFetch;\n\n        Activity execStatus;\n    }\n    \n    struct Marking {\n        uint256[] included;\n        uint256[] executed;\n        uint256[] pending;\n    }\n\n    struct Activity {\n        uint32 canExecuteCheck;\n        uint256 status; //0=no, 1=yes\n    }\n    \n    string[] registeredViewHashes;\n\n    mapping(string => Workflow) workflows;\n\n    ///////////////// Misc ////////////////////////\n\n    function getAllWKHashes() public view returns (string[] memory){\n        return registeredViewHashes;\n    }\n\n\n    function sendHash(string memory _hash, string memory x) public {\n        workflows[_hash].ipfsViewHash = x;\n    }\n\n    function getHash(string memory _hash) public view returns (string memory x) {\n        return workflows[_hash].ipfsViewHash;\n    }\n\n    /** @dev Getter for workflow.\n      * @param _hash index of the workflow (eg 0 for the first workflow).\n      * @param myAddress sender adddress (must be registered to fetch the workflow).\n      * @return workflow, update didFetch variable to one.\n      */\n    function fetchPublicView(string memory _hash, address myAddress)\n        public\n        payable\n        returns (string memory)\n    {\n        \n        require(msg.sender == myAddress, 'wrongAddress');\n        \n        // update the didFetch variable\n        for (\n            uint256 id = 0;\n            id < workflows[_hash].approvalAddresses.length;\n            id++\n        ) {\n            if((myAddress == workflows[_hash].approvalAddresses[id]) && workflows[_hash].didFetch[id] != 1){\n                workflows[_hash].didFetch[id] = 1;\n                }\n        }\n        \n        return workflows[_hash].ipfsViewHash;\n    }\n\n     \n    /** @dev Getter for workflow name.\n      * @param _hash index of the workflow (eg 0 for the first workflow).\n      * @return workflow name.\n      */\n\n    function getWorkflowName(string memory _hash)\n        public\n        view\n        returns (string memory)\n    {\n        return workflows[_hash].name;\n    }\n\n    /** @dev Getter for workflow execution status.\n      * @param _hash index of the workflow (eg 0 for the first workflow).\n      * @return execution status of the task: 0=ok, 1= \n      */\n    function getCanExecuteCheck(string memory _hash, uint256 activityId)\n        public\n        view\n        returns (uint32)\n    {\n        return workflows[_hash].execStatus.canExecuteCheck;\n    }\n\n    function getStatus(string memory _hash, uint256 activityId)\n        public\n        view\n        returns (uint256)\n    {\n        return workflows[_hash].execStatus.status;\n    }\n\n    function getWkfLength(string memory _hash) public view returns (uint256) {\n        return workflows[_hash].relations[0].length;\n    }\n\n    function getIncluded(string memory _hash)\n        public\n        view\n        returns (uint256[] memory)\n    {\n        return workflows[_hash].markings.included;\n    }\n\n    function getExecuted(string memory _hash)\n        public\n        view\n        returns (uint256[] memory)\n    {\n        return workflows[_hash].markings.executed;\n    }\n\n    function getPending(string memory _hash)\n        public\n        view\n        returns (uint256[] memory)\n    {\n        return workflows[_hash].markings.pending;\n    }\n\n    function getConditionsFrom(string memory _hash)\n        public\n        view\n        returns (uint256[][] memory)\n    {\n        return workflows[_hash].relations[3];\n    }\n\n    function getHashes(string memory _hash)\n        public\n        view\n        returns (bytes[] memory)\n    {\n        return workflows[_hash].ipfsActivityHashes;\n    }\n\n    function getActivityName(string memory _hash, uint256 activityId)\n        public\n        view\n        returns (string memory)\n    {\n        return workflows[_hash].activityNames[activityId];\n    }\n\n    function getRoleAddresses(string memory _hash, uint256 activityId)\n        public\n        view\n        returns (address)\n    {\n        return workflows[_hash].roleAddresses[activityId];\n    }\n\n    function getAddresses(string memory _hash)\n        public\n        view\n        returns (address[] memory)\n    {\n        return workflows[_hash].approvalAddresses;\n    }\n\n\n    function getApprovalsOutcome(string memory _hash)\n        public\n        view\n        returns (uint[] memory)\n    {\n        return (workflows[_hash].approvalOutcomes);\n    }\n\n    function hasApproved(string memory _hash, address myAddress)\n        public\n        view\n        returns (uint)\n    {\n        //uint res = 0;\n        for (\n            uint256 id = 0;\n            id < workflows[_hash].approvalAddresses.length;\n            id++\n        ) {\n            if((myAddress == workflows[_hash].approvalAddresses[id]) && workflows[_hash].approvalOutcomes[id] == 1){\n                return 1;\n            }\n        }\n        return 0;\n    }\n\n    ///////////////// Utils /////////////////////////\n\n    function canExecute(string memory _hash, uint256 activityId, address msgSender)\n        public\n        returns (bool)\n    {\n        // check if msg.sender address is correct\n        if (msgSender != workflows[_hash].roleAddresses[activityId]) {\n            workflows[_hash].execStatus.canExecuteCheck = 4;\n            return false;\n        }\n        \n        // activity must be included\n        if (workflows[_hash].markings.included[activityId] == 0) {\n            workflows[_hash].execStatus.canExecuteCheck = 1;\n            return false;\n        }\n\n        // all conditions executed\n        for (\n            uint256 id = 0;\n            id < workflows[_hash].relations[3].length;\n            id++\n        ) {\n            uint256[] memory conditionsRow =\n                workflows[_hash].relations[3][id];\n            if (conditionsRow[activityId] == 1) {\n                if (\n                    (workflows[_hash].markings.executed[id] == 0) &&\n                    (workflows[_hash].markings.included[id] == 1)\n                ) {\n                    workflows[_hash].execStatus.canExecuteCheck = 2;\n                    return false;\n                }\n            }\n        }\n\n        // no milestones pending\n        for (\n            uint256 id = 0;\n            id < workflows[_hash].relations[4].length; // milestonesFrom\n            id++\n        ) {\n            uint256[] memory milestonesRow =\n                workflows[_hash].relations[4][id];\n            if (milestonesRow[activityId] == 1) {\n                if (\n                    (workflows[_hash].markings.pending[id] == 1) &&\n                    (workflows[_hash].markings.included[id] == 1)\n                ) {\n                    workflows[_hash].execStatus.canExecuteCheck = 3;\n                    return false;\n                }\n            }\n        }\n\n        workflows[_hash].execStatus.canExecuteCheck = 0;\n        return true;\n    }\n\n    ///////////////// Main functions /////////////////////////\n    function checkCliquedIndex(string memory _hash, uint256 activityId)\n        public\n    //        bytes memory ipfsHash\n    {\n        if (!canExecute(_hash, activityId, msg.sender)) {\n            workflows[_hash].execStatus.status = 1;\n            //revert();\n        } else {\n            // executed activity\n            workflows[_hash].markings.executed[activityId] = 1;\n            workflows[_hash].markings.pending[activityId] = 0;\n            //            workflows[workflowId].ipfsActivityHashes[activityId] = ipfsHash;\n\n            uint256[] memory exclude_vect_check =\n                workflows[_hash].relations[1][activityId]; // excludes\n            uint256[] memory response_vect_check =\n                workflows[_hash].relations[2][activityId]; // responsesTo\n\n            // add include relations\n            uint256[] memory include_vect_check =\n                workflows[_hash].relations[0][activityId]; // includes\n\n            // update with condition relations ok\n            uint256[] memory conditionsTo =\n                workflows[_hash].relations[3][activityId]; //extract row condition\n            for (uint256 id = 0; id < conditionsTo.length; id++) {\n                if (conditionsTo[id] == 1) {\n                    include_vect_check[id] = 1;\n                }\n            }\n\n            for (\n                uint256 id = 0;\n                id < workflows[_hash].relations[1].length; // excludesTo\n                id++\n            ) {\n                // exclude and include relations pass\n                // note includes happens after the exclude pass\n                // included = (included & ~excludesTo[activityId]) | includesTo[activityId];\n                if (\n                    (exclude_vect_check[id] != 1) &&\n                    (include_vect_check[id] == 1)\n                ) {\n                    workflows[_hash].markings.included[id] = 1;\n                }\n\n                // response relations pass\n                // pending = (pending | responsesTo[activityId]);\n                if (response_vect_check[id] == 1) {\n                    workflows[_hash].markings.pending[id] = 1;\n                    workflows[_hash].markings.included[id] = 1;\n                }\n            }\n\n            emit LogExecution(_hash, activityId, msg.sender);\n\n            workflows[_hash].execStatus.status = 1;\n        }\n    }\n\n    function uploadPublicView(\n        // packed state variables\n        uint256[][] memory markingStates, // included, executed, pending\n\n        string memory _ipfsViewHash,\n\n        //process information\n        address[] memory _roleAddresses,\n        address[] memory _approvalAddresses,\n\n        string[] memory _activityNames,\n        string memory _name,\n\n        // relations\n        uint256[][][] memory _relations // includesto, excludesto, responsesto, conditionsfrom, milestonesFrom\n    ) public payable {\n        \n        Activity memory execStatus = Activity(0, 0);\n        Marking memory markings = Marking(markingStates[0],markingStates[1],markingStates[2]);\n        Workflow memory wf =\n            Workflow(\n                _name,\n                _ipfsViewHash,\n                markings,\n                _roleAddresses,\n                _activityNames,\n                new bytes[](markingStates[0].length),\n                markingStates[0].length,\n                _relations,\n                _approvalAddresses,\n                new uint[](_approvalAddresses.length),\n                new uint[](_approvalAddresses.length),\n                execStatus\n            );\n        workflows[_ipfsViewHash]=wf;\n\n        registeredViewHashes.push(_ipfsViewHash);\n\n\n        emit LogWorkflowCreation(wf.ipfsViewHash, msg.sender);\n    }\n\n    /** @dev post private projection approval function.\n      * @param _hash index of the workflow (eg 0 for the first workflow).\n      * @param myAddress address of the sender (necessary for web3js dev).\n      * @return list of approval outcomes.\n      */\n    function confirmProjection(string memory _hash, address myAddress) public payable returns (uint[] memory){\n        // get id of approvalList.addresses corresponding to msgSender. If (approval[id]==0): set to one;\n        \n        require(myAddress==msg.sender, \"Must be role owner.\");\n\n        for (\n            uint256 id = 0;\n            id < workflows[_hash].approvalAddresses.length;\n            id++\n        ) {\n            if((myAddress == workflows[_hash].approvalAddresses[id]) && workflows[_hash].didFetch[id] == 1){ // must have fetched public view\n                if(workflows[_hash].approvalOutcomes[id] != 1){ // must not have approved before\n                    workflows[_hash].approvalOutcomes[id] = 1;\n                    emit LogWorkflowProjection(_hash, myAddress);\n                    return workflows[_hash].approvalOutcomes;\n                }\n            }\n\n        }\n        \n        return workflows[_hash].approvalOutcomes;\n        \n    }  \n\n\n}\n",
  "sourcePath": "/home/hhdf8435/code/masterPlatform/contracts/PublicDCRManager.sol",
  "compiler": {
    "name": "solc",
    "version": "0.5.16+commit.9c3226ce.Emscripten.clang"
  },
  "schemaVersion": "3.4.1",
  "updatedAt": "2021-06-17T09:02:31.083Z",
  "networkType": "ethereum",
  "devdoc": {
    "methods": {
      "confirmProjection(string,address)": {
        "details": "post private projection approval function.",
        "params": {
          "_hash": "index of the workflow (eg 0 for the first workflow).",
          "myAddress": "address of the sender (necessary for web3js dev)."
        },
        "return": "list of approval outcomes."
      },
      "fetchPublicView(string,address)": {
        "details": "Getter for workflow.",
        "params": {
          "_hash": "index of the workflow (eg 0 for the first workflow).",
          "myAddress": "sender adddress (must be registered to fetch the workflow)."
        },
        "return": "workflow, update didFetch variable to one."
      },
      "getCanExecuteCheck(string,uint256)": {
        "details": "Getter for workflow execution status.",
        "params": {
          "_hash": "index of the workflow (eg 0 for the first workflow)."
        },
        "return": "execution status of the task: 0=ok, 1= "
      },
      "getWorkflowName(string)": {
        "details": "Getter for workflow name.",
        "params": {
          "_hash": "index of the workflow (eg 0 for the first workflow)."
        },
        "return": "workflow name."
      }
    }
  },
  "userdoc": {
    "methods": {
      "canExecute(string,uint256,address)": {
        "notice": "////////////// Utils /////////////////////////"
      },
      "checkCliquedIndex(string,uint256)": {
        "notice": "////////////// Main functions /////////////////////////"
      },
      "getAllWKHashes()": {
        "notice": "////////////// Misc ////////////////////////"
      }
    }
  }
}