{
  "contractName": "PublicDCRManager",
  "abi": [
    {
      "anonymous": false,
      "inputs": [
        {
          "indexed": true,
          "internalType": "uint256",
          "name": "workflowId",
          "type": "uint256"
        },
        {
          "indexed": true,
          "internalType": "uint256",
          "name": "activityId",
          "type": "uint256"
        },
        {
          "indexed": true,
          "internalType": "address",
          "name": "executor",
          "type": "address"
        }
      ],
      "name": "LogExecution",
      "type": "event"
    },
    {
      "anonymous": false,
      "inputs": [
        {
          "indexed": true,
          "internalType": "uint256",
          "name": "workflowId",
          "type": "uint256"
        },
        {
          "indexed": true,
          "internalType": "string",
          "name": "workflowName",
          "type": "string"
        },
        {
          "indexed": true,
          "internalType": "address",
          "name": "creator",
          "type": "address"
        }
      ],
      "name": "LogWorkflowCreation",
      "type": "event"
    },
    {
      "anonymous": false,
      "inputs": [
        {
          "indexed": true,
          "internalType": "uint256",
          "name": "workflowId",
          "type": "uint256"
        },
        {
          "indexed": true,
          "internalType": "address",
          "name": "creator",
          "type": "address"
        }
      ],
      "name": "LogWorkflowProjection",
      "type": "event"
    },
    {
      "constant": false,
      "inputs": [
        {
          "internalType": "uint256",
          "name": "workflowId",
          "type": "uint256"
        },
        {
          "internalType": "string",
          "name": "x",
          "type": "string"
        }
      ],
      "name": "sendHash",
      "outputs": [],
      "payable": false,
      "stateMutability": "nonpayable",
      "type": "function"
    },
    {
      "constant": true,
      "inputs": [
        {
          "internalType": "uint256",
          "name": "workflowId",
          "type": "uint256"
        }
      ],
      "name": "getHash",
      "outputs": [
        {
          "internalType": "string",
          "name": "x",
          "type": "string"
        }
      ],
      "payable": false,
      "stateMutability": "view",
      "type": "function"
    },
    {
      "constant": false,
      "inputs": [
        {
          "internalType": "uint256",
          "name": "workflowId",
          "type": "uint256"
        },
        {
          "internalType": "address",
          "name": "myAddress",
          "type": "address"
        }
      ],
      "name": "fetchPublicView",
      "outputs": [
        {
          "internalType": "string",
          "name": "",
          "type": "string"
        }
      ],
      "payable": true,
      "stateMutability": "payable",
      "type": "function"
    },
    {
      "constant": true,
      "inputs": [
        {
          "internalType": "uint256",
          "name": "workflowId",
          "type": "uint256"
        }
      ],
      "name": "getWorkflowName",
      "outputs": [
        {
          "internalType": "string",
          "name": "",
          "type": "string"
        }
      ],
      "payable": false,
      "stateMutability": "view",
      "type": "function"
    },
    {
      "constant": true,
      "inputs": [
        {
          "internalType": "uint256",
          "name": "workflowId",
          "type": "uint256"
        },
        {
          "internalType": "uint256",
          "name": "activityId",
          "type": "uint256"
        }
      ],
      "name": "getCanExecuteCheck",
      "outputs": [
        {
          "internalType": "uint32",
          "name": "",
          "type": "uint32"
        }
      ],
      "payable": false,
      "stateMutability": "view",
      "type": "function"
    },
    {
      "constant": true,
      "inputs": [
        {
          "internalType": "uint256",
          "name": "workflowId",
          "type": "uint256"
        },
        {
          "internalType": "uint256",
          "name": "activityId",
          "type": "uint256"
        }
      ],
      "name": "getStatus",
      "outputs": [
        {
          "internalType": "uint256",
          "name": "",
          "type": "uint256"
        }
      ],
      "payable": false,
      "stateMutability": "view",
      "type": "function"
    },
    {
      "constant": true,
      "inputs": [
        {
          "internalType": "uint256",
          "name": "workflowId",
          "type": "uint256"
        }
      ],
      "name": "getWkfLength",
      "outputs": [
        {
          "internalType": "uint256",
          "name": "",
          "type": "uint256"
        }
      ],
      "payable": false,
      "stateMutability": "view",
      "type": "function"
    },
    {
      "constant": true,
      "inputs": [
        {
          "internalType": "uint256",
          "name": "workflowId",
          "type": "uint256"
        }
      ],
      "name": "getIncluded",
      "outputs": [
        {
          "internalType": "uint256[]",
          "name": "",
          "type": "uint256[]"
        }
      ],
      "payable": false,
      "stateMutability": "view",
      "type": "function"
    },
    {
      "constant": true,
      "inputs": [
        {
          "internalType": "uint256",
          "name": "workflowId",
          "type": "uint256"
        }
      ],
      "name": "getExecuted",
      "outputs": [
        {
          "internalType": "uint256[]",
          "name": "",
          "type": "uint256[]"
        }
      ],
      "payable": false,
      "stateMutability": "view",
      "type": "function"
    },
    {
      "constant": true,
      "inputs": [
        {
          "internalType": "uint256",
          "name": "workflowId",
          "type": "uint256"
        }
      ],
      "name": "getPending",
      "outputs": [
        {
          "internalType": "uint256[]",
          "name": "",
          "type": "uint256[]"
        }
      ],
      "payable": false,
      "stateMutability": "view",
      "type": "function"
    },
    {
      "constant": true,
      "inputs": [
        {
          "internalType": "uint256",
          "name": "workflowId",
          "type": "uint256"
        }
      ],
      "name": "getConditionsFrom",
      "outputs": [
        {
          "internalType": "uint256[][]",
          "name": "",
          "type": "uint256[][]"
        }
      ],
      "payable": false,
      "stateMutability": "view",
      "type": "function"
    },
    {
      "constant": true,
      "inputs": [
        {
          "internalType": "uint256",
          "name": "workflowId",
          "type": "uint256"
        }
      ],
      "name": "getHashes",
      "outputs": [
        {
          "internalType": "bytes[]",
          "name": "",
          "type": "bytes[]"
        }
      ],
      "payable": false,
      "stateMutability": "view",
      "type": "function"
    },
    {
      "constant": true,
      "inputs": [
        {
          "internalType": "uint256",
          "name": "workflowId",
          "type": "uint256"
        },
        {
          "internalType": "uint256",
          "name": "activityId",
          "type": "uint256"
        }
      ],
      "name": "getActivityName",
      "outputs": [
        {
          "internalType": "string",
          "name": "",
          "type": "string"
        }
      ],
      "payable": false,
      "stateMutability": "view",
      "type": "function"
    },
    {
      "constant": true,
      "inputs": [
        {
          "internalType": "uint256",
          "name": "workflowId",
          "type": "uint256"
        },
        {
          "internalType": "uint256",
          "name": "activityId",
          "type": "uint256"
        }
      ],
      "name": "getRoleAddresses",
      "outputs": [
        {
          "internalType": "address",
          "name": "",
          "type": "address"
        }
      ],
      "payable": false,
      "stateMutability": "view",
      "type": "function"
    },
    {
      "constant": true,
      "inputs": [
        {
          "internalType": "uint256",
          "name": "workflowId",
          "type": "uint256"
        }
      ],
      "name": "getAddresses",
      "outputs": [
        {
          "internalType": "address[]",
          "name": "",
          "type": "address[]"
        }
      ],
      "payable": false,
      "stateMutability": "view",
      "type": "function"
    },
    {
      "constant": true,
      "inputs": [
        {
          "internalType": "uint256",
          "name": "workflowId",
          "type": "uint256"
        }
      ],
      "name": "getApprovalsOutcome",
      "outputs": [
        {
          "internalType": "uint256[]",
          "name": "",
          "type": "uint256[]"
        }
      ],
      "payable": false,
      "stateMutability": "view",
      "type": "function"
    },
    {
      "constant": true,
      "inputs": [
        {
          "internalType": "uint256",
          "name": "workflowId",
          "type": "uint256"
        },
        {
          "internalType": "address",
          "name": "myAddress",
          "type": "address"
        }
      ],
      "name": "hasApproved",
      "outputs": [
        {
          "internalType": "uint256",
          "name": "",
          "type": "uint256"
        }
      ],
      "payable": false,
      "stateMutability": "view",
      "type": "function"
    },
    {
      "constant": false,
      "inputs": [
        {
          "internalType": "uint256",
          "name": "workflowId",
          "type": "uint256"
        },
        {
          "internalType": "uint256",
          "name": "activityId",
          "type": "uint256"
        },
        {
          "internalType": "address",
          "name": "msgSender",
          "type": "address"
        }
      ],
      "name": "canExecute",
      "outputs": [
        {
          "internalType": "bool",
          "name": "",
          "type": "bool"
        }
      ],
      "payable": false,
      "stateMutability": "nonpayable",
      "type": "function"
    },
    {
      "constant": false,
      "inputs": [
        {
          "internalType": "uint256",
          "name": "workflowId",
          "type": "uint256"
        },
        {
          "internalType": "uint256",
          "name": "activityId",
          "type": "uint256"
        }
      ],
      "name": "checkCliquedIndex",
      "outputs": [],
      "payable": false,
      "stateMutability": "nonpayable",
      "type": "function"
    },
    {
      "constant": false,
      "inputs": [
        {
          "internalType": "uint256[][]",
          "name": "markingStates",
          "type": "uint256[][]"
        },
        {
          "internalType": "string",
          "name": "_ipfsViewHash",
          "type": "string"
        },
        {
          "internalType": "address[]",
          "name": "_roleAddresses",
          "type": "address[]"
        },
        {
          "internalType": "address[]",
          "name": "_approvalAddresses",
          "type": "address[]"
        },
        {
          "internalType": "string[]",
          "name": "_activityNames",
          "type": "string[]"
        },
        {
          "internalType": "string",
          "name": "_name",
          "type": "string"
        },
        {
          "internalType": "uint256[][][]",
          "name": "_relations",
          "type": "uint256[][][]"
        }
      ],
      "name": "uploadPublicView",
      "outputs": [],
      "payable": true,
      "stateMutability": "payable",
      "type": "function"
    },
    {
      "constant": false,
      "inputs": [
        {
          "internalType": "uint256",
          "name": "workflowId",
          "type": "uint256"
        },
        {
          "internalType": "address",
          "name": "myAddress",
          "type": "address"
        }
      ],
      "name": "confirmProjection",
      "outputs": [
        {
          "internalType": "uint256[]",
          "name": "",
          "type": "uint256[]"
        }
      ],
      "payable": true,
      "stateMutability": "payable",
      "type": "function"
    }
  ],
  "bytecode": "0x608060405234801561001057600080fd5b5061391f806100206000396000f3fe60806040526004361061012a5760003560e01c806384f89a93116100ab578063abca84a11161006f578063abca84a114610480578063bd794975146104bd578063d5ae538b146104e6578063e0381a2d14610523578063ec4788cd14610553578063fffdc059146105905761012a565b806384f89a93146103635780639611e459146103a05780639beaa524146103c9578063a2b5ad1514610406578063a745da65146104435761012a565b80633acdbe5f116100f25780633acdbe5f1461026057806352f4ba75146102905780636b2fafa9146102cd5780636f384bfc1461030a57806380a3f8b4146103265761012a565b806302a8ca101461012f5780631c3680b71461016c57806321947507146101a95780632358d5a8146101e6578063279dd03f14610223575b600080fd5b34801561013b57600080fd5b5061015660048036036101519190810190612e99565b6105cd565b604051610163919061342c565b60405180910390f35b34801561017857600080fd5b50610193600480360361018e9190810190612e99565b6106d4565b6040516101a0919061344e565b60405180910390f35b3480156101b557600080fd5b506101d060048036036101cb9190810190612e99565b61074a565b6040516101dd919061344e565b60405180910390f35b3480156101f257600080fd5b5061020d60048036036102089190810190612ec2565b6107c3565b60405161021a91906134ed565b60405180910390f35b34801561022f57600080fd5b5061024a60048036036102459190810190612e99565b6108dd565b604051610257919061340a565b60405180910390f35b61027a60048036036102759190810190612ec2565b6109b0565b604051610287919061344e565b60405180910390f35b34801561029c57600080fd5b506102b760048036036102b29190810190612f52565b610cc7565b6040516102c491906133cd565b60405180910390f35b3480156102d957600080fd5b506102f460048036036102ef9190810190612e99565b610d24565b604051610301919061348b565b60405180910390f35b610324600480360361031f9190810190612d53565b610de4565b005b34801561033257600080fd5b5061034d60048036036103489190810190612e99565b6111d9565b60405161035a919061348b565b60405180910390f35b34801561036f57600080fd5b5061038a60048036036103859190810190612e99565b611299565b604051610397919061344e565b60405180910390f35b3480156103ac57600080fd5b506103c760048036036103c29190810190612f52565b611312565b005b3480156103d557600080fd5b506103f060048036036103eb9190810190612f52565b61185e565b6040516103fd919061348b565b60405180910390f35b34801561041257600080fd5b5061042d60048036036104289190810190612f8e565b611934565b60405161043a9190613470565b60405180910390f35b34801561044f57600080fd5b5061046a60048036036104659190810190612f52565b611e8c565b60405161047791906134ed565b60405180910390f35b34801561048c57600080fd5b506104a760048036036104a29190810190612f52565b611eb7565b6040516104b49190613508565b60405180910390f35b3480156104c957600080fd5b506104e460048036036104df9190810190612efe565b611ef2565b005b3480156104f257600080fd5b5061050d60048036036105089190810190612e99565b611f29565b60405161051a919061344e565b60405180910390f35b61053d60048036036105389190810190612ec2565b611fa2565b60405161054a919061348b565b60405180910390f35b34801561055f57600080fd5b5061057a60048036036105759190810190612e99565b61220f565b60405161058791906133e8565b60405180910390f35b34801561059c57600080fd5b506105b760048036036105b29190810190612e99565b6122bb565b6040516105c491906134ed565b60405180910390f35b6060600082815481106105dc57fe5b90600052602060002090600f0201600701805480602002602001604051908101604052809291908181526020016000905b828210156106c9578382906000526020600020018054600181600116156101000203166002900480601f0160208091040260200160405190810160405280929190818152602001828054600181600116156101000203166002900480156106b55780601f1061068a576101008083540402835291602001916106b5565b820191906000526020600020905b81548152906001019060200180831161069857829003601f168201915b50505050508152602001906001019061060d565b505050509050919050565b6060600082815481106106e357fe5b90600052602060002090600f0201600b0180548060200260200160405190810160405280929190818152602001828054801561073e57602002820191906000526020600020905b81548152602001906001019080831161072a575b50505050509050919050565b60606000828154811061075957fe5b90600052602060002090600f02016002016001018054806020026020016040519081016040528092919081815260200182805480156107b757602002820191906000526020600020905b8154815260200190600101908083116107a3575b50505050509050919050565b600080600090505b600084815481106107d857fe5b90600052602060002090600f0201600a01805490508110156108d1576000848154811061080157fe5b90600052602060002090600f0201600a01818154811061081d57fe5b9060005260206000200160009054906101000a900473ffffffffffffffffffffffffffffffffffffffff1673ffffffffffffffffffffffffffffffffffffffff168373ffffffffffffffffffffffffffffffffffffffff161480156108b5575060016000858154811061088c57fe5b90600052602060002090600f0201600b0182815481106108a857fe5b9060005260206000200154145b156108c45760019150506108d7565b80806001019150506107cb565b50600090505b92915050565b6060600082815481106108ec57fe5b90600052602060002090600f020160090160038154811061090957fe5b90600052602060002001805480602002602001604051908101604052809291908181526020016000905b828210156109a55783829060005260206000200180548060200260200160405190810160405280929190818152602001828054801561099157602002820191906000526020600020905b81548152602001906001019080831161097d575b505050505081526020019060010190610933565b505050509050919050565b60603373ffffffffffffffffffffffffffffffffffffffff168273ffffffffffffffffffffffffffffffffffffffff1614610a20576040517f08c379a0000000000000000000000000000000000000000000000000000000008152600401610a17906134ad565b60405180910390fd5b60008090505b60008481548110610a3357fe5b90600052602060002090600f0201600a0180549050811015610c505760008481548110610a5c57fe5b90600052602060002090600f0201600a018181548110610a7857fe5b9060005260206000200160009054906101000a900473ffffffffffffffffffffffffffffffffffffffff1673ffffffffffffffffffffffffffffffffffffffff168373ffffffffffffffffffffffffffffffffffffffff16148015610b105750600160008581548110610ae757fe5b90600052602060002090600f0201600c018281548110610b0357fe5b9060005260206000200154145b15610c4357600160008581548110610b2457fe5b90600052602060002090600f0201600b018281548110610b4057fe5b906000526020600020015414610c4257600160008581548110610b5f57fe5b90600052602060002090600f0201600b018281548110610b7b57fe5b90600052602060002001819055508273ffffffffffffffffffffffffffffffffffffffff16847fb8f8b523e94c2bd73565ee3355ceee32a218e758a4a6686377121fb2fc3196a160405160405180910390a360008481548110610bda57fe5b90600052602060002090600f0201600b01805480602002602001604051908101604052809291908181526020018280548015610c3557602002820191906000526020600020905b815481526020019060010190808311610c21575b5050505050915050610cc1565b5b8080600101915050610a26565b5060008381548110610c5e57fe5b90600052602060002090600f0201600b01805480602002602001604051908101604052809291908181526020018280548015610cb957602002820191906000526020600020905b815481526020019060010190808311610ca5575b505050505090505b92915050565b6000808381548110610cd557fe5b90600052602060002090600f02016005018281548110610cf157fe5b9060005260206000200160009054906101000a900473ffffffffffffffffffffffffffffffffffffffff16905092915050565b606060008281548110610d3357fe5b90600052602060002090600f02016001018054600181600116156101000203166002900480601f016020809104026020016040519081016040528092919081815260200182805460018160011615610100020316600290048015610dd85780601f10610dad57610100808354040283529160200191610dd8565b820191906000526020600020905b815481529060010190602001808311610dbb57829003601f168201915b50505050509050919050565b610dec6122fb565b6040518060400160405280600063ffffffff16815260200160008152509050610e1361231b565b60405180606001604052808a600081518110610e2b57fe5b602002602001015181526020018a600181518110610e4557fe5b602002602001015181526020018a600281518110610e5f57fe5b60200260200101518152509050610e7461233c565b6040518061018001604052808681526020018a81526020018381526020018981526020018781526020018b600081518110610eab57fe5b602002602001015151604051908082528060200260200182016040528015610ee757816020015b6060815260200190600190039081610ed25790505b5081526020018b600081518110610efa57fe5b60200260200101515181526020018581526020018881526020018851604051908082528060200260200182016040528015610f445781602001602082028038833980820191505090505b5081526020018851604051908082528060200260200182016040528015610f7a5781602001602082028038833980820191505090505b5081526020018481525090506000819080600181540180825580915050906001820390600052602060002090600f0201600090919290919091506000820151816000019080519060200190610fd09291906123a9565b506020820151816001019080519060200190610fed9291906123a9565b506040820151816002016000820151816000019080519060200190611013929190612429565b506020820151816001019080519060200190611030929190612429565b50604082015181600201908051906020019061104d929190612429565b505050606082015181600501908051906020019061106c929190612476565b506080820151816006019080519060200190611089929190612500565b5060a08201518160070190805190602001906110a6929190612560565b5060c0820151816008015560e08201518160090190805190602001906110cd9291906125c0565b5061010082015181600a0190805190602001906110eb929190612476565b5061012082015181600b019080519060200190611109929190612429565b5061014082015181600c019080519060200190611127929190612429565b5061016082015181600d0160008201518160000160006101000a81548163ffffffff021916908363ffffffff1602179055506020820151816001015550505050503373ffffffffffffffffffffffffffffffffffffffff16816000015160405161119191906133b6565b60405180910390206001600080549050037e580e796805b82dd041d9cc2b779ba3dd8b2d71dd1d3a5922e6b4c32cadf19960405160405180910390a450505050505050505050565b6060600082815481106111e857fe5b90600052602060002090600f02016000018054600181600116156101000203166002900480601f01602080910402602001604051908101604052809291908181526020018280546001816001161561010002031660029004801561128d5780601f106112625761010080835404028352916020019161128d565b820191906000526020600020905b81548152906001019060200180831161127057829003601f168201915b50505050509050919050565b6060600082815481106112a857fe5b90600052602060002090600f020160020160020180548060200260200160405190810160405280929190818152602001828054801561130657602002820191906000526020600020905b8154815260200190600101908083116112f2575b50505050509050919050565b61131d828233611934565b61134d5760016000838154811061133057fe5b90600052602060002090600f0201600d016001018190555061185a565b60016000838154811061135c57fe5b90600052602060002090600f0201600201600101828154811061137b57fe5b9060005260206000200181905550600080838154811061139757fe5b90600052602060002090600f020160020160020182815481106113b657fe5b90600052602060002001819055506060600083815481106113d357fe5b90600052602060002090600f02016009016001815481106113f057fe5b90600052602060002001828154811061140557fe5b9060005260206000200180548060200260200160405190810160405280929190818152602001828054801561145957602002820191906000526020600020905b815481526020019060010190808311611445575b5050505050905060606000848154811061146f57fe5b90600052602060002090600f020160090160028154811061148c57fe5b9060005260206000200183815481106114a157fe5b906000526020600020018054806020026020016040519081016040528092919081815260200182805480156114f557602002820191906000526020600020905b8154815260200190600101908083116114e1575b5050505050905060606000858154811061150b57fe5b90600052602060002090600f020160090160008154811061152857fe5b90600052602060002001848154811061153d57fe5b9060005260206000200180548060200260200160405190810160405280929190818152602001828054801561159157602002820191906000526020600020905b81548152602001906001019080831161157d575b505050505090506060600086815481106115a757fe5b90600052602060002090600f02016009016003815481106115c457fe5b9060005260206000200185815481106115d957fe5b9060005260206000200180548060200260200160405190810160405280929190818152602001828054801561162d57602002820191906000526020600020905b815481526020019060010190808311611619575b5050505050905060008090505b815181101561168757600182828151811061165157fe5b6020026020010151141561167a57600183828151811061166d57fe5b6020026020010181815250505b808060010191505061163a565b5060008090505b6000878154811061169b57fe5b90600052602060002090600f02016009016001815481106116b857fe5b90600052602060002001805490508110156117e85760018582815181106116db57fe5b602002602001015114158015611704575060018382815181106116fa57fe5b6020026020010151145b156117465760016000888154811061171857fe5b90600052602060002090600f0201600201600001828154811061173757fe5b90600052602060002001819055505b600184828151811061175457fe5b602002602001015114156117db5760016000888154811061177157fe5b90600052602060002090600f0201600201600201828154811061179057fe5b90600052602060002001819055506001600088815481106117ad57fe5b90600052602060002090600f020160020160000182815481106117cc57fe5b90600052602060002001819055505b808060010191505061168e565b503373ffffffffffffffffffffffffffffffffffffffff1685877fd853302052b9b346cf4b175b34d36663cb511da3c0c7f221f21ec256fc7f625160405160405180910390a460016000878154811061183d57fe5b90600052602060002090600f0201600d0160010181905550505050505b5050565b60606000838154811061186d57fe5b90600052602060002090600f0201600601828154811061188957fe5b906000526020600020018054600181600116156101000203166002900480601f0160208091040260200160405190810160405280929190818152602001828054600181600116156101000203166002900480156119275780601f106118fc57610100808354040283529160200191611927565b820191906000526020600020905b81548152906001019060200180831161190a57829003601f168201915b5050505050905092915050565b600080848154811061194257fe5b90600052602060002090600f0201600501838154811061195e57fe5b9060005260206000200160009054906101000a900473ffffffffffffffffffffffffffffffffffffffff1673ffffffffffffffffffffffffffffffffffffffff168273ffffffffffffffffffffffffffffffffffffffff1614611a05576004600085815481106119ca57fe5b90600052602060002090600f0201600d0160000160006101000a81548163ffffffff021916908363ffffffff16021790555060009050611e85565b6000808581548110611a1357fe5b90600052602060002090600f02016002016000018481548110611a3257fe5b90600052602060002001541415611a8d57600160008581548110611a5257fe5b90600052602060002090600f0201600d0160000160006101000a81548163ffffffff021916908363ffffffff16021790555060009050611e85565b60008090505b60008581548110611aa057fe5b90600052602060002090600f0201600901600381548110611abd57fe5b9060005260206000200180549050811015611c6557606060008681548110611ae157fe5b90600052602060002090600f0201600901600381548110611afe57fe5b906000526020600020018281548110611b1357fe5b90600052602060002001805480602002602001604051908101604052809291908181526020018280548015611b6757602002820191906000526020600020905b815481526020019060010190808311611b53575b505050505090506001818681518110611b7c57fe5b60200260200101511415611c57576000808781548110611b9857fe5b90600052602060002090600f02016002016001018381548110611bb757fe5b9060005260206000200154148015611c055750600160008781548110611bd957fe5b90600052602060002090600f02016002016000018381548110611bf857fe5b9060005260206000200154145b15611c5657600260008781548110611c1957fe5b90600052602060002090600f0201600d0160000160006101000a81548163ffffffff021916908363ffffffff160217905550600092505050611e85565b5b508080600101915050611a93565b5060008090505b60008581548110611c7957fe5b90600052602060002090600f0201600901600481548110611c9657fe5b9060005260206000200180549050811015611e3f57606060008681548110611cba57fe5b90600052602060002090600f0201600901600481548110611cd757fe5b906000526020600020018281548110611cec57fe5b90600052602060002001805480602002602001604051908101604052809291908181526020018280548015611d4057602002820191906000526020600020905b815481526020019060010190808311611d2c575b505050505090506001818681518110611d5557fe5b60200260200101511415611e3157600160008781548110611d7257fe5b90600052602060002090600f02016002016002018381548110611d9157fe5b9060005260206000200154148015611ddf5750600160008781548110611db357fe5b90600052602060002090600f02016002016000018381548110611dd257fe5b9060005260206000200154145b15611e3057600360008781548110611df357fe5b90600052602060002090600f0201600d0160000160006101000a81548163ffffffff021916908363ffffffff160217905550600092505050611e85565b5b508080600101915050611c6c565b506000808581548110611e4e57fe5b90600052602060002090600f0201600d0160000160006101000a81548163ffffffff021916908363ffffffff160217905550600190505b9392505050565b6000808381548110611e9a57fe5b90600052602060002090600f0201600d0160010154905092915050565b6000808381548110611ec557fe5b90600052602060002090600f0201600d0160000160009054906101000a900463ffffffff16905092915050565b8060008381548110611f0057fe5b90600052602060002090600f02016001019080519060200190611f24929190612620565b505050565b606060008281548110611f3857fe5b90600052602060002090600f0201600201600001805480602002602001604051908101604052809291908181526020018280548015611f9657602002820191906000526020600020905b815481526020019060010190808311611f82575b50505050509050919050565b60608173ffffffffffffffffffffffffffffffffffffffff163373ffffffffffffffffffffffffffffffffffffffff1614612012576040517f08c379a0000000000000000000000000000000000000000000000000000000008152600401612009906134cd565b60405180910390fd5b60008090505b6000848154811061202557fe5b90600052602060002090600f0201600a018054905081101561214f576000848154811061204e57fe5b90600052602060002090600f0201600a01818154811061206a57fe5b9060005260206000200160009054906101000a900473ffffffffffffffffffffffffffffffffffffffff1673ffffffffffffffffffffffffffffffffffffffff168373ffffffffffffffffffffffffffffffffffffffff1614801561210357506001600085815481106120d957fe5b90600052602060002090600f0201600c0182815481106120f557fe5b906000526020600020015414155b156121425760016000858154811061211757fe5b90600052602060002090600f0201600c01828154811061213357fe5b90600052602060002001819055505b8080600101915050612018565b506000838154811061215d57fe5b90600052602060002090600f02016001018054600181600116156101000203166002900480601f0160208091040260200160405190810160405280929190818152602001828054600181600116156101000203166002900480156122025780601f106121d757610100808354040283529160200191612202565b820191906000526020600020905b8154815290600101906020018083116121e557829003601f168201915b5050505050905092915050565b60606000828154811061221e57fe5b90600052602060002090600f0201600a018054806020026020016040519081016040528092919081815260200182805480156122af57602002820191906000526020600020905b8160009054906101000a900473ffffffffffffffffffffffffffffffffffffffff1673ffffffffffffffffffffffffffffffffffffffff1681526020019060010190808311612265575b50505050509050919050565b60008082815481106122c957fe5b90600052602060002090600f02016009016000815481106122e657fe5b90600052602060002001805490509050919050565b6040518060400160405280600063ffffffff168152602001600081525090565b60405180606001604052806060815260200160608152602001606081525090565b604051806101800160405280606081526020016060815260200161235e6126a0565b815260200160608152602001606081526020016060815260200160008152602001606081526020016060815260200160608152602001606081526020016123a36126c1565b81525090565b828054600181600116156101000203166002900490600052602060002090601f016020900481019282601f106123ea57805160ff1916838001178555612418565b82800160010185558215612418579182015b828111156124175782518255916020019190600101906123fc565b5b50905061242591906126e1565b5090565b828054828255906000526020600020908101928215612465579160200282015b82811115612464578251825591602001919060010190612449565b5b50905061247291906126e1565b5090565b8280548282559060005260206000209081019282156124ef579160200282015b828111156124ee5782518260006101000a81548173ffffffffffffffffffffffffffffffffffffffff021916908373ffffffffffffffffffffffffffffffffffffffff16021790555091602001919060010190612496565b5b5090506124fc9190612706565b5090565b82805482825590600052602060002090810192821561254f579160200282015b8281111561254e57825182908051906020019061253e9291906123a9565b5091602001919060010190612520565b5b50905061255c9190612749565b5090565b8280548282559060005260206000209081019282156125af579160200282015b828111156125ae57825182908051906020019061259e929190612775565b5091602001919060010190612580565b5b5090506125bc91906127f5565b5090565b82805482825590600052602060002090810192821561260f579160200282015b8281111561260e5782518290805190602001906125fe929190612821565b50916020019190600101906125e0565b5b50905061261c9190612881565b5090565b828054600181600116156101000203166002900490600052602060002090601f016020900481019282601f1061266157805160ff191683800117855561268f565b8280016001018555821561268f579182015b8281111561268e578251825591602001919060010190612673565b5b50905061269c91906126e1565b5090565b60405180606001604052806060815260200160608152602001606081525090565b6040518060400160405280600063ffffffff168152602001600081525090565b61270391905b808211156126ff5760008160009055506001016126e7565b5090565b90565b61274691905b8082111561274257600081816101000a81549073ffffffffffffffffffffffffffffffffffffffff02191690555060010161270c565b5090565b90565b61277291905b8082111561276e576000818161276591906128ad565b5060010161274f565b5090565b90565b828054600181600116156101000203166002900490600052602060002090601f016020900481019282601f106127b657805160ff19168380011785556127e4565b828001600101855582156127e4579182015b828111156127e35782518255916020019190600101906127c8565b5b5090506127f191906126e1565b5090565b61281e91905b8082111561281a576000818161281191906128f5565b506001016127fb565b5090565b90565b828054828255906000526020600020908101928215612870579160200282015b8281111561286f57825182908051906020019061285f929190612429565b5091602001919060010190612841565b5b50905061287d919061293d565b5090565b6128aa91905b808211156128a6576000818161289d9190612969565b50600101612887565b5090565b90565b50805460018160011615610100020316600290046000825580601f106128d357506128f2565b601f0160209004906000526020600020908101906128f191906126e1565b5b50565b50805460018160011615610100020316600290046000825580601f1061291b575061293a565b601f01602090049060005260206000209081019061293991906126e1565b5b50565b61296691905b808211156129625760008181612959919061298a565b50600101612943565b5090565b90565b5080546000825590600052602060002090810190612987919061293d565b50565b50805460008255906000526020600020908101906129a891906126e1565b50565b6000813590506129ba816138ae565b92915050565b600082601f8301126129d157600080fd5b81356129e46129df82613550565b613523565b91508181835260208401935060208101905083856020840282011115612a0957600080fd5b60005b83811015612a395781612a1f88826129ab565b845260208401935060208301925050600181019050612a0c565b5050505092915050565b600082601f830112612a5457600080fd5b8135612a67612a6282613578565b613523565b9150818183526020840193506020810190508360005b83811015612aad5781358601612a938882612ab7565b845260208401935060208301925050600181019050612a7d565b5050505092915050565b600082601f830112612ac857600080fd5b8135612adb612ad6826135a0565b613523565b9150818183526020840193506020810190508360005b83811015612b215781358601612b078882612c13565b845260208401935060208301925050600181019050612af1565b5050505092915050565b600082601f830112612b3c57600080fd5b8135612b4f612b4a826135c8565b613523565b9150818183526020840193506020810190508360005b83811015612b955781358601612b7b8882612c13565b845260208401935060208301925050600181019050612b65565b5050505092915050565b600082601f830112612bb057600080fd5b8135612bc3612bbe826135f0565b613523565b9150818183526020840193506020810190508360005b83811015612c095781358601612bef8882612c96565b845260208401935060208301925050600181019050612bd9565b5050505092915050565b600082601f830112612c2457600080fd5b8135612c37612c3282613618565b613523565b91508181835260208401935060208101905083856020840282011115612c5c57600080fd5b60005b83811015612c8c5781612c728882612d3e565b845260208401935060208301925050600181019050612c5f565b5050505092915050565b600082601f830112612ca757600080fd5b8135612cba612cb582613640565b613523565b91508082526020830160208301858383011115612cd657600080fd5b612ce183828461385b565b50505092915050565b600082601f830112612cfb57600080fd5b8135612d0e612d098261366c565b613523565b91508082526020830160208301858383011115612d2a57600080fd5b612d3583828461385b565b50505092915050565b600081359050612d4d816138c5565b92915050565b600080600080600080600060e0888a031215612d6e57600080fd5b600088013567ffffffffffffffff811115612d8857600080fd5b612d948a828b01612b2b565b975050602088013567ffffffffffffffff811115612db157600080fd5b612dbd8a828b01612cea565b965050604088013567ffffffffffffffff811115612dda57600080fd5b612de68a828b016129c0565b955050606088013567ffffffffffffffff811115612e0357600080fd5b612e0f8a828b016129c0565b945050608088013567ffffffffffffffff811115612e2c57600080fd5b612e388a828b01612b9f565b93505060a088013567ffffffffffffffff811115612e5557600080fd5b612e618a828b01612cea565b92505060c088013567ffffffffffffffff811115612e7e57600080fd5b612e8a8a828b01612a43565b91505092959891949750929550565b600060208284031215612eab57600080fd5b6000612eb984828501612d3e565b91505092915050565b60008060408385031215612ed557600080fd5b6000612ee385828601612d3e565b9250506020612ef4858286016129ab565b9150509250929050565b60008060408385031215612f1157600080fd5b6000612f1f85828601612d3e565b925050602083013567ffffffffffffffff811115612f3c57600080fd5b612f4885828601612cea565b9150509250929050565b60008060408385031215612f6557600080fd5b6000612f7385828601612d3e565b9250506020612f8485828601612d3e565b9150509250929050565b600080600060608486031215612fa357600080fd5b6000612fb186828701612d3e565b9350506020612fc286828701612d3e565b9250506040612fd3868287016129ab565b9150509250925092565b6000612fe98383613035565b60208301905092915050565b600061300183836131f9565b905092915050565b60006130158383613266565b905092915050565b60006130298383613389565b60208301905092915050565b61303e81613803565b82525050565b61304d81613803565b82525050565b600061305e826136e8565b6130688185613781565b935061307383613698565b8060005b838110156130a457815161308b8882612fdd565b975061309683613740565b925050600181019050613077565b5085935050505092915050565b60006130bc826136f3565b6130c68185613792565b9350836020820285016130d8856136a8565b8060005b8581101561311457848403895281516130f58582612ff5565b94506131008361374d565b925060208a019950506001810190506130dc565b50829750879550505050505092915050565b6000613131826136fe565b61313b81856137a3565b93508360208202850161314d856136b8565b8060005b85811015613189578484038952815161316a8582613009565b94506131758361375a565b925060208a01995050600181019050613151565b50829750879550505050505092915050565b60006131a682613714565b6131b081856137c5565b93506131bb836136d8565b8060005b838110156131ec5781516131d3888261301d565b97506131de83613774565b9250506001810190506131bf565b5085935050505092915050565b600061320482613709565b61320e81856137b4565b9350613219836136c8565b8060005b8381101561324a578151613231888261301d565b975061323c83613767565b92505060018101905061321d565b5085935050505092915050565b61326081613815565b82525050565b60006132718261371f565b61327b81856137d6565b935061328b81856020860161386a565b6132948161389d565b840191505092915050565b60006132aa82613735565b6132b481856137e7565b93506132c481856020860161386a565b6132cd8161389d565b840191505092915050565b60006132e38261372a565b6132ed81856137f8565b93506132fd81856020860161386a565b80840191505092915050565b60006133166013836137e7565b91507f4d75737420626520726f6c65206f776e65722e000000000000000000000000006000830152602082019050919050565b6000613356600c836137e7565b91507f77726f6e674164647265737300000000000000000000000000000000000000006000830152602082019050919050565b61339281613841565b82525050565b6133a181613841565b82525050565b6133b08161384b565b82525050565b60006133c282846132d8565b915081905092915050565b60006020820190506133e26000830184613044565b92915050565b600060208201905081810360008301526134028184613053565b905092915050565b6000602082019050818103600083015261342481846130b1565b905092915050565b600060208201905081810360008301526134468184613126565b905092915050565b60006020820190508181036000830152613468818461319b565b905092915050565b60006020820190506134856000830184613257565b92915050565b600060208201905081810360008301526134a5818461329f565b905092915050565b600060208201905081810360008301526134c681613309565b9050919050565b600060208201905081810360008301526134e681613349565b9050919050565b60006020820190506135026000830184613398565b92915050565b600060208201905061351d60008301846133a7565b92915050565b6000604051905081810181811067ffffffffffffffff8211171561354657600080fd5b8060405250919050565b600067ffffffffffffffff82111561356757600080fd5b602082029050602081019050919050565b600067ffffffffffffffff82111561358f57600080fd5b602082029050602081019050919050565b600067ffffffffffffffff8211156135b757600080fd5b602082029050602081019050919050565b600067ffffffffffffffff8211156135df57600080fd5b602082029050602081019050919050565b600067ffffffffffffffff82111561360757600080fd5b602082029050602081019050919050565b600067ffffffffffffffff82111561362f57600080fd5b602082029050602081019050919050565b600067ffffffffffffffff82111561365757600080fd5b601f19601f8301169050602081019050919050565b600067ffffffffffffffff82111561368357600080fd5b601f19601f8301169050602081019050919050565b6000819050602082019050919050565b6000819050602082019050919050565b6000819050602082019050919050565b6000819050602082019050919050565b6000819050602082019050919050565b600081519050919050565b600081519050919050565b600081519050919050565b600081519050919050565b600081519050919050565b600081519050919050565b600081519050919050565b600081519050919050565b6000602082019050919050565b6000602082019050919050565b6000602082019050919050565b6000602082019050919050565b6000602082019050919050565b600082825260208201905092915050565b600082825260208201905092915050565b600082825260208201905092915050565b600082825260208201905092915050565b600082825260208201905092915050565b600082825260208201905092915050565b600082825260208201905092915050565b600081905092915050565b600061380e82613821565b9050919050565b60008115159050919050565b600073ffffffffffffffffffffffffffffffffffffffff82169050919050565b6000819050919050565b600063ffffffff82169050919050565b82818337600083830152505050565b60005b8381101561388857808201518184015260208101905061386d565b83811115613897576000848401525b50505050565b6000601f19601f8301169050919050565b6138b781613803565b81146138c257600080fd5b50565b6138ce81613841565b81146138d957600080fd5b5056fea365627a7a723158205465cc968f497c777b612505b1d26768d1c077c54cdb46c4c0f28cc49b1e14586c6578706572696d656e74616cf564736f6c63430005100040",
  "source": "//pragma solidity 0.5.10;\npragma solidity ^0.5.16;\npragma experimental ABIEncoderV2;\n\ncontract PublicDCRManager {\n    // event declaration\n    event LogWorkflowCreation(\n        uint256 indexed workflowId,\n        string indexed workflowName,\n        address indexed creator\n    );\n\n    event LogExecution(\n        uint256 indexed workflowId,\n        uint256 indexed activityId,\n        address indexed executor\n    );\n\n    event LogWorkflowProjection(\n        uint256 indexed workflowId,\n        address indexed creator\n    );\n\n    // variable declarations.\n\n    struct Workflow {\n        string name;\n        string ipfsViewHash;\n\n        Marking markings;\n        address[] roleAddresses;\n        string[] activityNames;\n        bytes[] ipfsActivityHashes;\n        uint256 numActivities; //number of included activities\n        uint256[][][] relations; //includesTo, excludesTo, responsesTo, conditionsFrom, milestonesFrom\n        \n        //uint256[][] excludesTo;\n        //uint256[][] responsesTo;\n        //uint256[][] conditionsFrom;\n        //uint256[][] milestonesFrom;\n        \n        //ApprovalList approvalList;\n        address[] approvalAddresses;\n        uint[] approvalOutcomes;\n        uint[] didFetch;\n\n        Activity execStatus;\n    }\n    \n    struct Marking {\n        uint256[] included;\n        uint256[] executed;\n        uint256[] pending;\n    }\n\n    struct Activity {\n        uint32 canExecuteCheck;\n        uint256 status; //0=no, 1=yes\n    }\n    \n\n    Workflow[] workflows;\n    \n    ///////////////// Misc ////////////////////////\n\n    function sendHash(uint256 workflowId, string memory x) public {\n        workflows[workflowId].ipfsViewHash = x;\n    }\n\n    function getHash(uint256 workflowId) public view returns (string memory x) {\n        return workflows[workflowId].ipfsViewHash;\n    }\n\n    /** @dev Getter for workflow.\n      * @param workflowId index of the workflow (eg 0 for the first workflow).\n      * @param myAddress sender adddress (must be registered to fetch the workflow).\n      * @return workflow, update didFetch variable to one.\n      */\n    function fetchPublicView(uint256 workflowId, address myAddress)\n        public\n        payable\n        returns (string memory)\n    {\n        \n        require(msg.sender == myAddress, 'wrongAddress');\n        \n        // update the didFetch variable\n        for (\n            uint256 id = 0;\n            id < workflows[workflowId].approvalAddresses.length;\n            id++\n        ) {\n            if((myAddress == workflows[workflowId].approvalAddresses[id]) && workflows[workflowId].didFetch[id] != 1){\n                workflows[workflowId].didFetch[id] = 1;\n                }\n        }\n        \n        return workflows[workflowId].ipfsViewHash;\n    }\n\n     \n    /** @dev Getter for workflow name.\n      * @param workflowId index of the workflow (eg 0 for the first workflow).\n      * @return workflow name.\n      */\n\n    function getWorkflowName(uint256 workflowId)\n        public\n        view\n        returns (string memory)\n    {\n        return workflows[workflowId].name;\n    }\n\n    /** @dev Getter for workflow execution status.\n      * @param workflowId index of the workflow (eg 0 for the first workflow).\n      * @return execution status of the task: 0=ok, 1= \n      */\n    function getCanExecuteCheck(uint256 workflowId, uint256 activityId)\n        public\n        view\n        returns (uint32)\n    {\n        return workflows[workflowId].execStatus.canExecuteCheck;\n    }\n\n    function getStatus(uint256 workflowId, uint256 activityId)\n        public\n        view\n        returns (uint256)\n    {\n        return workflows[workflowId].execStatus.status;\n    }\n\n    function getWkfLength(uint256 workflowId) public view returns (uint256) {\n        return workflows[workflowId].relations[0].length;\n    }\n\n    function getIncluded(uint256 workflowId)\n        public\n        view\n        returns (uint256[] memory)\n    {\n        return workflows[workflowId].markings.included;\n    }\n\n    function getExecuted(uint256 workflowId)\n        public\n        view\n        returns (uint256[] memory)\n    {\n        return workflows[workflowId].markings.executed;\n    }\n\n    function getPending(uint256 workflowId)\n        public\n        view\n        returns (uint256[] memory)\n    {\n        return workflows[workflowId].markings.pending;\n    }\n\n    function getConditionsFrom(uint256 workflowId)\n        public\n        view\n        returns (uint256[][] memory)\n    {\n        return workflows[workflowId].relations[3];\n    }\n\n    function getHashes(uint256 workflowId)\n        public\n        view\n        returns (bytes[] memory)\n    {\n        return workflows[workflowId].ipfsActivityHashes;\n    }\n\n    function getActivityName(uint256 workflowId, uint256 activityId)\n        public\n        view\n        returns (string memory)\n    {\n        return workflows[workflowId].activityNames[activityId];\n    }\n\n    function getRoleAddresses(uint256 workflowId, uint256 activityId)\n        public\n        view\n        returns (address)\n    {\n        return workflows[workflowId].roleAddresses[activityId];\n    }\n\n    function getAddresses(uint256 workflowId)\n        public\n        view\n        returns (address[] memory)\n    {\n        return workflows[workflowId].approvalAddresses;\n    }\n\n\n    function getApprovalsOutcome(uint256 workflowId)\n        public\n        view\n        returns (uint[] memory)\n    {\n        return (workflows[workflowId].approvalOutcomes);\n    }\n\n    function hasApproved(uint256 workflowId, address myAddress)\n        public\n        view\n        returns (uint)\n    {\n        //uint res = 0;\n        for (\n            uint256 id = 0;\n            id < workflows[workflowId].approvalAddresses.length;\n            id++\n        ) {\n            if((myAddress == workflows[workflowId].approvalAddresses[id]) && workflows[workflowId].approvalOutcomes[id] == 1){\n                return 1;\n            }\n        }\n        return 0;\n    }\n\n    ///////////////// Utils /////////////////////////\n\n    function canExecute(uint256 workflowId, uint256 activityId, address msgSender)\n        public\n        returns (bool)\n    {\n        // check if msg.sender address is correct\n        if (msgSender != workflows[workflowId].roleAddresses[activityId]) {\n            workflows[workflowId].execStatus.canExecuteCheck = 4;\n            return false;\n        }\n        \n        // activity must be included\n        if (workflows[workflowId].markings.included[activityId] == 0) {\n            workflows[workflowId].execStatus.canExecuteCheck = 1;\n            return false;\n        }\n\n        // all conditions executed\n        for (\n            uint256 id = 0;\n            id < workflows[workflowId].relations[3].length;\n            id++\n        ) {\n            uint256[] memory conditionsRow =\n                workflows[workflowId].relations[3][id];\n            if (conditionsRow[activityId] == 1) {\n                if (\n                    (workflows[workflowId].markings.executed[id] == 0) &&\n                    (workflows[workflowId].markings.included[id] == 1)\n                ) {\n                    workflows[workflowId].execStatus.canExecuteCheck = 2;\n                    return false;\n                }\n            }\n        }\n\n        // no milestones pending\n        for (\n            uint256 id = 0;\n            id < workflows[workflowId].relations[4].length; // milestonesFrom\n            id++\n        ) {\n            uint256[] memory milestonesRow =\n                workflows[workflowId].relations[4][id];\n            if (milestonesRow[activityId] == 1) {\n                if (\n                    (workflows[workflowId].markings.pending[id] == 1) &&\n                    (workflows[workflowId].markings.included[id] == 1)\n                ) {\n                    workflows[workflowId].execStatus.canExecuteCheck = 3;\n                    return false;\n                }\n            }\n        }\n\n        workflows[workflowId].execStatus.canExecuteCheck = 0;\n        return true;\n    }\n\n    ///////////////// Main functions /////////////////////////\n    function checkCliquedIndex(uint256 workflowId, uint256 activityId)\n        public\n    //        bytes memory ipfsHash\n    {\n        if (!canExecute(workflowId, activityId, msg.sender)) {\n            workflows[workflowId].execStatus.status = 1;\n            //revert();\n        } else {\n            // executed activity\n            workflows[workflowId].markings.executed[activityId] = 1;\n            workflows[workflowId].markings.pending[activityId] = 0;\n            //            workflows[workflowId].ipfsActivityHashes[activityId] = ipfsHash;\n\n            uint256[] memory exclude_vect_check =\n                workflows[workflowId].relations[1][activityId]; // excludes\n            uint256[] memory response_vect_check =\n                workflows[workflowId].relations[2][activityId]; // responsesTo\n\n            // add include relations\n            uint256[] memory include_vect_check =\n                workflows[workflowId].relations[0][activityId]; // includes\n\n            // update with condition relations ok\n            uint256[] memory conditionsTo =\n                workflows[workflowId].relations[3][activityId]; //extract row condition\n            for (uint256 id = 0; id < conditionsTo.length; id++) {\n                if (conditionsTo[id] == 1) {\n                    include_vect_check[id] = 1;\n                }\n            }\n\n            for (\n                uint256 id = 0;\n                id < workflows[workflowId].relations[1].length; // excludesTo\n                id++\n            ) {\n                // exclude and include relations pass\n                // note includes happens after the exclude pass\n                // included = (included & ~excludesTo[activityId]) | includesTo[activityId];\n                if (\n                    (exclude_vect_check[id] != 1) &&\n                    (include_vect_check[id] == 1)\n                ) {\n                    workflows[workflowId].markings.included[id] = 1;\n                }\n\n                // response relations pass\n                // pending = (pending | responsesTo[activityId]);\n                if (response_vect_check[id] == 1) {\n                    workflows[workflowId].markings.pending[id] = 1;\n                    workflows[workflowId].markings.included[id] = 1;\n                }\n            }\n\n            emit LogExecution(workflowId, activityId, msg.sender);\n\n            workflows[workflowId].execStatus.status = 1;\n        }\n    }\n\n    function uploadPublicView(\n        // packed state variables\n        uint256[][] memory markingStates, // included, executed, pending\n\n        string memory _ipfsViewHash,\n\n        //process information\n        address[] memory _roleAddresses,\n        address[] memory _approvalAddresses,\n\n        string[] memory _activityNames,\n        string memory _name,\n\n        // relations\n        uint256[][][] memory _relations // includesto, excludesto, responsesto, conditionsfrom, milestonesFrom\n    ) public payable {\n        \n        Activity memory execStatus = Activity(0, 0);\n        Marking memory markings = Marking(markingStates[0],markingStates[1],markingStates[2]);\n        Workflow memory wf =\n            Workflow(\n                _name,\n                _ipfsViewHash,\n                markings,\n                _roleAddresses,\n                _activityNames,\n                new bytes[](markingStates[0].length),\n                markingStates[0].length,\n                _relations,\n                _approvalAddresses,\n                new uint[](_approvalAddresses.length),\n                new uint[](_approvalAddresses.length),\n                execStatus\n            );\n        workflows.push(wf);\n\n        emit LogWorkflowCreation(workflows.length - 1, wf.name, msg.sender);\n    }\n\n    /** @dev post private projection approval function.\n      * @param workflowId index of the workflow (eg 0 for the first workflow).\n      * @param myAddress address of the sender (necessary for web3js dev).\n      * @return list of approval outcomes.\n      */\n    function confirmProjection(uint256 workflowId, address myAddress) public payable returns (uint[] memory){\n        // get id of approvalList.addresses corresponding to msgSender. If (approval[id]==0): set to one;\n        \n        require(myAddress==msg.sender, \"Must be role owner.\");\n\n        for (\n            uint256 id = 0;\n            id < workflows[workflowId].approvalAddresses.length;\n            id++\n        ) {\n            if((myAddress == workflows[workflowId].approvalAddresses[id]) && workflows[workflowId].didFetch[id] == 1){ // must have fetched public view\n                if(workflows[workflowId].approvalOutcomes[id] != 1){ // must not have approved before\n                    workflows[workflowId].approvalOutcomes[id] = 1;\n                    emit LogWorkflowProjection(workflowId, myAddress);\n                    return workflows[workflowId].approvalOutcomes;\n                }\n            }\n\n        }\n        \n        return workflows[workflowId].approvalOutcomes;\n        \n    }  \n\n\n}\n",
  "sourcePath": "/home/vtlr2002/source/masterPlatform/contracts/PublicDCRManager.sol",
  "compiler": {
    "name": "solc",
    "version": "0.5.16+commit.9c3226ce.Emscripten.clang"
  },
  "schemaVersion": "3.2.4",
  "updatedAt": "2021-05-31T09:24:20.043Z",
  "networkType": "ethereum",
  "devdoc": {
    "methods": {
      "confirmProjection(uint256,address)": {
        "details": "post private projection approval function.",
        "params": {
          "myAddress": "address of the sender (necessary for web3js dev).",
          "workflowId": "index of the workflow (eg 0 for the first workflow)."
        },
        "return": "list of approval outcomes."
      },
      "fetchPublicView(uint256,address)": {
        "details": "Getter for workflow.",
        "params": {
          "myAddress": "sender adddress (must be registered to fetch the workflow).",
          "workflowId": "index of the workflow (eg 0 for the first workflow)."
        },
        "return": "workflow, update didFetch variable to one."
      },
      "getCanExecuteCheck(uint256,uint256)": {
        "details": "Getter for workflow execution status.",
        "params": {
          "workflowId": "index of the workflow (eg 0 for the first workflow)."
        },
        "return": "execution status of the task: 0=ok, 1= "
      },
      "getWorkflowName(uint256)": {
        "details": "Getter for workflow name.",
        "params": {
          "workflowId": "index of the workflow (eg 0 for the first workflow)."
        },
        "return": "workflow name."
      }
    }
  },
  "userdoc": {
    "methods": {
      "canExecute(uint256,uint256,address)": {
        "notice": "////////////// Utils /////////////////////////"
      },
      "checkCliquedIndex(uint256,uint256)": {
        "notice": "////////////// Main functions /////////////////////////"
      },
      "sendHash(uint256,string)": {
        "notice": "////////////// Misc ////////////////////////"
      }
    }
  }
}