{
  "contractName": "PublicDCRManager",
  "abi": [
    {
      "anonymous": false,
      "inputs": [
        {
          "indexed": true,
          "internalType": "uint256",
          "name": "workflowId",
          "type": "uint256"
        },
        {
          "indexed": true,
          "internalType": "uint256",
          "name": "activityId",
          "type": "uint256"
        },
        {
          "indexed": true,
          "internalType": "address",
          "name": "executor",
          "type": "address"
        }
      ],
      "name": "LogExecution",
      "type": "event"
    },
    {
      "anonymous": false,
      "inputs": [
        {
          "indexed": true,
          "internalType": "uint256",
          "name": "workflowId",
          "type": "uint256"
        },
        {
          "indexed": true,
          "internalType": "string",
          "name": "workflowName",
          "type": "string"
        },
        {
          "indexed": true,
          "internalType": "address",
          "name": "creator",
          "type": "address"
        }
      ],
      "name": "LogWorkflowCreation",
      "type": "event"
    },
    {
      "constant": true,
      "inputs": [
        {
          "internalType": "uint256",
          "name": "workflowId",
          "type": "uint256"
        }
      ],
      "name": "getWorflowName",
      "outputs": [
        {
          "internalType": "string",
          "name": "",
          "type": "string"
        }
      ],
      "payable": false,
      "stateMutability": "view",
      "type": "function"
    },
    {
      "constant": true,
      "inputs": [
        {
          "internalType": "uint256",
          "name": "workflowId",
          "type": "uint256"
        },
        {
          "internalType": "uint256",
          "name": "activityId",
          "type": "uint256"
        }
      ],
      "name": "getCanExecuteCheck",
      "outputs": [
        {
          "internalType": "uint32",
          "name": "",
          "type": "uint32"
        }
      ],
      "payable": false,
      "stateMutability": "view",
      "type": "function"
    },
    {
      "constant": true,
      "inputs": [
        {
          "internalType": "uint256",
          "name": "workflowId",
          "type": "uint256"
        },
        {
          "internalType": "uint256",
          "name": "activityId",
          "type": "uint256"
        }
      ],
      "name": "getStatus",
      "outputs": [
        {
          "internalType": "uint256",
          "name": "",
          "type": "uint256"
        }
      ],
      "payable": false,
      "stateMutability": "view",
      "type": "function"
    },
    {
      "constant": true,
      "inputs": [
        {
          "internalType": "uint256",
          "name": "workflowId",
          "type": "uint256"
        }
      ],
      "name": "getWkfLength",
      "outputs": [
        {
          "internalType": "uint256",
          "name": "",
          "type": "uint256"
        }
      ],
      "payable": false,
      "stateMutability": "view",
      "type": "function"
    },
    {
      "constant": true,
      "inputs": [
        {
          "internalType": "uint256",
          "name": "workflowId",
          "type": "uint256"
        }
      ],
      "name": "getIncluded",
      "outputs": [
        {
          "internalType": "uint256[]",
          "name": "",
          "type": "uint256[]"
        }
      ],
      "payable": false,
      "stateMutability": "view",
      "type": "function"
    },
    {
      "constant": true,
      "inputs": [
        {
          "internalType": "uint256",
          "name": "workflowId",
          "type": "uint256"
        }
      ],
      "name": "getExecuted",
      "outputs": [
        {
          "internalType": "uint256[]",
          "name": "",
          "type": "uint256[]"
        }
      ],
      "payable": false,
      "stateMutability": "view",
      "type": "function"
    },
    {
      "constant": true,
      "inputs": [
        {
          "internalType": "uint256",
          "name": "workflowId",
          "type": "uint256"
        }
      ],
      "name": "getPending",
      "outputs": [
        {
          "internalType": "uint256[]",
          "name": "",
          "type": "uint256[]"
        }
      ],
      "payable": false,
      "stateMutability": "view",
      "type": "function"
    },
    {
      "constant": true,
      "inputs": [
        {
          "internalType": "uint256",
          "name": "workflowId",
          "type": "uint256"
        }
      ],
      "name": "getConditionsFrom",
      "outputs": [
        {
          "internalType": "uint256[][]",
          "name": "",
          "type": "uint256[][]"
        }
      ],
      "payable": false,
      "stateMutability": "view",
      "type": "function"
    },
    {
      "constant": true,
      "inputs": [
        {
          "internalType": "uint256",
          "name": "workflowId",
          "type": "uint256"
        }
      ],
      "name": "getHashes",
      "outputs": [
        {
          "internalType": "bytes[]",
          "name": "",
          "type": "bytes[]"
        }
      ],
      "payable": false,
      "stateMutability": "view",
      "type": "function"
    },
    {
      "constant": true,
      "inputs": [
        {
          "internalType": "uint256",
          "name": "workflowId",
          "type": "uint256"
        },
        {
          "internalType": "uint256",
          "name": "activityId",
          "type": "uint256"
        }
      ],
      "name": "getActivityName",
      "outputs": [
        {
          "internalType": "string",
          "name": "",
          "type": "string"
        }
      ],
      "payable": false,
      "stateMutability": "view",
      "type": "function"
    },
    {
      "constant": false,
      "inputs": [
        {
          "internalType": "uint256",
          "name": "workflowId",
          "type": "uint256"
        },
        {
          "internalType": "uint256",
          "name": "activityId",
          "type": "uint256"
        }
      ],
      "name": "canExecute",
      "outputs": [
        {
          "internalType": "bool",
          "name": "",
          "type": "bool"
        }
      ],
      "payable": false,
      "stateMutability": "nonpayable",
      "type": "function"
    },
    {
      "constant": false,
      "inputs": [
        {
          "internalType": "uint256[]",
          "name": "_includedStates",
          "type": "uint256[]"
        },
        {
          "internalType": "uint256[]",
          "name": "_executedStates",
          "type": "uint256[]"
        },
        {
          "internalType": "uint256[]",
          "name": "_pendingStates",
          "type": "uint256[]"
        },
        {
          "internalType": "string[]",
          "name": "_activityNames",
          "type": "string[]"
        },
        {
          "internalType": "string",
          "name": "_name",
          "type": "string"
        },
        {
          "internalType": "uint256[][]",
          "name": "_includesTo",
          "type": "uint256[][]"
        },
        {
          "internalType": "uint256[][]",
          "name": "_excludesTo",
          "type": "uint256[][]"
        },
        {
          "internalType": "uint256[][]",
          "name": "_responsesTo",
          "type": "uint256[][]"
        },
        {
          "internalType": "uint256[][]",
          "name": "_conditionsFrom",
          "type": "uint256[][]"
        },
        {
          "internalType": "uint256[][]",
          "name": "_milestonesFrom",
          "type": "uint256[][]"
        }
      ],
      "name": "createWorkflow",
      "outputs": [],
      "payable": true,
      "stateMutability": "payable",
      "type": "function"
    },
    {
      "constant": false,
      "inputs": [
        {
          "internalType": "uint256",
          "name": "workflowId",
          "type": "uint256"
        },
        {
          "internalType": "uint256",
          "name": "activityId",
          "type": "uint256"
        }
      ],
      "name": "checkCliquedIndex",
      "outputs": [],
      "payable": false,
      "stateMutability": "nonpayable",
      "type": "function"
    }
  ],
  "bytecode": "0x608060405234801561001057600080fd5b50612502806100206000396000f3fe6080604052600436106100c25760003560e01c80639611e4591161007f578063a745da6511610059578063a745da65146102b7578063abca84a1146102f4578063d5ae538b14610331578063fffdc0591461036e576100c2565b80639611e459146102145780639beaa5241461023d578063a70ef5061461027a576100c2565b806302a8ca10146100c75780632194750714610104578063279dd03f146101415780632ba292171461017e57806384f89a93146101bb57806386959583146101f8575b600080fd5b3480156100d357600080fd5b506100ee60048036036100e99190810190611dbe565b6103ab565b6040516100fb9190612121565b60405180910390f35b34801561011057600080fd5b5061012b60048036036101269190810190611dbe565b6104b2565b6040516101389190612143565b60405180910390f35b34801561014d57600080fd5b5061016860048036036101639190810190611dbe565b610528565b60405161017591906120ff565b60405180910390f35b34801561018a57600080fd5b506101a560048036036101a09190810190611de7565b6105e5565b6040516101b29190612165565b60405180910390f35b3480156101c757600080fd5b506101e260048036036101dd9190810190611dbe565b610a06565b6040516101ef9190612143565b60405180910390f35b610212600480360361020d9190810190611bf3565b610a7c565b005b34801561022057600080fd5b5061023b60048036036102369190810190611de7565b610d69565b005b34801561024957600080fd5b50610264600480360361025f9190810190611de7565b611237565b6040516102719190612180565b60405180910390f35b34801561028657600080fd5b506102a1600480360361029c9190810190611dbe565b61130d565b6040516102ae9190612180565b60405180910390f35b3480156102c357600080fd5b506102de60048036036102d99190810190611de7565b6113cd565b6040516102eb91906121a2565b60405180910390f35b34801561030057600080fd5b5061031b60048036036103169190810190611de7565b6113f8565b60405161032891906121bd565b60405180910390f35b34801561033d57600080fd5b5061035860048036036103539190810190611dbe565b611433565b6040516103659190612143565b60405180910390f35b34801561037a57600080fd5b5061039560048036036103909190810190611dbe565b6114a9565b6040516103a291906121a2565b60405180910390f35b6060600082815481106103ba57fe5b90600052602060002090600e0201600501805480602002602001604051908101604052809291908181526020016000905b828210156104a7578382906000526020600020018054600181600116156101000203166002900480601f0160208091040260200160405190810160405280929190818152602001828054600181600116156101000203166002900480156104935780601f1061046857610100808354040283529160200191610493565b820191906000526020600020905b81548152906001019060200180831161047657829003601f168201915b5050505050815260200190600101906103eb565b505050509050919050565b6060600082815481106104c157fe5b90600052602060002090600e020160020180548060200260200160405190810160405280929190818152602001828054801561051c57602002820191906000526020600020905b815481526020019060010190808311610508575b50505050509050919050565b60606000828154811061053757fe5b90600052602060002090600e0201600a01805480602002602001604051908101604052809291908181526020016000905b828210156105da578382906000526020600020018054806020026020016040519081016040528092919081815260200182805480156105c657602002820191906000526020600020905b8154815260200190600101908083116105b2575b505050505081526020019060010190610568565b505050509050919050565b600080600084815481106105f557fe5b90600052602060002090600e0201600101838154811061061157fe5b9060005260206000200154141561066c5760016000848154811061063157fe5b90600052602060002090600e0201600c0160000160006101000a81548163ffffffff021916908363ffffffff16021790555060009050610a00565b60008090505b6000848154811061067f57fe5b90600052602060002090600e0201600a0180549050811015610812576060600085815481106106aa57fe5b90600052602060002090600e0201600a0182815481106106c657fe5b9060005260206000200180548060200260200160405190810160405280929190818152602001828054801561071a57602002820191906000526020600020905b815481526020019060010190808311610706575b50505050509050600181858151811061072f57fe5b6020026020010151141561080457600080868154811061074b57fe5b90600052602060002090600e0201600201838154811061076757fe5b90600052602060002001541480156107b2575060016000868154811061078957fe5b90600052602060002090600e020160010183815481106107a557fe5b9060005260206000200154145b15610803576002600086815481106107c657fe5b90600052602060002090600e0201600c0160000160006101000a81548163ffffffff021916908363ffffffff160217905550600092505050610a00565b5b508080600101915050610672565b5060008090505b6000848154811061082657fe5b90600052602060002090600e0201600b01805490508110156109ba5760606000858154811061085157fe5b90600052602060002090600e0201600b01828154811061086d57fe5b906000526020600020018054806020026020016040519081016040528092919081815260200182805480156108c157602002820191906000526020600020905b8154815260200190600101908083116108ad575b5050505050905060018185815181106108d657fe5b602002602001015114156109ac576001600086815481106108f357fe5b90600052602060002090600e0201600301838154811061090f57fe5b906000526020600020015414801561095a575060016000868154811061093157fe5b90600052602060002090600e0201600101838154811061094d57fe5b9060005260206000200154145b156109ab5760036000868154811061096e57fe5b90600052602060002090600e0201600c0160000160006101000a81548163ffffffff021916908363ffffffff160217905550600092505050610a00565b5b508080600101915050610819565b5060008084815481106109c957fe5b90600052602060002090600e0201600c0160000160006101000a81548163ffffffff021916908363ffffffff160217905550600190505b92915050565b606060008281548110610a1557fe5b90600052602060002090600e0201600301805480602002602001604051908101604052809291908181526020018280548015610a7057602002820191906000526020600020905b815481526020019060010190808311610a5c575b50505050509050919050565b610a846114d3565b6040518060400160405280600063ffffffff16815260200160008152509050610aab6114f3565b604051806101a001604052808981526020018d81526020018c81526020018b81526020018a81526020018d51604051908082528060200260200182016040528015610b0a57816020015b6060815260200190600190039081610af55790505b5081526020018d5181526020018881526020018781526020018681526020018581526020018481526020018381525090506000819080600181540180825580915050906001820390600052602060002090600e0201600090919290919091506000820151816000019080519060200190610b85929190611561565b506020820151816001019080519060200190610ba29291906115e1565b506040820151816002019080519060200190610bbf9291906115e1565b506060820151816003019080519060200190610bdc9291906115e1565b506080820151816004019080519060200190610bf992919061162e565b5060a0820151816005019080519060200190610c1692919061168e565b5060c0820151816006015560e0820151816007019080519060200190610c3d9291906116ee565b50610100820151816008019080519060200190610c5b9291906116ee565b50610120820151816009019080519060200190610c799291906116ee565b5061014082015181600a019080519060200190610c979291906116ee565b5061016082015181600b019080519060200190610cb59291906116ee565b5061018082015181600c0160008201518160000160006101000a81548163ffffffff021916908363ffffffff1602179055506020820151816001015550505050503373ffffffffffffffffffffffffffffffffffffffff168160000151604051610d1f91906120e8565b60405180910390206001600080549050037e580e796805b82dd041d9cc2b779ba3dd8b2d71dd1d3a5922e6b4c32cadf19960405160405180910390a4505050505050505050505050565b610d7382826105e5565b610da357600160008381548110610d8657fe5b90600052602060002090600e0201600c0160010181905550611233565b600160008381548110610db257fe5b90600052602060002090600e02016002018281548110610dce57fe5b90600052602060002001819055506000808381548110610dea57fe5b90600052602060002090600e02016003018281548110610e0657fe5b9060005260206000200181905550606060008381548110610e2357fe5b90600052602060002090600e02016008018281548110610e3f57fe5b90600052602060002001805480602002602001604051908101604052809291908181526020018280548015610e9357602002820191906000526020600020905b815481526020019060010190808311610e7f575b50505050509050606060008481548110610ea957fe5b90600052602060002090600e02016009018381548110610ec557fe5b90600052602060002001805480602002602001604051908101604052809291908181526020018280548015610f1957602002820191906000526020600020905b815481526020019060010190808311610f05575b50505050509050606060008581548110610f2f57fe5b90600052602060002090600e02016007018481548110610f4b57fe5b90600052602060002001805480602002602001604051908101604052809291908181526020018280548015610f9f57602002820191906000526020600020905b815481526020019060010190808311610f8b575b50505050509050606060008681548110610fb557fe5b90600052602060002090600e0201600a018581548110610fd157fe5b9060005260206000200180548060200260200160405190810160405280929190818152602001828054801561102557602002820191906000526020600020905b815481526020019060010190808311611011575b5050505050905060008090505b815181101561107f57600182828151811061104957fe5b6020026020010151141561107257600183828151811061106557fe5b6020026020010181815250505b8080600101915050611032565b5060008090505b6000878154811061109357fe5b90600052602060002090600e0201600801805490508110156111c15760018582815181106110bd57fe5b6020026020010151141580156110e6575060018382815181106110dc57fe5b6020026020010151145b15611125576001600088815481106110fa57fe5b90600052602060002090600e0201600101828154811061111657fe5b90600052602060002001819055505b600184828151811061113357fe5b602002602001015114156111b45760016000888154811061115057fe5b90600052602060002090600e0201600301828154811061116c57fe5b906000526020600020018190555060016000888154811061118957fe5b90600052602060002090600e020160010182815481106111a557fe5b90600052602060002001819055505b8080600101915050611086565b503373ffffffffffffffffffffffffffffffffffffffff1685877fd853302052b9b346cf4b175b34d36663cb511da3c0c7f221f21ec256fc7f625160405160405180910390a460016000878154811061121657fe5b90600052602060002090600e0201600c0160010181905550505050505b5050565b60606000838154811061124657fe5b90600052602060002090600e0201600401828154811061126257fe5b906000526020600020018054600181600116156101000203166002900480601f0160208091040260200160405190810160405280929190818152602001828054600181600116156101000203166002900480156113005780601f106112d557610100808354040283529160200191611300565b820191906000526020600020905b8154815290600101906020018083116112e357829003601f168201915b5050505050905092915050565b60606000828154811061131c57fe5b90600052602060002090600e02016000018054600181600116156101000203166002900480601f0160208091040260200160405190810160405280929190818152602001828054600181600116156101000203166002900480156113c15780601f10611396576101008083540402835291602001916113c1565b820191906000526020600020905b8154815290600101906020018083116113a457829003601f168201915b50505050509050919050565b60008083815481106113db57fe5b90600052602060002090600e0201600c0160010154905092915050565b600080838154811061140657fe5b90600052602060002090600e0201600c0160000160009054906101000a900463ffffffff16905092915050565b60606000828154811061144257fe5b90600052602060002090600e020160010180548060200260200160405190810160405280929190818152602001828054801561149d57602002820191906000526020600020905b815481526020019060010190808311611489575b50505050509050919050565b60008082815481106114b757fe5b90600052602060002090600e0201600701805490509050919050565b6040518060400160405280600063ffffffff168152602001600081525090565b604051806101a0016040528060608152602001606081526020016060815260200160608152602001606081526020016060815260200160008152602001606081526020016060815260200160608152602001606081526020016060815260200161155b61174e565b81525090565b828054600181600116156101000203166002900490600052602060002090601f016020900481019282601f106115a257805160ff19168380011785556115d0565b828001600101855582156115d0579182015b828111156115cf5782518255916020019190600101906115b4565b5b5090506115dd919061176e565b5090565b82805482825590600052602060002090810192821561161d579160200282015b8281111561161c578251825591602001919060010190611601565b5b50905061162a919061176e565b5090565b82805482825590600052602060002090810192821561167d579160200282015b8281111561167c57825182908051906020019061166c929190611561565b509160200191906001019061164e565b5b50905061168a9190611793565b5090565b8280548282559060005260206000209081019282156116dd579160200282015b828111156116dc5782518290805190602001906116cc9291906117bf565b50916020019190600101906116ae565b5b5090506116ea919061183f565b5090565b82805482825590600052602060002090810192821561173d579160200282015b8281111561173c57825182908051906020019061172c9291906115e1565b509160200191906001019061170e565b5b50905061174a919061186b565b5090565b6040518060400160405280600063ffffffff168152602001600081525090565b61179091905b8082111561178c576000816000905550600101611774565b5090565b90565b6117bc91905b808211156117b857600081816117af9190611897565b50600101611799565b5090565b90565b828054600181600116156101000203166002900490600052602060002090601f016020900481019282601f1061180057805160ff191683800117855561182e565b8280016001018555821561182e579182015b8281111561182d578251825591602001919060010190611812565b5b50905061183b919061176e565b5090565b61186891905b80821115611864576000818161185b91906118df565b50600101611845565b5090565b90565b61189491905b8082111561189057600081816118879190611927565b50600101611871565b5090565b90565b50805460018160011615610100020316600290046000825580601f106118bd57506118dc565b601f0160209004906000526020600020908101906118db919061176e565b5b50565b50805460018160011615610100020316600290046000825580601f106119055750611924565b601f016020900490600052602060002090810190611923919061176e565b5b50565b5080546000825590600052602060002090810190611945919061176e565b50565b600082601f83011261195957600080fd5b813561196c61196782612205565b6121d8565b9150818183526020840193506020810190508360005b838110156119b257813586016119988882611a30565b845260208401935060208301925050600181019050611982565b5050505092915050565b600082601f8301126119cd57600080fd5b81356119e06119db8261222d565b6121d8565b9150818183526020840193506020810190508360005b83811015611a265781358601611a0c8882611b36565b8452602084019350602083019250506001810190506119f6565b5050505092915050565b600082601f830112611a4157600080fd5b8135611a54611a4f82612255565b6121d8565b91508181835260208401935060208101905083856020840282011115611a7957600080fd5b60005b83811015611aa95781611a8f8882611bde565b845260208401935060208301925050600181019050611a7c565b5050505092915050565b600082601f830112611ac457600080fd5b8135611ad7611ad28261227d565b6121d8565b91508181835260208401935060208101905083856020840282011115611afc57600080fd5b60005b83811015611b2c5781611b128882611bde565b845260208401935060208301925050600181019050611aff565b5050505092915050565b600082601f830112611b4757600080fd5b8135611b5a611b55826122a5565b6121d8565b91508082526020830160208301858383011115611b7657600080fd5b611b81838284612455565b50505092915050565b600082601f830112611b9b57600080fd5b8135611bae611ba9826122d1565b6121d8565b91508082526020830160208301858383011115611bca57600080fd5b611bd5838284612455565b50505092915050565b600081359050611bed816124a8565b92915050565b6000806000806000806000806000806101408b8d031215611c1357600080fd5b60008b013567ffffffffffffffff811115611c2d57600080fd5b611c398d828e01611ab3565b9a505060208b013567ffffffffffffffff811115611c5657600080fd5b611c628d828e01611ab3565b99505060408b013567ffffffffffffffff811115611c7f57600080fd5b611c8b8d828e01611ab3565b98505060608b013567ffffffffffffffff811115611ca857600080fd5b611cb48d828e016119bc565b97505060808b013567ffffffffffffffff811115611cd157600080fd5b611cdd8d828e01611b8a565b96505060a08b013567ffffffffffffffff811115611cfa57600080fd5b611d068d828e01611948565b95505060c08b013567ffffffffffffffff811115611d2357600080fd5b611d2f8d828e01611948565b94505060e08b013567ffffffffffffffff811115611d4c57600080fd5b611d588d828e01611948565b9350506101008b013567ffffffffffffffff811115611d7657600080fd5b611d828d828e01611948565b9250506101208b013567ffffffffffffffff811115611da057600080fd5b611dac8d828e01611948565b9150509295989b9194979a5092959850565b600060208284031215611dd057600080fd5b6000611dde84828501611bde565b91505092915050565b60008060408385031215611dfa57600080fd5b6000611e0885828601611bde565b9250506020611e1985828601611bde565b9150509250929050565b6000611e2f8383611fab565b905092915050565b6000611e438383612018565b905092915050565b6000611e5783836120bb565b60208301905092915050565b6000611e6e8261233d565b611e7881856123be565b935083602082028501611e8a856122fd565b8060005b85811015611ec65784840389528151611ea78582611e23565b9450611eb28361238a565b925060208a01995050600181019050611e8e565b50829750879550505050505092915050565b6000611ee382612348565b611eed81856123cf565b935083602082028501611eff8561230d565b8060005b85811015611f3b5784840389528151611f1c8582611e37565b9450611f2783612397565b925060208a01995050600181019050611f03565b50829750879550505050505092915050565b6000611f588261235e565b611f6281856123f1565b9350611f6d8361232d565b8060005b83811015611f9e578151611f858882611e4b565b9750611f90836123b1565b925050600181019050611f71565b5085935050505092915050565b6000611fb682612353565b611fc081856123e0565b9350611fcb8361231d565b8060005b83811015611ffc578151611fe38882611e4b565b9750611fee836123a4565b925050600181019050611fcf565b5085935050505092915050565b6120128161242f565b82525050565b600061202382612369565b61202d8185612402565b935061203d818560208601612464565b61204681612497565b840191505092915050565b600061205c8261237f565b6120668185612413565b9350612076818560208601612464565b61207f81612497565b840191505092915050565b600061209582612374565b61209f8185612424565b93506120af818560208601612464565b80840191505092915050565b6120c48161243b565b82525050565b6120d38161243b565b82525050565b6120e281612445565b82525050565b60006120f4828461208a565b915081905092915050565b600060208201905081810360008301526121198184611e63565b905092915050565b6000602082019050818103600083015261213b8184611ed8565b905092915050565b6000602082019050818103600083015261215d8184611f4d565b905092915050565b600060208201905061217a6000830184612009565b92915050565b6000602082019050818103600083015261219a8184612051565b905092915050565b60006020820190506121b760008301846120ca565b92915050565b60006020820190506121d260008301846120d9565b92915050565b6000604051905081810181811067ffffffffffffffff821117156121fb57600080fd5b8060405250919050565b600067ffffffffffffffff82111561221c57600080fd5b602082029050602081019050919050565b600067ffffffffffffffff82111561224457600080fd5b602082029050602081019050919050565b600067ffffffffffffffff82111561226c57600080fd5b602082029050602081019050919050565b600067ffffffffffffffff82111561229457600080fd5b602082029050602081019050919050565b600067ffffffffffffffff8211156122bc57600080fd5b601f19601f8301169050602081019050919050565b600067ffffffffffffffff8211156122e857600080fd5b601f19601f8301169050602081019050919050565b6000819050602082019050919050565b6000819050602082019050919050565b6000819050602082019050919050565b6000819050602082019050919050565b600081519050919050565b600081519050919050565b600081519050919050565b600081519050919050565b600081519050919050565b600081519050919050565b600081519050919050565b6000602082019050919050565b6000602082019050919050565b6000602082019050919050565b6000602082019050919050565b600082825260208201905092915050565b600082825260208201905092915050565b600082825260208201905092915050565b600082825260208201905092915050565b600082825260208201905092915050565b600082825260208201905092915050565b600081905092915050565b60008115159050919050565b6000819050919050565b600063ffffffff82169050919050565b82818337600083830152505050565b60005b83811015612482578082015181840152602081019050612467565b83811115612491576000848401525b50505050565b6000601f19601f8301169050919050565b6124b18161243b565b81146124bc57600080fd5b5056fea365627a7a72315820c3a0f013303ce5f7cd4dda84b2b5b421e45a86bca479ea844b7a1923f37f93026c6578706572696d656e74616cf564736f6c63430005100040",
  "source": "//pragma solidity 0.5.10;\npragma solidity ^0.5.16;\npragma experimental ABIEncoderV2;\n\ncontract PublicDCRManager {\n    // event declaration\n    event LogWorkflowCreation(\n        uint256 indexed workflowId,\n        string indexed workflowName,\n        address indexed creator\n    );\n    event LogExecution(\n        uint256 indexed workflowId,\n        uint256 indexed activityId,\n        address indexed executor\n    );\n\n    // variable declarations.\n    struct Workflow {\n        string name;\n        uint256[] included;\n        uint256[] executed;\n        uint256[] pending;\n        string[] activityNames;\n        bytes[] ipfsActivityHashes;\n        uint256 numActivities; //number of included activities\n        uint256[][] includesTo;\n        uint256[][] excludesTo;\n        uint256[][] responsesTo;\n        uint256[][] conditionsFrom;\n        uint256[][] milestonesFrom;\n        Activity execStatus;\n    }\n\n    struct Activity {\n        uint32 canExecuteCheck;\n        uint256 status; //0=no, 1=yes\n    }\n\n    Workflow[] workflows;\n\n    ///////////////// Misc ////////////////////////\n\n    /** @dev Getter for workflow name.\n      * @param workflowId index of the workflow (eg 0 for the first workflow).\n      * @return workflow name.\n      */\n    function getWorflowName(uint256 workflowId)\n        public\n        view\n        returns (string memory)\n    {\n        return workflows[workflowId].name;\n    }\n\n    /** @dev Getter for workflow execution status.\n      * @param workflowId index of the workflow (eg 0 for the first workflow).\n      * @return execution status of the task: 0=ok, 1= \n      */\n    function getCanExecuteCheck(uint256 workflowId, uint256 activityId)\n        public\n        view\n        returns (uint32)\n    {\n        return workflows[workflowId].execStatus.canExecuteCheck;\n    }\n\n    function getStatus(uint256 workflowId, uint256 activityId)\n        public\n        view\n        returns (uint256)\n    {\n        return workflows[workflowId].execStatus.status;\n    }\n\n    function getWkfLength(uint256 workflowId) public view returns (uint256) {\n        return workflows[workflowId].includesTo.length;\n    }\n\n    function getIncluded(uint256 workflowId)\n        public\n        view\n        returns (uint256[] memory)\n    {\n        return workflows[workflowId].included;\n    }\n\n    function getExecuted(uint256 workflowId)\n        public\n        view\n        returns (uint256[] memory)\n    {\n        return workflows[workflowId].executed;\n    }\n\n    function getPending(uint256 workflowId)\n        public\n        view\n        returns (uint256[] memory)\n    {\n        return workflows[workflowId].pending;\n    }\n\n    function getConditionsFrom(uint256 workflowId)\n        public\n        view\n        returns (uint256[][] memory)\n    {\n        return workflows[workflowId].conditionsFrom;\n    }\n\n    function getHashes(uint256 workflowId)\n        public\n        view\n        returns (bytes[] memory)\n    {\n        return workflows[workflowId].ipfsActivityHashes;\n    }\n\n    function getActivityName(uint256 workflowId, uint256 activityId)\n        public\n        view\n        returns (string memory)\n    {\n        return workflows[workflowId].activityNames[activityId];\n    }\n\n    ///////////////// Utils /////////////////////////\n\n    function canExecute(uint256 workflowId, uint256 activityId)\n        public\n        returns (bool)\n    {\n        // activity must be included\n        if (workflows[workflowId].included[activityId] == 0) {\n            workflows[workflowId].execStatus.canExecuteCheck = 1;\n            return false;\n        }\n\n        // all conditions executed\n        for (\n            uint256 id = 0;\n            id < workflows[workflowId].conditionsFrom.length;\n            id++\n        ) {\n            uint256[] memory conditionsRow =\n                workflows[workflowId].conditionsFrom[id];\n            if (conditionsRow[activityId] == 1) {\n                if (\n                    (workflows[workflowId].executed[id] == 0) &&\n                    (workflows[workflowId].included[id] == 1)\n                ) {\n                    workflows[workflowId].execStatus.canExecuteCheck = 2;\n                    return false;\n                }\n            }\n        }\n\n        // no milestones pending\n        for (\n            uint256 id = 0;\n            id < workflows[workflowId].milestonesFrom.length;\n            id++\n        ) {\n            uint256[] memory milestonesRow =\n                workflows[workflowId].milestonesFrom[id];\n            if (milestonesRow[activityId] == 1) {\n                if (\n                    (workflows[workflowId].pending[id] == 1) &&\n                    (workflows[workflowId].included[id] == 1)\n                ) {\n                    workflows[workflowId].execStatus.canExecuteCheck = 3;\n                    return false;\n                }\n            }\n        }\n\n        workflows[workflowId].execStatus.canExecuteCheck = 0;\n        return true;\n    }\n\n    ///////////////// Main functions /////////////////////////\n\n    function createWorkflow(\n        // packed state variables\n        uint256[] memory _includedStates,\n        uint256[] memory _executedStates,\n        uint256[] memory _pendingStates,\n        string[] memory _activityNames,\n        string memory _name,\n        // relations\n        uint256[][] memory _includesTo,\n        uint256[][] memory _excludesTo,\n        uint256[][] memory _responsesTo,\n        uint256[][] memory _conditionsFrom,\n        uint256[][] memory _milestonesFrom\n    ) public payable {\n        Activity memory execStatus = Activity(0, 0);\n        Workflow memory wf =\n            Workflow(\n                _name,\n                _includedStates,\n                _executedStates,\n                _pendingStates,\n                _activityNames,\n                new bytes[](_includedStates.length),\n                _includedStates.length,\n                _includesTo,\n                _excludesTo,\n                _responsesTo,\n                _conditionsFrom,\n                _milestonesFrom,\n                execStatus\n            );\n        workflows.push(wf);\n\n        emit LogWorkflowCreation(workflows.length - 1, wf.name, msg.sender);\n    }\n\n    function checkCliquedIndex(uint256 workflowId, uint256 activityId)\n        public\n    //        bytes memory ipfsHash\n    {\n        if (!canExecute(workflowId, activityId)) {\n            workflows[workflowId].execStatus.status = 1;\n            //revert();\n        } else {\n            // executed activity\n            workflows[workflowId].executed[activityId] = 1;\n            workflows[workflowId].pending[activityId] = 0;\n            //            workflows[workflowId].ipfsActivityHashes[activityId] = ipfsHash;\n\n            uint256[] memory exclude_vect_check =\n                workflows[workflowId].excludesTo[activityId];\n            uint256[] memory response_vect_check =\n                workflows[workflowId].responsesTo[activityId];\n\n            // add include relations\n            uint256[] memory include_vect_check =\n                workflows[workflowId].includesTo[activityId];\n\n            // update with condition relations ok\n            uint256[] memory conditionsTo =\n                workflows[workflowId].conditionsFrom[activityId]; //extract row condition\n            for (uint256 id = 0; id < conditionsTo.length; id++) {\n                if (conditionsTo[id] == 1) {\n                    include_vect_check[id] = 1;\n                }\n            }\n\n            for (\n                uint256 id = 0;\n                id < workflows[workflowId].excludesTo.length;\n                id++\n            ) {\n                // exclude and include relations pass\n                // note includes happens after the exclude pass\n                // included = (included & ~excludesTo[activityId]) | includesTo[activityId];\n                if (\n                    (exclude_vect_check[id] != 1) &&\n                    (include_vect_check[id] == 1)\n                ) {\n                    workflows[workflowId].included[id] = 1;\n                }\n\n                // response relations pass\n                // pending = (pending | responsesTo[activityId]);\n                if (response_vect_check[id] == 1) {\n                    workflows[workflowId].pending[id] = 1;\n                    workflows[workflowId].included[id] = 1;\n                }\n            }\n\n            emit LogExecution(workflowId, activityId, msg.sender);\n\n            workflows[workflowId].execStatus.status = 1;\n        }\n    }\n}\n",
  "sourcePath": "/home/hhdf8435/code/masterPlatform/contracts/PublicDCRManager.sol",
  "compiler": {
    "name": "solc",
    "version": "0.5.16+commit.9c3226ce.Emscripten.clang"
  },
  "schemaVersion": "3.3.4",
  "updatedAt": "2021-05-12T12:31:44.457Z",
  "networkType": "ethereum",
  "devdoc": {
    "methods": {
      "getCanExecuteCheck(uint256,uint256)": {
        "details": "Getter for workflow execution status.",
        "params": {
          "workflowId": "index of the workflow (eg 0 for the first workflow)."
        },
        "return": "execution status of the task: 0=ok, 1= "
      },
      "getWorflowName(uint256)": {
        "details": "Getter for workflow name.",
        "params": {
          "workflowId": "index of the workflow (eg 0 for the first workflow)."
        },
        "return": "workflow name."
      }
    }
  },
  "userdoc": {
    "methods": {
      "canExecute(uint256,uint256)": {
        "notice": "////////////// Utils /////////////////////////"
      },
      "createWorkflow(uint256[],uint256[],uint256[],string[],string,uint256[][],uint256[][],uint256[][],uint256[][],uint256[][])": {
        "notice": "////////////// Main functions /////////////////////////"
      }
    }
  }
}