{
  "contractName": "PublicDCRManager",
  "abi": [
    {
      "anonymous": false,
      "inputs": [
        {
          "indexed": false,
          "internalType": "string",
          "name": "reqWkfHash",
          "type": "string"
        },
        {
          "indexed": true,
          "internalType": "address",
          "name": "endorser",
          "type": "address"
        }
      ],
      "name": "AcceptChange",
      "type": "event"
    },
    {
      "anonymous": false,
      "inputs": [
        {
          "indexed": false,
          "internalType": "string",
          "name": "reqWkfHash",
          "type": "string"
        }
      ],
      "name": "AcceptChangeAll",
      "type": "event"
    },
    {
      "anonymous": false,
      "inputs": [
        {
          "indexed": false,
          "internalType": "string",
          "name": "reqWkfHash",
          "type": "string"
        },
        {
          "indexed": true,
          "internalType": "address",
          "name": "endorser",
          "type": "address"
        }
      ],
      "name": "DeclineChange",
      "type": "event"
    },
    {
      "anonymous": false,
      "inputs": [
        {
          "indexed": true,
          "internalType": "string",
          "name": "workflowHash",
          "type": "string"
        },
        {
          "indexed": true,
          "internalType": "uint256",
          "name": "activityId",
          "type": "uint256"
        },
        {
          "indexed": true,
          "internalType": "address",
          "name": "executor",
          "type": "address"
        }
      ],
      "name": "LogExecution",
      "type": "event"
    },
    {
      "anonymous": false,
      "inputs": [
        {
          "indexed": true,
          "internalType": "string",
          "name": "workflowHash",
          "type": "string"
        },
        {
          "indexed": true,
          "internalType": "address",
          "name": "creator",
          "type": "address"
        }
      ],
      "name": "LogWorkflowCreation",
      "type": "event"
    },
    {
      "anonymous": false,
      "inputs": [
        {
          "indexed": true,
          "internalType": "string",
          "name": "workflowHash",
          "type": "string"
        },
        {
          "indexed": true,
          "internalType": "address",
          "name": "creator",
          "type": "address"
        }
      ],
      "name": "LogWorkflowProjection",
      "type": "event"
    },
    {
      "anonymous": false,
      "inputs": [
        {
          "indexed": false,
          "internalType": "string",
          "name": "reqWkfHash",
          "type": "string"
        },
        {
          "indexed": true,
          "internalType": "address",
          "name": "endorser",
          "type": "address"
        },
        {
          "indexed": false,
          "internalType": "string",
          "name": "comment",
          "type": "string"
        }
      ],
      "name": "RSPErrorChange",
      "type": "event"
    },
    {
      "anonymous": false,
      "inputs": [
        {
          "indexed": false,
          "internalType": "string",
          "name": "workflowHashes",
          "type": "string"
        },
        {
          "indexed": true,
          "internalType": "address",
          "name": "endorser",
          "type": "address"
        },
        {
          "indexed": true,
          "internalType": "address",
          "name": "initiator",
          "type": "address"
        }
      ],
      "name": "RequestChange",
      "type": "event"
    },
    {
      "constant": true,
      "inputs": [],
      "name": "getAllWKHashes",
      "outputs": [
        {
          "internalType": "string[]",
          "name": "",
          "type": "string[]"
        }
      ],
      "payable": false,
      "stateMutability": "view",
      "type": "function"
    },
    {
      "constant": false,
      "inputs": [
        {
          "internalType": "string",
          "name": "_hash",
          "type": "string"
        },
        {
          "internalType": "string",
          "name": "x",
          "type": "string"
        }
      ],
      "name": "sendHash",
      "outputs": [],
      "payable": false,
      "stateMutability": "nonpayable",
      "type": "function"
    },
    {
      "constant": true,
      "inputs": [
        {
          "internalType": "string",
          "name": "_hash",
          "type": "string"
        }
      ],
      "name": "getHash",
      "outputs": [
        {
          "internalType": "string",
          "name": "x",
          "type": "string"
        }
      ],
      "payable": false,
      "stateMutability": "view",
      "type": "function"
    },
    {
      "constant": true,
      "inputs": [
        {
          "internalType": "string",
          "name": "_hash",
          "type": "string"
        }
      ],
      "name": "getChangeValue",
      "outputs": [
        {
          "internalType": "uint256",
          "name": "",
          "type": "uint256"
        }
      ],
      "payable": false,
      "stateMutability": "view",
      "type": "function"
    },
    {
      "constant": true,
      "inputs": [
        {
          "internalType": "string",
          "name": "_hash",
          "type": "string"
        }
      ],
      "name": "getWKFValue",
      "outputs": [
        {
          "internalType": "uint256",
          "name": "",
          "type": "uint256"
        }
      ],
      "payable": false,
      "stateMutability": "view",
      "type": "function"
    },
    {
      "constant": true,
      "inputs": [
        {
          "internalType": "string",
          "name": "_hash",
          "type": "string"
        }
      ],
      "name": "getChangeEndorsement",
      "outputs": [
        {
          "internalType": "uint256[]",
          "name": "",
          "type": "uint256[]"
        }
      ],
      "payable": false,
      "stateMutability": "view",
      "type": "function"
    },
    {
      "constant": true,
      "inputs": [],
      "name": "getTest",
      "outputs": [
        {
          "internalType": "string",
          "name": "",
          "type": "string"
        }
      ],
      "payable": false,
      "stateMutability": "view",
      "type": "function"
    },
    {
      "constant": true,
      "inputs": [
        {
          "internalType": "string",
          "name": "_hash",
          "type": "string"
        }
      ],
      "name": "getWorkflowName",
      "outputs": [
        {
          "internalType": "string",
          "name": "",
          "type": "string"
        }
      ],
      "payable": false,
      "stateMutability": "view",
      "type": "function"
    },
    {
      "constant": true,
      "inputs": [
        {
          "internalType": "string",
          "name": "_hash",
          "type": "string"
        },
        {
          "internalType": "uint256",
          "name": "activityId",
          "type": "uint256"
        }
      ],
      "name": "getCanExecuteCheck",
      "outputs": [
        {
          "internalType": "uint32",
          "name": "",
          "type": "uint32"
        }
      ],
      "payable": false,
      "stateMutability": "view",
      "type": "function"
    },
    {
      "constant": true,
      "inputs": [
        {
          "internalType": "string",
          "name": "_hash",
          "type": "string"
        },
        {
          "internalType": "uint256",
          "name": "activityId",
          "type": "uint256"
        }
      ],
      "name": "getStatus",
      "outputs": [
        {
          "internalType": "uint256",
          "name": "",
          "type": "uint256"
        }
      ],
      "payable": false,
      "stateMutability": "view",
      "type": "function"
    },
    {
      "constant": true,
      "inputs": [
        {
          "internalType": "string",
          "name": "_hash",
          "type": "string"
        }
      ],
      "name": "getWkfLength",
      "outputs": [
        {
          "internalType": "uint256",
          "name": "",
          "type": "uint256"
        }
      ],
      "payable": false,
      "stateMutability": "view",
      "type": "function"
    },
    {
      "constant": true,
      "inputs": [
        {
          "internalType": "string",
          "name": "_hash",
          "type": "string"
        }
      ],
      "name": "getIncluded",
      "outputs": [
        {
          "internalType": "uint256[]",
          "name": "",
          "type": "uint256[]"
        }
      ],
      "payable": false,
      "stateMutability": "view",
      "type": "function"
    },
    {
      "constant": true,
      "inputs": [
        {
          "internalType": "string",
          "name": "_hash",
          "type": "string"
        }
      ],
      "name": "getExecuted",
      "outputs": [
        {
          "internalType": "uint256[]",
          "name": "",
          "type": "uint256[]"
        }
      ],
      "payable": false,
      "stateMutability": "view",
      "type": "function"
    },
    {
      "constant": true,
      "inputs": [
        {
          "internalType": "string",
          "name": "_hash",
          "type": "string"
        }
      ],
      "name": "getPending",
      "outputs": [
        {
          "internalType": "uint256[]",
          "name": "",
          "type": "uint256[]"
        }
      ],
      "payable": false,
      "stateMutability": "view",
      "type": "function"
    },
    {
      "constant": true,
      "inputs": [
        {
          "internalType": "string",
          "name": "_hash",
          "type": "string"
        }
      ],
      "name": "getConditionsFrom",
      "outputs": [
        {
          "internalType": "uint256[][]",
          "name": "",
          "type": "uint256[][]"
        }
      ],
      "payable": false,
      "stateMutability": "view",
      "type": "function"
    },
    {
      "constant": true,
      "inputs": [
        {
          "internalType": "string",
          "name": "_hash",
          "type": "string"
        }
      ],
      "name": "getHashes",
      "outputs": [
        {
          "internalType": "bytes[]",
          "name": "",
          "type": "bytes[]"
        }
      ],
      "payable": false,
      "stateMutability": "view",
      "type": "function"
    },
    {
      "constant": true,
      "inputs": [
        {
          "internalType": "string",
          "name": "_hash",
          "type": "string"
        },
        {
          "internalType": "uint256",
          "name": "activityId",
          "type": "uint256"
        }
      ],
      "name": "getActivityName",
      "outputs": [
        {
          "internalType": "string",
          "name": "",
          "type": "string"
        }
      ],
      "payable": false,
      "stateMutability": "view",
      "type": "function"
    },
    {
      "constant": true,
      "inputs": [
        {
          "internalType": "string",
          "name": "_hash",
          "type": "string"
        },
        {
          "internalType": "uint256",
          "name": "activityId",
          "type": "uint256"
        }
      ],
      "name": "getRoleAddresses",
      "outputs": [
        {
          "internalType": "address",
          "name": "",
          "type": "address"
        }
      ],
      "payable": false,
      "stateMutability": "view",
      "type": "function"
    },
    {
      "constant": true,
      "inputs": [
        {
          "internalType": "string",
          "name": "_hash",
          "type": "string"
        }
      ],
      "name": "getAddresses",
      "outputs": [
        {
          "internalType": "address[]",
          "name": "",
          "type": "address[]"
        }
      ],
      "payable": false,
      "stateMutability": "view",
      "type": "function"
    },
    {
      "constant": false,
      "inputs": [
        {
          "internalType": "address",
          "name": "myAddress",
          "type": "address"
        },
        {
          "internalType": "address[]",
          "name": "toNotify",
          "type": "address[]"
        },
        {
          "internalType": "string",
          "name": "_hashes",
          "type": "string"
        },
        {
          "internalType": "string",
          "name": "curr_hash",
          "type": "string"
        },
        {
          "internalType": "string",
          "name": "req_hash",
          "type": "string"
        }
      ],
      "name": "requestChange",
      "outputs": [],
      "payable": true,
      "stateMutability": "payable",
      "type": "function"
    },
    {
      "constant": false,
      "inputs": [
        {
          "internalType": "address",
          "name": "myAddress",
          "type": "address"
        },
        {
          "internalType": "address[]",
          "name": "myAddresses",
          "type": "address[]"
        },
        {
          "internalType": "string",
          "name": "myHash",
          "type": "string"
        },
        {
          "internalType": "uint256",
          "name": "myDecision",
          "type": "uint256"
        }
      ],
      "name": "updateTableOnAddress",
      "outputs": [],
      "payable": true,
      "stateMutability": "payable",
      "type": "function"
    },
    {
      "constant": false,
      "inputs": [
        {
          "internalType": "string",
          "name": "myHash",
          "type": "string"
        }
      ],
      "name": "finalApprovalManager",
      "outputs": [],
      "payable": true,
      "stateMutability": "payable",
      "type": "function"
    },
    {
      "constant": false,
      "inputs": [
        {
          "internalType": "string",
          "name": "curr_hash",
          "type": "string"
        },
        {
          "internalType": "string",
          "name": "req_hash",
          "type": "string"
        },
        {
          "internalType": "uint256",
          "name": "rsp",
          "type": "uint256"
        }
      ],
      "name": "endorserRSP",
      "outputs": [
        {
          "internalType": "string",
          "name": "",
          "type": "string"
        }
      ],
      "payable": true,
      "stateMutability": "payable",
      "type": "function"
    },
    {
      "constant": false,
      "inputs": [
        {
          "internalType": "string",
          "name": "_hash",
          "type": "string"
        },
        {
          "internalType": "address",
          "name": "myAddress",
          "type": "address"
        }
      ],
      "name": "fetchPublicView",
      "outputs": [
        {
          "internalType": "string",
          "name": "",
          "type": "string"
        }
      ],
      "payable": true,
      "stateMutability": "payable",
      "type": "function"
    },
    {
      "constant": true,
      "inputs": [
        {
          "internalType": "string",
          "name": "_hash",
          "type": "string"
        }
      ],
      "name": "getApprovalsOutcome",
      "outputs": [
        {
          "internalType": "uint256[]",
          "name": "",
          "type": "uint256[]"
        }
      ],
      "payable": false,
      "stateMutability": "view",
      "type": "function"
    },
    {
      "constant": true,
      "inputs": [
        {
          "internalType": "string",
          "name": "_hash",
          "type": "string"
        },
        {
          "internalType": "address",
          "name": "myAddress",
          "type": "address"
        }
      ],
      "name": "hasApproved",
      "outputs": [
        {
          "internalType": "uint256",
          "name": "",
          "type": "uint256"
        }
      ],
      "payable": false,
      "stateMutability": "view",
      "type": "function"
    },
    {
      "constant": false,
      "inputs": [
        {
          "internalType": "string",
          "name": "_hash",
          "type": "string"
        },
        {
          "internalType": "address",
          "name": "myAddress",
          "type": "address"
        }
      ],
      "name": "confirmProjection",
      "outputs": [
        {
          "internalType": "uint256[]",
          "name": "",
          "type": "uint256[]"
        }
      ],
      "payable": true,
      "stateMutability": "payable",
      "type": "function"
    },
    {
      "constant": false,
      "inputs": [
        {
          "internalType": "string",
          "name": "_hash",
          "type": "string"
        },
        {
          "internalType": "uint256",
          "name": "activityId",
          "type": "uint256"
        },
        {
          "internalType": "address",
          "name": "msgSender",
          "type": "address"
        }
      ],
      "name": "canExecute",
      "outputs": [
        {
          "internalType": "bool",
          "name": "",
          "type": "bool"
        }
      ],
      "payable": false,
      "stateMutability": "nonpayable",
      "type": "function"
    },
    {
      "constant": false,
      "inputs": [
        {
          "internalType": "string",
          "name": "_hash",
          "type": "string"
        },
        {
          "internalType": "uint256",
          "name": "activityId",
          "type": "uint256"
        }
      ],
      "name": "checkCliquedIndex",
      "outputs": [],
      "payable": false,
      "stateMutability": "nonpayable",
      "type": "function"
    },
    {
      "constant": false,
      "inputs": [
        {
          "internalType": "uint256[][]",
          "name": "markingStates",
          "type": "uint256[][]"
        },
        {
          "internalType": "string",
          "name": "_ipfsViewHash",
          "type": "string"
        },
        {
          "internalType": "address[]",
          "name": "_roleAddresses",
          "type": "address[]"
        },
        {
          "internalType": "address[]",
          "name": "_approvalAddresses",
          "type": "address[]"
        },
        {
          "internalType": "string[]",
          "name": "_activityNames",
          "type": "string[]"
        },
        {
          "internalType": "string",
          "name": "_name",
          "type": "string"
        },
        {
          "internalType": "uint256[][][]",
          "name": "_relations",
          "type": "uint256[][][]"
        }
      ],
      "name": "uploadPublicView",
      "outputs": [],
      "payable": true,
      "stateMutability": "payable",
      "type": "function"
    }
  ],
  "bytecode": "0x60806040526040518060400160405280600481526020017f696e697400000000000000000000000000000000000000000000000000000000815250600090805190602001906200005192919062000066565b503480156200005f57600080fd5b5062000115565b828054600181600116156101000203166002900490600052602060002090601f016020900481019282601f10620000a957805160ff1916838001178555620000da565b82800160010185558215620000da579182015b82811115620000d9578251825591602001919060010190620000bc565b5b509050620000e99190620000ed565b5090565b6200011291905b808211156200010e576000816000905550600101620000f4565b5090565b90565b6150b780620001256000396000f3fe6080604052600436106101cd5760003560e01c80636cb4e345116100f75780639694f9fb11610095578063cb89cdfd11610064578063cb89cdfd14610740578063e9b2b8861461077d578063ee69739d146107ba578063f89a3b10146107d6576101cd565b80639694f9fb14610693578063a158e4b0146106d0578063a8cd0a80146106ec578063cb2c951414610717576101cd565b8063827f9511116100d1578063827f9511146105cd57806385e0efc01461060a578063895d7d64146106265780638dce7dde14610656576101cd565b80636cb4e345146105375780636d1beb8f146105745780636f384bfc146105b1576101cd565b806339b64c301161016f5780636342b1c21161013e5780636342b1c214610443578063671ef9a6146104805780636a554342146104bd5780636b9884dc146104fa576101cd565b806339b64c301461034f57806342b759fc1461038c5780634e894b32146103c95780635b6beeb914610406576101cd565b806318008e57116101ab57806318008e57146102685780631fe1317b146102985780632c3c0f9c146102d557806336a0c08514610312576101cd565b806302413fd4146101d25780630c48ae991461020f5780630ce3602414610238575b600080fd5b3480156101de57600080fd5b506101f960048036036101f491908101906141c2565b610801565b6040516102069190614acf565b60405180910390f35b34801561021b57600080fd5b5061023660048036036102319190810190614257565b61087d565b005b610252600480360361024d9190810190614203565b6108b7565b60405161025f9190614acf565b60405180910390f35b610282600480360361027d9190810190614203565b610bf8565b60405161028f9190614b0c565b60405180910390f35b3480156102a457600080fd5b506102bf60048036036102ba91908101906141c2565b610e74565b6040516102cc9190614bfa565b60405180910390f35b3480156102e157600080fd5b506102fc60048036036102f79190810190614396565b610eb8565b6040516103099190614af1565b60405180910390f35b34801561031e57600080fd5b50610339600480360361033491908101906141c2565b611440565b6040516103469190614bfa565b60405180910390f35b34801561035b57600080fd5b50610376600480360361037191908101906141c2565b611483565b6040516103839190614a47565b60405180910390f35b34801561039857600080fd5b506103b360048036036103ae9190810190614342565b611532565b6040516103c09190614bfa565b60405180910390f35b3480156103d557600080fd5b506103f060048036036103eb91908101906141c2565b611561565b6040516103fd9190614a69565b60405180910390f35b34801561041257600080fd5b5061042d600480360361042891908101906141c2565b611637565b60405161043a9190614b0c565b60405180910390f35b34801561044f57600080fd5b5061046a600480360361046591908101906141c2565b6116fa565b6040516104779190614acf565b60405180910390f35b34801561048c57600080fd5b506104a760048036036104a291908101906141c2565b611776565b6040516104b49190614acf565b60405180910390f35b3480156104c957600080fd5b506104e460048036036104df9190810190614342565b6117ef565b6040516104f19190614b0c565b60405180910390f35b34801561050657600080fd5b50610521600480360361051c9190810190614342565b6118c8565b60405161052e9190614c15565b60405180910390f35b34801561054357600080fd5b5061055e60048036036105599190810190614203565b611907565b60405161056b9190614bfa565b60405180910390f35b34801561058057600080fd5b5061059b600480360361059691908101906141c2565b611a2a565b6040516105a89190614bfa565b60405180910390f35b6105cb60048036036105c6919081019061407c565b611a6d565b005b3480156105d957600080fd5b506105f460048036036105ef9190810190614342565b6120a5565b6040516106019190614a2c565b60405180910390f35b610624600480360361061f9190810190613fe9565b612106565b005b610640600480360361063b91908101906142c3565b6121ac565b60405161064d9190614b0c565b60405180910390f35b34801561066257600080fd5b5061067d600480360361067891908101906141c2565b61253b565b60405161068a9190614b0c565b60405180910390f35b34801561069f57600080fd5b506106ba60048036036106b591908101906141c2565b6125fe565b6040516106c79190614a8b565b60405180910390f35b6106ea60048036036106e591908101906141c2565b612708565b005b3480156106f857600080fd5b50610701612842565b60405161070e9190614b0c565b60405180910390f35b34801561072357600080fd5b5061073e60048036036107399190810190614342565b6128e4565b005b34801561074c57600080fd5b50610767600480360361076291908101906141c2565b612e6a565b6040516107749190614acf565b60405180910390f35b34801561078957600080fd5b506107a4600480360361079f91908101906141c2565b612ee6565b6040516107b19190614acf565b60405180910390f35b6107d460048036036107cf9190810190613f12565b612f5f565b005b3480156107e257600080fd5b506107eb6132d7565b6040516107f89190614aad565b60405180910390f35b60606002826040516108139190614a15565b908152602001604051809103902060030160000180548060200260200160405190810160405280929190818152602001828054801561087157602002820191906000526020600020905b81548152602001906001019080831161085d575b50505050509050919050565b8060028360405161088e9190614a15565b908152602001604051809103902060020190805190602001906108b29291906133c0565b505050565b60603373ffffffffffffffffffffffffffffffffffffffff168273ffffffffffffffffffffffffffffffffffffffff1614610927576040517f08c379a000000000000000000000000000000000000000000000000000000000815260040161091e90614bba565b60405180910390fd5b60008090505b60028460405161093d9190614a15565b9081526020016040518091039020600b0180549050811015610b7e576002846040516109699190614a15565b9081526020016040518091039020600b01818154811061098557fe5b9060005260206000200160009054906101000a900473ffffffffffffffffffffffffffffffffffffffff1673ffffffffffffffffffffffffffffffffffffffff168373ffffffffffffffffffffffffffffffffffffffff16148015610a20575060016002856040516109f79190614a15565b9081526020016040518091039020600d018281548110610a1357fe5b9060005260206000200154145b15610b71576001600285604051610a379190614a15565b9081526020016040518091039020600c018281548110610a5357fe5b906000526020600020015414610b70576001600285604051610a759190614a15565b9081526020016040518091039020600c018281548110610a9157fe5b90600052602060002001819055508273ffffffffffffffffffffffffffffffffffffffff1684604051610ac49190614a15565b60405180910390207fef93748ef353323feced9a53b1f9433297bf50235a9d5aa97783d3f30d4682e460405160405180910390a3600284604051610b089190614a15565b9081526020016040518091039020600c01805480602002602001604051908101604052809291908181526020018280548015610b6357602002820191906000526020600020905b815481526020019060010190808311610b4f575b5050505050915050610bf2565b5b808060010191505061092d565b50600283604051610b8f9190614a15565b9081526020016040518091039020600c01805480602002602001604051908101604052809291908181526020018280548015610bea57602002820191906000526020600020905b815481526020019060010190808311610bd6575b505050505090505b92915050565b60608173ffffffffffffffffffffffffffffffffffffffff163373ffffffffffffffffffffffffffffffffffffffff1614610c68576040517f08c379a0000000000000000000000000000000000000000000000000000000008152600401610c5f90614bda565b60405180910390fd5b60008090505b600284604051610c7e9190614a15565b9081526020016040518091039020600b0180549050811015610db157600284604051610caa9190614a15565b9081526020016040518091039020600b018181548110610cc657fe5b9060005260206000200160009054906101000a900473ffffffffffffffffffffffffffffffffffffffff1673ffffffffffffffffffffffffffffffffffffffff168373ffffffffffffffffffffffffffffffffffffffff16148015610d6257506001600285604051610d389190614a15565b9081526020016040518091039020600d018281548110610d5457fe5b906000526020600020015414155b15610da4576001600285604051610d799190614a15565b9081526020016040518091039020600d018281548110610d9557fe5b90600052602060002001819055505b8080600101915050610c6e565b50600283604051610dc29190614a15565b90815260200160405180910390206002018054600181600116156101000203166002900480601f016020809104026020016040519081016040528092919081815260200182805460018160011615610100020316600290048015610e675780601f10610e3c57610100808354040283529160200191610e67565b820191906000526020600020905b815481529060010190602001808311610e4a57829003601f168201915b5050505050905092915050565b6000600282604051610e869190614a15565b9081526020016040518091039020600a01600081548110610ea357fe5b90600052602060002001805490509050919050565b6000600284604051610eca9190614a15565b90815260200160405180910390206006018381548110610ee657fe5b9060005260206000200160009054906101000a900473ffffffffffffffffffffffffffffffffffffffff1673ffffffffffffffffffffffffffffffffffffffff168273ffffffffffffffffffffffffffffffffffffffff1614610f90576004600285604051610f559190614a15565b9081526020016040518091039020600e0160000160006101000a81548163ffffffff021916908363ffffffff16021790555060009050611439565b6000600285604051610fa29190614a15565b90815260200160405180910390206003016000018481548110610fc157fe5b9060005260206000200154141561101f576001600285604051610fe49190614a15565b9081526020016040518091039020600e0160000160006101000a81548163ffffffff021916908363ffffffff16021790555060009050611439565b60008090505b6002856040516110359190614a15565b9081526020016040518091039020600a0160038154811061105257fe5b90600052602060002001805490508110156112065760606002866040516110799190614a15565b9081526020016040518091039020600a0160038154811061109657fe5b9060005260206000200182815481106110ab57fe5b906000526020600020018054806020026020016040519081016040528092919081815260200182805480156110ff57602002820191906000526020600020905b8154815260200190600101908083116110eb575b50505050509050600181868151811061111457fe5b602002602001015114156111f85760006002876040516111349190614a15565b9081526020016040518091039020600301600101838154811061115357fe5b90600052602060002001541480156111a4575060016002876040516111789190614a15565b9081526020016040518091039020600301600001838154811061119757fe5b9060005260206000200154145b156111f757600280876040516111ba9190614a15565b9081526020016040518091039020600e0160000160006101000a81548163ffffffff021916908363ffffffff160217905550600092505050611439565b5b508080600101915050611025565b5060008090505b60028560405161121d9190614a15565b9081526020016040518091039020600a0160048154811061123a57fe5b90600052602060002001805490508110156113ef5760606002866040516112619190614a15565b9081526020016040518091039020600a0160048154811061127e57fe5b90600052602060002001828154811061129357fe5b906000526020600020018054806020026020016040519081016040528092919081815260200182805480156112e757602002820191906000526020600020905b8154815260200190600101908083116112d3575b5050505050905060018186815181106112fc57fe5b602002602001015114156113e157600160028760405161131c9190614a15565b9081526020016040518091039020600301600201838154811061133b57fe5b906000526020600020015414801561138c575060016002876040516113609190614a15565b9081526020016040518091039020600301600001838154811061137f57fe5b9060005260206000200154145b156113e05760036002876040516113a39190614a15565b9081526020016040518091039020600e0160000160006101000a81548163ffffffff021916908363ffffffff160217905550600092505050611439565b5b50808060010191505061120d565b5060006002856040516114029190614a15565b9081526020016040518091039020600e0160000160006101000a81548163ffffffff021916908363ffffffff160217905550600190505b9392505050565b60006002826040516114529190614a15565b908152602001604051809103902060010160009054906101000a900460ff16600381111561147c57fe5b9050919050565b60606002826040516114959190614a15565b9081526020016040518091039020600b0180548060200260200160405190810160405280929190818152602001828054801561152657602002820191906000526020600020905b8160009054906101000a900473ffffffffffffffffffffffffffffffffffffffff1673ffffffffffffffffffffffffffffffffffffffff16815260200190600101908083116114dc575b50505050509050919050565b60006002836040516115449190614a15565b9081526020016040518091039020600e0160010154905092915050565b60606002826040516115739190614a15565b9081526020016040518091039020600a0160038154811061159057fe5b90600052602060002001805480602002602001604051908101604052809291908181526020016000905b8282101561162c5783829060005260206000200180548060200260200160405190810160405280929190818152602001828054801561161857602002820191906000526020600020905b815481526020019060010190808311611604575b5050505050815260200190600101906115ba565b505050509050919050565b60606002826040516116499190614a15565b90815260200160405180910390206002018054600181600116156101000203166002900480601f0160208091040260200160405190810160405280929190818152602001828054600181600116156101000203166002900480156116ee5780601f106116c3576101008083540402835291602001916116ee565b820191906000526020600020905b8154815290600101906020018083116116d157829003601f168201915b50505050509050919050565b606060028260405161170c9190614a15565b908152602001604051809103902060030160010180548060200260200160405190810160405280929190818152602001828054801561176a57602002820191906000526020600020905b815481526020019060010190808311611756575b50505050509050919050565b60606003826040516117889190614a15565b90815260200160405180910390206005018054806020026020016040519081016040528092919081815260200182805480156117e357602002820191906000526020600020905b8154815260200190600101908083116117cf575b50505050509050919050565b60606002836040516118019190614a15565b9081526020016040518091039020600701828154811061181d57fe5b906000526020600020018054600181600116156101000203166002900480601f0160208091040260200160405190810160405280929190818152602001828054600181600116156101000203166002900480156118bb5780601f10611890576101008083540402835291602001916118bb565b820191906000526020600020905b81548152906001019060200180831161189e57829003601f168201915b5050505050905092915050565b60006002836040516118da9190614a15565b9081526020016040518091039020600e0160000160009054906101000a900463ffffffff16905092915050565b600080600090505b60028460405161191f9190614a15565b9081526020016040518091039020600b0180549050811015611a1e5760028460405161194b9190614a15565b9081526020016040518091039020600b01818154811061196757fe5b9060005260206000200160009054906101000a900473ffffffffffffffffffffffffffffffffffffffff1673ffffffffffffffffffffffffffffffffffffffff168373ffffffffffffffffffffffffffffffffffffffff16148015611a02575060016002856040516119d99190614a15565b9081526020016040518091039020600c0182815481106119f557fe5b9060005260206000200154145b15611a11576001915050611a24565b808060010191505061190f565b50600090505b92915050565b6000600382604051611a3c9190614a15565b908152602001604051809103902060020160009054906101000a900460ff166003811115611a6657fe5b9050919050565b611a75613440565b6040518060400160405280600063ffffffff16815260200160008152509050611a9c613460565b60405180606001604052808a600081518110611ab457fe5b602002602001015181526020018a600181518110611ace57fe5b602002602001015181526020018a600281518110611ae857fe5b60200260200101518152509050611afd613481565b604051806101a00160405280868152602001600380811115611b1b57fe5b81526020018a81526020018381526020018981526020018781526020018b600081518110611b4557fe5b602002602001015151604051908082528060200260200182016040528015611b8157816020015b6060815260200190600190039081611b6c5790505b5081526020018b600081518110611b9457fe5b60200260200101515181526020018581526020018881526020018851604051908082528060200260200182016040528015611bde5781602001602082028038833980820191505090505b5081526020018851604051908082528060200260200182016040528015611c145781602001602082028038833980820191505090505b5081526020018481525090508060028a604051611c319190614a15565b90815260200160405180910390206000820151816000019080519060200190611c5b929190613500565b5060208201518160010160006101000a81548160ff02191690836003811115611c8057fe5b02179055506040820151816002019080519060200190611ca1929190613500565b506060820151816003016000820151816000019080519060200190611cc7929190613580565b506020820151816001019080519060200190611ce4929190613580565b506040820151816002019080519060200190611d01929190613580565b5050506080820151816006019080519060200190611d209291906135cd565b5060a0820151816007019080519060200190611d3d929190613657565b5060c0820151816008019080519060200190611d5a9291906136b7565b5060e0820151816009015561010082015181600a019080519060200190611d82929190613717565b5061012082015181600b019080519060200190611da09291906135cd565b5061014082015181600c019080519060200190611dbe929190613580565b5061016082015181600d019080519060200190611ddc929190613580565b5061018082015181600e0160008201518160000160006101000a81548163ffffffff021916908363ffffffff1602179055506020820151816001015550509050506001899080600181540180825580915050906001820390600052602060002001600090919290919091509080519060200190611e5a9291906133c0565b5050611e64613777565b6040518060e001604052808b8152602001604051806020016040528060008152508152602001600380811115611e9657fe5b8152602001600073ffffffffffffffffffffffffffffffffffffffff168152602001600081526020018951604051908082528060200260200182016040528015611eef5781602001602082028038833980820191505090505b5081526020018951604051908082528060200260200182016040528015611f255781602001602082028038833980820191505090505b5081525090508060038b604051611f3c9190614a15565b90815260200160405180910390206000820151816000019080519060200190611f66929190613500565b506020820151816001019080519060200190611f83929190613500565b5060408201518160020160006101000a81548160ff02191690836003811115611fa857fe5b021790555060608201518160020160016101000a81548173ffffffffffffffffffffffffffffffffffffffff021916908373ffffffffffffffffffffffffffffffffffffffff1602179055506080820151816003015560a082015181600401908051906020019061201a9291906135cd565b5060c0820151816005019080519060200190612037929190613580565b509050503373ffffffffffffffffffffffffffffffffffffffff16826040015160405161206491906149fe565b60405180910390207fc42dc8c6712875975b09ece703779e4ed83179500da5c8776b1eab681e04c7fa60405160405180910390a35050505050505050505050565b60006002836040516120b79190614a15565b908152602001604051809103902060060182815481106120d357fe5b9060005260206000200160009054906101000a900473ffffffffffffffffffffffffffffffffffffffff16905092915050565b60008090505b83518110156121a55783818151811061212157fe5b602002602001015173ffffffffffffffffffffffffffffffffffffffff168573ffffffffffffffffffffffffffffffffffffffff161415612198578160038460405161216d9190614a15565b9081526020016040518091039020600501828154811061218957fe5b90600052602060002001819055505b808060010191505061210c565b5050505050565b6060600260038111156121bb57fe5b6003856040516121cb9190614a15565b908152602001604051809103902060020160009054906101000a900460ff1660038111156121f557fe5b1415612518576040518060400160405280600c81526020017f656e746572696e674e6f64650000000000000000000000000000000000000000815250600090805190602001906122469291906133c0565b5060018214156123a157612302336003866040516122649190614a15565b90815260200160405180910390206004018054806020026020016040519081016040528092919081815260200182805480156122f557602002820191906000526020600020905b8160009054906101000a900473ffffffffffffffffffffffffffffffffffffffff1673ffffffffffffffffffffffffffffffffffffffff16815260200190600101908083116122ab575b5050505050866001612106565b6040518060400160405280601681526020017f617070726f766564206279206f6e6520706572736f6e000000000000000000008152506000908051906020019061234d9291906133c0565b503373ffffffffffffffffffffffffffffffffffffffff167fe9c7cbf4a3feb2b50db16225158a7170e01af4e7a4b2d243eeec352242dffdfd846040516123949190614b0c565b60405180910390a26124db565b600282141561248b576040518060400160405280600881526020017f6465636c696e6564000000000000000000000000000000000000000000000000815250600090805190602001906123f59291906133c0565b50600380856040516124079190614a15565b908152602001604051809103902060020160006101000a81548160ff0219169083600381111561243357fe5b02179055503373ffffffffffffffffffffffffffffffffffffffff167f1592b7870c0c0627d9de8a8794012705b34a6640c1456b714a685eb5cc987c338460405161247e9190614b0c565b60405180910390a26124da565b3373ffffffffffffffffffffffffffffffffffffffff167fc4f2afae15f3e7da4e4f139081d67f69ef9f4c3736a6649eb2fa185377130315846040516124d19190614b63565b60405180910390a25b5b6040518060400160405280600d81526020017f5253502070726f636573736564000000000000000000000000000000000000008152509050612534565b6040518060600160405280602c8152602001615049602c913990505b9392505050565b606060028260405161254d9190614a15565b90815260200160405180910390206000018054600181600116156101000203166002900480601f0160208091040260200160405190810160405280929190818152602001828054600181600116156101000203166002900480156125f25780601f106125c7576101008083540402835291602001916125f2565b820191906000526020600020905b8154815290600101906020018083116125d557829003601f168201915b50505050509050919050565b60606002826040516126109190614a15565b9081526020016040518091039020600801805480602002602001604051908101604052809291908181526020016000905b828210156126fd578382906000526020600020018054600181600116156101000203166002900480601f0160208091040260200160405190810160405280929190818152602001828054600181600116156101000203166002900480156126e95780601f106126be576101008083540402835291602001916126e9565b820191906000526020600020905b8154815290600101906020018083116126cc57829003601f168201915b505050505081526020019060010190612641565b505050509050919050565b60006001905060008090505b6003836040516127249190614a15565b9081526020016040518091039020600401805490508110156127905760016003846040516127529190614a15565b9081526020016040518091039020600501828154811061276e57fe5b90600052602060002001541461278357600091505b8080600101915050612714565b5060011515811515141561283e576003808111156127aa57fe5b6003836040516127ba9190614a15565b908152602001604051809103902060020160009054906101000a900460ff1660038111156127e457fe5b50507fd2a535afc7065ca5ca78e1cbe51c4ab92413202d78b070b01df38363ac20363d6003836040516128179190614a15565b90815260200160405180910390206001016040516128359190614b98565b60405180910390a15b5050565b606060008054600181600116156101000203166002900480601f0160208091040260200160405190810160405280929190818152602001828054600181600116156101000203166002900480156128da5780601f106128af576101008083540402835291602001916128da565b820191906000526020600020905b8154815290600101906020018083116128bd57829003601f168201915b5050505050905090565b6128ef828233610eb8565b6129225760016002836040516129059190614a15565b9081526020016040518091039020600e0160010181905550612e66565b60016002836040516129349190614a15565b9081526020016040518091039020600301600101828154811061295357fe5b906000526020600020018190555060006002836040516129739190614a15565b9081526020016040518091039020600301600201828154811061299257fe5b906000526020600020018190555060606002836040516129b29190614a15565b9081526020016040518091039020600a016001815481106129cf57fe5b9060005260206000200182815481106129e457fe5b90600052602060002001805480602002602001604051908101604052809291908181526020018280548015612a3857602002820191906000526020600020905b815481526020019060010190808311612a24575b505050505090506060600284604051612a519190614a15565b9081526020016040518091039020600a01600281548110612a6e57fe5b906000526020600020018381548110612a8357fe5b90600052602060002001805480602002602001604051908101604052809291908181526020018280548015612ad757602002820191906000526020600020905b815481526020019060010190808311612ac3575b505050505090506060600285604051612af09190614a15565b9081526020016040518091039020600a01600081548110612b0d57fe5b906000526020600020018481548110612b2257fe5b90600052602060002001805480602002602001604051908101604052809291908181526020018280548015612b7657602002820191906000526020600020905b815481526020019060010190808311612b62575b505050505090506060600286604051612b8f9190614a15565b9081526020016040518091039020600a01600381548110612bac57fe5b906000526020600020018581548110612bc157fe5b90600052602060002001805480602002602001604051908101604052809291908181526020018280548015612c1557602002820191906000526020600020905b815481526020019060010190808311612c01575b5050505050905060008090505b8151811015612c6f576001828281518110612c3957fe5b60200260200101511415612c62576001838281518110612c5557fe5b6020026020010181815250505b8080600101915050612c22565b5060008090505b600287604051612c869190614a15565b9081526020016040518091039020600a01600181548110612ca357fe5b9060005260206000200180549050811015612ddc576001858281518110612cc657fe5b602002602001015114158015612cef57506001838281518110612ce557fe5b6020026020010151145b15612d34576001600288604051612d069190614a15565b90815260200160405180910390206003016000018281548110612d2557fe5b90600052602060002001819055505b6001848281518110612d4257fe5b60200260200101511415612dcf576001600288604051612d629190614a15565b90815260200160405180910390206003016002018281548110612d8157fe5b90600052602060002001819055506001600288604051612da19190614a15565b90815260200160405180910390206003016000018281548110612dc057fe5b90600052602060002001819055505b8080600101915050612c76565b503373ffffffffffffffffffffffffffffffffffffffff168587604051612e039190614a15565b60405180910390207fdcc419af849b47f6b77090192f4d45ebaef7057509a466bbbce51f396b898c0360405160405180910390a46001600287604051612e499190614a15565b9081526020016040518091039020600e0160010181905550505050505b5050565b6060600282604051612e7c9190614a15565b9081526020016040518091039020600301600201805480602002602001604051908101604052809291908181526020018280548015612eda57602002820191906000526020600020905b815481526020019060010190808311612ec6575b50505050509050919050565b6060600282604051612ef89190614a15565b9081526020016040518091039020600c01805480602002602001604051908101604052809291908181526020018280548015612f5357602002820191906000526020600020905b815481526020019060010190808311612f3f575b50505050509050919050565b3373ffffffffffffffffffffffffffffffffffffffff168573ffffffffffffffffffffffffffffffffffffffff1614612fcd576040517f08c379a0000000000000000000000000000000000000000000000000000000008152600401612fc490614bba565b60405180910390fd5b6040518060400160405280601b81526020017f6368672072657175657374206265696e672070726f6365737365640000000000815250600090805190602001906130189291906133c0565b5060038081111561302557fe5b6003836040516130359190614a15565b908152602001604051809103902060020160009054906101000a900460ff16600381111561305f57fe5b1415613281576040518060400160405280601581526020017f63686720726571756573742076616c6964617465640000000000000000000000815250600090805190602001906130b09291906133c0565b5060026003836040516130c39190614a15565b908152602001604051809103902060020160006101000a81548160ff021916908360038111156130ef57fe5b0217905550806003836040516131059190614a15565b908152602001604051809103902060010190805190602001906131299291906133c0565b508460038360405161313b9190614a15565b908152602001604051809103902060020160016101000a81548173ffffffffffffffffffffffffffffffffffffffff021916908373ffffffffffffffffffffffffffffffffffffffff160217905550835160038360405161319c9190614a15565b908152602001604051809103902060030181905550836003836040516131c29190614a15565b908152602001604051809103902060040190805190602001906131e69291906137d5565b5060008090505b845181101561327b578573ffffffffffffffffffffffffffffffffffffffff1685828151811061321957fe5b602002602001015173ffffffffffffffffffffffffffffffffffffffff167f8dae525cabdde2b20f26998f05e6c504721ba1cea6f7229604cbee3a7267a015866040516132669190614b0c565b60405180910390a380806001019150506131ed565b506132d0565b8473ffffffffffffffffffffffffffffffffffffffff167fc4f2afae15f3e7da4e4f139081d67f69ef9f4c3736a6649eb2fa185377130315826040516132c79190614b2e565b60405180910390a25b5050505050565b60606001805480602002602001604051908101604052809291908181526020016000905b828210156133b7578382906000526020600020018054600181600116156101000203166002900480601f0160208091040260200160405190810160405280929190818152602001828054600181600116156101000203166002900480156133a35780601f10613378576101008083540402835291602001916133a3565b820191906000526020600020905b81548152906001019060200180831161338657829003601f168201915b5050505050815260200190600101906132fb565b50505050905090565b828054600181600116156101000203166002900490600052602060002090601f016020900481019282601f1061340157805160ff191683800117855561342f565b8280016001018555821561342f579182015b8281111561342e578251825591602001919060010190613413565b5b50905061343c919061385f565b5090565b6040518060400160405280600063ffffffff168152602001600081525090565b60405180606001604052806060815260200160608152602001606081525090565b604051806101a0016040528060608152602001600060038111156134a157fe5b8152602001606081526020016134b5613884565b815260200160608152602001606081526020016060815260200160008152602001606081526020016060815260200160608152602001606081526020016134fa6138a5565b81525090565b828054600181600116156101000203166002900490600052602060002090601f016020900481019282601f1061354157805160ff191683800117855561356f565b8280016001018555821561356f579182015b8281111561356e578251825591602001919060010190613553565b5b50905061357c919061385f565b5090565b8280548282559060005260206000209081019282156135bc579160200282015b828111156135bb5782518255916020019190600101906135a0565b5b5090506135c9919061385f565b5090565b828054828255906000526020600020908101928215613646579160200282015b828111156136455782518260006101000a81548173ffffffffffffffffffffffffffffffffffffffff021916908373ffffffffffffffffffffffffffffffffffffffff160217905550916020019190600101906135ed565b5b50905061365391906138c5565b5090565b8280548282559060005260206000209081019282156136a6579160200282015b828111156136a5578251829080519060200190613695929190613500565b5091602001919060010190613677565b5b5090506136b39190613908565b5090565b828054828255906000526020600020908101928215613706579160200282015b828111156137055782518290805190602001906136f5929190613934565b50916020019190600101906136d7565b5b50905061371391906139b4565b5090565b828054828255906000526020600020908101928215613766579160200282015b828111156137655782518290805190602001906137559291906139e0565b5091602001919060010190613737565b5b5090506137739190613a40565b5090565b6040518060e0016040528060608152602001606081526020016000600381111561379d57fe5b8152602001600073ffffffffffffffffffffffffffffffffffffffff1681526020016000815260200160608152602001606081525090565b82805482825590600052602060002090810192821561384e579160200282015b8281111561384d5782518260006101000a81548173ffffffffffffffffffffffffffffffffffffffff021916908373ffffffffffffffffffffffffffffffffffffffff160217905550916020019190600101906137f5565b5b50905061385b91906138c5565b5090565b61388191905b8082111561387d576000816000905550600101613865565b5090565b90565b60405180606001604052806060815260200160608152602001606081525090565b6040518060400160405280600063ffffffff168152602001600081525090565b61390591905b8082111561390157600081816101000a81549073ffffffffffffffffffffffffffffffffffffffff0219169055506001016138cb565b5090565b90565b61393191905b8082111561392d57600081816139249190613a6c565b5060010161390e565b5090565b90565b828054600181600116156101000203166002900490600052602060002090601f016020900481019282601f1061397557805160ff19168380011785556139a3565b828001600101855582156139a3579182015b828111156139a2578251825591602001919060010190613987565b5b5090506139b0919061385f565b5090565b6139dd91905b808211156139d957600081816139d09190613ab4565b506001016139ba565b5090565b90565b828054828255906000526020600020908101928215613a2f579160200282015b82811115613a2e578251829080519060200190613a1e929190613580565b5091602001919060010190613a00565b5b509050613a3c9190613afc565b5090565b613a6991905b80821115613a655760008181613a5c9190613b28565b50600101613a46565b5090565b90565b50805460018160011615610100020316600290046000825580601f10613a925750613ab1565b601f016020900490600052602060002090810190613ab0919061385f565b5b50565b50805460018160011615610100020316600290046000825580601f10613ada5750613af9565b601f016020900490600052602060002090810190613af8919061385f565b5b50565b613b2591905b80821115613b215760008181613b189190613b49565b50600101613b02565b5090565b90565b5080546000825590600052602060002090810190613b469190613afc565b50565b5080546000825590600052602060002090810190613b67919061385f565b50565b600081359050613b798161501a565b92915050565b600082601f830112613b9057600080fd5b8135613ba3613b9e82614c5d565b614c30565b91508181835260208401935060208101905083856020840282011115613bc857600080fd5b60005b83811015613bf85781613bde8882613b6a565b845260208401935060208301925050600181019050613bcb565b5050505092915050565b600082601f830112613c1357600080fd5b8135613c26613c2182614c85565b614c30565b9150818183526020840193506020810190508360005b83811015613c6c5781358601613c528882613c76565b845260208401935060208301925050600181019050613c3c565b5050505092915050565b600082601f830112613c8757600080fd5b8135613c9a613c9582614cad565b614c30565b9150818183526020840193506020810190508360005b83811015613ce05781358601613cc68882613dd2565b845260208401935060208301925050600181019050613cb0565b5050505092915050565b600082601f830112613cfb57600080fd5b8135613d0e613d0982614cd5565b614c30565b9150818183526020840193506020810190508360005b83811015613d545781358601613d3a8882613dd2565b845260208401935060208301925050600181019050613d24565b5050505092915050565b600082601f830112613d6f57600080fd5b8135613d82613d7d82614cfd565b614c30565b9150818183526020840193506020810190508360005b83811015613dc85781358601613dae8882613e55565b845260208401935060208301925050600181019050613d98565b5050505092915050565b600082601f830112613de357600080fd5b8135613df6613df182614d25565b614c30565b91508181835260208401935060208101905083856020840282011115613e1b57600080fd5b60005b83811015613e4b5781613e318882613efd565b845260208401935060208301925050600181019050613e1e565b5050505092915050565b600082601f830112613e6657600080fd5b8135613e79613e7482614d4d565b614c30565b91508082526020830160208301858383011115613e9557600080fd5b613ea0838284614fc7565b50505092915050565b600082601f830112613eba57600080fd5b8135613ecd613ec882614d79565b614c30565b91508082526020830160208301858383011115613ee957600080fd5b613ef4838284614fc7565b50505092915050565b600081359050613f0c81615031565b92915050565b600080600080600060a08688031215613f2a57600080fd5b6000613f3888828901613b6a565b955050602086013567ffffffffffffffff811115613f5557600080fd5b613f6188828901613b7f565b945050604086013567ffffffffffffffff811115613f7e57600080fd5b613f8a88828901613ea9565b935050606086013567ffffffffffffffff811115613fa757600080fd5b613fb388828901613ea9565b925050608086013567ffffffffffffffff811115613fd057600080fd5b613fdc88828901613ea9565b9150509295509295909350565b60008060008060808587031215613fff57600080fd5b600061400d87828801613b6a565b945050602085013567ffffffffffffffff81111561402a57600080fd5b61403687828801613b7f565b935050604085013567ffffffffffffffff81111561405357600080fd5b61405f87828801613ea9565b925050606061407087828801613efd565b91505092959194509250565b600080600080600080600060e0888a03121561409757600080fd5b600088013567ffffffffffffffff8111156140b157600080fd5b6140bd8a828b01613cea565b975050602088013567ffffffffffffffff8111156140da57600080fd5b6140e68a828b01613ea9565b965050604088013567ffffffffffffffff81111561410357600080fd5b61410f8a828b01613b7f565b955050606088013567ffffffffffffffff81111561412c57600080fd5b6141388a828b01613b7f565b945050608088013567ffffffffffffffff81111561415557600080fd5b6141618a828b01613d5e565b93505060a088013567ffffffffffffffff81111561417e57600080fd5b61418a8a828b01613ea9565b92505060c088013567ffffffffffffffff8111156141a757600080fd5b6141b38a828b01613c02565b91505092959891949750929550565b6000602082840312156141d457600080fd5b600082013567ffffffffffffffff8111156141ee57600080fd5b6141fa84828501613ea9565b91505092915050565b6000806040838503121561421657600080fd5b600083013567ffffffffffffffff81111561423057600080fd5b61423c85828601613ea9565b925050602061424d85828601613b6a565b9150509250929050565b6000806040838503121561426a57600080fd5b600083013567ffffffffffffffff81111561428457600080fd5b61429085828601613ea9565b925050602083013567ffffffffffffffff8111156142ad57600080fd5b6142b985828601613ea9565b9150509250929050565b6000806000606084860312156142d857600080fd5b600084013567ffffffffffffffff8111156142f257600080fd5b6142fe86828701613ea9565b935050602084013567ffffffffffffffff81111561431b57600080fd5b61432786828701613ea9565b925050604061433886828701613efd565b9150509250925092565b6000806040838503121561435557600080fd5b600083013567ffffffffffffffff81111561436f57600080fd5b61437b85828601613ea9565b925050602061438c85828601613efd565b9150509250929050565b6000806000606084860312156143ab57600080fd5b600084013567ffffffffffffffff8111156143c557600080fd5b6143d186828701613ea9565b93505060206143e286828701613efd565b92505060406143f386828701613b6a565b9150509250925092565b60006144098383614469565b60208301905092915050565b600061442183836146a2565b905092915050565b6000614435838361470f565b905092915050565b600061444983836147b2565b905092915050565b600061445d83836149d1565b60208301905092915050565b61447281614f6f565b82525050565b61448181614f6f565b82525050565b600061449282614e1a565b61449c8185614ecb565b93506144a783614da5565b8060005b838110156144d85781516144bf88826143fd565b97506144ca83614e7d565b9250506001810190506144ab565b5085935050505092915050565b60006144f082614e25565b6144fa8185614edc565b93508360208202850161450c85614db5565b8060005b8581101561454857848403895281516145298582614415565b945061453483614e8a565b925060208a01995050600181019050614510565b50829750879550505050505092915050565b600061456582614e30565b61456f8185614eed565b93508360208202850161458185614dc5565b8060005b858110156145bd578484038952815161459e8582614429565b94506145a983614e97565b925060208a01995050600181019050614585565b50829750879550505050505092915050565b60006145da82614e3b565b6145e48185614efe565b9350836020820285016145f685614dd5565b8060005b858110156146325784840389528151614613858261443d565b945061461e83614ea4565b925060208a019950506001810190506145fa565b50829750879550505050505092915050565b600061464f82614e51565b6146598185614f20565b935061466483614df5565b8060005b8381101561469557815161467c8882614451565b975061468783614ebe565b925050600181019050614668565b5085935050505092915050565b60006146ad82614e46565b6146b78185614f0f565b93506146c283614de5565b8060005b838110156146f35781516146da8882614451565b97506146e583614eb1565b9250506001810190506146c6565b5085935050505092915050565b61470981614f81565b82525050565b600061471a82614e5c565b6147248185614f31565b9350614734818560208601614fd6565b61473d81615009565b840191505092915050565b600061475382614e72565b61475d8185614f53565b935061476d818560208601614fd6565b61477681615009565b840191505092915050565b600061478c82614e72565b6147968185614f64565b93506147a6818560208601614fd6565b80840191505092915050565b60006147bd82614e67565b6147c78185614f42565b93506147d7818560208601614fd6565b6147e081615009565b840191505092915050565b60006147f682614e67565b6148008185614f64565b9350614810818560208601614fd6565b80840191505092915050565b600081546001811660008114614839576001811461485f576148a3565b607f600283041661484a8187614f53565b955060ff1983168652602086019350506148a3565b6002820461486d8187614f53565b955061487885614e05565b60005b8281101561489a5781548189015260018201915060208101905061487b565b80880195505050505b505092915050565b60006148b8601383614f53565b91507f4d75737420626520726f6c65206f776e65722e000000000000000000000000006000830152602082019050919050565b60006148f8603d83614f53565b91507f616e6f74686572206368616e6765207265717565737420697320616c7265616460008301527f792070726f63657373656420666f72207468697320776f726b666c6f770000006020830152604082019050919050565b600061495e601083614f53565b91507f77726f6e672072737020616e73776572000000000000000000000000000000006000830152602082019050919050565b600061499e600c83614f53565b91507f77726f6e674164647265737300000000000000000000000000000000000000006000830152602082019050919050565b6149da81614fad565b82525050565b6149e981614fad565b82525050565b6149f881614fb7565b82525050565b6000614a0a82846147eb565b915081905092915050565b6000614a218284614781565b915081905092915050565b6000602082019050614a416000830184614478565b92915050565b60006020820190508181036000830152614a618184614487565b905092915050565b60006020820190508181036000830152614a8381846144e5565b905092915050565b60006020820190508181036000830152614aa5818461455a565b905092915050565b60006020820190508181036000830152614ac781846145cf565b905092915050565b60006020820190508181036000830152614ae98184614644565b905092915050565b6000602082019050614b066000830184614700565b92915050565b60006020820190508181036000830152614b268184614748565b905092915050565b60006040820190508181036000830152614b488184614748565b90508181036020830152614b5b816148eb565b905092915050565b60006040820190508181036000830152614b7d8184614748565b90508181036020830152614b9081614951565b905092915050565b60006020820190508181036000830152614bb2818461481c565b905092915050565b60006020820190508181036000830152614bd3816148ab565b9050919050565b60006020820190508181036000830152614bf381614991565b9050919050565b6000602082019050614c0f60008301846149e0565b92915050565b6000602082019050614c2a60008301846149ef565b92915050565b6000604051905081810181811067ffffffffffffffff82111715614c5357600080fd5b8060405250919050565b600067ffffffffffffffff821115614c7457600080fd5b602082029050602081019050919050565b600067ffffffffffffffff821115614c9c57600080fd5b602082029050602081019050919050565b600067ffffffffffffffff821115614cc457600080fd5b602082029050602081019050919050565b600067ffffffffffffffff821115614cec57600080fd5b602082029050602081019050919050565b600067ffffffffffffffff821115614d1457600080fd5b602082029050602081019050919050565b600067ffffffffffffffff821115614d3c57600080fd5b602082029050602081019050919050565b600067ffffffffffffffff821115614d6457600080fd5b601f19601f8301169050602081019050919050565b600067ffffffffffffffff821115614d9057600080fd5b601f19601f8301169050602081019050919050565b6000819050602082019050919050565b6000819050602082019050919050565b6000819050602082019050919050565b6000819050602082019050919050565b6000819050602082019050919050565b6000819050602082019050919050565b60008190508160005260206000209050919050565b600081519050919050565b600081519050919050565b600081519050919050565b600081519050919050565b600081519050919050565b600081519050919050565b600081519050919050565b600081519050919050565b600081519050919050565b6000602082019050919050565b6000602082019050919050565b6000602082019050919050565b6000602082019050919050565b6000602082019050919050565b6000602082019050919050565b600082825260208201905092915050565b600082825260208201905092915050565b600082825260208201905092915050565b600082825260208201905092915050565b600082825260208201905092915050565b600082825260208201905092915050565b600082825260208201905092915050565b600082825260208201905092915050565b600082825260208201905092915050565b600081905092915050565b6000614f7a82614f8d565b9050919050565b60008115159050919050565b600073ffffffffffffffffffffffffffffffffffffffff82169050919050565b6000819050919050565b600063ffffffff82169050919050565b82818337600083830152505050565b60005b83811015614ff4578082015181840152602081019050614fd9565b83811115615003576000848401525b50505050565b6000601f19601f8301169050919050565b61502381614f6f565b811461502e57600080fd5b50565b61503a81614fad565b811461504557600080fd5b5056fe525350206e6f74206170706c696361626c6520686572652028616c72656164792070726f6365737365643f29a365627a7a7231582056a5a00a7ad7bea43c87f8dbc2ed8120953e78375e7a69f608e00067f5feaf206c6578706572696d656e74616cf564736f6c63430005100040",
  "source": "//pragma solidity 0.5.10;\npragma solidity ^0.5.16;\npragma experimental ABIEncoderV2;\n\ncontract PublicDCRManager {\n    // event declaration\n    event LogWorkflowCreation(\n        string indexed workflowHash,\n        address indexed creator\n    );\n\n    event LogExecution(\n        string indexed workflowHash,\n        uint256 indexed activityId,\n        address indexed executor\n    );\n\n    event LogWorkflowProjection(\n        string indexed workflowHash,\n        address indexed creator\n    );\n    \n    // CHANGE NEGOCIATION EVENTS\n    event RequestChange(\n        string workflowHashes,\n        address indexed endorser,\n        address indexed initiator\n    );\n    event DeclineChange(\n        string reqWkfHash,\n        address indexed endorser\n    );\n    event AcceptChange(\n        string reqWkfHash,\n        address indexed endorser\n    );\n    event AcceptChangeAll(\n        string reqWkfHash\n    );\n\n    event RSPErrorChange(\n        string reqWkfHash,\n        address indexed endorser,\n        string comment\n    );\n\n    // variable declarations.\n\n    struct Workflow {\n        string name;\n        ChgStatus wkfStatus;\n\n        string ipfsViewHash;\n\n        Marking markings;\n        address[] roleAddresses;\n        string[] activityNames;\n        bytes[] ipfsActivityHashes;\n        uint256 numActivities; //number of included activities\n        uint256[][][] relations; //includesTo, excludesTo, responsesTo, conditionsFrom, milestonesFrom\n        \n        address[] approvalAddresses;\n        uint[] approvalOutcomes;\n        uint[] didFetch;\n        Activity execStatus;\n    }\n    \n    enum ChgStatus { Approved, Declined, BeingProcessed, Init }\n   // enum EndorserDecision { Approve, Decline, NA}\n\n    string test='init';\n    struct ChangeRequest {\n        string currHash; \n        string reqHash;\n        ChgStatus status;\n        address initiator;\n        uint numEndorsers;\n        address[] endorsers;\n        uint[] changeEndorsement;\n    }\n    \n    struct Marking {\n        uint256[] included;\n        uint256[] executed;\n        uint256[] pending;\n    }\n\n    struct Activity {\n        uint32 canExecuteCheck;\n        uint256 status; //0=no, 1=yes\n    }\n    \n    string[] registeredViewHashes;\n\n    mapping(string => Workflow) workflows;\n    mapping(string => ChangeRequest) changeRequests;\n\n\n\n    ///////////////// Getters ////////////////////////\n\n    function getAllWKHashes() public view returns (string[] memory){\n        return registeredViewHashes;\n    }\n\n    function sendHash(string memory _hash, string memory x) public {\n        workflows[_hash].ipfsViewHash = x;\n    }\n\n    function getHash(string memory _hash) public view returns (string memory x) {\n        return workflows[_hash].ipfsViewHash;\n    }\n    \n    function  getChangeValue(string memory _hash) public view returns (uint){\n        return uint(changeRequests[_hash].status);\n    }\n\n    function  getWKFValue(string memory _hash) public view returns (uint){\n        return uint(workflows[_hash].wkfStatus);\n    }\n\n    function getChangeEndorsement(string memory _hash) public view returns (uint[] memory){\n            return changeRequests[_hash].changeEndorsement;\n    }\n\n    function  getTest() public view returns (string memory){\n        return test;\n    }\n\n    /** @dev Getter for workflow name.\n      * @param _hash index of the workflow (eg 0 for the first workflow).\n      * @return workflow name.\n      */\n    function getWorkflowName(string memory _hash)\n        public\n        view\n        returns (string memory)\n    {\n        return workflows[_hash].name;\n    }\n\n    /** @dev Getter for workflow execution status.\n      * @param _hash index of the workflow (eg 0 for the first workflow).\n      * @return execution status of the task: 0=ok, 1= \n      */\n    function getCanExecuteCheck(string memory _hash, uint256 activityId)\n        public\n        view\n        returns (uint32)\n    {\n        return workflows[_hash].execStatus.canExecuteCheck;\n    }\n\n    function getStatus(string memory _hash, uint256 activityId)\n        public\n        view\n        returns (uint256)\n    {\n        return workflows[_hash].execStatus.status;\n    }\n\n    function getWkfLength(string memory _hash) public view returns (uint256) {\n        return workflows[_hash].relations[0].length;\n    }\n\n    function getIncluded(string memory _hash)\n        public\n        view\n        returns (uint256[] memory)\n    {\n        return workflows[_hash].markings.included;\n    }\n\n    function getExecuted(string memory _hash)\n        public\n        view\n        returns (uint256[] memory)\n    {\n        return workflows[_hash].markings.executed;\n    }\n\n    function getPending(string memory _hash)\n        public\n        view\n        returns (uint256[] memory)\n    {\n        return workflows[_hash].markings.pending;\n    }\n\n    function getConditionsFrom(string memory _hash)\n        public\n        view\n        returns (uint256[][] memory)\n    {\n        return workflows[_hash].relations[3];\n    }\n\n    function getHashes(string memory _hash)\n        public\n        view\n        returns (bytes[] memory)\n    {\n        return workflows[_hash].ipfsActivityHashes;\n    }\n\n    function getActivityName(string memory _hash, uint256 activityId)\n        public\n        view\n        returns (string memory)\n    {\n        return workflows[_hash].activityNames[activityId];\n    }\n\n    function getRoleAddresses(string memory _hash, uint256 activityId)\n        public\n        view\n        returns (address)\n    {\n        return workflows[_hash].roleAddresses[activityId];\n    }\n\n    function getAddresses(string memory _hash)\n        public\n        view\n        returns (address[] memory)\n    {\n        return workflows[_hash].approvalAddresses;\n    }\n\n\n    ///////////////// Change requests ////////////////////////\n\n    /** @dev manages change requests: if a request is already ongoing, cancel. Else, create a new change request and notify endorsers.\n      * @param toNotify list\n      * of endorser addreses.\n      * @param _hashes concatenated string of current wkf and request wkf ipfs hashes (ref to the public view)\n      * @param curr_hash current ipfs wkf hash\n      * @param req_hash  ipfs hash of requested change description\n      * @return processing decision.\n      */\n    function requestChange(address myAddress, address[] memory toNotify, string memory _hashes, string memory curr_hash, string memory req_hash) public payable {\n        \n        require(myAddress==msg.sender, \"Must be role owner.\"); //web3js bug carefew \n\n        test = 'chg request being processed';\n\n        if(changeRequests[curr_hash].status == ChgStatus.Init){\n            test = 'chg request validated';\n            //workflows[curr_hash].wkfStatus = ChgStatus.BeingProcessed;\n\n            changeRequests[curr_hash].status = ChgStatus.BeingProcessed;\n            changeRequests[curr_hash].reqHash = req_hash;\n            changeRequests[curr_hash].initiator = myAddress;\n            changeRequests[curr_hash].numEndorsers = toNotify.length;\n            changeRequests[curr_hash].endorsers = toNotify;\n            \n            for (\n                uint256 id = 0;\n                id < toNotify.length;\n                id++\n                ) {\n                    emit RequestChange(_hashes, toNotify[id], myAddress);\n                    //changeRequests[curr_hash].changeEndorsement[id] = 0; //// @TIPHAINE: ISSUE HERE --> DO A GETTER FOR THE ARRAY AND WATCH BEHAVIOR \n                }\n\n            // emit RequestChange(_hashes, toNotify, myAddress);\n            // 'request has been successfully registered';\n        }\n\n        else{\n            emit RSPErrorChange(req_hash, myAddress, 'another change request is already processed for this workflow');\n        }    \n    }\n\n\n    function updateTableOnAddress(address myAddress, address[] memory myAddresses, string memory myHash, uint myDecision) public payable{\n        for (\n                uint256 id = 0;\n                id < myAddresses.length;\n                id++\n            ) {\n                if((myAddress == myAddresses[id])){\n                    changeRequests[myHash].changeEndorsement[id] = myDecision;\n                }\n            }   \n    }\n\n\n    function finalApprovalManager(string memory myHash) public payable {\n        // check if all have answered --> if yes: unlock (set status to ChgStatus.Approved, update process markings and graph, )\n\n        bool cumulatedDecisions = true;\n        \n        for (\n                uint256 id = 0;\n                id < changeRequests[myHash].endorsers.length;\n                id++\n            ) {\n                if((changeRequests[myHash].changeEndorsement[id] != 1)){\n                     cumulatedDecisions = false;\n                }\n            }\n            \n        if (cumulatedDecisions == true){\n            changeRequests[myHash].status == ChgStatus.Init;\n            emit AcceptChangeAll(changeRequests[myHash].reqHash);\n            \n            // TODO Add graph locker/unlocker (update process markings and graph)\n        }\n    }\n\n    function endorserRSP(string memory curr_hash, string memory req_hash, uint rsp) public payable returns (string memory) {\n        \n        if(changeRequests[curr_hash].status == ChgStatus.BeingProcessed){\n            test  = 'enteringNode';\n            // accept: emit decision and update change memory\n            if (rsp==1){\n                updateTableOnAddress(msg.sender,changeRequests[curr_hash].endorsers, curr_hash,1);\n                test  = 'approved by one person';\n                emit AcceptChange(req_hash, msg.sender);\n                //finalApprovalManager(curr_hash, msg.sender);\n            }         \n            \n            // decline\n            else if (rsp == 2){\n                test  = 'declined';\n                changeRequests[curr_hash].status = ChgStatus.Init;\n                emit DeclineChange(req_hash, msg.sender);\n            }\n            \n            else {\n                emit RSPErrorChange(req_hash, msg.sender, 'wrong rsp answer');\n            }\n\n            return 'RSP processed';\n        }\n\n        else{\n            return 'RSP not applicable here (already processed?)';\n        }    \n    }\n\n    ///////////////// Public-to-local Projections ////////////////////////\n\n\n    /** @dev Getter for workflow.\n      * @param _hash index of the workflow (eg 0 for the first workflow).\n      * @param myAddress sender adddress (must be registered to fetch the workflow).\n      * @return workflow, update didFetch variable to one.\n      */\n    function fetchPublicView(string memory _hash, address myAddress)\n        public\n        payable\n        returns (string memory)\n    {\n        \n        require(msg.sender == myAddress, 'wrongAddress');\n        \n        // update the didFetch variable\n        for (\n            uint256 id = 0;\n            id < workflows[_hash].approvalAddresses.length;\n            id++\n        ) {\n            if((myAddress == workflows[_hash].approvalAddresses[id]) && workflows[_hash].didFetch[id] != 1){\n                workflows[_hash].didFetch[id] = 1;\n                }\n        }\n        \n        return workflows[_hash].ipfsViewHash;\n    }\n\n    function getApprovalsOutcome(string memory _hash)\n        public\n        view\n        returns (uint[] memory)\n    {\n        return (workflows[_hash].approvalOutcomes);\n    }\n\n    function hasApproved(string memory _hash, address myAddress)\n        public\n        view\n        returns (uint)\n    {\n        //uint res = 0;\n        for (\n            uint256 id = 0;\n            id < workflows[_hash].approvalAddresses.length;\n            id++\n        ) {\n            if((myAddress == workflows[_hash].approvalAddresses[id]) && workflows[_hash].approvalOutcomes[id] == 1){\n                return 1;\n            }\n        }\n        return 0;\n    }\n\n    /** @dev post private projection approval function.\n      * @param _hash index of the workflow (eg 0 for the first workflow).\n      * @param myAddress address of the sender (necessary for web3js dev).\n      * @return list of approval outcomes.\n      */\n    function confirmProjection(string memory _hash, address myAddress) public payable returns (uint[] memory){\n        // get id of approvalList.addresses corresponding to msgSender. If (approval[id]==0): set to one;\n        \n        require(myAddress==msg.sender, \"Must be role owner.\");\n\n        for (\n            uint256 id = 0;\n            id < workflows[_hash].approvalAddresses.length;\n            id++\n        ) {\n            if((myAddress == workflows[_hash].approvalAddresses[id]) && workflows[_hash].didFetch[id] == 1){ // must have fetched public view\n                if(workflows[_hash].approvalOutcomes[id] != 1){ // must not have approved before\n                    workflows[_hash].approvalOutcomes[id] = 1;\n                    emit LogWorkflowProjection(_hash, myAddress);\n                    return workflows[_hash].approvalOutcomes;\n                }\n            }\n\n        }\n        \n        return workflows[_hash].approvalOutcomes;\n        \n    }  \n\n    ///////////////// Execution functions /////////////////////////\n\n    function canExecute(string memory _hash, uint256 activityId, address msgSender)\n        public\n        returns (bool)\n    {\n        // check if msg.sender address is correct\n        if (msgSender != workflows[_hash].roleAddresses[activityId]) {\n            workflows[_hash].execStatus.canExecuteCheck = 4;\n            return false;\n        }\n        \n        // activity must be included\n        if (workflows[_hash].markings.included[activityId] == 0) {\n            workflows[_hash].execStatus.canExecuteCheck = 1;\n            return false;\n        }\n\n        // all conditions executed\n        for (\n            uint256 id = 0;\n            id < workflows[_hash].relations[3].length;\n            id++\n        ) {\n            uint256[] memory conditionsRow =\n                workflows[_hash].relations[3][id];\n            if (conditionsRow[activityId] == 1) {\n                if (\n                    (workflows[_hash].markings.executed[id] == 0) &&\n                    (workflows[_hash].markings.included[id] == 1)\n                ) {\n                    workflows[_hash].execStatus.canExecuteCheck = 2;\n                    return false;\n                }\n            }\n        }\n\n        // no milestones pending\n        for (\n            uint256 id = 0;\n            id < workflows[_hash].relations[4].length; // milestonesFrom\n            id++\n        ) {\n            uint256[] memory milestonesRow =\n                workflows[_hash].relations[4][id];\n            if (milestonesRow[activityId] == 1) {\n                if (\n                    (workflows[_hash].markings.pending[id] == 1) &&\n                    (workflows[_hash].markings.included[id] == 1)\n                ) {\n                    workflows[_hash].execStatus.canExecuteCheck = 3;\n                    return false;\n                }\n            }\n        }\n\n        workflows[_hash].execStatus.canExecuteCheck = 0;\n        return true;\n    }\n\n    function checkCliquedIndex(string memory _hash, uint256 activityId)\n        public\n    //        bytes memory ipfsHash\n    {\n        if (!canExecute(_hash, activityId, msg.sender)) {\n            workflows[_hash].execStatus.status = 1;\n            //revert();\n        } else {\n            // executed activity\n            workflows[_hash].markings.executed[activityId] = 1;\n            workflows[_hash].markings.pending[activityId] = 0;\n            //            workflows[workflowId].ipfsActivityHashes[activityId] = ipfsHash;\n\n            uint256[] memory exclude_vect_check =\n                workflows[_hash].relations[1][activityId]; // excludes\n            uint256[] memory response_vect_check =\n                workflows[_hash].relations[2][activityId]; // responsesTo\n\n            // add include relations\n            uint256[] memory include_vect_check =\n                workflows[_hash].relations[0][activityId]; // includes\n\n            // update with condition relations ok\n            uint256[] memory conditionsTo =\n                workflows[_hash].relations[3][activityId]; //extract row condition\n            for (uint256 id = 0; id < conditionsTo.length; id++) {\n                if (conditionsTo[id] == 1) {\n                    include_vect_check[id] = 1;\n                }\n            }\n\n            for (\n                uint256 id = 0;\n                id < workflows[_hash].relations[1].length; // excludesTo\n                id++\n            ) {\n                // exclude and include relations pass\n                // note includes happens after the exclude pass\n                // included = (included & ~excludesTo[activityId]) | includesTo[activityId];\n                if (\n                    (exclude_vect_check[id] != 1) &&\n                    (include_vect_check[id] == 1)\n                ) {\n                    workflows[_hash].markings.included[id] = 1;\n                }\n\n                // response relations pass\n                // pending = (pending | responsesTo[activityId]);\n                if (response_vect_check[id] == 1) {\n                    workflows[_hash].markings.pending[id] = 1;\n                    workflows[_hash].markings.included[id] = 1;\n                }\n            }\n\n            emit LogExecution(_hash, activityId, msg.sender);\n\n            workflows[_hash].execStatus.status = 1;\n        }\n    }\n\n\n    ///////////////// Workflow creation /////////////////////////\n\n    function uploadPublicView(\n        // packed state variables\n        uint256[][] memory markingStates, // included, executed, pending\n\n        string memory _ipfsViewHash,\n\n        //process information\n        address[] memory _roleAddresses,\n        address[] memory _approvalAddresses,\n\n        string[] memory _activityNames,\n        string memory _name,\n\n        // relations\n        uint256[][][] memory _relations // includesto, excludesto, responsesto, conditionsfrom, milestonesFrom\n    ) public payable {\n        \n        Activity memory execStatus = Activity(0, 0);\n        Marking memory markings = Marking(markingStates[0],markingStates[1],markingStates[2]);\n        Workflow memory wf =\n            Workflow(\n                _name,\n                ChgStatus.Init,\n                _ipfsViewHash,\n                markings,\n                _roleAddresses,\n                _activityNames,\n                new bytes[](markingStates[0].length),\n                markingStates[0].length,\n                _relations,\n                _approvalAddresses,\n                new uint[](_approvalAddresses.length),\n                new uint[](_approvalAddresses.length),\n                execStatus\n            );\n        workflows[_ipfsViewHash]=wf;\n        registeredViewHashes.push(_ipfsViewHash);\n\n\n        ChangeRequest memory chgReq = ChangeRequest(\n            _ipfsViewHash,\n            '', \n            ChgStatus.Init,\n            address(0), \n            0, \n            new address[](_approvalAddresses.length),\n            new uint[](_approvalAddresses.length)\n        );       \n\n        changeRequests[_ipfsViewHash]=chgReq;\n\n        emit LogWorkflowCreation(wf.ipfsViewHash, msg.sender);\n\n    }\n\n\n\n}\n",
  "sourcePath": "/home/vtlr2002/source/masterPlatform/contracts/PublicDCRManager.sol",
  "compiler": {
    "name": "solc",
    "version": "0.5.16+commit.9c3226ce.Emscripten.clang"
  },
  "schemaVersion": "3.2.4",
  "updatedAt": "2021-07-23T08:49:24.169Z",
  "networkType": "ethereum",
  "devdoc": {
    "methods": {
      "confirmProjection(string,address)": {
        "details": "post private projection approval function.",
        "params": {
          "_hash": "index of the workflow (eg 0 for the first workflow).",
          "myAddress": "address of the sender (necessary for web3js dev)."
        },
        "return": "list of approval outcomes."
      },
      "fetchPublicView(string,address)": {
        "details": "Getter for workflow.",
        "params": {
          "_hash": "index of the workflow (eg 0 for the first workflow).",
          "myAddress": "sender adddress (must be registered to fetch the workflow)."
        },
        "return": "workflow, update didFetch variable to one."
      },
      "getCanExecuteCheck(string,uint256)": {
        "details": "Getter for workflow execution status.",
        "params": {
          "_hash": "index of the workflow (eg 0 for the first workflow)."
        },
        "return": "execution status of the task: 0=ok, 1= "
      },
      "getWorkflowName(string)": {
        "details": "Getter for workflow name.",
        "params": {
          "_hash": "index of the workflow (eg 0 for the first workflow)."
        },
        "return": "workflow name."
      },
      "requestChange(address,address[],string,string,string)": {
        "details": "manages change requests: if a request is already ongoing, cancel. Else, create a new change request and notify endorsers.",
        "params": {
          "_hashes": "concatenated string of current wkf and request wkf ipfs hashes (ref to the public view)",
          "curr_hash": "current ipfs wkf hash",
          "req_hash": "ipfs hash of requested change description",
          "toNotify": "list of endorser addreses."
        },
        "return": "processing decision."
      }
    }
  },
  "userdoc": {
    "methods": {
      "canExecute(string,uint256,address)": {
        "notice": "////////////// Execution functions /////////////////////////"
      },
      "getAllWKHashes()": {
        "notice": "////////////// Getters ////////////////////////"
      },
      "uploadPublicView(uint256[][],string,address[],address[],string[],string,uint256[][][])": {
        "notice": "////////////// Workflow creation /////////////////////////"
      }
    }
  }
}