{
  "contractName": "PublicDCRManager",
  "abi": [
    {
      "anonymous": false,
      "inputs": [
        {
          "indexed": false,
          "internalType": "string",
          "name": "reqWkfHash",
          "type": "string"
        },
        {
          "indexed": true,
          "internalType": "address",
          "name": "endorser",
          "type": "address"
        }
      ],
      "name": "AcceptChange",
      "type": "event"
    },
    {
      "anonymous": false,
      "inputs": [
        {
          "indexed": false,
          "internalType": "string",
          "name": "reqWkfHash",
          "type": "string"
        }
      ],
      "name": "AcceptChangeAll",
      "type": "event"
    },
    {
      "anonymous": false,
      "inputs": [
        {
          "indexed": false,
          "internalType": "string",
          "name": "reqWkfHash",
          "type": "string"
        },
        {
          "indexed": true,
          "internalType": "address",
          "name": "endorser",
          "type": "address"
        }
      ],
      "name": "DeclineChange",
      "type": "event"
    },
    {
      "anonymous": false,
      "inputs": [
        {
          "indexed": true,
          "internalType": "string",
          "name": "workflowHash",
          "type": "string"
        },
        {
          "indexed": true,
          "internalType": "uint256",
          "name": "activityId",
          "type": "uint256"
        },
        {
          "indexed": true,
          "internalType": "uint256",
          "name": "status",
          "type": "uint256"
        }
      ],
      "name": "LogExecution",
      "type": "event"
    },
    {
      "anonymous": false,
      "inputs": [
        {
          "indexed": true,
          "internalType": "string",
          "name": "workflowHash",
          "type": "string"
        },
        {
          "indexed": true,
          "internalType": "address",
          "name": "creator",
          "type": "address"
        }
      ],
      "name": "LogWorkflowCreation",
      "type": "event"
    },
    {
      "anonymous": false,
      "inputs": [
        {
          "indexed": true,
          "internalType": "string",
          "name": "workflowHash",
          "type": "string"
        },
        {
          "indexed": true,
          "internalType": "address",
          "name": "creator",
          "type": "address"
        }
      ],
      "name": "LogWorkflowProjection",
      "type": "event"
    },
    {
      "anonymous": false,
      "inputs": [
        {
          "indexed": false,
          "internalType": "string",
          "name": "reqWkfHash",
          "type": "string"
        },
        {
          "indexed": true,
          "internalType": "address",
          "name": "endorser",
          "type": "address"
        },
        {
          "indexed": false,
          "internalType": "string",
          "name": "comment",
          "type": "string"
        }
      ],
      "name": "RSPErrorChange",
      "type": "event"
    },
    {
      "anonymous": false,
      "inputs": [
        {
          "indexed": false,
          "internalType": "string",
          "name": "workflowHashes",
          "type": "string"
        },
        {
          "indexed": true,
          "internalType": "address",
          "name": "endorser",
          "type": "address"
        },
        {
          "indexed": true,
          "internalType": "address",
          "name": "initiator",
          "type": "address"
        }
      ],
      "name": "RequestChange",
      "type": "event"
    },
    {
      "constant": true,
      "inputs": [],
      "name": "getAllWKHashes",
      "outputs": [
        {
          "internalType": "string[]",
          "name": "",
          "type": "string[]"
        }
      ],
      "payable": false,
      "stateMutability": "view",
      "type": "function"
    },
    {
      "constant": true,
      "inputs": [
        {
          "internalType": "string",
          "name": "_hash",
          "type": "string"
        }
      ],
      "name": "getChangeArgs",
      "outputs": [
        {
          "internalType": "string",
          "name": "reqHash",
          "type": "string"
        },
        {
          "internalType": "uint256",
          "name": "ChangeValue",
          "type": "uint256"
        },
        {
          "internalType": "uint256",
          "name": "WKFValue",
          "type": "uint256"
        },
        {
          "internalType": "string",
          "name": "_Test",
          "type": "string"
        },
        {
          "internalType": "uint256[]",
          "name": "ChangeEndorsement",
          "type": "uint256[]"
        },
        {
          "internalType": "uint256",
          "name": "numEndorsers",
          "type": "uint256"
        },
        {
          "internalType": "address",
          "name": "initiator",
          "type": "address"
        }
      ],
      "payable": false,
      "stateMutability": "view",
      "type": "function"
    },
    {
      "constant": true,
      "inputs": [],
      "name": "getTest",
      "outputs": [
        {
          "internalType": "string",
          "name": "",
          "type": "string"
        },
        {
          "internalType": "string",
          "name": "",
          "type": "string"
        }
      ],
      "payable": false,
      "stateMutability": "view",
      "type": "function"
    },
    {
      "constant": true,
      "inputs": [
        {
          "internalType": "string",
          "name": "_hash",
          "type": "string"
        }
      ],
      "name": "getCanExecuteCheck",
      "outputs": [
        {
          "internalType": "uint32",
          "name": "",
          "type": "uint32"
        }
      ],
      "payable": false,
      "stateMutability": "view",
      "type": "function"
    },
    {
      "constant": true,
      "inputs": [
        {
          "internalType": "string",
          "name": "_hash",
          "type": "string"
        }
      ],
      "name": "getIncluded",
      "outputs": [
        {
          "internalType": "uint256[]",
          "name": "",
          "type": "uint256[]"
        }
      ],
      "payable": false,
      "stateMutability": "view",
      "type": "function"
    },
    {
      "constant": true,
      "inputs": [
        {
          "internalType": "string",
          "name": "_hash",
          "type": "string"
        }
      ],
      "name": "getExecuted",
      "outputs": [
        {
          "internalType": "uint256[]",
          "name": "",
          "type": "uint256[]"
        }
      ],
      "payable": false,
      "stateMutability": "view",
      "type": "function"
    },
    {
      "constant": true,
      "inputs": [
        {
          "internalType": "string",
          "name": "_hash",
          "type": "string"
        }
      ],
      "name": "getPending",
      "outputs": [
        {
          "internalType": "uint256[]",
          "name": "",
          "type": "uint256[]"
        }
      ],
      "payable": false,
      "stateMutability": "view",
      "type": "function"
    },
    {
      "constant": true,
      "inputs": [
        {
          "internalType": "string",
          "name": "_hash",
          "type": "string"
        }
      ],
      "name": "getConditionsFrom",
      "outputs": [
        {
          "internalType": "uint256[][]",
          "name": "",
          "type": "uint256[][]"
        }
      ],
      "payable": false,
      "stateMutability": "view",
      "type": "function"
    },
    {
      "constant": true,
      "inputs": [
        {
          "internalType": "string",
          "name": "_hash",
          "type": "string"
        }
      ],
      "name": "getHashes",
      "outputs": [
        {
          "internalType": "bytes[]",
          "name": "",
          "type": "bytes[]"
        }
      ],
      "payable": false,
      "stateMutability": "view",
      "type": "function"
    },
    {
      "constant": true,
      "inputs": [
        {
          "internalType": "string",
          "name": "_hash",
          "type": "string"
        },
        {
          "internalType": "uint256",
          "name": "activityId",
          "type": "uint256"
        }
      ],
      "name": "getRoleAddresses",
      "outputs": [
        {
          "internalType": "address",
          "name": "",
          "type": "address"
        }
      ],
      "payable": false,
      "stateMutability": "view",
      "type": "function"
    },
    {
      "constant": true,
      "inputs": [
        {
          "internalType": "string",
          "name": "_hash",
          "type": "string"
        }
      ],
      "name": "getAddresses",
      "outputs": [
        {
          "internalType": "address[]",
          "name": "",
          "type": "address[]"
        }
      ],
      "payable": false,
      "stateMutability": "view",
      "type": "function"
    },
    {
      "constant": true,
      "inputs": [
        {
          "internalType": "string",
          "name": "_hash",
          "type": "string"
        }
      ],
      "name": "getEndorserAddresses",
      "outputs": [
        {
          "internalType": "address[]",
          "name": "",
          "type": "address[]"
        }
      ],
      "payable": false,
      "stateMutability": "view",
      "type": "function"
    },
    {
      "constant": false,
      "inputs": [
        {
          "internalType": "address",
          "name": "myAddress",
          "type": "address"
        },
        {
          "internalType": "address[]",
          "name": "toNotify",
          "type": "address[]"
        },
        {
          "internalType": "string",
          "name": "_hashes",
          "type": "string"
        },
        {
          "internalType": "string",
          "name": "curr_hash",
          "type": "string"
        },
        {
          "internalType": "string",
          "name": "req_hash",
          "type": "string"
        }
      ],
      "name": "requestChange",
      "outputs": [],
      "payable": true,
      "stateMutability": "payable",
      "type": "function"
    },
    {
      "constant": false,
      "inputs": [
        {
          "internalType": "string",
          "name": "myHash",
          "type": "string"
        }
      ],
      "name": "finalApprovalManager",
      "outputs": [],
      "payable": true,
      "stateMutability": "payable",
      "type": "function"
    },
    {
      "constant": false,
      "inputs": [
        {
          "internalType": "address",
          "name": "myAddress",
          "type": "address"
        },
        {
          "internalType": "address[]",
          "name": "myAddresses",
          "type": "address[]"
        },
        {
          "internalType": "string",
          "name": "myHash",
          "type": "string"
        },
        {
          "internalType": "uint256",
          "name": "myDecision",
          "type": "uint256"
        }
      ],
      "name": "updateTableOnAddress",
      "outputs": [],
      "payable": true,
      "stateMutability": "payable",
      "type": "function"
    },
    {
      "constant": false,
      "inputs": [
        {
          "internalType": "string",
          "name": "curr_hash",
          "type": "string"
        },
        {
          "internalType": "string",
          "name": "req_hash",
          "type": "string"
        },
        {
          "internalType": "uint256",
          "name": "rsp",
          "type": "uint256"
        }
      ],
      "name": "endorserRSP",
      "outputs": [
        {
          "internalType": "string",
          "name": "",
          "type": "string"
        }
      ],
      "payable": true,
      "stateMutability": "payable",
      "type": "function"
    },
    {
      "constant": true,
      "inputs": [
        {
          "internalType": "string",
          "name": "_hash",
          "type": "string"
        }
      ],
      "name": "getChangeApprovalsOutcome",
      "outputs": [
        {
          "internalType": "uint256[]",
          "name": "",
          "type": "uint256[]"
        }
      ],
      "payable": false,
      "stateMutability": "view",
      "type": "function"
    },
    {
      "constant": true,
      "inputs": [
        {
          "internalType": "string",
          "name": "_hash",
          "type": "string"
        },
        {
          "internalType": "address",
          "name": "myAddress",
          "type": "address"
        }
      ],
      "name": "hasApprovedProjection",
      "outputs": [
        {
          "internalType": "uint256",
          "name": "",
          "type": "uint256"
        }
      ],
      "payable": false,
      "stateMutability": "view",
      "type": "function"
    },
    {
      "constant": false,
      "inputs": [
        {
          "internalType": "string",
          "name": "_hash",
          "type": "string"
        },
        {
          "internalType": "address",
          "name": "myAddress",
          "type": "address"
        }
      ],
      "name": "confirmChangeProjection",
      "outputs": [
        {
          "internalType": "uint256[]",
          "name": "",
          "type": "uint256[]"
        }
      ],
      "payable": true,
      "stateMutability": "payable",
      "type": "function"
    },
    {
      "constant": false,
      "inputs": [
        {
          "internalType": "string",
          "name": "_hash",
          "type": "string"
        },
        {
          "internalType": "uint256[][]",
          "name": "_markingStates",
          "type": "uint256[][]"
        },
        {
          "internalType": "uint256[][][]",
          "name": "_relations",
          "type": "uint256[][][]"
        },
        {
          "internalType": "string[]",
          "name": "_activityNames",
          "type": "string[]"
        },
        {
          "internalType": "address[]",
          "name": "_roleAddresses",
          "type": "address[]"
        }
      ],
      "name": "switchWorkflows",
      "outputs": [
        {
          "internalType": "string",
          "name": "",
          "type": "string"
        }
      ],
      "payable": true,
      "stateMutability": "payable",
      "type": "function"
    },
    {
      "constant": false,
      "inputs": [
        {
          "internalType": "string",
          "name": "_hash",
          "type": "string"
        },
        {
          "internalType": "address",
          "name": "myAddress",
          "type": "address"
        }
      ],
      "name": "fetchPublicView",
      "outputs": [
        {
          "internalType": "string",
          "name": "",
          "type": "string"
        }
      ],
      "payable": true,
      "stateMutability": "payable",
      "type": "function"
    },
    {
      "constant": true,
      "inputs": [
        {
          "internalType": "string",
          "name": "_hash",
          "type": "string"
        }
      ],
      "name": "getApprovalsOutcome",
      "outputs": [
        {
          "internalType": "uint256[]",
          "name": "",
          "type": "uint256[]"
        }
      ],
      "payable": false,
      "stateMutability": "view",
      "type": "function"
    },
    {
      "constant": true,
      "inputs": [
        {
          "internalType": "string",
          "name": "_hash",
          "type": "string"
        },
        {
          "internalType": "address",
          "name": "myAddress",
          "type": "address"
        }
      ],
      "name": "hasApproved",
      "outputs": [
        {
          "internalType": "uint256",
          "name": "",
          "type": "uint256"
        }
      ],
      "payable": false,
      "stateMutability": "view",
      "type": "function"
    },
    {
      "constant": false,
      "inputs": [
        {
          "internalType": "string",
          "name": "_hash",
          "type": "string"
        },
        {
          "internalType": "address",
          "name": "myAddress",
          "type": "address"
        }
      ],
      "name": "confirmProjection",
      "outputs": [
        {
          "internalType": "uint256[]",
          "name": "",
          "type": "uint256[]"
        }
      ],
      "payable": true,
      "stateMutability": "payable",
      "type": "function"
    },
    {
      "constant": false,
      "inputs": [
        {
          "internalType": "string",
          "name": "_hash",
          "type": "string"
        },
        {
          "internalType": "uint256",
          "name": "activityId",
          "type": "uint256"
        },
        {
          "internalType": "address",
          "name": "msgSender",
          "type": "address"
        }
      ],
      "name": "canExecute",
      "outputs": [
        {
          "internalType": "bool",
          "name": "",
          "type": "bool"
        }
      ],
      "payable": false,
      "stateMutability": "nonpayable",
      "type": "function"
    },
    {
      "constant": false,
      "inputs": [
        {
          "internalType": "string",
          "name": "_hash",
          "type": "string"
        },
        {
          "internalType": "uint256",
          "name": "activityId",
          "type": "uint256"
        }
      ],
      "name": "checkCliquedIndex",
      "outputs": [],
      "payable": false,
      "stateMutability": "nonpayable",
      "type": "function"
    },
    {
      "constant": false,
      "inputs": [
        {
          "internalType": "uint256[][]",
          "name": "markingStates",
          "type": "uint256[][]"
        },
        {
          "internalType": "string",
          "name": "_ipfsViewHash",
          "type": "string"
        },
        {
          "internalType": "address[]",
          "name": "_roleAddresses",
          "type": "address[]"
        },
        {
          "internalType": "address[]",
          "name": "_approvalAddresses",
          "type": "address[]"
        },
        {
          "internalType": "string[]",
          "name": "_activityNames",
          "type": "string[]"
        },
        {
          "internalType": "string",
          "name": "_name",
          "type": "string"
        },
        {
          "internalType": "uint256[][][]",
          "name": "_relations",
          "type": "uint256[][][]"
        }
      ],
      "name": "uploadPublicView",
      "outputs": [],
      "payable": true,
      "stateMutability": "payable",
      "type": "function"
    }
  ],
  "bytecode": "0x608060405260405180604001604052806040518060400160405280600481526020017f696e69740000000000000000000000000000000000000000000000000000000081525081526020016040518060400160405280600481526020017f696e697400000000000000000000000000000000000000000000000000000000815250815250600080820151816000019080519060200190620000a2929190620000d8565b506020820151816001019080519060200190620000c1929190620000d8565b505050348015620000d157600080fd5b5062000187565b828054600181600116156101000203166002900490600052602060002090601f016020900481019282601f106200011b57805160ff19168380011785556200014c565b828001600101855582156200014c579182015b828111156200014b5782518255916020019190600101906200012e565b5b5090506200015b91906200015f565b5090565b6200018491905b808211156200018057600081600090555060010162000166565b5090565b90565b615eae80620001976000396000f3fe60806040526004361061019c5760003560e01c806385e0efc0116100ec578063cb2c95141161008a578063e7cf96e711610064578063e7cf96e714610659578063e9b2b88614610696578063ee69739d146106d3578063f89a3b10146106ef5761019c565b8063cb2c9514146105b0578063cb89cdfd146105d9578063d2fbf948146106165761019c565b806399307671116100c657806399307671146104fb578063a158e4b014610538578063a8cd0a8014610554578063b872384d146105805761019c565b806385e0efc014610472578063895d7d641461048e5780639694f9fb146104be5761019c565b806342c59b28116101595780636342b1c2116101335780636342b1c21461039f5780636cb4e345146103dc5780636f384bfc14610419578063827f9511146104355761019c565b806342c59b28146102f55780634c5f090d146103325780634e894b32146103625761019c565b806302413fd4146101a15780630ce36024146101de57806318008e571461020e578063290930a21461023e5780632c3c0f9c1461027b57806339b64c30146102b8575b600080fd5b3480156101ad57600080fd5b506101c860048036036101c39190810190614d05565b61071a565b6040516101d59190615759565b60405180910390f35b6101f860048036036101f39190810190614d46565b610796565b6040516102059190615759565b60405180910390f35b61022860048036036102239190810190614d46565b610ad7565b60405161023591906157c6565b60405180910390f35b34801561024a57600080fd5b5061026560048036036102609190810190614d05565b610d53565b604051610272919061598a565b60405180910390f35b34801561028757600080fd5b506102a2600480360361029d9190810190614f5c565b610d91565b6040516102af91906157ab565b60405180910390f35b3480156102c457600080fd5b506102df60048036036102da9190810190614d05565b611319565b6040516102ec91906156d1565b60405180910390f35b34801561030157600080fd5b5061031c60048036036103179190810190614d05565b6113c8565b60405161032991906156d1565b60405180910390f35b61034c60048036036103479190810190614d9a565b611477565b60405161035991906157c6565b60405180910390f35b34801561036e57600080fd5b5061038960048036036103849190810190614d05565b6117cb565b60405161039691906156f3565b60405180910390f35b3480156103ab57600080fd5b506103c660048036036103c19190810190614d05565b6118a1565b6040516103d39190615759565b60405180910390f35b3480156103e857600080fd5b5061040360048036036103fe9190810190614d46565b61191d565b604051610410919061596f565b60405180910390f35b610433600480360361042e9190810190614bbf565b611a40565b005b34801561044157600080fd5b5061045c60048036036104579190810190614f08565b612122565b60405161046991906156b6565b60405180910390f35b61048c60048036036104879190810190614b2c565b612183565b005b6104a860048036036104a39190810190614e89565b612229565b6040516104b591906157c6565b60405180910390f35b3480156104ca57600080fd5b506104e560048036036104e09190810190614d05565b6125c8565b6040516104f29190615715565b60405180910390f35b34801561050757600080fd5b50610522600480360361051d9190810190614d05565b6126d2565b60405161052f9190615759565b60405180910390f35b610552600480360361054d9190810190614d05565b61274b565b005b34801561056057600080fd5b506105696128f3565b6040516105779291906157e8565b60405180910390f35b61059a60048036036105959190810190614d46565b612a3f565b6040516105a79190615759565b60405180910390f35b3480156105bc57600080fd5b506105d760048036036105d29190810190614f08565b612fdf565b005b3480156105e557600080fd5b5061060060048036036105fb9190810190614d05565b613595565b60405161060d9190615759565b60405180910390f35b34801561062257600080fd5b5061063d60048036036106389190810190614d05565b613611565b6040516106509796959493929190615889565b60405180910390f35b34801561066557600080fd5b50610680600480360361067b9190810190614d46565b6138dd565b60405161068d919061596f565b60405180910390f35b3480156106a257600080fd5b506106bd60048036036106b89190810190614d05565b613a00565b6040516106ca9190615759565b60405180910390f35b6106ed60048036036106e89190810190614a55565b613a79565b005b3480156106fb57600080fd5b50610704613df6565b6040516107119190615737565b60405180910390f35b606060038260405161072c919061569f565b908152602001604051809103902060030160000180548060200260200160405190810160405280929190818152602001828054801561078a57602002820191906000526020600020905b815481526020019060010190808311610776575b50505050509050919050565b60603373ffffffffffffffffffffffffffffffffffffffff168273ffffffffffffffffffffffffffffffffffffffff1614610806576040517f08c379a00000000000000000000000000000000000000000000000000000000081526004016107fd9061592f565b60405180910390fd5b60008090505b60038460405161081c919061569f565b9081526020016040518091039020600b0180549050811015610a5d57600384604051610848919061569f565b9081526020016040518091039020600b01818154811061086457fe5b9060005260206000200160009054906101000a900473ffffffffffffffffffffffffffffffffffffffff1673ffffffffffffffffffffffffffffffffffffffff168373ffffffffffffffffffffffffffffffffffffffff161480156108ff575060016003856040516108d6919061569f565b9081526020016040518091039020600d0182815481106108f257fe5b9060005260206000200154145b15610a50576001600385604051610916919061569f565b9081526020016040518091039020600c01828154811061093257fe5b906000526020600020015414610a4f576001600385604051610954919061569f565b9081526020016040518091039020600c01828154811061097057fe5b90600052602060002001819055508273ffffffffffffffffffffffffffffffffffffffff16846040516109a3919061569f565b60405180910390207fef93748ef353323feced9a53b1f9433297bf50235a9d5aa97783d3f30d4682e460405160405180910390a36003846040516109e7919061569f565b9081526020016040518091039020600c01805480602002602001604051908101604052809291908181526020018280548015610a4257602002820191906000526020600020905b815481526020019060010190808311610a2e575b5050505050915050610ad1565b5b808060010191505061080c565b50600383604051610a6e919061569f565b9081526020016040518091039020600c01805480602002602001604051908101604052809291908181526020018280548015610ac957602002820191906000526020600020905b815481526020019060010190808311610ab5575b505050505090505b92915050565b60608173ffffffffffffffffffffffffffffffffffffffff163373ffffffffffffffffffffffffffffffffffffffff1614610b47576040517f08c379a0000000000000000000000000000000000000000000000000000000008152600401610b3e9061594f565b60405180910390fd5b60008090505b600384604051610b5d919061569f565b9081526020016040518091039020600b0180549050811015610c9057600384604051610b89919061569f565b9081526020016040518091039020600b018181548110610ba557fe5b9060005260206000200160009054906101000a900473ffffffffffffffffffffffffffffffffffffffff1673ffffffffffffffffffffffffffffffffffffffff168373ffffffffffffffffffffffffffffffffffffffff16148015610c4157506001600385604051610c17919061569f565b9081526020016040518091039020600d018281548110610c3357fe5b906000526020600020015414155b15610c83576001600385604051610c58919061569f565b9081526020016040518091039020600d018281548110610c7457fe5b90600052602060002001819055505b8080600101915050610b4d565b50600383604051610ca1919061569f565b90815260200160405180910390206002018054600181600116156101000203166002900480601f016020809104026020016040519081016040528092919081815260200182805460018160011615610100020316600290048015610d465780601f10610d1b57610100808354040283529160200191610d46565b820191906000526020600020905b815481529060010190602001808311610d2957829003601f168201915b5050505050905092915050565b6000600382604051610d65919061569f565b9081526020016040518091039020600e0160000160009054906101000a900463ffffffff169050919050565b6000600384604051610da3919061569f565b90815260200160405180910390206006018381548110610dbf57fe5b9060005260206000200160009054906101000a900473ffffffffffffffffffffffffffffffffffffffff1673ffffffffffffffffffffffffffffffffffffffff168273ffffffffffffffffffffffffffffffffffffffff1614610e69576004600385604051610e2e919061569f565b9081526020016040518091039020600e0160000160006101000a81548163ffffffff021916908363ffffffff16021790555060009050611312565b6000600385604051610e7b919061569f565b90815260200160405180910390206003016000018481548110610e9a57fe5b90600052602060002001541415610ef8576001600385604051610ebd919061569f565b9081526020016040518091039020600e0160000160006101000a81548163ffffffff021916908363ffffffff16021790555060009050611312565b60008090505b600385604051610f0e919061569f565b9081526020016040518091039020600a01600381548110610f2b57fe5b90600052602060002001805490508110156110e0576060600386604051610f52919061569f565b9081526020016040518091039020600a01600381548110610f6f57fe5b906000526020600020018281548110610f8457fe5b90600052602060002001805480602002602001604051908101604052809291908181526020018280548015610fd857602002820191906000526020600020905b815481526020019060010190808311610fc4575b505050505090506001818681518110610fed57fe5b602002602001015114156110d257600060038760405161100d919061569f565b9081526020016040518091039020600301600101838154811061102c57fe5b906000526020600020015414801561107d57506001600387604051611051919061569f565b9081526020016040518091039020600301600001838154811061107057fe5b9060005260206000200154145b156110d1576002600387604051611094919061569f565b9081526020016040518091039020600e0160000160006101000a81548163ffffffff021916908363ffffffff160217905550600092505050611312565b5b508080600101915050610efe565b5060008090505b6003856040516110f7919061569f565b9081526020016040518091039020600a0160048154811061111457fe5b90600052602060002001805490508110156112c857606060038660405161113b919061569f565b9081526020016040518091039020600a0160048154811061115857fe5b90600052602060002001828154811061116d57fe5b906000526020600020018054806020026020016040519081016040528092919081815260200182805480156111c157602002820191906000526020600020905b8154815260200190600101908083116111ad575b5050505050905060018186815181106111d657fe5b602002602001015114156112ba5760016003876040516111f6919061569f565b9081526020016040518091039020600301600201838154811061121557fe5b90600052602060002001541480156112665750600160038760405161123a919061569f565b9081526020016040518091039020600301600001838154811061125957fe5b9060005260206000200154145b156112b9576003808760405161127c919061569f565b9081526020016040518091039020600e0160000160006101000a81548163ffffffff021916908363ffffffff160217905550600092505050611312565b5b5080806001019150506110e7565b5060006003856040516112db919061569f565b9081526020016040518091039020600e0160000160006101000a81548163ffffffff021916908363ffffffff160217905550600190505b9392505050565b606060038260405161132b919061569f565b9081526020016040518091039020600b018054806020026020016040519081016040528092919081815260200182805480156113bc57602002820191906000526020600020905b8160009054906101000a900473ffffffffffffffffffffffffffffffffffffffff1673ffffffffffffffffffffffffffffffffffffffff1681526020019060010190808311611372575b50505050509050919050565b60606004826040516113da919061569f565b908152602001604051809103902060040180548060200260200160405190810160405280929190818152602001828054801561146b57602002820191906000526020600020905b8160009054906101000a900473ffffffffffffffffffffffffffffffffffffffff1673ffffffffffffffffffffffffffffffffffffffff1681526020019060010190808311611421575b50505050509050919050565b6060600486604051611489919061569f565b908152602001604051809103902060020160019054906101000a900473ffffffffffffffffffffffffffffffffffffffff1673ffffffffffffffffffffffffffffffffffffffff163373ffffffffffffffffffffffffffffffffffffffff161480156115be5750600173__LibPublicDCRM_________________________631bb9752860048960405161151c919061569f565b908152602001604051809103902060060160048a60405161153d919061569f565b9081526020016040518091039020600301546040518363ffffffff1660e01b815260040161156c92919061577b565b60206040518083038186803b15801561158457600080fd5b505af4158015611598573d6000803e3d6000fd5b505050506040513d601f19601f820116820180604052506115bc9190810190614fc3565b145b6115c757600080fd5b611748856004886040516115db919061569f565b90815260200160405180910390206001018054600181600116156101000203166002900480601f0160208091040260200160405190810160405280929190818152602001828054600181600116156101000203166002900480156116805780601f1061165557610100808354040283529160200191611680565b820191906000526020600020905b81548152906001019060200180831161166357829003601f168201915b505050505084858760038c604051611698919061569f565b90815260200160405180910390206000018054600181600116156101000203166002900480601f01602080910402602001604051908101604052809291908181526020018280546001816001161561010002031660029004801561173d5780601f106117125761010080835404028352916020019161173d565b820191906000526020600020905b81548152906001019060200180831161172057829003601f168201915b50505050508a611a40565b60048087604051611759919061569f565b908152602001604051809103902060020160006101000a81548160ff0219169083600481111561178557fe5b02179055506040518060400160405280600b81526020017f73776974636820646f6e65000000000000000000000000000000000000000000815250905095945050505050565b60606003826040516117dd919061569f565b9081526020016040518091039020600a016003815481106117fa57fe5b90600052602060002001805480602002602001604051908101604052809291908181526020016000905b828210156118965783829060005260206000200180548060200260200160405190810160405280929190818152602001828054801561188257602002820191906000526020600020905b81548152602001906001019080831161186e575b505050505081526020019060010190611824565b505050509050919050565b60606003826040516118b3919061569f565b908152602001604051809103902060030160010180548060200260200160405190810160405280929190818152602001828054801561191157602002820191906000526020600020905b8154815260200190600101908083116118fd575b50505050509050919050565b600080600090505b600384604051611935919061569f565b9081526020016040518091039020600b0180549050811015611a3457600384604051611961919061569f565b9081526020016040518091039020600b01818154811061197d57fe5b9060005260206000200160009054906101000a900473ffffffffffffffffffffffffffffffffffffffff1673ffffffffffffffffffffffffffffffffffffffff168373ffffffffffffffffffffffffffffffffffffffff16148015611a18575060016003856040516119ef919061569f565b9081526020016040518091039020600c018281548110611a0b57fe5b9060005260206000200154145b15611a27576001915050611a3a565b8080600101915050611925565b50600090505b92915050565b611a48613edf565b6040518060400160405280600063ffffffff16815260200160008152509050611a6f613eff565b60405180606001604052808a600081518110611a8757fe5b602002602001015181526020018a600181518110611aa157fe5b602002602001015181526020018a600281518110611abb57fe5b60200260200101518152509050611ad0613f20565b604051806101a0016040528086815260200160036004811115611aef57fe5b81526020018a81526020018381526020018981526020018781526020018b600081518110611b1957fe5b602002602001015151604051908082528060200260200182016040528015611b5557816020015b6060815260200190600190039081611b405790505b5081526020018b600081518110611b6857fe5b60200260200101515181526020018581526020018881526020018851604051908082528060200260200182016040528015611bb25781602001602082028038833980820191505090505b5081526020018851604051908082528060200260200182016040528015611be85781602001602082028038833980820191505090505b5081526020018481525090508060038a604051611c05919061569f565b90815260200160405180910390206000820151816000019080519060200190611c2f929190613f9f565b5060208201518160010160006101000a81548160ff02191690836004811115611c5457fe5b02179055506040820151816002019080519060200190611c75929190613f9f565b506060820151816003016000820151816000019080519060200190611c9b92919061401f565b506020820151816001019080519060200190611cb892919061401f565b506040820151816002019080519060200190611cd592919061401f565b5050506080820151816006019080519060200190611cf492919061406c565b5060a0820151816007019080519060200190611d119291906140f6565b5060c0820151816008019080519060200190611d2e929190614156565b5060e0820151816009015561010082015181600a019080519060200190611d569291906141b6565b5061012082015181600b019080519060200190611d7492919061406c565b5061014082015181600c019080519060200190611d9292919061401f565b5061016082015181600d019080519060200190611db092919061401f565b5061018082015181600e0160008201518160000160006101000a81548163ffffffff021916908363ffffffff1602179055506020820151816001015550509050506002899080600181540180825580915050906001820390600052602060002001600090919290919091509080519060200190611e2e929190614216565b5050611e38614296565b6040518061012001604052808b815260200160405180602001604052806000815250815260200160036004811115611e6c57fe5b8152602001600073ffffffffffffffffffffffffffffffffffffffff168152602001600081526020018951604051908082528060200260200182016040528015611ec55781602001602082028038833980820191505090505b5081526020018951604051908082528060200260200182016040528015611efb5781602001602082028038833980820191505090505b5081526020018951604051908082528060200260200182016040528015611f315781602001602082028038833980820191505090505b5081526020018951604051908082528060200260200182016040528015611f675781602001602082028038833980820191505090505b5081525090508060048b604051611f7e919061569f565b90815260200160405180910390206000820151816000019080519060200190611fa8929190613f9f565b506020820151816001019080519060200190611fc5929190613f9f565b5060408201518160020160006101000a81548160ff02191690836004811115611fea57fe5b021790555060608201518160020160016101000a81548173ffffffffffffffffffffffffffffffffffffffff021916908373ffffffffffffffffffffffffffffffffffffffff1602179055506080820151816003015560a082015181600401908051906020019061205c92919061406c565b5060c082015181600501908051906020019061207992919061401f565b5060e082015181600601908051906020019061209692919061401f565b506101008201518160070190805190602001906120b492919061401f565b509050503373ffffffffffffffffffffffffffffffffffffffff1682604001516040516120e19190615688565b60405180910390207fc42dc8c6712875975b09ece703779e4ed83179500da5c8776b1eab681e04c7fa60405160405180910390a35050505050505050505050565b6000600383604051612134919061569f565b9081526020016040518091039020600601828154811061215057fe5b9060005260206000200160009054906101000a900473ffffffffffffffffffffffffffffffffffffffff16905092915050565b60008090505b83518110156122225783818151811061219e57fe5b602002602001015173ffffffffffffffffffffffffffffffffffffffff168573ffffffffffffffffffffffffffffffffffffffff16141561221557816004846040516121ea919061569f565b9081526020016040518091039020600501828154811061220657fe5b90600052602060002001819055505b8080600101915050612189565b5050505050565b60606002600481111561223857fe5b600485604051612248919061569f565b908152602001604051809103902060020160009054906101000a900460ff16600481111561227257fe5b14156125a5576040518060400160405280600c81526020017f656e746572696e674e6f646500000000000000000000000000000000000000008152506000800190805190602001906122c5929190614216565b50600182141561242b57612381336004866040516122e3919061569f565b908152602001604051809103902060040180548060200260200160405190810160405280929190818152602001828054801561237457602002820191906000526020600020905b8160009054906101000a900473ffffffffffffffffffffffffffffffffffffffff1673ffffffffffffffffffffffffffffffffffffffff168152602001906001019080831161232a575b5050505050866001612183565b6040518060400160405280601681526020017f617070726f766564206279206f6e6520706572736f6e000000000000000000008152506000800190805190602001906123ce929190614216565b503373ffffffffffffffffffffffffffffffffffffffff167fe9c7cbf4a3feb2b50db16225158a7170e01af4e7a4b2d243eeec352242dffdfd8460405161241591906157c6565b60405180910390a26124268461274b565b612568565b6002821415612518576040518060400160405280600881526020017f6465636c696e6564000000000000000000000000000000000000000000000000815250600080019080519060200190612481929190614216565b506003600485604051612494919061569f565b908152602001604051809103902060020160006101000a81548160ff021916908360048111156124c057fe5b02179055503373ffffffffffffffffffffffffffffffffffffffff167f1592b7870c0c0627d9de8a8794012705b34a6640c1456b714a685eb5cc987c338460405161250b91906157c6565b60405180910390a2612567565b3373ffffffffffffffffffffffffffffffffffffffff167fc4f2afae15f3e7da4e4f139081d67f69ef9f4c3736a6649eb2fa1853771303158460405161255e9190615854565b60405180910390a25b5b6040518060400160405280600d81526020017f5253502070726f6365737365640000000000000000000000000000000000000081525090506125c1565b6040518060600160405280602c8152602001615e40602c913990505b9392505050565b60606003826040516125da919061569f565b9081526020016040518091039020600801805480602002602001604051908101604052809291908181526020016000905b828210156126c7578382906000526020600020018054600181600116156101000203166002900480601f0160208091040260200160405190810160405280929190818152602001828054600181600116156101000203166002900480156126b35780601f10612688576101008083540402835291602001916126b3565b820191906000526020600020905b81548152906001019060200180831161269657829003601f168201915b50505050508152602001906001019061260b565b505050509050919050565b60606004826040516126e4919061569f565b908152602001604051809103902060060180548060200260200160405190810160405280929190818152602001828054801561273f57602002820191906000526020600020905b81548152602001906001019080831161272b575b50505050509050919050565b60006001905060008090505b600483604051612767919061569f565b9081526020016040518091039020600401805490508110156127d6576001600484604051612795919061569f565b908152602001604051809103902060050182815481106127b157fe5b906000526020600020015414156127c9576001820191505b8080600101915050612757565b506004826040516127e7919061569f565b9081526020016040518091039020600301548114156128ef576040518060400160405280601981526020017f617070726f76656420627920616c6c20656e646f72736572730000000000000081525060008001908051906020019061284d929190614216565b506003600481111561285b57fe5b60048360405161286b919061569f565b908152602001604051809103902060020160009054906101000a900460ff16600481111561289557fe5b50507fd2a535afc7065ca5ca78e1cbe51c4ab92413202d78b070b01df38363ac20363d6004836040516128c8919061569f565b90815260200160405180910390206001016040516128e6919061590d565b60405180910390a15b5050565b606080600080016000600101818054600181600116156101000203166002900480601f0160208091040260200160405190810160405280929190818152602001828054600181600116156101000203166002900480156129945780601f1061296957610100808354040283529160200191612994565b820191906000526020600020905b81548152906001019060200180831161297757829003601f168201915b50505050509150808054600181600116156101000203166002900480601f016020809104026020016040519081016040528092919081815260200182805460018160011615610100020316600290048015612a305780601f10612a0557610100808354040283529160200191612a30565b820191906000526020600020905b815481529060010190602001808311612a1357829003601f168201915b50505050509050915091509091565b60606040518060400160405280600181526020017f410000000000000000000000000000000000000000000000000000000000000081525060006001019080519060200190612a8f929190614216565b503373ffffffffffffffffffffffffffffffffffffffff168273ffffffffffffffffffffffffffffffffffffffff1614612afe576040517f08c379a0000000000000000000000000000000000000000000000000000000008152600401612af59061592f565b60405180910390fd5b6040518060400160405280600181526020017f420000000000000000000000000000000000000000000000000000000000000081525060006001019080519060200190612b4c929190614216565b5060008090505b600484604051612b63919061569f565b908152602001604051809103902060040180549050811015612f65576040518060400160405280600181526020017f430000000000000000000000000000000000000000000000000000000000000081525060006001019080519060200190612bcd929190614216565b50600484604051612bde919061569f565b90815260200160405180910390206004018181548110612bfa57fe5b9060005260206000200160009054906101000a900473ffffffffffffffffffffffffffffffffffffffff1673ffffffffffffffffffffffffffffffffffffffff168373ffffffffffffffffffffffffffffffffffffffff161415612f58576040518060400160405280601081526020017f617070726f76616c20737461676520310000000000000000000000000000000081525060006001019080519060200190612ca6929190614216565b506001600485604051612cb9919061569f565b90815260200160405180910390206006018281548110612cd557fe5b906000526020600020015414612f57576001600485604051612cf7919061569f565b90815260200160405180910390206006018281548110612d1357fe5b90600052602060002001819055508273ffffffffffffffffffffffffffffffffffffffff1684604051612d46919061569f565b60405180910390207fef93748ef353323feced9a53b1f9433297bf50235a9d5aa97783d3f30d4682e460405160405180910390a36040518060400160405280601081526020017f617070726f76616c20737461676520320000000000000000000000000000000081525060006001019080519060200190612dc8929190614216565b50600173__LibPublicDCRM_________________________631bb97528600487604051612df5919061569f565b9081526020016040518091039020600601600488604051612e16919061569f565b9081526020016040518091039020600301546040518363ffffffff1660e01b8152600401612e4592919061577b565b60206040518083038186803b158015612e5d57600080fd5b505af4158015612e71573d6000803e3d6000fd5b505050506040513d601f19601f82011682018060405250612e959190810190614fc3565b1415612edf576000600485604051612ead919061569f565b908152602001604051809103902060020160006101000a81548160ff02191690836004811115612ed957fe5b02179055505b600484604051612eef919061569f565b9081526020016040518091039020600601805480602002602001604051908101604052809291908181526020018280548015612f4a57602002820191906000526020600020905b815481526020019060010190808311612f36575b5050505050915050612fd9565b5b8080600101915050612b53565b50600483604051612f76919061569f565b9081526020016040518091039020600601805480602002602001604051908101604052809291908181526020018280548015612fd157602002820191906000526020600020905b815481526020019060010190808311612fbd575b505050505090505b92915050565b612fea828233610d91565b613062576001600383604051613000919061569f565b9081526020016040518091039020600e016001018190555060018183604051613029919061569f565b60405180910390207fa59297fb38de255753588982fd21223eab1e18d3151668c80b2ddeb15d7897b160405160405180910390a4613591565b6001600383604051613074919061569f565b9081526020016040518091039020600301600101828154811061309357fe5b906000526020600020018190555060006003836040516130b3919061569f565b908152602001604051809103902060030160020182815481106130d257fe5b906000526020600020018190555060606003836040516130f2919061569f565b9081526020016040518091039020600a0160018154811061310f57fe5b90600052602060002001828154811061312457fe5b9060005260206000200180548060200260200160405190810160405280929190818152602001828054801561317857602002820191906000526020600020905b815481526020019060010190808311613164575b505050505090506060600384604051613191919061569f565b9081526020016040518091039020600a016002815481106131ae57fe5b9060005260206000200183815481106131c357fe5b9060005260206000200180548060200260200160405190810160405280929190818152602001828054801561321757602002820191906000526020600020905b815481526020019060010190808311613203575b505050505090506060600385604051613230919061569f565b9081526020016040518091039020600a0160008154811061324d57fe5b90600052602060002001848154811061326257fe5b906000526020600020018054806020026020016040519081016040528092919081815260200182805480156132b657602002820191906000526020600020905b8154815260200190600101908083116132a2575b5050505050905060606003866040516132cf919061569f565b9081526020016040518091039020600a016003815481106132ec57fe5b90600052602060002001858154811061330157fe5b9060005260206000200180548060200260200160405190810160405280929190818152602001828054801561335557602002820191906000526020600020905b815481526020019060010190808311613341575b5050505050905060008090505b81518110156133af57600182828151811061337957fe5b602002602001015114156133a257600183828151811061339557fe5b6020026020010181815250505b8080600101915050613362565b5060008090505b6003876040516133c6919061569f565b9081526020016040518091039020600a016001815481106133e357fe5b906000526020600020018054905081101561351c57600185828151811061340657fe5b60200260200101511415801561342f5750600183828151811061342557fe5b6020026020010151145b15613474576001600388604051613446919061569f565b9081526020016040518091039020600301600001828154811061346557fe5b90600052602060002001819055505b600184828151811061348257fe5b6020026020010151141561350f5760016003886040516134a2919061569f565b908152602001604051809103902060030160020182815481106134c157fe5b906000526020600020018190555060016003886040516134e1919061569f565b9081526020016040518091039020600301600001828154811061350057fe5b90600052602060002001819055505b80806001019150506133b6565b506000858760405161352e919061569f565b60405180910390207fa59297fb38de255753588982fd21223eab1e18d3151668c80b2ddeb15d7897b160405160405180910390a46001600387604051613574919061569f565b9081526020016040518091039020600e0160010181905550505050505b5050565b60606003826040516135a7919061569f565b908152602001604051809103902060030160020180548060200260200160405190810160405280929190818152602001828054801561360557602002820191906000526020600020905b8154815260200190600101908083116135f1575b50505050509050919050565b606060008060608060008060048860405161362c919061569f565b908152602001604051809103902060010160048960405161364d919061569f565b908152602001604051809103902060020160009054906101000a900460ff16600481111561367757fe5b60038a604051613687919061569f565b908152602001604051809103902060010160009054906101000a900460ff1660048111156136b157fe5b6000800160048c6040516136c5919061569f565b908152602001604051809103902060050160048d6040516136e6919061569f565b90815260200160405180910390206003015460048e604051613708919061569f565b908152602001604051809103902060020160019054906101000a900473ffffffffffffffffffffffffffffffffffffffff16868054600181600116156101000203166002900480601f0160208091040260200160405190810160405280929190818152602001828054600181600116156101000203166002900480156137cf5780601f106137a4576101008083540402835291602001916137cf565b820191906000526020600020905b8154815290600101906020018083116137b257829003601f168201915b50505050509650838054600181600116156101000203166002900480601f01602080910402602001604051908101604052809291908181526020018280546001816001161561010002031660029004801561386b5780601f106138405761010080835404028352916020019161386b565b820191906000526020600020905b81548152906001019060200180831161384e57829003601f168201915b50505050509350828054806020026020016040519081016040528092919081815260200182805480156138bd57602002820191906000526020600020905b8154815260200190600101908083116138a9575b505050505092509650965096509650965096509650919395979092949650565b600080600090505b6004846040516138f5919061569f565b9081526020016040518091039020600401805490508110156139f457600484604051613921919061569f565b9081526020016040518091039020600401818154811061393d57fe5b9060005260206000200160009054906101000a900473ffffffffffffffffffffffffffffffffffffffff1673ffffffffffffffffffffffffffffffffffffffff168373ffffffffffffffffffffffffffffffffffffffff161480156139d8575060016004856040516139af919061569f565b908152602001604051809103902060060182815481106139cb57fe5b9060005260206000200154145b156139e75760019150506139fa565b80806001019150506138e5565b50600090505b92915050565b6060600382604051613a12919061569f565b9081526020016040518091039020600c01805480602002602001604051908101604052809291908181526020018280548015613a6d57602002820191906000526020600020905b815481526020019060010190808311613a59575b50505050509050919050565b3373ffffffffffffffffffffffffffffffffffffffff168573ffffffffffffffffffffffffffffffffffffffff1614613ae7576040517f08c379a0000000000000000000000000000000000000000000000000000000008152600401613ade9061592f565b60405180910390fd5b6040518060400160405280601b81526020017f6368672072657175657374206265696e672070726f6365737365640000000000815250600080019080519060200190613b34929190614216565b5060036004811115613b4257fe5b600483604051613b52919061569f565b908152602001604051809103902060020160009054906101000a900460ff166004811115613b7c57fe5b1415613da0576040518060400160405280601581526020017f63686720726571756573742076616c6964617465640000000000000000000000815250600080019080519060200190613bcf929190614216565b506002600483604051613be2919061569f565b908152602001604051809103902060020160006101000a81548160ff02191690836004811115613c0e57fe5b021790555080600483604051613c24919061569f565b90815260200160405180910390206001019080519060200190613c48929190614216565b5084600483604051613c5a919061569f565b908152602001604051809103902060020160016101000a81548173ffffffffffffffffffffffffffffffffffffffff021916908373ffffffffffffffffffffffffffffffffffffffff1602179055508351600483604051613cbb919061569f565b90815260200160405180910390206003018190555083600483604051613ce1919061569f565b90815260200160405180910390206004019080519060200190613d05929190614303565b5060008090505b8451811015613d9a578573ffffffffffffffffffffffffffffffffffffffff16858281518110613d3857fe5b602002602001015173ffffffffffffffffffffffffffffffffffffffff167f8dae525cabdde2b20f26998f05e6c504721ba1cea6f7229604cbee3a7267a01586604051613d8591906157c6565b60405180910390a38080600101915050613d0c565b50613def565b8473ffffffffffffffffffffffffffffffffffffffff167fc4f2afae15f3e7da4e4f139081d67f69ef9f4c3736a6649eb2fa18537713031582604051613de6919061581f565b60405180910390a25b5050505050565b60606002805480602002602001604051908101604052809291908181526020016000905b82821015613ed6578382906000526020600020018054600181600116156101000203166002900480601f016020809104026020016040519081016040528092919081815260200182805460018160011615610100020316600290048015613ec25780601f10613e9757610100808354040283529160200191613ec2565b820191906000526020600020905b815481529060010190602001808311613ea557829003601f168201915b505050505081526020019060010190613e1a565b50505050905090565b6040518060400160405280600063ffffffff168152602001600081525090565b60405180606001604052806060815260200160608152602001606081525090565b604051806101a001604052806060815260200160006004811115613f4057fe5b815260200160608152602001613f5461438d565b81526020016060815260200160608152602001606081526020016000815260200160608152602001606081526020016060815260200160608152602001613f996143ae565b81525090565b828054600181600116156101000203166002900490600052602060002090601f016020900481019282601f10613fe057805160ff191683800117855561400e565b8280016001018555821561400e579182015b8281111561400d578251825591602001919060010190613ff2565b5b50905061401b91906143ce565b5090565b82805482825590600052602060002090810192821561405b579160200282015b8281111561405a57825182559160200191906001019061403f565b5b50905061406891906143ce565b5090565b8280548282559060005260206000209081019282156140e5579160200282015b828111156140e45782518260006101000a81548173ffffffffffffffffffffffffffffffffffffffff021916908373ffffffffffffffffffffffffffffffffffffffff1602179055509160200191906001019061408c565b5b5090506140f291906143f3565b5090565b828054828255906000526020600020908101928215614145579160200282015b82811115614144578251829080519060200190614134929190613f9f565b5091602001919060010190614116565b5b5090506141529190614436565b5090565b8280548282559060005260206000209081019282156141a5579160200282015b828111156141a4578251829080519060200190614194929190614462565b5091602001919060010190614176565b5b5090506141b291906144e2565b5090565b828054828255906000526020600020908101928215614205579160200282015b828111156142045782518290805190602001906141f492919061450e565b50916020019190600101906141d6565b5b509050614212919061456e565b5090565b828054600181600116156101000203166002900490600052602060002090601f016020900481019282601f1061425757805160ff1916838001178555614285565b82800160010185558215614285579182015b82811115614284578251825591602001919060010190614269565b5b50905061429291906143ce565b5090565b6040518061012001604052806060815260200160608152602001600060048111156142bd57fe5b8152602001600073ffffffffffffffffffffffffffffffffffffffff16815260200160008152602001606081526020016060815260200160608152602001606081525090565b82805482825590600052602060002090810192821561437c579160200282015b8281111561437b5782518260006101000a81548173ffffffffffffffffffffffffffffffffffffffff021916908373ffffffffffffffffffffffffffffffffffffffff16021790555091602001919060010190614323565b5b50905061438991906143f3565b5090565b60405180606001604052806060815260200160608152602001606081525090565b6040518060400160405280600063ffffffff168152602001600081525090565b6143f091905b808211156143ec5760008160009055506001016143d4565b5090565b90565b61443391905b8082111561442f57600081816101000a81549073ffffffffffffffffffffffffffffffffffffffff0219169055506001016143f9565b5090565b90565b61445f91905b8082111561445b5760008181614452919061459a565b5060010161443c565b5090565b90565b828054600181600116156101000203166002900490600052602060002090601f016020900481019282601f106144a357805160ff19168380011785556144d1565b828001600101855582156144d1579182015b828111156144d05782518255916020019190600101906144b5565b5b5090506144de91906143ce565b5090565b61450b91905b8082111561450757600081816144fe91906145e2565b506001016144e8565b5090565b90565b82805482825590600052602060002090810192821561455d579160200282015b8281111561455c57825182908051906020019061454c92919061401f565b509160200191906001019061452e565b5b50905061456a919061462a565b5090565b61459791905b80821115614593576000818161458a9190614656565b50600101614574565b5090565b90565b50805460018160011615610100020316600290046000825580601f106145c057506145df565b601f0160209004906000526020600020908101906145de91906143ce565b5b50565b50805460018160011615610100020316600290046000825580601f106146085750614627565b601f01602090049060005260206000209081019061462691906143ce565b5b50565b61465391905b8082111561464f57600081816146469190614677565b50600101614630565b5090565b90565b5080546000825590600052602060002090810190614674919061462a565b50565b508054600082559060005260206000209081019061469591906143ce565b50565b6000813590506146a781615e11565b92915050565b600082601f8301126146be57600080fd5b81356146d16146cc826159d2565b6159a5565b915081818352602084019350602081019050838560208402820111156146f657600080fd5b60005b83811015614726578161470c8882614698565b8452602084019350602083019250506001810190506146f9565b5050505092915050565b600082601f83011261474157600080fd5b813561475461474f826159fa565b6159a5565b9150818183526020840193506020810190508360005b8381101561479a578135860161478088826147a4565b84526020840193506020830192505060018101905061476a565b5050505092915050565b600082601f8301126147b557600080fd5b81356147c86147c382615a22565b6159a5565b9150818183526020840193506020810190508360005b8381101561480e57813586016147f48882614900565b8452602084019350602083019250506001810190506147de565b5050505092915050565b600082601f83011261482957600080fd5b813561483c61483782615a4a565b6159a5565b9150818183526020840193506020810190508360005b8381101561488257813586016148688882614900565b845260208401935060208301925050600181019050614852565b5050505092915050565b600082601f83011261489d57600080fd5b81356148b06148ab82615a72565b6159a5565b9150818183526020840193506020810190508360005b838110156148f657813586016148dc8882614983565b8452602084019350602083019250506001810190506148c6565b5050505092915050565b600082601f83011261491157600080fd5b813561492461491f82615a9a565b6159a5565b9150818183526020840193506020810190508385602084028201111561494957600080fd5b60005b83811015614979578161495f8882614a2b565b84526020840193506020830192505060018101905061494c565b5050505092915050565b600082601f83011261499457600080fd5b81356149a76149a282615ac2565b6159a5565b915080825260208301602083018583830111156149c357600080fd5b6149ce838284615d84565b50505092915050565b600082601f8301126149e857600080fd5b81356149fb6149f682615aee565b6159a5565b91508082526020830160208301858383011115614a1757600080fd5b614a22838284615d84565b50505092915050565b600081359050614a3a81615e28565b92915050565b600081519050614a4f81615e28565b92915050565b600080600080600060a08688031215614a6d57600080fd5b6000614a7b88828901614698565b955050602086013567ffffffffffffffff811115614a9857600080fd5b614aa4888289016146ad565b945050604086013567ffffffffffffffff811115614ac157600080fd5b614acd888289016149d7565b935050606086013567ffffffffffffffff811115614aea57600080fd5b614af6888289016149d7565b925050608086013567ffffffffffffffff811115614b1357600080fd5b614b1f888289016149d7565b9150509295509295909350565b60008060008060808587031215614b4257600080fd5b6000614b5087828801614698565b945050602085013567ffffffffffffffff811115614b6d57600080fd5b614b79878288016146ad565b935050604085013567ffffffffffffffff811115614b9657600080fd5b614ba2878288016149d7565b9250506060614bb387828801614a2b565b91505092959194509250565b600080600080600080600060e0888a031215614bda57600080fd5b600088013567ffffffffffffffff811115614bf457600080fd5b614c008a828b01614818565b975050602088013567ffffffffffffffff811115614c1d57600080fd5b614c298a828b016149d7565b965050604088013567ffffffffffffffff811115614c4657600080fd5b614c528a828b016146ad565b955050606088013567ffffffffffffffff811115614c6f57600080fd5b614c7b8a828b016146ad565b945050608088013567ffffffffffffffff811115614c9857600080fd5b614ca48a828b0161488c565b93505060a088013567ffffffffffffffff811115614cc157600080fd5b614ccd8a828b016149d7565b92505060c088013567ffffffffffffffff811115614cea57600080fd5b614cf68a828b01614730565b91505092959891949750929550565b600060208284031215614d1757600080fd5b600082013567ffffffffffffffff811115614d3157600080fd5b614d3d848285016149d7565b91505092915050565b60008060408385031215614d5957600080fd5b600083013567ffffffffffffffff811115614d7357600080fd5b614d7f858286016149d7565b9250506020614d9085828601614698565b9150509250929050565b600080600080600060a08688031215614db257600080fd5b600086013567ffffffffffffffff811115614dcc57600080fd5b614dd8888289016149d7565b955050602086013567ffffffffffffffff811115614df557600080fd5b614e0188828901614818565b945050604086013567ffffffffffffffff811115614e1e57600080fd5b614e2a88828901614730565b935050606086013567ffffffffffffffff811115614e4757600080fd5b614e538882890161488c565b925050608086013567ffffffffffffffff811115614e7057600080fd5b614e7c888289016146ad565b9150509295509295909350565b600080600060608486031215614e9e57600080fd5b600084013567ffffffffffffffff811115614eb857600080fd5b614ec4868287016149d7565b935050602084013567ffffffffffffffff811115614ee157600080fd5b614eed868287016149d7565b9250506040614efe86828701614a2b565b9150509250925092565b60008060408385031215614f1b57600080fd5b600083013567ffffffffffffffff811115614f3557600080fd5b614f41858286016149d7565b9250506020614f5285828601614a2b565b9150509250929050565b600080600060608486031215614f7157600080fd5b600084013567ffffffffffffffff811115614f8b57600080fd5b614f97868287016149d7565b9350506020614fa886828701614a2b565b9250506040614fb986828701614698565b9150509250925092565b600060208284031215614fd557600080fd5b6000614fe384828501614a40565b91505092915050565b6000614ff88383615070565b60208301905092915050565b600061501083836152a9565b905092915050565b6000615024838361537b565b905092915050565b6000615038838361541e565b905092915050565b600061504c838361563d565b60208301905092915050565b6000615064838361566a565b60208301905092915050565b61507981615d2c565b82525050565b61508881615d2c565b82525050565b600061509982615ba4565b6150a38185615c6d565b93506150ae83615b1a565b8060005b838110156150df5781516150c68882614fec565b97506150d183615c12565b9250506001810190506150b2565b5085935050505092915050565b60006150f782615baf565b6151018185615c7e565b93508360208202850161511385615b2a565b8060005b8581101561514f57848403895281516151308582615004565b945061513b83615c1f565b925060208a01995050600181019050615117565b50829750879550505050505092915050565b600061516c82615bba565b6151768185615c8f565b93508360208202850161518885615b3a565b8060005b858110156151c457848403895281516151a58582615018565b94506151b083615c2c565b925060208a0199505060018101905061518c565b50829750879550505050505092915050565b60006151e182615bc5565b6151eb8185615ca0565b9350836020820285016151fd85615b4a565b8060005b85811015615239578484038952815161521a858261502c565b945061522583615c39565b925060208a01995050600181019050615201565b50829750879550505050505092915050565b600061525682615bdb565b6152608185615cc2565b935061526b83615b6a565b8060005b8381101561529c5781516152838882615040565b975061528e83615c53565b92505060018101905061526f565b5085935050505092915050565b60006152b482615bd0565b6152be8185615cb1565b93506152c983615b5a565b8060005b838110156152fa5781516152e18882615040565b97506152ec83615c46565b9250506001810190506152cd565b5085935050505092915050565b600061531282615be6565b61531c8185615cd3565b935061532783615b7a565b8060005b8381101561535f5761533c82615de0565b6153468882615058565b975061535183615c60565b92505060018101905061532b565b5085935050505092915050565b61537581615d3e565b82525050565b600061538682615bf1565b6153908185615ce4565b93506153a0818560208601615d93565b6153a981615df3565b840191505092915050565b60006153bf82615c07565b6153c98185615d06565b93506153d9818560208601615d93565b6153e281615df3565b840191505092915050565b60006153f882615c07565b6154028185615d17565b9350615412818560208601615d93565b80840191505092915050565b600061542982615bfc565b6154338185615cf5565b9350615443818560208601615d93565b61544c81615df3565b840191505092915050565b600061546282615bfc565b61546c8185615d17565b935061547c818560208601615d93565b80840191505092915050565b6000815460018116600081146154a557600181146154cb5761550f565b607f60028304166154b68187615d06565b955060ff19831686526020860193505061550f565b600282046154d98187615d06565b95506154e485615b8f565b60005b82811015615506578154818901526001820191506020810190506154e7565b80880195505050505b505092915050565b6000615524601383615d06565b91507f4d75737420626520726f6c65206f776e65722e000000000000000000000000006000830152602082019050919050565b6000615564603d83615d06565b91507f616e6f74686572206368616e6765207265717565737420697320616c7265616460008301527f792070726f63657373656420666f72207468697320776f726b666c6f770000006020830152604082019050919050565b60006155ca601083615d06565b91507f77726f6e672072737020616e73776572000000000000000000000000000000006000830152602082019050919050565b600061560a600c83615d06565b91507f77726f6e674164647265737300000000000000000000000000000000000000006000830152602082019050919050565b61564681615d6a565b82525050565b61565581615d6a565b82525050565b61566481615d6a565b82525050565b61567381615d6a565b82525050565b61568281615d74565b82525050565b60006156948284615457565b915081905092915050565b60006156ab82846153ed565b915081905092915050565b60006020820190506156cb600083018461507f565b92915050565b600060208201905081810360008301526156eb818461508e565b905092915050565b6000602082019050818103600083015261570d81846150ec565b905092915050565b6000602082019050818103600083015261572f8184615161565b905092915050565b6000602082019050818103600083015261575181846151d6565b905092915050565b60006020820190508181036000830152615773818461524b565b905092915050565b600060408201905081810360008301526157958185615307565b90506157a4602083018461565b565b9392505050565b60006020820190506157c0600083018461536c565b92915050565b600060208201905081810360008301526157e081846153b4565b905092915050565b6000604082019050818103600083015261580281856153b4565b9050818103602083015261581681846153b4565b90509392505050565b6000604082019050818103600083015261583981846153b4565b9050818103602083015261584c81615557565b905092915050565b6000604082019050818103600083015261586e81846153b4565b90508181036020830152615881816155bd565b905092915050565b600060e08201905081810360008301526158a3818a6153b4565b90506158b2602083018961564c565b6158bf604083018861564c565b81810360608301526158d181876153b4565b905081810360808301526158e5818661524b565b90506158f460a083018561564c565b61590160c083018461507f565b98975050505050505050565b600060208201905081810360008301526159278184615488565b905092915050565b6000602082019050818103600083015261594881615517565b9050919050565b60006020820190508181036000830152615968816155fd565b9050919050565b6000602082019050615984600083018461564c565b92915050565b600060208201905061599f6000830184615679565b92915050565b6000604051905081810181811067ffffffffffffffff821117156159c857600080fd5b8060405250919050565b600067ffffffffffffffff8211156159e957600080fd5b602082029050602081019050919050565b600067ffffffffffffffff821115615a1157600080fd5b602082029050602081019050919050565b600067ffffffffffffffff821115615a3957600080fd5b602082029050602081019050919050565b600067ffffffffffffffff821115615a6157600080fd5b602082029050602081019050919050565b600067ffffffffffffffff821115615a8957600080fd5b602082029050602081019050919050565b600067ffffffffffffffff821115615ab157600080fd5b602082029050602081019050919050565b600067ffffffffffffffff821115615ad957600080fd5b601f19601f8301169050602081019050919050565b600067ffffffffffffffff821115615b0557600080fd5b601f19601f8301169050602081019050919050565b6000819050602082019050919050565b6000819050602082019050919050565b6000819050602082019050919050565b6000819050602082019050919050565b6000819050602082019050919050565b6000819050602082019050919050565b60008190508160005260206000209050919050565b60008190508160005260206000209050919050565b600081519050919050565b600081519050919050565b600081519050919050565b600081519050919050565b600081519050919050565b600081519050919050565b600081549050919050565b600081519050919050565b600081519050919050565b600081519050919050565b6000602082019050919050565b6000602082019050919050565b6000602082019050919050565b6000602082019050919050565b6000602082019050919050565b6000602082019050919050565b6000600182019050919050565b600082825260208201905092915050565b600082825260208201905092915050565b600082825260208201905092915050565b600082825260208201905092915050565b600082825260208201905092915050565b600082825260208201905092915050565b600082825260208201905092915050565b600082825260208201905092915050565b600082825260208201905092915050565b600082825260208201905092915050565b600081905092915050565b6000819050919050565b6000615d3782615d4a565b9050919050565b60008115159050919050565b600073ffffffffffffffffffffffffffffffffffffffff82169050919050565b6000819050919050565b600063ffffffff82169050919050565b82818337600083830152505050565b60005b83811015615db1578082015181840152602081019050615d96565b83811115615dc0576000848401525b50505050565b6000615dd9615dd483615e04565b615d22565b9050919050565b6000615dec8254615dc6565b9050919050565b6000601f19601f8301169050919050565b60008160001c9050919050565b615e1a81615d2c565b8114615e2557600080fd5b50565b615e3181615d6a565b8114615e3c57600080fd5b5056fe525350206e6f74206170706c696361626c6520686572652028616c72656164792070726f6365737365643f29a365627a7a723158208c0b4005208c3f69122c32e8cd883a05eacc7b9ed1fee8fbbb7cda62d463f4566c6578706572696d656e74616cf564736f6c63430005100040",
  "source": "//pragma solidity 0.5.10;\npragma solidity ^0.5.16;\npragma experimental ABIEncoderV2;\n\nimport \"./LibPublicDCRM.sol\";\n\ncontract PublicDCRManager {\n    // event declaration\n    event LogWorkflowCreation(\n        string indexed workflowHash,\n        address indexed creator\n    );\n\n    event LogExecution(\n        string indexed workflowHash,\n        uint256 indexed activityId,\n        uint256 indexed status\n        //address indexed executor\n    );\n\n    event LogWorkflowProjection(\n        string indexed workflowHash,\n        address indexed creator\n    );\n    \n    // CHANGE NEGOCIATION EVENTS\n    event RequestChange(\n        string workflowHashes,\n        address indexed endorser,\n        address indexed initiator\n    );\n    event DeclineChange(\n        string reqWkfHash,\n        address indexed endorser\n    );\n    event AcceptChange(\n        string reqWkfHash,\n        address indexed endorser\n    );\n    event AcceptChangeAll(\n        string reqWkfHash\n    );\n\n    event RSPErrorChange(\n        string reqWkfHash,\n        address indexed endorser,\n        string comment\n    );\n\n    // variable declarations.\n\n    struct Workflow {\n        string name;\n        ChgStatus wkfStatus;\n\n        string ipfsViewHash;\n\n        Marking markings;\n        address[] roleAddresses;\n        string[] activityNames;\n        bytes[] ipfsActivityHashes;\n        uint256 numActivities; //number of included activities\n        uint256[][][] relations; //includesTo, excludesTo, responsesTo, conditionsFrom, milestonesFrom\n        \n        address[] approvalAddresses;\n        uint[] approvalOutcomes;\n        uint[] didFetch;\n        Activity execStatus;\n    }\n    \n    enum ChgStatus { Approved, Declined, BeingProcessed, Init, Switched }\n   // enum EndorserDecision { Approve, Decline, NA}\n\n    struct fooTest{\n        string test;\n        string testBis;\n    }\n\n    fooTest Test = fooTest({test:'init', testBis:'init'});\n\n    struct ChangeRequest {\n        string currHash; \n        string reqHash;\n        ChgStatus status;\n        address initiator;\n        uint numEndorsers;\n        address[] endorsers;\n        uint[] changeEndorsement;\n\n        uint[] approvalOutcomes;\n        uint[] didFetch;\n\n    }\n    \n    struct Marking {\n        uint256[] included;\n        uint256[] executed;\n        uint256[] pending;\n    }\n\n    struct Activity {\n        uint32 canExecuteCheck;\n        uint256 status; //0=no, 1=yes\n    }\n    \n    string[] registeredViewHashes;\n\n    mapping(string => Workflow) workflows;\n    mapping(string => ChangeRequest) changeRequests;\n\n\n\n    ///////////////// Getters ////////////////////////\n\n    function getAllWKHashes() public view returns (string[] memory){\n        return registeredViewHashes;\n    }\n\n    function  getChangeArgs(string memory _hash) public view returns (string memory reqHash, uint ChangeValue, uint WKFValue, string memory _Test, uint[] memory ChangeEndorsement, uint numEndorsers, address initiator){\n        \n        return (    \n                    changeRequests[_hash].reqHash,\n                    uint(changeRequests[_hash].status), \n                    uint(workflows[_hash].wkfStatus),\n                    Test.test,\n                    changeRequests[_hash].changeEndorsement,\n                    changeRequests[_hash].numEndorsers,\n                    changeRequests[_hash].initiator\n                    );\n\n    }\n\n\n    function  getTest() public view returns (string memory,string memory){\n        return (Test.test,\n                Test.testBis);\n    }\n\n    /** @dev Getter for workflow execution status.\n      * @param _hash index of the workflow (eg 0 for the first workflow).\n      * @return execution status of the task: 0=ok, 1= \n      */\n    function getCanExecuteCheck(string memory _hash)\n        public\n        view\n        returns (uint32)\n    {\n        return workflows[_hash].execStatus.canExecuteCheck;\n    }\n\n    function getIncluded(string memory _hash)\n        public\n        view\n        returns (uint256[] memory)\n    {\n        return workflows[_hash].markings.included;\n    }\n\n    function getExecuted(string memory _hash)\n        public\n        view\n        returns (uint256[] memory)\n    {\n        return workflows[_hash].markings.executed;\n    }\n\n    function getPending(string memory _hash)\n        public\n        view\n        returns (uint256[] memory)\n    {\n        return workflows[_hash].markings.pending;\n    }\n\n    function getConditionsFrom(string memory _hash)\n        public\n        view\n        returns (uint256[][] memory)\n    {\n        return workflows[_hash].relations[3];\n    }\n\n    function getHashes(string memory _hash)\n        public\n        view\n        returns (bytes[] memory)\n    {\n        return workflows[_hash].ipfsActivityHashes;\n    }\n\n    function getRoleAddresses(string memory _hash, uint256 activityId)\n        public\n        view\n        returns (address)\n    {\n        return workflows[_hash].roleAddresses[activityId];\n    }\n\n    function getAddresses(string memory _hash)\n        public\n        view\n        returns (address[] memory)\n    {\n        return workflows[_hash].approvalAddresses;\n    }\n\n\n    function getEndorserAddresses(string memory _hash)\n        public\n        view\n        returns (address[] memory)\n    {\n        return changeRequests[_hash].endorsers;\n    }\n\n    ///////////////// Change requests ////////////////////////\n\n    /** @dev manages change requests: if a request is already ongoing, cancel. Else, create a new change request and notify endorsers.\n      * @param toNotify list\n      * of endorser addreses.\n      * @param _hashes concatenated string of current wkf and request wkf ipfs hashes (ref to the public view)\n      * @param curr_hash current ipfs wkf hash\n      * @param req_hash  ipfs hash of requested change description\n      * @return processing decision.\n      */\n    function requestChange(address myAddress, address[] memory toNotify, string memory _hashes, string memory curr_hash, string memory req_hash) public payable {\n        \n        require(myAddress==msg.sender, \"Must be role owner.\"); //web3js bug carefew \n\n        Test.test = 'chg request being processed';\n\n        if(changeRequests[curr_hash].status == ChgStatus.Init){\n            Test.test = 'chg request validated';\n            //workflows[curr_hash].wkfStatus = ChgStatus.BeingProcessed;\n\n            changeRequests[curr_hash].status = ChgStatus.BeingProcessed;\n            changeRequests[curr_hash].reqHash = req_hash;\n            changeRequests[curr_hash].initiator = myAddress;\n            changeRequests[curr_hash].numEndorsers = toNotify.length;\n            changeRequests[curr_hash].endorsers = toNotify;\n            \n            for (\n                uint256 id = 0;\n                id < toNotify.length;\n                id++\n                ) {\n                    emit RequestChange(_hashes, toNotify[id], myAddress);\n                    //changeRequests[curr_hash].changeEndorsement[id] = 0; //// @TIPHAINE: ISSUE HERE --> DO A GETTER FOR THE ARRAY AND WATCH BEHAVIOR \n                }\n\n            // emit RequestChange(_hashes, toNotify, myAddress);\n            // 'request has been successfully registered';\n        }\n\n        else{\n            emit RSPErrorChange(req_hash, myAddress, 'another change request is already processed for this workflow');\n        }    \n    }\n\n\n    function finalApprovalManager(string memory myHash) public payable {\n        // check if required endorsers have answered --> if yes: unlock (set status to ChgStatus.Approved, update process markings and graph, )\n        uint totalRsp =1; //message sender is already ok \n        \n        for ( \n                uint256 id = 0;\n                id < changeRequests[myHash].endorsers.length;\n                id++\n            ) {\n                if((changeRequests[myHash].changeEndorsement[id] == 1)){\n                     totalRsp = totalRsp+1;\n                }\n            }\n            \n        if (totalRsp == changeRequests[myHash].numEndorsers){\n            Test.test  = 'approved by all endorsers';\n            changeRequests[myHash].status == ChgStatus.Init;\n            emit AcceptChangeAll(changeRequests[myHash].reqHash);\n            \n            // reinit chgEndorsement (?)\n            // TODO update process markings and graph\n\n        }\n    }\n    function updateTableOnAddress(address myAddress, address[] memory myAddresses, string memory myHash, uint myDecision) public payable{\n        for (\n                uint256 id = 0;\n                id < myAddresses.length;\n                id++\n            ) {\n                if((myAddress == myAddresses[id])){\n                    changeRequests[myHash].changeEndorsement[id] = myDecision;\n                }\n            }   \n    }\n    function endorserRSP(string memory curr_hash, string memory req_hash, uint rsp) public payable returns (string memory) {\n        \n        if(changeRequests[curr_hash].status == ChgStatus.BeingProcessed){\n            Test.test  = 'enteringNode';\n            // accept: emit decision and update change memory\n            if (rsp==1){\n                updateTableOnAddress(msg.sender,changeRequests[curr_hash].endorsers, curr_hash,1);\n                Test.test  = 'approved by one person';\n                emit AcceptChange(req_hash, msg.sender);\n                finalApprovalManager(curr_hash);\n            }         \n            \n            // declineapprovalOutcomes\n            else if (rsp == 2){\n                Test.test  = 'declined';\n                changeRequests[curr_hash].status = ChgStatus.Init;\n                emit DeclineChange(req_hash, msg.sender);\n            }\n            \n            else {\n                emit RSPErrorChange(req_hash, msg.sender, 'wrong rsp answer');\n            }\n\n            return 'RSP processed';\n        }\n\n        else{\n            return 'RSP not applicable here (already processed?)';\n        }    \n    }\n\n    ////////////// Accepted Changes post treatment //////////////\n\n\n\n\n    function getChangeApprovalsOutcome(string memory _hash)\n        public\n        view\n        returns (uint[] memory)\n    {\n        return (changeRequests[_hash].approvalOutcomes);\n    }\n\n    function hasApprovedProjection(string memory _hash, address myAddress)\n        public\n        view\n        returns (uint)\n    {\n        //uint res = 0;\n        for (\n            uint256 id = 0;\n            id < changeRequests[_hash].endorsers.length;\n            id++\n        ) {\n            if((myAddress == changeRequests[_hash].endorsers[id]) && changeRequests[_hash].approvalOutcomes[id] == 1){\n                return 1;\n            }\n        }\n        return 0;\n    }\n\n    /** @dev post private projection approval function.\n      * @param _hash index of the workflow (eg 0 for the first workflow).\n      * @param myAddress address of the sender (necessary for web3js dev).\n      * @return list of approval outcomes.\n      */\n    function confirmChangeProjection(string memory _hash, address myAddress) public payable returns (uint[] memory){\n        // get id of approvalList.addresses corresponding to msgSender. If (approval[id]==0): set to one;\n\n        Test.testBis='A';\n\n        require(myAddress==msg.sender, \"Must be role owner.\");\n        Test.testBis='B';\n\n        for (\n            uint256 id = 0;\n            id < changeRequests[_hash].endorsers.length;\n            id++\n        ) {\n            Test.testBis='C';\n\n            if((myAddress == changeRequests[_hash].endorsers[id]) ){ \n\n                Test.testBis='approval stage 1';\n                if(changeRequests[_hash].approvalOutcomes[id] != 1){ // must not have approved before\n                    changeRequests[_hash].approvalOutcomes[id] = 1;\n                    emit LogWorkflowProjection(_hash, myAddress);\n                    Test.testBis='approval stage 2';\n                    if(LibPublicDCRM.evaluateChgApproval(changeRequests[_hash].approvalOutcomes, changeRequests[_hash].numEndorsers)==1){\n                        changeRequests[_hash].status = ChgStatus.Approved;\n                    }\n                    return changeRequests[_hash].approvalOutcomes;\n                }\n            }\n        }\n        \n        return changeRequests[_hash].approvalOutcomes;\n    }  \n\n    function switchWorkflows(string memory _hash, uint256[][] memory _markingStates,\n            uint256[][][] memory _relations,   \n            string[] memory _activityNames, \n            address[] memory _roleAddresses\n) public payable returns (string memory){\n\n        require((msg.sender==changeRequests[_hash].initiator) && \n        (LibPublicDCRM.evaluateChgApproval(changeRequests[_hash].approvalOutcomes, changeRequests[_hash].numEndorsers)==1));\n        \n        uploadPublicView(\n            // packed state variables\n            _markingStates,\n            changeRequests[_hash].reqHash,\n\n            //process information\n            _roleAddresses,\n            _roleAddresses,\n\n            _activityNames,         \n            workflows[_hash].name,                 \n\n            // relations\n            _relations        \n            );\n\n            changeRequests[_hash].status=ChgStatus.Switched;\n            \n\n            return 'switch done';\n    }\n\n    ///////////////// Public-to-local Projections ////////////////////////\n\n\n    /** @dev Getter for workflow.\n      * @param _hash index of the workflow (eg 0 for the first workflow).\n      * @param myAddress sender adddress (must be registered to fetch the workflow).\n      * @return workflow, update didFetch variable to one.\n      */\n    function fetchPublicView(string memory _hash, address myAddress)\n        public\n        payable\n        returns (string memory)\n    {\n        \n        require(msg.sender == myAddress, 'wrongAddress');\n        \n        // update the didFetch variable\n        for (\n            uint256 id = 0;\n            id < workflows[_hash].approvalAddresses.length;\n            id++\n        ) {\n            if((myAddress == workflows[_hash].approvalAddresses[id]) && workflows[_hash].didFetch[id] != 1){\n                workflows[_hash].didFetch[id] = 1;\n                }\n        }\n        \n        return workflows[_hash].ipfsViewHash;\n    }\n\n    function getApprovalsOutcome(string memory _hash)\n        public\n        view\n        returns (uint[] memory)\n    {\n        return (workflows[_hash].approvalOutcomes);\n    }\n\n    function hasApproved(string memory _hash, address myAddress)\n        public\n        view\n        returns (uint)\n    {\n        //uint res = 0;\n        for (\n            uint256 id = 0;\n            id < workflows[_hash].approvalAddresses.length;\n            id++\n        ) {\n            if((myAddress == workflows[_hash].approvalAddresses[id]) && workflows[_hash].approvalOutcomes[id] == 1){\n                return 1;\n            }\n        }\n        return 0;\n    }\n\n    /** @dev post private projection approval function.\n      * @param _hash index of the workflow (eg 0 for the first workflow).\n      * @param myAddress address of the sender (necessary for web3js dev).\n      * @return list of approval outcomes.\n      */\n    function confirmProjection(string memory _hash, address myAddress) public payable returns (uint[] memory){\n        // get id of approvalList.addresses corresponding to msgSender. If (approval[id]==0): set to one;\n        \n        require(myAddress==msg.sender, \"Must be role owner.\");\n\n        for (\n            uint256 id = 0;\n            id < workflows[_hash].approvalAddresses.length;\n            id++\n        ) {\n            if((myAddress == workflows[_hash].approvalAddresses[id]) && workflows[_hash].didFetch[id] == 1){ // must have fetched public view\n                if(workflows[_hash].approvalOutcomes[id] != 1){ // must not have approved before\n                    workflows[_hash].approvalOutcomes[id] = 1;\n                    emit LogWorkflowProjection(_hash, myAddress);\n                    return workflows[_hash].approvalOutcomes;\n                }\n            }\n        }\n        \n        return workflows[_hash].approvalOutcomes;\n    }  \n\n    ///////////////// Execution functions /////////////////////////\n\n    function canExecute(string memory _hash, uint256 activityId, address msgSender)\n        public\n        returns (bool)\n    {\n        // check if msg.sender address is correct\n        if (msgSender != workflows[_hash].roleAddresses[activityId]) {\n            workflows[_hash].execStatus.canExecuteCheck = 4;\n            return false;\n        }\n        \n        // activity must be included\n        if (workflows[_hash].markings.included[activityId] == 0) {\n            workflows[_hash].execStatus.canExecuteCheck = 1;\n            return false;\n        }\n\n        // all conditions executed\n        for (\n            uint256 id = 0;\n            id < workflows[_hash].relations[3].length;\n            id++\n        ) {\n            uint256[] memory conditionsRow =\n                workflows[_hash].relations[3][id];\n            if (conditionsRow[activityId] == 1) {\n                if (\n                    (workflows[_hash].markings.executed[id] == 0) &&\n                    (workflows[_hash].markings.included[id] == 1)\n                ) {\n                    workflows[_hash].execStatus.canExecuteCheck = 2;\n                    return false;\n                }\n            }\n        }\n\n        // no milestones pending\n        for (\n            uint256 id = 0;\n            id < workflows[_hash].relations[4].length; // milestonesFrom\n            id++\n        ) {\n            uint256[] memory milestonesRow =\n                workflows[_hash].relations[4][id];\n            if (milestonesRow[activityId] == 1) {\n                if (\n                    (workflows[_hash].markings.pending[id] == 1) &&\n                    (workflows[_hash].markings.included[id] == 1)\n                ) {\n                    workflows[_hash].execStatus.canExecuteCheck = 3;\n                    return false;\n                }\n            }\n        }\n\n        workflows[_hash].execStatus.canExecuteCheck = 0;\n        return true;\n    }\n\n    function checkCliquedIndex(string memory _hash, uint256 activityId)\n        public\n    //        bytes memory ipfsHash\n    {\n        if (!canExecute(_hash, activityId, msg.sender)) {\n            workflows[_hash].execStatus.status = 1;\n            emit LogExecution(_hash, activityId,1);\n\n            //revert();\n        } else {\n            // executed activity\n            workflows[_hash].markings.executed[activityId] = 1;\n            workflows[_hash].markings.pending[activityId] = 0;\n            //            workflows[workflowId].ipfsActivityHashes[activityId] = ipfsHash;\n\n            uint256[] memory exclude_vect_check =\n                workflows[_hash].relations[1][activityId]; // excludes\n            uint256[] memory response_vect_check =\n                workflows[_hash].relations[2][activityId]; // responsesTo\n\n            // add include relations\n            uint256[] memory include_vect_check =\n                workflows[_hash].relations[0][activityId]; // includes\n\n            // update with condition relations ok\n            uint256[] memory conditionsTo =\n                workflows[_hash].relations[3][activityId]; //extract row condition\n            for (uint256 id = 0; id < conditionsTo.length; id++) {\n                if (conditionsTo[id] == 1) {\n                    include_vect_check[id] = 1;\n                }\n            }\n\n            for (\n                uint256 id = 0;\n                id < workflows[_hash].relations[1].length; // excludesTo\n                id++\n            ) {\n                // exclude and include relations pass\n                // note includes happens after the exclude pass\n                // included = (included & ~excludesTo[activityId]) | includesTo[activityId];\n                if (\n                    (exclude_vect_check[id] != 1) &&\n                    (include_vect_check[id] == 1)\n                ) {\n                    workflows[_hash].markings.included[id] = 1;\n                }\n\n                // response relations pass\n                // pending = (pending | responsesTo[activityId]);\n                if (response_vect_check[id] == 1) {\n                    workflows[_hash].markings.pending[id] = 1;\n                    workflows[_hash].markings.included[id] = 1;\n                }\n            }\n\n            emit LogExecution(_hash, activityId,0);\n\n            workflows[_hash].execStatus.status = 1;\n        }\n    }\n\n\n    ///////////////// Workflow creation /////////////////////////\n\n    function uploadPublicView(\n        // packed state variables\n        uint256[][] memory markingStates, // included, executed, pending\n\n        string memory _ipfsViewHash,\n\n        //process information\n        address[] memory _roleAddresses,\n        address[] memory _approvalAddresses,\n\n        string[] memory _activityNames,\n        string memory _name,\n\n        // relations\n        uint256[][][] memory _relations // includesto, excludesto, responsesto, conditionsfrom, milestonesFrom\n    ) public payable {\n        \n        \n        Activity memory execStatus = Activity(0, 0);\n        Marking memory markings = Marking(markingStates[0],markingStates[1],markingStates[2]);\n        Workflow memory wf =\n            Workflow(\n                _name,\n                ChgStatus.Init,\n                _ipfsViewHash,\n                markings,\n                _roleAddresses,\n                _activityNames,\n                new bytes[](markingStates[0].length),\n                markingStates[0].length,\n                _relations,\n                _approvalAddresses,\n                new uint[](_approvalAddresses.length),\n                new uint[](_approvalAddresses.length),\n                execStatus\n            );\n        workflows[_ipfsViewHash]=wf;\n        registeredViewHashes.push(_ipfsViewHash);\n\n        ChangeRequest memory chgReq = ChangeRequest(\n            _ipfsViewHash,\n            '', \n            ChgStatus.Init,\n            address(0), \n            0, \n            new address[](_approvalAddresses.length),\n            new uint[](_approvalAddresses.length),\n            new uint[](_approvalAddresses.length),\n            new uint[](_approvalAddresses.length)\n        );       \n\n        changeRequests[_ipfsViewHash]=chgReq;\n\n        emit LogWorkflowCreation(wf.ipfsViewHash, msg.sender);\n\n    }\n\n\n\n}\n",
  "sourcePath": "/home/vtlr2002/source/masterPlatform/contracts/PublicDCRManager.sol",
  "compiler": {
    "name": "solc",
    "version": "0.5.16+commit.9c3226ce.Emscripten.clang"
  },
  "schemaVersion": "3.2.4",
  "updatedAt": "2021-11-09T10:20:00.546Z",
  "networkType": "ethereum",
  "devdoc": {
    "methods": {
      "confirmChangeProjection(string,address)": {
        "details": "post private projection approval function.",
        "params": {
          "_hash": "index of the workflow (eg 0 for the first workflow).",
          "myAddress": "address of the sender (necessary for web3js dev)."
        },
        "return": "list of approval outcomes."
      },
      "confirmProjection(string,address)": {
        "details": "post private projection approval function.",
        "params": {
          "_hash": "index of the workflow (eg 0 for the first workflow).",
          "myAddress": "address of the sender (necessary for web3js dev)."
        },
        "return": "list of approval outcomes."
      },
      "fetchPublicView(string,address)": {
        "details": "Getter for workflow.",
        "params": {
          "_hash": "index of the workflow (eg 0 for the first workflow).",
          "myAddress": "sender adddress (must be registered to fetch the workflow)."
        },
        "return": "workflow, update didFetch variable to one."
      },
      "getCanExecuteCheck(string)": {
        "details": "Getter for workflow execution status.",
        "params": {
          "_hash": "index of the workflow (eg 0 for the first workflow)."
        },
        "return": "execution status of the task: 0=ok, 1= "
      },
      "requestChange(address,address[],string,string,string)": {
        "details": "manages change requests: if a request is already ongoing, cancel. Else, create a new change request and notify endorsers.",
        "params": {
          "_hashes": "concatenated string of current wkf and request wkf ipfs hashes (ref to the public view)",
          "curr_hash": "current ipfs wkf hash",
          "req_hash": "ipfs hash of requested change description",
          "toNotify": "list of endorser addreses."
        },
        "return": "processing decision."
      }
    }
  },
  "userdoc": {
    "methods": {
      "canExecute(string,uint256,address)": {
        "notice": "////////////// Execution functions /////////////////////////"
      },
      "getAllWKHashes()": {
        "notice": "////////////// Getters ////////////////////////"
      },
      "getChangeApprovalsOutcome(string)": {
        "notice": "/////////// Accepted Changes post treatment //////////////"
      },
      "uploadPublicView(uint256[][],string,address[],address[],string[],string,uint256[][][])": {
        "notice": "////////////// Workflow creation /////////////////////////"
      }
    }
  }
}