{
  "contractName": "PublicDCRManager",
  "abi": [
    {
      "anonymous": false,
      "inputs": [
        {
          "indexed": true,
          "internalType": "uint256",
          "name": "workflowId",
          "type": "uint256"
        },
        {
          "indexed": true,
          "internalType": "uint256",
          "name": "activityId",
          "type": "uint256"
        },
        {
          "indexed": true,
          "internalType": "address",
          "name": "executor",
          "type": "address"
        }
      ],
      "name": "LogExecution",
      "type": "event"
    },
    {
      "anonymous": false,
      "inputs": [
        {
          "indexed": true,
          "internalType": "uint256",
          "name": "workflowId",
          "type": "uint256"
        },
        {
          "indexed": true,
          "internalType": "string",
          "name": "workflowName",
          "type": "string"
        },
        {
          "indexed": true,
          "internalType": "address",
          "name": "creator",
          "type": "address"
        }
      ],
      "name": "LogWorkflowCreation",
      "type": "event"
    },
    {
      "anonymous": false,
      "inputs": [
        {
          "indexed": true,
          "internalType": "uint256",
          "name": "workflowId",
          "type": "uint256"
        },
        {
          "indexed": true,
          "internalType": "address",
          "name": "creator",
          "type": "address"
        }
      ],
      "name": "LogWorkflowProjection",
      "type": "event"
    },
    {
      "constant": false,
      "inputs": [
        {
          "internalType": "string",
          "name": "x",
          "type": "string"
        }
      ],
      "name": "sendHash",
      "outputs": [],
      "payable": false,
      "stateMutability": "nonpayable",
      "type": "function"
    },
    {
      "constant": true,
      "inputs": [],
      "name": "getHash",
      "outputs": [
        {
          "internalType": "string",
          "name": "x",
          "type": "string"
        }
      ],
      "payable": false,
      "stateMutability": "view",
      "type": "function"
    },
    {
      "constant": false,
      "inputs": [
        {
          "internalType": "uint256",
          "name": "workflowId",
          "type": "uint256"
        },
        {
          "internalType": "address",
          "name": "myAddress",
          "type": "address"
        }
      ],
      "name": "fetchPublicView",
      "outputs": [
        {
          "components": [
            {
              "internalType": "string",
              "name": "name",
              "type": "string"
            },
            {
              "components": [
                {
                  "internalType": "uint256[]",
                  "name": "included",
                  "type": "uint256[]"
                },
                {
                  "internalType": "uint256[]",
                  "name": "executed",
                  "type": "uint256[]"
                },
                {
                  "internalType": "uint256[]",
                  "name": "pending",
                  "type": "uint256[]"
                }
              ],
              "internalType": "struct PublicDCRManager.Marking",
              "name": "markings",
              "type": "tuple"
            },
            {
              "internalType": "address[]",
              "name": "roleAddresses",
              "type": "address[]"
            },
            {
              "internalType": "string[]",
              "name": "activityNames",
              "type": "string[]"
            },
            {
              "internalType": "bytes[]",
              "name": "ipfsActivityHashes",
              "type": "bytes[]"
            },
            {
              "internalType": "uint256",
              "name": "numActivities",
              "type": "uint256"
            },
            {
              "internalType": "uint256[][][]",
              "name": "relations",
              "type": "uint256[][][]"
            },
            {
              "internalType": "address[]",
              "name": "approvalAddresses",
              "type": "address[]"
            },
            {
              "internalType": "uint256[]",
              "name": "approvalOutcomes",
              "type": "uint256[]"
            },
            {
              "internalType": "uint256[]",
              "name": "didFetch",
              "type": "uint256[]"
            },
            {
              "components": [
                {
                  "internalType": "uint32",
                  "name": "canExecuteCheck",
                  "type": "uint32"
                },
                {
                  "internalType": "uint256",
                  "name": "status",
                  "type": "uint256"
                }
              ],
              "internalType": "struct PublicDCRManager.Activity",
              "name": "execStatus",
              "type": "tuple"
            }
          ],
          "internalType": "struct PublicDCRManager.Workflow",
          "name": "",
          "type": "tuple"
        }
      ],
      "payable": true,
      "stateMutability": "payable",
      "type": "function"
    },
    {
      "constant": true,
      "inputs": [
        {
          "internalType": "uint256",
          "name": "workflowId",
          "type": "uint256"
        }
      ],
      "name": "getWorkflowName",
      "outputs": [
        {
          "internalType": "string",
          "name": "",
          "type": "string"
        }
      ],
      "payable": false,
      "stateMutability": "view",
      "type": "function"
    },
    {
      "constant": true,
      "inputs": [
        {
          "internalType": "uint256",
          "name": "workflowId",
          "type": "uint256"
        },
        {
          "internalType": "uint256",
          "name": "activityId",
          "type": "uint256"
        }
      ],
      "name": "getCanExecuteCheck",
      "outputs": [
        {
          "internalType": "uint32",
          "name": "",
          "type": "uint32"
        }
      ],
      "payable": false,
      "stateMutability": "view",
      "type": "function"
    },
    {
      "constant": true,
      "inputs": [
        {
          "internalType": "uint256",
          "name": "workflowId",
          "type": "uint256"
        },
        {
          "internalType": "uint256",
          "name": "activityId",
          "type": "uint256"
        }
      ],
      "name": "getStatus",
      "outputs": [
        {
          "internalType": "uint256",
          "name": "",
          "type": "uint256"
        }
      ],
      "payable": false,
      "stateMutability": "view",
      "type": "function"
    },
    {
      "constant": true,
      "inputs": [
        {
          "internalType": "uint256",
          "name": "workflowId",
          "type": "uint256"
        }
      ],
      "name": "getWkfLength",
      "outputs": [
        {
          "internalType": "uint256",
          "name": "",
          "type": "uint256"
        }
      ],
      "payable": false,
      "stateMutability": "view",
      "type": "function"
    },
    {
      "constant": true,
      "inputs": [
        {
          "internalType": "uint256",
          "name": "workflowId",
          "type": "uint256"
        }
      ],
      "name": "getIncluded",
      "outputs": [
        {
          "internalType": "uint256[]",
          "name": "",
          "type": "uint256[]"
        }
      ],
      "payable": false,
      "stateMutability": "view",
      "type": "function"
    },
    {
      "constant": true,
      "inputs": [
        {
          "internalType": "uint256",
          "name": "workflowId",
          "type": "uint256"
        }
      ],
      "name": "getExecuted",
      "outputs": [
        {
          "internalType": "uint256[]",
          "name": "",
          "type": "uint256[]"
        }
      ],
      "payable": false,
      "stateMutability": "view",
      "type": "function"
    },
    {
      "constant": true,
      "inputs": [
        {
          "internalType": "uint256",
          "name": "workflowId",
          "type": "uint256"
        }
      ],
      "name": "getPending",
      "outputs": [
        {
          "internalType": "uint256[]",
          "name": "",
          "type": "uint256[]"
        }
      ],
      "payable": false,
      "stateMutability": "view",
      "type": "function"
    },
    {
      "constant": true,
      "inputs": [
        {
          "internalType": "uint256",
          "name": "workflowId",
          "type": "uint256"
        }
      ],
      "name": "getConditionsFrom",
      "outputs": [
        {
          "internalType": "uint256[][]",
          "name": "",
          "type": "uint256[][]"
        }
      ],
      "payable": false,
      "stateMutability": "view",
      "type": "function"
    },
    {
      "constant": true,
      "inputs": [
        {
          "internalType": "uint256",
          "name": "workflowId",
          "type": "uint256"
        }
      ],
      "name": "getHashes",
      "outputs": [
        {
          "internalType": "bytes[]",
          "name": "",
          "type": "bytes[]"
        }
      ],
      "payable": false,
      "stateMutability": "view",
      "type": "function"
    },
    {
      "constant": true,
      "inputs": [
        {
          "internalType": "uint256",
          "name": "workflowId",
          "type": "uint256"
        },
        {
          "internalType": "uint256",
          "name": "activityId",
          "type": "uint256"
        }
      ],
      "name": "getActivityName",
      "outputs": [
        {
          "internalType": "string",
          "name": "",
          "type": "string"
        }
      ],
      "payable": false,
      "stateMutability": "view",
      "type": "function"
    },
    {
      "constant": true,
      "inputs": [
        {
          "internalType": "uint256",
          "name": "workflowId",
          "type": "uint256"
        },
        {
          "internalType": "uint256",
          "name": "activityId",
          "type": "uint256"
        }
      ],
      "name": "getRoleAddresses",
      "outputs": [
        {
          "internalType": "address",
          "name": "",
          "type": "address"
        }
      ],
      "payable": false,
      "stateMutability": "view",
      "type": "function"
    },
    {
      "constant": true,
      "inputs": [
        {
          "internalType": "uint256",
          "name": "workflowId",
          "type": "uint256"
        }
      ],
      "name": "getAddresses",
      "outputs": [
        {
          "internalType": "address[]",
          "name": "",
          "type": "address[]"
        }
      ],
      "payable": false,
      "stateMutability": "view",
      "type": "function"
    },
    {
      "constant": true,
      "inputs": [
        {
          "internalType": "uint256",
          "name": "workflowId",
          "type": "uint256"
        }
      ],
      "name": "getApprovalsOutcome",
      "outputs": [
        {
          "internalType": "uint256[]",
          "name": "",
          "type": "uint256[]"
        }
      ],
      "payable": false,
      "stateMutability": "view",
      "type": "function"
    },
    {
      "constant": true,
      "inputs": [
        {
          "internalType": "uint256",
          "name": "workflowId",
          "type": "uint256"
        },
        {
          "internalType": "address",
          "name": "myAddress",
          "type": "address"
        }
      ],
      "name": "hasApproved",
      "outputs": [
        {
          "internalType": "uint256",
          "name": "",
          "type": "uint256"
        }
      ],
      "payable": false,
      "stateMutability": "view",
      "type": "function"
    },
    {
      "constant": false,
      "inputs": [
        {
          "internalType": "uint256",
          "name": "workflowId",
          "type": "uint256"
        },
        {
          "internalType": "uint256",
          "name": "activityId",
          "type": "uint256"
        },
        {
          "internalType": "address",
          "name": "msgSender",
          "type": "address"
        }
      ],
      "name": "canExecute",
      "outputs": [
        {
          "internalType": "bool",
          "name": "",
          "type": "bool"
        }
      ],
      "payable": false,
      "stateMutability": "nonpayable",
      "type": "function"
    },
    {
      "constant": false,
      "inputs": [
        {
          "internalType": "uint256",
          "name": "workflowId",
          "type": "uint256"
        },
        {
          "internalType": "uint256",
          "name": "activityId",
          "type": "uint256"
        }
      ],
      "name": "checkCliquedIndex",
      "outputs": [],
      "payable": false,
      "stateMutability": "nonpayable",
      "type": "function"
    },
    {
      "constant": false,
      "inputs": [
        {
          "internalType": "uint256[][]",
          "name": "markingStates",
          "type": "uint256[][]"
        },
        {
          "internalType": "address[]",
          "name": "_roleAddresses",
          "type": "address[]"
        },
        {
          "internalType": "address[]",
          "name": "_approvalAddresses",
          "type": "address[]"
        },
        {
          "internalType": "string[]",
          "name": "_activityNames",
          "type": "string[]"
        },
        {
          "internalType": "string",
          "name": "_name",
          "type": "string"
        },
        {
          "internalType": "uint256[][][]",
          "name": "_relations",
          "type": "uint256[][][]"
        }
      ],
      "name": "createWorkflow",
      "outputs": [],
      "payable": true,
      "stateMutability": "payable",
      "type": "function"
    },
    {
      "constant": false,
      "inputs": [
        {
          "internalType": "uint256",
          "name": "workflowId",
          "type": "uint256"
        },
        {
          "internalType": "address",
          "name": "myAddress",
          "type": "address"
        }
      ],
      "name": "confirmProjection",
      "outputs": [
        {
          "internalType": "uint256[]",
          "name": "",
          "type": "uint256[]"
        }
      ],
      "payable": true,
      "stateMutability": "payable",
      "type": "function"
    }
  ],
  "bytecode": "0x608060405234801561001057600080fd5b5061440a806100206000396000f3fe60806040526004361061012a5760003560e01c80639611e459116100ab578063d13319c41161006f578063d13319c414610480578063d5ae538b146104ab578063dfb29935146104e8578063e0381a2d14610511578063ec4788cd14610541578063fffdc0591461057e5761012a565b80639611e459146103635780639beaa5241461038c578063a2b5ad15146103c9578063a745da6514610406578063abca84a1146104435761012a565b80633acdbe5f116100f25780633acdbe5f1461026057806352f4ba75146102905780636023d6bc146102cd57806380a3f8b4146102e957806384f89a93146103265761012a565b806302a8ca101461012f5780631c3680b71461016c57806321947507146101a95780632358d5a8146101e6578063279dd03f14610223575b600080fd5b34801561013b57600080fd5b5061015660048036036101519190810190613432565b6105bb565b6040516101639190613dc7565b60405180910390f35b34801561017857600080fd5b50610193600480360361018e9190810190613432565b6106c2565b6040516101a09190613de9565b60405180910390f35b3480156101b557600080fd5b506101d060048036036101cb9190810190613432565b610738565b6040516101dd9190613de9565b60405180910390f35b3480156101f257600080fd5b5061020d6004803603610208919081019061345b565b6107b1565b60405161021a9190613eaa565b60405180910390f35b34801561022f57600080fd5b5061024a60048036036102459190810190613432565b6108ca565b6040516102579190613da5565b60405180910390f35b61027a6004803603610275919081019061345b565b61099d565b6040516102879190613de9565b60405180910390f35b34801561029c57600080fd5b506102b760048036036102b29190810190613497565b610cb1565b6040516102c49190613d68565b60405180910390f35b6102e760048036036102e291908101906132d8565b610d0f565b005b3480156102f557600080fd5b50610310600480360361030b9190810190613432565b6110de565b60405161031d9190613e26565b60405180910390f35b34801561033257600080fd5b5061034d60048036036103489190810190613432565b61119e565b60405161035a9190613de9565b60405180910390f35b34801561036f57600080fd5b5061038a60048036036103859190810190613497565b611217565b005b34801561039857600080fd5b506103b360048036036103ae9190810190613497565b61175e565b6040516103c09190613e26565b60405180910390f35b3480156103d557600080fd5b506103f060048036036103eb91908101906134d3565b611834565b6040516103fd9190613e0b565b60405180910390f35b34801561041257600080fd5b5061042d60048036036104289190810190613497565b611d8c565b60405161043a9190613eaa565b60405180910390f35b34801561044f57600080fd5b5061046a60048036036104659190810190613497565b611db8565b6040516104779190613ec5565b60405180910390f35b34801561048c57600080fd5b50610495611df4565b6040516104a29190613e26565b60405180910390f35b3480156104b757600080fd5b506104d260048036036104cd9190810190613432565b611e96565b6040516104df9190613de9565b60405180910390f35b3480156104f457600080fd5b5061050f600480360361050a91908101906133f1565b611f0f565b005b61052b6004803603610526919081019061345b565b611f29565b6040516105389190613e88565b60405180910390f35b34801561054d57600080fd5b5061056860048036036105639190810190613432565b61279a565b6040516105759190613d83565b60405180910390f35b34801561058a57600080fd5b506105a560048036036105a09190810190613432565b612846565b6040516105b29190613eaa565b60405180910390f35b6060600182815481106105ca57fe5b90600052602060002090600e0201600601805480602002602001604051908101604052809291908181526020016000905b828210156106b7578382906000526020600020018054600181600116156101000203166002900480601f0160208091040260200160405190810160405280929190818152602001828054600181600116156101000203166002900480156106a35780601f10610678576101008083540402835291602001916106a3565b820191906000526020600020905b81548152906001019060200180831161068657829003601f168201915b5050505050815260200190600101906105fb565b505050509050919050565b6060600182815481106106d157fe5b90600052602060002090600e0201600a0180548060200260200160405190810160405280929190818152602001828054801561072c57602002820191906000526020600020905b815481526020019060010190808311610718575b50505050509050919050565b60606001828154811061074757fe5b90600052602060002090600e02016001016001018054806020026020016040519081016040528092919081815260200182805480156107a557602002820191906000526020600020905b815481526020019060010190808311610791575b50505050509050919050565b600080600090505b600184815481106107c657fe5b90600052602060002090600e0201600901805490508110156108be57600184815481106107ef57fe5b90600052602060002090600e0201600901818154811061080b57fe5b9060005260206000200160009054906101000a900473ffffffffffffffffffffffffffffffffffffffff1673ffffffffffffffffffffffffffffffffffffffff168373ffffffffffffffffffffffffffffffffffffffff161480156108a25750600180858154811061087957fe5b90600052602060002090600e0201600a01828154811061089557fe5b9060005260206000200154145b156108b15760019150506108c4565b80806001019150506107b9565b50600090505b92915050565b6060600182815481106108d957fe5b90600052602060002090600e02016008016003815481106108f657fe5b90600052602060002001805480602002602001604051908101604052809291908181526020016000905b828210156109925783829060005260206000200180548060200260200160405190810160405280929190818152602001828054801561097e57602002820191906000526020600020905b81548152602001906001019080831161096a575b505050505081526020019060010190610920565b505050509050919050565b60603373ffffffffffffffffffffffffffffffffffffffff168273ffffffffffffffffffffffffffffffffffffffff1614610a0d576040517f08c379a0000000000000000000000000000000000000000000000000000000008152600401610a0490613e48565b60405180910390fd5b60008090505b60018481548110610a2057fe5b90600052602060002090600e020160090180549050811015610c3a5760018481548110610a4957fe5b90600052602060002090600e02016009018181548110610a6557fe5b9060005260206000200160009054906101000a900473ffffffffffffffffffffffffffffffffffffffff1673ffffffffffffffffffffffffffffffffffffffff168373ffffffffffffffffffffffffffffffffffffffff16148015610afc57506001808581548110610ad357fe5b90600052602060002090600e0201600b018281548110610aef57fe5b9060005260206000200154145b15610c2d576001808581548110610b0f57fe5b90600052602060002090600e0201600a018281548110610b2b57fe5b906000526020600020015414610c2c576001808581548110610b4957fe5b90600052602060002090600e0201600a018281548110610b6557fe5b90600052602060002001819055508273ffffffffffffffffffffffffffffffffffffffff16847fb8f8b523e94c2bd73565ee3355ceee32a218e758a4a6686377121fb2fc3196a160405160405180910390a360018481548110610bc457fe5b90600052602060002090600e0201600a01805480602002602001604051908101604052809291908181526020018280548015610c1f57602002820191906000526020600020905b815481526020019060010190808311610c0b575b5050505050915050610cab565b5b8080600101915050610a13565b5060018381548110610c4857fe5b90600052602060002090600e0201600a01805480602002602001604051908101604052809291908181526020018280548015610ca357602002820191906000526020600020905b815481526020019060010190808311610c8f575b505050505090505b92915050565b600060018381548110610cc057fe5b90600052602060002090600e02016004018281548110610cdc57fe5b9060005260206000200160009054906101000a900473ffffffffffffffffffffffffffffffffffffffff16905092915050565b610d17612887565b6040518060400160405280600063ffffffff16815260200160008152509050610d3e6128a7565b604051806060016040528089600081518110610d5657fe5b6020026020010151815260200189600181518110610d7057fe5b6020026020010151815260200189600281518110610d8a57fe5b60200260200101518152509050610d9f6128c8565b6040518061016001604052808681526020018381526020018981526020018781526020018a600081518110610dd057fe5b602002602001015151604051908082528060200260200182016040528015610e0c57816020015b6060815260200190600190039081610df75790505b5081526020018a600081518110610e1f57fe5b60200260200101515181526020018581526020018881526020018851604051908082528060200260200182016040528015610e695781602001602082028038833980820191505090505b5081526020018851604051908082528060200260200182016040528015610e9f5781602001602082028038833980820191505090505b5081526020018481525090506001819080600181540180825580915050906001820390600052602060002090600e0201600090919290919091506000820151816000019080519060200190610ef592919061292e565b506020820151816001016000820151816000019080519060200190610f1b9291906129ae565b506020820151816001019080519060200190610f389291906129ae565b506040820151816002019080519060200190610f559291906129ae565b5050506040820151816004019080519060200190610f749291906129fb565b506060820151816005019080519060200190610f91929190612a85565b506080820151816006019080519060200190610fae929190612ae5565b5060a0820151816007015560c0820151816008019080519060200190610fd5929190612b45565b5060e0820151816009019080519060200190610ff29291906129fb565b5061010082015181600a0190805190602001906110109291906129ae565b5061012082015181600b01908051906020019061102e9291906129ae565b5061014082015181600c0160008201518160000160006101000a81548163ffffffff021916908363ffffffff1602179055506020820151816001015550505050503373ffffffffffffffffffffffffffffffffffffffff1681600001516040516110989190613d51565b604051809103902060018080549050037e580e796805b82dd041d9cc2b779ba3dd8b2d71dd1d3a5922e6b4c32cadf19960405160405180910390a4505050505050505050565b6060600182815481106110ed57fe5b90600052602060002090600e02016000018054600181600116156101000203166002900480601f0160208091040260200160405190810160405280929190818152602001828054600181600116156101000203166002900480156111925780601f1061116757610100808354040283529160200191611192565b820191906000526020600020905b81548152906001019060200180831161117557829003601f168201915b50505050509050919050565b6060600182815481106111ad57fe5b90600052602060002090600e020160010160020180548060200260200160405190810160405280929190818152602001828054801561120b57602002820191906000526020600020905b8154815260200190600101908083116111f7575b50505050509050919050565b611222828233611834565b61125157600180838154811061123457fe5b90600052602060002090600e0201600c016001018190555061175a565b600180838154811061125f57fe5b90600052602060002090600e0201600101600101828154811061127e57fe5b906000526020600020018190555060006001838154811061129b57fe5b90600052602060002090600e020160010160020182815481106112ba57fe5b90600052602060002001819055506060600183815481106112d757fe5b90600052602060002090600e02016008016001815481106112f457fe5b90600052602060002001828154811061130957fe5b9060005260206000200180548060200260200160405190810160405280929190818152602001828054801561135d57602002820191906000526020600020905b815481526020019060010190808311611349575b5050505050905060606001848154811061137357fe5b90600052602060002090600e020160080160028154811061139057fe5b9060005260206000200183815481106113a557fe5b906000526020600020018054806020026020016040519081016040528092919081815260200182805480156113f957602002820191906000526020600020905b8154815260200190600101908083116113e5575b5050505050905060606001858154811061140f57fe5b90600052602060002090600e020160080160008154811061142c57fe5b90600052602060002001848154811061144157fe5b9060005260206000200180548060200260200160405190810160405280929190818152602001828054801561149557602002820191906000526020600020905b815481526020019060010190808311611481575b505050505090506060600186815481106114ab57fe5b90600052602060002090600e02016008016003815481106114c857fe5b9060005260206000200185815481106114dd57fe5b9060005260206000200180548060200260200160405190810160405280929190818152602001828054801561153157602002820191906000526020600020905b81548152602001906001019080831161151d575b5050505050905060008090505b815181101561158b57600182828151811061155557fe5b6020026020010151141561157e57600183828151811061157157fe5b6020026020010181815250505b808060010191505061153e565b5060008090505b6001878154811061159f57fe5b90600052602060002090600e02016008016001815481106115bc57fe5b90600052602060002001805490508110156116e95760018582815181106115df57fe5b602002602001015114158015611608575060018382815181106115fe57fe5b6020026020010151145b1561164957600180888154811061161b57fe5b90600052602060002090600e0201600101600001828154811061163a57fe5b90600052602060002001819055505b600184828151811061165757fe5b602002602001015114156116dc57600180888154811061167357fe5b90600052602060002090600e0201600101600201828154811061169257fe5b906000526020600020018190555060018088815481106116ae57fe5b90600052602060002090600e020160010160000182815481106116cd57fe5b90600052602060002001819055505b8080600101915050611592565b503373ffffffffffffffffffffffffffffffffffffffff1685877fd853302052b9b346cf4b175b34d36663cb511da3c0c7f221f21ec256fc7f625160405160405180910390a4600180878154811061173d57fe5b90600052602060002090600e0201600c0160010181905550505050505b5050565b60606001838154811061176d57fe5b90600052602060002090600e0201600501828154811061178957fe5b906000526020600020018054600181600116156101000203166002900480601f0160208091040260200160405190810160405280929190818152602001828054600181600116156101000203166002900480156118275780601f106117fc57610100808354040283529160200191611827565b820191906000526020600020905b81548152906001019060200180831161180a57829003601f168201915b5050505050905092915050565b60006001848154811061184357fe5b90600052602060002090600e0201600401838154811061185f57fe5b9060005260206000200160009054906101000a900473ffffffffffffffffffffffffffffffffffffffff1673ffffffffffffffffffffffffffffffffffffffff168273ffffffffffffffffffffffffffffffffffffffff1614611906576004600185815481106118cb57fe5b90600052602060002090600e0201600c0160000160006101000a81548163ffffffff021916908363ffffffff16021790555060009050611d85565b60006001858154811061191557fe5b90600052602060002090600e0201600101600001848154811061193457fe5b9060005260206000200154141561198e57600180858154811061195357fe5b90600052602060002090600e0201600c0160000160006101000a81548163ffffffff021916908363ffffffff16021790555060009050611d85565b60008090505b600185815481106119a157fe5b90600052602060002090600e02016008016003815481106119be57fe5b9060005260206000200180549050811015611b66576060600186815481106119e257fe5b90600052602060002090600e02016008016003815481106119ff57fe5b906000526020600020018281548110611a1457fe5b90600052602060002001805480602002602001604051908101604052809291908181526020018280548015611a6857602002820191906000526020600020905b815481526020019060010190808311611a54575b505050505090506001818681518110611a7d57fe5b60200260200101511415611b5857600060018781548110611a9a57fe5b90600052602060002090600e02016001016001018381548110611ab957fe5b9060005260206000200154148015611b0657506001808781548110611ada57fe5b90600052602060002090600e02016001016000018381548110611af957fe5b9060005260206000200154145b15611b5757600260018781548110611b1a57fe5b90600052602060002090600e0201600c0160000160006101000a81548163ffffffff021916908363ffffffff160217905550600092505050611d85565b5b508080600101915050611994565b5060008090505b60018581548110611b7a57fe5b90600052602060002090600e0201600801600481548110611b9757fe5b9060005260206000200180549050811015611d3e57606060018681548110611bbb57fe5b90600052602060002090600e0201600801600481548110611bd857fe5b906000526020600020018281548110611bed57fe5b90600052602060002001805480602002602001604051908101604052809291908181526020018280548015611c4157602002820191906000526020600020905b815481526020019060010190808311611c2d575b505050505090506001818681518110611c5657fe5b60200260200101511415611d30576001808781548110611c7257fe5b90600052602060002090600e02016001016002018381548110611c9157fe5b9060005260206000200154148015611cde57506001808781548110611cb257fe5b90600052602060002090600e02016001016000018381548110611cd157fe5b9060005260206000200154145b15611d2f57600360018781548110611cf257fe5b90600052602060002090600e0201600c0160000160006101000a81548163ffffffff021916908363ffffffff160217905550600092505050611d85565b5b508080600101915050611b6d565b50600060018581548110611d4e57fe5b90600052602060002090600e0201600c0160000160006101000a81548163ffffffff021916908363ffffffff160217905550600190505b9392505050565b600060018381548110611d9b57fe5b90600052602060002090600e0201600c0160010154905092915050565b600060018381548110611dc757fe5b90600052602060002090600e0201600c0160000160009054906101000a900463ffffffff16905092915050565b606060008054600181600116156101000203166002900480601f016020809104026020016040519081016040528092919081815260200182805460018160011615610100020316600290048015611e8c5780601f10611e6157610100808354040283529160200191611e8c565b820191906000526020600020905b815481529060010190602001808311611e6f57829003601f168201915b5050505050905090565b606060018281548110611ea557fe5b90600052602060002090600e0201600101600001805480602002602001604051908101604052809291908181526020018280548015611f0357602002820191906000526020600020905b815481526020019060010190808311611eef575b50505050509050919050565b8060009080519060200190611f25929190612ba5565b5050565b611f316128c8565b8173ffffffffffffffffffffffffffffffffffffffff163373ffffffffffffffffffffffffffffffffffffffff1614611f9f576040517f08c379a0000000000000000000000000000000000000000000000000000000008152600401611f9690613e68565b60405180910390fd5b60008090505b60018481548110611fb257fe5b90600052602060002090600e0201600901805490508110156120da5760018481548110611fdb57fe5b90600052602060002090600e02016009018181548110611ff757fe5b9060005260206000200160009054906101000a900473ffffffffffffffffffffffffffffffffffffffff1673ffffffffffffffffffffffffffffffffffffffff168373ffffffffffffffffffffffffffffffffffffffff1614801561208f5750600180858154811061206557fe5b90600052602060002090600e0201600b01828154811061208157fe5b906000526020600020015414155b156120cd5760018085815481106120a257fe5b90600052602060002090600e0201600b0182815481106120be57fe5b90600052602060002001819055505b8080600101915050611fa5565b50600183815481106120e857fe5b90600052602060002090600e020160405180610160016040529081600082018054600181600116156101000203166002900480601f01602080910402602001604051908101604052809291908181526020018280546001816001161561010002031660029004801561219b5780601f106121705761010080835404028352916020019161219b565b820191906000526020600020905b81548152906001019060200180831161217e57829003601f168201915b50505050508152602001600182016040518060600160405290816000820180548060200260200160405190810160405280929190818152602001828054801561220357602002820191906000526020600020905b8154815260200190600101908083116121ef575b505050505081526020016001820180548060200260200160405190810160405280929190818152602001828054801561225b57602002820191906000526020600020905b815481526020019060010190808311612247575b50505050508152602001600282018054806020026020016040519081016040528092919081815260200182805480156122b357602002820191906000526020600020905b81548152602001906001019080831161229f575b50505050508152505081526020016004820180548060200260200160405190810160405280929190818152602001828054801561234557602002820191906000526020600020905b8160009054906101000a900473ffffffffffffffffffffffffffffffffffffffff1673ffffffffffffffffffffffffffffffffffffffff16815260200190600101908083116122fb575b5050505050815260200160058201805480602002602001604051908101604052809291908181526020016000905b8282101561242f578382906000526020600020018054600181600116156101000203166002900480601f01602080910402602001604051908101604052809291908181526020018280546001816001161561010002031660029004801561241b5780601f106123f05761010080835404028352916020019161241b565b820191906000526020600020905b8154815290600101906020018083116123fe57829003601f168201915b505050505081526020019060010190612373565b50505050815260200160068201805480602002602001604051908101604052809291908181526020016000905b82821015612518578382906000526020600020018054600181600116156101000203166002900480601f0160208091040260200160405190810160405280929190818152602001828054600181600116156101000203166002900480156125045780601f106124d957610100808354040283529160200191612504565b820191906000526020600020905b8154815290600101906020018083116124e757829003601f168201915b50505050508152602001906001019061245c565b5050505081526020016007820154815260200160088201805480602002602001604051908101604052809291908181526020016000905b8282101561260857838290600052602060002001805480602002602001604051908101604052809291908181526020016000905b828210156125f5578382906000526020600020018054806020026020016040519081016040528092919081815260200182805480156125e157602002820191906000526020600020905b8154815260200190600101908083116125cd575b505050505081526020019060010190612583565b505050508152602001906001019061254f565b5050505081526020016009820180548060200260200160405190810160405280929190818152602001828054801561269557602002820191906000526020600020905b8160009054906101000a900473ffffffffffffffffffffffffffffffffffffffff1673ffffffffffffffffffffffffffffffffffffffff168152602001906001019080831161264b575b50505050508152602001600a82018054806020026020016040519081016040528092919081815260200182805480156126ed57602002820191906000526020600020905b8154815260200190600101908083116126d9575b50505050508152602001600b820180548060200260200160405190810160405280929190818152602001828054801561274557602002820191906000526020600020905b815481526020019060010190808311612731575b50505050508152602001600c82016040518060400160405290816000820160009054906101000a900463ffffffff1663ffffffff1663ffffffff16815260200160018201548152505081525050905092915050565b6060600182815481106127a957fe5b90600052602060002090600e020160090180548060200260200160405190810160405280929190818152602001828054801561283a57602002820191906000526020600020905b8160009054906101000a900473ffffffffffffffffffffffffffffffffffffffff1673ffffffffffffffffffffffffffffffffffffffff16815260200190600101908083116127f0575b50505050509050919050565b60006001828154811061285557fe5b90600052602060002090600e020160080160008154811061287257fe5b90600052602060002001805490509050919050565b6040518060400160405280600063ffffffff168152602001600081525090565b60405180606001604052806060815260200160608152602001606081525090565b604051806101600160405280606081526020016128e3612c25565b81526020016060815260200160608152602001606081526020016000815260200160608152602001606081526020016060815260200160608152602001612928612c46565b81525090565b828054600181600116156101000203166002900490600052602060002090601f016020900481019282601f1061296f57805160ff191683800117855561299d565b8280016001018555821561299d579182015b8281111561299c578251825591602001919060010190612981565b5b5090506129aa9190612c66565b5090565b8280548282559060005260206000209081019282156129ea579160200282015b828111156129e95782518255916020019190600101906129ce565b5b5090506129f79190612c66565b5090565b828054828255906000526020600020908101928215612a74579160200282015b82811115612a735782518260006101000a81548173ffffffffffffffffffffffffffffffffffffffff021916908373ffffffffffffffffffffffffffffffffffffffff16021790555091602001919060010190612a1b565b5b509050612a819190612c8b565b5090565b828054828255906000526020600020908101928215612ad4579160200282015b82811115612ad3578251829080519060200190612ac392919061292e565b5091602001919060010190612aa5565b5b509050612ae19190612cce565b5090565b828054828255906000526020600020908101928215612b34579160200282015b82811115612b33578251829080519060200190612b23929190612cfa565b5091602001919060010190612b05565b5b509050612b419190612d7a565b5090565b828054828255906000526020600020908101928215612b94579160200282015b82811115612b93578251829080519060200190612b83929190612da6565b5091602001919060010190612b65565b5b509050612ba19190612e06565b5090565b828054600181600116156101000203166002900490600052602060002090601f016020900481019282601f10612be657805160ff1916838001178555612c14565b82800160010185558215612c14579182015b82811115612c13578251825591602001919060010190612bf8565b5b509050612c219190612c66565b5090565b60405180606001604052806060815260200160608152602001606081525090565b6040518060400160405280600063ffffffff168152602001600081525090565b612c8891905b80821115612c84576000816000905550600101612c6c565b5090565b90565b612ccb91905b80821115612cc757600081816101000a81549073ffffffffffffffffffffffffffffffffffffffff021916905550600101612c91565b5090565b90565b612cf791905b80821115612cf35760008181612cea9190612e32565b50600101612cd4565b5090565b90565b828054600181600116156101000203166002900490600052602060002090601f016020900481019282601f10612d3b57805160ff1916838001178555612d69565b82800160010185558215612d69579182015b82811115612d68578251825591602001919060010190612d4d565b5b509050612d769190612c66565b5090565b612da391905b80821115612d9f5760008181612d969190612e7a565b50600101612d80565b5090565b90565b828054828255906000526020600020908101928215612df5579160200282015b82811115612df4578251829080519060200190612de49291906129ae565b5091602001919060010190612dc6565b5b509050612e029190612ec2565b5090565b612e2f91905b80821115612e2b5760008181612e229190612eee565b50600101612e0c565b5090565b90565b50805460018160011615610100020316600290046000825580601f10612e585750612e77565b601f016020900490600052602060002090810190612e769190612c66565b5b50565b50805460018160011615610100020316600290046000825580601f10612ea05750612ebf565b601f016020900490600052602060002090810190612ebe9190612c66565b5b50565b612eeb91905b80821115612ee75760008181612ede9190612f0f565b50600101612ec8565b5090565b90565b5080546000825590600052602060002090810190612f0c9190612ec2565b50565b5080546000825590600052602060002090810190612f2d9190612c66565b50565b600081359050612f3f81614399565b92915050565b600082601f830112612f5657600080fd5b8135612f69612f6482613f0d565b613ee0565b91508181835260208401935060208101905083856020840282011115612f8e57600080fd5b60005b83811015612fbe5781612fa48882612f30565b845260208401935060208301925050600181019050612f91565b5050505092915050565b600082601f830112612fd957600080fd5b8135612fec612fe782613f35565b613ee0565b9150818183526020840193506020810190508360005b838110156130325781358601613018888261303c565b845260208401935060208301925050600181019050613002565b5050505092915050565b600082601f83011261304d57600080fd5b813561306061305b82613f5d565b613ee0565b9150818183526020840193506020810190508360005b838110156130a6578135860161308c8882613198565b845260208401935060208301925050600181019050613076565b5050505092915050565b600082601f8301126130c157600080fd5b81356130d46130cf82613f85565b613ee0565b9150818183526020840193506020810190508360005b8381101561311a57813586016131008882613198565b8452602084019350602083019250506001810190506130ea565b5050505092915050565b600082601f83011261313557600080fd5b813561314861314382613fad565b613ee0565b9150818183526020840193506020810190508360005b8381101561318e5781358601613174888261321b565b84526020840193506020830192505060018101905061315e565b5050505092915050565b600082601f8301126131a957600080fd5b81356131bc6131b782613fd5565b613ee0565b915081818352602084019350602081019050838560208402820111156131e157600080fd5b60005b8381101561321157816131f788826132c3565b8452602084019350602083019250506001810190506131e4565b5050505092915050565b600082601f83011261322c57600080fd5b813561323f61323a82613ffd565b613ee0565b9150808252602083016020830185838301111561325b57600080fd5b613266838284614346565b50505092915050565b600082601f83011261328057600080fd5b813561329361328e82614029565b613ee0565b915080825260208301602083018583830111156132af57600080fd5b6132ba838284614346565b50505092915050565b6000813590506132d2816143b0565b92915050565b60008060008060008060c087890312156132f157600080fd5b600087013567ffffffffffffffff81111561330b57600080fd5b61331789828a016130b0565b965050602087013567ffffffffffffffff81111561333457600080fd5b61334089828a01612f45565b955050604087013567ffffffffffffffff81111561335d57600080fd5b61336989828a01612f45565b945050606087013567ffffffffffffffff81111561338657600080fd5b61339289828a01613124565b935050608087013567ffffffffffffffff8111156133af57600080fd5b6133bb89828a0161326f565b92505060a087013567ffffffffffffffff8111156133d857600080fd5b6133e489828a01612fc8565b9150509295509295509295565b60006020828403121561340357600080fd5b600082013567ffffffffffffffff81111561341d57600080fd5b6134298482850161326f565b91505092915050565b60006020828403121561344457600080fd5b6000613452848285016132c3565b91505092915050565b6000806040838503121561346e57600080fd5b600061347c858286016132c3565b925050602061348d85828601612f30565b9150509250929050565b600080604083850312156134aa57600080fd5b60006134b8858286016132c3565b92505060206134c9858286016132c3565b9150509250929050565b6000806000606084860312156134e857600080fd5b60006134f6868287016132c3565b9350506020613507868287016132c3565b925050604061351886828701612f30565b9150509250925092565b600061352e83836135a2565b60208301905092915050565b60006135468383613766565b905092915050565b600061355a8383613998565b905092915050565b600061356e8383613a05565b905092915050565b60006135828383613a77565b905092915050565b60006135968383613d15565b60208301905092915050565b6135ab816142ee565b82525050565b6135ba816142ee565b82525050565b60006135cb82614100565b6135d58185614217565b93506135e083614065565b8060005b838110156136115781516135f88882613522565b975061360383614191565b9250506001810190506135e4565b5085935050505092915050565b6000613629826140f5565b6136338185614206565b935061363e83614055565b8060005b8381101561366f5781516136568882613522565b975061366183614184565b925050600181019050613642565b5085935050505092915050565b60006136878261410b565b6136918185614228565b9350836020820285016136a385614075565b8060005b858110156136df57848403895281516136c0858261353a565b94506136cb8361419e565b925060208a019950506001810190506136a7565b50829750879550505050505092915050565b60006136fc82614121565b613706818561424a565b93508360208202850161371885614095565b8060005b858110156137545784840389528151613735858261354e565b9450613740836141b8565b925060208a0199505060018101905061371c565b50829750879550505050505092915050565b600061377182614116565b61377b8185614239565b93508360208202850161378d85614085565b8060005b858110156137c957848403895281516137aa858261354e565b94506137b5836141ab565b925060208a01995050600181019050613791565b50829750879550505050505092915050565b60006137e682614137565b6137f0818561426c565b935083602082028501613802856140b5565b8060005b8581101561383e578484038952815161381f8582613562565b945061382a836141d2565b925060208a01995050600181019050613806565b50829750879550505050505092915050565b600061385b8261412c565b613865818561425b565b935083602082028501613877856140a5565b8060005b858110156138b357848403895281516138948582613562565b945061389f836141c5565b925060208a0199505060018101905061387b565b50829750879550505050505092915050565b60006138d082614142565b6138da818561427d565b9350836020820285016138ec856140c5565b8060005b8581101561392857848403895281516139098582613576565b9450613914836141df565b925060208a019950506001810190506138f0565b50829750879550505050505092915050565b600061394582614158565b61394f818561429f565b935061395a836140e5565b8060005b8381101561398b578151613972888261358a565b975061397d836141f9565b92505060018101905061395e565b5085935050505092915050565b60006139a38261414d565b6139ad818561428e565b93506139b8836140d5565b8060005b838110156139e95781516139d0888261358a565b97506139db836141ec565b9250506001810190506139bc565b5085935050505092915050565b6139ff81614300565b82525050565b6000613a1082614163565b613a1a81856142b0565b9350613a2a818560208601614355565b613a3381614388565b840191505092915050565b6000613a4982614179565b613a5381856142d2565b9350613a63818560208601614355565b613a6c81614388565b840191505092915050565b6000613a828261416e565b613a8c81856142c1565b9350613a9c818560208601614355565b613aa581614388565b840191505092915050565b6000613abb8261416e565b613ac581856142e3565b9350613ad5818560208601614355565b80840191505092915050565b6000613aee6013836142d2565b91507f4d75737420626520726f6c65206f776e65722e000000000000000000000000006000830152602082019050919050565b6000613b2e600c836142d2565b91507f77726f6e674164647265737300000000000000000000000000000000000000006000830152602082019050919050565b604082016000820151613b776000850182613d33565b506020820151613b8a6020850182613d15565b50505050565b60006060830160008301518482036000860152613bad8282613998565b91505060208301518482036020860152613bc78282613998565b91505060408301518482036040860152613be18282613998565b9150508091505092915050565b6000610180830160008301518482036000860152613c0c8282613a77565b91505060208301518482036020860152613c268282613b90565b91505060408301518482036040860152613c40828261361e565b91505060608301518482036060860152613c5a82826138c5565b91505060808301518482036080860152613c748282613850565b91505060a0830151613c8960a0860182613d15565b5060c083015184820360c0860152613ca1828261367c565b91505060e083015184820360e0860152613cbb828261361e565b915050610100830151848203610100860152613cd78282613998565b915050610120830151848203610120860152613cf38282613998565b915050610140830151613d0a610140860182613b61565b508091505092915050565b613d1e8161432c565b82525050565b613d2d8161432c565b82525050565b613d3c81614336565b82525050565b613d4b81614336565b82525050565b6000613d5d8284613ab0565b915081905092915050565b6000602082019050613d7d60008301846135b1565b92915050565b60006020820190508181036000830152613d9d81846135c0565b905092915050565b60006020820190508181036000830152613dbf81846136f1565b905092915050565b60006020820190508181036000830152613de181846137db565b905092915050565b60006020820190508181036000830152613e03818461393a565b905092915050565b6000602082019050613e2060008301846139f6565b92915050565b60006020820190508181036000830152613e408184613a3e565b905092915050565b60006020820190508181036000830152613e6181613ae1565b9050919050565b60006020820190508181036000830152613e8181613b21565b9050919050565b60006020820190508181036000830152613ea28184613bee565b905092915050565b6000602082019050613ebf6000830184613d24565b92915050565b6000602082019050613eda6000830184613d42565b92915050565b6000604051905081810181811067ffffffffffffffff82111715613f0357600080fd5b8060405250919050565b600067ffffffffffffffff821115613f2457600080fd5b602082029050602081019050919050565b600067ffffffffffffffff821115613f4c57600080fd5b602082029050602081019050919050565b600067ffffffffffffffff821115613f7457600080fd5b602082029050602081019050919050565b600067ffffffffffffffff821115613f9c57600080fd5b602082029050602081019050919050565b600067ffffffffffffffff821115613fc457600080fd5b602082029050602081019050919050565b600067ffffffffffffffff821115613fec57600080fd5b602082029050602081019050919050565b600067ffffffffffffffff82111561401457600080fd5b601f19601f8301169050602081019050919050565b600067ffffffffffffffff82111561404057600080fd5b601f19601f8301169050602081019050919050565b6000819050602082019050919050565b6000819050602082019050919050565b6000819050602082019050919050565b6000819050602082019050919050565b6000819050602082019050919050565b6000819050602082019050919050565b6000819050602082019050919050565b6000819050602082019050919050565b6000819050602082019050919050565b6000819050602082019050919050565b600081519050919050565b600081519050919050565b600081519050919050565b600081519050919050565b600081519050919050565b600081519050919050565b600081519050919050565b600081519050919050565b600081519050919050565b600081519050919050565b600081519050919050565b600081519050919050565b600081519050919050565b6000602082019050919050565b6000602082019050919050565b6000602082019050919050565b6000602082019050919050565b6000602082019050919050565b6000602082019050919050565b6000602082019050919050565b6000602082019050919050565b6000602082019050919050565b6000602082019050919050565b600082825260208201905092915050565b600082825260208201905092915050565b600082825260208201905092915050565b600082825260208201905092915050565b600082825260208201905092915050565b600082825260208201905092915050565b600082825260208201905092915050565b600082825260208201905092915050565b600082825260208201905092915050565b600082825260208201905092915050565b600082825260208201905092915050565b600082825260208201905092915050565b600082825260208201905092915050565b600081905092915050565b60006142f98261430c565b9050919050565b60008115159050919050565b600073ffffffffffffffffffffffffffffffffffffffff82169050919050565b6000819050919050565b600063ffffffff82169050919050565b82818337600083830152505050565b60005b83811015614373578082015181840152602081019050614358565b83811115614382576000848401525b50505050565b6000601f19601f8301169050919050565b6143a2816142ee565b81146143ad57600080fd5b50565b6143b98161432c565b81146143c457600080fd5b5056fea365627a7a723158208691af7e3432f37217c69c6a925e7b1e99c0f3b85fbbd2500f6c64d8b11a70186c6578706572696d656e74616cf564736f6c63430005100040",
  "source": "//pragma solidity 0.5.10;\npragma solidity ^0.5.16;\npragma experimental ABIEncoderV2;\n\ncontract PublicDCRManager {\n    // event declaration\n    event LogWorkflowCreation(\n        uint256 indexed workflowId,\n        string indexed workflowName,\n        address indexed creator\n    );\n\n    event LogExecution(\n        uint256 indexed workflowId,\n        uint256 indexed activityId,\n        address indexed executor\n    );\n\n    event LogWorkflowProjection(\n        uint256 indexed workflowId,\n        address indexed creator\n    );\n\n    // variable declarations.\n    string ipfsHash;\n\n    struct Workflow {\n        string name;\n        Marking markings;\n        address[] roleAddresses;\n        string[] activityNames;\n        bytes[] ipfsActivityHashes;\n        uint256 numActivities; //number of included activities\n        uint256[][][] relations; //includesTo, excludesTo, responsesTo, conditionsFrom, milestonesFrom\n        //uint256[][] excludesTo;\n        //uint256[][] responsesTo;\n        //uint256[][] conditionsFrom;\n        //uint256[][] milestonesFrom;\n        \n        //ApprovalList approvalList;\n        address[] approvalAddresses;\n        uint[] approvalOutcomes;\n        uint[] didFetch;\n\n        Activity execStatus;\n    }\n    \n    struct Marking {\n        uint256[] included;\n        uint256[] executed;\n        uint256[] pending;\n    }\n\n    struct Activity {\n        uint32 canExecuteCheck;\n        uint256 status; //0=no, 1=yes\n    }\n    \n\n    Workflow[] workflows;\n    \n    \n\n    ///////////////// Misc ////////////////////////\n\n    function sendHash(string memory x) public {\n        ipfsHash = x;\n    }\n\n    function getHash() public view returns (string memory x) {\n        return ipfsHash;\n    }\n\n\n    /** @dev Getter for workflow.\n      * @param workflowId index of the workflow (eg 0 for the first workflow).\n      * @param myAddress sender adddress (must be registered to fetch the workflow).\n      * @return workflow, update didFetch variable to one.\n      */\n    function fetchPublicView(uint256 workflowId, address myAddress)\n        public\n        payable\n        returns (Workflow memory)\n    {\n        \n        require(msg.sender == myAddress, 'wrongAddress');\n        \n        // update the didFetch variable\n        for (\n            uint256 id = 0;\n            id < workflows[workflowId].approvalAddresses.length;\n            id++\n        ) {\n            if((myAddress == workflows[workflowId].approvalAddresses[id]) && workflows[workflowId].didFetch[id] != 1){\n                workflows[workflowId].didFetch[id] = 1;\n                }\n        }\n        \n        return workflows[workflowId];\n    }\n\n     \n    /** @dev Getter for workflow name.\n      * @param workflowId index of the workflow (eg 0 for the first workflow).\n      * @return workflow name.\n      */\n\n    function getWorkflowName(uint256 workflowId)\n        public\n        view\n        returns (string memory)\n    {\n        return workflows[workflowId].name;\n    }\n\n    /** @dev Getter for workflow execution status.\n      * @param workflowId index of the workflow (eg 0 for the first workflow).\n      * @return execution status of the task: 0=ok, 1= \n      */\n    function getCanExecuteCheck(uint256 workflowId, uint256 activityId)\n        public\n        view\n        returns (uint32)\n    {\n        return workflows[workflowId].execStatus.canExecuteCheck;\n    }\n\n    function getStatus(uint256 workflowId, uint256 activityId)\n        public\n        view\n        returns (uint256)\n    {\n        return workflows[workflowId].execStatus.status;\n    }\n\n    function getWkfLength(uint256 workflowId) public view returns (uint256) {\n        return workflows[workflowId].relations[0].length;\n    }\n\n    function getIncluded(uint256 workflowId)\n        public\n        view\n        returns (uint256[] memory)\n    {\n        return workflows[workflowId].markings.included;\n    }\n\n    function getExecuted(uint256 workflowId)\n        public\n        view\n        returns (uint256[] memory)\n    {\n        return workflows[workflowId].markings.executed;\n    }\n\n    function getPending(uint256 workflowId)\n        public\n        view\n        returns (uint256[] memory)\n    {\n        return workflows[workflowId].markings.pending;\n    }\n\n    function getConditionsFrom(uint256 workflowId)\n        public\n        view\n        returns (uint256[][] memory)\n    {\n        return workflows[workflowId].relations[3];\n    }\n\n    function getHashes(uint256 workflowId)\n        public\n        view\n        returns (bytes[] memory)\n    {\n        return workflows[workflowId].ipfsActivityHashes;\n    }\n\n    function getActivityName(uint256 workflowId, uint256 activityId)\n        public\n        view\n        returns (string memory)\n    {\n        return workflows[workflowId].activityNames[activityId];\n    }\n\n    function getRoleAddresses(uint256 workflowId, uint256 activityId)\n        public\n        view\n        returns (address)\n    {\n        return workflows[workflowId].roleAddresses[activityId];\n    }\n\n    function getAddresses(uint256 workflowId)\n        public\n        view\n        returns (address[] memory)\n    {\n        return workflows[workflowId].approvalAddresses;\n    }\n\n\n    function getApprovalsOutcome(uint256 workflowId)\n        public\n        view\n        returns (uint[] memory)\n    {\n        return (workflows[workflowId].approvalOutcomes);\n    }\n\n    function hasApproved(uint256 workflowId, address myAddress)\n        public\n        view\n        returns (uint)\n    {\n        //uint res = 0;\n        for (\n            uint256 id = 0;\n            id < workflows[workflowId].approvalAddresses.length;\n            id++\n        ) {\n            if((myAddress == workflows[workflowId].approvalAddresses[id]) && workflows[workflowId].approvalOutcomes[id] == 1){\n                return 1;\n            }\n        }\n        return 0;\n    }\n\n    ///////////////// Utils /////////////////////////\n\n    function canExecute(uint256 workflowId, uint256 activityId, address msgSender)\n        public\n        returns (bool)\n    {\n        // check if msg.sender address is correct\n        if (msgSender != workflows[workflowId].roleAddresses[activityId]) {\n            workflows[workflowId].execStatus.canExecuteCheck = 4;\n            return false;\n        }\n        \n        // activity must be included\n        if (workflows[workflowId].markings.included[activityId] == 0) {\n            workflows[workflowId].execStatus.canExecuteCheck = 1;\n            return false;\n        }\n\n        // all conditions executed\n        for (\n            uint256 id = 0;\n            id < workflows[workflowId].relations[3].length;\n            id++\n        ) {\n            uint256[] memory conditionsRow =\n                workflows[workflowId].relations[3][id];\n            if (conditionsRow[activityId] == 1) {\n                if (\n                    (workflows[workflowId].markings.executed[id] == 0) &&\n                    (workflows[workflowId].markings.included[id] == 1)\n                ) {\n                    workflows[workflowId].execStatus.canExecuteCheck = 2;\n                    return false;\n                }\n            }\n        }\n\n        // no milestones pending\n        for (\n            uint256 id = 0;\n            id < workflows[workflowId].relations[4].length; // milestonesFrom\n            id++\n        ) {\n            uint256[] memory milestonesRow =\n                workflows[workflowId].relations[4][id];\n            if (milestonesRow[activityId] == 1) {\n                if (\n                    (workflows[workflowId].markings.pending[id] == 1) &&\n                    (workflows[workflowId].markings.included[id] == 1)\n                ) {\n                    workflows[workflowId].execStatus.canExecuteCheck = 3;\n                    return false;\n                }\n            }\n        }\n\n        workflows[workflowId].execStatus.canExecuteCheck = 0;\n        return true;\n    }\n\n    ///////////////// Main functions /////////////////////////\n    function checkCliquedIndex(uint256 workflowId, uint256 activityId)\n        public\n    //        bytes memory ipfsHash\n    {\n        if (!canExecute(workflowId, activityId, msg.sender)) {\n            workflows[workflowId].execStatus.status = 1;\n            //revert();\n        } else {\n            // executed activity\n            workflows[workflowId].markings.executed[activityId] = 1;\n            workflows[workflowId].markings.pending[activityId] = 0;\n            //            workflows[workflowId].ipfsActivityHashes[activityId] = ipfsHash;\n\n            uint256[] memory exclude_vect_check =\n                workflows[workflowId].relations[1][activityId]; // excludes\n            uint256[] memory response_vect_check =\n                workflows[workflowId].relations[2][activityId]; // responsesTo\n\n            // add include relations\n            uint256[] memory include_vect_check =\n                workflows[workflowId].relations[0][activityId]; // includes\n\n            // update with condition relations ok\n            uint256[] memory conditionsTo =\n                workflows[workflowId].relations[3][activityId]; //extract row condition\n            for (uint256 id = 0; id < conditionsTo.length; id++) {\n                if (conditionsTo[id] == 1) {\n                    include_vect_check[id] = 1;\n                }\n            }\n\n            for (\n                uint256 id = 0;\n                id < workflows[workflowId].relations[1].length; // excludesTo\n                id++\n            ) {\n                // exclude and include relations pass\n                // note includes happens after the exclude pass\n                // included = (included & ~excludesTo[activityId]) | includesTo[activityId];\n                if (\n                    (exclude_vect_check[id] != 1) &&\n                    (include_vect_check[id] == 1)\n                ) {\n                    workflows[workflowId].markings.included[id] = 1;\n                }\n\n                // response relations pass\n                // pending = (pending | responsesTo[activityId]);\n                if (response_vect_check[id] == 1) {\n                    workflows[workflowId].markings.pending[id] = 1;\n                    workflows[workflowId].markings.included[id] = 1;\n                }\n            }\n\n            emit LogExecution(workflowId, activityId, msg.sender);\n\n            workflows[workflowId].execStatus.status = 1;\n        }\n    }\n\n    function createWorkflow(\n        // packed state variables\n        uint256[][] memory markingStates, // included, executed, pending\n\n        //process information\n        address[] memory _roleAddresses,\n        address[] memory _approvalAddresses,\n\n        string[] memory _activityNames,\n        string memory _name,\n\n        // relations\n        uint256[][][] memory _relations // includesto, excludesto, responsesto, conditionsfrom, milestonesFrom\n    ) public payable {\n        \n        Activity memory execStatus = Activity(0, 0);\n        Marking memory markings = Marking(markingStates[0],markingStates[1],markingStates[2]);\n        Workflow memory wf =\n            Workflow(\n                _name,\n                markings,\n                _roleAddresses,\n                _activityNames,\n                new bytes[](markingStates[0].length),\n                markingStates[0].length,\n                _relations,\n                _approvalAddresses,\n                new uint[](_approvalAddresses.length),\n                new uint[](_approvalAddresses.length),\n                execStatus\n            );\n        workflows.push(wf);\n\n        emit LogWorkflowCreation(workflows.length - 1, wf.name, msg.sender);\n    }\n\n    /** @dev post private projection approval function.\n      * @param workflowId index of the workflow (eg 0 for the first workflow).\n      * @param myAddress address of the sender (necessary for web3js dev).\n      * @return list of approval outcomes.\n      */\n    function confirmProjection(uint256 workflowId, address myAddress) public payable returns (uint[] memory){\n        // get id of approvalList.addresses corresponding to msgSender. If (approval[id]==0): set to one;\n        \n        require(myAddress==msg.sender, \"Must be role owner.\");\n\n        for (\n            uint256 id = 0;\n            id < workflows[workflowId].approvalAddresses.length;\n            id++\n        ) {\n            if((myAddress == workflows[workflowId].approvalAddresses[id]) && workflows[workflowId].didFetch[id] == 1){ // must have fetched public view\n                if(workflows[workflowId].approvalOutcomes[id] != 1){ // must not have approved before\n                    workflows[workflowId].approvalOutcomes[id] = 1;\n                    emit LogWorkflowProjection(workflowId, myAddress);\n                    return workflows[workflowId].approvalOutcomes;\n                }\n            }\n\n        }\n        \n        return workflows[workflowId].approvalOutcomes;\n        \n    }  \n\n\n}\n",
  "sourcePath": "/home/vtlr2002/source/masterPlatform/contracts/PublicDCRManager.sol",
  "compiler": {
    "name": "solc",
    "version": "0.5.16+commit.9c3226ce.Emscripten.clang"
  },
  "schemaVersion": "3.2.4",
  "updatedAt": "2021-05-24T20:03:05.809Z",
  "networkType": "ethereum",
  "devdoc": {
    "methods": {
      "confirmProjection(uint256,address)": {
        "details": "post private projection approval function.",
        "params": {
          "myAddress": "address of the sender (necessary for web3js dev).",
          "workflowId": "index of the workflow (eg 0 for the first workflow)."
        },
        "return": "list of approval outcomes."
      },
      "fetchPublicView(uint256,address)": {
        "details": "Getter for workflow.",
        "params": {
          "myAddress": "sender adddress (must be registered to fetch the workflow).",
          "workflowId": "index of the workflow (eg 0 for the first workflow)."
        },
        "return": "workflow, update didFetch variable to one."
      },
      "getCanExecuteCheck(uint256,uint256)": {
        "details": "Getter for workflow execution status.",
        "params": {
          "workflowId": "index of the workflow (eg 0 for the first workflow)."
        },
        "return": "execution status of the task: 0=ok, 1= "
      },
      "getWorkflowName(uint256)": {
        "details": "Getter for workflow name.",
        "params": {
          "workflowId": "index of the workflow (eg 0 for the first workflow)."
        },
        "return": "workflow name."
      }
    }
  },
  "userdoc": {
    "methods": {
      "canExecute(uint256,uint256,address)": {
        "notice": "////////////// Utils /////////////////////////"
      },
      "checkCliquedIndex(uint256,uint256)": {
        "notice": "////////////// Main functions /////////////////////////"
      },
      "sendHash(string)": {
        "notice": "////////////// Misc ////////////////////////"
      }
    }
  }
}