{
  "contractName": "PublicDCRManager",
  "abi": [
    {
      "anonymous": false,
      "inputs": [
        {
          "indexed": true,
          "internalType": "uint256",
          "name": "workflowId",
          "type": "uint256"
        },
        {
          "indexed": true,
          "internalType": "uint256",
          "name": "activityId",
          "type": "uint256"
        },
        {
          "indexed": true,
          "internalType": "address",
          "name": "executor",
          "type": "address"
        }
      ],
      "name": "LogExecution",
      "type": "event"
    },
    {
      "anonymous": false,
      "inputs": [
        {
          "indexed": true,
          "internalType": "uint256",
          "name": "workflowId",
          "type": "uint256"
        },
        {
          "indexed": true,
          "internalType": "string",
          "name": "workflowName",
          "type": "string"
        },
        {
          "indexed": true,
          "internalType": "address",
          "name": "creator",
          "type": "address"
        }
      ],
      "name": "LogWorkflowCreation",
      "type": "event"
    },
    {
      "anonymous": false,
      "inputs": [
        {
          "indexed": true,
          "internalType": "uint256",
          "name": "workflowId",
          "type": "uint256"
        },
        {
          "indexed": true,
          "internalType": "address",
          "name": "creator",
          "type": "address"
        }
      ],
      "name": "LogWorkflowProjection",
      "type": "event"
    },
    {
      "constant": false,
      "inputs": [
        {
          "internalType": "uint256",
          "name": "workflowId",
          "type": "uint256"
        },
        {
          "internalType": "address",
          "name": "myAddress",
          "type": "address"
        }
      ],
      "name": "localProjectionApproval",
      "outputs": [
        {
          "internalType": "uint256[]",
          "name": "",
          "type": "uint256[]"
        }
      ],
      "payable": true,
      "stateMutability": "payable",
      "type": "function"
    },
    {
      "constant": true,
      "inputs": [
        {
          "internalType": "uint256",
          "name": "workflowId",
          "type": "uint256"
        }
      ],
      "name": "getWorkflowName",
      "outputs": [
        {
          "internalType": "string",
          "name": "",
          "type": "string"
        }
      ],
      "payable": false,
      "stateMutability": "view",
      "type": "function"
    },
    {
      "constant": true,
      "inputs": [
        {
          "internalType": "uint256",
          "name": "workflowId",
          "type": "uint256"
        },
        {
          "internalType": "uint256",
          "name": "activityId",
          "type": "uint256"
        }
      ],
      "name": "getCanExecuteCheck",
      "outputs": [
        {
          "internalType": "uint32",
          "name": "",
          "type": "uint32"
        }
      ],
      "payable": false,
      "stateMutability": "view",
      "type": "function"
    },
    {
      "constant": true,
      "inputs": [
        {
          "internalType": "uint256",
          "name": "workflowId",
          "type": "uint256"
        },
        {
          "internalType": "uint256",
          "name": "activityId",
          "type": "uint256"
        }
      ],
      "name": "getStatus",
      "outputs": [
        {
          "internalType": "uint256",
          "name": "",
          "type": "uint256"
        }
      ],
      "payable": false,
      "stateMutability": "view",
      "type": "function"
    },
    {
      "constant": true,
      "inputs": [
        {
          "internalType": "uint256",
          "name": "workflowId",
          "type": "uint256"
        }
      ],
      "name": "getWkfLength",
      "outputs": [
        {
          "internalType": "uint256",
          "name": "",
          "type": "uint256"
        }
      ],
      "payable": false,
      "stateMutability": "view",
      "type": "function"
    },
    {
      "constant": true,
      "inputs": [
        {
          "internalType": "uint256",
          "name": "workflowId",
          "type": "uint256"
        }
      ],
      "name": "getIncluded",
      "outputs": [
        {
          "internalType": "uint256[]",
          "name": "",
          "type": "uint256[]"
        }
      ],
      "payable": false,
      "stateMutability": "view",
      "type": "function"
    },
    {
      "constant": true,
      "inputs": [
        {
          "internalType": "uint256",
          "name": "workflowId",
          "type": "uint256"
        }
      ],
      "name": "getExecuted",
      "outputs": [
        {
          "internalType": "uint256[]",
          "name": "",
          "type": "uint256[]"
        }
      ],
      "payable": false,
      "stateMutability": "view",
      "type": "function"
    },
    {
      "constant": true,
      "inputs": [
        {
          "internalType": "uint256",
          "name": "workflowId",
          "type": "uint256"
        }
      ],
      "name": "getPending",
      "outputs": [
        {
          "internalType": "uint256[]",
          "name": "",
          "type": "uint256[]"
        }
      ],
      "payable": false,
      "stateMutability": "view",
      "type": "function"
    },
    {
      "constant": true,
      "inputs": [
        {
          "internalType": "uint256",
          "name": "workflowId",
          "type": "uint256"
        }
      ],
      "name": "getConditionsFrom",
      "outputs": [
        {
          "internalType": "uint256[][]",
          "name": "",
          "type": "uint256[][]"
        }
      ],
      "payable": false,
      "stateMutability": "view",
      "type": "function"
    },
    {
      "constant": true,
      "inputs": [
        {
          "internalType": "uint256",
          "name": "workflowId",
          "type": "uint256"
        }
      ],
      "name": "getHashes",
      "outputs": [
        {
          "internalType": "bytes[]",
          "name": "",
          "type": "bytes[]"
        }
      ],
      "payable": false,
      "stateMutability": "view",
      "type": "function"
    },
    {
      "constant": true,
      "inputs": [
        {
          "internalType": "uint256",
          "name": "workflowId",
          "type": "uint256"
        },
        {
          "internalType": "uint256",
          "name": "activityId",
          "type": "uint256"
        }
      ],
      "name": "getActivityName",
      "outputs": [
        {
          "internalType": "string",
          "name": "",
          "type": "string"
        }
      ],
      "payable": false,
      "stateMutability": "view",
      "type": "function"
    },
    {
      "constant": true,
      "inputs": [
        {
          "internalType": "uint256",
          "name": "workflowId",
          "type": "uint256"
        },
        {
          "internalType": "uint256",
          "name": "activityId",
          "type": "uint256"
        }
      ],
      "name": "getRoleAddresses",
      "outputs": [
        {
          "internalType": "address",
          "name": "",
          "type": "address"
        }
      ],
      "payable": false,
      "stateMutability": "view",
      "type": "function"
    },
    {
      "constant": true,
      "inputs": [
        {
          "internalType": "uint256",
          "name": "workflowId",
          "type": "uint256"
        }
      ],
      "name": "getAddresses",
      "outputs": [
        {
          "internalType": "address[]",
          "name": "",
          "type": "address[]"
        }
      ],
      "payable": false,
      "stateMutability": "view",
      "type": "function"
    },
    {
      "constant": true,
      "inputs": [
        {
          "internalType": "uint256",
          "name": "workflowId",
          "type": "uint256"
        }
      ],
      "name": "getApprovalsOutcome",
      "outputs": [
        {
          "internalType": "uint256[]",
          "name": "",
          "type": "uint256[]"
        }
      ],
      "payable": false,
      "stateMutability": "view",
      "type": "function"
    },
    {
      "constant": true,
      "inputs": [
        {
          "internalType": "uint256",
          "name": "workflowId",
          "type": "uint256"
        },
        {
          "internalType": "address",
          "name": "myAddress",
          "type": "address"
        }
      ],
      "name": "hasApproved",
      "outputs": [
        {
          "internalType": "uint256",
          "name": "",
          "type": "uint256"
        }
      ],
      "payable": false,
      "stateMutability": "view",
      "type": "function"
    },
    {
      "constant": false,
      "inputs": [
        {
          "internalType": "uint256",
          "name": "workflowId",
          "type": "uint256"
        },
        {
          "internalType": "uint256",
          "name": "activityId",
          "type": "uint256"
        },
        {
          "internalType": "address",
          "name": "msgSender",
          "type": "address"
        }
      ],
      "name": "canExecute",
      "outputs": [
        {
          "internalType": "bool",
          "name": "",
          "type": "bool"
        }
      ],
      "payable": false,
      "stateMutability": "nonpayable",
      "type": "function"
    },
    {
      "constant": false,
      "inputs": [
        {
          "internalType": "uint256",
          "name": "workflowId",
          "type": "uint256"
        },
        {
          "internalType": "uint256",
          "name": "activityId",
          "type": "uint256"
        }
      ],
      "name": "checkCliquedIndex",
      "outputs": [],
      "payable": false,
      "stateMutability": "nonpayable",
      "type": "function"
    },
    {
      "constant": false,
      "inputs": [
        {
          "internalType": "uint256[][]",
          "name": "markingStates",
          "type": "uint256[][]"
        },
        {
          "internalType": "address[]",
          "name": "_roleAddresses",
          "type": "address[]"
        },
        {
          "internalType": "address[]",
          "name": "_approvalAddresses",
          "type": "address[]"
        },
        {
          "internalType": "string[]",
          "name": "_activityNames",
          "type": "string[]"
        },
        {
          "internalType": "string",
          "name": "_name",
          "type": "string"
        },
        {
          "internalType": "uint256[][][]",
          "name": "_relations",
          "type": "uint256[][][]"
        }
      ],
      "name": "createWorkflow",
      "outputs": [],
      "payable": true,
      "stateMutability": "payable",
      "type": "function"
    }
  ],
  "bytecode": "0x608060405234801561001057600080fd5b506132e1806100206000396000f3fe6080604052600436106101095760003560e01c806390cd67dd11610095578063a745da6511610064578063a745da65146103e5578063abca84a114610422578063d5ae538b1461045f578063ec4788cd1461049c578063fffdc059146104d957610109565b806390cd67dd146103125780639611e459146103425780639beaa5241461036b578063a2b5ad15146103a857610109565b8063279dd03f116100dc578063279dd03f1461020257806352f4ba751461023f5780636023d6bc1461027c57806380a3f8b41461029857806384f89a93146102d557610109565b806302a8ca101461010e5780631c3680b71461014b57806321947507146101885780632358d5a8146101c5575b600080fd5b34801561011a57600080fd5b506101356004803603610130919081019061290f565b610516565b6040516101429190612e0e565b60405180910390f35b34801561015757600080fd5b50610172600480360361016d919081019061290f565b61061d565b60405161017f9190612e30565b60405180910390f35b34801561019457600080fd5b506101af60048036036101aa919081019061290f565b610693565b6040516101bc9190612e30565b60405180910390f35b3480156101d157600080fd5b506101ec60048036036101e79190810190612938565b61070c565b6040516101f99190612eaf565b60405180910390f35b34801561020e57600080fd5b506102296004803603610224919081019061290f565b610826565b6040516102369190612dec565b60405180910390f35b34801561024b57600080fd5b5061026660048036036102619190810190612974565b6108f9565b6040516102739190612daf565b60405180910390f35b610296600480360361029191908101906127f6565b610956565b005b3480156102a457600080fd5b506102bf60048036036102ba919081019061290f565b610cd2565b6040516102cc9190612e6d565b60405180910390f35b3480156102e157600080fd5b506102fc60048036036102f7919081019061290f565b610d92565b6040516103099190612e30565b60405180910390f35b61032c60048036036103279190810190612938565b610e0b565b6040516103399190612e30565b60405180910390f35b34801561034e57600080fd5b5061036960048036036103649190810190612974565b6110e7565b005b34801561037757600080fd5b50610392600480360361038d9190810190612974565b611633565b60405161039f9190612e6d565b60405180910390f35b3480156103b457600080fd5b506103cf60048036036103ca91908101906129b0565b611709565b6040516103dc9190612e52565b60405180910390f35b3480156103f157600080fd5b5061040c60048036036104079190810190612974565b611c61565b6040516104199190612eaf565b60405180910390f35b34801561042e57600080fd5b5061044960048036036104449190810190612974565b611c8c565b6040516104569190612eca565b60405180910390f35b34801561046b57600080fd5b506104866004803603610481919081019061290f565b611cc7565b6040516104939190612e30565b60405180910390f35b3480156104a857600080fd5b506104c360048036036104be919081019061290f565b611d40565b6040516104d09190612dca565b60405180910390f35b3480156104e557600080fd5b5061050060048036036104fb919081019061290f565b611dec565b60405161050d9190612eaf565b60405180910390f35b60606000828154811061052557fe5b90600052602060002090600d0201600601805480602002602001604051908101604052809291908181526020016000905b82821015610612578382906000526020600020018054600181600116156101000203166002900480601f0160208091040260200160405190810160405280929190818152602001828054600181600116156101000203166002900480156105fe5780601f106105d3576101008083540402835291602001916105fe565b820191906000526020600020905b8154815290600101906020018083116105e157829003601f168201915b505050505081526020019060010190610556565b505050509050919050565b60606000828154811061062c57fe5b90600052602060002090600d0201600a0180548060200260200160405190810160405280929190818152602001828054801561068757602002820191906000526020600020905b815481526020019060010190808311610673575b50505050509050919050565b6060600082815481106106a257fe5b90600052602060002090600d020160010160010180548060200260200160405190810160405280929190818152602001828054801561070057602002820191906000526020600020905b8154815260200190600101908083116106ec575b50505050509050919050565b600080600090505b6000848154811061072157fe5b90600052602060002090600d02016009018054905081101561081a576000848154811061074a57fe5b90600052602060002090600d0201600901818154811061076657fe5b9060005260206000200160009054906101000a900473ffffffffffffffffffffffffffffffffffffffff1673ffffffffffffffffffffffffffffffffffffffff168373ffffffffffffffffffffffffffffffffffffffff161480156107fe57506001600085815481106107d557fe5b90600052602060002090600d0201600a0182815481106107f157fe5b9060005260206000200154145b1561080d576001915050610820565b8080600101915050610714565b50600090505b92915050565b60606000828154811061083557fe5b90600052602060002090600d020160080160038154811061085257fe5b90600052602060002001805480602002602001604051908101604052809291908181526020016000905b828210156108ee578382906000526020600020018054806020026020016040519081016040528092919081815260200182805480156108da57602002820191906000526020600020905b8154815260200190600101908083116108c6575b50505050508152602001906001019061087c565b505050509050919050565b600080838154811061090757fe5b90600052602060002090600d0201600401828154811061092357fe5b9060005260206000200160009054906101000a900473ffffffffffffffffffffffffffffffffffffffff16905092915050565b61095e611e2c565b6040518060400160405280600063ffffffff16815260200160008152509050610985611e4c565b60405180606001604052808960008151811061099d57fe5b60200260200101518152602001896001815181106109b757fe5b60200260200101518152602001896002815181106109d157fe5b602002602001015181525090506109e6611e6d565b6040518061014001604052808681526020018381526020018981526020018781526020018a600081518110610a1757fe5b602002602001015151604051908082528060200260200182016040528015610a5357816020015b6060815260200190600190039081610a3e5790505b5081526020018a600081518110610a6657fe5b60200260200101515181526020018581526020018881526020018851604051908082528060200260200182016040528015610ab05781602001602082028038833980820191505090505b5081526020018481525090506000819080600181540180825580915050906001820390600052602060002090600d0201600090919290919091506000820151816000019080519060200190610b06929190611ecc565b506020820151816001016000820151816000019080519060200190610b2c929190611f4c565b506020820151816001019080519060200190610b49929190611f4c565b506040820151816002019080519060200190610b66929190611f4c565b5050506040820151816004019080519060200190610b85929190611f99565b506060820151816005019080519060200190610ba2929190612023565b506080820151816006019080519060200190610bbf929190612083565b5060a0820151816007015560c0820151816008019080519060200190610be69291906120e3565b5060e0820151816009019080519060200190610c03929190611f99565b5061010082015181600a019080519060200190610c21929190611f4c565b5061012082015181600b0160008201518160000160006101000a81548163ffffffff021916908363ffffffff1602179055506020820151816001015550505050503373ffffffffffffffffffffffffffffffffffffffff168160000151604051610c8b9190612d98565b60405180910390206001600080549050037e580e796805b82dd041d9cc2b779ba3dd8b2d71dd1d3a5922e6b4c32cadf19960405160405180910390a4505050505050505050565b606060008281548110610ce157fe5b90600052602060002090600d02016000018054600181600116156101000203166002900480601f016020809104026020016040519081016040528092919081815260200182805460018160011615610100020316600290048015610d865780601f10610d5b57610100808354040283529160200191610d86565b820191906000526020600020905b815481529060010190602001808311610d6957829003601f168201915b50505050509050919050565b606060008281548110610da157fe5b90600052602060002090600d0201600101600201805480602002602001604051908101604052809291908181526020018280548015610dff57602002820191906000526020600020905b815481526020019060010190808311610deb575b50505050509050919050565b60603373ffffffffffffffffffffffffffffffffffffffff168273ffffffffffffffffffffffffffffffffffffffff1614610e7b576040517f08c379a0000000000000000000000000000000000000000000000000000000008152600401610e7290612e8f565b60405180910390fd5b60008090505b60008481548110610e8e57fe5b90600052602060002090600d0201600901805490508110156110705760008481548110610eb757fe5b90600052602060002090600d02016009018181548110610ed357fe5b9060005260206000200160009054906101000a900473ffffffffffffffffffffffffffffffffffffffff1673ffffffffffffffffffffffffffffffffffffffff168373ffffffffffffffffffffffffffffffffffffffff16148015610f6c5750600160008581548110610f4257fe5b90600052602060002090600d0201600a018281548110610f5e57fe5b906000526020600020015414155b1561106357600160008581548110610f8057fe5b90600052602060002090600d0201600a018281548110610f9c57fe5b90600052602060002001819055508273ffffffffffffffffffffffffffffffffffffffff16847fb8f8b523e94c2bd73565ee3355ceee32a218e758a4a6686377121fb2fc3196a160405160405180910390a360008481548110610ffb57fe5b90600052602060002090600d0201600a0180548060200260200160405190810160405280929190818152602001828054801561105657602002820191906000526020600020905b815481526020019060010190808311611042575b50505050509150506110e1565b8080600101915050610e81565b506000838154811061107e57fe5b90600052602060002090600d0201600a018054806020026020016040519081016040528092919081815260200182805480156110d957602002820191906000526020600020905b8154815260200190600101908083116110c5575b505050505090505b92915050565b6110f2828233611709565b6111225760016000838154811061110557fe5b90600052602060002090600d0201600b016001018190555061162f565b60016000838154811061113157fe5b90600052602060002090600d0201600101600101828154811061115057fe5b9060005260206000200181905550600080838154811061116c57fe5b90600052602060002090600d0201600101600201828154811061118b57fe5b90600052602060002001819055506060600083815481106111a857fe5b90600052602060002090600d02016008016001815481106111c557fe5b9060005260206000200182815481106111da57fe5b9060005260206000200180548060200260200160405190810160405280929190818152602001828054801561122e57602002820191906000526020600020905b81548152602001906001019080831161121a575b5050505050905060606000848154811061124457fe5b90600052602060002090600d020160080160028154811061126157fe5b90600052602060002001838154811061127657fe5b906000526020600020018054806020026020016040519081016040528092919081815260200182805480156112ca57602002820191906000526020600020905b8154815260200190600101908083116112b6575b505050505090506060600085815481106112e057fe5b90600052602060002090600d02016008016000815481106112fd57fe5b90600052602060002001848154811061131257fe5b9060005260206000200180548060200260200160405190810160405280929190818152602001828054801561136657602002820191906000526020600020905b815481526020019060010190808311611352575b5050505050905060606000868154811061137c57fe5b90600052602060002090600d020160080160038154811061139957fe5b9060005260206000200185815481106113ae57fe5b9060005260206000200180548060200260200160405190810160405280929190818152602001828054801561140257602002820191906000526020600020905b8154815260200190600101908083116113ee575b5050505050905060008090505b815181101561145c57600182828151811061142657fe5b6020026020010151141561144f57600183828151811061144257fe5b6020026020010181815250505b808060010191505061140f565b5060008090505b6000878154811061147057fe5b90600052602060002090600d020160080160018154811061148d57fe5b90600052602060002001805490508110156115bd5760018582815181106114b057fe5b6020026020010151141580156114d9575060018382815181106114cf57fe5b6020026020010151145b1561151b576001600088815481106114ed57fe5b90600052602060002090600d0201600101600001828154811061150c57fe5b90600052602060002001819055505b600184828151811061152957fe5b602002602001015114156115b05760016000888154811061154657fe5b90600052602060002090600d0201600101600201828154811061156557fe5b906000526020600020018190555060016000888154811061158257fe5b90600052602060002090600d020160010160000182815481106115a157fe5b90600052602060002001819055505b8080600101915050611463565b503373ffffffffffffffffffffffffffffffffffffffff1685877fd853302052b9b346cf4b175b34d36663cb511da3c0c7f221f21ec256fc7f625160405160405180910390a460016000878154811061161257fe5b90600052602060002090600d0201600b0160010181905550505050505b5050565b60606000838154811061164257fe5b90600052602060002090600d0201600501828154811061165e57fe5b906000526020600020018054600181600116156101000203166002900480601f0160208091040260200160405190810160405280929190818152602001828054600181600116156101000203166002900480156116fc5780601f106116d1576101008083540402835291602001916116fc565b820191906000526020600020905b8154815290600101906020018083116116df57829003601f168201915b5050505050905092915050565b600080848154811061171757fe5b90600052602060002090600d0201600401838154811061173357fe5b9060005260206000200160009054906101000a900473ffffffffffffffffffffffffffffffffffffffff1673ffffffffffffffffffffffffffffffffffffffff168273ffffffffffffffffffffffffffffffffffffffff16146117da5760046000858154811061179f57fe5b90600052602060002090600d0201600b0160000160006101000a81548163ffffffff021916908363ffffffff16021790555060009050611c5a565b60008085815481106117e857fe5b90600052602060002090600d0201600101600001848154811061180757fe5b906000526020600020015414156118625760016000858154811061182757fe5b90600052602060002090600d0201600b0160000160006101000a81548163ffffffff021916908363ffffffff16021790555060009050611c5a565b60008090505b6000858154811061187557fe5b90600052602060002090600d020160080160038154811061189257fe5b9060005260206000200180549050811015611a3a576060600086815481106118b657fe5b90600052602060002090600d02016008016003815481106118d357fe5b9060005260206000200182815481106118e857fe5b9060005260206000200180548060200260200160405190810160405280929190818152602001828054801561193c57602002820191906000526020600020905b815481526020019060010190808311611928575b50505050509050600181868151811061195157fe5b60200260200101511415611a2c57600080878154811061196d57fe5b90600052602060002090600d0201600101600101838154811061198c57fe5b90600052602060002001541480156119da57506001600087815481106119ae57fe5b90600052602060002090600d020160010160000183815481106119cd57fe5b9060005260206000200154145b15611a2b576002600087815481106119ee57fe5b90600052602060002090600d0201600b0160000160006101000a81548163ffffffff021916908363ffffffff160217905550600092505050611c5a565b5b508080600101915050611868565b5060008090505b60008581548110611a4e57fe5b90600052602060002090600d0201600801600481548110611a6b57fe5b9060005260206000200180549050811015611c1457606060008681548110611a8f57fe5b90600052602060002090600d0201600801600481548110611aac57fe5b906000526020600020018281548110611ac157fe5b90600052602060002001805480602002602001604051908101604052809291908181526020018280548015611b1557602002820191906000526020600020905b815481526020019060010190808311611b01575b505050505090506001818681518110611b2a57fe5b60200260200101511415611c0657600160008781548110611b4757fe5b90600052602060002090600d02016001016002018381548110611b6657fe5b9060005260206000200154148015611bb45750600160008781548110611b8857fe5b90600052602060002090600d02016001016000018381548110611ba757fe5b9060005260206000200154145b15611c0557600360008781548110611bc857fe5b90600052602060002090600d0201600b0160000160006101000a81548163ffffffff021916908363ffffffff160217905550600092505050611c5a565b5b508080600101915050611a41565b506000808581548110611c2357fe5b90600052602060002090600d0201600b0160000160006101000a81548163ffffffff021916908363ffffffff160217905550600190505b9392505050565b6000808381548110611c6f57fe5b90600052602060002090600d0201600b0160010154905092915050565b6000808381548110611c9a57fe5b90600052602060002090600d0201600b0160000160009054906101000a900463ffffffff16905092915050565b606060008281548110611cd657fe5b90600052602060002090600d0201600101600001805480602002602001604051908101604052809291908181526020018280548015611d3457602002820191906000526020600020905b815481526020019060010190808311611d20575b50505050509050919050565b606060008281548110611d4f57fe5b90600052602060002090600d0201600901805480602002602001604051908101604052809291908181526020018280548015611de057602002820191906000526020600020905b8160009054906101000a900473ffffffffffffffffffffffffffffffffffffffff1673ffffffffffffffffffffffffffffffffffffffff1681526020019060010190808311611d96575b50505050509050919050565b6000808281548110611dfa57fe5b90600052602060002090600d0201600801600081548110611e1757fe5b90600052602060002001805490509050919050565b6040518060400160405280600063ffffffff168152602001600081525090565b60405180606001604052806060815260200160608152602001606081525090565b60405180610140016040528060608152602001611e88612143565b815260200160608152602001606081526020016060815260200160008152602001606081526020016060815260200160608152602001611ec6612164565b81525090565b828054600181600116156101000203166002900490600052602060002090601f016020900481019282601f10611f0d57805160ff1916838001178555611f3b565b82800160010185558215611f3b579182015b82811115611f3a578251825591602001919060010190611f1f565b5b509050611f489190612184565b5090565b828054828255906000526020600020908101928215611f88579160200282015b82811115611f87578251825591602001919060010190611f6c565b5b509050611f959190612184565b5090565b828054828255906000526020600020908101928215612012579160200282015b828111156120115782518260006101000a81548173ffffffffffffffffffffffffffffffffffffffff021916908373ffffffffffffffffffffffffffffffffffffffff16021790555091602001919060010190611fb9565b5b50905061201f91906121a9565b5090565b828054828255906000526020600020908101928215612072579160200282015b82811115612071578251829080519060200190612061929190611ecc565b5091602001919060010190612043565b5b50905061207f91906121ec565b5090565b8280548282559060005260206000209081019282156120d2579160200282015b828111156120d15782518290805190602001906120c1929190612218565b50916020019190600101906120a3565b5b5090506120df9190612298565b5090565b828054828255906000526020600020908101928215612132579160200282015b828111156121315782518290805190602001906121219291906122c4565b5091602001919060010190612103565b5b50905061213f9190612324565b5090565b60405180606001604052806060815260200160608152602001606081525090565b6040518060400160405280600063ffffffff168152602001600081525090565b6121a691905b808211156121a257600081600090555060010161218a565b5090565b90565b6121e991905b808211156121e557600081816101000a81549073ffffffffffffffffffffffffffffffffffffffff0219169055506001016121af565b5090565b90565b61221591905b8082111561221157600081816122089190612350565b506001016121f2565b5090565b90565b828054600181600116156101000203166002900490600052602060002090601f016020900481019282601f1061225957805160ff1916838001178555612287565b82800160010185558215612287579182015b8281111561228657825182559160200191906001019061226b565b5b5090506122949190612184565b5090565b6122c191905b808211156122bd57600081816122b49190612398565b5060010161229e565b5090565b90565b828054828255906000526020600020908101928215612313579160200282015b82811115612312578251829080519060200190612302929190611f4c565b50916020019190600101906122e4565b5b50905061232091906123e0565b5090565b61234d91905b808211156123495760008181612340919061240c565b5060010161232a565b5090565b90565b50805460018160011615610100020316600290046000825580601f106123765750612395565b601f0160209004906000526020600020908101906123949190612184565b5b50565b50805460018160011615610100020316600290046000825580601f106123be57506123dd565b601f0160209004906000526020600020908101906123dc9190612184565b5b50565b61240991905b8082111561240557600081816123fc919061242d565b506001016123e6565b5090565b90565b508054600082559060005260206000209081019061242a91906123e0565b50565b508054600082559060005260206000209081019061244b9190612184565b50565b60008135905061245d81613270565b92915050565b600082601f83011261247457600080fd5b813561248761248282612f12565b612ee5565b915081818352602084019350602081019050838560208402820111156124ac57600080fd5b60005b838110156124dc57816124c2888261244e565b8452602084019350602083019250506001810190506124af565b5050505092915050565b600082601f8301126124f757600080fd5b813561250a61250582612f3a565b612ee5565b9150818183526020840193506020810190508360005b838110156125505781358601612536888261255a565b845260208401935060208301925050600181019050612520565b5050505092915050565b600082601f83011261256b57600080fd5b813561257e61257982612f62565b612ee5565b9150818183526020840193506020810190508360005b838110156125c457813586016125aa88826126b6565b845260208401935060208301925050600181019050612594565b5050505092915050565b600082601f8301126125df57600080fd5b81356125f26125ed82612f8a565b612ee5565b9150818183526020840193506020810190508360005b83811015612638578135860161261e88826126b6565b845260208401935060208301925050600181019050612608565b5050505092915050565b600082601f83011261265357600080fd5b813561266661266182612fb2565b612ee5565b9150818183526020840193506020810190508360005b838110156126ac57813586016126928882612739565b84526020840193506020830192505060018101905061267c565b5050505092915050565b600082601f8301126126c757600080fd5b81356126da6126d582612fda565b612ee5565b915081818352602084019350602081019050838560208402820111156126ff57600080fd5b60005b8381101561272f578161271588826127e1565b845260208401935060208301925050600181019050612702565b5050505092915050565b600082601f83011261274a57600080fd5b813561275d61275882613002565b612ee5565b9150808252602083016020830185838301111561277957600080fd5b61278483828461321d565b50505092915050565b600082601f83011261279e57600080fd5b81356127b16127ac8261302e565b612ee5565b915080825260208301602083018583830111156127cd57600080fd5b6127d883828461321d565b50505092915050565b6000813590506127f081613287565b92915050565b60008060008060008060c0878903121561280f57600080fd5b600087013567ffffffffffffffff81111561282957600080fd5b61283589828a016125ce565b965050602087013567ffffffffffffffff81111561285257600080fd5b61285e89828a01612463565b955050604087013567ffffffffffffffff81111561287b57600080fd5b61288789828a01612463565b945050606087013567ffffffffffffffff8111156128a457600080fd5b6128b089828a01612642565b935050608087013567ffffffffffffffff8111156128cd57600080fd5b6128d989828a0161278d565b92505060a087013567ffffffffffffffff8111156128f657600080fd5b61290289828a016124e6565b9150509295509295509295565b60006020828403121561292157600080fd5b600061292f848285016127e1565b91505092915050565b6000806040838503121561294b57600080fd5b6000612959858286016127e1565b925050602061296a8582860161244e565b9150509250929050565b6000806040838503121561298757600080fd5b6000612995858286016127e1565b92505060206129a6858286016127e1565b9150509250929050565b6000806000606084860312156129c557600080fd5b60006129d3868287016127e1565b93505060206129e4868287016127e1565b92505060406129f58682870161244e565b9150509250925092565b6000612a0b8383612a57565b60208301905092915050565b6000612a238383612c1b565b905092915050565b6000612a378383612c88565b905092915050565b6000612a4b8383612d6b565b60208301905092915050565b612a60816131c5565b82525050565b612a6f816131c5565b82525050565b6000612a80826130aa565b612a8a8185613143565b9350612a958361305a565b8060005b83811015612ac6578151612aad88826129ff565b9750612ab883613102565b925050600181019050612a99565b5085935050505092915050565b6000612ade826130b5565b612ae88185613154565b935083602082028501612afa8561306a565b8060005b85811015612b365784840389528151612b178582612a17565b9450612b228361310f565b925060208a01995050600181019050612afe565b50829750879550505050505092915050565b6000612b53826130c0565b612b5d8185613165565b935083602082028501612b6f8561307a565b8060005b85811015612bab5784840389528151612b8c8582612a2b565b9450612b978361311c565b925060208a01995050600181019050612b73565b50829750879550505050505092915050565b6000612bc8826130d6565b612bd28185613187565b9350612bdd8361309a565b8060005b83811015612c0e578151612bf58882612a3f565b9750612c0083613136565b925050600181019050612be1565b5085935050505092915050565b6000612c26826130cb565b612c308185613176565b9350612c3b8361308a565b8060005b83811015612c6c578151612c538882612a3f565b9750612c5e83613129565b925050600181019050612c3f565b5085935050505092915050565b612c82816131d7565b82525050565b6000612c93826130e1565b612c9d8185613198565b9350612cad81856020860161322c565b612cb68161325f565b840191505092915050565b6000612ccc826130f7565b612cd681856131a9565b9350612ce681856020860161322c565b612cef8161325f565b840191505092915050565b6000612d05826130ec565b612d0f81856131ba565b9350612d1f81856020860161322c565b80840191505092915050565b6000612d386013836131a9565b91507f4d75737420626520726f6c65206f776e65722e000000000000000000000000006000830152602082019050919050565b612d7481613203565b82525050565b612d8381613203565b82525050565b612d928161320d565b82525050565b6000612da48284612cfa565b915081905092915050565b6000602082019050612dc46000830184612a66565b92915050565b60006020820190508181036000830152612de48184612a75565b905092915050565b60006020820190508181036000830152612e068184612ad3565b905092915050565b60006020820190508181036000830152612e288184612b48565b905092915050565b60006020820190508181036000830152612e4a8184612bbd565b905092915050565b6000602082019050612e676000830184612c79565b92915050565b60006020820190508181036000830152612e878184612cc1565b905092915050565b60006020820190508181036000830152612ea881612d2b565b9050919050565b6000602082019050612ec46000830184612d7a565b92915050565b6000602082019050612edf6000830184612d89565b92915050565b6000604051905081810181811067ffffffffffffffff82111715612f0857600080fd5b8060405250919050565b600067ffffffffffffffff821115612f2957600080fd5b602082029050602081019050919050565b600067ffffffffffffffff821115612f5157600080fd5b602082029050602081019050919050565b600067ffffffffffffffff821115612f7957600080fd5b602082029050602081019050919050565b600067ffffffffffffffff821115612fa157600080fd5b602082029050602081019050919050565b600067ffffffffffffffff821115612fc957600080fd5b602082029050602081019050919050565b600067ffffffffffffffff821115612ff157600080fd5b602082029050602081019050919050565b600067ffffffffffffffff82111561301957600080fd5b601f19601f8301169050602081019050919050565b600067ffffffffffffffff82111561304557600080fd5b601f19601f8301169050602081019050919050565b6000819050602082019050919050565b6000819050602082019050919050565b6000819050602082019050919050565b6000819050602082019050919050565b6000819050602082019050919050565b600081519050919050565b600081519050919050565b600081519050919050565b600081519050919050565b600081519050919050565b600081519050919050565b600081519050919050565b600081519050919050565b6000602082019050919050565b6000602082019050919050565b6000602082019050919050565b6000602082019050919050565b6000602082019050919050565b600082825260208201905092915050565b600082825260208201905092915050565b600082825260208201905092915050565b600082825260208201905092915050565b600082825260208201905092915050565b600082825260208201905092915050565b600082825260208201905092915050565b600081905092915050565b60006131d0826131e3565b9050919050565b60008115159050919050565b600073ffffffffffffffffffffffffffffffffffffffff82169050919050565b6000819050919050565b600063ffffffff82169050919050565b82818337600083830152505050565b60005b8381101561324a57808201518184015260208101905061322f565b83811115613259576000848401525b50505050565b6000601f19601f8301169050919050565b613279816131c5565b811461328457600080fd5b50565b61329081613203565b811461329b57600080fd5b5056fea365627a7a7231582011b37dd6ad67e457a56c296837d85f83da2fad21de09eff8c735cae33ab465e06c6578706572696d656e74616cf564736f6c63430005100040",
  "source": "//pragma solidity 0.5.10;\npragma solidity ^0.5.16;\npragma experimental ABIEncoderV2;\n\ncontract PublicDCRManager {\n    // event declaration\n    event LogWorkflowCreation(\n        uint256 indexed workflowId,\n        string indexed workflowName,\n        address indexed creator\n    );\n\n    event LogExecution(\n        uint256 indexed workflowId,\n        uint256 indexed activityId,\n        address indexed executor\n    );\n\n    event LogWorkflowProjection(\n        uint256 indexed workflowId,\n        address indexed creator\n    );\n\n    // variable declarations.\n    struct Workflow {\n        string name;\n        Marking markings;\n        address[] roleAddresses;\n        string[] activityNames;\n        bytes[] ipfsActivityHashes;\n        uint256 numActivities; //number of included activities\n        uint256[][][] relations; //includesTo, excludesTo, responsesTo, conditionsFrom, milestonesFrom\n        //uint256[][] excludesTo;\n        //uint256[][] responsesTo;\n        //uint256[][] conditionsFrom;\n        //uint256[][] milestonesFrom;\n        \n        //ApprovalList approvalList;\n        address[] approvalAddresses;\n        uint[] approvalOutcomes;\n\n        Activity execStatus;\n    }\n    \n    struct Marking {\n        uint256[] included;\n        uint256[] executed;\n        uint256[] pending;\n    }\n\n    struct Activity {\n        uint32 canExecuteCheck;\n        uint256 status; //0=no, 1=yes\n    }\n    \n    //struct ApprovalList{\n        \n    //}\n\n    Workflow[] workflows;\n    \n    \n    \n\n    ///////////////// Misc ////////////////////////\n\n    /** @dev Getter for workflow name.\n      * @param workflowId index of the workflow (eg 0 for the first workflow).\n      * @return workflow name.\n      */\n      \n    function localProjectionApproval(uint256 workflowId, address myAddress) public payable returns (uint[] memory){\n        // get id of approvalList.addresses corresponding to msgSender. If (approval[id]==0): set to one;\n        \n        require(myAddress==msg.sender, \"Must be role owner.\");\n\n        for (\n            uint256 id = 0;\n            id < workflows[workflowId].approvalAddresses.length;\n            id++\n        ) {\n            if((myAddress == workflows[workflowId].approvalAddresses[id]) && workflows[workflowId].approvalOutcomes[id] != 1){\n                workflows[workflowId].approvalOutcomes[id] = 1;\n\n                emit LogWorkflowProjection(workflowId, myAddress);\n                return workflows[workflowId].approvalOutcomes;\n            }\n        }\n        \n        return workflows[workflowId].approvalOutcomes;\n        \n    }  \n     \n    \n    function getWorkflowName(uint256 workflowId)\n        public\n        view\n        returns (string memory)\n    {\n        return workflows[workflowId].name;\n    }\n\n    /** @dev Getter for workflow execution status.\n      * @param workflowId index of the workflow (eg 0 for the first workflow).\n      * @return execution status of the task: 0=ok, 1= \n      */\n    function getCanExecuteCheck(uint256 workflowId, uint256 activityId)\n        public\n        view\n        returns (uint32)\n    {\n        return workflows[workflowId].execStatus.canExecuteCheck;\n    }\n\n    function getStatus(uint256 workflowId, uint256 activityId)\n        public\n        view\n        returns (uint256)\n    {\n        return workflows[workflowId].execStatus.status;\n    }\n\n    function getWkfLength(uint256 workflowId) public view returns (uint256) {\n        return workflows[workflowId].relations[0].length;\n    }\n\n    function getIncluded(uint256 workflowId)\n        public\n        view\n        returns (uint256[] memory)\n    {\n        return workflows[workflowId].markings.included;\n    }\n\n    function getExecuted(uint256 workflowId)\n        public\n        view\n        returns (uint256[] memory)\n    {\n        return workflows[workflowId].markings.executed;\n    }\n\n    function getPending(uint256 workflowId)\n        public\n        view\n        returns (uint256[] memory)\n    {\n        return workflows[workflowId].markings.pending;\n    }\n\n    function getConditionsFrom(uint256 workflowId)\n        public\n        view\n        returns (uint256[][] memory)\n    {\n        return workflows[workflowId].relations[3];\n    }\n\n    function getHashes(uint256 workflowId)\n        public\n        view\n        returns (bytes[] memory)\n    {\n        return workflows[workflowId].ipfsActivityHashes;\n    }\n\n    function getActivityName(uint256 workflowId, uint256 activityId)\n        public\n        view\n        returns (string memory)\n    {\n        return workflows[workflowId].activityNames[activityId];\n    }\n\n    function getRoleAddresses(uint256 workflowId, uint256 activityId)\n        public\n        view\n        returns (address)\n    {\n        return workflows[workflowId].roleAddresses[activityId];\n    }\n\n    function getAddresses(uint256 workflowId)\n        public\n        view\n        returns (address[] memory)\n    {\n        return workflows[workflowId].approvalAddresses;\n    }\n\n\n    function getApprovalsOutcome(uint256 workflowId)\n        public\n        view\n        returns (uint[] memory)\n    {\n        return (workflows[workflowId].approvalOutcomes);\n    }\n\n    function hasApproved(uint256 workflowId, address myAddress)\n        public\n        view\n        returns (uint)\n    {\n        //uint res = 0;\n        for (\n            uint256 id = 0;\n            id < workflows[workflowId].approvalAddresses.length;\n            id++\n        ) {\n            if((myAddress == workflows[workflowId].approvalAddresses[id]) && workflows[workflowId].approvalOutcomes[id] == 1){\n                return 1;\n            }\n        }\n        return 0;\n    }\n\n    ///////////////// Utils /////////////////////////\n\n    function canExecute(uint256 workflowId, uint256 activityId, address msgSender)\n        public\n        returns (bool)\n    {\n        // check if msg.sender address is correct\n        if (msgSender != workflows[workflowId].roleAddresses[activityId]) {\n            workflows[workflowId].execStatus.canExecuteCheck = 4;\n            return false;\n        }\n        \n        // activity must be included\n        if (workflows[workflowId].markings.included[activityId] == 0) {\n            workflows[workflowId].execStatus.canExecuteCheck = 1;\n            return false;\n        }\n\n        // all conditions executed\n        for (\n            uint256 id = 0;\n            id < workflows[workflowId].relations[3].length;\n            id++\n        ) {\n            uint256[] memory conditionsRow =\n                workflows[workflowId].relations[3][id];\n            if (conditionsRow[activityId] == 1) {\n                if (\n                    (workflows[workflowId].markings.executed[id] == 0) &&\n                    (workflows[workflowId].markings.included[id] == 1)\n                ) {\n                    workflows[workflowId].execStatus.canExecuteCheck = 2;\n                    return false;\n                }\n            }\n        }\n\n        // no milestones pending\n        for (\n            uint256 id = 0;\n            id < workflows[workflowId].relations[4].length; // milestonesFrom\n            id++\n        ) {\n            uint256[] memory milestonesRow =\n                workflows[workflowId].relations[4][id];\n            if (milestonesRow[activityId] == 1) {\n                if (\n                    (workflows[workflowId].markings.pending[id] == 1) &&\n                    (workflows[workflowId].markings.included[id] == 1)\n                ) {\n                    workflows[workflowId].execStatus.canExecuteCheck = 3;\n                    return false;\n                }\n            }\n        }\n\n        workflows[workflowId].execStatus.canExecuteCheck = 0;\n        return true;\n    }\n\n    ///////////////// Main functions /////////////////////////\n    function checkCliquedIndex(uint256 workflowId, uint256 activityId)\n        public\n    //        bytes memory ipfsHash\n    {\n        if (!canExecute(workflowId, activityId, msg.sender)) {\n            workflows[workflowId].execStatus.status = 1;\n            //revert();\n        } else {\n            // executed activity\n            workflows[workflowId].markings.executed[activityId] = 1;\n            workflows[workflowId].markings.pending[activityId] = 0;\n            //            workflows[workflowId].ipfsActivityHashes[activityId] = ipfsHash;\n\n            uint256[] memory exclude_vect_check =\n                workflows[workflowId].relations[1][activityId]; // excludes\n            uint256[] memory response_vect_check =\n                workflows[workflowId].relations[2][activityId]; // responsesTo\n\n            // add include relations\n            uint256[] memory include_vect_check =\n                workflows[workflowId].relations[0][activityId]; // includes\n\n            // update with condition relations ok\n            uint256[] memory conditionsTo =\n                workflows[workflowId].relations[3][activityId]; //extract row condition\n            for (uint256 id = 0; id < conditionsTo.length; id++) {\n                if (conditionsTo[id] == 1) {\n                    include_vect_check[id] = 1;\n                }\n            }\n\n            for (\n                uint256 id = 0;\n                id < workflows[workflowId].relations[1].length; // excludesTo\n                id++\n            ) {\n                // exclude and include relations pass\n                // note includes happens after the exclude pass\n                // included = (included & ~excludesTo[activityId]) | includesTo[activityId];\n                if (\n                    (exclude_vect_check[id] != 1) &&\n                    (include_vect_check[id] == 1)\n                ) {\n                    workflows[workflowId].markings.included[id] = 1;\n                }\n\n                // response relations pass\n                // pending = (pending | responsesTo[activityId]);\n                if (response_vect_check[id] == 1) {\n                    workflows[workflowId].markings.pending[id] = 1;\n                    workflows[workflowId].markings.included[id] = 1;\n                }\n            }\n\n            emit LogExecution(workflowId, activityId, msg.sender);\n\n            workflows[workflowId].execStatus.status = 1;\n        }\n    }\n\n    function createWorkflow(\n        // packed state variables\n        uint256[][] memory markingStates, // included, executed, pending\n\n        //process information\n        address[] memory _roleAddresses,\n        address[] memory _approvalAddresses,\n\n        string[] memory _activityNames,\n        string memory _name,\n\n        // relations\n        uint256[][][] memory _relations\n        //uint256[][] memory _excludesTo,\n        //uint256[][] memory _responsesTo,\n        //uint256[][] memory _conditionsFrom,\n        //uint256[][] memory _milestonesFrom\n    ) public payable {\n        Activity memory execStatus = Activity(0, 0);\n        \n        //ApprovalList memory approval = ApprovalList(_approvalAddresses,new uint[](_approvalAddresses.length));\n        \n        Marking memory markings = Marking(markingStates[0],markingStates[1],markingStates[2]);\n        \n        //uint[][][] memory relations = new uint[][][];\n        \n        //relations.push(_includesTo);\n        //relations.push(_excludesTo);\n        //relations.push(_responsesTo);\n        //relations.push(_conditionsFrom);\n        //relations.push(_milestonesFrom);\n        \n        Workflow memory wf =\n            Workflow(\n                _name,\n                markings,\n                _roleAddresses,\n                _activityNames,\n                new bytes[](markingStates[0].length),\n                markingStates[0].length,\n                _relations,\n                _approvalAddresses,\n                new uint[](_approvalAddresses.length),\n                execStatus\n            );\n        workflows.push(wf);\n\n        emit LogWorkflowCreation(workflows.length - 1, wf.name, msg.sender);\n    }\n\n}\n",
  "sourcePath": "/home/vtlr2002/source/masterPlatform/contracts/PublicDCRManager.sol",
  "compiler": {
    "name": "solc",
    "version": "0.5.16+commit.9c3226ce.Emscripten.clang"
  },
  "schemaVersion": "3.2.4",
  "updatedAt": "2021-05-20T12:36:12.240Z",
  "networkType": "ethereum",
  "devdoc": {
    "methods": {
      "getCanExecuteCheck(uint256,uint256)": {
        "details": "Getter for workflow execution status.",
        "params": {
          "workflowId": "index of the workflow (eg 0 for the first workflow)."
        },
        "return": "execution status of the task: 0=ok, 1= "
      },
      "localProjectionApproval(uint256,address)": {
        "details": "Getter for workflow name.",
        "params": {
          "workflowId": "index of the workflow (eg 0 for the first workflow)."
        },
        "return": "workflow name."
      }
    }
  },
  "userdoc": {
    "methods": {
      "canExecute(uint256,uint256,address)": {
        "notice": "////////////// Utils /////////////////////////"
      },
      "checkCliquedIndex(uint256,uint256)": {
        "notice": "////////////// Main functions /////////////////////////"
      }
    }
  }
}