{
  "contractName": "PublicDCRManager",
  "abi": [
    {
      "anonymous": false,
      "inputs": [
        {
          "indexed": true,
          "internalType": "string",
          "name": "workflowHash",
          "type": "string"
        },
        {
          "indexed": true,
          "internalType": "uint256",
          "name": "activityId",
          "type": "uint256"
        },
        {
          "indexed": true,
          "internalType": "address",
          "name": "executor",
          "type": "address"
        }
      ],
      "name": "LogExecution",
      "type": "event"
    },
    {
      "anonymous": false,
      "inputs": [
        {
          "indexed": true,
          "internalType": "string",
          "name": "workflowHash",
          "type": "string"
        },
        {
          "indexed": true,
          "internalType": "address",
          "name": "creator",
          "type": "address"
        }
      ],
      "name": "LogWorkflowCreation",
      "type": "event"
    },
    {
      "anonymous": false,
      "inputs": [
        {
          "indexed": true,
          "internalType": "string",
          "name": "workflowHash",
          "type": "string"
        },
        {
          "indexed": true,
          "internalType": "address",
          "name": "creator",
          "type": "address"
        }
      ],
      "name": "LogWorkflowProjection",
      "type": "event"
    },
    {
      "anonymous": false,
      "inputs": [
        {
          "indexed": true,
          "internalType": "string",
          "name": "newWorkflowHash",
          "type": "string"
        },
        {
          "indexed": true,
          "internalType": "address",
          "name": "endorser",
          "type": "address"
        }
      ],
      "name": "RequestChange",
      "type": "event"
    },
    {
      "constant": true,
      "inputs": [],
      "name": "getAllWKHashes",
      "outputs": [
        {
          "internalType": "string[]",
          "name": "",
          "type": "string[]"
        }
      ],
      "payable": false,
      "stateMutability": "view",
      "type": "function"
    },
    {
      "constant": false,
      "inputs": [
        {
          "internalType": "string",
          "name": "_hash",
          "type": "string"
        },
        {
          "internalType": "string",
          "name": "x",
          "type": "string"
        }
      ],
      "name": "sendHash",
      "outputs": [],
      "payable": false,
      "stateMutability": "nonpayable",
      "type": "function"
    },
    {
      "constant": true,
      "inputs": [
        {
          "internalType": "string",
          "name": "_hash",
          "type": "string"
        }
      ],
      "name": "getHash",
      "outputs": [
        {
          "internalType": "string",
          "name": "x",
          "type": "string"
        }
      ],
      "payable": false,
      "stateMutability": "view",
      "type": "function"
    },
    {
      "constant": false,
      "inputs": [
        {
          "internalType": "string",
          "name": "_hash",
          "type": "string"
        },
        {
          "internalType": "address",
          "name": "myAddress",
          "type": "address"
        }
      ],
      "name": "fetchPublicView",
      "outputs": [
        {
          "internalType": "string",
          "name": "",
          "type": "string"
        }
      ],
      "payable": true,
      "stateMutability": "payable",
      "type": "function"
    },
    {
      "constant": false,
      "inputs": [
        {
          "internalType": "address[]",
          "name": "toNotify",
          "type": "address[]"
        },
        {
          "internalType": "string",
          "name": "_hash",
          "type": "string"
        }
      ],
      "name": "requestChange",
      "outputs": [],
      "payable": true,
      "stateMutability": "payable",
      "type": "function"
    },
    {
      "constant": true,
      "inputs": [
        {
          "internalType": "string",
          "name": "_hash",
          "type": "string"
        }
      ],
      "name": "getWorkflowName",
      "outputs": [
        {
          "internalType": "string",
          "name": "",
          "type": "string"
        }
      ],
      "payable": false,
      "stateMutability": "view",
      "type": "function"
    },
    {
      "constant": true,
      "inputs": [
        {
          "internalType": "string",
          "name": "_hash",
          "type": "string"
        },
        {
          "internalType": "uint256",
          "name": "activityId",
          "type": "uint256"
        }
      ],
      "name": "getCanExecuteCheck",
      "outputs": [
        {
          "internalType": "uint32",
          "name": "",
          "type": "uint32"
        }
      ],
      "payable": false,
      "stateMutability": "view",
      "type": "function"
    },
    {
      "constant": true,
      "inputs": [
        {
          "internalType": "string",
          "name": "_hash",
          "type": "string"
        },
        {
          "internalType": "uint256",
          "name": "activityId",
          "type": "uint256"
        }
      ],
      "name": "getStatus",
      "outputs": [
        {
          "internalType": "uint256",
          "name": "",
          "type": "uint256"
        }
      ],
      "payable": false,
      "stateMutability": "view",
      "type": "function"
    },
    {
      "constant": true,
      "inputs": [
        {
          "internalType": "string",
          "name": "_hash",
          "type": "string"
        }
      ],
      "name": "getWkfLength",
      "outputs": [
        {
          "internalType": "uint256",
          "name": "",
          "type": "uint256"
        }
      ],
      "payable": false,
      "stateMutability": "view",
      "type": "function"
    },
    {
      "constant": true,
      "inputs": [
        {
          "internalType": "string",
          "name": "_hash",
          "type": "string"
        }
      ],
      "name": "getIncluded",
      "outputs": [
        {
          "internalType": "uint256[]",
          "name": "",
          "type": "uint256[]"
        }
      ],
      "payable": false,
      "stateMutability": "view",
      "type": "function"
    },
    {
      "constant": true,
      "inputs": [
        {
          "internalType": "string",
          "name": "_hash",
          "type": "string"
        }
      ],
      "name": "getExecuted",
      "outputs": [
        {
          "internalType": "uint256[]",
          "name": "",
          "type": "uint256[]"
        }
      ],
      "payable": false,
      "stateMutability": "view",
      "type": "function"
    },
    {
      "constant": true,
      "inputs": [
        {
          "internalType": "string",
          "name": "_hash",
          "type": "string"
        }
      ],
      "name": "getPending",
      "outputs": [
        {
          "internalType": "uint256[]",
          "name": "",
          "type": "uint256[]"
        }
      ],
      "payable": false,
      "stateMutability": "view",
      "type": "function"
    },
    {
      "constant": true,
      "inputs": [
        {
          "internalType": "string",
          "name": "_hash",
          "type": "string"
        }
      ],
      "name": "getConditionsFrom",
      "outputs": [
        {
          "internalType": "uint256[][]",
          "name": "",
          "type": "uint256[][]"
        }
      ],
      "payable": false,
      "stateMutability": "view",
      "type": "function"
    },
    {
      "constant": true,
      "inputs": [
        {
          "internalType": "string",
          "name": "_hash",
          "type": "string"
        }
      ],
      "name": "getHashes",
      "outputs": [
        {
          "internalType": "bytes[]",
          "name": "",
          "type": "bytes[]"
        }
      ],
      "payable": false,
      "stateMutability": "view",
      "type": "function"
    },
    {
      "constant": true,
      "inputs": [
        {
          "internalType": "string",
          "name": "_hash",
          "type": "string"
        },
        {
          "internalType": "uint256",
          "name": "activityId",
          "type": "uint256"
        }
      ],
      "name": "getActivityName",
      "outputs": [
        {
          "internalType": "string",
          "name": "",
          "type": "string"
        }
      ],
      "payable": false,
      "stateMutability": "view",
      "type": "function"
    },
    {
      "constant": true,
      "inputs": [
        {
          "internalType": "string",
          "name": "_hash",
          "type": "string"
        },
        {
          "internalType": "uint256",
          "name": "activityId",
          "type": "uint256"
        }
      ],
      "name": "getRoleAddresses",
      "outputs": [
        {
          "internalType": "address",
          "name": "",
          "type": "address"
        }
      ],
      "payable": false,
      "stateMutability": "view",
      "type": "function"
    },
    {
      "constant": true,
      "inputs": [
        {
          "internalType": "string",
          "name": "_hash",
          "type": "string"
        }
      ],
      "name": "getAddresses",
      "outputs": [
        {
          "internalType": "address[]",
          "name": "",
          "type": "address[]"
        }
      ],
      "payable": false,
      "stateMutability": "view",
      "type": "function"
    },
    {
      "constant": true,
      "inputs": [
        {
          "internalType": "string",
          "name": "_hash",
          "type": "string"
        }
      ],
      "name": "getApprovalsOutcome",
      "outputs": [
        {
          "internalType": "uint256[]",
          "name": "",
          "type": "uint256[]"
        }
      ],
      "payable": false,
      "stateMutability": "view",
      "type": "function"
    },
    {
      "constant": true,
      "inputs": [
        {
          "internalType": "string",
          "name": "_hash",
          "type": "string"
        },
        {
          "internalType": "address",
          "name": "myAddress",
          "type": "address"
        }
      ],
      "name": "hasApproved",
      "outputs": [
        {
          "internalType": "uint256",
          "name": "",
          "type": "uint256"
        }
      ],
      "payable": false,
      "stateMutability": "view",
      "type": "function"
    },
    {
      "constant": false,
      "inputs": [
        {
          "internalType": "string",
          "name": "_hash",
          "type": "string"
        },
        {
          "internalType": "uint256",
          "name": "activityId",
          "type": "uint256"
        },
        {
          "internalType": "address",
          "name": "msgSender",
          "type": "address"
        }
      ],
      "name": "canExecute",
      "outputs": [
        {
          "internalType": "bool",
          "name": "",
          "type": "bool"
        }
      ],
      "payable": false,
      "stateMutability": "nonpayable",
      "type": "function"
    },
    {
      "constant": false,
      "inputs": [
        {
          "internalType": "string",
          "name": "_hash",
          "type": "string"
        },
        {
          "internalType": "uint256",
          "name": "activityId",
          "type": "uint256"
        }
      ],
      "name": "checkCliquedIndex",
      "outputs": [],
      "payable": false,
      "stateMutability": "nonpayable",
      "type": "function"
    },
    {
      "constant": false,
      "inputs": [
        {
          "internalType": "uint256[][]",
          "name": "markingStates",
          "type": "uint256[][]"
        },
        {
          "internalType": "string",
          "name": "_ipfsViewHash",
          "type": "string"
        },
        {
          "internalType": "address[]",
          "name": "_roleAddresses",
          "type": "address[]"
        },
        {
          "internalType": "address[]",
          "name": "_approvalAddresses",
          "type": "address[]"
        },
        {
          "internalType": "string[]",
          "name": "_activityNames",
          "type": "string[]"
        },
        {
          "internalType": "string",
          "name": "_name",
          "type": "string"
        },
        {
          "internalType": "uint256[][][]",
          "name": "_relations",
          "type": "uint256[][][]"
        }
      ],
      "name": "uploadPublicView",
      "outputs": [],
      "payable": true,
      "stateMutability": "payable",
      "type": "function"
    },
    {
      "constant": false,
      "inputs": [
        {
          "internalType": "string",
          "name": "_hash",
          "type": "string"
        },
        {
          "internalType": "address",
          "name": "myAddress",
          "type": "address"
        }
      ],
      "name": "confirmProjection",
      "outputs": [
        {
          "internalType": "uint256[]",
          "name": "",
          "type": "uint256[]"
        }
      ],
      "payable": true,
      "stateMutability": "payable",
      "type": "function"
    }
  ],
  "bytecode": "0x608060405234801561001057600080fd5b50613e42806100206000396000f3fe6080604052600436106101405760003560e01c80636342b1c2116100b65780638dce7dde1161006f5780638dce7dde146104e25780639694f9fb1461051f578063cb2c95141461055c578063cb89cdfd14610585578063e9b2b886146105c2578063f89a3b10146105ff57610140565b80636342b1c2146103955780636a554342146103d25780636b9884dc1461040f5780636cb4e3451461044c5780636f384bfc14610489578063827f9511146104a557610140565b80632c3c0f9c116101085780632c3c0f9c1461024857806339b64c301461028557806340aa9370146102c257806342b759fc146102de5780634e894b321461031b5780635b6beeb91461035857610140565b806302413fd4146101455780630c48ae99146101825780630ce36024146101ab57806318008e57146101db5780631fe1317b1461020b575b600080fd5b34801561015157600080fd5b5061016c600480360361016791908101906131ce565b61062a565b6040516101799190613927565b60405180910390f35b34801561018e57600080fd5b506101a960048036036101a49190810190613263565b6106a6565b005b6101c560048036036101c0919081019061320f565b6106e0565b6040516101d29190613927565b60405180910390f35b6101f560048036036101f0919081019061320f565b610a1e565b6040516102029190613964565b60405180910390f35b34801561021757600080fd5b50610232600480360361022d91908101906131ce565b610c98565b60405161023f91906139c6565b60405180910390f35b34801561025457600080fd5b5061026f600480360361026a9190810190613323565b610cdc565b60405161027c9190613949565b60405180910390f35b34801561029157600080fd5b506102ac60048036036102a791908101906131ce565b611261565b6040516102b9919061389f565b60405180910390f35b6102dc60048036036102d7919081019061301c565b611310565b005b3480156102ea57600080fd5b50610305600480360361030091908101906132cf565b61139d565b60405161031291906139c6565b60405180910390f35b34801561032757600080fd5b50610342600480360361033d91908101906131ce565b6113cc565b60405161034f91906138c1565b60405180910390f35b34801561036457600080fd5b5061037f600480360361037a91908101906131ce565b6114a2565b60405161038c9190613964565b60405180910390f35b3480156103a157600080fd5b506103bc60048036036103b791908101906131ce565b611565565b6040516103c99190613927565b60405180910390f35b3480156103de57600080fd5b506103f960048036036103f491908101906132cf565b6115e1565b6040516104069190613964565b60405180910390f35b34801561041b57600080fd5b50610436600480360361043191908101906132cf565b6116ba565b60405161044391906139e1565b60405180910390f35b34801561045857600080fd5b50610473600480360361046e919081019061320f565b6116f9565b60405161048091906139c6565b60405180910390f35b6104a3600480360361049e9190810190613088565b61181b565b005b3480156104b157600080fd5b506104cc60048036036104c791908101906132cf565b611c38565b6040516104d99190613884565b60405180910390f35b3480156104ee57600080fd5b50610509600480360361050491908101906131ce565b611c99565b6040516105169190613964565b60405180910390f35b34801561052b57600080fd5b50610546600480360361054191908101906131ce565b611d5c565b60405161055391906138e3565b60405180910390f35b34801561056857600080fd5b50610583600480360361057e91908101906132cf565b611e66565b005b34801561059157600080fd5b506105ac60048036036105a791908101906131ce565b6123e6565b6040516105b99190613927565b60405180910390f35b3480156105ce57600080fd5b506105e960048036036105e491908101906131ce565b612462565b6040516105f69190613927565b60405180910390f35b34801561060b57600080fd5b506106146124db565b6040516106219190613905565b60405180910390f35b606060018260405161063c919061386d565b908152602001604051809103902060020160000180548060200260200160405190810160405280929190818152602001828054801561069a57602002820191906000526020600020905b815481526020019060010190808311610686575b50505050509050919050565b806001836040516106b7919061386d565b908152602001604051809103902060010190805190602001906106db9291906125c4565b505050565b60603373ffffffffffffffffffffffffffffffffffffffff168273ffffffffffffffffffffffffffffffffffffffff1614610750576040517f08c379a000000000000000000000000000000000000000000000000000000000815260040161074790613986565b60405180910390fd5b60008090505b600184604051610766919061386d565b9081526020016040518091039020600a01805490508110156109a457600184604051610792919061386d565b9081526020016040518091039020600a0181815481106107ae57fe5b9060005260206000200160009054906101000a900473ffffffffffffffffffffffffffffffffffffffff1673ffffffffffffffffffffffffffffffffffffffff168373ffffffffffffffffffffffffffffffffffffffff1614801561084857506001808560405161081f919061386d565b9081526020016040518091039020600c01828154811061083b57fe5b9060005260206000200154145b15610997576001808560405161085e919061386d565b9081526020016040518091039020600b01828154811061087a57fe5b906000526020600020015414610996576001808560405161089b919061386d565b9081526020016040518091039020600b0182815481106108b757fe5b90600052602060002001819055508273ffffffffffffffffffffffffffffffffffffffff16846040516108ea919061386d565b60405180910390207fef93748ef353323feced9a53b1f9433297bf50235a9d5aa97783d3f30d4682e460405160405180910390a360018460405161092e919061386d565b9081526020016040518091039020600b0180548060200260200160405190810160405280929190818152602001828054801561098957602002820191906000526020600020905b815481526020019060010190808311610975575b5050505050915050610a18565b5b8080600101915050610756565b506001836040516109b5919061386d565b9081526020016040518091039020600b01805480602002602001604051908101604052809291908181526020018280548015610a1057602002820191906000526020600020905b8154815260200190600101908083116109fc575b505050505090505b92915050565b60608173ffffffffffffffffffffffffffffffffffffffff163373ffffffffffffffffffffffffffffffffffffffff1614610a8e576040517f08c379a0000000000000000000000000000000000000000000000000000000008152600401610a85906139a6565b60405180910390fd5b60008090505b600184604051610aa4919061386d565b9081526020016040518091039020600a0180549050811015610bd557600184604051610ad0919061386d565b9081526020016040518091039020600a018181548110610aec57fe5b9060005260206000200160009054906101000a900473ffffffffffffffffffffffffffffffffffffffff1673ffffffffffffffffffffffffffffffffffffffff168373ffffffffffffffffffffffffffffffffffffffff16148015610b87575060018085604051610b5d919061386d565b9081526020016040518091039020600c018281548110610b7957fe5b906000526020600020015414155b15610bc85760018085604051610b9d919061386d565b9081526020016040518091039020600c018281548110610bb957fe5b90600052602060002001819055505b8080600101915050610a94565b50600183604051610be6919061386d565b90815260200160405180910390206001018054600181600116156101000203166002900480601f016020809104026020016040519081016040528092919081815260200182805460018160011615610100020316600290048015610c8b5780601f10610c6057610100808354040283529160200191610c8b565b820191906000526020600020905b815481529060010190602001808311610c6e57829003601f168201915b5050505050905092915050565b6000600182604051610caa919061386d565b9081526020016040518091039020600901600081548110610cc757fe5b90600052602060002001805490509050919050565b6000600184604051610cee919061386d565b90815260200160405180910390206005018381548110610d0a57fe5b9060005260206000200160009054906101000a900473ffffffffffffffffffffffffffffffffffffffff1673ffffffffffffffffffffffffffffffffffffffff168273ffffffffffffffffffffffffffffffffffffffff1614610db4576004600185604051610d79919061386d565b9081526020016040518091039020600d0160000160006101000a81548163ffffffff021916908363ffffffff1602179055506000905061125a565b6000600185604051610dc6919061386d565b90815260200160405180910390206002016000018481548110610de557fe5b90600052602060002001541415610e425760018085604051610e07919061386d565b9081526020016040518091039020600d0160000160006101000a81548163ffffffff021916908363ffffffff1602179055506000905061125a565b60008090505b600185604051610e58919061386d565b9081526020016040518091039020600901600381548110610e7557fe5b9060005260206000200180549050811015611029576060600186604051610e9c919061386d565b9081526020016040518091039020600901600381548110610eb957fe5b906000526020600020018281548110610ece57fe5b90600052602060002001805480602002602001604051908101604052809291908181526020018280548015610f2257602002820191906000526020600020905b815481526020019060010190808311610f0e575b505050505090506001818681518110610f3757fe5b6020026020010151141561101b576000600187604051610f57919061386d565b90815260200160405180910390206002016001018381548110610f7657fe5b9060005260206000200154148015610fc6575060018087604051610f9a919061386d565b90815260200160405180910390206002016000018381548110610fb957fe5b9060005260206000200154145b1561101a576002600187604051610fdd919061386d565b9081526020016040518091039020600d0160000160006101000a81548163ffffffff021916908363ffffffff16021790555060009250505061125a565b5b508080600101915050610e48565b5060008090505b600185604051611040919061386d565b908152602001604051809103902060090160048154811061105d57fe5b9060005260206000200180549050811015611210576060600186604051611084919061386d565b90815260200160405180910390206009016004815481106110a157fe5b9060005260206000200182815481106110b657fe5b9060005260206000200180548060200260200160405190810160405280929190818152602001828054801561110a57602002820191906000526020600020905b8154815260200190600101908083116110f6575b50505050509050600181868151811061111f57fe5b60200260200101511415611202576001808760405161113e919061386d565b9081526020016040518091039020600201600201838154811061115d57fe5b90600052602060002001541480156111ad575060018087604051611181919061386d565b908152602001604051809103902060020160000183815481106111a057fe5b9060005260206000200154145b156112015760036001876040516111c4919061386d565b9081526020016040518091039020600d0160000160006101000a81548163ffffffff021916908363ffffffff16021790555060009250505061125a565b5b508080600101915050611030565b506000600185604051611223919061386d565b9081526020016040518091039020600d0160000160006101000a81548163ffffffff021916908363ffffffff160217905550600190505b9392505050565b6060600182604051611273919061386d565b9081526020016040518091039020600a0180548060200260200160405190810160405280929190818152602001828054801561130457602002820191906000526020600020905b8160009054906101000a900473ffffffffffffffffffffffffffffffffffffffff1673ffffffffffffffffffffffffffffffffffffffff16815260200190600101908083116112ba575b50505050509050919050565b60008090505b82518110156113985782818151811061132b57fe5b602002602001015173ffffffffffffffffffffffffffffffffffffffff1682604051611357919061386d565b60405180910390207fe6dc0c66ee9f625b6a92c30382e899cc40be591cf5cfcfa234f9e021d6b5db6360405160405180910390a38080600101915050611316565b505050565b60006001836040516113af919061386d565b9081526020016040518091039020600d0160010154905092915050565b60606001826040516113de919061386d565b90815260200160405180910390206009016003815481106113fb57fe5b90600052602060002001805480602002602001604051908101604052809291908181526020016000905b828210156114975783829060005260206000200180548060200260200160405190810160405280929190818152602001828054801561148357602002820191906000526020600020905b81548152602001906001019080831161146f575b505050505081526020019060010190611425565b505050509050919050565b60606001826040516114b4919061386d565b90815260200160405180910390206001018054600181600116156101000203166002900480601f0160208091040260200160405190810160405280929190818152602001828054600181600116156101000203166002900480156115595780601f1061152e57610100808354040283529160200191611559565b820191906000526020600020905b81548152906001019060200180831161153c57829003601f168201915b50505050509050919050565b6060600182604051611577919061386d565b90815260200160405180910390206002016001018054806020026020016040519081016040528092919081815260200182805480156115d557602002820191906000526020600020905b8154815260200190600101908083116115c1575b50505050509050919050565b60606001836040516115f3919061386d565b9081526020016040518091039020600601828154811061160f57fe5b906000526020600020018054600181600116156101000203166002900480601f0160208091040260200160405190810160405280929190818152602001828054600181600116156101000203166002900480156116ad5780601f10611682576101008083540402835291602001916116ad565b820191906000526020600020905b81548152906001019060200180831161169057829003601f168201915b5050505050905092915050565b60006001836040516116cc919061386d565b9081526020016040518091039020600d0160000160009054906101000a900463ffffffff16905092915050565b600080600090505b600184604051611711919061386d565b9081526020016040518091039020600a018054905081101561180f5760018460405161173d919061386d565b9081526020016040518091039020600a01818154811061175957fe5b9060005260206000200160009054906101000a900473ffffffffffffffffffffffffffffffffffffffff1673ffffffffffffffffffffffffffffffffffffffff168373ffffffffffffffffffffffffffffffffffffffff161480156117f35750600180856040516117ca919061386d565b9081526020016040518091039020600b0182815481106117e657fe5b9060005260206000200154145b15611802576001915050611815565b8080600101915050611701565b50600090505b92915050565b611823612644565b6040518060400160405280600063ffffffff1681526020016000815250905061184a612664565b60405180606001604052808a60008151811061186257fe5b602002602001015181526020018a60018151811061187c57fe5b602002602001015181526020018a60028151811061189657fe5b602002602001015181525090506118ab612685565b6040518061018001604052808681526020018a81526020018381526020018981526020018781526020018b6000815181106118e257fe5b60200260200101515160405190808252806020026020018201604052801561191e57816020015b60608152602001906001900390816119095790505b5081526020018b60008151811061193157fe5b6020026020010151518152602001858152602001888152602001885160405190808252806020026020018201604052801561197b5781602001602082028038833980820191505090505b50815260200188516040519080825280602002602001820160405280156119b15781602001602082028038833980820191505090505b5081526020018481525090508060018a6040516119ce919061386d565b908152602001604051809103902060008201518160000190805190602001906119f89291906126f2565b506020820151816001019080519060200190611a159291906126f2565b506040820151816002016000820151816000019080519060200190611a3b929190612772565b506020820151816001019080519060200190611a58929190612772565b506040820151816002019080519060200190611a75929190612772565b5050506060820151816005019080519060200190611a949291906127bf565b506080820151816006019080519060200190611ab1929190612849565b5060a0820151816007019080519060200190611ace9291906128a9565b5060c0820151816008015560e0820151816009019080519060200190611af5929190612909565b5061010082015181600a019080519060200190611b139291906127bf565b5061012082015181600b019080519060200190611b31929190612772565b5061014082015181600c019080519060200190611b4f929190612772565b5061016082015181600d0160008201518160000160006101000a81548163ffffffff021916908363ffffffff1602179055506020820151816001015550509050506000899080600181540180825580915050906001820390600052602060002001600090919290919091509080519060200190611bcd9291906125c4565b50503373ffffffffffffffffffffffffffffffffffffffff168160200151604051611bf89190613856565b60405180910390207fc42dc8c6712875975b09ece703779e4ed83179500da5c8776b1eab681e04c7fa60405160405180910390a350505050505050505050565b6000600183604051611c4a919061386d565b90815260200160405180910390206005018281548110611c6657fe5b9060005260206000200160009054906101000a900473ffffffffffffffffffffffffffffffffffffffff16905092915050565b6060600182604051611cab919061386d565b90815260200160405180910390206000018054600181600116156101000203166002900480601f016020809104026020016040519081016040528092919081815260200182805460018160011615610100020316600290048015611d505780601f10611d2557610100808354040283529160200191611d50565b820191906000526020600020905b815481529060010190602001808311611d3357829003601f168201915b50505050509050919050565b6060600182604051611d6e919061386d565b9081526020016040518091039020600701805480602002602001604051908101604052809291908181526020016000905b82821015611e5b578382906000526020600020018054600181600116156101000203166002900480601f016020809104026020016040519081016040528092919081815260200182805460018160011615610100020316600290048015611e475780601f10611e1c57610100808354040283529160200191611e47565b820191906000526020600020905b815481529060010190602001808311611e2a57829003601f168201915b505050505081526020019060010190611d9f565b505050509050919050565b611e71828233610cdc565b611ea35760018083604051611e86919061386d565b9081526020016040518091039020600d01600101819055506123e2565b60018083604051611eb4919061386d565b90815260200160405180910390206002016001018281548110611ed357fe5b90600052602060002001819055506000600183604051611ef3919061386d565b90815260200160405180910390206002016002018281548110611f1257fe5b90600052602060002001819055506060600183604051611f32919061386d565b9081526020016040518091039020600901600181548110611f4f57fe5b906000526020600020018281548110611f6457fe5b90600052602060002001805480602002602001604051908101604052809291908181526020018280548015611fb857602002820191906000526020600020905b815481526020019060010190808311611fa4575b505050505090506060600184604051611fd1919061386d565b9081526020016040518091039020600901600281548110611fee57fe5b90600052602060002001838154811061200357fe5b9060005260206000200180548060200260200160405190810160405280929190818152602001828054801561205757602002820191906000526020600020905b815481526020019060010190808311612043575b505050505090506060600185604051612070919061386d565b908152602001604051809103902060090160008154811061208d57fe5b9060005260206000200184815481106120a257fe5b906000526020600020018054806020026020016040519081016040528092919081815260200182805480156120f657602002820191906000526020600020905b8154815260200190600101908083116120e2575b50505050509050606060018660405161210f919061386d565b908152602001604051809103902060090160038154811061212c57fe5b90600052602060002001858154811061214157fe5b9060005260206000200180548060200260200160405190810160405280929190818152602001828054801561219557602002820191906000526020600020905b815481526020019060010190808311612181575b5050505050905060008090505b81518110156121ef5760018282815181106121b957fe5b602002602001015114156121e25760018382815181106121d557fe5b6020026020010181815250505b80806001019150506121a2565b5060008090505b600187604051612206919061386d565b908152602001604051809103902060090160018154811061222357fe5b906000526020600020018054905081101561235957600185828151811061224657fe5b60200260200101511415801561226f5750600183828151811061226557fe5b6020026020010151145b156122b35760018088604051612285919061386d565b908152602001604051809103902060020160000182815481106122a457fe5b90600052602060002001819055505b60018482815181106122c157fe5b6020026020010151141561234c57600180886040516122e0919061386d565b908152602001604051809103902060020160020182815481106122ff57fe5b90600052602060002001819055506001808860405161231e919061386d565b9081526020016040518091039020600201600001828154811061233d57fe5b90600052602060002001819055505b80806001019150506121f6565b503373ffffffffffffffffffffffffffffffffffffffff168587604051612380919061386d565b60405180910390207fdcc419af849b47f6b77090192f4d45ebaef7057509a466bbbce51f396b898c0360405160405180910390a4600180876040516123c5919061386d565b9081526020016040518091039020600d0160010181905550505050505b5050565b60606001826040516123f8919061386d565b908152602001604051809103902060020160020180548060200260200160405190810160405280929190818152602001828054801561245657602002820191906000526020600020905b815481526020019060010190808311612442575b50505050509050919050565b6060600182604051612474919061386d565b9081526020016040518091039020600b018054806020026020016040519081016040528092919081815260200182805480156124cf57602002820191906000526020600020905b8154815260200190600101908083116124bb575b50505050509050919050565b60606000805480602002602001604051908101604052809291908181526020016000905b828210156125bb578382906000526020600020018054600181600116156101000203166002900480601f0160208091040260200160405190810160405280929190818152602001828054600181600116156101000203166002900480156125a75780601f1061257c576101008083540402835291602001916125a7565b820191906000526020600020905b81548152906001019060200180831161258a57829003601f168201915b5050505050815260200190600101906124ff565b50505050905090565b828054600181600116156101000203166002900490600052602060002090601f016020900481019282601f1061260557805160ff1916838001178555612633565b82800160010185558215612633579182015b82811115612632578251825591602001919060010190612617565b5b5090506126409190612969565b5090565b6040518060400160405280600063ffffffff168152602001600081525090565b60405180606001604052806060815260200160608152602001606081525090565b60405180610180016040528060608152602001606081526020016126a761298e565b815260200160608152602001606081526020016060815260200160008152602001606081526020016060815260200160608152602001606081526020016126ec6129af565b81525090565b828054600181600116156101000203166002900490600052602060002090601f016020900481019282601f1061273357805160ff1916838001178555612761565b82800160010185558215612761579182015b82811115612760578251825591602001919060010190612745565b5b50905061276e9190612969565b5090565b8280548282559060005260206000209081019282156127ae579160200282015b828111156127ad578251825591602001919060010190612792565b5b5090506127bb9190612969565b5090565b828054828255906000526020600020908101928215612838579160200282015b828111156128375782518260006101000a81548173ffffffffffffffffffffffffffffffffffffffff021916908373ffffffffffffffffffffffffffffffffffffffff160217905550916020019190600101906127df565b5b50905061284591906129cf565b5090565b828054828255906000526020600020908101928215612898579160200282015b828111156128975782518290805190602001906128879291906126f2565b5091602001919060010190612869565b5b5090506128a59190612a12565b5090565b8280548282559060005260206000209081019282156128f8579160200282015b828111156128f75782518290805190602001906128e7929190612a3e565b50916020019190600101906128c9565b5b5090506129059190612abe565b5090565b828054828255906000526020600020908101928215612958579160200282015b82811115612957578251829080519060200190612947929190612aea565b5091602001919060010190612929565b5b5090506129659190612b4a565b5090565b61298b91905b8082111561298757600081600090555060010161296f565b5090565b90565b60405180606001604052806060815260200160608152602001606081525090565b6040518060400160405280600063ffffffff168152602001600081525090565b612a0f91905b80821115612a0b57600081816101000a81549073ffffffffffffffffffffffffffffffffffffffff0219169055506001016129d5565b5090565b90565b612a3b91905b80821115612a375760008181612a2e9190612b76565b50600101612a18565b5090565b90565b828054600181600116156101000203166002900490600052602060002090601f016020900481019282601f10612a7f57805160ff1916838001178555612aad565b82800160010185558215612aad579182015b82811115612aac578251825591602001919060010190612a91565b5b509050612aba9190612969565b5090565b612ae791905b80821115612ae35760008181612ada9190612bbe565b50600101612ac4565b5090565b90565b828054828255906000526020600020908101928215612b39579160200282015b82811115612b38578251829080519060200190612b28929190612772565b5091602001919060010190612b0a565b5b509050612b469190612c06565b5090565b612b7391905b80821115612b6f5760008181612b669190612c32565b50600101612b50565b5090565b90565b50805460018160011615610100020316600290046000825580601f10612b9c5750612bbb565b601f016020900490600052602060002090810190612bba9190612969565b5b50565b50805460018160011615610100020316600290046000825580601f10612be45750612c03565b601f016020900490600052602060002090810190612c029190612969565b5b50565b612c2f91905b80821115612c2b5760008181612c229190612c53565b50600101612c0c565b5090565b90565b5080546000825590600052602060002090810190612c509190612c06565b50565b5080546000825590600052602060002090810190612c719190612969565b50565b600081359050612c8381613dd1565b92915050565b600082601f830112612c9a57600080fd5b8135612cad612ca882613a29565b6139fc565b91508181835260208401935060208101905083856020840282011115612cd257600080fd5b60005b83811015612d025781612ce88882612c74565b845260208401935060208301925050600181019050612cd5565b5050505092915050565b600082601f830112612d1d57600080fd5b8135612d30612d2b82613a51565b6139fc565b9150818183526020840193506020810190508360005b83811015612d765781358601612d5c8882612d80565b845260208401935060208301925050600181019050612d46565b5050505092915050565b600082601f830112612d9157600080fd5b8135612da4612d9f82613a79565b6139fc565b9150818183526020840193506020810190508360005b83811015612dea5781358601612dd08882612edc565b845260208401935060208301925050600181019050612dba565b5050505092915050565b600082601f830112612e0557600080fd5b8135612e18612e1382613aa1565b6139fc565b9150818183526020840193506020810190508360005b83811015612e5e5781358601612e448882612edc565b845260208401935060208301925050600181019050612e2e565b5050505092915050565b600082601f830112612e7957600080fd5b8135612e8c612e8782613ac9565b6139fc565b9150818183526020840193506020810190508360005b83811015612ed25781358601612eb88882612f5f565b845260208401935060208301925050600181019050612ea2565b5050505092915050565b600082601f830112612eed57600080fd5b8135612f00612efb82613af1565b6139fc565b91508181835260208401935060208101905083856020840282011115612f2557600080fd5b60005b83811015612f555781612f3b8882613007565b845260208401935060208301925050600181019050612f28565b5050505092915050565b600082601f830112612f7057600080fd5b8135612f83612f7e82613b19565b6139fc565b91508082526020830160208301858383011115612f9f57600080fd5b612faa838284613d7e565b50505092915050565b600082601f830112612fc457600080fd5b8135612fd7612fd282613b45565b6139fc565b91508082526020830160208301858383011115612ff357600080fd5b612ffe838284613d7e565b50505092915050565b60008135905061301681613de8565b92915050565b6000806040838503121561302f57600080fd5b600083013567ffffffffffffffff81111561304957600080fd5b61305585828601612c89565b925050602083013567ffffffffffffffff81111561307257600080fd5b61307e85828601612fb3565b9150509250929050565b600080600080600080600060e0888a0312156130a357600080fd5b600088013567ffffffffffffffff8111156130bd57600080fd5b6130c98a828b01612df4565b975050602088013567ffffffffffffffff8111156130e657600080fd5b6130f28a828b01612fb3565b965050604088013567ffffffffffffffff81111561310f57600080fd5b61311b8a828b01612c89565b955050606088013567ffffffffffffffff81111561313857600080fd5b6131448a828b01612c89565b945050608088013567ffffffffffffffff81111561316157600080fd5b61316d8a828b01612e68565b93505060a088013567ffffffffffffffff81111561318a57600080fd5b6131968a828b01612fb3565b92505060c088013567ffffffffffffffff8111156131b357600080fd5b6131bf8a828b01612d0c565b91505092959891949750929550565b6000602082840312156131e057600080fd5b600082013567ffffffffffffffff8111156131fa57600080fd5b61320684828501612fb3565b91505092915050565b6000806040838503121561322257600080fd5b600083013567ffffffffffffffff81111561323c57600080fd5b61324885828601612fb3565b925050602061325985828601612c74565b9150509250929050565b6000806040838503121561327657600080fd5b600083013567ffffffffffffffff81111561329057600080fd5b61329c85828601612fb3565b925050602083013567ffffffffffffffff8111156132b957600080fd5b6132c585828601612fb3565b9150509250929050565b600080604083850312156132e257600080fd5b600083013567ffffffffffffffff8111156132fc57600080fd5b61330885828601612fb3565b925050602061331985828601613007565b9150509250929050565b60008060006060848603121561333857600080fd5b600084013567ffffffffffffffff81111561335257600080fd5b61335e86828701612fb3565b935050602061336f86828701613007565b925050604061338086828701612c74565b9150509250925092565b600061339683836133f6565b60208301905092915050565b60006133ae838361362f565b905092915050565b60006133c2838361369c565b905092915050565b60006133d6838361373f565b905092915050565b60006133ea8383613829565b60208301905092915050565b6133ff81613d26565b82525050565b61340e81613d26565b82525050565b600061341f82613bd1565b6134298185613c82565b935061343483613b71565b8060005b8381101561346557815161344c888261338a565b975061345783613c34565b925050600181019050613438565b5085935050505092915050565b600061347d82613bdc565b6134878185613c93565b93508360208202850161349985613b81565b8060005b858110156134d557848403895281516134b685826133a2565b94506134c183613c41565b925060208a0199505060018101905061349d565b50829750879550505050505092915050565b60006134f282613be7565b6134fc8185613ca4565b93508360208202850161350e85613b91565b8060005b8581101561354a578484038952815161352b85826133b6565b945061353683613c4e565b925060208a01995050600181019050613512565b50829750879550505050505092915050565b600061356782613bf2565b6135718185613cb5565b93508360208202850161358385613ba1565b8060005b858110156135bf57848403895281516135a085826133ca565b94506135ab83613c5b565b925060208a01995050600181019050613587565b50829750879550505050505092915050565b60006135dc82613c08565b6135e68185613cd7565b93506135f183613bc1565b8060005b8381101561362257815161360988826133de565b975061361483613c75565b9250506001810190506135f5565b5085935050505092915050565b600061363a82613bfd565b6136448185613cc6565b935061364f83613bb1565b8060005b8381101561368057815161366788826133de565b975061367283613c68565b925050600181019050613653565b5085935050505092915050565b61369681613d38565b82525050565b60006136a782613c13565b6136b18185613ce8565b93506136c1818560208601613d8d565b6136ca81613dc0565b840191505092915050565b60006136e082613c29565b6136ea8185613d0a565b93506136fa818560208601613d8d565b61370381613dc0565b840191505092915050565b600061371982613c29565b6137238185613d1b565b9350613733818560208601613d8d565b80840191505092915050565b600061374a82613c1e565b6137548185613cf9565b9350613764818560208601613d8d565b61376d81613dc0565b840191505092915050565b600061378382613c1e565b61378d8185613d1b565b935061379d818560208601613d8d565b80840191505092915050565b60006137b6601383613d0a565b91507f4d75737420626520726f6c65206f776e65722e000000000000000000000000006000830152602082019050919050565b60006137f6600c83613d0a565b91507f77726f6e674164647265737300000000000000000000000000000000000000006000830152602082019050919050565b61383281613d64565b82525050565b61384181613d64565b82525050565b61385081613d6e565b82525050565b60006138628284613778565b915081905092915050565b6000613879828461370e565b915081905092915050565b60006020820190506138996000830184613405565b92915050565b600060208201905081810360008301526138b98184613414565b905092915050565b600060208201905081810360008301526138db8184613472565b905092915050565b600060208201905081810360008301526138fd81846134e7565b905092915050565b6000602082019050818103600083015261391f818461355c565b905092915050565b6000602082019050818103600083015261394181846135d1565b905092915050565b600060208201905061395e600083018461368d565b92915050565b6000602082019050818103600083015261397e81846136d5565b905092915050565b6000602082019050818103600083015261399f816137a9565b9050919050565b600060208201905081810360008301526139bf816137e9565b9050919050565b60006020820190506139db6000830184613838565b92915050565b60006020820190506139f66000830184613847565b92915050565b6000604051905081810181811067ffffffffffffffff82111715613a1f57600080fd5b8060405250919050565b600067ffffffffffffffff821115613a4057600080fd5b602082029050602081019050919050565b600067ffffffffffffffff821115613a6857600080fd5b602082029050602081019050919050565b600067ffffffffffffffff821115613a9057600080fd5b602082029050602081019050919050565b600067ffffffffffffffff821115613ab857600080fd5b602082029050602081019050919050565b600067ffffffffffffffff821115613ae057600080fd5b602082029050602081019050919050565b600067ffffffffffffffff821115613b0857600080fd5b602082029050602081019050919050565b600067ffffffffffffffff821115613b3057600080fd5b601f19601f8301169050602081019050919050565b600067ffffffffffffffff821115613b5c57600080fd5b601f19601f8301169050602081019050919050565b6000819050602082019050919050565b6000819050602082019050919050565b6000819050602082019050919050565b6000819050602082019050919050565b6000819050602082019050919050565b6000819050602082019050919050565b600081519050919050565b600081519050919050565b600081519050919050565b600081519050919050565b600081519050919050565b600081519050919050565b600081519050919050565b600081519050919050565b600081519050919050565b6000602082019050919050565b6000602082019050919050565b6000602082019050919050565b6000602082019050919050565b6000602082019050919050565b6000602082019050919050565b600082825260208201905092915050565b600082825260208201905092915050565b600082825260208201905092915050565b600082825260208201905092915050565b600082825260208201905092915050565b600082825260208201905092915050565b600082825260208201905092915050565b600082825260208201905092915050565b600082825260208201905092915050565b600081905092915050565b6000613d3182613d44565b9050919050565b60008115159050919050565b600073ffffffffffffffffffffffffffffffffffffffff82169050919050565b6000819050919050565b600063ffffffff82169050919050565b82818337600083830152505050565b60005b83811015613dab578082015181840152602081019050613d90565b83811115613dba576000848401525b50505050565b6000601f19601f8301169050919050565b613dda81613d26565b8114613de557600080fd5b50565b613df181613d64565b8114613dfc57600080fd5b5056fea365627a7a7231582048b3bcd7e070b104fb159392f79f22f959d71b316699e22b945e9bf7b5ae9e0e6c6578706572696d656e74616cf564736f6c63430005100040",
  "source": "//pragma solidity 0.5.10;\npragma solidity ^0.5.16;\npragma experimental ABIEncoderV2;\n\ncontract PublicDCRManager {\n    // event declaration\n    event LogWorkflowCreation(\n        string indexed workflowHash,\n        address indexed creator\n    );\n\n    event LogExecution(\n        string indexed workflowHash,\n        uint256 indexed activityId,\n        address indexed executor\n    );\n\n    event LogWorkflowProjection(\n        string indexed workflowHash,\n        address indexed creator\n    );\n    \n    \n    event RequestChange(\n        string indexed newWorkflowHash,\n        address indexed endorser\n    );\n\n\n    // variable declarations.\n\n    struct Workflow {\n        string name;\n        string ipfsViewHash;\n\n        Marking markings;\n        address[] roleAddresses;\n        string[] activityNames;\n        bytes[] ipfsActivityHashes;\n        uint256 numActivities; //number of included activities\n        uint256[][][] relations; //includesTo, excludesTo, responsesTo, conditionsFrom, milestonesFrom\n        \n        //uint256[][] excludesTo;\n        //uint256[][] responsesTo;\n        //uint256[][] conditionsFrom;\n        //uint256[][] milestonesFrom;\n        \n        //ApprovalList approvalList;\n        address[] approvalAddresses;\n        uint[] approvalOutcomes;\n        uint[] didFetch;\n\n        Activity execStatus;\n    }\n    \n    struct Marking {\n        uint256[] included;\n        uint256[] executed;\n        uint256[] pending;\n    }\n\n    struct Activity {\n        uint32 canExecuteCheck;\n        uint256 status; //0=no, 1=yes\n    }\n    \n    string[] registeredViewHashes;\n\n    mapping(string => Workflow) workflows;\n\n    ///////////////// Misc ////////////////////////\n\n    function getAllWKHashes() public view returns (string[] memory){\n        return registeredViewHashes;\n    }\n\n\n    function sendHash(string memory _hash, string memory x) public {\n        workflows[_hash].ipfsViewHash = x;\n    }\n\n    function getHash(string memory _hash) public view returns (string memory x) {\n        return workflows[_hash].ipfsViewHash;\n    }\n\n    /** @dev Getter for workflow.\n      * @param _hash index of the workflow (eg 0 for the first workflow).\n      * @param myAddress sender adddress (must be registered to fetch the workflow).\n      * @return workflow, update didFetch variable to one.\n      */\n    function fetchPublicView(string memory _hash, address myAddress)\n        public\n        payable\n        returns (string memory)\n    {\n        \n        require(msg.sender == myAddress, 'wrongAddress');\n        \n        // update the didFetch variable\n        for (\n            uint256 id = 0;\n            id < workflows[_hash].approvalAddresses.length;\n            id++\n        ) {\n            if((myAddress == workflows[_hash].approvalAddresses[id]) && workflows[_hash].didFetch[id] != 1){\n                workflows[_hash].didFetch[id] = 1;\n                }\n        }\n        \n        return workflows[_hash].ipfsViewHash;\n    }\n    \n    \n    function requestChange(address[] memory toNotify, string memory _hash) public payable {\n        for (\n            uint256 id = 0;\n            id < toNotify.length;\n            id++\n        ) {\n            \n            emit RequestChange(_hash,toNotify[id]);\n        }\n    }\n     \n    /** @dev Getter for workflow name.\n      * @param _hash index of the workflow (eg 0 for the first workflow).\n      * @return workflow name.\n      */\n\n    function getWorkflowName(string memory _hash)\n        public\n        view\n        returns (string memory)\n    {\n        return workflows[_hash].name;\n    }\n\n    /** @dev Getter for workflow execution status.\n      * @param _hash index of the workflow (eg 0 for the first workflow).\n      * @return execution status of the task: 0=ok, 1= \n      */\n    function getCanExecuteCheck(string memory _hash, uint256 activityId)\n        public\n        view\n        returns (uint32)\n    {\n        return workflows[_hash].execStatus.canExecuteCheck;\n    }\n\n    function getStatus(string memory _hash, uint256 activityId)\n        public\n        view\n        returns (uint256)\n    {\n        return workflows[_hash].execStatus.status;\n    }\n\n    function getWkfLength(string memory _hash) public view returns (uint256) {\n        return workflows[_hash].relations[0].length;\n    }\n\n    function getIncluded(string memory _hash)\n        public\n        view\n        returns (uint256[] memory)\n    {\n        return workflows[_hash].markings.included;\n    }\n\n    function getExecuted(string memory _hash)\n        public\n        view\n        returns (uint256[] memory)\n    {\n        return workflows[_hash].markings.executed;\n    }\n\n    function getPending(string memory _hash)\n        public\n        view\n        returns (uint256[] memory)\n    {\n        return workflows[_hash].markings.pending;\n    }\n\n    function getConditionsFrom(string memory _hash)\n        public\n        view\n        returns (uint256[][] memory)\n    {\n        return workflows[_hash].relations[3];\n    }\n\n    function getHashes(string memory _hash)\n        public\n        view\n        returns (bytes[] memory)\n    {\n        return workflows[_hash].ipfsActivityHashes;\n    }\n\n    function getActivityName(string memory _hash, uint256 activityId)\n        public\n        view\n        returns (string memory)\n    {\n        return workflows[_hash].activityNames[activityId];\n    }\n\n    function getRoleAddresses(string memory _hash, uint256 activityId)\n        public\n        view\n        returns (address)\n    {\n        return workflows[_hash].roleAddresses[activityId];\n    }\n\n    function getAddresses(string memory _hash)\n        public\n        view\n        returns (address[] memory)\n    {\n        return workflows[_hash].approvalAddresses;\n    }\n\n\n    function getApprovalsOutcome(string memory _hash)\n        public\n        view\n        returns (uint[] memory)\n    {\n        return (workflows[_hash].approvalOutcomes);\n    }\n\n    function hasApproved(string memory _hash, address myAddress)\n        public\n        view\n        returns (uint)\n    {\n        //uint res = 0;\n        for (\n            uint256 id = 0;\n            id < workflows[_hash].approvalAddresses.length;\n            id++\n        ) {\n            if((myAddress == workflows[_hash].approvalAddresses[id]) && workflows[_hash].approvalOutcomes[id] == 1){\n                return 1;\n            }\n        }\n        return 0;\n    }\n\n    ///////////////// Utils /////////////////////////\n\n    function canExecute(string memory _hash, uint256 activityId, address msgSender)\n        public\n        returns (bool)\n    {\n        // check if msg.sender address is correct\n        if (msgSender != workflows[_hash].roleAddresses[activityId]) {\n            workflows[_hash].execStatus.canExecuteCheck = 4;\n            return false;\n        }\n        \n        // activity must be included\n        if (workflows[_hash].markings.included[activityId] == 0) {\n            workflows[_hash].execStatus.canExecuteCheck = 1;\n            return false;\n        }\n\n        // all conditions executed\n        for (\n            uint256 id = 0;\n            id < workflows[_hash].relations[3].length;\n            id++\n        ) {\n            uint256[] memory conditionsRow =\n                workflows[_hash].relations[3][id];\n            if (conditionsRow[activityId] == 1) {\n                if (\n                    (workflows[_hash].markings.executed[id] == 0) &&\n                    (workflows[_hash].markings.included[id] == 1)\n                ) {\n                    workflows[_hash].execStatus.canExecuteCheck = 2;\n                    return false;\n                }\n            }\n        }\n\n        // no milestones pending\n        for (\n            uint256 id = 0;\n            id < workflows[_hash].relations[4].length; // milestonesFrom\n            id++\n        ) {\n            uint256[] memory milestonesRow =\n                workflows[_hash].relations[4][id];\n            if (milestonesRow[activityId] == 1) {\n                if (\n                    (workflows[_hash].markings.pending[id] == 1) &&\n                    (workflows[_hash].markings.included[id] == 1)\n                ) {\n                    workflows[_hash].execStatus.canExecuteCheck = 3;\n                    return false;\n                }\n            }\n        }\n\n        workflows[_hash].execStatus.canExecuteCheck = 0;\n        return true;\n    }\n\n    ///////////////// Main functions /////////////////////////\n    function checkCliquedIndex(string memory _hash, uint256 activityId)\n        public\n    //        bytes memory ipfsHash\n    {\n        if (!canExecute(_hash, activityId, msg.sender)) {\n            workflows[_hash].execStatus.status = 1;\n            //revert();\n        } else {\n            // executed activity\n            workflows[_hash].markings.executed[activityId] = 1;\n            workflows[_hash].markings.pending[activityId] = 0;\n            //            workflows[workflowId].ipfsActivityHashes[activityId] = ipfsHash;\n\n            uint256[] memory exclude_vect_check =\n                workflows[_hash].relations[1][activityId]; // excludes\n            uint256[] memory response_vect_check =\n                workflows[_hash].relations[2][activityId]; // responsesTo\n\n            // add include relations\n            uint256[] memory include_vect_check =\n                workflows[_hash].relations[0][activityId]; // includes\n\n            // update with condition relations ok\n            uint256[] memory conditionsTo =\n                workflows[_hash].relations[3][activityId]; //extract row condition\n            for (uint256 id = 0; id < conditionsTo.length; id++) {\n                if (conditionsTo[id] == 1) {\n                    include_vect_check[id] = 1;\n                }\n            }\n\n            for (\n                uint256 id = 0;\n                id < workflows[_hash].relations[1].length; // excludesTo\n                id++\n            ) {\n                // exclude and include relations pass\n                // note includes happens after the exclude pass\n                // included = (included & ~excludesTo[activityId]) | includesTo[activityId];\n                if (\n                    (exclude_vect_check[id] != 1) &&\n                    (include_vect_check[id] == 1)\n                ) {\n                    workflows[_hash].markings.included[id] = 1;\n                }\n\n                // response relations pass\n                // pending = (pending | responsesTo[activityId]);\n                if (response_vect_check[id] == 1) {\n                    workflows[_hash].markings.pending[id] = 1;\n                    workflows[_hash].markings.included[id] = 1;\n                }\n            }\n\n            emit LogExecution(_hash, activityId, msg.sender);\n\n            workflows[_hash].execStatus.status = 1;\n        }\n    }\n\n    function uploadPublicView(\n        // packed state variables\n        uint256[][] memory markingStates, // included, executed, pending\n\n        string memory _ipfsViewHash,\n\n        //process information\n        address[] memory _roleAddresses,\n        address[] memory _approvalAddresses,\n\n        string[] memory _activityNames,\n        string memory _name,\n\n        // relations\n        uint256[][][] memory _relations // includesto, excludesto, responsesto, conditionsfrom, milestonesFrom\n    ) public payable {\n        \n        Activity memory execStatus = Activity(0, 0);\n        Marking memory markings = Marking(markingStates[0],markingStates[1],markingStates[2]);\n        Workflow memory wf =\n            Workflow(\n                _name,\n                _ipfsViewHash,\n                markings,\n                _roleAddresses,\n                _activityNames,\n                new bytes[](markingStates[0].length),\n                markingStates[0].length,\n                _relations,\n                _approvalAddresses,\n                new uint[](_approvalAddresses.length),\n                new uint[](_approvalAddresses.length),\n                execStatus\n            );\n        workflows[_ipfsViewHash]=wf;\n\n        registeredViewHashes.push(_ipfsViewHash);\n\n\n        emit LogWorkflowCreation(wf.ipfsViewHash, msg.sender);\n    }\n\n    /** @dev post private projection approval function.\n      * @param _hash index of the workflow (eg 0 for the first workflow).\n      * @param myAddress address of the sender (necessary for web3js dev).\n      * @return list of approval outcomes.\n      */\n    function confirmProjection(string memory _hash, address myAddress) public payable returns (uint[] memory){\n        // get id of approvalList.addresses corresponding to msgSender. If (approval[id]==0): set to one;\n        \n        require(myAddress==msg.sender, \"Must be role owner.\");\n\n        for (\n            uint256 id = 0;\n            id < workflows[_hash].approvalAddresses.length;\n            id++\n        ) {\n            if((myAddress == workflows[_hash].approvalAddresses[id]) && workflows[_hash].didFetch[id] == 1){ // must have fetched public view\n                if(workflows[_hash].approvalOutcomes[id] != 1){ // must not have approved before\n                    workflows[_hash].approvalOutcomes[id] = 1;\n                    emit LogWorkflowProjection(_hash, myAddress);\n                    return workflows[_hash].approvalOutcomes;\n                }\n            }\n\n        }\n        \n        return workflows[_hash].approvalOutcomes;\n        \n    }  \n\n\n}\n",
  "sourcePath": "/home/vtlr2002/source/masterPlatform/contracts/PublicDCRManager.sol",
  "compiler": {
    "name": "solc",
    "version": "0.5.16+commit.9c3226ce.Emscripten.clang"
  },
  "schemaVersion": "3.2.4",
  "updatedAt": "2021-07-01T13:29:48.494Z",
  "networkType": "ethereum",
  "devdoc": {
    "methods": {
      "confirmProjection(string,address)": {
        "details": "post private projection approval function.",
        "params": {
          "_hash": "index of the workflow (eg 0 for the first workflow).",
          "myAddress": "address of the sender (necessary for web3js dev)."
        },
        "return": "list of approval outcomes."
      },
      "fetchPublicView(string,address)": {
        "details": "Getter for workflow.",
        "params": {
          "_hash": "index of the workflow (eg 0 for the first workflow).",
          "myAddress": "sender adddress (must be registered to fetch the workflow)."
        },
        "return": "workflow, update didFetch variable to one."
      },
      "getCanExecuteCheck(string,uint256)": {
        "details": "Getter for workflow execution status.",
        "params": {
          "_hash": "index of the workflow (eg 0 for the first workflow)."
        },
        "return": "execution status of the task: 0=ok, 1= "
      },
      "getWorkflowName(string)": {
        "details": "Getter for workflow name.",
        "params": {
          "_hash": "index of the workflow (eg 0 for the first workflow)."
        },
        "return": "workflow name."
      }
    }
  },
  "userdoc": {
    "methods": {
      "canExecute(string,uint256,address)": {
        "notice": "////////////// Utils /////////////////////////"
      },
      "checkCliquedIndex(string,uint256)": {
        "notice": "////////////// Main functions /////////////////////////"
      },
      "getAllWKHashes()": {
        "notice": "////////////// Misc ////////////////////////"
      }
    }
  }
}