{
  "contractName": "PublicDCRManager",
  "abi": [
    {
      "anonymous": false,
      "inputs": [
        {
          "indexed": true,
          "internalType": "uint256",
          "name": "workflowId",
          "type": "uint256"
        },
        {
          "indexed": true,
          "internalType": "uint256",
          "name": "activityId",
          "type": "uint256"
        },
        {
          "indexed": true,
          "internalType": "address",
          "name": "executor",
          "type": "address"
        }
      ],
      "name": "LogExecution",
      "type": "event"
    },
    {
      "anonymous": false,
      "inputs": [
        {
          "indexed": true,
          "internalType": "uint256",
          "name": "workflowId",
          "type": "uint256"
        },
        {
          "indexed": true,
          "internalType": "string",
          "name": "workflowName",
          "type": "string"
        },
        {
          "indexed": true,
          "internalType": "address",
          "name": "creator",
          "type": "address"
        }
      ],
      "name": "LogWorkflowCreation",
      "type": "event"
    },
    {
      "constant": false,
      "inputs": [
        {
          "internalType": "uint256",
          "name": "workflowId",
          "type": "uint256"
        }
      ],
      "name": "localProjectionApproval",
      "outputs": [
        {
          "internalType": "uint256[]",
          "name": "",
          "type": "uint256[]"
        }
      ],
      "payable": true,
      "stateMutability": "payable",
      "type": "function"
    },
    {
      "constant": true,
      "inputs": [
        {
          "internalType": "uint256",
          "name": "workflowId",
          "type": "uint256"
        }
      ],
      "name": "getWorflowName",
      "outputs": [
        {
          "internalType": "string",
          "name": "",
          "type": "string"
        }
      ],
      "payable": false,
      "stateMutability": "view",
      "type": "function"
    },
    {
      "constant": true,
      "inputs": [
        {
          "internalType": "uint256",
          "name": "workflowId",
          "type": "uint256"
        },
        {
          "internalType": "uint256",
          "name": "activityId",
          "type": "uint256"
        }
      ],
      "name": "getCanExecuteCheck",
      "outputs": [
        {
          "internalType": "uint32",
          "name": "",
          "type": "uint32"
        }
      ],
      "payable": false,
      "stateMutability": "view",
      "type": "function"
    },
    {
      "constant": true,
      "inputs": [
        {
          "internalType": "uint256",
          "name": "workflowId",
          "type": "uint256"
        },
        {
          "internalType": "uint256",
          "name": "activityId",
          "type": "uint256"
        }
      ],
      "name": "getStatus",
      "outputs": [
        {
          "internalType": "uint256",
          "name": "",
          "type": "uint256"
        }
      ],
      "payable": false,
      "stateMutability": "view",
      "type": "function"
    },
    {
      "constant": true,
      "inputs": [
        {
          "internalType": "uint256",
          "name": "workflowId",
          "type": "uint256"
        }
      ],
      "name": "getWkfLength",
      "outputs": [
        {
          "internalType": "uint256",
          "name": "",
          "type": "uint256"
        }
      ],
      "payable": false,
      "stateMutability": "view",
      "type": "function"
    },
    {
      "constant": true,
      "inputs": [
        {
          "internalType": "uint256",
          "name": "workflowId",
          "type": "uint256"
        }
      ],
      "name": "getIncluded",
      "outputs": [
        {
          "internalType": "uint256[]",
          "name": "",
          "type": "uint256[]"
        }
      ],
      "payable": false,
      "stateMutability": "view",
      "type": "function"
    },
    {
      "constant": true,
      "inputs": [
        {
          "internalType": "uint256",
          "name": "workflowId",
          "type": "uint256"
        }
      ],
      "name": "getExecuted",
      "outputs": [
        {
          "internalType": "uint256[]",
          "name": "",
          "type": "uint256[]"
        }
      ],
      "payable": false,
      "stateMutability": "view",
      "type": "function"
    },
    {
      "constant": true,
      "inputs": [
        {
          "internalType": "uint256",
          "name": "workflowId",
          "type": "uint256"
        }
      ],
      "name": "getPending",
      "outputs": [
        {
          "internalType": "uint256[]",
          "name": "",
          "type": "uint256[]"
        }
      ],
      "payable": false,
      "stateMutability": "view",
      "type": "function"
    },
    {
      "constant": true,
      "inputs": [
        {
          "internalType": "uint256",
          "name": "workflowId",
          "type": "uint256"
        }
      ],
      "name": "getConditionsFrom",
      "outputs": [
        {
          "internalType": "uint256[][]",
          "name": "",
          "type": "uint256[][]"
        }
      ],
      "payable": false,
      "stateMutability": "view",
      "type": "function"
    },
    {
      "constant": true,
      "inputs": [
        {
          "internalType": "uint256",
          "name": "workflowId",
          "type": "uint256"
        }
      ],
      "name": "getHashes",
      "outputs": [
        {
          "internalType": "bytes[]",
          "name": "",
          "type": "bytes[]"
        }
      ],
      "payable": false,
      "stateMutability": "view",
      "type": "function"
    },
    {
      "constant": true,
      "inputs": [
        {
          "internalType": "uint256",
          "name": "workflowId",
          "type": "uint256"
        },
        {
          "internalType": "uint256",
          "name": "activityId",
          "type": "uint256"
        }
      ],
      "name": "getActivityName",
      "outputs": [
        {
          "internalType": "string",
          "name": "",
          "type": "string"
        }
      ],
      "payable": false,
      "stateMutability": "view",
      "type": "function"
    },
    {
      "constant": true,
      "inputs": [
        {
          "internalType": "uint256",
          "name": "workflowId",
          "type": "uint256"
        },
        {
          "internalType": "uint256",
          "name": "activityId",
          "type": "uint256"
        }
      ],
      "name": "getRoleAddresses",
      "outputs": [
        {
          "internalType": "address",
          "name": "",
          "type": "address"
        }
      ],
      "payable": false,
      "stateMutability": "view",
      "type": "function"
    },
    {
      "constant": true,
      "inputs": [
        {
          "internalType": "uint256",
          "name": "workflowId",
          "type": "uint256"
        }
      ],
      "name": "getApprovalsOutcome",
      "outputs": [
        {
          "internalType": "uint256[]",
          "name": "",
          "type": "uint256[]"
        }
      ],
      "payable": false,
      "stateMutability": "view",
      "type": "function"
    },
    {
      "constant": true,
      "inputs": [
        {
          "internalType": "uint256",
          "name": "workflowId",
          "type": "uint256"
        }
      ],
      "name": "hasApproved",
      "outputs": [
        {
          "internalType": "uint256",
          "name": "",
          "type": "uint256"
        }
      ],
      "payable": false,
      "stateMutability": "view",
      "type": "function"
    },
    {
      "constant": false,
      "inputs": [
        {
          "internalType": "uint256",
          "name": "workflowId",
          "type": "uint256"
        },
        {
          "internalType": "uint256",
          "name": "activityId",
          "type": "uint256"
        },
        {
          "internalType": "address",
          "name": "msgSender",
          "type": "address"
        }
      ],
      "name": "canExecute",
      "outputs": [
        {
          "internalType": "bool",
          "name": "",
          "type": "bool"
        }
      ],
      "payable": false,
      "stateMutability": "nonpayable",
      "type": "function"
    },
    {
      "constant": false,
      "inputs": [
        {
          "internalType": "uint256[][]",
          "name": "markingStates",
          "type": "uint256[][]"
        },
        {
          "internalType": "address[]",
          "name": "_roleAddresses",
          "type": "address[]"
        },
        {
          "internalType": "address[]",
          "name": "_addresses",
          "type": "address[]"
        },
        {
          "internalType": "string[]",
          "name": "_activityNames",
          "type": "string[]"
        },
        {
          "internalType": "string",
          "name": "_name",
          "type": "string"
        },
        {
          "internalType": "uint256[][]",
          "name": "_includesTo",
          "type": "uint256[][]"
        },
        {
          "internalType": "uint256[][]",
          "name": "_excludesTo",
          "type": "uint256[][]"
        },
        {
          "internalType": "uint256[][]",
          "name": "_responsesTo",
          "type": "uint256[][]"
        },
        {
          "internalType": "uint256[][]",
          "name": "_conditionsFrom",
          "type": "uint256[][]"
        },
        {
          "internalType": "uint256[][]",
          "name": "_milestonesFrom",
          "type": "uint256[][]"
        }
      ],
      "name": "createWorkflow",
      "outputs": [],
      "payable": true,
      "stateMutability": "payable",
      "type": "function"
    },
    {
      "constant": false,
      "inputs": [
        {
          "internalType": "uint256",
          "name": "workflowId",
          "type": "uint256"
        },
        {
          "internalType": "uint256",
          "name": "activityId",
          "type": "uint256"
        }
      ],
      "name": "checkCliquedIndex",
      "outputs": [],
      "payable": false,
      "stateMutability": "nonpayable",
      "type": "function"
    }
  ],
  "bytecode": "0x608060405234801561001057600080fd5b50612e4e806100206000396000f3fe6080604052600436106100fe5760003560e01c80638f84c09d11610095578063a70ef50611610064578063a70ef5061461039d578063a745da65146103da578063abca84a114610417578063d5ae538b14610454578063fffdc05914610491576100fe565b80638f84c09d146102ca5780639611e459146102fa5780639beaa52414610323578063a2b5ad1514610360576100fe565b80634684e5e0116100d15780634684e5e0146101f7578063493672521461021357806352f4ba751461025057806384f89a931461028d576100fe565b806302a8ca10146101035780631c3680b714610140578063219475071461017d578063279dd03f146101ba575b600080fd5b34801561010f57600080fd5b5061012a60048036036101259190810190612648565b6104ce565b6040516101379190612a24565b60405180910390f35b34801561014c57600080fd5b5061016760048036036101629190810190612648565b6105d5565b6040516101749190612a46565b60405180910390f35b34801561018957600080fd5b506101a4600480360361019f9190810190612648565b61064e565b6040516101b19190612a46565b60405180910390f35b3480156101c657600080fd5b506101e160048036036101dc9190810190612648565b6106c7565b6040516101ee9190612a02565b60405180910390f35b610211600480360361020c919081019061247d565b610784565b005b34801561021f57600080fd5b5061023a60048036036102359190810190612648565b610bb8565b6040516102479190612aa5565b60405180910390f35b34801561025c57600080fd5b5061027760048036036102729190810190612671565b610ce3565b60405161028491906129e7565b60405180910390f35b34801561029957600080fd5b506102b460048036036102af9190810190612648565b610d40565b6040516102c19190612a46565b60405180910390f35b6102e460048036036102df9190810190612648565b610db9565b6040516102f19190612a46565b60405180910390f35b34801561030657600080fd5b50610321600480360361031c9190810190612671565b610f7c565b005b34801561032f57600080fd5b5061034a60048036036103459190810190612671565b61145a565b6040516103579190612a83565b60405180910390f35b34801561036c57600080fd5b50610387600480360361038291908101906126ad565b611530565b6040516103949190612a68565b60405180910390f35b3480156103a957600080fd5b506103c460048036036103bf9190810190612648565b611a30565b6040516103d19190612a83565b60405180910390f35b3480156103e657600080fd5b5061040160048036036103fc9190810190612671565b611af0565b60405161040e9190612aa5565b60405180910390f35b34801561042357600080fd5b5061043e60048036036104399190810190612671565b611b1b565b60405161044b9190612ac0565b60405180910390f35b34801561046057600080fd5b5061047b60048036036104769190810190612648565b611b56565b6040516104889190612a46565b60405180910390f35b34801561049d57600080fd5b506104b860048036036104b39190810190612648565b611bcf565b6040516104c59190612aa5565b60405180910390f35b6060600082815481106104dd57fe5b9060005260206000209060110201600601805480602002602001604051908101604052809291908181526020016000905b828210156105ca578382906000526020600020018054600181600116156101000203166002900480601f0160208091040260200160405190810160405280929190818152602001828054600181600116156101000203166002900480156105b65780601f1061058b576101008083540402835291602001916105b6565b820191906000526020600020905b81548152906001019060200180831161059957829003601f168201915b50505050508152602001906001019061050e565b505050509050919050565b6060600082815481106105e457fe5b9060005260206000209060110201600d0160010180548060200260200160405190810160405280929190818152602001828054801561064257602002820191906000526020600020905b81548152602001906001019080831161062e575b50505050509050919050565b60606000828154811061065d57fe5b90600052602060002090601102016001016001018054806020026020016040519081016040528092919081815260200182805480156106bb57602002820191906000526020600020905b8154815260200190600101908083116106a7575b50505050509050919050565b6060600082815481106106d657fe5b9060005260206000209060110201600b01805480602002602001604051908101604052809291908181526020016000905b828210156107795783829060005260206000200180548060200260200160405190810160405280929190818152602001828054801561076557602002820191906000526020600020905b815481526020019060010190808311610751575b505050505081526020019060010190610707565b505050509050919050565b61078c611bf9565b6040518060400160405280600063ffffffff168152602001600081525090506107b3611c19565b60405180604001604052808b81526020018b516040519080825280602002602001820160405280156107f45781602001602082028038833980820191505090505b508152509050610802611c33565b60405180606001604052808e60008151811061081a57fe5b602002602001015181526020018e60018151811061083457fe5b602002602001015181526020018e60028151811061084e57fe5b60200260200101518152509050610863611c54565b604051806101a001604052808b81526020018381526020018e81526020018c81526020018f60008151811061089457fe5b6020026020010151516040519080825280602002602001820160405280156108d057816020015b60608152602001906001900390816108bb5790505b5081526020018f6000815181106108e357fe5b60200260200101515181526020018a8152602001898152602001888152602001878152602001868152602001848152602001858152509050600081908060018154018082558091505090600182039060005260206000209060110201600090919290919091506000820151816000019080519060200190610965929190611cce565b50602082015181600101600082015181600001908051906020019061098b929190611d4e565b5060208201518160010190805190602001906109a8929190611d4e565b5060408201518160020190805190602001906109c5929190611d4e565b50505060408201518160040190805190602001906109e4929190611d9b565b506060820151816005019080519060200190610a01929190611e25565b506080820151816006019080519060200190610a1e929190611e85565b5060a0820151816007015560c0820151816008019080519060200190610a45929190611ee5565b5060e0820151816009019080519060200190610a62929190611ee5565b5061010082015181600a019080519060200190610a80929190611ee5565b5061012082015181600b019080519060200190610a9e929190611ee5565b5061014082015181600c019080519060200190610abc929190611ee5565b5061016082015181600d016000820151816000019080519060200190610ae3929190611d9b565b506020820151816001019080519060200190610b00929190611d4e565b50505061018082015181600f0160008201518160000160006101000a81548163ffffffff021916908363ffffffff1602179055506020820151816001015550505050503373ffffffffffffffffffffffffffffffffffffffff168160000151604051610b6c91906129d0565b60405180910390206001600080549050037e580e796805b82dd041d9cc2b779ba3dd8b2d71dd1d3a5922e6b4c32cadf19960405160405180910390a45050505050505050505050505050565b6000806000905060008090505b60008481548110610bd257fe5b9060005260206000209060110201600d0160000180549050811015610cd95760008481548110610bfe57fe5b9060005260206000209060110201600d016000018181548110610c1d57fe5b9060005260206000200160009054906101000a900473ffffffffffffffffffffffffffffffffffffffff1673ffffffffffffffffffffffffffffffffffffffff163373ffffffffffffffffffffffffffffffffffffffff16148015610cb95750600160008581548110610c8c57fe5b9060005260206000209060110201600d016001018281548110610cab57fe5b906000526020600020015414155b15610cc75760009150610ccc565b600191505b8080600101915050610bc5565b5080915050919050565b6000808381548110610cf157fe5b90600052602060002090601102016004018281548110610d0d57fe5b9060005260206000200160009054906101000a900473ffffffffffffffffffffffffffffffffffffffff16905092915050565b606060008281548110610d4f57fe5b9060005260206000209060110201600101600201805480602002602001604051908101604052809291908181526020018280548015610dad57602002820191906000526020600020905b815481526020019060010190808311610d99575b50505050509050919050565b606060008090505b60008381548110610dce57fe5b9060005260206000209060110201600d0160000180549050811015610f045760008381548110610dfa57fe5b9060005260206000209060110201600d016000018181548110610e1957fe5b9060005260206000200160009054906101000a900473ffffffffffffffffffffffffffffffffffffffff1673ffffffffffffffffffffffffffffffffffffffff163373ffffffffffffffffffffffffffffffffffffffff16148015610eb55750600160008481548110610e8857fe5b9060005260206000209060110201600d016001018281548110610ea757fe5b906000526020600020015414155b15610ef757600160008481548110610ec957fe5b9060005260206000209060110201600d016001018281548110610ee857fe5b90600052602060002001819055505b8080600101915050610dc1565b5060008281548110610f1257fe5b9060005260206000209060110201600d01600101805480602002602001604051908101604052809291908181526020018280548015610f7057602002820191906000526020600020905b815481526020019060010190808311610f5c575b50505050509050919050565b610f87828233611530565b610fb757600160008381548110610f9a57fe5b9060005260206000209060110201600f0160010181905550611456565b600160008381548110610fc657fe5b90600052602060002090601102016001016001018281548110610fe557fe5b9060005260206000200181905550600080838154811061100157fe5b9060005260206000209060110201600101600201828154811061102057fe5b906000526020600020018190555060606000838154811061103d57fe5b9060005260206000209060110201600901828154811061105957fe5b906000526020600020018054806020026020016040519081016040528092919081815260200182805480156110ad57602002820191906000526020600020905b815481526020019060010190808311611099575b505050505090506060600084815481106110c357fe5b9060005260206000209060110201600a0183815481106110df57fe5b9060005260206000200180548060200260200160405190810160405280929190818152602001828054801561113357602002820191906000526020600020905b81548152602001906001019080831161111f575b5050505050905060606000858154811061114957fe5b9060005260206000209060110201600801848154811061116557fe5b906000526020600020018054806020026020016040519081016040528092919081815260200182805480156111b957602002820191906000526020600020905b8154815260200190600101908083116111a5575b505050505090506060600086815481106111cf57fe5b9060005260206000209060110201600b0185815481106111eb57fe5b9060005260206000200180548060200260200160405190810160405280929190818152602001828054801561123f57602002820191906000526020600020905b81548152602001906001019080831161122b575b5050505050905060008090505b815181101561129957600182828151811061126357fe5b6020026020010151141561128c57600183828151811061127f57fe5b6020026020010181815250505b808060010191505061124c565b5060008090505b600087815481106112ad57fe5b9060005260206000209060110201600901805490508110156113e45760018582815181106112d757fe5b602002602001015114158015611300575060018382815181106112f657fe5b6020026020010151145b156113425760016000888154811061131457fe5b9060005260206000209060110201600101600001828154811061133357fe5b90600052602060002001819055505b600184828151811061135057fe5b602002602001015114156113d75760016000888154811061136d57fe5b9060005260206000209060110201600101600201828154811061138c57fe5b90600052602060002001819055506001600088815481106113a957fe5b906000526020600020906011020160010160000182815481106113c857fe5b90600052602060002001819055505b80806001019150506112a0565b503373ffffffffffffffffffffffffffffffffffffffff1685877fd853302052b9b346cf4b175b34d36663cb511da3c0c7f221f21ec256fc7f625160405160405180910390a460016000878154811061143957fe5b9060005260206000209060110201600f0160010181905550505050505b5050565b60606000838154811061146957fe5b9060005260206000209060110201600501828154811061148557fe5b906000526020600020018054600181600116156101000203166002900480601f0160208091040260200160405190810160405280929190818152602001828054600181600116156101000203166002900480156115235780601f106114f857610100808354040283529160200191611523565b820191906000526020600020905b81548152906001019060200180831161150657829003601f168201915b5050505050905092915050565b600080848154811061153e57fe5b9060005260206000209060110201600401838154811061155a57fe5b9060005260206000200160009054906101000a900473ffffffffffffffffffffffffffffffffffffffff1673ffffffffffffffffffffffffffffffffffffffff168273ffffffffffffffffffffffffffffffffffffffff1614611601576004600085815481106115c657fe5b9060005260206000209060110201600f0160000160006101000a81548163ffffffff021916908363ffffffff16021790555060009050611a29565b600080858154811061160f57fe5b9060005260206000209060110201600101600001848154811061162e57fe5b906000526020600020015414156116895760016000858154811061164e57fe5b9060005260206000209060110201600f0160000160006101000a81548163ffffffff021916908363ffffffff16021790555060009050611a29565b60008090505b6000858154811061169c57fe5b9060005260206000209060110201600b0180549050811015611835576060600086815481106116c757fe5b9060005260206000209060110201600b0182815481106116e357fe5b9060005260206000200180548060200260200160405190810160405280929190818152602001828054801561173757602002820191906000526020600020905b815481526020019060010190808311611723575b50505050509050600181868151811061174c57fe5b6020026020010151141561182757600080878154811061176857fe5b9060005260206000209060110201600101600101838154811061178757fe5b90600052602060002001541480156117d557506001600087815481106117a957fe5b906000526020600020906011020160010160000183815481106117c857fe5b9060005260206000200154145b15611826576002600087815481106117e957fe5b9060005260206000209060110201600f0160000160006101000a81548163ffffffff021916908363ffffffff160217905550600092505050611a29565b5b50808060010191505061168f565b5060008090505b6000858154811061184957fe5b9060005260206000209060110201600c01805490508110156119e35760606000868154811061187457fe5b9060005260206000209060110201600c01828154811061189057fe5b906000526020600020018054806020026020016040519081016040528092919081815260200182805480156118e457602002820191906000526020600020905b8154815260200190600101908083116118d0575b5050505050905060018186815181106118f957fe5b602002602001015114156119d55760016000878154811061191657fe5b9060005260206000209060110201600101600201838154811061193557fe5b9060005260206000200154148015611983575060016000878154811061195757fe5b9060005260206000209060110201600101600001838154811061197657fe5b9060005260206000200154145b156119d45760036000878154811061199757fe5b9060005260206000209060110201600f0160000160006101000a81548163ffffffff021916908363ffffffff160217905550600092505050611a29565b5b50808060010191505061183c565b5060008085815481106119f257fe5b9060005260206000209060110201600f0160000160006101000a81548163ffffffff021916908363ffffffff160217905550600190505b9392505050565b606060008281548110611a3f57fe5b90600052602060002090601102016000018054600181600116156101000203166002900480601f016020809104026020016040519081016040528092919081815260200182805460018160011615610100020316600290048015611ae45780601f10611ab957610100808354040283529160200191611ae4565b820191906000526020600020905b815481529060010190602001808311611ac757829003601f168201915b50505050509050919050565b6000808381548110611afe57fe5b9060005260206000209060110201600f0160010154905092915050565b6000808381548110611b2957fe5b9060005260206000209060110201600f0160000160009054906101000a900463ffffffff16905092915050565b606060008281548110611b6557fe5b9060005260206000209060110201600101600001805480602002602001604051908101604052809291908181526020018280548015611bc357602002820191906000526020600020905b815481526020019060010190808311611baf575b50505050509050919050565b6000808281548110611bdd57fe5b9060005260206000209060110201600801805490509050919050565b6040518060400160405280600063ffffffff168152602001600081525090565b604051806040016040528060608152602001606081525090565b60405180606001604052806060815260200160608152602001606081525090565b604051806101a0016040528060608152602001611c6f611f45565b8152602001606081526020016060815260200160608152602001600081526020016060815260200160608152602001606081526020016060815260200160608152602001611cbb611f66565b8152602001611cc8611f80565b81525090565b828054600181600116156101000203166002900490600052602060002090601f016020900481019282601f10611d0f57805160ff1916838001178555611d3d565b82800160010185558215611d3d579182015b82811115611d3c578251825591602001919060010190611d21565b5b509050611d4a9190611fa0565b5090565b828054828255906000526020600020908101928215611d8a579160200282015b82811115611d89578251825591602001919060010190611d6e565b5b509050611d979190611fa0565b5090565b828054828255906000526020600020908101928215611e14579160200282015b82811115611e135782518260006101000a81548173ffffffffffffffffffffffffffffffffffffffff021916908373ffffffffffffffffffffffffffffffffffffffff16021790555091602001919060010190611dbb565b5b509050611e219190611fc5565b5090565b828054828255906000526020600020908101928215611e74579160200282015b82811115611e73578251829080519060200190611e63929190611cce565b5091602001919060010190611e45565b5b509050611e819190612008565b5090565b828054828255906000526020600020908101928215611ed4579160200282015b82811115611ed3578251829080519060200190611ec3929190612034565b5091602001919060010190611ea5565b5b509050611ee191906120b4565b5090565b828054828255906000526020600020908101928215611f34579160200282015b82811115611f33578251829080519060200190611f23929190611d4e565b5091602001919060010190611f05565b5b509050611f4191906120e0565b5090565b60405180606001604052806060815260200160608152602001606081525090565b604051806040016040528060608152602001606081525090565b6040518060400160405280600063ffffffff168152602001600081525090565b611fc291905b80821115611fbe576000816000905550600101611fa6565b5090565b90565b61200591905b8082111561200157600081816101000a81549073ffffffffffffffffffffffffffffffffffffffff021916905550600101611fcb565b5090565b90565b61203191905b8082111561202d5760008181612024919061210c565b5060010161200e565b5090565b90565b828054600181600116156101000203166002900490600052602060002090601f016020900481019282601f1061207557805160ff19168380011785556120a3565b828001600101855582156120a3579182015b828111156120a2578251825591602001919060010190612087565b5b5090506120b09190611fa0565b5090565b6120dd91905b808211156120d957600081816120d09190612154565b506001016120ba565b5090565b90565b61210991905b8082111561210557600081816120fc919061219c565b506001016120e6565b5090565b90565b50805460018160011615610100020316600290046000825580601f106121325750612151565b601f0160209004906000526020600020908101906121509190611fa0565b5b50565b50805460018160011615610100020316600290046000825580601f1061217a5750612199565b601f0160209004906000526020600020908101906121989190611fa0565b5b50565b50805460008255906000526020600020908101906121ba9190611fa0565b50565b6000813590506121cc81612ddd565b92915050565b600082601f8301126121e357600080fd5b81356121f66121f182612b08565b612adb565b9150818183526020840193506020810190508385602084028201111561221b57600080fd5b60005b8381101561224b578161223188826121bd565b84526020840193506020830192505060018101905061221e565b5050505092915050565b600082601f83011261226657600080fd5b813561227961227482612b30565b612adb565b9150818183526020840193506020810190508360005b838110156122bf57813586016122a5888261233d565b84526020840193506020830192505060018101905061228f565b5050505092915050565b600082601f8301126122da57600080fd5b81356122ed6122e882612b58565b612adb565b9150818183526020840193506020810190508360005b83811015612333578135860161231988826123c0565b845260208401935060208301925050600181019050612303565b5050505092915050565b600082601f83011261234e57600080fd5b813561236161235c82612b80565b612adb565b9150818183526020840193506020810190508385602084028201111561238657600080fd5b60005b838110156123b6578161239c8882612468565b845260208401935060208301925050600181019050612389565b5050505092915050565b600082601f8301126123d157600080fd5b81356123e46123df82612ba8565b612adb565b9150808252602083016020830185838301111561240057600080fd5b61240b838284612d8a565b50505092915050565b600082601f83011261242557600080fd5b813561243861243382612bd4565b612adb565b9150808252602083016020830185838301111561245457600080fd5b61245f838284612d8a565b50505092915050565b60008135905061247781612df4565b92915050565b6000806000806000806000806000806101408b8d03121561249d57600080fd5b60008b013567ffffffffffffffff8111156124b757600080fd5b6124c38d828e01612255565b9a505060208b013567ffffffffffffffff8111156124e057600080fd5b6124ec8d828e016121d2565b99505060408b013567ffffffffffffffff81111561250957600080fd5b6125158d828e016121d2565b98505060608b013567ffffffffffffffff81111561253257600080fd5b61253e8d828e016122c9565b97505060808b013567ffffffffffffffff81111561255b57600080fd5b6125678d828e01612414565b96505060a08b013567ffffffffffffffff81111561258457600080fd5b6125908d828e01612255565b95505060c08b013567ffffffffffffffff8111156125ad57600080fd5b6125b98d828e01612255565b94505060e08b013567ffffffffffffffff8111156125d657600080fd5b6125e28d828e01612255565b9350506101008b013567ffffffffffffffff81111561260057600080fd5b61260c8d828e01612255565b9250506101208b013567ffffffffffffffff81111561262a57600080fd5b6126368d828e01612255565b9150509295989b9194979a5092959850565b60006020828403121561265a57600080fd5b600061266884828501612468565b91505092915050565b6000806040838503121561268457600080fd5b600061269285828601612468565b92505060206126a385828601612468565b9150509250929050565b6000806000606084860312156126c257600080fd5b60006126d086828701612468565b93505060206126e186828701612468565b92505060406126f2868287016121bd565b9150509250925092565b60006127088383612893565b905092915050565b600061271c8383612900565b905092915050565b600061273083836129a3565b60208301905092915050565b61274581612d32565b82525050565b600061275682612c40565b6127608185612cc1565b93508360208202850161277285612c00565b8060005b858110156127ae578484038952815161278f85826126fc565b945061279a83612c8d565b925060208a01995050600181019050612776565b50829750879550505050505092915050565b60006127cb82612c4b565b6127d58185612cd2565b9350836020820285016127e785612c10565b8060005b8581101561282357848403895281516128048582612710565b945061280f83612c9a565b925060208a019950506001810190506127eb565b50829750879550505050505092915050565b600061284082612c61565b61284a8185612cf4565b935061285583612c30565b8060005b8381101561288657815161286d8882612724565b975061287883612cb4565b925050600181019050612859565b5085935050505092915050565b600061289e82612c56565b6128a88185612ce3565b93506128b383612c20565b8060005b838110156128e45781516128cb8882612724565b97506128d683612ca7565b9250506001810190506128b7565b5085935050505092915050565b6128fa81612d44565b82525050565b600061290b82612c6c565b6129158185612d05565b9350612925818560208601612d99565b61292e81612dcc565b840191505092915050565b600061294482612c82565b61294e8185612d16565b935061295e818560208601612d99565b61296781612dcc565b840191505092915050565b600061297d82612c77565b6129878185612d27565b9350612997818560208601612d99565b80840191505092915050565b6129ac81612d70565b82525050565b6129bb81612d70565b82525050565b6129ca81612d7a565b82525050565b60006129dc8284612972565b915081905092915050565b60006020820190506129fc600083018461273c565b92915050565b60006020820190508181036000830152612a1c818461274b565b905092915050565b60006020820190508181036000830152612a3e81846127c0565b905092915050565b60006020820190508181036000830152612a608184612835565b905092915050565b6000602082019050612a7d60008301846128f1565b92915050565b60006020820190508181036000830152612a9d8184612939565b905092915050565b6000602082019050612aba60008301846129b2565b92915050565b6000602082019050612ad560008301846129c1565b92915050565b6000604051905081810181811067ffffffffffffffff82111715612afe57600080fd5b8060405250919050565b600067ffffffffffffffff821115612b1f57600080fd5b602082029050602081019050919050565b600067ffffffffffffffff821115612b4757600080fd5b602082029050602081019050919050565b600067ffffffffffffffff821115612b6f57600080fd5b602082029050602081019050919050565b600067ffffffffffffffff821115612b9757600080fd5b602082029050602081019050919050565b600067ffffffffffffffff821115612bbf57600080fd5b601f19601f8301169050602081019050919050565b600067ffffffffffffffff821115612beb57600080fd5b601f19601f8301169050602081019050919050565b6000819050602082019050919050565b6000819050602082019050919050565b6000819050602082019050919050565b6000819050602082019050919050565b600081519050919050565b600081519050919050565b600081519050919050565b600081519050919050565b600081519050919050565b600081519050919050565b600081519050919050565b6000602082019050919050565b6000602082019050919050565b6000602082019050919050565b6000602082019050919050565b600082825260208201905092915050565b600082825260208201905092915050565b600082825260208201905092915050565b600082825260208201905092915050565b600082825260208201905092915050565b600082825260208201905092915050565b600081905092915050565b6000612d3d82612d50565b9050919050565b60008115159050919050565b600073ffffffffffffffffffffffffffffffffffffffff82169050919050565b6000819050919050565b600063ffffffff82169050919050565b82818337600083830152505050565b60005b83811015612db7578082015181840152602081019050612d9c565b83811115612dc6576000848401525b50505050565b6000601f19601f8301169050919050565b612de681612d32565b8114612df157600080fd5b50565b612dfd81612d70565b8114612e0857600080fd5b5056fea365627a7a72315820b1331290ea78ff6eb56e13b9bc3913660c98360d7ffcf4180431f17fd85a8e7f6c6578706572696d656e74616cf564736f6c63430005100040",
  "source": "//pragma solidity 0.5.10;\npragma solidity ^0.5.16;\npragma experimental ABIEncoderV2;\n\ncontract PublicDCRManager {\n    // event declaration\n    event LogWorkflowCreation(\n        uint256 indexed workflowId,\n        string indexed workflowName,\n        address indexed creator\n    );\n    event LogExecution(\n        uint256 indexed workflowId,\n        uint256 indexed activityId,\n        address indexed executor\n    );\n\n    // variable declarations.\n    struct Workflow {\n        string name;\n        Marking markings;\n        address[] roleAddresses;\n        string[] activityNames;\n        bytes[] ipfsActivityHashes;\n        uint256 numActivities; //number of included activities\n        uint256[][] includesTo;\n        uint256[][] excludesTo;\n        uint256[][] responsesTo;\n        uint256[][] conditionsFrom;\n        uint256[][] milestonesFrom;\n        \n        ApprovalList approvalList;\n        \n        Activity execStatus;\n    }\n    \n    struct Marking {\n        uint256[] included;\n        uint256[] executed;\n        uint256[] pending;\n    }\n\n    struct Activity {\n        uint32 canExecuteCheck;\n        uint256 status; //0=no, 1=yes\n    }\n    \n    struct ApprovalList{\n        address[] addresses;\n        uint[] approval;\n    }\n\n    Workflow[] workflows;\n    \n    \n    \n\n    ///////////////// Misc ////////////////////////\n\n    /** @dev Getter for workflow name.\n      * @param workflowId index of the workflow (eg 0 for the first workflow).\n      * @return workflow name.\n      */\n      \n    function localProjectionApproval(uint256 workflowId) public payable returns (uint[] memory){\n        // get id of approvalList.addresses corresponding to msgSender. If (approval[id]==0): set to one;\n        for (\n            uint256 id = 0;\n            id < workflows[workflowId].approvalList.addresses.length;\n            id++\n        ) {\n            if((msg.sender == workflows[workflowId].approvalList.addresses[id]) && workflows[workflowId].approvalList.approval[id] != 1){\n                workflows[workflowId].approvalList.approval[id] = 1;\n            }\n        }\n        \n        return workflows[workflowId].approvalList.approval;\n    }  \n     \n    \n    function getWorflowName(uint256 workflowId)\n        public\n        view\n        returns (string memory)\n    {\n        return workflows[workflowId].name;\n    }\n\n    /** @dev Getter for workflow execution status.\n      * @param workflowId index of the workflow (eg 0 for the first workflow).\n      * @return execution status of the task: 0=ok, 1= \n      */\n    function getCanExecuteCheck(uint256 workflowId, uint256 activityId)\n        public\n        view\n        returns (uint32)\n    {\n        return workflows[workflowId].execStatus.canExecuteCheck;\n    }\n\n    function getStatus(uint256 workflowId, uint256 activityId)\n        public\n        view\n        returns (uint256)\n    {\n        return workflows[workflowId].execStatus.status;\n    }\n\n    function getWkfLength(uint256 workflowId) public view returns (uint256) {\n        return workflows[workflowId].includesTo.length;\n    }\n\n    function getIncluded(uint256 workflowId)\n        public\n        view\n        returns (uint256[] memory)\n    {\n        return workflows[workflowId].markings.included;\n    }\n\n    function getExecuted(uint256 workflowId)\n        public\n        view\n        returns (uint256[] memory)\n    {\n        return workflows[workflowId].markings.executed;\n    }\n\n    function getPending(uint256 workflowId)\n        public\n        view\n        returns (uint256[] memory)\n    {\n        return workflows[workflowId].markings.pending;\n    }\n\n    function getConditionsFrom(uint256 workflowId)\n        public\n        view\n        returns (uint256[][] memory)\n    {\n        return workflows[workflowId].conditionsFrom;\n    }\n\n    function getHashes(uint256 workflowId)\n        public\n        view\n        returns (bytes[] memory)\n    {\n        return workflows[workflowId].ipfsActivityHashes;\n    }\n\n    function getActivityName(uint256 workflowId, uint256 activityId)\n        public\n        view\n        returns (string memory)\n    {\n        return workflows[workflowId].activityNames[activityId];\n    }\n\n    function getRoleAddresses(uint256 workflowId, uint256 activityId)\n        public\n        view\n        returns (address)\n    {\n        return workflows[workflowId].roleAddresses[activityId];\n    }\n\n    function getApprovalsOutcome(uint256 workflowId)\n        public\n        view\n        returns (uint[] memory)\n    {\n        return (workflows[workflowId].approvalList.approval);\n    }\n\n    function hasApproved(uint256 workflowId)\n        public\n        view\n        returns (uint)\n    {\n        uint res = 0;\n        for (\n            uint256 id = 0;\n            id < workflows[workflowId].approvalList.addresses.length;\n            id++\n        ) {\n            if((msg.sender == workflows[workflowId].approvalList.addresses[id]) && workflows[workflowId].approvalList.approval[id] != 1){\n                res=0;\n            }\n            else{\n                res=1;\n            }\n        }\n        return res;\n    }\n\n    ///////////////// Utils /////////////////////////\n\n    function canExecute(uint256 workflowId, uint256 activityId, address msgSender)\n        public\n        returns (bool)\n    {\n        // check if msg.sender address is correct\n        if (msgSender != workflows[workflowId].roleAddresses[activityId]) {\n            workflows[workflowId].execStatus.canExecuteCheck = 4;\n            return false;\n        }\n        \n        // activity must be included\n        if (workflows[workflowId].markings.included[activityId] == 0) {\n            workflows[workflowId].execStatus.canExecuteCheck = 1;\n            return false;\n        }\n\n        // all conditions executed\n        for (\n            uint256 id = 0;\n            id < workflows[workflowId].conditionsFrom.length;\n            id++\n        ) {\n            uint256[] memory conditionsRow =\n                workflows[workflowId].conditionsFrom[id];\n            if (conditionsRow[activityId] == 1) {\n                if (\n                    (workflows[workflowId].markings.executed[id] == 0) &&\n                    (workflows[workflowId].markings.included[id] == 1)\n                ) {\n                    workflows[workflowId].execStatus.canExecuteCheck = 2;\n                    return false;\n                }\n            }\n        }\n\n        // no milestones pending\n        for (\n            uint256 id = 0;\n            id < workflows[workflowId].milestonesFrom.length;\n            id++\n        ) {\n            uint256[] memory milestonesRow =\n                workflows[workflowId].milestonesFrom[id];\n            if (milestonesRow[activityId] == 1) {\n                if (\n                    (workflows[workflowId].markings.pending[id] == 1) &&\n                    (workflows[workflowId].markings.included[id] == 1)\n                ) {\n                    workflows[workflowId].execStatus.canExecuteCheck = 3;\n                    return false;\n                }\n            }\n        }\n\n        workflows[workflowId].execStatus.canExecuteCheck = 0;\n        return true;\n    }\n\n    ///////////////// Main functions /////////////////////////\n\n    function createWorkflow(\n        // packed state variables\n        uint256[][] memory markingStates, // included, executed, pending\n\n        //process information\n        address[] memory _roleAddresses,\n        address[] memory _addresses,\n\n        string[] memory _activityNames,\n        string memory _name,\n\n        \n        // relations\n        uint256[][] memory _includesTo,\n        uint256[][] memory _excludesTo,\n        uint256[][] memory _responsesTo,\n        uint256[][] memory _conditionsFrom,\n        uint256[][] memory _milestonesFrom\n    ) public payable {\n        Activity memory execStatus = Activity(0, 0);\n        \n        ApprovalList memory approval = ApprovalList(_addresses,new uint[](_addresses.length));\n        Marking memory markings = Marking( markingStates[0],markingStates[1],markingStates[2]);        \n        Workflow memory wf =\n            Workflow(\n                _name,\n                markings,\n                _roleAddresses,\n                _activityNames,\n                new bytes[](markingStates[0].length),\n                markingStates[0].length,\n                _includesTo,\n                _excludesTo,\n                _responsesTo,\n                _conditionsFrom,\n                _milestonesFrom,\n                approval,\n                execStatus\n            );\n        workflows.push(wf);\n\n        emit LogWorkflowCreation(workflows.length - 1, wf.name, msg.sender);\n    }\n\n    function checkCliquedIndex(uint256 workflowId, uint256 activityId)\n        public\n    //        bytes memory ipfsHash\n    {\n        if (!canExecute(workflowId, activityId, msg.sender)) {\n            workflows[workflowId].execStatus.status = 1;\n            //revert();\n        } else {\n            // executed activity\n            workflows[workflowId].markings.executed[activityId] = 1;\n            workflows[workflowId].markings.pending[activityId] = 0;\n            //            workflows[workflowId].ipfsActivityHashes[activityId] = ipfsHash;\n\n            uint256[] memory exclude_vect_check =\n                workflows[workflowId].excludesTo[activityId];\n            uint256[] memory response_vect_check =\n                workflows[workflowId].responsesTo[activityId];\n\n            // add include relations\n            uint256[] memory include_vect_check =\n                workflows[workflowId].includesTo[activityId];\n\n            // update with condition relations ok\n            uint256[] memory conditionsTo =\n                workflows[workflowId].conditionsFrom[activityId]; //extract row condition\n            for (uint256 id = 0; id < conditionsTo.length; id++) {\n                if (conditionsTo[id] == 1) {\n                    include_vect_check[id] = 1;\n                }\n            }\n\n            for (\n                uint256 id = 0;\n                id < workflows[workflowId].excludesTo.length;\n                id++\n            ) {\n                // exclude and include relations pass\n                // note includes happens after the exclude pass\n                // included = (included & ~excludesTo[activityId]) | includesTo[activityId];\n                if (\n                    (exclude_vect_check[id] != 1) &&\n                    (include_vect_check[id] == 1)\n                ) {\n                    workflows[workflowId].markings.included[id] = 1;\n                }\n\n                // response relations pass\n                // pending = (pending | responsesTo[activityId]);\n                if (response_vect_check[id] == 1) {\n                    workflows[workflowId].markings.pending[id] = 1;\n                    workflows[workflowId].markings.included[id] = 1;\n                }\n            }\n\n            emit LogExecution(workflowId, activityId, msg.sender);\n\n            workflows[workflowId].execStatus.status = 1;\n        }\n    }\n}\n",
  "sourcePath": "/home/vtlr2002/source/masterPlatform/contracts/PublicDCRManager.sol",
  "compiler": {
    "name": "solc",
    "version": "0.5.16+commit.9c3226ce.Emscripten.clang"
  },
  "schemaVersion": "3.2.4",
  "updatedAt": "2021-05-12T08:42:03.109Z",
  "networkType": "ethereum",
  "devdoc": {
    "methods": {
      "getCanExecuteCheck(uint256,uint256)": {
        "details": "Getter for workflow execution status.",
        "params": {
          "workflowId": "index of the workflow (eg 0 for the first workflow)."
        },
        "return": "execution status of the task: 0=ok, 1= "
      },
      "localProjectionApproval(uint256)": {
        "details": "Getter for workflow name.",
        "params": {
          "workflowId": "index of the workflow (eg 0 for the first workflow)."
        },
        "return": "workflow name."
      }
    }
  },
  "userdoc": {
    "methods": {
      "canExecute(uint256,uint256,address)": {
        "notice": "////////////// Utils /////////////////////////"
      },
      "createWorkflow(uint256[][],address[],address[],string[],string,uint256[][],uint256[][],uint256[][],uint256[][],uint256[][])": {
        "notice": "////////////// Main functions /////////////////////////"
      }
    }
  }
}