{
  "contractName": "Access_matrix",
  "abi": [
    {
      "constant": false,
      "inputs": [
        {
          "internalType": "string",
          "name": "_hash",
          "type": "string"
        },
        {
          "internalType": "uint256",
          "name": "index",
          "type": "uint256"
        },
        {
          "internalType": "string",
          "name": "_activity",
          "type": "string"
        },
        {
          "internalType": "address",
          "name": "_role",
          "type": "address"
        },
        {
          "internalType": "uint8",
          "name": "_val",
          "type": "uint8"
        }
      ],
      "name": "updateMatrix",
      "outputs": [],
      "payable": false,
      "stateMutability": "nonpayable",
      "type": "function"
    },
    {
      "constant": false,
      "inputs": [
        {
          "internalType": "string",
          "name": "_hash",
          "type": "string"
        },
        {
          "internalType": "uint256",
          "name": "index",
          "type": "uint256"
        },
        {
          "internalType": "string",
          "name": "_newName",
          "type": "string"
        }
      ],
      "name": "setVariableName",
      "outputs": [],
      "payable": false,
      "stateMutability": "nonpayable",
      "type": "function"
    },
    {
      "constant": true,
      "inputs": [
        {
          "internalType": "string",
          "name": "_hash",
          "type": "string"
        },
        {
          "internalType": "uint256",
          "name": "index",
          "type": "uint256"
        }
      ],
      "name": "getVariableName",
      "outputs": [
        {
          "internalType": "string",
          "name": "_varName",
          "type": "string"
        }
      ],
      "payable": false,
      "stateMutability": "view",
      "type": "function"
    },
    {
      "constant": false,
      "inputs": [
        {
          "internalType": "string",
          "name": "_hash",
          "type": "string"
        },
        {
          "internalType": "string",
          "name": "_newName",
          "type": "string"
        },
        {
          "internalType": "string[]",
          "name": "_activities",
          "type": "string[]"
        },
        {
          "internalType": "address[]",
          "name": "_roles",
          "type": "address[]"
        },
        {
          "internalType": "uint8[]",
          "name": "_vals",
          "type": "uint8[]"
        },
        {
          "internalType": "uint256",
          "name": "nbOfElements",
          "type": "uint256"
        }
      ],
      "name": "uploadMatrix",
      "outputs": [],
      "payable": false,
      "stateMutability": "nonpayable",
      "type": "function"
    },
    {
      "constant": false,
      "inputs": [
        {
          "internalType": "string",
          "name": "_hash",
          "type": "string"
        },
        {
          "internalType": "uint256",
          "name": "index",
          "type": "uint256"
        },
        {
          "internalType": "uint32",
          "name": "_variable_value",
          "type": "uint32"
        },
        {
          "internalType": "string",
          "name": "_activity",
          "type": "string"
        }
      ],
      "name": "updateValue",
      "outputs": [],
      "payable": false,
      "stateMutability": "nonpayable",
      "type": "function"
    },
    {
      "constant": true,
      "inputs": [
        {
          "internalType": "string",
          "name": "_hash",
          "type": "string"
        },
        {
          "internalType": "uint256",
          "name": "index",
          "type": "uint256"
        }
      ],
      "name": "getVariableValue",
      "outputs": [
        {
          "internalType": "uint32",
          "name": "_var",
          "type": "uint32"
        }
      ],
      "payable": false,
      "stateMutability": "view",
      "type": "function"
    },
    {
      "constant": true,
      "inputs": [
        {
          "internalType": "string",
          "name": "_hash",
          "type": "string"
        }
      ],
      "name": "getAllVariables",
      "outputs": [
        {
          "internalType": "string[]",
          "name": "",
          "type": "string[]"
        },
        {
          "internalType": "uint32[]",
          "name": "",
          "type": "uint32[]"
        }
      ],
      "payable": false,
      "stateMutability": "view",
      "type": "function"
    },
    {
      "constant": true,
      "inputs": [
        {
          "internalType": "string",
          "name": "_hash",
          "type": "string"
        },
        {
          "internalType": "uint256",
          "name": "index",
          "type": "uint256"
        }
      ],
      "name": "getActivites",
      "outputs": [
        {
          "internalType": "string[]",
          "name": "",
          "type": "string[]"
        }
      ],
      "payable": false,
      "stateMutability": "view",
      "type": "function"
    },
    {
      "constant": true,
      "inputs": [
        {
          "internalType": "string",
          "name": "_hash",
          "type": "string"
        },
        {
          "internalType": "uint256",
          "name": "index",
          "type": "uint256"
        }
      ],
      "name": "getRoles",
      "outputs": [
        {
          "internalType": "address[]",
          "name": "",
          "type": "address[]"
        }
      ],
      "payable": false,
      "stateMutability": "view",
      "type": "function"
    },
    {
      "constant": true,
      "inputs": [
        {
          "internalType": "string",
          "name": "_hash",
          "type": "string"
        },
        {
          "internalType": "uint256",
          "name": "index",
          "type": "uint256"
        },
        {
          "internalType": "string",
          "name": "_activity",
          "type": "string"
        },
        {
          "internalType": "address",
          "name": "_role",
          "type": "address"
        }
      ],
      "name": "getAccess",
      "outputs": [
        {
          "internalType": "uint8",
          "name": "_access",
          "type": "uint8"
        }
      ],
      "payable": false,
      "stateMutability": "view",
      "type": "function"
    },
    {
      "constant": false,
      "inputs": [
        {
          "internalType": "string",
          "name": "_hash",
          "type": "string"
        },
        {
          "internalType": "uint256",
          "name": "index",
          "type": "uint256"
        },
        {
          "internalType": "string",
          "name": "_activity",
          "type": "string"
        }
      ],
      "name": "deleteVariable",
      "outputs": [],
      "payable": false,
      "stateMutability": "nonpayable",
      "type": "function"
    }
  ],
  "bytecode": "0x608060405234801561001057600080fd5b50611d9e806100206000396000f3fe608060405234801561001057600080fd5b50600436106100a95760003560e01c806373b029c31161007157806373b029c31461014e57806389069ea71461017e57806393614356146101af578063aa86c8fc146101df578063bd2895821461020f578063fe7f26921461022b576100a9565b80630b3e9bfc146100ae578063252e7bed146100ca578063612fa967146100e657806361650af7146101025780636725f9131461011e575b600080fd5b6100c860048036036100c3919081019061164f565b61025b565b005b6100e460048036036100df9190810190611496565b610376565b005b61010060048036036100fb9190810190611496565b610443565b005b61011c600480360361011791908101906115a8565b610497565b005b61013860048036036101339190810190611442565b61054a565b60405161014591906119b7565b60405180910390f35b61016860048036036101639190810190611442565b61066e565b6040516101759190611995565b60405180910390f35b61019860048036036101939190810190611300565b610737565b6040516101a69291906119d9565b60405180910390f35b6101c960048036036101c49190810190611442565b61098e565b6040516101d69190611a32565b60405180910390f35b6101f960048036036101f49190810190611515565b6109e2565b6040516102069190611a4d565b60405180910390f35b61022960048036036102249190810190611341565b610a8e565b005b61024560048036036102409190810190611442565b610cb9565b6040516102529190611a10565b60405180910390f35b60006001806003600088604051610272919061197e565b9081526020016040518091039020878154811061028b57fe5b9060005260206000209060050201600001856040516102aa919061197e565b908152602001604051809103902060003373ffffffffffffffffffffffffffffffffffffffff1673ffffffffffffffffffffffffffffffffffffffff16815260200190815260200160002060009054906101000a900460ff1660ff16901c1660ff161490508061031657fe5b82600086604051610327919061197e565b9081526020016040518091039020858154811061034057fe5b906000526020600020906005020160030160006101000a81548163ffffffff021916908363ffffffff1602179055505050505050565b600060018060008660405161038b919061197e565b908152602001604051809103902085815481106103a457fe5b9060005260206000209060050201600001846040516103c3919061197e565b908152602001604051809103902060003373ffffffffffffffffffffffffffffffffffffffff1673ffffffffffffffffffffffffffffffffffffffff16815260200190815260200160002060009054906101000a900460ff161660ff161490508061042a57fe5b3373ffffffffffffffffffffffffffffffffffffffff16ff5b80600084604051610454919061197e565b9081526020016040518091039020838154811061046d57fe5b90600052602060002090600502016004019080519060200190610491929190610d96565b50505050565b806000866040516104a8919061197e565b908152602001604051809103902085815481106104c157fe5b9060005260206000209060050201600001846040516104e0919061197e565b908152602001604051809103902060008473ffffffffffffffffffffffffffffffffffffffff1673ffffffffffffffffffffffffffffffffffffffff16815260200190815260200160002060006101000a81548160ff021916908360ff1602179055505050505050565b606060008360405161055c919061197e565b9081526020016040518091039020828154811061057557fe5b9060005260206000209060050201600101805480602002602001604051908101604052809291908181526020016000905b82821015610662578382906000526020600020018054600181600116156101000203166002900480601f01602080910402602001604051908101604052809291908181526020018280546001816001161561010002031660029004801561064e5780601f106106235761010080835404028352916020019161064e565b820191906000526020600020905b81548152906001019060200180831161063157829003601f168201915b5050505050815260200190600101906105a6565b50505050905092915050565b6060600083604051610680919061197e565b9081526020016040518091039020828154811061069957fe5b906000526020600020906005020160020180548060200260200160405190810160405280929190818152602001828054801561072a57602002820191906000526020600020905b8160009054906101000a900473ffffffffffffffffffffffffffffffffffffffff1673ffffffffffffffffffffffffffffffffffffffff16815260200190600101908083116106e0575b5050505050905092915050565b606080606060008460405161074c919061197e565b90815260200160405180910390208054905060405190808252806020026020018201604052801561079157816020015b606081526020019060019003908161077c5790505b50905060606000856040516107a6919061197e565b9081526020016040518091039020805490506040519080825280602002602001820160405280156107e65781602001602082028038833980820191505090505b50905060008090505b6000866040516107ff919061197e565b90815260200160405180910390208054905081101561098057600086604051610828919061197e565b9081526020016040518091039020818154811061084157fe5b90600052602060002090600502016004018054600181600116156101000203166002900480601f0160208091040260200160405190810160405280929190818152602001828054600181600116156101000203166002900480156108e65780601f106108bb576101008083540402835291602001916108e6565b820191906000526020600020905b8154815290600101906020018083116108c957829003601f168201915b50505050508382815181106108f757fe5b6020026020010181905250600086604051610912919061197e565b9081526020016040518091039020818154811061092b57fe5b906000526020600020906005020160030160009054906101000a900463ffffffff1682828151811061095957fe5b602002602001019063ffffffff16908163ffffffff168152505080806001019150506107ef565b508181935093505050915091565b6000808360405161099f919061197e565b908152602001604051809103902082815481106109b857fe5b906000526020600020906005020160030160009054906101000a900463ffffffff16905092915050565b600080856040516109f3919061197e565b90815260200160405180910390208481548110610a0c57fe5b906000526020600020906005020160000183604051610a2b919061197e565b908152602001604051809103902060008373ffffffffffffffffffffffffffffffffffffffff1673ffffffffffffffffffffffffffffffffffffffff16815260200190815260200160002060009054906101000a900460ff169050949350505050565b610a96610e16565b6040518060800160405280868152602001858152602001600063ffffffff168152602001878152509050600087604051610ad0919061197e565b908152602001604051809103902081908060018154018082558091505090600182039060005260206000209060050201600090919290919091506000820151816001019080519060200190610b26929190610e44565b506020820151816002019080519060200190610b43929190610ea4565b5060408201518160030160006101000a81548163ffffffff021916908363ffffffff1602179055506060820151816004019080519060200190610b87929190610f2e565b5050505060008090505b82811015610caf57838181518110610ba557fe5b6020026020010151600089604051610bbd919061197e565b9081526020016040518091039020600160008b604051610bdd919061197e565b9081526020016040518091039020805490500381548110610bfa57fe5b9060005260206000209060050201600001878381518110610c1757fe5b6020026020010151604051610c2c9190611967565b90815260200160405180910390206000878481518110610c4857fe5b602002602001015173ffffffffffffffffffffffffffffffffffffffff1673ffffffffffffffffffffffffffffffffffffffff16815260200190815260200160002060006101000a81548160ff021916908360ff1602179055508080600101915050610b91565b5050505050505050565b6060600083604051610ccb919061197e565b90815260200160405180910390208281548110610ce457fe5b90600052602060002090600502016004018054600181600116156101000203166002900480601f016020809104026020016040519081016040528092919081815260200182805460018160011615610100020316600290048015610d895780601f10610d5e57610100808354040283529160200191610d89565b820191906000526020600020905b815481529060010190602001808311610d6c57829003601f168201915b5050505050905092915050565b828054600181600116156101000203166002900490600052602060002090601f016020900481019282601f10610dd757805160ff1916838001178555610e05565b82800160010185558215610e05579182015b82811115610e04578251825591602001919060010190610de9565b5b509050610e129190610fae565b5090565b60405180608001604052806060815260200160608152602001600063ffffffff168152602001606081525090565b828054828255906000526020600020908101928215610e93579160200282015b82811115610e92578251829080519060200190610e82929190610f2e565b5091602001919060010190610e64565b5b509050610ea09190610fd3565b5090565b828054828255906000526020600020908101928215610f1d579160200282015b82811115610f1c5782518260006101000a81548173ffffffffffffffffffffffffffffffffffffffff021916908373ffffffffffffffffffffffffffffffffffffffff16021790555091602001919060010190610ec4565b5b509050610f2a9190610fff565b5090565b828054600181600116156101000203166002900490600052602060002090601f016020900481019282601f10610f6f57805160ff1916838001178555610f9d565b82800160010185558215610f9d579182015b82811115610f9c578251825591602001919060010190610f81565b5b509050610faa9190610fae565b5090565b610fd091905b80821115610fcc576000816000905550600101610fb4565b5090565b90565b610ffc91905b80821115610ff85760008181610fef9190611042565b50600101610fd9565b5090565b90565b61103f91905b8082111561103b57600081816101000a81549073ffffffffffffffffffffffffffffffffffffffff021916905550600101611005565b5090565b90565b50805460018160011615610100020316600290046000825580601f106110685750611087565b601f0160209004906000526020600020908101906110869190610fae565b5b50565b60008135905061109981611cff565b92915050565b600082601f8301126110b057600080fd5b81356110c36110be82611a95565b611a68565b915081818352602084019350602081019050838560208402820111156110e857600080fd5b60005b8381101561111857816110fe888261108a565b8452602084019350602083019250506001810190506110eb565b5050505092915050565b600082601f83011261113357600080fd5b813561114661114182611abd565b611a68565b9150818183526020840193506020810190508360005b8381101561118c57813586016111728882611219565b84526020840193506020830192505060018101905061115c565b5050505092915050565b600082601f8301126111a757600080fd5b81356111ba6111b582611ae5565b611a68565b915081818352602084019350602081019050838560208402820111156111df57600080fd5b60005b8381101561120f57816111f588826112eb565b8452602084019350602083019250506001810190506111e2565b5050505092915050565b600082601f83011261122a57600080fd5b813561123d61123882611b0d565b611a68565b9150808252602083016020830185838301111561125957600080fd5b611264838284611cac565b50505092915050565b600082601f83011261127e57600080fd5b813561129161128c82611b39565b611a68565b915080825260208301602083018583830111156112ad57600080fd5b6112b8838284611cac565b50505092915050565b6000813590506112d081611d16565b92915050565b6000813590506112e581611d2d565b92915050565b6000813590506112fa81611d44565b92915050565b60006020828403121561131257600080fd5b600082013567ffffffffffffffff81111561132c57600080fd5b6113388482850161126d565b91505092915050565b60008060008060008060c0878903121561135a57600080fd5b600087013567ffffffffffffffff81111561137457600080fd5b61138089828a0161126d565b965050602087013567ffffffffffffffff81111561139d57600080fd5b6113a989828a0161126d565b955050604087013567ffffffffffffffff8111156113c657600080fd5b6113d289828a01611122565b945050606087013567ffffffffffffffff8111156113ef57600080fd5b6113fb89828a0161109f565b935050608087013567ffffffffffffffff81111561141857600080fd5b61142489828a01611196565b92505060a061143589828a016112c1565b9150509295509295509295565b6000806040838503121561145557600080fd5b600083013567ffffffffffffffff81111561146f57600080fd5b61147b8582860161126d565b925050602061148c858286016112c1565b9150509250929050565b6000806000606084860312156114ab57600080fd5b600084013567ffffffffffffffff8111156114c557600080fd5b6114d18682870161126d565b93505060206114e2868287016112c1565b925050604084013567ffffffffffffffff8111156114ff57600080fd5b61150b8682870161126d565b9150509250925092565b6000806000806080858703121561152b57600080fd5b600085013567ffffffffffffffff81111561154557600080fd5b6115518782880161126d565b9450506020611562878288016112c1565b935050604085013567ffffffffffffffff81111561157f57600080fd5b61158b8782880161126d565b925050606061159c8782880161108a565b91505092959194509250565b600080600080600060a086880312156115c057600080fd5b600086013567ffffffffffffffff8111156115da57600080fd5b6115e68882890161126d565b95505060206115f7888289016112c1565b945050604086013567ffffffffffffffff81111561161457600080fd5b6116208882890161126d565b93505060606116318882890161108a565b9250506080611642888289016112eb565b9150509295509295909350565b6000806000806080858703121561166557600080fd5b600085013567ffffffffffffffff81111561167f57600080fd5b61168b8782880161126d565b945050602061169c878288016112c1565b93505060406116ad878288016112d6565b925050606085013567ffffffffffffffff8111156116ca57600080fd5b6116d68782880161126d565b91505092959194509250565b60006116ee8383611726565b60208301905092915050565b600061170683836118d0565b905092915050565b600061171a838361193a565b60208301905092915050565b61172f81611c53565b82525050565b600061174082611b95565b61174a8185611bf3565b935061175583611b65565b8060005b8381101561178657815161176d88826116e2565b975061177883611bcc565b925050600181019050611759565b5085935050505092915050565b600061179e82611ba0565b6117a88185611c04565b9350836020820285016117ba85611b75565b8060005b858110156117f657848403895281516117d785826116fa565b94506117e283611bd9565b925060208a019950506001810190506117be565b50829750879550505050505092915050565b600061181382611bab565b61181d8185611c15565b935061182883611b85565b8060005b83811015611859578151611840888261170e565b975061184b83611be6565b92505060018101905061182c565b5085935050505092915050565b600061187182611bc1565b61187b8185611c37565b935061188b818560208601611cbb565b61189481611cee565b840191505092915050565b60006118aa82611bc1565b6118b48185611c48565b93506118c4818560208601611cbb565b80840191505092915050565b60006118db82611bb6565b6118e58185611c26565b93506118f5818560208601611cbb565b6118fe81611cee565b840191505092915050565b600061191482611bb6565b61191e8185611c48565b935061192e818560208601611cbb565b80840191505092915050565b61194381611c8f565b82525050565b61195281611c8f565b82525050565b61196181611c9f565b82525050565b60006119738284611909565b915081905092915050565b600061198a828461189f565b915081905092915050565b600060208201905081810360008301526119af8184611735565b905092915050565b600060208201905081810360008301526119d18184611793565b905092915050565b600060408201905081810360008301526119f38185611793565b90508181036020830152611a078184611808565b90509392505050565b60006020820190508181036000830152611a2a8184611866565b905092915050565b6000602082019050611a476000830184611949565b92915050565b6000602082019050611a626000830184611958565b92915050565b6000604051905081810181811067ffffffffffffffff82111715611a8b57600080fd5b8060405250919050565b600067ffffffffffffffff821115611aac57600080fd5b602082029050602081019050919050565b600067ffffffffffffffff821115611ad457600080fd5b602082029050602081019050919050565b600067ffffffffffffffff821115611afc57600080fd5b602082029050602081019050919050565b600067ffffffffffffffff821115611b2457600080fd5b601f19601f8301169050602081019050919050565b600067ffffffffffffffff821115611b5057600080fd5b601f19601f8301169050602081019050919050565b6000819050602082019050919050565b6000819050602082019050919050565b6000819050602082019050919050565b600081519050919050565b600081519050919050565b600081519050919050565b600081519050919050565b600081519050919050565b6000602082019050919050565b6000602082019050919050565b6000602082019050919050565b600082825260208201905092915050565b600082825260208201905092915050565b600082825260208201905092915050565b600082825260208201905092915050565b600082825260208201905092915050565b600081905092915050565b6000611c5e82611c65565b9050919050565b600073ffffffffffffffffffffffffffffffffffffffff82169050919050565b6000819050919050565b600063ffffffff82169050919050565b600060ff82169050919050565b82818337600083830152505050565b60005b83811015611cd9578082015181840152602081019050611cbe565b83811115611ce8576000848401525b50505050565b6000601f19601f8301169050919050565b611d0881611c53565b8114611d1357600080fd5b50565b611d1f81611c85565b8114611d2a57600080fd5b50565b611d3681611c8f565b8114611d4157600080fd5b50565b611d4d81611c9f565b8114611d5857600080fd5b5056fea365627a7a72315820af091df73150bc411002c51f21cc8913972ce7aa4103f88bfd3fa6fa2a3e309f6c6578706572696d656e74616cf564736f6c63430005100040",
  "source": "pragma solidity >=0.5.16;\npragma experimental ABIEncoderV2;\n\n// import \"hardhat/console.sol\";\n\ncontract Access_matrix {\n  struct Variable {\n    mapping(string => mapping(address => uint8)) matrix;\n    string[] activitiesKeys;\n    address[] rolesKeys;\n    uint32 value;\n    string name;\n  }\n\n\n  mapping(string => Variable[]) variables;\n\n    /** @dev Update an entry of the access matrix\n      * @param _activity is the name of the activity \n      * @param _role is the role\n      * @param _val is a 4 bit int that allows to find if a certain matrix entry has access or not to a vraiable (read,write,create,delete) are the four bits.\n      * @return \n      */\n    function updateMatrix(string memory _hash, uint index, string memory _activity, address _role, uint8 _val) public {\n      variables[_hash][index].matrix[_activity][_role] = _val;\n    }\n\n    function setVariableName(string memory _hash, uint index, string memory _newName) public {\n      variables[_hash][index].name = _newName;\n    }\n\n    function getVariableName(string memory _hash, uint index) public view returns (string memory _varName) {\n      return variables[_hash][index].name;\n    }\n\n    function uploadMatrix(string memory _hash, string memory _newName, string[] memory _activities, address[] memory _roles, uint8[] memory _vals, uint nbOfElements) public {\n      Variable memory topush = Variable( {\n        name : _newName,\n        value: 0,\n        activitiesKeys : _activities,\n        rolesKeys: _roles\n      });\n      variables[_hash].push(topush);\n      for(uint k = 0; k < nbOfElements; k++) {\n        variables[_hash][variables[_hash].length - 1].matrix[_activities[k]][_roles[k]] = _vals[k]; \n      }\n    }\n\n    /** @dev Update the variable value if the caller has access\n      * @param _variable_value new variable value \n      * @param _activity name of the activity that want to update the variable value\n      * @return \n      */\n    function updateValue(string memory _hash, uint index, uint32 _variable_value, string memory _activity) public {\n        bool has_access = (variables[_hash][index].matrix[_activity][msg.sender] >> 3 ) & 1 == 1;\n        assert(has_access);\n        variables[_hash][index].value = _variable_value;\n    }\n\n    /** @dev Get the variable value\n      * @return _var the variable value \n      */\n    function getVariableValue(string memory _hash, uint index) public view returns (uint32 _var){\n        return variables[_hash][index].value;\n    }\n\n    function getAllVariables(string memory _hash) public view returns (string[] memory,  uint32[] memory){\n      string[] memory arr = new string[](variables[_hash].length);\n      uint32[] memory vls = new uint32[](variables[_hash].length);\n      for(uint i = 0; i < variables[_hash].length; i++) {\n        arr[i] = (variables[_hash][i].name);\n        vls[i] = (variables[_hash][i].value);\n      }\n      return (arr, vls);\n    }\n\n    function getActivites(string memory _hash, uint index) public view returns (string[] memory) {\n      return variables[_hash][index].activitiesKeys;\n    }\n\n    function getRoles(string memory _hash, uint index) public view returns (address[] memory) {\n      return variables[_hash][index].rolesKeys;\n    }\n\n    function getAccess(string memory _hash, uint index, string memory _activity, address _role) public view returns (uint8 _access) {\n      return  variables[_hash][index].matrix[_activity][_role];\n    }\n\n    /** @dev deletes the contract if the caller has the authorization (first bit starting from right).\n      * @param _activity that want to have access\n      * @return \n      */\n    function deleteVariable(string memory _hash, uint index, string memory _activity) public {\n        bool has_access = (variables[_hash][index].matrix[_activity][msg.sender]) & 1 == 1;\n        assert(has_access);\n        selfdestruct(msg.sender);\n    }\n}",
  "sourcePath": "/home/qlwf4652/Downloads/project/adaptiveChangeDCR/contracts/Access_Matrix.sol",
  "compiler": {
    "name": "solc",
    "version": "0.5.16+commit.9c3226ce.Emscripten.clang"
  },
  "schemaVersion": "3.4.8",
  "updatedAt": "2022-07-19T12:11:04.883Z",
  "devdoc": {
    "methods": {
      "deleteVariable(string,uint256,string)": {
        "details": "deletes the contract if the caller has the authorization (first bit starting from right).",
        "params": {
          "_activity": "that want to have access"
        }
      },
      "getVariableValue(string,uint256)": {
        "details": "Get the variable value",
        "return": "_var the variable value "
      },
      "updateMatrix(string,uint256,string,address,uint8)": {
        "details": "Update an entry of the access matrix",
        "params": {
          "_activity": "is the name of the activity ",
          "_role": "is the role",
          "_val": "is a 4 bit int that allows to find if a certain matrix entry has access or not to a vraiable (read,write,create,delete) are the four bits."
        }
      },
      "updateValue(string,uint256,uint32,string)": {
        "details": "Update the variable value if the caller has access",
        "params": {
          "_activity": "name of the activity that want to update the variable value",
          "_variable_value": "new variable value "
        }
      }
    }
  },
  "userdoc": {
    "methods": {}
  }
}