{
  "contractName": "LibPublicDCRM",
  "abi": [
    {
      "constant": true,
      "inputs": [
        {
          "internalType": "uint256[]",
          "name": "approvals",
          "type": "uint256[]"
        },
        {
          "internalType": "uint256",
          "name": "numEndorsers",
          "type": "uint256"
        }
      ],
      "name": "evaluateChgApproval",
      "outputs": [
        {
          "internalType": "uint256",
          "name": "",
          "type": "uint256"
        }
      ],
      "payable": false,
      "stateMutability": "pure",
      "type": "function"
    }
  ],
  "bytecode": "0x61029d610026600b82828239805160001a60731461001957fe5b30600052607381538281f3fe73000000000000000000000000000000000000000030146080604052600436106100355760003560e01c80631bb975281461003a575b600080fd5b610054600480360361004f9190810190610166565b61006a565b60405161006191906101c9565b60405180910390f35b6000806000905060008090505b838110156100af57600185828151811061008d57fe5b602002602001015114156100a2576001820191505b8080600101915050610077565b50828114156100c25760019150506100c8565b60009150505b92915050565b600082601f8301126100df57600080fd5b81356100f26100ed82610211565b6101e4565b9150818183526020840193506020810190508385602084028201111561011757600080fd5b60005b83811015610147578161012d8882610151565b84526020840193506020830192505060018101905061011a565b5050505092915050565b60008135905061016081610243565b92915050565b6000806040838503121561017957600080fd5b600083013567ffffffffffffffff81111561019357600080fd5b61019f858286016100ce565b92505060206101b085828601610151565b9150509250929050565b6101c381610239565b82525050565b60006020820190506101de60008301846101ba565b92915050565b6000604051905081810181811067ffffffffffffffff8211171561020757600080fd5b8060405250919050565b600067ffffffffffffffff82111561022857600080fd5b602082029050602081019050919050565b6000819050919050565b61024c81610239565b811461025757600080fd5b5056fea365627a7a72315820bbe87fb6c57e9563e38b5f05601bb8b405dc5cbe601347cb9e033ac181219b896c6578706572696d656e74616cf564736f6c63430005100040",
  "source": "pragma solidity ^0.5.16;\npragma experimental ABIEncoderV2;\n\nlibrary LibPublicDCRM {\n\n        function evaluateChgApproval(uint[] memory approvals, uint numEndorsers) public pure returns (uint){\n        uint totalRsp =0; //message sender is already ok \n            \n            for ( \n                    uint256 id = 0;\n                    id < numEndorsers;\n                    id++\n                ) {\n                    if((approvals[id] == 1)){\n                        totalRsp = totalRsp+1;\n                    }\n                }\n                \n            if (totalRsp == numEndorsers){\n                return 1;\n            }\n            else{\n                return 0;\n            }\n    }\n\n\n\n}",
  "sourcePath": "/home/qlwf4652/Downloads/project/adaptiveChangeDCR/contracts/LibPublicDCRM.sol",
  "compiler": {
    "name": "solc",
    "version": "0.5.16+commit.9c3226ce.Emscripten.clang"
  },
  "schemaVersion": "3.4.8",
  "updatedAt": "2022-07-19T12:13:30.235Z",
  "networkType": "ethereum",
  "devdoc": {
    "methods": {}
  },
  "userdoc": {
    "methods": {}
  }
}