{
  "contractName": "PublicDCRManager",
  "abi": [
    {
      "anonymous": false,
      "inputs": [
        {
          "indexed": false,
          "internalType": "string",
          "name": "reqWkfHash",
          "type": "string"
        },
        {
          "indexed": true,
          "internalType": "address",
          "name": "endorser",
          "type": "address"
        }
      ],
      "name": "AcceptChange",
      "type": "event"
    },
    {
      "anonymous": false,
      "inputs": [
        {
          "indexed": false,
          "internalType": "string",
          "name": "reqWkfHash",
          "type": "string"
        }
      ],
      "name": "AcceptChangeAll",
      "type": "event"
    },
    {
      "anonymous": false,
      "inputs": [
        {
          "indexed": false,
          "internalType": "string",
          "name": "reqWkfHash",
          "type": "string"
        },
        {
          "indexed": true,
          "internalType": "address",
          "name": "endorser",
          "type": "address"
        }
      ],
      "name": "DeclineChange",
      "type": "event"
    },
    {
      "anonymous": false,
      "inputs": [
        {
          "indexed": true,
          "internalType": "string",
          "name": "workflowHash",
          "type": "string"
        },
        {
          "indexed": true,
          "internalType": "uint256",
          "name": "activityId",
          "type": "uint256"
        },
        {
          "indexed": true,
          "internalType": "uint256",
          "name": "status",
          "type": "uint256"
        }
      ],
      "name": "LogExecution",
      "type": "event"
    },
    {
      "anonymous": false,
      "inputs": [
        {
          "indexed": true,
          "internalType": "string",
          "name": "workflowHash",
          "type": "string"
        },
        {
          "indexed": true,
          "internalType": "address",
          "name": "creator",
          "type": "address"
        }
      ],
      "name": "LogWorkflowCreation",
      "type": "event"
    },
    {
      "anonymous": false,
      "inputs": [
        {
          "indexed": true,
          "internalType": "string",
          "name": "workflowHash",
          "type": "string"
        },
        {
          "indexed": true,
          "internalType": "address",
          "name": "creator",
          "type": "address"
        }
      ],
      "name": "LogWorkflowProjection",
      "type": "event"
    },
    {
      "anonymous": false,
      "inputs": [
        {
          "indexed": false,
          "internalType": "string",
          "name": "reqWkfHash",
          "type": "string"
        },
        {
          "indexed": true,
          "internalType": "address",
          "name": "endorser",
          "type": "address"
        },
        {
          "indexed": false,
          "internalType": "string",
          "name": "comment",
          "type": "string"
        }
      ],
      "name": "RSPErrorChange",
      "type": "event"
    },
    {
      "anonymous": false,
      "inputs": [
        {
          "indexed": false,
          "internalType": "string",
          "name": "workflowHashes",
          "type": "string"
        },
        {
          "indexed": true,
          "internalType": "address",
          "name": "endorser",
          "type": "address"
        },
        {
          "indexed": true,
          "internalType": "address",
          "name": "initiator",
          "type": "address"
        }
      ],
      "name": "RequestChange",
      "type": "event"
    },
    {
      "constant": true,
      "inputs": [],
      "name": "getAllWKHashes",
      "outputs": [
        {
          "internalType": "string[]",
          "name": "",
          "type": "string[]"
        }
      ],
      "payable": false,
      "stateMutability": "view",
      "type": "function"
    },
    {
      "constant": true,
      "inputs": [
        {
          "internalType": "string",
          "name": "_hash",
          "type": "string"
        }
      ],
      "name": "getChangeArgs",
      "outputs": [
        {
          "internalType": "string",
          "name": "reqHash",
          "type": "string"
        },
        {
          "internalType": "uint256",
          "name": "ChangeValue",
          "type": "uint256"
        },
        {
          "internalType": "uint256",
          "name": "WKFValue",
          "type": "uint256"
        },
        {
          "internalType": "string",
          "name": "_Test",
          "type": "string"
        },
        {
          "internalType": "uint256[]",
          "name": "ChangeEndorsement",
          "type": "uint256[]"
        },
        {
          "internalType": "uint256",
          "name": "numEndorsers",
          "type": "uint256"
        },
        {
          "internalType": "address",
          "name": "initiator",
          "type": "address"
        }
      ],
      "payable": false,
      "stateMutability": "view",
      "type": "function"
    },
    {
      "constant": true,
      "inputs": [
        {
          "internalType": "string",
          "name": "_hash",
          "type": "string"
        }
      ],
      "name": "getCanExecuteCheck",
      "outputs": [
        {
          "internalType": "uint32",
          "name": "",
          "type": "uint32"
        }
      ],
      "payable": false,
      "stateMutability": "view",
      "type": "function"
    },
    {
      "constant": true,
      "inputs": [
        {
          "internalType": "string",
          "name": "_hash",
          "type": "string"
        }
      ],
      "name": "getVariableAddress",
      "outputs": [
        {
          "internalType": "address",
          "name": "",
          "type": "address"
        }
      ],
      "payable": false,
      "stateMutability": "view",
      "type": "function"
    },
    {
      "constant": true,
      "inputs": [
        {
          "internalType": "string",
          "name": "_hash",
          "type": "string"
        }
      ],
      "name": "getIncluded",
      "outputs": [
        {
          "internalType": "uint256[]",
          "name": "",
          "type": "uint256[]"
        }
      ],
      "payable": false,
      "stateMutability": "view",
      "type": "function"
    },
    {
      "constant": true,
      "inputs": [
        {
          "internalType": "string",
          "name": "_hash",
          "type": "string"
        }
      ],
      "name": "getExecuted",
      "outputs": [
        {
          "internalType": "uint256[]",
          "name": "",
          "type": "uint256[]"
        }
      ],
      "payable": false,
      "stateMutability": "view",
      "type": "function"
    },
    {
      "constant": true,
      "inputs": [
        {
          "internalType": "string",
          "name": "_hash",
          "type": "string"
        }
      ],
      "name": "getPending",
      "outputs": [
        {
          "internalType": "uint256[]",
          "name": "",
          "type": "uint256[]"
        }
      ],
      "payable": false,
      "stateMutability": "view",
      "type": "function"
    },
    {
      "constant": true,
      "inputs": [
        {
          "internalType": "string",
          "name": "_hash",
          "type": "string"
        }
      ],
      "name": "getConditionsFrom",
      "outputs": [
        {
          "internalType": "uint256[][]",
          "name": "",
          "type": "uint256[][]"
        }
      ],
      "payable": false,
      "stateMutability": "view",
      "type": "function"
    },
    {
      "constant": true,
      "inputs": [
        {
          "internalType": "string",
          "name": "_hash",
          "type": "string"
        }
      ],
      "name": "getHashes",
      "outputs": [
        {
          "internalType": "bytes[]",
          "name": "",
          "type": "bytes[]"
        }
      ],
      "payable": false,
      "stateMutability": "view",
      "type": "function"
    },
    {
      "constant": true,
      "inputs": [
        {
          "internalType": "string",
          "name": "_hash",
          "type": "string"
        },
        {
          "internalType": "uint256",
          "name": "activityId",
          "type": "uint256"
        }
      ],
      "name": "getRoleAddresses",
      "outputs": [
        {
          "internalType": "address",
          "name": "",
          "type": "address"
        }
      ],
      "payable": false,
      "stateMutability": "view",
      "type": "function"
    },
    {
      "constant": true,
      "inputs": [
        {
          "internalType": "string",
          "name": "_hash",
          "type": "string"
        }
      ],
      "name": "getAddresses",
      "outputs": [
        {
          "internalType": "address[]",
          "name": "",
          "type": "address[]"
        }
      ],
      "payable": false,
      "stateMutability": "view",
      "type": "function"
    },
    {
      "constant": true,
      "inputs": [
        {
          "internalType": "string",
          "name": "_hash",
          "type": "string"
        }
      ],
      "name": "getEndorserAddresses",
      "outputs": [
        {
          "internalType": "address[]",
          "name": "",
          "type": "address[]"
        }
      ],
      "payable": false,
      "stateMutability": "view",
      "type": "function"
    },
    {
      "constant": false,
      "inputs": [
        {
          "internalType": "address",
          "name": "myAddress",
          "type": "address"
        },
        {
          "internalType": "address[]",
          "name": "toNotify",
          "type": "address[]"
        },
        {
          "internalType": "string",
          "name": "_hashes",
          "type": "string"
        },
        {
          "internalType": "string",
          "name": "curr_hash",
          "type": "string"
        },
        {
          "internalType": "string",
          "name": "req_hash",
          "type": "string"
        }
      ],
      "name": "requestChange",
      "outputs": [],
      "payable": true,
      "stateMutability": "payable",
      "type": "function"
    },
    {
      "constant": false,
      "inputs": [
        {
          "internalType": "string",
          "name": "myHash",
          "type": "string"
        }
      ],
      "name": "finalApprovalManager",
      "outputs": [],
      "payable": true,
      "stateMutability": "payable",
      "type": "function"
    },
    {
      "constant": false,
      "inputs": [
        {
          "internalType": "address",
          "name": "myAddress",
          "type": "address"
        },
        {
          "internalType": "address[]",
          "name": "myAddresses",
          "type": "address[]"
        },
        {
          "internalType": "string",
          "name": "myHash",
          "type": "string"
        },
        {
          "internalType": "uint256",
          "name": "myDecision",
          "type": "uint256"
        }
      ],
      "name": "updateTableOnAddress",
      "outputs": [],
      "payable": true,
      "stateMutability": "payable",
      "type": "function"
    },
    {
      "constant": false,
      "inputs": [
        {
          "internalType": "address",
          "name": "myAddress",
          "type": "address"
        },
        {
          "internalType": "string",
          "name": "curr_hash",
          "type": "string"
        },
        {
          "internalType": "string",
          "name": "req_hash",
          "type": "string"
        },
        {
          "internalType": "uint256",
          "name": "rsp",
          "type": "uint256"
        }
      ],
      "name": "endorserRSP",
      "outputs": [
        {
          "internalType": "string",
          "name": "",
          "type": "string"
        }
      ],
      "payable": true,
      "stateMutability": "payable",
      "type": "function"
    },
    {
      "constant": true,
      "inputs": [
        {
          "internalType": "string",
          "name": "_hash",
          "type": "string"
        }
      ],
      "name": "getChangeApprovalsOutcome",
      "outputs": [
        {
          "internalType": "uint256[]",
          "name": "",
          "type": "uint256[]"
        }
      ],
      "payable": false,
      "stateMutability": "view",
      "type": "function"
    },
    {
      "constant": true,
      "inputs": [
        {
          "internalType": "string",
          "name": "_hash",
          "type": "string"
        },
        {
          "internalType": "address",
          "name": "myAddress",
          "type": "address"
        }
      ],
      "name": "hasApprovedProjection",
      "outputs": [
        {
          "internalType": "uint256",
          "name": "",
          "type": "uint256"
        }
      ],
      "payable": false,
      "stateMutability": "view",
      "type": "function"
    },
    {
      "constant": false,
      "inputs": [
        {
          "internalType": "string",
          "name": "_hash",
          "type": "string"
        },
        {
          "internalType": "address",
          "name": "myAddress",
          "type": "address"
        }
      ],
      "name": "confirmChangeProjection",
      "outputs": [
        {
          "internalType": "uint256[]",
          "name": "",
          "type": "uint256[]"
        }
      ],
      "payable": true,
      "stateMutability": "payable",
      "type": "function"
    },
    {
      "constant": false,
      "inputs": [
        {
          "internalType": "string",
          "name": "_hash",
          "type": "string"
        },
        {
          "internalType": "address",
          "name": "myAddress",
          "type": "address"
        }
      ],
      "name": "fetchPublicView",
      "outputs": [
        {
          "internalType": "string",
          "name": "",
          "type": "string"
        }
      ],
      "payable": true,
      "stateMutability": "payable",
      "type": "function"
    },
    {
      "constant": true,
      "inputs": [
        {
          "internalType": "string",
          "name": "_hash",
          "type": "string"
        }
      ],
      "name": "getApprovalsOutcome",
      "outputs": [
        {
          "internalType": "uint256[]",
          "name": "",
          "type": "uint256[]"
        }
      ],
      "payable": false,
      "stateMutability": "view",
      "type": "function"
    },
    {
      "constant": true,
      "inputs": [
        {
          "internalType": "string",
          "name": "_hash",
          "type": "string"
        },
        {
          "internalType": "address",
          "name": "myAddress",
          "type": "address"
        }
      ],
      "name": "hasApproved",
      "outputs": [
        {
          "internalType": "uint256",
          "name": "",
          "type": "uint256"
        }
      ],
      "payable": false,
      "stateMutability": "view",
      "type": "function"
    },
    {
      "constant": false,
      "inputs": [
        {
          "internalType": "string",
          "name": "_hash",
          "type": "string"
        },
        {
          "internalType": "address",
          "name": "myAddress",
          "type": "address"
        }
      ],
      "name": "confirmProjection",
      "outputs": [
        {
          "internalType": "uint256[]",
          "name": "",
          "type": "uint256[]"
        }
      ],
      "payable": true,
      "stateMutability": "payable",
      "type": "function"
    },
    {
      "constant": false,
      "inputs": [
        {
          "internalType": "string",
          "name": "_hash",
          "type": "string"
        },
        {
          "internalType": "uint256",
          "name": "activityId",
          "type": "uint256"
        },
        {
          "internalType": "address",
          "name": "msgSender",
          "type": "address"
        }
      ],
      "name": "canExecute",
      "outputs": [
        {
          "internalType": "bool",
          "name": "",
          "type": "bool"
        }
      ],
      "payable": false,
      "stateMutability": "nonpayable",
      "type": "function"
    },
    {
      "constant": false,
      "inputs": [
        {
          "internalType": "string",
          "name": "_hash",
          "type": "string"
        },
        {
          "internalType": "uint256",
          "name": "activityId",
          "type": "uint256"
        }
      ],
      "name": "checkCliquedIndex",
      "outputs": [],
      "payable": false,
      "stateMutability": "nonpayable",
      "type": "function"
    },
    {
      "constant": false,
      "inputs": [
        {
          "internalType": "uint256[][]",
          "name": "markingStates",
          "type": "uint256[][]"
        },
        {
          "internalType": "string",
          "name": "_ipfsViewHash",
          "type": "string"
        },
        {
          "internalType": "address[]",
          "name": "_roleAddresses",
          "type": "address[]"
        },
        {
          "internalType": "address[]",
          "name": "_approvalAddresses",
          "type": "address[]"
        },
        {
          "internalType": "string[]",
          "name": "_activityNames",
          "type": "string[]"
        },
        {
          "internalType": "string",
          "name": "_name",
          "type": "string"
        },
        {
          "internalType": "uint256[][][]",
          "name": "_relations",
          "type": "uint256[][][]"
        }
      ],
      "name": "uploadPublicView",
      "outputs": [
        {
          "internalType": "address",
          "name": "",
          "type": "address"
        }
      ],
      "payable": true,
      "stateMutability": "payable",
      "type": "function"
    }
  ],
  "bytecode": "0x608060405260405180604001604052806040518060400160405280600481526020017f696e69740000000000000000000000000000000000000000000000000000000081525081526020016040518060400160405280600481526020017f696e697400000000000000000000000000000000000000000000000000000000815250815250600080820151816000019080519060200190620000a2929190620000d8565b506020820151816001019080519060200190620000c1929190620000d8565b505050348015620000d157600080fd5b5062000187565b828054600181600116156101000203166002900490600052602060002090601f016020900481019282601f106200011b57805160ff19168380011785556200014c565b828001600101855582156200014c579182015b828111156200014b5782518255916020019190600101906200012e565b5b5090506200015b91906200015f565b5090565b6200018491905b808211156200018057600081600090555060010162000166565b5090565b90565b6177a280620001976000396000f3fe6080604052600436106101815760003560e01c8063827f9511116100d1578063cb2c95141161008a578063e7cf96e711610064578063e7cf96e714610633578063e9b2b88614610670578063ee69739d146106ad578063f89a3b10146106c957610181565b8063cb2c95141461058a578063cb89cdfd146105b3578063d2fbf948146105f057610181565b8063827f95111461046b57806385e0efc0146104a85780639694f9fb146104c45780639930767114610501578063a158e4b01461053e578063b872384d1461055a57610181565b806342c59b281161013e5780636342b1c2116101185780636342b1c21461039157806365c6865b146103ce5780636cb4e345146103fe5780636f384bfc1461043b57610181565b806342c59b28146102da5780634e894b3214610317578063583b7e321461035457610181565b806302413fd4146101865780630ce36024146101c357806318008e57146101f3578063290930a2146102235780632c3c0f9c1461026057806339b64c301461029d575b600080fd5b34801561019257600080fd5b506101ad60048036036101a891908101906149e0565b6106f4565b6040516101ba91906152c6565b60405180910390f35b6101dd60048036036101d89190810190614a21565b610770565b6040516101ea91906152c6565b60405180910390f35b61020d60048036036102089190810190614a21565b610ab1565b60405161021a9190615333565b60405180910390f35b34801561022f57600080fd5b5061024a600480360361024591908101906149e0565b610d2d565b60405161025791906154c0565b60405180910390f35b34801561026c57600080fd5b5061028760048036036102829190810190614ac9565b610d6b565b6040516102949190615318565b60405180910390f35b3480156102a957600080fd5b506102c460048036036102bf91908101906149e0565b6112f3565b6040516102d1919061523e565b60405180910390f35b3480156102e657600080fd5b5061030160048036036102fc91908101906149e0565b6113a2565b60405161030e919061523e565b60405180910390f35b34801561032357600080fd5b5061033e600480360361033991908101906149e0565b611451565b60405161034b9190615260565b60405180910390f35b34801561036057600080fd5b5061037b600480360361037691908101906149e0565b611527565b6040516103889190615223565b60405180910390f35b34801561039d57600080fd5b506103b860048036036103b391908101906149e0565b611572565b6040516103c591906152c6565b60405180910390f35b6103e860048036036103e39190810190614807565b6115ee565b6040516103f59190615333565b60405180910390f35b34801561040a57600080fd5b5061042560048036036104209190810190614a21565b61198e565b60405161043291906154a5565b60405180910390f35b6104556004803603610450919081019061489a565b611ab1565b6040516104629190615223565b60405180910390f35b34801561047757600080fd5b50610492600480360361048d9190810190614a75565b61222b565b60405161049f9190615223565b60405180910390f35b6104c260048036036104bd9190810190614774565b61228c565b005b3480156104d057600080fd5b506104eb60048036036104e691908101906149e0565b612332565b6040516104f89190615282565b60405180910390f35b34801561050d57600080fd5b50610528600480360361052391908101906149e0565b61243c565b60405161053591906152c6565b60405180910390f35b610558600480360361055391908101906149e0565b6124b5565b005b610574600480360361056f9190810190614a21565b61265d565b60405161058191906152c6565b60405180910390f35b34801561059657600080fd5b506105b160048036036105ac9190810190614a75565b612bfd565b005b3480156105bf57600080fd5b506105da60048036036105d591908101906149e0565b6131b3565b6040516105e791906152c6565b60405180910390f35b3480156105fc57600080fd5b50610617600480360361061291908101906149e0565b61322f565b60405161062a97969594939291906153bf565b60405180910390f35b34801561063f57600080fd5b5061065a60048036036106559190810190614a21565b6134fb565b60405161066791906154a5565b60405180910390f35b34801561067c57600080fd5b50610697600480360361069291908101906149e0565b61361e565b6040516106a491906152c6565b60405180910390f35b6106c760048036036106c2919081019061469d565b613697565b005b3480156106d557600080fd5b506106de613a14565b6040516106eb91906152a4565b60405180910390f35b6060600382604051610706919061520c565b908152602001604051809103902060030160000180548060200260200160405190810160405280929190818152602001828054801561076457602002820191906000526020600020905b815481526020019060010190808311610750575b50505050509050919050565b60603373ffffffffffffffffffffffffffffffffffffffff168273ffffffffffffffffffffffffffffffffffffffff16146107e0576040517f08c379a00000000000000000000000000000000000000000000000000000000081526004016107d790615465565b60405180910390fd5b60008090505b6003846040516107f6919061520c565b9081526020016040518091039020600b0180549050811015610a3757600384604051610822919061520c565b9081526020016040518091039020600b01818154811061083e57fe5b9060005260206000200160009054906101000a900473ffffffffffffffffffffffffffffffffffffffff1673ffffffffffffffffffffffffffffffffffffffff168373ffffffffffffffffffffffffffffffffffffffff161480156108d9575060016003856040516108b0919061520c565b9081526020016040518091039020600d0182815481106108cc57fe5b9060005260206000200154145b15610a2a5760016003856040516108f0919061520c565b9081526020016040518091039020600c01828154811061090c57fe5b906000526020600020015414610a2957600160038560405161092e919061520c565b9081526020016040518091039020600c01828154811061094a57fe5b90600052602060002001819055508273ffffffffffffffffffffffffffffffffffffffff168460405161097d919061520c565b60405180910390207fef93748ef353323feced9a53b1f9433297bf50235a9d5aa97783d3f30d4682e460405160405180910390a36003846040516109c1919061520c565b9081526020016040518091039020600c01805480602002602001604051908101604052809291908181526020018280548015610a1c57602002820191906000526020600020905b815481526020019060010190808311610a08575b5050505050915050610aab565b5b80806001019150506107e6565b50600383604051610a48919061520c565b9081526020016040518091039020600c01805480602002602001604051908101604052809291908181526020018280548015610aa357602002820191906000526020600020905b815481526020019060010190808311610a8f575b505050505090505b92915050565b60608173ffffffffffffffffffffffffffffffffffffffff163373ffffffffffffffffffffffffffffffffffffffff1614610b21576040517f08c379a0000000000000000000000000000000000000000000000000000000008152600401610b1890615485565b60405180910390fd5b60008090505b600384604051610b37919061520c565b9081526020016040518091039020600b0180549050811015610c6a57600384604051610b63919061520c565b9081526020016040518091039020600b018181548110610b7f57fe5b9060005260206000200160009054906101000a900473ffffffffffffffffffffffffffffffffffffffff1673ffffffffffffffffffffffffffffffffffffffff168373ffffffffffffffffffffffffffffffffffffffff16148015610c1b57506001600385604051610bf1919061520c565b9081526020016040518091039020600d018281548110610c0d57fe5b906000526020600020015414155b15610c5d576001600385604051610c32919061520c565b9081526020016040518091039020600d018281548110610c4e57fe5b90600052602060002001819055505b8080600101915050610b27565b50600383604051610c7b919061520c565b90815260200160405180910390206002018054600181600116156101000203166002900480601f016020809104026020016040519081016040528092919081815260200182805460018160011615610100020316600290048015610d205780601f10610cf557610100808354040283529160200191610d20565b820191906000526020600020905b815481529060010190602001808311610d0357829003601f168201915b5050505050905092915050565b6000600382604051610d3f919061520c565b9081526020016040518091039020600e0160000160009054906101000a900463ffffffff169050919050565b6000600384604051610d7d919061520c565b90815260200160405180910390206006018381548110610d9957fe5b9060005260206000200160009054906101000a900473ffffffffffffffffffffffffffffffffffffffff1673ffffffffffffffffffffffffffffffffffffffff168273ffffffffffffffffffffffffffffffffffffffff1614610e43576004600385604051610e08919061520c565b9081526020016040518091039020600e0160000160006101000a81548163ffffffff021916908363ffffffff160217905550600090506112ec565b6000600385604051610e55919061520c565b90815260200160405180910390206003016000018481548110610e7457fe5b90600052602060002001541415610ed2576001600385604051610e97919061520c565b9081526020016040518091039020600e0160000160006101000a81548163ffffffff021916908363ffffffff160217905550600090506112ec565b60008090505b600385604051610ee8919061520c565b9081526020016040518091039020600a01600381548110610f0557fe5b90600052602060002001805490508110156110ba576060600386604051610f2c919061520c565b9081526020016040518091039020600a01600381548110610f4957fe5b906000526020600020018281548110610f5e57fe5b90600052602060002001805480602002602001604051908101604052809291908181526020018280548015610fb257602002820191906000526020600020905b815481526020019060010190808311610f9e575b505050505090506001818681518110610fc757fe5b602002602001015114156110ac576000600387604051610fe7919061520c565b9081526020016040518091039020600301600101838154811061100657fe5b90600052602060002001541480156110575750600160038760405161102b919061520c565b9081526020016040518091039020600301600001838154811061104a57fe5b9060005260206000200154145b156110ab57600260038760405161106e919061520c565b9081526020016040518091039020600e0160000160006101000a81548163ffffffff021916908363ffffffff1602179055506000925050506112ec565b5b508080600101915050610ed8565b5060008090505b6003856040516110d1919061520c565b9081526020016040518091039020600a016004815481106110ee57fe5b90600052602060002001805490508110156112a2576060600386604051611115919061520c565b9081526020016040518091039020600a0160048154811061113257fe5b90600052602060002001828154811061114757fe5b9060005260206000200180548060200260200160405190810160405280929190818152602001828054801561119b57602002820191906000526020600020905b815481526020019060010190808311611187575b5050505050905060018186815181106111b057fe5b602002602001015114156112945760016003876040516111d0919061520c565b908152602001604051809103902060030160020183815481106111ef57fe5b906000526020600020015414801561124057506001600387604051611214919061520c565b9081526020016040518091039020600301600001838154811061123357fe5b9060005260206000200154145b156112935760038087604051611256919061520c565b9081526020016040518091039020600e0160000160006101000a81548163ffffffff021916908363ffffffff1602179055506000925050506112ec565b5b5080806001019150506110c1565b5060006003856040516112b5919061520c565b9081526020016040518091039020600e0160000160006101000a81548163ffffffff021916908363ffffffff160217905550600190505b9392505050565b6060600382604051611305919061520c565b9081526020016040518091039020600b0180548060200260200160405190810160405280929190818152602001828054801561139657602002820191906000526020600020905b8160009054906101000a900473ffffffffffffffffffffffffffffffffffffffff1673ffffffffffffffffffffffffffffffffffffffff168152602001906001019080831161134c575b50505050509050919050565b60606004826040516113b4919061520c565b908152602001604051809103902060040180548060200260200160405190810160405280929190818152602001828054801561144557602002820191906000526020600020905b8160009054906101000a900473ffffffffffffffffffffffffffffffffffffffff1673ffffffffffffffffffffffffffffffffffffffff16815260200190600101908083116113fb575b50505050509050919050565b6060600382604051611463919061520c565b9081526020016040518091039020600a0160038154811061148057fe5b90600052602060002001805480602002602001604051908101604052809291908181526020016000905b8282101561151c5783829060005260206000200180548060200260200160405190810160405280929190818152602001828054801561150857602002820191906000526020600020905b8154815260200190600101908083116114f4575b5050505050815260200190600101906114aa565b505050509050919050565b6000600382604051611539919061520c565b908152602001604051809103902060100160009054906101000a900473ffffffffffffffffffffffffffffffffffffffff169050919050565b6060600382604051611584919061520c565b90815260200160405180910390206003016001018054806020026020016040519081016040528092919081815260200182805480156115e257602002820191906000526020600020905b8154815260200190600101908083116115ce575b50505050509050919050565b6060600260048111156115fd57fe5b60048560405161160d919061520c565b908152602001604051809103902060020160009054906101000a900460ff16600481111561163757fe5b141561196a576040518060400160405280600c81526020017f656e746572696e674e6f6465000000000000000000000000000000000000000081525060008001908051906020019061168a929190613afd565b5060018214156117f057611746856004866040516116a8919061520c565b908152602001604051809103902060040180548060200260200160405190810160405280929190818152602001828054801561173957602002820191906000526020600020905b8160009054906101000a900473ffffffffffffffffffffffffffffffffffffffff1673ffffffffffffffffffffffffffffffffffffffff16815260200190600101908083116116ef575b505050505086600161228c565b6040518060400160405280601681526020017f617070726f766564206279206f6e6520706572736f6e00000000000000000000815250600080019080519060200190611793929190613afd565b508473ffffffffffffffffffffffffffffffffffffffff167fe9c7cbf4a3feb2b50db16225158a7170e01af4e7a4b2d243eeec352242dffdfd846040516117da9190615333565b60405180910390a26117eb846124b5565b61192d565b60028214156118dd576040518060400160405280600881526020017f6465636c696e6564000000000000000000000000000000000000000000000000815250600080019080519060200190611846929190613afd565b506003600485604051611859919061520c565b908152602001604051809103902060020160006101000a81548160ff0219169083600481111561188557fe5b02179055508473ffffffffffffffffffffffffffffffffffffffff167f1592b7870c0c0627d9de8a8794012705b34a6640c1456b714a685eb5cc987c33846040516118d09190615333565b60405180910390a261192c565b8473ffffffffffffffffffffffffffffffffffffffff167fc4f2afae15f3e7da4e4f139081d67f69ef9f4c3736a6649eb2fa18537713031584604051611923919061538a565b60405180910390a25b5b6040518060400160405280600d81526020017f5253502070726f636573736564000000000000000000000000000000000000008152509050611986565b6040518060600160405280602c8152602001617734602c913990505b949350505050565b600080600090505b6003846040516119a6919061520c565b9081526020016040518091039020600b0180549050811015611aa5576003846040516119d2919061520c565b9081526020016040518091039020600b0181815481106119ee57fe5b9060005260206000200160009054906101000a900473ffffffffffffffffffffffffffffffffffffffff1673ffffffffffffffffffffffffffffffffffffffff168373ffffffffffffffffffffffffffffffffffffffff16148015611a8957506001600385604051611a60919061520c565b9081526020016040518091039020600c018281548110611a7c57fe5b9060005260206000200154145b15611a98576001915050611aab565b8080600101915050611996565b50600090505b92915050565b600080604051611ac090613b7d565b604051809103906000f080158015611adc573d6000803e3d6000fd5b509050611ae7613b8a565b6040518060400160405280600063ffffffff16815260200160008152509050611b0e613baa565b60405180606001604052808c600081518110611b2657fe5b602002602001015181526020018c600181518110611b4057fe5b602002602001015181526020018c600281518110611b5a57fe5b60200260200101518152509050611b6f613bcb565b604051806101c0016040528088815260200160036004811115611b8e57fe5b81526020018c81526020018381526020018b81526020018981526020018d600081518110611bb857fe5b602002602001015151604051908082528060200260200182016040528015611bf457816020015b6060815260200190600190039081611bdf5790505b5081526020018d600081518110611c0757fe5b60200260200101515181526020018781526020018a81526020018a51604051908082528060200260200182016040528015611c515781602001602082028038833980820191505090505b5081526020018a51604051908082528060200260200182016040528015611c875781602001602082028038833980820191505090505b5081526020018481526020018573ffffffffffffffffffffffffffffffffffffffff1681525090508060038c604051611cc0919061520c565b90815260200160405180910390206000820151816000019080519060200190611cea929190613c67565b5060208201518160010160006101000a81548160ff02191690836004811115611d0f57fe5b02179055506040820151816002019080519060200190611d30929190613c67565b506060820151816003016000820151816000019080519060200190611d56929190613ce7565b506020820151816001019080519060200190611d73929190613ce7565b506040820151816002019080519060200190611d90929190613ce7565b5050506080820151816006019080519060200190611daf929190613d34565b5060a0820151816007019080519060200190611dcc929190613dbe565b5060c0820151816008019080519060200190611de9929190613e1e565b5060e0820151816009015561010082015181600a019080519060200190611e11929190613e7e565b5061012082015181600b019080519060200190611e2f929190613d34565b5061014082015181600c019080519060200190611e4d929190613ce7565b5061016082015181600d019080519060200190611e6b929190613ce7565b5061018082015181600e0160008201518160000160006101000a81548163ffffffff021916908363ffffffff1602179055506020820151816001015550506101a08201518160100160006101000a81548173ffffffffffffffffffffffffffffffffffffffff021916908373ffffffffffffffffffffffffffffffffffffffff16021790555090505060028b9080600181540180825580915050906001820390600052602060002001600090919290919091509080519060200190611f31929190613afd565b5050611f3b613ede565b6040518061012001604052808d815260200160405180602001604052806000815250815260200160036004811115611f6f57fe5b8152602001600073ffffffffffffffffffffffffffffffffffffffff168152602001600081526020018b51604051908082528060200260200182016040528015611fc85781602001602082028038833980820191505090505b5081526020018b51604051908082528060200260200182016040528015611ffe5781602001602082028038833980820191505090505b5081526020018b516040519080825280602002602001820160405280156120345781602001602082028038833980820191505090505b5081526020018b5160405190808252806020026020018201604052801561206a5781602001602082028038833980820191505090505b5081525090508060048d604051612081919061520c565b908152602001604051809103902060008201518160000190805190602001906120ab929190613c67565b5060208201518160010190805190602001906120c8929190613c67565b5060408201518160020160006101000a81548160ff021916908360048111156120ed57fe5b021790555060608201518160020160016101000a81548173ffffffffffffffffffffffffffffffffffffffff021916908373ffffffffffffffffffffffffffffffffffffffff1602179055506080820151816003015560a082015181600401908051906020019061215f929190613d34565b5060c082015181600501908051906020019061217c929190613ce7565b5060e0820151816006019080519060200190612199929190613ce7565b506101008201518160070190805190602001906121b7929190613ce7565b509050503373ffffffffffffffffffffffffffffffffffffffff1682604001516040516121e491906151f5565b60405180910390207fc42dc8c6712875975b09ece703779e4ed83179500da5c8776b1eab681e04c7fa60405160405180910390a38495505050505050979650505050505050565b600060038360405161223d919061520c565b9081526020016040518091039020600601828154811061225957fe5b9060005260206000200160009054906101000a900473ffffffffffffffffffffffffffffffffffffffff16905092915050565b60008090505b835181101561232b578381815181106122a757fe5b602002602001015173ffffffffffffffffffffffffffffffffffffffff168573ffffffffffffffffffffffffffffffffffffffff16141561231e57816004846040516122f3919061520c565b9081526020016040518091039020600501828154811061230f57fe5b90600052602060002001819055505b8080600101915050612292565b5050505050565b6060600382604051612344919061520c565b9081526020016040518091039020600801805480602002602001604051908101604052809291908181526020016000905b82821015612431578382906000526020600020018054600181600116156101000203166002900480601f01602080910402602001604051908101604052809291908181526020018280546001816001161561010002031660029004801561241d5780601f106123f25761010080835404028352916020019161241d565b820191906000526020600020905b81548152906001019060200180831161240057829003601f168201915b505050505081526020019060010190612375565b505050509050919050565b606060048260405161244e919061520c565b90815260200160405180910390206006018054806020026020016040519081016040528092919081815260200182805480156124a957602002820191906000526020600020905b815481526020019060010190808311612495575b50505050509050919050565b60006001905060008090505b6004836040516124d1919061520c565b9081526020016040518091039020600401805490508110156125405760016004846040516124ff919061520c565b9081526020016040518091039020600501828154811061251b57fe5b90600052602060002001541415612533576001820191505b80806001019150506124c1565b50600482604051612551919061520c565b908152602001604051809103902060030154811415612659576040518060400160405280601981526020017f617070726f76656420627920616c6c20656e646f7273657273000000000000008152506000800190805190602001906125b7929190613afd565b50600360048111156125c557fe5b6004836040516125d5919061520c565b908152602001604051809103902060020160009054906101000a900460ff1660048111156125ff57fe5b50507fd2a535afc7065ca5ca78e1cbe51c4ab92413202d78b070b01df38363ac20363d600483604051612632919061520c565b90815260200160405180910390206001016040516126509190615443565b60405180910390a15b5050565b60606040518060400160405280600181526020017f4100000000000000000000000000000000000000000000000000000000000000815250600060010190805190602001906126ad929190613afd565b503373ffffffffffffffffffffffffffffffffffffffff168273ffffffffffffffffffffffffffffffffffffffff161461271c576040517f08c379a000000000000000000000000000000000000000000000000000000000815260040161271390615465565b60405180910390fd5b6040518060400160405280600181526020017f42000000000000000000000000000000000000000000000000000000000000008152506000600101908051906020019061276a929190613afd565b5060008090505b600484604051612781919061520c565b908152602001604051809103902060040180549050811015612b83576040518060400160405280600181526020017f4300000000000000000000000000000000000000000000000000000000000000815250600060010190805190602001906127eb929190613afd565b506004846040516127fc919061520c565b9081526020016040518091039020600401818154811061281857fe5b9060005260206000200160009054906101000a900473ffffffffffffffffffffffffffffffffffffffff1673ffffffffffffffffffffffffffffffffffffffff168373ffffffffffffffffffffffffffffffffffffffff161415612b76576040518060400160405280601081526020017f617070726f76616c207374616765203100000000000000000000000000000000815250600060010190805190602001906128c4929190613afd565b5060016004856040516128d7919061520c565b908152602001604051809103902060060182815481106128f357fe5b906000526020600020015414612b75576001600485604051612915919061520c565b9081526020016040518091039020600601828154811061293157fe5b90600052602060002001819055508273ffffffffffffffffffffffffffffffffffffffff1684604051612964919061520c565b60405180910390207fef93748ef353323feced9a53b1f9433297bf50235a9d5aa97783d3f30d4682e460405160405180910390a36040518060400160405280601081526020017f617070726f76616c207374616765203200000000000000000000000000000000815250600060010190805190602001906129e6929190613afd565b50600173__LibPublicDCRM_________________________631bb97528600487604051612a13919061520c565b9081526020016040518091039020600601600488604051612a34919061520c565b9081526020016040518091039020600301546040518363ffffffff1660e01b8152600401612a639291906152e8565b60206040518083038186803b158015612a7b57600080fd5b505af4158015612a8f573d6000803e3d6000fd5b505050506040513d601f19601f82011682018060405250612ab39190810190614b30565b1415612afd576000600485604051612acb919061520c565b908152602001604051809103902060020160006101000a81548160ff02191690836004811115612af757fe5b02179055505b600484604051612b0d919061520c565b9081526020016040518091039020600601805480602002602001604051908101604052809291908181526020018280548015612b6857602002820191906000526020600020905b815481526020019060010190808311612b54575b5050505050915050612bf7565b5b8080600101915050612771565b50600483604051612b94919061520c565b9081526020016040518091039020600601805480602002602001604051908101604052809291908181526020018280548015612bef57602002820191906000526020600020905b815481526020019060010190808311612bdb575b505050505090505b92915050565b612c08828233610d6b565b612c80576001600383604051612c1e919061520c565b9081526020016040518091039020600e016001018190555060018183604051612c47919061520c565b60405180910390207fa59297fb38de255753588982fd21223eab1e18d3151668c80b2ddeb15d7897b160405160405180910390a46131af565b6001600383604051612c92919061520c565b90815260200160405180910390206003016001018281548110612cb157fe5b90600052602060002001819055506000600383604051612cd1919061520c565b90815260200160405180910390206003016002018281548110612cf057fe5b90600052602060002001819055506060600383604051612d10919061520c565b9081526020016040518091039020600a01600181548110612d2d57fe5b906000526020600020018281548110612d4257fe5b90600052602060002001805480602002602001604051908101604052809291908181526020018280548015612d9657602002820191906000526020600020905b815481526020019060010190808311612d82575b505050505090506060600384604051612daf919061520c565b9081526020016040518091039020600a01600281548110612dcc57fe5b906000526020600020018381548110612de157fe5b90600052602060002001805480602002602001604051908101604052809291908181526020018280548015612e3557602002820191906000526020600020905b815481526020019060010190808311612e21575b505050505090506060600385604051612e4e919061520c565b9081526020016040518091039020600a01600081548110612e6b57fe5b906000526020600020018481548110612e8057fe5b90600052602060002001805480602002602001604051908101604052809291908181526020018280548015612ed457602002820191906000526020600020905b815481526020019060010190808311612ec0575b505050505090506060600386604051612eed919061520c565b9081526020016040518091039020600a01600381548110612f0a57fe5b906000526020600020018581548110612f1f57fe5b90600052602060002001805480602002602001604051908101604052809291908181526020018280548015612f7357602002820191906000526020600020905b815481526020019060010190808311612f5f575b5050505050905060008090505b8151811015612fcd576001828281518110612f9757fe5b60200260200101511415612fc0576001838281518110612fb357fe5b6020026020010181815250505b8080600101915050612f80565b5060008090505b600387604051612fe4919061520c565b9081526020016040518091039020600a0160018154811061300157fe5b906000526020600020018054905081101561313a57600185828151811061302457fe5b60200260200101511415801561304d5750600183828151811061304357fe5b6020026020010151145b15613092576001600388604051613064919061520c565b9081526020016040518091039020600301600001828154811061308357fe5b90600052602060002001819055505b60018482815181106130a057fe5b6020026020010151141561312d5760016003886040516130c0919061520c565b908152602001604051809103902060030160020182815481106130df57fe5b906000526020600020018190555060016003886040516130ff919061520c565b9081526020016040518091039020600301600001828154811061311e57fe5b90600052602060002001819055505b8080600101915050612fd4565b506000858760405161314c919061520c565b60405180910390207fa59297fb38de255753588982fd21223eab1e18d3151668c80b2ddeb15d7897b160405160405180910390a46001600387604051613192919061520c565b9081526020016040518091039020600e0160010181905550505050505b5050565b60606003826040516131c5919061520c565b908152602001604051809103902060030160020180548060200260200160405190810160405280929190818152602001828054801561322357602002820191906000526020600020905b81548152602001906001019080831161320f575b50505050509050919050565b606060008060608060008060048860405161324a919061520c565b908152602001604051809103902060010160048960405161326b919061520c565b908152602001604051809103902060020160009054906101000a900460ff16600481111561329557fe5b60038a6040516132a5919061520c565b908152602001604051809103902060010160009054906101000a900460ff1660048111156132cf57fe5b6000800160048c6040516132e3919061520c565b908152602001604051809103902060050160048d604051613304919061520c565b90815260200160405180910390206003015460048e604051613326919061520c565b908152602001604051809103902060020160019054906101000a900473ffffffffffffffffffffffffffffffffffffffff16868054600181600116156101000203166002900480601f0160208091040260200160405190810160405280929190818152602001828054600181600116156101000203166002900480156133ed5780601f106133c2576101008083540402835291602001916133ed565b820191906000526020600020905b8154815290600101906020018083116133d057829003601f168201915b50505050509650838054600181600116156101000203166002900480601f0160208091040260200160405190810160405280929190818152602001828054600181600116156101000203166002900480156134895780601f1061345e57610100808354040283529160200191613489565b820191906000526020600020905b81548152906001019060200180831161346c57829003601f168201915b50505050509350828054806020026020016040519081016040528092919081815260200182805480156134db57602002820191906000526020600020905b8154815260200190600101908083116134c7575b505050505092509650965096509650965096509650919395979092949650565b600080600090505b600484604051613513919061520c565b9081526020016040518091039020600401805490508110156136125760048460405161353f919061520c565b9081526020016040518091039020600401818154811061355b57fe5b9060005260206000200160009054906101000a900473ffffffffffffffffffffffffffffffffffffffff1673ffffffffffffffffffffffffffffffffffffffff168373ffffffffffffffffffffffffffffffffffffffff161480156135f6575060016004856040516135cd919061520c565b908152602001604051809103902060060182815481106135e957fe5b9060005260206000200154145b15613605576001915050613618565b8080600101915050613503565b50600090505b92915050565b6060600382604051613630919061520c565b9081526020016040518091039020600c0180548060200260200160405190810160405280929190818152602001828054801561368b57602002820191906000526020600020905b815481526020019060010190808311613677575b50505050509050919050565b3373ffffffffffffffffffffffffffffffffffffffff168573ffffffffffffffffffffffffffffffffffffffff1614613705576040517f08c379a00000000000000000000000000000000000000000000000000000000081526004016136fc90615465565b60405180910390fd5b6040518060400160405280601b81526020017f6368672072657175657374206265696e672070726f6365737365640000000000815250600080019080519060200190613752929190613afd565b506003600481111561376057fe5b600483604051613770919061520c565b908152602001604051809103902060020160009054906101000a900460ff16600481111561379a57fe5b14156139be576040518060400160405280601581526020017f63686720726571756573742076616c69646174656400000000000000000000008152506000800190805190602001906137ed929190613afd565b506002600483604051613800919061520c565b908152602001604051809103902060020160006101000a81548160ff0219169083600481111561382c57fe5b021790555080600483604051613842919061520c565b90815260200160405180910390206001019080519060200190613866929190613afd565b5084600483604051613878919061520c565b908152602001604051809103902060020160016101000a81548173ffffffffffffffffffffffffffffffffffffffff021916908373ffffffffffffffffffffffffffffffffffffffff16021790555083516004836040516138d9919061520c565b908152602001604051809103902060030181905550836004836040516138ff919061520c565b90815260200160405180910390206004019080519060200190613923929190613f4b565b5060008090505b84518110156139b8578573ffffffffffffffffffffffffffffffffffffffff1685828151811061395657fe5b602002602001015173ffffffffffffffffffffffffffffffffffffffff167f8dae525cabdde2b20f26998f05e6c504721ba1cea6f7229604cbee3a7267a015866040516139a39190615333565b60405180910390a3808060010191505061392a565b50613a0d565b8473ffffffffffffffffffffffffffffffffffffffff167fc4f2afae15f3e7da4e4f139081d67f69ef9f4c3736a6649eb2fa18537713031582604051613a049190615355565b60405180910390a25b5050505050565b60606002805480602002602001604051908101604052809291908181526020016000905b82821015613af4578382906000526020600020018054600181600116156101000203166002900480601f016020809104026020016040519081016040528092919081815260200182805460018160011615610100020316600290048015613ae05780601f10613ab557610100808354040283529160200191613ae0565b820191906000526020600020905b815481529060010190602001808311613ac357829003601f168201915b505050505081526020019060010190613a38565b50505050905090565b828054600181600116156101000203166002900490600052602060002090601f016020900481019282601f10613b3e57805160ff1916838001178555613b6c565b82800160010185558215613b6c579182015b82811115613b6b578251825591602001919060010190613b50565b5b509050613b799190613fd5565b5090565b611dbe8061597683390190565b6040518060400160405280600063ffffffff168152602001600081525090565b60405180606001604052806060815260200160608152602001606081525090565b604051806101c001604052806060815260200160006004811115613beb57fe5b815260200160608152602001613bff613ffa565b81526020016060815260200160608152602001606081526020016000815260200160608152602001606081526020016060815260200160608152602001613c4461401b565b8152602001600073ffffffffffffffffffffffffffffffffffffffff1681525090565b828054600181600116156101000203166002900490600052602060002090601f016020900481019282601f10613ca857805160ff1916838001178555613cd6565b82800160010185558215613cd6579182015b82811115613cd5578251825591602001919060010190613cba565b5b509050613ce39190613fd5565b5090565b828054828255906000526020600020908101928215613d23579160200282015b82811115613d22578251825591602001919060010190613d07565b5b509050613d309190613fd5565b5090565b828054828255906000526020600020908101928215613dad579160200282015b82811115613dac5782518260006101000a81548173ffffffffffffffffffffffffffffffffffffffff021916908373ffffffffffffffffffffffffffffffffffffffff16021790555091602001919060010190613d54565b5b509050613dba919061403b565b5090565b828054828255906000526020600020908101928215613e0d579160200282015b82811115613e0c578251829080519060200190613dfc929190613c67565b5091602001919060010190613dde565b5b509050613e1a919061407e565b5090565b828054828255906000526020600020908101928215613e6d579160200282015b82811115613e6c578251829080519060200190613e5c9291906140aa565b5091602001919060010190613e3e565b5b509050613e7a919061412a565b5090565b828054828255906000526020600020908101928215613ecd579160200282015b82811115613ecc578251829080519060200190613ebc929190614156565b5091602001919060010190613e9e565b5b509050613eda91906141b6565b5090565b604051806101200160405280606081526020016060815260200160006004811115613f0557fe5b8152602001600073ffffffffffffffffffffffffffffffffffffffff16815260200160008152602001606081526020016060815260200160608152602001606081525090565b828054828255906000526020600020908101928215613fc4579160200282015b82811115613fc35782518260006101000a81548173ffffffffffffffffffffffffffffffffffffffff021916908373ffffffffffffffffffffffffffffffffffffffff16021790555091602001919060010190613f6b565b5b509050613fd1919061403b565b5090565b613ff791905b80821115613ff3576000816000905550600101613fdb565b5090565b90565b60405180606001604052806060815260200160608152602001606081525090565b6040518060400160405280600063ffffffff168152602001600081525090565b61407b91905b8082111561407757600081816101000a81549073ffffffffffffffffffffffffffffffffffffffff021916905550600101614041565b5090565b90565b6140a791905b808211156140a3576000818161409a91906141e2565b50600101614084565b5090565b90565b828054600181600116156101000203166002900490600052602060002090601f016020900481019282601f106140eb57805160ff1916838001178555614119565b82800160010185558215614119579182015b828111156141185782518255916020019190600101906140fd565b5b5090506141269190613fd5565b5090565b61415391905b8082111561414f5760008181614146919061422a565b50600101614130565b5090565b90565b8280548282559060005260206000209081019282156141a5579160200282015b828111156141a4578251829080519060200190614194929190613ce7565b5091602001919060010190614176565b5b5090506141b29190614272565b5090565b6141df91905b808211156141db57600081816141d2919061429e565b506001016141bc565b5090565b90565b50805460018160011615610100020316600290046000825580601f106142085750614227565b601f0160209004906000526020600020908101906142269190613fd5565b5b50565b50805460018160011615610100020316600290046000825580601f10614250575061426f565b601f01602090049060005260206000209081019061426e9190613fd5565b5b50565b61429b91905b80821115614297576000818161428e91906142bf565b50600101614278565b5090565b90565b50805460008255906000526020600020908101906142bc9190614272565b50565b50805460008255906000526020600020908101906142dd9190613fd5565b50565b6000813590506142ef81615947565b92915050565b600082601f83011261430657600080fd5b813561431961431482615508565b6154db565b9150818183526020840193506020810190508385602084028201111561433e57600080fd5b60005b8381101561436e578161435488826142e0565b845260208401935060208301925050600181019050614341565b5050505092915050565b600082601f83011261438957600080fd5b813561439c61439782615530565b6154db565b9150818183526020840193506020810190508360005b838110156143e257813586016143c888826143ec565b8452602084019350602083019250506001810190506143b2565b5050505092915050565b600082601f8301126143fd57600080fd5b813561441061440b82615558565b6154db565b9150818183526020840193506020810190508360005b83811015614456578135860161443c8882614548565b845260208401935060208301925050600181019050614426565b5050505092915050565b600082601f83011261447157600080fd5b813561448461447f82615580565b6154db565b9150818183526020840193506020810190508360005b838110156144ca57813586016144b08882614548565b84526020840193506020830192505060018101905061449a565b5050505092915050565b600082601f8301126144e557600080fd5b81356144f86144f3826155a8565b6154db565b9150818183526020840193506020810190508360005b8381101561453e578135860161452488826145cb565b84526020840193506020830192505060018101905061450e565b5050505092915050565b600082601f83011261455957600080fd5b813561456c614567826155d0565b6154db565b9150818183526020840193506020810190508385602084028201111561459157600080fd5b60005b838110156145c157816145a78882614673565b845260208401935060208301925050600181019050614594565b5050505092915050565b600082601f8301126145dc57600080fd5b81356145ef6145ea826155f8565b6154db565b9150808252602083016020830185838301111561460b57600080fd5b6146168382846158ba565b50505092915050565b600082601f83011261463057600080fd5b813561464361463e82615624565b6154db565b9150808252602083016020830185838301111561465f57600080fd5b61466a8382846158ba565b50505092915050565b6000813590506146828161595e565b92915050565b6000815190506146978161595e565b92915050565b600080600080600060a086880312156146b557600080fd5b60006146c3888289016142e0565b955050602086013567ffffffffffffffff8111156146e057600080fd5b6146ec888289016142f5565b945050604086013567ffffffffffffffff81111561470957600080fd5b6147158882890161461f565b935050606086013567ffffffffffffffff81111561473257600080fd5b61473e8882890161461f565b925050608086013567ffffffffffffffff81111561475b57600080fd5b6147678882890161461f565b9150509295509295909350565b6000806000806080858703121561478a57600080fd5b6000614798878288016142e0565b945050602085013567ffffffffffffffff8111156147b557600080fd5b6147c1878288016142f5565b935050604085013567ffffffffffffffff8111156147de57600080fd5b6147ea8782880161461f565b92505060606147fb87828801614673565b91505092959194509250565b6000806000806080858703121561481d57600080fd5b600061482b878288016142e0565b945050602085013567ffffffffffffffff81111561484857600080fd5b6148548782880161461f565b935050604085013567ffffffffffffffff81111561487157600080fd5b61487d8782880161461f565b925050606061488e87828801614673565b91505092959194509250565b600080600080600080600060e0888a0312156148b557600080fd5b600088013567ffffffffffffffff8111156148cf57600080fd5b6148db8a828b01614460565b975050602088013567ffffffffffffffff8111156148f857600080fd5b6149048a828b0161461f565b965050604088013567ffffffffffffffff81111561492157600080fd5b61492d8a828b016142f5565b955050606088013567ffffffffffffffff81111561494a57600080fd5b6149568a828b016142f5565b945050608088013567ffffffffffffffff81111561497357600080fd5b61497f8a828b016144d4565b93505060a088013567ffffffffffffffff81111561499c57600080fd5b6149a88a828b0161461f565b92505060c088013567ffffffffffffffff8111156149c557600080fd5b6149d18a828b01614378565b91505092959891949750929550565b6000602082840312156149f257600080fd5b600082013567ffffffffffffffff811115614a0c57600080fd5b614a188482850161461f565b91505092915050565b60008060408385031215614a3457600080fd5b600083013567ffffffffffffffff811115614a4e57600080fd5b614a5a8582860161461f565b9250506020614a6b858286016142e0565b9150509250929050565b60008060408385031215614a8857600080fd5b600083013567ffffffffffffffff811115614aa257600080fd5b614aae8582860161461f565b9250506020614abf85828601614673565b9150509250929050565b600080600060608486031215614ade57600080fd5b600084013567ffffffffffffffff811115614af857600080fd5b614b048682870161461f565b9350506020614b1586828701614673565b9250506040614b26868287016142e0565b9150509250925092565b600060208284031215614b4257600080fd5b6000614b5084828501614688565b91505092915050565b6000614b658383614bdd565b60208301905092915050565b6000614b7d8383614e16565b905092915050565b6000614b918383614ee8565b905092915050565b6000614ba58383614f8b565b905092915050565b6000614bb983836151aa565b60208301905092915050565b6000614bd183836151d7565b60208301905092915050565b614be681615862565b82525050565b614bf581615862565b82525050565b6000614c06826156da565b614c1081856157a3565b9350614c1b83615650565b8060005b83811015614c4c578151614c338882614b59565b9750614c3e83615748565b925050600181019050614c1f565b5085935050505092915050565b6000614c64826156e5565b614c6e81856157b4565b935083602082028501614c8085615660565b8060005b85811015614cbc5784840389528151614c9d8582614b71565b9450614ca883615755565b925060208a01995050600181019050614c84565b50829750879550505050505092915050565b6000614cd9826156f0565b614ce381856157c5565b935083602082028501614cf585615670565b8060005b85811015614d315784840389528151614d128582614b85565b9450614d1d83615762565b925060208a01995050600181019050614cf9565b50829750879550505050505092915050565b6000614d4e826156fb565b614d5881856157d6565b935083602082028501614d6a85615680565b8060005b85811015614da65784840389528151614d878582614b99565b9450614d928361576f565b925060208a01995050600181019050614d6e565b50829750879550505050505092915050565b6000614dc382615711565b614dcd81856157f8565b9350614dd8836156a0565b8060005b83811015614e09578151614df08882614bad565b9750614dfb83615789565b925050600181019050614ddc565b5085935050505092915050565b6000614e2182615706565b614e2b81856157e7565b9350614e3683615690565b8060005b83811015614e67578151614e4e8882614bad565b9750614e598361577c565b925050600181019050614e3a565b5085935050505092915050565b6000614e7f8261571c565b614e898185615809565b9350614e94836156b0565b8060005b83811015614ecc57614ea982615916565b614eb38882614bc5565b9750614ebe83615796565b925050600181019050614e98565b5085935050505092915050565b614ee281615874565b82525050565b6000614ef382615727565b614efd818561581a565b9350614f0d8185602086016158c9565b614f1681615929565b840191505092915050565b6000614f2c8261573d565b614f36818561583c565b9350614f468185602086016158c9565b614f4f81615929565b840191505092915050565b6000614f658261573d565b614f6f818561584d565b9350614f7f8185602086016158c9565b80840191505092915050565b6000614f9682615732565b614fa0818561582b565b9350614fb08185602086016158c9565b614fb981615929565b840191505092915050565b6000614fcf82615732565b614fd9818561584d565b9350614fe98185602086016158c9565b80840191505092915050565b60008154600181166000811461501257600181146150385761507c565b607f6002830416615023818761583c565b955060ff19831686526020860193505061507c565b60028204615046818761583c565b9550615051856156c5565b60005b8281101561507357815481890152600182019150602081019050615054565b80880195505050505b505092915050565b600061509160138361583c565b91507f4d75737420626520726f6c65206f776e65722e000000000000000000000000006000830152602082019050919050565b60006150d1603d8361583c565b91507f616e6f74686572206368616e6765207265717565737420697320616c7265616460008301527f792070726f63657373656420666f72207468697320776f726b666c6f770000006020830152604082019050919050565b600061513760108361583c565b91507f77726f6e672072737020616e73776572000000000000000000000000000000006000830152602082019050919050565b6000615177600c8361583c565b91507f77726f6e674164647265737300000000000000000000000000000000000000006000830152602082019050919050565b6151b3816158a0565b82525050565b6151c2816158a0565b82525050565b6151d1816158a0565b82525050565b6151e0816158a0565b82525050565b6151ef816158aa565b82525050565b60006152018284614fc4565b915081905092915050565b60006152188284614f5a565b915081905092915050565b60006020820190506152386000830184614bec565b92915050565b600060208201905081810360008301526152588184614bfb565b905092915050565b6000602082019050818103600083015261527a8184614c59565b905092915050565b6000602082019050818103600083015261529c8184614cce565b905092915050565b600060208201905081810360008301526152be8184614d43565b905092915050565b600060208201905081810360008301526152e08184614db8565b905092915050565b600060408201905081810360008301526153028185614e74565b905061531160208301846151c8565b9392505050565b600060208201905061532d6000830184614ed9565b92915050565b6000602082019050818103600083015261534d8184614f21565b905092915050565b6000604082019050818103600083015261536f8184614f21565b90508181036020830152615382816150c4565b905092915050565b600060408201905081810360008301526153a48184614f21565b905081810360208301526153b78161512a565b905092915050565b600060e08201905081810360008301526153d9818a614f21565b90506153e860208301896151b9565b6153f560408301886151b9565b81810360608301526154078187614f21565b9050818103608083015261541b8186614db8565b905061542a60a08301856151b9565b61543760c0830184614bec565b98975050505050505050565b6000602082019050818103600083015261545d8184614ff5565b905092915050565b6000602082019050818103600083015261547e81615084565b9050919050565b6000602082019050818103600083015261549e8161516a565b9050919050565b60006020820190506154ba60008301846151b9565b92915050565b60006020820190506154d560008301846151e6565b92915050565b6000604051905081810181811067ffffffffffffffff821117156154fe57600080fd5b8060405250919050565b600067ffffffffffffffff82111561551f57600080fd5b602082029050602081019050919050565b600067ffffffffffffffff82111561554757600080fd5b602082029050602081019050919050565b600067ffffffffffffffff82111561556f57600080fd5b602082029050602081019050919050565b600067ffffffffffffffff82111561559757600080fd5b602082029050602081019050919050565b600067ffffffffffffffff8211156155bf57600080fd5b602082029050602081019050919050565b600067ffffffffffffffff8211156155e757600080fd5b602082029050602081019050919050565b600067ffffffffffffffff82111561560f57600080fd5b601f19601f8301169050602081019050919050565b600067ffffffffffffffff82111561563b57600080fd5b601f19601f8301169050602081019050919050565b6000819050602082019050919050565b6000819050602082019050919050565b6000819050602082019050919050565b6000819050602082019050919050565b6000819050602082019050919050565b6000819050602082019050919050565b60008190508160005260206000209050919050565b60008190508160005260206000209050919050565b600081519050919050565b600081519050919050565b600081519050919050565b600081519050919050565b600081519050919050565b600081519050919050565b600081549050919050565b600081519050919050565b600081519050919050565b600081519050919050565b6000602082019050919050565b6000602082019050919050565b6000602082019050919050565b6000602082019050919050565b6000602082019050919050565b6000602082019050919050565b6000600182019050919050565b600082825260208201905092915050565b600082825260208201905092915050565b600082825260208201905092915050565b600082825260208201905092915050565b600082825260208201905092915050565b600082825260208201905092915050565b600082825260208201905092915050565b600082825260208201905092915050565b600082825260208201905092915050565b600082825260208201905092915050565b600081905092915050565b6000819050919050565b600061586d82615880565b9050919050565b60008115159050919050565b600073ffffffffffffffffffffffffffffffffffffffff82169050919050565b6000819050919050565b600063ffffffff82169050919050565b82818337600083830152505050565b60005b838110156158e75780820151818401526020810190506158cc565b838111156158f6576000848401525b50505050565b600061590f61590a8361593a565b615858565b9050919050565b600061592282546158fc565b9050919050565b6000601f19601f8301169050919050565b60008160001c9050919050565b61595081615862565b811461595b57600080fd5b50565b615967816158a0565b811461597257600080fd5b5056fe608060405234801561001057600080fd5b50611d9e806100206000396000f3fe608060405234801561001057600080fd5b50600436106100a95760003560e01c806373b029c31161007157806373b029c31461014e57806389069ea71461017e57806393614356146101af578063aa86c8fc146101df578063bd2895821461020f578063fe7f26921461022b576100a9565b80630b3e9bfc146100ae578063252e7bed146100ca578063612fa967146100e657806361650af7146101025780636725f9131461011e575b600080fd5b6100c860048036036100c3919081019061164f565b61025b565b005b6100e460048036036100df9190810190611496565b610376565b005b61010060048036036100fb9190810190611496565b610443565b005b61011c600480360361011791908101906115a8565b610497565b005b61013860048036036101339190810190611442565b61054a565b60405161014591906119b7565b60405180910390f35b61016860048036036101639190810190611442565b61066e565b6040516101759190611995565b60405180910390f35b61019860048036036101939190810190611300565b610737565b6040516101a69291906119d9565b60405180910390f35b6101c960048036036101c49190810190611442565b61098e565b6040516101d69190611a32565b60405180910390f35b6101f960048036036101f49190810190611515565b6109e2565b6040516102069190611a4d565b60405180910390f35b61022960048036036102249190810190611341565b610a8e565b005b61024560048036036102409190810190611442565b610cb9565b6040516102529190611a10565b60405180910390f35b60006001806003600088604051610272919061197e565b9081526020016040518091039020878154811061028b57fe5b9060005260206000209060050201600001856040516102aa919061197e565b908152602001604051809103902060003373ffffffffffffffffffffffffffffffffffffffff1673ffffffffffffffffffffffffffffffffffffffff16815260200190815260200160002060009054906101000a900460ff1660ff16901c1660ff161490508061031657fe5b82600086604051610327919061197e565b9081526020016040518091039020858154811061034057fe5b906000526020600020906005020160030160006101000a81548163ffffffff021916908363ffffffff1602179055505050505050565b600060018060008660405161038b919061197e565b908152602001604051809103902085815481106103a457fe5b9060005260206000209060050201600001846040516103c3919061197e565b908152602001604051809103902060003373ffffffffffffffffffffffffffffffffffffffff1673ffffffffffffffffffffffffffffffffffffffff16815260200190815260200160002060009054906101000a900460ff161660ff161490508061042a57fe5b3373ffffffffffffffffffffffffffffffffffffffff16ff5b80600084604051610454919061197e565b9081526020016040518091039020838154811061046d57fe5b90600052602060002090600502016004019080519060200190610491929190610d96565b50505050565b806000866040516104a8919061197e565b908152602001604051809103902085815481106104c157fe5b9060005260206000209060050201600001846040516104e0919061197e565b908152602001604051809103902060008473ffffffffffffffffffffffffffffffffffffffff1673ffffffffffffffffffffffffffffffffffffffff16815260200190815260200160002060006101000a81548160ff021916908360ff1602179055505050505050565b606060008360405161055c919061197e565b9081526020016040518091039020828154811061057557fe5b9060005260206000209060050201600101805480602002602001604051908101604052809291908181526020016000905b82821015610662578382906000526020600020018054600181600116156101000203166002900480601f01602080910402602001604051908101604052809291908181526020018280546001816001161561010002031660029004801561064e5780601f106106235761010080835404028352916020019161064e565b820191906000526020600020905b81548152906001019060200180831161063157829003601f168201915b5050505050815260200190600101906105a6565b50505050905092915050565b6060600083604051610680919061197e565b9081526020016040518091039020828154811061069957fe5b906000526020600020906005020160020180548060200260200160405190810160405280929190818152602001828054801561072a57602002820191906000526020600020905b8160009054906101000a900473ffffffffffffffffffffffffffffffffffffffff1673ffffffffffffffffffffffffffffffffffffffff16815260200190600101908083116106e0575b5050505050905092915050565b606080606060008460405161074c919061197e565b90815260200160405180910390208054905060405190808252806020026020018201604052801561079157816020015b606081526020019060019003908161077c5790505b50905060606000856040516107a6919061197e565b9081526020016040518091039020805490506040519080825280602002602001820160405280156107e65781602001602082028038833980820191505090505b50905060008090505b6000866040516107ff919061197e565b90815260200160405180910390208054905081101561098057600086604051610828919061197e565b9081526020016040518091039020818154811061084157fe5b90600052602060002090600502016004018054600181600116156101000203166002900480601f0160208091040260200160405190810160405280929190818152602001828054600181600116156101000203166002900480156108e65780601f106108bb576101008083540402835291602001916108e6565b820191906000526020600020905b8154815290600101906020018083116108c957829003601f168201915b50505050508382815181106108f757fe5b6020026020010181905250600086604051610912919061197e565b9081526020016040518091039020818154811061092b57fe5b906000526020600020906005020160030160009054906101000a900463ffffffff1682828151811061095957fe5b602002602001019063ffffffff16908163ffffffff168152505080806001019150506107ef565b508181935093505050915091565b6000808360405161099f919061197e565b908152602001604051809103902082815481106109b857fe5b906000526020600020906005020160030160009054906101000a900463ffffffff16905092915050565b600080856040516109f3919061197e565b90815260200160405180910390208481548110610a0c57fe5b906000526020600020906005020160000183604051610a2b919061197e565b908152602001604051809103902060008373ffffffffffffffffffffffffffffffffffffffff1673ffffffffffffffffffffffffffffffffffffffff16815260200190815260200160002060009054906101000a900460ff169050949350505050565b610a96610e16565b6040518060800160405280868152602001858152602001600063ffffffff168152602001878152509050600087604051610ad0919061197e565b908152602001604051809103902081908060018154018082558091505090600182039060005260206000209060050201600090919290919091506000820151816001019080519060200190610b26929190610e44565b506020820151816002019080519060200190610b43929190610ea4565b5060408201518160030160006101000a81548163ffffffff021916908363ffffffff1602179055506060820151816004019080519060200190610b87929190610f2e565b5050505060008090505b82811015610caf57838181518110610ba557fe5b6020026020010151600089604051610bbd919061197e565b9081526020016040518091039020600160008b604051610bdd919061197e565b9081526020016040518091039020805490500381548110610bfa57fe5b9060005260206000209060050201600001878381518110610c1757fe5b6020026020010151604051610c2c9190611967565b90815260200160405180910390206000878481518110610c4857fe5b602002602001015173ffffffffffffffffffffffffffffffffffffffff1673ffffffffffffffffffffffffffffffffffffffff16815260200190815260200160002060006101000a81548160ff021916908360ff1602179055508080600101915050610b91565b5050505050505050565b6060600083604051610ccb919061197e565b90815260200160405180910390208281548110610ce457fe5b90600052602060002090600502016004018054600181600116156101000203166002900480601f016020809104026020016040519081016040528092919081815260200182805460018160011615610100020316600290048015610d895780601f10610d5e57610100808354040283529160200191610d89565b820191906000526020600020905b815481529060010190602001808311610d6c57829003601f168201915b5050505050905092915050565b828054600181600116156101000203166002900490600052602060002090601f016020900481019282601f10610dd757805160ff1916838001178555610e05565b82800160010185558215610e05579182015b82811115610e04578251825591602001919060010190610de9565b5b509050610e129190610fae565b5090565b60405180608001604052806060815260200160608152602001600063ffffffff168152602001606081525090565b828054828255906000526020600020908101928215610e93579160200282015b82811115610e92578251829080519060200190610e82929190610f2e565b5091602001919060010190610e64565b5b509050610ea09190610fd3565b5090565b828054828255906000526020600020908101928215610f1d579160200282015b82811115610f1c5782518260006101000a81548173ffffffffffffffffffffffffffffffffffffffff021916908373ffffffffffffffffffffffffffffffffffffffff16021790555091602001919060010190610ec4565b5b509050610f2a9190610fff565b5090565b828054600181600116156101000203166002900490600052602060002090601f016020900481019282601f10610f6f57805160ff1916838001178555610f9d565b82800160010185558215610f9d579182015b82811115610f9c578251825591602001919060010190610f81565b5b509050610faa9190610fae565b5090565b610fd091905b80821115610fcc576000816000905550600101610fb4565b5090565b90565b610ffc91905b80821115610ff85760008181610fef9190611042565b50600101610fd9565b5090565b90565b61103f91905b8082111561103b57600081816101000a81549073ffffffffffffffffffffffffffffffffffffffff021916905550600101611005565b5090565b90565b50805460018160011615610100020316600290046000825580601f106110685750611087565b601f0160209004906000526020600020908101906110869190610fae565b5b50565b60008135905061109981611cff565b92915050565b600082601f8301126110b057600080fd5b81356110c36110be82611a95565b611a68565b915081818352602084019350602081019050838560208402820111156110e857600080fd5b60005b8381101561111857816110fe888261108a565b8452602084019350602083019250506001810190506110eb565b5050505092915050565b600082601f83011261113357600080fd5b813561114661114182611abd565b611a68565b9150818183526020840193506020810190508360005b8381101561118c57813586016111728882611219565b84526020840193506020830192505060018101905061115c565b5050505092915050565b600082601f8301126111a757600080fd5b81356111ba6111b582611ae5565b611a68565b915081818352602084019350602081019050838560208402820111156111df57600080fd5b60005b8381101561120f57816111f588826112eb565b8452602084019350602083019250506001810190506111e2565b5050505092915050565b600082601f83011261122a57600080fd5b813561123d61123882611b0d565b611a68565b9150808252602083016020830185838301111561125957600080fd5b611264838284611cac565b50505092915050565b600082601f83011261127e57600080fd5b813561129161128c82611b39565b611a68565b915080825260208301602083018583830111156112ad57600080fd5b6112b8838284611cac565b50505092915050565b6000813590506112d081611d16565b92915050565b6000813590506112e581611d2d565b92915050565b6000813590506112fa81611d44565b92915050565b60006020828403121561131257600080fd5b600082013567ffffffffffffffff81111561132c57600080fd5b6113388482850161126d565b91505092915050565b60008060008060008060c0878903121561135a57600080fd5b600087013567ffffffffffffffff81111561137457600080fd5b61138089828a0161126d565b965050602087013567ffffffffffffffff81111561139d57600080fd5b6113a989828a0161126d565b955050604087013567ffffffffffffffff8111156113c657600080fd5b6113d289828a01611122565b945050606087013567ffffffffffffffff8111156113ef57600080fd5b6113fb89828a0161109f565b935050608087013567ffffffffffffffff81111561141857600080fd5b61142489828a01611196565b92505060a061143589828a016112c1565b9150509295509295509295565b6000806040838503121561145557600080fd5b600083013567ffffffffffffffff81111561146f57600080fd5b61147b8582860161126d565b925050602061148c858286016112c1565b9150509250929050565b6000806000606084860312156114ab57600080fd5b600084013567ffffffffffffffff8111156114c557600080fd5b6114d18682870161126d565b93505060206114e2868287016112c1565b925050604084013567ffffffffffffffff8111156114ff57600080fd5b61150b8682870161126d565b9150509250925092565b6000806000806080858703121561152b57600080fd5b600085013567ffffffffffffffff81111561154557600080fd5b6115518782880161126d565b9450506020611562878288016112c1565b935050604085013567ffffffffffffffff81111561157f57600080fd5b61158b8782880161126d565b925050606061159c8782880161108a565b91505092959194509250565b600080600080600060a086880312156115c057600080fd5b600086013567ffffffffffffffff8111156115da57600080fd5b6115e68882890161126d565b95505060206115f7888289016112c1565b945050604086013567ffffffffffffffff81111561161457600080fd5b6116208882890161126d565b93505060606116318882890161108a565b9250506080611642888289016112eb565b9150509295509295909350565b6000806000806080858703121561166557600080fd5b600085013567ffffffffffffffff81111561167f57600080fd5b61168b8782880161126d565b945050602061169c878288016112c1565b93505060406116ad878288016112d6565b925050606085013567ffffffffffffffff8111156116ca57600080fd5b6116d68782880161126d565b91505092959194509250565b60006116ee8383611726565b60208301905092915050565b600061170683836118d0565b905092915050565b600061171a838361193a565b60208301905092915050565b61172f81611c53565b82525050565b600061174082611b95565b61174a8185611bf3565b935061175583611b65565b8060005b8381101561178657815161176d88826116e2565b975061177883611bcc565b925050600181019050611759565b5085935050505092915050565b600061179e82611ba0565b6117a88185611c04565b9350836020820285016117ba85611b75565b8060005b858110156117f657848403895281516117d785826116fa565b94506117e283611bd9565b925060208a019950506001810190506117be565b50829750879550505050505092915050565b600061181382611bab565b61181d8185611c15565b935061182883611b85565b8060005b83811015611859578151611840888261170e565b975061184b83611be6565b92505060018101905061182c565b5085935050505092915050565b600061187182611bc1565b61187b8185611c37565b935061188b818560208601611cbb565b61189481611cee565b840191505092915050565b60006118aa82611bc1565b6118b48185611c48565b93506118c4818560208601611cbb565b80840191505092915050565b60006118db82611bb6565b6118e58185611c26565b93506118f5818560208601611cbb565b6118fe81611cee565b840191505092915050565b600061191482611bb6565b61191e8185611c48565b935061192e818560208601611cbb565b80840191505092915050565b61194381611c8f565b82525050565b61195281611c8f565b82525050565b61196181611c9f565b82525050565b60006119738284611909565b915081905092915050565b600061198a828461189f565b915081905092915050565b600060208201905081810360008301526119af8184611735565b905092915050565b600060208201905081810360008301526119d18184611793565b905092915050565b600060408201905081810360008301526119f38185611793565b90508181036020830152611a078184611808565b90509392505050565b60006020820190508181036000830152611a2a8184611866565b905092915050565b6000602082019050611a476000830184611949565b92915050565b6000602082019050611a626000830184611958565b92915050565b6000604051905081810181811067ffffffffffffffff82111715611a8b57600080fd5b8060405250919050565b600067ffffffffffffffff821115611aac57600080fd5b602082029050602081019050919050565b600067ffffffffffffffff821115611ad457600080fd5b602082029050602081019050919050565b600067ffffffffffffffff821115611afc57600080fd5b602082029050602081019050919050565b600067ffffffffffffffff821115611b2457600080fd5b601f19601f8301169050602081019050919050565b600067ffffffffffffffff821115611b5057600080fd5b601f19601f8301169050602081019050919050565b6000819050602082019050919050565b6000819050602082019050919050565b6000819050602082019050919050565b600081519050919050565b600081519050919050565b600081519050919050565b600081519050919050565b600081519050919050565b6000602082019050919050565b6000602082019050919050565b6000602082019050919050565b600082825260208201905092915050565b600082825260208201905092915050565b600082825260208201905092915050565b600082825260208201905092915050565b600082825260208201905092915050565b600081905092915050565b6000611c5e82611c65565b9050919050565b600073ffffffffffffffffffffffffffffffffffffffff82169050919050565b6000819050919050565b600063ffffffff82169050919050565b600060ff82169050919050565b82818337600083830152505050565b60005b83811015611cd9578082015181840152602081019050611cbe565b83811115611ce8576000848401525b50505050565b6000601f19601f8301169050919050565b611d0881611c53565b8114611d1357600080fd5b50565b611d1f81611c85565b8114611d2a57600080fd5b50565b611d3681611c8f565b8114611d4157600080fd5b50565b611d4d81611c9f565b8114611d5857600080fd5b5056fea365627a7a72315820af091df73150bc411002c51f21cc8913972ce7aa4103f88bfd3fa6fa2a3e309f6c6578706572696d656e74616cf564736f6c63430005100040525350206e6f74206170706c696361626c6520686572652028616c72656164792070726f6365737365643f29a365627a7a723158207cdf64587ee0543cd98156b4eb7a866862305ae29406397367cc7cc11decc8916c6578706572696d656e74616cf564736f6c63430005100040",
  "source": "// pragma solidity 0.5.10;\npragma solidity ^0.5.16;\npragma experimental ABIEncoderV2;\n\nimport \"./ProvableAPI_0.5.sol\";\nimport \"./Access_Matrix.sol\";\nimport \"./LibPublicDCRM.sol\";\n\n\n\ncontract PublicDCRManager {\n    // event declaration\n    event LogWorkflowCreation(\n        string indexed workflowHash,\n        address indexed creator\n    );\n\n    event LogExecution(\n        string indexed workflowHash,\n        uint256 indexed activityId,\n        uint256 indexed status\n        //address indexed executor\n    );\n\n    event LogWorkflowProjection(\n        string indexed workflowHash,\n        address indexed creator\n    );\n    \n    // CHANGE NEGOCIATION EVENTS\n    event RequestChange(\n        string workflowHashes,\n        address indexed endorser,\n        address indexed initiator\n    );\n    event DeclineChange(\n        string reqWkfHash,\n        address indexed endorser\n    );\n    event AcceptChange(\n        string reqWkfHash,\n        address indexed endorser\n    );\n    event AcceptChangeAll(\n        string reqWkfHash\n    );\n\n    event RSPErrorChange(\n        string reqWkfHash,\n        address indexed endorser,\n        string comment\n    );\n\n    // variable declarations.\n\n    struct Workflow {\n        string name;\n        ChgStatus wkfStatus;\n\n        string ipfsViewHash;\n\n        Marking markings;\n        address[] roleAddresses;\n        string[] activityNames;\n        bytes[] ipfsActivityHashes;\n        uint256 numActivities; //number of included activities\n        uint256[][][] relations; //includesTo, excludesTo, responsesTo, conditionsFrom, milestonesFrom\n\n        \n        address[] approvalAddresses;\n        uint[] approvalOutcomes;\n        uint[] didFetch;\n        Activity execStatus;\n        Access_matrix access_matrix;\n\n        //string publicData;\n    }\n    \n    enum ChgStatus { Approved, Declined, BeingProcessed, Init, Switched }\n   // enum EndorserDecision { Approve, Decline, NA}\n\n    struct fooTest{\n        string test;\n        string testBis;\n    }\n\n    fooTest Test = fooTest({test:'init', testBis:'init'});\n\n    struct ChangeRequest {\n        string currHash; \n        string reqHash;\n        ChgStatus status;\n        address initiator;\n        uint numEndorsers;\n        address[] endorsers;\n        uint[] changeEndorsement;\n\n        uint[] approvalOutcomes;\n        uint[] didFetch;\n    }\n    \n    struct Marking {\n        uint256[] included;\n        uint256[] executed;\n        uint256[] pending;\n    }\n\n    struct Activity {\n        uint32 canExecuteCheck;\n        uint256 status; //0=no, 1=yes\n    }\n    \n    string[] registeredViewHashes;\n\n    mapping(string => Workflow) workflows;\n    mapping(string => ChangeRequest) changeRequests;\n\n\n\n    ///////////////// Getters ////////////////////////\n\n    function getAllWKHashes() public view returns (string[] memory){\n        return registeredViewHashes;\n    }\n\n    function  getChangeArgs(string memory _hash) public view returns (string memory reqHash, uint ChangeValue, uint WKFValue, string memory _Test, uint[] memory ChangeEndorsement, uint numEndorsers, address initiator){\n        \n        return (    \n                    changeRequests[_hash].reqHash,\n                    uint(changeRequests[_hash].status), \n                    uint(workflows[_hash].wkfStatus),\n                    Test.test,\n                    changeRequests[_hash].changeEndorsement,\n                    changeRequests[_hash].numEndorsers,\n                    changeRequests[_hash].initiator\n                    );\n\n    }\n\n    /** @dev Getter for workflow execution status.\n      * @param _hash index of the workflow (eg 0 for the first workflow).\n      * @return execution status of the task: 0=ok, 1= \n      */\n    function getCanExecuteCheck(string memory _hash)\n        public\n        view\n        returns (uint32)\n    {\n        return workflows[_hash].execStatus.canExecuteCheck;\n    }\n\n    function getVariableAddress(string memory _hash)\n        public\n        view\n        returns (address)\n    {\n        return address(workflows[_hash].access_matrix);\n    }\n\n    function getIncluded(string memory _hash)\n        public\n        view\n        returns (uint256[] memory)\n    {\n        return workflows[_hash].markings.included;\n    }\n\n    function getExecuted(string memory _hash)\n        public\n        view\n        returns (uint256[] memory)\n    {\n        return workflows[_hash].markings.executed;\n    }\n\n    function getPending(string memory _hash)\n        public\n        view\n        returns (uint256[] memory)\n    {\n        return workflows[_hash].markings.pending;\n    }\n\n    function getConditionsFrom(string memory _hash)\n        public\n        view\n        returns (uint256[][] memory)\n    {\n        return workflows[_hash].relations[3];\n    }\n\n    function getHashes(string memory _hash)\n        public\n        view\n        returns (bytes[] memory)\n    {\n        return workflows[_hash].ipfsActivityHashes;\n    }\n\n    function getRoleAddresses(string memory _hash, uint256 activityId)\n        public\n        view\n        returns (address)\n    {\n        return workflows[_hash].roleAddresses[activityId];\n    }\n\n    function getAddresses(string memory _hash)\n        public\n        view\n        returns (address[] memory)\n    {\n        return workflows[_hash].approvalAddresses;\n    }\n\n\n    function getEndorserAddresses(string memory _hash)\n        public\n        view\n        returns (address[] memory)\n    {\n        return changeRequests[_hash].endorsers;\n    }\n\n    ///////////////// Change requests ////////////////////////\n\n    /** @dev manages change requests: if a request is already ongoing, cancel. Else, create a new change request and notify endorsers.\n      * @param toNotify list\n      * of endorser addreses.\n      * @param _hashes concatenated string of current wkf and request wkf ipfs hashes (ref to the public view)\n      * @param curr_hash current ipfs wkf hash\n      * @param req_hash  ipfs hash of requested change description\n      * @return processing decision.\n      */\n    function requestChange(address myAddress, address[] memory toNotify, string memory _hashes, string memory curr_hash, string memory req_hash) public payable {\n        \n        require(myAddress==msg.sender, \"Must be role owner.\"); //web3js bug carefew \n\n        Test.test = 'chg request being processed';\n\n        if(changeRequests[curr_hash].status == ChgStatus.Init){\n            Test.test = 'chg request validated';\n            //workflows[curr_hash].wkfStatus = ChgStatus.BeingProcessed;\n\n            changeRequests[curr_hash].status = ChgStatus.BeingProcessed;\n            changeRequests[curr_hash].reqHash = req_hash;\n            changeRequests[curr_hash].initiator = myAddress;\n            changeRequests[curr_hash].numEndorsers = toNotify.length;\n            changeRequests[curr_hash].endorsers = toNotify;\n            \n            for (\n                uint256 id = 0;\n                id < toNotify.length;\n                id++\n                ) {\n                    emit RequestChange(_hashes, toNotify[id], myAddress);\n                    //changeRequests[curr_hash].changeEndorsement[id] = 0; //// @TIPHAINE: ISSUE HERE --> DO A GETTER FOR THE ARRAY AND WATCH BEHAVIOR \n                }\n\n            // emit RequestChange(_hashes, toNotify, myAddress);\n            // 'request has been successfully registered';\n        }\n\n        else{\n            emit RSPErrorChange(req_hash, myAddress, 'another change request is already processed for this workflow');\n        }    \n    }\n\n\n    function finalApprovalManager(string memory myHash) public payable {\n        // check if required endorsers have answered --> if yes: unlock (set status to ChgStatus.Approved, update process markings and graph, )\n        uint totalRsp =1; //message sender is already ok \n        \n        for ( \n                uint256 id = 0;\n                id < changeRequests[myHash].endorsers.length;\n                id++\n            ) {\n                if((changeRequests[myHash].changeEndorsement[id] == 1)){\n                     totalRsp = totalRsp+1;\n                }\n            }\n            \n        if (totalRsp == changeRequests[myHash].numEndorsers){\n            Test.test  = 'approved by all endorsers';\n            changeRequests[myHash].status == ChgStatus.Init;\n            emit AcceptChangeAll(changeRequests[myHash].reqHash);\n            \n            // reinit chgEndorsement (?)\n            // TODO update process markings and graph\n\n        }\n    }\n    function updateTableOnAddress(address myAddress, address[] memory myAddresses, string memory myHash, uint myDecision) public payable{\n        for (\n                uint256 id = 0;\n                id < myAddresses.length;\n                id++\n            ) {\n                if((myAddress == myAddresses[id])){\n                    changeRequests[myHash].changeEndorsement[id] = myDecision;\n                }\n            }   \n    }\n    function endorserRSP(address myAddress, string memory curr_hash, string memory req_hash, uint rsp) public payable returns (string memory) {\n        \n        if(changeRequests[curr_hash].status == ChgStatus.BeingProcessed){\n            Test.test  = 'enteringNode';\n            // accept: emit decision and update change memory\n            if (rsp==1){\n                updateTableOnAddress(myAddress,changeRequests[curr_hash].endorsers, curr_hash,1);\n                Test.test  = 'approved by one person';\n                emit AcceptChange(req_hash, myAddress);\n                finalApprovalManager(curr_hash);\n            }         \n            \n            // declineapprovalOutcomes\n            else if (rsp == 2){\n                Test.test  = 'declined';\n                changeRequests[curr_hash].status = ChgStatus.Init;\n                emit DeclineChange(req_hash, myAddress);\n            }\n            \n            else {\n                emit RSPErrorChange(req_hash, myAddress, 'wrong rsp answer');\n            }\n\n            return 'RSP processed';\n        }\n\n        else{\n            return 'RSP not applicable here (already processed?)';\n        }    \n    }\n\n    ////////////// Accepted Changes post treatment //////////////\n\n\n\n\n    function getChangeApprovalsOutcome(string memory _hash)\n        public\n        view\n        returns (uint[] memory)\n    {\n        return (changeRequests[_hash].approvalOutcomes);\n    }\n\n    function hasApprovedProjection(string memory _hash, address myAddress)\n        public\n        view\n        returns (uint)\n    {\n        //uint res = 0;\n        for (\n            uint256 id = 0;\n            id < changeRequests[_hash].endorsers.length;\n            id++\n        ) {\n            if((myAddress == changeRequests[_hash].endorsers[id]) && changeRequests[_hash].approvalOutcomes[id] == 1){\n                return 1;\n            }\n        }\n        return 0;\n    }\n\n    /** @dev post private projection approval function.\n      * @param _hash index of the workflow (eg 0 for the first workflow).\n      * @param myAddress address of the sender (necessary for web3js dev).\n      * @return list of approval outcomes.\n      */\n    function confirmChangeProjection(string memory _hash, address myAddress) public payable returns (uint[] memory){\n        // get id of approvalList.addresses corresponding to msgSender. If (approval[id]==0): set to one;\n\n        Test.testBis='A';\n\n        require(myAddress==msg.sender, \"Must be role owner.\");\n        Test.testBis='B';\n\n        for (\n            uint256 id = 0;\n            id < changeRequests[_hash].endorsers.length;\n            id++\n        ) {\n            Test.testBis='C';\n\n            if((myAddress == changeRequests[_hash].endorsers[id]) ){ \n\n                Test.testBis='approval stage 1';\n                if(changeRequests[_hash].approvalOutcomes[id] != 1){ // must not have approved before\n                    changeRequests[_hash].approvalOutcomes[id] = 1;\n                    emit LogWorkflowProjection(_hash, myAddress);\n                    Test.testBis='approval stage 2';\n                    if(LibPublicDCRM.evaluateChgApproval(changeRequests[_hash].approvalOutcomes, changeRequests[_hash].numEndorsers)==1){\n                        changeRequests[_hash].status = ChgStatus.Approved;\n                    }\n                    return changeRequests[_hash].approvalOutcomes;\n                }\n            }\n        }\n        \n        return changeRequests[_hash].approvalOutcomes;\n    }  \n\n    ///////////////// Public-to-local Projections ////////////////////////\n\n\n    /** @dev Getter for workflow.\n      * @param _hash index of the workflow (eg 0 for the first workflow).\n      * @param myAddress sender adddress (must be registered to fetch the workflow).\n      * @return workflow, update didFetch variable to one.\n      */\n    function fetchPublicView(string memory _hash, address myAddress)\n        public\n        payable\n        returns (string memory)\n    {\n        \n        require(msg.sender == myAddress, 'wrongAddress');\n        \n        // update the didFetch variable\n        for (\n            uint256 id = 0;\n            id < workflows[_hash].approvalAddresses.length;\n            id++\n        ) {\n            if((myAddress == workflows[_hash].approvalAddresses[id]) && workflows[_hash].didFetch[id] != 1){\n                workflows[_hash].didFetch[id] = 1;\n                }\n        }\n        \n        return workflows[_hash].ipfsViewHash;\n    }\n\n    function getApprovalsOutcome(string memory _hash)\n        public\n        view\n        returns (uint[] memory)\n    {\n        return (workflows[_hash].approvalOutcomes);\n    }\n\n    function hasApproved(string memory _hash, address myAddress)\n        public\n        view\n        returns (uint)\n    {\n        //uint res = 0;\n        for (\n            uint256 id = 0;\n            id < workflows[_hash].approvalAddresses.length;\n            id++\n        ) {\n            if((myAddress == workflows[_hash].approvalAddresses[id]) && workflows[_hash].approvalOutcomes[id] == 1){\n                return 1;\n            }\n        }\n        return 0;\n    }\n\n    function confirmProjection(string memory _hash, address myAddress) public payable returns (uint[] memory){\n        // get id of approvalList.addresses corresponding to msgSender. If (approval[id]==0): set to one;\n        \n        require(myAddress==msg.sender, \"Must be role owner.\");\n\n        for (\n            uint256 id = 0;\n            id < workflows[_hash].approvalAddresses.length;\n            id++\n        ) {\n            if((myAddress == workflows[_hash].approvalAddresses[id]) && workflows[_hash].didFetch[id] == 1){ // must have fetched public view\n                if(workflows[_hash].approvalOutcomes[id] != 1){ // must not have approved before\n                    workflows[_hash].approvalOutcomes[id] = 1;\n                    emit LogWorkflowProjection(_hash, myAddress);\n                    return workflows[_hash].approvalOutcomes;\n                }\n            }\n        }\n        \n        return workflows[_hash].approvalOutcomes;\n    }  \n\n    ///////////////// Execution functions /////////////////////////\n\n    function canExecute(string memory _hash, uint256 activityId, address msgSender)\n        public\n        returns (bool)\n    {\n        // check if msg.sender address is correct\n        if (msgSender != workflows[_hash].roleAddresses[activityId]) {\n            workflows[_hash].execStatus.canExecuteCheck = 4;\n            return false;\n        }\n        \n        // activity must be included\n        if (workflows[_hash].markings.included[activityId] == 0) {\n            workflows[_hash].execStatus.canExecuteCheck = 1;\n            return false;\n        }\n\n        // all conditions executed\n        for (\n            uint256 id = 0;\n            id < workflows[_hash].relations[3].length;\n            id++\n        ) {\n            uint256[] memory conditionsRow =\n                workflows[_hash].relations[3][id];\n            if (conditionsRow[activityId] == 1) {\n                if (\n                    (workflows[_hash].markings.executed[id] == 0) &&\n                    (workflows[_hash].markings.included[id] == 1)\n                ) {\n                    workflows[_hash].execStatus.canExecuteCheck = 2;\n                    return false;\n                }\n            }\n        }\n\n        // no milestones pending\n        for (\n            uint256 id = 0;\n            id < workflows[_hash].relations[4].length; // milestonesFrom\n            id++\n        ) {\n            uint256[] memory milestonesRow =\n                workflows[_hash].relations[4][id];\n            if (milestonesRow[activityId] == 1) {\n                if (\n                    (workflows[_hash].markings.pending[id] == 1) &&\n                    (workflows[_hash].markings.included[id] == 1)\n                ) {\n                    workflows[_hash].execStatus.canExecuteCheck = 3;\n                    return false;\n                }\n            }\n        }\n\n        workflows[_hash].execStatus.canExecuteCheck = 0;\n        return true;\n    }\n\n    function checkCliquedIndex(string memory _hash, uint256 activityId)\n        public\n    //        bytes memory ipfsHash\n    {\n        if (!canExecute(_hash, activityId, msg.sender)) {\n            workflows[_hash].execStatus.status = 1;\n            emit LogExecution(_hash, activityId,1);\n\n            //revert();\n        } else {\n            // executed activity\n            workflows[_hash].markings.executed[activityId] = 1;\n            workflows[_hash].markings.pending[activityId] = 0;\n            //            workflows[workflowId].ipfsActivityHashes[activityId] = ipfsHash;\n\n            uint256[] memory exclude_vect_check =\n                workflows[_hash].relations[1][activityId]; // excludes\n            uint256[] memory response_vect_check =\n                workflows[_hash].relations[2][activityId]; // responsesTo\n\n            // add include relations\n            uint256[] memory include_vect_check =\n                workflows[_hash].relations[0][activityId]; // includes\n\n            // update with condition relations ok\n            uint256[] memory conditionsTo =\n                workflows[_hash].relations[3][activityId]; //extract row condition\n            for (uint256 id = 0; id < conditionsTo.length; id++) {\n                if (conditionsTo[id] == 1) {\n                    include_vect_check[id] = 1;\n                }\n            }\n\n            for (\n                uint256 id = 0;\n                id < workflows[_hash].relations[1].length; // excludesTo\n                id++\n            ) {\n                // exclude and include relations pass\n                // note includes happens after the exclude pass\n                // included = (included & ~excludesTo[activityId]) | includesTo[activityId];\n                if (\n                    (exclude_vect_check[id] != 1) &&\n                    (include_vect_check[id] == 1)\n                ) {\n                    workflows[_hash].markings.included[id] = 1;\n                }\n\n                // response relations pass\n                // pending = (pending | responsesTo[activityId]);\n                if (response_vect_check[id] == 1) {\n                    workflows[_hash].markings.pending[id] = 1;\n                    workflows[_hash].markings.included[id] = 1;\n                }\n            }\n\n            emit LogExecution(_hash, activityId,0);\n\n            workflows[_hash].execStatus.status = 1;\n        }\n    }\n\n\n    ///////////////// Workflow creation /////////////////////////\n\n    function uploadPublicView(\n        // packed state variables\n        uint256[][] memory markingStates, // included, executed, pending\n\n        string memory _ipfsViewHash,\n        //process information\n        address[] memory _roleAddresses,\n        address[] memory _approvalAddresses,\n        string[] memory _activityNames,\n        string memory _name,\n        // relations\n        uint256[][][] memory _relations // includesto, excludesto, responsesto, conditionsfrom, milestonesFrom,\n\n    ) public payable returns (address) {\n        Access_matrix _access_matrix = new Access_matrix();\n        Activity memory execStatus = Activity(0, 0);\n        Marking memory markings = Marking(markingStates[0],markingStates[1],markingStates[2]);\n        Workflow memory wf =\n            Workflow(\n                _name,\n                ChgStatus.Init,\n                _ipfsViewHash,\n                markings,\n                _roleAddresses,\n                _activityNames,\n                new bytes[](markingStates[0].length),\n                markingStates[0].length,\n                _relations,\n                _approvalAddresses,\n                new uint[](_approvalAddresses.length),\n                new uint[](_approvalAddresses.length),\n                execStatus,\n                _access_matrix\n                //_publicData\n            );\n        workflows[_ipfsViewHash]=wf;\n        registeredViewHashes.push(_ipfsViewHash);\n\n        ChangeRequest memory chgReq = ChangeRequest(\n            _ipfsViewHash,\n            '', \n            ChgStatus.Init,\n            address(0), \n            0, \n            new address[](_approvalAddresses.length),\n            new uint[](_approvalAddresses.length),\n            new uint[](_approvalAddresses.length),\n            new uint[](_approvalAddresses.length)\n        );       \n\n        changeRequests[_ipfsViewHash]=chgReq;\n\n        emit LogWorkflowCreation(wf.ipfsViewHash, msg.sender);\n\n        return address(_access_matrix);\n\n    }\n\n\n\n}\n",
  "sourcePath": "/home/qlwf4652/Downloads/project/adaptiveChangeDCR/contracts/PublicDCRManager.sol",
  "compiler": {
    "name": "solc",
    "version": "0.5.16+commit.9c3226ce.Emscripten.clang"
  },
  "schemaVersion": "3.4.8",
  "updatedAt": "2022-07-19T12:13:30.210Z",
  "networkType": "ethereum",
  "devdoc": {
    "methods": {
      "confirmChangeProjection(string,address)": {
        "details": "post private projection approval function.",
        "params": {
          "_hash": "index of the workflow (eg 0 for the first workflow).",
          "myAddress": "address of the sender (necessary for web3js dev)."
        },
        "return": "list of approval outcomes."
      },
      "fetchPublicView(string,address)": {
        "details": "Getter for workflow.",
        "params": {
          "_hash": "index of the workflow (eg 0 for the first workflow).",
          "myAddress": "sender adddress (must be registered to fetch the workflow)."
        },
        "return": "workflow, update didFetch variable to one."
      },
      "getCanExecuteCheck(string)": {
        "details": "Getter for workflow execution status.",
        "params": {
          "_hash": "index of the workflow (eg 0 for the first workflow)."
        },
        "return": "execution status of the task: 0=ok, 1= "
      },
      "requestChange(address,address[],string,string,string)": {
        "details": "manages change requests: if a request is already ongoing, cancel. Else, create a new change request and notify endorsers.",
        "params": {
          "_hashes": "concatenated string of current wkf and request wkf ipfs hashes (ref to the public view)",
          "curr_hash": "current ipfs wkf hash",
          "req_hash": "ipfs hash of requested change description",
          "toNotify": "list of endorser addreses."
        },
        "return": "processing decision."
      }
    }
  },
  "userdoc": {
    "methods": {
      "canExecute(string,uint256,address)": {
        "notice": "////////////// Execution functions /////////////////////////"
      },
      "getAllWKHashes()": {
        "notice": "////////////// Getters ////////////////////////"
      },
      "getChangeApprovalsOutcome(string)": {
        "notice": "/////////// Accepted Changes post treatment //////////////"
      },
      "uploadPublicView(uint256[][],string,address[],address[],string[],string,uint256[][][])": {
        "notice": "////////////// Workflow creation /////////////////////////"
      }
    }
  }
}